{
  "contractName": "UniswapOracleInstance",
  "abi": [
    {
      "inputs": [
        {
          "internalType": "address",
          "name": "_factory",
          "type": "address"
        },
        {
          "internalType": "address",
          "name": "_tokenA",
          "type": "address"
        },
        {
          "internalType": "address",
          "name": "_tokenB",
          "type": "address"
        }
      ],
      "stateMutability": "nonpayable",
      "type": "constructor"
    },
    {
      "anonymous": false,
      "inputs": [
        {
          "indexed": true,
          "internalType": "address",
          "name": "previousOwner",
          "type": "address"
        },
        {
          "indexed": true,
          "internalType": "address",
          "name": "newOwner",
          "type": "address"
        }
      ],
      "name": "OwnershipTransferred",
      "type": "event"
    },
    {
      "inputs": [],
      "name": "PERIOD",
      "outputs": [
        {
          "internalType": "uint256",
          "name": "",
          "type": "uint256"
        }
      ],
      "stateMutability": "view",
      "type": "function"
    },
    {
      "inputs": [],
      "name": "blockTimestampLast",
      "outputs": [
        {
          "internalType": "uint32",
          "name": "",
          "type": "uint32"
        }
      ],
      "stateMutability": "view",
      "type": "function"
    },
    {
      "inputs": [],
      "name": "owner",
      "outputs": [
        {
          "internalType": "address",
          "name": "",
          "type": "address"
        }
      ],
      "stateMutability": "view",
      "type": "function"
    },
    {
      "inputs": [],
      "name": "pair",
      "outputs": [
        {
          "internalType": "contract IUniswapV2Pair",
          "name": "",
          "type": "address"
        }
      ],
      "stateMutability": "view",
      "type": "function"
    },
    {
      "inputs": [],
      "name": "price0Average",
      "outputs": [
        {
          "internalType": "uint224",
          "name": "_x",
          "type": "uint224"
        }
      ],
      "stateMutability": "view",
      "type": "function"
    },
    {
      "inputs": [],
      "name": "price0CumulativeLast",
      "outputs": [
        {
          "internalType": "uint256",
          "name": "",
          "type": "uint256"
        }
      ],
      "stateMutability": "view",
      "type": "function"
    },
    {
      "inputs": [],
      "name": "price1Average",
      "outputs": [
        {
          "internalType": "uint224",
          "name": "_x",
          "type": "uint224"
        }
      ],
      "stateMutability": "view",
      "type": "function"
    },
    {
      "inputs": [],
      "name": "price1CumulativeLast",
      "outputs": [
        {
          "internalType": "uint256",
          "name": "",
          "type": "uint256"
        }
      ],
      "stateMutability": "view",
      "type": "function"
    },
    {
      "inputs": [],
      "name": "renounceOwnership",
      "outputs": [],
      "stateMutability": "nonpayable",
      "type": "function"
    },
    {
      "inputs": [],
      "name": "token0",
      "outputs": [
        {
          "internalType": "address",
          "name": "",
          "type": "address"
        }
      ],
      "stateMutability": "view",
      "type": "function"
    },
    {
      "inputs": [],
      "name": "token1",
      "outputs": [
        {
          "internalType": "address",
          "name": "",
          "type": "address"
        }
      ],
      "stateMutability": "view",
      "type": "function"
    },
    {
      "inputs": [
        {
          "internalType": "address",
          "name": "newOwner",
          "type": "address"
        }
      ],
      "name": "transferOwnership",
      "outputs": [],
      "stateMutability": "nonpayable",
      "type": "function"
    },
    {
      "inputs": [],
      "name": "update",
      "outputs": [],
      "stateMutability": "nonpayable",
      "type": "function"
    },
    {
      "inputs": [],
      "name": "consult",
      "outputs": [
        {
          "internalType": "uint256",
          "name": "price",
          "type": "uint256"
        }
      ],
      "stateMutability": "view",
      "type": "function"
    }
  ],
  "bytecode": "0x60806040523480156200001157600080fd5b506040516200106438038062001064833981810160405260608110156200003757600080fd5b508051602082015160409092015190919060006200005d6001600160e01b036200036e16565b600080546001600160a01b0319166001600160a01b0383169081178255604051929350917f8be0079c531659141344cd1fd0a4f28419497f9722a3daafe3b4186f6b6457e0908290a3506000620000c18484846200037260201b620008941760201c565b905080600160006101000a8154816001600160a01b0302191690836001600160a01b03160217905550806001600160a01b0316630dfe16816040518163ffffffff1660e01b815260040160206040518083038186803b1580156200012457600080fd5b505afa15801562000139573d6000803e3d6000fd5b505050506040513d60208110156200015057600080fd5b5051600280546001600160a01b0319166001600160a01b039283161790556040805163d21220a760e01b815290519183169163d21220a791600480820192602092909190829003018186803b158015620001a957600080fd5b505afa158015620001be573d6000803e3d6000fd5b505050506040513d6020811015620001d557600080fd5b5051600380546001600160a01b0319166001600160a01b0392831617905560408051635909c0d560e01b8152905191831691635909c0d591600480820192602092909190829003018186803b1580156200022e57600080fd5b505afa15801562000243573d6000803e3d6000fd5b505050506040513d60208110156200025a57600080fd5b5051600490815560408051635a3d549360e01b815290516001600160a01b03841692635a3d549392808201926020929091829003018186803b158015620002a057600080fd5b505afa158015620002b5573d6000803e3d6000fd5b505050506040513d6020811015620002cc57600080fd5b505160055560408051630240bc6b60e21b8152905160009182916001600160a01b03851691630902f1ac916004808301926060929190829003018186803b1580156200031757600080fd5b505afa1580156200032c573d6000803e3d6000fd5b505050506040513d60608110156200034357600080fd5b50604001516006805463ffffffff191663ffffffff9092169190911790555062000532945050505050565b3390565b600080806200038b85856001600160e01b036200044f16565b604080516001600160601b0319606094851b811660208084019190915293851b81166034830152825160288184030181526048830184528051908501207fff0000000000000000000000000000000000000000000000000000000000000060688401529a90941b9093166069840152607d8301989098527f96e8ac4277198ff8b6f785478aa9a39f403cb768dd02cbee326c3e7da348845f609d808401919091528851808403909101815260bd909201909752805196019590952095945050505050565b600080826001600160a01b0316846001600160a01b03161415620004a55760405162461bcd60e51b81526004018080602001828103825260258152602001806200103f6025913960400191505060405180910390fd5b826001600160a01b0316846001600160a01b031610620004c7578284620004ca565b83835b90925090506001600160a01b0382166200052b576040805162461bcd60e51b815260206004820152601e60248201527f556e697377617056324c6962726172793a205a45524f5f414444524553530000604482015290519081900360640190fd5b9250929050565b610afd80620005426000396000f3fe608060405234801561001057600080fd5b50600436106100ca5760003560e01c8063a2e620451161007c578063a2e6204514610153578063a6bb45391461015b578063a8aa1b3114610163578063b4d1d7951461016b578063c5700a0214610173578063d21220a714610194578063f2fde38b1461019c576100ca565b80630dfe1681146100cf5780635909c0d5146100f35780635a3d54931461010d5780635e6aaf2c14610115578063715018a6146101395780637eeda703146101435780638da5cb5b1461014b575b600080fd5b6100d76101c2565b604080516001600160a01b039092168252519081900360200190f35b6100fb6101d1565b60408051918252519081900360200190f35b6100fb6101d7565b61011d6101dd565b604080516001600160e01b039092168252519081900360200190f35b6101416101ec565b005b6100fb6102a0565b6100d76102e4565b6101416102f3565b61011d610419565b6100d7610428565b6100fb610437565b61017b61043e565b6040805163ffffffff9092168252519081900360200190f35b6100d761044a565b610141600480360360208110156101b257600080fd5b50356001600160a01b0316610459565b6002546001600160a01b031681565b60045481565b60055481565b6008546001600160e01b031681565b6101f4610563565b6000546001600160a01b03908116911614610256576040805162461bcd60e51b815260206004820181905260248201527f4f776e61626c653a2063616c6c6572206973206e6f7420746865206f776e6572604482015290519081900360640190fd5b600080546040516001600160a01b03909116907f8be0079c531659141344cd1fd0a4f28419497f9722a3daafe3b4186f6b6457e0908390a3600080546001600160a01b0319169055565b60408051602081019091526007546001600160e01b031681526000906102d6906102d190600163ffffffff61056716565b6105e5565b6001600160901b0316905090565b6000546001600160a01b031690565b6001546000908190819061030f906001600160a01b03166105ec565b600654929550909350915063ffffffff9081168203906201518090821610156103695760405162461bcd60e51b8152600401808060200182810382526027815260200180610a7e6027913960400191505060405180910390fd5b60405180602001604052808263ffffffff1660045487038161038757fe5b046001600160e01b039081169091529051600780546001600160e01b031916919092161790556040805160208101909152600554819063ffffffff8416908603816103ce57fe5b046001600160e01b039081169091529051600880546001600160e01b03191691909216179055506004929092556005556006805463ffffffff191663ffffffff909216919091179055565b6007546001600160e01b031681565b6001546001600160a01b031681565b6201518081565b60065463ffffffff1681565b6003546001600160a01b031681565b610461610563565b6000546001600160a01b039081169116146104c3576040805162461bcd60e51b815260206004820181905260248201527f4f776e61626c653a2063616c6c6572206973206e6f7420746865206f776e6572604482015290519081900360640190fd5b6001600160a01b0381166105085760405162461bcd60e51b8152600401808060200182810382526026815260200180610a336026913960400191505060405180910390fd5b600080546040516001600160a01b03808516939216917f8be0079c531659141344cd1fd0a4f28419497f9722a3daafe3b4186f6b6457e091a3600080546001600160a01b0319166001600160a01b0392909216919091179055565b3390565b61056f61086f565b600082158061059557505082516001600160e01b03168281029083828161059257fe5b04145b6105d05760405162461bcd60e51b8152600401808060200182810382526023815260200180610aa56023913960400191505060405180910390fd5b60408051602081019091529081529392505050565b5160701c90565b60008060006105f96107bb565b9050836001600160a01b0316635909c0d56040518163ffffffff1660e01b815260040160206040518083038186803b15801561063457600080fd5b505afa158015610648573d6000803e3d6000fd5b505050506040513d602081101561065e57600080fd5b505160408051635a3d549360e01b815290519194506001600160a01b03861691635a3d549391600480820192602092909190829003018186803b1580156106a457600080fd5b505afa1580156106b8573d6000803e3d6000fd5b505050506040513d60208110156106ce57600080fd5b505160408051630240bc6b60e21b81529051919350600091829182916001600160a01b03891691630902f1ac916004808301926060929190829003018186803b15801561071a57600080fd5b505afa15801561072e573d6000803e3d6000fd5b505050506040513d606081101561074457600080fd5b5080516020820151604090920151909450909250905063ffffffff808216908516146107b15780840363ffffffff811661077e84866107c5565b516001600160e01b031602969096019563ffffffff811661079f85856107c5565b516001600160e01b0316029590950194505b5050509193909250565b63ffffffff421690565b6107cd610882565b6000826001600160701b031611610825576040805162461bcd60e51b81526020600482015260176024820152764669786564506f696e743a204449565f42595f5a45524f60481b604482015290519081900360640190fd5b6040805160208101909152806001600160701b0384166dffffffffffffffffffffffffffff60701b607087901b168161085a57fe5b046001600160e01b0316815250905092915050565b6040518060200160405280600081525090565b60408051602081019091526000815290565b60008060006108a38585610954565b604080516bffffffffffffffffffffffff19606094851b811660208084019190915293851b81166034830152825160288184030181526048830184528051908501206001600160f81b031960688401529a90941b9093166069840152607d8301989098527f96e8ac4277198ff8b6f785478aa9a39f403cb768dd02cbee326c3e7da348845f609d808401919091528851808403909101815260bd909201909752805196019590952095945050505050565b600080826001600160a01b0316846001600160a01b031614156109a85760405162461bcd60e51b8152600401808060200182810382526025815260200180610a596025913960400191505060405180910390fd5b826001600160a01b0316846001600160a01b0316106109c85782846109cb565b83835b90925090506001600160a01b038216610a2b576040805162461bcd60e51b815260206004820152601e60248201527f556e697377617056324c6962726172793a205a45524f5f414444524553530000604482015290519081900360640190fd5b925092905056fe4f776e61626c653a206e6577206f776e657220697320746865207a65726f2061646472657373556e697377617056324c6962726172793a204944454e544943414c5f4144445245535345534578616d706c654f7261636c6553696d706c653a20504552494f445f4e4f545f454c41505345444669786564506f696e743a204d554c5449504c49434154494f4e5f4f564552464c4f57a2646970667358221220e9418de26830e7b142e5865c56b450fb4edf006de26c8a68101f2e002e1c11c864736f6c63430006060033556e697377617056324c6962726172793a204944454e544943414c5f414444524553534553",
  "immutableReferences": {},
  "source": "pragma solidity ^0.6.2;\n\nimport \"@openzeppelin/contracts/access/Ownable.sol\";\nimport '@uniswap/v2-core/contracts/interfaces/IUniswapV2Factory.sol';\nimport '@uniswap/v2-core/contracts/interfaces/IUniswapV2Pair.sol';\nimport '@uniswap/lib/contracts/libraries/FixedPoint.sol';\nimport '@uniswap/v2-periphery/contracts/libraries/UniswapV2OracleLibrary.sol';\nimport '@uniswap/v2-periphery/contracts/libraries/UniswapV2Library.sol';\n\n\ncontract UniswapOracleInstance is Ownable {\n\n  // fixed window oracle that recomputes the average price for the entire period once every period\n  // note that the price average is only guaranteed to be over at least 1 period, but may be over a longer period\n\n      using FixedPoint for *;\n\n      uint public constant PERIOD = 24 hours;\n\n      IUniswapV2Pair public  pair;\n      address public  token0;\n      address public  token1;\n\n      uint    public price0CumulativeLast;\n      uint    public price1CumulativeLast;\n      uint32  public blockTimestampLast;\n      FixedPoint.uq112x112 public price0Average;\n      FixedPoint.uq112x112 public price1Average;\n\n/**\n@notice the constructor function is fired once during token creation to initialize the oracle contract to a specific token pair\n@param _factory is the address of the Uniswap factory contract\n@param _tokenA is the address of the asset being looked up\n@param _tokenB is the address of the USDC token\n**/\n\n      constructor(address _factory, address _tokenA, address _tokenB) public {\n          IUniswapV2Pair _pair = IUniswapV2Pair(UniswapV2Library.pairFor(_factory, _tokenA, _tokenB));\n          pair = _pair;\n          token0 = _pair.token0();\n          token1 = _pair.token1();\n          price0CumulativeLast = _pair.price0CumulativeLast(); // fetch the current accumulated price value (1 / 0)\n          price1CumulativeLast = _pair.price1CumulativeLast(); // fetch the current accumulated price value (0 / 1)\n          uint112 reserve0;\n          uint112 reserve1;\n          (reserve0, reserve1, blockTimestampLast) = _pair.getReserves();\n      ///   require(reserve0 != 0 && reserve1 != 0, 'ExampleOracleSimple: NO_RESERVES'); // ensure that there's liquidity in the pair\n      }\n\n/**\n@notice update updates the prices for the input token pair over a set 24hour period\n@dev this is an internal function called by consult if the timeElapsed is greater than 24 hours\n**/\n      function update() public {\n          (uint price0Cumulative, uint price1Cumulative, uint32 blockTimestamp) =\n              UniswapV2OracleLibrary.currentCumulativePrices(address(pair));\n          uint32 timeElapsed = blockTimestamp - blockTimestampLast; // overflow is desired\n\n          // ensure that at least one full period has passed since the last update\n          require(timeElapsed >= PERIOD, 'ExampleOracleSimple: PERIOD_NOT_ELAPSED');\n\n          // overflow is desired, casting never truncates\n          // cumulative price is in (uq112x112 price * seconds) units so we simply wrap it after division by time elapsed\n          price0Average = FixedPoint.uq112x112(uint224((price0Cumulative - price0CumulativeLast) / timeElapsed));\n          price1Average = FixedPoint.uq112x112(uint224((price1Cumulative - price1CumulativeLast) / timeElapsed));\n\n          price0CumulativeLast = price0Cumulative;\n          price1CumulativeLast = price1Cumulative;\n          blockTimestampLast = blockTimestamp;\n      }\n\n/**\n@notice consult returns the price of a token in USDC\n@return price is the price of one asset in USDC(example 1WETH in USDC)\n**/\n      function consult() external view returns (uint price) {\n        price = price0Average.mul(1).decode144();\n      }\n\n    }\n",
  "sourcePath": "/home/stan36/repos/Askolend/uniswap-contracts/contracts/UniswapOracleInstance.sol",
  "compiler": {
    "name": "solc",
    "version": "0.6.6+commit.6c089d02.Emscripten.clang"
  },
  "schemaVersion": "3.2.5",
  "updatedAt": "2020-09-29T22:39:44.328Z",
  "devdoc": {
    "methods": {
      "constructor": {
        "params": {
          "_factory": "is the address of the Uniswap factory contract",
          "_tokenA": "is the address of the asset being looked up",
          "_tokenB": "is the address of the USDC token*"
        }
      },
      "owner()": {
        "details": "Returns the address of the current owner."
      },
      "renounceOwnership()": {
        "details": "Leaves the contract without owner. It will not be possible to call `onlyOwner` functions anymore. Can only be called by the current owner.     * NOTE: Renouncing ownership will leave the contract without an owner, thereby removing any functionality that is only available to the owner."
      },
      "transferOwnership(address)": {
        "details": "Transfers ownership of the contract to a new account (`newOwner`). Can only be called by the current owner."
      },
      "update()": {
        "details": "this is an internal function called by consult if the timeElapsed is greater than 24 hours*"
      }
    }
  },
  "userdoc": {
    "methods": {
      "constructor": "the constructor function is fired once during token creation to initialize the oracle contract to a specific token pair",
      "consult()": {
        "notice": "consult returns the price of a token in USDC"
      },
      "update()": {
        "notice": "update updates the prices for the input token pair over a set 24hour period"
      }
    }
  }
}