{
  "contractName": "UniswapOracleFactory",
  "abi": [
    {
      "inputs": [
        {
          "internalType": "address",
          "name": "usdcAdd",
          "type": "address"
        },
        {
          "internalType": "address",
          "name": "_uniFactoryAdd",
          "type": "address"
        }
      ],
      "stateMutability": "nonpayable",
      "type": "constructor"
    },
    {
      "anonymous": false,
      "inputs": [
        {
          "indexed": true,
          "internalType": "address",
          "name": "previousOwner",
          "type": "address"
        },
        {
          "indexed": true,
          "internalType": "address",
          "name": "newOwner",
          "type": "address"
        }
      ],
      "name": "OwnershipTransferred",
      "type": "event"
    },
    {
      "inputs": [],
      "name": "factory",
      "outputs": [
        {
          "internalType": "address",
          "name": "",
          "type": "address"
        }
      ],
      "stateMutability": "view",
      "type": "function",
      "constant": true
    },
    {
      "inputs": [
        {
          "internalType": "address",
          "name": "",
          "type": "address"
        }
      ],
      "name": "instanceTracker",
      "outputs": [
        {
          "internalType": "address",
          "name": "",
          "type": "address"
        }
      ],
      "stateMutability": "view",
      "type": "function",
      "constant": true
    },
    {
      "inputs": [],
      "name": "owner",
      "outputs": [
        {
          "internalType": "address",
          "name": "",
          "type": "address"
        }
      ],
      "stateMutability": "view",
      "type": "function",
      "constant": true
    },
    {
      "inputs": [],
      "name": "renounceOwnership",
      "outputs": [],
      "stateMutability": "nonpayable",
      "type": "function"
    },
    {
      "inputs": [
        {
          "internalType": "address",
          "name": "newOwner",
          "type": "address"
        }
      ],
      "name": "transferOwnership",
      "outputs": [],
      "stateMutability": "nonpayable",
      "type": "function"
    },
    {
      "inputs": [],
      "name": "uniswapRouter",
      "outputs": [
        {
          "internalType": "contract IUniswapV2Router02",
          "name": "",
          "type": "address"
        }
      ],
      "stateMutability": "view",
      "type": "function",
      "constant": true
    },
    {
      "inputs": [],
      "name": "uniswap_router_add",
      "outputs": [
        {
          "internalType": "address",
          "name": "",
          "type": "address"
        }
      ],
      "stateMutability": "view",
      "type": "function",
      "constant": true
    },
    {
      "inputs": [],
      "name": "usdc_add",
      "outputs": [
        {
          "internalType": "address",
          "name": "",
          "type": "address"
        }
      ],
      "stateMutability": "view",
      "type": "function",
      "constant": true
    },
    {
      "inputs": [
        {
          "internalType": "address",
          "name": "MoneyMarketInstance",
          "type": "address"
        },
        {
          "internalType": "address",
          "name": "token",
          "type": "address"
        }
      ],
      "name": "createNewOracle",
      "outputs": [
        {
          "internalType": "address",
          "name": "",
          "type": "address"
        }
      ],
      "stateMutability": "nonpayable",
      "type": "function"
    },
    {
      "inputs": [
        {
          "internalType": "address",
          "name": "_MMI",
          "type": "address"
        }
      ],
      "name": "getUnderlyingPrice",
      "outputs": [
        {
          "internalType": "uint256",
          "name": "",
          "type": "uint256"
        }
      ],
      "stateMutability": "view",
      "type": "function",
      "constant": true
    },
    {
      "inputs": [
        {
          "internalType": "address",
          "name": "_tokenA",
          "type": "address"
        },
        {
          "internalType": "address",
          "name": "_tokenB",
          "type": "address"
        },
        {
          "internalType": "address",
          "name": "_to",
          "type": "address"
        },
        {
          "internalType": "uint256",
          "name": "_amountIn",
          "type": "uint256"
        },
        {
          "internalType": "uint256",
          "name": "_amountOutMin",
          "type": "uint256"
        }
      ],
      "name": "swapERC20",
      "outputs": [],
      "stateMutability": "nonpayable",
      "type": "function"
    }
  ],
  "bytecode": "0x6080604052600180546001600160a01b031916737a250d5630b4cf539739df2c5dacb4c659f2488d17905534801561003657600080fd5b50604051611a98380380611a988339818101604052604081101561005957600080fd5b50805160209091015160006100756001600160e01b0361010216565b600080546001600160a01b0319166001600160a01b0383169081178255604051929350917f8be0079c531659141344cd1fd0a4f28419497f9722a3daafe3b4186f6b6457e0908290a350600154600480546001600160a01b039283166001600160a01b03199182161790915560028054821694831694909417909355600380549093169116179055610106565b3390565b611983806101156000396000f3fe60806040523480156200001157600080fd5b5060043610620000b85760003560e01c80638da5cb5b116200007b5780638da5cb5b14620001535780639adc328b146200015d578063c45a01551462000167578063f0defe931462000171578063f2fde38b14620001b6578063fc57d4df14620001df57620000b8565b80633373a44714620000bd5780633413adc81462000102578063715018a61462000133578063735de9f7146200013f5780638c8b68511462000149575b600080fd5b620000e660048036036020811015620000d557600080fd5b50356001600160a01b03166200021a565b604080516001600160a01b039092168252519081900360200190f35b620000e6600480360360408110156200011a57600080fd5b506001600160a01b038135811691602001351662000235565b6200013d62000344565b005b620000e6620003fb565b620000e66200040a565b620000e662000419565b620000e662000428565b620000e662000437565b6200013d600480360360a08110156200018957600080fd5b506001600160a01b0381358116916020810135821691604082013516906060810135906080013562000446565b6200013d60048036036020811015620001ce57600080fd5b50356001600160a01b0316620005ea565b6200020860048036036020811015620001f757600080fd5b50356001600160a01b0316620006f9565b60408051918252519081900360200190f35b6005602052600090815260409020546001600160a01b031681565b60006200024162000781565b6000546001600160a01b03908116911614620002a4576040805162461bcd60e51b815260206004820181905260248201527f4f776e61626c653a2063616c6c6572206973206e6f7420746865206f776e6572604482015290519081900360640190fd5b6003546002546040516000926001600160a01b03908116928692911690620002cc90620008b5565b6001600160a01b03938416815291831660208301529091166040808301919091525190819003606001906000f0801580156200030c573d6000803e3d6000fd5b506001600160a01b03948516600090815260056020526040902080546001600160a01b03191695821695909517909455509192915050565b6200034e62000781565b6000546001600160a01b03908116911614620003b1576040805162461bcd60e51b815260206004820181905260248201527f4f776e61626c653a2063616c6c6572206973206e6f7420746865206f776e6572604482015290519081900360640190fd5b600080546040516001600160a01b03909116907f8be0079c531659141344cd1fd0a4f28419497f9722a3daafe3b4186f6b6457e0908390a3600080546001600160a01b0319169055565b6004546001600160a01b031681565b6001546001600160a01b031681565b6000546001600160a01b031690565b6002546001600160a01b031681565b6003546001600160a01b031681565b600454603c4201906001600160a01b03166338ed173984846200046a8a8a62000785565b88866040518663ffffffff1660e01b81526004018086815260200185815260200180602001846001600160a01b03166001600160a01b03168152602001838152602001828103825285818151815260200191508051906020019060200280838360005b83811015620004e7578181015183820152602001620004cd565b505050509050019650505050505050600060405180830381600087803b1580156200051157600080fd5b505af115801562000526573d6000803e3d6000fd5b505050506040513d6000823e601f3d908101601f1916820160405260208110156200055057600080fd5b81019080805160405193929190846401000000008211156200057157600080fd5b9083019060208201858111156200058757600080fd5b8251866020820283011164010000000082111715620005a557600080fd5b82525081516020918201928201910280838360005b83811015620005d4578181015183820152602001620005ba565b5050505090500160405250505050505050505050565b620005f462000781565b6000546001600160a01b0390811691161462000657576040805162461bcd60e51b815260206004820181905260248201527f4f776e61626c653a2063616c6c6572206973206e6f7420746865206f776e6572604482015290519081900360640190fd5b6001600160a01b0381166200069e5760405162461bcd60e51b8152600401808060200182810382526026815260200180620019286026913960400191505060405180910390fd5b600080546040516001600160a01b03808516939216917f8be0079c531659141344cd1fd0a4f28419497f9722a3daafe3b4186f6b6457e091a3600080546001600160a01b0319166001600160a01b0392909216919091179055565b6001600160a01b038082166000908152600560209081526040808320548151637eeda70360e01b81529151939416928392637eeda7039260048082019391829003018186803b1580156200074c57600080fd5b505afa15801562000761573d6000803e3d6000fd5b505050506040513d60208110156200077857600080fd5b50519392505050565b3390565b604080516003808252608082019092526060918291906020820183803683370190505090508381600081518110620007b957fe5b60200260200101906001600160a01b031690816001600160a01b031681525050600460009054906101000a90046001600160a01b03166001600160a01b031663ad5c46486040518163ffffffff1660e01b815260040160206040518083038186803b1580156200082857600080fd5b505afa1580156200083d573d6000803e3d6000fd5b505050506040513d60208110156200085457600080fd5b50518151829060019081106200086657fe5b60200260200101906001600160a01b031690816001600160a01b03168152505082816002815181106200089557fe5b6001600160a01b0390921660209283029190910190910152905092915050565b61106480620008c48339019056fe60806040523480156200001157600080fd5b506040516200106438038062001064833981810160405260608110156200003757600080fd5b508051602082015160409092015190919060006200005d6001600160e01b036200036e16565b600080546001600160a01b0319166001600160a01b0383169081178255604051929350917f8be0079c531659141344cd1fd0a4f28419497f9722a3daafe3b4186f6b6457e0908290a3506000620000c18484846200037260201b620008941760201c565b905080600160006101000a8154816001600160a01b0302191690836001600160a01b03160217905550806001600160a01b0316630dfe16816040518163ffffffff1660e01b815260040160206040518083038186803b1580156200012457600080fd5b505afa15801562000139573d6000803e3d6000fd5b505050506040513d60208110156200015057600080fd5b5051600280546001600160a01b0319166001600160a01b039283161790556040805163d21220a760e01b815290519183169163d21220a791600480820192602092909190829003018186803b158015620001a957600080fd5b505afa158015620001be573d6000803e3d6000fd5b505050506040513d6020811015620001d557600080fd5b5051600380546001600160a01b0319166001600160a01b0392831617905560408051635909c0d560e01b8152905191831691635909c0d591600480820192602092909190829003018186803b1580156200022e57600080fd5b505afa15801562000243573d6000803e3d6000fd5b505050506040513d60208110156200025a57600080fd5b5051600490815560408051635a3d549360e01b815290516001600160a01b03841692635a3d549392808201926020929091829003018186803b158015620002a057600080fd5b505afa158015620002b5573d6000803e3d6000fd5b505050506040513d6020811015620002cc57600080fd5b505160055560408051630240bc6b60e21b8152905160009182916001600160a01b03851691630902f1ac916004808301926060929190829003018186803b1580156200031757600080fd5b505afa1580156200032c573d6000803e3d6000fd5b505050506040513d60608110156200034357600080fd5b50604001516006805463ffffffff191663ffffffff9092169190911790555062000532945050505050565b3390565b600080806200038b85856001600160e01b036200044f16565b604080516001600160601b0319606094851b811660208084019190915293851b81166034830152825160288184030181526048830184528051908501207fff0000000000000000000000000000000000000000000000000000000000000060688401529a90941b9093166069840152607d8301989098527f96e8ac4277198ff8b6f785478aa9a39f403cb768dd02cbee326c3e7da348845f609d808401919091528851808403909101815260bd909201909752805196019590952095945050505050565b600080826001600160a01b0316846001600160a01b03161415620004a55760405162461bcd60e51b81526004018080602001828103825260258152602001806200103f6025913960400191505060405180910390fd5b826001600160a01b0316846001600160a01b031610620004c7578284620004ca565b83835b90925090506001600160a01b0382166200052b576040805162461bcd60e51b815260206004820152601e60248201527f556e697377617056324c6962726172793a205a45524f5f414444524553530000604482015290519081900360640190fd5b9250929050565b610afd80620005426000396000f3fe608060405234801561001057600080fd5b50600436106100ca5760003560e01c8063a2e620451161007c578063a2e6204514610153578063a6bb45391461015b578063a8aa1b3114610163578063b4d1d7951461016b578063c5700a0214610173578063d21220a714610194578063f2fde38b1461019c576100ca565b80630dfe1681146100cf5780635909c0d5146100f35780635a3d54931461010d5780635e6aaf2c14610115578063715018a6146101395780637eeda703146101435780638da5cb5b1461014b575b600080fd5b6100d76101c2565b604080516001600160a01b039092168252519081900360200190f35b6100fb6101d1565b60408051918252519081900360200190f35b6100fb6101d7565b61011d6101dd565b604080516001600160e01b039092168252519081900360200190f35b6101416101ec565b005b6100fb6102a0565b6100d76102e4565b6101416102f3565b61011d610419565b6100d7610428565b6100fb610437565b61017b61043e565b6040805163ffffffff9092168252519081900360200190f35b6100d761044a565b610141600480360360208110156101b257600080fd5b50356001600160a01b0316610459565b6002546001600160a01b031681565b60045481565b60055481565b6008546001600160e01b031681565b6101f4610563565b6000546001600160a01b03908116911614610256576040805162461bcd60e51b815260206004820181905260248201527f4f776e61626c653a2063616c6c6572206973206e6f7420746865206f776e6572604482015290519081900360640190fd5b600080546040516001600160a01b03909116907f8be0079c531659141344cd1fd0a4f28419497f9722a3daafe3b4186f6b6457e0908390a3600080546001600160a01b0319169055565b60408051602081019091526007546001600160e01b031681526000906102d6906102d190600163ffffffff61056716565b6105e5565b6001600160901b0316905090565b6000546001600160a01b031690565b6001546000908190819061030f906001600160a01b03166105ec565b600654929550909350915063ffffffff9081168203906201518090821610156103695760405162461bcd60e51b8152600401808060200182810382526027815260200180610a7e6027913960400191505060405180910390fd5b60405180602001604052808263ffffffff1660045487038161038757fe5b046001600160e01b039081169091529051600780546001600160e01b031916919092161790556040805160208101909152600554819063ffffffff8416908603816103ce57fe5b046001600160e01b039081169091529051600880546001600160e01b03191691909216179055506004929092556005556006805463ffffffff191663ffffffff909216919091179055565b6007546001600160e01b031681565b6001546001600160a01b031681565b6201518081565b60065463ffffffff1681565b6003546001600160a01b031681565b610461610563565b6000546001600160a01b039081169116146104c3576040805162461bcd60e51b815260206004820181905260248201527f4f776e61626c653a2063616c6c6572206973206e6f7420746865206f776e6572604482015290519081900360640190fd5b6001600160a01b0381166105085760405162461bcd60e51b8152600401808060200182810382526026815260200180610a336026913960400191505060405180910390fd5b600080546040516001600160a01b03808516939216917f8be0079c531659141344cd1fd0a4f28419497f9722a3daafe3b4186f6b6457e091a3600080546001600160a01b0319166001600160a01b0392909216919091179055565b3390565b61056f61086f565b600082158061059557505082516001600160e01b03168281029083828161059257fe5b04145b6105d05760405162461bcd60e51b8152600401808060200182810382526023815260200180610aa56023913960400191505060405180910390fd5b60408051602081019091529081529392505050565b5160701c90565b60008060006105f96107bb565b9050836001600160a01b0316635909c0d56040518163ffffffff1660e01b815260040160206040518083038186803b15801561063457600080fd5b505afa158015610648573d6000803e3d6000fd5b505050506040513d602081101561065e57600080fd5b505160408051635a3d549360e01b815290519194506001600160a01b03861691635a3d549391600480820192602092909190829003018186803b1580156106a457600080fd5b505afa1580156106b8573d6000803e3d6000fd5b505050506040513d60208110156106ce57600080fd5b505160408051630240bc6b60e21b81529051919350600091829182916001600160a01b03891691630902f1ac916004808301926060929190829003018186803b15801561071a57600080fd5b505afa15801561072e573d6000803e3d6000fd5b505050506040513d606081101561074457600080fd5b5080516020820151604090920151909450909250905063ffffffff808216908516146107b15780840363ffffffff811661077e84866107c5565b516001600160e01b031602969096019563ffffffff811661079f85856107c5565b516001600160e01b0316029590950194505b5050509193909250565b63ffffffff421690565b6107cd610882565b6000826001600160701b031611610825576040805162461bcd60e51b81526020600482015260176024820152764669786564506f696e743a204449565f42595f5a45524f60481b604482015290519081900360640190fd5b6040805160208101909152806001600160701b0384166dffffffffffffffffffffffffffff60701b607087901b168161085a57fe5b046001600160e01b0316815250905092915050565b6040518060200160405280600081525090565b60408051602081019091526000815290565b60008060006108a38585610954565b604080516bffffffffffffffffffffffff19606094851b811660208084019190915293851b81166034830152825160288184030181526048830184528051908501206001600160f81b031960688401529a90941b9093166069840152607d8301989098527f96e8ac4277198ff8b6f785478aa9a39f403cb768dd02cbee326c3e7da348845f609d808401919091528851808403909101815260bd909201909752805196019590952095945050505050565b600080826001600160a01b0316846001600160a01b031614156109a85760405162461bcd60e51b8152600401808060200182810382526025815260200180610a596025913960400191505060405180910390fd5b826001600160a01b0316846001600160a01b0316106109c85782846109cb565b83835b90925090506001600160a01b038216610a2b576040805162461bcd60e51b815260206004820152601e60248201527f556e697377617056324c6962726172793a205a45524f5f414444524553530000604482015290519081900360640190fd5b925092905056fe4f776e61626c653a206e6577206f776e657220697320746865207a65726f2061646472657373556e697377617056324c6962726172793a204944454e544943414c5f4144445245535345534578616d706c654f7261636c6553696d706c653a20504552494f445f4e4f545f454c41505345444669786564506f696e743a204d554c5449504c49434154494f4e5f4f564552464c4f57a2646970667358221220e9418de26830e7b142e5865c56b450fb4edf006de26c8a68101f2e002e1c11c864736f6c63430006060033556e697377617056324c6962726172793a204944454e544943414c5f4144445245535345534f776e61626c653a206e6577206f776e657220697320746865207a65726f2061646472657373a26469706673582212202b8e35a96fa6881c2a7eacb7a28dfb4a8f394ad52a292f2636d6727db74647d264736f6c63430006060033",
  "immutableReferences": {},
  "source": "pragma solidity ^0.6.2;\n\nimport \"@openzeppelin/contracts/access/Ownable.sol\";\nimport '@uniswap/v2-periphery/contracts/UniswapV2Router02.sol';\nimport \"./UniswapOracleInstance.sol\";\n\n\n////////////////////////////////////////////////////////////////////////////////////////////\n/// @title UniswapOracleFactory\n/// @author Christopher Dixon\n////////////////////////////////////////////////////////////////////////////////////////////\n/**\nThe UniswapOracleFactory contract is designed to produce individual UniswapOracleInstance contracts\nThis contract uses the OpenZeppelin contract Library to inherit functions from\n  Ownable.sol\n**/\n\ncontract UniswapOracleFactory is Ownable {\n  address public uniswap_router_add = 0x7a250d5630B4cF539739dF2C5dAcb4c659F2488D;\n  address public usdc_add;\n  address public factory;\n  IUniswapV2Router02 public uniswapRouter;\n\n  mapping(address => address) public instanceTracker; //maps erc20 address to the assets MoneyMarketInstance\n\n/**\n@notice constructor function is fired once during contract creation. This constructor initializes uniswapRouter\n        as a usable contract instance within the UniswapOracleFactory\n@param usdcAdd is the address of the ERC20 USDC address\n@param _uniFactoryAdd is the address of the uniswap factory contract \n**/\nconstructor(address usdcAdd, address _uniFactoryAdd) public {\n  uniswapRouter = IUniswapV2Router02(uniswap_router_add);\n  usdc_add = usdcAdd;\n  factory = _uniFactoryAdd;\n}\n\n  /**\n  @notice createNewOracle allows the owner of this contract to deploy a new oracle contract when\n          a new asset is whitelisted\n  @param MoneyMarketInstance is the address of the MoneyMakerInstance for this asset\n  @param token is the address of the token that this oracle will provide a USDC price feed for\n\n  **/\n  function createNewOracle(\n    address MoneyMarketInstance,\n    address token\n  )\n  public\n  onlyOwner\n  returns(address)\n  {\n\n    address _oracle = address(new UniswapOracleInstance (\n       factory,\n       token,\n       usdc_add\n    ));\n    instanceTracker[MoneyMarketInstance] = _oracle;\n    return _oracle;\n  }\n\n/**\n@notice getUnderlyingPrice allows for the price retrieval of a MoneyMarketInstances underlying asset\n@param _MMI is the address of the MoneyMarketInstance whos asset price is being retrieved\n@return returns the price of the asset\n**/\n  function getUnderlyingPrice(address _MMI) public view returns(uint) {\n    UniswapOracleInstance oracle = UniswapOracleInstance(instanceTracker[_MMI]);\n    return oracle.consult();\n  }\n\n/**\n@notice getPathForERC20Swap is an internal function used to create a uniswap trade path for two input\n        ERC20 tokens using WETH as a medium of exchange.\n@param _tokenA is the address of the token being exchanged from\n@param _tokenB is the address of the token being exchanged to\n@dev example: LINK => Augur swap _tokenA would be LINK address while _tokenB would be Augur Address\n**/\n  function getPathForERC20Swap(address _tokenA, address _tokenB) private view returns (address[] memory) {\n    address[] memory path = new address[](3);\n    path[0] = _tokenA;\n    path[1] = uniswapRouter.WETH();\n    path[2] = _tokenB;\n\n    return path;\n  }\n\n/**\n@notice swapERC20 is an external function that swaps one ERC20 token for another\n        using WETH as a medium of exchange.\n@param _tokenA is the address of the token being exchanged from\n@param _tokenB is the address of the token being exchanged to\n@param _to is the address of the MoneyMarketInstance calling this function\n@param _amountIn is the amount of _tokenA being exchanged\n@param _amountOutMin is the minimum amount of _tokenB to be received\n@dev example: LINK => Augur swap _tokenA would be LINK address while _tokenB would be Augur Address\n@dev _amountOutMin will need to be atleast enough to cover the cost of collateral liquidation\n      (loan amount +i nterest) and its liquidation fee amount.\n**/\n  function swapERC20(\n    address _tokenA,\n    address _tokenB,\n    address _to,\n    uint _amountIn,\n    uint _amountOutMin\n  ) external {\n    uint deadline = block.timestamp + 60;\n    uniswapRouter.swapExactTokensForTokens(\n      _amountIn,\n      _amountOutMin,\n      getPathForERC20Swap(_tokenA, _tokenB),\n      _to,\n      deadline\n    );\n  }\n\n\n}\n",
  "sourcePath": "/home/stan36/repos/Askolend/uniswap-contracts/contracts/UniswapOracleFactory.sol",
  "compiler": {
    "name": "solc",
    "version": "0.6.6+commit.6c089d02.Emscripten.clang"
  },
  "schemaVersion": "3.2.5",
  "updatedAt": "2020-09-29T22:41:04.457Z",
  "networkType": "ethereum",
  "devdoc": {
    "methods": {
      "constructor": {
        "params": {
          "_uniFactoryAdd": "is the address of the uniswap factory contract *",
          "usdcAdd": "is the address of the ERC20 USDC address"
        }
      },
      "createNewOracle(address,address)": {
        "params": {
          "MoneyMarketInstance": "is the address of the MoneyMakerInstance for this asset",
          "token": "is the address of the token that this oracle will provide a USDC price feed for*"
        }
      },
      "getUnderlyingPrice(address)": {
        "params": {
          "_MMI": "is the address of the MoneyMarketInstance whos asset price is being retrieved"
        },
        "returns": {
          "_0": "returns the price of the asset*"
        }
      },
      "owner()": {
        "details": "Returns the address of the current owner."
      },
      "renounceOwnership()": {
        "details": "Leaves the contract without owner. It will not be possible to call `onlyOwner` functions anymore. Can only be called by the current owner.     * NOTE: Renouncing ownership will leave the contract without an owner, thereby removing any functionality that is only available to the owner."
      },
      "swapERC20(address,address,address,uint256,uint256)": {
        "details": "example: LINK => Augur swap _tokenA would be LINK address while _tokenB would be Augur Address_amountOutMin will need to be atleast enough to cover the cost of collateral liquidation (loan amount +i nterest) and its liquidation fee amount.*",
        "params": {
          "_amountIn": "is the amount of _tokenA being exchanged",
          "_amountOutMin": "is the minimum amount of _tokenB to be received",
          "_to": "is the address of the MoneyMarketInstance calling this function",
          "_tokenA": "is the address of the token being exchanged from",
          "_tokenB": "is the address of the token being exchanged to"
        }
      },
      "transferOwnership(address)": {
        "details": "Transfers ownership of the contract to a new account (`newOwner`). Can only be called by the current owner."
      }
    }
  },
  "userdoc": {
    "methods": {
      "constructor": "constructor function is fired once during contract creation. This constructor initializes uniswapRouter as a usable contract instance within the UniswapOracleFactory",
      "createNewOracle(address,address)": {
        "notice": "createNewOracle allows the owner of this contract to deploy a new oracle contract when a new asset is whitelisted"
      },
      "getUnderlyingPrice(address)": {
        "notice": "getUnderlyingPrice allows for the price retrieval of a MoneyMarketInstances underlying asset"
      },
      "swapERC20(address,address,address,uint256,uint256)": {
        "notice": "swapERC20 is an external function that swaps one ERC20 token for another using WETH as a medium of exchange."
      }
    },
    "notice": "The UniswapOracleFactory contract is designed to produce individual UniswapOracleInstance contracts This contract uses the OpenZeppelin contract Library to inherit functions from Ownable.sol*"
  }
}