{
  "contractName": "UniswapOracleInstance",
  "abi": [
    {
      "inputs": [
        {
          "internalType": "address",
          "name": "_factory",
          "type": "address"
        },
        {
          "internalType": "address",
          "name": "_tokenA",
          "type": "address"
        },
        {
          "internalType": "address",
          "name": "_tokenB",
          "type": "address"
        }
      ],
      "stateMutability": "nonpayable",
      "type": "constructor"
    },
    {
      "anonymous": false,
      "inputs": [
        {
          "indexed": true,
          "internalType": "address",
          "name": "previousOwner",
          "type": "address"
        },
        {
          "indexed": true,
          "internalType": "address",
          "name": "newOwner",
          "type": "address"
        }
      ],
      "name": "OwnershipTransferred",
      "type": "event"
    },
    {
      "inputs": [],
      "name": "PERIOD",
      "outputs": [
        {
          "internalType": "uint256",
          "name": "",
          "type": "uint256"
        }
      ],
      "stateMutability": "view",
      "type": "function"
    },
    {
      "inputs": [],
      "name": "blockTimestampLast",
      "outputs": [
        {
          "internalType": "uint32",
          "name": "",
          "type": "uint32"
        }
      ],
      "stateMutability": "view",
      "type": "function"
    },
    {
      "inputs": [],
      "name": "owner",
      "outputs": [
        {
          "internalType": "address",
          "name": "",
          "type": "address"
        }
      ],
      "stateMutability": "view",
      "type": "function"
    },
    {
      "inputs": [],
      "name": "pair",
      "outputs": [
        {
          "internalType": "contract IUniswapV2Pair",
          "name": "",
          "type": "address"
        }
      ],
      "stateMutability": "view",
      "type": "function"
    },
    {
      "inputs": [],
      "name": "price0Average",
      "outputs": [
        {
          "internalType": "uint224",
          "name": "_x",
          "type": "uint224"
        }
      ],
      "stateMutability": "view",
      "type": "function"
    },
    {
      "inputs": [],
      "name": "price0CumulativeLast",
      "outputs": [
        {
          "internalType": "uint256",
          "name": "",
          "type": "uint256"
        }
      ],
      "stateMutability": "view",
      "type": "function"
    },
    {
      "inputs": [],
      "name": "price1Average",
      "outputs": [
        {
          "internalType": "uint224",
          "name": "_x",
          "type": "uint224"
        }
      ],
      "stateMutability": "view",
      "type": "function"
    },
    {
      "inputs": [],
      "name": "price1CumulativeLast",
      "outputs": [
        {
          "internalType": "uint256",
          "name": "",
          "type": "uint256"
        }
      ],
      "stateMutability": "view",
      "type": "function"
    },
    {
      "inputs": [],
      "name": "renounceOwnership",
      "outputs": [],
      "stateMutability": "nonpayable",
      "type": "function"
    },
    {
      "inputs": [],
      "name": "token0",
      "outputs": [
        {
          "internalType": "address",
          "name": "",
          "type": "address"
        }
      ],
      "stateMutability": "view",
      "type": "function"
    },
    {
      "inputs": [],
      "name": "token1",
      "outputs": [
        {
          "internalType": "address",
          "name": "",
          "type": "address"
        }
      ],
      "stateMutability": "view",
      "type": "function"
    },
    {
      "inputs": [
        {
          "internalType": "address",
          "name": "newOwner",
          "type": "address"
        }
      ],
      "name": "transferOwnership",
      "outputs": [],
      "stateMutability": "nonpayable",
      "type": "function"
    },
    {
      "inputs": [
        {
          "internalType": "uint256",
          "name": "_amountIn",
          "type": "uint256"
        }
      ],
      "name": "consult",
      "outputs": [
        {
          "internalType": "uint256",
          "name": "amountOut",
          "type": "uint256"
        }
      ],
      "stateMutability": "nonpayable",
      "type": "function"
    }
  ],
  "bytecode": "0x60806040523480156200001157600080fd5b506040516200112938038062001129833981810160405260608110156200003757600080fd5b508051602082015160409092015190919060006200005d6001600160e01b03620003ed16565b600080546001600160a01b0319166001600160a01b0383169081178255604051929350917f8be0079c531659141344cd1fd0a4f28419497f9722a3daafe3b4186f6b6457e0908290a3506000620000c1848484620003f160201b620008da1760201c565b905080600160006101000a8154816001600160a01b0302191690836001600160a01b03160217905550806001600160a01b0316630dfe16816040518163ffffffff1660e01b815260040160206040518083038186803b1580156200012457600080fd5b505afa15801562000139573d6000803e3d6000fd5b505050506040513d60208110156200015057600080fd5b5051600280546001600160a01b0319166001600160a01b039283161790556040805163d21220a760e01b815290519183169163d21220a791600480820192602092909190829003018186803b158015620001a957600080fd5b505afa158015620001be573d6000803e3d6000fd5b505050506040513d6020811015620001d557600080fd5b5051600380546001600160a01b0319166001600160a01b0392831617905560408051635909c0d560e01b8152905191831691635909c0d591600480820192602092909190829003018186803b1580156200022e57600080fd5b505afa15801562000243573d6000803e3d6000fd5b505050506040513d60208110156200025a57600080fd5b5051600490815560408051635a3d549360e01b815290516001600160a01b03841692635a3d549392808201926020929091829003018186803b158015620002a057600080fd5b505afa158015620002b5573d6000803e3d6000fd5b505050506040513d6020811015620002cc57600080fd5b505160055560408051630240bc6b60e21b8152905160009182916001600160a01b03851691630902f1ac916004808301926060929190829003018186803b1580156200031757600080fd5b505afa1580156200032c573d6000803e3d6000fd5b505050506040513d60608110156200034357600080fd5b50805160208201516040909201516006805463ffffffff191663ffffffff909216919091179055925090506001600160701b038216158015906200038f57506001600160701b03811615155b620003e1576040805162461bcd60e51b815260206004820181905260248201527f4578616d706c654f7261636c6553696d706c653a204e4f5f5245534552564553604482015290519081900360640190fd5b505050505050620005b1565b3390565b600080806200040a85856001600160e01b03620004ce16565b604080516001600160601b0319606094851b811660208084019190915293851b81166034830152825160288184030181526048830184528051908501207fff0000000000000000000000000000000000000000000000000000000000000060688401529a90941b9093166069840152607d8301989098527f96e8ac4277198ff8b6f785478aa9a39f403cb768dd02cbee326c3e7da348845f609d808401919091528851808403909101815260bd909201909752805196019590952095945050505050565b600080826001600160a01b0316846001600160a01b03161415620005245760405162461bcd60e51b8152600401808060200182810382526025815260200180620011046025913960400191505060405180910390fd5b826001600160a01b0316846001600160a01b0316106200054657828462000549565b83835b90925090506001600160a01b038216620005aa576040805162461bcd60e51b815260206004820152601e60248201527f556e697377617056324c6962726172793a205a45524f5f414444524553530000604482015290519081900360640190fd5b9250929050565b610b4380620005c16000396000f3fe608060405234801561001057600080fd5b50600436106100cf5760003560e01c80638da5cb5b1161008c578063b4d1d79511610066578063b4d1d7951461017d578063c5700a0214610185578063d21220a7146101a6578063f2fde38b146101ae576100cf565b80638da5cb5b14610165578063a6bb45391461016d578063a8aa1b3114610175576100cf565b80630dfe1681146100d45780635909c0d5146100f85780635a3d5493146101125780635e6aaf2c1461011a57806361e25d831461013e578063715018a61461015b575b600080fd5b6100dc6101d4565b604080516001600160a01b039092168252519081900360200190f35b6101006101e3565b60408051918252519081900360200190f35b6101006101e9565b6101226101ef565b604080516001600160e01b039092168252519081900360200190f35b6101006004803603602081101561015457600080fd5b50356101fe565b610163610270565b005b6100dc610324565b610122610333565b6100dc610342565b610100610351565b61018d610358565b6040805163ffffffff9092168252519081900360200190f35b6100dc610364565b610163600480360360208110156101c457600080fd5b50356001600160a01b0316610373565b6002546001600160a01b031681565b60045481565b60055481565b6008546001600160e01b031681565b60065460009063ffffffff90811642039062015180908216106102235761022361047d565b60408051602081019091526007546001600160e01b0316815261025590610250908563ffffffff6105a316565b610621565b71ffffffffffffffffffffffffffffffffffff169392505050565b610278610628565b6000546001600160a01b039081169116146102da576040805162461bcd60e51b815260206004820181905260248201527f4f776e61626c653a2063616c6c6572206973206e6f7420746865206f776e6572604482015290519081900360640190fd5b600080546040516001600160a01b03909116907f8be0079c531659141344cd1fd0a4f28419497f9722a3daafe3b4186f6b6457e0908390a3600080546001600160a01b0319169055565b6000546001600160a01b031690565b6007546001600160e01b031681565b6001546001600160a01b031681565b6201518081565b60065463ffffffff1681565b6003546001600160a01b031681565b61037b610628565b6000546001600160a01b039081169116146103dd576040805162461bcd60e51b815260206004820181905260248201527f4f776e61626c653a2063616c6c6572206973206e6f7420746865206f776e6572604482015290519081900360640190fd5b6001600160a01b0381166104225760405162461bcd60e51b8152600401808060200182810382526026815260200180610a796026913960400191505060405180910390fd5b600080546040516001600160a01b03808516939216917f8be0079c531659141344cd1fd0a4f28419497f9722a3daafe3b4186f6b6457e091a3600080546001600160a01b0319166001600160a01b0392909216919091179055565b60015460009081908190610499906001600160a01b031661062c565b600654929550909350915063ffffffff9081168203906201518090821610156104f35760405162461bcd60e51b8152600401808060200182810382526027815260200180610ac46027913960400191505060405180910390fd5b60405180602001604052808263ffffffff1660045487038161051157fe5b046001600160e01b039081169091529051600780546001600160e01b031916919092161790556040805160208101909152600554819063ffffffff84169086038161055857fe5b046001600160e01b039081169091529051600880546001600160e01b03191691909216179055506004929092556005556006805463ffffffff191663ffffffff909216919091179055565b6105ab6108b5565b60008215806105d157505082516001600160e01b0316828102908382816105ce57fe5b04145b61060c5760405162461bcd60e51b8152600401808060200182810382526023815260200180610aeb6023913960400191505060405180910390fd5b60408051602081019091529081529392505050565b5160701c90565b3390565b60008060006106396107fb565b9050836001600160a01b0316635909c0d56040518163ffffffff1660e01b815260040160206040518083038186803b15801561067457600080fd5b505afa158015610688573d6000803e3d6000fd5b505050506040513d602081101561069e57600080fd5b505160408051635a3d549360e01b815290519194506001600160a01b03861691635a3d549391600480820192602092909190829003018186803b1580156106e457600080fd5b505afa1580156106f8573d6000803e3d6000fd5b505050506040513d602081101561070e57600080fd5b505160408051630240bc6b60e21b81529051919350600091829182916001600160a01b03891691630902f1ac916004808301926060929190829003018186803b15801561075a57600080fd5b505afa15801561076e573d6000803e3d6000fd5b505050506040513d606081101561078457600080fd5b5080516020820151604090920151909450909250905063ffffffff808216908516146107f15780840363ffffffff81166107be8486610805565b516001600160e01b031602969096019563ffffffff81166107df8585610805565b516001600160e01b0316029590950194505b5050509193909250565b63ffffffff421690565b61080d6108c8565b6000826001600160701b03161161086b576040805162461bcd60e51b815260206004820152601760248201527f4669786564506f696e743a204449565f42595f5a45524f000000000000000000604482015290519081900360640190fd5b6040805160208101909152806001600160701b0384166dffffffffffffffffffffffffffff60701b607087901b16816108a057fe5b046001600160e01b0316815250905092915050565b6040518060200160405280600081525090565b60408051602081019091526000815290565b60008060006108e9858561099a565b604080516bffffffffffffffffffffffff19606094851b811660208084019190915293851b81166034830152825160288184030181526048830184528051908501206001600160f81b031960688401529a90941b9093166069840152607d8301989098527f96e8ac4277198ff8b6f785478aa9a39f403cb768dd02cbee326c3e7da348845f609d808401919091528851808403909101815260bd909201909752805196019590952095945050505050565b600080826001600160a01b0316846001600160a01b031614156109ee5760405162461bcd60e51b8152600401808060200182810382526025815260200180610a9f6025913960400191505060405180910390fd5b826001600160a01b0316846001600160a01b031610610a0e578284610a11565b83835b90925090506001600160a01b038216610a71576040805162461bcd60e51b815260206004820152601e60248201527f556e697377617056324c6962726172793a205a45524f5f414444524553530000604482015290519081900360640190fd5b925092905056fe4f776e61626c653a206e6577206f776e657220697320746865207a65726f2061646472657373556e697377617056324c6962726172793a204944454e544943414c5f4144445245535345534578616d706c654f7261636c6553696d706c653a20504552494f445f4e4f545f454c41505345444669786564506f696e743a204d554c5449504c49434154494f4e5f4f564552464c4f57a2646970667358221220b36d7f26725878aa9aab57e2181cb601dc3135055bfa8ad6f04b5cf03070ad4364736f6c63430006060033556e697377617056324c6962726172793a204944454e544943414c5f414444524553534553",
  "immutableReferences": {},
  "source": "pragma solidity ^0.6.2;\n\nimport \"@openzeppelin/contracts/access/Ownable.sol\";\nimport '@uniswap/v2-core/contracts/interfaces/IUniswapV2Factory.sol';\nimport '@uniswap/v2-core/contracts/interfaces/IUniswapV2Pair.sol';\nimport '@uniswap/lib/contracts/libraries/FixedPoint.sol';\nimport '@uniswap/v2-periphery/contracts/libraries/UniswapV2OracleLibrary.sol';\nimport '@uniswap/v2-periphery/contracts/libraries/UniswapV2Library.sol';\n\n\ncontract UniswapOracleInstance is Ownable {\n\n  // fixed window oracle that recomputes the average price for the entire period once every period\n  // note that the price average is only guaranteed to be over at least 1 period, but may be over a longer period\n\n      using FixedPoint for *;\n\n      uint public constant PERIOD = 24 hours;\n\n      IUniswapV2Pair public  pair;\n      address public  token0;\n      address public  token1;\n\n      uint    public price0CumulativeLast;\n      uint    public price1CumulativeLast;\n      uint32  public blockTimestampLast;\n      FixedPoint.uq112x112 public price0Average;\n      FixedPoint.uq112x112 public price1Average;\n\n/**\n@notice the constructor function is fired once during token creation to initialize the oracle contract to a specific token pair\n@param _factory is the address of the Uniswap factory contract\n@param _tokenA is the address of the asset being looked up\n@param _tokenB is the address of the USDC token\n**/\n\n      constructor(address _factory, address _tokenA, address _tokenB) public {\n          IUniswapV2Pair _pair = IUniswapV2Pair(UniswapV2Library.pairFor(_factory, _tokenA, _tokenB));\n          pair = _pair;\n          token0 = _pair.token0();\n          token1 = _pair.token1();\n          price0CumulativeLast = _pair.price0CumulativeLast(); // fetch the current accumulated price value (1 / 0)\n          price1CumulativeLast = _pair.price1CumulativeLast(); // fetch the current accumulated price value (0 / 1)\n          uint112 reserve0;\n          uint112 reserve1;\n          (reserve0, reserve1, blockTimestampLast) = _pair.getReserves();\n          require(reserve0 != 0 && reserve1 != 0, 'ExampleOracleSimple: NO_RESERVES'); // ensure that there's liquidity in the pair\n      }\n\n/**\n@notice update updates the prices for the input token pair over a set 24hour period\n@dev this is an internal function called by consult if the timeElapsed is greater than 24 hours\n**/\n      function update() internal {\n          (uint price0Cumulative, uint price1Cumulative, uint32 blockTimestamp) =\n              UniswapV2OracleLibrary.currentCumulativePrices(address(pair));\n          uint32 timeElapsed = blockTimestamp - blockTimestampLast; // overflow is desired\n\n          // ensure that at least one full period has passed since the last update\n          require(timeElapsed >= PERIOD, 'ExampleOracleSimple: PERIOD_NOT_ELAPSED');\n\n          // overflow is desired, casting never truncates\n          // cumulative price is in (uq112x112 price * seconds) units so we simply wrap it after division by time elapsed\n          price0Average = FixedPoint.uq112x112(uint224((price0Cumulative - price0CumulativeLast) / timeElapsed));\n          price1Average = FixedPoint.uq112x112(uint224((price1Cumulative - price1CumulativeLast) / timeElapsed));\n\n          price0CumulativeLast = price0Cumulative;\n          price1CumulativeLast = price1Cumulative;\n          blockTimestampLast = blockTimestamp;\n      }\n\n/**\n@notice consult returns the price of a token in USDC\n@param _amountIn is the amount of token0 being consulted\n@return amountOut is the price of the asset amount in USDC\n**/\n      function consult(uint _amountIn) external returns (uint amountOut) {\n        uint32 timeElapsed = uint32(now) - blockTimestampLast; // overflow is desired\n        if(timeElapsed >= PERIOD) {\n          update();\n        }\n        amountOut = price0Average.mul(_amountIn).decode144();\n      }\n\n    }\n",
  "sourcePath": "/home/stan36/repos/Askolend/uniswap-contracts/contracts/UniswapOracleInstance.sol",
  "compiler": {
    "name": "solc",
    "version": "0.6.6+commit.6c089d02.Emscripten.clang"
  },
  "schemaVersion": "3.2.5",
  "updatedAt": "2020-09-26T00:08:54.964Z",
  "devdoc": {
    "methods": {
      "constructor": {
        "params": {
          "_factory": "is the address of the Uniswap factory contract",
          "_tokenA": "is the address of the asset being looked up",
          "_tokenB": "is the address of the USDC token*"
        }
      },
      "consult(uint256)": {
        "params": {
          "_amountIn": "is the amount of token0 being consulted"
        },
        "returns": {
          "amountOut": "is the price of the asset amount in USDC*"
        }
      },
      "owner()": {
        "details": "Returns the address of the current owner."
      },
      "renounceOwnership()": {
        "details": "Leaves the contract without owner. It will not be possible to call `onlyOwner` functions anymore. Can only be called by the current owner.     * NOTE: Renouncing ownership will leave the contract without an owner, thereby removing any functionality that is only available to the owner."
      },
      "transferOwnership(address)": {
        "details": "Transfers ownership of the contract to a new account (`newOwner`). Can only be called by the current owner."
      }
    }
  },
  "userdoc": {
    "methods": {
      "constructor": "the constructor function is fired once during token creation to initialize the oracle contract to a specific token pair",
      "consult(uint256)": {
        "notice": "consult returns the price of a token in USDC"
      }
    }
  }
}