{
  "contractName": "ARTFactory",
  "abi": [
    {
      "inputs": [
        {
          "internalType": "address",
          "name": "_InterestRateModel",
          "type": "address"
        },
        {
          "internalType": "address",
          "name": "_asset",
          "type": "address"
        },
        {
          "internalType": "address",
          "name": "_UOF",
          "type": "address"
        },
        {
          "internalType": "address",
          "name": "_MMF",
          "type": "address"
        },
        {
          "internalType": "string",
          "name": "_assetNameAHR",
          "type": "string"
        },
        {
          "internalType": "string",
          "name": "_assetSymbolAHR",
          "type": "string"
        },
        {
          "internalType": "bool",
          "name": "_isALR",
          "type": "bool"
        },
        {
          "internalType": "uint256",
          "name": "_initialExchangeRate",
          "type": "uint256"
        }
      ],
      "name": "createART",
      "outputs": [
        {
          "internalType": "address",
          "name": "",
          "type": "address"
        }
      ],
      "stateMutability": "nonpayable",
      "type": "function"
    }
  ],
  "bytecode": "0x608060405234801561001057600080fd5b506130bd806100206000396000f3fe608060405234801561001057600080fd5b506004361061002b5760003560e01c80634f84a10014610030575b600080fd5b610189600480360361010081101561004757600080fd5b6001600160a01b03823581169260208101358216926040820135831692606083013516919081019060a081016080820135600160201b81111561008957600080fd5b82018360208201111561009b57600080fd5b803590602001918460018302840111600160201b831117156100bc57600080fd5b91908080601f0160208091040260200160405190810160405280939291908181526020018383808284376000920191909152509295949360208101935035915050600160201b81111561010e57600080fd5b82018360208201111561012057600080fd5b803590602001918460018302840111600160201b8311171561014157600080fd5b91908080601f016020809104026020016040519081016040528093929190818152602001838380828437600092019190915250929550505050803515159150602001356101a5565b604080516001600160a01b039092168252519081900360200190f35b60008089898989338a8a8a8a6040516101bd90610307565b6001600160a01b03808b16825289811660208084019190915289821660408401528882166060840152908716608083015283151560e0830152610100820183905261012060a083018181528751918401919091528651909160c084019161014085019189019080838360005b83811015610241578181015183820152602001610229565b50505050905090810190601f16801561026e5780820380516001836020036101000a031916815260200191505b50838103825286518152865160209182019188019080838360005b838110156102a1578181015183820152602001610289565b50505050905090810190601f1680156102ce5780820380516001836020036101000a031916815260200191505b509b505050505050505050505050604051809103906000f0801580156102f8573d6000803e3d6000fd5b509a9950505050505050505050565b612d73806103158339019056fe608060405266038d7ea4c68000600d55670de0b6b3a7640000600e553480156200002857600080fd5b5060405162002d7338038062002d7383398181016040526101208110156200004f57600080fd5b815160208301516040808501516060860151608087015160a0880180519451969895979396929591949293820192846401000000008211156200009157600080fd5b908301906020820185811115620000a757600080fd5b8251640100000000811182820188101715620000c257600080fd5b82525081516020918201929091019080838360005b83811015620000f1578181015183820152602001620000d7565b50505050905090810190601f1680156200011f5780820380516001836020036101000a031916815260200191505b50604052602001805160405193929190846401000000008211156200014357600080fd5b9083019060208201858111156200015957600080fd5b82516401000000008111828201881017156200017457600080fd5b82525081516020918201929091019080838360005b83811015620001a357818101518382015260200162000189565b50505050905090810190601f168015620001d15780820380516001836020036101000a031916815260200191505b5060409081526020820151910151909250905083836000620001fb6001600160e01b03620003a216565b600080546001600160a01b0319166001600160a01b0383169081178255604051929350917f8be0079c531659141344cd1fd0a4f28419497f9722a3daafe3b4186f6b6457e0908290a35081516200025a906004906020850190620003ab565b50805162000270906005906020840190620003ab565b506012600660006101000a81548160ff021916908360ff160217905550505087600f60016101000a8154816001600160a01b0302191690836001600160a01b0316021790555084601160006101000a8154816001600160a01b0302191690836001600160a01b0316021790555088601060006101000a8154816001600160a01b0302191690836001600160a01b0316021790555086601360006101000a8154816001600160a01b0302191690836001600160a01b0316021790555085601260006101000a8154816001600160a01b0302191690836001600160a01b0316021790555081600f60006101000a81548160ff0219169083151502179055508060078190555062000383620003a760201b60201c565b6009555050670de0b6b3a7640000600a55506200044d95505050505050565b335b90565b4390565b828054600181600116156101000203166002900490600052602060002090601f016020900481019282601f10620003ee57805160ff19168380011785556200041e565b828001600101855582156200041e579182015b828111156200041e57825182559160200191906001019062000401565b506200042c92915062000430565b5090565b620003a491905b808211156200042c576000815560010162000437565b612916806200045d6000396000f3fe608060405234801561001057600080fd5b50600436106102ed5760003560e01c80638da5cb5b11610193578063bd6d894d116100e4578063db006a7511610092578063db006a75146107ed578063dd62ed3e1461080a578063e778bc2114610838578063ee27a2f21461085e578063f2fde38b14610866578063f3fdb15a1461088c578063f8f9da2814610894576102ed565b8063bd6d894d1461074f578063bebf2b8914610757578063c37f68e214610774578063c5d9bf71146107b8578063cd5c6f57146107c0578063d162054a146107c8578063d383752d146107d0576102ed565b8063a457c2d711610141578063a457c2d71461068e578063a6afed95146106ba578063a9059cbb146106c2578063aa5af0fd146106ee578063ae9d70b0146106f6578063b3306135146106fe578063b7e7b50c1461071b576102ed565b80638da5cb5b1461061d5780638de87abd146106255780638f840ddd14610642578063901717d11461064a57806395d89b41146106525780639dc29fac1461065a5780639f560dd514610686576102ed565b806340c10f191161024d57806369a5e8cf116101fb57806369a5e8cf146105855780636c540baf146105b157806370a08231146105b9578063715018a6146105df57806373acee98146105e75780637746efab146105ef57806377e4974d14610615576102ed565b806340c10f19146104ee57806347bd37181461051c5780634ada90af146105245780634b3fd1481461052c5780634c20ac7414610558578063503d37ea146105605780635f27adbd14610568576102ed565b806323b872dd116102aa57806323b872dd1461041b578063286f4d2314610451578063313ce5671461046e57806338d52e0f1461048c57806339509351146104945780633af9e669146104c05780633b1d21a2146104e6576102ed565b806306fdde03146102f2578063095ea7b31461036f57806311e2c02f146103af578063173b9904146103d357806317bfdfbc146103ed57806318160ddd14610413575b600080fd5b6102fa61089c565b6040805160208082528351818301528351919283929083019185019080838360005b8381101561033457818101518382015260200161031c565b50505050905090810190601f1680156103615780820380516001836020036101000a031916815260200191505b509250505060405180910390f35b61039b6004803603604081101561038557600080fd5b506001600160a01b038135169060200135610933565b604080519115158252519081900360200190f35b6103b7610951565b604080516001600160a01b039092168252519081900360200190f35b6103db610960565b60408051918252519081900360200190f35b6103db6004803603602081101561040357600080fd5b50356001600160a01b0316610966565b6103db610981565b61039b6004803603606081101561043157600080fd5b506001600160a01b03813581169160208101359091169060400135610987565b6103db6004803603602081101561046757600080fd5b5035610a14565b610476610a40565b6040805160ff9092168252519081900360200190f35b6103b7610a49565b61039b600480360360408110156104aa57600080fd5b506001600160a01b038135169060200135610a5d565b6103db600480360360208110156104d657600080fd5b50356001600160a01b0316610ab1565b6103db610b0c565b61051a6004803603604081101561050457600080fd5b506001600160a01b038135169060200135610b1b565b005b6103db610be2565b6103db610be8565b61051a6004803603604081101561054257600080fd5b50803590602001356001600160a01b0316610bee565b6103b7610dcf565b6103db610de3565b6103db6004803603602081101561057e57600080fd5b5035610e00565b6103db6004803603604081101561059b57600080fd5b50803590602001356001600160a01b0316610ea3565b6103db610ffb565b6103db600480360360208110156105cf57600080fd5b50356001600160a01b0316611001565b61051a61101c565b6103db6110d0565b6103db6004803603602081101561060557600080fd5b50356001600160a01b03166110e1565b61039b611184565b6103b761118d565b6103db6004803603602081101561063b57600080fd5b503561119c565b6103db6111bf565b6103db6111c5565b6102fa6111cb565b61051a6004803603604081101561067057600080fd5b506001600160a01b03813516906020013561122c565b6103db611295565b61039b600480360360408110156106a457600080fd5b506001600160a01b0381351690602001356112a6565b61051a611314565b61039b600480360360408110156106d857600080fd5b506001600160a01b038135169060200135611546565b6103db611584565b6103db61158a565b6103db6004803603602081101561071457600080fd5b5035611629565b61051a6004803603606081101561073157600080fd5b508035906001600160a01b0360208201358116916040013516611644565b6103db611793565b6103db6004803603602081101561076d57600080fd5b50356117fc565b61079a6004803603602081101561078a57600080fd5b50356001600160a01b031661187e565b60408051938452602084019290925282820152519081900360600190f35b6103b76118b4565b6103db6118c3565b6103b76118cd565b6103db600480360360208110156107e657600080fd5b50356118dc565b61051a6004803603602081101561080357600080fd5b50356118f8565b6103db6004803603604081101561082057600080fd5b506001600160a01b0381358116916020013516611b7d565b6103db6004803603602081101561084e57600080fd5b50356001600160a01b0316611ba8565b6103db611bc5565b61051a6004803603602081101561087c57600080fd5b50356001600160a01b0316611bcf565b6103b7611cd9565b6103db611ce8565b60048054604080516020601f60026000196101006001881615020190951694909404938401819004810282018101909252828152606093909290918301828280156109285780601f106108fd57610100808354040283529160200191610928565b820191906000526020600020905b81548152906001019060200180831161090b57829003601f168201915b505050505090505b90565b6000610947610940611d4c565b8484611d50565b5060015b92915050565b6013546001600160a01b031681565b60085481565b6000610970611314565b610979826110e1565b90505b919050565b60035490565b6000610994848484611e3c565b610a0a846109a0611d4c565b610a058560405180606001604052806028815260200161280a602891396001600160a01b038a166000908152600260205260408120906109de611d4c565b6001600160a01b03168152602081019190915260400160002054919063ffffffff611f9316565b611d50565b5060019392505050565b6000806000610a376040518060200160405280610a2f611793565b90528561202a565b95945050505050565b60065460ff1690565b600f5461010090046001600160a01b031681565b6000610947610a6a611d4c565b84610a058560026000610a7b611d4c565b6001600160a01b03908116825260208083019390935260409182016000908120918c16815292529020549063ffffffff61207e16565b6000610abb6126a0565b6040518060200160405280610ace611793565b90529050600080610ae783610ae287611001565b61202a565b90925090506000826003811115610afa57fe5b14610b0457600080fd5b949350505050565b6000610b166120df565b905090565b6011546001600160a01b03163314610b3257600080fd5b610b3a6126b3565b610b42611793565b602080830191825260408051918201905290518152610b6290839061212f565b6040830181905282826003811115610b7657fe5b6003811115610b8157fe5b8152505050610b94838260400151612146565b60408082015181516001600160a01b0386168152602081019190915281517f30385c845b448a36257a6a1716e6ad2e1bc2cbe333cde1e69fe849ad6511adfe929181900390910190a1505050565b600b5481565b600d5481565b6011546001600160a01b03163314610c0557600080fd5b81610c0e6120df565b11610c60576040805162461bcd60e51b815260206004820152601a60248201527f6e6f7420656e6f75676820746f6b656e20746f20626f72726f77000000000000604482015290519081900360640190fd5b610c686126d5565b610c7182610966565b60208201819052610c829084612232565b6040830181905282826003811115610c9657fe5b6003811115610ca157fe5b8152505050610cb2600b5484612232565b6060830181905282826003811115610cc657fe5b6003811115610cd157fe5b905250506040808201516001600160a01b03808516600081815260146020908152858220948555600a546001909501949094556060860151600b55600f54855163a9059cbb60e01b815260048101939093526024830189905294516101009095049092169363a9059cbb9360448084019491938390030190829087803b158015610d5a57600080fd5b505af1158015610d6e573d6000803e3d6000fd5b505050506040513d6020811015610d8457600080fd5b5050604080516001600160a01b03841681526020810185905281517fac59582e5396aca512fa873a2047e7f4c80f8f55d4a06cb34a78a0187f62719f929181900390910190a1505050565b600f5461010090046001600160a01b031690565b6000610b1662243394610df4611ce8565b9063ffffffff61225816565b600080610e0c83610a14565b601354600f546040805163513396f760e11b81526101009092046001600160a01b03908116600484015260248301859052905193945060009392169163a2672dee9160448082019260209290919082900301818787803b158015610e6f57600080fd5b505af1158015610e83573d6000803e3d6000fd5b505050506040513d6020811015610e9957600080fd5b5051949350505050565b6011546000906001600160a01b03163314610ebd57600080fd5b610ec56126fe565b610ece83610966565b60608201526001600160a01b03831660009081526014602052604090819020600101549082015283610f095760608101516020820152610f11565b602081018490525b610f23816060015182602001516122b1565b6080830181905282826003811115610f3757fe5b6003811115610f4257fe5b8152505050610f57600b5482602001516122b1565b60a0830181905282826003811115610f6b57fe5b6003811115610f7657fe5b9052505060808101516001600160a01b0384166000818152601460209081526040918290209384558185015160019094019390935560a0840151600b558284015181519283529282019290925281517f4792e4d6a0dabb47a2ac2b2fb3ab426c2e1a5e3cab374282d855ac6cb03a5712929181900390910190a1602001519392505050565b60095481565b6001600160a01b031660009081526001602052604090205490565b611024611d4c565b6000546001600160a01b03908116911614611086576040805162461bcd60e51b815260206004820181905260248201527f4f776e61626c653a2063616c6c6572206973206e6f7420746865206f776e6572604482015290519081900360640190fd5b600080546040516001600160a01b03909116907f8be0079c531659141344cd1fd0a4f28419497f9722a3daafe3b4186f6b6457e0908390a3600080546001600160a01b0319169055565b60006110da611314565b50600b5490565b6001600160a01b038116600090815260146020526040812080548291829182919061111357600094505050505061097c565b6111238160000154600a546122d4565b9094509250600084600381111561113657fe5b1461114857600094505050505061097c565b611156838260010154612313565b9094509150600084600381111561116957fe5b1461117b57600094505050505061097c565b50949350505050565b600f5460ff1681565b6000546001600160a01b031690565b6000806000610a378460405180602001604052806111b86118c3565b905261212f565b600c5481565b600e5481565b60058054604080516020601f60026000196101006001881615020190951694909404938401819004810282018101909252828152606093909290918301828280156109285780601f106108fd57610100808354040283529160200191610928565b6011546001600160a01b0316331461124357600080fd5b61124d828261233e565b604080516001600160a01b03841681526020810183905281517fcc16f5dbb4873280815c1ee09dbd06736cffcc184412cf7a71a0fdb75d397ca5929181900390910190a15050565b6000610b1662243394610df461158a565b60006109476112b3611d4c565b84610a05856040518060600160405280602581526020016128bc60259139600260006112dd611d4c565b6001600160a01b03908116825260208083019390935260409182016000908120918d1681529252902054919063ffffffff611f9316565b600061131e612434565b600954909150600061132e6120df565b600b54600c54600a5492935090918486146114eb57601054604080516315f2405360e01b815260048101879052602481018690526044810185905290516000926001600160a01b0316916315f24053916064808301926020929190829003018186803b15801561139d57600080fd5b505afa1580156113b1573d6000803e3d6000fd5b505050506040513d60208110156113c757600080fd5b5051905065048c273950008111156113de57600080fd5b6000806113eb89896122b1565b915091506113f76126a0565b60008060008061141560405180602001604052808a81525087612438565b9097509450611424858c61202a565b9097509350611433848c612232565b60408051602081019091526008548152919850935061145390858c6124a0565b9097509150611463858a806124a0565b80925081985050508d60098190555080600a8190555082600b8190555081600c819055507fe3972ae250606e82c6683843383cb8a51755588d2f443af42e8cb5b1e085392d600954600a54600b54600c546040518085815260200184815260200183815260200182815260200194505050505060405180910390a1505050505050505061153e565b600954600a54600b54600c54604080519485526020850193909352838301919091526060830152517fe3972ae250606e82c6683843383cb8a51755588d2f443af42e8cb5b1e085392d9181900360800190a15b505050505050565b60006001600160a01b0383161561155c57600080fd5b81722cd76fe086b93ce2f768a00b22a000000000001461157b57600080fd5b50600092915050565b600a5481565b6010546000906001600160a01b031663b81688166115a66120df565b600b54600c546008546040518563ffffffff1660e01b81526004018085815260200184815260200183815260200182815260200194505050505060206040518083038186803b1580156115f857600080fd5b505afa15801561160c573d6000803e3d6000fd5b505050506040513d602081101561162257600080fd5b5051905090565b6000806000610a376040518060200160405280610a2f6118c3565b6012546001600160a01b0316331461165b57600080fd5b601354600f546040805160016203199160e11b031981526101009092046001600160a01b039081166004840152602483018790529051600093919091169163fff9ccde91604480830192602092919082900301818787803b1580156116bf57600080fd5b505af11580156116d3573d6000803e3d6000fd5b505050506040513d60208110156116e957600080fd5b5051905060006116f8826118dc565b9050611704848261233e565b600f546040805163a9059cbb60e01b81526001600160a01b0386811660048301526024820186905291516101009093049091169163a9059cbb916044808201926020929091908290030181600087803b15801561176057600080fd5b505af1158015611774573d6000803e3d6000fd5b505050506040513d602081101561178a57600080fd5b50505050505050565b600061179d611314565b6117a5610981565b6117b25750600754610930565b60006117bc6120df565b905060006117c86126a0565b60006117d984600b54600c546124fc565b935090506117ee836117e9610981565b61253a565b519550610930945050505050565b60008061180883611629565b601354600f54604080516381a61d7f60e01b81526101009092046001600160a01b0390811660048401526024830185905290519394506000939216916381a61d7f91604480820192602092909190829003018186803b15801561186a57600080fd5b505afa158015610e83573d6000803e3d6000fd5b60008060008061188d85611001565b9050600061189a86610966565b905060006118a6611793565b929791965091945092505050565b6011546001600160a01b031681565b60006117a5610981565b6012546001600160a01b031681565b6000806000610a378460405180602001604052806111b8611793565b8061190257600080fd5b61190a6126b3565b611912611793565b6020820152600f5460ff1615611a4257601354600f546040805160016203199160e11b031981526101009092046001600160a01b039081166004840152602483018690529051600093919091169163fff9ccde91604480830192602092919082900301818787803b15801561198657600080fd5b505af115801561199a573d6000803e3d6000fd5b505050506040513d60208110156119b057600080fd5b505160125460408051636012b43160e01b815233600482015230602482015290519293506001600160a01b0390911691636012b431916044808201926020929091908290030181600087803b158015611a0857600080fd5b505af1158015611a1c573d6000803e3d6000fd5b505050506040513d6020811015611a3257600080fd5b5051811115611a4057600080fd5b505b611a5433611a4f846118dc565b61233e565b611a70826040518060200160405280846020015181525061212f565b6040830181905282826003811115611a8457fe5b6003811115611a8f57fe5b905250506040810151611aa06120df565b1015611aab57600080fd5b600f54604082810151815163a9059cbb60e01b8152336004820152602481019190915290516101009092046001600160a01b03169163a9059cbb916044808201926020929091908290030181600087803b158015611b0857600080fd5b505af1158015611b1c573d6000803e3d6000fd5b505050506040513d6020811015611b3257600080fd5b50506040808201518151338152602081018590528083019190915290517ff3a670cd3af7d64b488926880889d08a8585a138ff455227af6737339a1ec2629181900360600190a15050565b6001600160a01b03918216600090815260026020908152604080832093909416825291909152205490565b6000611bb26126a0565b6040518060200160405280610ace6118c3565b65048c2739500081565b611bd7611d4c565b6000546001600160a01b03908116911614611c39576040805162461bcd60e51b815260206004820181905260248201527f4f776e61626c653a2063616c6c6572206973206e6f7420746865206f776e6572604482015290519081900360640190fd5b6001600160a01b038116611c7e5760405162461bcd60e51b815260040180806020018281038252602681526020018061277b6026913960400191505060405180910390fd5b600080546040516001600160a01b03808516939216917f8be0079c531659141344cd1fd0a4f28419497f9722a3daafe3b4186f6b6457e091a3600080546001600160a01b0319166001600160a01b0392909216919091179055565b6010546001600160a01b031681565b6010546000906001600160a01b03166315f24053611d046120df565b600b54600c546040518463ffffffff1660e01b815260040180848152602001838152602001828152602001935050505060206040518083038186803b1580156115f857600080fd5b3390565b6001600160a01b038316611d955760405162461bcd60e51b81526004018080602001828103825260248152602001806128986024913960400191505060405180910390fd5b6001600160a01b038216611dda5760405162461bcd60e51b81526004018080602001828103825260228152602001806127a16022913960400191505060405180910390fd5b6001600160a01b03808416600081815260026020908152604080832094871680845294825291829020859055815185815291517f8c5be1e5ebec7d5bd14f71427d1e84f3dd0314c0f7b2291e5b200ac8c7c3b9259281900390910190a3505050565b6001600160a01b038316611e815760405162461bcd60e51b81526004018080602001828103825260258152602001806128736025913960400191505060405180910390fd5b6001600160a01b038216611ec65760405162461bcd60e51b81526004018080602001828103825260238152602001806127366023913960400191505060405180910390fd5b611ed18383836125eb565b611f14816040518060600160405280602681526020016127c3602691396001600160a01b038616600090815260016020526040902054919063ffffffff611f9316565b6001600160a01b038085166000908152600160205260408082209390935590841681522054611f49908263ffffffff61207e16565b6001600160a01b03808416600081815260016020908152604091829020949094558051858152905191939287169260008051602061283283398151915292918290030190a3505050565b600081848411156120225760405162461bcd60e51b81526004018080602001828103825283818151815260200191508051906020019080838360005b83811015611fe7578181015183820152602001611fcf565b50505050905090810190601f1680156120145780820380516001836020036101000a031916815260200191505b509250505060405180910390fd5b505050900390565b60008060006120376126a0565b6120418686612438565b9092509050600082600381111561205457fe5b146120655750915060009050612077565b6000612070826125f0565b9350935050505b9250929050565b6000828201838110156120d8576040805162461bcd60e51b815260206004820152601b60248201527f536166654d6174683a206164646974696f6e206f766572666c6f770000000000604482015290519081900360640190fd5b9392505050565b600f54604080516370a0823160e01b8152306004820152905160009261010090046001600160a01b0316916370a08231916024808301926020929190829003018186803b1580156115f857600080fd5b600080600061213c6126a0565b61204186866125ff565b6001600160a01b0382166121a1576040805162461bcd60e51b815260206004820152601f60248201527f45524332303a206d696e7420746f20746865207a65726f206164647265737300604482015290519081900360640190fd5b6121ad600083836125eb565b6003546121c0908263ffffffff61207e16565b6003556001600160a01b0382166000908152600160205260409020546121ec908263ffffffff61207e16565b6001600160a01b03831660008181526001602090815260408083209490945583518581529351929391926000805160206128328339815191529281900390910190a35050565b60008083830184811061224a57600092509050612077565b506002915060009050612077565b6000826122675750600061094b565b8282028284828161227457fe5b04146120d85760405162461bcd60e51b81526004018080602001828103825260218152602001806127e96021913960400191505060405180910390fd5b6000808383116122c8575060009050818303612077565b50600390506000612077565b600080836122e757506000905080612077565b838302838582816122f457fe5b041461230857506002915060009050612077565b600092509050612077565b600080826123275750600190506000612077565b600083858161233257fe5b04915091509250929050565b6001600160a01b0382166123835760405162461bcd60e51b81526004018080602001828103825260218152602001806128526021913960400191505060405180910390fd5b61238f826000836125eb565b6123d281604051806060016040528060228152602001612759602291396001600160a01b038516600090815260016020526040902054919063ffffffff611f9316565b6001600160a01b0383166000908152600160205260409020556003546123fe908263ffffffff61265e16565b6003556040805182815290516000916001600160a01b038516916000805160206128328339815191529181900360200190a35050565b4390565b60006124426126a0565b6000806124538660000151866122d4565b9092509050600082600381111561246657fe5b1461248557506040805160208101909152600081529092509050612077565b60408051602081019091529081526000969095509350505050565b60008060006124ad6126a0565b6124b78787612438565b909250905060008260038111156124ca57fe5b146124db57509150600090506124f4565b6124ed6124e7826125f0565b86612232565b9350935050505b935093915050565b60008060008061250c8787612232565b9092509050600082600381111561251f57fe5b1461253057509150600090506124f4565b6124ed81866122b1565b60006125446126a0565b60008061255986670de0b6b3a76400006122d4565b9092509050600082600381111561256c57fe5b1461258b57506040805160208101909152600081529092509050612077565b6000806125988388612313565b909250905060008260038111156125ab57fe5b146125ce5781604051806020016040528060008152509550955050505050612077565b604080516020810190915290815260009890975095505050505050565b505050565b51670de0b6b3a7640000900490565b60006126096126a0565b60008061261e670de0b6b3a7640000876122d4565b9092509050600082600381111561263157fe5b1461265057506040805160208101909152600081529092509050612077565b61207081866000015161253a565b60006120d883836040518060400160405280601e81526020017f536166654d6174683a207375627472616374696f6e206f766572666c6f770000815250611f93565b6040518060200160405280600081525090565b6040805160608101909152806000815260200160008152602001600081525090565b604080516080810190915280600081526020016000815260200160008152602001600081525090565b6040805160c0810190915280600081526020016000815260200160008152602001600081526020016000815260200160008152509056fe45524332303a207472616e7366657220746f20746865207a65726f206164647265737345524332303a206275726e20616d6f756e7420657863656564732062616c616e63654f776e61626c653a206e6577206f776e657220697320746865207a65726f206164647265737345524332303a20617070726f766520746f20746865207a65726f206164647265737345524332303a207472616e7366657220616d6f756e7420657863656564732062616c616e6365536166654d6174683a206d756c7469706c69636174696f6e206f766572666c6f7745524332303a207472616e7366657220616d6f756e74206578636565647320616c6c6f77616e6365ddf252ad1be2c89b69c2b068fc378daa952ba7f163c4a11628f55a4df523b3ef45524332303a206275726e2066726f6d20746865207a65726f206164647265737345524332303a207472616e736665722066726f6d20746865207a65726f206164647265737345524332303a20617070726f76652066726f6d20746865207a65726f206164647265737345524332303a2064656372656173656420616c6c6f77616e63652062656c6f77207a65726fa264697066735822122024e06459c664b4a571c4aa0ae51543338b96e464571c4a58accab9c141794d5b64736f6c63430006060033a264697066735822122074817a957097ea1302b627176c3f4a91ae571a2e9a91a24a9b898a2bbf6ef26764736f6c63430006060033",
  "immutableReferences": {},
  "source": "pragma solidity ^0.6.0;\n\nimport \"./AskoRiskToken.sol\";\n\n////////////////////////////////////////////////////////////////////////////////////////////\n/// @title ARTFactory\n/// @author Christopher Dixon\n////////////////////////////////////////////////////////////////////////////////////////////\n\ncontract ARTFactory {\n    function createART(\n        address _InterestRateModel,\n        address _asset,\n        address _UOF,\n        address _MMF,\n        string memory _assetNameAHR,\n        string memory _assetSymbolAHR,\n        bool _isALR,\n        uint256 _initialExchangeRate\n    ) public returns (address) {\n        address ART = address(\n            new AskoRiskToken( //creates new Asko High Risk Token Contract\n                _InterestRateModel,\n                _asset,\n                _UOF,\n                _MMF,\n                msg.sender,\n                _assetNameAHR,\n                _assetSymbolAHR,\n                _isALR,\n                _initialExchangeRate\n            )\n        );\n\n        return ART;\n    }\n}\n",
  "sourcePath": "/home/stan36/repos/Askolend/AskoLend-contracts/contracts/ARTFactory.sol",
  "compiler": {
    "name": "solc",
    "version": "0.6.6+commit.6c089d02.Emscripten.clang"
  },
  "schemaVersion": "3.3.2",
  "updatedAt": "2020-12-07T19:04:02.170Z",
  "networkType": "ethereum",
  "devdoc": {
    "author": "Christopher Dixon /////////////////////////////////////////////////////////////////////////////////////////",
    "methods": {},
    "title": "ARTFactory"
  },
  "userdoc": {
    "methods": {},
    "notice": "/////////////////////////////////////////////////////////////////////////////////////////"
  }
}