{
  "contractName": "AskoRiskToken",
  "abi": [
    {
      "inputs": [
        {
          "internalType": "address",
          "name": "_interestRateModel",
          "type": "address"
        },
        {
          "internalType": "address",
          "name": "_asset",
          "type": "address"
        },
        {
          "internalType": "address",
          "name": "_oracleFactory",
          "type": "address"
        },
        {
          "internalType": "address",
          "name": "_MoneyMarketControl",
          "type": "address"
        },
        {
          "internalType": "string",
          "name": "_tokenName",
          "type": "string"
        },
        {
          "internalType": "string",
          "name": "_tokenSymbol",
          "type": "string"
        },
        {
          "internalType": "bool",
          "name": "_isALR",
          "type": "bool"
        },
        {
          "internalType": "uint256",
          "name": "_initialExchangeRate",
          "type": "uint256"
        }
      ],
      "stateMutability": "nonpayable",
      "type": "constructor"
    },
    {
      "anonymous": false,
      "inputs": [
        {
          "indexed": false,
          "internalType": "address",
          "name": "borrower",
          "type": "address"
        },
        {
          "indexed": false,
          "internalType": "address",
          "name": "liquidator",
          "type": "address"
        },
        {
          "indexed": false,
          "internalType": "uint256",
          "name": "amountRepayed",
          "type": "uint256"
        },
        {
          "indexed": false,
          "internalType": "address",
          "name": "ARTowed",
          "type": "address"
        },
        {
          "indexed": false,
          "internalType": "address",
          "name": "ARTcollateral",
          "type": "address"
        }
      ],
      "name": "Accountliquidated",
      "type": "event"
    },
    {
      "anonymous": false,
      "inputs": [
        {
          "indexed": true,
          "internalType": "address",
          "name": "owner",
          "type": "address"
        },
        {
          "indexed": true,
          "internalType": "address",
          "name": "spender",
          "type": "address"
        },
        {
          "indexed": false,
          "internalType": "uint256",
          "name": "value",
          "type": "uint256"
        }
      ],
      "name": "Approval",
      "type": "event"
    },
    {
      "anonymous": false,
      "inputs": [
        {
          "indexed": false,
          "internalType": "address",
          "name": "borrower",
          "type": "address"
        },
        {
          "indexed": false,
          "internalType": "uint256",
          "name": "amountBorrowed",
          "type": "uint256"
        }
      ],
      "name": "Borrowed",
      "type": "event"
    },
    {
      "anonymous": false,
      "inputs": [
        {
          "indexed": false,
          "internalType": "address",
          "name": "account",
          "type": "address"
        },
        {
          "indexed": false,
          "internalType": "uint256",
          "name": "amount",
          "type": "uint256"
        }
      ],
      "name": "Burn",
      "type": "event"
    },
    {
      "anonymous": false,
      "inputs": [
        {
          "indexed": false,
          "internalType": "uint256",
          "name": "accrualBlockNumber",
          "type": "uint256"
        },
        {
          "indexed": false,
          "internalType": "uint256",
          "name": "borrowIndex",
          "type": "uint256"
        },
        {
          "indexed": false,
          "internalType": "uint256",
          "name": "totalBorrows",
          "type": "uint256"
        },
        {
          "indexed": false,
          "internalType": "uint256",
          "name": "totalReserves",
          "type": "uint256"
        }
      ],
      "name": "InterestAccrued",
      "type": "event"
    },
    {
      "anonymous": false,
      "inputs": [
        {
          "indexed": false,
          "internalType": "address",
          "name": "lender",
          "type": "address"
        },
        {
          "indexed": false,
          "internalType": "uint256",
          "name": "amountMinted",
          "type": "uint256"
        }
      ],
      "name": "Minted",
      "type": "event"
    },
    {
      "anonymous": false,
      "inputs": [
        {
          "indexed": false,
          "internalType": "address",
          "name": "borrower",
          "type": "address"
        }
      ],
      "name": "NonCompliantTimerReset",
      "type": "event"
    },
    {
      "anonymous": false,
      "inputs": [
        {
          "indexed": false,
          "internalType": "address",
          "name": "borrower",
          "type": "address"
        }
      ],
      "name": "NonCompliantTimerStart",
      "type": "event"
    },
    {
      "anonymous": false,
      "inputs": [
        {
          "indexed": true,
          "internalType": "address",
          "name": "previousOwner",
          "type": "address"
        },
        {
          "indexed": true,
          "internalType": "address",
          "name": "newOwner",
          "type": "address"
        }
      ],
      "name": "OwnershipTransferred",
      "type": "event"
    },
    {
      "anonymous": false,
      "inputs": [
        {
          "indexed": false,
          "internalType": "address",
          "name": "redeemer",
          "type": "address"
        },
        {
          "indexed": false,
          "internalType": "uint256",
          "name": "amountART",
          "type": "uint256"
        },
        {
          "indexed": false,
          "internalType": "uint256",
          "name": "assetAmountRedeemed",
          "type": "uint256"
        }
      ],
      "name": "Redeemed",
      "type": "event"
    },
    {
      "anonymous": false,
      "inputs": [
        {
          "indexed": false,
          "internalType": "address",
          "name": "borrower",
          "type": "address"
        },
        {
          "indexed": false,
          "internalType": "uint256",
          "name": "amountRepayed",
          "type": "uint256"
        }
      ],
      "name": "Repayed",
      "type": "event"
    },
    {
      "anonymous": false,
      "inputs": [
        {
          "indexed": true,
          "internalType": "address",
          "name": "from",
          "type": "address"
        },
        {
          "indexed": true,
          "internalType": "address",
          "name": "to",
          "type": "address"
        },
        {
          "indexed": false,
          "internalType": "uint256",
          "name": "value",
          "type": "uint256"
        }
      ],
      "name": "Transfer",
      "type": "event"
    },
    {
      "inputs": [],
      "name": "MMF",
      "outputs": [
        {
          "internalType": "contract MoneyMarketFactoryI",
          "name": "",
          "type": "address"
        }
      ],
      "stateMutability": "view",
      "type": "function"
    },
    {
      "inputs": [],
      "name": "MMI",
      "outputs": [
        {
          "internalType": "contract MoneyMarketInstance",
          "name": "",
          "type": "address"
        }
      ],
      "stateMutability": "view",
      "type": "function"
    },
    {
      "inputs": [],
      "name": "UOF",
      "outputs": [
        {
          "internalType": "contract UniswapOracleFactoryI",
          "name": "",
          "type": "address"
        }
      ],
      "stateMutability": "view",
      "type": "function"
    },
    {
      "inputs": [],
      "name": "accrualBlockNumber",
      "outputs": [
        {
          "internalType": "uint256",
          "name": "",
          "type": "uint256"
        }
      ],
      "stateMutability": "view",
      "type": "function"
    },
    {
      "inputs": [
        {
          "internalType": "address",
          "name": "owner",
          "type": "address"
        },
        {
          "internalType": "address",
          "name": "spender",
          "type": "address"
        }
      ],
      "name": "allowance",
      "outputs": [
        {
          "internalType": "uint256",
          "name": "",
          "type": "uint256"
        }
      ],
      "stateMutability": "view",
      "type": "function"
    },
    {
      "inputs": [
        {
          "internalType": "address",
          "name": "spender",
          "type": "address"
        },
        {
          "internalType": "uint256",
          "name": "amount",
          "type": "uint256"
        }
      ],
      "name": "approve",
      "outputs": [
        {
          "internalType": "bool",
          "name": "",
          "type": "bool"
        }
      ],
      "stateMutability": "nonpayable",
      "type": "function"
    },
    {
      "inputs": [],
      "name": "asset",
      "outputs": [
        {
          "internalType": "contract IERC20",
          "name": "",
          "type": "address"
        }
      ],
      "stateMutability": "view",
      "type": "function"
    },
    {
      "inputs": [
        {
          "internalType": "address",
          "name": "account",
          "type": "address"
        }
      ],
      "name": "balanceOf",
      "outputs": [
        {
          "internalType": "uint256",
          "name": "",
          "type": "uint256"
        }
      ],
      "stateMutability": "view",
      "type": "function"
    },
    {
      "inputs": [],
      "name": "borrowIndex",
      "outputs": [
        {
          "internalType": "uint256",
          "name": "",
          "type": "uint256"
        }
      ],
      "stateMutability": "view",
      "type": "function"
    },
    {
      "inputs": [],
      "name": "borrowRateMaxMantissa",
      "outputs": [
        {
          "internalType": "uint256",
          "name": "",
          "type": "uint256"
        }
      ],
      "stateMutability": "view",
      "type": "function"
    },
    {
      "inputs": [],
      "name": "decimals",
      "outputs": [
        {
          "internalType": "uint8",
          "name": "",
          "type": "uint8"
        }
      ],
      "stateMutability": "view",
      "type": "function"
    },
    {
      "inputs": [
        {
          "internalType": "address",
          "name": "spender",
          "type": "address"
        },
        {
          "internalType": "uint256",
          "name": "subtractedValue",
          "type": "uint256"
        }
      ],
      "name": "decreaseAllowance",
      "outputs": [
        {
          "internalType": "bool",
          "name": "",
          "type": "bool"
        }
      ],
      "stateMutability": "nonpayable",
      "type": "function"
    },
    {
      "inputs": [
        {
          "internalType": "address",
          "name": "spender",
          "type": "address"
        },
        {
          "internalType": "uint256",
          "name": "addedValue",
          "type": "uint256"
        }
      ],
      "name": "increaseAllowance",
      "outputs": [
        {
          "internalType": "bool",
          "name": "",
          "type": "bool"
        }
      ],
      "stateMutability": "nonpayable",
      "type": "function"
    },
    {
      "inputs": [],
      "name": "interestRateModel",
      "outputs": [
        {
          "internalType": "contract InterestRateModel",
          "name": "",
          "type": "address"
        }
      ],
      "stateMutability": "view",
      "type": "function"
    },
    {
      "inputs": [],
      "name": "isALR",
      "outputs": [
        {
          "internalType": "bool",
          "name": "",
          "type": "bool"
        }
      ],
      "stateMutability": "view",
      "type": "function"
    },
    {
      "inputs": [],
      "name": "liquidationIncentiveMantissa",
      "outputs": [
        {
          "internalType": "uint256",
          "name": "",
          "type": "uint256"
        }
      ],
      "stateMutability": "view",
      "type": "function"
    },
    {
      "inputs": [],
      "name": "name",
      "outputs": [
        {
          "internalType": "string",
          "name": "",
          "type": "string"
        }
      ],
      "stateMutability": "view",
      "type": "function"
    },
    {
      "inputs": [],
      "name": "owner",
      "outputs": [
        {
          "internalType": "address",
          "name": "",
          "type": "address"
        }
      ],
      "stateMutability": "view",
      "type": "function"
    },
    {
      "inputs": [],
      "name": "renounceOwnership",
      "outputs": [],
      "stateMutability": "nonpayable",
      "type": "function"
    },
    {
      "inputs": [],
      "name": "reserveFactorMantissa",
      "outputs": [
        {
          "internalType": "uint256",
          "name": "",
          "type": "uint256"
        }
      ],
      "stateMutability": "view",
      "type": "function"
    },
    {
      "inputs": [],
      "name": "reserveFactorMaxMantissa",
      "outputs": [
        {
          "internalType": "uint256",
          "name": "",
          "type": "uint256"
        }
      ],
      "stateMutability": "view",
      "type": "function"
    },
    {
      "inputs": [],
      "name": "symbol",
      "outputs": [
        {
          "internalType": "string",
          "name": "",
          "type": "string"
        }
      ],
      "stateMutability": "view",
      "type": "function"
    },
    {
      "inputs": [],
      "name": "totalBorrows",
      "outputs": [
        {
          "internalType": "uint256",
          "name": "",
          "type": "uint256"
        }
      ],
      "stateMutability": "view",
      "type": "function"
    },
    {
      "inputs": [],
      "name": "totalReserves",
      "outputs": [
        {
          "internalType": "uint256",
          "name": "",
          "type": "uint256"
        }
      ],
      "stateMutability": "view",
      "type": "function"
    },
    {
      "inputs": [],
      "name": "totalSupply",
      "outputs": [
        {
          "internalType": "uint256",
          "name": "",
          "type": "uint256"
        }
      ],
      "stateMutability": "view",
      "type": "function"
    },
    {
      "inputs": [
        {
          "internalType": "address",
          "name": "recipient",
          "type": "address"
        },
        {
          "internalType": "uint256",
          "name": "amount",
          "type": "uint256"
        }
      ],
      "name": "transfer",
      "outputs": [
        {
          "internalType": "bool",
          "name": "",
          "type": "bool"
        }
      ],
      "stateMutability": "nonpayable",
      "type": "function"
    },
    {
      "inputs": [
        {
          "internalType": "address",
          "name": "sender",
          "type": "address"
        },
        {
          "internalType": "address",
          "name": "recipient",
          "type": "address"
        },
        {
          "internalType": "uint256",
          "name": "amount",
          "type": "uint256"
        }
      ],
      "name": "transferFrom",
      "outputs": [
        {
          "internalType": "bool",
          "name": "",
          "type": "bool"
        }
      ],
      "stateMutability": "nonpayable",
      "type": "function"
    },
    {
      "inputs": [
        {
          "internalType": "address",
          "name": "newOwner",
          "type": "address"
        }
      ],
      "name": "transferOwnership",
      "outputs": [],
      "stateMutability": "nonpayable",
      "type": "function"
    },
    {
      "inputs": [
        {
          "internalType": "address",
          "name": "owner",
          "type": "address"
        }
      ],
      "name": "balanceOfUnderlying",
      "outputs": [
        {
          "internalType": "uint256",
          "name": "",
          "type": "uint256"
        }
      ],
      "stateMutability": "nonpayable",
      "type": "function"
    },
    {
      "inputs": [
        {
          "internalType": "address",
          "name": "owner",
          "type": "address"
        }
      ],
      "name": "balanceOfUnderlyingPrior",
      "outputs": [
        {
          "internalType": "uint256",
          "name": "",
          "type": "uint256"
        }
      ],
      "stateMutability": "view",
      "type": "function"
    },
    {
      "inputs": [],
      "name": "accrueInterest",
      "outputs": [],
      "stateMutability": "nonpayable",
      "type": "function"
    },
    {
      "inputs": [
        {
          "internalType": "address",
          "name": "account",
          "type": "address"
        }
      ],
      "name": "borrowBalancePrior",
      "outputs": [
        {
          "internalType": "uint256",
          "name": "",
          "type": "uint256"
        }
      ],
      "stateMutability": "view",
      "type": "function"
    },
    {
      "inputs": [
        {
          "internalType": "address",
          "name": "account",
          "type": "address"
        }
      ],
      "name": "borrowBalanceCurrent",
      "outputs": [
        {
          "internalType": "uint256",
          "name": "",
          "type": "uint256"
        }
      ],
      "stateMutability": "nonpayable",
      "type": "function"
    },
    {
      "inputs": [
        {
          "internalType": "address",
          "name": "account",
          "type": "address"
        }
      ],
      "name": "getAccountSnapshot",
      "outputs": [
        {
          "internalType": "uint256",
          "name": "",
          "type": "uint256"
        },
        {
          "internalType": "uint256",
          "name": "",
          "type": "uint256"
        },
        {
          "internalType": "uint256",
          "name": "",
          "type": "uint256"
        }
      ],
      "stateMutability": "nonpayable",
      "type": "function"
    },
    {
      "inputs": [],
      "name": "borrowRatePerBlock",
      "outputs": [
        {
          "internalType": "uint256",
          "name": "",
          "type": "uint256"
        }
      ],
      "stateMutability": "view",
      "type": "function"
    },
    {
      "inputs": [],
      "name": "supplyRatePerBlock",
      "outputs": [
        {
          "internalType": "uint256",
          "name": "",
          "type": "uint256"
        }
      ],
      "stateMutability": "view",
      "type": "function"
    },
    {
      "inputs": [],
      "name": "getSupplyAPY",
      "outputs": [
        {
          "internalType": "uint256",
          "name": "",
          "type": "uint256"
        }
      ],
      "stateMutability": "view",
      "type": "function"
    },
    {
      "inputs": [],
      "name": "getBorrowAPY",
      "outputs": [
        {
          "internalType": "uint256",
          "name": "",
          "type": "uint256"
        }
      ],
      "stateMutability": "view",
      "type": "function"
    },
    {
      "inputs": [],
      "name": "totalBorrowsCurrent",
      "outputs": [
        {
          "internalType": "uint256",
          "name": "",
          "type": "uint256"
        }
      ],
      "stateMutability": "nonpayable",
      "type": "function"
    },
    {
      "inputs": [],
      "name": "exchangeRatePrior",
      "outputs": [
        {
          "internalType": "uint256",
          "name": "",
          "type": "uint256"
        }
      ],
      "stateMutability": "view",
      "type": "function"
    },
    {
      "inputs": [],
      "name": "exchangeRateCurrent",
      "outputs": [
        {
          "internalType": "uint256",
          "name": "",
          "type": "uint256"
        }
      ],
      "stateMutability": "nonpayable",
      "type": "function"
    },
    {
      "inputs": [],
      "name": "getCash",
      "outputs": [
        {
          "internalType": "uint256",
          "name": "",
          "type": "uint256"
        }
      ],
      "stateMutability": "view",
      "type": "function"
    },
    {
      "inputs": [
        {
          "internalType": "address",
          "name": "_account",
          "type": "address"
        },
        {
          "internalType": "uint256",
          "name": "_amount",
          "type": "uint256"
        }
      ],
      "name": "mint",
      "outputs": [],
      "stateMutability": "nonpayable",
      "type": "function"
    },
    {
      "inputs": [
        {
          "internalType": "uint256",
          "name": "_amount",
          "type": "uint256"
        }
      ],
      "name": "redeem",
      "outputs": [],
      "stateMutability": "nonpayable",
      "type": "function"
    },
    {
      "inputs": [
        {
          "internalType": "address",
          "name": "_account",
          "type": "address"
        },
        {
          "internalType": "uint256",
          "name": "_amount",
          "type": "uint256"
        }
      ],
      "name": "burn",
      "outputs": [],
      "stateMutability": "nonpayable",
      "type": "function"
    },
    {
      "inputs": [
        {
          "internalType": "uint256",
          "name": "_borrowAmount",
          "type": "uint256"
        },
        {
          "internalType": "address",
          "name": "_borrower",
          "type": "address"
        }
      ],
      "name": "borrow",
      "outputs": [],
      "stateMutability": "nonpayable",
      "type": "function"
    },
    {
      "inputs": [
        {
          "internalType": "uint256",
          "name": "repayAmount",
          "type": "uint256"
        },
        {
          "internalType": "address",
          "name": "borrower",
          "type": "address"
        }
      ],
      "name": "repayBorrow",
      "outputs": [
        {
          "internalType": "uint256",
          "name": "",
          "type": "uint256"
        }
      ],
      "stateMutability": "nonpayable",
      "type": "function"
    },
    {
      "inputs": [
        {
          "internalType": "address",
          "name": "_borrower",
          "type": "address"
        }
      ],
      "name": "markAccountNonCompliant",
      "outputs": [],
      "stateMutability": "nonpayable",
      "type": "function"
    },
    {
      "inputs": [
        {
          "internalType": "address",
          "name": "_borrower",
          "type": "address"
        },
        {
          "internalType": "address",
          "name": "_liquidator",
          "type": "address"
        },
        {
          "internalType": "contract AskoRiskToken",
          "name": "_ARTcollateralized",
          "type": "address"
        },
        {
          "internalType": "uint256",
          "name": "repayAmount",
          "type": "uint256"
        }
      ],
      "name": "liquidateAccount",
      "outputs": [],
      "stateMutability": "nonpayable",
      "type": "function"
    },
    {
      "inputs": [
        {
          "internalType": "uint256",
          "name": "_amount",
          "type": "uint256"
        },
        {
          "internalType": "address",
          "name": "_borrower",
          "type": "address"
        },
        {
          "internalType": "address",
          "name": "_liquidator",
          "type": "address"
        },
        {
          "internalType": "uint256",
          "name": "_pbal",
          "type": "uint256"
        }
      ],
      "name": "liquidateReceive",
      "outputs": [],
      "stateMutability": "nonpayable",
      "type": "function"
    },
    {
      "inputs": [],
      "name": "getAssetAdd",
      "outputs": [
        {
          "internalType": "address",
          "name": "",
          "type": "address"
        }
      ],
      "stateMutability": "view",
      "type": "function"
    }
  ],
  "bytecode": "0x608060405266038d7ea4c68000600d553480156200001c57600080fd5b50604051620033033803806200330383398181016040526101008110156200004357600080fd5b81516020830151604080850151606086015160808701805193519597949692959194919392820192846401000000008211156200007f57600080fd5b9083019060208201858111156200009557600080fd5b8251640100000000811182820188101715620000b057600080fd5b82525081516020918201929091019080838360005b83811015620000df578181015183820152602001620000c5565b50505050905090810190601f1680156200010d5780820380516001836020036101000a031916815260200191505b50604052602001805160405193929190846401000000008211156200013157600080fd5b9083019060208201858111156200014757600080fd5b82516401000000008111828201881017156200016257600080fd5b82525081516020918201929091019080838360005b838110156200019157818101518382015260200162000177565b50505050905090810190601f168015620001bf5780820380516001836020036101000a031916815260200191505b5060409081526020820151910151909250905083836000620001e96001600160e01b036200038f16565b600080546001600160a01b0319166001600160a01b0383169081178255604051929350917f8be0079c531659141344cd1fd0a4f28419497f9722a3daafe3b4186f6b6457e0908290a35081516200024890600490602085019062000398565b5080516200025e90600590602084019062000398565b506012600660006101000a81548160ff021916908360ff160217905550505086600e60016101000a8154816001600160a01b0302191690836001600160a01b0316021790555033601060006101000a8154816001600160a01b0302191690836001600160a01b0316021790555087600f60006101000a8154816001600160a01b0302191690836001600160a01b0316021790555085601260006101000a8154816001600160a01b0302191690836001600160a01b0316021790555084601160006101000a8154816001600160a01b0302191690836001600160a01b0316021790555081600e60006101000a81548160ff02191690831515021790555080600781905550620003716200039460201b60201c565b6009555050670de0b6b3a7640000600a55506200043a945050505050565b335b90565b4390565b828054600181600116156101000203166002900490600052602060002090601f016020900481019282601f10620003db57805160ff19168380011785556200040b565b828001600101855582156200040b579182015b828111156200040b578251825591602001919060010190620003ee565b50620004199291506200041d565b5090565b6200039191905b8082111562000419576000815560010162000424565b612eb9806200044a6000396000f3fe608060405234801561001057600080fd5b50600436106102515760003560e01c806306fdde0314610256578063095ea7b3146102d357806311e2c02f14610313578063127bc30614610337578063173b99041461037557806317bfdfbc1461038f57806318160ddd146103b557806323b872dd146103bd57806325e69180146103f3578063313ce5671461042f57806338d52e0f1461044d57806339509351146104555780633af9e669146104815780633b1d21a2146104a757806340c10f19146104af57806341f41189146104db57806347bd3718146105015780634ada90af146105095780634b3fd148146105115780634c20ac741461053d578063503d37ea1461054557806369a5e8cf1461054d5780636c540baf1461057957806370a0823114610581578063715018a6146105a757806373acee98146105af5780637746efab146105b757806377e4974d146105dd5780638da5cb5b146105e55780638f840ddd146105ed57806395d89b41146105f55780639dc29fac146105fd5780639f560dd514610629578063a275370d14610631578063a457c2d714610639578063a6afed9514610665578063a9059cbb1461066d578063aa5af0fd14610699578063ae9d70b0146106a1578063bd6d894d146106a9578063c37f68e2146106b1578063c5d9bf71146106f5578063cd5c6f57146106fd578063d162054a14610705578063db006a751461070d578063dd62ed3e1461072a578063e778bc2114610758578063ee27a2f21461077e578063f2fde38b14610786578063f3fdb15a146107ac578063f8f9da28146107b4575b600080fd5b61025e6107bc565b6040805160208082528351818301528351919283929083019185019080838360005b83811015610298578181015183820152602001610280565b50505050905090810190601f1680156102c55780820380516001836020036101000a031916815260200191505b509250505060405180910390f35b6102ff600480360360408110156102e957600080fd5b506001600160a01b038135169060200135610853565b604080519115158252519081900360200190f35b61031b610871565b604080516001600160a01b039092168252519081900360200190f35b6103736004803603608081101561034d57600080fd5b508035906001600160a01b03602082013581169160408101359091169060600135610880565b005b61037d610a70565b60408051918252519081900360200190f35b61037d600480360360208110156103a557600080fd5b50356001600160a01b0316610a76565b61037d610a8f565b6102ff600480360360608110156103d357600080fd5b506001600160a01b03813581169160208101359091169060400135610a95565b6103736004803603608081101561040957600080fd5b506001600160a01b03813581169160208101358216916040820135169060600135610b22565b6104376111dc565b6040805160ff9092168252519081900360200190f35b61031b6111e5565b6102ff6004803603604081101561046b57600080fd5b506001600160a01b0381351690602001356111f9565b61037d6004803603602081101561049757600080fd5b50356001600160a01b031661124d565b61037d6112aa565b610373600480360360408110156104c557600080fd5b506001600160a01b0381351690602001356112b9565b610373600480360360208110156104f157600080fd5b50356001600160a01b0316611380565b61037d6113f6565b61037d6113fc565b6103736004803603604081101561052757600080fd5b50803590602001356001600160a01b0316611402565b61031b6115a3565b61037d6115b7565b61037d6004803603604081101561056357600080fd5b50803590602001356001600160a01b03166115d4565b61037d611733565b61037d6004803603602081101561059757600080fd5b50356001600160a01b0316611739565b610373611754565b61037d6117e4565b61037d600480360360208110156105cd57600080fd5b50356001600160a01b03166117f5565b6102ff611898565b61031b6118a1565b61037d6118b0565b61025e6118b6565b6103736004803603604081101561061357600080fd5b506001600160a01b038135169060200135611917565b61037d611980565b61037d611991565b6102ff6004803603604081101561064f57600080fd5b506001600160a01b03813516906020013561199d565b610373611a0b565b6102ff6004803603604081101561068357600080fd5b506001600160a01b038135169060200135611be6565b61037d611bfa565b61037d611c00565b61037d611c9f565b6106d7600480360360208110156106c757600080fd5b50356001600160a01b0316611d08565b60408051938452602084019290925282820152519081900360600190f35b61031b611d3e565b61037d611d4d565b61031b611d57565b6103736004803603602081101561072357600080fd5b5035611d66565b61037d6004803603604081101561074057600080fd5b506001600160a01b0381358116916020013516611ec0565b61037d6004803603602081101561076e57600080fd5b50356001600160a01b0316611eeb565b61037d611f08565b6103736004803603602081101561079c57600080fd5b50356001600160a01b0316611f12565b61031b611ff8565b61037d612007565b60048054604080516020601f60026000196101006001881615020190951694909404938401819004810282018101909252828152606093909290918301828280156108485780601f1061081d57610100808354040283529160200191610848565b820191906000526020600020905b81548152906001019060200180831161082b57829003601f168201915b505050505090505b90565b600061086761086061206b565b848461206f565b5060015b92915050565b6012546001600160a01b031681565b60105460408051636761284360e01b815233600482015290516001600160a01b0390921691636761284391602480820192602092909190829003018186803b1580156108cb57600080fd5b505afa1580156108df573d6000803e3d6000fd5b505050506040513d60208110156108f557600080fd5b505161090057600080fd5b6000610917600d548661215b90919063ffffffff16565b905060006109236121bb565b9050600061095661093a888563ffffffff61220b16565b61094a848763ffffffff61220b16565b9063ffffffff61220b16565b600e546040805163a9059cbb60e01b81526001600160a01b038981166004830152602482018890529151939450610100909204169163a9059cbb916044808201926020929091908290030181600087803b1580156109b357600080fd5b505af11580156109c7573d6000803e3d6000fd5b505050506040513d60208110156109dd57600080fd5b5050600e546040805163a9059cbb60e01b81526001600160a01b0389811660048301526024820185905291516101009093049091169163a9059cbb916044808201926020929091908290030181600087803b158015610a3b57600080fd5b505af1158015610a4f573d6000803e3d6000fd5b505050506040513d6020811015610a6557600080fd5b505050505050505050565b60085481565b6000610a80611a0b565b610a89826117f5565b50919050565b60035490565b6000610aa284848461224d565b610b1884610aae61206b565b610b1385604051806060016040528060288152602001612d6d602891396001600160a01b038a16600090815260026020526040812090610aec61206b565b6001600160a01b03168152602081019190915260400160002054919063ffffffff6123a416565b61206f565b5060019392505050565b6001600160a01b038416600090815260146020526040902054610b4d9061070863ffffffff61243b16565b421015610b5957600080fd5b610b61612b9e565b826001600160a01b0316634c20ac746040518163ffffffff1660e01b815260040160206040518083038186803b158015610b9a57600080fd5b505afa158015610bae573d6000803e3d6000fd5b505050506040513d6020811015610bc457600080fd5b50516001600160a01b03908116602083810191909152601254600e546040805163fc57d4df60e01b81526101009092048516600483015251600094929092169263fc57d4df92602480840193829003018186803b158015610c2457600080fd5b505afa158015610c38573d6000803e3d6000fd5b505050506040513d6020811015610c4e57600080fd5b50516012546020848101516040805163fc57d4df60e01b81526001600160a01b0392831660048201529051949550600094919093169263fc57d4df926024808301939192829003018186803b158015610ca657600080fd5b505afa158015610cba573d6000803e3d6000fd5b505050506040513d6020811015610cd057600080fd5b505190508115801590610ce257508015155b610ceb57600080fd5b610cf487610a76565b60408401819052610d0b908363ffffffff61215b16565b608084015260115460208085015160408051636012b43160e01b81526001600160a01b038c81166004830152928316602482015290519190931692636012b4319260448083019391928290030181600087803b158015610d6a57600080fd5b505af1158015610d7e573d6000803e3d6000fd5b505050506040513d6020811015610d9457600080fd5b505160c08401526080830151610db190600263ffffffff61249316565b60e084018190526080840151610dcc9163ffffffff61243b16565b60a0840181905260c08401511161118357610de5611c9f565b610100840152610df3612c03565b610dfb612c03565b610e03612c03565b6000610e11600d54876124d2565b8095508192505050610e28858861010001516124d2565b93509050610e36848461250e565b92509050610e448289612526565b88610120018181525081925050506000896001600160a01b0316633b1d21a26040518163ffffffff1660e01b815260040160206040518083038186803b158015610e8d57600080fd5b505afa158015610ea1573d6000803e3d6000fd5b505050506040513d6020811015610eb757600080fd5b81019080805190602001909291905050509050601260009054906101000a90046001600160a01b03166001600160a01b031663f0defe93600e60019054906101000a90046001600160a01b03168a602001518d8c61012001518d604001516040518663ffffffff1660e01b815260040180866001600160a01b03166001600160a01b03168152602001856001600160a01b03166001600160a01b03168152602001846001600160a01b03166001600160a01b0316815260200183815260200182815260200195505050505050600060405180830381600087803b158015610f9d57600080fd5b505af1158015610fb1573d6000803e3d6000fd5b5050506040808a0151815163093de18360e11b815260048101919091526001600160a01b038f811660248301528e81166044830152606482018590529151918d16925063127bc30691608480830192600092919082900301818387803b15801561101a57600080fd5b505af115801561102e573d6000803e3d6000fd5b50505050601160009054906101000a90046001600160a01b03166001600160a01b0316636a8394ad8d8c8b61012001516040518463ffffffff1660e01b815260040180846001600160a01b03166001600160a01b03168152602001836001600160a01b03166001600160a01b031681526020018281526020019350505050600060405180830381600087803b1580156110c657600080fd5b505af11580156110da573d6000803e3d6000fd5b505050507f5c23ea591f56ead8def3c6093151c00b81ae725fd9dc1df332ecbb05d7ffca138c338b308e60405180866001600160a01b03166001600160a01b03168152602001856001600160a01b03166001600160a01b03168152602001848152602001836001600160a01b03166001600160a01b03168152602001826001600160a01b03166001600160a01b031681526020019550505050505060405180910390a150505050505b6001600160a01b038716600081815260146020908152604080832092909255815192835290517f8b90ad01289e9e1ff6adb7d9daaab5be066e59551bf4750452652c245633921a9281900390910190a150505050505050565b60065460ff1690565b600e5461010090046001600160a01b031681565b600061086761120661206b565b84610b13856002600061121761206b565b6001600160a01b03908116825260208083019390935260409182016000908120918c16815292529020549063ffffffff61243b16565b6000611257612c03565b604051806020016040528061126a611c9f565b905290506000806112838361127e87611739565b612526565b9092509050600082600381111561129657fe5b146112a057600080fd5b925050505b919050565b60006112b46121bb565b905090565b6010546001600160a01b031633146112d057600080fd5b6112d8612c16565b6112e0611c9f565b602080830191825260408051918201905290518152611300908390612579565b604083018190528282600381111561131457fe5b600381111561131f57fe5b8152505050611332838260400151612590565b60408082015181516001600160a01b0386168152602081019190915281517f30385c845b448a36257a6a1716e6ad2e1bc2cbe333cde1e69fe849ad6511adfe929181900390910190a1505050565b6001600160a01b038116600090815260146020526040902054156113a357600080fd5b6001600160a01b038116600081815260146020908152604091829020429055815192835290517f3b3501fe4aad385ff06e57c56ea31e3b02a720dba8cc5caf692583515db8412f9281900390910190a150565b600b5481565b600d5481565b6010546001600160a01b0316331461141957600080fd5b611421611a0b565b8161142a6121bb565b1161143457600080fd5b61143c612c38565b61144582610a76565b60208201819052611456908461267c565b604083018190528282600381111561146a57fe5b600381111561147557fe5b8152505050611486600b548461267c565b606083018190528282600381111561149a57fe5b60038111156114a557fe5b905250506040808201516001600160a01b03808516600081815260136020908152858220948555600a546001909501949094556060860151600b55600e54855163a9059cbb60e01b815260048101939093526024830189905294516101009095049092169363a9059cbb9360448084019491938390030190829087803b15801561152e57600080fd5b505af1158015611542573d6000803e3d6000fd5b505050506040513d602081101561155857600080fd5b5050604080516001600160a01b03841681526020810185905281517fac59582e5396aca512fa873a2047e7f4c80f8f55d4a06cb34a78a0187f62719f929181900390910190a1505050565b600e5461010090046001600160a01b031690565b60006112b4622433946115c8612007565b9063ffffffff61215b16565b6010546000906001600160a01b031633146115ee57600080fd5b6115f6611a0b565b6115fe612c61565b6001600160a01b03831660009081526013602052604090819020600101549082015261162983610a76565b606082015283611642576060810151602082015261164a565b602081018490525b61165c816060015182602001516126a2565b608083018190528282600381111561167057fe5b600381111561167b57fe5b8152505050611690600b5482602001516126a2565b60a08301819052828260038111156116a457fe5b60038111156116af57fe5b9052505060808101516001600160a01b038416600081815260136020908152604091829020938455600a5460019094019390935560a0840151600b558284015181519283529282019290925281517f4792e4d6a0dabb47a2ac2b2fb3ab426c2e1a5e3cab374282d855ac6cb03a5712929181900390910190a1602001519392505050565b60095481565b6001600160a01b031660009081526001602052604090205490565b61175c61206b565b6000546001600160a01b039081169116146117ac576040805162461bcd60e51b81526020600482018190526024820152600080516020612d95833981519152604482015290519081900360640190fd5b600080546040516001600160a01b0390911690600080516020612db5833981519152908390a3600080546001600160a01b0319169055565b60006117ee611a0b565b50600b5490565b6001600160a01b03811660009081526013602052604081208054829182918291906118275760009450505050506112a5565b6118378160000154600a546126c5565b9094509250600084600381111561184a57fe5b1461185c5760009450505050506112a5565b61186a838260010154612704565b9094509150600084600381111561187d57fe5b1461188f5760009450505050506112a5565b50949350505050565b600e5460ff1681565b6000546001600160a01b031690565b600c5481565b60058054604080516020601f60026000196101006001881615020190951694909404938401819004810282018101909252828152606093909290918301828280156108485780601f1061081d57610100808354040283529160200191610848565b6010546001600160a01b0316331461192e57600080fd5b611938828261272f565b604080516001600160a01b03841681526020810183905281517fcc16f5dbb4873280815c1ee09dbd06736cffcc184412cf7a71a0fdb75d397ca5929181900390910190a15050565b60006112b4622433946115c8611c00565b670de0b6b3a764000081565b60006108676119aa61206b565b84610b1385604051806060016040528060258152602001612e5f60259139600260006119d461206b565b6001600160a01b03908116825260208083019390935260409182016000908120918d1681529252902054919063ffffffff6123a416565b6000611a15612825565b6009549091506000611a256121bb565b600b54600c54600a549293509091848614611bde57600f54604080516315f2405360e01b815260048101879052602481018690526044810185905290516000926001600160a01b0316916315f24053916064808301926020929190829003018186803b158015611a9457600080fd5b505afa158015611aa8573d6000803e3d6000fd5b505050506040513d6020811015611abe57600080fd5b5051905065048c27395000811115611ad557600080fd5b600080611ae289896126a2565b91509150611aee612c03565b600080600080611b0c60405180602001604052808a81525087612829565b9097509450611b1b858c612526565b9097509350611b2a848c61267c565b604080516020810190915260085481529198509350611b4a90858c612891565b9097509150611b5a858a80612891565b80925081985050508d60098190555080600a8190555082600b8190555081600c819055507fe3972ae250606e82c6683843383cb8a51755588d2f443af42e8cb5b1e085392d600954600a54600b54600c546040518085815260200184815260200183815260200182815260200194505050505060405180910390a150505050505050505b505050505050565b6000610867611bf361206b565b848461224d565b600a5481565b600f546000906001600160a01b031663b8168816611c1c6121bb565b600b54600c546008546040518563ffffffff1660e01b81526004018085815260200184815260200183815260200182815260200194505050505060206040518083038186803b158015611c6e57600080fd5b505afa158015611c82573d6000803e3d6000fd5b505050506040513d6020811015611c9857600080fd5b5051905090565b6000611ca9611a0b565b611cb1610a8f565b611cbe5750600754610850565b6000611cc86121bb565b90506000611cd4612c03565b6000611ce584600b54600c546128ed565b93509050611cfa83611cf5610a8f565b61292b565b519550610850945050505050565b600080600080611d1785611739565b90506000611d2486610a76565b90506000611d30611c9f565b929791965091945092505050565b6010546001600160a01b031681565b6000611cb1610a8f565b6011546001600160a01b031681565b611d6e611a0b565b80611d7857600080fd5b611d80612c16565b611d88611c9f565b6020820152611d97338361272f565b611db36040518060200160405280836020015181525083612526565b6040830181905282826003811115611dc757fe5b6003811115611dd257fe5b905250506040810151611de36121bb565b1015611dee57600080fd5b600e54604082810151815163a9059cbb60e01b8152336004820152602481019190915290516101009092046001600160a01b03169163a9059cbb916044808201926020929091908290030181600087803b158015611e4b57600080fd5b505af1158015611e5f573d6000803e3d6000fd5b505050506040513d6020811015611e7557600080fd5b50506040808201518151338152602081018590528083019190915290517ff3a670cd3af7d64b488926880889d08a8585a138ff455227af6737339a1ec2629181900360600190a15050565b6001600160a01b03918216600090815260026020908152604080832093909416825291909152205490565b6000611ef5612c03565b604051806020016040528061126a611d4d565b65048c2739500081565b611f1a61206b565b6000546001600160a01b03908116911614611f6a576040805162461bcd60e51b81526020600482018190526024820152600080516020612d95833981519152604482015290519081900360640190fd5b6001600160a01b038116611faf5760405162461bcd60e51b8152600401808060200182810382526026815260200180612cde6026913960400191505060405180910390fd5b600080546040516001600160a01b0380851693921691600080516020612db583398151915291a3600080546001600160a01b0319166001600160a01b0392909216919091179055565b600f546001600160a01b031681565b600f546000906001600160a01b03166315f240536120236121bb565b600b54600c546040518463ffffffff1660e01b815260040180848152602001838152602001828152602001935050505060206040518083038186803b158015611c6e57600080fd5b3390565b6001600160a01b0383166120b45760405162461bcd60e51b8152600401808060200182810382526024815260200180612e3b6024913960400191505060405180910390fd5b6001600160a01b0382166120f95760405162461bcd60e51b8152600401808060200182810382526022815260200180612d046022913960400191505060405180910390fd5b6001600160a01b03808416600081815260026020908152604080832094871680845294825291829020859055815185815291517f8c5be1e5ebec7d5bd14f71427d1e84f3dd0314c0f7b2291e5b200ac8c7c3b9259281900390910190a3505050565b60008261216a5750600061086b565b8282028284828161217757fe5b04146121b45760405162461bcd60e51b8152600401808060200182810382526021815260200180612d4c6021913960400191505060405180910390fd5b9392505050565b600e54604080516370a0823160e01b8152306004820152905160009261010090046001600160a01b0316916370a08231916024808301926020929190829003018186803b158015611c6e57600080fd5b60006121b483836040518060400160405280601e81526020017f536166654d6174683a207375627472616374696f6e206f766572666c6f7700008152506123a4565b6001600160a01b0383166122925760405162461bcd60e51b8152600401808060200182810382526025815260200180612e166025913960400191505060405180910390fd5b6001600160a01b0382166122d75760405162461bcd60e51b8152600401808060200182810382526023815260200180612c996023913960400191505060405180910390fd5b6122e28383836129dc565b61232581604051806060016040528060268152602001612d26602691396001600160a01b038616600090815260016020526040902054919063ffffffff6123a416565b6001600160a01b03808516600090815260016020526040808220939093559084168152205461235a908263ffffffff61243b16565b6001600160a01b038084166000818152600160209081526040918290209490945580518581529051919392871692600080516020612dd583398151915292918290030190a3505050565b600081848411156124335760405162461bcd60e51b81526004018080602001828103825283818151815260200191508051906020019080838360005b838110156123f85781810151838201526020016123e0565b50505050905090810190601f1680156124255780820380516001836020036101000a031916815260200191505b509250505060405180910390fd5b505050900390565b6000828201838110156121b4576040805162461bcd60e51b815260206004820152601b60248201527a536166654d6174683a206164646974696f6e206f766572666c6f7760281b604482015290519081900360640190fd5b60006121b483836040518060400160405280601a815260200179536166654d6174683a206469766973696f6e206279207a65726f60301b8152506129e1565b60006124dc612c03565b612502604051806020016040528086815250604051806020016040528086815250612a46565b915091505b9250929050565b6000612518612c03565b83518351612502919061292b565b6000806000612533612c03565b61253d8686612829565b9092509050600082600381111561255057fe5b146125615750915060009050612507565b600061256c82612b30565b9350935050509250929050565b6000806000612586612c03565b61253d8686612b3f565b6001600160a01b0382166125eb576040805162461bcd60e51b815260206004820152601f60248201527f45524332303a206d696e7420746f20746865207a65726f206164647265737300604482015290519081900360640190fd5b6125f7600083836129dc565b60035461260a908263ffffffff61243b16565b6003556001600160a01b038216600090815260016020526040902054612636908263ffffffff61243b16565b6001600160a01b0383166000818152600160209081526040808320949094558351858152935192939192600080516020612dd58339815191529281900390910190a35050565b60008083830184811061269457600092509050612507565b506002915060009050612507565b6000808383116126b9575060009050818303612507565b50600390506000612507565b600080836126d857506000905080612507565b838302838582816126e557fe5b04146126f957506002915060009050612507565b600092509050612507565b600080826127185750600190506000612507565b600083858161272357fe5b04915091509250929050565b6001600160a01b0382166127745760405162461bcd60e51b8152600401808060200182810382526021815260200180612df56021913960400191505060405180910390fd5b612780826000836129dc565b6127c381604051806060016040528060228152602001612cbc602291396001600160a01b038516600090815260016020526040902054919063ffffffff6123a416565b6001600160a01b0383166000908152600160205260409020556003546127ef908263ffffffff61220b16565b6003556040805182815290516000916001600160a01b03851691600080516020612dd58339815191529181900360200190a35050565b4390565b6000612833612c03565b6000806128448660000151866126c5565b9092509050600082600381111561285757fe5b1461287657506040805160208101909152600081529092509050612507565b60408051602081019091529081526000969095509350505050565b600080600061289e612c03565b6128a88787612829565b909250905060008260038111156128bb57fe5b146128cc57509150600090506128e5565b6128de6128d882612b30565b8661267c565b9350935050505b935093915050565b6000806000806128fd878761267c565b9092509050600082600381111561291057fe5b1461292157509150600090506128e5565b6128de81866126a2565b6000612935612c03565b60008061294a86670de0b6b3a76400006126c5565b9092509050600082600381111561295d57fe5b1461297c57506040805160208101909152600081529092509050612507565b6000806129898388612704565b9092509050600082600381111561299c57fe5b146129bf5781604051806020016040528060008152509550955050505050612507565b604080516020810190915290815260009890975095505050505050565b505050565b60008183612a305760405162461bcd60e51b81526020600482018181528351602484015283519092839260449091019190850190808383600083156123f85781810151838201526020016123e0565b506000838581612a3c57fe5b0495945050505050565b6000612a50612c03565b600080612a65866000015186600001516126c5565b90925090506000826003811115612a7857fe5b14612a9757506040805160208101909152600081529092509050612507565b600080612aac6706f05b59d3b200008461267c565b90925090506000826003811115612abf57fe5b14612ae25781604051806020016040528060008152509550955050505050612507565b600080612af783670de0b6b3a7640000612704565b90925090506000826003811115612b0a57fe5b14612b1157fe5b604080516020810190915290815260009a909950975050505050505050565b51670de0b6b3a7640000900490565b6000612b49612c03565b600080612b5e670de0b6b3a7640000876126c5565b90925090506000826003811115612b7157fe5b14612b9057506040805160208101909152600081529092509050612507565b61256c81866000015161292b565b60405180610140016040528060006001600160a01b0316815260200160006001600160a01b0316815260200160008152602001600081526020016000815260200160008152602001600081526020016000815260200160008152602001600081525090565b6040518060200160405280600081525090565b6040805160608101909152806000815260200160008152602001600081525090565b604080516080810190915280600081526020016000815260200160008152602001600081525090565b6040805160c0810190915280600081526020016000815260200160008152602001600081526020016000815260200160008152509056fe45524332303a207472616e7366657220746f20746865207a65726f206164647265737345524332303a206275726e20616d6f756e7420657863656564732062616c616e63654f776e61626c653a206e6577206f776e657220697320746865207a65726f206164647265737345524332303a20617070726f766520746f20746865207a65726f206164647265737345524332303a207472616e7366657220616d6f756e7420657863656564732062616c616e6365536166654d6174683a206d756c7469706c69636174696f6e206f766572666c6f7745524332303a207472616e7366657220616d6f756e74206578636565647320616c6c6f77616e63654f776e61626c653a2063616c6c6572206973206e6f7420746865206f776e65728be0079c531659141344cd1fd0a4f28419497f9722a3daafe3b4186f6b6457e0ddf252ad1be2c89b69c2b068fc378daa952ba7f163c4a11628f55a4df523b3ef45524332303a206275726e2066726f6d20746865207a65726f206164647265737345524332303a207472616e736665722066726f6d20746865207a65726f206164647265737345524332303a20617070726f76652066726f6d20746865207a65726f206164647265737345524332303a2064656372656173656420616c6c6f77616e63652062656c6f77207a65726fa264697066735822122005205595017ea9cf228ea5387bc4429194d02e884a1e83996dea777f32b3fbfb64736f6c63430006060033",
  "immutableReferences": {},
  "source": "pragma solidity ^0.6.0;\n\nimport \"@openzeppelin/contracts/access/Ownable.sol\";\nimport \"@openzeppelin/contracts/token/ERC20/ERC20.sol\";\nimport \"./compound/Exponential.sol\";\nimport \"./compound/InterestRateModel.sol\";\nimport \"./interfaces/UniswapOracleFactoryI.sol\";\nimport \"./MoneyMarketInstance.sol\";\nimport \"./interfaces/MoneyMarketFactoryI.sol\";\n\n////////////////////////////////////////////////////////////////////////////////////////////\n/// @title AskoRiskToken\n/// @author Christopher Dixon\n////////////////////////////////////////////////////////////////////////////////////////////\n/**\nThe AskoRiskToken contract is an ERC20 contract designed to be owned by a MoneyMarketInstance contract. This contract's\ntoken represents a Risk lending pool in a MoneyMarketInstance contract.\nThis contract uses the OpenZeppelin contract Library to inherit functions from\n  Ownable.sol && ERC20.sol\n**/\n\ncontract AskoRiskToken is Ownable, ERC20, Exponential {\n    uint256 internal initialExchangeRateMantissa;\n    uint256 public reserveFactorMantissa;\n    uint256 public accrualBlockNumber;\n    uint256 public borrowIndex;\n    uint256 public totalBorrows;\n    uint256 public totalReserves;\n    uint256 public constant borrowRateMaxMantissa = 0.0005e16;\n    uint256 public constant reserveFactorMaxMantissa = 1e18;\n    uint256 public liquidationIncentiveMantissa = .001e18; //.001\n\n    bool public isALR;\n\n    IERC20 public asset;\n    InterestRateModel public interestRateModel;\n    MoneyMarketInstance public MMI;\n    MoneyMarketFactoryI public MMF;\n    UniswapOracleFactoryI public UOF;\n\n    mapping(address => BorrowSnapshot) internal accountBorrows;\n    mapping(address => uint256) nonCompliant; // tracks user to a market to a time\n\n    /**\n@notice struct for borrow balance information\n@member principal Total balance (with accrued interest), after applying the most recent balance-changing action\n@member interestIndex Global borrowIndex as of the most recent balance-changing action\n*/\n    struct BorrowSnapshot {\n        uint256 principal;\n        uint256 interestIndex;\n    }\n\n    /**\n@notice onlyMMInstance is a modifier used to make a function only callable by theproperMoneyMarketInstance contract\n**/\n    modifier onlyMMInstance() {\n        require(msg.sender == address(MMI));\n        _;\n    }\n\n    event InterestAccrued(\n        uint256 accrualBlockNumber,\n        uint256 borrowIndex,\n        uint256 totalBorrows,\n        uint256 totalReserves\n    );\n    event Minted(address lender, uint256 amountMinted);\n    event Redeemed(\n        address redeemer,\n        uint256 amountART,\n        uint256 assetAmountRedeemed\n    );\n    event Burn(address account, uint256 amount);\n    event Borrowed(address borrower, uint256 amountBorrowed);\n    event Repayed(address borrower, uint256 amountRepayed);\n    event NonCompliantTimerStart(address borrower);\n    event Accountliquidated(\n        address borrower,\n        address liquidator,\n        uint256 amountRepayed,\n        address ARTowed,\n        address ARTcollateral\n    );\n    event NonCompliantTimerReset(address borrower);\n\n    /**\n@notice the constructor function is fired during the contract deployment process. The constructor can only be fired once and\nis used to set up the name, symbol, and decimal variables for the AskoRiskToken contract.\n@param _interestRateModel is the address of the  interest rate model for a specific ART\n@param _asset is the address of the underlying asset for a specific ART contract\n@param _oracleFactory is teh address of the uniswap oracle factory contract\n@param _tokenName is the name of the asset the MoneyMarketInstance that owns this contract represents\n@param _tokenSymbol is the symbol of the asset the MoneyMarketInstance that owns this contract represents\n@param _isALR signifies whether or not a specific AskoRiskToken instance is a high risk or low risk token.\n@param _initialExchangeRate is the initial exchange rate mantissa for a specific ART\n@dev these two perameters become hyphenated with \"AHR\" during this process( e.x: AHR-wBitcoin, AHR-wBTC)\n**/\n    constructor(\n        address _interestRateModel,\n        address _asset,\n        address _oracleFactory,\n        address _MoneyMarketControl,\n        string memory _tokenName,\n        string memory _tokenSymbol,\n        bool _isALR,\n        uint256 _initialExchangeRate\n    ) public ERC20(_tokenName, _tokenSymbol) {\n        asset = IERC20(_asset); //instanciate the asset as a usable ERC20 contract instance\n        MMI = MoneyMarketInstance(msg.sender); //instanciates this contracts MoneyMarketInstance contract\n        interestRateModel = InterestRateModel(_interestRateModel); //instanciates the this contracts interest rate model as a contract\n        UOF = UniswapOracleFactoryI(_oracleFactory); //instantiatesthe UniswapOracleFactory as a contract\n        MMF = MoneyMarketFactoryI(_MoneyMarketControl);\n        isALR = _isALR; // sets the isALR varaible to determine whether or not a specific contract is an ALR token\n        initialExchangeRateMantissa = _initialExchangeRate; //sets the initialExchangeRateMantissa\n        accrualBlockNumber = getBlockNumber();\n        borrowIndex = mantissaOne;\n    }\n\n    /**\n@notice Get the underlying balance of the `owners`\n@param owner The address of the account to query\n@return The amount of underlying owned by `owner`\n*/\n    function balanceOfUnderlying(address owner) external returns (uint256) {\n        Exp memory exchangeRate = Exp({mantissa: exchangeRateCurrent()});\n        (MathError mErr, uint256 balance) = mulScalarTruncate(\n            exchangeRate,\n            balanceOf(owner)\n        );\n        require(mErr == MathError.NO_ERROR);\n        return balance;\n    }\n\n    /**\n@notice Get the underlying balance of the `owners`\n@param owner The address of the account to query\n@return The amount of underlying owned by `owner`\n**/\n    function balanceOfUnderlyingPrior(address owner)\n        public\n        view\n        returns (uint256)\n    {\n        Exp memory exchangeRate = Exp({mantissa: exchangeRatePrior()});\n        (MathError mErr, uint256 balance) = mulScalarTruncate(\n            exchangeRate,\n            balanceOf(owner)\n        );\n        require(mErr == MathError.NO_ERROR);\n        return balance;\n    }\n\n    /**\n@notice getCashPrior is a view funcion that returns and ART's balance of its underlying asset\n**/\n    function getCashPrior() internal view returns (uint256) {\n        return asset.balanceOf(address(this));\n    }\n\n    /**\n@notice Applies accrued interest to total borrows and reserves\n@dev This calculates interest accrued from the last checkpointed block\n    up to the current block and writes new checkpoint to storage.\n*/\n    function accrueInterest() public {\n        //Remember the initial block number\n        uint256 currentBlockNumber = getBlockNumber();\n        uint256 accrualBlockNumberPrior = accrualBlockNumber;\n\n        //Read the previous values out of storage\n        uint256 cashPrior = getCashPrior();\n        uint256 borrowsPrior = totalBorrows;\n        uint256 reservesPrior = totalReserves;\n        uint256 borrowIndexPrior = borrowIndex;\n        //Short-circuit accumulating 0 interest\n        if (accrualBlockNumberPrior != currentBlockNumber) {\n            //Calculate the current borrow interest rate\n            uint256 borrowRateMantissa = interestRateModel.getBorrowRate(\n                cashPrior,\n                borrowsPrior,\n                reservesPrior\n            );\n            require(borrowRateMantissa <= borrowRateMaxMantissa);\n\n            //Calculate the number of blocks elapsed since the last accrual\n            (MathError mathErr, uint256 blockDelta) = subUInt(\n                currentBlockNumber,\n                accrualBlockNumberPrior\n            );\n            //Calculate the interest accumulated into borrows and reserves and the new index:\n            Exp memory simpleInterestFactor;\n            uint256 interestAccumulated;\n            uint256 totalBorrowsNew;\n            uint256 totalReservesNew;\n            uint256 borrowIndexNew;\n            //simpleInterestFactor = borrowRate * blockDelta\n            (mathErr, simpleInterestFactor) = mulScalar(\n                Exp({mantissa: borrowRateMantissa}),\n                blockDelta\n            );\n            //interestAccumulated = simpleInterestFactor * totalBorrows\n            (mathErr, interestAccumulated) = mulScalarTruncate(\n                simpleInterestFactor,\n                borrowsPrior\n            );\n            //totalBorrowsNew = interestAccumulated + totalBorrows\n            (mathErr, totalBorrowsNew) = addUInt(\n                interestAccumulated,\n                borrowsPrior\n            );\n            //totalReservesNew = interestAccumulated * reserveFactor + totalReserves\n            (mathErr, totalReservesNew) = mulScalarTruncateAddUInt(\n                Exp({mantissa: reserveFactorMantissa}),\n                interestAccumulated,\n                reservesPrior\n            );\n            //borrowIndexNew = simpleInterestFactor * borrowIndex + borrowIndex\n            (mathErr, borrowIndexNew) = mulScalarTruncateAddUInt(\n                simpleInterestFactor,\n                borrowIndexPrior,\n                borrowIndexPrior\n            );\n            //Write the previously calculated values into storage\n            accrualBlockNumber = currentBlockNumber;\n            borrowIndex = borrowIndexNew;\n            totalBorrows = totalBorrowsNew;\n            totalReserves = totalReservesNew;\n\n            emit InterestAccrued(\n                accrualBlockNumber,\n                borrowIndex,\n                totalBorrows,\n                totalReserves\n            );\n        }\n    }\n\n    /**\n@notice returns last calculated account's borrow balance using the prior borrowIndex\n@param account The address whose balance should be calculated after updating borrowIndex\n@return The calculated balance\n**/\n    function borrowBalancePrior(address account) public view returns (uint256) {\n        MathError mathErr;\n        uint256 principalTimesIndex;\n        uint256 result;\n\n        //Get borrowBalance and borrowIndex\n        BorrowSnapshot storage borrowSnapshot = accountBorrows[account];\n\n        //If borrowBalance = 0 then borrowIndex is likely also 0.\n        //Rather than failing the calculation with a division by 0, we immediately return 0 in this case.\n        if (borrowSnapshot.principal == 0) {\n            return (0);\n        }\n\n        //Calculate new borrow balance using the interest index:\n        //recentBorrowBalance = borrower.borrowBalance * market.borrowIndex / borrower.borrowIndex\n        (mathErr, principalTimesIndex) = mulUInt(\n            borrowSnapshot.principal,\n            borrowIndex\n        );\n        if (mathErr != MathError.NO_ERROR) {\n            return (0);\n        }\n\n        (mathErr, result) = divUInt(\n            principalTimesIndex,\n            borrowSnapshot.interestIndex\n        );\n        if (mathErr != MathError.NO_ERROR) {\n            return (0);\n        }\n\n        return (result);\n    }\n\n    /**\n@notice Accrue interest to updated borrowIndex and then calculate account's borrow balance using the updated borrowIndex\n@param account The address whose balance should be calculated after updating borrowIndex\n@return The calculated balance\n**/\n    function borrowBalanceCurrent(address account) public returns (uint256) {\n        accrueInterest();\n        borrowBalancePrior(account);\n    }\n\n    /**\n@notice Get a snapshot of the account's balances, and the cached exchange rate\n@dev This is used to perform liquidity checks.\n@param account Address of the account to snapshot\n@return (token balance, borrow balance, exchange rate mantissa)\n**/\n    function getAccountSnapshot(address account)\n        external\n        returns (\n            uint256,\n            uint256,\n            uint256\n        )\n    {\n        uint256 tokenBalance = balanceOf(account);\n        uint256 borrowBalance = borrowBalanceCurrent(account);\n        uint256 exchangeRateMantissa = exchangeRateCurrent();\n        return (tokenBalance, borrowBalance, exchangeRateMantissa);\n    }\n\n    /**\n@notice getBlockNumber allows for easy retrieval of block number\n**/\n    function getBlockNumber() internal view returns (uint256) {\n        return block.number;\n    }\n\n    /**\n@notice Returns the current per-block borrow interest rate for this ART\n@return The borrow interest rate per block, scaled by 1e18\n**/\n    function borrowRatePerBlock() public view returns (uint256) {\n        return\n            interestRateModel.getBorrowRate(\n                getCashPrior(),\n                totalBorrows,\n                totalReserves\n            );\n    }\n\n    /**\n@notice Returns the current per-block supply interest rate for this ART\n@return The supply interest rate per block, scaled by 1e18\n**/\n    function supplyRatePerBlock() public view returns (uint256) {\n        return\n            interestRateModel.getSupplyRate(\n                getCashPrior(),\n                totalBorrows,\n                totalReserves,\n                reserveFactorMantissa\n            );\n    }\n\n    /**\n@notice getSupplyAPY roughly calculates the current APY for supplying using an average of 6500 blocks per day\n**/\n    function getSupplyAPY() public view returns (uint256) {\n        //multiply rate per block by blocks per year with an average of 6500 blocks a day per https://ycharts.com/indicators/ethereum_blocks_per_day\n        return supplyRatePerBlock().mul(2372500);\n    }\n\n    /**\n@notice getSupplyAPY roughly calculates the current APY for borrowing using an average of 6500 blocks per day\n**/\n    function getBorrowAPY() public view returns (uint256) {\n        //multiply rate per block by blocks per year with an average of 6500 blocks a day per https://ycharts.com/indicators/ethereum_blocks_per_day\n        return borrowRatePerBlock().mul(2372500);\n    }\n\n    /**\n@notice Returns the current total borrows plus accrued interest\n@return The total borrows with interest\n**/\n    function totalBorrowsCurrent() external returns (uint256) {\n        accrueInterest();\n        return totalBorrows;\n    }\n\n    /**\n@notice return prior exchange rate for front end viewing\n@return Calculated exchange rate scaled by 1e18\n**/\n    function exchangeRatePrior() public view returns (uint256) {\n        if (totalSupply() == 0) {\n            //If there are no tokens minted: exchangeRate = initialExchangeRate\n            return initialExchangeRateMantissa;\n        } else {\n            //Otherwise: exchangeRate = (totalCash + totalBorrows - totalReserves) / totalSupply\n            uint256 totalCash = getCashPrior(); //get contract asset balance\n            uint256 cashPlusBorrowsMinusReserves;\n            Exp memory exchangeRate;\n            MathError mathErr;\n            //calculate total value held by contract plus owed to contract\n            (mathErr, cashPlusBorrowsMinusReserves) = addThenSubUInt(\n                totalCash,\n                totalBorrows,\n                totalReserves\n            );\n            //calculate exchange rate\n            (mathErr, exchangeRate) = getExp(\n                cashPlusBorrowsMinusReserves,\n                totalSupply()\n            );\n            return (exchangeRate.mantissa);\n        }\n    }\n\n    /**\n@notice Accrue interest then return the up-to-date exchange rate\n@return Calculated exchange rate scaled by 1e18\n**/\n    function exchangeRateCurrent() public returns (uint256) {\n        accrueInterest();\n        if (totalSupply() == 0) {\n            //If there are no tokens minted: exchangeRate = initialExchangeRate\n            return initialExchangeRateMantissa;\n        } else {\n            //Otherwise: exchangeRate = (totalCash + totalBorrows - totalReserves) / totalSupply\n            uint256 totalCash = getCashPrior(); //get contract asset balance\n            uint256 cashPlusBorrowsMinusReserves;\n            Exp memory exchangeRate;\n            MathError mathErr;\n            //calculate total value held by contract plus owed to contract\n            (mathErr, cashPlusBorrowsMinusReserves) = addThenSubUInt(\n                totalCash,\n                totalBorrows,\n                totalReserves\n            );\n            //calculate exchange rate\n            (mathErr, exchangeRate) = getExp(\n                cashPlusBorrowsMinusReserves,\n                totalSupply()\n            );\n            return (exchangeRate.mantissa);\n        }\n    }\n\n    /**\n@notice Get cash balance of this cToken in the underlying asset in other contracts\n@return The quantity of underlying asset owned by this contract\n**/\n    function getCash() external view returns (uint256) {\n        return getCashPrior();\n    }\n\n    //struct used by mint to avoid stack too deep errors\n    struct MintLocalVars {\n        MathError mathErr;\n        uint256 exchangeRateMantissa;\n        uint256 mintTokens;\n    }\n\n    /**\n@notice mint is a modified function that only the owner of this contract(its MoneyMarketInstance) can call.\n        This function allows an amount of AskoRiskToken token to be minted when called.\n@param _account is the account the AHR is being minted to\n@param _amount is the amount of AHR being minted\n**/\n    function mint(address _account, uint256 _amount) public onlyMMInstance {\n        //declare struct\n        MintLocalVars memory vars;\n        //retrieve exchange rate\n        vars.exchangeRateMantissa = exchangeRateCurrent();\n        //We get the current exchange rate and calculate the number of AHR to be minted:\n        //mintTokens = _amount / exchangeRate\n        (vars.mathErr, vars.mintTokens) = divScalarByExpTruncate(\n            _amount,\n            Exp({mantissa: vars.exchangeRateMantissa})\n        );\n        _mint(_account, vars.mintTokens);\n        emit Minted(_account, vars.mintTokens);\n    }\n\n    struct RedeemLocalVars {\n        MathError mathErr;\n        uint256 exchangeRateMantissa;\n        uint256 redeemAmount;\n    }\n\n    /**\n@notice redeem allows a user to redeem their AskoRiskToken for the appropriate amount of underlying asset\n@param _amount is the amount of ART being exchanged\n**/\n    function redeem(uint256 _amount) public {\n        accrueInterest();\n        require(_amount != 0);\n\n        RedeemLocalVars memory vars;\n\n        //get exchange rate\n        vars.exchangeRateMantissa = exchangeRateCurrent();\n\n        _burn(msg.sender, _amount);\n        /**\nWe calculate the exchange rate and the amount of underlying to be redeemed:\nredeemAmount = _amount x exchangeRateCurrent\n*/\n        (vars.mathErr, vars.redeemAmount) = mulScalarTruncate(\n            Exp({mantissa: vars.exchangeRateMantissa}),\n            _amount\n        );\n        //Fail if protocol has insufficient cash\n        require(getCashPrior() >= vars.redeemAmount);\n        //transfer the calculated amount of underlying asset to the msg.sender\n        asset.transfer(msg.sender, vars.redeemAmount);\n        emit Redeemed(msg.sender, _amount, vars.redeemAmount);\n    }\n\n    /**\n@notice burn is a modified function that only the owner of this contract(its MoneyMarketInstance) can call.\n        This function allows an amount of AskoRiskToken token to be burned from an address when called.\n@param _account is the account the AHR is being burned from\n@param _amount is the amount of AHR being burned\n**/\n    function burn(address _account, uint256 _amount) public onlyMMInstance {\n        _burn(_account, _amount);\n        emit Burn(_account, _amount);\n    }\n\n    //struct used by borrow function to avoid stack too deep errors\n    struct BorrowLocalVars {\n        MathError mathErr;\n        uint256 accountBorrows;\n        uint256 accountBorrowsNew;\n        uint256 totalBorrowsNew;\n    }\n\n    /**\n@notice Sender borrows assets from the protocol to their own address\n@param _borrowAmount The amount of the underlying asset to borrow\n*/\n    function borrow(uint256 _borrowAmount, address _borrower)\n        external\n        onlyMMInstance\n    {\n        // _collateral the address of the ALR the user has staked as collateral?\n        accrueInterest();\n        //Fail if protocol has insufficient underlying cash\n        require(getCashPrior() > _borrowAmount);\n        //create local vars storage\n        BorrowLocalVars memory vars;\n        //calculate the new borrower and total borrow balances, failing on overflow:\n        vars.accountBorrows = borrowBalanceCurrent(_borrower);\n        //accountBorrowsNew = accountBorrows + borrowAmount\n        (vars.mathErr, vars.accountBorrowsNew) = addUInt(\n            vars.accountBorrows,\n            _borrowAmount\n        );\n        //totalBorrowsNew = totalBorrows + borrowAmount\n        (vars.mathErr, vars.totalBorrowsNew) = addUInt(\n            totalBorrows,\n            _borrowAmount\n        );\n        //We write the previously calculated values into storage\n        accountBorrows[_borrower].principal = vars.accountBorrowsNew;\n        accountBorrows[_borrower].interestIndex = borrowIndex;\n        totalBorrows = vars.totalBorrowsNew;\n        //send them their loaned asset\n        asset.transfer(_borrower, _borrowAmount);\n        emit Borrowed(_borrower, _borrowAmount);\n    }\n\n    struct RepayBorrowLocalVars {\n        MathError mathErr;\n        uint256 repayAmount;\n        uint256 borrowerIndex;\n        uint256 accountBorrows;\n        uint256 accountBorrowsNew;\n        uint256 totalBorrowsNew;\n    }\n\n    /**\n@notice Sender repays their own borrow\n@param repayAmount The amount to repay\n*/\n    function repayBorrow(uint256 repayAmount, address borrower)\n        external\n        onlyMMInstance\n        returns (uint256)\n    {\n        accrueInterest();\n        //create local vars storage\n        RepayBorrowLocalVars memory vars;\n        //We remember the original borrowerIndex for verification purposes\n        vars.borrowerIndex = accountBorrows[borrower].interestIndex;\n        //We fetch the amount the borrower owes, with accumulated interest\n        vars.accountBorrows = borrowBalanceCurrent(borrower);\n        //If repayAmount == 0, repayAmount = accountBorrows\n        if (repayAmount == 0) {\n            vars.repayAmount = vars.accountBorrows;\n        } else {\n            vars.repayAmount = repayAmount;\n        }\n\n        //We calculate the new borrower and total borrow balances\n\n        //accountBorrowsNew = accountBorrows - actualRepayAmount\n        (vars.mathErr, vars.accountBorrowsNew) = subUInt(\n            vars.accountBorrows,\n            vars.repayAmount\n        );\n        //totalBorrowsNew = totalBorrows - actualRepayAmount\n        (vars.mathErr, vars.totalBorrowsNew) = subUInt(\n            totalBorrows,\n            vars.repayAmount\n        );\n        /* We write the previously calculated values into storage */\n        accountBorrows[borrower].principal = vars.accountBorrowsNew;\n        accountBorrows[borrower].interestIndex = borrowIndex;\n        totalBorrows = vars.totalBorrowsNew;\n        emit Repayed(borrower, vars.repayAmount);\n        return vars.repayAmount;\n    }\n\n    /**\n  @notice markAccountNonCompliant is used by a potential liquidator to mark an account as non compliant which starts its 30 minute timer\n  @param _borrower is the address of the non compliant borrower\n  **/\n    function markAccountNonCompliant(address _borrower) public {\n        //needs to check for account compliance\n        require(nonCompliant[_borrower] == 0);\n        nonCompliant[_borrower] = now;\n        emit NonCompliantTimerStart(_borrower);\n    }\n\n    //struct used to avoid stack too deep errors\n    struct liquidateLocalVar {\n        address assetOwed;\n        address assetColat;\n        uint256 borrowedAmount;\n        uint256 collatAmount;\n        uint256 borrowedValue;\n        uint256 borrowedValue150;\n        uint256 collatValue;\n        uint256 halfVal;\n        uint256 exchangeRateMantissa; // Note: reverts on error\n        uint256 seizeTokens;\n    }\n\n    /**\n  @notice _liquidateFor is called by the liquidateAccount function on a MMI where a user is being liquidated. This function\n          is called on a MMI contract where collateral is staked.\n  @param repayAmount The amount of the underlying borrowed asset to repay\n  **/\n    function liquidateAccount(\n        address _borrower,\n        address _liquidator,\n        AskoRiskToken _ARTcollateralized,\n        uint256 repayAmount\n    ) public {\n        //checks if its been nonCompliant for more than a half hour\n        require(now >= nonCompliant[_borrower].add(1800));\n        //create local vars storage\n        liquidateLocalVar memory vars;\n        //get asset addresses of collateral ART\n        vars.assetColat = _ARTcollateralized.getAssetAdd();\n\n        //Read oracle prices for borrowed and collateral markets\n        uint256 priceBorrowedMantissa = UOF.getUnderlyingPrice(address(asset));\n        uint256 priceCollateralMantissa = UOF.getUnderlyingPrice(\n            vars.assetColat\n        );\n        require(priceBorrowedMantissa != 0 && priceCollateralMantissa != 0);\n        //retrieve asset amounts for each\n        vars.borrowedAmount = borrowBalanceCurrent(_borrower);\n        //calculate USDC value amounts of each\n        vars.borrowedValue = vars.borrowedAmount.mul(priceBorrowedMantissa);\n        vars.collatValue = MMF.checkAvailibleCollateralValue(\n            _borrower,\n            vars.assetColat\n        );\n        //divide borrowedValue value in half\n        vars.halfVal = vars.borrowedValue.div(2);\n        //add 1/2 the borrowedValue value to the total borrowedValue value for 150% borrowedValue value\n        vars.borrowedValue150 = vars.borrowedValue.add(vars.halfVal);\n        /**\n    need to check if the amount of collateral is less than 150% of the borrowed amount\n    if the collateral value is greater than or equal to 150% of the borrowed value than we liquidate\n    if not than the non compliance timer is reset\n    **/\n        if (vars.collatValue <= vars.borrowedValue150) {\n            //Get the exchange rate and calculate the number of collateral tokens to seize:\n            vars.exchangeRateMantissa = exchangeRateCurrent(); // Note: reverts on error\n\n            Exp memory numerator;\n            Exp memory denominator;\n            Exp memory ratio;\n            MathError mathErr;\n            //numerator = liquidationIncentive * priceBorrowed\n            (mathErr, numerator) = mulExp(\n                liquidationIncentiveMantissa,\n                priceBorrowedMantissa\n            );\n            //denominator = priceCollateral * exchangeRate\n            (mathErr, denominator) = mulExp(\n                priceCollateralMantissa,\n                vars.exchangeRateMantissa\n            );\n            //ratio = (liquidationIncentive * priceBorrowed) / (priceCollateral * exchangeRate)\n            (mathErr, ratio) = divExp(numerator, denominator);\n            //seizeTokens = actualRepayAmount * (liquidationIncentive * priceBorrowed) / (priceCollateral * exchangeRate)\n            (mathErr, vars.seizeTokens) = mulScalarTruncate(ratio, repayAmount);\n            //get balance before swap\n            uint256 pbal = _ARTcollateralized.getCash();\n            //swap out collateral for this contracts asset and send it\n            UOF.swapERC20(\n                address(asset),\n                vars.assetColat,\n                address(_ARTcollateralized),\n                vars.seizeTokens,\n                vars.borrowedAmount\n            );\n            //let recipeint Money Asko Risk Token know about the incoming liquidation\n            _ARTcollateralized.liquidateReceive(\n                vars.borrowedAmount,\n                _borrower,\n                _liquidator,\n                pbal\n            );\n            //track collateral\n            MMF.trackCollateralDown(\n                _borrower,\n                address(_ARTcollateralized),\n                vars.seizeTokens\n            );\n            emit Accountliquidated(\n                _borrower,\n                msg.sender,\n                repayAmount,\n                address(this),\n                address(_ARTcollateralized)\n            );\n        }\n        //if account is compliant\n        //reset accounts compliant timer\n        nonCompliant[_borrower] = 0; //resets borrowers compliance timer\n        emit NonCompliantTimerReset(_borrower);\n    }\n\n    /**\n\n**/\n    function liquidateReceive(\n        uint256 _amount,\n        address _borrower,\n        address _liquidator,\n        uint256 _pbal\n    ) external {\n        require(MMI.checkIfALR(msg.sender));\n        uint256 liquidationReward = _amount.mul(liquidationIncentiveMantissa);\n        uint256 nbal = getCashPrior();\n        uint256 remaining = nbal.sub(_pbal).sub(_amount.sub(liquidationReward));\n        asset.transfer(_liquidator, liquidationReward);\n        asset.transfer(_borrower, remaining);\n    }\n\n    /**\n@notice getAssetAdd allows for easy retrieval of a Money Markets underlying asset's address\n**/\n    function getAssetAdd() public view returns (address) {\n        return address(asset);\n    }\n}\n",
  "sourcePath": "/home/stan36/repos/Askolend/AskoLend-contracts/contracts/AskoRiskToken.sol",
  "compiler": {
    "name": "solc",
    "version": "0.6.6+commit.6c089d02.Emscripten.clang"
  },
  "schemaVersion": "3.3.2",
  "updatedAt": "2020-11-20T19:49:08.784Z",
  "devdoc": {
    "methods": {
      "accrueInterest()": {
        "details": "This calculates interest accrued from the last checkpointed block up to the current block and writes new checkpoint to storage."
      },
      "allowance(address,address)": {
        "details": "See {IERC20-allowance}."
      },
      "approve(address,uint256)": {
        "details": "See {IERC20-approve}.     * Requirements:     * - `spender` cannot be the zero address."
      },
      "balanceOf(address)": {
        "details": "See {IERC20-balanceOf}."
      },
      "balanceOfUnderlying(address)": {
        "params": {
          "owner": "The address of the account to query"
        },
        "returns": {
          "_0": "The amount of underlying owned by `owner`"
        }
      },
      "balanceOfUnderlyingPrior(address)": {
        "params": {
          "owner": "The address of the account to query"
        },
        "returns": {
          "_0": "The amount of underlying owned by `owner`*"
        }
      },
      "borrow(uint256,address)": {
        "params": {
          "_borrowAmount": "The amount of the underlying asset to borrow"
        }
      },
      "borrowBalanceCurrent(address)": {
        "params": {
          "account": "The address whose balance should be calculated after updating borrowIndex"
        },
        "returns": {
          "_0": "The calculated balance*"
        }
      },
      "borrowBalancePrior(address)": {
        "params": {
          "account": "The address whose balance should be calculated after updating borrowIndex"
        },
        "returns": {
          "_0": "The calculated balance*"
        }
      },
      "burn(address,uint256)": {
        "params": {
          "_account": "is the account the AHR is being burned from",
          "_amount": "is the amount of AHR being burned*"
        }
      },
      "constructor": {
        "details": "these two perameters become hyphenated with \"AHR\" during this process( e.x: AHR-wBitcoin, AHR-wBTC)*",
        "params": {
          "_asset": "is the address of the underlying asset for a specific ART contract",
          "_initialExchangeRate": "is the initial exchange rate mantissa for a specific ART",
          "_interestRateModel": "is the address of the  interest rate model for a specific ART",
          "_isALR": "signifies whether or not a specific AskoRiskToken instance is a high risk or low risk token.",
          "_oracleFactory": "is teh address of the uniswap oracle factory contract",
          "_tokenName": "is the name of the asset the MoneyMarketInstance that owns this contract represents",
          "_tokenSymbol": "is the symbol of the asset the MoneyMarketInstance that owns this contract represents"
        }
      },
      "decimals()": {
        "details": "Returns the number of decimals used to get its user representation. For example, if `decimals` equals `2`, a balance of `505` tokens should be displayed to a user as `5,05` (`505 / 10 ** 2`).     * Tokens usually opt for a value of 18, imitating the relationship between Ether and Wei. This is the value {ERC20} uses, unless {_setupDecimals} is called.     * NOTE: This information is only used for _display_ purposes: it in no way affects any of the arithmetic of the contract, including {IERC20-balanceOf} and {IERC20-transfer}."
      },
      "decreaseAllowance(address,uint256)": {
        "details": "Atomically decreases the allowance granted to `spender` by the caller.     * This is an alternative to {approve} that can be used as a mitigation for problems described in {IERC20-approve}.     * Emits an {Approval} event indicating the updated allowance.     * Requirements:     * - `spender` cannot be the zero address. - `spender` must have allowance for the caller of at least `subtractedValue`."
      },
      "getAccountSnapshot(address)": {
        "details": "This is used to perform liquidity checks.",
        "params": {
          "account": "Address of the account to snapshot"
        },
        "returns": {
          "_0": "(token balance, borrow balance, exchange rate mantissa)*"
        }
      },
      "increaseAllowance(address,uint256)": {
        "details": "Atomically increases the allowance granted to `spender` by the caller.     * This is an alternative to {approve} that can be used as a mitigation for problems described in {IERC20-approve}.     * Emits an {Approval} event indicating the updated allowance.     * Requirements:     * - `spender` cannot be the zero address."
      },
      "liquidateAccount(address,address,address,uint256)": {
        "params": {
          "repayAmount": "The amount of the underlying borrowed asset to repay*"
        }
      },
      "markAccountNonCompliant(address)": {
        "params": {
          "_borrower": "is the address of the non compliant borrower*"
        }
      },
      "mint(address,uint256)": {
        "params": {
          "_account": "is the account the AHR is being minted to",
          "_amount": "is the amount of AHR being minted*"
        }
      },
      "name()": {
        "details": "Returns the name of the token."
      },
      "owner()": {
        "details": "Returns the address of the current owner."
      },
      "redeem(uint256)": {
        "params": {
          "_amount": "is the amount of ART being exchanged*"
        }
      },
      "renounceOwnership()": {
        "details": "Leaves the contract without owner. It will not be possible to call `onlyOwner` functions anymore. Can only be called by the current owner.     * NOTE: Renouncing ownership will leave the contract without an owner, thereby removing any functionality that is only available to the owner."
      },
      "repayBorrow(uint256,address)": {
        "params": {
          "repayAmount": "The amount to repay"
        }
      },
      "symbol()": {
        "details": "Returns the symbol of the token, usually a shorter version of the name."
      },
      "totalSupply()": {
        "details": "See {IERC20-totalSupply}."
      },
      "transfer(address,uint256)": {
        "details": "See {IERC20-transfer}.     * Requirements:     * - `recipient` cannot be the zero address. - the caller must have a balance of at least `amount`."
      },
      "transferFrom(address,address,uint256)": {
        "details": "See {IERC20-transferFrom}.     * Emits an {Approval} event indicating the updated allowance. This is not required by the EIP. See the note at the beginning of {ERC20};     * Requirements: - `sender` and `recipient` cannot be the zero address. - `sender` must have a balance of at least `amount`. - the caller must have allowance for ``sender``'s tokens of at least `amount`."
      },
      "transferOwnership(address)": {
        "details": "Transfers ownership of the contract to a new account (`newOwner`). Can only be called by the current owner."
      }
    }
  },
  "userdoc": {
    "methods": {
      "accrueInterest()": {
        "notice": "Applies accrued interest to total borrows and reserves"
      },
      "balanceOfUnderlying(address)": {
        "notice": "Get the underlying balance of the `owners`"
      },
      "balanceOfUnderlyingPrior(address)": {
        "notice": "Get the underlying balance of the `owners`"
      },
      "borrow(uint256,address)": {
        "notice": "Sender borrows assets from the protocol to their own address"
      },
      "borrowBalanceCurrent(address)": {
        "notice": "Accrue interest to updated borrowIndex and then calculate account's borrow balance using the updated borrowIndex"
      },
      "borrowBalancePrior(address)": {
        "notice": "returns last calculated account's borrow balance using the prior borrowIndex"
      },
      "borrowRatePerBlock()": {
        "notice": "Returns the current per-block borrow interest rate for this ART"
      },
      "burn(address,uint256)": {
        "notice": "burn is a modified function that only the owner of this contract(its MoneyMarketInstance) can call. This function allows an amount of AskoRiskToken token to be burned from an address when called."
      },
      "constructor": "the constructor function is fired during the contract deployment process. The constructor can only be fired once and is used to set up the name, symbol, and decimal variables for the AskoRiskToken contract.",
      "exchangeRateCurrent()": {
        "notice": "Accrue interest then return the up-to-date exchange rate"
      },
      "exchangeRatePrior()": {
        "notice": "return prior exchange rate for front end viewing"
      },
      "getAccountSnapshot(address)": {
        "notice": "Get a snapshot of the account's balances, and the cached exchange rate"
      },
      "getAssetAdd()": {
        "notice": "getAssetAdd allows for easy retrieval of a Money Markets underlying asset's address*"
      },
      "getBorrowAPY()": {
        "notice": "getSupplyAPY roughly calculates the current APY for borrowing using an average of 6500 blocks per day*"
      },
      "getCash()": {
        "notice": "Get cash balance of this cToken in the underlying asset in other contracts"
      },
      "getSupplyAPY()": {
        "notice": "getSupplyAPY roughly calculates the current APY for supplying using an average of 6500 blocks per day*"
      },
      "liquidateAccount(address,address,address,uint256)": {
        "notice": "_liquidateFor is called by the liquidateAccount function on a MMI where a user is being liquidated. This function is called on a MMI contract where collateral is staked."
      },
      "liquidateReceive(uint256,address,address,uint256)": {
        "notice": "*"
      },
      "markAccountNonCompliant(address)": {
        "notice": "markAccountNonCompliant is used by a potential liquidator to mark an account as non compliant which starts its 30 minute timer"
      },
      "mint(address,uint256)": {
        "notice": "mint is a modified function that only the owner of this contract(its MoneyMarketInstance) can call. This function allows an amount of AskoRiskToken token to be minted when called."
      },
      "redeem(uint256)": {
        "notice": "redeem allows a user to redeem their AskoRiskToken for the appropriate amount of underlying asset"
      },
      "repayBorrow(uint256,address)": {
        "notice": "Sender repays their own borrow"
      },
      "supplyRatePerBlock()": {
        "notice": "Returns the current per-block supply interest rate for this ART"
      },
      "totalBorrowsCurrent()": {
        "notice": "Returns the current total borrows plus accrued interest"
      }
    },
    "notice": "The AskoRiskToken contract is an ERC20 contract designed to be owned by a MoneyMarketInstance contract. This contract's token represents a Risk lending pool in a MoneyMarketInstance contract. This contract uses the OpenZeppelin contract Library to inherit functions from Ownable.sol && ERC20.sol*"
  }
}