{
  "contractName": "FakeFaucet",
  "abi": [
    {
      "inputs": [
        {
          "internalType": "contract FakeLink",
          "name": "_FL",
          "type": "address"
        },
        {
          "internalType": "contract FakeAugur",
          "name": "_FA",
          "type": "address"
        },
        {
          "internalType": "contract FakeBAT",
          "name": "_FB",
          "type": "address"
        },
        {
          "internalType": "contract FakewBTC",
          "name": "_FWB",
          "type": "address"
        },
        {
          "internalType": "contract FakewETH",
          "name": "_FWE",
          "type": "address"
        }
      ],
      "stateMutability": "nonpayable",
      "type": "constructor"
    },
    {
      "inputs": [
        {
          "internalType": "address",
          "name": "",
          "type": "address"
        }
      ],
      "name": "dontDoIT",
      "outputs": [
        {
          "internalType": "uint256",
          "name": "",
          "type": "uint256"
        }
      ],
      "stateMutability": "view",
      "type": "function",
      "constant": true
    },
    {
      "inputs": [],
      "name": "fakeAugur",
      "outputs": [
        {
          "internalType": "contract FakeAugur",
          "name": "",
          "type": "address"
        }
      ],
      "stateMutability": "view",
      "type": "function",
      "constant": true
    },
    {
      "inputs": [],
      "name": "fakeBAT",
      "outputs": [
        {
          "internalType": "contract FakeBAT",
          "name": "",
          "type": "address"
        }
      ],
      "stateMutability": "view",
      "type": "function",
      "constant": true
    },
    {
      "inputs": [],
      "name": "fakeLINK",
      "outputs": [
        {
          "internalType": "contract FakeLink",
          "name": "",
          "type": "address"
        }
      ],
      "stateMutability": "view",
      "type": "function",
      "constant": true
    },
    {
      "inputs": [],
      "name": "fakewBTC",
      "outputs": [
        {
          "internalType": "contract FakewBTC",
          "name": "",
          "type": "address"
        }
      ],
      "stateMutability": "view",
      "type": "function",
      "constant": true
    },
    {
      "inputs": [],
      "name": "fakewETH",
      "outputs": [
        {
          "internalType": "contract FakewETH",
          "name": "",
          "type": "address"
        }
      ],
      "stateMutability": "view",
      "type": "function",
      "constant": true
    },
    {
      "inputs": [],
      "name": "gimme",
      "outputs": [],
      "stateMutability": "nonpayable",
      "type": "function"
    }
  ],
  "bytecode": "0x608060405234801561001057600080fd5b5060405161077a38038061077a833981810160405260a081101561003357600080fd5b508051602082015160408301516060840151608090940151600080546001600160a01b039586166001600160a01b031991821617909155600180549486169482169490941790935560028054928516928416929092179091556003805494841694831694909417909355600480549290931691161790556106c1806100b96000396000f3fe608060405234801561001057600080fd5b506004361061006d5760003560e01c8063412b3e3514610072578063451fce4a146100965780637b398a671461009e578063a52a45f5146100a6578063de82efb4146100ae578063e63b9c5c146100b8578063f491d17b146100c0575b600080fd5b61007a6100f8565b604080516001600160a01b039092168252519081900360200190f35b61007a610107565b61007a610116565b61007a610125565b6100b6610134565b005b61007a61066a565b6100e6600480360360208110156100d657600080fd5b50356001600160a01b0316610679565b60408051918252519081900360200190f35b6002546001600160a01b031681565b6003546001600160a01b031681565b6004546001600160a01b031681565b6001546001600160a01b031681565b60008054604080516370a0823160e01b815233600482015290516001600160a01b03909216916370a0823191602480820192602092909190829003018186803b15801561018057600080fd5b505afa158015610194573d6000803e3d6000fd5b505050506040513d60208110156101aa57600080fd5b5051600154604080516370a0823160e01b815233600482015290519293506000926001600160a01b03909216916370a0823191602480820192602092909190829003018186803b1580156101fd57600080fd5b505afa158015610211573d6000803e3d6000fd5b505050506040513d602081101561022757600080fd5b5051600254604080516370a0823160e01b815233600482015290519293506000926001600160a01b03909216916370a0823191602480820192602092909190829003018186803b15801561027a57600080fd5b505afa15801561028e573d6000803e3d6000fd5b505050506040513d60208110156102a457600080fd5b5051600354604080516370a0823160e01b815233600482015290519293506000926001600160a01b03909216916370a0823191602480820192602092909190829003018186803b1580156102f757600080fd5b505afa15801561030b573d6000803e3d6000fd5b505050506040513d602081101561032157600080fd5b505160048054604080516370a0823160e01b81523393810193909352519293506000926001600160a01b03909116916370a08231916024808301926020929190829003018186803b15801561037557600080fd5b505afa158015610389573d6000803e3d6000fd5b505050506040513d602081101561039f57600080fd5b505133600090815260056020526040902054909150858501840183018201906201518001421015806103cf575080155b610415576040805162461bcd60e51b81526020600482015260126024820152714572726f723a20557365722047726565647960701b604482015290519081900360640190fd5b6000805460408051637d21ce4d60e01b8152336004820152683635c9adc5dea00000602482015290516001600160a01b0390921692637d21ce4d9260448084019382900301818387803b15801561046b57600080fd5b505af115801561047f573d6000803e3d6000fd5b505060015460408051637d21ce4d60e01b8152336004820152683635c9adc5dea00000602482015290516001600160a01b039092169350637d21ce4d925060448082019260009290919082900301818387803b1580156104de57600080fd5b505af11580156104f2573d6000803e3d6000fd5b505060025460408051637d21ce4d60e01b8152336004820152683635c9adc5dea00000602482015290516001600160a01b039092169350637d21ce4d925060448082019260009290919082900301818387803b15801561055157600080fd5b505af1158015610565573d6000803e3d6000fd5b505060035460408051637d21ce4d60e01b8152336004820152683635c9adc5dea00000602482015290516001600160a01b039092169350637d21ce4d925060448082019260009290919082900301818387803b1580156105c457600080fd5b505af11580156105d8573d6000803e3d6000fd5b50506004805460408051637d21ce4d60e01b81523393810193909352683635c9adc5dea000006024840152516001600160a01b039091169350637d21ce4d9250604480830192600092919082900301818387803b15801561063857600080fd5b505af115801561064c573d6000803e3d6000fd5b50503360009081526005602052604090204290555050505050505050565b6000546001600160a01b031681565b6005602052600090815260409020548156fea26469706673582212201d36b547e741eceefd2c03b0147cee93e136f2268f21ac273762eec05c0c368864736f6c63430006060033",
  "immutableReferences": {},
  "source": "pragma solidity ^0.6.2;\n\nimport \"./FakeLink.sol\";\nimport \"./FakeAugur.sol\";\nimport \"./FakeBAT.sol\";\nimport \"./FakewBTC.sol\";\nimport \"./FakewETH.sol\";\n\n////////////////////////////////////////////////////////////////////////////////////////////\n/// @title FakeFaucet\n/// @author Christopher Dixon\n////////////////////////////////////////////////////////////////////////////////////////////\n/**\n@notice the FakeFaucet contract is used to simulate an ERC20 with uniswap on kovan\n**/\ncontract FakeFaucet {\n    FakeLink public fakeLINK;\n    FakeAugur public fakeAugur;\n    FakeBAT public fakeBAT;\n    FakewBTC public fakewBTC;\n    FakewETH public fakewETH;\n\n    mapping(address => uint256) public dontDoIT;\n\n    constructor(\n        FakeLink _FL,\n        FakeAugur _FA,\n        FakeBAT _FB,\n        FakewBTC _FWB,\n        FakewETH _FWE\n    ) public {\n        fakeLINK = _FL;\n        fakeAugur = _FA;\n        fakeBAT = _FB;\n        fakewBTC = _FWB;\n        fakewETH = _FWE;\n    }\n\n    function gimme() public {\n        uint256 one = fakeLINK.balanceOf(msg.sender);\n        uint256 two = fakeAugur.balanceOf(msg.sender);\n        uint256 three = fakeBAT.balanceOf(msg.sender);\n        uint256 four = fakewBTC.balanceOf(msg.sender);\n        uint256 five = fakewETH.balanceOf(msg.sender);\n        uint256 total = one + two + three + four + five;\n        require(\n            now >= dontDoIT[msg.sender] + 86400 || total == 0,\n            \"Error: User Greedy\"\n        );\n        fakeLINK._Mint(msg.sender, 1000000000000000000000);\n        fakeAugur._Mint(msg.sender, 1000000000000000000000);\n        fakeBAT._Mint(msg.sender, 1000000000000000000000);\n        fakewBTC._Mint(msg.sender, 1000000000000000000000);\n        fakewETH._Mint(msg.sender, 1000000000000000000000);\n        dontDoIT[msg.sender] = now;\n    }\n}\n",
  "sourcePath": "/home/memec/code/askolend/AskoLend-contracts/contracts/FakeTokens/FakeFaucet.sol",
  "compiler": {
    "name": "solc",
    "version": "0.6.6+commit.6c089d02.Emscripten.clang"
  },
  "schemaVersion": "3.3.2",
  "updatedAt": "2020-12-12T01:26:53.489Z",
  "networkType": "ethereum",
  "devdoc": {
    "methods": {}
  },
  "userdoc": {
    "methods": {},
    "notice": "the FakeFaucet contract is used to simulate an ERC20 with uniswap on kovan*"
  }
}