{
  "contractName": "FakeFaucet",
  "abi": [
    {
      "inputs": [
        {
          "internalType": "contract FakeLink",
          "name": "_FL",
          "type": "address"
        },
        {
          "internalType": "contract FakeAugur",
          "name": "_FA",
          "type": "address"
        },
        {
          "internalType": "contract FakeBAT",
          "name": "_FB",
          "type": "address"
        },
        {
          "internalType": "contract FakewBTC",
          "name": "_FWB",
          "type": "address"
        },
        {
          "internalType": "contract FakewETH",
          "name": "_FWE",
          "type": "address"
        }
      ],
      "stateMutability": "nonpayable",
      "type": "constructor"
    },
    {
      "inputs": [
        {
          "internalType": "address",
          "name": "",
          "type": "address"
        }
      ],
      "name": "dontDoIT",
      "outputs": [
        {
          "internalType": "uint256",
          "name": "",
          "type": "uint256"
        }
      ],
      "stateMutability": "view",
      "type": "function",
      "constant": true
    },
    {
      "inputs": [],
      "name": "fakeAugur",
      "outputs": [
        {
          "internalType": "contract FakeAugur",
          "name": "",
          "type": "address"
        }
      ],
      "stateMutability": "view",
      "type": "function",
      "constant": true
    },
    {
      "inputs": [],
      "name": "fakeBAT",
      "outputs": [
        {
          "internalType": "contract FakeBAT",
          "name": "",
          "type": "address"
        }
      ],
      "stateMutability": "view",
      "type": "function",
      "constant": true
    },
    {
      "inputs": [],
      "name": "fakeLINK",
      "outputs": [
        {
          "internalType": "contract FakeLink",
          "name": "",
          "type": "address"
        }
      ],
      "stateMutability": "view",
      "type": "function",
      "constant": true
    },
    {
      "inputs": [],
      "name": "fakewBTC",
      "outputs": [
        {
          "internalType": "contract FakewBTC",
          "name": "",
          "type": "address"
        }
      ],
      "stateMutability": "view",
      "type": "function",
      "constant": true
    },
    {
      "inputs": [],
      "name": "fakewETH",
      "outputs": [
        {
          "internalType": "contract FakewETH",
          "name": "",
          "type": "address"
        }
      ],
      "stateMutability": "view",
      "type": "function",
      "constant": true
    },
    {
      "inputs": [],
      "name": "gimme",
      "outputs": [],
      "stateMutability": "nonpayable",
      "type": "function"
    }
  ],
  "bytecode": "0x608060405234801561001057600080fd5b506040516104dd3803806104dd833981810160405260a081101561003357600080fd5b508051602082015160408301516060840151608090940151600080546001600160a01b039586166001600160a01b03199182161790915560018054948616948216949094179093556002805492851692841692909217909155600380549484169483169490941790935560048054929093169116179055610424806100b96000396000f3fe608060405234801561001057600080fd5b506004361061006d5760003560e01c8063412b3e3514610072578063451fce4a146100965780637b398a671461009e578063a52a45f5146100a6578063de82efb4146100ae578063e63b9c5c146100b8578063f491d17b146100c0575b600080fd5b61007a6100f8565b604080516001600160a01b039092168252519081900360200190f35b61007a610107565b61007a610116565b61007a610125565b6100b6610134565b005b61007a6103cd565b6100e6600480360360208110156100d657600080fd5b50356001600160a01b03166103dc565b60408051918252519081900360200190f35b6002546001600160a01b031681565b6003546001600160a01b031681565b6004546001600160a01b031681565b6001546001600160a01b031681565b33600090815260056020526040902054620151801115610190576040805162461bcd60e51b81526020600482015260126024820152714572726f723a20557365722047726565647960701b604482015290519081900360640190fd5b6000805460408051637d21ce4d60e01b8152336004820152683635c9adc5dea00000602482015290516001600160a01b0390921692637d21ce4d9260448084019382900301818387803b1580156101e657600080fd5b505af11580156101fa573d6000803e3d6000fd5b505060015460408051637d21ce4d60e01b8152336004820152683635c9adc5dea00000602482015290516001600160a01b039092169350637d21ce4d925060448082019260009290919082900301818387803b15801561025957600080fd5b505af115801561026d573d6000803e3d6000fd5b505060025460408051637d21ce4d60e01b8152336004820152683635c9adc5dea00000602482015290516001600160a01b039092169350637d21ce4d925060448082019260009290919082900301818387803b1580156102cc57600080fd5b505af11580156102e0573d6000803e3d6000fd5b505060035460408051637d21ce4d60e01b8152336004820152683635c9adc5dea00000602482015290516001600160a01b039092169350637d21ce4d925060448082019260009290919082900301818387803b15801561033f57600080fd5b505af1158015610353573d6000803e3d6000fd5b50506004805460408051637d21ce4d60e01b81523393810193909352683635c9adc5dea000006024840152516001600160a01b039091169350637d21ce4d9250604480830192600092919082900301818387803b1580156103b357600080fd5b505af11580156103c7573d6000803e3d6000fd5b50505050565b6000546001600160a01b031681565b6005602052600090815260409020548156fea2646970667358221220ea901635552c1bca9d1f088bd67ace2e643d5c2c2b19ce9016ecdcdf6c61c93464736f6c63430006060033",
  "immutableReferences": {},
  "source": "pragma solidity ^0.6.2;\n\nimport \"./FakeLink.sol\";\nimport \"./FakeAugur.sol\";\nimport \"./FakeBAT.sol\";\nimport \"./FakewBTC.sol\";\nimport \"./FakewETH.sol\";\n\n////////////////////////////////////////////////////////////////////////////////////////////\n/// @title FakeFaucet\n/// @author Christopher Dixon\n////////////////////////////////////////////////////////////////////////////////////////////\n/**\n@notice the FakeFaucet contract is used to simulate an ERC20 with uniswap on kovan\n**/\ncontract FakeFaucet {\n    FakeLink public fakeLINK;\n    FakeAugur public fakeAugur;\n    FakeBAT public fakeBAT;\n    FakewBTC public fakewBTC;\n    FakewETH public fakewETH;\n\n    mapping(address => uint256) public dontDoIT;\n\n    constructor(\n        FakeLink _FL,\n        FakeAugur _FA,\n        FakeBAT _FB,\n        FakewBTC _FWB,\n        FakewETH _FWE\n    ) public {\n        fakeLINK = _FL;\n        fakeAugur = _FA;\n        fakeBAT = _FB;\n        fakewBTC = _FWB;\n        fakewETH = _FWE;\n    }\n\n    function gimme() public {\n        require(dontDoIT[msg.sender] >= 86400, \"Error: User Greedy\");\n        fakeLINK._Mint(msg.sender, 1000000000000000000000);\n        fakeAugur._Mint(msg.sender, 1000000000000000000000);\n        fakeBAT._Mint(msg.sender, 1000000000000000000000);\n        fakewBTC._Mint(msg.sender, 1000000000000000000000);\n        fakewETH._Mint(msg.sender, 1000000000000000000000);\n    }\n}\n",
  "sourcePath": "/home/stan36/repos/Askolend/AskoLend-contracts/contracts/FakeTokens/FakeFaucet.sol",
  "compiler": {
    "name": "solc",
    "version": "0.6.6+commit.6c089d02.Emscripten.clang"
  },
  "schemaVersion": "3.3.2",
  "updatedAt": "2020-12-07T19:04:02.186Z",
  "networkType": "ethereum",
  "devdoc": {
    "methods": {}
  },
  "userdoc": {
    "methods": {},
    "notice": "the FakeFaucet contract is used to simulate an ERC20 with uniswap on kovan*"
  }
}