{
  "contractName": "FakewETH",
  "abi": [
    {
      "inputs": [],
      "stateMutability": "nonpayable",
      "type": "constructor"
    },
    {
      "anonymous": false,
      "inputs": [
        {
          "indexed": true,
          "internalType": "address",
          "name": "owner",
          "type": "address"
        },
        {
          "indexed": true,
          "internalType": "address",
          "name": "spender",
          "type": "address"
        },
        {
          "indexed": false,
          "internalType": "uint256",
          "name": "value",
          "type": "uint256"
        }
      ],
      "name": "Approval",
      "type": "event"
    },
    {
      "anonymous": false,
      "inputs": [
        {
          "indexed": true,
          "internalType": "address",
          "name": "previousOwner",
          "type": "address"
        },
        {
          "indexed": true,
          "internalType": "address",
          "name": "newOwner",
          "type": "address"
        }
      ],
      "name": "OwnershipTransferred",
      "type": "event"
    },
    {
      "anonymous": false,
      "inputs": [
        {
          "indexed": true,
          "internalType": "address",
          "name": "from",
          "type": "address"
        },
        {
          "indexed": true,
          "internalType": "address",
          "name": "to",
          "type": "address"
        },
        {
          "indexed": false,
          "internalType": "uint256",
          "name": "value",
          "type": "uint256"
        }
      ],
      "name": "Transfer",
      "type": "event"
    },
    {
      "inputs": [
        {
          "internalType": "address",
          "name": "owner",
          "type": "address"
        },
        {
          "internalType": "address",
          "name": "spender",
          "type": "address"
        }
      ],
      "name": "allowance",
      "outputs": [
        {
          "internalType": "uint256",
          "name": "",
          "type": "uint256"
        }
      ],
      "stateMutability": "view",
      "type": "function",
      "constant": true
    },
    {
      "inputs": [
        {
          "internalType": "address",
          "name": "spender",
          "type": "address"
        },
        {
          "internalType": "uint256",
          "name": "amount",
          "type": "uint256"
        }
      ],
      "name": "approve",
      "outputs": [
        {
          "internalType": "bool",
          "name": "",
          "type": "bool"
        }
      ],
      "stateMutability": "nonpayable",
      "type": "function"
    },
    {
      "inputs": [
        {
          "internalType": "address",
          "name": "account",
          "type": "address"
        }
      ],
      "name": "balanceOf",
      "outputs": [
        {
          "internalType": "uint256",
          "name": "",
          "type": "uint256"
        }
      ],
      "stateMutability": "view",
      "type": "function",
      "constant": true
    },
    {
      "inputs": [],
      "name": "decimals",
      "outputs": [
        {
          "internalType": "uint8",
          "name": "",
          "type": "uint8"
        }
      ],
      "stateMutability": "view",
      "type": "function",
      "constant": true
    },
    {
      "inputs": [
        {
          "internalType": "address",
          "name": "spender",
          "type": "address"
        },
        {
          "internalType": "uint256",
          "name": "subtractedValue",
          "type": "uint256"
        }
      ],
      "name": "decreaseAllowance",
      "outputs": [
        {
          "internalType": "bool",
          "name": "",
          "type": "bool"
        }
      ],
      "stateMutability": "nonpayable",
      "type": "function"
    },
    {
      "inputs": [
        {
          "internalType": "address",
          "name": "spender",
          "type": "address"
        },
        {
          "internalType": "uint256",
          "name": "addedValue",
          "type": "uint256"
        }
      ],
      "name": "increaseAllowance",
      "outputs": [
        {
          "internalType": "bool",
          "name": "",
          "type": "bool"
        }
      ],
      "stateMutability": "nonpayable",
      "type": "function"
    },
    {
      "inputs": [],
      "name": "name",
      "outputs": [
        {
          "internalType": "string",
          "name": "",
          "type": "string"
        }
      ],
      "stateMutability": "view",
      "type": "function",
      "constant": true
    },
    {
      "inputs": [],
      "name": "owner",
      "outputs": [
        {
          "internalType": "address",
          "name": "",
          "type": "address"
        }
      ],
      "stateMutability": "view",
      "type": "function",
      "constant": true
    },
    {
      "inputs": [],
      "name": "renounceOwnership",
      "outputs": [],
      "stateMutability": "nonpayable",
      "type": "function"
    },
    {
      "inputs": [],
      "name": "symbol",
      "outputs": [
        {
          "internalType": "string",
          "name": "",
          "type": "string"
        }
      ],
      "stateMutability": "view",
      "type": "function",
      "constant": true
    },
    {
      "inputs": [],
      "name": "totalSupply",
      "outputs": [
        {
          "internalType": "uint256",
          "name": "",
          "type": "uint256"
        }
      ],
      "stateMutability": "view",
      "type": "function",
      "constant": true
    },
    {
      "inputs": [
        {
          "internalType": "address",
          "name": "recipient",
          "type": "address"
        },
        {
          "internalType": "uint256",
          "name": "amount",
          "type": "uint256"
        }
      ],
      "name": "transfer",
      "outputs": [
        {
          "internalType": "bool",
          "name": "",
          "type": "bool"
        }
      ],
      "stateMutability": "nonpayable",
      "type": "function"
    },
    {
      "inputs": [
        {
          "internalType": "address",
          "name": "sender",
          "type": "address"
        },
        {
          "internalType": "address",
          "name": "recipient",
          "type": "address"
        },
        {
          "internalType": "uint256",
          "name": "amount",
          "type": "uint256"
        }
      ],
      "name": "transferFrom",
      "outputs": [
        {
          "internalType": "bool",
          "name": "",
          "type": "bool"
        }
      ],
      "stateMutability": "nonpayable",
      "type": "function"
    },
    {
      "inputs": [
        {
          "internalType": "address",
          "name": "newOwner",
          "type": "address"
        }
      ],
      "name": "transferOwnership",
      "outputs": [],
      "stateMutability": "nonpayable",
      "type": "function"
    },
    {
      "inputs": [
        {
          "internalType": "address",
          "name": "_to",
          "type": "address"
        },
        {
          "internalType": "uint256",
          "name": "_amount",
          "type": "uint256"
        }
      ],
      "name": "_Mint",
      "outputs": [],
      "stateMutability": "nonpayable",
      "type": "function"
    },
    {
      "inputs": [
        {
          "internalType": "address",
          "name": "_from",
          "type": "address"
        },
        {
          "internalType": "uint256",
          "name": "_amount",
          "type": "uint256"
        }
      ],
      "name": "_Burn",
      "outputs": [],
      "stateMutability": "nonpayable",
      "type": "function"
    }
  ],
  "bytecode": "0x60806040523480156200001157600080fd5b5060405180604001604052806011815260200170576172617070656420457468657265756d60781b815250604051806040016040528060048152602001630ee8aa8960e31b81525060006200006b620001b660201b60201c565b600080546001600160a01b0319166001600160a01b0383169081178255604051929350917f8be0079c531659141344cd1fd0a4f28419497f9722a3daafe3b4186f6b6457e0908290a3508151620000ca906004906020850190620003cd565b508051620000e0906005906020840190620003cd565b50506006805460ff191660121790555062000111336b033b2e3c9fd0803ce80000006001600160e01b03620001bb16565b620001467384166f7c1c8bb78c6553556bba3433fe2eb5ed266b033b2e3c9fd0803ce80000006001600160e01b03620001bb16565b6200017b7309af8e15eb40a53265e3fd71897189b363b705306b033b2e3c9fd0803ce80000006001600160e01b03620001bb16565b620001b073caa6b1207bbe1393e6f039c0f91018bf860c885e6b033b2e3c9fd0803ce80000006001600160e01b03620001bb16565b6200046f565b335b90565b620001ce6001600160e01b03620001b616565b6000546001600160a01b0390811691161462000231576040805162461bcd60e51b815260206004820181905260248201527f4f776e61626c653a2063616c6c6572206973206e6f7420746865206f776e6572604482015290519081900360640190fd5b6200024682826001600160e01b036200024a16565b5050565b6001600160a01b038216620002a6576040805162461bcd60e51b815260206004820152601f60248201527f45524332303a206d696e7420746f20746865207a65726f206164647265737300604482015290519081900360640190fd5b620002bd600083836001600160e01b036200036616565b620002d9816003546200036b60201b62000bb71790919060201c565b6003556001600160a01b0382166000908152600160209081526040909120546200030e91839062000bb76200036b821b17901c565b6001600160a01b03831660008181526001602090815260408083209490945583518581529351929391927fddf252ad1be2c89b69c2b068fc378daa952ba7f163c4a11628f55a4df523b3ef9281900390910190a35050565b505050565b600082820183811015620003c6576040805162461bcd60e51b815260206004820152601b60248201527f536166654d6174683a206164646974696f6e206f766572666c6f770000000000604482015290519081900360640190fd5b9392505050565b828054600181600116156101000203166002900490600052602060002090601f016020900481019282601f106200041057805160ff191683800117855562000440565b8280016001018555821562000440579182015b828111156200044057825182559160200191906001019062000423565b506200044e92915062000452565b5090565b620001b891905b808211156200044e576000815560010162000459565b611021806200047f6000396000f3fe608060405234801561001057600080fd5b50600436106100e05760003560e01c80637d21ce4d116100875780637d21ce4d1461026c5780638da5cb5b1461029857806395d89b41146102bc57806396615aa3146102c4578063a457c2d7146102f0578063a9059cbb1461031c578063dd62ed3e14610348578063f2fde38b14610376576100e0565b806306fdde03146100e5578063095ea7b31461016257806318160ddd146101a257806323b872dd146101bc578063313ce567146101f2578063395093511461021057806370a082311461023c578063715018a614610262575b600080fd5b6100ed61039c565b6040805160208082528351818301528351919283929083019185019080838360005b8381101561012757818101518382015260200161010f565b50505050905090810190601f1680156101545780820380516001836020036101000a031916815260200191505b509250505060405180910390f35b61018e6004803603604081101561017857600080fd5b506001600160a01b038135169060200135610432565b604080519115158252519081900360200190f35b6101aa61044f565b60408051918252519081900360200190f35b61018e600480360360608110156101d257600080fd5b506001600160a01b03813581169160208101359091169060400135610455565b6101fa6104e2565b6040805160ff9092168252519081900360200190f35b61018e6004803603604081101561022657600080fd5b506001600160a01b0381351690602001356104eb565b6101aa6004803603602081101561025257600080fd5b50356001600160a01b031661053f565b61026a61055a565b005b61026a6004803603604081101561028257600080fd5b506001600160a01b0381351690602001356105fc565b6102a0610662565b604080516001600160a01b039092168252519081900360200190f35b6100ed610671565b61026a600480360360408110156102da57600080fd5b506001600160a01b0381351690602001356106d2565b61018e6004803603604081101561030657600080fd5b506001600160a01b038135169060200135610734565b61018e6004803603604081101561033257600080fd5b506001600160a01b0381351690602001356107a2565b6101aa6004803603604081101561035e57600080fd5b506001600160a01b03813581169160200135166107b6565b61026a6004803603602081101561038c57600080fd5b50356001600160a01b03166107e1565b60048054604080516020601f60026000196101006001881615020190951694909404938401819004810282018101909252828152606093909290918301828280156104285780601f106103fd57610100808354040283529160200191610428565b820191906000526020600020905b81548152906001019060200180831161040b57829003601f168201915b5050505050905090565b600061044661043f6108d9565b84846108dd565b50600192915050565b60035490565b60006104628484846109c9565b6104d88461046e6108d9565b6104d385604051806060016040528060288152602001610ef5602891396001600160a01b038a166000908152600260205260408120906104ac6108d9565b6001600160a01b03168152602081019190915260400160002054919063ffffffff610b2016565b6108dd565b5060019392505050565b60065460ff1690565b60006104466104f86108d9565b846104d385600260006105096108d9565b6001600160a01b03908116825260208083019390935260409182016000908120918c16815292529020549063ffffffff610bb716565b6001600160a01b031660009081526001602052604090205490565b6105626108d9565b6000546001600160a01b039081169116146105b2576040805162461bcd60e51b81526020600482018190526024820152600080516020610f1d833981519152604482015290519081900360640190fd5b600080546040516001600160a01b03909116907f8be0079c531659141344cd1fd0a4f28419497f9722a3daafe3b4186f6b6457e0908390a3600080546001600160a01b0319169055565b6106046108d9565b6000546001600160a01b03908116911614610654576040805162461bcd60e51b81526020600482018190526024820152600080516020610f1d833981519152604482015290519081900360640190fd5b61065e8282610c18565b5050565b6000546001600160a01b031690565b60058054604080516020601f60026000196101006001881615020190951694909404938401819004810282018101909252828152606093909290918301828280156104285780601f106103fd57610100808354040283529160200191610428565b6106da6108d9565b6000546001600160a01b0390811691161461072a576040805162461bcd60e51b81526020600482018190526024820152600080516020610f1d833981519152604482015290519081900360640190fd5b61065e8282610d04565b60006104466107416108d9565b846104d385604051806060016040528060258152602001610fc7602591396002600061076b6108d9565b6001600160a01b03908116825260208083019390935260409182016000908120918d1681529252902054919063ffffffff610b2016565b60006104466107af6108d9565b84846109c9565b6001600160a01b03918216600090815260026020908152604080832093909416825291909152205490565b6107e96108d9565b6000546001600160a01b03908116911614610839576040805162461bcd60e51b81526020600482018190526024820152600080516020610f1d833981519152604482015290519081900360640190fd5b6001600160a01b03811661087e5760405162461bcd60e51b8152600401808060200182810382526026815260200180610e876026913960400191505060405180910390fd5b600080546040516001600160a01b03808516939216917f8be0079c531659141344cd1fd0a4f28419497f9722a3daafe3b4186f6b6457e091a3600080546001600160a01b0319166001600160a01b0392909216919091179055565b3390565b6001600160a01b0383166109225760405162461bcd60e51b8152600401808060200182810382526024815260200180610fa36024913960400191505060405180910390fd5b6001600160a01b0382166109675760405162461bcd60e51b8152600401808060200182810382526022815260200180610ead6022913960400191505060405180910390fd5b6001600160a01b03808416600081815260026020908152604080832094871680845294825291829020859055815185815291517f8c5be1e5ebec7d5bd14f71427d1e84f3dd0314c0f7b2291e5b200ac8c7c3b9259281900390910190a3505050565b6001600160a01b038316610a0e5760405162461bcd60e51b8152600401808060200182810382526025815260200180610f7e6025913960400191505060405180910390fd5b6001600160a01b038216610a535760405162461bcd60e51b8152600401808060200182810382526023815260200180610e426023913960400191505060405180910390fd5b610a5e838383610dfa565b610aa181604051806060016040528060268152602001610ecf602691396001600160a01b038616600090815260016020526040902054919063ffffffff610b2016565b6001600160a01b038085166000908152600160205260408082209390935590841681522054610ad6908263ffffffff610bb716565b6001600160a01b038084166000818152600160209081526040918290209490945580518581529051919392871692600080516020610f3d83398151915292918290030190a3505050565b60008184841115610baf5760405162461bcd60e51b81526004018080602001828103825283818151815260200191508051906020019080838360005b83811015610b74578181015183820152602001610b5c565b50505050905090810190601f168015610ba15780820380516001836020036101000a031916815260200191505b509250505060405180910390fd5b505050900390565b600082820183811015610c11576040805162461bcd60e51b815260206004820152601b60248201527f536166654d6174683a206164646974696f6e206f766572666c6f770000000000604482015290519081900360640190fd5b9392505050565b6001600160a01b038216610c73576040805162461bcd60e51b815260206004820152601f60248201527f45524332303a206d696e7420746f20746865207a65726f206164647265737300604482015290519081900360640190fd5b610c7f60008383610dfa565b600354610c92908263ffffffff610bb716565b6003556001600160a01b038216600090815260016020526040902054610cbe908263ffffffff610bb716565b6001600160a01b0383166000818152600160209081526040808320949094558351858152935192939192600080516020610f3d8339815191529281900390910190a35050565b6001600160a01b038216610d495760405162461bcd60e51b8152600401808060200182810382526021815260200180610f5d6021913960400191505060405180910390fd5b610d5582600083610dfa565b610d9881604051806060016040528060228152602001610e65602291396001600160a01b038516600090815260016020526040902054919063ffffffff610b2016565b6001600160a01b038316600090815260016020526040902055600354610dc4908263ffffffff610dff16565b6003556040805182815290516000916001600160a01b03851691600080516020610f3d8339815191529181900360200190a35050565b505050565b6000610c1183836040518060400160405280601e81526020017f536166654d6174683a207375627472616374696f6e206f766572666c6f770000815250610b2056fe45524332303a207472616e7366657220746f20746865207a65726f206164647265737345524332303a206275726e20616d6f756e7420657863656564732062616c616e63654f776e61626c653a206e6577206f776e657220697320746865207a65726f206164647265737345524332303a20617070726f766520746f20746865207a65726f206164647265737345524332303a207472616e7366657220616d6f756e7420657863656564732062616c616e636545524332303a207472616e7366657220616d6f756e74206578636565647320616c6c6f77616e63654f776e61626c653a2063616c6c6572206973206e6f7420746865206f776e6572ddf252ad1be2c89b69c2b068fc378daa952ba7f163c4a11628f55a4df523b3ef45524332303a206275726e2066726f6d20746865207a65726f206164647265737345524332303a207472616e736665722066726f6d20746865207a65726f206164647265737345524332303a20617070726f76652066726f6d20746865207a65726f206164647265737345524332303a2064656372656173656420616c6c6f77616e63652062656c6f77207a65726fa264697066735822122067edf00390d60381068f60b2bc6496208b663fac9797b87e7e1b14d68f73aa0b64736f6c63430006060033",
  "immutableReferences": {},
  "source": "pragma solidity ^0.6.2;\n\nimport \"openzeppelin-solidity/contracts/access/Ownable.sol\";\nimport \"openzeppelin-solidity/contracts/token/ERC20/ERC20.sol\";\n\n////////////////////////////////////////////////////////////////////////////////////////////\n/// @title FakewETH\n/// @author Christopher Dixon\n////////////////////////////////////////////////////////////////////////////////////////////\n/**\n@notice the FakewETH contract is used to simulate an ERC20 with uniswap on kovan\n**/\ncontract FakewETH is Ownable, ERC20 {\n    constructor() public ERC20(\"Warapped Ethereum\", \"wETH\") {\n        _Mint(msg.sender, 1000000000000000000000000000);\n        _Mint(\n            0x84166f7C1C8BB78C6553556bBa3433fe2eB5ED26,\n            1000000000000000000000000000\n        );\n        _Mint(\n            0x09AF8e15eB40A53265e3FD71897189B363B70530,\n            1000000000000000000000000000\n        );\n        _Mint(\n            0xCAA6b1207bBE1393e6F039c0f91018Bf860C885e,\n            1000000000000000000000000000\n        );\n    }\n\n    function _Mint(address _to, uint256 _amount) public onlyOwner {\n        _mint(_to, _amount);\n    }\n\n    function _Burn(address _from, uint256 _amount) public onlyOwner {\n        _burn(_from, _amount);\n    }\n}\n",
  "sourcePath": "/home/memec/code/askolend/AskoLend-contracts/contracts/FakeTokens/FakewETH.sol",
  "compiler": {
    "name": "solc",
    "version": "0.6.6+commit.6c089d02.Emscripten.clang"
  },
  "schemaVersion": "3.3.2",
  "updatedAt": "2020-12-12T01:26:53.389Z",
  "networkType": "ethereum",
  "devdoc": {
    "methods": {
      "allowance(address,address)": {
        "details": "See {IERC20-allowance}."
      },
      "approve(address,uint256)": {
        "details": "See {IERC20-approve}.     * Requirements:     * - `spender` cannot be the zero address."
      },
      "balanceOf(address)": {
        "details": "See {IERC20-balanceOf}."
      },
      "decimals()": {
        "details": "Returns the number of decimals used to get its user representation. For example, if `decimals` equals `2`, a balance of `505` tokens should be displayed to a user as `5,05` (`505 / 10 ** 2`).     * Tokens usually opt for a value of 18, imitating the relationship between Ether and Wei. This is the value {ERC20} uses, unless {_setupDecimals} is called.     * NOTE: This information is only used for _display_ purposes: it in no way affects any of the arithmetic of the contract, including {IERC20-balanceOf} and {IERC20-transfer}."
      },
      "decreaseAllowance(address,uint256)": {
        "details": "Atomically decreases the allowance granted to `spender` by the caller.     * This is an alternative to {approve} that can be used as a mitigation for problems described in {IERC20-approve}.     * Emits an {Approval} event indicating the updated allowance.     * Requirements:     * - `spender` cannot be the zero address. - `spender` must have allowance for the caller of at least `subtractedValue`."
      },
      "increaseAllowance(address,uint256)": {
        "details": "Atomically increases the allowance granted to `spender` by the caller.     * This is an alternative to {approve} that can be used as a mitigation for problems described in {IERC20-approve}.     * Emits an {Approval} event indicating the updated allowance.     * Requirements:     * - `spender` cannot be the zero address."
      },
      "name()": {
        "details": "Returns the name of the token."
      },
      "owner()": {
        "details": "Returns the address of the current owner."
      },
      "renounceOwnership()": {
        "details": "Leaves the contract without owner. It will not be possible to call `onlyOwner` functions anymore. Can only be called by the current owner.     * NOTE: Renouncing ownership will leave the contract without an owner, thereby removing any functionality that is only available to the owner."
      },
      "symbol()": {
        "details": "Returns the symbol of the token, usually a shorter version of the name."
      },
      "totalSupply()": {
        "details": "See {IERC20-totalSupply}."
      },
      "transfer(address,uint256)": {
        "details": "See {IERC20-transfer}.     * Requirements:     * - `recipient` cannot be the zero address. - the caller must have a balance of at least `amount`."
      },
      "transferFrom(address,address,uint256)": {
        "details": "See {IERC20-transferFrom}.     * Emits an {Approval} event indicating the updated allowance. This is not required by the EIP. See the note at the beginning of {ERC20}.     * Requirements:     * - `sender` and `recipient` cannot be the zero address. - `sender` must have a balance of at least `amount`. - the caller must have allowance for ``sender``'s tokens of at least `amount`."
      },
      "transferOwnership(address)": {
        "details": "Transfers ownership of the contract to a new account (`newOwner`). Can only be called by the current owner."
      }
    }
  },
  "userdoc": {
    "methods": {},
    "notice": "the FakewETH contract is used to simulate an ERC20 with uniswap on kovan*"
  }
}