{
  "contractName": "MoneyMarketInstance",
  "abi": [
    {
      "inputs": [
        {
          "internalType": "address",
          "name": "_assetContractAdd",
          "type": "address"
        },
        {
          "internalType": "address",
          "name": "_oracleFactory",
          "type": "address"
        },
        {
          "internalType": "address",
          "name": "_owner",
          "type": "address"
        },
        {
          "internalType": "address",
          "name": "_ARTF",
          "type": "address"
        },
        {
          "internalType": "string",
          "name": "_assetName",
          "type": "string"
        },
        {
          "internalType": "string",
          "name": "_assetSymbol",
          "type": "string"
        }
      ],
      "stateMutability": "nonpayable",
      "type": "constructor"
    },
    {
      "anonymous": false,
      "inputs": [
        {
          "indexed": false,
          "internalType": "address",
          "name": "borrower",
          "type": "address"
        },
        {
          "indexed": false,
          "internalType": "uint256",
          "name": "AHRamount",
          "type": "uint256"
        },
        {
          "indexed": false,
          "internalType": "uint256",
          "name": "ALRamount",
          "type": "uint256"
        }
      ],
      "name": "Borrow",
      "type": "event"
    },
    {
      "anonymous": false,
      "inputs": [
        {
          "indexed": false,
          "internalType": "address",
          "name": "collateralizer",
          "type": "address"
        },
        {
          "indexed": false,
          "internalType": "uint256",
          "name": "amount",
          "type": "uint256"
        }
      ],
      "name": "Collateralized",
      "type": "event"
    },
    {
      "anonymous": false,
      "inputs": [
        {
          "indexed": false,
          "internalType": "address",
          "name": "lender",
          "type": "address"
        },
        {
          "indexed": false,
          "internalType": "uint256",
          "name": "amount",
          "type": "uint256"
        }
      ],
      "name": "LentToAHR",
      "type": "event"
    },
    {
      "anonymous": false,
      "inputs": [
        {
          "indexed": false,
          "internalType": "address",
          "name": "lender",
          "type": "address"
        },
        {
          "indexed": false,
          "internalType": "uint256",
          "name": "amount",
          "type": "uint256"
        }
      ],
      "name": "LentToALR",
      "type": "event"
    },
    {
      "anonymous": false,
      "inputs": [
        {
          "indexed": true,
          "internalType": "address",
          "name": "previousOwner",
          "type": "address"
        },
        {
          "indexed": true,
          "internalType": "address",
          "name": "newOwner",
          "type": "address"
        }
      ],
      "name": "OwnershipTransferred",
      "type": "event"
    },
    {
      "anonymous": false,
      "inputs": [
        {
          "indexed": false,
          "internalType": "address",
          "name": "borrower",
          "type": "address"
        },
        {
          "indexed": false,
          "internalType": "uint256",
          "name": "AHRamount",
          "type": "uint256"
        },
        {
          "indexed": false,
          "internalType": "uint256",
          "name": "ALRamount",
          "type": "uint256"
        }
      ],
      "name": "Repayed",
      "type": "event"
    },
    {
      "inputs": [],
      "name": "AHR",
      "outputs": [
        {
          "internalType": "contract AskoRiskTokenI",
          "name": "",
          "type": "address"
        }
      ],
      "stateMutability": "view",
      "type": "function"
    },
    {
      "inputs": [],
      "name": "ALR",
      "outputs": [
        {
          "internalType": "contract AskoRiskTokenI",
          "name": "",
          "type": "address"
        }
      ],
      "stateMutability": "view",
      "type": "function"
    },
    {
      "inputs": [],
      "name": "ARTF",
      "outputs": [
        {
          "internalType": "contract ARTFactoryI",
          "name": "",
          "type": "address"
        }
      ],
      "stateMutability": "view",
      "type": "function"
    },
    {
      "inputs": [],
      "name": "MMF",
      "outputs": [
        {
          "internalType": "contract MoneyMarketFactoryI",
          "name": "",
          "type": "address"
        }
      ],
      "stateMutability": "view",
      "type": "function"
    },
    {
      "inputs": [],
      "name": "UOF",
      "outputs": [
        {
          "internalType": "contract UniswapOracleFactoryI",
          "name": "",
          "type": "address"
        }
      ],
      "stateMutability": "view",
      "type": "function"
    },
    {
      "inputs": [],
      "name": "ahr",
      "outputs": [
        {
          "internalType": "address",
          "name": "",
          "type": "address"
        }
      ],
      "stateMutability": "view",
      "type": "function"
    },
    {
      "inputs": [],
      "name": "alr",
      "outputs": [
        {
          "internalType": "address",
          "name": "",
          "type": "address"
        }
      ],
      "stateMutability": "view",
      "type": "function"
    },
    {
      "inputs": [],
      "name": "asset",
      "outputs": [
        {
          "internalType": "contract IERC20",
          "name": "",
          "type": "address"
        }
      ],
      "stateMutability": "view",
      "type": "function"
    },
    {
      "inputs": [],
      "name": "assetName",
      "outputs": [
        {
          "internalType": "string",
          "name": "",
          "type": "string"
        }
      ],
      "stateMutability": "view",
      "type": "function"
    },
    {
      "inputs": [],
      "name": "assetSymbol",
      "outputs": [
        {
          "internalType": "string",
          "name": "",
          "type": "string"
        }
      ],
      "stateMutability": "view",
      "type": "function"
    },
    {
      "inputs": [],
      "name": "divisor",
      "outputs": [
        {
          "internalType": "uint256",
          "name": "",
          "type": "uint256"
        }
      ],
      "stateMutability": "view",
      "type": "function"
    },
    {
      "inputs": [],
      "name": "fee_AHR",
      "outputs": [
        {
          "internalType": "uint256",
          "name": "",
          "type": "uint256"
        }
      ],
      "stateMutability": "view",
      "type": "function"
    },
    {
      "inputs": [],
      "name": "fee_ALR",
      "outputs": [
        {
          "internalType": "uint256",
          "name": "",
          "type": "uint256"
        }
      ],
      "stateMutability": "view",
      "type": "function"
    },
    {
      "inputs": [],
      "name": "owner",
      "outputs": [
        {
          "internalType": "address",
          "name": "",
          "type": "address"
        }
      ],
      "stateMutability": "view",
      "type": "function"
    },
    {
      "inputs": [],
      "name": "renounceOwnership",
      "outputs": [],
      "stateMutability": "nonpayable",
      "type": "function"
    },
    {
      "inputs": [
        {
          "internalType": "address",
          "name": "newOwner",
          "type": "address"
        }
      ],
      "name": "transferOwnership",
      "outputs": [],
      "stateMutability": "nonpayable",
      "type": "function"
    },
    {
      "inputs": [
        {
          "internalType": "address",
          "name": "_InterestRateModel",
          "type": "address"
        },
        {
          "internalType": "uint256",
          "name": "_fee",
          "type": "uint256"
        },
        {
          "internalType": "uint256",
          "name": "_initialExchangeRate",
          "type": "uint256"
        }
      ],
      "name": "_setUpAHR",
      "outputs": [],
      "stateMutability": "nonpayable",
      "type": "function"
    },
    {
      "inputs": [
        {
          "internalType": "address",
          "name": "_InterestRateModel",
          "type": "address"
        },
        {
          "internalType": "uint256",
          "name": "_fee",
          "type": "uint256"
        },
        {
          "internalType": "uint256",
          "name": "_initialExchangeRate",
          "type": "uint256"
        }
      ],
      "name": "_setUpALR",
      "outputs": [],
      "stateMutability": "nonpayable",
      "type": "function"
    },
    {
      "inputs": [],
      "name": "getAssetAdd",
      "outputs": [
        {
          "internalType": "address",
          "name": "",
          "type": "address"
        }
      ],
      "stateMutability": "view",
      "type": "function"
    },
    {
      "inputs": [
        {
          "internalType": "address",
          "name": "_account",
          "type": "address"
        }
      ],
      "name": "viewLockedCollateralizedALR",
      "outputs": [
        {
          "internalType": "uint256",
          "name": "",
          "type": "uint256"
        }
      ],
      "stateMutability": "view",
      "type": "function"
    },
    {
      "inputs": [
        {
          "internalType": "uint256",
          "name": "_fee",
          "type": "uint256"
        }
      ],
      "name": "setFeeAHR",
      "outputs": [],
      "stateMutability": "nonpayable",
      "type": "function"
    },
    {
      "inputs": [
        {
          "internalType": "uint256",
          "name": "_fee",
          "type": "uint256"
        }
      ],
      "name": "setFeeALR",
      "outputs": [],
      "stateMutability": "nonpayable",
      "type": "function"
    },
    {
      "inputs": [
        {
          "internalType": "uint256",
          "name": "_payedAmount",
          "type": "uint256"
        },
        {
          "internalType": "uint256",
          "name": "_feePercent",
          "type": "uint256"
        }
      ],
      "name": "calculateFee",
      "outputs": [
        {
          "internalType": "uint256",
          "name": "",
          "type": "uint256"
        }
      ],
      "stateMutability": "view",
      "type": "function"
    },
    {
      "inputs": [
        {
          "internalType": "uint256",
          "name": "_amount",
          "type": "uint256"
        }
      ],
      "name": "lendToAHRpool",
      "outputs": [],
      "stateMutability": "nonpayable",
      "type": "function"
    },
    {
      "inputs": [
        {
          "internalType": "uint256",
          "name": "_amount",
          "type": "uint256"
        }
      ],
      "name": "lendToALRpool",
      "outputs": [],
      "stateMutability": "nonpayable",
      "type": "function"
    },
    {
      "inputs": [
        {
          "internalType": "uint256",
          "name": "_amount",
          "type": "uint256"
        },
        {
          "internalType": "address",
          "name": "_collateral",
          "type": "address"
        }
      ],
      "name": "borrow",
      "outputs": [],
      "stateMutability": "nonpayable",
      "type": "function"
    },
    {
      "inputs": [
        {
          "internalType": "uint256",
          "name": "_repayAmount",
          "type": "uint256"
        }
      ],
      "name": "repay",
      "outputs": [],
      "stateMutability": "nonpayable",
      "type": "function"
    },
    {
      "inputs": [
        {
          "internalType": "address",
          "name": "_borrower",
          "type": "address"
        },
        {
          "internalType": "contract AskoRiskTokenI",
          "name": "_ARTcollateralized",
          "type": "address"
        }
      ],
      "name": "liquidateAccount",
      "outputs": [],
      "stateMutability": "nonpayable",
      "type": "function"
    },
    {
      "inputs": [
        {
          "internalType": "address",
          "name": "_inQuestion",
          "type": "address"
        }
      ],
      "name": "checkIfALR",
      "outputs": [
        {
          "internalType": "bool",
          "name": "",
          "type": "bool"
        }
      ],
      "stateMutability": "view",
      "type": "function"
    }
  ],
  "bytecode": "0x60806040523480156200001157600080fd5b50604051620030eb380380620030eb833981810160405260c08110156200003757600080fd5b81516020830151604080850151606086015160808701805193519597949692959194919392820192846401000000008211156200007357600080fd5b9083019060208201858111156200008957600080fd5b8251640100000000811182820188101715620000a457600080fd5b82525081516020918201929091019080838360005b83811015620000d3578181015183820152602001620000b9565b50505050905090810190601f168015620001015780820380516001836020036101000a031916815260200191505b50604052602001805160405193929190846401000000008211156200012557600080fd5b9083019060208201858111156200013b57600080fd5b82516401000000008111828201881017156200015657600080fd5b82525081516020918201929091019080838360005b83811015620001855781810151838201526020016200016b565b50505050905090810190601f168015620001b35780820380516001836020036101000a031916815260200191505b506040525050506000620001cc620002a060201b60201c565b600080546001600160a01b0319166001600160a01b0383169081178255604051929350917f8be0079c531659141344cd1fd0a4f28419497f9722a3daafe3b4186f6b6457e0908290a350612710600155815162000231906006906020850190620002a5565b50805162000247906007906020840190620002a5565b5050600c80546001600160a01b03199081166001600160a01b0396871617909155600b80548216948616949094179093555060088054831694841694909417909355600d80549091169290911691909117905562000347565b335b90565b828054600181600116156101000203166002900490600052602060002090601f016020900481019282601f10620002e857805160ff191683800117855562000318565b8280016001018555821562000318579182015b8281111562000318578251825591602001919060010190620002fb565b50620003269291506200032a565b5090565b620002a291905b8082111562000326576000815560010162000331565b612d9480620003576000396000f3fe608060405234801561001057600080fd5b506004361061018f5760003560e01c806367612843116100e4578063c27d4df311610092578063c27d4df314610414578063c9230c5d1461041c578063cf0aea8514610424578063d162054a14610441578063dcc716bd14610449578063f2130c701461047b578063f2fde38b14610483578063f9828b4f146104a95761018f565b806367612843146103515780636c713a151461038b578063715018a6146103a85780637d1fc742146103b05780638da5cb5b146103d65780639241cef2146103de578063ac979028146103e65761018f565b806334e731221161014157806334e73122146102b0578063371fd8e6146102d357806338d52e0f146102f0578063460bb650146102f85780634b3fd148146103005780634c20ac741461032c578063551f8b01146103345761018f565b8063045de1f81461019457806311e2c02f146101b8578063176de7a8146101c05780631dda07801461023d5780631f2dc5ef146102455780631f432cf51461025f57806322b2d40214610293575b600080fd5b61019c6104b1565b604080516001600160a01b039092168252519081900360200190f35b61019c6104c0565b6101c86104cf565b6040805160208082528351818301528351919283929083019185019080838360005b838110156102025781810151838201526020016101ea565b50505050905090810190601f16801561022f5780820380516001836020036101000a031916815260200191505b509250505060405180910390f35b61019c61055d565b61024d61056c565b60408051918252519081900360200190f35b6102916004803603606081101561027557600080fd5b506001600160a01b038135169060208101359060400135610572565b005b610291600480360360208110156102a957600080fd5b50356109b5565b61024d600480360360408110156102c657600080fd5b5080359060200135610ae9565b610291600480360360208110156102e957600080fd5b5035610b1b565b61019c611554565b61019c611563565b6102916004803603604081101561031657600080fd5b50803590602001356001600160a01b0316611572565b61019c611b34565b6102916004803603602081101561034a57600080fd5b5035611b43565b6103776004803603602081101561036757600080fd5b50356001600160a01b0316611ba0565b604080519115158252519081900360200190f35b610291600480360360208110156103a157600080fd5b5035611c23565b610291611c80565b61024d600480360360208110156103c657600080fd5b50356001600160a01b0316611d22565b61019c611d3d565b61019c611d4c565b610291600480360360408110156103fc57600080fd5b506001600160a01b0381358116916020013516611d5b565b61019c612359565b6101c8612368565b6102916004803603602081101561043a57600080fd5b50356123c3565b61019c6124f7565b6102916004803603606081101561045f57600080fd5b506001600160a01b038135169060208101359060400135612506565b61024d612949565b6102916004803603602081101561049957600080fd5b50356001600160a01b031661294f565b61024d612a47565b6005546001600160a01b031681565b600c546001600160a01b031681565b6007805460408051602060026001851615610100026000190190941693909304601f810184900484028201840190925281815292918301828280156105555780601f1061052a57610100808354040283529160200191610555565b820191906000526020600020905b81548152906001019060200180831161053857829003601f168201915b505050505081565b600d546001600160a01b031681565b60015481565b600b546001600160a01b0316331461058957600080fd5b60038290556040805163416c522d60e01b60208083019190915282518083036004018152602483019093528251839260069260449091019182918501908083835b602083106105e95780518252601f1990920191602091820191016105ca565b6001836020036101000a038019825116818451168082178552505050505050905001828054600181600116156101000203166002900480156106625780601f10610640576101008083540402835291820191610662565b820191906000526020600020905b81548152906001019060200180831161064e575b50509250505060405160208183030381529060405290506060604051602001808063416c522d60e01b815250600401905060405160208183030381529060405290508060076040516020018083805190602001908083835b602083106106d95780518252601f1990920191602091820191016106ba565b6001836020036101000a038019825116818451168082178552505050505050905001828054600181600116156101000203166002900480156107525780601f10610730576101008083540402835291820191610752565b820191906000526020600020905b81548152906001019060200180831161073e575b505092505050604051602081830303815290604052905060608290506060829050600d60009054906101000a90046001600160a01b03166001600160a01b0316634f84a10088600860009054906101000a90046001600160a01b0316600c60009054906101000a90046001600160a01b0316600b60009054906101000a90046001600160a01b0316878760018d6040518963ffffffff1660e01b815260040180896001600160a01b03166001600160a01b03168152602001886001600160a01b03166001600160a01b03168152602001876001600160a01b03166001600160a01b03168152602001866001600160a01b03166001600160a01b03168152602001806020018060200185151515158152602001848152602001838103835287818151815260200191508051906020019080838360005b8381101561089f578181015183820152602001610887565b50505050905090810190601f1680156108cc5780820380516001836020036101000a031916815260200191505b50838103825286518152865160209182019188019080838360005b838110156108ff5781810151838201526020016108e7565b50505050905090810190601f16801561092c5780820380516001836020036101000a031916815260200191505b509a5050505050505050505050602060405180830381600087803b15801561095357600080fd5b505af1158015610967573d6000803e3d6000fd5b505050506040513d602081101561097d57600080fd5b5051600a80546001600160a01b03199081166001600160a01b0393841617918290556005805492909316911617905550505050505050565b600854600a54604080516323b872dd60e01b81523360048201526001600160a01b03928316602482015260448101859052905191909216916323b872dd9160648083019260209291908290030181600087803b158015610a1457600080fd5b505af1158015610a28573d6000803e3d6000fd5b505050506040513d6020811015610a3e57600080fd5b5050600a54604080516340c10f1960e01b81523360048201526024810184905290516001600160a01b03909216916340c10f199160448082019260009290919082900301818387803b158015610a9357600080fd5b505af1158015610aa7573d6000803e3d6000fd5b5050604080513381526020810185905281517f7328ca2a2e824164ca6ec3121966d63601356d01901d9a5d2ee466cb726d1e3c9450908190039091019150a150565b600080610b11600154610b058587612a4d90919063ffffffff16565b9063ffffffff612aad16565b9150505b92915050565b600a54604080516305eff7ef60e21b815233600482015290516000926001600160a01b0316916317bfdfbc91602480830192602092919082900301818787803b158015610b6757600080fd5b505af1158015610b7b573d6000803e3d6000fd5b505050506040513d6020811015610b9157600080fd5b5051600954604080516305eff7ef60e21b815233600482015290519293506000926001600160a01b03909216916317bfdfbc9160248082019260209290919082900301818787803b158015610be557600080fd5b505af1158015610bf9573d6000803e3d6000fd5b505050506040513d6020811015610c0f57600080fd5b505190506000610c25838363ffffffff612aef16565b905080841115610c70576040805162461bcd60e51b81526020600482015260116024820152700a4cae0c2f2d2dcce40e8dede40daeac6d607b1b604482015290519081900360640190fd5b60008085610ece578415610d8c57600854600a54604080516323b872dd60e01b81523360048201526001600160a01b03928316602482015260448101899052905191909216916323b872dd9160648083019260209291908290030181600087803b158015610cdd57600080fd5b505af1158015610cf1573d6000803e3d6000fd5b505050506040513d6020811015610d0757600080fd5b5050600a54604080516369a5e8cf60e01b81526004810188905233602482015290516001600160a01b03909216916369a5e8cf916044808201926020929091908290030181600087803b158015610d5d57600080fd5b505af1158015610d71573d6000803e3d6000fd5b505050506040513d6020811015610d8757600080fd5b505190505b600854600954604080516323b872dd60e01b81523360048201526001600160a01b03928316602482015260448101889052905191909216916323b872dd9160648083019260209291908290030181600087803b158015610deb57600080fd5b505af1158015610dff573d6000803e3d6000fd5b505050506040513d6020811015610e1557600080fd5b5050600954604080516369a5e8cf60e01b81526004810187905233602482015290516001600160a01b03909216916369a5e8cf916044808201926020929091908290030181600087803b158015610e6b57600080fd5b505af1158015610e7f573d6000803e3d6000fd5b505050506040513d6020811015610e9557600080fd5b505160408051338152602081018790528082018890529051919350600080516020612d3f833981519152919081900360600190a16113c3565b84156112855785851061101d57600854600a54604080516323b872dd60e01b81523360048201526001600160a01b039283166024820152604481018a9052905191909216916323b872dd9160648083019260209291908290030181600087803b158015610f3a57600080fd5b505af1158015610f4e573d6000803e3d6000fd5b505050506040513d6020811015610f6457600080fd5b5050600a54604080516369a5e8cf60e01b81526004810189905233602482015290516001600160a01b03909216916369a5e8cf916044808201926020929091908290030181600087803b158015610fba57600080fd5b505af1158015610fce573d6000803e3d6000fd5b505050506040513d6020811015610fe457600080fd5b505160408051338152600060208201528082018990529051919250600080516020612d3f833981519152919081900360600190a1611280565b600061102f878763ffffffff612b4916565b600854600a54604080516323b872dd60e01b81523360048201526001600160a01b039283166024820152604481018b905290519394509116916323b872dd916064808201926020929091908290030181600087803b15801561109057600080fd5b505af11580156110a4573d6000803e3d6000fd5b505050506040513d60208110156110ba57600080fd5b5050600a54604080516369a5e8cf60e01b815260006004820181905233602483015291516001600160a01b03909316926369a5e8cf92604480840193602093929083900390910190829087803b15801561111357600080fd5b505af1158015611127573d6000803e3d6000fd5b505050506040513d602081101561113d57600080fd5b5051600854600954604080516323b872dd60e01b81523360048201526001600160a01b0392831660248201526044810186905290519395509116916323b872dd916064808201926020929091908290030181600087803b1580156111a057600080fd5b505af11580156111b4573d6000803e3d6000fd5b505050506040513d60208110156111ca57600080fd5b5050600954604080516369a5e8cf60e01b81526004810184905233602482015290516001600160a01b03909216916369a5e8cf916044808201926020929091908290030181600087803b15801561122057600080fd5b505af1158015611234573d6000803e3d6000fd5b505050506040513d602081101561124a57600080fd5b505160408051338152602081018390528082018590529051919450600080516020612d3f833981519152919081900360600190a1505b6113c3565b600854600954604080516323b872dd60e01b81523360048201526001600160a01b03928316602482015260448101869052905191909216916323b872dd9160648083019260209291908290030181600087803b1580156112e457600080fd5b505af11580156112f8573d6000803e3d6000fd5b505050506040513d602081101561130e57600080fd5b5050600954604080516369a5e8cf60e01b81526004810189905233602482015290516001600160a01b03909216916369a5e8cf916044808201926020929091908290030181600087803b15801561136457600080fd5b505af1158015611378573d6000803e3d6000fd5b505050506040513d602081101561138e57600080fd5b505160408051338152602081018390526000818301529051919350600080516020612d3f833981519152919081900360600190a15b6000866113d15750826113d4565b50855b600c546008546040805163513396f760e11b81526001600160a01b039283166004820152602481018590529051600093929092169163a2672dee9160448082019260209290919082900301818787803b15801561143057600080fd5b505af1158015611444573d6000803e3d6000fd5b505050506040513d602081101561145a57600080fd5b5051600b54336000818152600f6020526040808220548151636a8394ad60e01b815260048101949094526001600160a01b03908116602485015260448401869052905194955090921692636a8394ad9260648084019391929182900301818387803b1580156114c857600080fd5b505af11580156114dc573d6000803e3d6000fd5b505050506114f38487612b4990919063ffffffff16565b15801561150d575061150b878463ffffffff612b4916565b155b1561154a57336000908152600f6020908152604080832080546001600160a01b031916905560108252808320805460ff19169055600e9091528120555b5050505050505050565b6008546001600160a01b031681565b6004546001600160a01b031681565b336000908152600f60205260409020546001600160a01b03828116911614806115ab57503360009081526010602052604090205460ff16155b6115f3576040805162461bcd60e51b815260206004820152601460248201527318dbdb1b185d195c985b081b9bdd081c9a59da1d60621b604482015290519081900360640190fd5b6115fb612c8b565b600954604080516305eff7ef60e21b815233600482015290516001600160a01b03909216916317bfdfbc916024808201926020929091908290030181600087803b15801561164857600080fd5b505af115801561165c573d6000803e3d6000fd5b505050506040513d602081101561167257600080fd5b50518152600a54604080516305eff7ef60e21b815233600482015290516001600160a01b03909216916317bfdfbc916024808201926020929091908290030181600087803b1580156116c357600080fd5b505af11580156116d7573d6000803e3d6000fd5b505050506040513d60208110156116ed57600080fd5b5051602082018190526117189061170a908563ffffffff612aef16565b82519063ffffffff612aef16565b6040808301829052600c54600854825163513396f760e11b81526001600160a01b0391821660048201526024810194909452915191169163a2672dee9160448083019260209291908290030181600087803b15801561177657600080fd5b505af115801561178a573d6000803e3d6000fd5b505050506040513d60208110156117a057600080fd5b50516080820152600c546008546040805163513396f760e11b81526001600160a01b039283166004820152602481018790529051919092169163a2672dee9160448083019260209291908290030181600087803b15801561180057600080fd5b505af1158015611814573d6000803e3d6000fd5b505050506040513d602081101561182a57600080fd5b505160a0820152600b5460408051636012b43160e01b81523360048201526001600160a01b03858116602483015291519190921691636012b4319160448083019260209291908290030181600087803b15801561188657600080fd5b505af115801561189a573d6000803e3d6000fd5b505050506040513d60208110156118b057600080fd5b5051606082015260808101516118cd90600263ffffffff612aad16565b60c0820181905260808201516118e89163ffffffff612aef16565b60e082018190526060820151101561193f576040805162461bcd60e51b81526020600482015260156024820152741b9bdd08195b9bdd59da0818dbdb1b185d195c985b605a1b604482015290519081900360640190fd5b600b5460a08201516040805163b3f643e760e01b81523360048201526001600160a01b03868116602483015260448201939093529051919092169163b3f643e791606480830192600092919082900301818387803b1580156119a057600080fd5b505af11580156119b4573d6000803e3d6000fd5b505050506119cc600284612aad90919063ffffffff16565b6101008201908152336000818152600f6020908152604080832080546001600160a01b0319166001600160a01b03898116919091179091556010909252808320805460ff1916600117905560095494518151630967fa2960e31b81526004810191909152602481019490945251931692634b3fd14892604480820193929182900301818387803b158015611a5f57600080fd5b505af1158015611a73573d6000803e3d6000fd5b5050600a5461010084015160408051630967fa2960e31b81526004810192909252336024830152516001600160a01b039092169350634b3fd148925060448082019260009290919082900301818387803b158015611ad057600080fd5b505af1158015611ae4573d6000803e3d6000fd5b505050610100820151604080513381526020810183905280820192909252517fe1979fe4c35e0cef342fef5668e2c8e7a7e9f5d5d1ca8fee0ac6c427fa4153af92509081900360600190a1505050565b6008546001600160a01b031690565b611b4b612b8b565b6000546001600160a01b03908116911614611b9b576040805162461bcd60e51b81526020600482018190526024820152600080516020612d1f833981519152604482015290519081900360640190fd5b600355565b600b5460408051630dc9cacd60e01b81526001600160a01b03848116600483015291516000939290921691630dc9cacd91602480820192602092909190829003018186803b158015611bf157600080fd5b505afa158015611c05573d6000803e3d6000fd5b505050506040513d6020811015611c1b57600080fd5b505192915050565b611c2b612b8b565b6000546001600160a01b03908116911614611c7b576040805162461bcd60e51b81526020600482018190526024820152600080516020612d1f833981519152604482015290519081900360640190fd5b600255565b611c88612b8b565b6000546001600160a01b03908116911614611cd8576040805162461bcd60e51b81526020600482018190526024820152600080516020612d1f833981519152604482015290519081900360640190fd5b600080546040516001600160a01b03909116907f8be0079c531659141344cd1fd0a4f28419497f9722a3daafe3b4186f6b6457e0908390a3600080546001600160a01b0319169055565b6001600160a01b03166000908152600e602052604090205490565b6000546001600160a01b031690565b6009546001600160a01b031681565b611d63612c8b565b336001600160a01b0384161415611dc1576040805162461bcd60e51b815260206004820152601b60248201527f796f752063616e74206c697175696461746520796f757273656c660000000000604482015290519081900360640190fd5b600a54604080516305eff7ef60e21b81526001600160a01b038681166004830152915160009392909216916317bfdfbc9160248082019260209290919082900301818787803b158015611e1357600080fd5b505af1158015611e27573d6000803e3d6000fd5b505050506040513d6020811015611e3d57600080fd5b5051600954604080516305eff7ef60e21b81526001600160a01b038881166004830152915193945060009391909216916317bfdfbc91602480830192602092919082900301818787803b158015611e9357600080fd5b505af1158015611ea7573d6000803e3d6000fd5b505050506040513d6020811015611ebd57600080fd5b505190506000611ed3838363ffffffff612aef16565b600c546008546040805163513396f760e11b81526001600160a01b03928316600482015260248101859052905193945091169163a2672dee916044808201926020929091908290030181600087803b158015611f2e57600080fd5b505af1158015611f42573d6000803e3d6000fd5b505050506040513d6020811015611f5857600080fd5b50516060850152600b5460408051636012b43160e01b81526001600160a01b038981166004830152888116602483015291519190921691636012b4319160448083019260209291908290030181600087803b158015611fb657600080fd5b505af1158015611fca573d6000803e3d6000fd5b505050506040513d6020811015611fe057600080fd5b505160a08501526060840151611ffd90600263ffffffff612aad16565b60c0850181905260608501516120189163ffffffff612aef16565b6080850181905260a0850151101561235157600854600a54604080516323b872dd60e01b81523360048201526001600160a01b03928316602482015260448101879052905191909216916323b872dd9160648083019260209291908290030181600087803b15801561208957600080fd5b505af115801561209d573d6000803e3d6000fd5b505050506040513d60208110156120b357600080fd5b5050600854600954604080516323b872dd60e01b81523360048201526001600160a01b03928316602482015260448101869052905191909216916323b872dd9160648083019260209291908290030181600087803b15801561211457600080fd5b505af1158015612128573d6000803e3d6000fd5b505050506040513d602081101561213e57600080fd5b5050600b54606085015160408051632bb0df2360e01b815260048101929092526001600160a01b03898116602484015233604484015288811660648401529051921691632bb0df239160848082019260009290919082900301818387803b1580156121a857600080fd5b505af11580156121bc573d6000803e3d6000fd5b5050600a54604080516369a5e8cf60e01b81526000600482018190526001600160a01b038c8116602484015292519290931694506369a5e8cf93506044808201936020939283900390910190829087803b15801561221957600080fd5b505af115801561222d573d6000803e3d6000fd5b505050506040513d602081101561224357600080fd5b505160e0850152600954604080516369a5e8cf60e01b81526000600482018190526001600160a01b038a81166024840152925192909316926369a5e8cf926044808401936020939083900390910190829087803b1580156122a357600080fd5b505af11580156122b7573d6000803e3d6000fd5b505050506040513d60208110156122cd57600080fd5b5051610100850152600b54606085015160408051636a8394ad60e01b81526001600160a01b038a811660048301528981166024830152604482019390935290519190921691636a8394ad91606480830192600092919082900301818387803b15801561233857600080fd5b505af115801561234c573d6000803e3d6000fd5b505050505b505050505050565b600a546001600160a01b031681565b6006805460408051602060026001851615610100026000190190941693909304601f810184900484028201840190925281815292918301828280156105555780601f1061052a57610100808354040283529160200191610555565b600854600954604080516323b872dd60e01b81523360048201526001600160a01b03928316602482015260448101859052905191909216916323b872dd9160648083019260209291908290030181600087803b15801561242257600080fd5b505af1158015612436573d6000803e3d6000fd5b505050506040513d602081101561244c57600080fd5b5050600954604080516340c10f1960e01b81523360048201526024810184905290516001600160a01b03909216916340c10f199160448082019260009290919082900301818387803b1580156124a157600080fd5b505af11580156124b5573d6000803e3d6000fd5b5050604080513381526020810185905281517f0f82438f3b5c78264c4b6dce428942fd963308db5c690635d87bc654cb811d339450908190039091019150a150565b600b546001600160a01b031681565b600b546001600160a01b0316331461251d57600080fd5b600282905560408051634148522d60e01b60208083019190915282518083036004018152602483019093528251839260069260449091019182918501908083835b6020831061257d5780518252601f19909201916020918201910161255e565b6001836020036101000a038019825116818451168082178552505050505050905001828054600181600116156101000203166002900480156125f65780601f106125d45761010080835404028352918201916125f6565b820191906000526020600020905b8154815290600101906020018083116125e2575b505092505050604051602081830303815290604052905060606040516020018080634148522d60e01b815250600401905060405160208183030381529060405290508060076040516020018083805190602001908083835b6020831061266d5780518252601f19909201916020918201910161264e565b6001836020036101000a038019825116818451168082178552505050505050905001828054600181600116156101000203166002900480156126e65780601f106126c45761010080835404028352918201916126e6565b820191906000526020600020905b8154815290600101906020018083116126d2575b505092505050604051602081830303815290604052905060608290506060829050600d60009054906101000a90046001600160a01b03166001600160a01b0316634f84a10088600860009054906101000a90046001600160a01b0316600c60009054906101000a90046001600160a01b0316600b60009054906101000a90046001600160a01b0316878760008d6040518963ffffffff1660e01b815260040180896001600160a01b03166001600160a01b03168152602001886001600160a01b03166001600160a01b03168152602001876001600160a01b03166001600160a01b03168152602001866001600160a01b03166001600160a01b03168152602001806020018060200185151515158152602001848152602001838103835287818151815260200191508051906020019080838360005b8381101561283357818101518382015260200161281b565b50505050905090810190601f1680156128605780820380516001836020036101000a031916815260200191505b50838103825286518152865160209182019188019080838360005b8381101561289357818101518382015260200161287b565b50505050905090810190601f1680156128c05780820380516001836020036101000a031916815260200191505b509a5050505050505050505050602060405180830381600087803b1580156128e757600080fd5b505af11580156128fb573d6000803e3d6000fd5b505050506040513d602081101561291157600080fd5b5051600980546001600160a01b03199081166001600160a01b0393841617918290556004805492909316911617905550505050505050565b60025481565b612957612b8b565b6000546001600160a01b039081169116146129a7576040805162461bcd60e51b81526020600482018190526024820152600080516020612d1f833981519152604482015290519081900360640190fd5b6001600160a01b0381166129ec5760405162461bcd60e51b8152600401808060200182810382526026815260200180612cd86026913960400191505060405180910390fd5b600080546040516001600160a01b03808516939216917f8be0079c531659141344cd1fd0a4f28419497f9722a3daafe3b4186f6b6457e091a3600080546001600160a01b0319166001600160a01b0392909216919091179055565b60035481565b600082612a5c57506000610b15565b82820282848281612a6957fe5b0414612aa65760405162461bcd60e51b8152600401808060200182810382526021815260200180612cfe6021913960400191505060405180910390fd5b9392505050565b6000612aa683836040518060400160405280601a81526020017f536166654d6174683a206469766973696f6e206279207a65726f000000000000815250612b8f565b600082820183811015612aa6576040805162461bcd60e51b815260206004820152601b60248201527f536166654d6174683a206164646974696f6e206f766572666c6f770000000000604482015290519081900360640190fd5b6000612aa683836040518060400160405280601e81526020017f536166654d6174683a207375627472616374696f6e206f766572666c6f770000815250612c31565b3390565b60008183612c1b5760405162461bcd60e51b81526004018080602001828103825283818151815260200191508051906020019080838360005b83811015612be0578181015183820152602001612bc8565b50505050905090810190601f168015612c0d5780820380516001836020036101000a031916815260200191505b509250505060405180910390fd5b506000838581612c2757fe5b0495945050505050565b60008184841115612c835760405162461bcd60e51b8152602060048201818152835160248401528351909283926044909101919085019080838360008315612be0578181015183820152602001612bc8565b505050900390565b604051806101200160405280600081526020016000815260200160008152602001600081526020016000815260200160008152602001600081526020016000815260200160008152509056fe4f776e61626c653a206e6577206f776e657220697320746865207a65726f2061646472657373536166654d6174683a206d756c7469706c69636174696f6e206f766572666c6f774f776e61626c653a2063616c6c6572206973206e6f7420746865206f776e65722a6c148cdc9347a81dfbfe504afb64ea0aeca1114171ef18a3e11cb1fda8b3a6a2646970667358221220d6a7be07977c97728463bcd3ab980561453319e6ba5c715415ed28b3b1ab3e7164736f6c63430006060033",
  "immutableReferences": {},
  "source": "pragma solidity ^0.6.0;\n\nimport \"openzeppelin-solidity/contracts/access/Ownable.sol\";\nimport \"openzeppelin-solidity/contracts/math/SafeMath.sol\";\nimport \"openzeppelin-solidity/contracts/token/ERC20/IERC20.sol\";\nimport \"./compound/Exponential.sol\";\nimport \"./interfaces/UniswapOracleFactoryI.sol\";\nimport \"./interfaces/MoneyMarketFactoryI.sol\";\nimport \"./interfaces/AskoRiskTokenI.sol\";\nimport \"./interfaces/ARTFactoryI.sol\";\n\n////////////////////////////////////////////////////////////////////////////////////////////\n/// @title MoneyMarketInstance\n/// @author Christopher Dixon\n////////////////////////////////////////////////////////////////////////////////////////////\n/**\nThe MoneyMarketInstance contract is designed facilitate a tiered money market for an individual ERC20 asset\nThis contract uses the OpenZeppelin contract Library to inherit functions from\n  Ownable.sol && IRC20.sol\n**/\ncontract MoneyMarketInstance is Ownable, Exponential {\n    using SafeMath for uint256;\n\n    uint256 public divisor;\n    uint256 public fee_AHR;\n    uint256 public fee_ALR;\n    address public ahr;\n    address public alr;\n\n    string public assetName;\n    string public assetSymbol;\n\n    IERC20 public asset;\n    AskoRiskTokenI public AHR;\n    AskoRiskTokenI public ALR;\n    MoneyMarketFactoryI public MMF;\n    UniswapOracleFactoryI public UOF;\n    ARTFactoryI public ARTF;\n\n    mapping(address => uint256) lockedCollateral;\n    mapping(address => address) collateralLockedALR;\n    mapping(address => bool) cantCollateralize;\n    /**\n@notice onlyMMFactory is a modifier used to make a function only callable by the Money Market Factory contract\n**/\n    modifier onlyMMFactory() {\n        require(msg.sender == address(MMF));\n        _;\n    }\n\n    event LentToAHR(address lender, uint256 amount);\n    event LentToALR(address lender, uint256 amount);\n    event Borrow(address borrower, uint256 AHRamount, uint256 ALRamount);\n    event Repayed(address borrower, uint256 AHRamount, uint256 ALRamount);\n    event Collateralized(address collateralizer, uint256 amount);\n\n    /**\n@notice the constructor function is fired during the contract deployment process. The constructor can only be fired once and\n        is used to initialize the MoneyMakerInstance and deploy its associated AHR && ALR token contracts\n@param _assetContractAdd is the address of the ERC20 asset being whitelisted\n@param _assetName is the name of the asset(e.x: ChainLink)\n@param _assetSymbol is the symbol of the asset(e.x: LINK)\n@dev this function uses ABI encoding to properly concatenate AHR- && ALR- in front of the tokens name and symbol\n      before creating each token.\n**/\n    constructor(\n        address _assetContractAdd,\n        address _oracleFactory,\n        address _owner,\n        address _ARTF,\n        string memory _assetName,\n        string memory _assetSymbol\n    ) public {\n        divisor = 10000;\n        assetName = _assetName;\n        assetSymbol = _assetSymbol;\n        UOF = UniswapOracleFactoryI(_oracleFactory);\n        MMF = MoneyMarketFactoryI(_owner);\n        asset = IERC20(_assetContractAdd);\n        ARTF = ARTFactoryI(_ARTF);\n    }\n\n    /**\n@notice setUp is called by the MoneyMarketFactory after a contract is created to set up the initial variables.\n        This is split from the constructor function to keep from reaching the gas block limit\n@param  _InterestRateModel is the address of this MoneyMarketInstances InterestRateModel\n@param _fee is a number representing the fee for exchanging an AHR token, as a mantissa (scaled by 1e18)\n@dev this function will create a token whos name and symbol is concatenated with a \"AHR-\" in front of it\n      example: AHR-LINK\n@dev asset.approve() is called to allow the AHR contract to freeely transfer the assset from this contract when the mint\n      lendToAHRpool function is called.\n**/\n    function _setUpAHR(\n        address _InterestRateModel,\n        uint256 _fee,\n        uint256 _initialExchangeRate\n    ) public onlyMMFactory {\n        fee_AHR = _fee;\n        bytes memory ahrname = abi.encodePacked(\"AHR-\");\n        ahrname = abi.encodePacked(ahrname, assetName);\n        //abi encode and concat strings\n        bytes memory ahrsymbol = abi.encodePacked(\"AHR-\");\n        ahrsymbol = abi.encodePacked(ahrsymbol, assetSymbol);\n        //abi encode and concat strings\n        string memory assetNameAHR = string(ahrname);\n        string memory assetSymbolAHR = string(ahrsymbol);\n        //un-encode concated string\n        AHR = AskoRiskTokenI(\n            ARTF.createART( //creates new Asko High Risk Token Contract\n                _InterestRateModel,\n                address(asset),\n                address(UOF),\n                address(MMF),\n                assetNameAHR,\n                assetSymbolAHR,\n                false,\n                _initialExchangeRate\n            )\n        );\n        ahr = address(AHR);\n    }\n\n    /**\n@notice setUp is called by the MoneyMarketFactory after a contract is created to set up the initial variables.\n        This is split from the constructor function to keep from reaching the gas block limit\n@param  _InterestRateModel is the address of this MoneyMarketInstances InterestRateModel\n@param _fee is a number representing the fee for exchanging an ALR token, as a mantissa (scaled by 1e18)\n@dev this function will create a token whos name and symbol is concatenated with a \"ALR-\" in front of it\n      example: ALR-LINK\n@dev asset.approve() is called to allow the ALR contract to freeely transfer the assset from this contract when the mint\n      lendToALRpool function is called.\n**/\n    function _setUpALR(\n        address _InterestRateModel,\n        uint256 _fee,\n        uint256 _initialExchangeRate\n    ) public onlyMMFactory {\n        fee_ALR = _fee;\n        bytes memory alrname = abi.encodePacked(\"AlR-\");\n        alrname = abi.encodePacked(alrname, assetName);\n        //abi encode and concat strings\n        bytes memory alrsymbol = abi.encodePacked(\"AlR-\");\n        alrsymbol = abi.encodePacked(alrsymbol, assetSymbol);\n        //abi encode and concat strings\n        string memory assetNameALR = string(alrname);\n        string memory assetSymbolALR = string(alrsymbol);\n        //un-encode concated string\n        ALR = AskoRiskTokenI(\n            ARTF.createART( //creates new Asko High Risk Token Contract\n                _InterestRateModel,\n                address(asset),\n                address(UOF),\n                address(MMF),\n                assetNameALR,\n                assetSymbolALR,\n                true,\n                _initialExchangeRate\n            )\n        );\n        alr = address(ALR);\n    }\n\n    /**\n@notice getAssetAdd allows for easy retrieval of a Money Markets underlying asset's address\n**/\n    function getAssetAdd() public view returns (address) {\n        return address(asset);\n    }\n\n    function viewLockedCollateralizedALR(address _account)\n        public\n        view\n        returns (uint256)\n    {\n        return lockedCollateral[_account];\n    }\n\n    /**\n  @notice setFee allows the owner of this contract to set the fee\n  @param  _fee is the input number representing the fee\n  @dev the divisor is set to 10,000 in the constructor for this contract. this allows for\n        a fee percentage accounting for two decimal places. feePercent must account for this when being set.\n        The following examples show feePercent amounts and how they equate to percentages:\n                EX:\n                    a 1% fee would be set as feePercent = 100\n                    a .5% fee would be set as feePercent = 50\n                    a 50% fee would be set as feePercent = 5000\n  **/\n    function setFeeAHR(uint256 _fee) public onlyOwner {\n        fee_AHR = _fee;\n    }\n\n    /**\n  @notice setFee allows the owner of this contract to set the fee\n  @param  _fee is the input number representing the fee\n  @dev the divisor is set to 10,000 in the constructor for this contract. this allows for\n        a fee percentage accounting for two decimal places. feePercent must account for this when being set.\n        The following examples show feePercent amounts and how they equate to percentages:\n                EX:\n                    a 1% fee would be set as feePercent = 100\n                    a .5% fee would be set as feePercent = 50\n                    a 50% fee would be set as feePercent = 5000\n  **/\n    function setFeeALR(uint256 _fee) public onlyOwner {\n        fee_ALR = _fee;\n    }\n\n    /**\n  @notice calculateFee is used to calculate the fee earned\n  @param _payedAmount is a uint representing the full amount of an ERC20 asset payed\n  @dev the divisor is set to 10,000 in the constructor for this contract. this allows for\n        a fee percentage accounting for two decimal places. feePercent must account for this when being set.\n        The following examples show feePercent amounts and how they equate to percentages:\n                EX:\n                    a 1% fee would be set as feePercent = 100\n                    a .5% fee would be set as feePercent = 50\n                    a 50% fee would be set as feePercent = 5000\n  **/\n    function calculateFee(uint256 _payedAmount, uint256 _feePercent)\n        public\n        view\n        returns (uint256)\n    {\n        uint256 fee = _payedAmount.mul(_feePercent).div(divisor);\n        return fee;\n    }\n\n    /**\n@notice lendToAHRpool is used to lend assets to a MoneyMarketInstance's High Risk pool\n@param _amount is the amount of the asset being lent\n@dev the user will need to first approve the transfer of the underlying asset\n**/\n    function lendToAHRpool(uint256 _amount) public {\n        //transfer appropriate amount off the asset from msg.sender to the AHR contract\n        asset.transferFrom(msg.sender, address(AHR), _amount);\n        //call mint function on AHR contract\n        AHR.mint(msg.sender, _amount);\n        emit LentToAHR(msg.sender, _amount);\n    }\n\n    /**\n@notice lendToAHRpool is used to lend assets to a MoneyMarketInstance's Low Risk pool\n@param _amount is the amount of the asset being lent\n@dev the user will need to first approve the transfer of the underlying asset\n**/\n    function lendToALRpool(uint256 _amount) public {\n        //transfer appropriate amount off the asset from msg.sender to the AHR contract\n        asset.transferFrom(msg.sender, address(ALR), _amount);\n        //call mint function on ALR contract\n        ALR.mint(msg.sender, _amount);\n        emit LentToALR(msg.sender, _amount);\n    }\n\n    //struct used to avoid stack too deep errors\n    struct borrowVars {\n        uint256 borrowBalAHR;\n        uint256 borrowBalALR;\n        uint256 totalFutureAmountOwed;\n        uint256 availibleCollateralValue;\n        uint256 assetAmountValOwed;\n        uint256 amountValue; // Note: reverts on error\n        uint256 halfVal;\n        uint256 collateralNeeded;\n        uint256 half;\n    }\n\n    /**\n@notice borrow is used to take out a loan from in MoneyMarketInstance's underlying asset\n@param _amount is the amount of asset being barrowed\n@param _collateral is the address of the ALR token being used as collateral\n**/\n    function borrow(uint256 _amount, address _collateral) public {\n        //require that the collateral a user is looking to use is the same as the type they already have a loan in\n        //OR that their cantCollateralize mapping is false\n        require(\n            _collateral == collateralLockedALR[msg.sender] ||\n                cantCollateralize[msg.sender] == false,\n            \"collateral not right\"\n        );\n        borrowVars memory vars;\n        //check that the user has enough collateral in input money market\n        //this returns the USDC price of their asset\n\n        //get current borrow balances for each ART\n        vars.borrowBalAHR = AHR.borrowBalanceCurrent(msg.sender);\n        vars.borrowBalALR = ALR.borrowBalanceCurrent(msg.sender);\n        //calculate the new amount that would be owed if borrow suceeds\n        vars.totalFutureAmountOwed = vars.borrowBalAHR.add(\n            vars.borrowBalALR.add(_amount)\n        );\n        //check current asset USDC value of whats owed\n        vars.assetAmountValOwed = UOF.getUnderlyingPriceofAsset(\n            address(asset),\n            vars.totalFutureAmountOwed\n        );\n        //get USDC value of _amount\n        vars.amountValue = UOF.getUnderlyingPriceofAsset(\n            address(asset),\n            _amount\n        );\n        //get USDC value of availible collateral\n        vars.availibleCollateralValue = MMF.checkAvailibleCollateralValue(\n            msg.sender,\n            _collateral\n        );\n\n        //divide amount value by 3\n        vars.halfVal = vars.assetAmountValOwed.div(2);\n        //add 1/2 value to asset value to get 150% asset value\n        vars.collateralNeeded = vars.assetAmountValOwed.add(vars.halfVal);\n        //require collateral value to be greater than 150% of the amount value of loan\n        require(\n            vars.availibleCollateralValue >= vars.collateralNeeded,\n            \"not enough collateral\"\n        );\n        //track USDC value being locked for the loan\n        MMF.trackCollateralUp(msg.sender, _collateral, vars.amountValue);\n        //cut amount of tokens in half\n        vars.half = _amount.div(2);\n\n        //track which ALR is locked\n        collateralLockedALR[msg.sender] = _collateral;\n        cantCollateralize[msg.sender] = true;\n        //borrow half from each pool\n        AHR.borrow(vars.half, msg.sender);\n        ALR.borrow(vars.half, msg.sender);\n        emit Borrow(msg.sender, vars.half, vars.half);\n    }\n\n    /**\n@notice repay is used to repay a loan\n@param _repayAmount is the amount of the underlying asset being repayed\n**/\n    function repay(uint256 _repayAmount) public {\n        //get their current owed balance of ALR\n        uint256 accountBorrowsALR = ALR.borrowBalanceCurrent(msg.sender);\n        uint256 accountBorrowsAHR = AHR.borrowBalanceCurrent(msg.sender);\n        uint256 totalBorrows = accountBorrowsALR.add(accountBorrowsAHR);\n        require(_repayAmount <= totalBorrows, \"Repaying too much\");\n        uint256 payAmountAHR;\n        uint256 payAmountALR;\n\n        ///////////////repay all///////////////\n        if (_repayAmount == 0) {\n            if (accountBorrowsALR != 0) {\n                asset.transferFrom(msg.sender, address(ALR), accountBorrowsALR);\n                payAmountALR = ALR.repayBorrow(accountBorrowsALR, msg.sender); // repay amount to ALR\n            }\n            asset.transferFrom(msg.sender, address(AHR), accountBorrowsAHR);\n            payAmountAHR = AHR.repayBorrow(accountBorrowsAHR, msg.sender); //pay off towards AHR\n            emit Repayed(msg.sender, accountBorrowsAHR, accountBorrowsALR);\n        } else {\n            ///////////////repay ALR///////////////////\n            if (accountBorrowsALR != 0) {\n                //if amount owed to ALR isnt zero\n                if (accountBorrowsALR >= _repayAmount) {\n                    //if repay amount is less than whats owed in ALR\n                    //transfer asset from the user to this contract\n                    asset.transferFrom(msg.sender, address(ALR), _repayAmount);\n                    payAmountALR = ALR.repayBorrow(_repayAmount, msg.sender); // repay amount to ALR\n\n                    emit Repayed(msg.sender, 0, _repayAmount);\n                } else {\n                    ///////////////repay all of ALR && some AHR///////////////////\n                    //if repay amount is MORE than ALR owed\n                    uint256 amountToAHR = _repayAmount.sub(accountBorrowsALR); //calculate amount going to AHR\n                    asset.transferFrom(\n                        msg.sender,\n                        address(ALR),\n                        accountBorrowsALR\n                    ); //transfer remaining ALR bal to ALR\n                    payAmountALR = ALR.repayBorrow(0, msg.sender); //pay off ALR\n                    asset.transferFrom(msg.sender, address(AHR), amountToAHR); // transfer remaining payment amount to AHR\n                    payAmountAHR = AHR.repayBorrow(amountToAHR, msg.sender); //pay off towards AHR\n                    //if payAmountAHR is greater than 0 transfer asset from the user to the AHR contract\n                    emit Repayed(msg.sender, payAmountAHR, payAmountALR);\n                }\n            } else {\n                //if amount owed to ALR is zero\n                //transfer asset from the user to this contract\n                asset.transferFrom(msg.sender, address(AHR), payAmountAHR);\n                payAmountAHR = AHR.repayBorrow(_repayAmount, msg.sender); //pay towards AHR\n                emit Repayed(msg.sender, payAmountAHR, 0);\n            }\n        }\n\n        ///////unlock collateral value logic/////////\n        uint256 repayedAmount;\n        if (_repayAmount == 0) {\n            repayedAmount = totalBorrows;\n        } else {\n            repayedAmount = _repayAmount;\n        }\n        ///get USDC value of what was repayed\n        uint256 _USDCvalRepayed = UOF.getUnderlyingPriceofAsset(\n            address(asset),\n            repayedAmount\n        );\n        ////track repayment in MMC\n        MMF.trackCollateralDown(\n            msg.sender,\n            collateralLockedALR[msg.sender],\n            _USDCvalRepayed\n        );\n        //////////////fully repayed logic/////////////\n        if (\n            accountBorrowsAHR.sub(payAmountAHR) == 0 &&\n            accountBorrowsALR.sub(payAmountALR) == 0\n        ) {\n            //if the loan is fully payed off\n            //unlock the users locked collateral for this loan\n\n            //reset collateralLockedALR address to zero so the user can use a different ALR address in future borrows\n            collateralLockedALR[msg.sender] = address(0);\n            cantCollateralize[msg.sender] = false;\n            //reset locked collateral amount\n            lockedCollateral[msg.sender] = 0;\n        }\n    }\n\n    //struct used to avoid stack too deep errors\n    struct liquidateLocalVar {\n        uint256 accountBorrowsALR;\n        uint256 accountBorrowsAHR;\n        uint256 totalBorrows;\n        uint256 borrowedValue;\n        uint256 borrowedValue150;\n        uint256 collatValue;\n        uint256 halfVal;\n        uint256 payAmountALR; // Note: reverts on error\n        uint256 payAmountAHR;\n    }\n\n    /**\n    @notice _liquidateFor is called by the liquidateAccount function on a MMI where a user is being liquidated. This function\n            is called on a MMI contract where collateral is staked.\n\n    **/\n    function liquidateAccount(\n        address _borrower,\n        AskoRiskTokenI _ARTcollateralized\n    ) public {\n        //create local vars storage\n        liquidateLocalVar memory vars;\n        require(msg.sender != _borrower, \"you cant liquidate yourself\");\n        //get current borrowed amount\n        uint256 accountBorrowsALR = ALR.borrowBalanceCurrent(_borrower);\n        uint256 accountBorrowsAHR = AHR.borrowBalanceCurrent(_borrower);\n        uint256 totalBorrows = accountBorrowsALR.add(accountBorrowsAHR);\n\n        //get USDC value of borrowed value\n        vars.borrowedValue = UOF.getUnderlyingPriceofAsset(\n            address(asset),\n            totalBorrows\n        );\n        //get usdc collateral value\n        vars.collatValue = MMF.checkAvailibleCollateralValue(\n            _borrower,\n            address(_ARTcollateralized)\n        );\n        //divide borrowedValue value in half\n        vars.halfVal = vars.borrowedValue.div(2);\n        //add 1/2 the borrowedValue value to the total borrowedValue value for 150% borrowedValue value\n        vars.borrowedValue150 = vars.borrowedValue.add(vars.halfVal);\n        /**\n      need to check if the amount of collateral is less than 150% of the borrowed amount\n      if the collateral value is greater than or equal to 150% of the borrowed value than we liquidate\n      **/\n        if (vars.collatValue < vars.borrowedValue150) {\n            //transfer asset from msg.sender to repay loan\n            asset.transferFrom(msg.sender, address(ALR), accountBorrowsALR);\n            asset.transferFrom(msg.sender, address(AHR), accountBorrowsAHR);\n            MMF.liquidateTrigger(\n                vars.borrowedValue,\n                _borrower,\n                msg.sender,\n                address(_ARTcollateralized)\n            );\n            vars.payAmountALR = ALR.repayBorrow(0, _borrower); //pay off ALR\n            vars.payAmountAHR = AHR.repayBorrow(0, _borrower); //pay off  AHR\n\n            //track collateral\n            MMF.trackCollateralDown(\n                _borrower,\n                address(_ARTcollateralized),\n                vars.borrowedValue\n            );\n        }\n    }\n\n    /**\n@notice allowa an ALR to check if the address calling it is anothe ALR\n**/\n\n    function checkIfALR(address _inQuestion) public view returns (bool) {\n        return MMF._checkIfALR(_inQuestion);\n    }\n}\n",
  "sourcePath": "/home/stan36/repos/Askolend/AskoLend-contracts/contracts/MoneyMarketInstance.sol",
  "compiler": {
    "name": "solc",
    "version": "0.6.6+commit.6c089d02.Emscripten.clang"
  },
  "schemaVersion": "3.3.2",
  "updatedAt": "2020-12-06T02:44:39.212Z",
  "devdoc": {
    "methods": {
      "_setUpAHR(address,uint256,uint256)": {
        "details": "this function will create a token whos name and symbol is concatenated with a \"AHR-\" in front of it example: AHR-LINKasset.approve() is called to allow the AHR contract to freeely transfer the assset from this contract when the mint lendToAHRpool function is called.*",
        "params": {
          "_InterestRateModel": "is the address of this MoneyMarketInstances InterestRateModel",
          "_fee": "is a number representing the fee for exchanging an AHR token, as a mantissa (scaled by 1e18)"
        }
      },
      "_setUpALR(address,uint256,uint256)": {
        "details": "this function will create a token whos name and symbol is concatenated with a \"ALR-\" in front of it example: ALR-LINKasset.approve() is called to allow the ALR contract to freeely transfer the assset from this contract when the mint lendToALRpool function is called.*",
        "params": {
          "_InterestRateModel": "is the address of this MoneyMarketInstances InterestRateModel",
          "_fee": "is a number representing the fee for exchanging an ALR token, as a mantissa (scaled by 1e18)"
        }
      },
      "borrow(uint256,address)": {
        "params": {
          "_amount": "is the amount of asset being barrowed",
          "_collateral": "is the address of the ALR token being used as collateral*"
        }
      },
      "calculateFee(uint256,uint256)": {
        "details": "the divisor is set to 10,000 in the constructor for this contract. this allows for a fee percentage accounting for two decimal places. feePercent must account for this when being set. The following examples show feePercent amounts and how they equate to percentages: EX: a 1% fee would be set as feePercent = 100 a .5% fee would be set as feePercent = 50 a 50% fee would be set as feePercent = 5000*",
        "params": {
          "_payedAmount": "is a uint representing the full amount of an ERC20 asset payed"
        }
      },
      "constructor": {
        "details": "this function uses ABI encoding to properly concatenate AHR- && ALR- in front of the tokens name and symbol before creating each token.*",
        "params": {
          "_assetContractAdd": "is the address of the ERC20 asset being whitelisted",
          "_assetName": "is the name of the asset(e.x: ChainLink)",
          "_assetSymbol": "is the symbol of the asset(e.x: LINK)"
        }
      },
      "lendToAHRpool(uint256)": {
        "details": "the user will need to first approve the transfer of the underlying asset*",
        "params": {
          "_amount": "is the amount of the asset being lent"
        }
      },
      "lendToALRpool(uint256)": {
        "details": "the user will need to first approve the transfer of the underlying asset*",
        "params": {
          "_amount": "is the amount of the asset being lent"
        }
      },
      "owner()": {
        "details": "Returns the address of the current owner."
      },
      "renounceOwnership()": {
        "details": "Leaves the contract without owner. It will not be possible to call `onlyOwner` functions anymore. Can only be called by the current owner.     * NOTE: Renouncing ownership will leave the contract without an owner, thereby removing any functionality that is only available to the owner."
      },
      "repay(uint256)": {
        "params": {
          "_repayAmount": "is the amount of the underlying asset being repayed*"
        }
      },
      "setFeeAHR(uint256)": {
        "details": "the divisor is set to 10,000 in the constructor for this contract. this allows for a fee percentage accounting for two decimal places. feePercent must account for this when being set. The following examples show feePercent amounts and how they equate to percentages: EX: a 1% fee would be set as feePercent = 100 a .5% fee would be set as feePercent = 50 a 50% fee would be set as feePercent = 5000*",
        "params": {
          "_fee": "is the input number representing the fee"
        }
      },
      "setFeeALR(uint256)": {
        "details": "the divisor is set to 10,000 in the constructor for this contract. this allows for a fee percentage accounting for two decimal places. feePercent must account for this when being set. The following examples show feePercent amounts and how they equate to percentages: EX: a 1% fee would be set as feePercent = 100 a .5% fee would be set as feePercent = 50 a 50% fee would be set as feePercent = 5000*",
        "params": {
          "_fee": "is the input number representing the fee"
        }
      },
      "transferOwnership(address)": {
        "details": "Transfers ownership of the contract to a new account (`newOwner`). Can only be called by the current owner."
      }
    }
  },
  "userdoc": {
    "methods": {
      "_setUpAHR(address,uint256,uint256)": {
        "notice": "setUp is called by the MoneyMarketFactory after a contract is created to set up the initial variables. This is split from the constructor function to keep from reaching the gas block limit"
      },
      "_setUpALR(address,uint256,uint256)": {
        "notice": "setUp is called by the MoneyMarketFactory after a contract is created to set up the initial variables. This is split from the constructor function to keep from reaching the gas block limit"
      },
      "borrow(uint256,address)": {
        "notice": "borrow is used to take out a loan from in MoneyMarketInstance's underlying asset"
      },
      "calculateFee(uint256,uint256)": {
        "notice": "calculateFee is used to calculate the fee earned"
      },
      "checkIfALR(address)": {
        "notice": "allowa an ALR to check if the address calling it is anothe ALR*"
      },
      "constructor": "the constructor function is fired during the contract deployment process. The constructor can only be fired once and is used to initialize the MoneyMakerInstance and deploy its associated AHR && ALR token contracts",
      "getAssetAdd()": {
        "notice": "getAssetAdd allows for easy retrieval of a Money Markets underlying asset's address*"
      },
      "lendToAHRpool(uint256)": {
        "notice": "lendToAHRpool is used to lend assets to a MoneyMarketInstance's High Risk pool"
      },
      "lendToALRpool(uint256)": {
        "notice": "lendToAHRpool is used to lend assets to a MoneyMarketInstance's Low Risk pool"
      },
      "liquidateAccount(address,address)": {
        "notice": "_liquidateFor is called by the liquidateAccount function on a MMI where a user is being liquidated. This function is called on a MMI contract where collateral is staked.*"
      },
      "repay(uint256)": {
        "notice": "repay is used to repay a loan"
      },
      "setFeeAHR(uint256)": {
        "notice": "setFee allows the owner of this contract to set the fee"
      },
      "setFeeALR(uint256)": {
        "notice": "setFee allows the owner of this contract to set the fee"
      }
    },
    "notice": "The MoneyMarketInstance contract is designed facilitate a tiered money market for an individual ERC20 asset This contract uses the OpenZeppelin contract Library to inherit functions from Ownable.sol && IRC20.sol*"
  }
}