{
  "contractName": "MoneyMarketFactory",
  "abi": [
    {
      "anonymous": false,
      "inputs": [
        {
          "indexed": true,
          "internalType": "address",
          "name": "previousOwner",
          "type": "address"
        },
        {
          "indexed": true,
          "internalType": "address",
          "name": "newOwner",
          "type": "address"
        }
      ],
      "name": "OwnershipTransferred",
      "type": "event"
    },
    {
      "inputs": [],
      "name": "owner",
      "outputs": [
        {
          "internalType": "address",
          "name": "",
          "type": "address"
        }
      ],
      "stateMutability": "view",
      "type": "function"
    },
    {
      "inputs": [],
      "name": "renounceOwnership",
      "outputs": [],
      "stateMutability": "nonpayable",
      "type": "function"
    },
    {
      "inputs": [
        {
          "internalType": "address",
          "name": "newOwner",
          "type": "address"
        }
      ],
      "name": "transferOwnership",
      "outputs": [],
      "stateMutability": "nonpayable",
      "type": "function"
    },
    {
      "inputs": [
        {
          "internalType": "address",
          "name": "_assetContractAdd",
          "type": "address"
        },
        {
          "internalType": "address",
          "name": "_owner",
          "type": "address"
        },
        {
          "internalType": "address",
          "name": "_oracleFactory",
          "type": "address"
        },
        {
          "internalType": "string",
          "name": "_assetName",
          "type": "string"
        },
        {
          "internalType": "string",
          "name": "_assetSymbol",
          "type": "string"
        }
      ],
      "name": "createMMI",
      "outputs": [
        {
          "internalType": "address",
          "name": "",
          "type": "address"
        }
      ],
      "stateMutability": "nonpayable",
      "type": "function"
    }
  ],
  "bytecode": "0x608060405260006100176001600160e01b0361006616565b600080546001600160a01b0319166001600160a01b0383169081178255604051929350917f8be0079c531659141344cd1fd0a4f28419497f9722a3daafe3b4186f6b6457e0908290a35061006a565b3390565b614c9f806100796000396000f3fe608060405234801561001057600080fd5b506004361061004c5760003560e01c8063715018a6146100515780638da5cb5b1461005b578063ee61748c1461007f578063f2fde38b146101c9575b600080fd5b6100596101ef565b005b6100636102a3565b604080516001600160a01b039092168252519081900360200190f35b610063600480360360a081101561009557600080fd5b6001600160a01b0382358116926020810135821692604082013590921691810190608081016060820135600160201b8111156100d057600080fd5b8201836020820111156100e257600080fd5b803590602001918460018302840111600160201b8311171561010357600080fd5b91908080601f0160208091040260200160405190810160405280939291908181526020018383808284376000920191909152509295949360208101935035915050600160201b81111561015557600080fd5b82018360208201111561016757600080fd5b803590602001918460018302840111600160201b8311171561018857600080fd5b91908080601f0160208091040260200160405190810160405280939291908181526020018383808284376000920191909152509295506102b2945050505050565b610059600480360360208110156101df57600080fd5b50356001600160a01b031661040b565b6101f7610515565b6000546001600160a01b03908116911614610259576040805162461bcd60e51b815260206004820181905260248201527f4f776e61626c653a2063616c6c6572206973206e6f7420746865206f776e6572604482015290519081900360640190fd5b600080546040516001600160a01b03909116907f8be0079c531659141344cd1fd0a4f28419497f9722a3daafe3b4186f6b6457e0908390a3600080546001600160a01b0319169055565b6000546001600160a01b031690565b60008086868686866040516102c690610519565b80866001600160a01b03166001600160a01b03168152602001856001600160a01b03166001600160a01b03168152602001846001600160a01b03166001600160a01b031681526020018060200180602001838103835285818151815260200191508051906020019080838360005b8381101561034c578181015183820152602001610334565b50505050905090810190601f1680156103795780820380516001836020036101000a031916815260200191505b50838103825284518152845160209182019186019080838360005b838110156103ac578181015183820152602001610394565b50505050905090810190601f1680156103d95780820380516001836020036101000a031916815260200191505b50975050505050505050604051809103906000f0801580156103ff573d6000803e3d6000fd5b50979650505050505050565b610413610515565b6000546001600160a01b03908116911614610475576040805162461bcd60e51b815260206004820181905260248201527f4f776e61626c653a2063616c6c6572206973206e6f7420746865206f776e6572604482015290519081900360640190fd5b6001600160a01b0381166104ba5760405162461bcd60e51b8152600401808060200182810382526026815260200180614c446026913960400191505060405180910390fd5b600080546040516001600160a01b03808516939216917f8be0079c531659141344cd1fd0a4f28419497f9722a3daafe3b4186f6b6457e091a3600080546001600160a01b0319166001600160a01b0392909216919091179055565b3390565b61471d806105278339019056fe60806040523480156200001157600080fd5b506040516200471d3803806200471d833981810160405260a08110156200003757600080fd5b8151602083015160408085015160608601805192519496939591949391820192846401000000008211156200006b57600080fd5b9083019060208201858111156200008157600080fd5b82516401000000008111828201881017156200009c57600080fd5b82525081516020918201929091019080838360005b83811015620000cb578181015183820152602001620000b1565b50505050905090810190601f168015620000f95780820380516001836020036101000a031916815260200191505b50604052602001805160405193929190846401000000008211156200011d57600080fd5b9083019060208201858111156200013357600080fd5b82516401000000008111828201881017156200014e57600080fd5b82525081516020918201929091019080838360005b838110156200017d57818101518382015260200162000163565b50505050905090810190601f168015620001ab5780820380516001836020036101000a031916815260200191505b506040525050506000620001c46200028860201b60201c565b600080546001600160a01b0319166001600160a01b0383169081178255604051929350917f8be0079c531659141344cd1fd0a4f28419497f9722a3daafe3b4186f6b6457e0908290a3506127106002558151620002299060059060208501906200028d565b5080516200023f9060069060208401906200028d565b5050600b80546001600160a01b039485166001600160a01b031991821617909155600a80549385169382169390931790925550600780549390921692169190911790556200032f565b335b90565b828054600181600116156101000203166002900490600052602060002090601f016020900481019282601f10620002d057805160ff191683800117855562000300565b8280016001018555821562000300579182015b8281111562000300578251825591602001919060010190620002e3565b506200030e92915062000312565b5090565b6200028a91905b808211156200030e576000815560010162000319565b6143de806200033f6000396000f3fe60806040523480156200001157600080fd5b5060043610620001845760003560e01c80636c713a1511620000e1578063c9230c5d1162000093578063c9230c5d14620003bf578063cf0aea8514620003c9578063d162054a14620003e9578063dcc716bd14620003f3578063f2130c701462000428578063f2fde38b1462000432578063f9828b4f146200045b5762000184565b80636c713a15146200036d578063715018a6146200038d5780637fd6f15c14620003975780638da5cb5b14620003a15780639241cef214620003ab578063c27d4df314620003b55762000184565b806334e73122116200013b57806334e7312214620002c4578063371fd8e614620002ea57806338d52e0f146200030a5780634b3fd14814620003145780634c20ac741462000343578063551f8b01146200034d5762000184565b806303438def146200018957806311e2c02f14620001ab578063176de7a814620001d15780631f2dc5ef14620002535780631f432cf5146200026f57806322b2d40214620002a4575b600080fd5b620001a960048036036020811015620001a157600080fd5b503562000465565b005b620001b56200054d565b604080516001600160a01b039092168252519081900360200190f35b620001db6200055c565b6040805160208082528351818301528351919283929083019185019080838360005b8381101562000217578181015183820152602001620001fd565b50505050905090810190601f168015620002455780820380516001836020036101000a031916815260200191505b509250505060405180910390f35b6200025d620005ee565b60408051918252519081900360200190f35b620001a9600480360360608110156200028757600080fd5b506001600160a01b038135169060208101359060400135620005f4565b620001a960048036036020811015620002bc57600080fd5b50356200097f565b6200025d60048036036040811015620002dc57600080fd5b508035906020013562000aa7565b620001a9600480360360208110156200030257600080fd5b503562000add565b620001b562001014565b620001a9600480360360408110156200032c57600080fd5b50803590602001356001600160a01b031662001023565b620001b56200139f565b620001a9600480360360208110156200036557600080fd5b5035620013ae565b620001a9600480360360208110156200038557600080fd5b50356200140f565b620001a962001470565b6200025d62001516565b620001b56200151c565b620001b56200152b565b620001b56200153a565b620001db62001549565b620001a960048036036020811015620003e157600080fd5b5035620015a7565b620001b5620016b1565b620001a9600480360360608110156200040b57600080fd5b506001600160a01b038135169060208101359060400135620016c0565b6200025d62001a4d565b620001a9600480360360208110156200044a57600080fd5b50356001600160a01b031662001a53565b6200025d62001b51565b60095460408051632770a7eb60e21b81523360048201526024810184905290516001600160a01b0390921691639dc29fac9160448082019260009290919082900301818387803b158015620004b957600080fd5b505af1158015620004ce573d6000803e3d6000fd5b5050600a546009546040805163152eadbb60e01b81523360048201526001600160a01b03928316602482015260448101879052905191909216935063152eadbb9250606480830192600092919082900301818387803b1580156200053157600080fd5b505af115801562000546573d6000803e3d6000fd5b5050505050565b600b546001600160a01b031681565b6006805460408051602060026001851615610100026000190190941693909304601f81018490048402820184019092528181529291830182828015620005e65780601f10620005ba57610100808354040283529160200191620005e6565b820191906000526020600020905b815481529060010190602001808311620005c857829003601f168201915b505050505081565b60025481565b600a546001600160a01b031633146200060c57600080fd5b60048281556040805163416c522d60e01b6020808301919091528251808303909401845260248201909252825183926005926044019182918501908083835b602083106200066c5780518252601f1990920191602091820191016200064b565b6001836020036101000a03801982511681845116808217855250505050505090500182805460018160011615610100020316600290048015620006e95780601f10620006c6576101008083540402835291820191620006e9565b820191906000526020600020905b815481529060010190602001808311620006d4575b50509250505060405160208183030381529060405290506060604051602001808063416c522d60e01b815250600401905060405160208183030381529060405290508060066040516020018083805190602001908083835b60208310620007625780518252601f19909201916020918201910162000741565b6001836020036101000a03801982511681845116808217855250505050505090500182805460018160011615610100020316600290048015620007df5780601f10620007bc576101008083540402835291820191620007df565b820191906000526020600020905b815481529060010190602001808311620007ca575b505060408051601f1981840301815290829052600754600b549196508795508694508a93506001600160a01b0390811692911690859085906001908b90620008279062001da7565b6001600160a01b038089168252878116602080840191909152908716604083015283151560a083015260c0820183905260e06060830181815287519184019190915286519091608084019161010085019189019080838360005b838110156200089b57818101518382015260200162000881565b50505050905090810190601f168015620008c95780820380516001836020036101000a031916815260200191505b50838103825286518152865160209182019188019080838360005b83811015620008fe578181015183820152602001620008e4565b50505050905090810190601f1680156200092c5780820380516001836020036101000a031916815260200191505b509950505050505050505050604051809103906000f08015801562000955573d6000803e3d6000fd5b50600980546001600160a01b0319166001600160a01b039290921691909117905550505050505050565b60006200098f8260045462000aa7565b90506000620009a5838363ffffffff62001b5716565b600754600954604080516323b872dd60e01b81523360048201526001600160a01b0392831660248201526044810188905290519394509116916323b872dd916064808201926020929091908290030181600087803b15801562000a0757600080fd5b505af115801562000a1c573d6000803e3d6000fd5b505050506040513d602081101562000a3357600080fd5b5050600954604080516340c10f1960e01b81523360048201526024810184905290516001600160a01b03909216916340c10f199160448082019260009290919082900301818387803b15801562000a8957600080fd5b505af115801562000a9e573d6000803e3d6000fd5b50505050505050565b60008062000ad360025462000ac6858762001ba290919063ffffffff16565b9063ffffffff62001c0016565b9150505b92915050565b600062000aed8260045462000aa7565b9050600062000b03838363ffffffff62001c4416565b600954604080516305eff7ef60e21b815233600482015290519293506000926001600160a01b03909216916317bfdfbc9160248082019260209290919082900301818787803b15801562000b5657600080fd5b505af115801562000b6b573d6000803e3d6000fd5b505050506040513d602081101562000b8257600080fd5b50519050600080821562000efe5783831062000cac576009546040805163073a938160e11b81526004810187905290516001600160a01b0390921691630e752702916024808201926020929091908290030181600087803b15801562000be757600080fd5b505af115801562000bfc573d6000803e3d6000fd5b505050506040513d602081101562000c1357600080fd5b5051600754600954604080516323b872dd60e01b81523360048201526001600160a01b0392831660248201526044810185905290519394509116916323b872dd916064808201926020929091908290030181600087803b15801562000c7757600080fd5b505af115801562000c8c573d6000803e3d6000fd5b505050506040513d602081101562000ca357600080fd5b5062000ef89050565b600062000cc0858563ffffffff62001b5716565b6009546040805163073a938160e11b81526004810184905290519293506001600160a01b0390911691630e752702916024808201926020929091908290030181600087803b15801562000d1257600080fd5b505af115801562000d27573d6000803e3d6000fd5b505050506040513d602081101562000d3e57600080fd5b5051600754600954604080516323b872dd60e01b81523360048201526001600160a01b0392831660248201526044810185905290519395509116916323b872dd916064808201926020929091908290030181600087803b15801562000da257600080fd5b505af115801562000db7573d6000803e3d6000fd5b505050506040513d602081101562000dce57600080fd5b506000905062000de5868363ffffffff62001b5716565b6008546040805163073a938160e11b81526004810184905290519293506001600160a01b0390911691630e752702916024808201926020929091908290030181600087803b15801562000e3757600080fd5b505af115801562000e4c573d6000803e3d6000fd5b505050506040513d602081101562000e6357600080fd5b5051600754600854604080516323b872dd60e01b81523360048201526001600160a01b0392831660248201526044810185905290519397509116916323b872dd916064808201926020929091908290030181600087803b15801562000ec757600080fd5b505af115801562000edc573d6000803e3d6000fd5b505050506040513d602081101562000ef357600080fd5b505050505b6200100c565b6008546040805163073a938160e11b81526004810187905290516001600160a01b0390921691630e752702916024808201926020929091908290030181600087803b15801562000f4d57600080fd5b505af115801562000f62573d6000803e3d6000fd5b505050506040513d602081101562000f7957600080fd5b5051600754600854604080516323b872dd60e01b81523360048201526001600160a01b0392831660248201526044810185905290519395509116916323b872dd916064808201926020929091908290030181600087803b15801562000fdd57600080fd5b505af115801562000ff2573d6000803e3d6000fd5b505050506040513d60208110156200100957600080fd5b50505b505050505050565b6007546001600160a01b031681565b600a5460408051634750e71960e01b81523360048201526001600160a01b03848116602483015291516000939290921691634750e7199160448082019260209290919082900301818787803b1580156200107c57600080fd5b505af115801562001091573d6000803e3d6000fd5b505050506040513d6020811015620010a857600080fd5b5051600854604080516305eff7ef60e21b815233600482015290519293506000926001600160a01b03909216916317bfdfbc9160248082019260209290919082900301818787803b158015620010fd57600080fd5b505af115801562001112573d6000803e3d6000fd5b505050506040513d60208110156200112957600080fd5b5051600954604080516305eff7ef60e21b815233600482015290519293506000926001600160a01b03909216916317bfdfbc9160248082019260209290919082900301818787803b1580156200117e57600080fd5b505af115801562001193573d6000803e3d6000fd5b505050506040513d6020811015620011aa57600080fd5b505190506000620011d4620011c6838863ffffffff62001c4416565b849063ffffffff62001c4416565b600b546007546040805163fc57d4df60e01b81526001600160a01b0392831660048201529051939450600093919092169163fc57d4df916024808301926020929190829003018186803b1580156200122b57600080fd5b505afa15801562001240573d6000803e3d6000fd5b505050506040513d60208110156200125757600080fd5b5051905060006200126f828463ffffffff62001ba216565b905060006200128682600263ffffffff62001c0016565b905060006200129c838363ffffffff62001c4416565b905080881015620012ac57600080fd5b6000620012c18b600263ffffffff62001c0016565b6008546040805163317afabb60e21b81526004810184905290519293506001600160a01b039091169163c5ebeaec9160248082019260009290919082900301818387803b1580156200131257600080fd5b505af115801562001327573d6000803e3d6000fd5b50506009546040805163317afabb60e21b81526004810186905290516001600160a01b03909216935063c5ebeaec925060248082019260009290919082900301818387803b1580156200137957600080fd5b505af11580156200138e573d6000803e3d6000fd5b505050505050505050505050505050565b6007546001600160a01b031690565b620013b862001c9f565b6000546001600160a01b039081169116146200140a576040805162461bcd60e51b8152602060048201819052602482015260008051602062004389833981519152604482015290519081900360640190fd5b600455565b6200141962001c9f565b6000546001600160a01b039081169116146200146b576040805162461bcd60e51b8152602060048201819052602482015260008051602062004389833981519152604482015290519081900360640190fd5b600355565b6200147a62001c9f565b6000546001600160a01b03908116911614620014cc576040805162461bcd60e51b8152602060048201819052602482015260008051602062004389833981519152604482015290519081900360640190fd5b600080546040516001600160a01b03909116907f8be0079c531659141344cd1fd0a4f28419497f9722a3daafe3b4186f6b6457e0908390a3600080546001600160a01b0319169055565b60015481565b6000546001600160a01b031690565b6008546001600160a01b031681565b6009546001600160a01b031681565b6005805460408051602060026001851615610100026000190190941693909304601f81018490048402820184019092528181529291830182828015620005e65780601f10620005ba57610100808354040283529160200191620005e6565b6000620015b78260035462000aa7565b90506000620015cd838363ffffffff62001b5716565b600754600854604080516323b872dd60e01b81523360048201526001600160a01b0392831660248201526044810188905290519394509116916323b872dd916064808201926020929091908290030181600087803b1580156200162f57600080fd5b505af115801562001644573d6000803e3d6000fd5b505050506040513d60208110156200165b57600080fd5b5050600854604080516340c10f1960e01b81523360048201526024810184905290516001600160a01b03909216916340c10f199160448082019260009290919082900301818387803b15801562000a8957600080fd5b600a546001600160a01b031681565b600a546001600160a01b03163314620016d857600080fd5b600382905560408051634148522d60e01b60208083019190915282518083036004018152602483019093528251839260059260449091019182918501908083835b602083106200173a5780518252601f19909201916020918201910162001719565b6001836020036101000a03801982511681845116808217855250505050505090500182805460018160011615610100020316600290048015620017b75780601f1062001794576101008083540402835291820191620017b7565b820191906000526020600020905b815481529060010190602001808311620017a2575b505092505050604051602081830303815290604052905060606040516020018080634148522d60e01b815250600401905060405160208183030381529060405290508060066040516020018083805190602001908083835b60208310620018305780518252601f1990920191602091820191016200180f565b6001836020036101000a03801982511681845116808217855250505050505090500182805460018160011615610100020316600290048015620018ad5780601f106200188a576101008083540402835291820191620018ad565b820191906000526020600020905b81548152906001019060200180831162001898575b505060408051601f1981840301815290829052600754600b549196508795508694508a93506001600160a01b0390811692911690859085906000908b90620018f59062001da7565b6001600160a01b038089168252878116602080840191909152908716604083015283151560a083015260c0820183905260e06060830181815287519184019190915286519091608084019161010085019189019080838360005b83811015620019695781810151838201526020016200194f565b50505050905090810190601f168015620019975780820380516001836020036101000a031916815260200191505b50838103825286518152865160209182019188019080838360005b83811015620019cc578181015183820152602001620019b2565b50505050905090810190601f168015620019fa5780820380516001836020036101000a031916815260200191505b509950505050505050505050604051809103906000f08015801562001a23573d6000803e3d6000fd5b50600880546001600160a01b0319166001600160a01b039290921691909117905550505050505050565b60035481565b62001a5d62001c9f565b6000546001600160a01b0390811691161462001aaf576040805162461bcd60e51b8152602060048201819052602482015260008051602062004389833981519152604482015290519081900360640190fd5b6001600160a01b03811662001af65760405162461bcd60e51b8152600401808060200182810382526026815260200180620043426026913960400191505060405180910390fd5b600080546040516001600160a01b03808516939216917f8be0079c531659141344cd1fd0a4f28419497f9722a3daafe3b4186f6b6457e091a3600080546001600160a01b0319166001600160a01b0392909216919091179055565b60045481565b600062001b9b83836040518060400160405280601e81526020017f536166654d6174683a207375627472616374696f6e206f766572666c6f77000081525062001ca3565b9392505050565b60008262001bb35750600062000ad7565b8282028284828162001bc157fe5b041462001b9b5760405162461bcd60e51b8152600401808060200182810382526021815260200180620043686021913960400191505060405180910390fd5b600062001b9b83836040518060400160405280601a81526020017f536166654d6174683a206469766973696f6e206279207a65726f00000000000081525062001d3e565b60008282018381101562001b9b576040805162461bcd60e51b815260206004820152601b60248201527f536166654d6174683a206164646974696f6e206f766572666c6f770000000000604482015290519081900360640190fd5b3390565b6000818484111562001d365760405162461bcd60e51b81526004018080602001828103825283818151815260200191508051906020019080838360005b8381101562001cfa57818101518382015260200162001ce0565b50505050905090810190601f16801562001d285780820380516001836020036101000a031916815260200191505b509250505060405180910390fd5b505050900390565b6000818362001d905760405162461bcd60e51b815260206004820181815283516024840152835190928392604490910191908501908083836000831562001cfa57818101518382015260200162001ce0565b50600083858162001d9d57fe5b0495945050505050565b61258c8062001db68339019056fe60806040523480156200001157600080fd5b506040516200258c3803806200258c833981810160405260e08110156200003757600080fd5b8151602083015160408085015160608601805192519496939591949391820192846401000000008211156200006b57600080fd5b9083019060208201858111156200008157600080fd5b82516401000000008111828201881017156200009c57600080fd5b82525081516020918201929091019080838360005b83811015620000cb578181015183820152602001620000b1565b50505050905090810190601f168015620000f95780820380516001836020036101000a031916815260200191505b50604052602001805160405193929190846401000000008211156200011d57600080fd5b9083019060208201858111156200013357600080fd5b82516401000000008111828201881017156200014e57600080fd5b82525081516020918201929091019080838360005b838110156200017d57818101518382015260200162000163565b50505050905090810190601f168015620001ab5780820380516001836020036101000a031916815260200191505b5060409081526020820151910151909250905083836000620001d56001600160e01b03620002e916565b600080546001600160a01b0319166001600160a01b0383169081178255604051929350917f8be0079c531659141344cd1fd0a4f28419497f9722a3daafe3b4186f6b6457e0908290a350815162000234906004906020850190620002f2565b5080516200024a906005906020840190620002f2565b505060068054600860ff1991821617909155600d8054600f8054336001600160a01b031991821617909155600e805482166001600160a01b038e811691909117909155601080549092168b821617909155610100600160a81b0319909116610100918b169190910217909116841515179055506007819055620002cc620002ee565b6009555050670de0b6b3a7640000600a5550620003949350505050565b335b90565b4390565b828054600181600116156101000203166002900490600052602060002090601f016020900481019282601f106200033557805160ff191683800117855562000365565b8280016001018555821562000365579182015b828111156200036557825182559160200191906001019062000348565b506200037392915062000377565b5090565b620002eb91905b808211156200037357600081556001016200037e565b6121e880620003a46000396000f3fe608060405234801561001057600080fd5b506004361061025e5760003560e01c80638157230b11610146578063ae9d70b0116100c3578063db006a7511610087578063db006a751461064c578063dd62ed3e14610669578063ee27a2f214610697578063f2fde38b1461069f578063f3fdb15a146106c5578063f8f9da28146106cd5761025e565b8063ae9d70b0146105d3578063bd6d894d146105db578063c37f68e2146105e3578063c5d9bf7114610627578063c5ebeaec1461062f5761025e565b8063a275370d1161010a578063a275370d14610563578063a457c2d71461056b578063a6afed9514610597578063a9059cbb1461059f578063aa5af0fd146105cb5761025e565b80638157230b146104e35780638da5cb5b1461051f5780638f840ddd1461052757806395d89b411461052f5780639dc29fac146105375761025e565b806339509351116101df5780634c20ac74116101a35780634c20ac74146104955780636c540baf1461049d57806370a08231146104a5578063715018a6146104cb57806373acee98146104d357806377e4974d146104db5761025e565b806339509351146104055780633af9e669146104315780633b1d21a21461045757806340c10f191461045f57806347bd37181461048d5761025e565b806317bfdfbc1161022657806317bfdfbc1461037b57806318160ddd146103a157806323b872dd146103a9578063313ce567146103df57806338d52e0f146103fd5761025e565b806306fdde0314610263578063095ea7b3146102e05780630e7527021461032057806311e2c02f1461034f578063173b990414610373575b600080fd5b61026b6106d5565b6040805160208082528351818301528351919283929083019185019080838360005b838110156102a557818101518382015260200161028d565b50505050905090810190601f1680156102d25780820380516001836020036101000a031916815260200191505b509250505060405180910390f35b61030c600480360360408110156102f657600080fd5b506001600160a01b03813516906020013561076c565b604080519115158252519081900360200190f35b61033d6004803603602081101561033657600080fd5b5035610789565b60408051918252519081900360200190f35b6103576108ca565b604080516001600160a01b039092168252519081900360200190f35b61033d6108d9565b61033d6004803603602081101561039157600080fd5b50356001600160a01b03166108df565b61033d610989565b61030c600480360360608110156103bf57600080fd5b506001600160a01b0381358116916020810135909116906040013561098f565b6103e7610a1c565b6040805160ff9092168252519081900360200190f35b610357610a25565b61030c6004803603604081101561041b57600080fd5b506001600160a01b038135169060200135610a39565b61033d6004803603602081101561044757600080fd5b50356001600160a01b0316610a8d565b61033d610ae8565b61048b6004803603604081101561047557600080fd5b506001600160a01b038135169060200135610af7565b005b61033d610b8e565b610357610b94565b61033d610ba8565b61033d600480360360208110156104bb57600080fd5b50356001600160a01b0316610bae565b61048b610bc9565b61033d610c7d565b61030c610c8e565b61048b600480360360808110156104f957600080fd5b506001600160a01b03813581169160208101359091169060408101359060600135610c97565b610357610dac565b61033d610dbb565b61026b610dc1565b61048b6004803603604081101561054d57600080fd5b506001600160a01b038135169060200135610e22565b61033d610e47565b61030c6004803603604081101561058157600080fd5b506001600160a01b038135169060200135610e53565b61048b610ec1565b61030c600480360360408110156105b557600080fd5b506001600160a01b0381351690602001356110c5565b61033d6110d9565b61033d6110df565b61033d61117e565b610609600480360360208110156105f957600080fd5b50356001600160a01b0316611219565b60408051938452602084019290925282820152519081900360600190f35b61035761124f565b61048b6004803603602081101561064557600080fd5b503561125e565b61048b6004803603602081101561066257600080fd5b50356113ea565b61033d6004803603604081101561067f57600080fd5b506001600160a01b03813581169160200135166114e9565b61033d611514565b61048b600480360360208110156106b557600080fd5b50356001600160a01b031661151e565b610357611628565b61033d611637565b60048054604080516020601f60026000196101006001881615020190951694909404938401819004810282018101909252828152606093909290918301828280156107615780601f1061073657610100808354040283529160200191610761565b820191906000526020600020905b81548152906001019060200180831161074457829003601f168201915b505050505090505b90565b600061078061077961169b565b848461169f565b50600192915050565b600f546000906001600160a01b031633146107a357600080fd5b6107ab610ec1565b6107b3611f93565b336000818152601160205260409081902060010154908301526107d5906108df565b6060820152826107ee57606081015160208201526107f6565b602081018390525b6108088160600151826020015161178b565b608083018190528282600381111561081c57fe5b600381111561082757fe5b905250600090508151600381111561083b57fe5b1461084557600080fd5b610855600b54826020015161178b565b60a083018190528282600381111561086957fe5b600381111561087457fe5b905250600090508151600381111561088857fe5b1461089257600080fd5b6080810151336000908152601160209081526040909120918255600a5460019092019190915560a0820151600b55015190505b919050565b6010546001600160a01b031681565b60085481565b60006108e9610ec1565b6001600160a01b03821660009081526011602052604081208054829182916109185760009450505050506108c5565b6109288160000154600a546117b1565b9094509250600084600381111561093b57fe5b1461094d5760009450505050506108c5565b61095b8382600101546117f0565b9094509150600084600381111561096e57fe5b146109805760009450505050506108c5565b50949350505050565b60035490565b600061099c84848461181b565b610a12846109a861169b565b610a0d856040518060600160405280602881526020016120dc602891396001600160a01b038a166000908152600260205260408120906109e661169b565b6001600160a01b03168152602081019190915260400160002054919063ffffffff61197216565b61169f565b5060019392505050565b60065460ff1690565b600d5461010090046001600160a01b031681565b6000610780610a4661169b565b84610a0d8560026000610a5761169b565b6001600160a01b03908116825260208083019390935260409182016000908120918c16815292529020549063ffffffff611a0916565b6000610a97611fca565b6040518060200160405280610aaa61117e565b90529050600080610ac383610abe87610bae565b611a6a565b90925090506000826003811115610ad657fe5b14610ae057600080fd5b949350505050565b6000610af2611abd565b905090565b600f546001600160a01b03163314610b0e57600080fd5b610b16611fdd565b610b1e61117e565b602080830191825260408051918201905290518152610b3e908390611b0d565b6040830181905282826003811115610b5257fe5b6003811115610b5d57fe5b9052506000905081516003811115610b7157fe5b14610b7b57600080fd5b610b89838260400151611b24565b505050565b600b5481565b600d5461010090046001600160a01b031690565b60095481565b6001600160a01b031660009081526001602052604090205490565b610bd161169b565b6000546001600160a01b03908116911614610c33576040805162461bcd60e51b815260206004820181905260248201527f4f776e61626c653a2063616c6c6572206973206e6f7420746865206f776e6572604482015290519081900360640190fd5b600080546040516001600160a01b03909116907f8be0079c531659141344cd1fd0a4f28419497f9722a3daafe3b4186f6b6457e0908390a3600080546001600160a01b0319169055565b6000610c87610ec1565b50600b5490565b600d5460ff1681565b600f5460408051638da5cb5b60e01b8152905133926001600160a01b031691638da5cb5b916004808301926020929190829003018186803b158015610cdb57600080fd5b505afa158015610cef573d6000803e3d6000fd5b505050506040513d6020811015610d0557600080fd5b50516001600160a01b031614610d1a57600080fd5b601054600d546040805163f0defe9360e01b81526101009092046001600160a01b039081166004840152878116602484015286811660448401526064830186905260848301859052905192169163f0defe939160a48082019260009290919082900301818387803b158015610d8e57600080fd5b505af1158015610da2573d6000803e3d6000fd5b5050505050505050565b6000546001600160a01b031690565b600c5481565b60058054604080516020601f60026000196101006001881615020190951694909404938401819004810282018101909252828152606093909290918301828280156107615780601f1061073657610100808354040283529160200191610761565b600f546001600160a01b03163314610e3957600080fd5b610e438282611c10565b5050565b670de0b6b3a764000081565b6000610780610e6061169b565b84610a0d8560405180606001604052806025815260200161218e6025913960026000610e8a61169b565b6001600160a01b03908116825260208083019390935260409182016000908120918d1681529252902054919063ffffffff61197216565b6000610ecb611d06565b6009549091506000610edb611abd565b600b54600c54600a5492935090918486146110bd57600e54604080516315f2405360e01b815260048101879052602481018690526044810185905290516000926001600160a01b0316916315f24053916064808301926020929190829003018186803b158015610f4a57600080fd5b505afa158015610f5e573d6000803e3d6000fd5b505050506040513d6020811015610f7457600080fd5b5051905065048c27395000811115610f8b57600080fd5b600080610f98898961178b565b90925090506000826003811115610fab57fe5b14610fb557600080fd5b610fbd611fca565b600080600080610fdb60405180602001604052808a81525087611d0a565b90975094506000876003811115610fee57fe5b14610ff857600080fd5b611002858c611a6a565b9097509350600087600381111561101557fe5b1461101f57600080fd5b611029848c611d72565b9097509250600087600381111561103c57fe5b1461104657600080fd5b6110616040518060200160405280600854815250858c611d98565b9097509150600087600381111561107457fe5b1461107e57600080fd5b611089858a8b611d98565b9097509050600087600381111561109c57fe5b146110a657600080fd5b60098e9055600a55600b91909155600c5550505050505b505050505050565b60006107806110d261169b565b848461181b565b600a5481565b600e546000906001600160a01b031663b81688166110fb611abd565b600b54600c546008546040518563ffffffff1660e01b81526004018085815260200184815260200183815260200182815260200194505050505060206040518083038186803b15801561114d57600080fd5b505afa158015611161573d6000803e3d6000fd5b505050506040513d602081101561117757600080fd5b5051905090565b6000611188610ec1565b611190610989565b61119d5750600754610769565b60006111a7611abd565b905060006111b3611fca565b60006111c484600b54600c54611df4565b9350905060008160038111156111d657fe5b146111e057600080fd5b6111f1836111ec610989565b611e32565b92509050600081600381111561120357fe5b1461120d57600080fd5b50519250610769915050565b60008060008061122885610bae565b90506000611235866108df565b9050600061124161117e565b929791965091945092505050565b600f546001600160a01b031681565b600f546001600160a01b0316331461127557600080fd5b61127d610ec1565b80611286611abd565b1161129057600080fd5b611298611fff565b6112a1336108df565b602082018190526112b29083611d72565b60408301819052828260038111156112c657fe5b60038111156112d157fe5b90525060009050815160038111156112e557fe5b146112ef57600080fd5b6112fb600b5483611d72565b606083018190528282600381111561130f57fe5b600381111561131a57fe5b905250600090508151600381111561132e57fe5b1461133857600080fd5b60408082015133600081815260116020908152848220938455600a546001909401939093556060850151600b55600d54845163a9059cbb60e01b815260048101939093526024830187905293516101009094046001600160a01b03169363a9059cbb936044808501949193918390030190829087803b1580156113ba57600080fd5b505af11580156113ce573d6000803e3d6000fd5b505050506040513d60208110156113e457600080fd5b50505050565b6113f2610ec1565b806113fc57600080fd5b611404611fdd565b61140c61117e565b602082015261141b3383611c10565b6114376040518060200160405280836020015181525083611a6a565b604083018190528282600381111561144b57fe5b600381111561145657fe5b905250600090508151600381111561146a57fe5b1461147457600080fd5b8060400151611481611abd565b101561148c57600080fd5b600d54604082810151815163a9059cbb60e01b8152336004820152602481019190915290516101009092046001600160a01b03169163a9059cbb916044808201926020929091908290030181600087803b1580156113ba57600080fd5b6001600160a01b03918216600090815260026020908152604080832093909416825291909152205490565b65048c2739500081565b61152661169b565b6000546001600160a01b03908116911614611588576040805162461bcd60e51b815260206004820181905260248201527f4f776e61626c653a2063616c6c6572206973206e6f7420746865206f776e6572604482015290519081900360640190fd5b6001600160a01b0381166115cd5760405162461bcd60e51b815260040180806020018281038252602681526020018061206e6026913960400191505060405180910390fd5b600080546040516001600160a01b03808516939216917f8be0079c531659141344cd1fd0a4f28419497f9722a3daafe3b4186f6b6457e091a3600080546001600160a01b0319166001600160a01b0392909216919091179055565b600e546001600160a01b031681565b600e546000906001600160a01b03166315f24053611653611abd565b600b54600c546040518463ffffffff1660e01b815260040180848152602001838152602001828152602001935050505060206040518083038186803b15801561114d57600080fd5b3390565b6001600160a01b0383166116e45760405162461bcd60e51b815260040180806020018281038252602481526020018061216a6024913960400191505060405180910390fd5b6001600160a01b0382166117295760405162461bcd60e51b81526004018080602001828103825260228152602001806120946022913960400191505060405180910390fd5b6001600160a01b03808416600081815260026020908152604080832094871680845294825291829020859055815185815291517f8c5be1e5ebec7d5bd14f71427d1e84f3dd0314c0f7b2291e5b200ac8c7c3b9259281900390910190a3505050565b6000808383116117a25750600090508183036117aa565b506003905060005b9250929050565b600080836117c4575060009050806117aa565b838302838582816117d157fe5b04146117e5575060029150600090506117aa565b6000925090506117aa565b6000808261180457506001905060006117aa565b600083858161180f57fe5b04915091509250929050565b6001600160a01b0383166118605760405162461bcd60e51b81526004018080602001828103825260258152602001806121456025913960400191505060405180910390fd5b6001600160a01b0382166118a55760405162461bcd60e51b81526004018080602001828103825260238152602001806120296023913960400191505060405180910390fd5b6118b0838383610b89565b6118f3816040518060600160405280602681526020016120b6602691396001600160a01b038616600090815260016020526040902054919063ffffffff61197216565b6001600160a01b038085166000908152600160205260408082209390935590841681522054611928908263ffffffff611a0916565b6001600160a01b03808416600081815260016020908152604091829020949094558051858152905191939287169260008051602061210483398151915292918290030190a3505050565b60008184841115611a015760405162461bcd60e51b81526004018080602001828103825283818151815260200191508051906020019080838360005b838110156119c65781810151838201526020016119ae565b50505050905090810190601f1680156119f35780820380516001836020036101000a031916815260200191505b509250505060405180910390fd5b505050900390565b600082820183811015611a63576040805162461bcd60e51b815260206004820152601b60248201527f536166654d6174683a206164646974696f6e206f766572666c6f770000000000604482015290519081900360640190fd5b9392505050565b6000806000611a77611fca565b611a818686611d0a565b90925090506000826003811115611a9457fe5b14611aa557509150600090506117aa565b6000611ab082611ee3565b9350935050509250929050565b600d54604080516370a0823160e01b8152306004820152905160009261010090046001600160a01b0316916370a08231916024808301926020929190829003018186803b15801561114d57600080fd5b6000806000611b1a611fca565b611a818686611ef2565b6001600160a01b038216611b7f576040805162461bcd60e51b815260206004820152601f60248201527f45524332303a206d696e7420746f20746865207a65726f206164647265737300604482015290519081900360640190fd5b611b8b60008383610b89565b600354611b9e908263ffffffff611a0916565b6003556001600160a01b038216600090815260016020526040902054611bca908263ffffffff611a0916565b6001600160a01b03831660008181526001602090815260408083209490945583518581529351929391926000805160206121048339815191529281900390910190a35050565b6001600160a01b038216611c555760405162461bcd60e51b81526004018080602001828103825260218152602001806121246021913960400191505060405180910390fd5b611c6182600083610b89565b611ca48160405180606001604052806022815260200161204c602291396001600160a01b038516600090815260016020526040902054919063ffffffff61197216565b6001600160a01b038316600090815260016020526040902055600354611cd0908263ffffffff611f5116565b6003556040805182815290516000916001600160a01b038516916000805160206121048339815191529181900360200190a35050565b4390565b6000611d14611fca565b600080611d258660000151866117b1565b90925090506000826003811115611d3857fe5b14611d57575060408051602081019091526000815290925090506117aa565b60408051602081019091529081526000969095509350505050565b600080838301848110611d8a576000925090506117aa565b5060029150600090506117aa565b6000806000611da5611fca565b611daf8787611d0a565b90925090506000826003811115611dc257fe5b14611dd35750915060009050611dec565b611de5611ddf82611ee3565b86611d72565b9350935050505b935093915050565b600080600080611e048787611d72565b90925090506000826003811115611e1757fe5b14611e285750915060009050611dec565b611de5818661178b565b6000611e3c611fca565b600080611e5186670de0b6b3a76400006117b1565b90925090506000826003811115611e6457fe5b14611e83575060408051602081019091526000815290925090506117aa565b600080611e9083886117f0565b90925090506000826003811115611ea357fe5b14611ec657816040518060200160405280600081525095509550505050506117aa565b604080516020810190915290815260009890975095505050505050565b51670de0b6b3a7640000900490565b6000611efc611fca565b600080611f11670de0b6b3a7640000876117b1565b90925090506000826003811115611f2457fe5b14611f43575060408051602081019091526000815290925090506117aa565b611ab0818660000151611e32565b6000611a6383836040518060400160405280601e81526020017f536166654d6174683a207375627472616374696f6e206f766572666c6f770000815250611972565b6040805160c08101909152806000815260200160008152602001600081526020016000815260200160008152602001600081525090565b6040518060200160405280600081525090565b6040805160608101909152806000815260200160008152602001600081525090565b60408051608081019091528060008152602001600081526020016000815260200160008152509056fe45524332303a207472616e7366657220746f20746865207a65726f206164647265737345524332303a206275726e20616d6f756e7420657863656564732062616c616e63654f776e61626c653a206e6577206f776e657220697320746865207a65726f206164647265737345524332303a20617070726f766520746f20746865207a65726f206164647265737345524332303a207472616e7366657220616d6f756e7420657863656564732062616c616e636545524332303a207472616e7366657220616d6f756e74206578636565647320616c6c6f77616e6365ddf252ad1be2c89b69c2b068fc378daa952ba7f163c4a11628f55a4df523b3ef45524332303a206275726e2066726f6d20746865207a65726f206164647265737345524332303a207472616e736665722066726f6d20746865207a65726f206164647265737345524332303a20617070726f76652066726f6d20746865207a65726f206164647265737345524332303a2064656372656173656420616c6c6f77616e63652062656c6f77207a65726fa26469706673582212207c8330b7daee6a17201f579ea87ef596f21f676a6de19877dd381dee8f2853e164736f6c634300060600334f776e61626c653a206e6577206f776e657220697320746865207a65726f2061646472657373536166654d6174683a206d756c7469706c69636174696f6e206f766572666c6f774f776e61626c653a2063616c6c6572206973206e6f7420746865206f776e6572a2646970667358221220cf6082d1c3ff383b3eaad030af4b6ca454021eac90b4078bf51fee8039d42fa464736f6c634300060600334f776e61626c653a206e6577206f776e657220697320746865207a65726f2061646472657373a2646970667358221220708352c543d08441fda7327418da24656eca332f109e3e3259114ad2565103a264736f6c63430006060033",
  "immutableReferences": {},
  "source": "pragma solidity ^0.6.0;\n\nimport \"./MoneyMarketInstance.sol\";\nimport \"@openzeppelin/contracts/access/Ownable.sol\";\n\n\n\n////////////////////////////////////////////////////////////////////////////////////////////\n/// @title MoneyMarketFactory\n/// @author Christopher Dixon\n////////////////////////////////////////////////////////////////////////////////////////////\n/**\nThe MoneyMarketFactory contract is designed to produce individual MoneyMarketInstance contracts\nThis contract uses the OpenZeppelin contract Library to inherit functions from\n  Ownable.sol\n**/\n\ncontract MoneyMarketFactory is Ownable {\n\n\n/**\n@notice the createMMI function is used to initialize the MoneyMakerInstance and deploy its associated AHR && ALR token contracts\n@param _assetContractAdd is the address of the ERC20 asset being whitelisted\n@param _owner is the address that will own this contract(The AskoDAO)\n@param _assetName is the name of the asset(e.x: ChainLink)\n@param _assetSymbol is the symbol of the asset(e.x: LINK)\n@dev this function uses ABI encoding to properly concatenate AHR- && ALR- in front of the tokens name and symbol\n      before creating each token.\n**/\n  function createMMI(\n    address _assetContractAdd,\n    address _owner,\n    address _oracleFactory,\n    string memory _assetName,\n    string memory _assetSymbol\n  )\n  public\n  returns(address)\n  {\n\n    address _MMinstance = address(new MoneyMarketInstance (\n       _assetContractAdd,\n      _owner,\n       _oracleFactory,\n  \t\t _assetName,\n  \t\t _assetSymbol\n    ));\n\n    return _MMinstance;\n  }\n\n}\n",
  "sourcePath": "/home/stan36/repos/Askolend/AskoLend-contracts/contracts/MoneyMarketFactory.sol",
  "compiler": {
    "name": "solc",
    "version": "0.6.6+commit.6c089d02.Emscripten.clang"
  },
  "schemaVersion": "3.2.5",
  "updatedAt": "2020-10-21T16:11:23.114Z",
  "devdoc": {
    "methods": {
      "createMMI(address,address,address,string,string)": {
        "details": "this function uses ABI encoding to properly concatenate AHR- && ALR- in front of the tokens name and symbol before creating each token.*",
        "params": {
          "_assetContractAdd": "is the address of the ERC20 asset being whitelisted",
          "_assetName": "is the name of the asset(e.x: ChainLink)",
          "_assetSymbol": "is the symbol of the asset(e.x: LINK)",
          "_owner": "is the address that will own this contract(The AskoDAO)"
        }
      },
      "owner()": {
        "details": "Returns the address of the current owner."
      },
      "renounceOwnership()": {
        "details": "Leaves the contract without owner. It will not be possible to call `onlyOwner` functions anymore. Can only be called by the current owner.     * NOTE: Renouncing ownership will leave the contract without an owner, thereby removing any functionality that is only available to the owner."
      },
      "transferOwnership(address)": {
        "details": "Transfers ownership of the contract to a new account (`newOwner`). Can only be called by the current owner."
      }
    }
  },
  "userdoc": {
    "methods": {
      "createMMI(address,address,address,string,string)": {
        "notice": "the createMMI function is used to initialize the MoneyMakerInstance and deploy its associated AHR && ALR token contracts"
      }
    },
    "notice": "The MoneyMarketFactory contract is designed to produce individual MoneyMarketInstance contracts This contract uses the OpenZeppelin contract Library to inherit functions from Ownable.sol*"
  }
}