{
  "contractName": "MoneyMarketInstance",
  "abi": [
    {
      "inputs": [
        {
          "internalType": "address",
          "name": "_assetContractAdd",
          "type": "address"
        },
        {
          "internalType": "address",
          "name": "_oracleFactory",
          "type": "address"
        },
        {
          "internalType": "address",
          "name": "_owner",
          "type": "address"
        },
        {
          "internalType": "address",
          "name": "_ARTF",
          "type": "address"
        },
        {
          "internalType": "string",
          "name": "_assetName",
          "type": "string"
        },
        {
          "internalType": "string",
          "name": "_assetSymbol",
          "type": "string"
        }
      ],
      "stateMutability": "nonpayable",
      "type": "constructor"
    },
    {
      "anonymous": false,
      "inputs": [
        {
          "indexed": false,
          "internalType": "address",
          "name": "borrower",
          "type": "address"
        },
        {
          "indexed": false,
          "internalType": "uint256",
          "name": "AHRamount",
          "type": "uint256"
        },
        {
          "indexed": false,
          "internalType": "uint256",
          "name": "ALRamount",
          "type": "uint256"
        }
      ],
      "name": "Borrow",
      "type": "event"
    },
    {
      "anonymous": false,
      "inputs": [
        {
          "indexed": false,
          "internalType": "address",
          "name": "collateralizer",
          "type": "address"
        },
        {
          "indexed": false,
          "internalType": "uint256",
          "name": "amount",
          "type": "uint256"
        }
      ],
      "name": "Collateralized",
      "type": "event"
    },
    {
      "anonymous": false,
      "inputs": [
        {
          "indexed": false,
          "internalType": "address",
          "name": "lender",
          "type": "address"
        },
        {
          "indexed": false,
          "internalType": "uint256",
          "name": "amount",
          "type": "uint256"
        }
      ],
      "name": "LentToAHR",
      "type": "event"
    },
    {
      "anonymous": false,
      "inputs": [
        {
          "indexed": false,
          "internalType": "address",
          "name": "lender",
          "type": "address"
        },
        {
          "indexed": false,
          "internalType": "uint256",
          "name": "amount",
          "type": "uint256"
        }
      ],
      "name": "LentToALR",
      "type": "event"
    },
    {
      "anonymous": false,
      "inputs": [
        {
          "indexed": true,
          "internalType": "address",
          "name": "previousOwner",
          "type": "address"
        },
        {
          "indexed": true,
          "internalType": "address",
          "name": "newOwner",
          "type": "address"
        }
      ],
      "name": "OwnershipTransferred",
      "type": "event"
    },
    {
      "anonymous": false,
      "inputs": [
        {
          "indexed": false,
          "internalType": "address",
          "name": "borrower",
          "type": "address"
        },
        {
          "indexed": false,
          "internalType": "uint256",
          "name": "AHRamount",
          "type": "uint256"
        },
        {
          "indexed": false,
          "internalType": "uint256",
          "name": "ALRamount",
          "type": "uint256"
        }
      ],
      "name": "Repayed",
      "type": "event"
    },
    {
      "inputs": [],
      "name": "AHR",
      "outputs": [
        {
          "internalType": "contract AskoRiskTokenI",
          "name": "",
          "type": "address"
        }
      ],
      "stateMutability": "view",
      "type": "function"
    },
    {
      "inputs": [],
      "name": "ALR",
      "outputs": [
        {
          "internalType": "contract AskoRiskTokenI",
          "name": "",
          "type": "address"
        }
      ],
      "stateMutability": "view",
      "type": "function"
    },
    {
      "inputs": [],
      "name": "ARTF",
      "outputs": [
        {
          "internalType": "contract ARTFactoryI",
          "name": "",
          "type": "address"
        }
      ],
      "stateMutability": "view",
      "type": "function"
    },
    {
      "inputs": [],
      "name": "MMF",
      "outputs": [
        {
          "internalType": "contract MoneyMarketFactoryI",
          "name": "",
          "type": "address"
        }
      ],
      "stateMutability": "view",
      "type": "function"
    },
    {
      "inputs": [],
      "name": "UOF",
      "outputs": [
        {
          "internalType": "contract UniswapOracleFactoryI",
          "name": "",
          "type": "address"
        }
      ],
      "stateMutability": "view",
      "type": "function"
    },
    {
      "inputs": [],
      "name": "ahr",
      "outputs": [
        {
          "internalType": "address",
          "name": "",
          "type": "address"
        }
      ],
      "stateMutability": "view",
      "type": "function"
    },
    {
      "inputs": [],
      "name": "alr",
      "outputs": [
        {
          "internalType": "address",
          "name": "",
          "type": "address"
        }
      ],
      "stateMutability": "view",
      "type": "function"
    },
    {
      "inputs": [],
      "name": "asset",
      "outputs": [
        {
          "internalType": "contract IERC20",
          "name": "",
          "type": "address"
        }
      ],
      "stateMutability": "view",
      "type": "function"
    },
    {
      "inputs": [],
      "name": "assetName",
      "outputs": [
        {
          "internalType": "string",
          "name": "",
          "type": "string"
        }
      ],
      "stateMutability": "view",
      "type": "function"
    },
    {
      "inputs": [],
      "name": "assetSymbol",
      "outputs": [
        {
          "internalType": "string",
          "name": "",
          "type": "string"
        }
      ],
      "stateMutability": "view",
      "type": "function"
    },
    {
      "inputs": [],
      "name": "divisor",
      "outputs": [
        {
          "internalType": "uint256",
          "name": "",
          "type": "uint256"
        }
      ],
      "stateMutability": "view",
      "type": "function"
    },
    {
      "inputs": [],
      "name": "fee_AHR",
      "outputs": [
        {
          "internalType": "uint256",
          "name": "",
          "type": "uint256"
        }
      ],
      "stateMutability": "view",
      "type": "function"
    },
    {
      "inputs": [],
      "name": "fee_ALR",
      "outputs": [
        {
          "internalType": "uint256",
          "name": "",
          "type": "uint256"
        }
      ],
      "stateMutability": "view",
      "type": "function"
    },
    {
      "inputs": [],
      "name": "owner",
      "outputs": [
        {
          "internalType": "address",
          "name": "",
          "type": "address"
        }
      ],
      "stateMutability": "view",
      "type": "function"
    },
    {
      "inputs": [],
      "name": "renounceOwnership",
      "outputs": [],
      "stateMutability": "nonpayable",
      "type": "function"
    },
    {
      "inputs": [
        {
          "internalType": "address",
          "name": "newOwner",
          "type": "address"
        }
      ],
      "name": "transferOwnership",
      "outputs": [],
      "stateMutability": "nonpayable",
      "type": "function"
    },
    {
      "inputs": [
        {
          "internalType": "address",
          "name": "_InterestRateModel",
          "type": "address"
        },
        {
          "internalType": "uint256",
          "name": "_fee",
          "type": "uint256"
        },
        {
          "internalType": "uint256",
          "name": "_initialExchangeRate",
          "type": "uint256"
        }
      ],
      "name": "_setUpAHR",
      "outputs": [],
      "stateMutability": "nonpayable",
      "type": "function"
    },
    {
      "inputs": [
        {
          "internalType": "address",
          "name": "_InterestRateModel",
          "type": "address"
        },
        {
          "internalType": "uint256",
          "name": "_fee",
          "type": "uint256"
        },
        {
          "internalType": "uint256",
          "name": "_initialExchangeRate",
          "type": "uint256"
        }
      ],
      "name": "_setUpALR",
      "outputs": [],
      "stateMutability": "nonpayable",
      "type": "function"
    },
    {
      "inputs": [],
      "name": "getAssetAdd",
      "outputs": [
        {
          "internalType": "address",
          "name": "",
          "type": "address"
        }
      ],
      "stateMutability": "view",
      "type": "function"
    },
    {
      "inputs": [
        {
          "internalType": "address",
          "name": "_account",
          "type": "address"
        }
      ],
      "name": "viewLockedCollateralizedALR",
      "outputs": [
        {
          "internalType": "uint256",
          "name": "",
          "type": "uint256"
        }
      ],
      "stateMutability": "view",
      "type": "function"
    },
    {
      "inputs": [
        {
          "internalType": "uint256",
          "name": "_fee",
          "type": "uint256"
        }
      ],
      "name": "setFeeAHR",
      "outputs": [],
      "stateMutability": "nonpayable",
      "type": "function"
    },
    {
      "inputs": [
        {
          "internalType": "uint256",
          "name": "_fee",
          "type": "uint256"
        }
      ],
      "name": "setFeeALR",
      "outputs": [],
      "stateMutability": "nonpayable",
      "type": "function"
    },
    {
      "inputs": [
        {
          "internalType": "uint256",
          "name": "_payedAmount",
          "type": "uint256"
        },
        {
          "internalType": "uint256",
          "name": "_feePercent",
          "type": "uint256"
        }
      ],
      "name": "calculateFee",
      "outputs": [
        {
          "internalType": "uint256",
          "name": "",
          "type": "uint256"
        }
      ],
      "stateMutability": "view",
      "type": "function"
    },
    {
      "inputs": [
        {
          "internalType": "uint256",
          "name": "_amount",
          "type": "uint256"
        }
      ],
      "name": "lendToAHRpool",
      "outputs": [],
      "stateMutability": "nonpayable",
      "type": "function"
    },
    {
      "inputs": [
        {
          "internalType": "uint256",
          "name": "_amount",
          "type": "uint256"
        }
      ],
      "name": "lendToALRpool",
      "outputs": [],
      "stateMutability": "nonpayable",
      "type": "function"
    },
    {
      "inputs": [
        {
          "internalType": "uint256",
          "name": "_amount",
          "type": "uint256"
        },
        {
          "internalType": "address",
          "name": "_collateral",
          "type": "address"
        }
      ],
      "name": "borrow",
      "outputs": [],
      "stateMutability": "nonpayable",
      "type": "function"
    },
    {
      "inputs": [
        {
          "internalType": "uint256",
          "name": "_repayAmount",
          "type": "uint256"
        }
      ],
      "name": "repay",
      "outputs": [],
      "stateMutability": "nonpayable",
      "type": "function"
    },
    {
      "inputs": [
        {
          "internalType": "uint256",
          "name": "_amount",
          "type": "uint256"
        }
      ],
      "name": "collateralizeALR",
      "outputs": [],
      "stateMutability": "nonpayable",
      "type": "function"
    },
    {
      "inputs": [
        {
          "internalType": "uint256",
          "name": "_amount",
          "type": "uint256"
        }
      ],
      "name": "decollateralizeALR",
      "outputs": [],
      "stateMutability": "nonpayable",
      "type": "function"
    },
    {
      "inputs": [
        {
          "internalType": "address",
          "name": "_inQuestion",
          "type": "address"
        }
      ],
      "name": "checkIfALR",
      "outputs": [
        {
          "internalType": "bool",
          "name": "",
          "type": "bool"
        }
      ],
      "stateMutability": "view",
      "type": "function"
    }
  ],
  "bytecode": "0x60806040523480156200001157600080fd5b5060405162002f2f38038062002f2f833981810160405260c08110156200003757600080fd5b81516020830151604080850151606086015160808701805193519597949692959194919392820192846401000000008211156200007357600080fd5b9083019060208201858111156200008957600080fd5b8251640100000000811182820188101715620000a457600080fd5b82525081516020918201929091019080838360005b83811015620000d3578181015183820152602001620000b9565b50505050905090810190601f168015620001015780820380516001836020036101000a031916815260200191505b50604052602001805160405193929190846401000000008211156200012557600080fd5b9083019060208201858111156200013b57600080fd5b82516401000000008111828201881017156200015657600080fd5b82525081516020918201929091019080838360005b83811015620001855781810151838201526020016200016b565b50505050905090810190601f168015620001b35780820380516001836020036101000a031916815260200191505b506040525050506000620001cc620002a060201b60201c565b600080546001600160a01b0319166001600160a01b0383169081178255604051929350917f8be0079c531659141344cd1fd0a4f28419497f9722a3daafe3b4186f6b6457e0908290a350612710600155815162000231906006906020850190620002a5565b50805162000247906007906020840190620002a5565b5050600c80546001600160a01b03199081166001600160a01b0396871617909155600b80548216948616949094179093555060088054831694841694909417909355600d80549091169290911691909117905562000347565b335b90565b828054600181600116156101000203166002900490600052602060002090601f016020900481019282601f10620002e857805160ff191683800117855562000318565b8280016001018555821562000318579182015b8281111562000318578251825591602001919060010190620002fb565b50620003269291506200032a565b5090565b620002a291905b8082111562000326576000815560010162000331565b612bd880620003576000396000f3fe608060405234801561001057600080fd5b506004361061019a5760003560e01c806367612843116100e4578063c27d4df311610092578063c27d4df31461042b578063c9230c5d14610433578063cf0aea851461043b578063d162054a14610458578063dcc716bd14610460578063f2130c7014610492578063f2fde38b1461049a578063f9828b4f146104c05761019a565b806367612843146103795780636c713a15146103b3578063715018a6146103d05780637d1fc742146103d85780638da5cb5b146103fe5780639241cef21461040657806392625edb1461040e5761019a565b806322b2d4021161014c57806322b2d402146102bb57806334e73122146102d8578063371fd8e6146102fb57806338d52e0f14610318578063460bb650146103205780634b3fd148146103285780634c20ac7414610354578063551f8b011461035c5761019a565b806303438def1461019f578063045de1f8146101be57806311e2c02f146101e2578063176de7a8146101ea5780631dda0780146102675780631f2dc5ef1461026f5780631f432cf514610289575b600080fd5b6101bc600480360360208110156101b557600080fd5b50356104c8565b005b6101c6610664565b604080516001600160a01b039092168252519081900360200190f35b6101c6610673565b6101f2610682565b6040805160208082528351818301528351919283929083019185019080838360005b8381101561022c578181015183820152602001610214565b50505050905090810190601f1680156102595780820380516001836020036101000a031916815260200191505b509250505060405180910390f35b6101c6610710565b61027761071f565b60408051918252519081900360200190f35b6101bc6004803603606081101561029f57600080fd5b506001600160a01b038135169060208101359060400135610725565b6101bc600480360360208110156102d157600080fd5b5035610b68565b610277600480360360408110156102ee57600080fd5b5080359060200135610c9c565b6101bc6004803603602081101561031157600080fd5b5035610cce565b6101c66116f3565b6101c6611702565b6101bc6004803603604081101561033e57600080fd5b50803590602001356001600160a01b0316611711565b6101c6611d72565b6101bc6004803603602081101561037257600080fd5b5035611d81565b61039f6004803603602081101561038f57600080fd5b50356001600160a01b0316611dde565b604080519115158252519081900360200190f35b6101bc600480360360208110156103c957600080fd5b5035611e61565b6101bc611ebe565b610277600480360360208110156103ee57600080fd5b50356001600160a01b0316611f60565b6101c6611f7b565b6101c6611f8a565b6101bc6004803603602081101561042457600080fd5b5035611f99565b6101c661218f565b6101f261219e565b6101bc6004803603602081101561045157600080fd5b50356121f9565b6101c661232d565b6101bc6004803603606081101561047657600080fd5b506001600160a01b03813516906020810135906040013561233c565b61027761277f565b6101bc600480360360208110156104b057600080fd5b50356001600160a01b0316612785565b61027761287d565b600a546040805163d383752d60e01b81526004810184905290516000926001600160a01b03169163d383752d91602480830192602092919082900301818787803b15801561051557600080fd5b505af1158015610529573d6000803e3d6000fd5b505050506040513d602081101561053f57600080fd5b5051600a5460408051632770a7eb60e21b81523360048201526024810184905290519293506001600160a01b0390911691639dc29fac9160448082019260009290919082900301818387803b15801561059757600080fd5b505af11580156105ab573d6000803e3d6000fd5b5050600b54600a546040805163b3f643e760e01b81523360048201526001600160a01b03928316602482015260448101879052905191909216935063b3f643e79250606480830192600092919082900301818387803b15801561060d57600080fd5b505af1158015610621573d6000803e3d6000fd5b5050604080513381526020810186905281517f2ceb23d1a429a36e05e1dd6ebfeceac2b6904c032f15f7648ebd4711510a15f79450908190039091019150a15050565b6005546001600160a01b031681565b600c546001600160a01b031681565b6007805460408051602060026001851615610100026000190190941693909304601f810184900484028201840190925281815292918301828280156107085780601f106106dd57610100808354040283529160200191610708565b820191906000526020600020905b8154815290600101906020018083116106eb57829003601f168201915b505050505081565b600d546001600160a01b031681565b60015481565b600b546001600160a01b0316331461073c57600080fd5b60038290556040805163416c522d60e01b60208083019190915282518083036004018152602483019093528251839260069260449091019182918501908083835b6020831061079c5780518252601f19909201916020918201910161077d565b6001836020036101000a038019825116818451168082178552505050505050905001828054600181600116156101000203166002900480156108155780601f106107f3576101008083540402835291820191610815565b820191906000526020600020905b815481529060010190602001808311610801575b50509250505060405160208183030381529060405290506060604051602001808063416c522d60e01b815250600401905060405160208183030381529060405290508060076040516020018083805190602001908083835b6020831061088c5780518252601f19909201916020918201910161086d565b6001836020036101000a038019825116818451168082178552505050505050905001828054600181600116156101000203166002900480156109055780601f106108e3576101008083540402835291820191610905565b820191906000526020600020905b8154815290600101906020018083116108f1575b505092505050604051602081830303815290604052905060608290506060829050600d60009054906101000a90046001600160a01b03166001600160a01b0316634f84a10088600860009054906101000a90046001600160a01b0316600c60009054906101000a90046001600160a01b0316600b60009054906101000a90046001600160a01b0316878760018d6040518963ffffffff1660e01b815260040180896001600160a01b03166001600160a01b03168152602001886001600160a01b03166001600160a01b03168152602001876001600160a01b03166001600160a01b03168152602001866001600160a01b03166001600160a01b03168152602001806020018060200185151515158152602001848152602001838103835287818151815260200191508051906020019080838360005b83811015610a52578181015183820152602001610a3a565b50505050905090810190601f168015610a7f5780820380516001836020036101000a031916815260200191505b50838103825286518152865160209182019188019080838360005b83811015610ab2578181015183820152602001610a9a565b50505050905090810190601f168015610adf5780820380516001836020036101000a031916815260200191505b509a5050505050505050505050602060405180830381600087803b158015610b0657600080fd5b505af1158015610b1a573d6000803e3d6000fd5b505050506040513d6020811015610b3057600080fd5b5051600a80546001600160a01b03199081166001600160a01b0393841617918290556005805492909316911617905550505050505050565b600854600a54604080516323b872dd60e01b81523360048201526001600160a01b03928316602482015260448101859052905191909216916323b872dd9160648083019260209291908290030181600087803b158015610bc757600080fd5b505af1158015610bdb573d6000803e3d6000fd5b505050506040513d6020811015610bf157600080fd5b5050600a54604080516340c10f1960e01b81523360048201526024810184905290516001600160a01b03909216916340c10f199160448082019260009290919082900301818387803b158015610c4657600080fd5b505af1158015610c5a573d6000803e3d6000fd5b5050604080513381526020810185905281517f7328ca2a2e824164ca6ec3121966d63601356d01901d9a5d2ee466cb726d1e3c9450908190039091019150a150565b600080610cc4600154610cb8858761288390919063ffffffff16565b9063ffffffff6128e316565b9150505b92915050565b600a54604080516305eff7ef60e21b815233600482015290516000926001600160a01b0316916317bfdfbc91602480830192602092919082900301818787803b158015610d1a57600080fd5b505af1158015610d2e573d6000803e3d6000fd5b505050506040513d6020811015610d4457600080fd5b5051600954604080516305eff7ef60e21b815233600482015290519293506000926001600160a01b03909216916317bfdfbc9160248082019260209290919082900301818787803b158015610d9857600080fd5b505af1158015610dac573d6000803e3d6000fd5b505050506040513d6020811015610dc257600080fd5b505190506000610dd8838363ffffffff61292516565b905080841115610e23576040805162461bcd60e51b81526020600482015260116024820152700a4cae0c2f2d2dcce40e8dede40daeac6d607b1b604482015290519081900360640190fd5b60008085611081578415610f3f57600854600a54604080516323b872dd60e01b81523360048201526001600160a01b03928316602482015260448101899052905191909216916323b872dd9160648083019260209291908290030181600087803b158015610e9057600080fd5b505af1158015610ea4573d6000803e3d6000fd5b505050506040513d6020811015610eba57600080fd5b5050600a54604080516369a5e8cf60e01b81526004810188905233602482015290516001600160a01b03909216916369a5e8cf916044808201926020929091908290030181600087803b158015610f1057600080fd5b505af1158015610f24573d6000803e3d6000fd5b505050506040513d6020811015610f3a57600080fd5b505190505b600854600954604080516323b872dd60e01b81523360048201526001600160a01b03928316602482015260448101889052905191909216916323b872dd9160648083019260209291908290030181600087803b158015610f9e57600080fd5b505af1158015610fb2573d6000803e3d6000fd5b505050506040513d6020811015610fc857600080fd5b5050600954604080516369a5e8cf60e01b81526004810187905233602482015290516001600160a01b03909216916369a5e8cf916044808201926020929091908290030181600087803b15801561101e57600080fd5b505af1158015611032573d6000803e3d6000fd5b505050506040513d602081101561104857600080fd5b505160408051338152602081018790528082018890529051919350600080516020612b83833981519152919081900360600190a1611576565b8415611438578585106111d057600854600a54604080516323b872dd60e01b81523360048201526001600160a01b039283166024820152604481018a9052905191909216916323b872dd9160648083019260209291908290030181600087803b1580156110ed57600080fd5b505af1158015611101573d6000803e3d6000fd5b505050506040513d602081101561111757600080fd5b5050600a54604080516369a5e8cf60e01b81526004810189905233602482015290516001600160a01b03909216916369a5e8cf916044808201926020929091908290030181600087803b15801561116d57600080fd5b505af1158015611181573d6000803e3d6000fd5b505050506040513d602081101561119757600080fd5b505160408051338152600060208201528082018990529051919250600080516020612b83833981519152919081900360600190a1611433565b60006111e2878763ffffffff61297f16565b600854600a54604080516323b872dd60e01b81523360048201526001600160a01b039283166024820152604481018b905290519394509116916323b872dd916064808201926020929091908290030181600087803b15801561124357600080fd5b505af1158015611257573d6000803e3d6000fd5b505050506040513d602081101561126d57600080fd5b5050600a54604080516369a5e8cf60e01b815260006004820181905233602483015291516001600160a01b03909316926369a5e8cf92604480840193602093929083900390910190829087803b1580156112c657600080fd5b505af11580156112da573d6000803e3d6000fd5b505050506040513d60208110156112f057600080fd5b5051600854600954604080516323b872dd60e01b81523360048201526001600160a01b0392831660248201526044810186905290519395509116916323b872dd916064808201926020929091908290030181600087803b15801561135357600080fd5b505af1158015611367573d6000803e3d6000fd5b505050506040513d602081101561137d57600080fd5b5050600954604080516369a5e8cf60e01b81526004810184905233602482015290516001600160a01b03909216916369a5e8cf916044808201926020929091908290030181600087803b1580156113d357600080fd5b505af11580156113e7573d6000803e3d6000fd5b505050506040513d60208110156113fd57600080fd5b505160408051338152602081018390528082018590529051919450600080516020612b83833981519152919081900360600190a1505b611576565b600854600954604080516323b872dd60e01b81523360048201526001600160a01b03928316602482015260448101869052905191909216916323b872dd9160648083019260209291908290030181600087803b15801561149757600080fd5b505af11580156114ab573d6000803e3d6000fd5b505050506040513d60208110156114c157600080fd5b5050600954604080516369a5e8cf60e01b81526004810189905233602482015290516001600160a01b03909216916369a5e8cf916044808201926020929091908290030181600087803b15801561151757600080fd5b505af115801561152b573d6000803e3d6000fd5b505050506040513d602081101561154157600080fd5b505160408051338152602081018390526000818301529051919350600080516020612b83833981519152919081900360600190a15b611586848363ffffffff61297f16565b1580156115a0575061159e858263ffffffff61297f16565b155b156116eb57600b54336000818152600f6020908152604080832054600e909252808320548151632c8bad0f60e01b815260048101959095526001600160a01b039283166024860152604485015251931692632c8bad0f92606480820193929182900301818387803b15801561161457600080fd5b505af1158015611628573d6000803e3d6000fd5b5050600b54336000818152600f6020908152604080832054600e90925280832054815163b3f643e760e01b815260048101959095526001600160a01b0392831660248601526044850152519316945063b3f643e79350606480830193919282900301818387803b15801561169b57600080fd5b505af11580156116af573d6000803e3d6000fd5b5050336000908152600f6020908152604080832080546001600160a01b031916905560108252808320805460ff19169055600e90915281205550505b505050505050565b6008546001600160a01b031681565b6004546001600160a01b031681565b336000908152600f60205260409020546001600160a01b038281169116148061174a57503360009081526010602052604090205460ff16155b61175357600080fd5b61175b612ac1565b600b5460408051636012b43160e01b81523360048201526001600160a01b03858116602483015291519190921691636012b4319160448083019260209291908290030181600087803b1580156117b057600080fd5b505af11580156117c4573d6000803e3d6000fd5b505050506040513d60208110156117da57600080fd5b50518152600954604080516305eff7ef60e21b815233600482015290516001600160a01b03909216916317bfdfbc916024808201926020929091908290030181600087803b15801561182b57600080fd5b505af115801561183f573d6000803e3d6000fd5b505050506040513d602081101561185557600080fd5b5051602082810191909152600a54604080516305eff7ef60e21b815233600482015290516001600160a01b03909216926317bfdfbc926024808401938290030181600087803b1580156118a757600080fd5b505af11580156118bb573d6000803e3d6000fd5b505050506040513d60208110156118d157600080fd5b5051604082018190526118ff906118ee908563ffffffff61292516565b60208301519063ffffffff61292516565b60608201819052600c546008546040805163513396f760e11b81526001600160a01b03928316600482015260248101949094525191169163a2672dee916044808301926020929190829003018186803b15801561195b57600080fd5b505afa15801561196f573d6000803e3d6000fd5b505050506040513d602081101561198557600080fd5b505160a0820152600c546008546040805163513396f760e11b81526001600160a01b039283166004820152602481018790529051919092169163a2672dee916044808301926020929190829003018186803b1580156119e357600080fd5b505afa1580156119f7573d6000803e3d6000fd5b505050506040513d6020811015611a0d57600080fd5b505160c0820181905260408051635f27adbd60e01b815260048101929092525183916001600160a01b03831691635f27adbd916024808201926020929091908290030181600087803b158015611a6257600080fd5b505af1158015611a76573d6000803e3d6000fd5b505050506040513d6020811015611a8c57600080fd5b505160e083015260a0820151611aa990600263ffffffff6128e316565b610100830181905260a0830151611ac59163ffffffff61292516565b610120830181905282511015611ada57600080fd5b611aeb84600263ffffffff6128e316565b610140830152600b5460e08301516040805163ee82616160e01b81523360048201526001600160a01b03878116602483015260448201939093529051919092169163ee82616191606480830192600092919082900301818387803b158015611b5257600080fd5b505af1158015611b66573d6000803e3d6000fd5b5050600b5460e085015160408051636a8394ad60e01b81523360048201526001600160a01b03898116602483015260448201939093529051919092169350636a8394ad9250606480830192600092919082900301818387803b158015611bcb57600080fd5b505af1158015611bdf573d6000803e3d6000fd5b5050505060e0820151336000908152600e6020526040902054611c0191612925565b336000818152600e6020908152604080832094909455600f815283822080546001600160a01b0319166001600160a01b03898116919091179091556010909152838220805460ff191660011790556009546101408701518551630967fa2960e31b8152600481019190915260248101949094529351931692634b3fd14892604480820193929182900301818387803b158015611c9c57600080fd5b505af1158015611cb0573d6000803e3d6000fd5b5050600a5461014085015160408051630967fa2960e31b81526004810192909252336024830152516001600160a01b039092169350634b3fd148925060448082019260009290919082900301818387803b158015611d0d57600080fd5b505af1158015611d21573d6000803e3d6000fd5b505050610140830151604080513381526020810183905280820192909252517fe1979fe4c35e0cef342fef5668e2c8e7a7e9f5d5d1ca8fee0ac6c427fa4153af92509081900360600190a150505050565b6008546001600160a01b031690565b611d896129c1565b6000546001600160a01b03908116911614611dd9576040805162461bcd60e51b81526020600482018190526024820152600080516020612b63833981519152604482015290519081900360640190fd5b600355565b600b5460408051630dc9cacd60e01b81526001600160a01b03848116600483015291516000939290921691630dc9cacd91602480820192602092909190829003018186803b158015611e2f57600080fd5b505afa158015611e43573d6000803e3d6000fd5b505050506040513d6020811015611e5957600080fd5b505192915050565b611e696129c1565b6000546001600160a01b03908116911614611eb9576040805162461bcd60e51b81526020600482018190526024820152600080516020612b63833981519152604482015290519081900360640190fd5b600255565b611ec66129c1565b6000546001600160a01b03908116911614611f16576040805162461bcd60e51b81526020600482018190526024820152600080516020612b63833981519152604482015290519081900360640190fd5b600080546040516001600160a01b03909116907f8be0079c531659141344cd1fd0a4f28419497f9722a3daafe3b4186f6b6457e0908390a3600080546001600160a01b0319169055565b6001600160a01b03166000908152600e602052604090205490565b6000546001600160a01b031690565b6009546001600160a01b031681565b600a546040805163d383752d60e01b81526004810184905290516000926001600160a01b03169163d383752d91602480830192602092919082900301818787803b158015611fe657600080fd5b505af1158015611ffa573d6000803e3d6000fd5b505050506040513d602081101561201057600080fd5b5051600b54600a5460408051636d497ec560e11b81523360048201526001600160a01b0392831660248201529051939450600093919092169163da92fd8a916044808301926020929190829003018186803b15801561206e57600080fd5b505afa158015612082573d6000803e3d6000fd5b505050506040513d602081101561209857600080fd5b50519050808211156120a957600080fd5b600b54600a5460408051636a8394ad60e01b81523360048201526001600160a01b0392831660248201526044810186905290519190921691636a8394ad91606480830192600092919082900301818387803b15801561210757600080fd5b505af115801561211b573d6000803e3d6000fd5b5050600a54604080516340c10f1960e01b81523360048201526024810187905290516001600160a01b0390921693506340c10f19925060448082019260009290919082900301818387803b15801561217257600080fd5b505af1158015612186573d6000803e3d6000fd5b50505050505050565b600a546001600160a01b031681565b6006805460408051602060026001851615610100026000190190941693909304601f810184900484028201840190925281815292918301828280156107085780601f106106dd57610100808354040283529160200191610708565b600854600954604080516323b872dd60e01b81523360048201526001600160a01b03928316602482015260448101859052905191909216916323b872dd9160648083019260209291908290030181600087803b15801561225857600080fd5b505af115801561226c573d6000803e3d6000fd5b505050506040513d602081101561228257600080fd5b5050600954604080516340c10f1960e01b81523360048201526024810184905290516001600160a01b03909216916340c10f199160448082019260009290919082900301818387803b1580156122d757600080fd5b505af11580156122eb573d6000803e3d6000fd5b5050604080513381526020810185905281517f0f82438f3b5c78264c4b6dce428942fd963308db5c690635d87bc654cb811d339450908190039091019150a150565b600b546001600160a01b031681565b600b546001600160a01b0316331461235357600080fd5b600282905560408051634148522d60e01b60208083019190915282518083036004018152602483019093528251839260069260449091019182918501908083835b602083106123b35780518252601f199092019160209182019101612394565b6001836020036101000a0380198251168184511680821785525050505050509050018280546001816001161561010002031660029004801561242c5780601f1061240a57610100808354040283529182019161242c565b820191906000526020600020905b815481529060010190602001808311612418575b505092505050604051602081830303815290604052905060606040516020018080634148522d60e01b815250600401905060405160208183030381529060405290508060076040516020018083805190602001908083835b602083106124a35780518252601f199092019160209182019101612484565b6001836020036101000a0380198251168184511680821785525050505050509050018280546001816001161561010002031660029004801561251c5780601f106124fa57610100808354040283529182019161251c565b820191906000526020600020905b815481529060010190602001808311612508575b505092505050604051602081830303815290604052905060608290506060829050600d60009054906101000a90046001600160a01b03166001600160a01b0316634f84a10088600860009054906101000a90046001600160a01b0316600c60009054906101000a90046001600160a01b0316600b60009054906101000a90046001600160a01b0316878760008d6040518963ffffffff1660e01b815260040180896001600160a01b03166001600160a01b03168152602001886001600160a01b03166001600160a01b03168152602001876001600160a01b03166001600160a01b03168152602001866001600160a01b03166001600160a01b03168152602001806020018060200185151515158152602001848152602001838103835287818151815260200191508051906020019080838360005b83811015612669578181015183820152602001612651565b50505050905090810190601f1680156126965780820380516001836020036101000a031916815260200191505b50838103825286518152865160209182019188019080838360005b838110156126c95781810151838201526020016126b1565b50505050905090810190601f1680156126f65780820380516001836020036101000a031916815260200191505b509a5050505050505050505050602060405180830381600087803b15801561271d57600080fd5b505af1158015612731573d6000803e3d6000fd5b505050506040513d602081101561274757600080fd5b5051600980546001600160a01b03199081166001600160a01b0393841617918290556004805492909316911617905550505050505050565b60025481565b61278d6129c1565b6000546001600160a01b039081169116146127dd576040805162461bcd60e51b81526020600482018190526024820152600080516020612b63833981519152604482015290519081900360640190fd5b6001600160a01b0381166128225760405162461bcd60e51b8152600401808060200182810382526026815260200180612b1c6026913960400191505060405180910390fd5b600080546040516001600160a01b03808516939216917f8be0079c531659141344cd1fd0a4f28419497f9722a3daafe3b4186f6b6457e091a3600080546001600160a01b0319166001600160a01b0392909216919091179055565b60035481565b60008261289257506000610cc8565b8282028284828161289f57fe5b04146128dc5760405162461bcd60e51b8152600401808060200182810382526021815260200180612b426021913960400191505060405180910390fd5b9392505050565b60006128dc83836040518060400160405280601a81526020017f536166654d6174683a206469766973696f6e206279207a65726f0000000000008152506129c5565b6000828201838110156128dc576040805162461bcd60e51b815260206004820152601b60248201527f536166654d6174683a206164646974696f6e206f766572666c6f770000000000604482015290519081900360640190fd5b60006128dc83836040518060400160405280601e81526020017f536166654d6174683a207375627472616374696f6e206f766572666c6f770000815250612a67565b3390565b60008183612a515760405162461bcd60e51b81526004018080602001828103825283818151815260200191508051906020019080838360005b83811015612a165781810151838201526020016129fe565b50505050905090810190601f168015612a435780820380516001836020036101000a031916815260200191505b509250505060405180910390fd5b506000838581612a5d57fe5b0495945050505050565b60008184841115612ab95760405162461bcd60e51b8152602060048201818152835160248401528351909283926044909101919085019080838360008315612a165781810151838201526020016129fe565b505050900390565b6040518061016001604052806000815260200160008152602001600081526020016000815260200160008152602001600081526020016000815260200160008152602001600081526020016000815260200160008152509056fe4f776e61626c653a206e6577206f776e657220697320746865207a65726f2061646472657373536166654d6174683a206d756c7469706c69636174696f6e206f766572666c6f774f776e61626c653a2063616c6c6572206973206e6f7420746865206f776e65722a6c148cdc9347a81dfbfe504afb64ea0aeca1114171ef18a3e11cb1fda8b3a6a26469706673582212207518e64b3e8a671d8d1de8cc53950874b64eec2ae56003381cf8c3cdf4e8ec9e64736f6c63430006060033",
  "immutableReferences": {},
  "source": "pragma solidity ^0.6.0;\n\nimport \"openzeppelin-solidity/contracts/access/Ownable.sol\";\nimport \"openzeppelin-solidity/contracts/math/SafeMath.sol\";\nimport \"openzeppelin-solidity/contracts/token/ERC20/IERC20.sol\";\nimport \"./compound/Exponential.sol\";\nimport \"./interfaces/UniswapOracleFactoryI.sol\";\nimport \"./interfaces/MoneyMarketFactoryI.sol\";\nimport \"./interfaces/AskoRiskTokenI.sol\";\nimport \"./interfaces/ARTFactoryI.sol\";\n\n////////////////////////////////////////////////////////////////////////////////////////////\n/// @title MoneyMarketInstance\n/// @author Christopher Dixon\n////////////////////////////////////////////////////////////////////////////////////////////\n/**\nThe MoneyMarketInstance contract is designed facilitate a tiered money market for an individual ERC20 asset\nThis contract uses the OpenZeppelin contract Library to inherit functions from\n  Ownable.sol && IRC20.sol\n**/\ncontract MoneyMarketInstance is Ownable, Exponential {\n    using SafeMath for uint256;\n\n    uint256 public divisor;\n    uint256 public fee_AHR;\n    uint256 public fee_ALR;\n    address public ahr;\n    address public alr;\n\n    string public assetName;\n    string public assetSymbol;\n\n    IERC20 public asset;\n    AskoRiskTokenI public AHR;\n    AskoRiskTokenI public ALR;\n    MoneyMarketFactoryI public MMF;\n    UniswapOracleFactoryI public UOF;\n    ARTFactoryI public ARTF;\n\n    mapping(address => uint256) lockedCollateral;\n    mapping(address => address) collateralLockedALR;\n    mapping(address => bool) cantCollateralize;\n    /**\n@notice onlyMMFactory is a modifier used to make a function only callable by the Money Market Factory contract\n**/\n    modifier onlyMMFactory() {\n        require(msg.sender == address(MMF));\n        _;\n    }\n\n    event LentToAHR(address lender, uint256 amount);\n    event LentToALR(address lender, uint256 amount);\n    event Borrow(address borrower, uint256 AHRamount, uint256 ALRamount);\n    event Repayed(address borrower, uint256 AHRamount, uint256 ALRamount);\n    event Collateralized(address collateralizer, uint256 amount);\n\n    /**\n@notice the constructor function is fired during the contract deployment process. The constructor can only be fired once and\n        is used to initialize the MoneyMakerInstance and deploy its associated AHR && ALR token contracts\n@param _assetContractAdd is the address of the ERC20 asset being whitelisted\n@param _assetName is the name of the asset(e.x: ChainLink)\n@param _assetSymbol is the symbol of the asset(e.x: LINK)\n@dev this function uses ABI encoding to properly concatenate AHR- && ALR- in front of the tokens name and symbol\n      before creating each token.\n**/\n    constructor(\n        address _assetContractAdd,\n        address _oracleFactory,\n        address _owner,\n        address _ARTF,\n        string memory _assetName,\n        string memory _assetSymbol\n    ) public {\n        divisor = 10000;\n        assetName = _assetName;\n        assetSymbol = _assetSymbol;\n        UOF = UniswapOracleFactoryI(_oracleFactory);\n        MMF = MoneyMarketFactoryI(_owner);\n        asset = IERC20(_assetContractAdd);\n        ARTF = ARTFactoryI(_ARTF);\n    }\n\n    /**\n@notice setUp is called by the MoneyMarketFactory after a contract is created to set up the initial variables.\n        This is split from the constructor function to keep from reaching the gas block limit\n@param  _InterestRateModel is the address of this MoneyMarketInstances InterestRateModel\n@param _fee is a number representing the fee for exchanging an AHR token, as a mantissa (scaled by 1e18)\n@dev this function will create a token whos name and symbol is concatenated with a \"AHR-\" in front of it\n      example: AHR-LINK\n@dev asset.approve() is called to allow the AHR contract to freeely transfer the assset from this contract when the mint\n      lendToAHRpool function is called.\n**/\n    function _setUpAHR(\n        address _InterestRateModel,\n        uint256 _fee,\n        uint256 _initialExchangeRate\n    ) public onlyMMFactory {\n        fee_AHR = _fee;\n        bytes memory ahrname = abi.encodePacked(\"AHR-\");\n        ahrname = abi.encodePacked(ahrname, assetName);\n        //abi encode and concat strings\n        bytes memory ahrsymbol = abi.encodePacked(\"AHR-\");\n        ahrsymbol = abi.encodePacked(ahrsymbol, assetSymbol);\n        //abi encode and concat strings\n        string memory assetNameAHR = string(ahrname);\n        string memory assetSymbolAHR = string(ahrsymbol);\n        //un-encode concated string\n        AHR = AskoRiskTokenI(\n            ARTF.createART( //creates new Asko High Risk Token Contract\n                _InterestRateModel,\n                address(asset),\n                address(UOF),\n                address(MMF),\n                assetNameAHR,\n                assetSymbolAHR,\n                false,\n                _initialExchangeRate\n            )\n        );\n        ahr = address(AHR);\n    }\n\n    /**\n@notice setUp is called by the MoneyMarketFactory after a contract is created to set up the initial variables.\n        This is split from the constructor function to keep from reaching the gas block limit\n@param  _InterestRateModel is the address of this MoneyMarketInstances InterestRateModel\n@param _fee is a number representing the fee for exchanging an ALR token, as a mantissa (scaled by 1e18)\n@dev this function will create a token whos name and symbol is concatenated with a \"ALR-\" in front of it\n      example: ALR-LINK\n@dev asset.approve() is called to allow the ALR contract to freeely transfer the assset from this contract when the mint\n      lendToALRpool function is called.\n**/\n    function _setUpALR(\n        address _InterestRateModel,\n        uint256 _fee,\n        uint256 _initialExchangeRate\n    ) public onlyMMFactory {\n        fee_ALR = _fee;\n        bytes memory alrname = abi.encodePacked(\"AlR-\");\n        alrname = abi.encodePacked(alrname, assetName);\n        //abi encode and concat strings\n        bytes memory alrsymbol = abi.encodePacked(\"AlR-\");\n        alrsymbol = abi.encodePacked(alrsymbol, assetSymbol);\n        //abi encode and concat strings\n        string memory assetNameALR = string(alrname);\n        string memory assetSymbolALR = string(alrsymbol);\n        //un-encode concated string\n        ALR = AskoRiskTokenI(\n            ARTF.createART( //creates new Asko High Risk Token Contract\n                _InterestRateModel,\n                address(asset),\n                address(UOF),\n                address(MMF),\n                assetNameALR,\n                assetSymbolALR,\n                true,\n                _initialExchangeRate\n            )\n        );\n        alr = address(ALR);\n    }\n\n    /**\n@notice getAssetAdd allows for easy retrieval of a Money Markets underlying asset's address\n**/\n    function getAssetAdd() public view returns (address) {\n        return address(asset);\n    }\n\n    function viewLockedCollateralizedALR(address _account)\n        public\n        view\n        returns (uint256)\n    {\n        return lockedCollateral[_account];\n    }\n\n    /**\n  @notice setFee allows the owner of this contract to set the fee\n  @param  _fee is the input number representing the fee\n  @dev the divisor is set to 10,000 in the constructor for this contract. this allows for\n        a fee percentage accounting for two decimal places. feePercent must account for this when being set.\n        The following examples show feePercent amounts and how they equate to percentages:\n                EX:\n                    a 1% fee would be set as feePercent = 100\n                    a .5% fee would be set as feePercent = 50\n                    a 50% fee would be set as feePercent = 5000\n  **/\n    function setFeeAHR(uint256 _fee) public onlyOwner {\n        fee_AHR = _fee;\n    }\n\n    /**\n  @notice setFee allows the owner of this contract to set the fee\n  @param  _fee is the input number representing the fee\n  @dev the divisor is set to 10,000 in the constructor for this contract. this allows for\n        a fee percentage accounting for two decimal places. feePercent must account for this when being set.\n        The following examples show feePercent amounts and how they equate to percentages:\n                EX:\n                    a 1% fee would be set as feePercent = 100\n                    a .5% fee would be set as feePercent = 50\n                    a 50% fee would be set as feePercent = 5000\n  **/\n    function setFeeALR(uint256 _fee) public onlyOwner {\n        fee_ALR = _fee;\n    }\n\n    /**\n  @notice calculateFee is used to calculate the fee earned\n  @param _payedAmount is a uint representing the full amount of an ERC20 asset payed\n  @dev the divisor is set to 10,000 in the constructor for this contract. this allows for\n        a fee percentage accounting for two decimal places. feePercent must account for this when being set.\n        The following examples show feePercent amounts and how they equate to percentages:\n                EX:\n                    a 1% fee would be set as feePercent = 100\n                    a .5% fee would be set as feePercent = 50\n                    a 50% fee would be set as feePercent = 5000\n  **/\n    function calculateFee(uint256 _payedAmount, uint256 _feePercent)\n        public\n        view\n        returns (uint256)\n    {\n        uint256 fee = _payedAmount.mul(_feePercent).div(divisor);\n        return fee;\n    }\n\n    /**\n@notice lendToAHRpool is used to lend assets to a MoneyMarketInstance's High Risk pool\n@param _amount is the amount of the asset being lent\n@dev the user will need to first approve the transfer of the underlying asset\n**/\n    function lendToAHRpool(uint256 _amount) public {\n        //transfer appropriate amount off the asset from msg.sender to the AHR contract\n        asset.transferFrom(msg.sender, address(AHR), _amount);\n        //call mint function on AHR contract\n        AHR.mint(msg.sender, _amount);\n        emit LentToAHR(msg.sender, _amount);\n    }\n\n    /**\n@notice lendToAHRpool is used to lend assets to a MoneyMarketInstance's Low Risk pool\n@param _amount is the amount of the asset being lent\n@dev the user will need to first approve the transfer of the underlying asset\n**/\n    function lendToALRpool(uint256 _amount) public {\n        //transfer appropriate amount off the asset from msg.sender to the AHR contract\n        asset.transferFrom(msg.sender, address(ALR), _amount);\n        //call mint function on ALR contract\n        ALR.mint(msg.sender, _amount);\n        emit LentToALR(msg.sender, _amount);\n    }\n\n    //struct used to avoid stack too deep errors\n    struct borrowVars {\n        uint256 collateralValue;\n        uint256 borrowBalAHR;\n        uint256 borrowBalALR;\n        uint256 totalFutureAmountOwed;\n        uint256 priceOfAsset;\n        uint256 assetAmountValOwed;\n        uint256 amountValue; // Note: reverts on error\n        uint256 amountOfALR;\n        uint256 halfVal;\n        uint256 collateralNeeded;\n        uint256 half;\n    }\n\n    /**\n@notice borrow is used to take out a loan from in MoneyMarketInstance's underlying asset\n@param _amount is the amount of asset being barrowed\n@param _collateral is the address of the ALR token being used as collateral\n**/\n    function borrow(uint256 _amount, address _collateral) public {\n        //require that the collateral a user is looking to use is the same as the type they already have a loan in\n        //OR that their cantCollateralize mapping is false\n        require(\n            _collateral == collateralLockedALR[msg.sender] ||\n                cantCollateralize[msg.sender] == false\n        );\n        borrowVars memory vars;\n        //check that the user has enough collateral in input money market\n        //this returns the USDC price of their asset\n\n        vars.collateralValue = MMF.checkAvailibleCollateralValue(\n            msg.sender,\n            _collateral\n        );\n\n        //get current borrow balances for each ART\n        vars.borrowBalAHR = AHR.borrowBalanceCurrent(msg.sender);\n        vars.borrowBalALR = ALR.borrowBalanceCurrent(msg.sender);\n        //calculate the new amount that would be owed if borrow suceeds\n        vars.totalFutureAmountOwed = vars.borrowBalAHR.add(\n            vars.borrowBalALR.add(_amount)\n        );\n        //check current asset USDC value of whats owed\n        vars.assetAmountValOwed = UOF.getUnderlyingPriceofAsset(\n            address(asset),\n            vars.totalFutureAmountOwed\n        );\n        //get USDC value of _amount\n        vars.amountValue = UOF.getUnderlyingPriceofAsset(\n            address(asset),\n            _amount\n        );\n        //instantiate collateral ALR contract\n        AskoRiskTokenI collateALR = AskoRiskTokenI(_collateral);\n        //get collateral ALR amount for\n        vars.amountOfALR = collateALR.getUSDCWorthOfART(vars.amountValue);\n        //divide amount value by 3\n        vars.halfVal = vars.assetAmountValOwed.div(2);\n        //add 1/2 value to asset value to get 150% asset value\n        vars.collateralNeeded = vars.assetAmountValOwed.add(vars.halfVal);\n        //require collateral value to be greater than 150% of the amount value of loan\n        require(vars.collateralValue >= vars.collateralNeeded);\n        //cut amount of tokens in half\n        vars.half = _amount.div(2);\n        //lock the collateral needed for this loan so it cant be \"double spent\"\n        MMF.lockCollateral(msg.sender, _collateral, vars.amountOfALR);\n        MMF.trackCollateralDown(msg.sender, _collateral, vars.amountOfALR);\n        //track locked amount\n        lockedCollateral[msg.sender] = lockedCollateral[msg.sender].add(\n            vars.amountOfALR\n        );\n        //track which ALR is locked\n        collateralLockedALR[msg.sender] = _collateral;\n        cantCollateralize[msg.sender] = true;\n        //borrow half from each pool\n        AHR.borrow(vars.half, msg.sender);\n        ALR.borrow(vars.half, msg.sender);\n        emit Borrow(msg.sender, vars.half, vars.half);\n    }\n\n    /**\n@notice repay is used to repay a loan\n@param _repayAmount is the amount of the underlying asset being repayed\n**/\n    function repay(uint256 _repayAmount) public {\n        //get their current owed balance of ALR\n        uint256 accountBorrowsALR = ALR.borrowBalanceCurrent(msg.sender);\n        uint256 accountBorrowsAHR = AHR.borrowBalanceCurrent(msg.sender);\n        uint256 totalBorrows = accountBorrowsALR.add(accountBorrowsAHR);\n        require(_repayAmount <= totalBorrows, \"Repaying too much\");\n        uint256 payAmountAHR;\n        uint256 payAmountALR;\n\n        ///////////////repay all///////////////\n        if (_repayAmount == 0) {\n            if (accountBorrowsALR != 0) {\n                asset.transferFrom(msg.sender, address(ALR), accountBorrowsALR);\n                payAmountALR = ALR.repayBorrow(accountBorrowsALR, msg.sender); // repay amount to ALR\n            }\n            asset.transferFrom(msg.sender, address(AHR), accountBorrowsAHR);\n            payAmountAHR = AHR.repayBorrow(accountBorrowsAHR, msg.sender); //pay off towards AHR\n            emit Repayed(msg.sender, accountBorrowsAHR, accountBorrowsALR);\n        } else {\n            ///////////////repay ALR///////////////////\n            if (accountBorrowsALR != 0) {\n                //if amount owed to ALR isnt zero\n                if (accountBorrowsALR >= _repayAmount) {\n                    //if repay amount is less than whats owed in ALR\n                    //transfer asset from the user to this contract\n                    asset.transferFrom(msg.sender, address(ALR), _repayAmount);\n                    payAmountALR = ALR.repayBorrow(_repayAmount, msg.sender); // repay amount to ALR\n\n                    emit Repayed(msg.sender, 0, _repayAmount);\n                } else {\n                    ///////////////repay all of ALR && some AHR///////////////////\n                    //if repay amount is MORE than ALR owed\n                    uint256 amountToAHR = _repayAmount.sub(accountBorrowsALR); //calculate amount going to AHR\n                    asset.transferFrom(\n                        msg.sender,\n                        address(ALR),\n                        accountBorrowsALR\n                    ); //transfer remaining ALR bal to ALR\n                    payAmountALR = ALR.repayBorrow(0, msg.sender); //pay off ALR\n                    asset.transferFrom(msg.sender, address(AHR), amountToAHR); // transfer remaining payment amount to AHR\n                    payAmountAHR = AHR.repayBorrow(amountToAHR, msg.sender); //pay off towards AHR\n                    //if payAmountAHR is greater than 0 transfer asset from the user to the AHR contract\n                    emit Repayed(msg.sender, payAmountAHR, payAmountALR);\n                }\n            } else {\n                //if amount owed to ALR is zero\n                //transfer asset from the user to this contract\n                asset.transferFrom(msg.sender, address(AHR), payAmountAHR);\n                payAmountAHR = AHR.repayBorrow(_repayAmount, msg.sender); //pay towards AHR\n                emit Repayed(msg.sender, payAmountAHR, 0);\n            }\n        }\n        //////////////fully repayed logic/////////////\n        if (\n            accountBorrowsAHR.sub(payAmountAHR) == 0 &&\n            accountBorrowsALR.sub(payAmountALR) == 0\n        ) {\n            //if the loan is fully payed off\n            //unlock the users locked collateral for this loan\n            MMF.unlockCollateral(\n                msg.sender,\n                collateralLockedALR[msg.sender],\n                lockedCollateral[msg.sender]\n            );\n\n            MMF.trackCollateralUp(\n                msg.sender,\n                collateralLockedALR[msg.sender],\n                lockedCollateral[msg.sender]\n            );\n            //reset collateralLockedALR address to zero so the user can use a different ALR address in future borrows\n            collateralLockedALR[msg.sender] = address(0);\n            cantCollateralize[msg.sender] = false;\n            //reset locked collateral amount\n            lockedCollateral[msg.sender] = 0;\n        }\n    }\n\n    /**\n@notice collateralizeALR allows a user to collateralize the ALR they hold in a specific money market\n@param _amount is the amount of asset being collateralized\n**/\n    function collateralizeALR(uint256 _amount) public {\n        uint256 alrVal = ALR.convertToART(_amount);\n        ALR.burn(msg.sender, alrVal);\n        MMF.trackCollateralUp(msg.sender, address(ALR), alrVal);\n        emit Collateralized(msg.sender, _amount);\n    }\n\n    function decollateralizeALR(uint256 _amount) public {\n        uint256 alrVal = ALR.convertToART(_amount);\n        uint256 availibleCollateral = MMF.checkCollateralizedALR(\n            msg.sender,\n            address(ALR)\n        );\n        require(alrVal <= availibleCollateral);\n        MMF.trackCollateralDown(msg.sender, address(ALR), alrVal);\n        ALR.mint(msg.sender, alrVal);\n    }\n\n    /**\n@notice allowa an ALR to check if the address calling it is anothe ALR\n**/\n\n    function checkIfALR(address _inQuestion) public view returns (bool) {\n        return MMF._checkIfALR(_inQuestion);\n    }\n}\n",
  "sourcePath": "/home/stan36/repos/Askolend/AskoLend-contracts/contracts/MoneyMarketInstance.sol",
  "compiler": {
    "name": "solc",
    "version": "0.6.6+commit.6c089d02.Emscripten.clang"
  },
  "schemaVersion": "3.3.2",
  "updatedAt": "2020-12-04T05:13:09.242Z",
  "devdoc": {
    "methods": {
      "_setUpAHR(address,uint256,uint256)": {
        "details": "this function will create a token whos name and symbol is concatenated with a \"AHR-\" in front of it example: AHR-LINKasset.approve() is called to allow the AHR contract to freeely transfer the assset from this contract when the mint lendToAHRpool function is called.*",
        "params": {
          "_InterestRateModel": "is the address of this MoneyMarketInstances InterestRateModel",
          "_fee": "is a number representing the fee for exchanging an AHR token, as a mantissa (scaled by 1e18)"
        }
      },
      "_setUpALR(address,uint256,uint256)": {
        "details": "this function will create a token whos name and symbol is concatenated with a \"ALR-\" in front of it example: ALR-LINKasset.approve() is called to allow the ALR contract to freeely transfer the assset from this contract when the mint lendToALRpool function is called.*",
        "params": {
          "_InterestRateModel": "is the address of this MoneyMarketInstances InterestRateModel",
          "_fee": "is a number representing the fee for exchanging an ALR token, as a mantissa (scaled by 1e18)"
        }
      },
      "borrow(uint256,address)": {
        "params": {
          "_amount": "is the amount of asset being barrowed",
          "_collateral": "is the address of the ALR token being used as collateral*"
        }
      },
      "calculateFee(uint256,uint256)": {
        "details": "the divisor is set to 10,000 in the constructor for this contract. this allows for a fee percentage accounting for two decimal places. feePercent must account for this when being set. The following examples show feePercent amounts and how they equate to percentages: EX: a 1% fee would be set as feePercent = 100 a .5% fee would be set as feePercent = 50 a 50% fee would be set as feePercent = 5000*",
        "params": {
          "_payedAmount": "is a uint representing the full amount of an ERC20 asset payed"
        }
      },
      "collateralizeALR(uint256)": {
        "params": {
          "_amount": "is the amount of asset being collateralized*"
        }
      },
      "constructor": {
        "details": "this function uses ABI encoding to properly concatenate AHR- && ALR- in front of the tokens name and symbol before creating each token.*",
        "params": {
          "_assetContractAdd": "is the address of the ERC20 asset being whitelisted",
          "_assetName": "is the name of the asset(e.x: ChainLink)",
          "_assetSymbol": "is the symbol of the asset(e.x: LINK)"
        }
      },
      "lendToAHRpool(uint256)": {
        "details": "the user will need to first approve the transfer of the underlying asset*",
        "params": {
          "_amount": "is the amount of the asset being lent"
        }
      },
      "lendToALRpool(uint256)": {
        "details": "the user will need to first approve the transfer of the underlying asset*",
        "params": {
          "_amount": "is the amount of the asset being lent"
        }
      },
      "owner()": {
        "details": "Returns the address of the current owner."
      },
      "renounceOwnership()": {
        "details": "Leaves the contract without owner. It will not be possible to call `onlyOwner` functions anymore. Can only be called by the current owner.     * NOTE: Renouncing ownership will leave the contract without an owner, thereby removing any functionality that is only available to the owner."
      },
      "repay(uint256)": {
        "params": {
          "_repayAmount": "is the amount of the underlying asset being repayed*"
        }
      },
      "setFeeAHR(uint256)": {
        "details": "the divisor is set to 10,000 in the constructor for this contract. this allows for a fee percentage accounting for two decimal places. feePercent must account for this when being set. The following examples show feePercent amounts and how they equate to percentages: EX: a 1% fee would be set as feePercent = 100 a .5% fee would be set as feePercent = 50 a 50% fee would be set as feePercent = 5000*",
        "params": {
          "_fee": "is the input number representing the fee"
        }
      },
      "setFeeALR(uint256)": {
        "details": "the divisor is set to 10,000 in the constructor for this contract. this allows for a fee percentage accounting for two decimal places. feePercent must account for this when being set. The following examples show feePercent amounts and how they equate to percentages: EX: a 1% fee would be set as feePercent = 100 a .5% fee would be set as feePercent = 50 a 50% fee would be set as feePercent = 5000*",
        "params": {
          "_fee": "is the input number representing the fee"
        }
      },
      "transferOwnership(address)": {
        "details": "Transfers ownership of the contract to a new account (`newOwner`). Can only be called by the current owner."
      }
    }
  },
  "userdoc": {
    "methods": {
      "_setUpAHR(address,uint256,uint256)": {
        "notice": "setUp is called by the MoneyMarketFactory after a contract is created to set up the initial variables. This is split from the constructor function to keep from reaching the gas block limit"
      },
      "_setUpALR(address,uint256,uint256)": {
        "notice": "setUp is called by the MoneyMarketFactory after a contract is created to set up the initial variables. This is split from the constructor function to keep from reaching the gas block limit"
      },
      "borrow(uint256,address)": {
        "notice": "borrow is used to take out a loan from in MoneyMarketInstance's underlying asset"
      },
      "calculateFee(uint256,uint256)": {
        "notice": "calculateFee is used to calculate the fee earned"
      },
      "checkIfALR(address)": {
        "notice": "allowa an ALR to check if the address calling it is anothe ALR*"
      },
      "collateralizeALR(uint256)": {
        "notice": "collateralizeALR allows a user to collateralize the ALR they hold in a specific money market"
      },
      "constructor": "the constructor function is fired during the contract deployment process. The constructor can only be fired once and is used to initialize the MoneyMakerInstance and deploy its associated AHR && ALR token contracts",
      "getAssetAdd()": {
        "notice": "getAssetAdd allows for easy retrieval of a Money Markets underlying asset's address*"
      },
      "lendToAHRpool(uint256)": {
        "notice": "lendToAHRpool is used to lend assets to a MoneyMarketInstance's High Risk pool"
      },
      "lendToALRpool(uint256)": {
        "notice": "lendToAHRpool is used to lend assets to a MoneyMarketInstance's Low Risk pool"
      },
      "repay(uint256)": {
        "notice": "repay is used to repay a loan"
      },
      "setFeeAHR(uint256)": {
        "notice": "setFee allows the owner of this contract to set the fee"
      },
      "setFeeALR(uint256)": {
        "notice": "setFee allows the owner of this contract to set the fee"
      }
    },
    "notice": "The MoneyMarketInstance contract is designed facilitate a tiered money market for an individual ERC20 asset This contract uses the OpenZeppelin contract Library to inherit functions from Ownable.sol && IRC20.sol*"
  }
}