{
  "contractName": "MoneyMarketInstance",
  "abi": [
    {
      "inputs": [
        {
          "internalType": "address",
          "name": "_assetContractAdd",
          "type": "address"
        },
        {
          "internalType": "address",
          "name": "_oracleFactory",
          "type": "address"
        },
        {
          "internalType": "address",
          "name": "_owner",
          "type": "address"
        },
        {
          "internalType": "address",
          "name": "_ARTF",
          "type": "address"
        },
        {
          "internalType": "string",
          "name": "_assetName",
          "type": "string"
        },
        {
          "internalType": "string",
          "name": "_assetSymbol",
          "type": "string"
        }
      ],
      "stateMutability": "nonpayable",
      "type": "constructor"
    },
    {
      "anonymous": false,
      "inputs": [
        {
          "indexed": false,
          "internalType": "address",
          "name": "borrower",
          "type": "address"
        },
        {
          "indexed": false,
          "internalType": "uint256",
          "name": "AHRamount",
          "type": "uint256"
        },
        {
          "indexed": false,
          "internalType": "uint256",
          "name": "ALRamount",
          "type": "uint256"
        }
      ],
      "name": "Borrow",
      "type": "event"
    },
    {
      "anonymous": false,
      "inputs": [
        {
          "indexed": false,
          "internalType": "address",
          "name": "collateralizer",
          "type": "address"
        },
        {
          "indexed": false,
          "internalType": "uint256",
          "name": "amount",
          "type": "uint256"
        }
      ],
      "name": "Collateralized",
      "type": "event"
    },
    {
      "anonymous": false,
      "inputs": [
        {
          "indexed": false,
          "internalType": "address",
          "name": "lender",
          "type": "address"
        },
        {
          "indexed": false,
          "internalType": "uint256",
          "name": "amount",
          "type": "uint256"
        }
      ],
      "name": "LentToAHR",
      "type": "event"
    },
    {
      "anonymous": false,
      "inputs": [
        {
          "indexed": false,
          "internalType": "address",
          "name": "lender",
          "type": "address"
        },
        {
          "indexed": false,
          "internalType": "uint256",
          "name": "amount",
          "type": "uint256"
        }
      ],
      "name": "LentToALR",
      "type": "event"
    },
    {
      "anonymous": false,
      "inputs": [
        {
          "indexed": true,
          "internalType": "address",
          "name": "previousOwner",
          "type": "address"
        },
        {
          "indexed": true,
          "internalType": "address",
          "name": "newOwner",
          "type": "address"
        }
      ],
      "name": "OwnershipTransferred",
      "type": "event"
    },
    {
      "anonymous": false,
      "inputs": [
        {
          "indexed": false,
          "internalType": "address",
          "name": "borrower",
          "type": "address"
        },
        {
          "indexed": false,
          "internalType": "uint256",
          "name": "AHRamount",
          "type": "uint256"
        },
        {
          "indexed": false,
          "internalType": "uint256",
          "name": "ALRamount",
          "type": "uint256"
        }
      ],
      "name": "Repayed",
      "type": "event"
    },
    {
      "inputs": [],
      "name": "AHR",
      "outputs": [
        {
          "internalType": "contract AskoRiskTokenI",
          "name": "",
          "type": "address"
        }
      ],
      "stateMutability": "view",
      "type": "function"
    },
    {
      "inputs": [],
      "name": "ALR",
      "outputs": [
        {
          "internalType": "contract AskoRiskTokenI",
          "name": "",
          "type": "address"
        }
      ],
      "stateMutability": "view",
      "type": "function"
    },
    {
      "inputs": [],
      "name": "ARTF",
      "outputs": [
        {
          "internalType": "contract ARTFactoryI",
          "name": "",
          "type": "address"
        }
      ],
      "stateMutability": "view",
      "type": "function"
    },
    {
      "inputs": [],
      "name": "MMF",
      "outputs": [
        {
          "internalType": "contract MoneyMarketFactoryI",
          "name": "",
          "type": "address"
        }
      ],
      "stateMutability": "view",
      "type": "function"
    },
    {
      "inputs": [],
      "name": "UOF",
      "outputs": [
        {
          "internalType": "contract UniswapOracleFactoryI",
          "name": "",
          "type": "address"
        }
      ],
      "stateMutability": "view",
      "type": "function"
    },
    {
      "inputs": [],
      "name": "asset",
      "outputs": [
        {
          "internalType": "contract IERC20",
          "name": "",
          "type": "address"
        }
      ],
      "stateMutability": "view",
      "type": "function"
    },
    {
      "inputs": [],
      "name": "assetName",
      "outputs": [
        {
          "internalType": "string",
          "name": "",
          "type": "string"
        }
      ],
      "stateMutability": "view",
      "type": "function"
    },
    {
      "inputs": [],
      "name": "assetSymbol",
      "outputs": [
        {
          "internalType": "string",
          "name": "",
          "type": "string"
        }
      ],
      "stateMutability": "view",
      "type": "function"
    },
    {
      "inputs": [],
      "name": "divisor",
      "outputs": [
        {
          "internalType": "uint256",
          "name": "",
          "type": "uint256"
        }
      ],
      "stateMutability": "view",
      "type": "function"
    },
    {
      "inputs": [],
      "name": "fee_AHR",
      "outputs": [
        {
          "internalType": "uint256",
          "name": "",
          "type": "uint256"
        }
      ],
      "stateMutability": "view",
      "type": "function"
    },
    {
      "inputs": [],
      "name": "fee_ALR",
      "outputs": [
        {
          "internalType": "uint256",
          "name": "",
          "type": "uint256"
        }
      ],
      "stateMutability": "view",
      "type": "function"
    },
    {
      "inputs": [],
      "name": "owner",
      "outputs": [
        {
          "internalType": "address",
          "name": "",
          "type": "address"
        }
      ],
      "stateMutability": "view",
      "type": "function"
    },
    {
      "inputs": [],
      "name": "renounceOwnership",
      "outputs": [],
      "stateMutability": "nonpayable",
      "type": "function"
    },
    {
      "inputs": [
        {
          "internalType": "address",
          "name": "newOwner",
          "type": "address"
        }
      ],
      "name": "transferOwnership",
      "outputs": [],
      "stateMutability": "nonpayable",
      "type": "function"
    },
    {
      "inputs": [
        {
          "internalType": "address",
          "name": "_InterestRateModel",
          "type": "address"
        },
        {
          "internalType": "uint256",
          "name": "_fee",
          "type": "uint256"
        },
        {
          "internalType": "uint256",
          "name": "_initialExchangeRate",
          "type": "uint256"
        }
      ],
      "name": "_setUpAHR",
      "outputs": [],
      "stateMutability": "nonpayable",
      "type": "function"
    },
    {
      "inputs": [
        {
          "internalType": "address",
          "name": "_InterestRateModel",
          "type": "address"
        },
        {
          "internalType": "uint256",
          "name": "_fee",
          "type": "uint256"
        },
        {
          "internalType": "uint256",
          "name": "_initialExchangeRate",
          "type": "uint256"
        }
      ],
      "name": "_setUpALR",
      "outputs": [],
      "stateMutability": "nonpayable",
      "type": "function"
    },
    {
      "inputs": [],
      "name": "getAssetAdd",
      "outputs": [
        {
          "internalType": "address",
          "name": "",
          "type": "address"
        }
      ],
      "stateMutability": "view",
      "type": "function"
    },
    {
      "inputs": [
        {
          "internalType": "uint256",
          "name": "_fee",
          "type": "uint256"
        }
      ],
      "name": "setFeeAHR",
      "outputs": [],
      "stateMutability": "nonpayable",
      "type": "function"
    },
    {
      "inputs": [
        {
          "internalType": "uint256",
          "name": "_fee",
          "type": "uint256"
        }
      ],
      "name": "setFeeALR",
      "outputs": [],
      "stateMutability": "nonpayable",
      "type": "function"
    },
    {
      "inputs": [
        {
          "internalType": "uint256",
          "name": "_payedAmount",
          "type": "uint256"
        },
        {
          "internalType": "uint256",
          "name": "_feePercent",
          "type": "uint256"
        }
      ],
      "name": "calculateFee",
      "outputs": [
        {
          "internalType": "uint256",
          "name": "",
          "type": "uint256"
        }
      ],
      "stateMutability": "view",
      "type": "function"
    },
    {
      "inputs": [
        {
          "internalType": "uint256",
          "name": "_amount",
          "type": "uint256"
        }
      ],
      "name": "lendToAHRpool",
      "outputs": [],
      "stateMutability": "nonpayable",
      "type": "function"
    },
    {
      "inputs": [
        {
          "internalType": "uint256",
          "name": "_amount",
          "type": "uint256"
        }
      ],
      "name": "lendToALRpool",
      "outputs": [],
      "stateMutability": "nonpayable",
      "type": "function"
    },
    {
      "inputs": [
        {
          "internalType": "uint256",
          "name": "_amount",
          "type": "uint256"
        },
        {
          "internalType": "address",
          "name": "_collateral",
          "type": "address"
        }
      ],
      "name": "borrow",
      "outputs": [],
      "stateMutability": "nonpayable",
      "type": "function"
    },
    {
      "inputs": [
        {
          "internalType": "uint256",
          "name": "_repayAmount",
          "type": "uint256"
        }
      ],
      "name": "repay",
      "outputs": [],
      "stateMutability": "nonpayable",
      "type": "function"
    },
    {
      "inputs": [
        {
          "internalType": "uint256",
          "name": "_amount",
          "type": "uint256"
        }
      ],
      "name": "collateralizeALR",
      "outputs": [],
      "stateMutability": "nonpayable",
      "type": "function"
    },
    {
      "inputs": [
        {
          "internalType": "uint256",
          "name": "_amount",
          "type": "uint256"
        }
      ],
      "name": "decollateralizeALR",
      "outputs": [],
      "stateMutability": "nonpayable",
      "type": "function"
    },
    {
      "inputs": [
        {
          "internalType": "address",
          "name": "_inQuestion",
          "type": "address"
        }
      ],
      "name": "checkIfALR",
      "outputs": [
        {
          "internalType": "bool",
          "name": "",
          "type": "bool"
        }
      ],
      "stateMutability": "view",
      "type": "function"
    }
  ],
  "bytecode": "0x60806040523480156200001157600080fd5b5060405162002a4c38038062002a4c833981810160405260c08110156200003757600080fd5b81516020830151604080850151606086015160808701805193519597949692959194919392820192846401000000008211156200007357600080fd5b9083019060208201858111156200008957600080fd5b8251640100000000811182820188101715620000a457600080fd5b82525081516020918201929091019080838360005b83811015620000d3578181015183820152602001620000b9565b50505050905090810190601f168015620001015780820380516001836020036101000a031916815260200191505b50604052602001805160405193929190846401000000008211156200012557600080fd5b9083019060208201858111156200013b57600080fd5b82516401000000008111828201881017156200015657600080fd5b82525081516020918201929091019080838360005b83811015620001855781810151838201526020016200016b565b50505050905090810190601f168015620001b35780820380516001836020036101000a031916815260200191505b506040525050506000620001cc620002a060201b60201c565b600080546001600160a01b0319166001600160a01b0383169081178255604051929350917f8be0079c531659141344cd1fd0a4f28419497f9722a3daafe3b4186f6b6457e0908290a350612710600155815162000231906004906020850190620002a5565b50805162000247906005906020840190620002a5565b5050600a80546001600160a01b03199081166001600160a01b0396871617909155600980548216948616949094179093555060068054831694841694909417909355600b80549091169290911691909117905562000347565b335b90565b828054600181600116156101000203166002900490600052602060002090601f016020900481019282601f10620002e857805160ff191683800117855562000318565b8280016001018555821562000318579182015b8281111562000318578251825591602001919060010190620002fb565b50620003269291506200032a565b5090565b620002a291905b8082111562000326576000815560010162000331565b6126f580620003576000396000f3fe608060405234801561001057600080fd5b50600436106101495760003560e01c806303438def1461014e57806311e2c02f1461016d578063176de7a8146101915780631dda07801461020e5780631f2dc5ef146102165780631f432cf51461023057806322b2d4021461026257806334e731221461027f578063371fd8e6146102a257806338d52e0f146102bf5780634b3fd148146102c75780634c20ac74146102f3578063551f8b01146102fb57806367612843146103185780636c713a1514610352578063715018a61461036f5780638da5cb5b146103775780639241cef21461037f57806392625edb14610387578063c27d4df3146103a4578063c9230c5d146103ac578063cf0aea85146103b4578063d162054a146103d1578063dcc716bd146103d9578063f2130c701461040b578063f2fde38b14610413578063f9828b4f14610439575b600080fd5b61016b6004803603602081101561016457600080fd5b5035610441565b005b610175610560565b604080516001600160a01b039092168252519081900360200190f35b61019961056f565b6040805160208082528351818301528351919283929083019185019080838360005b838110156101d35781810151838201526020016101bb565b50505050905090810190601f1680156102005780820380516001836020036101000a031916815260200191505b509250505060405180910390f35b6101756105fd565b61021e61060c565b60408051918252519081900360200190f35b61016b6004803603606081101561024657600080fd5b506001600160a01b038135169060208101359060400135610612565b61016b6004803603602081101561027857600080fd5b5035610a4e565b61021e6004803603604081101561029557600080fd5b5080359060200135610b82565b61016b600480360360208110156102b857600080fd5b5035610bb4565b610175611327565b61016b600480360360408110156102dd57600080fd5b50803590602001356001600160a01b0316611336565b61017561193e565b61016b6004803603602081101561031157600080fd5b503561194d565b61033e6004803603602081101561032e57600080fd5b50356001600160a01b03166119aa565b604080519115158252519081900360200190f35b61016b6004803603602081101561036857600080fd5b5035611a2d565b61016b611a8a565b610175611b1a565b610175611b29565b61016b6004803603602081101561039d57600080fd5b5035611b38565b610175611caa565b610199611cb9565b61016b600480360360208110156103ca57600080fd5b5035611d14565b610175611e48565b61016b600480360360608110156103ef57600080fd5b506001600160a01b038135169060208101359060400135611e57565b61021e612293565b61016b6004803603602081101561042957600080fd5b50356001600160a01b0316612299565b61021e61237f565b60085460408051632770a7eb60e21b81523360048201526024810184905290516001600160a01b0390921691639dc29fac9160448082019260009290919082900301818387803b15801561049457600080fd5b505af11580156104a8573d6000803e3d6000fd5b50506009546008546040805163b3f643e760e01b81523360048201526001600160a01b03928316602482015260448101879052905191909216935063b3f643e79250606480830192600092919082900301818387803b15801561050a57600080fd5b505af115801561051e573d6000803e3d6000fd5b5050604080513381526020810185905281517f2ceb23d1a429a36e05e1dd6ebfeceac2b6904c032f15f7648ebd4711510a15f79450908190039091019150a150565b600a546001600160a01b031681565b6005805460408051602060026001851615610100026000190190941693909304601f810184900484028201840190925281815292918301828280156105f55780601f106105ca576101008083540402835291602001916105f5565b820191906000526020600020905b8154815290600101906020018083116105d857829003601f168201915b505050505081565b600b546001600160a01b031681565b60015481565b6009546001600160a01b0316331461062957600080fd5b816003819055506060604051602001808063416c522d60e01b815250600401905060405160208183030381529060405290508060046040516020018083805190602001908083835b602083106106905780518252601f199092019160209182019101610671565b6001836020036101000a038019825116818451168082178552505050505050905001828054600181600116156101000203166002900480156107095780601f106106e7576101008083540402835291820191610709565b820191906000526020600020905b8154815290600101906020018083116106f5575b50509250505060405160208183030381529060405290506060604051602001808063416c522d60e01b815250600401905060405160208183030381529060405290508060056040516020018083805190602001908083835b602083106107805780518252601f199092019160209182019101610761565b6001836020036101000a038019825116818451168082178552505050505050905001828054600181600116156101000203166002900480156107f95780601f106107d75761010080835404028352918201916107f9565b820191906000526020600020905b8154815290600101906020018083116107e5575b505092505050604051602081830303815290604052905060608290506060829050600b60009054906101000a90046001600160a01b03166001600160a01b0316634f84a10088600660009054906101000a90046001600160a01b0316600a60009054906101000a90046001600160a01b0316600960009054906101000a90046001600160a01b0316878760018d6040518963ffffffff1660e01b815260040180896001600160a01b03166001600160a01b03168152602001886001600160a01b03166001600160a01b03168152602001876001600160a01b03166001600160a01b03168152602001866001600160a01b03166001600160a01b03168152602001806020018060200185151515158152602001848152602001838103835287818151815260200191508051906020019080838360005b8381101561094657818101518382015260200161092e565b50505050905090810190601f1680156109735780820380516001836020036101000a031916815260200191505b50838103825286518152865160209182019188019080838360005b838110156109a657818101518382015260200161098e565b50505050905090810190601f1680156109d35780820380516001836020036101000a031916815260200191505b509a5050505050505050505050602060405180830381600087803b1580156109fa57600080fd5b505af1158015610a0e573d6000803e3d6000fd5b505050506040513d6020811015610a2457600080fd5b5051600880546001600160a01b0319166001600160a01b0390921691909117905550505050505050565b600654600854604080516323b872dd60e01b81523360048201526001600160a01b03928316602482015260448101859052905191909216916323b872dd9160648083019260209291908290030181600087803b158015610aad57600080fd5b505af1158015610ac1573d6000803e3d6000fd5b505050506040513d6020811015610ad757600080fd5b5050600854604080516340c10f1960e01b81523360048201526024810184905290516001600160a01b03909216916340c10f199160448082019260009290919082900301818387803b158015610b2c57600080fd5b505af1158015610b40573d6000803e3d6000fd5b5050604080513381526020810185905281517f7328ca2a2e824164ca6ec3121966d63601356d01901d9a5d2ee466cb726d1e3c9450908190039091019150a150565b600080610baa600154610b9e858761238590919063ffffffff16565b9063ffffffff6123e516565b9150505b92915050565b600854604080516305eff7ef60e21b815233600482015290516000926001600160a01b0316916317bfdfbc91602480830192602092919082900301818787803b158015610c0057600080fd5b505af1158015610c14573d6000803e3d6000fd5b505050506040513d6020811015610c2a57600080fd5b5051600754604080516305eff7ef60e21b815233600482015290519293506000926001600160a01b03909216916317bfdfbc9160248082019260209290919082900301818787803b158015610c7e57600080fd5b505af1158015610c92573d6000803e3d6000fd5b505050506040513d6020811015610ca857600080fd5b505190506000610cbe838363ffffffff61242416565b905080841115610ccd57600080fd5b600080841561109857858510610e1d57600854604080516369a5e8cf60e01b81526004810189905233602482015290516001600160a01b03909216916369a5e8cf916044808201926020929091908290030181600087803b158015610d3157600080fd5b505af1158015610d45573d6000803e3d6000fd5b505050506040513d6020811015610d5b57600080fd5b5051600654600854604080516323b872dd60e01b81523360048201526001600160a01b0392831660248201526044810185905290519394509116916323b872dd916064808201926020929091908290030181600087803b158015610dbe57600080fd5b505af1158015610dd2573d6000803e3d6000fd5b505050506040513d6020811015610de857600080fd5b5050604080513381526000602082015280820188905290516000805160206126a08339815191529181900360600190a1611093565b6000610e2f878763ffffffff61247c16565b600854604080516369a5e8cf60e01b81526004810184905233602482015290519293506001600160a01b03909116916369a5e8cf916044808201926020929091908290030181600087803b158015610e8657600080fd5b505af1158015610e9a573d6000803e3d6000fd5b505050506040513d6020811015610eb057600080fd5b5051600654600854604080516323b872dd60e01b81523360048201526001600160a01b0392831660248201526044810185905290519395509116916323b872dd916064808201926020929091908290030181600087803b158015610f1357600080fd5b505af1158015610f27573d6000803e3d6000fd5b505050506040513d6020811015610f3d57600080fd5b5060009050610f52888363ffffffff61247c16565b600754604080516369a5e8cf60e01b81526004810184905233602482015290519293506001600160a01b03909116916369a5e8cf916044808201926020929091908290030181600087803b158015610fa957600080fd5b505af1158015610fbd573d6000803e3d6000fd5b505050506040513d6020811015610fd357600080fd5b5051600654600754604080516323b872dd60e01b81523360048201526001600160a01b0392831660248201526044810185905290519397509116916323b872dd916064808201926020929091908290030181600087803b15801561103657600080fd5b505af115801561104a573d6000803e3d6000fd5b505050506040513d602081101561106057600080fd5b5050604080513381526020810186905280820185905290516000805160206126a08339815191529181900360600190a150505b61131f565b600754604080516369a5e8cf60e01b81526004810189905233602482015290516001600160a01b03909216916369a5e8cf916044808201926020929091908290030181600087803b1580156110ec57600080fd5b505af1158015611100573d6000803e3d6000fd5b505050506040513d602081101561111657600080fd5b5051600654600754604080516323b872dd60e01b81523360048201526001600160a01b0392831660248201526044810185905290519395509116916323b872dd916064808201926020929091908290030181600087803b15801561117957600080fd5b505af115801561118d573d6000803e3d6000fd5b505050506040513d60208110156111a357600080fd5b5050836112f057600954336000818152600d6020908152604080832054600c909252808320548151632c8bad0f60e01b815260048101959095526001600160a01b039283166024860152604485015251931692632c8bad0f92606480820193929182900301818387803b15801561121957600080fd5b505af115801561122d573d6000803e3d6000fd5b5050600954336000818152600d6020908152604080832054600c90925280832054815163b3f643e760e01b815260048101959095526001600160a01b0392831660248601526044850152519316945063b3f643e79350606480830193919282900301818387803b1580156112a057600080fd5b505af11580156112b4573d6000803e3d6000fd5b5050336000908152600d6020908152604080832080546001600160a01b0319169055600e8252808320805460ff19169055600c90915281205550505b604080513381526020810184905260008183015290516000805160206126a08339815191529181900360600190a15b505050505050565b6006546001600160a01b031681565b336000908152600d60205260409020546001600160a01b038281169116148061136f5750336000908152600e602052604090205460ff16155b61137857600080fd5b6113806125be565b60095460408051636012b43160e01b81523360048201526001600160a01b03858116602483015291519190921691636012b4319160448083019260209291908290030181600087803b1580156113d557600080fd5b505af11580156113e9573d6000803e3d6000fd5b505050506040513d60208110156113ff57600080fd5b50518152600754604080516305eff7ef60e21b815233600482015290516001600160a01b03909216916317bfdfbc916024808201926020929091908290030181600087803b15801561145057600080fd5b505af1158015611464573d6000803e3d6000fd5b505050506040513d602081101561147a57600080fd5b5051602082810191909152600854604080516305eff7ef60e21b815233600482015290516001600160a01b03909216926317bfdfbc926024808401938290030181600087803b1580156114cc57600080fd5b505af11580156114e0573d6000803e3d6000fd5b505050506040513d60208110156114f657600080fd5b50516040820181905261152490611513908563ffffffff61242416565b60208301519063ffffffff61242416565b6060820152600a5460065460408051638ab9bf6d60e01b81526001600160a01b03928316600482015290519190921691638ab9bf6d916024808301926020929190829003018186803b15801561157957600080fd5b505afa15801561158d573d6000803e3d6000fd5b505050506040513d60208110156115a357600080fd5b50516080820181905260608201516115c1919063ffffffff61238516565b60a082015260808101516115db908463ffffffff61238516565b60c0820181905260408051635f27adbd60e01b815260048101929092525183916001600160a01b03831691635f27adbd916024808201926020929091908290030181600087803b15801561162e57600080fd5b505af1158015611642573d6000803e3d6000fd5b505050506040513d602081101561165857600080fd5b505160e083015260a082015161167590600263ffffffff6123e516565b610100830181905260a08301516116919163ffffffff61242416565b6101208301819052825110156116a657600080fd5b6116b784600263ffffffff6123e516565b61014083015260095460e08301516040805163ee82616160e01b81523360048201526001600160a01b03878116602483015260448201939093529051919092169163ee82616191606480830192600092919082900301818387803b15801561171e57600080fd5b505af1158015611732573d6000803e3d6000fd5b505060095460e085015160408051636a8394ad60e01b81523360048201526001600160a01b03898116602483015260448201939093529051919092169350636a8394ad9250606480830192600092919082900301818387803b15801561179757600080fd5b505af11580156117ab573d6000803e3d6000fd5b5050505060e0820151336000908152600c60205260409020546117cd91612424565b336000818152600c6020908152604080832094909455600d815283822080546001600160a01b0319166001600160a01b0389811691909117909155600e909152838220805460ff191660011790556007546101408701518551630967fa2960e31b8152600481019190915260248101949094529351931692634b3fd14892604480820193929182900301818387803b15801561186857600080fd5b505af115801561187c573d6000803e3d6000fd5b505060085461014085015160408051630967fa2960e31b81526004810192909252336024830152516001600160a01b039092169350634b3fd148925060448082019260009290919082900301818387803b1580156118d957600080fd5b505af11580156118ed573d6000803e3d6000fd5b505050610140830151604080513381526020810183905280820192909252517fe1979fe4c35e0cef342fef5668e2c8e7a7e9f5d5d1ca8fee0ac6c427fa4153af92509081900360600190a150505050565b6006546001600160a01b031690565b6119556124be565b6000546001600160a01b039081169116146119a5576040805162461bcd60e51b81526020600482018190526024820152600080516020612660833981519152604482015290519081900360640190fd5b600355565b60095460408051630dc9cacd60e01b81526001600160a01b03848116600483015291516000939290921691630dc9cacd91602480820192602092909190829003018186803b1580156119fb57600080fd5b505afa158015611a0f573d6000803e3d6000fd5b505050506040513d6020811015611a2557600080fd5b505192915050565b611a356124be565b6000546001600160a01b03908116911614611a85576040805162461bcd60e51b81526020600482018190526024820152600080516020612660833981519152604482015290519081900360640190fd5b600255565b611a926124be565b6000546001600160a01b03908116911614611ae2576040805162461bcd60e51b81526020600482018190526024820152600080516020612660833981519152604482015290519081900360640190fd5b600080546040516001600160a01b0390911690600080516020612680833981519152908390a3600080546001600160a01b0319169055565b6000546001600160a01b031690565b6007546001600160a01b031681565b60095460085460408051636d497ec560e11b81523360048201526001600160a01b0392831660248201529051600093929092169163da92fd8a91604480820192602092909190829003018186803b158015611b9257600080fd5b505afa158015611ba6573d6000803e3d6000fd5b505050506040513d6020811015611bbc57600080fd5b5051905080821115611bcd57600080fd5b60095460085460408051636a8394ad60e01b81523360048201526001600160a01b0392831660248201526044810186905290519190921691636a8394ad91606480830192600092919082900301818387803b158015611c2b57600080fd5b505af1158015611c3f573d6000803e3d6000fd5b5050600854604080516340c10f1960e01b81523360048201526024810187905290516001600160a01b0390921693506340c10f19925060448082019260009290919082900301818387803b158015611c9657600080fd5b505af115801561131f573d6000803e3d6000fd5b6008546001600160a01b031681565b6004805460408051602060026001851615610100026000190190941693909304601f810184900484028201840190925281815292918301828280156105f55780601f106105ca576101008083540402835291602001916105f5565b600654600754604080516323b872dd60e01b81523360048201526001600160a01b03928316602482015260448101859052905191909216916323b872dd9160648083019260209291908290030181600087803b158015611d7357600080fd5b505af1158015611d87573d6000803e3d6000fd5b505050506040513d6020811015611d9d57600080fd5b5050600754604080516340c10f1960e01b81523360048201526024810184905290516001600160a01b03909216916340c10f199160448082019260009290919082900301818387803b158015611df257600080fd5b505af1158015611e06573d6000803e3d6000fd5b5050604080513381526020810185905281517f0f82438f3b5c78264c4b6dce428942fd963308db5c690635d87bc654cb811d339450908190039091019150a150565b6009546001600160a01b031681565b6009546001600160a01b03163314611e6e57600080fd5b8160028190555060606040516020018080634148522d60e01b815250600401905060405160208183030381529060405290508060046040516020018083805190602001908083835b60208310611ed55780518252601f199092019160209182019101611eb6565b6001836020036101000a03801982511681845116808217855250505050505090500182805460018160011615610100020316600290048015611f4e5780601f10611f2c576101008083540402835291820191611f4e565b820191906000526020600020905b815481529060010190602001808311611f3a575b505092505050604051602081830303815290604052905060606040516020018080634148522d60e01b815250600401905060405160208183030381529060405290508060056040516020018083805190602001908083835b60208310611fc55780518252601f199092019160209182019101611fa6565b6001836020036101000a0380198251168184511680821785525050505050509050018280546001816001161561010002031660029004801561203e5780601f1061201c57610100808354040283529182019161203e565b820191906000526020600020905b81548152906001019060200180831161202a575b505092505050604051602081830303815290604052905060608290506060829050600b60009054906101000a90046001600160a01b03166001600160a01b0316634f84a10088600660009054906101000a90046001600160a01b0316600a60009054906101000a90046001600160a01b0316600960009054906101000a90046001600160a01b0316878760008d6040518963ffffffff1660e01b815260040180896001600160a01b03166001600160a01b03168152602001886001600160a01b03166001600160a01b03168152602001876001600160a01b03166001600160a01b03168152602001866001600160a01b03166001600160a01b03168152602001806020018060200185151515158152602001848152602001838103835287818151815260200191508051906020019080838360005b8381101561218b578181015183820152602001612173565b50505050905090810190601f1680156121b85780820380516001836020036101000a031916815260200191505b50838103825286518152865160209182019188019080838360005b838110156121eb5781810151838201526020016121d3565b50505050905090810190601f1680156122185780820380516001836020036101000a031916815260200191505b509a5050505050505050505050602060405180830381600087803b15801561223f57600080fd5b505af1158015612253573d6000803e3d6000fd5b505050506040513d602081101561226957600080fd5b5051600780546001600160a01b0319166001600160a01b0390921691909117905550505050505050565b60025481565b6122a16124be565b6000546001600160a01b039081169116146122f1576040805162461bcd60e51b81526020600482018190526024820152600080516020612660833981519152604482015290519081900360640190fd5b6001600160a01b0381166123365760405162461bcd60e51b81526004018080602001828103825260268152602001806126196026913960400191505060405180910390fd5b600080546040516001600160a01b038085169392169160008051602061268083398151915291a3600080546001600160a01b0319166001600160a01b0392909216919091179055565b60035481565b60008261239457506000610bae565b828202828482816123a157fe5b04146123de5760405162461bcd60e51b815260040180806020018281038252602181526020018061263f6021913960400191505060405180910390fd5b9392505050565b60006123de83836040518060400160405280601a815260200179536166654d6174683a206469766973696f6e206279207a65726f60301b8152506124c2565b6000828201838110156123de576040805162461bcd60e51b815260206004820152601b60248201527a536166654d6174683a206164646974696f6e206f766572666c6f7760281b604482015290519081900360640190fd5b60006123de83836040518060400160405280601e81526020017f536166654d6174683a207375627472616374696f6e206f766572666c6f770000815250612564565b3390565b6000818361254e5760405162461bcd60e51b81526004018080602001828103825283818151815260200191508051906020019080838360005b838110156125135781810151838201526020016124fb565b50505050905090810190601f1680156125405780820380516001836020036101000a031916815260200191505b509250505060405180910390fd5b50600083858161255a57fe5b0495945050505050565b600081848411156125b65760405162461bcd60e51b81526020600482018181528351602484015283519092839260449091019190850190808383600083156125135781810151838201526020016124fb565b505050900390565b6040518061016001604052806000815260200160008152602001600081526020016000815260200160008152602001600081526020016000815260200160008152602001600081526020016000815260200160008152509056fe4f776e61626c653a206e6577206f776e657220697320746865207a65726f2061646472657373536166654d6174683a206d756c7469706c69636174696f6e206f766572666c6f774f776e61626c653a2063616c6c6572206973206e6f7420746865206f776e65728be0079c531659141344cd1fd0a4f28419497f9722a3daafe3b4186f6b6457e02a6c148cdc9347a81dfbfe504afb64ea0aeca1114171ef18a3e11cb1fda8b3a6a26469706673582212207daacd2e6d0306e4e98afe39b6ba9c67efac165bb71c7b77cc12e2a6e6e3459c64736f6c63430006060033",
  "immutableReferences": {},
  "source": "pragma solidity ^0.6.0;\n\nimport \"@openzeppelin/contracts/access/Ownable.sol\";\nimport \"@openzeppelin/contracts/math/SafeMath.sol\";\nimport \"@openzeppelin/contracts/token/ERC20/IERC20.sol\";\nimport \"./compound/Exponential.sol\";\nimport \"./interfaces/UniswapOracleFactoryI.sol\";\nimport \"./interfaces/MoneyMarketFactoryI.sol\";\nimport \"./interfaces/AskoRiskTokenI.sol\";\nimport \"./interfaces/ARTFactoryI.sol\";\n\n////////////////////////////////////////////////////////////////////////////////////////////\n/// @title MoneyMarketInstance\n/// @author Christopher Dixon\n////////////////////////////////////////////////////////////////////////////////////////////\n/**\nThe MoneyMarketInstance contract is designed facilitate a tiered money market for an individual ERC20 asset\nThis contract uses the OpenZeppelin contract Library to inherit functions from\n  Ownable.sol && IRC20.sol\n**/\ncontract MoneyMarketInstance is Ownable, Exponential {\n    using SafeMath for uint256;\n\n    uint256 public divisor;\n    uint256 public fee_AHR;\n    uint256 public fee_ALR;\n\n    string public assetName;\n    string public assetSymbol;\n\n    IERC20 public asset;\n    AskoRiskTokenI public AHR;\n    AskoRiskTokenI public ALR;\n    MoneyMarketFactoryI public MMF;\n    UniswapOracleFactoryI public UOF;\n    ARTFactoryI public ARTF;\n\n    mapping(address => uint256) lockedCollateral;\n    mapping(address => address) collateralLockedALR;\n    mapping(address => bool) cantCollateralize;\n    /**\n@notice onlyMMFactory is a modifier used to make a function only callable by the Money Market Factory contract\n**/\n    modifier onlyMMFactory() {\n        require(msg.sender == address(MMF));\n        _;\n    }\n\n    event LentToAHR(address lender, uint256 amount);\n    event LentToALR(address lender, uint256 amount);\n    event Borrow(address borrower, uint256 AHRamount, uint256 ALRamount);\n    event Repayed(address borrower, uint256 AHRamount, uint256 ALRamount);\n    event Collateralized(address collateralizer, uint256 amount);\n\n    /**\n@notice the constructor function is fired during the contract deployment process. The constructor can only be fired once and\n        is used to initialize the MoneyMakerInstance and deploy its associated AHR && ALR token contracts\n@param _assetContractAdd is the address of the ERC20 asset being whitelisted\n@param _assetName is the name of the asset(e.x: ChainLink)\n@param _assetSymbol is the symbol of the asset(e.x: LINK)\n@dev this function uses ABI encoding to properly concatenate AHR- && ALR- in front of the tokens name and symbol\n      before creating each token.\n**/\n    constructor(\n        address _assetContractAdd,\n        address _oracleFactory,\n        address _owner,\n        address _ARTF,\n        string memory _assetName,\n        string memory _assetSymbol\n    ) public {\n        divisor = 10000;\n        assetName = _assetName;\n        assetSymbol = _assetSymbol;\n        UOF = UniswapOracleFactoryI(_oracleFactory);\n        MMF = MoneyMarketFactoryI(_owner);\n        asset = IERC20(_assetContractAdd);\n        ARTF = ARTFactoryI(_ARTF);\n    }\n\n    /**\n@notice setUp is called by the MoneyMarketFactory after a contract is created to set up the initial variables.\n        This is split from the constructor function to keep from reaching the gas block limit\n@param  _InterestRateModel is the address of this MoneyMarketInstances InterestRateModel\n@param _fee is a number representing the fee for exchanging an AHR token, as a mantissa (scaled by 1e18)\n@dev this function will create a token whos name and symbol is concatenated with a \"AHR-\" in front of it\n      example: AHR-LINK\n@dev asset.approve() is called to allow the AHR contract to freeely transfer the assset from this contract when the mint\n      lendToAHRpool function is called.\n**/\n    function _setUpAHR(\n        address _InterestRateModel,\n        uint256 _fee,\n        uint256 _initialExchangeRate\n    ) public onlyMMFactory {\n        fee_AHR = _fee;\n        bytes memory ahrname = abi.encodePacked(\"AHR-\");\n        ahrname = abi.encodePacked(ahrname, assetName);\n        //abi encode and concat strings\n        bytes memory ahrsymbol = abi.encodePacked(\"AHR-\");\n        ahrsymbol = abi.encodePacked(ahrsymbol, assetSymbol);\n        //abi encode and concat strings\n        string memory assetNameAHR = string(ahrname);\n        string memory assetSymbolAHR = string(ahrsymbol);\n        //un-encode concated string\n        AHR = AskoRiskTokenI(\n            ARTF.createART( //creates new Asko High Risk Token Contract\n                _InterestRateModel,\n                address(asset),\n                address(UOF),\n                address(MMF),\n                assetNameAHR,\n                assetSymbolAHR,\n                false,\n                _initialExchangeRate\n            )\n        );\n    }\n\n    /**\n@notice setUp is called by the MoneyMarketFactory after a contract is created to set up the initial variables.\n        This is split from the constructor function to keep from reaching the gas block limit\n@param  _InterestRateModel is the address of this MoneyMarketInstances InterestRateModel\n@param _fee is a number representing the fee for exchanging an ALR token, as a mantissa (scaled by 1e18)\n@dev this function will create a token whos name and symbol is concatenated with a \"ALR-\" in front of it\n      example: ALR-LINK\n@dev asset.approve() is called to allow the ALR contract to freeely transfer the assset from this contract when the mint\n      lendToALRpool function is called.\n**/\n    function _setUpALR(\n        address _InterestRateModel,\n        uint256 _fee,\n        uint256 _initialExchangeRate\n    ) public onlyMMFactory {\n        fee_ALR = _fee;\n        bytes memory alrname = abi.encodePacked(\"AlR-\");\n        alrname = abi.encodePacked(alrname, assetName);\n        //abi encode and concat strings\n        bytes memory alrsymbol = abi.encodePacked(\"AlR-\");\n        alrsymbol = abi.encodePacked(alrsymbol, assetSymbol);\n        //abi encode and concat strings\n        string memory assetNameALR = string(alrname);\n        string memory assetSymbolALR = string(alrsymbol);\n        //un-encode concated string\n        ALR = AskoRiskTokenI(\n            ARTF.createART( //creates new Asko High Risk Token Contract\n                _InterestRateModel,\n                address(asset),\n                address(UOF),\n                address(MMF),\n                assetNameALR,\n                assetSymbolALR,\n                true,\n                _initialExchangeRate\n            )\n        );\n    }\n\n    /**\n@notice getAssetAdd allows for easy retrieval of a Money Markets underlying asset's address\n**/\n    function getAssetAdd() public view returns (address) {\n        return address(asset);\n    }\n\n    /**\n  @notice setFee allows the owner of this contract to set the fee\n  @param  _fee is the input number representing the fee\n  @dev the divisor is set to 10,000 in the constructor for this contract. this allows for\n        a fee percentage accounting for two decimal places. feePercent must account for this when being set.\n        The following examples show feePercent amounts and how they equate to percentages:\n                EX:\n                    a 1% fee would be set as feePercent = 100\n                    a .5% fee would be set as feePercent = 50\n                    a 50% fee would be set as feePercent = 5000\n  **/\n    function setFeeAHR(uint256 _fee) public onlyOwner {\n        fee_AHR = _fee;\n    }\n\n    /**\n  @notice setFee allows the owner of this contract to set the fee\n  @param  _fee is the input number representing the fee\n  @dev the divisor is set to 10,000 in the constructor for this contract. this allows for\n        a fee percentage accounting for two decimal places. feePercent must account for this when being set.\n        The following examples show feePercent amounts and how they equate to percentages:\n                EX:\n                    a 1% fee would be set as feePercent = 100\n                    a .5% fee would be set as feePercent = 50\n                    a 50% fee would be set as feePercent = 5000\n  **/\n    function setFeeALR(uint256 _fee) public onlyOwner {\n        fee_ALR = _fee;\n    }\n\n    /**\n  @notice calculateFee is used to calculate the fee earned\n  @param _payedAmount is a uint representing the full amount of an ERC20 asset payed\n  @dev the divisor is set to 10,000 in the constructor for this contract. this allows for\n        a fee percentage accounting for two decimal places. feePercent must account for this when being set.\n        The following examples show feePercent amounts and how they equate to percentages:\n                EX:\n                    a 1% fee would be set as feePercent = 100\n                    a .5% fee would be set as feePercent = 50\n                    a 50% fee would be set as feePercent = 5000\n  **/\n    function calculateFee(uint256 _payedAmount, uint256 _feePercent)\n        public\n        view\n        returns (uint256)\n    {\n        uint256 fee = _payedAmount.mul(_feePercent).div(divisor);\n        return fee;\n    }\n\n    /**\n@notice lendToAHRpool is used to lend assets to a MoneyMarketInstance's High Risk pool\n@param _amount is the amount of the asset being lent\n@dev the user will need to first approve the transfer of the underlying asset\n**/\n    function lendToAHRpool(uint256 _amount) public {\n        //transfer appropriate amount off the asset from msg.sender to the AHR contract\n        asset.transferFrom(msg.sender, address(AHR), _amount);\n        //call mint function on AHR contract\n        AHR.mint(msg.sender, _amount);\n        emit LentToAHR(msg.sender, _amount);\n    }\n\n    /**\n@notice lendToAHRpool is used to lend assets to a MoneyMarketInstance's Low Risk pool\n@param _amount is the amount of the asset being lent\n@dev the user will need to first approve the transfer of the underlying asset\n**/\n    function lendToALRpool(uint256 _amount) public {\n        //transfer appropriate amount off the asset from msg.sender to the AHR contract\n        asset.transferFrom(msg.sender, address(ALR), _amount);\n        //call mint function on ALR contract\n        ALR.mint(msg.sender, _amount);\n        emit LentToALR(msg.sender, _amount);\n    }\n\n    //struct used to avoid stack too deep errors\n    struct borrowVars {\n        uint256 collateralValue;\n        uint256 borrowBalAHR;\n        uint256 borrowBalALR;\n        uint256 totalFutureAmountOwed;\n        uint256 priceOfAsset;\n        uint256 assetAmountValOwed;\n        uint256 amountValue; // Note: reverts on error\n        uint256 amountOfALR;\n        uint256 halfVal;\n        uint256 collateralNeeded;\n        uint256 half;\n    }\n\n    /**\n@notice borrow is used to take out a loan from in MoneyMarketInstance's underlying asset\n@param _amount is the amount of asset being barrowed\n@param _collateral is the address of the ALR token being used as collateral\n**/\n    function borrow(uint256 _amount, address _collateral) public {\n        //require that the collateral a user is looking to use is the same as the type they already have a loan in\n        //OR that their cantCollateralize mapping is false\n        require(\n            _collateral == collateralLockedALR[msg.sender] ||\n                cantCollateralize[msg.sender] == false\n        );\n        borrowVars memory vars;\n        //check that the user has enough collateral in input money market\n        //this returns the USDC price of their asset\n\n        vars.collateralValue = MMF.checkAvailibleCollateralValue(\n            msg.sender,\n            _collateral\n        );\n\n        //get current borrow balances for each ART\n        vars.borrowBalAHR = AHR.borrowBalanceCurrent(msg.sender);\n        vars.borrowBalALR = ALR.borrowBalanceCurrent(msg.sender);\n        //calculate the new amount that would be owed if borrow suceeds\n        vars.totalFutureAmountOwed = vars.borrowBalAHR.add(\n            vars.borrowBalALR.add(_amount)\n        );\n        //check current asset price\n        vars.priceOfAsset = UOF.getUnderlyingPriceofAsset(address(asset));\n        //get the usd price value of _amount\n        vars.assetAmountValOwed = vars.priceOfAsset.mul(\n            vars.totalFutureAmountOwed\n        );\n        //get USDC value of _amount\n        vars.amountValue = vars.priceOfAsset.mul(_amount);\n        //instantiate collateral ALR contract\n        AskoRiskTokenI collateALR = AskoRiskTokenI(_collateral);\n        //get collateral ALR amount for loan value\n        vars.amountOfALR = collateALR.getUSDCWorthOfART(vars.amountValue);\n        //divide amount value by 3\n        vars.halfVal = vars.assetAmountValOwed.div(2);\n        //add 1/2 value to asset value to get 150% asset value\n        vars.collateralNeeded = vars.assetAmountValOwed.add(vars.halfVal);\n        //require collateral value to be greater than 150% of the amount value of loan\n        require(vars.collateralValue >= vars.collateralNeeded);\n        //cut amount of tokens in half\n        vars.half = _amount.div(2);\n        //lock the collateral needed for this loan so it cant be \"double spent\"\n        MMF.lockCollateral(msg.sender, _collateral, vars.amountOfALR);\n        MMF.trackCollateralDown(msg.sender, _collateral, vars.amountOfALR);\n        //track locked amount\n        lockedCollateral[msg.sender] = lockedCollateral[msg.sender].add(\n            vars.amountOfALR\n        );\n        //track which ALR is locked\n        collateralLockedALR[msg.sender] = _collateral;\n        cantCollateralize[msg.sender] = true;\n        //borrow half from each pool\n        AHR.borrow(vars.half, msg.sender);\n        ALR.borrow(vars.half, msg.sender);\n        emit Borrow(msg.sender, vars.half, vars.half);\n    }\n\n    /**\n@notice repay is used to repay a loan\n@param _repayAmount is the amount of the underlying asset being repayed\n**/\n    function repay(uint256 _repayAmount) public {\n        //get their current owed balance of ALR\n        uint256 accountBorrowsALR = ALR.borrowBalanceCurrent(msg.sender);\n        uint256 accountBorrowsAHR = AHR.borrowBalanceCurrent(msg.sender);\n        uint256 totalBorrows = accountBorrowsALR.add(accountBorrowsAHR);\n        require(_repayAmount <= totalBorrows);\n        uint256 payAmountAHR;\n        uint256 payAmountALR;\n        if (accountBorrowsALR != 0) {\n            //if amount owed to ALR isnt zero\n            if (accountBorrowsALR >= _repayAmount) {\n                //check if repay amount is greater than ALR borrow balance\n                payAmountALR = ALR.repayBorrow(_repayAmount, msg.sender); //if it is repay amount to ALR\n                //transfer asset from the user to this contract\n                asset.transferFrom(msg.sender, address(ALR), payAmountALR);\n                emit Repayed(msg.sender, 0, _repayAmount);\n            } else {\n                //if not\n                uint256 amountToALR = _repayAmount.sub(accountBorrowsALR); //calculate amount needed to pay off ALR\n                payAmountALR = ALR.repayBorrow(amountToALR, msg.sender); //pay off ALR\n                //transfer asset from the user to this contract\n                asset.transferFrom(msg.sender, address(ALR), payAmountALR);\n                uint256 amountToAHR = _repayAmount.sub(amountToALR); //calculate AHR amount\n                payAmountAHR = AHR.repayBorrow(amountToAHR, msg.sender); //pay off towards AHR\n                //transfer asset from the user to this contract\n                asset.transferFrom(msg.sender, address(AHR), payAmountAHR);\n                emit Repayed(msg.sender, payAmountAHR, payAmountALR);\n            }\n        } else {\n            //if amount owed to ALR IS zero\n            payAmountAHR = AHR.repayBorrow(_repayAmount, msg.sender); //pay towards AHR\n            //transfer asset from the user to this contract\n            asset.transferFrom(msg.sender, address(AHR), payAmountAHR);\n\n            if (accountBorrowsAHR == 0) {\n                //if the loan is fully payed off\n                //unlock the users locked collateral for this loan\n                MMF.unlockCollateral(\n                    msg.sender,\n                    collateralLockedALR[msg.sender],\n                    lockedCollateral[msg.sender]\n                );\n                MMF.trackCollateralUp(\n                    msg.sender,\n                    collateralLockedALR[msg.sender],\n                    lockedCollateral[msg.sender]\n                );\n                //reset collateralLockedALR address to zero so the user can use a different ALR address in future borrows\n                collateralLockedALR[msg.sender] = address(0);\n                cantCollateralize[msg.sender] = false;\n                //reset locked collateral amount\n                lockedCollateral[msg.sender] = 0;\n            }\n            emit Repayed(msg.sender, payAmountAHR, 0);\n        }\n    }\n\n    /**\n@notice collateralizeALR allows a user to collateralize the ALR they hold in a specific money market\n@param _amount is the amount of ALR being collateralized\n**/\n    function collateralizeALR(uint256 _amount) public {\n        ALR.burn(msg.sender, _amount);\n        MMF.trackCollateralUp(msg.sender, address(ALR), _amount);\n        emit Collateralized(msg.sender, _amount);\n    }\n\n    function decollateralizeALR(uint256 _amount) public {\n        uint256 availibleCollateral = MMF.checkCollateralizedALR(\n            msg.sender,\n            address(ALR)\n        );\n        require(_amount <= availibleCollateral);\n        MMF.trackCollateralDown(msg.sender, address(ALR), _amount);\n        ALR.mint(msg.sender, _amount);\n    }\n\n    /**\n@notice allowa an ALR to check if the address calling it is anothe ALR\n**/\n\n    function checkIfALR(address _inQuestion) public view returns (bool) {\n        return MMF._checkIfALR(_inQuestion);\n    }\n}\n",
  "sourcePath": "/home/stan36/repos/Askolend/AskoLend-contracts/contracts/MoneyMarketInstance.sol",
  "compiler": {
    "name": "solc",
    "version": "0.6.6+commit.6c089d02.Emscripten.clang"
  },
  "schemaVersion": "3.3.2",
  "updatedAt": "2020-11-27T04:11:48.278Z",
  "devdoc": {
    "methods": {
      "_setUpAHR(address,uint256,uint256)": {
        "details": "this function will create a token whos name and symbol is concatenated with a \"AHR-\" in front of it example: AHR-LINKasset.approve() is called to allow the AHR contract to freeely transfer the assset from this contract when the mint lendToAHRpool function is called.*",
        "params": {
          "_InterestRateModel": "is the address of this MoneyMarketInstances InterestRateModel",
          "_fee": "is a number representing the fee for exchanging an AHR token, as a mantissa (scaled by 1e18)"
        }
      },
      "_setUpALR(address,uint256,uint256)": {
        "details": "this function will create a token whos name and symbol is concatenated with a \"ALR-\" in front of it example: ALR-LINKasset.approve() is called to allow the ALR contract to freeely transfer the assset from this contract when the mint lendToALRpool function is called.*",
        "params": {
          "_InterestRateModel": "is the address of this MoneyMarketInstances InterestRateModel",
          "_fee": "is a number representing the fee for exchanging an ALR token, as a mantissa (scaled by 1e18)"
        }
      },
      "borrow(uint256,address)": {
        "params": {
          "_amount": "is the amount of asset being barrowed",
          "_collateral": "is the address of the ALR token being used as collateral*"
        }
      },
      "calculateFee(uint256,uint256)": {
        "details": "the divisor is set to 10,000 in the constructor for this contract. this allows for a fee percentage accounting for two decimal places. feePercent must account for this when being set. The following examples show feePercent amounts and how they equate to percentages: EX: a 1% fee would be set as feePercent = 100 a .5% fee would be set as feePercent = 50 a 50% fee would be set as feePercent = 5000*",
        "params": {
          "_payedAmount": "is a uint representing the full amount of an ERC20 asset payed"
        }
      },
      "collateralizeALR(uint256)": {
        "params": {
          "_amount": "is the amount of ALR being collateralized*"
        }
      },
      "constructor": {
        "details": "this function uses ABI encoding to properly concatenate AHR- && ALR- in front of the tokens name and symbol before creating each token.*",
        "params": {
          "_assetContractAdd": "is the address of the ERC20 asset being whitelisted",
          "_assetName": "is the name of the asset(e.x: ChainLink)",
          "_assetSymbol": "is the symbol of the asset(e.x: LINK)"
        }
      },
      "lendToAHRpool(uint256)": {
        "details": "the user will need to first approve the transfer of the underlying asset*",
        "params": {
          "_amount": "is the amount of the asset being lent"
        }
      },
      "lendToALRpool(uint256)": {
        "details": "the user will need to first approve the transfer of the underlying asset*",
        "params": {
          "_amount": "is the amount of the asset being lent"
        }
      },
      "owner()": {
        "details": "Returns the address of the current owner."
      },
      "renounceOwnership()": {
        "details": "Leaves the contract without owner. It will not be possible to call `onlyOwner` functions anymore. Can only be called by the current owner.     * NOTE: Renouncing ownership will leave the contract without an owner, thereby removing any functionality that is only available to the owner."
      },
      "repay(uint256)": {
        "params": {
          "_repayAmount": "is the amount of the underlying asset being repayed*"
        }
      },
      "setFeeAHR(uint256)": {
        "details": "the divisor is set to 10,000 in the constructor for this contract. this allows for a fee percentage accounting for two decimal places. feePercent must account for this when being set. The following examples show feePercent amounts and how they equate to percentages: EX: a 1% fee would be set as feePercent = 100 a .5% fee would be set as feePercent = 50 a 50% fee would be set as feePercent = 5000*",
        "params": {
          "_fee": "is the input number representing the fee"
        }
      },
      "setFeeALR(uint256)": {
        "details": "the divisor is set to 10,000 in the constructor for this contract. this allows for a fee percentage accounting for two decimal places. feePercent must account for this when being set. The following examples show feePercent amounts and how they equate to percentages: EX: a 1% fee would be set as feePercent = 100 a .5% fee would be set as feePercent = 50 a 50% fee would be set as feePercent = 5000*",
        "params": {
          "_fee": "is the input number representing the fee"
        }
      },
      "transferOwnership(address)": {
        "details": "Transfers ownership of the contract to a new account (`newOwner`). Can only be called by the current owner."
      }
    }
  },
  "userdoc": {
    "methods": {
      "_setUpAHR(address,uint256,uint256)": {
        "notice": "setUp is called by the MoneyMarketFactory after a contract is created to set up the initial variables. This is split from the constructor function to keep from reaching the gas block limit"
      },
      "_setUpALR(address,uint256,uint256)": {
        "notice": "setUp is called by the MoneyMarketFactory after a contract is created to set up the initial variables. This is split from the constructor function to keep from reaching the gas block limit"
      },
      "borrow(uint256,address)": {
        "notice": "borrow is used to take out a loan from in MoneyMarketInstance's underlying asset"
      },
      "calculateFee(uint256,uint256)": {
        "notice": "calculateFee is used to calculate the fee earned"
      },
      "checkIfALR(address)": {
        "notice": "allowa an ALR to check if the address calling it is anothe ALR*"
      },
      "collateralizeALR(uint256)": {
        "notice": "collateralizeALR allows a user to collateralize the ALR they hold in a specific money market"
      },
      "constructor": "the constructor function is fired during the contract deployment process. The constructor can only be fired once and is used to initialize the MoneyMakerInstance and deploy its associated AHR && ALR token contracts",
      "getAssetAdd()": {
        "notice": "getAssetAdd allows for easy retrieval of a Money Markets underlying asset's address*"
      },
      "lendToAHRpool(uint256)": {
        "notice": "lendToAHRpool is used to lend assets to a MoneyMarketInstance's High Risk pool"
      },
      "lendToALRpool(uint256)": {
        "notice": "lendToAHRpool is used to lend assets to a MoneyMarketInstance's Low Risk pool"
      },
      "repay(uint256)": {
        "notice": "repay is used to repay a loan"
      },
      "setFeeAHR(uint256)": {
        "notice": "setFee allows the owner of this contract to set the fee"
      },
      "setFeeALR(uint256)": {
        "notice": "setFee allows the owner of this contract to set the fee"
      }
    },
    "notice": "The MoneyMarketInstance contract is designed facilitate a tiered money market for an individual ERC20 asset This contract uses the OpenZeppelin contract Library to inherit functions from Ownable.sol && IRC20.sol*"
  }
}