{
  "contractName": "UniswapV2Router02",
  "abi": [
    {
      "inputs": [
        {
          "internalType": "address",
          "name": "_factory",
          "type": "address"
        },
        {
          "internalType": "address",
          "name": "_WETH",
          "type": "address"
        }
      ],
      "stateMutability": "nonpayable",
      "type": "constructor"
    },
    {
      "inputs": [],
      "name": "WETH",
      "outputs": [
        {
          "internalType": "address",
          "name": "",
          "type": "address"
        }
      ],
      "stateMutability": "view",
      "type": "function",
      "constant": true
    },
    {
      "inputs": [],
      "name": "factory",
      "outputs": [
        {
          "internalType": "address",
          "name": "",
          "type": "address"
        }
      ],
      "stateMutability": "view",
      "type": "function",
      "constant": true
    },
    {
      "stateMutability": "payable",
      "type": "receive",
      "payable": true
    },
    {
      "inputs": [
        {
          "internalType": "address",
          "name": "tokenA",
          "type": "address"
        },
        {
          "internalType": "address",
          "name": "tokenB",
          "type": "address"
        },
        {
          "internalType": "uint256",
          "name": "amountADesired",
          "type": "uint256"
        },
        {
          "internalType": "uint256",
          "name": "amountBDesired",
          "type": "uint256"
        },
        {
          "internalType": "uint256",
          "name": "amountAMin",
          "type": "uint256"
        },
        {
          "internalType": "uint256",
          "name": "amountBMin",
          "type": "uint256"
        },
        {
          "internalType": "address",
          "name": "to",
          "type": "address"
        },
        {
          "internalType": "uint256",
          "name": "deadline",
          "type": "uint256"
        }
      ],
      "name": "addLiquidity",
      "outputs": [
        {
          "internalType": "uint256",
          "name": "amountA",
          "type": "uint256"
        },
        {
          "internalType": "uint256",
          "name": "amountB",
          "type": "uint256"
        },
        {
          "internalType": "uint256",
          "name": "liquidity",
          "type": "uint256"
        }
      ],
      "stateMutability": "nonpayable",
      "type": "function"
    },
    {
      "inputs": [
        {
          "internalType": "address",
          "name": "token",
          "type": "address"
        },
        {
          "internalType": "uint256",
          "name": "amountTokenDesired",
          "type": "uint256"
        },
        {
          "internalType": "uint256",
          "name": "amountTokenMin",
          "type": "uint256"
        },
        {
          "internalType": "uint256",
          "name": "amountETHMin",
          "type": "uint256"
        },
        {
          "internalType": "address",
          "name": "to",
          "type": "address"
        },
        {
          "internalType": "uint256",
          "name": "deadline",
          "type": "uint256"
        }
      ],
      "name": "addLiquidityETH",
      "outputs": [
        {
          "internalType": "uint256",
          "name": "amountToken",
          "type": "uint256"
        },
        {
          "internalType": "uint256",
          "name": "amountETH",
          "type": "uint256"
        },
        {
          "internalType": "uint256",
          "name": "liquidity",
          "type": "uint256"
        }
      ],
      "stateMutability": "payable",
      "type": "function",
      "payable": true
    },
    {
      "inputs": [
        {
          "internalType": "address",
          "name": "tokenA",
          "type": "address"
        },
        {
          "internalType": "address",
          "name": "tokenB",
          "type": "address"
        },
        {
          "internalType": "uint256",
          "name": "liquidity",
          "type": "uint256"
        },
        {
          "internalType": "uint256",
          "name": "amountAMin",
          "type": "uint256"
        },
        {
          "internalType": "uint256",
          "name": "amountBMin",
          "type": "uint256"
        },
        {
          "internalType": "address",
          "name": "to",
          "type": "address"
        },
        {
          "internalType": "uint256",
          "name": "deadline",
          "type": "uint256"
        }
      ],
      "name": "removeLiquidity",
      "outputs": [
        {
          "internalType": "uint256",
          "name": "amountA",
          "type": "uint256"
        },
        {
          "internalType": "uint256",
          "name": "amountB",
          "type": "uint256"
        }
      ],
      "stateMutability": "nonpayable",
      "type": "function"
    },
    {
      "inputs": [
        {
          "internalType": "address",
          "name": "token",
          "type": "address"
        },
        {
          "internalType": "uint256",
          "name": "liquidity",
          "type": "uint256"
        },
        {
          "internalType": "uint256",
          "name": "amountTokenMin",
          "type": "uint256"
        },
        {
          "internalType": "uint256",
          "name": "amountETHMin",
          "type": "uint256"
        },
        {
          "internalType": "address",
          "name": "to",
          "type": "address"
        },
        {
          "internalType": "uint256",
          "name": "deadline",
          "type": "uint256"
        }
      ],
      "name": "removeLiquidityETH",
      "outputs": [
        {
          "internalType": "uint256",
          "name": "amountToken",
          "type": "uint256"
        },
        {
          "internalType": "uint256",
          "name": "amountETH",
          "type": "uint256"
        }
      ],
      "stateMutability": "nonpayable",
      "type": "function"
    },
    {
      "inputs": [
        {
          "internalType": "address",
          "name": "tokenA",
          "type": "address"
        },
        {
          "internalType": "address",
          "name": "tokenB",
          "type": "address"
        },
        {
          "internalType": "uint256",
          "name": "liquidity",
          "type": "uint256"
        },
        {
          "internalType": "uint256",
          "name": "amountAMin",
          "type": "uint256"
        },
        {
          "internalType": "uint256",
          "name": "amountBMin",
          "type": "uint256"
        },
        {
          "internalType": "address",
          "name": "to",
          "type": "address"
        },
        {
          "internalType": "uint256",
          "name": "deadline",
          "type": "uint256"
        },
        {
          "internalType": "bool",
          "name": "approveMax",
          "type": "bool"
        },
        {
          "internalType": "uint8",
          "name": "v",
          "type": "uint8"
        },
        {
          "internalType": "bytes32",
          "name": "r",
          "type": "bytes32"
        },
        {
          "internalType": "bytes32",
          "name": "s",
          "type": "bytes32"
        }
      ],
      "name": "removeLiquidityWithPermit",
      "outputs": [
        {
          "internalType": "uint256",
          "name": "amountA",
          "type": "uint256"
        },
        {
          "internalType": "uint256",
          "name": "amountB",
          "type": "uint256"
        }
      ],
      "stateMutability": "nonpayable",
      "type": "function"
    },
    {
      "inputs": [
        {
          "internalType": "address",
          "name": "token",
          "type": "address"
        },
        {
          "internalType": "uint256",
          "name": "liquidity",
          "type": "uint256"
        },
        {
          "internalType": "uint256",
          "name": "amountTokenMin",
          "type": "uint256"
        },
        {
          "internalType": "uint256",
          "name": "amountETHMin",
          "type": "uint256"
        },
        {
          "internalType": "address",
          "name": "to",
          "type": "address"
        },
        {
          "internalType": "uint256",
          "name": "deadline",
          "type": "uint256"
        },
        {
          "internalType": "bool",
          "name": "approveMax",
          "type": "bool"
        },
        {
          "internalType": "uint8",
          "name": "v",
          "type": "uint8"
        },
        {
          "internalType": "bytes32",
          "name": "r",
          "type": "bytes32"
        },
        {
          "internalType": "bytes32",
          "name": "s",
          "type": "bytes32"
        }
      ],
      "name": "removeLiquidityETHWithPermit",
      "outputs": [
        {
          "internalType": "uint256",
          "name": "amountToken",
          "type": "uint256"
        },
        {
          "internalType": "uint256",
          "name": "amountETH",
          "type": "uint256"
        }
      ],
      "stateMutability": "nonpayable",
      "type": "function"
    },
    {
      "inputs": [
        {
          "internalType": "address",
          "name": "token",
          "type": "address"
        },
        {
          "internalType": "uint256",
          "name": "liquidity",
          "type": "uint256"
        },
        {
          "internalType": "uint256",
          "name": "amountTokenMin",
          "type": "uint256"
        },
        {
          "internalType": "uint256",
          "name": "amountETHMin",
          "type": "uint256"
        },
        {
          "internalType": "address",
          "name": "to",
          "type": "address"
        },
        {
          "internalType": "uint256",
          "name": "deadline",
          "type": "uint256"
        }
      ],
      "name": "removeLiquidityETHSupportingFeeOnTransferTokens",
      "outputs": [
        {
          "internalType": "uint256",
          "name": "amountETH",
          "type": "uint256"
        }
      ],
      "stateMutability": "nonpayable",
      "type": "function"
    },
    {
      "inputs": [
        {
          "internalType": "address",
          "name": "token",
          "type": "address"
        },
        {
          "internalType": "uint256",
          "name": "liquidity",
          "type": "uint256"
        },
        {
          "internalType": "uint256",
          "name": "amountTokenMin",
          "type": "uint256"
        },
        {
          "internalType": "uint256",
          "name": "amountETHMin",
          "type": "uint256"
        },
        {
          "internalType": "address",
          "name": "to",
          "type": "address"
        },
        {
          "internalType": "uint256",
          "name": "deadline",
          "type": "uint256"
        },
        {
          "internalType": "bool",
          "name": "approveMax",
          "type": "bool"
        },
        {
          "internalType": "uint8",
          "name": "v",
          "type": "uint8"
        },
        {
          "internalType": "bytes32",
          "name": "r",
          "type": "bytes32"
        },
        {
          "internalType": "bytes32",
          "name": "s",
          "type": "bytes32"
        }
      ],
      "name": "removeLiquidityETHWithPermitSupportingFeeOnTransferTokens",
      "outputs": [
        {
          "internalType": "uint256",
          "name": "amountETH",
          "type": "uint256"
        }
      ],
      "stateMutability": "nonpayable",
      "type": "function"
    },
    {
      "inputs": [
        {
          "internalType": "uint256",
          "name": "amountIn",
          "type": "uint256"
        },
        {
          "internalType": "uint256",
          "name": "amountOutMin",
          "type": "uint256"
        },
        {
          "internalType": "address[]",
          "name": "path",
          "type": "address[]"
        },
        {
          "internalType": "address",
          "name": "to",
          "type": "address"
        },
        {
          "internalType": "uint256",
          "name": "deadline",
          "type": "uint256"
        }
      ],
      "name": "swapExactTokensForTokens",
      "outputs": [
        {
          "internalType": "uint256[]",
          "name": "amounts",
          "type": "uint256[]"
        }
      ],
      "stateMutability": "nonpayable",
      "type": "function"
    },
    {
      "inputs": [
        {
          "internalType": "uint256",
          "name": "amountOut",
          "type": "uint256"
        },
        {
          "internalType": "uint256",
          "name": "amountInMax",
          "type": "uint256"
        },
        {
          "internalType": "address[]",
          "name": "path",
          "type": "address[]"
        },
        {
          "internalType": "address",
          "name": "to",
          "type": "address"
        },
        {
          "internalType": "uint256",
          "name": "deadline",
          "type": "uint256"
        }
      ],
      "name": "swapTokensForExactTokens",
      "outputs": [
        {
          "internalType": "uint256[]",
          "name": "amounts",
          "type": "uint256[]"
        }
      ],
      "stateMutability": "nonpayable",
      "type": "function"
    },
    {
      "inputs": [
        {
          "internalType": "uint256",
          "name": "amountOutMin",
          "type": "uint256"
        },
        {
          "internalType": "address[]",
          "name": "path",
          "type": "address[]"
        },
        {
          "internalType": "address",
          "name": "to",
          "type": "address"
        },
        {
          "internalType": "uint256",
          "name": "deadline",
          "type": "uint256"
        }
      ],
      "name": "swapExactETHForTokens",
      "outputs": [
        {
          "internalType": "uint256[]",
          "name": "amounts",
          "type": "uint256[]"
        }
      ],
      "stateMutability": "payable",
      "type": "function",
      "payable": true
    },
    {
      "inputs": [
        {
          "internalType": "uint256",
          "name": "amountOut",
          "type": "uint256"
        },
        {
          "internalType": "uint256",
          "name": "amountInMax",
          "type": "uint256"
        },
        {
          "internalType": "address[]",
          "name": "path",
          "type": "address[]"
        },
        {
          "internalType": "address",
          "name": "to",
          "type": "address"
        },
        {
          "internalType": "uint256",
          "name": "deadline",
          "type": "uint256"
        }
      ],
      "name": "swapTokensForExactETH",
      "outputs": [
        {
          "internalType": "uint256[]",
          "name": "amounts",
          "type": "uint256[]"
        }
      ],
      "stateMutability": "nonpayable",
      "type": "function"
    },
    {
      "inputs": [
        {
          "internalType": "uint256",
          "name": "amountIn",
          "type": "uint256"
        },
        {
          "internalType": "uint256",
          "name": "amountOutMin",
          "type": "uint256"
        },
        {
          "internalType": "address[]",
          "name": "path",
          "type": "address[]"
        },
        {
          "internalType": "address",
          "name": "to",
          "type": "address"
        },
        {
          "internalType": "uint256",
          "name": "deadline",
          "type": "uint256"
        }
      ],
      "name": "swapExactTokensForETH",
      "outputs": [
        {
          "internalType": "uint256[]",
          "name": "amounts",
          "type": "uint256[]"
        }
      ],
      "stateMutability": "nonpayable",
      "type": "function"
    },
    {
      "inputs": [
        {
          "internalType": "uint256",
          "name": "amountOut",
          "type": "uint256"
        },
        {
          "internalType": "address[]",
          "name": "path",
          "type": "address[]"
        },
        {
          "internalType": "address",
          "name": "to",
          "type": "address"
        },
        {
          "internalType": "uint256",
          "name": "deadline",
          "type": "uint256"
        }
      ],
      "name": "swapETHForExactTokens",
      "outputs": [
        {
          "internalType": "uint256[]",
          "name": "amounts",
          "type": "uint256[]"
        }
      ],
      "stateMutability": "payable",
      "type": "function",
      "payable": true
    },
    {
      "inputs": [
        {
          "internalType": "uint256",
          "name": "amountIn",
          "type": "uint256"
        },
        {
          "internalType": "uint256",
          "name": "amountOutMin",
          "type": "uint256"
        },
        {
          "internalType": "address[]",
          "name": "path",
          "type": "address[]"
        },
        {
          "internalType": "address",
          "name": "to",
          "type": "address"
        },
        {
          "internalType": "uint256",
          "name": "deadline",
          "type": "uint256"
        }
      ],
      "name": "swapExactTokensForTokensSupportingFeeOnTransferTokens",
      "outputs": [],
      "stateMutability": "nonpayable",
      "type": "function"
    },
    {
      "inputs": [
        {
          "internalType": "uint256",
          "name": "amountOutMin",
          "type": "uint256"
        },
        {
          "internalType": "address[]",
          "name": "path",
          "type": "address[]"
        },
        {
          "internalType": "address",
          "name": "to",
          "type": "address"
        },
        {
          "internalType": "uint256",
          "name": "deadline",
          "type": "uint256"
        }
      ],
      "name": "swapExactETHForTokensSupportingFeeOnTransferTokens",
      "outputs": [],
      "stateMutability": "payable",
      "type": "function",
      "payable": true
    },
    {
      "inputs": [
        {
          "internalType": "uint256",
          "name": "amountIn",
          "type": "uint256"
        },
        {
          "internalType": "uint256",
          "name": "amountOutMin",
          "type": "uint256"
        },
        {
          "internalType": "address[]",
          "name": "path",
          "type": "address[]"
        },
        {
          "internalType": "address",
          "name": "to",
          "type": "address"
        },
        {
          "internalType": "uint256",
          "name": "deadline",
          "type": "uint256"
        }
      ],
      "name": "swapExactTokensForETHSupportingFeeOnTransferTokens",
      "outputs": [],
      "stateMutability": "nonpayable",
      "type": "function"
    },
    {
      "inputs": [
        {
          "internalType": "uint256",
          "name": "amountA",
          "type": "uint256"
        },
        {
          "internalType": "uint256",
          "name": "reserveA",
          "type": "uint256"
        },
        {
          "internalType": "uint256",
          "name": "reserveB",
          "type": "uint256"
        }
      ],
      "name": "quote",
      "outputs": [
        {
          "internalType": "uint256",
          "name": "amountB",
          "type": "uint256"
        }
      ],
      "stateMutability": "pure",
      "type": "function",
      "constant": true
    },
    {
      "inputs": [
        {
          "internalType": "uint256",
          "name": "amountIn",
          "type": "uint256"
        },
        {
          "internalType": "uint256",
          "name": "reserveIn",
          "type": "uint256"
        },
        {
          "internalType": "uint256",
          "name": "reserveOut",
          "type": "uint256"
        }
      ],
      "name": "getAmountOut",
      "outputs": [
        {
          "internalType": "uint256",
          "name": "amountOut",
          "type": "uint256"
        }
      ],
      "stateMutability": "pure",
      "type": "function",
      "constant": true
    },
    {
      "inputs": [
        {
          "internalType": "uint256",
          "name": "amountOut",
          "type": "uint256"
        },
        {
          "internalType": "uint256",
          "name": "reserveIn",
          "type": "uint256"
        },
        {
          "internalType": "uint256",
          "name": "reserveOut",
          "type": "uint256"
        }
      ],
      "name": "getAmountIn",
      "outputs": [
        {
          "internalType": "uint256",
          "name": "amountIn",
          "type": "uint256"
        }
      ],
      "stateMutability": "pure",
      "type": "function",
      "constant": true
    },
    {
      "inputs": [
        {
          "internalType": "uint256",
          "name": "amountIn",
          "type": "uint256"
        },
        {
          "internalType": "address[]",
          "name": "path",
          "type": "address[]"
        }
      ],
      "name": "getAmountsOut",
      "outputs": [
        {
          "internalType": "uint256[]",
          "name": "amounts",
          "type": "uint256[]"
        }
      ],
      "stateMutability": "view",
      "type": "function",
      "constant": true
    },
    {
      "inputs": [
        {
          "internalType": "uint256",
          "name": "amountOut",
          "type": "uint256"
        },
        {
          "internalType": "address[]",
          "name": "path",
          "type": "address[]"
        }
      ],
      "name": "getAmountsIn",
      "outputs": [
        {
          "internalType": "uint256[]",
          "name": "amounts",
          "type": "uint256[]"
        }
      ],
      "stateMutability": "view",
      "type": "function",
      "constant": true
    }
  ],
  "bytecode": "0x60c060405234801561001057600080fd5b5060405162004768380380620047688339818101604052604081101561003557600080fd5b5080516020909101516001600160601b0319606092831b8116608052911b1660a05260805160601c60a05160601c6145e3620001856000398061015f5280610ce45280610d1f5280610e16528061103452806113be528061152452806118eb52806119e55280611a9b5280611b695280611caf5280611d375280611f7c5280611ff752806120a652806121725280612207528061227b528061277952806129ec5280612a425280612a765280612aea5280612c8a5280612dcd5280612e55525080610ea45280610f7b52806110fa5280611133528061126e528061144c528061150252806116725280611bfc5280611d695280611ecc52806122ad528061250652806126fe5280612727528061275752806128c45280612a205280612d1d5280612e87528061372e52806137715280613a545280613bd3528061400352806140b1528061413152506145e36000f3fe60806040526004361061014f5760003560e01c80638803dbee116100b6578063c45a01551161006f578063c45a015514610a10578063d06ca61f14610a25578063ded9382a14610ada578063e8e3370014610b4d578063f305d71914610bcd578063fb3bdb4114610c1357610188565b80638803dbee146107df578063ad5c464814610875578063ad615dec146108a6578063af2979eb146108dc578063b6f9de951461092f578063baa2abde146109b357610188565b80634a25d94a116101085780634a25d94a146104f05780635b0d5984146105865780635c11d795146105f9578063791ac9471461068f5780637ff36ab51461072557806385f8c259146107a957610188565b806302751cec1461018d578063054d50d4146101f957806318cbafe5146102415780631f00ca74146103275780632195995c146103dc57806338ed17391461045a57610188565b3661018857336001600160a01b037f0000000000000000000000000000000000000000000000000000000000000000161461018657fe5b005b600080fd5b34801561019957600080fd5b506101e0600480360360c08110156101b057600080fd5b506001600160a01b0381358116916020810135916040820135916060810135916080820135169060a00135610c97565b6040805192835260208301919091528051918290030190f35b34801561020557600080fd5b5061022f6004803603606081101561021c57600080fd5b5080359060208101359060400135610db1565b60408051918252519081900360200190f35b34801561024d57600080fd5b506102d7600480360360a081101561026457600080fd5b813591602081013591810190606081016040820135600160201b81111561028a57600080fd5b82018360208201111561029c57600080fd5b803590602001918460208302840111600160201b831117156102bd57600080fd5b91935091506001600160a01b038135169060200135610dc6565b60408051602080825283518183015283519192839290830191858101910280838360005b838110156103135781810151838201526020016102fb565b505050509050019250505060405180910390f35b34801561033357600080fd5b506102d76004803603604081101561034a57600080fd5b81359190810190604081016020820135600160201b81111561036b57600080fd5b82018360208201111561037d57600080fd5b803590602001918460208302840111600160201b8311171561039e57600080fd5b9190808060200260200160405190810160405280939291908181526020018383602002808284376000920191909152509295506110f3945050505050565b3480156103e857600080fd5b506101e0600480360361016081101561040057600080fd5b506001600160a01b038135811691602081013582169160408201359160608101359160808201359160a08101359091169060c08101359060e081013515159060ff6101008201351690610120810135906101400135611129565b34801561046657600080fd5b506102d7600480360360a081101561047d57600080fd5b813591602081013591810190606081016040820135600160201b8111156104a357600080fd5b8201836020820111156104b557600080fd5b803590602001918460208302840111600160201b831117156104d657600080fd5b91935091506001600160a01b038135169060200135611223565b3480156104fc57600080fd5b506102d7600480360360a081101561051357600080fd5b813591602081013591810190606081016040820135600160201b81111561053957600080fd5b82018360208201111561054b57600080fd5b803590602001918460208302840111600160201b8311171561056c57600080fd5b91935091506001600160a01b03813516906020013561136e565b34801561059257600080fd5b5061022f60048036036101408110156105aa57600080fd5b506001600160a01b0381358116916020810135916040820135916060810135916080820135169060a08101359060c081013515159060ff60e082013516906101008101359061012001356114fa565b34801561060557600080fd5b50610186600480360360a081101561061c57600080fd5b813591602081013591810190606081016040820135600160201b81111561064257600080fd5b82018360208201111561065457600080fd5b803590602001918460208302840111600160201b8311171561067557600080fd5b91935091506001600160a01b038135169060200135611608565b34801561069b57600080fd5b50610186600480360360a08110156106b257600080fd5b813591602081013591810190606081016040820135600160201b8111156106d857600080fd5b8201836020820111156106ea57600080fd5b803590602001918460208302840111600160201b8311171561070b57600080fd5b91935091506001600160a01b03813516906020013561189d565b6102d76004803603608081101561073b57600080fd5b81359190810190604081016020820135600160201b81111561075c57600080fd5b82018360208201111561076e57600080fd5b803590602001918460208302840111600160201b8311171561078f57600080fd5b91935091506001600160a01b038135169060200135611b21565b3480156107b557600080fd5b5061022f600480360360608110156107cc57600080fd5b5080359060208101359060400135611e74565b3480156107eb57600080fd5b506102d7600480360360a081101561080257600080fd5b813591602081013591810190606081016040820135600160201b81111561082857600080fd5b82018360208201111561083a57600080fd5b803590602001918460208302840111600160201b8311171561085b57600080fd5b91935091506001600160a01b038135169060200135611e81565b34801561088157600080fd5b5061088a611f7a565b604080516001600160a01b039092168252519081900360200190f35b3480156108b257600080fd5b5061022f600480360360608110156108c957600080fd5b5080359060208101359060400135611f9e565b3480156108e857600080fd5b5061022f600480360360c08110156108ff57600080fd5b506001600160a01b0381358116916020810135916040820135916060810135916080820135169060a00135611fab565b6101866004803603608081101561094557600080fd5b81359190810190604081016020820135600160201b81111561096657600080fd5b82018360208201111561097857600080fd5b803590602001918460208302840111600160201b8311171561099957600080fd5b91935091506001600160a01b03813516906020013561212c565b3480156109bf57600080fd5b506101e0600480360360e08110156109d657600080fd5b506001600160a01b038135811691602081013582169160408201359160608101359160808201359160a08101359091169060c001356124b8565b348015610a1c57600080fd5b5061088a6126fc565b348015610a3157600080fd5b506102d760048036036040811015610a4857600080fd5b81359190810190604081016020820135600160201b811115610a6957600080fd5b820183602082011115610a7b57600080fd5b803590602001918460208302840111600160201b83111715610a9c57600080fd5b919080806020026020016040519081016040528093929190818152602001838360200280828437600092019190915250929550612720945050505050565b348015610ae657600080fd5b506101e06004803603610140811015610afe57600080fd5b506001600160a01b0381358116916020810135916040820135916060810135916080820135169060a08101359060c081013515159060ff60e0820135169061010081013590610120013561274d565b348015610b5957600080fd5b50610baf6004803603610100811015610b7157600080fd5b506001600160a01b038135811691602081013582169160408201359160608101359160808201359160a08101359160c0820135169060e00135612861565b60408051938452602084019290925282820152519081900360600190f35b610baf600480360360c0811015610be357600080fd5b506001600160a01b0381358116916020810135916040820135916060810135916080820135169060a0013561299d565b6102d760048036036080811015610c2957600080fd5b81359190810190604081016020820135600160201b811115610c4a57600080fd5b820183602082011115610c5c57600080fd5b803590602001918460208302840111600160201b83111715610c7d57600080fd5b91935091506001600160a01b038135169060200135612c42565b6000808242811015610cde576040805162461bcd60e51b8152602060048201526018602482015260008051602061458e833981519152604482015290519081900360640190fd5b610d0d897f00000000000000000000000000000000000000000000000000000000000000008a8a8a308a6124b8565b9093509150610d1d898685612fc4565b7f00000000000000000000000000000000000000000000000000000000000000006001600160a01b0316632e1a7d4d836040518263ffffffff1660e01b815260040180828152602001915050600060405180830381600087803b158015610d8357600080fd5b505af1158015610d97573d6000803e3d6000fd5b50505050610da5858361312e565b50965096945050505050565b6000610dbe848484613226565b949350505050565b60608142811015610e0c576040805162461bcd60e51b8152602060048201526018602482015260008051602061458e833981519152604482015290519081900360640190fd5b6001600160a01b037f00000000000000000000000000000000000000000000000000000000000000001686866000198101818110610e4657fe5b905060200201356001600160a01b03166001600160a01b031614610e9f576040805162461bcd60e51b815260206004820152601d60248201526000805160206144ab833981519152604482015290519081900360640190fd5b610efd7f00000000000000000000000000000000000000000000000000000000000000008988888080602002602001604051908101604052809392919081815260200183836020028082843760009201919091525061331692505050565b91508682600184510381518110610f1057fe5b60200260200101511015610f555760405162461bcd60e51b815260040180806020018281038252602b815260200180614514602b913960400191505060405180910390fd5b610ff386866000818110610f6557fe5b905060200201356001600160a01b031633610fd97f00000000000000000000000000000000000000000000000000000000000000008a8a6000818110610fa757fe5b905060200201356001600160a01b03168b8b6001818110610fc457fe5b905060200201356001600160a01b0316613462565b85600081518110610fe657fe5b6020026020010151613522565b6110328287878080602002602001604051908101604052809392919081815260200183836020028082843760009201919091525030925061367f915050565b7f00000000000000000000000000000000000000000000000000000000000000006001600160a01b0316632e1a7d4d8360018551038151811061107157fe5b60200260200101516040518263ffffffff1660e01b815260040180828152602001915050600060405180830381600087803b1580156110af57600080fd5b505af11580156110c3573d6000803e3d6000fd5b505050506110e884836001855103815181106110db57fe5b602002602001015161312e565b509695505050505050565b60606111207f000000000000000000000000000000000000000000000000000000000000000084846138c5565b90505b92915050565b60008060006111597f00000000000000000000000000000000000000000000000000000000000000008f8f613462565b9050600087611168578c61116c565b6000195b6040805163d505accf60e01b815233600482015230602482015260448101839052606481018c905260ff8a16608482015260a4810189905260c4810188905290519192506001600160a01b0384169163d505accf9160e48082019260009290919082900301818387803b1580156111e257600080fd5b505af11580156111f6573d6000803e3d6000fd5b505050506112098f8f8f8f8f8f8f6124b8565b809450819550505050509b509b9950505050505050505050565b60608142811015611269576040805162461bcd60e51b8152602060048201526018602482015260008051602061458e833981519152604482015290519081900360640190fd5b6112c77f00000000000000000000000000000000000000000000000000000000000000008988888080602002602001604051908101604052809392919081815260200183836020028082843760009201919091525061331692505050565b915086826001845103815181106112da57fe5b6020026020010151101561131f5760405162461bcd60e51b815260040180806020018281038252602b815260200180614514602b913960400191505060405180910390fd5b61132f86866000818110610f6557fe5b6110e88287878080602002602001604051908101604052809392919081815260200183836020028082843760009201919091525089925061367f915050565b606081428110156113b4576040805162461bcd60e51b8152602060048201526018602482015260008051602061458e833981519152604482015290519081900360640190fd5b6001600160a01b037f000000000000000000000000000000000000000000000000000000000000000016868660001981018181106113ee57fe5b905060200201356001600160a01b03166001600160a01b031614611447576040805162461bcd60e51b815260206004820152601d60248201526000805160206144ab833981519152604482015290519081900360640190fd5b6114a57f0000000000000000000000000000000000000000000000000000000000000000898888808060200260200160405190810160405280939291908181526020018383602002808284376000920191909152506138c592505050565b915086826000815181106114b557fe5b60200260200101511115610f555760405162461bcd60e51b81526004018080602001828103825260278152602001806144846027913960400191505060405180910390fd5b6000806115487f00000000000000000000000000000000000000000000000000000000000000008d7f0000000000000000000000000000000000000000000000000000000000000000613462565b9050600086611557578b61155b565b6000195b6040805163d505accf60e01b815233600482015230602482015260448101839052606481018b905260ff8916608482015260a4810188905260c4810187905290519192506001600160a01b0384169163d505accf9160e48082019260009290919082900301818387803b1580156115d157600080fd5b505af11580156115e5573d6000803e3d6000fd5b505050506115f78d8d8d8d8d8d611fab565b9d9c50505050505050505050505050565b804281101561164c576040805162461bcd60e51b8152602060048201526018602482015260008051602061458e833981519152604482015290519081900360640190fd5b6116c18585600081811061165c57fe5b905060200201356001600160a01b0316336116bb7f00000000000000000000000000000000000000000000000000000000000000008989600081811061169e57fe5b905060200201356001600160a01b03168a8a6001818110610fc457fe5b8a613522565b6000858560001981018181106116d357fe5b905060200201356001600160a01b03166001600160a01b03166370a08231856040518263ffffffff1660e01b815260040180826001600160a01b03166001600160a01b0316815260200191505060206040518083038186803b15801561173857600080fd5b505afa15801561174c573d6000803e3d6000fd5b505050506040513d602081101561176257600080fd5b505160408051602088810282810182019093528882529293506117a49290918991899182918501908490808284376000920191909152508892506139fd915050565b8661185682888860001981018181106117b957fe5b905060200201356001600160a01b03166001600160a01b03166370a08231886040518263ffffffff1660e01b815260040180826001600160a01b03166001600160a01b0316815260200191505060206040518083038186803b15801561181e57600080fd5b505afa158015611832573d6000803e3d6000fd5b505050506040513d602081101561184857600080fd5b50519063ffffffff613d0816565b10156118935760405162461bcd60e51b815260040180806020018281038252602b815260200180614514602b913960400191505060405180910390fd5b5050505050505050565b80428110156118e1576040805162461bcd60e51b8152602060048201526018602482015260008051602061458e833981519152604482015290519081900360640190fd5b6001600160a01b037f0000000000000000000000000000000000000000000000000000000000000000168585600019810181811061191b57fe5b905060200201356001600160a01b03166001600160a01b031614611974576040805162461bcd60e51b815260206004820152601d60248201526000805160206144ab833981519152604482015290519081900360640190fd5b6119848585600081811061165c57fe5b6119c28585808060200260200160405190810160405280939291908181526020018383602002808284376000920191909152503092506139fd915050565b604080516370a0823160e01b815230600482015290516000916001600160a01b037f000000000000000000000000000000000000000000000000000000000000000016916370a0823191602480820192602092909190829003018186803b158015611a2c57600080fd5b505afa158015611a40573d6000803e3d6000fd5b505050506040513d6020811015611a5657600080fd5b5051905086811015611a995760405162461bcd60e51b815260040180806020018281038252602b815260200180614514602b913960400191505060405180910390fd5b7f00000000000000000000000000000000000000000000000000000000000000006001600160a01b0316632e1a7d4d826040518263ffffffff1660e01b815260040180828152602001915050600060405180830381600087803b158015611aff57600080fd5b505af1158015611b13573d6000803e3d6000fd5b50505050611893848261312e565b60608142811015611b67576040805162461bcd60e51b8152602060048201526018602482015260008051602061458e833981519152604482015290519081900360640190fd5b7f00000000000000000000000000000000000000000000000000000000000000006001600160a01b031686866000818110611b9e57fe5b905060200201356001600160a01b03166001600160a01b031614611bf7576040805162461bcd60e51b815260206004820152601d60248201526000805160206144ab833981519152604482015290519081900360640190fd5b611c557f00000000000000000000000000000000000000000000000000000000000000003488888080602002602001604051908101604052809392919081815260200183836020028082843760009201919091525061331692505050565b91508682600184510381518110611c6857fe5b60200260200101511015611cad5760405162461bcd60e51b815260040180806020018281038252602b815260200180614514602b913960400191505060405180910390fd5b7f00000000000000000000000000000000000000000000000000000000000000006001600160a01b031663d0e30db083600081518110611ce957fe5b60200260200101516040518263ffffffff1660e01b81526004016000604051808303818588803b158015611d1c57600080fd5b505af1158015611d30573d6000803e3d6000fd5b50505050507f00000000000000000000000000000000000000000000000000000000000000006001600160a01b031663a9059cbb611d957f00000000000000000000000000000000000000000000000000000000000000008989600081811061169e57fe5b84600081518110611da257fe5b60200260200101516040518363ffffffff1660e01b815260040180836001600160a01b03166001600160a01b0316815260200182815260200192505050602060405180830381600087803b158015611df957600080fd5b505af1158015611e0d573d6000803e3d6000fd5b505050506040513d6020811015611e2357600080fd5b5051611e2b57fe5b611e6a8287878080602002602001604051908101604052809392919081815260200183836020028082843760009201919091525089925061367f915050565b5095945050505050565b6000610dbe848484613d58565b60608142811015611ec7576040805162461bcd60e51b8152602060048201526018602482015260008051602061458e833981519152604482015290519081900360640190fd5b611f257f0000000000000000000000000000000000000000000000000000000000000000898888808060200260200160405190810160405280939291908181526020018383602002808284376000920191909152506138c592505050565b91508682600081518110611f3557fe5b6020026020010151111561131f5760405162461bcd60e51b81526004018080602001828103825260278152602001806144846027913960400191505060405180910390fd5b7f000000000000000000000000000000000000000000000000000000000000000081565b6000610dbe848484613e48565b60008142811015611ff1576040805162461bcd60e51b8152602060048201526018602482015260008051602061458e833981519152604482015290519081900360640190fd5b612020887f000000000000000000000000000000000000000000000000000000000000000089898930896124b8565b604080516370a0823160e01b815230600482015290519194506120a492508a9187916001600160a01b038416916370a0823191602480820192602092909190829003018186803b15801561207357600080fd5b505afa158015612087573d6000803e3d6000fd5b505050506040513d602081101561209d57600080fd5b5051612fc4565b7f00000000000000000000000000000000000000000000000000000000000000006001600160a01b0316632e1a7d4d836040518263ffffffff1660e01b815260040180828152602001915050600060405180830381600087803b15801561210a57600080fd5b505af115801561211e573d6000803e3d6000fd5b505050506110e8848361312e565b8042811015612170576040805162461bcd60e51b8152602060048201526018602482015260008051602061458e833981519152604482015290519081900360640190fd5b7f00000000000000000000000000000000000000000000000000000000000000006001600160a01b0316858560008181106121a757fe5b905060200201356001600160a01b03166001600160a01b031614612200576040805162461bcd60e51b815260206004820152601d60248201526000805160206144ab833981519152604482015290519081900360640190fd5b60003490507f00000000000000000000000000000000000000000000000000000000000000006001600160a01b031663d0e30db0826040518263ffffffff1660e01b81526004016000604051808303818588803b15801561226057600080fd5b505af1158015612274573d6000803e3d6000fd5b50505050507f00000000000000000000000000000000000000000000000000000000000000006001600160a01b031663a9059cbb6122d97f00000000000000000000000000000000000000000000000000000000000000008989600081811061169e57fe5b836040518363ffffffff1660e01b815260040180836001600160a01b03166001600160a01b0316815260200182815260200192505050602060405180830381600087803b15801561232957600080fd5b505af115801561233d573d6000803e3d6000fd5b505050506040513d602081101561235357600080fd5b505161235b57fe5b60008686600019810181811061236d57fe5b905060200201356001600160a01b03166001600160a01b03166370a08231866040518263ffffffff1660e01b815260040180826001600160a01b03166001600160a01b0316815260200191505060206040518083038186803b1580156123d257600080fd5b505afa1580156123e6573d6000803e3d6000fd5b505050506040513d60208110156123fc57600080fd5b5051604080516020898102828101820190935289825292935061243e9290918a918a9182918501908490808284376000920191909152508992506139fd915050565b87611856828989600019810181811061245357fe5b905060200201356001600160a01b03166001600160a01b03166370a08231896040518263ffffffff1660e01b815260040180826001600160a01b03166001600160a01b0316815260200191505060206040518083038186803b15801561181e57600080fd5b60008082428110156124ff576040805162461bcd60e51b8152602060048201526018602482015260008051602061458e833981519152604482015290519081900360640190fd5b600061252c7f00000000000000000000000000000000000000000000000000000000000000008c8c613462565b604080516323b872dd60e01b81523360048201526001600160a01b03831660248201819052604482018d9052915192935090916323b872dd916064808201926020929091908290030181600087803b15801561258757600080fd5b505af115801561259b573d6000803e3d6000fd5b505050506040513d60208110156125b157600080fd5b50506040805163226bf2d160e21b81526001600160a01b03888116600483015282516000938493928616926389afcb44926024808301939282900301818787803b1580156125fe57600080fd5b505af1158015612612573d6000803e3d6000fd5b505050506040513d604081101561262857600080fd5b508051602090910151909250905060006126428e8e613ef4565b509050806001600160a01b03168e6001600160a01b031614612665578183612668565b82825b90975095508a8710156126ac5760405162461bcd60e51b81526004018080602001828103825260268152602001806144cb6026913960400191505060405180910390fd5b898610156126eb5760405162461bcd60e51b81526004018080602001828103825260268152602001806144116026913960400191505060405180910390fd5b505050505097509795505050505050565b7f000000000000000000000000000000000000000000000000000000000000000081565b60606111207f00000000000000000000000000000000000000000000000000000000000000008484613316565b600080600061279d7f00000000000000000000000000000000000000000000000000000000000000008e7f0000000000000000000000000000000000000000000000000000000000000000613462565b90506000876127ac578c6127b0565b6000195b6040805163d505accf60e01b815233600482015230602482015260448101839052606481018c905260ff8a16608482015260a4810189905260c4810188905290519192506001600160a01b0384169163d505accf9160e48082019260009290919082900301818387803b15801561282657600080fd5b505af115801561283a573d6000803e3d6000fd5b5050505061284c8e8e8e8e8e8e610c97565b909f909e509c50505050505050505050505050565b600080600083428110156128aa576040805162461bcd60e51b8152602060048201526018602482015260008051602061458e833981519152604482015290519081900360640190fd5b6128b88c8c8c8c8c8c613fd2565b909450925060006128ea7f00000000000000000000000000000000000000000000000000000000000000008e8e613462565b90506128f88d338388613522565b6129048c338387613522565b806001600160a01b0316636a627842886040518263ffffffff1660e01b815260040180826001600160a01b03166001600160a01b03168152602001915050602060405180830381600087803b15801561295c57600080fd5b505af1158015612970573d6000803e3d6000fd5b505050506040513d602081101561298657600080fd5b5051949d939c50939a509198505050505050505050565b600080600083428110156129e6576040805162461bcd60e51b8152602060048201526018602482015260008051602061458e833981519152604482015290519081900360640190fd5b612a148a7f00000000000000000000000000000000000000000000000000000000000000008b348c8c613fd2565b90945092506000612a667f00000000000000000000000000000000000000000000000000000000000000008c7f0000000000000000000000000000000000000000000000000000000000000000613462565b9050612a748b338388613522565b7f00000000000000000000000000000000000000000000000000000000000000006001600160a01b031663d0e30db0856040518263ffffffff1660e01b81526004016000604051808303818588803b158015612acf57600080fd5b505af1158015612ae3573d6000803e3d6000fd5b50505050507f00000000000000000000000000000000000000000000000000000000000000006001600160a01b031663a9059cbb82866040518363ffffffff1660e01b815260040180836001600160a01b03166001600160a01b0316815260200182815260200192505050602060405180830381600087803b158015612b6857600080fd5b505af1158015612b7c573d6000803e3d6000fd5b505050506040513d6020811015612b9257600080fd5b5051612b9a57fe5b806001600160a01b0316636a627842886040518263ffffffff1660e01b815260040180826001600160a01b03166001600160a01b03168152602001915050602060405180830381600087803b158015612bf257600080fd5b505af1158015612c06573d6000803e3d6000fd5b505050506040513d6020811015612c1c57600080fd5b5051925034841015612c3457612c343385340361312e565b505096509650969350505050565b60608142811015612c88576040805162461bcd60e51b8152602060048201526018602482015260008051602061458e833981519152604482015290519081900360640190fd5b7f00000000000000000000000000000000000000000000000000000000000000006001600160a01b031686866000818110612cbf57fe5b905060200201356001600160a01b03166001600160a01b031614612d18576040805162461bcd60e51b815260206004820152601d60248201526000805160206144ab833981519152604482015290519081900360640190fd5b612d767f0000000000000000000000000000000000000000000000000000000000000000888888808060200260200160405190810160405280939291908181526020018383602002808284376000920191909152506138c592505050565b91503482600081518110612d8657fe5b60200260200101511115612dcb5760405162461bcd60e51b81526004018080602001828103825260278152602001806144846027913960400191505060405180910390fd5b7f00000000000000000000000000000000000000000000000000000000000000006001600160a01b031663d0e30db083600081518110612e0757fe5b60200260200101516040518263ffffffff1660e01b81526004016000604051808303818588803b158015612e3a57600080fd5b505af1158015612e4e573d6000803e3d6000fd5b50505050507f00000000000000000000000000000000000000000000000000000000000000006001600160a01b031663a9059cbb612eb37f00000000000000000000000000000000000000000000000000000000000000008989600081811061169e57fe5b84600081518110612ec057fe5b60200260200101516040518363ffffffff1660e01b815260040180836001600160a01b03166001600160a01b0316815260200182815260200192505050602060405180830381600087803b158015612f1757600080fd5b505af1158015612f2b573d6000803e3d6000fd5b505050506040513d6020811015612f4157600080fd5b5051612f4957fe5b612f888287878080602002602001604051908101604052809392919081815260200183836020028082843760009201919091525089925061367f915050565b81600081518110612f9557fe5b6020026020010151341115611e6a57611e6a3383600081518110612fb557fe5b6020026020010151340361312e565b604080516001600160a01b038481166024830152604480830185905283518084039091018152606490920183526020820180516001600160e01b031663a9059cbb60e01b178152925182516000946060949389169392918291908083835b602083106130415780518252601f199092019160209182019101613022565b6001836020036101000a0380198251168184511680821785525050505050509050019150506000604051808303816000865af19150503d80600081146130a3576040519150601f19603f3d011682016040523d82523d6000602084013e6130a8565b606091505b50915091508180156130d65750805115806130d657508080602001905160208110156130d357600080fd5b50515b613127576040805162461bcd60e51b815260206004820152601f60248201527f5472616e7366657248656c7065723a205452414e534645525f4641494c454400604482015290519081900360640190fd5b5050505050565b604080516000808252602082019092526001600160a01b0384169083906040518082805190602001908083835b6020831061317a5780518252601f19909201916020918201910161315b565b6001836020036101000a03801982511681845116808217855250505050505090500191505060006040518083038185875af1925050503d80600081146131dc576040519150601f19603f3d011682016040523d82523d6000602084013e6131e1565b606091505b50509050806132215760405162461bcd60e51b81526004018080602001828103825260238152602001806144f16023913960400191505060405180910390fd5b505050565b60008084116132665760405162461bcd60e51b815260040180806020018281038252602b815260200180614563602b913960400191505060405180910390fd5b6000831180156132765750600082115b6132b15760405162461bcd60e51b81526004018080602001828103825260288152602001806144376028913960400191505060405180910390fd5b60006132c5856103e563ffffffff61424616565b905060006132d9828563ffffffff61424616565b905060006132ff836132f3886103e863ffffffff61424616565b9063ffffffff6142a916565b905080828161330a57fe5b04979650505050505050565b606060028251101561336f576040805162461bcd60e51b815260206004820152601e60248201527f556e697377617056324c6962726172793a20494e56414c49445f504154480000604482015290519081900360640190fd5b815167ffffffffffffffff8111801561338757600080fd5b506040519080825280602002602001820160405280156133b1578160200160208202803683370190505b50905082816000815181106133c257fe5b60200260200101818152505060005b600183510381101561345a57600080613414878685815181106133f057fe5b602002602001015187866001018151811061340757fe5b60200260200101516142f8565b9150915061343684848151811061342757fe5b60200260200101518383613226565b84846001018151811061344557fe5b602090810291909101015250506001016133d1565b509392505050565b60008060006134718585613ef4565b604080516bffffffffffffffffffffffff19606094851b811660208084019190915293851b81166034830152825160288184030181526048830184528051908501206001600160f81b031960688401529a90941b9093166069840152607d8301989098527f96e8ac4277198ff8b6f785478aa9a39f403cb768dd02cbee326c3e7da348845f609d808401919091528851808403909101815260bd909201909752805196019590952095945050505050565b604080516001600160a01b0385811660248301528481166044830152606480830185905283518084039091018152608490920183526020820180516001600160e01b03166323b872dd60e01b17815292518251600094606094938a169392918291908083835b602083106135a75780518252601f199092019160209182019101613588565b6001836020036101000a0380198251168184511680821785525050505050509050019150506000604051808303816000865af19150503d8060008114613609576040519150601f19603f3d011682016040523d82523d6000602084013e61360e565b606091505b509150915081801561363c57508051158061363c575080806020019051602081101561363957600080fd5b50515b6136775760405162461bcd60e51b815260040180806020018281038252602481526020018061453f6024913960400191505060405180910390fd5b505050505050565b60005b60018351038110156138bf5760008084838151811061369d57fe5b60200260200101518584600101815181106136b457fe5b60200260200101519150915060006136cc8383613ef4565b50905060008785600101815181106136e057fe5b60200260200101519050600080836001600160a01b0316866001600160a01b03161461370e57826000613712565b6000835b91509150600060028a51038810613729578861376a565b61376a7f0000000000000000000000000000000000000000000000000000000000000000878c8b6002018151811061375d57fe5b6020026020010151613462565b90506137977f00000000000000000000000000000000000000000000000000000000000000008888613462565b6001600160a01b031663022c0d9f84848460006040519080825280601f01601f1916602001820160405280156137d4576020820181803683370190505b506040518563ffffffff1660e01b815260040180858152602001848152602001836001600160a01b03166001600160a01b0316815260200180602001828103825283818151815260200191508051906020019080838360005b8381101561384557818101518382015260200161382d565b50505050905090810190601f1680156138725780820380516001836020036101000a031916815260200191505b5095505050505050600060405180830381600087803b15801561389457600080fd5b505af11580156138a8573d6000803e3d6000fd5b505060019099019850613682975050505050505050565b50505050565b606060028251101561391e576040805162461bcd60e51b815260206004820152601e60248201527f556e697377617056324c6962726172793a20494e56414c49445f504154480000604482015290519081900360640190fd5b815167ffffffffffffffff8111801561393657600080fd5b50604051908082528060200260200182016040528015613960578160200160208202803683370190505b509050828160018351038151811061397457fe5b60209081029190910101528151600019015b801561345a576000806139b6878660018603815181106139a257fe5b602002602001015187868151811061340757fe5b915091506139d88484815181106139c957fe5b60200260200101518383613d58565b8460018503815181106139e757fe5b6020908102919091010152505060001901613986565b60005b600183510381101561322157600080848381518110613a1b57fe5b6020026020010151858460010181518110613a3257fe5b6020026020010151915091506000613a4a8383613ef4565b5090506000613a7a7f00000000000000000000000000000000000000000000000000000000000000008585613462565b9050600080600080846001600160a01b0316630902f1ac6040518163ffffffff1660e01b815260040160606040518083038186803b158015613abb57600080fd5b505afa158015613acf573d6000803e3d6000fd5b505050506040513d6060811015613ae557600080fd5b5080516020909101516001600160701b0391821693501690506000806001600160a01b038a811690891614613b1b578284613b1e565b83835b91509150613b7c828b6001600160a01b03166370a082318a6040518263ffffffff1660e01b815260040180826001600160a01b03166001600160a01b0316815260200191505060206040518083038186803b15801561181e57600080fd5b9550613b89868383613226565b945050505050600080856001600160a01b0316886001600160a01b031614613bb357826000613bb7565b6000835b91509150600060028c51038a10613bce578a613c02565b613c027f0000000000000000000000000000000000000000000000000000000000000000898e8d6002018151811061375d57fe5b604080516000808252602082019283905263022c0d9f60e01b835260248201878152604483018790526001600160a01b038086166064850152608060848501908152845160a48601819052969750908c169563022c0d9f958a958a958a9591949193919260c486019290918190849084905b83811015613c8c578181015183820152602001613c74565b50505050905090810190601f168015613cb95780820380516001836020036101000a031916815260200191505b5095505050505050600060405180830381600087803b158015613cdb57600080fd5b505af1158015613cef573d6000803e3d6000fd5b50506001909b019a50613a009950505050505050505050565b80820382811115611123576040805162461bcd60e51b815260206004820152601560248201527464732d6d6174682d7375622d756e646572666c6f7760581b604482015290519081900360640190fd5b6000808411613d985760405162461bcd60e51b815260040180806020018281038252602c8152602001806143c0602c913960400191505060405180910390fd5b600083118015613da85750600082115b613de35760405162461bcd60e51b81526004018080602001828103825260288152602001806144376028913960400191505060405180910390fd5b6000613e076103e8613dfb868863ffffffff61424616565b9063ffffffff61424616565b90506000613e216103e5613dfb868963ffffffff613d0816565b9050613e3e6001828481613e3157fe5b049063ffffffff6142a916565b9695505050505050565b6000808411613e885760405162461bcd60e51b815260040180806020018281038252602581526020018061445f6025913960400191505060405180910390fd5b600083118015613e985750600082115b613ed35760405162461bcd60e51b81526004018080602001828103825260288152602001806144376028913960400191505060405180910390fd5b82613ee4858463ffffffff61424616565b81613eeb57fe5b04949350505050565b600080826001600160a01b0316846001600160a01b03161415613f485760405162461bcd60e51b81526004018080602001828103825260258152602001806143ec6025913960400191505060405180910390fd5b826001600160a01b0316846001600160a01b031610613f68578284613f6b565b83835b90925090506001600160a01b038216613fcb576040805162461bcd60e51b815260206004820152601e60248201527f556e697377617056324c6962726172793a205a45524f5f414444524553530000604482015290519081900360640190fd5b9250929050565b6040805163e6a4390560e01b81526001600160a01b03888116600483015287811660248301529151600092839283927f00000000000000000000000000000000000000000000000000000000000000009092169163e6a4390591604480820192602092909190829003018186803b15801561404c57600080fd5b505afa158015614060573d6000803e3d6000fd5b505050506040513d602081101561407657600080fd5b50516001600160a01b0316141561412957604080516364e329cb60e11b81526001600160a01b038a81166004830152898116602483015291517f00000000000000000000000000000000000000000000000000000000000000009092169163c9c65396916044808201926020929091908290030181600087803b1580156140fc57600080fd5b505af1158015614110573d6000803e3d6000fd5b505050506040513d602081101561412657600080fd5b50505b6000806141577f00000000000000000000000000000000000000000000000000000000000000008b8b6142f8565b91509150816000148015614169575080155b1561417957879350869250614239565b6000614186898484613e48565b90508781116141d957858110156141ce5760405162461bcd60e51b81526004018080602001828103825260268152602001806144116026913960400191505060405180910390fd5b889450925082614237565b60006141e6898486613e48565b9050898111156141f257fe5b878110156142315760405162461bcd60e51b81526004018080602001828103825260268152602001806144cb6026913960400191505060405180910390fd5b94508793505b505b5050965096945050505050565b60008115806142615750508082028282828161425e57fe5b04145b611123576040805162461bcd60e51b815260206004820152601460248201527364732d6d6174682d6d756c2d6f766572666c6f7760601b604482015290519081900360640190fd5b80820182811015611123576040805162461bcd60e51b815260206004820152601460248201527364732d6d6174682d6164642d6f766572666c6f7760601b604482015290519081900360640190fd5b60008060006143078585613ef4565b509050600080614318888888613462565b6001600160a01b0316630902f1ac6040518163ffffffff1660e01b815260040160606040518083038186803b15801561435057600080fd5b505afa158015614364573d6000803e3d6000fd5b505050506040513d606081101561437a57600080fd5b5080516020909101516001600160701b0391821693501690506001600160a01b03878116908416146143ad5780826143b0565b81815b9099909850965050505050505056fe556e697377617056324c6962726172793a20494e53554646494349454e545f4f55545055545f414d4f554e54556e697377617056324c6962726172793a204944454e544943414c5f414444524553534553556e69737761705632526f757465723a20494e53554646494349454e545f425f414d4f554e54556e697377617056324c6962726172793a20494e53554646494349454e545f4c4951554944495459556e697377617056324c6962726172793a20494e53554646494349454e545f414d4f554e54556e69737761705632526f757465723a204558434553534956455f494e5055545f414d4f554e54556e69737761705632526f757465723a20494e56414c49445f50415448000000556e69737761705632526f757465723a20494e53554646494349454e545f415f414d4f554e545472616e7366657248656c7065723a204554485f5452414e534645525f4641494c4544556e69737761705632526f757465723a20494e53554646494349454e545f4f55545055545f414d4f554e545472616e7366657248656c7065723a205452414e534645525f46524f4d5f4641494c4544556e697377617056324c6962726172793a20494e53554646494349454e545f494e5055545f414d4f554e54556e69737761705632526f757465723a20455850495245440000000000000000a2646970667358221220d1eedd4902d789e3727ebba3a43f970a040e6bfce3ffc24ac26dadd14bdea66564736f6c63430006060033",
  "immutableReferences": {
    "6244": [
      {
        "length": 32,
        "start": 3748
      },
      {
        "length": 32,
        "start": 3963
      },
      {
        "length": 32,
        "start": 4346
      },
      {
        "length": 32,
        "start": 4403
      },
      {
        "length": 32,
        "start": 4718
      },
      {
        "length": 32,
        "start": 5196
      },
      {
        "length": 32,
        "start": 5378
      },
      {
        "length": 32,
        "start": 5746
      },
      {
        "length": 32,
        "start": 7164
      },
      {
        "length": 32,
        "start": 7529
      },
      {
        "length": 32,
        "start": 7884
      },
      {
        "length": 32,
        "start": 8877
      },
      {
        "length": 32,
        "start": 9478
      },
      {
        "length": 32,
        "start": 9982
      },
      {
        "length": 32,
        "start": 10023
      },
      {
        "length": 32,
        "start": 10071
      },
      {
        "length": 32,
        "start": 10436
      },
      {
        "length": 32,
        "start": 10784
      },
      {
        "length": 32,
        "start": 11549
      },
      {
        "length": 32,
        "start": 11911
      },
      {
        "length": 32,
        "start": 14126
      },
      {
        "length": 32,
        "start": 14193
      },
      {
        "length": 32,
        "start": 14932
      },
      {
        "length": 32,
        "start": 15315
      },
      {
        "length": 32,
        "start": 16387
      },
      {
        "length": 32,
        "start": 16561
      },
      {
        "length": 32,
        "start": 16689
      }
    ],
    "6247": [
      {
        "length": 32,
        "start": 351
      },
      {
        "length": 32,
        "start": 3300
      },
      {
        "length": 32,
        "start": 3359
      },
      {
        "length": 32,
        "start": 3606
      },
      {
        "length": 32,
        "start": 4148
      },
      {
        "length": 32,
        "start": 5054
      },
      {
        "length": 32,
        "start": 5412
      },
      {
        "length": 32,
        "start": 6379
      },
      {
        "length": 32,
        "start": 6629
      },
      {
        "length": 32,
        "start": 6811
      },
      {
        "length": 32,
        "start": 7017
      },
      {
        "length": 32,
        "start": 7343
      },
      {
        "length": 32,
        "start": 7479
      },
      {
        "length": 32,
        "start": 8060
      },
      {
        "length": 32,
        "start": 8183
      },
      {
        "length": 32,
        "start": 8358
      },
      {
        "length": 32,
        "start": 8562
      },
      {
        "length": 32,
        "start": 8711
      },
      {
        "length": 32,
        "start": 8827
      },
      {
        "length": 32,
        "start": 10105
      },
      {
        "length": 32,
        "start": 10732
      },
      {
        "length": 32,
        "start": 10818
      },
      {
        "length": 32,
        "start": 10870
      },
      {
        "length": 32,
        "start": 10986
      },
      {
        "length": 32,
        "start": 11402
      },
      {
        "length": 32,
        "start": 11725
      },
      {
        "length": 32,
        "start": 11861
      }
    ]
  },
  "source": "pragma solidity =0.6.6;\n\nimport '@uniswap/v2-core/contracts/interfaces/IUniswapV2Factory.sol';\nimport '@uniswap/lib/contracts/libraries/TransferHelper.sol';\n\nimport './interfaces/IUniswapV2Router02.sol';\nimport './libraries/UniswapV2Library.sol';\nimport './libraries/SafeMath.sol';\nimport './interfaces/IERC20.sol';\nimport './interfaces/IWETH.sol';\n\ncontract UniswapV2Router02 is IUniswapV2Router02 {\n    using SafeMath for uint;\n\n    address public immutable override factory;\n    address public immutable override WETH;\n\n    modifier ensure(uint deadline) {\n        require(deadline >= block.timestamp, 'UniswapV2Router: EXPIRED');\n        _;\n    }\n\n    constructor(address _factory, address _WETH) public {\n        factory = _factory;\n        WETH = _WETH;\n    }\n\n    receive() external payable {\n        assert(msg.sender == WETH); // only accept ETH via fallback from the WETH contract\n    }\n\n    // **** ADD LIQUIDITY ****\n    function _addLiquidity(\n        address tokenA,\n        address tokenB,\n        uint amountADesired,\n        uint amountBDesired,\n        uint amountAMin,\n        uint amountBMin\n    ) internal virtual returns (uint amountA, uint amountB) {\n        // create the pair if it doesn't exist yet\n        if (IUniswapV2Factory(factory).getPair(tokenA, tokenB) == address(0)) {\n            IUniswapV2Factory(factory).createPair(tokenA, tokenB);\n        }\n        (uint reserveA, uint reserveB) = UniswapV2Library.getReserves(factory, tokenA, tokenB);\n        if (reserveA == 0 && reserveB == 0) {\n            (amountA, amountB) = (amountADesired, amountBDesired);\n        } else {\n            uint amountBOptimal = UniswapV2Library.quote(amountADesired, reserveA, reserveB);\n            if (amountBOptimal <= amountBDesired) {\n                require(amountBOptimal >= amountBMin, 'UniswapV2Router: INSUFFICIENT_B_AMOUNT');\n                (amountA, amountB) = (amountADesired, amountBOptimal);\n            } else {\n                uint amountAOptimal = UniswapV2Library.quote(amountBDesired, reserveB, reserveA);\n                assert(amountAOptimal <= amountADesired);\n                require(amountAOptimal >= amountAMin, 'UniswapV2Router: INSUFFICIENT_A_AMOUNT');\n                (amountA, amountB) = (amountAOptimal, amountBDesired);\n            }\n        }\n    }\n    function addLiquidity(\n        address tokenA,\n        address tokenB,\n        uint amountADesired,\n        uint amountBDesired,\n        uint amountAMin,\n        uint amountBMin,\n        address to,\n        uint deadline\n    ) external virtual override ensure(deadline) returns (uint amountA, uint amountB, uint liquidity) {\n        (amountA, amountB) = _addLiquidity(tokenA, tokenB, amountADesired, amountBDesired, amountAMin, amountBMin);\n        address pair = UniswapV2Library.pairFor(factory, tokenA, tokenB);\n        TransferHelper.safeTransferFrom(tokenA, msg.sender, pair, amountA);\n        TransferHelper.safeTransferFrom(tokenB, msg.sender, pair, amountB);\n        liquidity = IUniswapV2Pair(pair).mint(to);\n    }\n    function addLiquidityETH(\n        address token,\n        uint amountTokenDesired,\n        uint amountTokenMin,\n        uint amountETHMin,\n        address to,\n        uint deadline\n    ) external virtual override payable ensure(deadline) returns (uint amountToken, uint amountETH, uint liquidity) {\n        (amountToken, amountETH) = _addLiquidity(\n            token,\n            WETH,\n            amountTokenDesired,\n            msg.value,\n            amountTokenMin,\n            amountETHMin\n        );\n        address pair = UniswapV2Library.pairFor(factory, token, WETH);\n        TransferHelper.safeTransferFrom(token, msg.sender, pair, amountToken);\n        IWETH(WETH).deposit{value: amountETH}();\n        assert(IWETH(WETH).transfer(pair, amountETH));\n        liquidity = IUniswapV2Pair(pair).mint(to);\n        // refund dust eth, if any\n        if (msg.value > amountETH) TransferHelper.safeTransferETH(msg.sender, msg.value - amountETH);\n    }\n\n    // **** REMOVE LIQUIDITY ****\n    function removeLiquidity(\n        address tokenA,\n        address tokenB,\n        uint liquidity,\n        uint amountAMin,\n        uint amountBMin,\n        address to,\n        uint deadline\n    ) public virtual override ensure(deadline) returns (uint amountA, uint amountB) {\n        address pair = UniswapV2Library.pairFor(factory, tokenA, tokenB);\n        IUniswapV2Pair(pair).transferFrom(msg.sender, pair, liquidity); // send liquidity to pair\n        (uint amount0, uint amount1) = IUniswapV2Pair(pair).burn(to);\n        (address token0,) = UniswapV2Library.sortTokens(tokenA, tokenB);\n        (amountA, amountB) = tokenA == token0 ? (amount0, amount1) : (amount1, amount0);\n        require(amountA >= amountAMin, 'UniswapV2Router: INSUFFICIENT_A_AMOUNT');\n        require(amountB >= amountBMin, 'UniswapV2Router: INSUFFICIENT_B_AMOUNT');\n    }\n    function removeLiquidityETH(\n        address token,\n        uint liquidity,\n        uint amountTokenMin,\n        uint amountETHMin,\n        address to,\n        uint deadline\n    ) public virtual override ensure(deadline) returns (uint amountToken, uint amountETH) {\n        (amountToken, amountETH) = removeLiquidity(\n            token,\n            WETH,\n            liquidity,\n            amountTokenMin,\n            amountETHMin,\n            address(this),\n            deadline\n        );\n        TransferHelper.safeTransfer(token, to, amountToken);\n        IWETH(WETH).withdraw(amountETH);\n        TransferHelper.safeTransferETH(to, amountETH);\n    }\n    function removeLiquidityWithPermit(\n        address tokenA,\n        address tokenB,\n        uint liquidity,\n        uint amountAMin,\n        uint amountBMin,\n        address to,\n        uint deadline,\n        bool approveMax, uint8 v, bytes32 r, bytes32 s\n    ) external virtual override returns (uint amountA, uint amountB) {\n        address pair = UniswapV2Library.pairFor(factory, tokenA, tokenB);\n        uint value = approveMax ? uint(-1) : liquidity;\n        IUniswapV2Pair(pair).permit(msg.sender, address(this), value, deadline, v, r, s);\n        (amountA, amountB) = removeLiquidity(tokenA, tokenB, liquidity, amountAMin, amountBMin, to, deadline);\n    }\n    function removeLiquidityETHWithPermit(\n        address token,\n        uint liquidity,\n        uint amountTokenMin,\n        uint amountETHMin,\n        address to,\n        uint deadline,\n        bool approveMax, uint8 v, bytes32 r, bytes32 s\n    ) external virtual override returns (uint amountToken, uint amountETH) {\n        address pair = UniswapV2Library.pairFor(factory, token, WETH);\n        uint value = approveMax ? uint(-1) : liquidity;\n        IUniswapV2Pair(pair).permit(msg.sender, address(this), value, deadline, v, r, s);\n        (amountToken, amountETH) = removeLiquidityETH(token, liquidity, amountTokenMin, amountETHMin, to, deadline);\n    }\n\n    // **** REMOVE LIQUIDITY (supporting fee-on-transfer tokens) ****\n    function removeLiquidityETHSupportingFeeOnTransferTokens(\n        address token,\n        uint liquidity,\n        uint amountTokenMin,\n        uint amountETHMin,\n        address to,\n        uint deadline\n    ) public virtual override ensure(deadline) returns (uint amountETH) {\n        (, amountETH) = removeLiquidity(\n            token,\n            WETH,\n            liquidity,\n            amountTokenMin,\n            amountETHMin,\n            address(this),\n            deadline\n        );\n        TransferHelper.safeTransfer(token, to, IERC20(token).balanceOf(address(this)));\n        IWETH(WETH).withdraw(amountETH);\n        TransferHelper.safeTransferETH(to, amountETH);\n    }\n    function removeLiquidityETHWithPermitSupportingFeeOnTransferTokens(\n        address token,\n        uint liquidity,\n        uint amountTokenMin,\n        uint amountETHMin,\n        address to,\n        uint deadline,\n        bool approveMax, uint8 v, bytes32 r, bytes32 s\n    ) external virtual override returns (uint amountETH) {\n        address pair = UniswapV2Library.pairFor(factory, token, WETH);\n        uint value = approveMax ? uint(-1) : liquidity;\n        IUniswapV2Pair(pair).permit(msg.sender, address(this), value, deadline, v, r, s);\n        amountETH = removeLiquidityETHSupportingFeeOnTransferTokens(\n            token, liquidity, amountTokenMin, amountETHMin, to, deadline\n        );\n    }\n\n    // **** SWAP ****\n    // requires the initial amount to have already been sent to the first pair\n    function _swap(uint[] memory amounts, address[] memory path, address _to) internal virtual {\n        for (uint i; i < path.length - 1; i++) {\n            (address input, address output) = (path[i], path[i + 1]);\n            (address token0,) = UniswapV2Library.sortTokens(input, output);\n            uint amountOut = amounts[i + 1];\n            (uint amount0Out, uint amount1Out) = input == token0 ? (uint(0), amountOut) : (amountOut, uint(0));\n            address to = i < path.length - 2 ? UniswapV2Library.pairFor(factory, output, path[i + 2]) : _to;\n            IUniswapV2Pair(UniswapV2Library.pairFor(factory, input, output)).swap(\n                amount0Out, amount1Out, to, new bytes(0)\n            );\n        }\n    }\n    function swapExactTokensForTokens(\n        uint amountIn,\n        uint amountOutMin,\n        address[] calldata path,\n        address to,\n        uint deadline\n    ) external virtual override ensure(deadline) returns (uint[] memory amounts) {\n        amounts = UniswapV2Library.getAmountsOut(factory, amountIn, path);\n        require(amounts[amounts.length - 1] >= amountOutMin, 'UniswapV2Router: INSUFFICIENT_OUTPUT_AMOUNT');\n        TransferHelper.safeTransferFrom(\n            path[0], msg.sender, UniswapV2Library.pairFor(factory, path[0], path[1]), amounts[0]\n        );\n        _swap(amounts, path, to);\n    }\n    function swapTokensForExactTokens(\n        uint amountOut,\n        uint amountInMax,\n        address[] calldata path,\n        address to,\n        uint deadline\n    ) external virtual override ensure(deadline) returns (uint[] memory amounts) {\n        amounts = UniswapV2Library.getAmountsIn(factory, amountOut, path);\n        require(amounts[0] <= amountInMax, 'UniswapV2Router: EXCESSIVE_INPUT_AMOUNT');\n        TransferHelper.safeTransferFrom(\n            path[0], msg.sender, UniswapV2Library.pairFor(factory, path[0], path[1]), amounts[0]\n        );\n        _swap(amounts, path, to);\n    }\n    function swapExactETHForTokens(uint amountOutMin, address[] calldata path, address to, uint deadline)\n        external\n        virtual\n        override\n        payable\n        ensure(deadline)\n        returns (uint[] memory amounts)\n    {\n        require(path[0] == WETH, 'UniswapV2Router: INVALID_PATH');\n        amounts = UniswapV2Library.getAmountsOut(factory, msg.value, path);\n        require(amounts[amounts.length - 1] >= amountOutMin, 'UniswapV2Router: INSUFFICIENT_OUTPUT_AMOUNT');\n        IWETH(WETH).deposit{value: amounts[0]}();\n        assert(IWETH(WETH).transfer(UniswapV2Library.pairFor(factory, path[0], path[1]), amounts[0]));\n        _swap(amounts, path, to);\n    }\n    function swapTokensForExactETH(uint amountOut, uint amountInMax, address[] calldata path, address to, uint deadline)\n        external\n        virtual\n        override\n        ensure(deadline)\n        returns (uint[] memory amounts)\n    {\n        require(path[path.length - 1] == WETH, 'UniswapV2Router: INVALID_PATH');\n        amounts = UniswapV2Library.getAmountsIn(factory, amountOut, path);\n        require(amounts[0] <= amountInMax, 'UniswapV2Router: EXCESSIVE_INPUT_AMOUNT');\n        TransferHelper.safeTransferFrom(\n            path[0], msg.sender, UniswapV2Library.pairFor(factory, path[0], path[1]), amounts[0]\n        );\n        _swap(amounts, path, address(this));\n        IWETH(WETH).withdraw(amounts[amounts.length - 1]);\n        TransferHelper.safeTransferETH(to, amounts[amounts.length - 1]);\n    }\n    function swapExactTokensForETH(uint amountIn, uint amountOutMin, address[] calldata path, address to, uint deadline)\n        external\n        virtual\n        override\n        ensure(deadline)\n        returns (uint[] memory amounts)\n    {\n        require(path[path.length - 1] == WETH, 'UniswapV2Router: INVALID_PATH');\n        amounts = UniswapV2Library.getAmountsOut(factory, amountIn, path);\n        require(amounts[amounts.length - 1] >= amountOutMin, 'UniswapV2Router: INSUFFICIENT_OUTPUT_AMOUNT');\n        TransferHelper.safeTransferFrom(\n            path[0], msg.sender, UniswapV2Library.pairFor(factory, path[0], path[1]), amounts[0]\n        );\n        _swap(amounts, path, address(this));\n        IWETH(WETH).withdraw(amounts[amounts.length - 1]);\n        TransferHelper.safeTransferETH(to, amounts[amounts.length - 1]);\n    }\n    function swapETHForExactTokens(uint amountOut, address[] calldata path, address to, uint deadline)\n        external\n        virtual\n        override\n        payable\n        ensure(deadline)\n        returns (uint[] memory amounts)\n    {\n        require(path[0] == WETH, 'UniswapV2Router: INVALID_PATH');\n        amounts = UniswapV2Library.getAmountsIn(factory, amountOut, path);\n        require(amounts[0] <= msg.value, 'UniswapV2Router: EXCESSIVE_INPUT_AMOUNT');\n        IWETH(WETH).deposit{value: amounts[0]}();\n        assert(IWETH(WETH).transfer(UniswapV2Library.pairFor(factory, path[0], path[1]), amounts[0]));\n        _swap(amounts, path, to);\n        // refund dust eth, if any\n        if (msg.value > amounts[0]) TransferHelper.safeTransferETH(msg.sender, msg.value - amounts[0]);\n    }\n\n    // **** SWAP (supporting fee-on-transfer tokens) ****\n    // requires the initial amount to have already been sent to the first pair\n    function _swapSupportingFeeOnTransferTokens(address[] memory path, address _to) internal virtual {\n        for (uint i; i < path.length - 1; i++) {\n            (address input, address output) = (path[i], path[i + 1]);\n            (address token0,) = UniswapV2Library.sortTokens(input, output);\n            IUniswapV2Pair pair = IUniswapV2Pair(UniswapV2Library.pairFor(factory, input, output));\n            uint amountInput;\n            uint amountOutput;\n            { // scope to avoid stack too deep errors\n            (uint reserve0, uint reserve1,) = pair.getReserves();\n            (uint reserveInput, uint reserveOutput) = input == token0 ? (reserve0, reserve1) : (reserve1, reserve0);\n            amountInput = IERC20(input).balanceOf(address(pair)).sub(reserveInput);\n            amountOutput = UniswapV2Library.getAmountOut(amountInput, reserveInput, reserveOutput);\n            }\n            (uint amount0Out, uint amount1Out) = input == token0 ? (uint(0), amountOutput) : (amountOutput, uint(0));\n            address to = i < path.length - 2 ? UniswapV2Library.pairFor(factory, output, path[i + 2]) : _to;\n            pair.swap(amount0Out, amount1Out, to, new bytes(0));\n        }\n    }\n    function swapExactTokensForTokensSupportingFeeOnTransferTokens(\n        uint amountIn,\n        uint amountOutMin,\n        address[] calldata path,\n        address to,\n        uint deadline\n    ) external virtual override ensure(deadline) {\n        TransferHelper.safeTransferFrom(\n            path[0], msg.sender, UniswapV2Library.pairFor(factory, path[0], path[1]), amountIn\n        );\n        uint balanceBefore = IERC20(path[path.length - 1]).balanceOf(to);\n        _swapSupportingFeeOnTransferTokens(path, to);\n        require(\n            IERC20(path[path.length - 1]).balanceOf(to).sub(balanceBefore) >= amountOutMin,\n            'UniswapV2Router: INSUFFICIENT_OUTPUT_AMOUNT'\n        );\n    }\n    function swapExactETHForTokensSupportingFeeOnTransferTokens(\n        uint amountOutMin,\n        address[] calldata path,\n        address to,\n        uint deadline\n    )\n        external\n        virtual\n        override\n        payable\n        ensure(deadline)\n    {\n        require(path[0] == WETH, 'UniswapV2Router: INVALID_PATH');\n        uint amountIn = msg.value;\n        IWETH(WETH).deposit{value: amountIn}();\n        assert(IWETH(WETH).transfer(UniswapV2Library.pairFor(factory, path[0], path[1]), amountIn));\n        uint balanceBefore = IERC20(path[path.length - 1]).balanceOf(to);\n        _swapSupportingFeeOnTransferTokens(path, to);\n        require(\n            IERC20(path[path.length - 1]).balanceOf(to).sub(balanceBefore) >= amountOutMin,\n            'UniswapV2Router: INSUFFICIENT_OUTPUT_AMOUNT'\n        );\n    }\n    function swapExactTokensForETHSupportingFeeOnTransferTokens(\n        uint amountIn,\n        uint amountOutMin,\n        address[] calldata path,\n        address to,\n        uint deadline\n    )\n        external\n        virtual\n        override\n        ensure(deadline)\n    {\n        require(path[path.length - 1] == WETH, 'UniswapV2Router: INVALID_PATH');\n        TransferHelper.safeTransferFrom(\n            path[0], msg.sender, UniswapV2Library.pairFor(factory, path[0], path[1]), amountIn\n        );\n        _swapSupportingFeeOnTransferTokens(path, address(this));\n        uint amountOut = IERC20(WETH).balanceOf(address(this));\n        require(amountOut >= amountOutMin, 'UniswapV2Router: INSUFFICIENT_OUTPUT_AMOUNT');\n        IWETH(WETH).withdraw(amountOut);\n        TransferHelper.safeTransferETH(to, amountOut);\n    }\n\n    // **** LIBRARY FUNCTIONS ****\n    function quote(uint amountA, uint reserveA, uint reserveB) public pure virtual override returns (uint amountB) {\n        return UniswapV2Library.quote(amountA, reserveA, reserveB);\n    }\n\n    function getAmountOut(uint amountIn, uint reserveIn, uint reserveOut)\n        public\n        pure\n        virtual\n        override\n        returns (uint amountOut)\n    {\n        return UniswapV2Library.getAmountOut(amountIn, reserveIn, reserveOut);\n    }\n\n    function getAmountIn(uint amountOut, uint reserveIn, uint reserveOut)\n        public\n        pure\n        virtual\n        override\n        returns (uint amountIn)\n    {\n        return UniswapV2Library.getAmountIn(amountOut, reserveIn, reserveOut);\n    }\n\n    function getAmountsOut(uint amountIn, address[] memory path)\n        public\n        view\n        virtual\n        override\n        returns (uint[] memory amounts)\n    {\n        return UniswapV2Library.getAmountsOut(factory, amountIn, path);\n    }\n\n    function getAmountsIn(uint amountOut, address[] memory path)\n        public\n        view\n        virtual\n        override\n        returns (uint[] memory amounts)\n    {\n        return UniswapV2Library.getAmountsIn(factory, amountOut, path);\n    }\n}\n",
  "sourcePath": "@uniswap/v2-periphery/contracts/UniswapV2Router02.sol",
  "compiler": {
    "name": "solc",
    "version": "0.6.6+commit.6c089d02.Emscripten.clang"
  },
  "schemaVersion": "3.3.2",
  "updatedAt": "2020-12-06T02:58:21.787Z",
  "networkType": "ethereum",
  "devdoc": {
    "methods": {}
  },
  "userdoc": {
    "methods": {}
  }
}