{
  "contractName": "UniswapOracleFactory",
  "abi": [
    {
      "inputs": [
        {
          "internalType": "address",
          "name": "usdcAdd",
          "type": "address"
        },
        {
          "internalType": "address",
          "name": "_uniFactoryAdd",
          "type": "address"
        }
      ],
      "stateMutability": "nonpayable",
      "type": "constructor"
    },
    {
      "anonymous": false,
      "inputs": [
        {
          "indexed": true,
          "internalType": "address",
          "name": "previousOwner",
          "type": "address"
        },
        {
          "indexed": true,
          "internalType": "address",
          "name": "newOwner",
          "type": "address"
        }
      ],
      "name": "OwnershipTransferred",
      "type": "event"
    },
    {
      "inputs": [],
      "name": "factory",
      "outputs": [
        {
          "internalType": "address",
          "name": "",
          "type": "address"
        }
      ],
      "stateMutability": "view",
      "type": "function",
      "constant": true
    },
    {
      "inputs": [
        {
          "internalType": "address",
          "name": "",
          "type": "address"
        }
      ],
      "name": "instanceTracker",
      "outputs": [
        {
          "internalType": "address",
          "name": "",
          "type": "address"
        }
      ],
      "stateMutability": "view",
      "type": "function",
      "constant": true
    },
    {
      "inputs": [],
      "name": "owner",
      "outputs": [
        {
          "internalType": "address",
          "name": "",
          "type": "address"
        }
      ],
      "stateMutability": "view",
      "type": "function",
      "constant": true
    },
    {
      "inputs": [],
      "name": "renounceOwnership",
      "outputs": [],
      "stateMutability": "nonpayable",
      "type": "function"
    },
    {
      "inputs": [
        {
          "internalType": "address",
          "name": "newOwner",
          "type": "address"
        }
      ],
      "name": "transferOwnership",
      "outputs": [],
      "stateMutability": "nonpayable",
      "type": "function"
    },
    {
      "inputs": [],
      "name": "uniswapRouter",
      "outputs": [
        {
          "internalType": "contract IUniswapV2Router02",
          "name": "",
          "type": "address"
        }
      ],
      "stateMutability": "view",
      "type": "function",
      "constant": true
    },
    {
      "inputs": [],
      "name": "uniswap_router_add",
      "outputs": [
        {
          "internalType": "address",
          "name": "",
          "type": "address"
        }
      ],
      "stateMutability": "view",
      "type": "function",
      "constant": true
    },
    {
      "inputs": [],
      "name": "usdc_add",
      "outputs": [
        {
          "internalType": "address",
          "name": "",
          "type": "address"
        }
      ],
      "stateMutability": "view",
      "type": "function",
      "constant": true
    },
    {
      "inputs": [
        {
          "internalType": "address",
          "name": "token",
          "type": "address"
        }
      ],
      "name": "createNewOracle",
      "outputs": [
        {
          "internalType": "address",
          "name": "",
          "type": "address"
        }
      ],
      "stateMutability": "nonpayable",
      "type": "function"
    },
    {
      "inputs": [
        {
          "internalType": "address",
          "name": "_MMI",
          "type": "address"
        },
        {
          "internalType": "address",
          "name": "_asset",
          "type": "address"
        }
      ],
      "name": "linkMMI",
      "outputs": [],
      "stateMutability": "nonpayable",
      "type": "function"
    },
    {
      "inputs": [
        {
          "internalType": "address",
          "name": "_MMI",
          "type": "address"
        }
      ],
      "name": "getUnderlyingPriceofAsset",
      "outputs": [
        {
          "internalType": "uint256",
          "name": "",
          "type": "uint256"
        }
      ],
      "stateMutability": "nonpayable",
      "type": "function"
    },
    {
      "inputs": [
        {
          "internalType": "address",
          "name": "_MMI",
          "type": "address"
        }
      ],
      "name": "getUnderlyingAssetPriceOfUSDC",
      "outputs": [
        {
          "internalType": "uint256",
          "name": "",
          "type": "uint256"
        }
      ],
      "stateMutability": "nonpayable",
      "type": "function"
    },
    {
      "inputs": [
        {
          "internalType": "address",
          "name": "_tokenA",
          "type": "address"
        },
        {
          "internalType": "address",
          "name": "_tokenB",
          "type": "address"
        },
        {
          "internalType": "address",
          "name": "_to",
          "type": "address"
        },
        {
          "internalType": "uint256",
          "name": "_amountIn",
          "type": "uint256"
        },
        {
          "internalType": "uint256",
          "name": "_amountOutMin",
          "type": "uint256"
        }
      ],
      "name": "swapERC20",
      "outputs": [],
      "stateMutability": "nonpayable",
      "type": "function"
    }
  ],
  "bytecode": "0x6080604052600180546001600160a01b031916737a250d5630b4cf539739df2c5dacb4c659f2488d17905534801561003657600080fd5b50604051611fb4380380611fb48339818101604052604081101561005957600080fd5b50805160209091015160006100756001600160e01b0361010216565b600080546001600160a01b0319166001600160a01b0383169081178255604051929350917f8be0079c531659141344cd1fd0a4f28419497f9722a3daafe3b4186f6b6457e0908290a350600154600480546001600160a01b039283166001600160a01b03199182161790915560028054821694831694909417909355600380549093169116179055610106565b3390565b611e9f806101156000396000f3fe60806040523480156200001157600080fd5b5060043610620000be5760003560e01c80631be1d0b914620000c35780632fb2da6114620000f65780633373a447146200013b5780634b462e5c1462000164578063715018a6146200019f578063735de9f714620001a95780638ab9bf6d14620001b35780638c8b685114620001dc5780638da5cb5b14620001e65780639adc328b14620001f0578063c45a015514620001fa578063f0defe931462000204578063f2fde38b1462000249575b600080fd5b620000f460048036036040811015620000db57600080fd5b506001600160a01b038135811691602001351662000272565b005b6200011f600480360360208110156200010e57600080fd5b50356001600160a01b0316620002ac565b604080516001600160a01b039092168252519081900360200190f35b6200011f600480360360208110156200015357600080fd5b50356001600160a01b0316620003a9565b6200018d600480360360208110156200017c57600080fd5b50356001600160a01b0316620003c4565b60408051918252519081900360200190f35b620000f46200044d565b6200011f620004e2565b6200018d60048036036020811015620001cb57600080fd5b50356001600160a01b0316620004f1565b6200011f62000545565b6200011f62000554565b6200011f62000563565b6200011f62000572565b620000f4600480360360a08110156200021c57600080fd5b506001600160a01b0381358116916020810135821691604082013516906060810135906080013562000581565b620000f4600480360360208110156200026157600080fd5b50356001600160a01b031662000723565b6001600160a01b03908116600090815260056020526040808220549383168252902080546001600160a01b03191692909116919091179055565b6000620002b862000810565b6000546001600160a01b039081169116146200030a576040805162461bcd60e51b8152602060048201819052602482015260008051602062001e2a833981519152604482015290519081900360640190fd5b6003546002546040516000926001600160a01b03908116928692911690620003329062000944565b6001600160a01b03938416815291831660208301529091166040808301919091525190819003606001906000f08015801562000372573d6000803e3d6000fd5b506001600160a01b03938416600090815260056020526040902080546001600160a01b031916948216949094179093555090919050565b6005602052600090815260409020546001600160a01b031681565b6001600160a01b0380821660009081526005602090815260408083205481516308e8a92b60e41b81529151939416928392638e8a92b0926004808201939182900301818887803b1580156200041857600080fd5b505af11580156200042d573d6000803e3d6000fd5b505050506040513d60208110156200044457600080fd5b50519392505050565b6200045762000810565b6000546001600160a01b03908116911614620004a9576040805162461bcd60e51b8152602060048201819052602482015260008051602062001e2a833981519152604482015290519081900360640190fd5b600080546040516001600160a01b039091169060008051602062001e4a833981519152908390a3600080546001600160a01b0319169055565b6004546001600160a01b031681565b6001600160a01b038082166000908152600560209081526040808320548151637eeda70360e01b81529151939416928392637eeda703926004808201939182900301818887803b1580156200041857600080fd5b6001546001600160a01b031681565b6000546001600160a01b031690565b6002546001600160a01b031681565b6003546001600160a01b031681565b600454603c4201906001600160a01b03166338ed17398484620005a58a8a62000814565b88866040518663ffffffff1660e01b81526004018086815260200185815260200180602001846001600160a01b03166001600160a01b03168152602001838152602001828103825285818151815260200191508051906020019060200280838360005b838110156200062257818101518382015260200162000608565b505050509050019650505050505050600060405180830381600087803b1580156200064c57600080fd5b505af115801562000661573d6000803e3d6000fd5b505050506040513d6000823e601f3d908101601f1916820160405260208110156200068b57600080fd5b8101908080516040519392919084600160201b821115620006ab57600080fd5b908301906020820185811115620006c157600080fd5b82518660208202830111600160201b82111715620006de57600080fd5b82525081516020918201928201910280838360005b838110156200070d578181015183820152602001620006f3565b5050505090500160405250505050505050505050565b6200072d62000810565b6000546001600160a01b039081169116146200077f576040805162461bcd60e51b8152602060048201819052602482015260008051602062001e2a833981519152604482015290519081900360640190fd5b6001600160a01b038116620007c65760405162461bcd60e51b815260040180806020018281038252602681526020018062001e046026913960400191505060405180910390fd5b600080546040516001600160a01b038085169392169160008051602062001e4a83398151915291a3600080546001600160a01b0319166001600160a01b0392909216919091179055565b3390565b6040805160038082526080820190925260609182919060208201838036833701905050905083816000815181106200084857fe5b60200260200101906001600160a01b031690816001600160a01b031681525050600460009054906101000a90046001600160a01b03166001600160a01b031663ad5c46486040518163ffffffff1660e01b815260040160206040518083038186803b158015620008b757600080fd5b505afa158015620008cc573d6000803e3d6000fd5b505050506040513d6020811015620008e357600080fd5b5051815182906001908110620008f557fe5b60200260200101906001600160a01b031690816001600160a01b03168152505082816002815181106200092457fe5b6001600160a01b0390921660209283029190910190910152905092915050565b6114b180620009538339019056fe60806040523480156200001157600080fd5b50604051620014b1380380620014b1833981810160405260608110156200003757600080fd5b508051602082015160409092015190919060006200005d6001600160e01b036200040016565b600080546001600160a01b0319166001600160a01b0383169081178255604051929350917f8be0079c531659141344cd1fd0a4f28419497f9722a3daafe3b4186f6b6457e0908290a3506000620000c18484846200040460201b620008691760201c565b905080600160006101000a8154816001600160a01b0302191690836001600160a01b03160217905550806001600160a01b0316630dfe16816040518163ffffffff1660e01b815260040160206040518083038186803b1580156200012457600080fd5b505afa15801562000139573d6000803e3d6000fd5b505050506040513d60208110156200015057600080fd5b5051600280546001600160a01b0319166001600160a01b039283161790556040805163d21220a760e01b815290519183169163d21220a791600480820192602092909190829003018186803b158015620001a957600080fd5b505afa158015620001be573d6000803e3d6000fd5b505050506040513d6020811015620001d557600080fd5b5051600380546001600160a01b0319166001600160a01b0392831617905560408051635909c0d560e01b8152905191831691635909c0d591600480820192602092909190829003018186803b1580156200022e57600080fd5b505afa15801562000243573d6000803e3d6000fd5b505050506040513d60208110156200025a57600080fd5b5051600490815560408051635a3d549360e01b815290516001600160a01b03841692635a3d549392808201926020929091829003018186803b158015620002a057600080fd5b505afa158015620002b5573d6000803e3d6000fd5b505050506040513d6020811015620002cc57600080fd5b505160055560408051630240bc6b60e21b8152905160009182916001600160a01b03851691630902f1ac916004808301926060929190829003018186803b1580156200031757600080fd5b505afa1580156200032c573d6000803e3d6000fd5b505050506040513d60608110156200034357600080fd5b50805160208201516040909201516007805463ffffffff191663ffffffff909216919091179055925090506001600160701b038216158015906200038f57506001600160701b03811615155b620003e1576040805162461bcd60e51b815260206004820181905260248201527f4578616d706c654f7261636c6553696d706c653a204e4f5f5245534552564553604482015290519081900360640190fd5b620003f46001600160e01b03620004e116565b50505050505062000996565b3390565b600080806200041d85856001600160e01b03620005e716565b604080516001600160601b0319606094851b811660208084019190915293851b81166034830152825160288184030181526048830184528051908501207fff0000000000000000000000000000000000000000000000000000000000000060688401529a90941b9093166069840152607d8301989098527f96e8ac4277198ff8b6f785478aa9a39f403cb768dd02cbee326c3e7da348845f609d808401919091528851808403909101815260bd909201909752805196019590952095945050505050565b600080600062000511600160009054906101000a90046001600160a01b0316620006ca60201b620005c81760201c565b600754929550909350915063ffffffff9081168203906201518090821610620005e15760405180602001604052808263ffffffff166004548703816200055357fe5b046001600160e01b039081169091529051600880546001600160e01b031916919092161790556040805160208101909152600554819063ffffffff8416908603816200059b57fe5b046001600160e01b039081169091529051600980546001600160e01b03191691909216179055600484905560058390556007805463ffffffff191663ffffffff84161790555b50505050565b600080826001600160a01b0316846001600160a01b031614156200063d5760405162461bcd60e51b81526004018080602001828103825260258152602001806200148c6025913960400191505060405180910390fd5b826001600160a01b0316846001600160a01b0316106200065f57828462000662565b83835b90925090506001600160a01b038216620006c3576040805162461bcd60e51b815260206004820152601e60248201527f556e697377617056324c6962726172793a205a45524f5f414444524553530000604482015290519081900360640190fd5b9250929050565b60008080620006e16001600160e01b03620008cd16565b9050836001600160a01b0316635909c0d56040518163ffffffff1660e01b815260040160206040518083038186803b1580156200071d57600080fd5b505afa15801562000732573d6000803e3d6000fd5b505050506040513d60208110156200074957600080fd5b505160408051635a3d549360e01b815290519194506001600160a01b03861691635a3d549391600480820192602092909190829003018186803b1580156200079057600080fd5b505afa158015620007a5573d6000803e3d6000fd5b505050506040513d6020811015620007bc57600080fd5b505160408051630240bc6b60e21b81529051919350600091829182916001600160a01b03891691630902f1ac916004808301926060929190829003018186803b1580156200080957600080fd5b505afa1580156200081e573d6000803e3d6000fd5b505050506040513d60608110156200083557600080fd5b5080516020820151604090920151909450909250905063ffffffff80821690851614620008c357600081850390508063ffffffff16620008818486620008d760201b620007a11760201c565b600001516001600160e01b031602870196508063ffffffff16620008b18585620008d760201b620007a11760201c565b516001600160e01b0316029590950194505b5050509193909250565b63ffffffff421690565b620008e162000984565b6000826001600160701b03161162000940576040805162461bcd60e51b815260206004820152601760248201527f4669786564506f696e743a204449565f42595f5a45524f000000000000000000604482015290519081900360640190fd5b6040805160208101909152806001600160701b038416600160701b600160e01b03607087901b16816200096f57fe5b046001600160e01b0316815250905092915050565b60408051602081019091526000815290565b610ae680620009a66000396000f3fe608060405234801561001057600080fd5b50600436106100d05760003560e01c80630dfe1681146100d55780635909c0d5146100f95780635a3d5493146101135780635e6aaf2c1461011b578063715018a61461013f5780637eeda703146101495780638da5cb5b146101515780638e8a92b014610159578063a2e6204514610161578063a6bb453914610169578063a8aa1b3114610171578063b4d1d79514610179578063b5b24fd414610181578063c5700a0214610189578063d21220a7146101aa578063f2fde38b146101b2575b600080fd5b6100dd6101d8565b604080516001600160a01b039092168252519081900360200190f35b6101016101e7565b60408051918252519081900360200190f35b6101016101ed565b6101236101f3565b604080516001600160e01b039092168252519081900360200190f35b610147610202565b005b610101610292565b6100dd6102dd565b6101016102ec565b610147610324565b610123610413565b6100dd610422565b610101610431565b610101610438565b61019161043e565b6040805163ffffffff9092168252519081900360200190f35b6100dd61044a565b610147600480360360208110156101c857600080fd5b50356001600160a01b0316610459565b6002546001600160a01b031681565b60045481565b60055481565b6009546001600160e01b031681565b61020a61053f565b6000546001600160a01b0390811691161461025a576040805162461bcd60e51b81526020600482018190526024820152600080516020610a4e833981519152604482015290519081900360640190fd5b600080546040516001600160a01b0390911690600080516020610a6e833981519152908390a3600080546001600160a01b0319169055565b600061029c610324565b60408051602081019091526008546001600160e01b031681526102cf906102ca90600163ffffffff61054316565b6105c1565b6001600160901b0316905090565b6000546001600160a01b031690565b60006102f6610324565b60408051602081019091526009546001600160e01b031681526102cf906102ca90600163ffffffff61054316565b60015460009081908190610340906001600160a01b03166105c8565b600754929550909350915063ffffffff908116820390620151809082161061040d5760405180602001604052808263ffffffff1660045487038161038057fe5b046001600160e01b039081169091529051600880546001600160e01b031916919092161790556040805160208101909152600554819063ffffffff8416908603816103c757fe5b046001600160e01b039081169091529051600980546001600160e01b03191691909216179055600484905560058390556007805463ffffffff191663ffffffff84161790555b50505050565b6008546001600160e01b031681565b6001546001600160a01b031681565b6201518081565b60065481565b60075463ffffffff1681565b6003546001600160a01b031681565b61046161053f565b6000546001600160a01b039081169116146104b1576040805162461bcd60e51b81526020600482018190526024820152600080516020610a4e833981519152604482015290519081900360640190fd5b6001600160a01b0381166104f65760405162461bcd60e51b8152600401808060200182810382526026815260200180610a036026913960400191505060405180910390fd5b600080546040516001600160a01b0380851693921691600080516020610a6e83398151915291a3600080546001600160a01b0319166001600160a01b0392909216919091179055565b3390565b61054b610844565b600082158061057157505082516001600160e01b03168281029083828161056e57fe5b04145b6105ac5760405162461bcd60e51b8152600401808060200182810382526023815260200180610a8e6023913960400191505060405180910390fd5b60408051602081019091529081529392505050565b5160701c90565b60008060006105d5610797565b9050836001600160a01b0316635909c0d56040518163ffffffff1660e01b815260040160206040518083038186803b15801561061057600080fd5b505afa158015610624573d6000803e3d6000fd5b505050506040513d602081101561063a57600080fd5b505160408051635a3d549360e01b815290519194506001600160a01b03861691635a3d549391600480820192602092909190829003018186803b15801561068057600080fd5b505afa158015610694573d6000803e3d6000fd5b505050506040513d60208110156106aa57600080fd5b505160408051630240bc6b60e21b81529051919350600091829182916001600160a01b03891691630902f1ac916004808301926060929190829003018186803b1580156106f657600080fd5b505afa15801561070a573d6000803e3d6000fd5b505050506040513d606081101561072057600080fd5b5080516020820151604090920151909450909250905063ffffffff8082169085161461078d5780840363ffffffff811661075a84866107a1565b516001600160e01b031602969096019563ffffffff811661077b85856107a1565b516001600160e01b0316029590950194505b5050509193909250565b63ffffffff421690565b6107a9610857565b6000826001600160701b031611610801576040805162461bcd60e51b81526020600482015260176024820152764669786564506f696e743a204449565f42595f5a45524f60481b604482015290519081900360640190fd5b6040805160208101909152806001600160701b038416600160701b600160e01b03607087901b168161082f57fe5b046001600160e01b0316815250905092915050565b6040518060200160405280600081525090565b60408051602081019091526000815290565b60008060006108788585610924565b604080516001600160601b0319606094851b811660208084019190915293851b81166034830152825160288184030181526048830184528051908501206001600160f81b031960688401529a90941b9093166069840152607d8301989098527f96e8ac4277198ff8b6f785478aa9a39f403cb768dd02cbee326c3e7da348845f609d808401919091528851808403909101815260bd909201909752805196019590952095945050505050565b600080826001600160a01b0316846001600160a01b031614156109785760405162461bcd60e51b8152600401808060200182810382526025815260200180610a296025913960400191505060405180910390fd5b826001600160a01b0316846001600160a01b03161061099857828461099b565b83835b90925090506001600160a01b0382166109fb576040805162461bcd60e51b815260206004820152601e60248201527f556e697377617056324c6962726172793a205a45524f5f414444524553530000604482015290519081900360640190fd5b925092905056fe4f776e61626c653a206e6577206f776e657220697320746865207a65726f2061646472657373556e697377617056324c6962726172793a204944454e544943414c5f4144445245535345534f776e61626c653a2063616c6c6572206973206e6f7420746865206f776e65728be0079c531659141344cd1fd0a4f28419497f9722a3daafe3b4186f6b6457e04669786564506f696e743a204d554c5449504c49434154494f4e5f4f564552464c4f57a26469706673582212207fa742c22cdb7e5f22748251c18881cae393af0faf579e9b3286cf139543e48964736f6c63430006060033556e697377617056324c6962726172793a204944454e544943414c5f4144445245535345534f776e61626c653a206e6577206f776e657220697320746865207a65726f20616464726573734f776e61626c653a2063616c6c6572206973206e6f7420746865206f776e65728be0079c531659141344cd1fd0a4f28419497f9722a3daafe3b4186f6b6457e0a2646970667358221220013316fca2ff835fdb87ef231313257c66f964d963edaa83b0e7554b591e767764736f6c63430006060033",
  "immutableReferences": {},
  "source": "pragma solidity ^0.6.2;\n\nimport \"@openzeppelin/contracts/access/Ownable.sol\";\nimport \"@uniswap/v2-periphery/contracts/UniswapV2Router02.sol\";\nimport \"./UniswapOracleInstance.sol\";\n\n////////////////////////////////////////////////////////////////////////////////////////////\n/// @title UniswapOracleFactory\n/// @author Christopher Dixon\n////////////////////////////////////////////////////////////////////////////////////////////\n/**\nThe UniswapOracleFactory contract is designed to produce individual UniswapOracleInstance contracts\nThis contract uses the OpenZeppelin contract Library to inherit functions from\n  Ownable.sol\n**/\n\ncontract UniswapOracleFactory is Ownable {\n    address\n        public uniswap_router_add = 0x7a250d5630B4cF539739dF2C5dAcb4c659F2488D;\n    address public usdc_add;\n    address public factory;\n    IUniswapV2Router02 public uniswapRouter;\n\n    mapping(address => address) public instanceTracker; //maps erc20 address to the assets MoneyMarketInstance\n\n    /**\n@notice constructor function is fired once during contract creation. This constructor initializes uniswapRouter\n        as a usable contract instance within the UniswapOracleFactory\n@param usdcAdd is the address of the ERC20 USDC address\n@param _uniFactoryAdd is the address of the uniswap factory contract\n**/\n    constructor(address usdcAdd, address _uniFactoryAdd) public {\n        uniswapRouter = IUniswapV2Router02(uniswap_router_add);\n        usdc_add = usdcAdd;\n        factory = _uniFactoryAdd;\n    }\n\n    /**\n  @notice createNewOracle allows the owner of this contract to deploy a new oracle contract when\n          a new asset is whitelisted\n  @param token is the address of the token that this oracle will provide a USDC price feed for\n  **/\n    function createNewOracle(address token) public onlyOwner returns (address) {\n        address _oracle = address(\n            new UniswapOracleInstance(factory, token, usdc_add)\n        );\n        instanceTracker[token] = _oracle;\n        return _oracle;\n    }\n\n    /**\n@notice linkMMI is used to link a MoneyMarketInstance to its oracle in the oracle factory contract\n@param _MMI is the address of the MoneyMarketInstance\n@param _asset is the address of the MoneyMarketInstancesunderlying asset\n**/\n    function linkMMI(address _MMI, address _asset) public {\n        address oracle = instanceTracker[_asset];\n        instanceTracker[_MMI] = oracle;\n    }\n\n    /**\n@notice getUnderlyingPriceofAsset allows for the price retrieval of a MoneyMarketInstances underlying asset\n@param _MMI is the address of the MoneyMarketInstance whos asset price is being retrieved\n@return returns the price of the asset\n**/\n    function getUnderlyingPriceofAsset(address _MMI) public returns (uint256) {\n        UniswapOracleInstance oracle = UniswapOracleInstance(\n            instanceTracker[_MMI]\n        );\n        return oracle.consult();\n    }\n\n    /**\n@notice getUnderlyingAssetPriceOfUSDC allows for the price retrieval of a MoneyMarketInstances underlying asset in asset\n@param _MMI is the address of the MoneyMarketInstance whos asset price is being retrieved\n@return returns the price of the asset\n**/\n    function getUnderlyingAssetPriceOfUSDC(address _MMI)\n        public\n        returns (uint256)\n    {\n        UniswapOracleInstance oracle = UniswapOracleInstance(\n            instanceTracker[_MMI]\n        );\n        return oracle.consultUSDC();\n    }\n\n    /**\n@notice getPathForERC20Swap is an internal function used to create a uniswap trade path for two input\n        ERC20 tokens using WETH as a medium of exchange.\n@param _tokenA is the address of the token being exchanged from\n@param _tokenB is the address of the token being exchanged to\n@dev example: LINK => Augur swap _tokenA would be LINK address while _tokenB would be Augur Address\n**/\n    function getPathForERC20Swap(address _tokenA, address _tokenB)\n        private\n        view\n        returns (address[] memory)\n    {\n        address[] memory path = new address[](3);\n        path[0] = _tokenA;\n        path[1] = uniswapRouter.WETH();\n        path[2] = _tokenB;\n\n        return path;\n    }\n\n    /**\n@notice swapERC20 is an external function that swaps one ERC20 token for another\n        using WETH as a medium of exchange.\n@param _tokenA is the address of the token being exchanged from\n@param _tokenB is the address of the token being exchanged to\n@param _to is the address of the MoneyMarketInstance calling this function\n@param _amountIn is the amount of _tokenA being exchanged\n@param _amountOutMin is the minimum amount of _tokenB to be received\n@dev example: LINK => Augur swap _tokenA would be LINK address while _tokenB would be Augur Address\n@dev _amountOutMin will need to be atleast enough to cover the cost of collateral liquidation\n      (loan amount +i nterest) and its liquidation fee amount.\n**/\n    function swapERC20(\n        address _tokenA,\n        address _tokenB,\n        address _to,\n        uint256 _amountIn,\n        uint256 _amountOutMin\n    ) external {\n        uint256 deadline = block.timestamp + 60;\n        uniswapRouter.swapExactTokensForTokens(\n            _amountIn,\n            _amountOutMin,\n            getPathForERC20Swap(_tokenA, _tokenB),\n            _to,\n            deadline\n        );\n    }\n}\n",
  "sourcePath": "/home/stan36/repos/Askolend/AskoLend-contracts/contracts/UniswapOracleFactory.sol",
  "compiler": {
    "name": "solc",
    "version": "0.6.6+commit.6c089d02.Emscripten.clang"
  },
  "schemaVersion": "3.3.2",
  "updatedAt": "2020-11-27T04:20:05.694Z",
  "networkType": "ethereum",
  "devdoc": {
    "methods": {
      "constructor": {
        "params": {
          "_uniFactoryAdd": "is the address of the uniswap factory contract*",
          "usdcAdd": "is the address of the ERC20 USDC address"
        }
      },
      "createNewOracle(address)": {
        "params": {
          "token": "is the address of the token that this oracle will provide a USDC price feed for*"
        }
      },
      "getUnderlyingAssetPriceOfUSDC(address)": {
        "params": {
          "_MMI": "is the address of the MoneyMarketInstance whos asset price is being retrieved"
        },
        "returns": {
          "_0": "returns the price of the asset*"
        }
      },
      "getUnderlyingPriceofAsset(address)": {
        "params": {
          "_MMI": "is the address of the MoneyMarketInstance whos asset price is being retrieved"
        },
        "returns": {
          "_0": "returns the price of the asset*"
        }
      },
      "linkMMI(address,address)": {
        "params": {
          "_MMI": "is the address of the MoneyMarketInstance",
          "_asset": "is the address of the MoneyMarketInstancesunderlying asset*"
        }
      },
      "owner()": {
        "details": "Returns the address of the current owner."
      },
      "renounceOwnership()": {
        "details": "Leaves the contract without owner. It will not be possible to call `onlyOwner` functions anymore. Can only be called by the current owner.     * NOTE: Renouncing ownership will leave the contract without an owner, thereby removing any functionality that is only available to the owner."
      },
      "swapERC20(address,address,address,uint256,uint256)": {
        "details": "example: LINK => Augur swap _tokenA would be LINK address while _tokenB would be Augur Address_amountOutMin will need to be atleast enough to cover the cost of collateral liquidation (loan amount +i nterest) and its liquidation fee amount.*",
        "params": {
          "_amountIn": "is the amount of _tokenA being exchanged",
          "_amountOutMin": "is the minimum amount of _tokenB to be received",
          "_to": "is the address of the MoneyMarketInstance calling this function",
          "_tokenA": "is the address of the token being exchanged from",
          "_tokenB": "is the address of the token being exchanged to"
        }
      },
      "transferOwnership(address)": {
        "details": "Transfers ownership of the contract to a new account (`newOwner`). Can only be called by the current owner."
      }
    }
  },
  "userdoc": {
    "methods": {
      "constructor": "constructor function is fired once during contract creation. This constructor initializes uniswapRouter as a usable contract instance within the UniswapOracleFactory",
      "createNewOracle(address)": {
        "notice": "createNewOracle allows the owner of this contract to deploy a new oracle contract when a new asset is whitelisted"
      },
      "getUnderlyingAssetPriceOfUSDC(address)": {
        "notice": "getUnderlyingAssetPriceOfUSDC allows for the price retrieval of a MoneyMarketInstances underlying asset in asset"
      },
      "getUnderlyingPriceofAsset(address)": {
        "notice": "getUnderlyingPriceofAsset allows for the price retrieval of a MoneyMarketInstances underlying asset"
      },
      "linkMMI(address,address)": {
        "notice": "linkMMI is used to link a MoneyMarketInstance to its oracle in the oracle factory contract"
      },
      "swapERC20(address,address,address,uint256,uint256)": {
        "notice": "swapERC20 is an external function that swaps one ERC20 token for another using WETH as a medium of exchange."
      }
    },
    "notice": "The UniswapOracleFactory contract is designed to produce individual UniswapOracleInstance contracts This contract uses the OpenZeppelin contract Library to inherit functions from Ownable.sol*"
  }
}