{
  "contractName": "AskoRiskToken",
  "abi": [
    {
      "inputs": [
        {
          "internalType": "address",
          "name": "_interestRateModel",
          "type": "address"
        },
        {
          "internalType": "address",
          "name": "_asset",
          "type": "address"
        },
        {
          "internalType": "address",
          "name": "_oracleFactory",
          "type": "address"
        },
        {
          "internalType": "string",
          "name": "_tokenName",
          "type": "string"
        },
        {
          "internalType": "string",
          "name": "_tokenSymbol",
          "type": "string"
        },
        {
          "internalType": "bool",
          "name": "_isALR",
          "type": "bool"
        },
        {
          "internalType": "uint256",
          "name": "_initialExchangeRate",
          "type": "uint256"
        }
      ],
      "stateMutability": "nonpayable",
      "type": "constructor"
    },
    {
      "anonymous": false,
      "inputs": [
        {
          "indexed": true,
          "internalType": "address",
          "name": "owner",
          "type": "address"
        },
        {
          "indexed": true,
          "internalType": "address",
          "name": "spender",
          "type": "address"
        },
        {
          "indexed": false,
          "internalType": "uint256",
          "name": "value",
          "type": "uint256"
        }
      ],
      "name": "Approval",
      "type": "event"
    },
    {
      "anonymous": false,
      "inputs": [
        {
          "indexed": false,
          "internalType": "uint256",
          "name": "error",
          "type": "uint256"
        },
        {
          "indexed": false,
          "internalType": "uint256",
          "name": "info",
          "type": "uint256"
        },
        {
          "indexed": false,
          "internalType": "uint256",
          "name": "detail",
          "type": "uint256"
        }
      ],
      "name": "Failure",
      "type": "event"
    },
    {
      "anonymous": false,
      "inputs": [
        {
          "indexed": true,
          "internalType": "address",
          "name": "previousOwner",
          "type": "address"
        },
        {
          "indexed": true,
          "internalType": "address",
          "name": "newOwner",
          "type": "address"
        }
      ],
      "name": "OwnershipTransferred",
      "type": "event"
    },
    {
      "anonymous": false,
      "inputs": [
        {
          "indexed": true,
          "internalType": "address",
          "name": "from",
          "type": "address"
        },
        {
          "indexed": true,
          "internalType": "address",
          "name": "to",
          "type": "address"
        },
        {
          "indexed": false,
          "internalType": "uint256",
          "name": "value",
          "type": "uint256"
        }
      ],
      "name": "Transfer",
      "type": "event"
    },
    {
      "inputs": [],
      "name": "MMI",
      "outputs": [
        {
          "internalType": "contract MoneyMarketInstance",
          "name": "",
          "type": "address"
        }
      ],
      "stateMutability": "view",
      "type": "function"
    },
    {
      "inputs": [],
      "name": "UOF",
      "outputs": [
        {
          "internalType": "contract UniswapOracleFactoryI",
          "name": "",
          "type": "address"
        }
      ],
      "stateMutability": "view",
      "type": "function"
    },
    {
      "inputs": [],
      "name": "accrualBlockNumber",
      "outputs": [
        {
          "internalType": "uint256",
          "name": "",
          "type": "uint256"
        }
      ],
      "stateMutability": "view",
      "type": "function"
    },
    {
      "inputs": [
        {
          "internalType": "address",
          "name": "owner",
          "type": "address"
        },
        {
          "internalType": "address",
          "name": "spender",
          "type": "address"
        }
      ],
      "name": "allowance",
      "outputs": [
        {
          "internalType": "uint256",
          "name": "",
          "type": "uint256"
        }
      ],
      "stateMutability": "view",
      "type": "function"
    },
    {
      "inputs": [
        {
          "internalType": "address",
          "name": "spender",
          "type": "address"
        },
        {
          "internalType": "uint256",
          "name": "amount",
          "type": "uint256"
        }
      ],
      "name": "approve",
      "outputs": [
        {
          "internalType": "bool",
          "name": "",
          "type": "bool"
        }
      ],
      "stateMutability": "nonpayable",
      "type": "function"
    },
    {
      "inputs": [],
      "name": "asset",
      "outputs": [
        {
          "internalType": "contract IERC20",
          "name": "",
          "type": "address"
        }
      ],
      "stateMutability": "view",
      "type": "function"
    },
    {
      "inputs": [
        {
          "internalType": "address",
          "name": "account",
          "type": "address"
        }
      ],
      "name": "balanceOf",
      "outputs": [
        {
          "internalType": "uint256",
          "name": "",
          "type": "uint256"
        }
      ],
      "stateMutability": "view",
      "type": "function"
    },
    {
      "inputs": [],
      "name": "borrowIndex",
      "outputs": [
        {
          "internalType": "uint256",
          "name": "",
          "type": "uint256"
        }
      ],
      "stateMutability": "view",
      "type": "function"
    },
    {
      "inputs": [],
      "name": "decimals",
      "outputs": [
        {
          "internalType": "uint8",
          "name": "",
          "type": "uint8"
        }
      ],
      "stateMutability": "view",
      "type": "function"
    },
    {
      "inputs": [
        {
          "internalType": "address",
          "name": "spender",
          "type": "address"
        },
        {
          "internalType": "uint256",
          "name": "subtractedValue",
          "type": "uint256"
        }
      ],
      "name": "decreaseAllowance",
      "outputs": [
        {
          "internalType": "bool",
          "name": "",
          "type": "bool"
        }
      ],
      "stateMutability": "nonpayable",
      "type": "function"
    },
    {
      "inputs": [
        {
          "internalType": "address",
          "name": "spender",
          "type": "address"
        },
        {
          "internalType": "uint256",
          "name": "addedValue",
          "type": "uint256"
        }
      ],
      "name": "increaseAllowance",
      "outputs": [
        {
          "internalType": "bool",
          "name": "",
          "type": "bool"
        }
      ],
      "stateMutability": "nonpayable",
      "type": "function"
    },
    {
      "inputs": [],
      "name": "interestRateModel",
      "outputs": [
        {
          "internalType": "contract InterestRateModel",
          "name": "",
          "type": "address"
        }
      ],
      "stateMutability": "view",
      "type": "function"
    },
    {
      "inputs": [],
      "name": "isALR",
      "outputs": [
        {
          "internalType": "bool",
          "name": "",
          "type": "bool"
        }
      ],
      "stateMutability": "view",
      "type": "function"
    },
    {
      "inputs": [],
      "name": "name",
      "outputs": [
        {
          "internalType": "string",
          "name": "",
          "type": "string"
        }
      ],
      "stateMutability": "view",
      "type": "function"
    },
    {
      "inputs": [],
      "name": "owner",
      "outputs": [
        {
          "internalType": "address",
          "name": "",
          "type": "address"
        }
      ],
      "stateMutability": "view",
      "type": "function"
    },
    {
      "inputs": [],
      "name": "parentContract",
      "outputs": [
        {
          "internalType": "address",
          "name": "",
          "type": "address"
        }
      ],
      "stateMutability": "view",
      "type": "function"
    },
    {
      "inputs": [],
      "name": "renounceOwnership",
      "outputs": [],
      "stateMutability": "nonpayable",
      "type": "function"
    },
    {
      "inputs": [],
      "name": "reserveFactorMantissa",
      "outputs": [
        {
          "internalType": "uint256",
          "name": "",
          "type": "uint256"
        }
      ],
      "stateMutability": "view",
      "type": "function"
    },
    {
      "inputs": [],
      "name": "symbol",
      "outputs": [
        {
          "internalType": "string",
          "name": "",
          "type": "string"
        }
      ],
      "stateMutability": "view",
      "type": "function"
    },
    {
      "inputs": [],
      "name": "totalBorrows",
      "outputs": [
        {
          "internalType": "uint256",
          "name": "",
          "type": "uint256"
        }
      ],
      "stateMutability": "view",
      "type": "function"
    },
    {
      "inputs": [],
      "name": "totalReserves",
      "outputs": [
        {
          "internalType": "uint256",
          "name": "",
          "type": "uint256"
        }
      ],
      "stateMutability": "view",
      "type": "function"
    },
    {
      "inputs": [],
      "name": "totalSupply",
      "outputs": [
        {
          "internalType": "uint256",
          "name": "",
          "type": "uint256"
        }
      ],
      "stateMutability": "view",
      "type": "function"
    },
    {
      "inputs": [
        {
          "internalType": "address",
          "name": "recipient",
          "type": "address"
        },
        {
          "internalType": "uint256",
          "name": "amount",
          "type": "uint256"
        }
      ],
      "name": "transfer",
      "outputs": [
        {
          "internalType": "bool",
          "name": "",
          "type": "bool"
        }
      ],
      "stateMutability": "nonpayable",
      "type": "function"
    },
    {
      "inputs": [
        {
          "internalType": "address",
          "name": "sender",
          "type": "address"
        },
        {
          "internalType": "address",
          "name": "recipient",
          "type": "address"
        },
        {
          "internalType": "uint256",
          "name": "amount",
          "type": "uint256"
        }
      ],
      "name": "transferFrom",
      "outputs": [
        {
          "internalType": "bool",
          "name": "",
          "type": "bool"
        }
      ],
      "stateMutability": "nonpayable",
      "type": "function"
    },
    {
      "inputs": [
        {
          "internalType": "address",
          "name": "newOwner",
          "type": "address"
        }
      ],
      "name": "transferOwnership",
      "outputs": [],
      "stateMutability": "nonpayable",
      "type": "function"
    },
    {
      "inputs": [
        {
          "internalType": "address",
          "name": "owner",
          "type": "address"
        }
      ],
      "name": "balanceOfUnderlying",
      "outputs": [
        {
          "internalType": "uint256",
          "name": "",
          "type": "uint256"
        }
      ],
      "stateMutability": "nonpayable",
      "type": "function"
    },
    {
      "inputs": [],
      "name": "accrueInterest",
      "outputs": [
        {
          "internalType": "uint256",
          "name": "",
          "type": "uint256"
        }
      ],
      "stateMutability": "nonpayable",
      "type": "function"
    },
    {
      "inputs": [
        {
          "internalType": "address",
          "name": "account",
          "type": "address"
        }
      ],
      "name": "borrowBalanceCurrent",
      "outputs": [
        {
          "internalType": "uint256",
          "name": "",
          "type": "uint256"
        }
      ],
      "stateMutability": "nonpayable",
      "type": "function"
    },
    {
      "inputs": [
        {
          "internalType": "address",
          "name": "account",
          "type": "address"
        }
      ],
      "name": "getAccountSnapshot",
      "outputs": [
        {
          "internalType": "uint256",
          "name": "",
          "type": "uint256"
        },
        {
          "internalType": "uint256",
          "name": "",
          "type": "uint256"
        },
        {
          "internalType": "uint256",
          "name": "",
          "type": "uint256"
        }
      ],
      "stateMutability": "nonpayable",
      "type": "function"
    },
    {
      "inputs": [],
      "name": "borrowRatePerBlock",
      "outputs": [
        {
          "internalType": "uint256",
          "name": "",
          "type": "uint256"
        }
      ],
      "stateMutability": "view",
      "type": "function"
    },
    {
      "inputs": [],
      "name": "supplyRatePerBlock",
      "outputs": [
        {
          "internalType": "uint256",
          "name": "",
          "type": "uint256"
        }
      ],
      "stateMutability": "view",
      "type": "function"
    },
    {
      "inputs": [],
      "name": "totalBorrowsCurrent",
      "outputs": [
        {
          "internalType": "uint256",
          "name": "",
          "type": "uint256"
        }
      ],
      "stateMutability": "nonpayable",
      "type": "function"
    },
    {
      "inputs": [],
      "name": "exchangeRateCurrent",
      "outputs": [
        {
          "internalType": "uint256",
          "name": "",
          "type": "uint256"
        }
      ],
      "stateMutability": "nonpayable",
      "type": "function"
    },
    {
      "inputs": [],
      "name": "getCash",
      "outputs": [
        {
          "internalType": "uint256",
          "name": "",
          "type": "uint256"
        }
      ],
      "stateMutability": "view",
      "type": "function"
    },
    {
      "inputs": [
        {
          "internalType": "address",
          "name": "_account",
          "type": "address"
        },
        {
          "internalType": "uint256",
          "name": "_amount",
          "type": "uint256"
        }
      ],
      "name": "mint",
      "outputs": [],
      "stateMutability": "nonpayable",
      "type": "function"
    },
    {
      "inputs": [
        {
          "internalType": "address",
          "name": "_account",
          "type": "address"
        },
        {
          "internalType": "uint256",
          "name": "_amount",
          "type": "uint256"
        }
      ],
      "name": "burn",
      "outputs": [],
      "stateMutability": "nonpayable",
      "type": "function"
    },
    {
      "inputs": [
        {
          "internalType": "uint256",
          "name": "borrowAmount",
          "type": "uint256"
        }
      ],
      "name": "borrow",
      "outputs": [
        {
          "internalType": "uint256",
          "name": "",
          "type": "uint256"
        }
      ],
      "stateMutability": "nonpayable",
      "type": "function"
    },
    {
      "inputs": [
        {
          "internalType": "uint256",
          "name": "repayAmount",
          "type": "uint256"
        }
      ],
      "name": "repayBorrow",
      "outputs": [
        {
          "internalType": "uint256",
          "name": "",
          "type": "uint256"
        }
      ],
      "stateMutability": "nonpayable",
      "type": "function"
    },
    {
      "inputs": [
        {
          "internalType": "address",
          "name": "_forAssetAdd",
          "type": "address"
        },
        {
          "internalType": "address",
          "name": "_forMMI",
          "type": "address"
        },
        {
          "internalType": "uint256",
          "name": "_amountOfThisToken",
          "type": "uint256"
        },
        {
          "internalType": "uint256",
          "name": "_minAmount",
          "type": "uint256"
        }
      ],
      "name": "_liquidateFor",
      "outputs": [],
      "stateMutability": "nonpayable",
      "type": "function"
    }
  ],
  "bytecode": "0x60806040523480156200001157600080fd5b506040516200294d3803806200294d833981810160405260e08110156200003757600080fd5b8151602083015160408085015160608601805192519496939591949391820192846401000000008211156200006b57600080fd5b9083019060208201858111156200008157600080fd5b82516401000000008111828201881017156200009c57600080fd5b82525081516020918201929091019080838360005b83811015620000cb578181015183820152602001620000b1565b50505050905090810190601f168015620000f95780820380516001836020036101000a031916815260200191505b50604052602001805160405193929190846401000000008211156200011d57600080fd5b9083019060208201858111156200013357600080fd5b82516401000000008111828201881017156200014e57600080fd5b82525081516020918201929091019080838360005b838110156200017d57818101518382015260200162000163565b50505050905090810190601f168015620001ab5780820380516001836020036101000a031916815260200191505b5060409081526020820151910151909250905082846000620001d56001600160e01b03620002ce16565b600080546001600160a01b0319166001600160a01b0383169081178255604051929350917f8be0079c531659141344cd1fd0a4f28419497f9722a3daafe3b4186f6b6457e0908290a350815162000234906004906020850190620002d3565b5080516200024a906005906020840190620002d3565b50506006805460ff1916600817905550600e80546001600160a01b039788166001600160a01b03199182161790915560108054821633179055600f8054988816988216989098179097556011805495909616949096169390931790935550600d8054911515600160a01b0260ff60a01b199092169190911790555060075562000375565b335b90565b828054600181600116156101000203166002900490600052602060002090601f016020900481019282601f106200031657805160ff191683800117855562000346565b8280016001018555821562000346579182015b828111156200034657825182559160200191906001019062000329565b506200035492915062000358565b5090565b620002d091905b808211156200035457600081556001016200035f565b6125c880620003856000396000f3fe608060405234801561001057600080fd5b50600436106101cd5760003560e01c806306fdde03146101d2578063095ea7b31461024f5780630e7527021461028f57806311e2c02f146102be578063173b9904146102e257806317bfdfbc146102ea57806318160ddd14610310578063230b9da31461031857806323b872dd14610320578063313ce5671461035657806338d52e0f14610374578063395093511461037c5780633af9e669146103a85780633b1d21a2146103ce57806340c10f19146103d657806347bd3718146104045780636c540baf1461040c57806370a0823114610414578063715018a61461043a57806373acee981461044257806377e4974d1461044a5780638157230b146104525780638da5cb5b1461048e5780638f840ddd1461049657806395d89b411461049e5780639dc29fac146104a6578063a457c2d7146104d2578063a6afed95146104fe578063a9059cbb14610506578063aa5af0fd14610532578063ae9d70b01461053a578063bd6d894d14610542578063c37f68e21461054a578063c5d9bf711461058e578063c5ebeaec14610596578063dd62ed3e146105b3578063f2fde38b146105e1578063f3fdb15a14610607578063f8f9da281461060f575b600080fd5b6101da610617565b6040805160208082528351818301528351919283929083019185019080838360005b838110156102145781810151838201526020016101fc565b50505050905090810190601f1680156102415780820380516001836020036101000a031916815260200191505b509250505060405180910390f35b61027b6004803603604081101561026557600080fd5b506001600160a01b0381351690602001356106ae565b604080519115158252519081900360200190f35b6102ac600480360360208110156102a557600080fd5b50356106cb565b60408051918252519081900360200190f35b6102c6610951565b604080516001600160a01b039092168252519081900360200190f35b6102ac610960565b6102ac6004803603602081101561030057600080fd5b50356001600160a01b0316610966565b6102ac610a5c565b6102c6610a62565b61027b6004803603606081101561033657600080fd5b506001600160a01b03813581169160208101359091169060400135610a71565b61035e610afe565b6040805160ff9092168252519081900360200190f35b6102c6610b07565b61027b6004803603604081101561039257600080fd5b506001600160a01b038135169060200135610b16565b6102ac600480360360208110156103be57600080fd5b50356001600160a01b0316610b6a565b6102ac610c05565b610402600480360360408110156103ec57600080fd5b506001600160a01b038135169060200135610c14565b005b6102ac610d4c565b6102ac610d52565b6102ac6004803603602081101561042a57600080fd5b50356001600160a01b0316610d58565b610402610d73565b6102ac610e03565b61027b610e60565b6104026004803603608081101561046857600080fd5b506001600160a01b03813581169160208101359091169060408101359060600135610e70565b6102c6610efd565b6102ac610f0c565b6101da610f12565b610402600480360360408110156104bc57600080fd5b506001600160a01b038135169060200135610f73565b61027b600480360360408110156104e857600080fd5b506001600160a01b038135169060200135610fd9565b6102ac611047565b61027b6004803603604081101561051c57600080fd5b506001600160a01b038135169060200135611354565b6102ac611368565b6102ac61136e565b6102ac61140d565b6105706004803603602081101561056057600080fd5b50356001600160a01b0316611504565b60408051938452602084019290925282820152519081900360600190f35b6102c661153a565b6102ac600480360360208110156105ac57600080fd5b5035611549565b6102ac600480360360408110156105c957600080fd5b506001600160a01b0381358116916020013516611735565b610402600480360360208110156105f757600080fd5b50356001600160a01b0316611760565b6102c6611846565b6102ac611855565b60048054604080516020601f60026000196101006001881615020190951694909404938401819004810282018101909252828152606093909290918301828280156106a35780601f10610678576101008083540402835291602001916106a3565b820191906000526020600020905b81548152906001019060200180831161068657829003601f168201915b505050505090505b90565b60006106c26106bb6118b9565b84846118bd565b50600192915050565b6010546000906001600160a01b031633146107175760405162461bcd60e51b815260040180806020018281038252604a815260200180612469604a913960600191505060405180910390fd5b6000610721611047565b9050801561072e57600080fd5b6107366119a9565b6009541461074357600080fd5b61074b61225e565b3360008181526012602052604090819020600101549083015261076d90610966565b606082015260001984141561078b5760608101516020820152610793565b602081018490525b600e54604080516323b872dd60e01b81523360048201523060248201526044810187905290516001600160a01b03909216916323b872dd916064808201926020929091908290030181600087803b1580156107ed57600080fd5b505af1158015610801573d6000803e3d6000fd5b505050506040513d602081101561081757600080fd5b50506060810151602082015161082d91906119ad565b608083018190528282600381111561084157fe5b600381111561084c57fe5b905250600090508151600381111561086057fe5b1461089c5760405162461bcd60e51b815260040180806020018281038252603a81526020018061242f603a913960400191505060405180910390fd5b6108ac600b5482602001516119ad565b60a08301819052828260038111156108c057fe5b60038111156108cb57fe5b90525060009050815160038111156108df57fe5b1461091b5760405162461bcd60e51b81526004018080602001828103825260318152602001806124d36031913960400191505060405180910390fd5b6080810151336000908152601260205260408120918255600a5460019092019190915560a0820151600b555b925050505b919050565b6011546001600160a01b031681565b60085481565b600080610971611047565b146109bc576040805162461bcd60e51b81526020600482015260166024820152751858d8dc9d59481a5b9d195c995cdd0819985a5b195960521b604482015290519081900360640190fd5b6001600160a01b03821660009081526012602052604081208054829182916109eb57600094505050505061094c565b6109fb8160000154600a546119d3565b90945092506000846003811115610a0e57fe5b14610a2057600094505050505061094c565b610a2e838260010154611a12565b90945091506000846003811115610a4157fe5b14610a5357600094505050505061094c565b50949350505050565b60035490565b600d546001600160a01b031681565b6000610a7e848484611a3d565b610af484610a8a6118b9565b610aef856040518060600160405280602881526020016123c7602891396001600160a01b038a16600090815260026020526040812090610ac86118b9565b6001600160a01b03168152602081019190915260400160002054919063ffffffff611b9416565b6118bd565b5060019392505050565b60065460ff1690565b600e546001600160a01b031681565b60006106c2610b236118b9565b84610aef8560026000610b346118b9565b6001600160a01b03908116825260208083019390935260409182016000908120918c16815292529020549063ffffffff611c2b16565b6000610b74612295565b6040518060200160405280610b8761140d565b90529050600080610ba083610b9b87610d58565b611c8a565b90925090506000826003811115610bb357fe5b14610947576040805162461bcd60e51b815260206004820152601f60248201527f62616c616e636520636f756c64206e6f742062652063616c63756c6174656400604482015290519081900360640190fd5b6000610c0f611cdd565b905090565b610c1c6118b9565b6000546001600160a01b03908116911614610c6c576040805162461bcd60e51b815260206004820181905260248201526000805160206123ef833981519152604482015290519081900360640190fd5b6000610c76611047565b90508015610c8357600080fd5b610c8b6122a8565b610c9361140d565b602080830191825260408051918201905290518152610cb3908490611d28565b6040830181905282826003811115610cc757fe5b6003811115610cd257fe5b9052506000905081516003811115610ce657fe5b14610d38576040805162461bcd60e51b815260206004820181905260248201527f4d494e545f45584348414e47455f43414c43554c4154494f4e5f4641494c4544604482015290519081900360640190fd5b610d46848260400151611d3f565b50505050565b600b5481565b60095481565b6001600160a01b031660009081526001602052604090205490565b610d7b6118b9565b6000546001600160a01b03908116911614610dcb576040805162461bcd60e51b815260206004820181905260248201526000805160206123ef833981519152604482015290519081900360640190fd5b600080546040516001600160a01b039091169060008051602061240f833981519152908390a3600080546001600160a01b0319169055565b600080610e0e611047565b14610e59576040805162461bcd60e51b81526020600482015260166024820152751858d8dc9d59481a5b9d195c995cdd0819985a5b195960521b604482015290519081900360640190fd5b50600b5490565b600d54600160a01b900460ff1681565b601154600e546040805163f0defe9360e01b81526001600160a01b0392831660048201528783166024820152868316604482015260648101869052608481018590529051919092169163f0defe939160a480830192600092919082900301818387803b158015610edf57600080fd5b505af1158015610ef3573d6000803e3d6000fd5b5050505050505050565b6000546001600160a01b031690565b600c5481565b60058054604080516020601f60026000196101006001881615020190951694909404938401819004810282018101909252828152606093909290918301828280156106a35780601f10610678576101008083540402835291602001916106a3565b610f7b6118b9565b6000546001600160a01b03908116911614610fcb576040805162461bcd60e51b815260206004820181905260248201526000805160206123ef833981519152604482015290519081900360640190fd5b610fd58282611e2b565b5050565b60006106c2610fe66118b9565b84610aef8560405180606001604052806025815260200161256e60259139600260006110106118b9565b6001600160a01b03908116825260208083019390935260409182016000908120918d1681529252902054919063ffffffff611b9416565b6000806110526119a9565b6009549091508082141561106b576000925050506106ab565b6000611075611cdd565b600b54600c54600a54600f54604080516315f2405360e01b815260048101879052602481018690526044810185905290519596509394929391926000926001600160a01b03909216916315f24053916064808301926020929190829003018186803b1580156110e357600080fd5b505afa1580156110f7573d6000803e3d6000fd5b505050506040513d602081101561110d57600080fd5b5051905065048c2739500081111561116b576040805162461bcd60e51b815260206004820152601c60248201527b0c4dee4e4deee40e4c2e8ca40d2e640c2c4e6eae4c8d8f240d0d2ced60231b604482015290519081900360640190fd5b60008061117889896119ad565b9092509050600082600381111561118b57fe5b146111dd576040805162461bcd60e51b815260206004820152601f60248201527f636f756c64206e6f742063616c63756c61746520626c6f636b2064656c746100604482015290519081900360640190fd5b6111e5612295565b60008060008061120360405180602001604052808a81525087611f21565b9097509450600087600381111561121657fe5b14611248576112336009600689600381111561122e57fe5b611f89565b9e5050505050505050505050505050506106ab565b611252858c611c8a565b9097509350600087600381111561126557fe5b1461127d576112336009600189600381111561122e57fe5b611287848c611fe5565b9097509250600087600381111561129a57fe5b146112b2576112336009600489600381111561122e57fe5b6112cd6040518060200160405280600854815250858c61200b565b909750915060008760038111156112e057fe5b146112f8576112336009600589600381111561122e57fe5b611303858a8b61200b565b9097509050600087600381111561131657fe5b1461132e576112336009600389600381111561122e57fe5b60099d909d55600a9c909c55600b55505050600c97909755506000979650505050505050565b60006106c26113616118b9565b8484611a3d565b600a5481565b600f546000906001600160a01b031663b816881661138a611cdd565b600b54600c546008546040518563ffffffff1660e01b81526004018085815260200184815260200183815260200182815260200194505050505060206040518083038186803b1580156113dc57600080fd5b505afa1580156113f0573d6000803e3d6000fd5b505050506040513d602081101561140657600080fd5b5051905090565b600080611418611047565b14611463576040805162461bcd60e51b81526020600482015260166024820152751858d8dc9d59481a5b9d195c995cdd0819985a5b195960521b604482015290519081900360640190fd5b61146b610a5c565b61147857506007546106ab565b6000611482611cdd565b9050600061148e612295565b600061149f84600b54600c54612067565b9350905060008160038111156114b157fe5b146114c35760009450505050506106ab565b6114d4836114cf610a5c565b6120a5565b9250905060008160038111156114e657fe5b146114f85760009450505050506106ab565b505192506106ab915050565b60008060008061151385610d58565b9050600061152086610966565b9050600061152c61140d565b929791965091945092505050565b6010546001600160a01b031681565b6010546000906001600160a01b031633146115955760405162461bcd60e51b815260040180806020018281038252604a815260200180612469604a913960600191505060405180910390fd5b600061159f611047565b905080156115c5576115bd8160108111156115b657fe5b6008612155565b91505061094c565b826115ce611cdd565b10156115e0576115bd600e6009612155565b6115e86122ca565b6115f133610966565b602082018190526116029085611fe5565b604083018190528282600381111561161657fe5b600381111561162157fe5b905250600090508151600381111561163557fe5b1461163f57600080fd5b61164b600b5485611fe5565b606083018190528282600381111561165f57fe5b600381111561166a57fe5b905250600090508151600381111561167e57fe5b1461168857600080fd5b600e546040805163a9059cbb60e01b81523360048201526024810187905290516001600160a01b039092169163a9059cbb916044808201926020929091908290030181600087803b1580156116dc57600080fd5b505af11580156116f0573d6000803e3d6000fd5b505050506040513d602081101561170657600080fd5b50506040808201513360009081526012602052918220908155600a546001909101556060820151600b55610947565b6001600160a01b03918216600090815260026020908152604080832093909416825291909152205490565b6117686118b9565b6000546001600160a01b039081169116146117b8576040805162461bcd60e51b815260206004820181905260248201526000805160206123ef833981519152604482015290519081900360640190fd5b6001600160a01b0381166117fd5760405162461bcd60e51b81526004018080602001828103825260268152602001806123596026913960400191505060405180910390fd5b600080546040516001600160a01b038085169392169160008051602061240f83398151915291a3600080546001600160a01b0319166001600160a01b0392909216919091179055565b600f546001600160a01b031681565b600f546000906001600160a01b03166315f24053611871611cdd565b600b54600c546040518463ffffffff1660e01b815260040180848152602001838152602001828152602001935050505060206040518083038186803b1580156113dc57600080fd5b3390565b6001600160a01b0383166119025760405162461bcd60e51b815260040180806020018281038252602481526020018061254a6024913960400191505060405180910390fd5b6001600160a01b0382166119475760405162461bcd60e51b815260040180806020018281038252602281526020018061237f6022913960400191505060405180910390fd5b6001600160a01b03808416600081815260026020908152604080832094871680845294825291829020859055815185815291517f8c5be1e5ebec7d5bd14f71427d1e84f3dd0314c0f7b2291e5b200ac8c7c3b9259281900390910190a3505050565b4390565b6000808383116119c45750600090508183036119cc565b506003905060005b9250929050565b600080836119e6575060009050806119cc565b838302838582816119f357fe5b0414611a07575060029150600090506119cc565b6000925090506119cc565b60008082611a2657506001905060006119cc565b6000838581611a3157fe5b04915091509250929050565b6001600160a01b038316611a825760405162461bcd60e51b81526004018080602001828103825260258152602001806125256025913960400191505060405180910390fd5b6001600160a01b038216611ac75760405162461bcd60e51b81526004018080602001828103825260238152602001806122f46023913960400191505060405180910390fd5b611ad28383836121a9565b611b15816040518060600160405280602681526020016123a1602691396001600160a01b038616600090815260016020526040902054919063ffffffff611b9416565b6001600160a01b038085166000908152600160205260408082209390935590841681522054611b4a908263ffffffff611c2b16565b6001600160a01b0380841660008181526001602090815260409182902094909455805185815290519193928716926000805160206124b383398151915292918290030190a3505050565b60008184841115611c235760405162461bcd60e51b81526004018080602001828103825283818151815260200191508051906020019080838360005b83811015611be8578181015183820152602001611bd0565b50505050905090810190601f168015611c155780820380516001836020036101000a031916815260200191505b509250505060405180910390fd5b505050900390565b600082820183811015611c83576040805162461bcd60e51b815260206004820152601b60248201527a536166654d6174683a206164646974696f6e206f766572666c6f7760281b604482015290519081900360640190fd5b9392505050565b6000806000611c97612295565b611ca18686611f21565b90925090506000826003811115611cb457fe5b14611cc557509150600090506119cc565b6000611cd0826121ae565b9350935050509250929050565b600e54604080516370a0823160e01b815230600482015290516000926001600160a01b0316916370a08231916024808301926020929190829003018186803b1580156113dc57600080fd5b6000806000611d35612295565b611ca186866121bd565b6001600160a01b038216611d9a576040805162461bcd60e51b815260206004820152601f60248201527f45524332303a206d696e7420746f20746865207a65726f206164647265737300604482015290519081900360640190fd5b611da6600083836121a9565b600354611db9908263ffffffff611c2b16565b6003556001600160a01b038216600090815260016020526040902054611de5908263ffffffff611c2b16565b6001600160a01b03831660008181526001602090815260408083209490945583518581529351929391926000805160206124b38339815191529281900390910190a35050565b6001600160a01b038216611e705760405162461bcd60e51b81526004018080602001828103825260218152602001806125046021913960400191505060405180910390fd5b611e7c826000836121a9565b611ebf81604051806060016040528060228152602001612317602291396001600160a01b038516600090815260016020526040902054919063ffffffff611b9416565b6001600160a01b038316600090815260016020526040902055600354611eeb908263ffffffff61221c16565b6003556040805182815290516000916001600160a01b038516916000805160206124b38339815191529181900360200190a35050565b6000611f2b612295565b600080611f3c8660000151866119d3565b90925090506000826003811115611f4f57fe5b14611f6e575060408051602081019091526000815290925090506119cc565b60408051602081019091529081526000969095509350505050565b6000600080516020612339833981519152846010811115611fa657fe5b846050811115611fb257fe5b604080519283526020830191909152818101859052519081900360600190a1836010811115611fdd57fe5b949350505050565b600080838301848110611ffd576000925090506119cc565b5060029150600090506119cc565b6000806000612018612295565b6120228787611f21565b9092509050600082600381111561203557fe5b14612046575091506000905061205f565b612058612052826121ae565b86611fe5565b9350935050505b935093915050565b6000806000806120778787611fe5565b9092509050600082600381111561208a57fe5b1461209b575091506000905061205f565b61205881866119ad565b60006120af612295565b6000806120c486670de0b6b3a76400006119d3565b909250905060008260038111156120d757fe5b146120f6575060408051602081019091526000815290925090506119cc565b6000806121038388611a12565b9092509050600082600381111561211657fe5b14612138575060408051602081019091526000815290945092506119cc915050565b604080516020810190915290815260009890975095505050505050565b600060008051602061233983398151915283601081111561217257fe5b83605081111561217e57fe5b604080519283526020830191909152600082820152519081900360600190a1826010811115611c8357fe5b505050565b51670de0b6b3a7640000900490565b60006121c7612295565b6000806121dc670de0b6b3a7640000876119d3565b909250905060008260038111156121ef57fe5b1461220e575060408051602081019091526000815290925090506119cc565b611cd08186600001516120a5565b6000611c8383836040518060400160405280601e81526020017f536166654d6174683a207375627472616374696f6e206f766572666c6f770000815250611b94565b6040805160c08101909152806000815260200160008152602001600081526020016000815260200160008152602001600081525090565b6040518060200160405280600081525090565b6040805160608101909152806000815260200160008152602001600081525090565b60408051608081019091528060008152602001600081526020016000815260200160008152509056fe45524332303a207472616e7366657220746f20746865207a65726f206164647265737345524332303a206275726e20616d6f756e7420657863656564732062616c616e636545b96fe442630264581b197e84bbada861235052c5a1aadfff9ea4e40a969aa04f776e61626c653a206e6577206f776e657220697320746865207a65726f206164647265737345524332303a20617070726f766520746f20746865207a65726f206164647265737345524332303a207472616e7366657220616d6f756e7420657863656564732062616c616e636545524332303a207472616e7366657220616d6f756e74206578636565647320616c6c6f77616e63654f776e61626c653a2063616c6c6572206973206e6f7420746865206f776e65728be0079c531659141344cd1fd0a4f28419497f9722a3daafe3b4186f6b6457e052455041595f424f52524f575f4e45575f4143434f554e545f424f52524f575f42414c414e43455f43414c43554c4154494f4e5f4641494c45444e6f7420746865204d6f6e65794d61726b6574496e7374616e63653a2063616c6c6572206973206e6f74207468697320746f6b656e73204d6f6e65794d61726b6574496e7374616e6365ddf252ad1be2c89b69c2b068fc378daa952ba7f163c4a11628f55a4df523b3ef52455041595f424f52524f575f4e45575f544f54414c5f42414c414e43455f43414c43554c4154494f4e5f4641494c454445524332303a206275726e2066726f6d20746865207a65726f206164647265737345524332303a207472616e736665722066726f6d20746865207a65726f206164647265737345524332303a20617070726f76652066726f6d20746865207a65726f206164647265737345524332303a2064656372656173656420616c6c6f77616e63652062656c6f77207a65726fa26469706673582212205f717931116b5ad363785579b4d1153693b2ba957641f5ca87227052b9ca9d2f64736f6c63430006000033",
  "source": "pragma solidity ^0.6.0;\n\n\nimport \"@openzeppelin/contracts/access/Ownable.sol\";\nimport \"@openzeppelin/contracts/token/ERC20/ERC20.sol\";\nimport \"./compound/Exponential.sol\";\nimport \"./compound/InterestRateModel.sol\";\nimport \"./compound/ErrorReporter.sol\";\nimport \"./MoneyMarketInstance.sol\";\n////////////////////////////////////////////////////////////////////////////////////////////\n/// @title AskoRiskToken\n/// @author Christopher Dixon\n////////////////////////////////////////////////////////////////////////////////////////////\n/**\nThe AskoRiskToken contract is an ERC20 contract designed to be owned by a MoneyMarketInstance contract. This contract's\ntoken represents a Risk lending pool in a MoneyMarketInstance contract.\nThis contract uses the OpenZeppelin contract Library to inherit functions from\n  Ownable.sol && ERC20.sol\n**/\n\ncontract AskoRiskToken is Ownable, ERC20, Exponential, TokenErrorReporter {\n\n  uint internal initialExchangeRateMantissa;\n  uint public reserveFactorMantissa;\n  uint public accrualBlockNumber;\n  uint public borrowIndex;\n  uint public totalBorrows;\n  uint public totalReserves;\n  uint internal constant borrowRateMaxMantissa = 0.0005e16;\n  uint internal constant reserveFactorMaxMantissa = 1e18;\n\n  address public parentContract;\n  bool public isALR;\n\n\n  IERC20 public asset;\n  InterestRateModel public interestRateModel;\n  MoneyMarketInstance public MMI;\n  UniswapOracleFactoryI public UOF;\n\n  mapping(address => BorrowSnapshot) internal accountBorrows;\n\n/**\n@notice Container for borrow balance information\n@member principal Total balance (with accrued interest), after applying the most recent balance-changing action\n@member interestIndex Global borrowIndex as of the most recent balance-changing action\n*/\n  struct BorrowSnapshot {\n      uint principal;\n      uint interestIndex;\n  }\n\n/**\n@notice onlyMMInstance is a modifier used to make a function only callable by theproperMoneyMarketInstance contract\n**/\n    modifier onlyMMInstance()  {\n      require(msg.sender == address(MMI), \"Not the MoneyMarketInstance: caller is not this tokens MoneyMarketInstance\");\n      _;\n    }\n/**\n@notice the constructor function is fired during the contract deployment process. The constructor can only be fired once and\nis used to set up the name, symbol, and decimal variables for the AskoRiskToken contract.\n@param _tokenName is the name of the asset the MoneyMarketInstance that owns this contract represents\n@param _tokenSymbol is the symbol of the asset the MoneyMarketInstance that owns this contract represents\n@param _isALR signifies whether or not a specific AskoRiskToken instance is a high risk or low risk token.\n@dev these two perameters become hyphenated with \"AHR\" during this process( e.x: AHR-wBitcoin, AHR-wBTC)\n**/\n  constructor (\n    address _interestRateModel,\n    address _asset,\n    address _oracleFactory,\n    string memory _tokenName,\n    string memory _tokenSymbol,\n    bool _isALR,\n    uint _initialExchangeRate\n    )\n    public\n    ERC20(\n      _tokenSymbol,\n      _tokenName\n    )\n      {\n        asset = IERC20(_asset);\n        MMI = MoneyMarketInstance(msg.sender);\n        interestRateModel = InterestRateModel(_interestRateModel);\n        UOF = UniswapOracleFactoryI(_oracleFactory);\n        isALR = _isALR;\n        initialExchangeRateMantissa = _initialExchangeRate;\n      }\n\n      /**\n       * @notice Get the underlying balance of the `owners`\n       * @dev This also accrues interest in a transaction\n       * @param owner The address of the account to query\n       * @return The amount of underlying owned by `owner`\n       */\n      function balanceOfUnderlying(address owner) external returns (uint) {\n          Exp memory exchangeRate = Exp({mantissa: exchangeRateCurrent()});\n          (MathError mErr, uint balance) = mulScalarTruncate(exchangeRate, balanceOf(owner));\n          require(mErr == MathError.NO_ERROR, \"balance could not be calculated\");\n          return balance;\n      }\n\n    function getCashPrior() internal view returns (uint){\n      return asset.balanceOf(address(this));\n    }\n    /**\n    * @notice Applies accrued interest to total borrows and reserves\n    * @dev This calculates interest accrued from the last checkpointed block\n    *   up to the current block and writes new checkpoint to storage.\n    */\n    function accrueInterest() public returns (uint) {\n      /* Remember the initial block number */\n      uint currentBlockNumber = getBlockNumber();\n      uint accrualBlockNumberPrior = accrualBlockNumber;\n\n      /* Short-circuit accumulating 0 interest */\n      if (accrualBlockNumberPrior == currentBlockNumber) {\n        return uint(Error.NO_ERROR);\n      }\n\n      /* Read the previous values out of storage */\n      uint cashPrior = getCashPrior();\n      uint borrowsPrior = totalBorrows;\n      uint reservesPrior = totalReserves;\n      uint borrowIndexPrior = borrowIndex;\n\n      /* Calculate the current borrow interest rate */\n      uint borrowRateMantissa = interestRateModel.getBorrowRate(cashPrior, borrowsPrior, reservesPrior);\n      require(borrowRateMantissa <= borrowRateMaxMantissa, \"borrow rate is absurdly high\");\n\n      /* Calculate the number of blocks elapsed since the last accrual */\n      (MathError mathErr, uint blockDelta) = subUInt(currentBlockNumber, accrualBlockNumberPrior);\n      require(mathErr == MathError.NO_ERROR, \"could not calculate block delta\");\n\n      /*\n      * Calculate the interest accumulated into borrows and reserves and the new index:\n      *  simpleInterestFactor = borrowRate * blockDelta\n      *  interestAccumulated = simpleInterestFactor * totalBorrows\n      *  totalBorrowsNew = interestAccumulated + totalBorrows\n      *  totalReservesNew = interestAccumulated * reserveFactor + totalReserves\n      *  borrowIndexNew = simpleInterestFactor * borrowIndex + borrowIndex\n      */\n\n      Exp memory simpleInterestFactor;\n      uint interestAccumulated;\n      uint totalBorrowsNew;\n      uint totalReservesNew;\n      uint borrowIndexNew;\n\n      (mathErr, simpleInterestFactor) = mulScalar(Exp({mantissa: borrowRateMantissa}), blockDelta);\n      if (mathErr != MathError.NO_ERROR) {\n        return failOpaque(Error.MATH_ERROR, FailureInfo.ACCRUE_INTEREST_SIMPLE_INTEREST_FACTOR_CALCULATION_FAILED, uint(mathErr));\n      }\n\n      (mathErr, interestAccumulated) = mulScalarTruncate(simpleInterestFactor, borrowsPrior);\n      if (mathErr != MathError.NO_ERROR) {\n        return failOpaque(Error.MATH_ERROR, FailureInfo.ACCRUE_INTEREST_ACCUMULATED_INTEREST_CALCULATION_FAILED, uint(mathErr));\n      }\n\n      (mathErr, totalBorrowsNew) = addUInt(interestAccumulated, borrowsPrior);\n      if (mathErr != MathError.NO_ERROR) {\n        return failOpaque(Error.MATH_ERROR, FailureInfo.ACCRUE_INTEREST_NEW_TOTAL_BORROWS_CALCULATION_FAILED, uint(mathErr));\n      }\n\n      (mathErr, totalReservesNew) = mulScalarTruncateAddUInt(Exp({mantissa: reserveFactorMantissa}), interestAccumulated, reservesPrior);\n      if (mathErr != MathError.NO_ERROR) {\n        return failOpaque(Error.MATH_ERROR, FailureInfo.ACCRUE_INTEREST_NEW_TOTAL_RESERVES_CALCULATION_FAILED, uint(mathErr));\n      }\n\n      (mathErr, borrowIndexNew) = mulScalarTruncateAddUInt(simpleInterestFactor, borrowIndexPrior, borrowIndexPrior);\n      if (mathErr != MathError.NO_ERROR) {\n        return failOpaque(Error.MATH_ERROR, FailureInfo.ACCRUE_INTEREST_NEW_BORROW_INDEX_CALCULATION_FAILED, uint(mathErr));\n      }\n\n      /////////////////////////\n      // EFFECTS & INTERACTIONS\n      // (No safe failures beyond this point)\n\n      /* We write the previously calculated values into storage */\n      accrualBlockNumber = currentBlockNumber;\n      borrowIndex = borrowIndexNew;\n      totalBorrows = totalBorrowsNew;\n      totalReserves = totalReservesNew;\n\n      return uint(Error.NO_ERROR);\n    }\n\n\n    /**\n    * @notice Accrue interest to updated borrowIndex and then calculate account's borrow balance using the updated borrowIndex\n    * @param account The address whose balance should be calculated after updating borrowIndex\n    * @return The calculated balance\n    */\n    function borrowBalanceCurrent(address account) public returns (uint) {\n      require(accrueInterest() == uint(Error.NO_ERROR), \"accrue interest failed\");\n      MathError mathErr;\n      uint principalTimesIndex;\n      uint result;\n\n      /* Get borrowBalance and borrowIndex */\n      BorrowSnapshot storage borrowSnapshot = accountBorrows[account];\n\n      /* If borrowBalance = 0 then borrowIndex is likely also 0.\n      * Rather than failing the calculation with a division by 0, we immediately return 0 in this case.\n      */\n      if (borrowSnapshot.principal == 0) {\n        return (0);\n      }\n\n      /* Calculate new borrow balance using the interest index:\n      *  recentBorrowBalance = borrower.borrowBalance * market.borrowIndex / borrower.borrowIndex\n      */\n      (mathErr, principalTimesIndex) = mulUInt(borrowSnapshot.principal, borrowIndex);\n      if (mathErr != MathError.NO_ERROR) {\n        return (0);\n      }\n\n      (mathErr, result) = divUInt(principalTimesIndex, borrowSnapshot.interestIndex);\n      if (mathErr != MathError.NO_ERROR) {\n        return (0);\n      }\n\n      return (result);\n    }\n\n      /**\n       * @notice Get a snapshot of the account's balances, and the cached exchange rate\n       * @dev This is used by comptroller to more efficiently perform liquidity checks.\n       * @param account Address of the account to snapshot\n       * @return (token balance, borrow balance, exchange rate mantissa)\n       */\n      function getAccountSnapshot(address account) external returns ( uint, uint, uint) {\n          uint tokenBalance = balanceOf(account);\n          uint borrowBalance = borrowBalanceCurrent(account);\n          uint exchangeRateMantissa = exchangeRateCurrent();\n        return ( tokenBalance, borrowBalance, exchangeRateMantissa);\n      }\n\n      /**\n       * @dev Function to simply retrieve block number\n       *  This exists mainly for inheriting test contracts to stub this result.\n       */\n      function getBlockNumber() internal view returns (uint) {\n          return block.number;\n      }\n\n      /**\n       * @notice Returns the current per-block borrow interest rate for this cToken\n       * @return The borrow interest rate per block, scaled by 1e18\n       */\n      function borrowRatePerBlock() external view returns (uint) {\n          return interestRateModel.getBorrowRate(getCashPrior(), totalBorrows, totalReserves);\n      }\n\n      /**\n       * @notice Returns the current per-block supply interest rate for this cToken\n       * @return The supply interest rate per block, scaled by 1e18\n       */\n      function supplyRatePerBlock() external view returns (uint) {\n          return interestRateModel.getSupplyRate(getCashPrior(), totalBorrows, totalReserves, reserveFactorMantissa);\n      }\n\n      /**\n       * @notice Returns the current total borrows plus accrued interest\n       * @return The total borrows with interest\n       */\n      function totalBorrowsCurrent() external  returns (uint) {\n          require(accrueInterest() == uint(Error.NO_ERROR), \"accrue interest failed\");\n          return totalBorrows;\n      }\n\n\n\n\n\n\n      /**\n       * @notice Accrue interest then return the up-to-date exchange rate\n       * @return Calculated exchange rate scaled by 1e18\n       */\n      function exchangeRateCurrent() public  returns (uint) {\n          require(accrueInterest() == uint(Error.NO_ERROR), \"accrue interest failed\");\n          if (totalSupply() == 0) {\n            /*\n            * If there are no tokens minted:\n            *  exchangeRate = initialExchangeRate\n            */\n            return initialExchangeRateMantissa;\n          } else {\n            /*\n            * Otherwise:\n            *  exchangeRate = (totalCash + totalBorrows - totalReserves) / totalSupply\n            */\n            uint totalCash = getCashPrior();\n            uint cashPlusBorrowsMinusReserves;\n            Exp memory exchangeRate;\n            MathError mathErr;\n\n            (mathErr, cashPlusBorrowsMinusReserves) = addThenSubUInt(totalCash, totalBorrows, totalReserves);\n            if (mathErr != MathError.NO_ERROR) {\n              return (0);\n            }\n\n            (mathErr, exchangeRate) = getExp(cashPlusBorrowsMinusReserves, totalSupply());\n            if (mathErr != MathError.NO_ERROR) {\n              return (0);\n            }\n\n            return (exchangeRate.mantissa);\n          }\n      }\n\n\n\n      /**\n       * @notice Get cash balance of this cToken in the underlying asset\n       * @return The quantity of underlying asset owned by this contract\n       */\n      function getCash() external view returns (uint) {\n          return getCashPrior();\n      }\n\n\n      struct MintLocalVars {\n          MathError mathErr;\n          uint exchangeRateMantissa;\n          uint mintTokens;\n      }\n\n\n/**\n@notice mint is a modified function that only the owner of this contract(its MoneyMarketInstance) can call.\n        This function allows an amount of AskoRiskToken token to be minted when called.\n@param _account is the account the AHR is being minted to\n@param _amount is the amount of AHR being minted\n**/\n  function mint(address _account, uint256 _amount) public onlyOwner {\n    uint error = accrueInterest();\n    require(error == uint(Error.NO_ERROR));\n\n\n    MintLocalVars memory vars;\n\n    vars.exchangeRateMantissa = exchangeRateCurrent();\n\n\n    /*\n    We get the current exchange rate and calculate the number of AHR to be minted:\n    mintTokens = _amount / exchangeRate\n    */\n    (vars.mathErr, vars.mintTokens) = divScalarByExpTruncate(_amount, Exp({mantissa: vars.exchangeRateMantissa}));\n    require(vars.mathErr == MathError.NO_ERROR, \"MINT_EXCHANGE_CALCULATION_FAILED\");\n    _mint(_account, vars.mintTokens);\n  }\n\n/**\n@notice burn is a modified function that only the owner of this contract(its MoneyMarketInstance) can call.\n        This function allows an amount of AskoRiskToken token to be burned from an address when called.\n@param _account is the account the AHR is being burned from\n@param _amount is the amount of AHR being burned\n**/\n  function burn(address _account, uint256 _amount) public onlyOwner{\n    _burn(_account, _amount);\n  }\n\n\n  struct BorrowLocalVars {\n      MathError mathErr;\n      uint accountBorrows;\n      uint accountBorrowsNew;\n      uint totalBorrowsNew;\n  }\n\n/**\n@notice Sender borrows assets from the protocol to their own address\n@param borrowAmount The amount of the underlying asset to borrow\n*/\n  function borrow(uint borrowAmount) external onlyMMInstance  returns (uint){\n      uint error = accrueInterest();\n      if (error != uint(Error.NO_ERROR)) {\n          // accrueInterest emits logs on errors, but we still want to log the fact that an attempted borrow failed\n          return fail(Error(error), FailureInfo.BORROW_ACCRUE_INTEREST_FAILED);\n      }\n      /* Fail gracefully if protocol has insufficient underlying cash */\n      if (getCashPrior() < borrowAmount) {\n          return fail(Error.TOKEN_INSUFFICIENT_CASH, FailureInfo.BORROW_CASH_NOT_AVAILABLE);\n      }\n\n      BorrowLocalVars memory vars;\n      /*\n       * We calculate the new borrower and total borrow balances, failing on overflow:\n       *  accountBorrowsNew = accountBorrows + borrowAmount\n       *  totalBorrowsNew = totalBorrows + borrowAmount\n       */\n      vars.accountBorrows = borrowBalanceCurrent(msg.sender);\n\n      (vars.mathErr, vars.accountBorrowsNew) = addUInt(vars.accountBorrows, borrowAmount);\n      require(vars.mathErr == MathError.NO_ERROR);\n\n      (vars.mathErr, vars.totalBorrowsNew) = addUInt(totalBorrows, borrowAmount);\n      require(vars.mathErr == MathError.NO_ERROR);\n\n       asset.transfer(msg.sender, borrowAmount);\n\n      /* We write the previously calculated values into storage */\n      accountBorrows[msg.sender].principal = vars.accountBorrowsNew;\n      accountBorrows[msg.sender].interestIndex = borrowIndex;\n      totalBorrows = vars.totalBorrowsNew;\n\n      return uint(Error.NO_ERROR);\n\n  }\n\n  struct RepayBorrowLocalVars {\n      MathError mathErr;\n      uint repayAmount;\n      uint borrowerIndex;\n      uint accountBorrows;\n      uint accountBorrowsNew;\n      uint totalBorrowsNew;\n  }\n\n/**\n@notice Sender repays their own borrow\n@param repayAmount The amount to repay\n@return uint 0=success, otherwise a failure (see ErrorReporter.sol for details)\n*/\n  function repayBorrow(uint repayAmount) external onlyMMInstance returns (uint) {\n    uint error = accrueInterest();\n    require(error == uint(Error.NO_ERROR));\n\n\n\n    /* Verify market's block number equals current block number */\n    require(accrualBlockNumber == getBlockNumber());\n\n\n    RepayBorrowLocalVars memory vars;\n\n    /* We remember the original borrowerIndex for verification purposes */\n    vars.borrowerIndex = accountBorrows[msg.sender].interestIndex;\n\n    /* We fetch the amount the borrower owes, with accumulated interest */\n    vars.accountBorrows = borrowBalanceCurrent(msg.sender);\n\n\n    /* If repayAmount == -1, repayAmount = accountBorrows */\n    if (repayAmount == uint(-1)) {\n        vars.repayAmount = vars.accountBorrows;\n    } else {\n        vars.repayAmount = repayAmount;\n    }\n\n    asset.transferFrom(msg.sender, address(this), repayAmount);\n\n    /*\n     * We calculate the new borrower and total borrow balances, failing on underflow:\n     *  accountBorrowsNew = accountBorrows - actualRepayAmount\n     *  totalBorrowsNew = totalBorrows - actualRepayAmount\n     */\n    (vars.mathErr, vars.accountBorrowsNew) = subUInt(vars.accountBorrows, vars.repayAmount);\n    require(vars.mathErr == MathError.NO_ERROR, \"REPAY_BORROW_NEW_ACCOUNT_BORROW_BALANCE_CALCULATION_FAILED\");\n\n    (vars.mathErr, vars.totalBorrowsNew) = subUInt(totalBorrows, vars.repayAmount);\n    require(vars.mathErr == MathError.NO_ERROR, \"REPAY_BORROW_NEW_TOTAL_BALANCE_CALCULATION_FAILED\");\n\n    /* We write the previously calculated values into storage */\n    accountBorrows[msg.sender].principal = vars.accountBorrowsNew;\n    accountBorrows[msg.sender].interestIndex = borrowIndex;\n    totalBorrows = vars.totalBorrowsNew;\n\n    return (uint(Error.NO_ERROR));\n\n  }\n\n  /**\n  @notice _liquidateFor is called by the liquidateAccount function on a MMI where a user is being liquidated. This function\n          is called on a MMI contract where collateral is staked.\n  @param _forAssetAdd is the asset address that this contracts asset is being swapped for\n  @param _forMMI is the MoneyMarketInstance where the swapped asset is being sent to\n  @param _amountOfThisToken  is the amount of this contracts asset to be swapped\n  @param _minAmount is the minimum amount of the calling MMI's asset to be swappedfor\n  **/\n  function _liquidateFor(\n    address _forAssetAdd,\n    address _forMMI,\n    uint _amountOfThisToken,\n    uint _minAmount\n  ) external {\n\n\n\n    UOF.swapERC20(address(asset), _forAssetAdd, _forMMI, _amountOfThisToken, _minAmount);\n  }\n\n\n}\n",
  "sourcePath": "/home/stan36/repos/Askolend/AskoLend-contracts/contracts/AskoRiskToken.sol",
  "compiler": {
    "name": "solc",
    "version": "0.6.0+commit.26b70077.Emscripten.clang"
  },
  "schemaVersion": "3.2.5",
  "updatedAt": "2020-10-06T18:35:27.975Z",
  "devdoc": {
    "methods": {
      "_liquidateFor(address,address,uint256,uint256)": {
        "params": {
          "_amountOfThisToken": "is the amount of this contracts asset to be swapped",
          "_forAssetAdd": "is the asset address that this contracts asset is being swapped for",
          "_forMMI": "is the MoneyMarketInstance where the swapped asset is being sent to",
          "_minAmount": "is the minimum amount of the calling MMI's asset to be swappedfor*"
        }
      },
      "accrueInterest()": {
        "details": "This calculates interest accrued from the last checkpointed block  up to the current block and writes new checkpoint to storage."
      },
      "allowance(address,address)": {
        "details": "See {IERC20-allowance}."
      },
      "approve(address,uint256)": {
        "details": "See {IERC20-approve}.     * Requirements:     * - `spender` cannot be the zero address."
      },
      "balanceOf(address)": {
        "details": "See {IERC20-balanceOf}."
      },
      "balanceOfUnderlying(address)": {
        "details": "This also accrues interest in a transaction",
        "params": {
          "owner": "The address of the account to query"
        },
        "returns": {
          "_0": "The amount of underlying owned by `owner`"
        }
      },
      "borrow(uint256)": {
        "params": {
          "borrowAmount": "The amount of the underlying asset to borrow"
        }
      },
      "borrowBalanceCurrent(address)": {
        "params": {
          "account": "The address whose balance should be calculated after updating borrowIndex"
        },
        "returns": {
          "_0": "The calculated balance"
        }
      },
      "burn(address,uint256)": {
        "params": {
          "_account": "is the account the AHR is being burned from",
          "_amount": "is the amount of AHR being burned*"
        }
      },
      "constructor": {
        "details": "these two perameters become hyphenated with \"AHR\" during this process( e.x: AHR-wBitcoin, AHR-wBTC)*",
        "params": {
          "_isALR": "signifies whether or not a specific AskoRiskToken instance is a high risk or low risk token.",
          "_tokenName": "is the name of the asset the MoneyMarketInstance that owns this contract represents",
          "_tokenSymbol": "is the symbol of the asset the MoneyMarketInstance that owns this contract represents"
        }
      },
      "decimals()": {
        "details": "Returns the number of decimals used to get its user representation. For example, if `decimals` equals `2`, a balance of `505` tokens should be displayed to a user as `5,05` (`505 / 10 ** 2`).     * Tokens usually opt for a value of 18, imitating the relationship between Ether and Wei. This is the value {ERC20} uses, unless {_setupDecimals} is called.     * NOTE: This information is only used for _display_ purposes: it in no way affects any of the arithmetic of the contract, including {IERC20-balanceOf} and {IERC20-transfer}."
      },
      "decreaseAllowance(address,uint256)": {
        "details": "Atomically decreases the allowance granted to `spender` by the caller.     * This is an alternative to {approve} that can be used as a mitigation for problems described in {IERC20-approve}.     * Emits an {Approval} event indicating the updated allowance.     * Requirements:     * - `spender` cannot be the zero address. - `spender` must have allowance for the caller of at least `subtractedValue`."
      },
      "getAccountSnapshot(address)": {
        "details": "This is used by comptroller to more efficiently perform liquidity checks.",
        "params": {
          "account": "Address of the account to snapshot"
        },
        "returns": {
          "_0": "(token balance, borrow balance, exchange rate mantissa)"
        }
      },
      "increaseAllowance(address,uint256)": {
        "details": "Atomically increases the allowance granted to `spender` by the caller.     * This is an alternative to {approve} that can be used as a mitigation for problems described in {IERC20-approve}.     * Emits an {Approval} event indicating the updated allowance.     * Requirements:     * - `spender` cannot be the zero address."
      },
      "mint(address,uint256)": {
        "params": {
          "_account": "is the account the AHR is being minted to",
          "_amount": "is the amount of AHR being minted*"
        }
      },
      "name()": {
        "details": "Returns the name of the token."
      },
      "owner()": {
        "details": "Returns the address of the current owner."
      },
      "renounceOwnership()": {
        "details": "Leaves the contract without owner. It will not be possible to call `onlyOwner` functions anymore. Can only be called by the current owner.     * NOTE: Renouncing ownership will leave the contract without an owner, thereby removing any functionality that is only available to the owner."
      },
      "repayBorrow(uint256)": {
        "params": {
          "repayAmount": "The amount to repay"
        },
        "returns": {
          "_0": "uint 0=success, otherwise a failure (see ErrorReporter.sol for details)"
        }
      },
      "symbol()": {
        "details": "Returns the symbol of the token, usually a shorter version of the name."
      },
      "totalSupply()": {
        "details": "See {IERC20-totalSupply}."
      },
      "transfer(address,uint256)": {
        "details": "See {IERC20-transfer}.     * Requirements:     * - `recipient` cannot be the zero address. - the caller must have a balance of at least `amount`."
      },
      "transferFrom(address,address,uint256)": {
        "details": "See {IERC20-transferFrom}.     * Emits an {Approval} event indicating the updated allowance. This is not required by the EIP. See the note at the beginning of {ERC20};     * Requirements: - `sender` and `recipient` cannot be the zero address. - `sender` must have a balance of at least `amount`. - the caller must have allowance for ``sender``'s tokens of at least `amount`."
      },
      "transferOwnership(address)": {
        "details": "Transfers ownership of the contract to a new account (`newOwner`). Can only be called by the current owner."
      }
    }
  },
  "userdoc": {
    "methods": {
      "_liquidateFor(address,address,uint256,uint256)": {
        "notice": "_liquidateFor is called by the liquidateAccount function on a MMI where a user is being liquidated. This function is called on a MMI contract where collateral is staked."
      },
      "accrueInterest()": {
        "notice": "Applies accrued interest to total borrows and reserves"
      },
      "balanceOfUnderlying(address)": {
        "notice": "Get the underlying balance of the `owners`"
      },
      "borrow(uint256)": {
        "notice": "Sender borrows assets from the protocol to their own address"
      },
      "borrowBalanceCurrent(address)": {
        "notice": "Accrue interest to updated borrowIndex and then calculate account's borrow balance using the updated borrowIndex"
      },
      "borrowRatePerBlock()": {
        "notice": "Returns the current per-block borrow interest rate for this cToken"
      },
      "burn(address,uint256)": {
        "notice": "burn is a modified function that only the owner of this contract(its MoneyMarketInstance) can call. This function allows an amount of AskoRiskToken token to be burned from an address when called."
      },
      "constructor": "the constructor function is fired during the contract deployment process. The constructor can only be fired once and is used to set up the name, symbol, and decimal variables for the AskoRiskToken contract.",
      "exchangeRateCurrent()": {
        "notice": "Accrue interest then return the up-to-date exchange rate"
      },
      "getAccountSnapshot(address)": {
        "notice": "Get a snapshot of the account's balances, and the cached exchange rate"
      },
      "getCash()": {
        "notice": "Get cash balance of this cToken in the underlying asset"
      },
      "mint(address,uint256)": {
        "notice": "mint is a modified function that only the owner of this contract(its MoneyMarketInstance) can call. This function allows an amount of AskoRiskToken token to be minted when called."
      },
      "repayBorrow(uint256)": {
        "notice": "Sender repays their own borrow"
      },
      "supplyRatePerBlock()": {
        "notice": "Returns the current per-block supply interest rate for this cToken"
      },
      "totalBorrowsCurrent()": {
        "notice": "Returns the current total borrows plus accrued interest"
      }
    },
    "notice": "The AskoRiskToken contract is an ERC20 contract designed to be owned by a MoneyMarketInstance contract. This contract's token represents a Risk lending pool in a MoneyMarketInstance contract. This contract uses the OpenZeppelin contract Library to inherit functions from Ownable.sol && ERC20.sol*"
  }
}