{
  "contractName": "AskoRiskToken",
  "abi": [
    {
      "inputs": [
        {
          "internalType": "address",
          "name": "_interestRateModel",
          "type": "address"
        },
        {
          "internalType": "address",
          "name": "_asset",
          "type": "address"
        },
        {
          "internalType": "address",
          "name": "_oracleFactory",
          "type": "address"
        },
        {
          "internalType": "string",
          "name": "_tokenName",
          "type": "string"
        },
        {
          "internalType": "string",
          "name": "_tokenSymbol",
          "type": "string"
        },
        {
          "internalType": "bool",
          "name": "_isALR",
          "type": "bool"
        },
        {
          "internalType": "uint256",
          "name": "_initialExchangeRate",
          "type": "uint256"
        }
      ],
      "stateMutability": "nonpayable",
      "type": "constructor"
    },
    {
      "anonymous": false,
      "inputs": [
        {
          "indexed": true,
          "internalType": "address",
          "name": "owner",
          "type": "address"
        },
        {
          "indexed": true,
          "internalType": "address",
          "name": "spender",
          "type": "address"
        },
        {
          "indexed": false,
          "internalType": "uint256",
          "name": "value",
          "type": "uint256"
        }
      ],
      "name": "Approval",
      "type": "event"
    },
    {
      "anonymous": false,
      "inputs": [
        {
          "indexed": true,
          "internalType": "address",
          "name": "previousOwner",
          "type": "address"
        },
        {
          "indexed": true,
          "internalType": "address",
          "name": "newOwner",
          "type": "address"
        }
      ],
      "name": "OwnershipTransferred",
      "type": "event"
    },
    {
      "anonymous": false,
      "inputs": [
        {
          "indexed": true,
          "internalType": "address",
          "name": "from",
          "type": "address"
        },
        {
          "indexed": true,
          "internalType": "address",
          "name": "to",
          "type": "address"
        },
        {
          "indexed": false,
          "internalType": "uint256",
          "name": "value",
          "type": "uint256"
        }
      ],
      "name": "Transfer",
      "type": "event"
    },
    {
      "inputs": [],
      "name": "MMI",
      "outputs": [
        {
          "internalType": "contract MoneyMarketInstance",
          "name": "",
          "type": "address"
        }
      ],
      "stateMutability": "view",
      "type": "function"
    },
    {
      "inputs": [],
      "name": "UOF",
      "outputs": [
        {
          "internalType": "contract UniswapOracleFactoryI",
          "name": "",
          "type": "address"
        }
      ],
      "stateMutability": "view",
      "type": "function"
    },
    {
      "inputs": [],
      "name": "accrualBlockNumber",
      "outputs": [
        {
          "internalType": "uint256",
          "name": "",
          "type": "uint256"
        }
      ],
      "stateMutability": "view",
      "type": "function"
    },
    {
      "inputs": [
        {
          "internalType": "address",
          "name": "owner",
          "type": "address"
        },
        {
          "internalType": "address",
          "name": "spender",
          "type": "address"
        }
      ],
      "name": "allowance",
      "outputs": [
        {
          "internalType": "uint256",
          "name": "",
          "type": "uint256"
        }
      ],
      "stateMutability": "view",
      "type": "function"
    },
    {
      "inputs": [
        {
          "internalType": "address",
          "name": "spender",
          "type": "address"
        },
        {
          "internalType": "uint256",
          "name": "amount",
          "type": "uint256"
        }
      ],
      "name": "approve",
      "outputs": [
        {
          "internalType": "bool",
          "name": "",
          "type": "bool"
        }
      ],
      "stateMutability": "nonpayable",
      "type": "function"
    },
    {
      "inputs": [],
      "name": "asset",
      "outputs": [
        {
          "internalType": "contract IERC20",
          "name": "",
          "type": "address"
        }
      ],
      "stateMutability": "view",
      "type": "function"
    },
    {
      "inputs": [
        {
          "internalType": "address",
          "name": "account",
          "type": "address"
        }
      ],
      "name": "balanceOf",
      "outputs": [
        {
          "internalType": "uint256",
          "name": "",
          "type": "uint256"
        }
      ],
      "stateMutability": "view",
      "type": "function"
    },
    {
      "inputs": [],
      "name": "borrowIndex",
      "outputs": [
        {
          "internalType": "uint256",
          "name": "",
          "type": "uint256"
        }
      ],
      "stateMutability": "view",
      "type": "function"
    },
    {
      "inputs": [],
      "name": "borrowRateMaxMantissa",
      "outputs": [
        {
          "internalType": "uint256",
          "name": "",
          "type": "uint256"
        }
      ],
      "stateMutability": "view",
      "type": "function"
    },
    {
      "inputs": [],
      "name": "decimals",
      "outputs": [
        {
          "internalType": "uint8",
          "name": "",
          "type": "uint8"
        }
      ],
      "stateMutability": "view",
      "type": "function"
    },
    {
      "inputs": [
        {
          "internalType": "address",
          "name": "spender",
          "type": "address"
        },
        {
          "internalType": "uint256",
          "name": "subtractedValue",
          "type": "uint256"
        }
      ],
      "name": "decreaseAllowance",
      "outputs": [
        {
          "internalType": "bool",
          "name": "",
          "type": "bool"
        }
      ],
      "stateMutability": "nonpayable",
      "type": "function"
    },
    {
      "inputs": [
        {
          "internalType": "address",
          "name": "spender",
          "type": "address"
        },
        {
          "internalType": "uint256",
          "name": "addedValue",
          "type": "uint256"
        }
      ],
      "name": "increaseAllowance",
      "outputs": [
        {
          "internalType": "bool",
          "name": "",
          "type": "bool"
        }
      ],
      "stateMutability": "nonpayable",
      "type": "function"
    },
    {
      "inputs": [],
      "name": "interestRateModel",
      "outputs": [
        {
          "internalType": "contract InterestRateModel",
          "name": "",
          "type": "address"
        }
      ],
      "stateMutability": "view",
      "type": "function"
    },
    {
      "inputs": [],
      "name": "isALR",
      "outputs": [
        {
          "internalType": "bool",
          "name": "",
          "type": "bool"
        }
      ],
      "stateMutability": "view",
      "type": "function"
    },
    {
      "inputs": [],
      "name": "name",
      "outputs": [
        {
          "internalType": "string",
          "name": "",
          "type": "string"
        }
      ],
      "stateMutability": "view",
      "type": "function"
    },
    {
      "inputs": [],
      "name": "owner",
      "outputs": [
        {
          "internalType": "address",
          "name": "",
          "type": "address"
        }
      ],
      "stateMutability": "view",
      "type": "function"
    },
    {
      "inputs": [],
      "name": "parentContract",
      "outputs": [
        {
          "internalType": "address",
          "name": "",
          "type": "address"
        }
      ],
      "stateMutability": "view",
      "type": "function"
    },
    {
      "inputs": [],
      "name": "renounceOwnership",
      "outputs": [],
      "stateMutability": "nonpayable",
      "type": "function"
    },
    {
      "inputs": [],
      "name": "reserveFactorMantissa",
      "outputs": [
        {
          "internalType": "uint256",
          "name": "",
          "type": "uint256"
        }
      ],
      "stateMutability": "view",
      "type": "function"
    },
    {
      "inputs": [],
      "name": "reserveFactorMaxMantissa",
      "outputs": [
        {
          "internalType": "uint256",
          "name": "",
          "type": "uint256"
        }
      ],
      "stateMutability": "view",
      "type": "function"
    },
    {
      "inputs": [],
      "name": "symbol",
      "outputs": [
        {
          "internalType": "string",
          "name": "",
          "type": "string"
        }
      ],
      "stateMutability": "view",
      "type": "function"
    },
    {
      "inputs": [],
      "name": "totalBorrows",
      "outputs": [
        {
          "internalType": "uint256",
          "name": "",
          "type": "uint256"
        }
      ],
      "stateMutability": "view",
      "type": "function"
    },
    {
      "inputs": [],
      "name": "totalReserves",
      "outputs": [
        {
          "internalType": "uint256",
          "name": "",
          "type": "uint256"
        }
      ],
      "stateMutability": "view",
      "type": "function"
    },
    {
      "inputs": [],
      "name": "totalSupply",
      "outputs": [
        {
          "internalType": "uint256",
          "name": "",
          "type": "uint256"
        }
      ],
      "stateMutability": "view",
      "type": "function"
    },
    {
      "inputs": [
        {
          "internalType": "address",
          "name": "recipient",
          "type": "address"
        },
        {
          "internalType": "uint256",
          "name": "amount",
          "type": "uint256"
        }
      ],
      "name": "transfer",
      "outputs": [
        {
          "internalType": "bool",
          "name": "",
          "type": "bool"
        }
      ],
      "stateMutability": "nonpayable",
      "type": "function"
    },
    {
      "inputs": [
        {
          "internalType": "address",
          "name": "sender",
          "type": "address"
        },
        {
          "internalType": "address",
          "name": "recipient",
          "type": "address"
        },
        {
          "internalType": "uint256",
          "name": "amount",
          "type": "uint256"
        }
      ],
      "name": "transferFrom",
      "outputs": [
        {
          "internalType": "bool",
          "name": "",
          "type": "bool"
        }
      ],
      "stateMutability": "nonpayable",
      "type": "function"
    },
    {
      "inputs": [
        {
          "internalType": "address",
          "name": "newOwner",
          "type": "address"
        }
      ],
      "name": "transferOwnership",
      "outputs": [],
      "stateMutability": "nonpayable",
      "type": "function"
    },
    {
      "inputs": [
        {
          "internalType": "address",
          "name": "owner",
          "type": "address"
        }
      ],
      "name": "balanceOfUnderlying",
      "outputs": [
        {
          "internalType": "uint256",
          "name": "",
          "type": "uint256"
        }
      ],
      "stateMutability": "nonpayable",
      "type": "function"
    },
    {
      "inputs": [],
      "name": "accrueInterest",
      "outputs": [],
      "stateMutability": "nonpayable",
      "type": "function"
    },
    {
      "inputs": [
        {
          "internalType": "address",
          "name": "account",
          "type": "address"
        }
      ],
      "name": "borrowBalanceCurrent",
      "outputs": [
        {
          "internalType": "uint256",
          "name": "",
          "type": "uint256"
        }
      ],
      "stateMutability": "nonpayable",
      "type": "function"
    },
    {
      "inputs": [
        {
          "internalType": "address",
          "name": "account",
          "type": "address"
        }
      ],
      "name": "getAccountSnapshot",
      "outputs": [
        {
          "internalType": "uint256",
          "name": "",
          "type": "uint256"
        },
        {
          "internalType": "uint256",
          "name": "",
          "type": "uint256"
        },
        {
          "internalType": "uint256",
          "name": "",
          "type": "uint256"
        }
      ],
      "stateMutability": "nonpayable",
      "type": "function"
    },
    {
      "inputs": [],
      "name": "borrowRatePerBlock",
      "outputs": [
        {
          "internalType": "uint256",
          "name": "",
          "type": "uint256"
        }
      ],
      "stateMutability": "view",
      "type": "function"
    },
    {
      "inputs": [],
      "name": "supplyRatePerBlock",
      "outputs": [
        {
          "internalType": "uint256",
          "name": "",
          "type": "uint256"
        }
      ],
      "stateMutability": "view",
      "type": "function"
    },
    {
      "inputs": [],
      "name": "totalBorrowsCurrent",
      "outputs": [
        {
          "internalType": "uint256",
          "name": "",
          "type": "uint256"
        }
      ],
      "stateMutability": "nonpayable",
      "type": "function"
    },
    {
      "inputs": [],
      "name": "exchangeRateCurrent",
      "outputs": [
        {
          "internalType": "uint256",
          "name": "",
          "type": "uint256"
        }
      ],
      "stateMutability": "nonpayable",
      "type": "function"
    },
    {
      "inputs": [],
      "name": "getCash",
      "outputs": [
        {
          "internalType": "uint256",
          "name": "",
          "type": "uint256"
        }
      ],
      "stateMutability": "view",
      "type": "function"
    },
    {
      "inputs": [
        {
          "internalType": "address",
          "name": "_account",
          "type": "address"
        },
        {
          "internalType": "uint256",
          "name": "_amount",
          "type": "uint256"
        }
      ],
      "name": "mint",
      "outputs": [],
      "stateMutability": "nonpayable",
      "type": "function"
    },
    {
      "inputs": [
        {
          "internalType": "uint256",
          "name": "_amount",
          "type": "uint256"
        }
      ],
      "name": "redeem",
      "outputs": [],
      "stateMutability": "nonpayable",
      "type": "function"
    },
    {
      "inputs": [
        {
          "internalType": "address",
          "name": "_account",
          "type": "address"
        },
        {
          "internalType": "uint256",
          "name": "_amount",
          "type": "uint256"
        }
      ],
      "name": "burn",
      "outputs": [],
      "stateMutability": "nonpayable",
      "type": "function"
    },
    {
      "inputs": [
        {
          "internalType": "uint256",
          "name": "_borrowAmount",
          "type": "uint256"
        }
      ],
      "name": "borrow",
      "outputs": [],
      "stateMutability": "nonpayable",
      "type": "function"
    },
    {
      "inputs": [
        {
          "internalType": "uint256",
          "name": "repayAmount",
          "type": "uint256"
        }
      ],
      "name": "repayBorrow",
      "outputs": [],
      "stateMutability": "nonpayable",
      "type": "function"
    },
    {
      "inputs": [
        {
          "internalType": "address",
          "name": "_forAssetAdd",
          "type": "address"
        },
        {
          "internalType": "address",
          "name": "_forMMI",
          "type": "address"
        },
        {
          "internalType": "uint256",
          "name": "_amountOfThisToken",
          "type": "uint256"
        },
        {
          "internalType": "uint256",
          "name": "_minAmount",
          "type": "uint256"
        }
      ],
      "name": "_liquidateFor",
      "outputs": [],
      "stateMutability": "nonpayable",
      "type": "function"
    },
    {
      "inputs": [],
      "name": "getAssetAdd",
      "outputs": [
        {
          "internalType": "address",
          "name": "",
          "type": "address"
        }
      ],
      "stateMutability": "view",
      "type": "function"
    }
  ],
  "bytecode": "0x60806040523480156200001157600080fd5b50604051620024c6380380620024c6833981810160405260e08110156200003757600080fd5b8151602083015160408085015160608601805192519496939591949391820192846401000000008211156200006b57600080fd5b9083019060208201858111156200008157600080fd5b82516401000000008111828201881017156200009c57600080fd5b82525081516020918201929091019080838360005b83811015620000cb578181015183820152602001620000b1565b50505050905090810190601f168015620000f95780820380516001836020036101000a031916815260200191505b50604052602001805160405193929190846401000000008211156200011d57600080fd5b9083019060208201858111156200013357600080fd5b82516401000000008111828201881017156200014e57600080fd5b82525081516020918201929091019080838360005b838110156200017d57818101518382015260200162000163565b50505050905090810190601f168015620001ab5780820380516001836020036101000a031916815260200191505b5060409081526020820151910151909250905083836000620001d56001600160e01b03620002e316565b600080546001600160a01b0319166001600160a01b0383169081178255604051929350917f8be0079c531659141344cd1fd0a4f28419497f9722a3daafe3b4186f6b6457e0908290a350815162000234906004906020850190620002ec565b5080516200024a906005906020840190620002ec565b50506006805460ff1916600817905550600e80546001600160a01b038089166001600160a01b03199283161790925560108054821633179055600f80548a84169083161790556011805492881692909116919091179055600d8054831515600160a01b0260ff60a01b199091161790556007819055620002d26001600160e01b03620002e816565b600955506200038e95505050505050565b335b90565b4390565b828054600181600116156101000203166002900490600052602060002090601f016020900481019282601f106200032f57805160ff19168380011785556200035f565b828001600101855582156200035f579182015b828111156200035f57825182559160200191906001019062000342565b506200036d92915062000371565b5090565b620002e591905b808211156200036d576000815560010162000378565b612128806200039e6000396000f3fe608060405234801561001057600080fd5b50600436106102695760003560e01c806377e4974d11610151578063ae9d70b0116100c3578063db006a7511610087578063db006a751461065f578063dd62ed3e1461067c578063ee27a2f2146106aa578063f2fde38b146106b2578063f3fdb15a146106d8578063f8f9da28146106e057610269565b8063ae9d70b0146105e6578063bd6d894d146105ee578063c37f68e2146105f6578063c5d9bf711461063a578063c5ebeaec1461064257610269565b80639dc29fac116101155780639dc29fac1461054a578063a275370d14610576578063a457c2d71461057e578063a6afed95146105aa578063a9059cbb146105b2578063aa5af0fd146105de57610269565b806377e4974d146104ee5780638157230b146104f65780638da5cb5b146105325780638f840ddd1461053a57806395d89b411461054257610269565b806338d52e0f116101ea57806347bd3718116101ae57806347bd3718146104a05780634c20ac74146104a85780636c540baf146104b057806370a08231146104b8578063715018a6146104de57806373acee98146104e657610269565b806338d52e0f14610412578063395093511461041a5780633af9e669146104465780633b1d21a21461046c57806340c10f191461047457610269565b806317bfdfbc1161023157806317bfdfbc1461038857806318160ddd146103ae578063230b9da3146103b657806323b872dd146103be578063313ce567146103f457610269565b806306fdde031461026e578063095ea7b3146102eb5780630e7527021461032b57806311e2c02f1461034a578063173b99041461036e575b600080fd5b6102766106e8565b6040805160208082528351818301528351919283929083019185019080838360005b838110156102b0578181015183820152602001610298565b50505050905090810190601f1680156102dd5780820380516001836020036101000a031916815260200191505b509250505060405180910390f35b6103176004803603604081101561030157600080fd5b506001600160a01b03813516906020013561077f565b604080519115158252519081900360200190f35b6103486004803603602081101561034157600080fd5b503561079c565b005b610352610926565b604080516001600160a01b039092168252519081900360200190f35b610376610935565b60408051918252519081900360200190f35b6103766004803603602081101561039e57600080fd5b50356001600160a01b031661093b565b6103766109e7565b6103526109ed565b610317600480360360608110156103d457600080fd5b506001600160a01b038135811691602081013590911690604001356109fc565b6103fc610a89565b6040805160ff9092168252519081900360200190f35b610352610a92565b6103176004803603604081101561043057600080fd5b506001600160a01b038135169060200135610aa1565b6103766004803603602081101561045c57600080fd5b50356001600160a01b0316610af5565b610376610b50565b6103486004803603604081101561048a57600080fd5b506001600160a01b038135169060200135610b5f565b610376610bdd565b610352610be3565b610376610bf2565b610376600480360360208110156104ce57600080fd5b50356001600160a01b0316610bf8565b610348610c13565b610376610cc7565b610317610cd8565b6103486004803603608081101561050c57600080fd5b506001600160a01b03813581169160208101359091169060408101359060600135610ce8565b610352610df8565b610376610e07565b610276610e0d565b6103486004803603604081101561056057600080fd5b506001600160a01b038135169060200135610e6e565b610376610e93565b6103176004803603604081101561059457600080fd5b506001600160a01b038135169060200135610e9f565b610348610f0d565b610317600480360360408110156105c857600080fd5b506001600160a01b038135169060200135611091565b6103766110a5565b6103766110ab565b61037661114a565b61061c6004803603602081101561060c57600080fd5b50356001600160a01b03166111b3565b60408051938452602084019290925282820152519081900360600190f35b6103526111e9565b6103486004803603602081101561065857600080fd5b50356111f8565b6103486004803603602081101561067557600080fd5b503561134d565b6103766004803603604081101561069257600080fd5b506001600160a01b038135811691602001351661142e565b610376611459565b610348600480360360208110156106c857600080fd5b50356001600160a01b0316611463565b61035261156d565b61037661157c565b60048054604080516020601f60026000196101006001881615020190951694909404938401819004810282018101909252828152606093909290918301828280156107745780601f1061074957610100808354040283529160200191610774565b820191906000526020600020905b81548152906001019060200180831161075757829003601f168201915b505050505090505b90565b600061079361078c6115e0565b84846115e4565b50600192915050565b6010546001600160a01b031633146107b357600080fd5b6107bb610f0d565b6107c3611ed3565b336000818152601260205260409081902060010154908301526107e59061093b565b6060820152600019821415610803576060810151602082015261080b565b602081018290525b600e54604080516323b872dd60e01b81523360048201523060248201526044810185905290516001600160a01b03909216916323b872dd916064808201926020929091908290030181600087803b15801561086557600080fd5b505af1158015610879573d6000803e3d6000fd5b505050506040513d602081101561088f57600080fd5b5050606081015160208201516108a591906116d0565b60808301819052828260038111156108b957fe5b60038111156108c457fe5b81525050506108d9600b5482602001516116d0565b60a08301819052828260038111156108ed57fe5b60038111156108f857fe5b905250506080810151336000908152601260205260409020908155600a5460019091015560a00151600b5550565b6011546001600160a01b031681565b60085481565b6000610945610f0d565b6001600160a01b03821660009081526012602052604081208054829182916109745760009450505050506109e2565b6109848160000154600a546116f6565b9094509250600084600381111561099757fe5b146109a95760009450505050506109e2565b6109b7838260010154611735565b909450915060008460038111156109ca57fe5b146109dc5760009450505050506109e2565b50925050505b919050565b60035490565b600d546001600160a01b031681565b6000610a09848484611760565b610a7f84610a156115e0565b610a7a8560405180606001604052806028815260200161201c602891396001600160a01b038a16600090815260026020526040812090610a536115e0565b6001600160a01b03168152602081019190915260400160002054919063ffffffff6118b716565b6115e4565b5060019392505050565b60065460ff1690565b600e546001600160a01b031681565b6000610793610aae6115e0565b84610a7a8560026000610abf6115e0565b6001600160a01b03908116825260208083019390935260409182016000908120918c16815292529020549063ffffffff61194e16565b6000610aff611f0a565b6040518060200160405280610b1261114a565b90529050600080610b2b83610b2687610bf8565b6119af565b90925090506000826003811115610b3e57fe5b14610b4857600080fd5b949350505050565b6000610b5a611a02565b905090565b6010546001600160a01b03163314610b7657600080fd5b610b7e611f1d565b610b8661114a565b602080830191825260408051918201905290518152610ba6908390611a4d565b6040830181905282826003811115610bba57fe5b6003811115610bc557fe5b8152505050610bd8838260400151611a64565b505050565b600b5481565b600e546001600160a01b031690565b60095481565b6001600160a01b031660009081526001602052604090205490565b610c1b6115e0565b6000546001600160a01b03908116911614610c7d576040805162461bcd60e51b815260206004820181905260248201527f4f776e61626c653a2063616c6c6572206973206e6f7420746865206f776e6572604482015290519081900360640190fd5b600080546040516001600160a01b03909116907f8be0079c531659141344cd1fd0a4f28419497f9722a3daafe3b4186f6b6457e0908390a3600080546001600160a01b0319169055565b6000610cd1610f0d565b50600b5490565b600d54600160a01b900460ff1681565b60105460408051638da5cb5b60e01b8152905133926001600160a01b031691638da5cb5b916004808301926020929190829003018186803b158015610d2c57600080fd5b505afa158015610d40573d6000803e3d6000fd5b505050506040513d6020811015610d5657600080fd5b50516001600160a01b031614610d6b57600080fd5b601154600e546040805163f0defe9360e01b81526001600160a01b0392831660048201528783166024820152868316604482015260648101869052608481018590529051919092169163f0defe939160a480830192600092919082900301818387803b158015610dda57600080fd5b505af1158015610dee573d6000803e3d6000fd5b5050505050505050565b6000546001600160a01b031690565b600c5481565b60058054604080516020601f60026000196101006001881615020190951694909404938401819004810282018101909252828152606093909290918301828280156107745780601f1061074957610100808354040283529160200191610774565b6010546001600160a01b03163314610e8557600080fd5b610e8f8282611b50565b5050565b670de0b6b3a764000081565b6000610793610eac6115e0565b84610a7a856040518060600160405280602581526020016120ce6025913960026000610ed66115e0565b6001600160a01b03908116825260208083019390935260409182016000908120918d1681529252902054919063ffffffff6118b716565b6000610f17611c46565b6009549091506000610f27611a02565b600b54600c54600a54929350909184861461108957600f54604080516315f2405360e01b815260048101879052602481018690526044810185905290516000926001600160a01b0316916315f24053916064808301926020929190829003018186803b158015610f9657600080fd5b505afa158015610faa573d6000803e3d6000fd5b505050506040513d6020811015610fc057600080fd5b5051905065048c27395000811115610fd757600080fd5b600080610fe489896116d0565b91509150610ff0611f0a565b60008060008061100e60405180602001604052808a81525087611c4a565b909750945061101d858c6119af565b909750935061102c848c611cb2565b60408051602081019091526008548152919850935061104c90858c611cd8565b909750915061105c858a80611cd8565b80925081985050508d60098190555080600a8190555082600b8190555081600c8190555050505050505050505b505050505050565b600061079361109e6115e0565b8484611760565b600a5481565b600f546000906001600160a01b031663b81688166110c7611a02565b600b54600c546008546040518563ffffffff1660e01b81526004018085815260200184815260200183815260200182815260200194505050505060206040518083038186803b15801561111957600080fd5b505afa15801561112d573d6000803e3d6000fd5b505050506040513d602081101561114357600080fd5b5051905090565b6000611154610f0d565b61115c6109e7565b611169575060075461077c565b6000611173611a02565b9050600061117f611f0a565b600061119084600b54600c54611d34565b935090506111a5836111a06109e7565b611d72565b51955061077c945050505050565b6000806000806111c285610bf8565b905060006111cf8661093b565b905060006111db61114a565b929791965091945092505050565b6010546001600160a01b031681565b6010546001600160a01b0316331461120f57600080fd5b611217610f0d565b80611220611a02565b1161122a57600080fd5b611232611f3f565b61123b3361093b565b6020820181905261124c9083611cb2565b604083018190528282600381111561126057fe5b600381111561126b57fe5b815250505061127c600b5483611cb2565b606083018190528282600381111561129057fe5b600381111561129b57fe5b9052505060408181015133600081815260126020908152848220938455600a546001909401939093556060850151600b55600e54845163a9059cbb60e01b815260048101939093526024830187905293516001600160a01b039094169363a9059cbb936044808501949193918390030190829087803b15801561131d57600080fd5b505af1158015611331573d6000803e3d6000fd5b505050506040513d602081101561134757600080fd5b50505050565b611355610f0d565b8061135f57600080fd5b611367611f1d565b61136f61114a565b602082015261137e3383611b50565b61139a60405180602001604052808360200151815250836119af565b60408301819052828260038111156113ae57fe5b60038111156113b957fe5b9052505060408101516113ca611a02565b10156113d557600080fd5b600e54604080830151815163a9059cbb60e01b8152336004820152602481019190915290516001600160a01b039092169163a9059cbb916044808201926020929091908290030181600087803b15801561131d57600080fd5b6001600160a01b03918216600090815260026020908152604080832093909416825291909152205490565b65048c2739500081565b61146b6115e0565b6000546001600160a01b039081169116146114cd576040805162461bcd60e51b815260206004820181905260248201527f4f776e61626c653a2063616c6c6572206973206e6f7420746865206f776e6572604482015290519081900360640190fd5b6001600160a01b0381166115125760405162461bcd60e51b8152600401808060200182810382526026815260200180611fae6026913960400191505060405180910390fd5b600080546040516001600160a01b03808516939216917f8be0079c531659141344cd1fd0a4f28419497f9722a3daafe3b4186f6b6457e091a3600080546001600160a01b0319166001600160a01b0392909216919091179055565b600f546001600160a01b031681565b600f546000906001600160a01b03166315f24053611598611a02565b600b54600c546040518463ffffffff1660e01b815260040180848152602001838152602001828152602001935050505060206040518083038186803b15801561111957600080fd5b3390565b6001600160a01b0383166116295760405162461bcd60e51b81526004018080602001828103825260248152602001806120aa6024913960400191505060405180910390fd5b6001600160a01b03821661166e5760405162461bcd60e51b8152600401808060200182810382526022815260200180611fd46022913960400191505060405180910390fd5b6001600160a01b03808416600081815260026020908152604080832094871680845294825291829020859055815185815291517f8c5be1e5ebec7d5bd14f71427d1e84f3dd0314c0f7b2291e5b200ac8c7c3b9259281900390910190a3505050565b6000808383116116e75750600090508183036116ef565b506003905060005b9250929050565b60008083611709575060009050806116ef565b8383028385828161171657fe5b041461172a575060029150600090506116ef565b6000925090506116ef565b6000808261174957506001905060006116ef565b600083858161175457fe5b04915091509250929050565b6001600160a01b0383166117a55760405162461bcd60e51b81526004018080602001828103825260258152602001806120856025913960400191505060405180910390fd5b6001600160a01b0382166117ea5760405162461bcd60e51b8152600401808060200182810382526023815260200180611f696023913960400191505060405180910390fd5b6117f5838383610bd8565b61183881604051806060016040528060268152602001611ff6602691396001600160a01b038616600090815260016020526040902054919063ffffffff6118b716565b6001600160a01b03808516600090815260016020526040808220939093559084168152205461186d908263ffffffff61194e16565b6001600160a01b03808416600081815260016020908152604091829020949094558051858152905191939287169260008051602061204483398151915292918290030190a3505050565b600081848411156119465760405162461bcd60e51b81526004018080602001828103825283818151815260200191508051906020019080838360005b8381101561190b5781810151838201526020016118f3565b50505050905090810190601f1680156119385780820380516001836020036101000a031916815260200191505b509250505060405180910390fd5b505050900390565b6000828201838110156119a8576040805162461bcd60e51b815260206004820152601b60248201527f536166654d6174683a206164646974696f6e206f766572666c6f770000000000604482015290519081900360640190fd5b9392505050565b60008060006119bc611f0a565b6119c68686611c4a565b909250905060008260038111156119d957fe5b146119ea57509150600090506116ef565b60006119f582611e23565b9350935050509250929050565b600e54604080516370a0823160e01b815230600482015290516000926001600160a01b0316916370a08231916024808301926020929190829003018186803b15801561111957600080fd5b6000806000611a5a611f0a565b6119c68686611e32565b6001600160a01b038216611abf576040805162461bcd60e51b815260206004820152601f60248201527f45524332303a206d696e7420746f20746865207a65726f206164647265737300604482015290519081900360640190fd5b611acb60008383610bd8565b600354611ade908263ffffffff61194e16565b6003556001600160a01b038216600090815260016020526040902054611b0a908263ffffffff61194e16565b6001600160a01b03831660008181526001602090815260408083209490945583518581529351929391926000805160206120448339815191529281900390910190a35050565b6001600160a01b038216611b955760405162461bcd60e51b81526004018080602001828103825260218152602001806120646021913960400191505060405180910390fd5b611ba182600083610bd8565b611be481604051806060016040528060228152602001611f8c602291396001600160a01b038516600090815260016020526040902054919063ffffffff6118b716565b6001600160a01b038316600090815260016020526040902055600354611c10908263ffffffff611e9116565b6003556040805182815290516000916001600160a01b038516916000805160206120448339815191529181900360200190a35050565b4390565b6000611c54611f0a565b600080611c658660000151866116f6565b90925090506000826003811115611c7857fe5b14611c97575060408051602081019091526000815290925090506116ef565b60408051602081019091529081526000969095509350505050565b600080838301848110611cca576000925090506116ef565b5060029150600090506116ef565b6000806000611ce5611f0a565b611cef8787611c4a565b90925090506000826003811115611d0257fe5b14611d135750915060009050611d2c565b611d25611d1f82611e23565b86611cb2565b9350935050505b935093915050565b600080600080611d448787611cb2565b90925090506000826003811115611d5757fe5b14611d685750915060009050611d2c565b611d2581866116d0565b6000611d7c611f0a565b600080611d9186670de0b6b3a76400006116f6565b90925090506000826003811115611da457fe5b14611dc3575060408051602081019091526000815290925090506116ef565b600080611dd08388611735565b90925090506000826003811115611de357fe5b14611e0657816040518060200160405280600081525095509550505050506116ef565b604080516020810190915290815260009890975095505050505050565b51670de0b6b3a7640000900490565b6000611e3c611f0a565b600080611e51670de0b6b3a7640000876116f6565b90925090506000826003811115611e6457fe5b14611e83575060408051602081019091526000815290925090506116ef565b6119f5818660000151611d72565b60006119a883836040518060400160405280601e81526020017f536166654d6174683a207375627472616374696f6e206f766572666c6f7700008152506118b7565b6040805160c08101909152806000815260200160008152602001600081526020016000815260200160008152602001600081525090565b6040518060200160405280600081525090565b6040805160608101909152806000815260200160008152602001600081525090565b60408051608081019091528060008152602001600081526020016000815260200160008152509056fe45524332303a207472616e7366657220746f20746865207a65726f206164647265737345524332303a206275726e20616d6f756e7420657863656564732062616c616e63654f776e61626c653a206e6577206f776e657220697320746865207a65726f206164647265737345524332303a20617070726f766520746f20746865207a65726f206164647265737345524332303a207472616e7366657220616d6f756e7420657863656564732062616c616e636545524332303a207472616e7366657220616d6f756e74206578636565647320616c6c6f77616e6365ddf252ad1be2c89b69c2b068fc378daa952ba7f163c4a11628f55a4df523b3ef45524332303a206275726e2066726f6d20746865207a65726f206164647265737345524332303a207472616e736665722066726f6d20746865207a65726f206164647265737345524332303a20617070726f76652066726f6d20746865207a65726f206164647265737345524332303a2064656372656173656420616c6c6f77616e63652062656c6f77207a65726fa2646970667358221220444d0f787262eba5440a1905ba61b9b0f8b72ee87817cd2ec3f9075f7b137e9f64736f6c63430006060033",
  "immutableReferences": {},
  "source": "pragma solidity ^0.6.0;\n\n\nimport \"@openzeppelin/contracts/access/Ownable.sol\";\nimport \"@openzeppelin/contracts/token/ERC20/ERC20.sol\";\nimport \"./compound/Exponential.sol\";\nimport \"./compound/InterestRateModel.sol\";\nimport \"./interfaces/UniswapOracleFactoryI.sol\";\nimport \"./MoneyMarketInstance.sol\";\n////////////////////////////////////////////////////////////////////////////////////////////\n/// @title AskoRiskToken\n/// @author Christopher Dixon\n////////////////////////////////////////////////////////////////////////////////////////////\n/**\nThe AskoRiskToken contract is an ERC20 contract designed to be owned by a MoneyMarketInstance contract. This contract's\ntoken represents a Risk lending pool in a MoneyMarketInstance contract.\nThis contract uses the OpenZeppelin contract Library to inherit functions from\n  Ownable.sol && ERC20.sol\n**/\n\ncontract AskoRiskToken is Ownable, ERC20, Exponential {\n\n  uint internal initialExchangeRateMantissa;\n  uint public reserveFactorMantissa;\n  uint public accrualBlockNumber;\n  uint public borrowIndex;\n  uint public totalBorrows;\n  uint public totalReserves;\n  uint public constant borrowRateMaxMantissa = 0.0005e16;\n  uint public constant reserveFactorMaxMantissa = 1e18;\n\n  address public parentContract;\n  bool public isALR;\n\n\n  IERC20 public asset;\n  InterestRateModel public interestRateModel;\n  MoneyMarketInstance public MMI;\n  UniswapOracleFactoryI public UOF;\n\n  mapping(address => BorrowSnapshot) internal accountBorrows;\n\n/**\n@notice struct for borrow balance information\n@member principal Total balance (with accrued interest), after applying the most recent balance-changing action\n@member interestIndex Global borrowIndex as of the most recent balance-changing action\n*/\n  struct BorrowSnapshot {\n      uint principal;\n      uint interestIndex;\n  }\n\n/**\n@notice onlyMMInstance is a modifier used to make a function only callable by theproperMoneyMarketInstance contract\n**/\n    modifier onlyMMInstance()  {\n      require(msg.sender == address(MMI));\n      _;\n    }\n/**\n@notice the constructor function is fired during the contract deployment process. The constructor can only be fired once and\nis used to set up the name, symbol, and decimal variables for the AskoRiskToken contract.\n@param _interestRateModel is the address of the  interest rate model for a specific ART\n@param _asset is the address of the underlying asset for a specific ART contract\n@param _oracleFactory is teh address of the uniswap oracle factory contract\n@param _tokenName is the name of the asset the MoneyMarketInstance that owns this contract represents\n@param _tokenSymbol is the symbol of the asset the MoneyMarketInstance that owns this contract represents\n@param _isALR signifies whether or not a specific AskoRiskToken instance is a high risk or low risk token.\n@param _initialExchangeRate is the initial exchange rate mantissa for a specific ART\n@dev these two perameters become hyphenated with \"AHR\" during this process( e.x: AHR-wBitcoin, AHR-wBTC)\n**/\n  constructor (\n    address _interestRateModel,\n    address _asset,\n    address _oracleFactory,\n    string memory _tokenName,\n    string memory _tokenSymbol,\n    bool _isALR,\n    uint _initialExchangeRate\n    )\n    public\n    ERC20(\n      _tokenName,\n      _tokenSymbol\n    )\n      {\n        asset = IERC20(_asset);//instanciate the asset as a usable ERC20 contract instance\n        MMI = MoneyMarketInstance(msg.sender);//instanciates this contracts MoneyMarketInstance contract\n        interestRateModel = InterestRateModel(_interestRateModel);//instanciates the this contracts interest rate model as a contract\n        UOF = UniswapOracleFactoryI(_oracleFactory);//instantiatesthe UniswapOracleFactory as a contract\n        isALR = _isALR;// sets the isALR varaible to determine whether or not a specific contract is an ALR token\n        initialExchangeRateMantissa = _initialExchangeRate;//sets the initialExchangeRateMantissa\n        accrualBlockNumber = getBlockNumber();\n      }\n\n/**\n@notice Get the underlying balance of the `owners`\n@dev This also accrues interest in a transaction\n@param owner The address of the account to query\n@return The amount of underlying owned by `owner`\n*/\n    function balanceOfUnderlying(address owner) external  returns (uint) {\n        Exp memory exchangeRate = Exp({mantissa: exchangeRateCurrent()});\n        (MathError mErr, uint balance) = mulScalarTruncate(exchangeRate, balanceOf(owner));\n        require(mErr == MathError.NO_ERROR);\n        return balance;\n    }\n\n/**\n@notice getCashPrior is a view funcion that returns and ART's balance of its underlying asset\n**/\n    function getCashPrior() internal view returns (uint){\n      return asset.balanceOf(address(this));\n    }\n\n/**\n@notice Applies accrued interest to total borrows and reserves\n@dev This calculates interest accrued from the last checkpointed block\n    up to the current block and writes new checkpoint to storage.\n*/\n    function accrueInterest() public {\n//Remember the initial block number\n      uint currentBlockNumber = getBlockNumber();\n      uint accrualBlockNumberPrior = accrualBlockNumber;\n\n      //Read the previous values out of storage\n      uint cashPrior = getCashPrior();\n      uint borrowsPrior = totalBorrows;\n      uint reservesPrior = totalReserves;\n      uint borrowIndexPrior = borrowIndex;\n//Short-circuit accumulating 0 interest\n      if(accrualBlockNumberPrior != currentBlockNumber) {\n\n\n//Calculate the current borrow interest rate\n      uint borrowRateMantissa = interestRateModel.getBorrowRate(cashPrior, borrowsPrior, reservesPrior);\n      require(borrowRateMantissa <= borrowRateMaxMantissa);\n\n//Calculate the number of blocks elapsed since the last accrual\n      (MathError mathErr, uint blockDelta) = subUInt(currentBlockNumber, accrualBlockNumberPrior);\n\n//Calculate the interest accumulated into borrows and reserves and the new index:\n      Exp memory simpleInterestFactor;\n      uint interestAccumulated;\n      uint totalBorrowsNew;\n      uint totalReservesNew;\n      uint borrowIndexNew;\n//simpleInterestFactor = borrowRate * blockDelta\n      (mathErr, simpleInterestFactor) = mulScalar(Exp({mantissa: borrowRateMantissa}), blockDelta);\n//interestAccumulated = simpleInterestFactor * totalBorrows\n      (mathErr, interestAccumulated) = mulScalarTruncate(simpleInterestFactor, borrowsPrior);\n//totalBorrowsNew = interestAccumulated + totalBorrows\n      (mathErr, totalBorrowsNew) = addUInt(interestAccumulated, borrowsPrior);\n//totalReservesNew = interestAccumulated * reserveFactor + totalReserves\n      (mathErr, totalReservesNew) = mulScalarTruncateAddUInt(Exp({mantissa: reserveFactorMantissa}), interestAccumulated, reservesPrior);\n//borrowIndexNew = simpleInterestFactor * borrowIndex + borrowIndex\n      (mathErr, borrowIndexNew) = mulScalarTruncateAddUInt(simpleInterestFactor, borrowIndexPrior, borrowIndexPrior);\n\n      //Write the previously calculated values into storage\n      accrualBlockNumber = currentBlockNumber;\n      borrowIndex = borrowIndexNew;\n      totalBorrows = totalBorrowsNew;\n      totalReserves = totalReservesNew;\n\n    }\n  }\n\n\n/**\n@notice Accrue interest to updated borrowIndex and then calculate account's borrow balance using the updated borrowIndex\n@param account The address whose balance should be calculated after updating borrowIndex\n@return The calculated balance\n**/\n    function borrowBalanceCurrent(address account) public returns (uint) {\n      accrueInterest();\n      MathError mathErr;\n      uint principalTimesIndex;\n      uint result;\n\n//Get borrowBalance and borrowIndex\n      BorrowSnapshot storage borrowSnapshot = accountBorrows[account];\n\n//If borrowBalance = 0 then borrowIndex is likely also 0.\n//Rather than failing the calculation with a division by 0, we immediately return 0 in this case.\n      if (borrowSnapshot.principal == 0) {\n        return (0);\n      }\n\n//Calculate new borrow balance using the interest index:\n//recentBorrowBalance = borrower.borrowBalance * market.borrowIndex / borrower.borrowIndex\n      (mathErr, principalTimesIndex) = mulUInt(borrowSnapshot.principal, borrowIndex);\n      if (mathErr != MathError.NO_ERROR) {\n        return (0);\n      }\n\n      (mathErr, result) = divUInt(principalTimesIndex, borrowSnapshot.interestIndex);\n      if (mathErr != MathError.NO_ERROR) {\n        return (0);\n      }\n\n      return (result);\n    }\n\n/**\n@notice Get a snapshot of the account's balances, and the cached exchange rate\n@dev This is used to perform liquidity checks.\n@param account Address of the account to snapshot\n@return (token balance, borrow balance, exchange rate mantissa)\n**/\n      function getAccountSnapshot(address account) external returns ( uint, uint, uint) {\n          uint tokenBalance = balanceOf(account);\n          uint borrowBalance = borrowBalanceCurrent(account);\n          uint exchangeRateMantissa = exchangeRateCurrent();\n        return ( tokenBalance, borrowBalance, exchangeRateMantissa);\n      }\n\n/**\n@notice getBlockNumber allows for easy retrieval of block number\n**/\n      function getBlockNumber() internal view returns (uint) {\n          return block.number;\n      }\n\n/**\n@notice Returns the current per-block borrow interest rate for this cToken\n@return The borrow interest rate per block, scaled by 1e18\n**/\n      function borrowRatePerBlock() external view returns (uint) {\n          return interestRateModel.getBorrowRate(getCashPrior(), totalBorrows, totalReserves);\n      }\n\n/**\n@notice Returns the current per-block supply interest rate for this cToken\n@return The supply interest rate per block, scaled by 1e18\n**/\n      function supplyRatePerBlock() external view returns (uint) {\n          return interestRateModel.getSupplyRate(getCashPrior(), totalBorrows, totalReserves, reserveFactorMantissa);\n      }\n\n/**\n@notice Returns the current total borrows plus accrued interest\n@return The total borrows with interest\n**/\n      function totalBorrowsCurrent() external  returns (uint) {\n          accrueInterest();\n          return totalBorrows;\n      }\n\n/**\n@notice Accrue interest then return the up-to-date exchange rate\n@return Calculated exchange rate scaled by 1e18\n**/\n      function exchangeRateCurrent() public returns (uint) {\n            accrueInterest();\n          if (totalSupply() == 0) {\n//If there are no tokens minted: exchangeRate = initialExchangeRate\n            return initialExchangeRateMantissa;\n          } else {\n//Otherwise: exchangeRate = (totalCash + totalBorrows - totalReserves) / totalSupply\n            uint totalCash = getCashPrior();//get contract asset balance\n            uint cashPlusBorrowsMinusReserves;\n            Exp memory exchangeRate;\n            MathError mathErr;\n//calculate total value held by contract plus owed to contract\n            (mathErr, cashPlusBorrowsMinusReserves) = addThenSubUInt(totalCash, totalBorrows, totalReserves);\n//calculate exchange rate\n            (mathErr, exchangeRate) = getExp(cashPlusBorrowsMinusReserves, totalSupply());\n            return (exchangeRate.mantissa);\n          }\n      }\n\n\n\n/**\n@notice Get cash balance of this cToken in the underlying asset in other contracts\n@return The quantity of underlying asset owned by this contract\n**/\n      function getCash() external view returns (uint) {\n          return getCashPrior();\n      }\n\n//struct used by mint to avoid stack too deep errors\n      struct MintLocalVars {\n          MathError mathErr;\n          uint exchangeRateMantissa;\n          uint mintTokens;\n      }\n\n/**\n@notice mint is a modified function that only the owner of this contract(its MoneyMarketInstance) can call.\n        This function allows an amount of AskoRiskToken token to be minted when called.\n@param _account is the account the AHR is being minted to\n@param _amount is the amount of AHR being minted\n**/\n  function mint(address _account, uint256 _amount) public onlyMMInstance {\n//declare struct\n    MintLocalVars memory vars;\n//retrieve exchange rate\n    vars.exchangeRateMantissa = exchangeRateCurrent();\n//We get the current exchange rate and calculate the number of AHR to be minted:\n//mintTokens = _amount / exchangeRate\n    (vars.mathErr, vars.mintTokens) = divScalarByExpTruncate(_amount, Exp({mantissa: vars.exchangeRateMantissa}));\n    _mint(_account, vars.mintTokens);\n  }\n\n  struct RedeemLocalVars {\n      MathError mathErr;\n      uint exchangeRateMantissa;\n      uint redeemAmount;\n  }\n\n/**\n@notice redeem allows a user to redeem their AskoRiskToken for the appropriate amount of underlying asset\n@param _amount is the amount of ART being exchanged\n**/\n  function redeem(uint256 _amount) public {\n    accrueInterest();\n    require( _amount != 0 );\n\n    RedeemLocalVars memory vars;\n\n//get exchange rate\nvars.exchangeRateMantissa = exchangeRateCurrent();\n\n  _burn(msg.sender, _amount);\n/**\nWe calculate the exchange rate and the amount of underlying to be redeemed:\nredeemAmount = _amount x exchangeRateCurrent\n*/\n    (vars.mathErr, vars.redeemAmount) = mulScalarTruncate(Exp({mantissa: vars.exchangeRateMantissa}), _amount);\n//Fail if protocol has insufficient cash\n    require (getCashPrior() >= vars.redeemAmount);\n//transfer the calculated amount of underlying asset to the msg.sender\n    asset.transfer(msg.sender, vars.redeemAmount);\n  }\n\n/**\n@notice burn is a modified function that only the owner of this contract(its MoneyMarketInstance) can call.\n        This function allows an amount of AskoRiskToken token to be burned from an address when called.\n@param _account is the account the AHR is being burned from\n@param _amount is the amount of AHR being burned\n**/\n  function burn(address _account, uint256 _amount) public onlyMMInstance{\n    _burn(_account, _amount);\n  }\n\n//struct used by borrow function to avoid stack too deep errors\n  struct BorrowLocalVars {\n      MathError mathErr;\n      uint accountBorrows;\n      uint accountBorrowsNew;\n      uint totalBorrowsNew;\n  }\n\n/**\n@notice Sender borrows assets from the protocol to their own address\n@param _borrowAmount The amount of the underlying asset to borrow\n*/\n  function borrow(uint _borrowAmount) external onlyMMInstance {\n// _collateral the address of the ALR the user has staked as collateral?\n      accrueInterest();\n//Fail if protocol has insufficient underlying cash\n      require(getCashPrior() > _borrowAmount);\n//create local vars storage\n      BorrowLocalVars memory vars;\n//calculate the new borrower and total borrow balances, failing on overflow:\n      vars.accountBorrows = borrowBalanceCurrent(msg.sender);\n//accountBorrowsNew = accountBorrows + borrowAmount\n      (vars.mathErr, vars.accountBorrowsNew) = addUInt(vars.accountBorrows, _borrowAmount);\n//totalBorrowsNew = totalBorrows + borrowAmount\n      (vars.mathErr, vars.totalBorrowsNew) = addUInt(totalBorrows, _borrowAmount);\n//We write the previously calculated values into storage\n      accountBorrows[msg.sender].principal = vars.accountBorrowsNew;\n      accountBorrows[msg.sender].interestIndex = borrowIndex;\n      totalBorrows = vars.totalBorrowsNew;\n//send them their loaned asset\n       asset.transfer(msg.sender, _borrowAmount);\n\n  }\n\n  struct RepayBorrowLocalVars {\n      MathError mathErr;\n      uint repayAmount;\n      uint borrowerIndex;\n      uint accountBorrows;\n      uint accountBorrowsNew;\n      uint totalBorrowsNew;\n  }\n\n/**\n@notice Sender repays their own borrow\n@param repayAmount The amount to repay\n*/\n  function repayBorrow(uint repayAmount) external onlyMMInstance {\n    accrueInterest();\n//create local vars storage\n    RepayBorrowLocalVars memory vars;\n//We remember the original borrowerIndex for verification purposes\n    vars.borrowerIndex = accountBorrows[msg.sender].interestIndex;\n//We fetch the amount the borrower owes, with accumulated interest\n    vars.accountBorrows = borrowBalanceCurrent(msg.sender);\n//If repayAmount == -1, repayAmount = accountBorrows\n    if (repayAmount == uint(-1)) {\n        vars.repayAmount = vars.accountBorrows;\n    } else {\n        vars.repayAmount = repayAmount;\n    }\n//transfer asset from the user to this contract\n    asset.transferFrom(msg.sender, address(this), repayAmount);\n\n//We calculate the new borrower and total borrow balances, failing on underflow:\n\n//accountBorrowsNew = accountBorrows - actualRepayAmount\n    (vars.mathErr, vars.accountBorrowsNew) = subUInt(vars.accountBorrows, vars.repayAmount);\n//totalBorrowsNew = totalBorrows - actualRepayAmount\n    (vars.mathErr, vars.totalBorrowsNew) = subUInt(totalBorrows, vars.repayAmount);\n\n    /* We write the previously calculated values into storage */\n    accountBorrows[msg.sender].principal = vars.accountBorrowsNew;\n    accountBorrows[msg.sender].interestIndex = borrowIndex;\n    totalBorrows = vars.totalBorrowsNew;\n\n  }\n\n  /**\n  @notice _liquidateFor is called by the liquidateAccount function on a MMI where a user is being liquidated. This function\n          is called on a MMI contract where collateral is staked.\n  @param _forAssetAdd is the asset address that this contracts asset is being swapped for\n  @param _forMMI is the MoneyMarketInstance where the swapped asset is being sent to\n  @param _amountOfThisToken  is the amount of this contracts asset to be swapped\n  @param _minAmount is the minimum amount of the calling MMI's asset to be swappedfor\n  **/\n  function _liquidateFor(\n    address _forAssetAdd,\n    address _forMMI,\n    uint _amountOfThisToken,\n    uint _minAmount\n  ) external {\n//require function caller to be the money market factory to ensure liquidation checks are perfomred\n    require(MMI.owner() == msg.sender);\n//swap out collateral for this contracts asset and send it\n    UOF.swapERC20(address(asset), _forAssetAdd, _forMMI, _amountOfThisToken, _minAmount);\n  }\n\n\n/**\n@notice getAssetAdd allows for easy retrieval of a Money Markets underlying asset's address\n**/\n    function getAssetAdd() public view returns (address) {\n      return address(asset);\n    }\n\n}\n",
  "sourcePath": "/home/stan36/repos/Askolend/AskoLend-contracts/contracts/AskoRiskToken.sol",
  "compiler": {
    "name": "solc",
    "version": "0.6.6+commit.6c089d02.Emscripten.clang"
  },
  "schemaVersion": "3.2.4",
  "updatedAt": "2020-10-13T03:56:03.240Z",
  "devdoc": {
    "methods": {
      "_liquidateFor(address,address,uint256,uint256)": {
        "params": {
          "_amountOfThisToken": "is the amount of this contracts asset to be swapped",
          "_forAssetAdd": "is the asset address that this contracts asset is being swapped for",
          "_forMMI": "is the MoneyMarketInstance where the swapped asset is being sent to",
          "_minAmount": "is the minimum amount of the calling MMI's asset to be swappedfor*"
        }
      },
      "accrueInterest()": {
        "details": "This calculates interest accrued from the last checkpointed block up to the current block and writes new checkpoint to storage."
      },
      "allowance(address,address)": {
        "details": "See {IERC20-allowance}."
      },
      "approve(address,uint256)": {
        "details": "See {IERC20-approve}.     * Requirements:     * - `spender` cannot be the zero address."
      },
      "balanceOf(address)": {
        "details": "See {IERC20-balanceOf}."
      },
      "balanceOfUnderlying(address)": {
        "details": "This also accrues interest in a transaction",
        "params": {
          "owner": "The address of the account to query"
        },
        "returns": {
          "_0": "The amount of underlying owned by `owner`"
        }
      },
      "borrow(uint256)": {
        "params": {
          "_borrowAmount": "The amount of the underlying asset to borrow"
        }
      },
      "borrowBalanceCurrent(address)": {
        "params": {
          "account": "The address whose balance should be calculated after updating borrowIndex"
        },
        "returns": {
          "_0": "The calculated balance*"
        }
      },
      "burn(address,uint256)": {
        "params": {
          "_account": "is the account the AHR is being burned from",
          "_amount": "is the amount of AHR being burned*"
        }
      },
      "constructor": {
        "details": "these two perameters become hyphenated with \"AHR\" during this process( e.x: AHR-wBitcoin, AHR-wBTC)*",
        "params": {
          "_asset": "is the address of the underlying asset for a specific ART contract",
          "_initialExchangeRate": "is the initial exchange rate mantissa for a specific ART",
          "_interestRateModel": "is the address of the  interest rate model for a specific ART",
          "_isALR": "signifies whether or not a specific AskoRiskToken instance is a high risk or low risk token.",
          "_oracleFactory": "is teh address of the uniswap oracle factory contract",
          "_tokenName": "is the name of the asset the MoneyMarketInstance that owns this contract represents",
          "_tokenSymbol": "is the symbol of the asset the MoneyMarketInstance that owns this contract represents"
        }
      },
      "decimals()": {
        "details": "Returns the number of decimals used to get its user representation. For example, if `decimals` equals `2`, a balance of `505` tokens should be displayed to a user as `5,05` (`505 / 10 ** 2`).     * Tokens usually opt for a value of 18, imitating the relationship between Ether and Wei. This is the value {ERC20} uses, unless {_setupDecimals} is called.     * NOTE: This information is only used for _display_ purposes: it in no way affects any of the arithmetic of the contract, including {IERC20-balanceOf} and {IERC20-transfer}."
      },
      "decreaseAllowance(address,uint256)": {
        "details": "Atomically decreases the allowance granted to `spender` by the caller.     * This is an alternative to {approve} that can be used as a mitigation for problems described in {IERC20-approve}.     * Emits an {Approval} event indicating the updated allowance.     * Requirements:     * - `spender` cannot be the zero address. - `spender` must have allowance for the caller of at least `subtractedValue`."
      },
      "getAccountSnapshot(address)": {
        "details": "This is used to perform liquidity checks.",
        "params": {
          "account": "Address of the account to snapshot"
        },
        "returns": {
          "_0": "(token balance, borrow balance, exchange rate mantissa)*"
        }
      },
      "increaseAllowance(address,uint256)": {
        "details": "Atomically increases the allowance granted to `spender` by the caller.     * This is an alternative to {approve} that can be used as a mitigation for problems described in {IERC20-approve}.     * Emits an {Approval} event indicating the updated allowance.     * Requirements:     * - `spender` cannot be the zero address."
      },
      "mint(address,uint256)": {
        "params": {
          "_account": "is the account the AHR is being minted to",
          "_amount": "is the amount of AHR being minted*"
        }
      },
      "name()": {
        "details": "Returns the name of the token."
      },
      "owner()": {
        "details": "Returns the address of the current owner."
      },
      "redeem(uint256)": {
        "params": {
          "_amount": "is the amount of ART being exchanged*"
        }
      },
      "renounceOwnership()": {
        "details": "Leaves the contract without owner. It will not be possible to call `onlyOwner` functions anymore. Can only be called by the current owner.     * NOTE: Renouncing ownership will leave the contract without an owner, thereby removing any functionality that is only available to the owner."
      },
      "repayBorrow(uint256)": {
        "params": {
          "repayAmount": "The amount to repay"
        }
      },
      "symbol()": {
        "details": "Returns the symbol of the token, usually a shorter version of the name."
      },
      "totalSupply()": {
        "details": "See {IERC20-totalSupply}."
      },
      "transfer(address,uint256)": {
        "details": "See {IERC20-transfer}.     * Requirements:     * - `recipient` cannot be the zero address. - the caller must have a balance of at least `amount`."
      },
      "transferFrom(address,address,uint256)": {
        "details": "See {IERC20-transferFrom}.     * Emits an {Approval} event indicating the updated allowance. This is not required by the EIP. See the note at the beginning of {ERC20};     * Requirements: - `sender` and `recipient` cannot be the zero address. - `sender` must have a balance of at least `amount`. - the caller must have allowance for ``sender``'s tokens of at least `amount`."
      },
      "transferOwnership(address)": {
        "details": "Transfers ownership of the contract to a new account (`newOwner`). Can only be called by the current owner."
      }
    }
  },
  "userdoc": {
    "methods": {
      "_liquidateFor(address,address,uint256,uint256)": {
        "notice": "_liquidateFor is called by the liquidateAccount function on a MMI where a user is being liquidated. This function is called on a MMI contract where collateral is staked."
      },
      "accrueInterest()": {
        "notice": "Applies accrued interest to total borrows and reserves"
      },
      "balanceOfUnderlying(address)": {
        "notice": "Get the underlying balance of the `owners`"
      },
      "borrow(uint256)": {
        "notice": "Sender borrows assets from the protocol to their own address"
      },
      "borrowBalanceCurrent(address)": {
        "notice": "Accrue interest to updated borrowIndex and then calculate account's borrow balance using the updated borrowIndex"
      },
      "borrowRatePerBlock()": {
        "notice": "Returns the current per-block borrow interest rate for this cToken"
      },
      "burn(address,uint256)": {
        "notice": "burn is a modified function that only the owner of this contract(its MoneyMarketInstance) can call. This function allows an amount of AskoRiskToken token to be burned from an address when called."
      },
      "constructor": "the constructor function is fired during the contract deployment process. The constructor can only be fired once and is used to set up the name, symbol, and decimal variables for the AskoRiskToken contract.",
      "exchangeRateCurrent()": {
        "notice": "Accrue interest then return the up-to-date exchange rate"
      },
      "getAccountSnapshot(address)": {
        "notice": "Get a snapshot of the account's balances, and the cached exchange rate"
      },
      "getAssetAdd()": {
        "notice": "getAssetAdd allows for easy retrieval of a Money Markets underlying asset's address*"
      },
      "getCash()": {
        "notice": "Get cash balance of this cToken in the underlying asset in other contracts"
      },
      "mint(address,uint256)": {
        "notice": "mint is a modified function that only the owner of this contract(its MoneyMarketInstance) can call. This function allows an amount of AskoRiskToken token to be minted when called."
      },
      "redeem(uint256)": {
        "notice": "redeem allows a user to redeem their AskoRiskToken for the appropriate amount of underlying asset"
      },
      "repayBorrow(uint256)": {
        "notice": "Sender repays their own borrow"
      },
      "supplyRatePerBlock()": {
        "notice": "Returns the current per-block supply interest rate for this cToken"
      },
      "totalBorrowsCurrent()": {
        "notice": "Returns the current total borrows plus accrued interest"
      }
    },
    "notice": "The AskoRiskToken contract is an ERC20 contract designed to be owned by a MoneyMarketInstance contract. This contract's token represents a Risk lending pool in a MoneyMarketInstance contract. This contract uses the OpenZeppelin contract Library to inherit functions from Ownable.sol && ERC20.sol*"
  }
}