{
  "contractName": "AskoRiskToken",
  "abi": [
    {
      "inputs": [
        {
          "internalType": "address",
          "name": "_interestRateModel",
          "type": "address"
        },
        {
          "internalType": "address",
          "name": "_asset",
          "type": "address"
        },
        {
          "internalType": "address",
          "name": "_oracleFactory",
          "type": "address"
        },
        {
          "internalType": "address",
          "name": "_MoneyMarketControl",
          "type": "address"
        },
        {
          "internalType": "address",
          "name": "_MoneyMarketInstance",
          "type": "address"
        },
        {
          "internalType": "string",
          "name": "_tokenName",
          "type": "string"
        },
        {
          "internalType": "string",
          "name": "_tokenSymbol",
          "type": "string"
        },
        {
          "internalType": "bool",
          "name": "_isALR",
          "type": "bool"
        },
        {
          "internalType": "uint256",
          "name": "_initialExchangeRate",
          "type": "uint256"
        }
      ],
      "stateMutability": "nonpayable",
      "type": "constructor"
    },
    {
      "anonymous": false,
      "inputs": [
        {
          "indexed": false,
          "internalType": "address",
          "name": "borrower",
          "type": "address"
        },
        {
          "indexed": false,
          "internalType": "address",
          "name": "liquidator",
          "type": "address"
        },
        {
          "indexed": false,
          "internalType": "uint256",
          "name": "amountRepayed",
          "type": "uint256"
        },
        {
          "indexed": false,
          "internalType": "address",
          "name": "ARTowed",
          "type": "address"
        },
        {
          "indexed": false,
          "internalType": "address",
          "name": "ARTcollateral",
          "type": "address"
        }
      ],
      "name": "Accountliquidated",
      "type": "event"
    },
    {
      "anonymous": false,
      "inputs": [
        {
          "indexed": true,
          "internalType": "address",
          "name": "owner",
          "type": "address"
        },
        {
          "indexed": true,
          "internalType": "address",
          "name": "spender",
          "type": "address"
        },
        {
          "indexed": false,
          "internalType": "uint256",
          "name": "value",
          "type": "uint256"
        }
      ],
      "name": "Approval",
      "type": "event"
    },
    {
      "anonymous": false,
      "inputs": [
        {
          "indexed": false,
          "internalType": "address",
          "name": "borrower",
          "type": "address"
        },
        {
          "indexed": false,
          "internalType": "uint256",
          "name": "amountBorrowed",
          "type": "uint256"
        }
      ],
      "name": "Borrowed",
      "type": "event"
    },
    {
      "anonymous": false,
      "inputs": [
        {
          "indexed": false,
          "internalType": "address",
          "name": "account",
          "type": "address"
        },
        {
          "indexed": false,
          "internalType": "uint256",
          "name": "amount",
          "type": "uint256"
        }
      ],
      "name": "Burn",
      "type": "event"
    },
    {
      "anonymous": false,
      "inputs": [
        {
          "indexed": false,
          "internalType": "uint256",
          "name": "accrualBlockNumber",
          "type": "uint256"
        },
        {
          "indexed": false,
          "internalType": "uint256",
          "name": "borrowIndex",
          "type": "uint256"
        },
        {
          "indexed": false,
          "internalType": "uint256",
          "name": "totalBorrows",
          "type": "uint256"
        },
        {
          "indexed": false,
          "internalType": "uint256",
          "name": "totalReserves",
          "type": "uint256"
        }
      ],
      "name": "InterestAccrued",
      "type": "event"
    },
    {
      "anonymous": false,
      "inputs": [
        {
          "indexed": false,
          "internalType": "address",
          "name": "lender",
          "type": "address"
        },
        {
          "indexed": false,
          "internalType": "uint256",
          "name": "amountMinted",
          "type": "uint256"
        }
      ],
      "name": "Minted",
      "type": "event"
    },
    {
      "anonymous": false,
      "inputs": [
        {
          "indexed": false,
          "internalType": "address",
          "name": "borrower",
          "type": "address"
        }
      ],
      "name": "NonCompliantTimerReset",
      "type": "event"
    },
    {
      "anonymous": false,
      "inputs": [
        {
          "indexed": false,
          "internalType": "address",
          "name": "borrower",
          "type": "address"
        }
      ],
      "name": "NonCompliantTimerStart",
      "type": "event"
    },
    {
      "anonymous": false,
      "inputs": [
        {
          "indexed": true,
          "internalType": "address",
          "name": "previousOwner",
          "type": "address"
        },
        {
          "indexed": true,
          "internalType": "address",
          "name": "newOwner",
          "type": "address"
        }
      ],
      "name": "OwnershipTransferred",
      "type": "event"
    },
    {
      "anonymous": false,
      "inputs": [
        {
          "indexed": false,
          "internalType": "address",
          "name": "redeemer",
          "type": "address"
        },
        {
          "indexed": false,
          "internalType": "uint256",
          "name": "amountART",
          "type": "uint256"
        },
        {
          "indexed": false,
          "internalType": "uint256",
          "name": "assetAmountRedeemed",
          "type": "uint256"
        }
      ],
      "name": "Redeemed",
      "type": "event"
    },
    {
      "anonymous": false,
      "inputs": [
        {
          "indexed": false,
          "internalType": "address",
          "name": "borrower",
          "type": "address"
        },
        {
          "indexed": false,
          "internalType": "uint256",
          "name": "amountRepayed",
          "type": "uint256"
        }
      ],
      "name": "Repayed",
      "type": "event"
    },
    {
      "anonymous": false,
      "inputs": [
        {
          "indexed": true,
          "internalType": "address",
          "name": "from",
          "type": "address"
        },
        {
          "indexed": true,
          "internalType": "address",
          "name": "to",
          "type": "address"
        },
        {
          "indexed": false,
          "internalType": "uint256",
          "name": "value",
          "type": "uint256"
        }
      ],
      "name": "Transfer",
      "type": "event"
    },
    {
      "inputs": [],
      "name": "MMF",
      "outputs": [
        {
          "internalType": "contract MoneyMarketFactoryI",
          "name": "",
          "type": "address"
        }
      ],
      "stateMutability": "view",
      "type": "function"
    },
    {
      "inputs": [],
      "name": "MMI",
      "outputs": [
        {
          "internalType": "contract MoneyMarketInstanceI",
          "name": "",
          "type": "address"
        }
      ],
      "stateMutability": "view",
      "type": "function"
    },
    {
      "inputs": [],
      "name": "UOF",
      "outputs": [
        {
          "internalType": "contract UniswapOracleFactoryI",
          "name": "",
          "type": "address"
        }
      ],
      "stateMutability": "view",
      "type": "function"
    },
    {
      "inputs": [],
      "name": "accrualBlockNumber",
      "outputs": [
        {
          "internalType": "uint256",
          "name": "",
          "type": "uint256"
        }
      ],
      "stateMutability": "view",
      "type": "function"
    },
    {
      "inputs": [
        {
          "internalType": "address",
          "name": "owner",
          "type": "address"
        },
        {
          "internalType": "address",
          "name": "spender",
          "type": "address"
        }
      ],
      "name": "allowance",
      "outputs": [
        {
          "internalType": "uint256",
          "name": "",
          "type": "uint256"
        }
      ],
      "stateMutability": "view",
      "type": "function"
    },
    {
      "inputs": [
        {
          "internalType": "address",
          "name": "spender",
          "type": "address"
        },
        {
          "internalType": "uint256",
          "name": "amount",
          "type": "uint256"
        }
      ],
      "name": "approve",
      "outputs": [
        {
          "internalType": "bool",
          "name": "",
          "type": "bool"
        }
      ],
      "stateMutability": "nonpayable",
      "type": "function"
    },
    {
      "inputs": [],
      "name": "asset",
      "outputs": [
        {
          "internalType": "contract IERC20",
          "name": "",
          "type": "address"
        }
      ],
      "stateMutability": "view",
      "type": "function"
    },
    {
      "inputs": [
        {
          "internalType": "address",
          "name": "account",
          "type": "address"
        }
      ],
      "name": "balanceOf",
      "outputs": [
        {
          "internalType": "uint256",
          "name": "",
          "type": "uint256"
        }
      ],
      "stateMutability": "view",
      "type": "function"
    },
    {
      "inputs": [],
      "name": "borrowIndex",
      "outputs": [
        {
          "internalType": "uint256",
          "name": "",
          "type": "uint256"
        }
      ],
      "stateMutability": "view",
      "type": "function"
    },
    {
      "inputs": [],
      "name": "borrowRateMaxMantissa",
      "outputs": [
        {
          "internalType": "uint256",
          "name": "",
          "type": "uint256"
        }
      ],
      "stateMutability": "view",
      "type": "function"
    },
    {
      "inputs": [],
      "name": "decimals",
      "outputs": [
        {
          "internalType": "uint8",
          "name": "",
          "type": "uint8"
        }
      ],
      "stateMutability": "view",
      "type": "function"
    },
    {
      "inputs": [
        {
          "internalType": "address",
          "name": "spender",
          "type": "address"
        },
        {
          "internalType": "uint256",
          "name": "subtractedValue",
          "type": "uint256"
        }
      ],
      "name": "decreaseAllowance",
      "outputs": [
        {
          "internalType": "bool",
          "name": "",
          "type": "bool"
        }
      ],
      "stateMutability": "nonpayable",
      "type": "function"
    },
    {
      "inputs": [
        {
          "internalType": "address",
          "name": "spender",
          "type": "address"
        },
        {
          "internalType": "uint256",
          "name": "addedValue",
          "type": "uint256"
        }
      ],
      "name": "increaseAllowance",
      "outputs": [
        {
          "internalType": "bool",
          "name": "",
          "type": "bool"
        }
      ],
      "stateMutability": "nonpayable",
      "type": "function"
    },
    {
      "inputs": [],
      "name": "interestRateModel",
      "outputs": [
        {
          "internalType": "contract InterestRateModel",
          "name": "",
          "type": "address"
        }
      ],
      "stateMutability": "view",
      "type": "function"
    },
    {
      "inputs": [],
      "name": "isALR",
      "outputs": [
        {
          "internalType": "bool",
          "name": "",
          "type": "bool"
        }
      ],
      "stateMutability": "view",
      "type": "function"
    },
    {
      "inputs": [],
      "name": "liquidationIncentiveMantissa",
      "outputs": [
        {
          "internalType": "uint256",
          "name": "",
          "type": "uint256"
        }
      ],
      "stateMutability": "view",
      "type": "function"
    },
    {
      "inputs": [],
      "name": "name",
      "outputs": [
        {
          "internalType": "string",
          "name": "",
          "type": "string"
        }
      ],
      "stateMutability": "view",
      "type": "function"
    },
    {
      "inputs": [
        {
          "internalType": "address",
          "name": "",
          "type": "address"
        }
      ],
      "name": "nonCompliant",
      "outputs": [
        {
          "internalType": "uint256",
          "name": "",
          "type": "uint256"
        }
      ],
      "stateMutability": "view",
      "type": "function"
    },
    {
      "inputs": [],
      "name": "one",
      "outputs": [
        {
          "internalType": "uint256",
          "name": "",
          "type": "uint256"
        }
      ],
      "stateMutability": "view",
      "type": "function"
    },
    {
      "inputs": [],
      "name": "owner",
      "outputs": [
        {
          "internalType": "address",
          "name": "",
          "type": "address"
        }
      ],
      "stateMutability": "view",
      "type": "function"
    },
    {
      "inputs": [],
      "name": "pair",
      "outputs": [
        {
          "internalType": "address",
          "name": "",
          "type": "address"
        }
      ],
      "stateMutability": "view",
      "type": "function"
    },
    {
      "inputs": [],
      "name": "renounceOwnership",
      "outputs": [],
      "stateMutability": "nonpayable",
      "type": "function"
    },
    {
      "inputs": [],
      "name": "reserveFactorMantissa",
      "outputs": [
        {
          "internalType": "uint256",
          "name": "",
          "type": "uint256"
        }
      ],
      "stateMutability": "view",
      "type": "function"
    },
    {
      "inputs": [],
      "name": "symbol",
      "outputs": [
        {
          "internalType": "string",
          "name": "",
          "type": "string"
        }
      ],
      "stateMutability": "view",
      "type": "function"
    },
    {
      "inputs": [],
      "name": "totalBorrows",
      "outputs": [
        {
          "internalType": "uint256",
          "name": "",
          "type": "uint256"
        }
      ],
      "stateMutability": "view",
      "type": "function"
    },
    {
      "inputs": [],
      "name": "totalReserves",
      "outputs": [
        {
          "internalType": "uint256",
          "name": "",
          "type": "uint256"
        }
      ],
      "stateMutability": "view",
      "type": "function"
    },
    {
      "inputs": [],
      "name": "totalSupply",
      "outputs": [
        {
          "internalType": "uint256",
          "name": "",
          "type": "uint256"
        }
      ],
      "stateMutability": "view",
      "type": "function"
    },
    {
      "inputs": [
        {
          "internalType": "address",
          "name": "sender",
          "type": "address"
        },
        {
          "internalType": "address",
          "name": "recipient",
          "type": "address"
        },
        {
          "internalType": "uint256",
          "name": "amount",
          "type": "uint256"
        }
      ],
      "name": "transferFrom",
      "outputs": [
        {
          "internalType": "bool",
          "name": "",
          "type": "bool"
        }
      ],
      "stateMutability": "nonpayable",
      "type": "function"
    },
    {
      "inputs": [
        {
          "internalType": "address",
          "name": "newOwner",
          "type": "address"
        }
      ],
      "name": "transferOwnership",
      "outputs": [],
      "stateMutability": "nonpayable",
      "type": "function"
    },
    {
      "inputs": [],
      "name": "uniswapRouter",
      "outputs": [
        {
          "internalType": "contract IUniswapV2Router02",
          "name": "",
          "type": "address"
        }
      ],
      "stateMutability": "view",
      "type": "function"
    },
    {
      "inputs": [
        {
          "internalType": "address",
          "name": "recipient",
          "type": "address"
        },
        {
          "internalType": "uint256",
          "name": "amount",
          "type": "uint256"
        }
      ],
      "name": "transfer",
      "outputs": [
        {
          "internalType": "bool",
          "name": "",
          "type": "bool"
        }
      ],
      "stateMutability": "nonpayable",
      "type": "function"
    },
    {
      "inputs": [
        {
          "internalType": "address",
          "name": "owner",
          "type": "address"
        }
      ],
      "name": "balanceOfUnderlying",
      "outputs": [
        {
          "internalType": "uint256",
          "name": "",
          "type": "uint256"
        }
      ],
      "stateMutability": "nonpayable",
      "type": "function"
    },
    {
      "inputs": [],
      "name": "accrueInterest",
      "outputs": [],
      "stateMutability": "nonpayable",
      "type": "function"
    },
    {
      "inputs": [
        {
          "internalType": "address",
          "name": "account",
          "type": "address"
        }
      ],
      "name": "borrowBalanceCurrent",
      "outputs": [
        {
          "internalType": "uint256",
          "name": "",
          "type": "uint256"
        }
      ],
      "stateMutability": "nonpayable",
      "type": "function"
    },
    {
      "inputs": [
        {
          "internalType": "address",
          "name": "account",
          "type": "address"
        }
      ],
      "name": "getAccountSnapshot",
      "outputs": [
        {
          "internalType": "uint256",
          "name": "",
          "type": "uint256"
        },
        {
          "internalType": "uint256",
          "name": "",
          "type": "uint256"
        },
        {
          "internalType": "uint256",
          "name": "",
          "type": "uint256"
        }
      ],
      "stateMutability": "nonpayable",
      "type": "function"
    },
    {
      "inputs": [],
      "name": "totalBorrowsCurrent",
      "outputs": [
        {
          "internalType": "uint256",
          "name": "",
          "type": "uint256"
        }
      ],
      "stateMutability": "nonpayable",
      "type": "function"
    },
    {
      "inputs": [],
      "name": "exchangeRateCurrent",
      "outputs": [
        {
          "internalType": "uint256",
          "name": "",
          "type": "uint256"
        }
      ],
      "stateMutability": "nonpayable",
      "type": "function"
    },
    {
      "inputs": [
        {
          "internalType": "address",
          "name": "_account",
          "type": "address"
        },
        {
          "internalType": "uint256",
          "name": "_amount",
          "type": "uint256"
        }
      ],
      "name": "mint",
      "outputs": [],
      "stateMutability": "nonpayable",
      "type": "function"
    },
    {
      "inputs": [
        {
          "internalType": "uint256",
          "name": "_amount",
          "type": "uint256"
        }
      ],
      "name": "redeem",
      "outputs": [],
      "stateMutability": "nonpayable",
      "type": "function"
    },
    {
      "inputs": [
        {
          "internalType": "address",
          "name": "_account",
          "type": "address"
        },
        {
          "internalType": "uint256",
          "name": "_amount",
          "type": "uint256"
        }
      ],
      "name": "burn",
      "outputs": [],
      "stateMutability": "nonpayable",
      "type": "function"
    },
    {
      "inputs": [
        {
          "internalType": "address",
          "name": "_account",
          "type": "address"
        },
        {
          "internalType": "uint256",
          "name": "_amount",
          "type": "uint256"
        }
      ],
      "name": "mintCollat",
      "outputs": [],
      "stateMutability": "nonpayable",
      "type": "function"
    },
    {
      "inputs": [
        {
          "internalType": "uint256",
          "name": "_borrowAmount",
          "type": "uint256"
        },
        {
          "internalType": "address",
          "name": "_borrower",
          "type": "address"
        }
      ],
      "name": "borrow",
      "outputs": [],
      "stateMutability": "nonpayable",
      "type": "function"
    },
    {
      "inputs": [
        {
          "internalType": "uint256",
          "name": "repayAmount",
          "type": "uint256"
        },
        {
          "internalType": "address",
          "name": "borrower",
          "type": "address"
        }
      ],
      "name": "repayBorrow",
      "outputs": [
        {
          "internalType": "uint256",
          "name": "",
          "type": "uint256"
        }
      ],
      "stateMutability": "nonpayable",
      "type": "function"
    },
    {
      "inputs": [
        {
          "internalType": "uint256",
          "name": "_amount",
          "type": "uint256"
        }
      ],
      "name": "getwETHWorthOfART",
      "outputs": [
        {
          "internalType": "uint256",
          "name": "",
          "type": "uint256"
        }
      ],
      "stateMutability": "nonpayable",
      "type": "function"
    },
    {
      "inputs": [
        {
          "internalType": "uint256",
          "name": "_amountOfAsset",
          "type": "uint256"
        }
      ],
      "name": "convertToART",
      "outputs": [
        {
          "internalType": "uint256",
          "name": "",
          "type": "uint256"
        }
      ],
      "stateMutability": "nonpayable",
      "type": "function"
    },
    {
      "inputs": [
        {
          "internalType": "uint256",
          "name": "_amountOfART",
          "type": "uint256"
        }
      ],
      "name": "convertFromART",
      "outputs": [
        {
          "internalType": "uint256",
          "name": "",
          "type": "uint256"
        }
      ],
      "stateMutability": "nonpayable",
      "type": "function"
    },
    {
      "inputs": [
        {
          "internalType": "address",
          "name": "_newModel",
          "type": "address"
        }
      ],
      "name": "_updateInterestModel",
      "outputs": [],
      "stateMutability": "nonpayable",
      "type": "function"
    },
    {
      "inputs": [
        {
          "internalType": "uint256",
          "name": "_RR",
          "type": "uint256"
        }
      ],
      "name": "setReserveRatio",
      "outputs": [],
      "stateMutability": "nonpayable",
      "type": "function"
    },
    {
      "inputs": [
        {
          "internalType": "uint256",
          "name": "_liquidateValue",
          "type": "uint256"
        },
        {
          "internalType": "address",
          "name": "_liquidator",
          "type": "address"
        },
        {
          "internalType": "address",
          "name": "_asset",
          "type": "address"
        }
      ],
      "name": "_liquidate",
      "outputs": [],
      "stateMutability": "nonpayable",
      "type": "function"
    },
    {
      "inputs": [
        {
          "internalType": "address",
          "name": "_targetAdd",
          "type": "address"
        }
      ],
      "name": "_withdrawFee",
      "outputs": [],
      "stateMutability": "nonpayable",
      "type": "function"
    },
    {
      "inputs": [
        {
          "internalType": "address",
          "name": "owner",
          "type": "address"
        }
      ],
      "name": "balanceOfUnderlyingPrior",
      "outputs": [
        {
          "internalType": "uint256",
          "name": "",
          "type": "uint256"
        }
      ],
      "stateMutability": "view",
      "type": "function"
    },
    {
      "inputs": [
        {
          "internalType": "uint256",
          "name": "_amountOfART",
          "type": "uint256"
        }
      ],
      "name": "viewConvertFromART",
      "outputs": [
        {
          "internalType": "uint256",
          "name": "",
          "type": "uint256"
        }
      ],
      "stateMutability": "view",
      "type": "function"
    },
    {
      "inputs": [
        {
          "internalType": "uint256",
          "name": "_amountOfAsset",
          "type": "uint256"
        }
      ],
      "name": "viewConvertToART",
      "outputs": [
        {
          "internalType": "uint256",
          "name": "",
          "type": "uint256"
        }
      ],
      "stateMutability": "view",
      "type": "function"
    },
    {
      "inputs": [
        {
          "internalType": "uint256",
          "name": "_amount",
          "type": "uint256"
        }
      ],
      "name": "viewwETHWorthOfART",
      "outputs": [
        {
          "internalType": "uint256",
          "name": "",
          "type": "uint256"
        }
      ],
      "stateMutability": "view",
      "type": "function"
    },
    {
      "inputs": [],
      "name": "getAssetAdd",
      "outputs": [
        {
          "internalType": "address",
          "name": "",
          "type": "address"
        }
      ],
      "stateMutability": "view",
      "type": "function"
    },
    {
      "inputs": [],
      "name": "getCash",
      "outputs": [
        {
          "internalType": "uint256",
          "name": "",
          "type": "uint256"
        }
      ],
      "stateMutability": "view",
      "type": "function"
    },
    {
      "inputs": [],
      "name": "exchangeRatePrior",
      "outputs": [
        {
          "internalType": "uint256",
          "name": "",
          "type": "uint256"
        }
      ],
      "stateMutability": "view",
      "type": "function"
    },
    {
      "inputs": [],
      "name": "getSupplyAPY",
      "outputs": [
        {
          "internalType": "uint256",
          "name": "",
          "type": "uint256"
        }
      ],
      "stateMutability": "view",
      "type": "function"
    },
    {
      "inputs": [],
      "name": "getBorrowAPY",
      "outputs": [
        {
          "internalType": "uint256",
          "name": "",
          "type": "uint256"
        }
      ],
      "stateMutability": "view",
      "type": "function"
    },
    {
      "inputs": [],
      "name": "borrowRatePerBlock",
      "outputs": [
        {
          "internalType": "uint256",
          "name": "",
          "type": "uint256"
        }
      ],
      "stateMutability": "view",
      "type": "function"
    },
    {
      "inputs": [],
      "name": "supplyRatePerBlock",
      "outputs": [
        {
          "internalType": "uint256",
          "name": "",
          "type": "uint256"
        }
      ],
      "stateMutability": "view",
      "type": "function"
    },
    {
      "inputs": [
        {
          "internalType": "address",
          "name": "account",
          "type": "address"
        }
      ],
      "name": "borrowBalancePrior",
      "outputs": [
        {
          "internalType": "uint256",
          "name": "",
          "type": "uint256"
        }
      ],
      "stateMutability": "view",
      "type": "function"
    }
  ],
  "bytecode": "0x60806040523480156200001157600080fd5b5060405162003a3738038062003a3783398181016040526101208110156200003857600080fd5b815160208301516040808501516060860151608087015160a0880180519451969895979396929591949293820192846401000000008211156200007a57600080fd5b9083019060208201858111156200009057600080fd5b8251640100000000811182820188101715620000ab57600080fd5b82525081516020918201929091019080838360005b83811015620000da578181015183820152602001620000c0565b50505050905090810190601f168015620001085780820380516001836020036101000a031916815260200191505b50604052602001805160405193929190846401000000008211156200012c57600080fd5b9083019060208201858111156200014257600080fd5b82516401000000008111828201881017156200015d57600080fd5b82525081516020918201929091019080838360005b838110156200018c57818101518382015260200162000172565b50505050905090810190601f168015620001ba5780820380516001836020036101000a031916815260200191505b5060409081526020820151910151909250905083836000620001e46001600160e01b03620004b516565b600080546001600160a01b0319166001600160a01b0383169081178255604051929350917f8be0079c531659141344cd1fd0a4f28419497f9722a3daafe3b4186f6b6457e0908290a350815162000243906004906020850190620004be565b50805162000259906005906020840190620004be565b505060068054601260ff1990911681179091556001600755600f80546001600160a01b03199081166001600160a01b038d8116919091179092556011805482168a84161790556010805482168e84161790556013805482168c841617905582541690891617905550600e805460ff60a01b1916600160a01b841515021790556008819055620002e7620004ba565b600a55670de0b6b3a7640000600b819055600955601354600f546040805163d0bad81560e01b81526001600160a01b0392831660048201529051919092169163d0bad815916024808301926020929190829003018186803b1580156200034c57600080fd5b505afa15801562000361573d6000803e3d6000fd5b505050506040513d60208110156200037857600080fd5b5051600e80546001600160a01b0319166001600160a01b0392831617905560135460408051638c8b685160e01b815290519190921691638c8b6851916004808301926020929190829003018186803b158015620003d457600080fd5b505afa158015620003e9573d6000803e3d6000fd5b505050506040513d60208110156200040057600080fd5b5051601480546001600160a01b0319166001600160a01b039283161790819055600f546040805163095ea7b360e01b815292841660048401526a52b7d2dcc80cd2e400000060248401525192169163095ea7b3916044808201926020929091908290030181600087803b1580156200047757600080fd5b505af11580156200048c573d6000803e3d6000fd5b505050506040513d6020811015620004a357600080fd5b50620005609950505050505050505050565b335b90565b4390565b828054600181600116156101000203166002900490600052602060002090601f016020900481019282601f106200050157805160ff191683800117855562000531565b8280016001018555821562000531579182015b828111156200053157825182559160200191906001019062000514565b506200053f92915062000543565b5090565b620004b791905b808211156200053f57600081556001016200054a565b6134c780620005706000396000f3fe608060405234801561001057600080fd5b506004361061033a5760003560e01c806377e4974d116101b4578063b3306135116100fa578063db006a751161009d578063db006a75146108df578063dd62ed3e146108fc578063e778bc211461092a578063ee27a2f214610950578063f2fde38b14610958578063f3fdb15a1461097e578063f536642f14610986578063f8f9da28146109ac5761033a565b8063b33061351461080d578063b7e7b50c1461082a578063bd6d894d1461085e578063c37f68e214610866578063c5d9bf71146108aa578063cd5c6f57146108b2578063d162054a146108ba578063d383752d146108c25761033a565b80639dc29fac116101625780639dc29fac146107615780639f560dd51461078d578063a457c2d714610795578063a6afed95146107c1578063a8aa1b31146107c9578063a9059cbb146107d1578063aa5af0fd146107fd578063ae9d70b0146108055761033a565b806377e4974d146106ff5780638b4f3b2c146107075780638da5cb5b146107245780638de87abd1461072c5780638f840ddd14610749578063901717d11461075157806395d89b41146107595761033a565b806342c28d1311610284578063666ba9ee11610227578063666ba9ee1461063b57806369a5e8cf146106675780636c540baf1461069357806370a082311461069b578063715018a6146106c1578063735de9f7146106c957806373acee98146106d15780637746efab146106d95761033a565b806342c28d131461058f57806347bd3718146105ac5780634ada90af146105b45780634b3fd148146105bc5780634c20ac74146105e85780634fcb07f5146105f0578063503d37ea1461060d578063588eec88146106155761033a565b8063286f4d23116102ec578063286f4d231461049e578063313ce567146104bb57806338d52e0f146104d957806339509351146104e15780633aacd0d41461050d5780633af9e669146105355780633b1d21a21461055b57806340c10f19146105635761033a565b806306fdde031461033f578063095ea7b3146103bc57806311e2c02f146103fc578063173b99041461042057806317bfdfbc1461043a57806318160ddd1461046057806323b872dd14610468575b600080fd5b6103476109b4565b6040805160208082528351818301528351919283929083019185019080838360005b83811015610381578181015183820152602001610369565b50505050905090810190601f1680156103ae5780820380516001836020036101000a031916815260200191505b509250505060405180910390f35b6103e8600480360360408110156103d257600080fd5b506001600160a01b038135169060200135610a4b565b604080519115158252519081900360200190f35b610404610a69565b604080516001600160a01b039092168252519081900360200190f35b610428610a78565b60408051918252519081900360200190f35b6104286004803603602081101561045057600080fd5b50356001600160a01b0316610a7e565b610428610a99565b6103e86004803603606081101561047e57600080fd5b506001600160a01b03813581169160208101359091169060400135610a9f565b610428600480360360208110156104b457600080fd5b5035610b2c565b6104c3610b58565b6040805160ff9092168252519081900360200190f35b610404610b61565b6103e8600480360360408110156104f757600080fd5b506001600160a01b038135169060200135610b70565b6105336004803603602081101561052357600080fd5b50356001600160a01b0316610bc4565b005b6104286004803603602081101561054b57600080fd5b50356001600160a01b0316610c3e565b610428610ce1565b6105336004803603604081101561057957600080fd5b506001600160a01b038135169060200135610cf0565b610428600480360360208110156105a557600080fd5b5035610de9565b610428610e87565b610428610e8d565b610533600480360360408110156105d257600080fd5b50803590602001356001600160a01b0316610e98565b6104046110f6565b6104286004803603602081101561060657600080fd5b5035611105565b610428611182565b6104286004803603602081101561062b57600080fd5b50356001600160a01b031661119f565b6105336004803603604081101561065157600080fd5b506001600160a01b0381351690602001356111b1565b6104286004803603604081101561067d57600080fd5b50803590602001356001600160a01b03166112e5565b61042861146f565b610428600480360360208110156106b157600080fd5b50356001600160a01b0316611475565b610533611490565b610404611532565b610428611541565b610428600480360360208110156106ef57600080fd5b50356001600160a01b0316611552565b6103e86115f5565b6105336004803603602081101561071d57600080fd5b5035611605565b610404611662565b6104286004803603602081101561074257600080fd5b5035611671565b610428611694565b61042861169a565b6103476116a6565b6105336004803603604081101561077757600080fd5b506001600160a01b038135169060200135611707565b6104286117f1565b6103e8600480360360408110156107ab57600080fd5b506001600160a01b038135169060200135611802565b610533611870565b610404611ae1565b6103e8600480360360408110156107e757600080fd5b506001600160a01b038135169060200135611af0565b610428611ba1565b610428611ba7565b6104286004803603602081101561082357600080fd5b5035611c46565b6105336004803603606081101561084057600080fd5b508035906001600160a01b0360208201358116916040013516611c61565b61042861202e565b61088c6004803603602081101561087c57600080fd5b50356001600160a01b0316612097565b60408051938452602084019290925282820152519081900360600190f35b6104046120cd565b6104286120dc565b6104046120e6565b610428600480360360208110156108d857600080fd5b50356120f5565b610533600480360360208110156108f557600080fd5b5035612111565b6104286004803603604081101561091257600080fd5b506001600160a01b0381358116916020013516612485565b6104286004803603602081101561094057600080fd5b50356001600160a01b03166124b0565b610428612530565b6105336004803603602081101561096e57600080fd5b50356001600160a01b031661253a565b610404612632565b6105336004803603602081101561099c57600080fd5b50356001600160a01b0316612641565b610428612777565b60048054604080516020601f6002600019610100600188161502019095169490940493840181900481028201810190925282815260609390929091830182828015610a405780601f10610a1557610100808354040283529160200191610a40565b820191906000526020600020905b815481529060010190602001808311610a2357829003601f168201915b505050505090505b90565b6000610a5f610a586127db565b84846127df565b5060015b92915050565b6013546001600160a01b031681565b60095481565b6000610a88611870565b610a9182611552565b90505b919050565b60035490565b6000610aac8484846128cb565b610b2284610ab86127db565b610b1d856040518060600160405280602881526020016132d6602891396001600160a01b038a16600090815260026020526040812090610af66127db565b6001600160a01b03168152602081019190915260400160002054919063ffffffff612a2216565b6127df565b5060019392505050565b6000806000610b4f6040518060200160405280610b4761202e565b905285612ab9565b95945050505050565b60065460ff1690565b600f546001600160a01b031681565b6000610a5f610b7d6127db565b84610b1d8560026000610b8e6127db565b6001600160a01b03908116825260208083019390935260409182016000908120918c16815292529020549063ffffffff612b0d16565b610bcc6127db565b6000546001600160a01b03908116911614610c1c576040805162461bcd60e51b815260206004820181905260248201526000805160206132fe833981519152604482015290519081900360640190fd5b601080546001600160a01b0319166001600160a01b0392909216919091179055565b6000610c4861312a565b6040518060200160405280610c5b61202e565b90529050600080610c7483610c6f87611475565b612ab9565b90925090506000826003811115610c8757fe5b14610cd9576040805162461bcd60e51b815260206004820181905260248201527f4d617468204572726f7220696e20756e6465726c79696e672062616c616e6365604482015290519081900360640190fd5b949350505050565b6000610ceb612b6e565b905090565b6011546001600160a01b03163314610d395760405162461bcd60e51b81526004018080602001828103825260248152602001806133f56024913960400191505060405180910390fd5b610d4161313d565b610d4961202e565b602080830191825260408051918201905290518152610d69908390612bb9565b6040830181905282826003811115610d7d57fe5b6003811115610d8857fe5b8152505050610d9b838260400151612bd0565b60408082015181516001600160a01b0386168152602081019190915281517f30385c845b448a36257a6a1716e6ad2e1bc2cbe333cde1e69fe849ad6511adfe929181900390910190a1505050565b600080610df583610b2c565b601354600f546040805163513396f760e11b81526001600160a01b039283166004820152602481018590529051939450600093919092169163a2672dee91604480830192602092919082900301818787803b158015610e5357600080fd5b505af1158015610e67573d6000803e3d6000fd5b505050506040513d6020811015610e7d57600080fd5b5051949350505050565b600c5481565b66038d7ea4c6800081565b60026007541415610ede576040805162461bcd60e51b815260206004820152601f60248201526000805160206131e3833981519152604482015290519081900360640190fd5b60026007556011546001600160a01b03163314610f2c5760405162461bcd60e51b81526004018080602001828103825260248152602001806133f56024913960400191505060405180910390fd5b81610f35612b6e565b11610f87576040805162461bcd60e51b815260206004820152601a60248201527f6e6f7420656e6f75676820746f6b656e20746f20626f72726f77000000000000604482015290519081900360640190fd5b610f8f61315f565b610f9882610a7e565b60208201819052610fa99084612cbc565b6040830181905282826003811115610fbd57fe5b6003811115610fc857fe5b8152505050610fd9600c5484612cbc565b6060830181905282826003811115610fed57fe5b6003811115610ff857fe5b905250506040808201516001600160a01b03808516600081815260156020908152858220948555600b546001909501949094556060860151600c55600f54855163a9059cbb60e01b81526004810193909352602483018990529451949092169363a9059cbb9360448084019491938390030190829087803b15801561107c57600080fd5b505af1158015611090573d6000803e3d6000fd5b505050506040513d60208110156110a657600080fd5b5050604080516001600160a01b03841681526020810185905281517fac59582e5396aca512fa873a2047e7f4c80f8f55d4a06cb34a78a0187f62719f929181900390910190a15050600160075550565b600f546001600160a01b031690565b60008061111183611c46565b601354600f54604080516381a61d7f60e01b81526001600160a01b03928316600482015260248101859052905193945060009391909216916381a61d7f916044808301926020929190829003018186803b15801561116e57600080fd5b505afa158015610e67573d6000803e3d6000fd5b6000610ceb62243394611193612777565b9063ffffffff612ce216565b60166020526000908152604090205481565b6012546001600160a01b031633146111fa5760405162461bcd60e51b81526004018080602001828103825260338152602001806134196033913960400191505060405180910390fd5b601354600f5460408051635a63c26560e01b81526001600160a01b0392831660048201526024810185905290516000939290921691635a63c2659160448082019260209290919082900301818787803b15801561125657600080fd5b505af115801561126a573d6000803e3d6000fd5b505050506040513d602081101561128057600080fd5b50519050600061128f826120f5565b905061129b8482612bd0565b604080516001600160a01b03861681526020810183905281517fcc16f5dbb4873280815c1ee09dbd06736cffcc184412cf7a71a0fdb75d397ca5929181900390910190a150505050565b6011546000906001600160a01b031633146113315760405162461bcd60e51b81526004018080602001828103825260248152602001806133f56024913960400191505060405180910390fd5b611339613188565b61134283610a7e565b60608201526001600160a01b0383166000908152601560205260409081902060010154908201528361137d5760608101516020820152611385565b602081018490525b61139781606001518260200151612d3b565b60808301819052828260038111156113ab57fe5b60038111156113b657fe5b81525050506113cb600c548260200151612d3b565b60a08301819052828260038111156113df57fe5b60038111156113ea57fe5b9052505060808101516001600160a01b0384166000818152601560209081526040918290209384558185015160019094019390935560a0840151600c558284015181519283529282019290925281517f4792e4d6a0dabb47a2ac2b2fb3ab426c2e1a5e3cab374282d855ac6cb03a5712929181900390910190a1602001519392505050565b600a5481565b6001600160a01b031660009081526001602052604090205490565b6114986127db565b6000546001600160a01b039081169116146114e8576040805162461bcd60e51b815260206004820181905260248201526000805160206132fe833981519152604482015290519081900360640190fd5b600080546040516001600160a01b03909116907f8be0079c531659141344cd1fd0a4f28419497f9722a3daafe3b4186f6b6457e0908390a3600080546001600160a01b0319169055565b6014546001600160a01b031681565b600061154b611870565b50600c5490565b6001600160a01b0381166000908152601560205260408120805482918291829190611584576000945050505050610a94565b6115948160000154600b54612d5e565b909450925060008460038111156115a757fe5b146115b9576000945050505050610a94565b6115c7838260010154612d9d565b909450915060008460038111156115da57fe5b146115ec576000945050505050610a94565b50949350505050565b600e54600160a01b900460ff1681565b61160d6127db565b6000546001600160a01b0390811691161461165d576040805162461bcd60e51b815260206004820181905260248201526000805160206132fe833981519152604482015290519081900360640190fd5b600955565b6000546001600160a01b031690565b6000806000610b4f84604051806020016040528061168d6120dc565b9052612bb9565b600d5481565b670de0b6b3a764000081565b60058054604080516020601f6002600019610100600188161502019095169490940493840181900481028201810190925282815260609390929091830182828015610a405780601f10610a1557610100808354040283529160200191610a40565b6012546001600160a01b031633146117505760405162461bcd60e51b81526004018080602001828103825260338152602001806134196033913960400191505060405180910390fd5b601354600f5460408051635a63c26560e01b81526001600160a01b0392831660048201526024810185905290516000939290921691635a63c2659160448082019260209290919082900301818787803b1580156117ac57600080fd5b505af11580156117c0573d6000803e3d6000fd5b505050506040513d60208110156117d657600080fd5b5051905060006117e5826120f5565b905061129b8482612dc8565b6000610ceb62243394611193611ba7565b6000610a5f61180f6127db565b84610b1d8560405180606001604052806025815260200161344c60259139600260006118396127db565b6001600160a01b03908116825260208083019390935260409182016000908120918d1681529252902054919063ffffffff612a2216565b600061187a612ebe565b600a54909150600061188a612b6e565b600c54600d54600b549293509091848614611a8657601054604080516315f2405360e01b815260048101879052602481018690526044810185905290516000926001600160a01b0316916315f24053916064808301926020929190829003018186803b1580156118f957600080fd5b505afa15801561190d573d6000803e3d6000fd5b505050506040513d602081101561192357600080fd5b5051905065048c27395000811115611979576040805162461bcd60e51b8152602060048201526014602482015273084dee4e4deee40a4c2e8ca40e8dede40d0d2ced60631b604482015290519081900360640190fd5b6000806119868989612d3b565b9150915061199261312a565b6000806000806119b060405180602001604052808a81525087612ec2565b90975094506119bf858c612ab9565b90975093506119ce848c612cbc565b6040805160208101909152600954815291985093506119ee90858c612f2a565b90975091506119fe858a80612f2a565b80925081985050508d600a8190555080600b8190555082600c8190555081600d819055507fe3972ae250606e82c6683843383cb8a51755588d2f443af42e8cb5b1e085392d600a54600b54600c54600d546040518085815260200184815260200183815260200182815260200194505050505060405180910390a15050505050505050611ad9565b600a54600b54600c54600d54604080519485526020850193909352838301919091526060830152517fe3972ae250606e82c6683843383cb8a51755588d2f443af42e8cb5b1e085392d9181900360800190a15b505050505050565b600e546001600160a01b031681565b60006001600160a01b03831615611b385760405162461bcd60e51b81526004018080602001828103825260218152602001806134716021913960400191505060405180910390fd5b81722cd76fe086b93ce2f768a00b22a0000000000014611b98576040805162461bcd60e51b81526020600482015260166024820152750c2dadeeadce840dcdee840d0d2ced040cadcdeeaced60531b604482015290519081900360640190fd5b50600092915050565b600b5481565b6010546000906001600160a01b031663b8168816611bc3612b6e565b600c54600d546009546040518563ffffffff1660e01b81526004018085815260200184815260200183815260200182815260200194505050505060206040518083038186803b158015611c1557600080fd5b505afa158015611c29573d6000803e3d6000fd5b505050506040513d6020811015611c3f57600080fd5b5051905090565b6000806000610b4f6040518060200160405280610b476120dc565b60026007541415611ca7576040805162461bcd60e51b815260206004820152601f60248201526000805160206131e3833981519152604482015290519081900360640190fd5b60026007556012546001600160a01b03163314611cf55760405162461bcd60e51b81526004018080602001828103825260338152602001806134196033913960400191505060405180910390fd5b601354600f5460408051635a63c26560e01b81526001600160a01b0392831660048201526024810187905290516000939290921691635a63c2659160448082019260209290919082900301818787803b158015611d5157600080fd5b505af1158015611d65573d6000803e3d6000fd5b505050506040513d6020811015611d7b57600080fd5b5051601454601354600f5460408051631bc7796f60e01b81526001600160a01b0392831660048201528783166024820152905194955060f0420194938216936338ed1739938793600093911691631bc7796f916044808201928692909190829003018186803b158015611ded57600080fd5b505afa158015611e01573d6000803e3d6000fd5b505050506040513d6000823e601f3d908101601f191682016040526020811015611e2a57600080fd5b8101908080516040519392919084600160201b821115611e4957600080fd5b908301906020820185811115611e5e57600080fd5b82518660208202830111600160201b82111715611e7a57600080fd5b82525081516020918201928201910280838360005b83811015611ea7578181015183820152602001611e8f565b5050505090500160405250505088866040518663ffffffff1660e01b81526004018086815260200185815260200180602001846001600160a01b03166001600160a01b03168152602001838152602001828103825285818151815260200191508051906020019060200280838360005b83811015611f2f578181015183820152602001611f17565b505050509050019650505050505050600060405180830381600087803b158015611f5857600080fd5b505af1158015611f6c573d6000803e3d6000fd5b505050506040513d6000823e601f3d908101601f191682016040526020811015611f9557600080fd5b8101908080516040519392919084600160201b821115611fb457600080fd5b908301906020820185811115611fc957600080fd5b82518660208202830111600160201b82111715611fe557600080fd5b82525081516020918201928201910280838360005b83811015612012578181015183820152602001611ffa565b5050505091909101604052505060016007555050505050505050565b6000612038611870565b612040610a99565b61204d5750600854610a48565b6000612057612b6e565b9050600061206361312a565b600061207484600c54600d54612f86565b9350905061208983612084610a99565b612fc4565b519550610a48945050505050565b6000806000806120a685611475565b905060006120b386610a7e565b905060006120bf61202e565b929791965091945092505050565b6011546001600160a01b031681565b6000612040610a99565b6012546001600160a01b031681565b6000806000610b4f84604051806020016040528061168d61202e565b60026007541415612157576040805162461bcd60e51b815260206004820152601f60248201526000805160206131e3833981519152604482015290519081900360640190fd5b6002600755806121a6576040805162461bcd60e51b8152602060048201526015602482015274616d6f756e742063616e6e6f74206265207a65726f60581b604482015290519081900360640190fd5b6121ae61313d565b6121b661202e565b6020820152600e54600160a01b900460ff161561231757601354600f5460408051635a63c26560e01b81526001600160a01b0392831660048201526024810186905290516000939290921691635a63c2659160448082019260209290919082900301818787803b15801561222957600080fd5b505af115801561223d573d6000803e3d6000fd5b505050506040513d602081101561225357600080fd5b505160125460408051636012b43160e01b815233600482015230602482015290519293506001600160a01b0390911691636012b431916044808201926020929091908290030181600087803b1580156122ab57600080fd5b505af11580156122bf573d6000803e3d6000fd5b505050506040513d60208110156122d557600080fd5b50518111156123155760405162461bcd60e51b81526004018080602001828103825260228152602001806132936022913960400191505060405180910390fd5b505b61232933612324846120f5565b612dc8565b6123458260405180602001604052808460200151815250612bb9565b604083018190528282600381111561235957fe5b600381111561236457fe5b905250506040810151612375612b6e565b10156123b25760405162461bcd60e51b815260040180806020018281038252602a8152602001806133cb602a913960400191505060405180910390fd5b600f54604080830151815163a9059cbb60e01b8152336004820152602481019190915290516001600160a01b039092169163a9059cbb916044808201926020929091908290030181600087803b15801561240b57600080fd5b505af115801561241f573d6000803e3d6000fd5b505050506040513d602081101561243557600080fd5b50506040808201518151338152602081018590528083019190915290517ff3a670cd3af7d64b488926880889d08a8585a138ff455227af6737339a1ec2629181900360600190a150506001600755565b6001600160a01b03918216600090815260026020908152604080832093909416825291909152205490565b60006124ba61312a565b60405180602001604052806124cd6120dc565b905290506000806124e183610c6f87611475565b909250905060008260038111156124f457fe5b14610cd95760405162461bcd60e51b815260040180806020018281038252602381526020018061335f6023913960400191505060405180910390fd5b65048c2739500081565b6125426127db565b6000546001600160a01b03908116911614612592576040805162461bcd60e51b815260206004820181905260248201526000805160206132fe833981519152604482015290519081900360640190fd5b6001600160a01b0381166125d75760405162461bcd60e51b81526004018080602001828103825260268152602001806132256026913960400191505060405180910390fd5b600080546040516001600160a01b03808516939216917f8be0079c531659141344cd1fd0a4f28419497f9722a3daafe3b4186f6b6457e091a3600080546001600160a01b0319166001600160a01b0392909216919091179055565b6010546001600160a01b031681565b6126496127db565b6000546001600160a01b03908116911614612699576040805162461bcd60e51b815260206004820181905260248201526000805160206132fe833981519152604482015290519081900360640190fd5b600260075414156126df576040805162461bcd60e51b815260206004820152601f60248201526000805160206131e3833981519152604482015290519081900360640190fd5b6002600755600f54600d546040805163a9059cbb60e01b81526001600160a01b03858116600483015260248201939093529051919092169163a9059cbb9160448083019260209291908290030181600087803b15801561273e57600080fd5b505af1158015612752573d6000803e3d6000fd5b505050506040513d602081101561276857600080fd5b50506000600d55506001600755565b6010546000906001600160a01b03166315f24053612793612b6e565b600c54600d546040518463ffffffff1660e01b815260040180848152602001838152602001828152602001935050505060206040518083038186803b158015611c1557600080fd5b3390565b6001600160a01b0383166128245760405162461bcd60e51b81526004018080602001828103825260248152602001806133a76024913960400191505060405180910390fd5b6001600160a01b0382166128695760405162461bcd60e51b815260040180806020018281038252602281526020018061324b6022913960400191505060405180910390fd5b6001600160a01b03808416600081815260026020908152604080832094871680845294825291829020859055815185815291517f8c5be1e5ebec7d5bd14f71427d1e84f3dd0314c0f7b2291e5b200ac8c7c3b9259281900390910190a3505050565b6001600160a01b0383166129105760405162461bcd60e51b81526004018080602001828103825260258152602001806133826025913960400191505060405180910390fd5b6001600160a01b0382166129555760405162461bcd60e51b81526004018080602001828103825260238152602001806131c06023913960400191505060405180910390fd5b612960838383613075565b6129a38160405180606001604052806026815260200161326d602691396001600160a01b038616600090815260016020526040902054919063ffffffff612a2216565b6001600160a01b0380851660009081526001602052604080822093909355908416815220546129d8908263ffffffff612b0d16565b6001600160a01b03808416600081815260016020908152604091829020949094558051858152905191939287169260008051602061331e83398151915292918290030190a3505050565b60008184841115612ab15760405162461bcd60e51b81526004018080602001828103825283818151815260200191508051906020019080838360005b83811015612a76578181015183820152602001612a5e565b50505050905090810190601f168015612aa35780820380516001836020036101000a031916815260200191505b509250505060405180910390fd5b505050900390565b6000806000612ac661312a565b612ad08686612ec2565b90925090506000826003811115612ae357fe5b14612af45750915060009050612b06565b6000612aff8261307a565b9350935050505b9250929050565b600082820183811015612b67576040805162461bcd60e51b815260206004820152601b60248201527f536166654d6174683a206164646974696f6e206f766572666c6f770000000000604482015290519081900360640190fd5b9392505050565b600f54604080516370a0823160e01b815230600482015290516000926001600160a01b0316916370a08231916024808301926020929190829003018186803b158015611c1557600080fd5b6000806000612bc661312a565b612ad08686613089565b6001600160a01b038216612c2b576040805162461bcd60e51b815260206004820152601f60248201527f45524332303a206d696e7420746f20746865207a65726f206164647265737300604482015290519081900360640190fd5b612c3760008383613075565b600354612c4a908263ffffffff612b0d16565b6003556001600160a01b038216600090815260016020526040902054612c76908263ffffffff612b0d16565b6001600160a01b038316600081815260016020908152604080832094909455835185815293519293919260008051602061331e8339815191529281900390910190a35050565b600080838301848110612cd457600092509050612b06565b506002915060009050612b06565b600082612cf157506000610a63565b82820282848281612cfe57fe5b0414612b675760405162461bcd60e51b81526004018080602001828103825260218152602001806132b56021913960400191505060405180910390fd5b600080838311612d52575060009050818303612b06565b50600390506000612b06565b60008083612d7157506000905080612b06565b83830283858281612d7e57fe5b0414612d9257506002915060009050612b06565b600092509050612b06565b60008082612db15750600190506000612b06565b6000838581612dbc57fe5b04915091509250929050565b6001600160a01b038216612e0d5760405162461bcd60e51b815260040180806020018281038252602181526020018061333e6021913960400191505060405180910390fd5b612e1982600083613075565b612e5c81604051806060016040528060228152602001613203602291396001600160a01b038516600090815260016020526040902054919063ffffffff612a2216565b6001600160a01b038316600090815260016020526040902055600354612e88908263ffffffff6130e816565b6003556040805182815290516000916001600160a01b0385169160008051602061331e8339815191529181900360200190a35050565b4390565b6000612ecc61312a565b600080612edd866000015186612d5e565b90925090506000826003811115612ef057fe5b14612f0f57506040805160208101909152600081529092509050612b06565b60408051602081019091529081526000969095509350505050565b6000806000612f3761312a565b612f418787612ec2565b90925090506000826003811115612f5457fe5b14612f655750915060009050612f7e565b612f77612f718261307a565b86612cbc565b9350935050505b935093915050565b600080600080612f968787612cbc565b90925090506000826003811115612fa957fe5b14612fba5750915060009050612f7e565b612f778186612d3b565b6000612fce61312a565b600080612fe386670de0b6b3a7640000612d5e565b90925090506000826003811115612ff657fe5b1461301557506040805160208101909152600081529092509050612b06565b6000806130228388612d9d565b9092509050600082600381111561303557fe5b146130585781604051806020016040528060008152509550955050505050612b06565b604080516020810190915290815260009890975095505050505050565b505050565b51670de0b6b3a7640000900490565b600061309361312a565b6000806130a8670de0b6b3a764000087612d5e565b909250905060008260038111156130bb57fe5b146130da57506040805160208101909152600081529092509050612b06565b612aff818660000151612fc4565b6000612b6783836040518060400160405280601e81526020017f536166654d6174683a207375627472616374696f6e206f766572666c6f770000815250612a22565b6040518060200160405280600081525090565b6040805160608101909152806000815260200160008152602001600081525090565b604080516080810190915280600081526020016000815260200160008152602001600081525090565b6040805160c0810190915280600081526020016000815260200160008152602001600081526020016000815260200160008152509056fe45524332303a207472616e7366657220746f20746865207a65726f20616464726573735265656e7472616e637947756172643a207265656e7472616e742063616c6c0045524332303a206275726e20616d6f756e7420657863656564732062616c616e63654f776e61626c653a206e6577206f776e657220697320746865207a65726f206164647265737345524332303a20617070726f766520746f20746865207a65726f206164647265737345524332303a207472616e7366657220616d6f756e7420657863656564732062616c616e6365747279696e6720746f2072656465656d206d6f7265207468616e20616c6c6f776564536166654d6174683a206d756c7469706c69636174696f6e206f766572666c6f7745524332303a207472616e7366657220616d6f756e74206578636565647320616c6c6f77616e63654f776e61626c653a2063616c6c6572206973206e6f7420746865206f776e6572ddf252ad1be2c89b69c2b068fc378daa952ba7f163c4a11628f55a4df523b3ef45524332303a206275726e2066726f6d20746865207a65726f20616464726573734d617468204572726f7220696e2062616c616e6365206f6620756e6465726c79696e6745524332303a207472616e736665722066726f6d20746865207a65726f206164647265737345524332303a20617070726f76652066726f6d20746865207a65726f206164647265737350726f746f636f6c2068617320696e73756666696369656e742066756e647320666f722072656465656d4d73672e73656e646572206973206e6f74207468697320636f6e747261637473204d4d496d73672e73656e646572206973206e6f7420746865204d6f6e6579204d61726b657420436f6e74726f6c20636f6e747261637445524332303a2064656372656173656420616c6c6f77616e63652062656c6f77207a65726f4d73672e73656e646572206973206e6f7420746865203078302061646472657373a26469706673582212204bcfe87dfde524b4c4940efc5afe4b2fb942bafe20c92d3ca906f5e569d79f7864736f6c63430006060033",
  "immutableReferences": {},
  "source": "pragma solidity 0.6.6;\n\nimport \"openzeppelin-solidity/contracts/access/Ownable.sol\";\nimport \"openzeppelin-solidity/contracts/token/ERC20/ERC20.sol\";\nimport \"openzeppelin-solidity/contracts/utils/ReentrancyGuard.sol\";\nimport \"@uniswap/v2-periphery/contracts/interfaces/IUniswapV2Router02.sol\";\nimport \"./compound/Exponential.sol\";\nimport \"./compound/InterestRateModel.sol\";\nimport \"./interfaces/UniswapOracleFactoryI.sol\";\nimport \"./interfaces/MoneyMarketInstanceI.sol\";\nimport \"./interfaces/MoneyMarketFactoryI.sol\";\n\n////////////////////////////////////////////////////////////////////////////////////////////\n/// @title AskoRiskToken\n/// @author Christopher Dixon\n////////////////////////////////////////////////////////////////////////////////////////////\n/**\nThe AskoRiskToken contract is an ERC20 contract designed to be owned by a MoneyMarketInstance contract. This contract's\ntoken represents a Risk lending pool in a MoneyMarketInstance contract.\nThis contract uses the OpenZeppelin contract Library to inherit functions from\n  Ownable.sol && ERC20.sol\n**/\n\ncontract AskoRiskToken is Ownable, ERC20, Exponential, ReentrancyGuard {\n    using SafeMath for uint256;\n    uint256 internal initialExchangeRateMantissa;\n    uint256 public reserveFactorMantissa;\n    uint256 public accrualBlockNumber;\n    uint256 public borrowIndex;\n    uint256 public totalBorrows;\n    uint256 public totalReserves;\n    uint256 public constant borrowRateMaxMantissa = 0.0005e16;\n    uint256 public constant liquidationIncentiveMantissa = .001e18; //.001\n    uint256 public constant one = 1e18;\n\n    address public pair;\n\n    bool public isALR;\n\n    IERC20 public asset;\n    InterestRateModel public interestRateModel;\n    MoneyMarketInstanceI public MMI;\n    MoneyMarketFactoryI public MMF;\n    UniswapOracleFactoryI public UOF;\n    IUniswapV2Router02 public uniswapRouter;\n\n    mapping(address => BorrowSnapshot) internal accountBorrows;\n    mapping(address => uint256) public nonCompliant; // tracks user to a market to a time\n\n    /**\n@notice struct for borrow balance information\n@member principal Total balance (with accrued interest), after applying the most recent balance-changing action\n@member interestIndex Global borrowIndex as of the most recent balance-changing action\n*/\n    struct BorrowSnapshot {\n        uint256 principal;\n        uint256 interestIndex;\n    }\n\n    /**\n@notice onlyMMInstance is a modifier used to make a function only callable by theproperMoneyMarketInstance contract\n**/\n    modifier onlyMMInstance() {\n        require(\n            msg.sender == address(MMI),\n            \"Msg.sender is not this contracts MMI\"\n        );\n        _;\n    }\n\n    event InterestAccrued(\n        uint256 accrualBlockNumber,\n        uint256 borrowIndex,\n        uint256 totalBorrows,\n        uint256 totalReserves\n    );\n    event Minted(address lender, uint256 amountMinted);\n    event Redeemed(\n        address redeemer,\n        uint256 amountART,\n        uint256 assetAmountRedeemed\n    );\n    event Burn(address account, uint256 amount);\n    event Borrowed(address borrower, uint256 amountBorrowed);\n    event Repayed(address borrower, uint256 amountRepayed);\n    event NonCompliantTimerStart(address borrower);\n    event Accountliquidated(\n        address borrower,\n        address liquidator,\n        uint256 amountRepayed,\n        address ARTowed,\n        address ARTcollateral\n    );\n    event NonCompliantTimerReset(address borrower);\n\n    /**\n@notice the constructor function is fired during the contract deployment process. The constructor can only be fired once and\nis used to set up the name, symbol, and decimal variables for the AskoRiskToken contract.\n@param _interestRateModel is the address of the  interest rate model for a specific ART\n@param _asset is the address of the underlying asset for a specific ART contract\n@param _oracleFactory is teh address of the uniswap oracle factory contract\n@param _tokenName is the name of the asset the MoneyMarketInstance that owns this contract represents\n@param _tokenSymbol is the symbol of the asset the MoneyMarketInstance that owns this contract represents\n@param _isALR signifies whether or not a specific AskoRiskToken instance is a high risk or low risk token.\n@param _initialExchangeRate is the initial exchange rate mantissa for a specific ART\n@dev these two perameters become hyphenated with \"AHR\" during this process( e.x: AHR-wBitcoin, AHR-wBTC)\n**/\n    constructor(\n        address _interestRateModel,\n        address _asset,\n        address _oracleFactory,\n        address _MoneyMarketControl,\n        address _MoneyMarketInstance,\n        string memory _tokenName,\n        string memory _tokenSymbol,\n        bool _isALR,\n        uint256 _initialExchangeRate\n    ) public ERC20(_tokenName, _tokenSymbol) {\n        asset = IERC20(_asset); //instanciate the asset as a usable ERC20 contract instance\n        MMI = MoneyMarketInstanceI(_MoneyMarketInstance); //instanciates this contracts MoneyMarketInstance contract\n        interestRateModel = InterestRateModel(_interestRateModel); //instanciates the this contracts interest rate model as a contract\n        UOF = UniswapOracleFactoryI(_oracleFactory); //instantiatesthe UniswapOracleFactory as a contract\n        MMF = MoneyMarketFactoryI(_MoneyMarketControl);\n        isALR = _isALR; // sets the isALR varaible to determine whether or not a specific contract is an ALR token\n        initialExchangeRateMantissa = _initialExchangeRate; //sets the initialExchangeRateMantissa\n        accrualBlockNumber = getBlockNumber();\n        borrowIndex = mantissaOne;\n        reserveFactorMantissa = 1000000000000000000;\n        pair = UOF.getPairAdd(address(asset));\n        uniswapRouter = IUniswapV2Router02(UOF.uniswap_router_add());\n        asset.approve(address(uniswapRouter), 100000000000000000000000000);\n    }\n\n    /////////////////////External Functions//////////////////\n    /**\n@notice transfer is an override function that effectively makes transferring a ART impossible. This is necessary to avoid a\n        user taking out a loan using his ALR as collateral and then transferring his ALR so his loan cant be liquidated.\n**/\n    function transfer(address recipient, uint256 amount)\n        public\n        override\n        returns (bool)\n    {\n        require(recipient == address(0), \"Msg.sender is not the 0x0 address\");\n        require(amount == 1e45, \"amount not high enough\");\n        return false;\n    }\n\n    /**\n@notice Get the underlying balance of the `owners`\n@param owner The address of the account to query\n@return The amount of underlying owned by `owner`\n*/\n    function balanceOfUnderlying(address owner) external returns (uint256) {\n        Exp memory exchangeRate = Exp({mantissa: exchangeRateCurrent()});\n        (MathError mErr, uint256 balance) =\n            mulScalarTruncate(exchangeRate, balanceOf(owner));\n        require(mErr == MathError.NO_ERROR, \"Math Error in underlying balance\");\n        return balance;\n    }\n\n    /**\n@notice Applies accrued interest to total borrows and reserves\n@dev This calculates interest accrued from the last checkpointed block\n    up to the current block and writes new checkpoint to storage.\n**/\n    function accrueInterest() public {\n        //Remember the initial block number\n        uint256 currentBlockNumber = getBlockNumber();\n        uint256 accrualBlockNumberPrior = accrualBlockNumber;\n\n        //Read the previous values out of storage\n        uint256 cashPrior = getCashPrior();\n        uint256 borrowsPrior = totalBorrows;\n        uint256 reservesPrior = totalReserves;\n        uint256 borrowIndexPrior = borrowIndex;\n        //Short-circuit accumulating 0 interest\n        if (accrualBlockNumberPrior != currentBlockNumber) {\n            //Calculate the current borrow interest rate\n            uint256 borrowRateMantissa =\n                interestRateModel.getBorrowRate(\n                    cashPrior,\n                    borrowsPrior,\n                    reservesPrior\n                );\n            require(\n                borrowRateMantissa <= borrowRateMaxMantissa,\n                \"Borrow Rate too high\"\n            );\n\n            //Calculate the number of blocks elapsed since the last accrual\n            (MathError mathErr, uint256 blockDelta) =\n                subUInt(currentBlockNumber, accrualBlockNumberPrior);\n            //Calculate the interest accumulated into borrows and reserves and the new index:\n            Exp memory simpleInterestFactor;\n            uint256 interestAccumulated;\n            uint256 totalBorrowsNew;\n            uint256 totalReservesNew;\n            uint256 borrowIndexNew;\n            //simpleInterestFactor = borrowRate * blockDelta\n            (mathErr, simpleInterestFactor) = mulScalar(\n                Exp({mantissa: borrowRateMantissa}),\n                blockDelta\n            );\n            //interestAccumulated = simpleInterestFactor * totalBorrows\n            (mathErr, interestAccumulated) = mulScalarTruncate(\n                simpleInterestFactor,\n                borrowsPrior\n            );\n            //totalBorrowsNew = interestAccumulated + totalBorrows\n            (mathErr, totalBorrowsNew) = addUInt(\n                interestAccumulated,\n                borrowsPrior\n            );\n            //totalReservesNew = interestAccumulated * reserveFactor + totalReserves\n            (mathErr, totalReservesNew) = mulScalarTruncateAddUInt(\n                Exp({mantissa: reserveFactorMantissa}),\n                interestAccumulated,\n                reservesPrior\n            );\n            //borrowIndexNew = simpleInterestFactor * borrowIndex + borrowIndex\n            (mathErr, borrowIndexNew) = mulScalarTruncateAddUInt(\n                simpleInterestFactor,\n                borrowIndexPrior,\n                borrowIndexPrior\n            );\n            //Write the previously calculated values into storage\n            accrualBlockNumber = currentBlockNumber;\n            borrowIndex = borrowIndexNew;\n            totalBorrows = totalBorrowsNew;\n            totalReserves = totalReservesNew;\n\n            emit InterestAccrued(\n                accrualBlockNumber,\n                borrowIndex,\n                totalBorrows,\n                totalReserves\n            );\n        } else {\n            emit InterestAccrued(\n                accrualBlockNumber,\n                borrowIndex,\n                totalBorrows,\n                totalReserves\n            );\n        }\n    }\n\n    /**\n@notice Accrue interest to updated borrowIndex and then calculate account's borrow balance using the updated borrowIndex\n@param account The address whose balance should be calculated after updating borrowIndex\n@return The calculated balance\n**/\n    function borrowBalanceCurrent(address account) public returns (uint256) {\n        accrueInterest();\n        return borrowBalancePrior(account);\n    }\n\n    /**\n@notice Get a snapshot of the account's balances, and the cached exchange rate\n@dev This is used to perform liquidity checks.\n@param account Address of the account to snapshot\n@return (token balance, borrow balance, exchange rate mantissa)\n**/\n    function getAccountSnapshot(address account)\n        external\n        returns (\n            uint256,\n            uint256,\n            uint256\n        )\n    {\n        uint256 tokenBalance = balanceOf(account);\n        uint256 borrowBalance = borrowBalanceCurrent(account);\n        uint256 exchangeRateMantissa = exchangeRateCurrent();\n        return (tokenBalance, borrowBalance, exchangeRateMantissa);\n    }\n\n    /**\n@notice Returns the current total borrows plus accrued interest\n@return The total borrows with interest\n**/\n    function totalBorrowsCurrent() external returns (uint256) {\n        accrueInterest();\n        return totalBorrows;\n    }\n\n    /**\n@notice Accrue interest then return the up-to-date exchange rate\n@return Calculated exchange rate scaled by 1e18\n**/\n    function exchangeRateCurrent() public returns (uint256) {\n        accrueInterest();\n        if (totalSupply() == 0) {\n            //If there are no tokens minted: exchangeRate = initialExchangeRate\n            return initialExchangeRateMantissa;\n        } else {\n            //Otherwise: exchangeRate = (totalCash + totalBorrows - totalReserves) / totalSupply\n            uint256 totalCash = getCashPrior(); //get contract asset balance\n            uint256 cashPlusBorrowsMinusReserves;\n            Exp memory exchangeRate;\n            MathError mathErr;\n            //calculate total value held by contract plus owed to contract\n            (mathErr, cashPlusBorrowsMinusReserves) = addThenSubUInt(\n                totalCash,\n                totalBorrows,\n                totalReserves\n            );\n            //calculate exchange rate\n            (mathErr, exchangeRate) = getExp(\n                cashPlusBorrowsMinusReserves,\n                totalSupply()\n            );\n            return (exchangeRate.mantissa);\n        }\n    }\n\n    //struct used by mint to avoid stack too deep errors\n    struct MintLocalVars {\n        MathError mathErr;\n        uint256 exchangeRateMantissa;\n        uint256 mintTokens;\n    }\n\n    /**\n@notice mint is a modified function that only the owner of this contract(its MoneyMarketInstance) can call.\n        This function allows an amount of AskoRiskToken token to be minted when called.\n@param _account is the account the AHR is being minted to\n@param _amount is the amount of stablecoin being input\n**/\n    function mint(address _account, uint256 _amount) external onlyMMInstance {\n        //declare struct\n        MintLocalVars memory vars;\n        //retrieve exchange rate\n        vars.exchangeRateMantissa = exchangeRateCurrent();\n        //We get the current exchange rate and calculate the number of AHR to be minted:\n        //mintTokens = _amount / exchangeRate\n\n        (vars.mathErr, vars.mintTokens) = divScalarByExpTruncate(\n            _amount,\n            Exp({mantissa: vars.exchangeRateMantissa})\n        );\n        _mint(_account, vars.mintTokens);\n        emit Minted(_account, vars.mintTokens);\n    }\n\n    struct RedeemLocalVars {\n        MathError mathErr;\n        uint256 exchangeRateMantissa;\n        uint256 redeemAmount;\n    }\n\n    /**\n@notice redeem allows a user to redeem their AskoRiskToken for the appropriate amount of underlying asset\n@param _amount is the amount of Asset being requested in ART exhange\n**/\n    function redeem(uint256 _amount) external nonReentrant {\n        require(_amount != 0, \"amount cannot be zero\");\n\n        RedeemLocalVars memory vars;\n\n        //get exchange rate\n        vars.exchangeRateMantissa = exchangeRateCurrent();\n\n        if (isALR) {\n            uint256 USDCAmountOfAsset =\n                UOF.getUnderlyingAssetPriceOfwETH(address(asset), _amount);\n            require(\n                USDCAmountOfAsset <=\n                    MMF.checkAvailibleCollateralValue(\n                        msg.sender,\n                        address(this)\n                    ),\n                \"trying to redeem more than allowed\"\n            );\n        }\n\n        _burn(msg.sender, convertToART(_amount));\n        /**\nWe calculate the exchange rate and the amount of underlying to be redeemed:\nredeemAmount = _amount x exchangeRateCurrent\n*/\n        (vars.mathErr, vars.redeemAmount) = divScalarByExpTruncate(\n            _amount,\n            Exp({mantissa: vars.exchangeRateMantissa})\n        );\n        //Fail if protocol has insufficient cash\n        require(\n            getCashPrior() >= vars.redeemAmount,\n            \"Protocol has insufficient funds for redeem\"\n        );\n        //transfer the calculated amount of underlying asset to the msg.sender\n        asset.transfer(msg.sender, vars.redeemAmount);\n        emit Redeemed(msg.sender, _amount, vars.redeemAmount);\n    }\n\n    /**\n@notice burn is a modified function that only the MoneyMarket Control can call.\n        This function allows an amount of AskoRiskToken token to be burned from an address when called.\n@param _account is the account the AHR is being burned from\n@param _amount is the wETH amount of AHR being burned\n**/\n    function burn(address _account, uint256 _amount) external {\n      require(\n          msg.sender == address(MMF),\n          \"msg.sender is not the Money Market Control contract\"\n      );\n        uint assetAmount = UOF.getUnderlyingAssetPriceOfwETH(address(asset), _amount);\n        uint artAmount = convertToART(assetAmount);\n        _burn(_account, artAmount);\n        emit Burn(_account, artAmount);\n    }\n\n/**\n@notice mintCollat allows the MoneyMarketControl to mint a users ALR back to them when their collateral is decolateralized\n@param _account is the account receiving the ALR back\n@param _amount is the wETH value of the ALR being returned\n**/\n    function mintCollat(address _account, uint256 _amount) external {\n      require(\n          msg.sender == address(MMF),\n          \"msg.sender is not the Money Market Control contract\"\n      );\n        uint assetAmount = UOF.getUnderlyingAssetPriceOfwETH(address(asset), _amount);\n        uint artAmount = convertToART(assetAmount);\n        _mint(_account, artAmount);\n        emit Burn(_account, artAmount);\n    }\n\n    //struct used by borrow function to avoid stack too deep errors\n    struct BorrowLocalVars {\n        MathError mathErr;\n        uint256 accountBorrows;\n        uint256 accountBorrowsNew;\n        uint256 totalBorrowsNew;\n    }\n\n    /**\n@notice Sender borrows assets from the protocol to their own address\n@param _borrowAmount The amount of the underlying asset to borrow\n*/\n    function borrow(uint256 _borrowAmount, address _borrower)\n        external\n        nonReentrant\n        onlyMMInstance\n    {\n        //Fail if protocol has insufficient underlying cash\n        require(getCashPrior() > _borrowAmount, \"not enough token to borrow\");\n        //create local vars storage\n        BorrowLocalVars memory vars;\n        //calculate the new borrower and total borrow balances, failing on overflow:\n        vars.accountBorrows = borrowBalanceCurrent(_borrower);\n        //accountBorrowsNew = accountBorrows + borrowAmount\n        (vars.mathErr, vars.accountBorrowsNew) = addUInt(\n            vars.accountBorrows,\n            _borrowAmount\n        );\n        //totalBorrowsNew = totalBorrows + borrowAmount\n        (vars.mathErr, vars.totalBorrowsNew) = addUInt(\n            totalBorrows,\n            _borrowAmount\n        );\n        //We write the previously calculated values into storage\n        accountBorrows[_borrower].principal = vars.accountBorrowsNew;\n        accountBorrows[_borrower].interestIndex = borrowIndex;\n        totalBorrows = vars.totalBorrowsNew;\n        //send them their loaned asset\n        asset.transfer(_borrower, _borrowAmount);\n        emit Borrowed(_borrower, _borrowAmount);\n    }\n\n    struct RepayBorrowLocalVars {\n        MathError mathErr;\n        uint256 repayAmount;\n        uint256 borrowerIndex;\n        uint256 accountBorrows;\n        uint256 accountBorrowsNew;\n        uint256 totalBorrowsNew;\n    }\n\n    /**\n@notice Sender repays their own borrow\n@param repayAmount The amount to repay\n@param borrower is the address of the borrowing account\n*/\n    function repayBorrow(uint256 repayAmount, address borrower)\n        external\n        onlyMMInstance\n        returns (uint256)\n    {\n        //create local vars storage\n        RepayBorrowLocalVars memory vars;\n        //We fetch the amount the borrower owes, with accumulated interest\n        vars.accountBorrows = borrowBalanceCurrent(borrower);\n        //We remember the original borrowerIndex for verification purposes\n        vars.borrowerIndex = accountBorrows[borrower].interestIndex;\n        //If repayAmount == 0, repayAmount = accountBorrows\n\n        if (repayAmount == 0) {\n            vars.repayAmount = vars.accountBorrows;\n        } else {\n            vars.repayAmount = repayAmount;\n        }\n\n        //We calculate the new borrower and total borrow balances\n\n        //accountBorrowsNew = accountBorrows - actualRepayAmount\n        (vars.mathErr, vars.accountBorrowsNew) = subUInt(\n            vars.accountBorrows,\n            vars.repayAmount\n        );\n        //totalBorrowsNew = totalBorrows - actualRepayAmount\n        (vars.mathErr, vars.totalBorrowsNew) = subUInt(\n            totalBorrows,\n            vars.repayAmount\n        );\n        /* We write the previously calculated values into storage */\n        accountBorrows[borrower].principal = vars.accountBorrowsNew;\n        accountBorrows[borrower].interestIndex = vars.borrowerIndex;\n        totalBorrows = vars.totalBorrowsNew;\n        emit Repayed(borrower, vars.repayAmount);\n        return vars.repayAmount;\n    }\n\n    /**\n@notice getwETHWorthOfART is used to calculate the current wETH price of the input amount of Asko Risk Token\n@param _amount is the amount ART being looked up\n**/\n    function getwETHWorthOfART(uint256 _amount) public returns (uint256) {\n        uint256 assetValOfArt = convertFromART(_amount);\n        //get asset price of wETH\n        uint256 wETHAmountOfAsset =\n            UOF.getUnderlyingPriceofAsset(address(asset), assetValOfArt);\n\n        return wETHAmountOfAsset;\n    }\n\n    /**\n@notice convertToART is used to convert an input amount of asset into the current ART value\n@param _amountOfAsset is the amount of asset being input\n**/\n    function convertToART(uint256 _amountOfAsset) public returns (uint256) {\n        //We get the current exchange rate and calculate the number of AHR to be minted:\n        //mintTokens = _amount / exchangeRate\n        MathError mathErr;\n        uint256 artTokens;\n        (mathErr, artTokens) = divScalarByExpTruncate(\n            _amountOfAsset,\n            Exp({mantissa: exchangeRateCurrent()})\n        );\n        return artTokens;\n    }\n\n    /**\n@notice convertFromART converts an input amount of ART to the current value in the underlying asset\n@param _amountOfART is the amount of ART being converted\n**/\n    function convertFromART(uint256 _amountOfART) public returns (uint256) {\n        //We get the current exchange rate and calculate the number of AHR to be minted:\n        //mintTokens = _amount / exchangeRate\n        MathError mathErr;\n        uint256 artTokens;\n        (mathErr, artTokens) = mulScalarTruncate(\n            Exp({mantissa: exchangeRateCurrent()}),\n            _amountOfART\n        );\n        return artTokens;\n    }\n\n    /**\n    @notice _updateInterestModel is used to update the interest rate model of this ART\n    @param _newModel is the address of the new interest rate model\n    **/\n    function _updateInterestModel(address _newModel) external onlyOwner {\n        interestRateModel = InterestRateModel(_newModel);\n    }\n\n    /**\n    @notice setReserveRatio allows the reserve ratio to be updated\n    @param _RR is the new reserve ratio\n    **/\n    function setReserveRatio(uint256 _RR) external onlyOwner {\n        reserveFactorMantissa = _RR;\n    }\n\n    /**\n@notice _liquidate is called by the Money Market Control contract during liquidation\n@param _liquidateValue is the USDC value being liquidated\n@param _liquidator is the address of the liquidator account\n**/\n    function _liquidate(\n        uint256 _liquidateValue,\n        address _liquidator,\n        address _asset\n    ) external nonReentrant {\n        //require that this function can only be called by control contract\n        require(\n            msg.sender == address(MMF),\n            \"msg.sender is not the Money Market Control contract\"\n        );\n        //get asset amount of the input wETH price\n        uint256 assetVal =\n            UOF.getUnderlyingAssetPriceOfwETH(address(asset), _liquidateValue);\n\n        uint256 deadline = block.timestamp + 240;\n\n          uniswapRouter.swapExactTokensForTokens(\n            assetVal,\n            0,\n             UOF.getPathForERC20Swap(address(asset), _asset),\n            _liquidator,\n            deadline\n        );\n\n    }\n\n    /**\n@notice _withdrawFee allows the MoneyMarketInstance to withdraw the fee revenue from the\n        ARTs reserves\n**/\n    function _withdrawFee(address _targetAdd)\n        external\n        onlyOwner\n        nonReentrant\n    {\n        asset.transfer(_targetAdd, totalReserves);\n        totalReserves = 0;\n    }\n\n    //////////////View Functions/////////////////////////\n    /**\n    @notice Get the underlying balance of the `owners`\n    @param owner The address of the account to query\n    @return The amount of underlying owned by `owner`\n    **/\n    function balanceOfUnderlyingPrior(address owner)\n        external\n        view\n        returns (uint256)\n    {\n        Exp memory exchangeRate = Exp({mantissa: exchangeRatePrior()});\n        (MathError mErr, uint256 balance) =\n            mulScalarTruncate(exchangeRate, balanceOf(owner));\n        require(\n            mErr == MathError.NO_ERROR,\n            \"Math Error in balance of underlying\"\n        );\n        return balance;\n    }\n\n    /**\n    @notice getCashPrior is a view funcion that returns and ART's balance of its underlying asset\n    **/\n    function getCashPrior() internal view returns (uint256) {\n        return asset.balanceOf(address(this));\n    }\n\n    /**\n    @notice convertFromART converts an input amount of ART to the prior value in the underlying asset\n    @param _amountOfART is the amount of ART being converted\n    **/\n    function viewConvertFromART(uint256 _amountOfART)\n        public\n        view\n        returns (uint256)\n    {\n        //We get the current exchange rate and calculate the number of AHR to be minted:\n        //mintTokens = _amount / exchangeRate\n        MathError mathErr;\n        uint256 artTokens;\n        (mathErr, artTokens) = mulScalarTruncate(\n            Exp({mantissa: exchangeRatePrior()}),\n            _amountOfART\n        );\n        return artTokens;\n    }\n\n    /**\n    @notice convertToART is used to convert an input amount of asset into the prior ART value\n    @param _amountOfAsset is the amount of asset being input\n    **/\n    function viewConvertToART(uint256 _amountOfAsset)\n        external\n        view\n        returns (uint256)\n    {\n        //We get the current exchange rate and calculate the number of AHR to be minted:\n        //mintTokens = _amount / exchangeRate\n        MathError mathErr;\n        uint256 artTokens;\n        (mathErr, artTokens) = divScalarByExpTruncate(\n            _amountOfAsset,\n            Exp({mantissa: exchangeRatePrior()})\n        );\n        return artTokens;\n    }\n\n    /**\n    @notice viewwETHWorthOfART is used to calculate the prior wETH price of the input amount of Asko Risk Token\n    @param _amount is the amount ART being looked up\n    **/\n    function viewwETHWorthOfART(uint256 _amount)\n        external\n        view\n        returns (uint256)\n    {\n        uint256 assetValOfArt = viewConvertFromART(_amount);\n        //get asset price of wETH\n        uint256 wETHAmountOfAsset =\n            UOF.viewUnderlyingPriceofAsset(address(asset), assetValOfArt);\n        //return one ART USD value\n        return wETHAmountOfAsset;\n    }\n\n    /**\n    @notice getAssetAdd allows for easy retrieval of a Money Markets underlying asset's address\n    **/\n    function getAssetAdd() external view returns (address) {\n        return address(asset);\n    }\n\n    /**\n    @notice Get cash balance of this cToken in the underlying asset in other contracts\n    @return The quantity of underlying asset owned by this contract\n    **/\n    function getCash() external view returns (uint256) {\n        return getCashPrior();\n    }\n\n    /**\n    @notice return prior exchange rate for front end viewing\n    @return Calculated exchange rate scaled by 1e18\n    **/\n    function exchangeRatePrior() public view returns (uint256) {\n        if (totalSupply() == 0) {\n            //If there are no tokens minted: exchangeRate = initialExchangeRate\n            return initialExchangeRateMantissa;\n        } else {\n            //Otherwise: exchangeRate = (totalCash + totalBorrows - totalReserves) / totalSupply\n            uint256 totalCash = getCashPrior(); //get contract asset balance\n            uint256 cashPlusBorrowsMinusReserves;\n            Exp memory exchangeRate;\n            MathError mathErr;\n            //calculate total value held by contract plus owed to contract\n            (mathErr, cashPlusBorrowsMinusReserves) = addThenSubUInt(\n                totalCash,\n                totalBorrows,\n                totalReserves\n            );\n            //calculate exchange rate\n            (mathErr, exchangeRate) = getExp(\n                cashPlusBorrowsMinusReserves,\n                totalSupply()\n            );\n            return (exchangeRate.mantissa);\n        }\n    }\n\n    /**\n    @notice getSupplyAPY roughly calculates the current APY for supplying using an average of 6500 blocks per day\n    **/\n    function getSupplyAPY() external view returns (uint256) {\n        //multiply rate per block by blocks per year with an average of 6500 blocks a day per https://ycharts.com/indicators/ethereum_blocks_per_day\n        return supplyRatePerBlock().mul(2372500);\n    }\n\n    /**\n    @notice getBorrowAPY roughly calculates the current APY for borrowing using an average of 6500 blocks per day\n    **/\n    function getBorrowAPY() external view returns (uint256) {\n        //multiply rate per block by blocks per year with an average of 6500 blocks a day per https://ycharts.com/indicators/ethereum_blocks_per_day\n        return borrowRatePerBlock().mul(2372500);\n    }\n\n    /**\n    @notice Returns the current per-block borrow interest rate for this ART\n    @return The borrow interest rate per block, scaled by 1e18\n    **/\n    function borrowRatePerBlock() public view returns (uint256) {\n        return\n            interestRateModel.getBorrowRate(\n                getCashPrior(),\n                totalBorrows,\n                totalReserves\n            );\n    }\n\n    /**\n    @notice Returns the current per-block supply interest rate for this ART\n    @return The supply interest rate per block, scaled by 1e18\n    **/\n    function supplyRatePerBlock() public view returns (uint256) {\n        return\n            interestRateModel.getSupplyRate(\n                getCashPrior(),\n                totalBorrows,\n                totalReserves,\n                reserveFactorMantissa\n            );\n    }\n\n    /**\n    @notice getBlockNumber allows for easy retrieval of block number\n    **/\n    function getBlockNumber() internal view returns (uint256) {\n        return block.number;\n    }\n\n    /**\n    @notice returns last calculated account's borrow balance using the prior borrowIndex\n    @param account The address whose balance should be calculated after updating borrowIndex\n    @return The calculated balance\n    **/\n    function borrowBalancePrior(address account) public view returns (uint256) {\n        MathError mathErr;\n        uint256 principalTimesIndex;\n        uint256 result;\n\n        //Get borrowBalance and borrowIndex\n        BorrowSnapshot storage borrowSnapshot = accountBorrows[account];\n\n        //If borrowBalance = 0 then borrowIndex is likely also 0.\n        //Rather than failing the calculation with a division by 0, we immediately return 0 in this case.\n        if (borrowSnapshot.principal == 0) {\n            return (0);\n        }\n\n        //Calculate new borrow balance using the interest index:\n        //recentBorrowBalance = borrower.borrowBalance * market.borrowIndex / borrower.borrowIndex\n        (mathErr, principalTimesIndex) = mulUInt(\n            borrowSnapshot.principal,\n            borrowIndex\n        );\n        if (mathErr != MathError.NO_ERROR) {\n            return (0);\n        }\n\n        (mathErr, result) = divUInt(\n            principalTimesIndex,\n            borrowSnapshot.interestIndex\n        );\n        if (mathErr != MathError.NO_ERROR) {\n            return (0);\n        }\n\n        return (result);\n    }\n}\n",
  "sourcePath": "/home/stan36/repos/Askolend/AskoLend-contracts/contracts/AskoRiskToken.sol",
  "compiler": {
    "name": "solc",
    "version": "0.6.6+commit.6c089d02.Emscripten.clang"
  },
  "schemaVersion": "3.3.2",
  "updatedAt": "2021-02-11T06:01:39.687Z",
  "devdoc": {
    "methods": {
      "_liquidate(uint256,address,address)": {
        "params": {
          "_liquidateValue": "is the USDC value being liquidated",
          "_liquidator": "is the address of the liquidator account*"
        }
      },
      "_updateInterestModel(address)": {
        "params": {
          "_newModel": "is the address of the new interest rate model*"
        }
      },
      "accrueInterest()": {
        "details": "This calculates interest accrued from the last checkpointed block up to the current block and writes new checkpoint to storage.*"
      },
      "allowance(address,address)": {
        "details": "See {IERC20-allowance}."
      },
      "approve(address,uint256)": {
        "details": "See {IERC20-approve}.     * Requirements:     * - `spender` cannot be the zero address."
      },
      "balanceOf(address)": {
        "details": "See {IERC20-balanceOf}."
      },
      "balanceOfUnderlying(address)": {
        "params": {
          "owner": "The address of the account to query"
        },
        "returns": {
          "_0": "The amount of underlying owned by `owner`"
        }
      },
      "balanceOfUnderlyingPrior(address)": {
        "params": {
          "owner": "The address of the account to query"
        },
        "returns": {
          "_0": "The amount of underlying owned by `owner`*"
        }
      },
      "borrow(uint256,address)": {
        "params": {
          "_borrowAmount": "The amount of the underlying asset to borrow"
        }
      },
      "borrowBalanceCurrent(address)": {
        "params": {
          "account": "The address whose balance should be calculated after updating borrowIndex"
        },
        "returns": {
          "_0": "The calculated balance*"
        }
      },
      "borrowBalancePrior(address)": {
        "params": {
          "account": "The address whose balance should be calculated after updating borrowIndex"
        },
        "returns": {
          "_0": "The calculated balance*"
        }
      },
      "burn(address,uint256)": {
        "params": {
          "_account": "is the account the AHR is being burned from",
          "_amount": "is the wETH amount of AHR being burned*"
        }
      },
      "constructor": {
        "details": "these two perameters become hyphenated with \"AHR\" during this process( e.x: AHR-wBitcoin, AHR-wBTC)*",
        "params": {
          "_asset": "is the address of the underlying asset for a specific ART contract",
          "_initialExchangeRate": "is the initial exchange rate mantissa for a specific ART",
          "_interestRateModel": "is the address of the  interest rate model for a specific ART",
          "_isALR": "signifies whether or not a specific AskoRiskToken instance is a high risk or low risk token.",
          "_oracleFactory": "is teh address of the uniswap oracle factory contract",
          "_tokenName": "is the name of the asset the MoneyMarketInstance that owns this contract represents",
          "_tokenSymbol": "is the symbol of the asset the MoneyMarketInstance that owns this contract represents"
        }
      },
      "convertFromART(uint256)": {
        "params": {
          "_amountOfART": "is the amount of ART being converted*"
        }
      },
      "convertToART(uint256)": {
        "params": {
          "_amountOfAsset": "is the amount of asset being input*"
        }
      },
      "decimals()": {
        "details": "Returns the number of decimals used to get its user representation. For example, if `decimals` equals `2`, a balance of `505` tokens should be displayed to a user as `5,05` (`505 / 10 ** 2`).     * Tokens usually opt for a value of 18, imitating the relationship between Ether and Wei. This is the value {ERC20} uses, unless {_setupDecimals} is called.     * NOTE: This information is only used for _display_ purposes: it in no way affects any of the arithmetic of the contract, including {IERC20-balanceOf} and {IERC20-transfer}."
      },
      "decreaseAllowance(address,uint256)": {
        "details": "Atomically decreases the allowance granted to `spender` by the caller.     * This is an alternative to {approve} that can be used as a mitigation for problems described in {IERC20-approve}.     * Emits an {Approval} event indicating the updated allowance.     * Requirements:     * - `spender` cannot be the zero address. - `spender` must have allowance for the caller of at least `subtractedValue`."
      },
      "getAccountSnapshot(address)": {
        "details": "This is used to perform liquidity checks.",
        "params": {
          "account": "Address of the account to snapshot"
        },
        "returns": {
          "_0": "(token balance, borrow balance, exchange rate mantissa)*"
        }
      },
      "getwETHWorthOfART(uint256)": {
        "params": {
          "_amount": "is the amount ART being looked up*"
        }
      },
      "increaseAllowance(address,uint256)": {
        "details": "Atomically increases the allowance granted to `spender` by the caller.     * This is an alternative to {approve} that can be used as a mitigation for problems described in {IERC20-approve}.     * Emits an {Approval} event indicating the updated allowance.     * Requirements:     * - `spender` cannot be the zero address."
      },
      "mint(address,uint256)": {
        "params": {
          "_account": "is the account the AHR is being minted to",
          "_amount": "is the amount of stablecoin being input*"
        }
      },
      "mintCollat(address,uint256)": {
        "params": {
          "_account": "is the account receiving the ALR back",
          "_amount": "is the wETH value of the ALR being returned*"
        }
      },
      "name()": {
        "details": "Returns the name of the token."
      },
      "owner()": {
        "details": "Returns the address of the current owner."
      },
      "redeem(uint256)": {
        "params": {
          "_amount": "is the amount of Asset being requested in ART exhange*"
        }
      },
      "renounceOwnership()": {
        "details": "Leaves the contract without owner. It will not be possible to call `onlyOwner` functions anymore. Can only be called by the current owner.     * NOTE: Renouncing ownership will leave the contract without an owner, thereby removing any functionality that is only available to the owner."
      },
      "repayBorrow(uint256,address)": {
        "params": {
          "borrower": "is the address of the borrowing account",
          "repayAmount": "The amount to repay"
        }
      },
      "setReserveRatio(uint256)": {
        "params": {
          "_RR": "is the new reserve ratio*"
        }
      },
      "symbol()": {
        "details": "Returns the symbol of the token, usually a shorter version of the name."
      },
      "totalSupply()": {
        "details": "See {IERC20-totalSupply}."
      },
      "transferFrom(address,address,uint256)": {
        "details": "See {IERC20-transferFrom}.     * Emits an {Approval} event indicating the updated allowance. This is not required by the EIP. See the note at the beginning of {ERC20}.     * Requirements:     * - `sender` and `recipient` cannot be the zero address. - `sender` must have a balance of at least `amount`. - the caller must have allowance for ``sender``'s tokens of at least `amount`."
      },
      "transferOwnership(address)": {
        "details": "Transfers ownership of the contract to a new account (`newOwner`). Can only be called by the current owner."
      },
      "viewConvertFromART(uint256)": {
        "params": {
          "_amountOfART": "is the amount of ART being converted*"
        }
      },
      "viewConvertToART(uint256)": {
        "params": {
          "_amountOfAsset": "is the amount of asset being input*"
        }
      },
      "viewwETHWorthOfART(uint256)": {
        "params": {
          "_amount": "is the amount ART being looked up*"
        }
      }
    }
  },
  "userdoc": {
    "methods": {
      "_liquidate(uint256,address,address)": {
        "notice": "_liquidate is called by the Money Market Control contract during liquidation"
      },
      "_updateInterestModel(address)": {
        "notice": "_updateInterestModel is used to update the interest rate model of this ART"
      },
      "_withdrawFee(address)": {
        "notice": "_withdrawFee allows the MoneyMarketInstance to withdraw the fee revenue from the ARTs reserves*"
      },
      "accrueInterest()": {
        "notice": "Applies accrued interest to total borrows and reserves"
      },
      "balanceOfUnderlying(address)": {
        "notice": "Get the underlying balance of the `owners`"
      },
      "balanceOfUnderlyingPrior(address)": {
        "notice": "Get the underlying balance of the `owners`"
      },
      "borrow(uint256,address)": {
        "notice": "Sender borrows assets from the protocol to their own address"
      },
      "borrowBalanceCurrent(address)": {
        "notice": "Accrue interest to updated borrowIndex and then calculate account's borrow balance using the updated borrowIndex"
      },
      "borrowBalancePrior(address)": {
        "notice": "returns last calculated account's borrow balance using the prior borrowIndex"
      },
      "borrowRatePerBlock()": {
        "notice": "Returns the current per-block borrow interest rate for this ART"
      },
      "burn(address,uint256)": {
        "notice": "burn is a modified function that only the MoneyMarket Control can call. This function allows an amount of AskoRiskToken token to be burned from an address when called."
      },
      "constructor": "the constructor function is fired during the contract deployment process. The constructor can only be fired once and is used to set up the name, symbol, and decimal variables for the AskoRiskToken contract.",
      "convertFromART(uint256)": {
        "notice": "convertFromART converts an input amount of ART to the current value in the underlying asset"
      },
      "convertToART(uint256)": {
        "notice": "convertToART is used to convert an input amount of asset into the current ART value"
      },
      "exchangeRateCurrent()": {
        "notice": "Accrue interest then return the up-to-date exchange rate"
      },
      "exchangeRatePrior()": {
        "notice": "return prior exchange rate for front end viewing"
      },
      "getAccountSnapshot(address)": {
        "notice": "Get a snapshot of the account's balances, and the cached exchange rate"
      },
      "getAssetAdd()": {
        "notice": "getAssetAdd allows for easy retrieval of a Money Markets underlying asset's address*"
      },
      "getBorrowAPY()": {
        "notice": "getBorrowAPY roughly calculates the current APY for borrowing using an average of 6500 blocks per day*"
      },
      "getCash()": {
        "notice": "Get cash balance of this cToken in the underlying asset in other contracts"
      },
      "getSupplyAPY()": {
        "notice": "getSupplyAPY roughly calculates the current APY for supplying using an average of 6500 blocks per day*"
      },
      "getwETHWorthOfART(uint256)": {
        "notice": "getwETHWorthOfART is used to calculate the current wETH price of the input amount of Asko Risk Token"
      },
      "mint(address,uint256)": {
        "notice": "mint is a modified function that only the owner of this contract(its MoneyMarketInstance) can call. This function allows an amount of AskoRiskToken token to be minted when called."
      },
      "mintCollat(address,uint256)": {
        "notice": "mintCollat allows the MoneyMarketControl to mint a users ALR back to them when their collateral is decolateralized"
      },
      "redeem(uint256)": {
        "notice": "redeem allows a user to redeem their AskoRiskToken for the appropriate amount of underlying asset"
      },
      "repayBorrow(uint256,address)": {
        "notice": "Sender repays their own borrow"
      },
      "setReserveRatio(uint256)": {
        "notice": "setReserveRatio allows the reserve ratio to be updated"
      },
      "supplyRatePerBlock()": {
        "notice": "Returns the current per-block supply interest rate for this ART"
      },
      "totalBorrowsCurrent()": {
        "notice": "Returns the current total borrows plus accrued interest"
      },
      "transfer(address,uint256)": {
        "notice": "transfer is an override function that effectively makes transferring a ART impossible. This is necessary to avoid a user taking out a loan using his ALR as collateral and then transferring his ALR so his loan cant be liquidated.*"
      },
      "viewConvertFromART(uint256)": {
        "notice": "convertFromART converts an input amount of ART to the prior value in the underlying asset"
      },
      "viewConvertToART(uint256)": {
        "notice": "convertToART is used to convert an input amount of asset into the prior ART value"
      },
      "viewwETHWorthOfART(uint256)": {
        "notice": "viewwETHWorthOfART is used to calculate the prior wETH price of the input amount of Asko Risk Token"
      }
    },
    "notice": "The AskoRiskToken contract is an ERC20 contract designed to be owned by a MoneyMarketInstance contract. This contract's token represents a Risk lending pool in a MoneyMarketInstance contract. This contract uses the OpenZeppelin contract Library to inherit functions from Ownable.sol && ERC20.sol*"
  }
}