{
  "contractName": "AskoRiskToken",
  "abi": [
    {
      "inputs": [
        {
          "internalType": "address",
          "name": "_interestRateModel",
          "type": "address"
        },
        {
          "internalType": "address",
          "name": "_asset",
          "type": "address"
        },
        {
          "internalType": "address",
          "name": "_oracleFactory",
          "type": "address"
        },
        {
          "internalType": "address",
          "name": "_MoneyMarketControl",
          "type": "address"
        },
        {
          "internalType": "address",
          "name": "_MoneyMarketInstance",
          "type": "address"
        },
        {
          "internalType": "string",
          "name": "_tokenName",
          "type": "string"
        },
        {
          "internalType": "string",
          "name": "_tokenSymbol",
          "type": "string"
        },
        {
          "internalType": "bool",
          "name": "_isALR",
          "type": "bool"
        },
        {
          "internalType": "uint256",
          "name": "_initialExchangeRate",
          "type": "uint256"
        }
      ],
      "stateMutability": "nonpayable",
      "type": "constructor"
    },
    {
      "anonymous": false,
      "inputs": [
        {
          "indexed": false,
          "internalType": "address",
          "name": "borrower",
          "type": "address"
        },
        {
          "indexed": false,
          "internalType": "address",
          "name": "liquidator",
          "type": "address"
        },
        {
          "indexed": false,
          "internalType": "uint256",
          "name": "amountRepayed",
          "type": "uint256"
        },
        {
          "indexed": false,
          "internalType": "address",
          "name": "ARTowed",
          "type": "address"
        },
        {
          "indexed": false,
          "internalType": "address",
          "name": "ARTcollateral",
          "type": "address"
        }
      ],
      "name": "Accountliquidated",
      "type": "event"
    },
    {
      "anonymous": false,
      "inputs": [
        {
          "indexed": true,
          "internalType": "address",
          "name": "owner",
          "type": "address"
        },
        {
          "indexed": true,
          "internalType": "address",
          "name": "spender",
          "type": "address"
        },
        {
          "indexed": false,
          "internalType": "uint256",
          "name": "value",
          "type": "uint256"
        }
      ],
      "name": "Approval",
      "type": "event"
    },
    {
      "anonymous": false,
      "inputs": [
        {
          "indexed": false,
          "internalType": "address",
          "name": "borrower",
          "type": "address"
        },
        {
          "indexed": false,
          "internalType": "uint256",
          "name": "amountBorrowed",
          "type": "uint256"
        }
      ],
      "name": "Borrowed",
      "type": "event"
    },
    {
      "anonymous": false,
      "inputs": [
        {
          "indexed": false,
          "internalType": "address",
          "name": "account",
          "type": "address"
        },
        {
          "indexed": false,
          "internalType": "uint256",
          "name": "amount",
          "type": "uint256"
        }
      ],
      "name": "Burn",
      "type": "event"
    },
    {
      "anonymous": false,
      "inputs": [
        {
          "indexed": false,
          "internalType": "uint256",
          "name": "accrualBlockNumber",
          "type": "uint256"
        },
        {
          "indexed": false,
          "internalType": "uint256",
          "name": "borrowIndex",
          "type": "uint256"
        },
        {
          "indexed": false,
          "internalType": "uint256",
          "name": "totalBorrows",
          "type": "uint256"
        },
        {
          "indexed": false,
          "internalType": "uint256",
          "name": "totalReserves",
          "type": "uint256"
        }
      ],
      "name": "InterestAccrued",
      "type": "event"
    },
    {
      "anonymous": false,
      "inputs": [
        {
          "indexed": false,
          "internalType": "address",
          "name": "lender",
          "type": "address"
        },
        {
          "indexed": false,
          "internalType": "uint256",
          "name": "amountMinted",
          "type": "uint256"
        }
      ],
      "name": "Minted",
      "type": "event"
    },
    {
      "anonymous": false,
      "inputs": [
        {
          "indexed": false,
          "internalType": "address",
          "name": "borrower",
          "type": "address"
        }
      ],
      "name": "NonCompliantTimerReset",
      "type": "event"
    },
    {
      "anonymous": false,
      "inputs": [
        {
          "indexed": false,
          "internalType": "address",
          "name": "borrower",
          "type": "address"
        }
      ],
      "name": "NonCompliantTimerStart",
      "type": "event"
    },
    {
      "anonymous": false,
      "inputs": [
        {
          "indexed": true,
          "internalType": "address",
          "name": "previousOwner",
          "type": "address"
        },
        {
          "indexed": true,
          "internalType": "address",
          "name": "newOwner",
          "type": "address"
        }
      ],
      "name": "OwnershipTransferred",
      "type": "event"
    },
    {
      "anonymous": false,
      "inputs": [
        {
          "indexed": false,
          "internalType": "address",
          "name": "redeemer",
          "type": "address"
        },
        {
          "indexed": false,
          "internalType": "uint256",
          "name": "amountART",
          "type": "uint256"
        },
        {
          "indexed": false,
          "internalType": "uint256",
          "name": "assetAmountRedeemed",
          "type": "uint256"
        }
      ],
      "name": "Redeemed",
      "type": "event"
    },
    {
      "anonymous": false,
      "inputs": [
        {
          "indexed": false,
          "internalType": "address",
          "name": "borrower",
          "type": "address"
        },
        {
          "indexed": false,
          "internalType": "uint256",
          "name": "amountRepayed",
          "type": "uint256"
        }
      ],
      "name": "Repayed",
      "type": "event"
    },
    {
      "anonymous": false,
      "inputs": [
        {
          "indexed": true,
          "internalType": "address",
          "name": "from",
          "type": "address"
        },
        {
          "indexed": true,
          "internalType": "address",
          "name": "to",
          "type": "address"
        },
        {
          "indexed": false,
          "internalType": "uint256",
          "name": "value",
          "type": "uint256"
        }
      ],
      "name": "Transfer",
      "type": "event"
    },
    {
      "inputs": [],
      "name": "MMF",
      "outputs": [
        {
          "internalType": "contract MoneyMarketFactoryI",
          "name": "",
          "type": "address"
        }
      ],
      "stateMutability": "view",
      "type": "function"
    },
    {
      "inputs": [],
      "name": "MMI",
      "outputs": [
        {
          "internalType": "contract MoneyMarketInstanceI",
          "name": "",
          "type": "address"
        }
      ],
      "stateMutability": "view",
      "type": "function"
    },
    {
      "inputs": [],
      "name": "UOF",
      "outputs": [
        {
          "internalType": "contract UniswapOracleFactoryI",
          "name": "",
          "type": "address"
        }
      ],
      "stateMutability": "view",
      "type": "function"
    },
    {
      "inputs": [],
      "name": "accrualBlockNumber",
      "outputs": [
        {
          "internalType": "uint256",
          "name": "",
          "type": "uint256"
        }
      ],
      "stateMutability": "view",
      "type": "function"
    },
    {
      "inputs": [
        {
          "internalType": "address",
          "name": "owner",
          "type": "address"
        },
        {
          "internalType": "address",
          "name": "spender",
          "type": "address"
        }
      ],
      "name": "allowance",
      "outputs": [
        {
          "internalType": "uint256",
          "name": "",
          "type": "uint256"
        }
      ],
      "stateMutability": "view",
      "type": "function"
    },
    {
      "inputs": [
        {
          "internalType": "address",
          "name": "spender",
          "type": "address"
        },
        {
          "internalType": "uint256",
          "name": "amount",
          "type": "uint256"
        }
      ],
      "name": "approve",
      "outputs": [
        {
          "internalType": "bool",
          "name": "",
          "type": "bool"
        }
      ],
      "stateMutability": "nonpayable",
      "type": "function"
    },
    {
      "inputs": [],
      "name": "asset",
      "outputs": [
        {
          "internalType": "contract IERC20",
          "name": "",
          "type": "address"
        }
      ],
      "stateMutability": "view",
      "type": "function"
    },
    {
      "inputs": [
        {
          "internalType": "address",
          "name": "account",
          "type": "address"
        }
      ],
      "name": "balanceOf",
      "outputs": [
        {
          "internalType": "uint256",
          "name": "",
          "type": "uint256"
        }
      ],
      "stateMutability": "view",
      "type": "function"
    },
    {
      "inputs": [],
      "name": "borrowIndex",
      "outputs": [
        {
          "internalType": "uint256",
          "name": "",
          "type": "uint256"
        }
      ],
      "stateMutability": "view",
      "type": "function"
    },
    {
      "inputs": [],
      "name": "borrowRateMaxMantissa",
      "outputs": [
        {
          "internalType": "uint256",
          "name": "",
          "type": "uint256"
        }
      ],
      "stateMutability": "view",
      "type": "function"
    },
    {
      "inputs": [],
      "name": "decimals",
      "outputs": [
        {
          "internalType": "uint8",
          "name": "",
          "type": "uint8"
        }
      ],
      "stateMutability": "view",
      "type": "function"
    },
    {
      "inputs": [
        {
          "internalType": "address",
          "name": "spender",
          "type": "address"
        },
        {
          "internalType": "uint256",
          "name": "subtractedValue",
          "type": "uint256"
        }
      ],
      "name": "decreaseAllowance",
      "outputs": [
        {
          "internalType": "bool",
          "name": "",
          "type": "bool"
        }
      ],
      "stateMutability": "nonpayable",
      "type": "function"
    },
    {
      "inputs": [
        {
          "internalType": "address",
          "name": "spender",
          "type": "address"
        },
        {
          "internalType": "uint256",
          "name": "addedValue",
          "type": "uint256"
        }
      ],
      "name": "increaseAllowance",
      "outputs": [
        {
          "internalType": "bool",
          "name": "",
          "type": "bool"
        }
      ],
      "stateMutability": "nonpayable",
      "type": "function"
    },
    {
      "inputs": [],
      "name": "interestRateModel",
      "outputs": [
        {
          "internalType": "contract InterestRateModel",
          "name": "",
          "type": "address"
        }
      ],
      "stateMutability": "view",
      "type": "function"
    },
    {
      "inputs": [],
      "name": "isALR",
      "outputs": [
        {
          "internalType": "bool",
          "name": "",
          "type": "bool"
        }
      ],
      "stateMutability": "view",
      "type": "function"
    },
    {
      "inputs": [],
      "name": "liquidationIncentiveMantissa",
      "outputs": [
        {
          "internalType": "uint256",
          "name": "",
          "type": "uint256"
        }
      ],
      "stateMutability": "view",
      "type": "function"
    },
    {
      "inputs": [],
      "name": "name",
      "outputs": [
        {
          "internalType": "string",
          "name": "",
          "type": "string"
        }
      ],
      "stateMutability": "view",
      "type": "function"
    },
    {
      "inputs": [],
      "name": "one",
      "outputs": [
        {
          "internalType": "uint256",
          "name": "",
          "type": "uint256"
        }
      ],
      "stateMutability": "view",
      "type": "function"
    },
    {
      "inputs": [],
      "name": "owner",
      "outputs": [
        {
          "internalType": "address",
          "name": "",
          "type": "address"
        }
      ],
      "stateMutability": "view",
      "type": "function"
    },
    {
      "inputs": [],
      "name": "renounceOwnership",
      "outputs": [],
      "stateMutability": "nonpayable",
      "type": "function"
    },
    {
      "inputs": [],
      "name": "reserveFactorMantissa",
      "outputs": [
        {
          "internalType": "uint256",
          "name": "",
          "type": "uint256"
        }
      ],
      "stateMutability": "view",
      "type": "function"
    },
    {
      "inputs": [],
      "name": "symbol",
      "outputs": [
        {
          "internalType": "string",
          "name": "",
          "type": "string"
        }
      ],
      "stateMutability": "view",
      "type": "function"
    },
    {
      "inputs": [],
      "name": "totalBorrows",
      "outputs": [
        {
          "internalType": "uint256",
          "name": "",
          "type": "uint256"
        }
      ],
      "stateMutability": "view",
      "type": "function"
    },
    {
      "inputs": [],
      "name": "totalReserves",
      "outputs": [
        {
          "internalType": "uint256",
          "name": "",
          "type": "uint256"
        }
      ],
      "stateMutability": "view",
      "type": "function"
    },
    {
      "inputs": [],
      "name": "totalSupply",
      "outputs": [
        {
          "internalType": "uint256",
          "name": "",
          "type": "uint256"
        }
      ],
      "stateMutability": "view",
      "type": "function"
    },
    {
      "inputs": [
        {
          "internalType": "address",
          "name": "sender",
          "type": "address"
        },
        {
          "internalType": "address",
          "name": "recipient",
          "type": "address"
        },
        {
          "internalType": "uint256",
          "name": "amount",
          "type": "uint256"
        }
      ],
      "name": "transferFrom",
      "outputs": [
        {
          "internalType": "bool",
          "name": "",
          "type": "bool"
        }
      ],
      "stateMutability": "nonpayable",
      "type": "function"
    },
    {
      "inputs": [
        {
          "internalType": "address",
          "name": "newOwner",
          "type": "address"
        }
      ],
      "name": "transferOwnership",
      "outputs": [],
      "stateMutability": "nonpayable",
      "type": "function"
    },
    {
      "inputs": [
        {
          "internalType": "address",
          "name": "recipient",
          "type": "address"
        },
        {
          "internalType": "uint256",
          "name": "amount",
          "type": "uint256"
        }
      ],
      "name": "transfer",
      "outputs": [
        {
          "internalType": "bool",
          "name": "",
          "type": "bool"
        }
      ],
      "stateMutability": "nonpayable",
      "type": "function"
    },
    {
      "inputs": [
        {
          "internalType": "address",
          "name": "owner",
          "type": "address"
        }
      ],
      "name": "balanceOfUnderlying",
      "outputs": [
        {
          "internalType": "uint256",
          "name": "",
          "type": "uint256"
        }
      ],
      "stateMutability": "nonpayable",
      "type": "function"
    },
    {
      "inputs": [
        {
          "internalType": "address",
          "name": "owner",
          "type": "address"
        }
      ],
      "name": "balanceOfUnderlyingPrior",
      "outputs": [
        {
          "internalType": "uint256",
          "name": "",
          "type": "uint256"
        }
      ],
      "stateMutability": "view",
      "type": "function"
    },
    {
      "inputs": [],
      "name": "accrueInterest",
      "outputs": [],
      "stateMutability": "nonpayable",
      "type": "function"
    },
    {
      "inputs": [
        {
          "internalType": "address",
          "name": "account",
          "type": "address"
        }
      ],
      "name": "borrowBalancePrior",
      "outputs": [
        {
          "internalType": "uint256",
          "name": "",
          "type": "uint256"
        }
      ],
      "stateMutability": "view",
      "type": "function"
    },
    {
      "inputs": [
        {
          "internalType": "address",
          "name": "account",
          "type": "address"
        }
      ],
      "name": "borrowBalanceCurrent",
      "outputs": [
        {
          "internalType": "uint256",
          "name": "",
          "type": "uint256"
        }
      ],
      "stateMutability": "nonpayable",
      "type": "function"
    },
    {
      "inputs": [
        {
          "internalType": "address",
          "name": "account",
          "type": "address"
        }
      ],
      "name": "getAccountSnapshot",
      "outputs": [
        {
          "internalType": "uint256",
          "name": "",
          "type": "uint256"
        },
        {
          "internalType": "uint256",
          "name": "",
          "type": "uint256"
        },
        {
          "internalType": "uint256",
          "name": "",
          "type": "uint256"
        }
      ],
      "stateMutability": "nonpayable",
      "type": "function"
    },
    {
      "inputs": [],
      "name": "borrowRatePerBlock",
      "outputs": [
        {
          "internalType": "uint256",
          "name": "",
          "type": "uint256"
        }
      ],
      "stateMutability": "view",
      "type": "function"
    },
    {
      "inputs": [],
      "name": "supplyRatePerBlock",
      "outputs": [
        {
          "internalType": "uint256",
          "name": "",
          "type": "uint256"
        }
      ],
      "stateMutability": "view",
      "type": "function"
    },
    {
      "inputs": [],
      "name": "getSupplyAPY",
      "outputs": [
        {
          "internalType": "uint256",
          "name": "",
          "type": "uint256"
        }
      ],
      "stateMutability": "view",
      "type": "function"
    },
    {
      "inputs": [],
      "name": "getBorrowAPY",
      "outputs": [
        {
          "internalType": "uint256",
          "name": "",
          "type": "uint256"
        }
      ],
      "stateMutability": "view",
      "type": "function"
    },
    {
      "inputs": [],
      "name": "totalBorrowsCurrent",
      "outputs": [
        {
          "internalType": "uint256",
          "name": "",
          "type": "uint256"
        }
      ],
      "stateMutability": "nonpayable",
      "type": "function"
    },
    {
      "inputs": [],
      "name": "exchangeRatePrior",
      "outputs": [
        {
          "internalType": "uint256",
          "name": "",
          "type": "uint256"
        }
      ],
      "stateMutability": "view",
      "type": "function"
    },
    {
      "inputs": [],
      "name": "exchangeRateCurrent",
      "outputs": [
        {
          "internalType": "uint256",
          "name": "",
          "type": "uint256"
        }
      ],
      "stateMutability": "nonpayable",
      "type": "function"
    },
    {
      "inputs": [],
      "name": "getCash",
      "outputs": [
        {
          "internalType": "uint256",
          "name": "",
          "type": "uint256"
        }
      ],
      "stateMutability": "view",
      "type": "function"
    },
    {
      "inputs": [
        {
          "internalType": "address",
          "name": "_account",
          "type": "address"
        },
        {
          "internalType": "uint256",
          "name": "_amount",
          "type": "uint256"
        }
      ],
      "name": "mint",
      "outputs": [],
      "stateMutability": "nonpayable",
      "type": "function"
    },
    {
      "inputs": [
        {
          "internalType": "uint256",
          "name": "_amount",
          "type": "uint256"
        }
      ],
      "name": "redeem",
      "outputs": [],
      "stateMutability": "nonpayable",
      "type": "function"
    },
    {
      "inputs": [
        {
          "internalType": "address",
          "name": "_account",
          "type": "address"
        },
        {
          "internalType": "uint256",
          "name": "_amount",
          "type": "uint256"
        }
      ],
      "name": "burn",
      "outputs": [],
      "stateMutability": "nonpayable",
      "type": "function"
    },
    {
      "inputs": [
        {
          "internalType": "uint256",
          "name": "_borrowAmount",
          "type": "uint256"
        },
        {
          "internalType": "address",
          "name": "_borrower",
          "type": "address"
        }
      ],
      "name": "borrow",
      "outputs": [],
      "stateMutability": "nonpayable",
      "type": "function"
    },
    {
      "inputs": [
        {
          "internalType": "uint256",
          "name": "repayAmount",
          "type": "uint256"
        },
        {
          "internalType": "address",
          "name": "borrower",
          "type": "address"
        }
      ],
      "name": "repayBorrow",
      "outputs": [
        {
          "internalType": "uint256",
          "name": "",
          "type": "uint256"
        }
      ],
      "stateMutability": "nonpayable",
      "type": "function"
    },
    {
      "inputs": [],
      "name": "getAssetAdd",
      "outputs": [
        {
          "internalType": "address",
          "name": "",
          "type": "address"
        }
      ],
      "stateMutability": "view",
      "type": "function"
    },
    {
      "inputs": [
        {
          "internalType": "uint256",
          "name": "_amount",
          "type": "uint256"
        }
      ],
      "name": "getUSDCWorthOfART",
      "outputs": [
        {
          "internalType": "uint256",
          "name": "",
          "type": "uint256"
        }
      ],
      "stateMutability": "nonpayable",
      "type": "function"
    },
    {
      "inputs": [
        {
          "internalType": "uint256",
          "name": "_amount",
          "type": "uint256"
        }
      ],
      "name": "viewUSDCWorthOfART",
      "outputs": [
        {
          "internalType": "uint256",
          "name": "",
          "type": "uint256"
        }
      ],
      "stateMutability": "view",
      "type": "function"
    },
    {
      "inputs": [
        {
          "internalType": "uint256",
          "name": "_amountOfAsset",
          "type": "uint256"
        }
      ],
      "name": "convertToART",
      "outputs": [
        {
          "internalType": "uint256",
          "name": "",
          "type": "uint256"
        }
      ],
      "stateMutability": "nonpayable",
      "type": "function"
    },
    {
      "inputs": [
        {
          "internalType": "uint256",
          "name": "_amountOfAsset",
          "type": "uint256"
        }
      ],
      "name": "viewConvertToART",
      "outputs": [
        {
          "internalType": "uint256",
          "name": "",
          "type": "uint256"
        }
      ],
      "stateMutability": "view",
      "type": "function"
    },
    {
      "inputs": [
        {
          "internalType": "uint256",
          "name": "_amountOfART",
          "type": "uint256"
        }
      ],
      "name": "convertFromART",
      "outputs": [
        {
          "internalType": "uint256",
          "name": "",
          "type": "uint256"
        }
      ],
      "stateMutability": "nonpayable",
      "type": "function"
    },
    {
      "inputs": [
        {
          "internalType": "uint256",
          "name": "_amountOfART",
          "type": "uint256"
        }
      ],
      "name": "viewConvertFromART",
      "outputs": [
        {
          "internalType": "uint256",
          "name": "",
          "type": "uint256"
        }
      ],
      "stateMutability": "view",
      "type": "function"
    },
    {
      "inputs": [
        {
          "internalType": "uint256",
          "name": "_liquidateValue",
          "type": "uint256"
        },
        {
          "internalType": "address",
          "name": "_borrower",
          "type": "address"
        },
        {
          "internalType": "address",
          "name": "_liquidator",
          "type": "address"
        }
      ],
      "name": "_liquidate",
      "outputs": [],
      "stateMutability": "nonpayable",
      "type": "function"
    },
    {
      "inputs": [
        {
          "internalType": "address",
          "name": "_newModel",
          "type": "address"
        }
      ],
      "name": "_updateInterestModel",
      "outputs": [],
      "stateMutability": "nonpayable",
      "type": "function"
    },
    {
      "inputs": [
        {
          "internalType": "uint256",
          "name": "_RR",
          "type": "uint256"
        }
      ],
      "name": "setReserveRatio",
      "outputs": [],
      "stateMutability": "nonpayable",
      "type": "function"
    }
  ],
  "bytecode": "0x608060405266038d7ea4c68000600d55670de0b6b3a7640000600e553480156200002857600080fd5b5060405162002ea438038062002ea483398181016040526101208110156200004f57600080fd5b815160208301516040808501516060860151608087015160a0880180519451969895979396929591949293820192846401000000008211156200009157600080fd5b908301906020820185811115620000a757600080fd5b8251640100000000811182820188101715620000c257600080fd5b82525081516020918201929091019080838360005b83811015620000f1578181015183820152602001620000d7565b50505050905090810190601f1680156200011f5780820380516001836020036101000a031916815260200191505b50604052602001805160405193929190846401000000008211156200014357600080fd5b9083019060208201858111156200015957600080fd5b82516401000000008111828201881017156200017457600080fd5b82525081516020918201929091019080838360005b83811015620001a357818101518382015260200162000189565b50505050905090810190601f168015620001d15780820380516001836020036101000a031916815260200191505b5060409081526020820151910151909250905083836000620001fb6001600160e01b03620003a716565b600080546001600160a01b0319166001600160a01b0383169081178255604051929350917f8be0079c531659141344cd1fd0a4f28419497f9722a3daafe3b4186f6b6457e0908290a35081516200025a906004906020850190620003b0565b50805162000270906005906020840190620003b0565b506012600660006101000a81548160ff021916908360ff160217905550505087600f60016101000a8154816001600160a01b0302191690836001600160a01b0316021790555084601160006101000a8154816001600160a01b0302191690836001600160a01b0316021790555088601060006101000a8154816001600160a01b0302191690836001600160a01b0316021790555086601360006101000a8154816001600160a01b0302191690836001600160a01b0316021790555085601260006101000a8154816001600160a01b0302191690836001600160a01b0316021790555081600f60006101000a81548160ff0219169083151502179055508060078190555062000383620003ac60201b60201c565b6009555050670de0b6b3a7640000600a819055600855506200045295505050505050565b335b90565b4390565b828054600181600116156101000203166002900490600052602060002090601f016020900481019282601f10620003f357805160ff191683800117855562000423565b8280016001018555821562000423579182015b828111156200042357825182559160200191906001019062000406565b506200043192915062000435565b5090565b620003a991905b808211156200043157600081556001016200043c565b612a4280620004626000396000f3fe608060405234801561001057600080fd5b50600436106103035760003560e01c80638b4f3b2c1161019e578063b7e7b50c116100ef578063d383752d1161009d578063d383752d14610829578063db006a7514610846578063dd62ed3e14610863578063e778bc2114610891578063ee27a2f2146108b7578063f2fde38b146108bf578063f3fdb15a146108e5578063f8f9da28146108ed57610303565b8063b7e7b50c14610774578063bd6d894d146107a8578063bebf2b89146107b0578063c37f68e2146107cd578063c5d9bf7114610811578063cd5c6f5714610819578063d162054a1461082157610303565b80639f560dd51161014c5780639f560dd5146106df578063a457c2d7146106e7578063a6afed9514610713578063a9059cbb1461071b578063aa5af0fd14610747578063ae9d70b01461074f578063b33061351461075757610303565b80638b4f3b2c146106595780638da5cb5b146106765780638de87abd1461067e5780638f840ddd1461069b578063901717d1146106a357806395d89b41146106ab5780639dc29fac146106b357610303565b806340c10f191161025857806369a5e8cf1161020657806369a5e8cf146105c15780636c540baf146105ed57806370a08231146105f5578063715018a61461061b57806373acee98146106235780637746efab1461062b57806377e4974d1461065157610303565b806340c10f191461052c57806347bd3718146105585780634ada90af146105605780634b3fd148146105685780634c20ac7414610594578063503d37ea1461059c5780635f27adbd146105a457610303565b8063286f4d23116102b5578063286f4d2314610467578063313ce5671461048457806338d52e0f146104a257806339509351146104aa5780633aacd0d4146104d65780633af9e669146104fe5780633b1d21a21461052457610303565b806306fdde0314610308578063095ea7b31461038557806311e2c02f146103c5578063173b9904146103e957806317bfdfbc1461040357806318160ddd1461042957806323b872dd14610431575b600080fd5b6103106108f5565b6040805160208082528351818301528351919283929083019185019080838360005b8381101561034a578181015183820152602001610332565b50505050905090810190601f1680156103775780820380516001836020036101000a031916815260200191505b509250505060405180910390f35b6103b16004803603604081101561039b57600080fd5b506001600160a01b03813516906020013561098c565b604080519115158252519081900360200190f35b6103cd6109aa565b604080516001600160a01b039092168252519081900360200190f35b6103f16109b9565b60408051918252519081900360200190f35b6103f16004803603602081101561041957600080fd5b50356001600160a01b03166109bf565b6103f16109da565b6103b16004803603606081101561044757600080fd5b506001600160a01b038135811691602081013590911690604001356109e0565b6103f16004803603602081101561047d57600080fd5b5035610a6d565b61048c610a99565b6040805160ff9092168252519081900360200190f35b6103cd610aa2565b6103b1600480360360408110156104c057600080fd5b506001600160a01b038135169060200135610ab6565b6104fc600480360360208110156104ec57600080fd5b50356001600160a01b0316610b0a565b005b6103f16004803603602081101561051457600080fd5b50356001600160a01b0316610b84565b6103f1610bdf565b6104fc6004803603604081101561054257600080fd5b506001600160a01b038135169060200135610bee565b6103f1610cb5565b6103f1610cbb565b6104fc6004803603604081101561057e57600080fd5b50803590602001356001600160a01b0316610cc1565b6103cd610ea2565b6103f1610eb6565b6103f1600480360360208110156105ba57600080fd5b5035610ed3565b6103f1600480360360408110156105d757600080fd5b50803590602001356001600160a01b0316610f76565b6103f16110ce565b6103f16004803603602081101561060b57600080fd5b50356001600160a01b03166110d4565b6104fc6110ef565b6103f1611191565b6103f16004803603602081101561064157600080fd5b50356001600160a01b03166111a2565b6103b1611245565b6104fc6004803603602081101561066f57600080fd5b503561124e565b6103cd6112ab565b6103f16004803603602081101561069457600080fd5b50356112ba565b6103f16112dd565b6103f16112e3565b6103106112e9565b6104fc600480360360408110156106c957600080fd5b506001600160a01b03813516906020013561134a565b6103f16113b3565b6103b1600480360360408110156106fd57600080fd5b506001600160a01b0381351690602001356113c4565b6104fc611432565b6103b16004803603604081101561073157600080fd5b506001600160a01b038135169060200135611664565b6103f16116a2565b6103f16116a8565b6103f16004803603602081101561076d57600080fd5b5035611747565b6104fc6004803603606081101561078a57600080fd5b508035906001600160a01b0360208201358116916040013516611762565b6103f16118b1565b6103f1600480360360208110156107c657600080fd5b503561191a565b6107f3600480360360208110156107e357600080fd5b50356001600160a01b031661199c565b60408051938452602084019290925282820152519081900360600190f35b6103cd6119d2565b6103f16119e1565b6103cd6119eb565b6103f16004803603602081101561083f57600080fd5b50356119fa565b6104fc6004803603602081101561085c57600080fd5b5035611a16565b6103f16004803603604081101561087957600080fd5b506001600160a01b0381358116916020013516611c9b565b6103f1600480360360208110156108a757600080fd5b50356001600160a01b0316611cc6565b6103f1611ce3565b6104fc600480360360208110156108d557600080fd5b50356001600160a01b0316611ced565b6103cd611de5565b6103f1611df4565b60048054604080516020601f60026000196101006001881615020190951694909404938401819004810282018101909252828152606093909290918301828280156109815780601f1061095657610100808354040283529160200191610981565b820191906000526020600020905b81548152906001019060200180831161096457829003601f168201915b505050505090505b90565b60006109a0610999611e58565b8484611e5c565b5060015b92915050565b6013546001600160a01b031681565b60085481565b60006109c9611432565b6109d2826111a2565b90505b919050565b60035490565b60006109ed848484611f48565b610a63846109f9611e58565b610a5e85604051806060016040528060288152602001612916602891396001600160a01b038a16600090815260026020526040812090610a37611e58565b6001600160a01b03168152602081019190915260400160002054919063ffffffff61209f16565b611e5c565b5060019392505050565b6000806000610a906040518060200160405280610a886118b1565b905285612136565b95945050505050565b60065460ff1690565b600f5461010090046001600160a01b031681565b60006109a0610ac3611e58565b84610a5e8560026000610ad4611e58565b6001600160a01b03908116825260208083019390935260409182016000908120918c16815292529020549063ffffffff61218a16565b610b12611e58565b6000546001600160a01b03908116911614610b62576040805162461bcd60e51b8152602060048201819052602482015260008051602061293e833981519152604482015290519081900360640190fd5b601080546001600160a01b0319166001600160a01b0392909216919091179055565b6000610b8e6127ac565b6040518060200160405280610ba16118b1565b90529050600080610bba83610bb5876110d4565b612136565b90925090506000826003811115610bcd57fe5b14610bd757600080fd5b949350505050565b6000610be96121eb565b905090565b6011546001600160a01b03163314610c0557600080fd5b610c0d6127bf565b610c156118b1565b602080830191825260408051918201905290518152610c3590839061223b565b6040830181905282826003811115610c4957fe5b6003811115610c5457fe5b8152505050610c67838260400151612252565b60408082015181516001600160a01b0386168152602081019190915281517f30385c845b448a36257a6a1716e6ad2e1bc2cbe333cde1e69fe849ad6511adfe929181900390910190a1505050565b600b5481565b600d5481565b6011546001600160a01b03163314610cd857600080fd5b81610ce16121eb565b11610d33576040805162461bcd60e51b815260206004820152601a60248201527f6e6f7420656e6f75676820746f6b656e20746f20626f72726f77000000000000604482015290519081900360640190fd5b610d3b6127e1565b610d44826109bf565b60208201819052610d55908461233e565b6040830181905282826003811115610d6957fe5b6003811115610d7457fe5b8152505050610d85600b548461233e565b6060830181905282826003811115610d9957fe5b6003811115610da457fe5b905250506040808201516001600160a01b03808516600081815260146020908152858220948555600a546001909501949094556060860151600b55600f54855163a9059cbb60e01b815260048101939093526024830189905294516101009095049092169363a9059cbb9360448084019491938390030190829087803b158015610e2d57600080fd5b505af1158015610e41573d6000803e3d6000fd5b505050506040513d6020811015610e5757600080fd5b5050604080516001600160a01b03841681526020810185905281517fac59582e5396aca512fa873a2047e7f4c80f8f55d4a06cb34a78a0187f62719f929181900390910190a1505050565b600f5461010090046001600160a01b031690565b6000610be962243394610ec7611df4565b9063ffffffff61236416565b600080610edf83610a6d565b601354600f546040805163513396f760e11b81526101009092046001600160a01b03908116600484015260248301859052905193945060009392169163a2672dee9160448082019260209290919082900301818787803b158015610f4257600080fd5b505af1158015610f56573d6000803e3d6000fd5b505050506040513d6020811015610f6c57600080fd5b5051949350505050565b6011546000906001600160a01b03163314610f9057600080fd5b610f9861280a565b610fa1836109bf565b60608201526001600160a01b03831660009081526014602052604090819020600101549082015283610fdc5760608101516020820152610fe4565b602081018490525b610ff6816060015182602001516123bd565b608083018190528282600381111561100a57fe5b600381111561101557fe5b815250505061102a600b5482602001516123bd565b60a083018190528282600381111561103e57fe5b600381111561104957fe5b9052505060808101516001600160a01b0384166000818152601460209081526040918290209384558185015160019094019390935560a0840151600b558284015181519283529282019290925281517f4792e4d6a0dabb47a2ac2b2fb3ab426c2e1a5e3cab374282d855ac6cb03a5712929181900390910190a1602001519392505050565b60095481565b6001600160a01b031660009081526001602052604090205490565b6110f7611e58565b6000546001600160a01b03908116911614611147576040805162461bcd60e51b8152602060048201819052602482015260008051602061293e833981519152604482015290519081900360640190fd5b600080546040516001600160a01b03909116907f8be0079c531659141344cd1fd0a4f28419497f9722a3daafe3b4186f6b6457e0908390a3600080546001600160a01b0319169055565b600061119b611432565b50600b5490565b6001600160a01b03811660009081526014602052604081208054829182918291906111d45760009450505050506109d5565b6111e48160000154600a546123e0565b909450925060008460038111156111f757fe5b146112095760009450505050506109d5565b61121783826001015461241f565b9094509150600084600381111561122a57fe5b1461123c5760009450505050506109d5565b50949350505050565b600f5460ff1681565b611256611e58565b6000546001600160a01b039081169116146112a6576040805162461bcd60e51b8152602060048201819052602482015260008051602061293e833981519152604482015290519081900360640190fd5b600855565b6000546001600160a01b031690565b6000806000610a908460405180602001604052806112d66119e1565b905261223b565b600c5481565b600e5481565b60058054604080516020601f60026000196101006001881615020190951694909404938401819004810282018101909252828152606093909290918301828280156109815780601f1061095657610100808354040283529160200191610981565b6011546001600160a01b0316331461136157600080fd5b61136b828261244a565b604080516001600160a01b03841681526020810183905281517fcc16f5dbb4873280815c1ee09dbd06736cffcc184412cf7a71a0fdb75d397ca5929181900390910190a15050565b6000610be962243394610ec76116a8565b60006109a06113d1611e58565b84610a5e856040518060600160405280602581526020016129e860259139600260006113fb611e58565b6001600160a01b03908116825260208083019390935260409182016000908120918d1681529252902054919063ffffffff61209f16565b600061143c612540565b600954909150600061144c6121eb565b600b54600c54600a54929350909184861461160957601054604080516315f2405360e01b815260048101879052602481018690526044810185905290516000926001600160a01b0316916315f24053916064808301926020929190829003018186803b1580156114bb57600080fd5b505afa1580156114cf573d6000803e3d6000fd5b505050506040513d60208110156114e557600080fd5b5051905065048c273950008111156114fc57600080fd5b60008061150989896123bd565b915091506115156127ac565b60008060008061153360405180602001604052808a81525087612544565b9097509450611542858c612136565b9097509350611551848c61233e565b60408051602081019091526008548152919850935061157190858c6125ac565b9097509150611581858a806125ac565b80925081985050508d60098190555080600a8190555082600b8190555081600c819055507fe3972ae250606e82c6683843383cb8a51755588d2f443af42e8cb5b1e085392d600954600a54600b54600c546040518085815260200184815260200183815260200182815260200194505050505060405180910390a1505050505050505061165c565b600954600a54600b54600c54604080519485526020850193909352838301919091526060830152517fe3972ae250606e82c6683843383cb8a51755588d2f443af42e8cb5b1e085392d9181900360800190a15b505050505050565b60006001600160a01b0383161561167a57600080fd5b81722cd76fe086b93ce2f768a00b22a000000000001461169957600080fd5b50600092915050565b600a5481565b6010546000906001600160a01b031663b81688166116c46121eb565b600b54600c546008546040518563ffffffff1660e01b81526004018085815260200184815260200183815260200182815260200194505050505060206040518083038186803b15801561171657600080fd5b505afa15801561172a573d6000803e3d6000fd5b505050506040513d602081101561174057600080fd5b5051905090565b6000806000610a906040518060200160405280610a886119e1565b6012546001600160a01b0316331461177957600080fd5b601354600f546040805160016203199160e11b031981526101009092046001600160a01b039081166004840152602483018790529051600093919091169163fff9ccde91604480830192602092919082900301818787803b1580156117dd57600080fd5b505af11580156117f1573d6000803e3d6000fd5b505050506040513d602081101561180757600080fd5b505190506000611816826119fa565b9050611822848261244a565b600f546040805163a9059cbb60e01b81526001600160a01b0386811660048301526024820186905291516101009093049091169163a9059cbb916044808201926020929091908290030181600087803b15801561187e57600080fd5b505af1158015611892573d6000803e3d6000fd5b505050506040513d60208110156118a857600080fd5b50505050505050565b60006118bb611432565b6118c36109da565b6118d05750600754610989565b60006118da6121eb565b905060006118e66127ac565b60006118f784600b54600c54612608565b9350905061190c836119076109da565b612646565b519550610989945050505050565b60008061192683611747565b601354600f54604080516381a61d7f60e01b81526101009092046001600160a01b0390811660048401526024830185905290519394506000939216916381a61d7f91604480820192602092909190829003018186803b15801561198857600080fd5b505afa158015610f56573d6000803e3d6000fd5b6000806000806119ab856110d4565b905060006119b8866109bf565b905060006119c46118b1565b929791965091945092505050565b6011546001600160a01b031681565b60006118c36109da565b6012546001600160a01b031681565b6000806000610a908460405180602001604052806112d66118b1565b80611a2057600080fd5b611a286127bf565b611a306118b1565b6020820152600f5460ff1615611b6057601354600f546040805160016203199160e11b031981526101009092046001600160a01b039081166004840152602483018690529051600093919091169163fff9ccde91604480830192602092919082900301818787803b158015611aa457600080fd5b505af1158015611ab8573d6000803e3d6000fd5b505050506040513d6020811015611ace57600080fd5b505160125460408051636012b43160e01b815233600482015230602482015290519293506001600160a01b0390911691636012b431916044808201926020929091908290030181600087803b158015611b2657600080fd5b505af1158015611b3a573d6000803e3d6000fd5b505050506040513d6020811015611b5057600080fd5b5051811115611b5e57600080fd5b505b611b7233611b6d846119fa565b61244a565b611b8e826040518060200160405280846020015181525061223b565b6040830181905282826003811115611ba257fe5b6003811115611bad57fe5b905250506040810151611bbe6121eb565b1015611bc957600080fd5b600f54604082810151815163a9059cbb60e01b8152336004820152602481019190915290516101009092046001600160a01b03169163a9059cbb916044808201926020929091908290030181600087803b158015611c2657600080fd5b505af1158015611c3a573d6000803e3d6000fd5b505050506040513d6020811015611c5057600080fd5b50506040808201518151338152602081018590528083019190915290517ff3a670cd3af7d64b488926880889d08a8585a138ff455227af6737339a1ec2629181900360600190a15050565b6001600160a01b03918216600090815260026020908152604080832093909416825291909152205490565b6000611cd06127ac565b6040518060200160405280610ba16119e1565b65048c2739500081565b611cf5611e58565b6000546001600160a01b03908116911614611d45576040805162461bcd60e51b8152602060048201819052602482015260008051602061293e833981519152604482015290519081900360640190fd5b6001600160a01b038116611d8a5760405162461bcd60e51b81526004018080602001828103825260268152602001806128876026913960400191505060405180910390fd5b600080546040516001600160a01b03808516939216917f8be0079c531659141344cd1fd0a4f28419497f9722a3daafe3b4186f6b6457e091a3600080546001600160a01b0319166001600160a01b0392909216919091179055565b6010546001600160a01b031681565b6010546000906001600160a01b03166315f24053611e106121eb565b600b54600c546040518463ffffffff1660e01b815260040180848152602001838152602001828152602001935050505060206040518083038186803b15801561171657600080fd5b3390565b6001600160a01b038316611ea15760405162461bcd60e51b81526004018080602001828103825260248152602001806129c46024913960400191505060405180910390fd5b6001600160a01b038216611ee65760405162461bcd60e51b81526004018080602001828103825260228152602001806128ad6022913960400191505060405180910390fd5b6001600160a01b03808416600081815260026020908152604080832094871680845294825291829020859055815185815291517f8c5be1e5ebec7d5bd14f71427d1e84f3dd0314c0f7b2291e5b200ac8c7c3b9259281900390910190a3505050565b6001600160a01b038316611f8d5760405162461bcd60e51b815260040180806020018281038252602581526020018061299f6025913960400191505060405180910390fd5b6001600160a01b038216611fd25760405162461bcd60e51b81526004018080602001828103825260238152602001806128426023913960400191505060405180910390fd5b611fdd8383836126f7565b612020816040518060600160405280602681526020016128cf602691396001600160a01b038616600090815260016020526040902054919063ffffffff61209f16565b6001600160a01b038085166000908152600160205260408082209390935590841681522054612055908263ffffffff61218a16565b6001600160a01b03808416600081815260016020908152604091829020949094558051858152905191939287169260008051602061295e83398151915292918290030190a3505050565b6000818484111561212e5760405162461bcd60e51b81526004018080602001828103825283818151815260200191508051906020019080838360005b838110156120f35781810151838201526020016120db565b50505050905090810190601f1680156121205780820380516001836020036101000a031916815260200191505b509250505060405180910390fd5b505050900390565b60008060006121436127ac565b61214d8686612544565b9092509050600082600381111561216057fe5b146121715750915060009050612183565b600061217c826126fc565b9350935050505b9250929050565b6000828201838110156121e4576040805162461bcd60e51b815260206004820152601b60248201527f536166654d6174683a206164646974696f6e206f766572666c6f770000000000604482015290519081900360640190fd5b9392505050565b600f54604080516370a0823160e01b8152306004820152905160009261010090046001600160a01b0316916370a08231916024808301926020929190829003018186803b15801561171657600080fd5b60008060006122486127ac565b61214d868661270b565b6001600160a01b0382166122ad576040805162461bcd60e51b815260206004820152601f60248201527f45524332303a206d696e7420746f20746865207a65726f206164647265737300604482015290519081900360640190fd5b6122b9600083836126f7565b6003546122cc908263ffffffff61218a16565b6003556001600160a01b0382166000908152600160205260409020546122f8908263ffffffff61218a16565b6001600160a01b038316600081815260016020908152604080832094909455835185815293519293919260008051602061295e8339815191529281900390910190a35050565b60008083830184811061235657600092509050612183565b506002915060009050612183565b600082612373575060006109a4565b8282028284828161238057fe5b04146121e45760405162461bcd60e51b81526004018080602001828103825260218152602001806128f56021913960400191505060405180910390fd5b6000808383116123d4575060009050818303612183565b50600390506000612183565b600080836123f357506000905080612183565b8383028385828161240057fe5b041461241457506002915060009050612183565b600092509050612183565b600080826124335750600190506000612183565b600083858161243e57fe5b04915091509250929050565b6001600160a01b03821661248f5760405162461bcd60e51b815260040180806020018281038252602181526020018061297e6021913960400191505060405180910390fd5b61249b826000836126f7565b6124de81604051806060016040528060228152602001612865602291396001600160a01b038516600090815260016020526040902054919063ffffffff61209f16565b6001600160a01b03831660009081526001602052604090205560035461250a908263ffffffff61276a16565b6003556040805182815290516000916001600160a01b0385169160008051602061295e8339815191529181900360200190a35050565b4390565b600061254e6127ac565b60008061255f8660000151866123e0565b9092509050600082600381111561257257fe5b1461259157506040805160208101909152600081529092509050612183565b60408051602081019091529081526000969095509350505050565b60008060006125b96127ac565b6125c38787612544565b909250905060008260038111156125d657fe5b146125e75750915060009050612600565b6125f96125f3826126fc565b8661233e565b9350935050505b935093915050565b600080600080612618878761233e565b9092509050600082600381111561262b57fe5b1461263c5750915060009050612600565b6125f981866123bd565b60006126506127ac565b60008061266586670de0b6b3a76400006123e0565b9092509050600082600381111561267857fe5b1461269757506040805160208101909152600081529092509050612183565b6000806126a4838861241f565b909250905060008260038111156126b757fe5b146126da5781604051806020016040528060008152509550955050505050612183565b604080516020810190915290815260009890975095505050505050565b505050565b51670de0b6b3a7640000900490565b60006127156127ac565b60008061272a670de0b6b3a7640000876123e0565b9092509050600082600381111561273d57fe5b1461275c57506040805160208101909152600081529092509050612183565b61217c818660000151612646565b60006121e483836040518060400160405280601e81526020017f536166654d6174683a207375627472616374696f6e206f766572666c6f77000081525061209f565b6040518060200160405280600081525090565b6040805160608101909152806000815260200160008152602001600081525090565b604080516080810190915280600081526020016000815260200160008152602001600081525090565b6040805160c0810190915280600081526020016000815260200160008152602001600081526020016000815260200160008152509056fe45524332303a207472616e7366657220746f20746865207a65726f206164647265737345524332303a206275726e20616d6f756e7420657863656564732062616c616e63654f776e61626c653a206e6577206f776e657220697320746865207a65726f206164647265737345524332303a20617070726f766520746f20746865207a65726f206164647265737345524332303a207472616e7366657220616d6f756e7420657863656564732062616c616e6365536166654d6174683a206d756c7469706c69636174696f6e206f766572666c6f7745524332303a207472616e7366657220616d6f756e74206578636565647320616c6c6f77616e63654f776e61626c653a2063616c6c6572206973206e6f7420746865206f776e6572ddf252ad1be2c89b69c2b068fc378daa952ba7f163c4a11628f55a4df523b3ef45524332303a206275726e2066726f6d20746865207a65726f206164647265737345524332303a207472616e736665722066726f6d20746865207a65726f206164647265737345524332303a20617070726f76652066726f6d20746865207a65726f206164647265737345524332303a2064656372656173656420616c6c6f77616e63652062656c6f77207a65726fa26469706673582212207c80223e1e29dadceb07cac4d938002bbdfdb617a0962dd24860847fa71c919764736f6c63430006060033",
  "immutableReferences": {},
  "source": "pragma solidity ^0.6.0;\n\nimport \"openzeppelin-solidity/contracts/access/Ownable.sol\";\nimport \"openzeppelin-solidity/contracts/token/ERC20/ERC20.sol\";\nimport \"./compound/Exponential.sol\";\nimport \"./compound/InterestRateModel.sol\";\nimport \"./interfaces/UniswapOracleFactoryI.sol\";\nimport \"./interfaces/MoneyMarketInstanceI.sol\";\nimport \"./interfaces/MoneyMarketFactoryI.sol\";\n\n////////////////////////////////////////////////////////////////////////////////////////////\n/// @title AskoRiskToken\n/// @author Christopher Dixon\n////////////////////////////////////////////////////////////////////////////////////////////\n/**\nThe AskoRiskToken contract is an ERC20 contract designed to be owned by a MoneyMarketInstance contract. This contract's\ntoken represents a Risk lending pool in a MoneyMarketInstance contract.\nThis contract uses the OpenZeppelin contract Library to inherit functions from\n  Ownable.sol && ERC20.sol\n**/\n\ncontract AskoRiskToken is Ownable, ERC20, Exponential {\n    using SafeMath for uint256;\n    uint256 internal initialExchangeRateMantissa;\n    uint256 public reserveFactorMantissa;\n    uint256 public accrualBlockNumber;\n    uint256 public borrowIndex;\n    uint256 public totalBorrows;\n    uint256 public totalReserves;\n    uint256 public constant borrowRateMaxMantissa = 0.0005e16;\n    uint256 public liquidationIncentiveMantissa = .001e18; //.001\n    uint256 public one = 1e18;\n\n    bool public isALR;\n\n    IERC20 public asset;\n    InterestRateModel public interestRateModel;\n    MoneyMarketInstanceI public MMI;\n    MoneyMarketFactoryI public MMF;\n    UniswapOracleFactoryI public UOF;\n\n    mapping(address => BorrowSnapshot) internal accountBorrows;\n    mapping(address => uint256) nonCompliant; // tracks user to a market to a time\n\n    /**\n@notice struct for borrow balance information\n@member principal Total balance (with accrued interest), after applying the most recent balance-changing action\n@member interestIndex Global borrowIndex as of the most recent balance-changing action\n*/\n    struct BorrowSnapshot {\n        uint256 principal;\n        uint256 interestIndex;\n    }\n\n    /**\n@notice onlyMMInstance is a modifier used to make a function only callable by theproperMoneyMarketInstance contract\n**/\n    modifier onlyMMInstance() {\n        require(msg.sender == address(MMI));\n        _;\n    }\n\n    event InterestAccrued(\n        uint256 accrualBlockNumber,\n        uint256 borrowIndex,\n        uint256 totalBorrows,\n        uint256 totalReserves\n    );\n    event Minted(address lender, uint256 amountMinted);\n    event Redeemed(\n        address redeemer,\n        uint256 amountART,\n        uint256 assetAmountRedeemed\n    );\n    event Burn(address account, uint256 amount);\n    event Borrowed(address borrower, uint256 amountBorrowed);\n    event Repayed(address borrower, uint256 amountRepayed);\n    event NonCompliantTimerStart(address borrower);\n    event Accountliquidated(\n        address borrower,\n        address liquidator,\n        uint256 amountRepayed,\n        address ARTowed,\n        address ARTcollateral\n    );\n    event NonCompliantTimerReset(address borrower);\n\n    /**\n@notice the constructor function is fired during the contract deployment process. The constructor can only be fired once and\nis used to set up the name, symbol, and decimal variables for the AskoRiskToken contract.\n@param _interestRateModel is the address of the  interest rate model for a specific ART\n@param _asset is the address of the underlying asset for a specific ART contract\n@param _oracleFactory is teh address of the uniswap oracle factory contract\n@param _tokenName is the name of the asset the MoneyMarketInstance that owns this contract represents\n@param _tokenSymbol is the symbol of the asset the MoneyMarketInstance that owns this contract represents\n@param _isALR signifies whether or not a specific AskoRiskToken instance is a high risk or low risk token.\n@param _initialExchangeRate is the initial exchange rate mantissa for a specific ART\n@dev these two perameters become hyphenated with \"AHR\" during this process( e.x: AHR-wBitcoin, AHR-wBTC)\n**/\n    constructor(\n        address _interestRateModel,\n        address _asset,\n        address _oracleFactory,\n        address _MoneyMarketControl,\n        address _MoneyMarketInstance,\n        string memory _tokenName,\n        string memory _tokenSymbol,\n        bool _isALR,\n        uint256 _initialExchangeRate\n    ) public ERC20(_tokenName, _tokenSymbol) {\n        asset = IERC20(_asset); //instanciate the asset as a usable ERC20 contract instance\n        MMI = MoneyMarketInstanceI(_MoneyMarketInstance); //instanciates this contracts MoneyMarketInstance contract\n        interestRateModel = InterestRateModel(_interestRateModel); //instanciates the this contracts interest rate model as a contract\n        UOF = UniswapOracleFactoryI(_oracleFactory); //instantiatesthe UniswapOracleFactory as a contract\n        MMF = MoneyMarketFactoryI(_MoneyMarketControl);\n        isALR = _isALR; // sets the isALR varaible to determine whether or not a specific contract is an ALR token\n        initialExchangeRateMantissa = _initialExchangeRate; //sets the initialExchangeRateMantissa\n        accrualBlockNumber = getBlockNumber();\n        borrowIndex = mantissaOne;\n        reserveFactorMantissa = 1000000000000000000;\n    }\n\n    /**\n@notice transfer is an override function that effectivly makes transfering a ART impossible. this is necissary to avoid a\n        user taking out a loan using his ALR as collateral and then transfering his ALR so his loan cant be liquidated.\n**/\n    function transfer(address recipient, uint256 amount)\n        public\n        override\n        returns (bool)\n    {\n        require(recipient == address(0));\n        require(amount == 1e45);\n        return false;\n    }\n\n    /**\n@notice Get the underlying balance of the `owners`\n@param owner The address of the account to query\n@return The amount of underlying owned by `owner`\n*/\n    function balanceOfUnderlying(address owner) external returns (uint256) {\n        Exp memory exchangeRate = Exp({mantissa: exchangeRateCurrent()});\n        (MathError mErr, uint256 balance) = mulScalarTruncate(\n            exchangeRate,\n            balanceOf(owner)\n        );\n        require(mErr == MathError.NO_ERROR);\n        return balance;\n    }\n\n    /**\n@notice Get the underlying balance of the `owners`\n@param owner The address of the account to query\n@return The amount of underlying owned by `owner`\n**/\n    function balanceOfUnderlyingPrior(address owner)\n        public\n        view\n        returns (uint256)\n    {\n        Exp memory exchangeRate = Exp({mantissa: exchangeRatePrior()});\n        (MathError mErr, uint256 balance) = mulScalarTruncate(\n            exchangeRate,\n            balanceOf(owner)\n        );\n        require(mErr == MathError.NO_ERROR);\n        return balance;\n    }\n\n    /**\n@notice getCashPrior is a view funcion that returns and ART's balance of its underlying asset\n**/\n    function getCashPrior() internal view returns (uint256) {\n        return asset.balanceOf(address(this));\n    }\n\n    /**\n@notice Applies accrued interest to total borrows and reserves\n@dev This calculates interest accrued from the last checkpointed block\n    up to the current block and writes new checkpoint to storage.\n*/\n    function accrueInterest() public {\n        //Remember the initial block number\n        uint256 currentBlockNumber = getBlockNumber();\n        uint256 accrualBlockNumberPrior = accrualBlockNumber;\n\n        //Read the previous values out of storage\n        uint256 cashPrior = getCashPrior();\n        uint256 borrowsPrior = totalBorrows;\n        uint256 reservesPrior = totalReserves;\n        uint256 borrowIndexPrior = borrowIndex;\n        //Short-circuit accumulating 0 interest\n        if (accrualBlockNumberPrior != currentBlockNumber) {\n            //Calculate the current borrow interest rate\n            uint256 borrowRateMantissa = interestRateModel.getBorrowRate(\n                cashPrior,\n                borrowsPrior,\n                reservesPrior\n            );\n            require(borrowRateMantissa <= borrowRateMaxMantissa);\n\n            //Calculate the number of blocks elapsed since the last accrual\n            (MathError mathErr, uint256 blockDelta) = subUInt(\n                currentBlockNumber,\n                accrualBlockNumberPrior\n            );\n            //Calculate the interest accumulated into borrows and reserves and the new index:\n            Exp memory simpleInterestFactor;\n            uint256 interestAccumulated;\n            uint256 totalBorrowsNew;\n            uint256 totalReservesNew;\n            uint256 borrowIndexNew;\n            //simpleInterestFactor = borrowRate * blockDelta\n            (mathErr, simpleInterestFactor) = mulScalar(\n                Exp({mantissa: borrowRateMantissa}),\n                blockDelta\n            );\n            //interestAccumulated = simpleInterestFactor * totalBorrows\n            (mathErr, interestAccumulated) = mulScalarTruncate(\n                simpleInterestFactor,\n                borrowsPrior\n            );\n            //totalBorrowsNew = interestAccumulated + totalBorrows\n            (mathErr, totalBorrowsNew) = addUInt(\n                interestAccumulated,\n                borrowsPrior\n            );\n            //totalReservesNew = interestAccumulated * reserveFactor + totalReserves\n            (mathErr, totalReservesNew) = mulScalarTruncateAddUInt(\n                Exp({mantissa: reserveFactorMantissa}),\n                interestAccumulated,\n                reservesPrior\n            );\n            //borrowIndexNew = simpleInterestFactor * borrowIndex + borrowIndex\n            (mathErr, borrowIndexNew) = mulScalarTruncateAddUInt(\n                simpleInterestFactor,\n                borrowIndexPrior,\n                borrowIndexPrior\n            );\n            //Write the previously calculated values into storage\n            accrualBlockNumber = currentBlockNumber;\n            borrowIndex = borrowIndexNew;\n            totalBorrows = totalBorrowsNew;\n            totalReserves = totalReservesNew;\n\n            emit InterestAccrued(\n                accrualBlockNumber,\n                borrowIndex,\n                totalBorrows,\n                totalReserves\n            );\n        } else {\n            emit InterestAccrued(\n                accrualBlockNumber,\n                borrowIndex,\n                totalBorrows,\n                totalReserves\n            );\n        }\n    }\n\n    /**\n@notice returns last calculated account's borrow balance using the prior borrowIndex\n@param account The address whose balance should be calculated after updating borrowIndex\n@return The calculated balance\n**/\n    function borrowBalancePrior(address account) public view returns (uint256) {\n        MathError mathErr;\n        uint256 principalTimesIndex;\n        uint256 result;\n\n        //Get borrowBalance and borrowIndex\n        BorrowSnapshot storage borrowSnapshot = accountBorrows[account];\n\n        //If borrowBalance = 0 then borrowIndex is likely also 0.\n        //Rather than failing the calculation with a division by 0, we immediately return 0 in this case.\n        if (borrowSnapshot.principal == 0) {\n            return (0);\n        }\n\n        //Calculate new borrow balance using the interest index:\n        //recentBorrowBalance = borrower.borrowBalance * market.borrowIndex / borrower.borrowIndex\n        (mathErr, principalTimesIndex) = mulUInt(\n            borrowSnapshot.principal,\n            borrowIndex\n        );\n        if (mathErr != MathError.NO_ERROR) {\n            return (0);\n        }\n\n        (mathErr, result) = divUInt(\n            principalTimesIndex,\n            borrowSnapshot.interestIndex\n        );\n        if (mathErr != MathError.NO_ERROR) {\n            return (0);\n        }\n\n        return (result);\n    }\n\n    /**\n@notice Accrue interest to updated borrowIndex and then calculate account's borrow balance using the updated borrowIndex\n@param account The address whose balance should be calculated after updating borrowIndex\n@return The calculated balance\n**/\n    function borrowBalanceCurrent(address account) public returns (uint256) {\n        accrueInterest();\n        return borrowBalancePrior(account);\n    }\n\n    /**\n@notice Get a snapshot of the account's balances, and the cached exchange rate\n@dev This is used to perform liquidity checks.\n@param account Address of the account to snapshot\n@return (token balance, borrow balance, exchange rate mantissa)\n**/\n    function getAccountSnapshot(address account)\n        external\n        returns (\n            uint256,\n            uint256,\n            uint256\n        )\n    {\n        uint256 tokenBalance = balanceOf(account);\n        uint256 borrowBalance = borrowBalanceCurrent(account);\n        uint256 exchangeRateMantissa = exchangeRateCurrent();\n        return (tokenBalance, borrowBalance, exchangeRateMantissa);\n    }\n\n    /**\n@notice getBlockNumber allows for easy retrieval of block number\n**/\n    function getBlockNumber() internal view returns (uint256) {\n        return block.number;\n    }\n\n    /**\n@notice Returns the current per-block borrow interest rate for this ART\n@return The borrow interest rate per block, scaled by 1e18\n**/\n    function borrowRatePerBlock() public view returns (uint256) {\n        return\n            interestRateModel.getBorrowRate(\n                getCashPrior(),\n                totalBorrows,\n                totalReserves\n            );\n    }\n\n    /**\n@notice Returns the current per-block supply interest rate for this ART\n@return The supply interest rate per block, scaled by 1e18\n**/\n    function supplyRatePerBlock() public view returns (uint256) {\n        return\n            interestRateModel.getSupplyRate(\n                getCashPrior(),\n                totalBorrows,\n                totalReserves,\n                reserveFactorMantissa\n            );\n    }\n\n    /**\n@notice getSupplyAPY roughly calculates the current APY for supplying using an average of 6500 blocks per day\n**/\n    function getSupplyAPY() public view returns (uint256) {\n        //multiply rate per block by blocks per year with an average of 6500 blocks a day per https://ycharts.com/indicators/ethereum_blocks_per_day\n        return supplyRatePerBlock().mul(2372500);\n    }\n\n    /**\n@notice getSupplyAPY roughly calculates the current APY for borrowing using an average of 6500 blocks per day\n**/\n    function getBorrowAPY() public view returns (uint256) {\n        //multiply rate per block by blocks per year with an average of 6500 blocks a day per https://ycharts.com/indicators/ethereum_blocks_per_day\n        return borrowRatePerBlock().mul(2372500);\n    }\n\n    /**\n@notice Returns the current total borrows plus accrued interest\n@return The total borrows with interest\n**/\n    function totalBorrowsCurrent() external returns (uint256) {\n        accrueInterest();\n        return totalBorrows;\n    }\n\n    /**\n@notice return prior exchange rate for front end viewing\n@return Calculated exchange rate scaled by 1e18\n**/\n    function exchangeRatePrior() public view returns (uint256) {\n        if (totalSupply() == 0) {\n            //If there are no tokens minted: exchangeRate = initialExchangeRate\n            return initialExchangeRateMantissa;\n        } else {\n            //Otherwise: exchangeRate = (totalCash + totalBorrows - totalReserves) / totalSupply\n            uint256 totalCash = getCashPrior(); //get contract asset balance\n            uint256 cashPlusBorrowsMinusReserves;\n            Exp memory exchangeRate;\n            MathError mathErr;\n            //calculate total value held by contract plus owed to contract\n            (mathErr, cashPlusBorrowsMinusReserves) = addThenSubUInt(\n                totalCash,\n                totalBorrows,\n                totalReserves\n            );\n            //calculate exchange rate\n            (mathErr, exchangeRate) = getExp(\n                cashPlusBorrowsMinusReserves,\n                totalSupply()\n            );\n            return (exchangeRate.mantissa);\n        }\n    }\n\n    /**\n@notice Accrue interest then return the up-to-date exchange rate\n@return Calculated exchange rate scaled by 1e18\n**/\n    function exchangeRateCurrent() public returns (uint256) {\n        accrueInterest();\n        if (totalSupply() == 0) {\n            //If there are no tokens minted: exchangeRate = initialExchangeRate\n            return initialExchangeRateMantissa;\n        } else {\n            //Otherwise: exchangeRate = (totalCash + totalBorrows - totalReserves) / totalSupply\n            uint256 totalCash = getCashPrior(); //get contract asset balance\n            uint256 cashPlusBorrowsMinusReserves;\n            Exp memory exchangeRate;\n            MathError mathErr;\n            //calculate total value held by contract plus owed to contract\n            (mathErr, cashPlusBorrowsMinusReserves) = addThenSubUInt(\n                totalCash,\n                totalBorrows,\n                totalReserves\n            );\n            //calculate exchange rate\n            (mathErr, exchangeRate) = getExp(\n                cashPlusBorrowsMinusReserves,\n                totalSupply()\n            );\n            return (exchangeRate.mantissa);\n        }\n    }\n\n    /**\n@notice Get cash balance of this cToken in the underlying asset in other contracts\n@return The quantity of underlying asset owned by this contract\n**/\n    function getCash() external view returns (uint256) {\n        return getCashPrior();\n    }\n\n    //struct used by mint to avoid stack too deep errors\n    struct MintLocalVars {\n        MathError mathErr;\n        uint256 exchangeRateMantissa;\n        uint256 mintTokens;\n    }\n\n    /**\n@notice mint is a modified function that only the owner of this contract(its MoneyMarketInstance) can call.\n        This function allows an amount of AskoRiskToken token to be minted when called.\n@param _account is the account the AHR is being minted to\n@param _amount is the amount of stablecoin being input\n**/\n    function mint(address _account, uint256 _amount) public onlyMMInstance {\n        //declare struct\n        MintLocalVars memory vars;\n        //retrieve exchange rate\n        vars.exchangeRateMantissa = exchangeRateCurrent();\n        //We get the current exchange rate and calculate the number of AHR to be minted:\n        //mintTokens = _amount / exchangeRate\n\n        (vars.mathErr, vars.mintTokens) = divScalarByExpTruncate(\n            _amount,\n            Exp({mantissa: vars.exchangeRateMantissa})\n        );\n        _mint(_account, vars.mintTokens);\n        emit Minted(_account, vars.mintTokens);\n    }\n\n    struct RedeemLocalVars {\n        MathError mathErr;\n        uint256 exchangeRateMantissa;\n        uint256 redeemAmount;\n    }\n\n    /**\n@notice redeem allows a user to redeem their AskoRiskToken for the appropriate amount of underlying asset\n@param _amount is the amount of Asset being requested in ART exhange\n**/\n    function redeem(uint256 _amount) public {\n        require(_amount != 0);\n\n        RedeemLocalVars memory vars;\n\n        //get exchange rate\n        vars.exchangeRateMantissa = exchangeRateCurrent();\n\n        if (isALR) {\n            uint256 USDCAmountOfAsset = UOF.getUnderlyingAssetPriceOfUSDC(\n                address(asset),\n                _amount\n            );\n            require(\n                USDCAmountOfAsset <=\n                    MMF.checkAvailibleCollateralValue(msg.sender, address(this))\n            );\n        }\n\n        _burn(msg.sender, convertToART(_amount));\n        /**\nWe calculate the exchange rate and the amount of underlying to be redeemed:\nredeemAmount = _amount x exchangeRateCurrent\n*/\n        (vars.mathErr, vars.redeemAmount) = divScalarByExpTruncate(\n            _amount,\n            Exp({mantissa: vars.exchangeRateMantissa})\n        );\n        //Fail if protocol has insufficient cash\n        require(getCashPrior() >= vars.redeemAmount);\n        //transfer the calculated amount of underlying asset to the msg.sender\n        asset.transfer(msg.sender, vars.redeemAmount);\n        emit Redeemed(msg.sender, _amount, vars.redeemAmount);\n    }\n\n    /**\n@notice burn is a modified function that only the owner of this contract(its MoneyMarketInstance) can call.\n        This function allows an amount of AskoRiskToken token to be burned from an address when called.\n@param _account is the account the AHR is being burned from\n@param _amount is the amount of AHR being burned\n**/\n    function burn(address _account, uint256 _amount) public onlyMMInstance {\n        _burn(_account, _amount);\n        emit Burn(_account, _amount);\n    }\n\n    //struct used by borrow function to avoid stack too deep errors\n    struct BorrowLocalVars {\n        MathError mathErr;\n        uint256 accountBorrows;\n        uint256 accountBorrowsNew;\n        uint256 totalBorrowsNew;\n    }\n\n    /**\n@notice Sender borrows assets from the protocol to their own address\n@param _borrowAmount The amount of the underlying asset to borrow\n*/\n    function borrow(uint256 _borrowAmount, address _borrower)\n        external\n        onlyMMInstance\n    {\n        //Fail if protocol has insufficient underlying cash\n        require(getCashPrior() > _borrowAmount, \"not enough token to borrow\");\n        //create local vars storage\n        BorrowLocalVars memory vars;\n        //calculate the new borrower and total borrow balances, failing on overflow:\n        vars.accountBorrows = borrowBalanceCurrent(_borrower);\n        //accountBorrowsNew = accountBorrows + borrowAmount\n        (vars.mathErr, vars.accountBorrowsNew) = addUInt(\n            vars.accountBorrows,\n            _borrowAmount\n        );\n        //totalBorrowsNew = totalBorrows + borrowAmount\n        (vars.mathErr, vars.totalBorrowsNew) = addUInt(\n            totalBorrows,\n            _borrowAmount\n        );\n        //We write the previously calculated values into storage\n        accountBorrows[_borrower].principal = vars.accountBorrowsNew;\n        accountBorrows[_borrower].interestIndex = borrowIndex;\n        totalBorrows = vars.totalBorrowsNew;\n        //send them their loaned asset\n        asset.transfer(_borrower, _borrowAmount);\n        emit Borrowed(_borrower, _borrowAmount);\n    }\n\n    struct RepayBorrowLocalVars {\n        MathError mathErr;\n        uint256 repayAmount;\n        uint256 borrowerIndex;\n        uint256 accountBorrows;\n        uint256 accountBorrowsNew;\n        uint256 totalBorrowsNew;\n    }\n\n    /**\n@notice Sender repays their own borrow\n@param repayAmount The amount to repay\n*/\n    function repayBorrow(uint256 repayAmount, address borrower)\n        external\n        onlyMMInstance\n        returns (uint256)\n    {\n        //create local vars storage\n        RepayBorrowLocalVars memory vars;\n        //We fetch the amount the borrower owes, with accumulated interest\n        vars.accountBorrows = borrowBalanceCurrent(borrower);\n        //We remember the original borrowerIndex for verification purposes\n        vars.borrowerIndex = accountBorrows[borrower].interestIndex;\n        //If repayAmount == 0, repayAmount = accountBorrows\n\n        if (repayAmount == 0) {\n            vars.repayAmount = vars.accountBorrows;\n        } else {\n            vars.repayAmount = repayAmount;\n        }\n\n        //We calculate the new borrower and total borrow balances\n\n        //accountBorrowsNew = accountBorrows - actualRepayAmount\n        (vars.mathErr, vars.accountBorrowsNew) = subUInt(\n            vars.accountBorrows,\n            vars.repayAmount\n        );\n        //totalBorrowsNew = totalBorrows - actualRepayAmount\n        (vars.mathErr, vars.totalBorrowsNew) = subUInt(\n            totalBorrows,\n            vars.repayAmount\n        );\n        /* We write the previously calculated values into storage */\n        accountBorrows[borrower].principal = vars.accountBorrowsNew;\n        accountBorrows[borrower].interestIndex = vars.borrowerIndex;\n        totalBorrows = vars.totalBorrowsNew;\n        emit Repayed(borrower, vars.repayAmount);\n        return vars.repayAmount;\n    }\n\n    /**\n@notice getAssetAdd allows for easy retrieval of a Money Markets underlying asset's address\n**/\n    function getAssetAdd() public view returns (address) {\n        return address(asset);\n    }\n\n    function getUSDCWorthOfART(uint256 _amount) public returns (uint256) {\n        uint256 assetValOfArt = convertFromART(_amount);\n        //get asset price of USDC\n        uint256 USDCAmountOfAsset = UOF.getUnderlyingPriceofAsset(\n            address(asset),\n            assetValOfArt\n        );\n\n        return USDCAmountOfAsset;\n    }\n\n    function viewUSDCWorthOfART(uint256 _amount) public view returns (uint256) {\n        uint256 assetValOfArt = viewConvertFromART(_amount);\n        //get asset price of USDC\n        uint256 USDCAmountOfAsset = UOF.viewUnderlyingPriceofAsset(\n            address(asset),\n            assetValOfArt\n        );\n        //return one ART USD value\n        return USDCAmountOfAsset;\n    }\n\n    function convertToART(uint256 _amountOfAsset) public returns (uint256) {\n        //We get the current exchange rate and calculate the number of AHR to be minted:\n        //mintTokens = _amount / exchangeRate\n        MathError mathErr;\n        uint256 artTokens;\n        (mathErr, artTokens) = divScalarByExpTruncate(\n            _amountOfAsset,\n            Exp({mantissa: exchangeRateCurrent()})\n        );\n        return artTokens;\n    }\n\n    function viewConvertToART(uint256 _amountOfAsset)\n        public\n        view\n        returns (uint256)\n    {\n        //We get the current exchange rate and calculate the number of AHR to be minted:\n        //mintTokens = _amount / exchangeRate\n        MathError mathErr;\n        uint256 artTokens;\n        (mathErr, artTokens) = divScalarByExpTruncate(\n            _amountOfAsset,\n            Exp({mantissa: exchangeRatePrior()})\n        );\n        return artTokens;\n    }\n\n    function convertFromART(uint256 _amountOfART) public returns (uint256) {\n        //We get the current exchange rate and calculate the number of AHR to be minted:\n        //mintTokens = _amount / exchangeRate\n        MathError mathErr;\n        uint256 artTokens;\n        (mathErr, artTokens) = mulScalarTruncate(\n            Exp({mantissa: exchangeRateCurrent()}),\n            _amountOfART\n        );\n        return artTokens;\n    }\n\n    function viewConvertFromART(uint256 _amountOfART)\n        public\n        view\n        returns (uint256)\n    {\n        //We get the current exchange rate and calculate the number of AHR to be minted:\n        //mintTokens = _amount / exchangeRate\n        MathError mathErr;\n        uint256 artTokens;\n        (mathErr, artTokens) = mulScalarTruncate(\n            Exp({mantissa: exchangeRatePrior()}),\n            _amountOfART\n        );\n        return artTokens;\n    }\n\n    function _liquidate(\n        uint256 _liquidateValue,\n        address _borrower,\n        address _liquidator\n    ) public {\n        //require that this function can only be called by control contract\n        require(msg.sender == address(MMF));\n        //get asset amount of the input USDC price\n        uint256 assetVal = UOF.getUnderlyingAssetPriceOfUSDC(\n            address(asset),\n            _liquidateValue\n        );\n        //get ART value of the above returned asset value\n        uint256 artValue = convertToART(assetVal);\n        //burn the ART from the borrower\n        _burn(_borrower, artValue);\n        //transfer unlocked asset to liquidator\n        asset.transfer(_liquidator, assetVal);\n    }\n\n    function _updateInterestModel(address _newModel) public onlyOwner {\n        interestRateModel = InterestRateModel(_newModel);\n    }\n\n    function setReserveRatio(uint256 _RR) public onlyOwner {\n        reserveFactorMantissa = _RR;\n    }\n}\n",
  "sourcePath": "/home/stan36/repos/Askolend/AskoLend-contracts/contracts/AskoRiskToken.sol",
  "compiler": {
    "name": "solc",
    "version": "0.6.6+commit.6c089d02.Emscripten.clang"
  },
  "schemaVersion": "3.3.2",
  "updatedAt": "2021-01-08T04:13:17.622Z",
  "devdoc": {
    "methods": {
      "accrueInterest()": {
        "details": "This calculates interest accrued from the last checkpointed block up to the current block and writes new checkpoint to storage."
      },
      "allowance(address,address)": {
        "details": "See {IERC20-allowance}."
      },
      "approve(address,uint256)": {
        "details": "See {IERC20-approve}.     * Requirements:     * - `spender` cannot be the zero address."
      },
      "balanceOf(address)": {
        "details": "See {IERC20-balanceOf}."
      },
      "balanceOfUnderlying(address)": {
        "params": {
          "owner": "The address of the account to query"
        },
        "returns": {
          "_0": "The amount of underlying owned by `owner`"
        }
      },
      "balanceOfUnderlyingPrior(address)": {
        "params": {
          "owner": "The address of the account to query"
        },
        "returns": {
          "_0": "The amount of underlying owned by `owner`*"
        }
      },
      "borrow(uint256,address)": {
        "params": {
          "_borrowAmount": "The amount of the underlying asset to borrow"
        }
      },
      "borrowBalanceCurrent(address)": {
        "params": {
          "account": "The address whose balance should be calculated after updating borrowIndex"
        },
        "returns": {
          "_0": "The calculated balance*"
        }
      },
      "borrowBalancePrior(address)": {
        "params": {
          "account": "The address whose balance should be calculated after updating borrowIndex"
        },
        "returns": {
          "_0": "The calculated balance*"
        }
      },
      "burn(address,uint256)": {
        "params": {
          "_account": "is the account the AHR is being burned from",
          "_amount": "is the amount of AHR being burned*"
        }
      },
      "constructor": {
        "details": "these two perameters become hyphenated with \"AHR\" during this process( e.x: AHR-wBitcoin, AHR-wBTC)*",
        "params": {
          "_asset": "is the address of the underlying asset for a specific ART contract",
          "_initialExchangeRate": "is the initial exchange rate mantissa for a specific ART",
          "_interestRateModel": "is the address of the  interest rate model for a specific ART",
          "_isALR": "signifies whether or not a specific AskoRiskToken instance is a high risk or low risk token.",
          "_oracleFactory": "is teh address of the uniswap oracle factory contract",
          "_tokenName": "is the name of the asset the MoneyMarketInstance that owns this contract represents",
          "_tokenSymbol": "is the symbol of the asset the MoneyMarketInstance that owns this contract represents"
        }
      },
      "decimals()": {
        "details": "Returns the number of decimals used to get its user representation. For example, if `decimals` equals `2`, a balance of `505` tokens should be displayed to a user as `5,05` (`505 / 10 ** 2`).     * Tokens usually opt for a value of 18, imitating the relationship between Ether and Wei. This is the value {ERC20} uses, unless {_setupDecimals} is called.     * NOTE: This information is only used for _display_ purposes: it in no way affects any of the arithmetic of the contract, including {IERC20-balanceOf} and {IERC20-transfer}."
      },
      "decreaseAllowance(address,uint256)": {
        "details": "Atomically decreases the allowance granted to `spender` by the caller.     * This is an alternative to {approve} that can be used as a mitigation for problems described in {IERC20-approve}.     * Emits an {Approval} event indicating the updated allowance.     * Requirements:     * - `spender` cannot be the zero address. - `spender` must have allowance for the caller of at least `subtractedValue`."
      },
      "getAccountSnapshot(address)": {
        "details": "This is used to perform liquidity checks.",
        "params": {
          "account": "Address of the account to snapshot"
        },
        "returns": {
          "_0": "(token balance, borrow balance, exchange rate mantissa)*"
        }
      },
      "increaseAllowance(address,uint256)": {
        "details": "Atomically increases the allowance granted to `spender` by the caller.     * This is an alternative to {approve} that can be used as a mitigation for problems described in {IERC20-approve}.     * Emits an {Approval} event indicating the updated allowance.     * Requirements:     * - `spender` cannot be the zero address."
      },
      "mint(address,uint256)": {
        "params": {
          "_account": "is the account the AHR is being minted to",
          "_amount": "is the amount of stablecoin being input*"
        }
      },
      "name()": {
        "details": "Returns the name of the token."
      },
      "owner()": {
        "details": "Returns the address of the current owner."
      },
      "redeem(uint256)": {
        "params": {
          "_amount": "is the amount of Asset being requested in ART exhange*"
        }
      },
      "renounceOwnership()": {
        "details": "Leaves the contract without owner. It will not be possible to call `onlyOwner` functions anymore. Can only be called by the current owner.     * NOTE: Renouncing ownership will leave the contract without an owner, thereby removing any functionality that is only available to the owner."
      },
      "repayBorrow(uint256,address)": {
        "params": {
          "repayAmount": "The amount to repay"
        }
      },
      "symbol()": {
        "details": "Returns the symbol of the token, usually a shorter version of the name."
      },
      "totalSupply()": {
        "details": "See {IERC20-totalSupply}."
      },
      "transferFrom(address,address,uint256)": {
        "details": "See {IERC20-transferFrom}.     * Emits an {Approval} event indicating the updated allowance. This is not required by the EIP. See the note at the beginning of {ERC20};     * Requirements: - `sender` and `recipient` cannot be the zero address. - `sender` must have a balance of at least `amount`. - the caller must have allowance for ``sender``'s tokens of at least `amount`."
      },
      "transferOwnership(address)": {
        "details": "Transfers ownership of the contract to a new account (`newOwner`). Can only be called by the current owner."
      }
    }
  },
  "userdoc": {
    "methods": {
      "accrueInterest()": {
        "notice": "Applies accrued interest to total borrows and reserves"
      },
      "balanceOfUnderlying(address)": {
        "notice": "Get the underlying balance of the `owners`"
      },
      "balanceOfUnderlyingPrior(address)": {
        "notice": "Get the underlying balance of the `owners`"
      },
      "borrow(uint256,address)": {
        "notice": "Sender borrows assets from the protocol to their own address"
      },
      "borrowBalanceCurrent(address)": {
        "notice": "Accrue interest to updated borrowIndex and then calculate account's borrow balance using the updated borrowIndex"
      },
      "borrowBalancePrior(address)": {
        "notice": "returns last calculated account's borrow balance using the prior borrowIndex"
      },
      "borrowRatePerBlock()": {
        "notice": "Returns the current per-block borrow interest rate for this ART"
      },
      "burn(address,uint256)": {
        "notice": "burn is a modified function that only the owner of this contract(its MoneyMarketInstance) can call. This function allows an amount of AskoRiskToken token to be burned from an address when called."
      },
      "constructor": "the constructor function is fired during the contract deployment process. The constructor can only be fired once and is used to set up the name, symbol, and decimal variables for the AskoRiskToken contract.",
      "exchangeRateCurrent()": {
        "notice": "Accrue interest then return the up-to-date exchange rate"
      },
      "exchangeRatePrior()": {
        "notice": "return prior exchange rate for front end viewing"
      },
      "getAccountSnapshot(address)": {
        "notice": "Get a snapshot of the account's balances, and the cached exchange rate"
      },
      "getAssetAdd()": {
        "notice": "getAssetAdd allows for easy retrieval of a Money Markets underlying asset's address*"
      },
      "getBorrowAPY()": {
        "notice": "getSupplyAPY roughly calculates the current APY for borrowing using an average of 6500 blocks per day*"
      },
      "getCash()": {
        "notice": "Get cash balance of this cToken in the underlying asset in other contracts"
      },
      "getSupplyAPY()": {
        "notice": "getSupplyAPY roughly calculates the current APY for supplying using an average of 6500 blocks per day*"
      },
      "mint(address,uint256)": {
        "notice": "mint is a modified function that only the owner of this contract(its MoneyMarketInstance) can call. This function allows an amount of AskoRiskToken token to be minted when called."
      },
      "redeem(uint256)": {
        "notice": "redeem allows a user to redeem their AskoRiskToken for the appropriate amount of underlying asset"
      },
      "repayBorrow(uint256,address)": {
        "notice": "Sender repays their own borrow"
      },
      "supplyRatePerBlock()": {
        "notice": "Returns the current per-block supply interest rate for this ART"
      },
      "totalBorrowsCurrent()": {
        "notice": "Returns the current total borrows plus accrued interest"
      },
      "transfer(address,uint256)": {
        "notice": "transfer is an override function that effectivly makes transfering a ART impossible. this is necissary to avoid a user taking out a loan using his ALR as collateral and then transfering his ALR so his loan cant be liquidated.*"
      }
    },
    "notice": "The AskoRiskToken contract is an ERC20 contract designed to be owned by a MoneyMarketInstance contract. This contract's token represents a Risk lending pool in a MoneyMarketInstance contract. This contract uses the OpenZeppelin contract Library to inherit functions from Ownable.sol && ERC20.sol*"
  }
}