{
  "contractName": "CErc20Delegate",
  "abi": [
    {
      "inputs": [],
      "payable": false,
      "stateMutability": "nonpayable",
      "type": "constructor"
    },
    {
      "anonymous": false,
      "inputs": [
        {
          "indexed": false,
          "internalType": "uint256",
          "name": "cashPrior",
          "type": "uint256"
        },
        {
          "indexed": false,
          "internalType": "uint256",
          "name": "interestAccumulated",
          "type": "uint256"
        },
        {
          "indexed": false,
          "internalType": "uint256",
          "name": "borrowIndex",
          "type": "uint256"
        },
        {
          "indexed": false,
          "internalType": "uint256",
          "name": "totalBorrows",
          "type": "uint256"
        }
      ],
      "name": "AccrueInterest",
      "type": "event"
    },
    {
      "anonymous": false,
      "inputs": [
        {
          "indexed": true,
          "internalType": "address",
          "name": "owner",
          "type": "address"
        },
        {
          "indexed": true,
          "internalType": "address",
          "name": "spender",
          "type": "address"
        },
        {
          "indexed": false,
          "internalType": "uint256",
          "name": "amount",
          "type": "uint256"
        }
      ],
      "name": "Approval",
      "type": "event"
    },
    {
      "anonymous": false,
      "inputs": [
        {
          "indexed": false,
          "internalType": "address",
          "name": "borrower",
          "type": "address"
        },
        {
          "indexed": false,
          "internalType": "uint256",
          "name": "borrowAmount",
          "type": "uint256"
        },
        {
          "indexed": false,
          "internalType": "uint256",
          "name": "accountBorrows",
          "type": "uint256"
        },
        {
          "indexed": false,
          "internalType": "uint256",
          "name": "totalBorrows",
          "type": "uint256"
        }
      ],
      "name": "Borrow",
      "type": "event"
    },
    {
      "anonymous": false,
      "inputs": [
        {
          "indexed": false,
          "internalType": "uint256",
          "name": "error",
          "type": "uint256"
        },
        {
          "indexed": false,
          "internalType": "uint256",
          "name": "info",
          "type": "uint256"
        },
        {
          "indexed": false,
          "internalType": "uint256",
          "name": "detail",
          "type": "uint256"
        }
      ],
      "name": "Failure",
      "type": "event"
    },
    {
      "anonymous": false,
      "inputs": [
        {
          "indexed": false,
          "internalType": "address",
          "name": "liquidator",
          "type": "address"
        },
        {
          "indexed": false,
          "internalType": "address",
          "name": "borrower",
          "type": "address"
        },
        {
          "indexed": false,
          "internalType": "uint256",
          "name": "repayAmount",
          "type": "uint256"
        },
        {
          "indexed": false,
          "internalType": "address",
          "name": "cTokenCollateral",
          "type": "address"
        },
        {
          "indexed": false,
          "internalType": "uint256",
          "name": "seizeTokens",
          "type": "uint256"
        }
      ],
      "name": "LiquidateBorrow",
      "type": "event"
    },
    {
      "anonymous": false,
      "inputs": [
        {
          "indexed": false,
          "internalType": "address",
          "name": "minter",
          "type": "address"
        },
        {
          "indexed": false,
          "internalType": "uint256",
          "name": "mintAmount",
          "type": "uint256"
        },
        {
          "indexed": false,
          "internalType": "uint256",
          "name": "mintTokens",
          "type": "uint256"
        }
      ],
      "name": "Mint",
      "type": "event"
    },
    {
      "anonymous": false,
      "inputs": [
        {
          "indexed": false,
          "internalType": "address",
          "name": "oldAdmin",
          "type": "address"
        },
        {
          "indexed": false,
          "internalType": "address",
          "name": "newAdmin",
          "type": "address"
        }
      ],
      "name": "NewAdmin",
      "type": "event"
    },
    {
      "anonymous": false,
      "inputs": [
        {
          "indexed": false,
          "internalType": "contract ComptrollerInterface",
          "name": "oldComptroller",
          "type": "address"
        },
        {
          "indexed": false,
          "internalType": "contract ComptrollerInterface",
          "name": "newComptroller",
          "type": "address"
        }
      ],
      "name": "NewComptroller",
      "type": "event"
    },
    {
      "anonymous": false,
      "inputs": [
        {
          "indexed": false,
          "internalType": "contract InterestRateModel",
          "name": "oldInterestRateModel",
          "type": "address"
        },
        {
          "indexed": false,
          "internalType": "contract InterestRateModel",
          "name": "newInterestRateModel",
          "type": "address"
        }
      ],
      "name": "NewMarketInterestRateModel",
      "type": "event"
    },
    {
      "anonymous": false,
      "inputs": [
        {
          "indexed": false,
          "internalType": "address",
          "name": "oldPendingAdmin",
          "type": "address"
        },
        {
          "indexed": false,
          "internalType": "address",
          "name": "newPendingAdmin",
          "type": "address"
        }
      ],
      "name": "NewPendingAdmin",
      "type": "event"
    },
    {
      "anonymous": false,
      "inputs": [
        {
          "indexed": false,
          "internalType": "uint256",
          "name": "oldReserveFactorMantissa",
          "type": "uint256"
        },
        {
          "indexed": false,
          "internalType": "uint256",
          "name": "newReserveFactorMantissa",
          "type": "uint256"
        }
      ],
      "name": "NewReserveFactor",
      "type": "event"
    },
    {
      "anonymous": false,
      "inputs": [
        {
          "indexed": false,
          "internalType": "address",
          "name": "redeemer",
          "type": "address"
        },
        {
          "indexed": false,
          "internalType": "uint256",
          "name": "redeemAmount",
          "type": "uint256"
        },
        {
          "indexed": false,
          "internalType": "uint256",
          "name": "redeemTokens",
          "type": "uint256"
        }
      ],
      "name": "Redeem",
      "type": "event"
    },
    {
      "anonymous": false,
      "inputs": [
        {
          "indexed": false,
          "internalType": "address",
          "name": "payer",
          "type": "address"
        },
        {
          "indexed": false,
          "internalType": "address",
          "name": "borrower",
          "type": "address"
        },
        {
          "indexed": false,
          "internalType": "uint256",
          "name": "repayAmount",
          "type": "uint256"
        },
        {
          "indexed": false,
          "internalType": "uint256",
          "name": "accountBorrows",
          "type": "uint256"
        },
        {
          "indexed": false,
          "internalType": "uint256",
          "name": "totalBorrows",
          "type": "uint256"
        }
      ],
      "name": "RepayBorrow",
      "type": "event"
    },
    {
      "anonymous": false,
      "inputs": [
        {
          "indexed": false,
          "internalType": "address",
          "name": "benefactor",
          "type": "address"
        },
        {
          "indexed": false,
          "internalType": "uint256",
          "name": "addAmount",
          "type": "uint256"
        },
        {
          "indexed": false,
          "internalType": "uint256",
          "name": "newTotalReserves",
          "type": "uint256"
        }
      ],
      "name": "ReservesAdded",
      "type": "event"
    },
    {
      "anonymous": false,
      "inputs": [
        {
          "indexed": false,
          "internalType": "address",
          "name": "admin",
          "type": "address"
        },
        {
          "indexed": false,
          "internalType": "uint256",
          "name": "reduceAmount",
          "type": "uint256"
        },
        {
          "indexed": false,
          "internalType": "uint256",
          "name": "newTotalReserves",
          "type": "uint256"
        }
      ],
      "name": "ReservesReduced",
      "type": "event"
    },
    {
      "anonymous": false,
      "inputs": [
        {
          "indexed": true,
          "internalType": "address",
          "name": "from",
          "type": "address"
        },
        {
          "indexed": true,
          "internalType": "address",
          "name": "to",
          "type": "address"
        },
        {
          "indexed": false,
          "internalType": "uint256",
          "name": "amount",
          "type": "uint256"
        }
      ],
      "name": "Transfer",
      "type": "event"
    },
    {
      "constant": true,
      "inputs": [],
      "name": "_MMI",
      "outputs": [
        {
          "internalType": "contract MoneyMarketInstance",
          "name": "",
          "type": "address"
        }
      ],
      "payable": false,
      "stateMutability": "view",
      "type": "function"
    },
    {
      "constant": false,
      "inputs": [],
      "name": "_acceptAdmin",
      "outputs": [
        {
          "internalType": "uint256",
          "name": "",
          "type": "uint256"
        }
      ],
      "payable": false,
      "stateMutability": "nonpayable",
      "type": "function"
    },
    {
      "constant": false,
      "inputs": [
        {
          "internalType": "uint256",
          "name": "addAmount",
          "type": "uint256"
        }
      ],
      "name": "_addReserves",
      "outputs": [
        {
          "internalType": "uint256",
          "name": "",
          "type": "uint256"
        }
      ],
      "payable": false,
      "stateMutability": "nonpayable",
      "type": "function"
    },
    {
      "constant": false,
      "inputs": [
        {
          "internalType": "uint256",
          "name": "reduceAmount",
          "type": "uint256"
        }
      ],
      "name": "_reduceReserves",
      "outputs": [
        {
          "internalType": "uint256",
          "name": "",
          "type": "uint256"
        }
      ],
      "payable": false,
      "stateMutability": "nonpayable",
      "type": "function"
    },
    {
      "constant": false,
      "inputs": [
        {
          "internalType": "contract ComptrollerInterface",
          "name": "newComptroller",
          "type": "address"
        }
      ],
      "name": "_setComptroller",
      "outputs": [
        {
          "internalType": "uint256",
          "name": "",
          "type": "uint256"
        }
      ],
      "payable": false,
      "stateMutability": "nonpayable",
      "type": "function"
    },
    {
      "constant": false,
      "inputs": [
        {
          "internalType": "contract InterestRateModel",
          "name": "newInterestRateModel",
          "type": "address"
        }
      ],
      "name": "_setInterestRateModel",
      "outputs": [
        {
          "internalType": "uint256",
          "name": "",
          "type": "uint256"
        }
      ],
      "payable": false,
      "stateMutability": "nonpayable",
      "type": "function"
    },
    {
      "constant": false,
      "inputs": [
        {
          "internalType": "address payable",
          "name": "newPendingAdmin",
          "type": "address"
        }
      ],
      "name": "_setPendingAdmin",
      "outputs": [
        {
          "internalType": "uint256",
          "name": "",
          "type": "uint256"
        }
      ],
      "payable": false,
      "stateMutability": "nonpayable",
      "type": "function"
    },
    {
      "constant": false,
      "inputs": [
        {
          "internalType": "uint256",
          "name": "newReserveFactorMantissa",
          "type": "uint256"
        }
      ],
      "name": "_setReserveFactor",
      "outputs": [
        {
          "internalType": "uint256",
          "name": "",
          "type": "uint256"
        }
      ],
      "payable": false,
      "stateMutability": "nonpayable",
      "type": "function"
    },
    {
      "constant": true,
      "inputs": [],
      "name": "accrualBlockNumber",
      "outputs": [
        {
          "internalType": "uint256",
          "name": "",
          "type": "uint256"
        }
      ],
      "payable": false,
      "stateMutability": "view",
      "type": "function"
    },
    {
      "constant": false,
      "inputs": [],
      "name": "accrueInterest",
      "outputs": [
        {
          "internalType": "uint256",
          "name": "",
          "type": "uint256"
        }
      ],
      "payable": false,
      "stateMutability": "nonpayable",
      "type": "function"
    },
    {
      "constant": true,
      "inputs": [],
      "name": "admin",
      "outputs": [
        {
          "internalType": "address payable",
          "name": "",
          "type": "address"
        }
      ],
      "payable": false,
      "stateMutability": "view",
      "type": "function"
    },
    {
      "constant": true,
      "inputs": [
        {
          "internalType": "address",
          "name": "owner",
          "type": "address"
        },
        {
          "internalType": "address",
          "name": "spender",
          "type": "address"
        }
      ],
      "name": "allowance",
      "outputs": [
        {
          "internalType": "uint256",
          "name": "",
          "type": "uint256"
        }
      ],
      "payable": false,
      "stateMutability": "view",
      "type": "function"
    },
    {
      "constant": false,
      "inputs": [
        {
          "internalType": "address",
          "name": "spender",
          "type": "address"
        },
        {
          "internalType": "uint256",
          "name": "amount",
          "type": "uint256"
        }
      ],
      "name": "approve",
      "outputs": [
        {
          "internalType": "bool",
          "name": "",
          "type": "bool"
        }
      ],
      "payable": false,
      "stateMutability": "nonpayable",
      "type": "function"
    },
    {
      "constant": true,
      "inputs": [
        {
          "internalType": "address",
          "name": "owner",
          "type": "address"
        }
      ],
      "name": "balanceOf",
      "outputs": [
        {
          "internalType": "uint256",
          "name": "",
          "type": "uint256"
        }
      ],
      "payable": false,
      "stateMutability": "view",
      "type": "function"
    },
    {
      "constant": false,
      "inputs": [
        {
          "internalType": "address",
          "name": "owner",
          "type": "address"
        }
      ],
      "name": "balanceOfUnderlying",
      "outputs": [
        {
          "internalType": "uint256",
          "name": "",
          "type": "uint256"
        }
      ],
      "payable": false,
      "stateMutability": "nonpayable",
      "type": "function"
    },
    {
      "constant": false,
      "inputs": [
        {
          "internalType": "uint256",
          "name": "borrowAmount",
          "type": "uint256"
        }
      ],
      "name": "borrow",
      "outputs": [
        {
          "internalType": "uint256",
          "name": "",
          "type": "uint256"
        }
      ],
      "payable": false,
      "stateMutability": "nonpayable",
      "type": "function"
    },
    {
      "constant": false,
      "inputs": [
        {
          "internalType": "address",
          "name": "account",
          "type": "address"
        }
      ],
      "name": "borrowBalanceCurrent",
      "outputs": [
        {
          "internalType": "uint256",
          "name": "",
          "type": "uint256"
        }
      ],
      "payable": false,
      "stateMutability": "nonpayable",
      "type": "function"
    },
    {
      "constant": true,
      "inputs": [
        {
          "internalType": "address",
          "name": "account",
          "type": "address"
        }
      ],
      "name": "borrowBalanceStored",
      "outputs": [
        {
          "internalType": "uint256",
          "name": "",
          "type": "uint256"
        }
      ],
      "payable": false,
      "stateMutability": "view",
      "type": "function"
    },
    {
      "constant": true,
      "inputs": [],
      "name": "borrowIndex",
      "outputs": [
        {
          "internalType": "uint256",
          "name": "",
          "type": "uint256"
        }
      ],
      "payable": false,
      "stateMutability": "view",
      "type": "function"
    },
    {
      "constant": true,
      "inputs": [],
      "name": "borrowRatePerBlock",
      "outputs": [
        {
          "internalType": "uint256",
          "name": "",
          "type": "uint256"
        }
      ],
      "payable": false,
      "stateMutability": "view",
      "type": "function"
    },
    {
      "constant": true,
      "inputs": [],
      "name": "comptroller",
      "outputs": [
        {
          "internalType": "contract ComptrollerInterface",
          "name": "",
          "type": "address"
        }
      ],
      "payable": false,
      "stateMutability": "view",
      "type": "function"
    },
    {
      "constant": true,
      "inputs": [],
      "name": "decimals",
      "outputs": [
        {
          "internalType": "uint8",
          "name": "",
          "type": "uint8"
        }
      ],
      "payable": false,
      "stateMutability": "view",
      "type": "function"
    },
    {
      "constant": false,
      "inputs": [],
      "name": "exchangeRateCurrent",
      "outputs": [
        {
          "internalType": "uint256",
          "name": "",
          "type": "uint256"
        }
      ],
      "payable": false,
      "stateMutability": "nonpayable",
      "type": "function"
    },
    {
      "constant": true,
      "inputs": [],
      "name": "exchangeRateStored",
      "outputs": [
        {
          "internalType": "uint256",
          "name": "",
          "type": "uint256"
        }
      ],
      "payable": false,
      "stateMutability": "view",
      "type": "function"
    },
    {
      "constant": true,
      "inputs": [
        {
          "internalType": "address",
          "name": "account",
          "type": "address"
        }
      ],
      "name": "getAccountSnapshot",
      "outputs": [
        {
          "internalType": "uint256",
          "name": "",
          "type": "uint256"
        },
        {
          "internalType": "uint256",
          "name": "",
          "type": "uint256"
        },
        {
          "internalType": "uint256",
          "name": "",
          "type": "uint256"
        },
        {
          "internalType": "uint256",
          "name": "",
          "type": "uint256"
        }
      ],
      "payable": false,
      "stateMutability": "view",
      "type": "function"
    },
    {
      "constant": true,
      "inputs": [],
      "name": "getCash",
      "outputs": [
        {
          "internalType": "uint256",
          "name": "",
          "type": "uint256"
        }
      ],
      "payable": false,
      "stateMutability": "view",
      "type": "function"
    },
    {
      "constant": true,
      "inputs": [],
      "name": "implementation",
      "outputs": [
        {
          "internalType": "address",
          "name": "",
          "type": "address"
        }
      ],
      "payable": false,
      "stateMutability": "view",
      "type": "function"
    },
    {
      "constant": false,
      "inputs": [
        {
          "internalType": "address",
          "name": "underlying_",
          "type": "address"
        },
        {
          "internalType": "contract ComptrollerInterface",
          "name": "comptroller_",
          "type": "address"
        },
        {
          "internalType": "contract InterestRateModel",
          "name": "interestRateModel_",
          "type": "address"
        },
        {
          "internalType": "uint256",
          "name": "initialExchangeRateMantissa_",
          "type": "uint256"
        },
        {
          "internalType": "string",
          "name": "name_",
          "type": "string"
        },
        {
          "internalType": "string",
          "name": "symbol_",
          "type": "string"
        },
        {
          "internalType": "uint8",
          "name": "decimals_",
          "type": "uint8"
        },
        {
          "internalType": "address payable",
          "name": "admin_",
          "type": "address"
        },
        {
          "internalType": "bool",
          "name": "_isALR",
          "type": "bool"
        }
      ],
      "name": "initialize",
      "outputs": [],
      "payable": false,
      "stateMutability": "nonpayable",
      "type": "function"
    },
    {
      "constant": false,
      "inputs": [
        {
          "internalType": "contract ComptrollerInterface",
          "name": "comptroller_",
          "type": "address"
        },
        {
          "internalType": "contract InterestRateModel",
          "name": "interestRateModel_",
          "type": "address"
        },
        {
          "internalType": "uint256",
          "name": "initialExchangeRateMantissa_",
          "type": "uint256"
        },
        {
          "internalType": "string",
          "name": "name_",
          "type": "string"
        },
        {
          "internalType": "string",
          "name": "symbol_",
          "type": "string"
        },
        {
          "internalType": "uint8",
          "name": "decimals_",
          "type": "uint8"
        }
      ],
      "name": "initialize",
      "outputs": [],
      "payable": false,
      "stateMutability": "nonpayable",
      "type": "function"
    },
    {
      "constant": true,
      "inputs": [],
      "name": "interestRateModel",
      "outputs": [
        {
          "internalType": "contract InterestRateModel",
          "name": "",
          "type": "address"
        }
      ],
      "payable": false,
      "stateMutability": "view",
      "type": "function"
    },
    {
      "constant": true,
      "inputs": [],
      "name": "isALR",
      "outputs": [
        {
          "internalType": "bool",
          "name": "",
          "type": "bool"
        }
      ],
      "payable": false,
      "stateMutability": "view",
      "type": "function"
    },
    {
      "constant": true,
      "inputs": [],
      "name": "isCToken",
      "outputs": [
        {
          "internalType": "bool",
          "name": "",
          "type": "bool"
        }
      ],
      "payable": false,
      "stateMutability": "view",
      "type": "function"
    },
    {
      "constant": false,
      "inputs": [
        {
          "internalType": "address",
          "name": "borrower",
          "type": "address"
        },
        {
          "internalType": "uint256",
          "name": "repayAmount",
          "type": "uint256"
        },
        {
          "internalType": "contract CTokenInterface",
          "name": "cTokenCollateral",
          "type": "address"
        }
      ],
      "name": "liquidateBorrow",
      "outputs": [
        {
          "internalType": "uint256",
          "name": "",
          "type": "uint256"
        }
      ],
      "payable": false,
      "stateMutability": "nonpayable",
      "type": "function"
    },
    {
      "constant": false,
      "inputs": [
        {
          "internalType": "uint256",
          "name": "mintAmount",
          "type": "uint256"
        }
      ],
      "name": "mint",
      "outputs": [
        {
          "internalType": "uint256",
          "name": "",
          "type": "uint256"
        }
      ],
      "payable": false,
      "stateMutability": "nonpayable",
      "type": "function"
    },
    {
      "constant": true,
      "inputs": [],
      "name": "name",
      "outputs": [
        {
          "internalType": "string",
          "name": "",
          "type": "string"
        }
      ],
      "payable": false,
      "stateMutability": "view",
      "type": "function"
    },
    {
      "constant": true,
      "inputs": [],
      "name": "pendingAdmin",
      "outputs": [
        {
          "internalType": "address payable",
          "name": "",
          "type": "address"
        }
      ],
      "payable": false,
      "stateMutability": "view",
      "type": "function"
    },
    {
      "constant": false,
      "inputs": [
        {
          "internalType": "uint256",
          "name": "redeemTokens",
          "type": "uint256"
        }
      ],
      "name": "redeem",
      "outputs": [
        {
          "internalType": "uint256",
          "name": "",
          "type": "uint256"
        }
      ],
      "payable": false,
      "stateMutability": "nonpayable",
      "type": "function"
    },
    {
      "constant": false,
      "inputs": [
        {
          "internalType": "uint256",
          "name": "redeemAmount",
          "type": "uint256"
        }
      ],
      "name": "redeemUnderlying",
      "outputs": [
        {
          "internalType": "uint256",
          "name": "",
          "type": "uint256"
        }
      ],
      "payable": false,
      "stateMutability": "nonpayable",
      "type": "function"
    },
    {
      "constant": false,
      "inputs": [
        {
          "internalType": "uint256",
          "name": "repayAmount",
          "type": "uint256"
        }
      ],
      "name": "repayBorrow",
      "outputs": [
        {
          "internalType": "uint256",
          "name": "",
          "type": "uint256"
        }
      ],
      "payable": false,
      "stateMutability": "nonpayable",
      "type": "function"
    },
    {
      "constant": false,
      "inputs": [
        {
          "internalType": "address",
          "name": "borrower",
          "type": "address"
        },
        {
          "internalType": "uint256",
          "name": "repayAmount",
          "type": "uint256"
        }
      ],
      "name": "repayBorrowBehalf",
      "outputs": [
        {
          "internalType": "uint256",
          "name": "",
          "type": "uint256"
        }
      ],
      "payable": false,
      "stateMutability": "nonpayable",
      "type": "function"
    },
    {
      "constant": true,
      "inputs": [],
      "name": "reserveFactorMantissa",
      "outputs": [
        {
          "internalType": "uint256",
          "name": "",
          "type": "uint256"
        }
      ],
      "payable": false,
      "stateMutability": "view",
      "type": "function"
    },
    {
      "constant": false,
      "inputs": [
        {
          "internalType": "address",
          "name": "liquidator",
          "type": "address"
        },
        {
          "internalType": "address",
          "name": "borrower",
          "type": "address"
        },
        {
          "internalType": "uint256",
          "name": "seizeTokens",
          "type": "uint256"
        }
      ],
      "name": "seize",
      "outputs": [
        {
          "internalType": "uint256",
          "name": "",
          "type": "uint256"
        }
      ],
      "payable": false,
      "stateMutability": "nonpayable",
      "type": "function"
    },
    {
      "constant": true,
      "inputs": [],
      "name": "supplyRatePerBlock",
      "outputs": [
        {
          "internalType": "uint256",
          "name": "",
          "type": "uint256"
        }
      ],
      "payable": false,
      "stateMutability": "view",
      "type": "function"
    },
    {
      "constant": true,
      "inputs": [],
      "name": "symbol",
      "outputs": [
        {
          "internalType": "string",
          "name": "",
          "type": "string"
        }
      ],
      "payable": false,
      "stateMutability": "view",
      "type": "function"
    },
    {
      "constant": true,
      "inputs": [],
      "name": "totalBorrows",
      "outputs": [
        {
          "internalType": "uint256",
          "name": "",
          "type": "uint256"
        }
      ],
      "payable": false,
      "stateMutability": "view",
      "type": "function"
    },
    {
      "constant": false,
      "inputs": [],
      "name": "totalBorrowsCurrent",
      "outputs": [
        {
          "internalType": "uint256",
          "name": "",
          "type": "uint256"
        }
      ],
      "payable": false,
      "stateMutability": "nonpayable",
      "type": "function"
    },
    {
      "constant": true,
      "inputs": [],
      "name": "totalReserves",
      "outputs": [
        {
          "internalType": "uint256",
          "name": "",
          "type": "uint256"
        }
      ],
      "payable": false,
      "stateMutability": "view",
      "type": "function"
    },
    {
      "constant": true,
      "inputs": [],
      "name": "totalSupply",
      "outputs": [
        {
          "internalType": "uint256",
          "name": "",
          "type": "uint256"
        }
      ],
      "payable": false,
      "stateMutability": "view",
      "type": "function"
    },
    {
      "constant": false,
      "inputs": [
        {
          "internalType": "address",
          "name": "dst",
          "type": "address"
        },
        {
          "internalType": "uint256",
          "name": "amount",
          "type": "uint256"
        }
      ],
      "name": "transfer",
      "outputs": [
        {
          "internalType": "bool",
          "name": "",
          "type": "bool"
        }
      ],
      "payable": false,
      "stateMutability": "nonpayable",
      "type": "function"
    },
    {
      "constant": false,
      "inputs": [
        {
          "internalType": "address",
          "name": "src",
          "type": "address"
        },
        {
          "internalType": "address",
          "name": "dst",
          "type": "address"
        },
        {
          "internalType": "uint256",
          "name": "amount",
          "type": "uint256"
        }
      ],
      "name": "transferFrom",
      "outputs": [
        {
          "internalType": "bool",
          "name": "",
          "type": "bool"
        }
      ],
      "payable": false,
      "stateMutability": "nonpayable",
      "type": "function"
    },
    {
      "constant": true,
      "inputs": [],
      "name": "underlying",
      "outputs": [
        {
          "internalType": "address",
          "name": "",
          "type": "address"
        }
      ],
      "payable": false,
      "stateMutability": "view",
      "type": "function"
    },
    {
      "constant": false,
      "inputs": [
        {
          "internalType": "bytes",
          "name": "data",
          "type": "bytes"
        }
      ],
      "name": "_becomeImplementation",
      "outputs": [],
      "payable": false,
      "stateMutability": "nonpayable",
      "type": "function"
    },
    {
      "constant": false,
      "inputs": [],
      "name": "_resignImplementation",
      "outputs": [],
      "payable": false,
      "stateMutability": "nonpayable",
      "type": "function"
    }
  ],
  "bytecode": "0x608060405234801561001057600080fd5b5061533a806100206000396000f3fe608060405234801561001057600080fd5b50600436106102675760003560e01c806306fdde031461026c578063095ea7b3146102e95780630e75270214610329578063153ab50514610358578063173b99041461036257806317bfdfbc1461036a57806318160ddd14610390578063182df0f51461039857806323b872dd146103a05780632608f818146103d65780632678224714610402578063313ce567146104265780633af9e669146104445780633b1d21a21461046a5780633e941010146104725780634576b5db1461048f57806347bd3718146104b557806356e67728146104bd5780635c60da1b146105615780635dc48ff4146105695780635fe3b567146106d4578063601a0bf1146106dc5780636c540baf146106f95780636f307dc31461070157806370a082311461070957806373acee981461072f57806377e4974d146107375780637d3a71ef1461073f578063852a12e3146107475780638f840ddd1461076457806395d89b411461076c57806395dd91931461077457806399d8c1b41461079a578063a0712d68146108e8578063a6afed9514610905578063a9059cbb1461090d578063aa5af0fd14610939578063ae9d70b014610941578063b2a02ff114610949578063b71d1a0c1461097f578063bd6d894d146109a5578063c37f68e2146109ad578063c5ebeaec146109f9578063db006a7514610a16578063dd62ed3e14610a33578063e9c714f214610a61578063f2b3abbd14610a69578063f3fdb15a14610a8f578063f5e3c46214610a97578063f851a44014610acd578063f8f9da2814610ad5578063fca7820b14610add578063fe9c44ae14610afa575b600080fd5b610274610b02565b6040805160208082528351818301528351919283929083019185019080838360005b838110156102ae578181015183820152602001610296565b50505050905090810190601f1680156102db5780820380516001836020036101000a031916815260200191505b509250505060405180910390f35b610315600480360360408110156102ff57600080fd5b506001600160a01b038135169060200135610b8f565b604080519115158252519081900360200190f35b6103466004803603602081101561033f57600080fd5b5035610bfc565b60408051918252519081900360200190f35b610360610c5d565b005b610346610cad565b6103466004803603602081101561038057600080fd5b50356001600160a01b0316610cb3565b610346610d7b565b610346610d81565b610315600480360360608110156103b657600080fd5b506001600160a01b03813581169160208101359091169060400135610de4565b610346600480360360408110156103ec57600080fd5b506001600160a01b038135169060200135610e5e565b61040a610ebf565b604080516001600160a01b039092168252519081900360200190f35b61042e610ece565b6040805160ff9092168252519081900360200190f35b6103466004803603602081101561045a57600080fd5b50356001600160a01b0316610ed7565b610346610f8d565b6103466004803603602081101561048857600080fd5b5035610f9c565b610346600480360360208110156104a557600080fd5b50356001600160a01b0316610fa7565b6103466110fb565b610360600480360360208110156104d357600080fd5b810190602081018135600160201b8111156104ed57600080fd5b8201836020820111156104ff57600080fd5b803590602001918460018302840111600160201b8311171561052057600080fd5b91908080601f016020809104026020016040519081016040528093929190818152602001838380828437600092019190915250929550611101945050505050565b61040a611152565b610360600480360361012081101561058057600080fd5b6001600160a01b03823581169260208101358216926040820135909216916060820135919081019060a081016080820135600160201b8111156105c257600080fd5b8201836020820111156105d457600080fd5b803590602001918460018302840111600160201b831117156105f557600080fd5b91908080601f0160208091040260200160405190810160405280939291908181526020018383808284376000920191909152509295949360208101935035915050600160201b81111561064757600080fd5b82018360208201111561065957600080fd5b803590602001918460018302840111600160201b8311171561067a57600080fd5b91908080601f0160208091040260200160405190810160405280939291908181526020018383808284376000920191909152509295505050813560ff1692505060208101356001600160a01b031690604001351515611161565b61040a61124b565b610346600480360360208110156106f257600080fd5b503561125a565b6103466112fd565b61040a611303565b6103466004803603602081101561071f57600080fd5b50356001600160a01b0316611317565b610346611332565b6103156113f0565b61040a6113f9565b6103466004803603602081101561075d57600080fd5b5035611408565b610346611413565b610274611419565b6103466004803603602081101561078a57600080fd5b50356001600160a01b0316611471565b610360600480360360c08110156107b057600080fd5b6001600160a01b03823581169260208101359091169160408201359190810190608081016060820135600160201b8111156107ea57600080fd5b8201836020820111156107fc57600080fd5b803590602001918460018302840111600160201b8311171561081d57600080fd5b91908080601f0160208091040260200160405190810160405280939291908181526020018383808284376000920191909152509295949360208101935035915050600160201b81111561086f57600080fd5b82018360208201111561088157600080fd5b803590602001918460018302840111600160201b831117156108a257600080fd5b91908080601f0160208091040260200160405190810160405280939291908181526020018383808284376000920191909152509295505050903560ff1691506114ce9050565b610346600480360360208110156108fe57600080fd5b50356116b8565b61034661170f565b6103156004803603604081101561092357600080fd5b506001600160a01b038135169060200135611a66565b610346611adf565b610346611ae5565b6103466004803603606081101561095f57600080fd5b506001600160a01b03813581169160208101359091169060400135611b84565b6103466004803603602081101561099557600080fd5b50356001600160a01b0316611bfd565b610346611c77565b6109d3600480360360208110156109c357600080fd5b50356001600160a01b0316611d3b565b604080519485526020850193909352838301919091526060830152519081900360800190f35b61034660048036036020811015610a0f57600080fd5b5035611dd0565b61034660048036036020811015610a2c57600080fd5b5035611e25565b61034660048036036040811015610a4957600080fd5b506001600160a01b0381358116916020013516611e30565b610346611e5b565b61034660048036036020811015610a7f57600080fd5b50356001600160a01b0316611f4c565b61040a611f86565b61034660048036036060811015610aad57600080fd5b506001600160a01b03813581169160208101359160409091013516611f95565b61040a611fad565b610346611fc1565b61034660048036036020811015610af357600080fd5b5035612025565b6103156120a9565b60018054604080516020600284861615610100026000190190941693909304601f81018490048402820184019092528181529291830182828015610b875780601f10610b5c57610100808354040283529160200191610b87565b820191906000526020600020905b815481529060010190602001808311610b6a57829003601f168201915b505050505081565b336000818152600f602090815260408083206001600160a01b03871680855290835281842086905581518681529151939493909284927f8c5be1e5ebec7d5bd14f71427d1e84f3dd0314c0f7b2291e5b200ac8c7c3b925929081900390910190a360019150505b92915050565b6012546000906001600160a01b03163314610c485760405162461bcd60e51b815260040180806020018281038252605881526020018061508c6058913960600191505060405180910390fd5b6000610c53836120ae565b509150505b919050565b60035461010090046001600160a01b03163314610cab5760405162461bcd60e51b815260040180806020018281038252602d81526020018061505f602d913960400191505060405180910390fd5b565b60085481565b60008054610100900460ff16610cfd576040805162461bcd60e51b815260206004820152600a6024820152691c994b595b9d195c995960b21b604482015290519081900360640190fd5b6000805461ff0019168155610d1061170f565b14610d5b576040805162461bcd60e51b81526020600482015260166024820152751858d8dc9d59481a5b9d195c995cdd0819985a5b195960521b604482015290519081900360640190fd5b610d6482611471565b90505b6000805461ff001916610100179055919050565b600d5481565b6000806000610d8e61215f565b90925090506000826003811115610da157fe5b14610ddd5760405162461bcd60e51b81526004018080602001828103825260358152602001806152246035913960400191505060405180910390fd5b9150505b90565b60008054610100900460ff16610e2e576040805162461bcd60e51b815260206004820152600a6024820152691c994b595b9d195c995960b21b604482015290519081900360640190fd5b6000805461ff0019168155610e453386868661220e565b1490506000805461ff0019166101001790559392505050565b6012546000906001600160a01b03163314610eaa5760405162461bcd60e51b815260040180806020018281038252605881526020018061508c6058913960600191505060405180910390fd5b6000610eb6848461251c565b50949350505050565b6004546001600160a01b031681565b60035460ff1681565b6000610ee1614e4d565b6040518060200160405280610ef4611c77565b90526001600160a01b0384166000908152600e6020526040812054919250908190610f209084906125cf565b90925090506000826003811115610f3357fe5b14610f85576040805162461bcd60e51b815260206004820152601f60248201527f62616c616e636520636f756c64206e6f742062652063616c63756c6174656400604482015290519081900360640190fd5b949350505050565b6000610f97612623565b905090565b6000610bf6826126a8565b60035460009061010090046001600160a01b03163314610fd457610fcd6001603f612744565b9050610c58565b60055460408051623f1ee960e11b815290516001600160a01b0392831692851691627e3dd2916004808301926020929190829003018186803b15801561101957600080fd5b505afa15801561102d573d6000803e3d6000fd5b505050506040513d602081101561104357600080fd5b5051611095576040805162461bcd60e51b815260206004820152601c60248201527b6d61726b6572206d6574686f642072657475726e65642066616c736560201b604482015290519081900360640190fd5b600580546001600160a01b0319166001600160a01b03858116918217909255604080519284168352602083019190915280517f7ac369dbd14fa5ea3f473ed67cc9d598964a77501540ba6751eb0b3decf5870d9281900390910190a160005b9392505050565b600b5481565b60035461010090046001600160a01b0316331461114f5760405162461bcd60e51b815260040180806020018281038252602d8152602001806152d9602d913960400191505060405180910390fd5b50565b6013546001600160a01b031681565b61116f8888888888886114ce565b88601160016101000a8154816001600160a01b0302191690836001600160a01b03160217905550601160019054906101000a90046001600160a01b03166001600160a01b03166318160ddd6040518163ffffffff1660e01b815260040160206040518083038186803b1580156111e457600080fd5b505afa1580156111f8573d6000803e3d6000fd5b505050506040513d602081101561120e57600080fd5b5050601280546001600160a01b0319166001600160a01b0393909316929092179091556011805460ff191691151591909117905550505050505050565b6005546001600160a01b031681565b60008054610100900460ff166112a4576040805162461bcd60e51b815260206004820152600a6024820152691c994b595b9d195c995960b21b604482015290519081900360640190fd5b6000805461ff00191681556112b761170f565b905080156112dd576112d58160108111156112ce57fe5b6030612744565b915050610d67565b6112e683612798565b9150506000805461ff001916610100179055919050565b60095481565b60115461010090046001600160a01b031681565b6001600160a01b03166000908152600e602052604090205490565b60008054610100900460ff1661137c576040805162461bcd60e51b815260206004820152600a6024820152691c994b595b9d195c995960b21b604482015290519081900360640190fd5b6000805461ff001916815561138f61170f565b146113da576040805162461bcd60e51b81526020600482015260166024820152751858d8dc9d59481a5b9d195c995cdd0819985a5b195960521b604482015290519081900360640190fd5b50600b546000805461ff00191661010017905590565b60115460ff1681565b6012546001600160a01b031681565b6000610bf6826128cb565b600c5481565b6002805460408051602060018416156101000260001901909316849004601f81018490048402820184019092528181529291830182828015610b875780601f10610b5c57610100808354040283529160200191610b87565b600080600061147f84612952565b9092509050600082600381111561149257fe5b146110f45760405162461bcd60e51b815260040180806020018281038252603781526020018061510f6037913960400191505060405180910390fd5b60035461010090046001600160a01b0316331461151c5760405162461bcd60e51b8152600401808060200182810382526024815260200180614fa66024913960400191505060405180910390fd5b60095415801561152c5750600a54155b6115675760405162461bcd60e51b8152600401808060200182810382526023815260200180614fca6023913960400191505060405180910390fd5b6007849055836115a85760405162461bcd60e51b815260040180806020018281038252603081526020018061500d6030913960400191505060405180910390fd5b60006115b387610fa7565b90508015611605576040805162461bcd60e51b815260206004820152601a6024820152791cd95d1d1a5b99c818dbdb5c1d1c9bdb1b195c8819985a5b195960321b604482015290519081900360640190fd5b61160d612a06565b600955670de0b6b3a7640000600a5561162586612a0a565b905080156116645760405162461bcd60e51b815260040180806020018281038252602281526020018061503d6022913960400191505060405180910390fd5b8351611677906001906020870190614e60565b50825161168b906002906020860190614e60565b50506003805460ff90921660ff1990921691909117905550506000805461ff001916610100179055505050565b6012546000906001600160a01b031633146117045760405162461bcd60e51b815260040180806020018281038252605881526020018061508c6058913960600191505060405180910390fd5b6000610c5383612b7e565b60008061171a612a06565b6009549091508082141561173357600092505050610de1565b600061173d612623565b600b54600c54600a54600654604080516315f2405360e01b815260048101879052602481018690526044810185905290519596509394929391926000926001600160a01b03909216916315f24053916064808301926020929190829003018186803b1580156117ab57600080fd5b505afa1580156117bf573d6000803e3d6000fd5b505050506040513d60208110156117d557600080fd5b5051905065048c27395000811115611833576040805162461bcd60e51b815260206004820152601c60248201527b0c4dee4e4deee40e4c2e8ca40d2e640c2c4e6eae4c8d8f240d0d2ced60231b604482015290519081900360640190fd5b6000806118408989612c05565b9092509050600082600381111561185357fe5b146118a5576040805162461bcd60e51b815260206004820152601f60248201527f636f756c64206e6f742063616c63756c61746520626c6f636b2064656c746100604482015290519081900360640190fd5b6118ad614e4d565b6000806000806118cb60405180602001604052808a81525087612c28565b909750945060008760038111156118de57fe5b14611910576118fb600960068960038111156118f657fe5b612c90565b9e505050505050505050505050505050610de1565b61191a858c6125cf565b9097509350600087600381111561192d57fe5b14611945576118fb600960018960038111156118f657fe5b61194f848c612ce4565b9097509250600087600381111561196257fe5b1461197a576118fb600960048960038111156118f657fe5b6119956040518060200160405280600854815250858c612d0a565b909750915060008760038111156119a857fe5b146119c0576118fb600960058960038111156118f657fe5b6119cb858a8b612d0a565b909750905060008760038111156119de57fe5b146119f6576118fb600960038960038111156118f657fe5b60098e9055600a819055600b839055600c829055604080518d8152602081018690528082018390526060810185905290517f4dec04e750ca11537cabcd8a9eab06494de08da3735bc8871cd41250e190bc049181900360800190a160009e50505050505050505050505050505090565b60008054610100900460ff16611ab0576040805162461bcd60e51b815260206004820152600a6024820152691c994b595b9d195c995960b21b604482015290519081900360640190fd5b6000805461ff0019168155611ac73333868661220e565b1490506000805461ff00191661010017905592915050565b600a5481565b6006546000906001600160a01b031663b8168816611b01612623565b600b54600c546008546040518563ffffffff1660e01b81526004018085815260200184815260200183815260200182815260200194505050505060206040518083038186803b158015611b5357600080fd5b505afa158015611b67573d6000803e3d6000fd5b505050506040513d6020811015611b7d57600080fd5b5051905090565b60008054610100900460ff16611bce576040805162461bcd60e51b815260206004820152600a6024820152691c994b595b9d195c995960b21b604482015290519081900360640190fd5b6000805461ff0019169055611be533858585612d66565b90506000805461ff0019166101001790559392505050565b60035460009061010090046001600160a01b03163314611c2357610fcd60016045612744565b600480546001600160a01b038481166001600160a01b031983168117909355604080519190921680825260208201939093528151600080516020615146833981519152929181900390910190a160006110f4565b60008054610100900460ff16611cc1576040805162461bcd60e51b815260206004820152600a6024820152691c994b595b9d195c995960b21b604482015290519081900360640190fd5b6000805461ff0019168155611cd461170f565b14611d1f576040805162461bcd60e51b81526020600482015260166024820152751858d8dc9d59481a5b9d195c995cdd0819985a5b195960521b604482015290519081900360640190fd5b611d27610d81565b90506000805461ff00191661010017905590565b6001600160a01b0381166000908152600e6020526040812054819081908190818080611d6689612952565b935090506000816003811115611d7857fe5b14611d965760095b975060009650869550859450611dc99350505050565b611d9e61215f565b925090506000816003811115611db057fe5b14611dbc576009611d80565b5060009650919450925090505b9193509193565b6012546000906001600160a01b03163314611e1c5760405162461bcd60e51b815260040180806020018281038252605881526020018061508c6058913960600191505060405180910390fd5b610bf682612fcc565b6000610bf682613051565b6001600160a01b039182166000908152600f6020908152604080832093909416825291909152205490565b6004546000906001600160a01b031633141580611e76575033155b15611e8e57611e8760016000612744565b9050610de1565b60038054600480546001600160a01b03818116610100818102610100600160a81b0319871617968790556001600160a01b031990931690935560408051948390048216808652929095041660208401528351909391927ff9ffabca9c8276e99321725bcb43fb076a6c66a54b7f21c4e8146d8519b417dc92908290030190a1600454604080516001600160a01b038085168252909216602083015280516000805160206151468339815191529281900390910190a160009250505090565b600080611f5761170f565b90508015611f7d57611f75816010811115611f6e57fe5b6040612744565b915050610c58565b6110f483612a0a565b6006546001600160a01b031681565b600080611fa38585856130d1565b5095945050505050565b60035461010090046001600160a01b031681565b6006546000906001600160a01b03166315f24053611fdd612623565b600b54600c546040518463ffffffff1660e01b815260040180848152602001838152602001828152602001935050505060206040518083038186803b158015611b5357600080fd5b60008054610100900460ff1661206f576040805162461bcd60e51b815260206004820152600a6024820152691c994b595b9d195c995960b21b604482015290519081900360640190fd5b6000805461ff001916815561208261170f565b905080156120a0576112d581601081111561209957fe5b6046612744565b6112e68361320b565b600181565b600080548190610100900460ff166120fa576040805162461bcd60e51b815260206004820152600a6024820152691c994b595b9d195c995960b21b604482015290519081900360640190fd5b6000805461ff001916815561210d61170f565b905080156121385761212b81601081111561212457fe5b6036612744565b9250600091506121499050565b6121433333866132b3565b92509250505b6000805461ff0019166101001790559092909150565b600d5460009081908061217a5750506007546000915061220a565b6000612184612623565b90506000612190614e4d565b60006121a184600b54600c54613698565b9350905060008160038111156121b357fe5b146121c85795506000945061220a9350505050565b6121d283866136d6565b9250905060008160038111156121e457fe5b146121f95795506000945061220a9350505050565b505160009550935061220a92505050565b9091565b600554604080516317b9b84b60e31b81523060048201526001600160a01b03868116602483015285811660448301526064820185905291516000938493169163bdcdc25891608480830192602092919082900301818787803b15801561227357600080fd5b505af1158015612287573d6000803e3d6000fd5b505050506040513d602081101561229d57600080fd5b5051905080156122bc576122b46003604a83612c90565b915050610f85565b836001600160a01b0316856001600160a01b031614156122e2576122b46002604b612744565b60006001600160a01b0387811690871614156123015750600019612329565b506001600160a01b038086166000908152600f60209081526040808320938a16835292905220545b6000806000806123398589612c05565b9094509250600084600381111561234c57fe5b1461236a5761235d6009604b612744565b9650505050505050610f85565b6001600160a01b038a166000908152600e602052604090205461238d9089612c05565b909450915060008460038111156123a057fe5b146123b15761235d6009604c612744565b6001600160a01b0389166000908152600e60205260409020546123d49089612ce4565b909450905060008460038111156123e757fe5b146123f85761235d6009604d612744565b6001600160a01b03808b166000908152600e6020526040808220859055918b168152208190556000198514612450576001600160a01b03808b166000908152600f60209081526040808320938f168352929052208390555b886001600160a01b03168a6001600160a01b03166000805160206151a08339815191528a6040518082815260200191505060405180910390a36005546040805163352b4a3f60e11b81523060048201526001600160a01b038d811660248301528c81166044830152606482018c905291519190921691636a56947e91608480830192600092919082900301818387803b1580156124ec57600080fd5b505af1158015612500573d6000803e3d6000fd5b506000925061250d915050565b9b9a5050505050505050505050565b600080548190610100900460ff16612568576040805162461bcd60e51b815260206004820152600a6024820152691c994b595b9d195c995960b21b604482015290519081900360640190fd5b6000805461ff001916815561257b61170f565b905080156125a65761259981601081111561259257fe5b6035612744565b9250600091506125b79050565b6125b13386866132b3565b92509250505b6000805461ff00191661010017905590939092509050565b60008060006125dc614e4d565b6125e68686612c28565b909250905060008260038111156125f957fe5b1461260a575091506000905061261c565b600061261582613786565b9350935050505b9250929050565b601154604080516370a0823160e01b8152306004820152905160009261010090046001600160a01b03169182916370a0823191602480820192602092909190829003018186803b15801561267657600080fd5b505afa15801561268a573d6000803e3d6000fd5b505050506040513d60208110156126a057600080fd5b505191505090565b60008054610100900460ff166126f2576040805162461bcd60e51b815260206004820152600a6024820152691c994b595b9d195c995960b21b604482015290519081900360640190fd5b6000805461ff001916815561270561170f565b90508015612723576112d581601081111561271c57fe5b604e612744565b61272c83613795565b509150506000805461ff001916610100179055919050565b6000600080516020614fed83398151915283601081111561276157fe5b83605081111561276d57fe5b604080519283526020830191909152600082820152519081900360600190a18260108111156110f457fe5b600354600090819061010090046001600160a01b031633146127c057611f7560016031612744565b6127c8612a06565b600954146127dc57611f75600a6033612744565b826127e5612623565b10156127f757611f75600e6032612744565b600c5483111561280d57611f7560026034612744565b50600c54828103908111156128535760405162461bcd60e51b81526004018080602001828103825260248152602001806152b56024913960400191505060405180910390fd5b600c8190556003546128739061010090046001600160a01b03168461387d565b600354604080516101009092046001600160a01b0316825260208201859052818101839052517f3bad0c59cf2f06e7314077049f48a93578cd16f5ef92329f1dab1420a99c177e916060908290030190a160006110f4565b60008054610100900460ff16612915576040805162461bcd60e51b815260206004820152600a6024820152691c994b595b9d195c995960b21b604482015290519081900360640190fd5b6000805461ff001916815561292861170f565b90508015612946576112d581601081111561293f57fe5b6027612744565b6112e633600085613974565b6001600160a01b038116600090815260106020526040812080548291829182918291612989575060009450849350612a0192505050565b6129998160000154600a54613e3b565b909450925060008460038111156129ac57fe5b146129c1575091935060009250612a01915050565b6129cf838260010154613e7a565b909450915060008460038111156129e257fe5b146129f7575091935060009250612a01915050565b5060009450925050505b915091565b4390565b600354600090819061010090046001600160a01b03163314612a3257611f7560016042612744565b612a3a612a06565b60095414612a4e57611f75600a6041612744565b600660009054906101000a90046001600160a01b03169050826001600160a01b0316632191f92a6040518163ffffffff1660e01b815260040160206040518083038186803b158015612a9f57600080fd5b505afa158015612ab3573d6000803e3d6000fd5b505050506040513d6020811015612ac957600080fd5b5051612b1b576040805162461bcd60e51b815260206004820152601c60248201527b6d61726b6572206d6574686f642072657475726e65642066616c736560201b604482015290519081900360640190fd5b600680546001600160a01b0319166001600160a01b03858116918217909255604080519284168352602083019190915280517fedffc32e068c7c95dfd4bdfd5c4d939a084d6b11c4199eac8436ed234d72f9269281900390910190a160006110f4565b600080548190610100900460ff16612bca576040805162461bcd60e51b815260206004820152600a6024820152691c994b595b9d195c995960b21b604482015290519081900360640190fd5b6000805461ff0019168155612bdd61170f565b90508015612bfb5761212b816010811115612bf457fe5b601e612744565b6121433385613ea5565b600080838311612c1c57506000905081830361261c565b5060039050600061261c565b6000612c32614e4d565b600080612c43866000015186613e3b565b90925090506000826003811115612c5657fe5b14612c755750604080516020810190915260008152909250905061261c565b60408051602081019091529081526000969095509350505050565b6000600080516020614fed833981519152846010811115612cad57fe5b846050811115612cb957fe5b604080519283526020830191909152818101859052519081900360600190a1836010811115610f8557fe5b600080838301848110612cfc5760009250905061261c565b50600291506000905061261c565b6000806000612d17614e4d565b612d218787612c28565b90925090506000826003811115612d3457fe5b14612d455750915060009050612d5e565b612d57612d5182613786565b86612ce4565b9350935050505b935093915050565b6005546040805163d02f735160e01b81523060048201526001600160a01b038781166024830152868116604483015285811660648301526084820185905291516000938493169163d02f73519160a480830192602092919082900301818787803b158015612dd357600080fd5b505af1158015612de7573d6000803e3d6000fd5b505050506040513d6020811015612dfd57600080fd5b505190508015612e14576122b46003601b83612c90565b846001600160a01b0316846001600160a01b03161415612e3a576122b46006601c612744565b6001600160a01b0384166000908152600e602052604081205481908190612e619087612c05565b90935091506000836003811115612e7457fe5b14612e9757612e8c6009601a8560038111156118f657fe5b945050505050610f85565b6001600160a01b0388166000908152600e6020526040902054612eba9087612ce4565b90935090506000836003811115612ecd57fe5b14612ee557612e8c600960198560038111156118f657fe5b6001600160a01b038088166000818152600e60209081526040808320879055938c168083529184902085905583518a8152935191936000805160206151a0833981519152929081900390910190a360055460408051636d35bf9160e01b81523060048201526001600160a01b038c811660248301528b811660448301528a81166064830152608482018a905291519190921691636d35bf919160a480830192600092919082900301818387803b158015612f9e57600080fd5b505af1158015612fb2573d6000803e3d6000fd5b5060009250612fbf915050565b9998505050505050505050565b60008054610100900460ff16613016576040805162461bcd60e51b815260206004820152600a6024820152691c994b595b9d195c995960b21b604482015290519081900360640190fd5b6000805461ff001916815561302961170f565b90508015613047576112d581601081111561304057fe5b6008612744565b6112e63384614304565b60008054610100900460ff1661309b576040805162461bcd60e51b815260206004820152600a6024820152691c994b595b9d195c995960b21b604482015290519081900360640190fd5b6000805461ff00191681556130ae61170f565b905080156130c5576112d581601081111561293f57fe5b6112e633846000613974565b600080548190610100900460ff1661311d576040805162461bcd60e51b815260206004820152600a6024820152691c994b595b9d195c995960b21b604482015290519081900360640190fd5b6000805461ff001916815561313061170f565b9050801561315b5761314e81601081111561314757fe5b600f612744565b9250600091506131f29050565b836001600160a01b031663a6afed956040518163ffffffff1660e01b8152600401602060405180830381600087803b15801561319657600080fd5b505af11580156131aa573d6000803e3d6000fd5b505050506040513d60208110156131c057600080fd5b5051905080156131e05761314e8160108111156131d957fe5b6010612744565b6131ec33878787614612565b92509250505b6000805461ff0019166101001790559094909350915050565b60035460009061010090046001600160a01b0316331461323157610fcd60016047612744565b613239612a06565b6009541461324d57610fcd600a6048612744565b670de0b6b3a764000082111561326957610fcd60026049612744565b6008805490839055604080518281526020810185905281517faaa68312e2ea9d50e16af5068410ab56e1a1fd06037b1a35664812c30f821460929181900390910190a160006110f4565b60055460408051631200453160e11b81523060048201526001600160a01b0386811660248301528581166044830152606482018590529151600093849384939116916324008a629160848082019260209290919082900301818787803b15801561331c57600080fd5b505af1158015613330573d6000803e3d6000fd5b505050506040513d602081101561334657600080fd5b50519050801561336a5761335d6003603883612c90565b925060009150612d5e9050565b613372612a06565b600954146133865761335d600a6039612744565b61338e614ede565b6001600160a01b03861660009081526010602052604090206001015460608201526133b886612952565b60808301819052602083018260038111156133cf57fe5b60038111156133da57fe5b90525060009050816020015160038111156133f157fe5b1461341b5761340d60096037836020015160038111156118f657fe5b935060009250612d5e915050565b600019851415613434576080810151604082015261343c565b604081018590525b61344a878260400151614b90565b60e08201819052608082015161345f91612c05565b60a083018190526020830182600381111561347657fe5b600381111561348157fe5b905250600090508160200151600381111561349857fe5b146134d45760405162461bcd60e51b815260040180806020018281038252603a815260200180615166603a913960400191505060405180910390fd5b6134e4600b548260e00151612c05565b60c08301819052602083018260038111156134fb57fe5b600381111561350657fe5b905250600090508160200151600381111561351d57fe5b146135595760405162461bcd60e51b81526004018080602001828103825260318152602001806151c06031913960400191505060405180910390fd5b60a080820180516001600160a01b03808a16600081815260106020908152604091829020948555600a5460019095019490945560c0870151600b81905560e088015195518251948f16855294840192909252828101949094526060820192909252608081019190915290517f1a2a22cb034d26d1854bdc6666a5b91fe25efbbb5dcad3b0355478d6f5c362a1929181900390910190a160055460e0820151606083015160408051631ededc9160e01b81523060048201526001600160a01b038c811660248301528b8116604483015260648201949094526084810192909252519190921691631ededc919160a480830192600092919082900301818387803b15801561366457600080fd5b505af1158015613678573d6000803e3d6000fd5b5060009250613685915050565b8160e00151935093505050935093915050565b6000806000806136a88787612ce4565b909250905060008260038111156136bb57fe5b146136cc5750915060009050612d5e565b612d578186612c05565b60006136e0614e4d565b6000806136f586670de0b6b3a7640000613e3b565b9092509050600082600381111561370857fe5b146137275750604080516020810190915260008152909250905061261c565b6000806137348388613e7a565b9092509050600082600381111561374757fe5b146137695750604080516020810190915260008152909450925061261c915050565b604080516020810190915290815260009890975095505050505050565b51670de0b6b3a7640000900490565b6000806000806137a3612a06565b600954146137c2576137b7600a604f612744565b93509150612a019050565b6137cc3386614b90565b905080600c54019150600c5482101561382c576040805162461bcd60e51b815260206004820181905260248201527f61646420726573657276657320756e6578706563746564206f766572666c6f77604482015290519081900360640190fd5b600c829055604080513381526020810183905280820184905290517fa91e67c5ea634cd43a12c5a482724b03de01e85ca68702a53d0c2f45cb7c1dc59181900360600190a160009350915050915091565b6011546040805163a9059cbb60e01b81526001600160a01b03858116600483015260248201859052915161010090930490911691829163a9059cbb91604480830192600092919082900301818387803b1580156138d957600080fd5b505af11580156138ed573d6000803e3d6000fd5b5050505060003d60008114613909576020811461391357600080fd5b600019915061391f565b60206000803e60005191505b508061396e576040805162461bcd60e51b81526020600482015260196024820152781513d2d15397d514905394d1915497d3d55517d19052531151603a1b604482015290519081900360640190fd5b50505050565b6000821580613981575081155b6139bc5760405162461bcd60e51b81526004018080602001828103825260348152602001806152816034913960400191505060405180910390fd5b6139c4614f24565b6139cc61215f565b60408301819052602083018260038111156139e357fe5b60038111156139ee57fe5b9052506000905081602001516003811115613a0557fe5b14613a2957613a216009602b836020015160038111156118f657fe5b9150506110f4565b8315613aaa576060810184905260408051602081018252908201518152613a5090856125cf565b6080830181905260208301826003811115613a6757fe5b6003811115613a7257fe5b9052506000905081602001516003811115613a8957fe5b14613aa557613a2160096029836020015160038111156118f657fe5b613b23565b613ac68360405180602001604052808460400151815250614ddc565b6060830181905260208301826003811115613add57fe5b6003811115613ae857fe5b9052506000905081602001516003811115613aff57fe5b14613b1b57613a216009602a836020015160038111156118f657fe5b608081018390525b60055460608201516040805163eabe7d9160e01b81523060048201526001600160a01b03898116602483015260448201939093529051600093929092169163eabe7d919160648082019260209290919082900301818787803b158015613b8857600080fd5b505af1158015613b9c573d6000803e3d6000fd5b505050506040513d6020811015613bb257600080fd5b505190508015613bd257613bc96003602883612c90565b925050506110f4565b613bda612a06565b60095414613bee57613bc9600a602c612744565b613bfe600d548360600151612c05565b60a0840181905260208401826003811115613c1557fe5b6003811115613c2057fe5b9052506000905082602001516003811115613c3757fe5b14613c5357613bc96009602e846020015160038111156118f657fe5b6001600160a01b0386166000908152600e60205260409020546060830151613c7b9190612c05565b60c0840181905260208401826003811115613c9257fe5b6003811115613c9d57fe5b9052506000905082602001516003811115613cb457fe5b14613cd057613bc96009602d846020015160038111156118f657fe5b8160800151613cdd612623565b1015613cef57613bc9600e602f612744565b613cfd86836080015161387d565b60a0820151600d5560c08201516001600160a01b0387166000818152600e60209081526040918290209390935560608501518151908152905130936000805160206151a0833981519152928290030190a36080820151606080840151604080516001600160a01b038b168152602081019490945283810191909152517fe5b754fb1abb7f01b499791d0b820ae3b6af3424ac1c59768edb53f4ec31a9299281900390910190a160055460808301516060840151604080516351dff98960e01b81523060048201526001600160a01b038b81166024830152604482019490945260648101929092525191909216916351dff98991608480830192600092919082900301818387803b158015613e1057600080fd5b505af1158015613e24573d6000803e3d6000fd5b5060009250613e31915050565b9695505050505050565b60008083613e4e5750600090508061261c565b83830283858281613e5b57fe5b0414613e6f5750600291506000905061261c565b60009250905061261c565b60008082613e8e575060019050600061261c565b6000838581613e9957fe5b04915091509250929050565b60055460408051634ef4c3e160e01b81523060048201526001600160a01b03858116602483015260448201859052915160009384938493911691634ef4c3e19160648082019260209290919082900301818787803b158015613f0657600080fd5b505af1158015613f1a573d6000803e3d6000fd5b505050506040513d6020811015613f3057600080fd5b505190508015613f5457613f476003601f83612c90565b92506000915061261c9050565b613f5c612a06565b60095414613f7057613f47600a6022612744565b613f78614f24565b613f8061215f565b6040830181905260208301826003811115613f9757fe5b6003811115613fa257fe5b9052506000905081602001516003811115613fb957fe5b14613fe357613fd560096021836020015160038111156118f657fe5b93506000925061261c915050565b613fed8686614b90565b60c082018190526040805160208101825290830151815261400e9190614ddc565b606083018190526020830182600381111561402557fe5b600381111561403057fe5b905250600090508160200151600381111561404757fe5b14614099576040805162461bcd60e51b815260206004820181905260248201527f4d494e545f45584348414e47455f43414c43554c4154494f4e5f4641494c4544604482015290519081900360640190fd5b6140a9600d548260600151612ce4565b60808301819052602083018260038111156140c057fe5b60038111156140cb57fe5b90525060009050816020015160038111156140e257fe5b1461411e5760405162461bcd60e51b81526004018080602001828103825260288152602001806152596028913960400191505060405180910390fd5b6001600160a01b0386166000908152600e602052604090205460608201516141469190612ce4565b60a083018190526020830182600381111561415d57fe5b600381111561416857fe5b905250600090508160200151600381111561417f57fe5b146141bb5760405162461bcd60e51b815260040180806020018281038252602b8152602001806150e4602b913960400191505060405180910390fd5b6080810151600d5560a08101516001600160a01b0387166000818152600e60209081526040918290209390935560c084015160608086015183519485529484019190915282820193909352517f4c209b5fc8ad50758f13e2e1088ba56a560dff690a1c6fef26394f4c03821c4f929181900390910190a1606081015160408051918252516001600160a01b0388169130916000805160206151a08339815191529181900360200190a360055460c08201516060830151604080516341c728b960e01b81523060048201526001600160a01b038b81166024830152604482019490945260648101929092525191909216916341c728b991608480830192600092919082900301818387803b1580156142d157600080fd5b505af11580156142e5573d6000803e3d6000fd5b50600092506142f2915050565b8160c001519350935050509250929050565b6005546040805163368f515360e21b81523060048201526001600160a01b0385811660248301526044820185905291516000938493169163da3d454c91606480830192602092919082900301818787803b15801561436157600080fd5b505af1158015614375573d6000803e3d6000fd5b505050506040513d602081101561438b57600080fd5b5051905080156143aa576143a26003600e83612c90565b915050610bf6565b6143b2612a06565b600954146143c5576143a2600a80612744565b826143ce612623565b10156143e0576143a2600e6009612744565b6143e8614f62565b6143f185612952565b602083018190528282600381111561440557fe5b600381111561441057fe5b905250600090508151600381111561442457fe5b146144495761444060096007836000015160038111156118f657fe5b92505050610bf6565b614457816020015185612ce4565b604083018190528282600381111561446b57fe5b600381111561447657fe5b905250600090508151600381111561448a57fe5b146144a6576144406009600c836000015160038111156118f657fe5b6144b2600b5485612ce4565b60608301819052828260038111156144c657fe5b60038111156144d157fe5b90525060009050815160038111156144e557fe5b14614501576144406009600b836000015160038111156118f657fe5b61450b858561387d565b604080820180516001600160a01b03881660008181526010602090815290859020928355600a54600190930192909255606080860151600b81905593518551928352928201899052818501929092529081019190915290517f13ed6866d4e1ee6da46f845c46d7e54120883d75c5ea9a2dacc1c4ca8984ab809181900360800190a160055460408051635c77860560e01b81523060048201526001600160a01b0388811660248301526044820188905291519190921691635c77860591606480830192600092919082900301818387803b1580156145e857600080fd5b505af11580156145fc573d6000803e3d6000fd5b5060009250614609915050565b95945050505050565b60055460408051632fe3f38f60e11b81523060048201526001600160a01b0384811660248301528781166044830152868116606483015260848201869052915160009384938493911691635fc7e71e9160a48082019260209290919082900301818787803b15801561468357600080fd5b505af1158015614697573d6000803e3d6000fd5b505050506040513d60208110156146ad57600080fd5b5051905080156146d1576146c46003601283612c90565b925060009150614b879050565b6146d9612a06565b600954146146ed576146c4600a6016612744565b6146f5612a06565b846001600160a01b0316636c540baf6040518163ffffffff1660e01b815260040160206040518083038186803b15801561472e57600080fd5b505afa158015614742573d6000803e3d6000fd5b505050506040513d602081101561475857600080fd5b50511461476b576146c4600a6011612744565b866001600160a01b0316866001600160a01b03161415614791576146c460066017612744565b846147a2576146c460076015612744565b6000198514156147b8576146c460076014612744565b6000806147c68989896132b3565b909250905081156147f6576147e78260108111156147e057fe5b6018612744565b945060009350614b8792505050565b6005546040805163c488847b60e01b81523060048201526001600160a01b038981166024830152604482018590528251600094859492169263c488847b926064808301939192829003018186803b15801561485057600080fd5b505afa158015614864573d6000803e3d6000fd5b505050506040513d604081101561487a57600080fd5b508051602090910151909250905081156148c55760405162461bcd60e51b81526004018080602001828103825260338152602001806151f16033913960400191505060405180910390fd5b80886001600160a01b03166370a082318c6040518263ffffffff1660e01b815260040180826001600160a01b03166001600160a01b0316815260200191505060206040518083038186803b15801561491c57600080fd5b505afa158015614930573d6000803e3d6000fd5b505050506040513d602081101561494657600080fd5b50511015614996576040805162461bcd60e51b815260206004820152601860248201527709892a2aa928882a88abea68a92b48abea89e9ebe9aaa86960431b604482015290519081900360640190fd5b60006001600160a01b0389163014156149bc576149b5308d8d85612d66565b9050614a46565b6040805163b2a02ff160e01b81526001600160a01b038e811660048301528d81166024830152604482018590529151918b169163b2a02ff1916064808201926020929091908290030181600087803b158015614a1757600080fd5b505af1158015614a2b573d6000803e3d6000fd5b505050506040513d6020811015614a4157600080fd5b505190505b8015614a90576040805162461bcd60e51b81526020600482015260146024820152731d1bdad95b881cd95a5e9d5c994819985a5b195960621b604482015290519081900360640190fd5b604080516001600160a01b03808f168252808e1660208301528183018790528b1660608201526080810184905290517f298637f684da70674f26509b10f07ec2fbc77a335ab1e7d6215a4b2484d8bb529181900360a00190a1600554604080516347ef3b3b60e01b81523060048201526001600160a01b038c811660248301528f811660448301528e811660648301526084820188905260a48201869052915191909216916347ef3b3b9160c480830192600092919082900301818387803b158015614b5b57600080fd5b505af1158015614b6f573d6000803e3d6000fd5b5060009250614b7c915050565b975092955050505050505b94509492505050565b601154604080516370a0823160e01b8152306004820152905160009261010090046001600160a01b031691839183916370a08231916024808301926020929190829003018186803b158015614be457600080fd5b505afa158015614bf8573d6000803e3d6000fd5b505050506040513d6020811015614c0e57600080fd5b5051604080516323b872dd60e01b81526001600160a01b038881166004830152306024830152604482018890529151929350908416916323b872dd9160648082019260009290919082900301818387803b158015614c6b57600080fd5b505af1158015614c7f573d6000803e3d6000fd5b5050505060003d60008114614c9b5760208114614ca557600080fd5b6000199150614cb1565b60206000803e60005191505b5080614cff576040805162461bcd60e51b81526020600482015260186024820152771513d2d15397d514905394d1915497d25397d1905253115160421b604482015290519081900360640190fd5b601154604080516370a0823160e01b8152306004820152905160009261010090046001600160a01b0316916370a08231916024808301926020929190829003018186803b158015614d4f57600080fd5b505afa158015614d63573d6000803e3d6000fd5b505050506040513d6020811015614d7957600080fd5b5051905082811015614dcf576040805162461bcd60e51b815260206004820152601a602482015279544f4b454e5f5452414e534645525f494e5f4f564552464c4f5760301b604482015290519081900360640190fd5b9190910395945050505050565b6000806000614de9614e4d565b6125e686866000614df8614e4d565b600080614e0d670de0b6b3a764000087613e3b565b90925090506000826003811115614e2057fe5b14614e3f5750604080516020810190915260008152909250905061261c565b6126158186600001516136d6565b6040518060200160405280600081525090565b828054600181600116156101000203166002900490600052602060002090601f016020900481019282601f10614ea157805160ff1916838001178555614ece565b82800160010185558215614ece579182015b82811115614ece578251825591602001919060010190614eb3565b50614eda929150614f8b565b5090565b6040805161010081019091528060008152602001600081526020016000815260200160008152602001600081526020016000815260200160008152602001600081525090565b6040805160e0810190915280600081526020016000815260200160008152602001600081526020016000815260200160008152602001600081525090565b604080516080810190915280600081526020016000815260200160008152602001600081525090565b610de191905b80821115614eda5760008155600101614f9156fe6f6e6c792061646d696e206d617920696e697469616c697a6520746865206d61726b65746d61726b6574206d6179206f6e6c7920626520696e697469616c697a6564206f6e636545b96fe442630264581b197e84bbada861235052c5a1aadfff9ea4e40a969aa0696e697469616c2065786368616e67652072617465206d7573742062652067726561746572207468616e207a65726f2e73657474696e6720696e7465726573742072617465206d6f64656c206661696c65646f6e6c79207468652061646d696e206d61792063616c6c205f72657369676e496d706c656d656e746174696f6e4f6e6c79204d6f6e6579204d61726b657420496e7374616e63653a2063616c6c6572206973206e6f7420746865204d6f6e6579204d61726b657420496e7374616e636520666f72207468697320617373657420636c6173734d494e545f4e45575f4143434f554e545f42414c414e43455f43414c43554c4154494f4e5f4641494c4544626f72726f7742616c616e636553746f7265643a20626f72726f7742616c616e636553746f726564496e7465726e616c206661696c6564ca4f2f25d0898edd99413412fb94012f9e54ec8142f9b093e7720646a95b16a952455041595f424f52524f575f4e45575f4143434f554e545f424f52524f575f42414c414e43455f43414c43554c4154494f4e5f4641494c4544ddf252ad1be2c89b69c2b068fc378daa952ba7f163c4a11628f55a4df523b3ef52455041595f424f52524f575f4e45575f544f54414c5f42414c414e43455f43414c43554c4154494f4e5f4641494c45444c49515549444154455f434f4d5054524f4c4c45525f43414c43554c4154455f414d4f554e545f5345495a455f4641494c454465786368616e67655261746553746f7265643a2065786368616e67655261746553746f726564496e7465726e616c206661696c65644d494e545f4e45575f544f54414c5f535550504c595f43414c43554c4154494f4e5f4641494c45446f6e65206f662072656465656d546f6b656e73496e206f722072656465656d416d6f756e74496e206d757374206265207a65726f72656475636520726573657276657320756e657870656374656420756e646572666c6f776f6e6c79207468652061646d696e206d61792063616c6c205f6265636f6d65496d706c656d656e746174696f6ea265627a7a7231582074165a81ce5ddc8dea93deb2dce4ab54799a121f6449196fc11f1fb5af9d489e64736f6c63430005100032",
  "source": "pragma solidity ^0.6.0;\n\nimport \"./CErc20.sol\";\n\n/**\n * @title Compound's CErc20Delegate Contract\n * @notice CTokens which wrap an EIP-20 underlying and are delegated to\n * @author Compound\n */\ncontract CErc20Delegate is CErc20, CDelegateInterface {\n    /**\n     * @notice Construct an empty delegate\n     */\n    constructor() public {}\n\n    /**\n     * @notice Called by the delegator on a delegate to initialize it for duty\n     * @param data The encoded bytes data for any initialization\n     */\n    function _becomeImplementation(bytes memory data) public {\n        // Shh -- currently unused\n        data;\n\n        // Shh -- we don't ever want this hook to be marked pure\n        if (false) {\n            implementation = address(0);\n        }\n\n        require(msg.sender == admin, \"only the admin may call _becomeImplementation\");\n    }\n\n    /**\n     * @notice Called by the delegator on a delegate to forfeit its responsibility\n     */\n    function _resignImplementation() public {\n        // Shh -- we don't ever want this hook to be marked pure\n        if (false) {\n            implementation = address(0);\n        }\n\n        require(msg.sender == admin, \"only the admin may call _resignImplementation\");\n    }\n}\n",
  "sourcePath": "/home/stan36/repos/Askolend/AskoLend-contracts/contracts/compound/CErc20Delegate.sol",
  "compiler": {
    "name": "solc",
    "version": "0.5.16+commit.9c3226ce.Emscripten.clang"
  },
  "schemaVersion": "3.2.5",
  "updatedAt": "2020-09-30T00:21:01.968Z",
  "devdoc": {
    "author": "Compound",
    "methods": {
      "_acceptAdmin()": {
        "details": "Admin function for pending admin to accept role and update admin",
        "return": "uint 0=success, otherwise a failure (see ErrorReporter.sol for details)"
      },
      "_addReserves(uint256)": {
        "params": {
          "addAmount": "The amount fo underlying token to add as reserves"
        },
        "return": "uint 0=success, otherwise a failure (see ErrorReporter.sol for details)"
      },
      "_becomeImplementation(bytes)": {
        "params": {
          "data": "The encoded bytes data for any initialization"
        }
      },
      "_reduceReserves(uint256)": {
        "params": {
          "reduceAmount": "Amount of reduction to reserves"
        },
        "return": "uint 0=success, otherwise a failure (see ErrorReporter.sol for details)"
      },
      "_setComptroller(address)": {
        "details": "Admin function to set a new comptroller",
        "return": "uint 0=success, otherwise a failure (see ErrorReporter.sol for details)"
      },
      "_setInterestRateModel(address)": {
        "details": "Admin function to accrue interest and update the interest rate model",
        "params": {
          "newInterestRateModel": "the new interest rate model to use"
        },
        "return": "uint 0=success, otherwise a failure (see ErrorReporter.sol for details)"
      },
      "_setPendingAdmin(address)": {
        "details": "Admin function to begin change of admin. The newPendingAdmin must call `_acceptAdmin` to finalize the transfer.",
        "params": {
          "newPendingAdmin": "New pending admin."
        },
        "return": "uint 0=success, otherwise a failure (see ErrorReporter.sol for details)"
      },
      "_setReserveFactor(uint256)": {
        "details": "Admin function to accrue interest and set a new reserve factor",
        "return": "uint 0=success, otherwise a failure (see ErrorReporter.sol for details)"
      },
      "accrueInterest()": {
        "details": "This calculates interest accrued from the last checkpointed block  up to the current block and writes new checkpoint to storage."
      },
      "allowance(address,address)": {
        "params": {
          "owner": "The address of the account which owns the tokens to be spent",
          "spender": "The address of the account which may transfer tokens"
        },
        "return": "The number of tokens allowed to be spent (-1 means infinite)"
      },
      "approve(address,uint256)": {
        "details": "This will overwrite the approval amount for `spender` and is subject to issues noted [here](https://eips.ethereum.org/EIPS/eip-20#approve)",
        "params": {
          "amount": "The number of tokens that are approved (-1 means infinite)",
          "spender": "The address of the account which may transfer tokens"
        },
        "return": "Whether or not the approval succeeded"
      },
      "balanceOf(address)": {
        "params": {
          "owner": "The address of the account to query"
        },
        "return": "The number of tokens owned by `owner`"
      },
      "balanceOfUnderlying(address)": {
        "details": "This also accrues interest in a transaction",
        "params": {
          "owner": "The address of the account to query"
        },
        "return": "The amount of underlying owned by `owner`"
      },
      "borrow(uint256)": {
        "params": {
          "borrowAmount": "The amount of the underlying asset to borrow"
        },
        "return": "uint 0=success, otherwise a failure (see ErrorReporter.sol for details)"
      },
      "borrowBalanceCurrent(address)": {
        "params": {
          "account": "The address whose balance should be calculated after updating borrowIndex"
        },
        "return": "The calculated balance"
      },
      "borrowBalanceStored(address)": {
        "params": {
          "account": "The address whose balance should be calculated"
        },
        "return": "The calculated balance"
      },
      "borrowRatePerBlock()": {
        "return": "The borrow interest rate per block, scaled by 1e18"
      },
      "exchangeRateCurrent()": {
        "return": "Calculated exchange rate scaled by 1e18"
      },
      "exchangeRateStored()": {
        "details": "This function does not accrue interest before calculating the exchange rate",
        "return": "Calculated exchange rate scaled by 1e18"
      },
      "getAccountSnapshot(address)": {
        "details": "This is used by comptroller to more efficiently perform liquidity checks.",
        "params": {
          "account": "Address of the account to snapshot"
        },
        "return": "(possible error, token balance, borrow balance, exchange rate mantissa)"
      },
      "getCash()": {
        "return": "The quantity of underlying asset owned by this contract"
      },
      "initialize(address,address,address,uint256,string,string,uint8,address,bool)": {
        "params": {
          "comptroller_": "The address of the Comptroller",
          "decimals_": "ERC-20 decimal precision of this token",
          "initialExchangeRateMantissa_": "The initial exchange rate, scaled by 1e18",
          "interestRateModel_": "The address of the interest rate model",
          "name_": "ERC-20 name of this token",
          "symbol_": "ERC-20 symbol of this token",
          "underlying_": "The address of the underlying asset"
        }
      },
      "initialize(address,address,uint256,string,string,uint8)": {
        "params": {
          "comptroller_": "The address of the Comptroller",
          "decimals_": "EIP-20 decimal precision of this token",
          "initialExchangeRateMantissa_": "The initial exchange rate, scaled by 1e18",
          "interestRateModel_": "The address of the interest rate model",
          "name_": "EIP-20 name of this token",
          "symbol_": "EIP-20 symbol of this token"
        }
      },
      "liquidateBorrow(address,uint256,address)": {
        "params": {
          "borrower": "The borrower of this cToken to be liquidated",
          "cTokenCollateral": "The market in which to seize collateral from the borrower",
          "repayAmount": "The amount of the underlying borrowed asset to repay"
        },
        "return": "uint 0=success, otherwise a failure (see ErrorReporter.sol for details)"
      },
      "mint(uint256)": {
        "details": "Accrues interest whether or not the operation succeeds, unless reverted",
        "params": {
          "mintAmount": "The amount of the underlying asset to supply"
        },
        "return": "uint 0=success, otherwise a failure (see ErrorReporter.sol for details)"
      },
      "redeem(uint256)": {
        "details": "Accrues interest whether or not the operation succeeds, unless reverted",
        "params": {
          "redeemTokens": "The number of cTokens to redeem into underlying"
        },
        "return": "uint 0=success, otherwise a failure (see ErrorReporter.sol for details)"
      },
      "redeemUnderlying(uint256)": {
        "details": "Accrues interest whether or not the operation succeeds, unless reverted",
        "params": {
          "redeemAmount": "The amount of underlying to redeem"
        },
        "return": "uint 0=success, otherwise a failure (see ErrorReporter.sol for details)"
      },
      "repayBorrow(uint256)": {
        "params": {
          "repayAmount": "The amount to repay"
        },
        "return": "uint 0=success, otherwise a failure (see ErrorReporter.sol for details)"
      },
      "repayBorrowBehalf(address,uint256)": {
        "params": {
          "borrower": "the account with the debt being payed off",
          "repayAmount": "The amount to repay"
        },
        "return": "uint 0=success, otherwise a failure (see ErrorReporter.sol for details)"
      },
      "seize(address,address,uint256)": {
        "details": "Will fail unless called by another cToken during the process of liquidation. Its absolutely critical to use msg.sender as the borrowed cToken and not a parameter.",
        "params": {
          "borrower": "The account having collateral seized",
          "liquidator": "The account receiving seized collateral",
          "seizeTokens": "The number of cTokens to seize"
        },
        "return": "uint 0=success, otherwise a failure (see ErrorReporter.sol for details)"
      },
      "supplyRatePerBlock()": {
        "return": "The supply interest rate per block, scaled by 1e18"
      },
      "totalBorrowsCurrent()": {
        "return": "The total borrows with interest"
      },
      "transfer(address,uint256)": {
        "params": {
          "amount": "The number of tokens to transfer",
          "dst": "The address of the destination account"
        },
        "return": "Whether or not the transfer succeeded"
      },
      "transferFrom(address,address,uint256)": {
        "params": {
          "amount": "The number of tokens to transfer",
          "dst": "The address of the destination account",
          "src": "The address of the source account"
        },
        "return": "Whether or not the transfer succeeded"
      }
    },
    "title": "Compound's CErc20Delegate Contract"
  },
  "userdoc": {
    "methods": {
      "_acceptAdmin()": {
        "notice": "Accepts transfer of admin rights. msg.sender must be pendingAdmin"
      },
      "_addReserves(uint256)": {
        "notice": "The sender adds to reserves."
      },
      "_becomeImplementation(bytes)": {
        "notice": "Called by the delegator on a delegate to initialize it for duty"
      },
      "_reduceReserves(uint256)": {
        "notice": "Accrues interest and reduces reserves by transferring to admin"
      },
      "_resignImplementation()": {
        "notice": "Called by the delegator on a delegate to forfeit its responsibility"
      },
      "_setComptroller(address)": {
        "notice": "Sets a new comptroller for the market"
      },
      "_setInterestRateModel(address)": {
        "notice": "accrues interest and updates the interest rate model using _setInterestRateModelFresh"
      },
      "_setPendingAdmin(address)": {
        "notice": "Begins transfer of admin rights. The newPendingAdmin must call `_acceptAdmin` to finalize the transfer."
      },
      "_setReserveFactor(uint256)": {
        "notice": "accrues interest and sets a new reserve factor for the protocol using _setReserveFactorFresh"
      },
      "accrueInterest()": {
        "notice": "Applies accrued interest to total borrows and reserves"
      },
      "allowance(address,address)": {
        "notice": "Get the current allowance from `owner` for `spender`"
      },
      "approve(address,uint256)": {
        "notice": "Approve `spender` to transfer up to `amount` from `src`"
      },
      "balanceOf(address)": {
        "notice": "Get the token balance of the `owner`"
      },
      "balanceOfUnderlying(address)": {
        "notice": "Get the underlying balance of the `owner`"
      },
      "borrow(uint256)": {
        "notice": "Sender borrows assets from the protocol to their own address"
      },
      "borrowBalanceCurrent(address)": {
        "notice": "Accrue interest to updated borrowIndex and then calculate account's borrow balance using the updated borrowIndex"
      },
      "borrowBalanceStored(address)": {
        "notice": "Return the borrow balance of account based on stored data"
      },
      "borrowRatePerBlock()": {
        "notice": "Returns the current per-block borrow interest rate for this cToken"
      },
      "constructor": "Construct an empty delegate",
      "exchangeRateCurrent()": {
        "notice": "Accrue interest then return the up-to-date exchange rate"
      },
      "exchangeRateStored()": {
        "notice": "Calculates the exchange rate from the underlying to the CToken"
      },
      "getAccountSnapshot(address)": {
        "notice": "Get a snapshot of the account's balances, and the cached exchange rate"
      },
      "getCash()": {
        "notice": "Get cash balance of this cToken in the underlying asset"
      },
      "initialize(address,address,address,uint256,string,string,uint8,address,bool)": {
        "notice": "Initialize the new money market"
      },
      "initialize(address,address,uint256,string,string,uint8)": {
        "notice": "Initialize the money market"
      },
      "liquidateBorrow(address,uint256,address)": {
        "notice": "The sender liquidates the borrowers collateral. The collateral seized is transferred to the liquidator."
      },
      "mint(uint256)": {
        "notice": "Sender supplies assets into the market and receives cTokens in exchange"
      },
      "redeem(uint256)": {
        "notice": "Sender redeems cTokens in exchange for the underlying asset"
      },
      "redeemUnderlying(uint256)": {
        "notice": "Sender redeems cTokens in exchange for a specified amount of underlying asset"
      },
      "repayBorrow(uint256)": {
        "notice": "Sender repays their own borrow"
      },
      "repayBorrowBehalf(address,uint256)": {
        "notice": "Sender repays a borrow belonging to borrower"
      },
      "seize(address,address,uint256)": {
        "notice": "Transfers collateral tokens (this market) to the liquidator."
      },
      "supplyRatePerBlock()": {
        "notice": "Returns the current per-block supply interest rate for this cToken"
      },
      "totalBorrowsCurrent()": {
        "notice": "Returns the current total borrows plus accrued interest"
      },
      "transfer(address,uint256)": {
        "notice": "Transfer `amount` tokens from `msg.sender` to `dst`"
      },
      "transferFrom(address,address,uint256)": {
        "notice": "Transfer `amount` tokens from `src` to `dst`"
      }
    },
    "notice": "CTokens which wrap an EIP-20 underlying and are delegated to"
  }
}