{
  "contractName": "CErc20Delegate",
  "abi": [
    {
      "inputs": [],
      "payable": false,
      "stateMutability": "nonpayable",
      "type": "constructor"
    },
    {
      "anonymous": false,
      "inputs": [
        {
          "indexed": false,
          "internalType": "uint256",
          "name": "cashPrior",
          "type": "uint256"
        },
        {
          "indexed": false,
          "internalType": "uint256",
          "name": "interestAccumulated",
          "type": "uint256"
        },
        {
          "indexed": false,
          "internalType": "uint256",
          "name": "borrowIndex",
          "type": "uint256"
        },
        {
          "indexed": false,
          "internalType": "uint256",
          "name": "totalBorrows",
          "type": "uint256"
        }
      ],
      "name": "AccrueInterest",
      "type": "event"
    },
    {
      "anonymous": false,
      "inputs": [
        {
          "indexed": true,
          "internalType": "address",
          "name": "owner",
          "type": "address"
        },
        {
          "indexed": true,
          "internalType": "address",
          "name": "spender",
          "type": "address"
        },
        {
          "indexed": false,
          "internalType": "uint256",
          "name": "amount",
          "type": "uint256"
        }
      ],
      "name": "Approval",
      "type": "event"
    },
    {
      "anonymous": false,
      "inputs": [
        {
          "indexed": false,
          "internalType": "address",
          "name": "borrower",
          "type": "address"
        },
        {
          "indexed": false,
          "internalType": "uint256",
          "name": "borrowAmount",
          "type": "uint256"
        },
        {
          "indexed": false,
          "internalType": "uint256",
          "name": "accountBorrows",
          "type": "uint256"
        },
        {
          "indexed": false,
          "internalType": "uint256",
          "name": "totalBorrows",
          "type": "uint256"
        }
      ],
      "name": "Borrow",
      "type": "event"
    },
    {
      "anonymous": false,
      "inputs": [
        {
          "indexed": false,
          "internalType": "uint256",
          "name": "error",
          "type": "uint256"
        },
        {
          "indexed": false,
          "internalType": "uint256",
          "name": "info",
          "type": "uint256"
        },
        {
          "indexed": false,
          "internalType": "uint256",
          "name": "detail",
          "type": "uint256"
        }
      ],
      "name": "Failure",
      "type": "event"
    },
    {
      "anonymous": false,
      "inputs": [
        {
          "indexed": false,
          "internalType": "address",
          "name": "liquidator",
          "type": "address"
        },
        {
          "indexed": false,
          "internalType": "address",
          "name": "borrower",
          "type": "address"
        },
        {
          "indexed": false,
          "internalType": "uint256",
          "name": "repayAmount",
          "type": "uint256"
        },
        {
          "indexed": false,
          "internalType": "address",
          "name": "cTokenCollateral",
          "type": "address"
        },
        {
          "indexed": false,
          "internalType": "uint256",
          "name": "seizeTokens",
          "type": "uint256"
        }
      ],
      "name": "LiquidateBorrow",
      "type": "event"
    },
    {
      "anonymous": false,
      "inputs": [
        {
          "indexed": false,
          "internalType": "address",
          "name": "minter",
          "type": "address"
        },
        {
          "indexed": false,
          "internalType": "uint256",
          "name": "mintAmount",
          "type": "uint256"
        },
        {
          "indexed": false,
          "internalType": "uint256",
          "name": "mintTokens",
          "type": "uint256"
        }
      ],
      "name": "Mint",
      "type": "event"
    },
    {
      "anonymous": false,
      "inputs": [
        {
          "indexed": false,
          "internalType": "address",
          "name": "oldAdmin",
          "type": "address"
        },
        {
          "indexed": false,
          "internalType": "address",
          "name": "newAdmin",
          "type": "address"
        }
      ],
      "name": "NewAdmin",
      "type": "event"
    },
    {
      "anonymous": false,
      "inputs": [
        {
          "indexed": false,
          "internalType": "contract ComptrollerInterface",
          "name": "oldComptroller",
          "type": "address"
        },
        {
          "indexed": false,
          "internalType": "contract ComptrollerInterface",
          "name": "newComptroller",
          "type": "address"
        }
      ],
      "name": "NewComptroller",
      "type": "event"
    },
    {
      "anonymous": false,
      "inputs": [
        {
          "indexed": false,
          "internalType": "contract InterestRateModel",
          "name": "oldInterestRateModel",
          "type": "address"
        },
        {
          "indexed": false,
          "internalType": "contract InterestRateModel",
          "name": "newInterestRateModel",
          "type": "address"
        }
      ],
      "name": "NewMarketInterestRateModel",
      "type": "event"
    },
    {
      "anonymous": false,
      "inputs": [
        {
          "indexed": false,
          "internalType": "address",
          "name": "oldPendingAdmin",
          "type": "address"
        },
        {
          "indexed": false,
          "internalType": "address",
          "name": "newPendingAdmin",
          "type": "address"
        }
      ],
      "name": "NewPendingAdmin",
      "type": "event"
    },
    {
      "anonymous": false,
      "inputs": [
        {
          "indexed": false,
          "internalType": "uint256",
          "name": "oldReserveFactorMantissa",
          "type": "uint256"
        },
        {
          "indexed": false,
          "internalType": "uint256",
          "name": "newReserveFactorMantissa",
          "type": "uint256"
        }
      ],
      "name": "NewReserveFactor",
      "type": "event"
    },
    {
      "anonymous": false,
      "inputs": [
        {
          "indexed": false,
          "internalType": "address",
          "name": "redeemer",
          "type": "address"
        },
        {
          "indexed": false,
          "internalType": "uint256",
          "name": "redeemAmount",
          "type": "uint256"
        },
        {
          "indexed": false,
          "internalType": "uint256",
          "name": "redeemTokens",
          "type": "uint256"
        }
      ],
      "name": "Redeem",
      "type": "event"
    },
    {
      "anonymous": false,
      "inputs": [
        {
          "indexed": false,
          "internalType": "address",
          "name": "payer",
          "type": "address"
        },
        {
          "indexed": false,
          "internalType": "address",
          "name": "borrower",
          "type": "address"
        },
        {
          "indexed": false,
          "internalType": "uint256",
          "name": "repayAmount",
          "type": "uint256"
        },
        {
          "indexed": false,
          "internalType": "uint256",
          "name": "accountBorrows",
          "type": "uint256"
        },
        {
          "indexed": false,
          "internalType": "uint256",
          "name": "totalBorrows",
          "type": "uint256"
        }
      ],
      "name": "RepayBorrow",
      "type": "event"
    },
    {
      "anonymous": false,
      "inputs": [
        {
          "indexed": false,
          "internalType": "address",
          "name": "benefactor",
          "type": "address"
        },
        {
          "indexed": false,
          "internalType": "uint256",
          "name": "addAmount",
          "type": "uint256"
        },
        {
          "indexed": false,
          "internalType": "uint256",
          "name": "newTotalReserves",
          "type": "uint256"
        }
      ],
      "name": "ReservesAdded",
      "type": "event"
    },
    {
      "anonymous": false,
      "inputs": [
        {
          "indexed": false,
          "internalType": "address",
          "name": "admin",
          "type": "address"
        },
        {
          "indexed": false,
          "internalType": "uint256",
          "name": "reduceAmount",
          "type": "uint256"
        },
        {
          "indexed": false,
          "internalType": "uint256",
          "name": "newTotalReserves",
          "type": "uint256"
        }
      ],
      "name": "ReservesReduced",
      "type": "event"
    },
    {
      "anonymous": false,
      "inputs": [
        {
          "indexed": true,
          "internalType": "address",
          "name": "from",
          "type": "address"
        },
        {
          "indexed": true,
          "internalType": "address",
          "name": "to",
          "type": "address"
        },
        {
          "indexed": false,
          "internalType": "uint256",
          "name": "amount",
          "type": "uint256"
        }
      ],
      "name": "Transfer",
      "type": "event"
    },
    {
      "constant": true,
      "inputs": [],
      "name": "_MMI",
      "outputs": [
        {
          "internalType": "contract MoneyMarketInstance",
          "name": "",
          "type": "address"
        }
      ],
      "payable": false,
      "stateMutability": "view",
      "type": "function"
    },
    {
      "constant": false,
      "inputs": [],
      "name": "_acceptAdmin",
      "outputs": [
        {
          "internalType": "uint256",
          "name": "",
          "type": "uint256"
        }
      ],
      "payable": false,
      "stateMutability": "nonpayable",
      "type": "function"
    },
    {
      "constant": false,
      "inputs": [
        {
          "internalType": "uint256",
          "name": "addAmount",
          "type": "uint256"
        }
      ],
      "name": "_addReserves",
      "outputs": [
        {
          "internalType": "uint256",
          "name": "",
          "type": "uint256"
        }
      ],
      "payable": false,
      "stateMutability": "nonpayable",
      "type": "function"
    },
    {
      "constant": false,
      "inputs": [
        {
          "internalType": "uint256",
          "name": "reduceAmount",
          "type": "uint256"
        }
      ],
      "name": "_reduceReserves",
      "outputs": [
        {
          "internalType": "uint256",
          "name": "",
          "type": "uint256"
        }
      ],
      "payable": false,
      "stateMutability": "nonpayable",
      "type": "function"
    },
    {
      "constant": false,
      "inputs": [
        {
          "internalType": "contract ComptrollerInterface",
          "name": "newComptroller",
          "type": "address"
        }
      ],
      "name": "_setComptroller",
      "outputs": [
        {
          "internalType": "uint256",
          "name": "",
          "type": "uint256"
        }
      ],
      "payable": false,
      "stateMutability": "nonpayable",
      "type": "function"
    },
    {
      "constant": false,
      "inputs": [
        {
          "internalType": "contract InterestRateModel",
          "name": "newInterestRateModel",
          "type": "address"
        }
      ],
      "name": "_setInterestRateModel",
      "outputs": [
        {
          "internalType": "uint256",
          "name": "",
          "type": "uint256"
        }
      ],
      "payable": false,
      "stateMutability": "nonpayable",
      "type": "function"
    },
    {
      "constant": false,
      "inputs": [
        {
          "internalType": "address payable",
          "name": "newPendingAdmin",
          "type": "address"
        }
      ],
      "name": "_setPendingAdmin",
      "outputs": [
        {
          "internalType": "uint256",
          "name": "",
          "type": "uint256"
        }
      ],
      "payable": false,
      "stateMutability": "nonpayable",
      "type": "function"
    },
    {
      "constant": false,
      "inputs": [
        {
          "internalType": "uint256",
          "name": "newReserveFactorMantissa",
          "type": "uint256"
        }
      ],
      "name": "_setReserveFactor",
      "outputs": [
        {
          "internalType": "uint256",
          "name": "",
          "type": "uint256"
        }
      ],
      "payable": false,
      "stateMutability": "nonpayable",
      "type": "function"
    },
    {
      "constant": true,
      "inputs": [],
      "name": "accrualBlockNumber",
      "outputs": [
        {
          "internalType": "uint256",
          "name": "",
          "type": "uint256"
        }
      ],
      "payable": false,
      "stateMutability": "view",
      "type": "function"
    },
    {
      "constant": false,
      "inputs": [],
      "name": "accrueInterest",
      "outputs": [
        {
          "internalType": "uint256",
          "name": "",
          "type": "uint256"
        }
      ],
      "payable": false,
      "stateMutability": "nonpayable",
      "type": "function"
    },
    {
      "constant": true,
      "inputs": [],
      "name": "admin",
      "outputs": [
        {
          "internalType": "address payable",
          "name": "",
          "type": "address"
        }
      ],
      "payable": false,
      "stateMutability": "view",
      "type": "function"
    },
    {
      "constant": true,
      "inputs": [
        {
          "internalType": "address",
          "name": "owner",
          "type": "address"
        },
        {
          "internalType": "address",
          "name": "spender",
          "type": "address"
        }
      ],
      "name": "allowance",
      "outputs": [
        {
          "internalType": "uint256",
          "name": "",
          "type": "uint256"
        }
      ],
      "payable": false,
      "stateMutability": "view",
      "type": "function"
    },
    {
      "constant": false,
      "inputs": [
        {
          "internalType": "address",
          "name": "spender",
          "type": "address"
        },
        {
          "internalType": "uint256",
          "name": "amount",
          "type": "uint256"
        }
      ],
      "name": "approve",
      "outputs": [
        {
          "internalType": "bool",
          "name": "",
          "type": "bool"
        }
      ],
      "payable": false,
      "stateMutability": "nonpayable",
      "type": "function"
    },
    {
      "constant": true,
      "inputs": [
        {
          "internalType": "address",
          "name": "owner",
          "type": "address"
        }
      ],
      "name": "balanceOf",
      "outputs": [
        {
          "internalType": "uint256",
          "name": "",
          "type": "uint256"
        }
      ],
      "payable": false,
      "stateMutability": "view",
      "type": "function"
    },
    {
      "constant": false,
      "inputs": [
        {
          "internalType": "address",
          "name": "owner",
          "type": "address"
        }
      ],
      "name": "balanceOfUnderlying",
      "outputs": [
        {
          "internalType": "uint256",
          "name": "",
          "type": "uint256"
        }
      ],
      "payable": false,
      "stateMutability": "nonpayable",
      "type": "function"
    },
    {
      "constant": false,
      "inputs": [
        {
          "internalType": "uint256",
          "name": "borrowAmount",
          "type": "uint256"
        }
      ],
      "name": "borrow",
      "outputs": [
        {
          "internalType": "uint256",
          "name": "",
          "type": "uint256"
        }
      ],
      "payable": false,
      "stateMutability": "nonpayable",
      "type": "function"
    },
    {
      "constant": false,
      "inputs": [
        {
          "internalType": "address",
          "name": "account",
          "type": "address"
        }
      ],
      "name": "borrowBalanceCurrent",
      "outputs": [
        {
          "internalType": "uint256",
          "name": "",
          "type": "uint256"
        }
      ],
      "payable": false,
      "stateMutability": "nonpayable",
      "type": "function"
    },
    {
      "constant": true,
      "inputs": [
        {
          "internalType": "address",
          "name": "account",
          "type": "address"
        }
      ],
      "name": "borrowBalanceStored",
      "outputs": [
        {
          "internalType": "uint256",
          "name": "",
          "type": "uint256"
        }
      ],
      "payable": false,
      "stateMutability": "view",
      "type": "function"
    },
    {
      "constant": true,
      "inputs": [],
      "name": "borrowIndex",
      "outputs": [
        {
          "internalType": "uint256",
          "name": "",
          "type": "uint256"
        }
      ],
      "payable": false,
      "stateMutability": "view",
      "type": "function"
    },
    {
      "constant": true,
      "inputs": [],
      "name": "borrowRatePerBlock",
      "outputs": [
        {
          "internalType": "uint256",
          "name": "",
          "type": "uint256"
        }
      ],
      "payable": false,
      "stateMutability": "view",
      "type": "function"
    },
    {
      "constant": true,
      "inputs": [],
      "name": "comptroller",
      "outputs": [
        {
          "internalType": "contract ComptrollerInterface",
          "name": "",
          "type": "address"
        }
      ],
      "payable": false,
      "stateMutability": "view",
      "type": "function"
    },
    {
      "constant": true,
      "inputs": [],
      "name": "decimals",
      "outputs": [
        {
          "internalType": "uint8",
          "name": "",
          "type": "uint8"
        }
      ],
      "payable": false,
      "stateMutability": "view",
      "type": "function"
    },
    {
      "constant": false,
      "inputs": [],
      "name": "exchangeRateCurrent",
      "outputs": [
        {
          "internalType": "uint256",
          "name": "",
          "type": "uint256"
        }
      ],
      "payable": false,
      "stateMutability": "nonpayable",
      "type": "function"
    },
    {
      "constant": true,
      "inputs": [],
      "name": "exchangeRateStored",
      "outputs": [
        {
          "internalType": "uint256",
          "name": "",
          "type": "uint256"
        }
      ],
      "payable": false,
      "stateMutability": "view",
      "type": "function"
    },
    {
      "constant": true,
      "inputs": [
        {
          "internalType": "address",
          "name": "account",
          "type": "address"
        }
      ],
      "name": "getAccountSnapshot",
      "outputs": [
        {
          "internalType": "uint256",
          "name": "",
          "type": "uint256"
        },
        {
          "internalType": "uint256",
          "name": "",
          "type": "uint256"
        },
        {
          "internalType": "uint256",
          "name": "",
          "type": "uint256"
        },
        {
          "internalType": "uint256",
          "name": "",
          "type": "uint256"
        }
      ],
      "payable": false,
      "stateMutability": "view",
      "type": "function"
    },
    {
      "constant": true,
      "inputs": [],
      "name": "getCash",
      "outputs": [
        {
          "internalType": "uint256",
          "name": "",
          "type": "uint256"
        }
      ],
      "payable": false,
      "stateMutability": "view",
      "type": "function"
    },
    {
      "constant": true,
      "inputs": [],
      "name": "implementation",
      "outputs": [
        {
          "internalType": "address",
          "name": "",
          "type": "address"
        }
      ],
      "payable": false,
      "stateMutability": "view",
      "type": "function"
    },
    {
      "constant": false,
      "inputs": [
        {
          "internalType": "address",
          "name": "underlying_",
          "type": "address"
        },
        {
          "internalType": "contract ComptrollerInterface",
          "name": "comptroller_",
          "type": "address"
        },
        {
          "internalType": "contract InterestRateModel",
          "name": "interestRateModel_",
          "type": "address"
        },
        {
          "internalType": "uint256",
          "name": "initialExchangeRateMantissa_",
          "type": "uint256"
        },
        {
          "internalType": "string",
          "name": "name_",
          "type": "string"
        },
        {
          "internalType": "string",
          "name": "symbol_",
          "type": "string"
        },
        {
          "internalType": "uint8",
          "name": "decimals_",
          "type": "uint8"
        },
        {
          "internalType": "address payable",
          "name": "admin_",
          "type": "address"
        },
        {
          "internalType": "bool",
          "name": "_isALR",
          "type": "bool"
        }
      ],
      "name": "initialize",
      "outputs": [],
      "payable": false,
      "stateMutability": "nonpayable",
      "type": "function"
    },
    {
      "constant": false,
      "inputs": [
        {
          "internalType": "contract ComptrollerInterface",
          "name": "comptroller_",
          "type": "address"
        },
        {
          "internalType": "contract InterestRateModel",
          "name": "interestRateModel_",
          "type": "address"
        },
        {
          "internalType": "uint256",
          "name": "initialExchangeRateMantissa_",
          "type": "uint256"
        },
        {
          "internalType": "string",
          "name": "name_",
          "type": "string"
        },
        {
          "internalType": "string",
          "name": "symbol_",
          "type": "string"
        },
        {
          "internalType": "uint8",
          "name": "decimals_",
          "type": "uint8"
        }
      ],
      "name": "initialize",
      "outputs": [],
      "payable": false,
      "stateMutability": "nonpayable",
      "type": "function"
    },
    {
      "constant": true,
      "inputs": [],
      "name": "interestRateModel",
      "outputs": [
        {
          "internalType": "contract InterestRateModel",
          "name": "",
          "type": "address"
        }
      ],
      "payable": false,
      "stateMutability": "view",
      "type": "function"
    },
    {
      "constant": true,
      "inputs": [],
      "name": "isALR",
      "outputs": [
        {
          "internalType": "bool",
          "name": "",
          "type": "bool"
        }
      ],
      "payable": false,
      "stateMutability": "view",
      "type": "function"
    },
    {
      "constant": true,
      "inputs": [],
      "name": "isCToken",
      "outputs": [
        {
          "internalType": "bool",
          "name": "",
          "type": "bool"
        }
      ],
      "payable": false,
      "stateMutability": "view",
      "type": "function"
    },
    {
      "constant": false,
      "inputs": [
        {
          "internalType": "address",
          "name": "borrower",
          "type": "address"
        },
        {
          "internalType": "uint256",
          "name": "repayAmount",
          "type": "uint256"
        },
        {
          "internalType": "contract CTokenInterface",
          "name": "cTokenCollateral",
          "type": "address"
        }
      ],
      "name": "liquidateBorrow",
      "outputs": [
        {
          "internalType": "uint256",
          "name": "",
          "type": "uint256"
        }
      ],
      "payable": false,
      "stateMutability": "nonpayable",
      "type": "function"
    },
    {
      "constant": false,
      "inputs": [
        {
          "internalType": "uint256",
          "name": "mintAmount",
          "type": "uint256"
        }
      ],
      "name": "mint",
      "outputs": [
        {
          "internalType": "uint256",
          "name": "",
          "type": "uint256"
        }
      ],
      "payable": false,
      "stateMutability": "nonpayable",
      "type": "function"
    },
    {
      "constant": true,
      "inputs": [],
      "name": "name",
      "outputs": [
        {
          "internalType": "string",
          "name": "",
          "type": "string"
        }
      ],
      "payable": false,
      "stateMutability": "view",
      "type": "function"
    },
    {
      "constant": true,
      "inputs": [],
      "name": "pendingAdmin",
      "outputs": [
        {
          "internalType": "address payable",
          "name": "",
          "type": "address"
        }
      ],
      "payable": false,
      "stateMutability": "view",
      "type": "function"
    },
    {
      "constant": false,
      "inputs": [
        {
          "internalType": "uint256",
          "name": "redeemTokens",
          "type": "uint256"
        }
      ],
      "name": "redeem",
      "outputs": [
        {
          "internalType": "uint256",
          "name": "",
          "type": "uint256"
        }
      ],
      "payable": false,
      "stateMutability": "nonpayable",
      "type": "function"
    },
    {
      "constant": false,
      "inputs": [
        {
          "internalType": "uint256",
          "name": "redeemAmount",
          "type": "uint256"
        }
      ],
      "name": "redeemUnderlying",
      "outputs": [
        {
          "internalType": "uint256",
          "name": "",
          "type": "uint256"
        }
      ],
      "payable": false,
      "stateMutability": "nonpayable",
      "type": "function"
    },
    {
      "constant": false,
      "inputs": [
        {
          "internalType": "uint256",
          "name": "repayAmount",
          "type": "uint256"
        }
      ],
      "name": "repayBorrow",
      "outputs": [
        {
          "internalType": "uint256",
          "name": "",
          "type": "uint256"
        }
      ],
      "payable": false,
      "stateMutability": "nonpayable",
      "type": "function"
    },
    {
      "constant": false,
      "inputs": [
        {
          "internalType": "address",
          "name": "borrower",
          "type": "address"
        },
        {
          "internalType": "uint256",
          "name": "repayAmount",
          "type": "uint256"
        }
      ],
      "name": "repayBorrowBehalf",
      "outputs": [
        {
          "internalType": "uint256",
          "name": "",
          "type": "uint256"
        }
      ],
      "payable": false,
      "stateMutability": "nonpayable",
      "type": "function"
    },
    {
      "constant": true,
      "inputs": [],
      "name": "reserveFactorMantissa",
      "outputs": [
        {
          "internalType": "uint256",
          "name": "",
          "type": "uint256"
        }
      ],
      "payable": false,
      "stateMutability": "view",
      "type": "function"
    },
    {
      "constant": false,
      "inputs": [
        {
          "internalType": "address",
          "name": "liquidator",
          "type": "address"
        },
        {
          "internalType": "address",
          "name": "borrower",
          "type": "address"
        },
        {
          "internalType": "uint256",
          "name": "seizeTokens",
          "type": "uint256"
        }
      ],
      "name": "seize",
      "outputs": [
        {
          "internalType": "uint256",
          "name": "",
          "type": "uint256"
        }
      ],
      "payable": false,
      "stateMutability": "nonpayable",
      "type": "function"
    },
    {
      "constant": true,
      "inputs": [],
      "name": "supplyRatePerBlock",
      "outputs": [
        {
          "internalType": "uint256",
          "name": "",
          "type": "uint256"
        }
      ],
      "payable": false,
      "stateMutability": "view",
      "type": "function"
    },
    {
      "constant": true,
      "inputs": [],
      "name": "symbol",
      "outputs": [
        {
          "internalType": "string",
          "name": "",
          "type": "string"
        }
      ],
      "payable": false,
      "stateMutability": "view",
      "type": "function"
    },
    {
      "constant": true,
      "inputs": [],
      "name": "totalBorrows",
      "outputs": [
        {
          "internalType": "uint256",
          "name": "",
          "type": "uint256"
        }
      ],
      "payable": false,
      "stateMutability": "view",
      "type": "function"
    },
    {
      "constant": false,
      "inputs": [],
      "name": "totalBorrowsCurrent",
      "outputs": [
        {
          "internalType": "uint256",
          "name": "",
          "type": "uint256"
        }
      ],
      "payable": false,
      "stateMutability": "nonpayable",
      "type": "function"
    },
    {
      "constant": true,
      "inputs": [],
      "name": "totalReserves",
      "outputs": [
        {
          "internalType": "uint256",
          "name": "",
          "type": "uint256"
        }
      ],
      "payable": false,
      "stateMutability": "view",
      "type": "function"
    },
    {
      "constant": true,
      "inputs": [],
      "name": "totalSupply",
      "outputs": [
        {
          "internalType": "uint256",
          "name": "",
          "type": "uint256"
        }
      ],
      "payable": false,
      "stateMutability": "view",
      "type": "function"
    },
    {
      "constant": false,
      "inputs": [
        {
          "internalType": "address",
          "name": "dst",
          "type": "address"
        },
        {
          "internalType": "uint256",
          "name": "amount",
          "type": "uint256"
        }
      ],
      "name": "transfer",
      "outputs": [
        {
          "internalType": "bool",
          "name": "",
          "type": "bool"
        }
      ],
      "payable": false,
      "stateMutability": "nonpayable",
      "type": "function"
    },
    {
      "constant": false,
      "inputs": [
        {
          "internalType": "address",
          "name": "src",
          "type": "address"
        },
        {
          "internalType": "address",
          "name": "dst",
          "type": "address"
        },
        {
          "internalType": "uint256",
          "name": "amount",
          "type": "uint256"
        }
      ],
      "name": "transferFrom",
      "outputs": [
        {
          "internalType": "bool",
          "name": "",
          "type": "bool"
        }
      ],
      "payable": false,
      "stateMutability": "nonpayable",
      "type": "function"
    },
    {
      "constant": true,
      "inputs": [],
      "name": "underlying",
      "outputs": [
        {
          "internalType": "address",
          "name": "",
          "type": "address"
        }
      ],
      "payable": false,
      "stateMutability": "view",
      "type": "function"
    },
    {
      "constant": false,
      "inputs": [
        {
          "internalType": "bytes",
          "name": "data",
          "type": "bytes"
        }
      ],
      "name": "_becomeImplementation",
      "outputs": [],
      "payable": false,
      "stateMutability": "nonpayable",
      "type": "function"
    },
    {
      "constant": false,
      "inputs": [],
      "name": "_resignImplementation",
      "outputs": [],
      "payable": false,
      "stateMutability": "nonpayable",
      "type": "function"
    }
  ],
  "bytecode": "0x608060405234801561001057600080fd5b506153bf806100206000396000f3fe608060405234801561001057600080fd5b50600436106102d75760003560e01c806377e4974d11610188578063b71d1a0c116100e4578063f2b3abbd11610092578063f2b3abbd14610ad9578063f3fdb15a14610aff578063f5e3c46214610b07578063f851a44014610b3d578063f8f9da2814610b45578063fca7820b14610b4d578063fe9c44ae14610b6a576102d7565b8063b71d1a0c146109ef578063bd6d894d14610a15578063c37f68e214610a1d578063c5ebeaec14610a69578063db006a7514610a86578063dd62ed3e14610aa3578063e9c714f214610ad1576102d7565b806399d8c1b41161014157806399d8c1b41461080a578063a0712d6814610958578063a6afed9514610975578063a9059cbb1461097d578063aa5af0fd146109a9578063ae9d70b0146109b1578063b2a02ff1146109b9576102d7565b806377e4974d146107a75780637d3a71ef146107af578063852a12e3146107b75780638f840ddd146107d457806395d89b41146107dc57806395dd9193146107e4576102d7565b80633b1d21a2116102375780635dc48ff4116101f05780635dc48ff4146105d95780635fe3b56714610744578063601a0bf11461074c5780636c540baf146107695780636f307dc31461077157806370a082311461077957806373acee981461079f576102d7565b80633b1d21a2146104da5780633e941010146104e25780634576b5db146104ff57806347bd37181461052557806356e677281461052d5780635c60da1b146105d1576102d7565b806318160ddd1161029457806318160ddd14610400578063182df0f51461040857806323b872dd146104105780632608f818146104465780632678224714610472578063313ce567146104965780633af9e669146104b4576102d7565b806306fdde03146102dc578063095ea7b3146103595780630e75270214610399578063153ab505146103c8578063173b9904146103d257806317bfdfbc146103da575b600080fd5b6102e4610b72565b6040805160208082528351818301528351919283929083019185019080838360005b8381101561031e578181015183820152602001610306565b50505050905090810190601f16801561034b5780820380516001836020036101000a031916815260200191505b509250505060405180910390f35b6103856004803603604081101561036f57600080fd5b506001600160a01b038135169060200135610bff565b604080519115158252519081900360200190f35b6103b6600480360360208110156103af57600080fd5b5035610c6c565b60408051918252519081900360200190f35b6103d0610ccd565b005b6103b6610d1d565b6103b6600480360360208110156103f057600080fd5b50356001600160a01b0316610d23565b6103b6610deb565b6103b6610df1565b6103856004803603606081101561042657600080fd5b506001600160a01b03813581169160208101359091169060400135610e54565b6103b66004803603604081101561045c57600080fd5b506001600160a01b038135169060200135610ece565b61047a610f2f565b604080516001600160a01b039092168252519081900360200190f35b61049e610f3e565b6040805160ff9092168252519081900360200190f35b6103b6600480360360208110156104ca57600080fd5b50356001600160a01b0316610f47565b6103b6610ffd565b6103b6600480360360208110156104f857600080fd5b503561100c565b6103b66004803603602081101561051557600080fd5b50356001600160a01b0316611017565b6103b661116c565b6103d06004803603602081101561054357600080fd5b810190602081018135600160201b81111561055d57600080fd5b82018360208201111561056f57600080fd5b803590602001918460018302840111600160201b8311171561059057600080fd5b91908080601f016020809104026020016040519081016040528093929190818152602001838380828437600092019190915250929550611172945050505050565b61047a6111c3565b6103d060048036036101208110156105f057600080fd5b6001600160a01b03823581169260208101358216926040820135909216916060820135919081019060a081016080820135600160201b81111561063257600080fd5b82018360208201111561064457600080fd5b803590602001918460018302840111600160201b8311171561066557600080fd5b91908080601f0160208091040260200160405190810160405280939291908181526020018383808284376000920191909152509295949360208101935035915050600160201b8111156106b757600080fd5b8201836020820111156106c957600080fd5b803590602001918460018302840111600160201b831117156106ea57600080fd5b91908080601f0160208091040260200160405190810160405280939291908181526020018383808284376000920191909152509295505050813560ff1692505060208101356001600160a01b0316906040013515156111d2565b61047a6112bc565b6103b66004803603602081101561076257600080fd5b50356112cb565b6103b661136e565b61047a611374565b6103b66004803603602081101561078f57600080fd5b50356001600160a01b0316611388565b6103b66113a3565b610385611461565b61047a61146a565b6103b6600480360360208110156107cd57600080fd5b5035611479565b6103b6611484565b6102e461148a565b6103b6600480360360208110156107fa57600080fd5b50356001600160a01b03166114e2565b6103d0600480360360c081101561082057600080fd5b6001600160a01b03823581169260208101359091169160408201359190810190608081016060820135600160201b81111561085a57600080fd5b82018360208201111561086c57600080fd5b803590602001918460018302840111600160201b8311171561088d57600080fd5b91908080601f0160208091040260200160405190810160405280939291908181526020018383808284376000920191909152509295949360208101935035915050600160201b8111156108df57600080fd5b8201836020820111156108f157600080fd5b803590602001918460018302840111600160201b8311171561091257600080fd5b91908080601f0160208091040260200160405190810160405280939291908181526020018383808284376000920191909152509295505050903560ff16915061153f9050565b6103b66004803603602081101561096e57600080fd5b503561172c565b6103b6611783565b6103856004803603604081101561099357600080fd5b506001600160a01b038135169060200135611adb565b6103b6611b54565b6103b6611b5a565b6103b6600480360360608110156109cf57600080fd5b506001600160a01b03813581169160208101359091169060400135611bf9565b6103b660048036036020811015610a0557600080fd5b50356001600160a01b0316611c72565b6103b6611cfe565b610a4360048036036020811015610a3357600080fd5b50356001600160a01b0316611dc2565b604080519485526020850193909352838301919091526060830152519081900360800190f35b6103b660048036036020811015610a7f57600080fd5b5035611e57565b6103b660048036036020811015610a9c57600080fd5b5035611eac565b6103b660048036036040811015610ab957600080fd5b506001600160a01b0381358116916020013516611eb7565b6103b6611ee2565b6103b660048036036020811015610aef57600080fd5b50356001600160a01b0316611fe5565b61047a61201f565b6103b660048036036060811015610b1d57600080fd5b506001600160a01b0381358116916020810135916040909101351661202e565b61047a612046565b6103b661205a565b6103b660048036036020811015610b6357600080fd5b50356120be565b610385612142565b60018054604080516020600284861615610100026000190190941693909304601f81018490048402820184019092528181529291830182828015610bf75780601f10610bcc57610100808354040283529160200191610bf7565b820191906000526020600020905b815481529060010190602001808311610bda57829003601f168201915b505050505081565b336000818152600f602090815260408083206001600160a01b03871680855290835281842086905581518681529151939493909284927f8c5be1e5ebec7d5bd14f71427d1e84f3dd0314c0f7b2291e5b200ac8c7c3b925929081900390910190a360019150505b92915050565b6012546000906001600160a01b03163314610cb85760405162461bcd60e51b81526004018080602001828103825260588152602001806151316058913960600191505060405180910390fd5b6000610cc383612147565b509150505b919050565b60035461010090046001600160a01b03163314610d1b5760405162461bcd60e51b815260040180806020018281038252602d815260200180615104602d913960400191505060405180910390fd5b565b60085481565b60008054610100900460ff16610d6d576040805162461bcd60e51b815260206004820152600a6024820152691c994b595b9d195c995960b21b604482015290519081900360640190fd5b6000805461ff0019168155610d80611783565b14610dcb576040805162461bcd60e51b81526020600482015260166024820152751858d8dc9d59481a5b9d195c995cdd0819985a5b195960521b604482015290519081900360640190fd5b610dd4826114e2565b90505b6000805461ff001916610100179055919050565b600d5481565b6000806000610dfe6121f8565b90925090506000826003811115610e1157fe5b14610e4d5760405162461bcd60e51b81526004018080602001828103825260358152602001806152a96035913960400191505060405180910390fd5b9150505b90565b60008054610100900460ff16610e9e576040805162461bcd60e51b815260206004820152600a6024820152691c994b595b9d195c995960b21b604482015290519081900360640190fd5b6000805461ff0019168155610eb5338686866122a7565b1490506000805461ff0019166101001790559392505050565b6012546000906001600160a01b03163314610f1a5760405162461bcd60e51b81526004018080602001828103825260588152602001806151316058913960600191505060405180910390fd5b6000610f2684846125b5565b50949350505050565b6004546001600160a01b031681565b60035460ff1681565b6000610f51614f12565b6040518060200160405280610f64611cfe565b90526001600160a01b0384166000908152600e6020526040812054919250908190610f90908490612668565b90925090506000826003811115610fa357fe5b14610ff5576040805162461bcd60e51b815260206004820152601f60248201527f62616c616e636520636f756c64206e6f742062652063616c63756c6174656400604482015290519081900360640190fd5b949350505050565b60006110076126bc565b905090565b6000610c6682612741565b60035460009061010090046001600160a01b031633146110445761103d6001603f6127dd565b9050610cc8565b60055460408051623f1ee960e11b815290516001600160a01b0392831692851691627e3dd2916004808301926020929190829003018186803b15801561108957600080fd5b505afa15801561109d573d6000803e3d6000fd5b505050506040513d60208110156110b357600080fd5b5051611106576040805162461bcd60e51b815260206004820152601c60248201527f6d61726b6572206d6574686f642072657475726e65642066616c736500000000604482015290519081900360640190fd5b600580546001600160a01b0319166001600160a01b03858116918217909255604080519284168352602083019190915280517f7ac369dbd14fa5ea3f473ed67cc9d598964a77501540ba6751eb0b3decf5870d9281900390910190a160005b9392505050565b600b5481565b60035461010090046001600160a01b031633146111c05760405162461bcd60e51b815260040180806020018281038252602d81526020018061535e602d913960400191505060405180910390fd5b50565b6013546001600160a01b031681565b6111e088888888888861153f565b88601160016101000a8154816001600160a01b0302191690836001600160a01b03160217905550601160019054906101000a90046001600160a01b03166001600160a01b03166318160ddd6040518163ffffffff1660e01b815260040160206040518083038186803b15801561125557600080fd5b505afa158015611269573d6000803e3d6000fd5b505050506040513d602081101561127f57600080fd5b5050601280546001600160a01b0319166001600160a01b0393909316929092179091556011805460ff191691151591909117905550505050505050565b6005546001600160a01b031681565b60008054610100900460ff16611315576040805162461bcd60e51b815260206004820152600a6024820152691c994b595b9d195c995960b21b604482015290519081900360640190fd5b6000805461ff0019168155611328611783565b9050801561134e5761134681601081111561133f57fe5b60306127dd565b915050610dd7565b61135783612843565b9150506000805461ff001916610100179055919050565b60095481565b60115461010090046001600160a01b031681565b6001600160a01b03166000908152600e602052604090205490565b60008054610100900460ff166113ed576040805162461bcd60e51b815260206004820152600a6024820152691c994b595b9d195c995960b21b604482015290519081900360640190fd5b6000805461ff0019168155611400611783565b1461144b576040805162461bcd60e51b81526020600482015260166024820152751858d8dc9d59481a5b9d195c995cdd0819985a5b195960521b604482015290519081900360640190fd5b50600b546000805461ff00191661010017905590565b60115460ff1681565b6012546001600160a01b031681565b6000610c6682612976565b600c5481565b6002805460408051602060018416156101000260001901909316849004601f81018490048402820184019092528181529291830182828015610bf75780601f10610bcc57610100808354040283529160200191610bf7565b60008060006114f0846129fd565b9092509050600082600381111561150357fe5b146111655760405162461bcd60e51b81526004018080602001828103825260378152602001806151b46037913960400191505060405180910390fd5b60035461010090046001600160a01b0316331461158d5760405162461bcd60e51b815260040180806020018281038252602481526020018061506b6024913960400191505060405180910390fd5b60095415801561159d5750600a54155b6115d85760405162461bcd60e51b815260040180806020018281038252602381526020018061508f6023913960400191505060405180910390fd5b6007849055836116195760405162461bcd60e51b81526004018080602001828103825260308152602001806150b26030913960400191505060405180910390fd5b600061162487611017565b90508015611679576040805162461bcd60e51b815260206004820152601a60248201527f73657474696e6720636f6d7074726f6c6c6572206661696c6564000000000000604482015290519081900360640190fd5b611681612ab1565b600955670de0b6b3a7640000600a5561169986612ab5565b905080156116d85760405162461bcd60e51b81526004018080602001828103825260228152602001806150e26022913960400191505060405180910390fd5b83516116eb906001906020870190614f25565b5082516116ff906002906020860190614f25565b50506003805460ff90921660ff1990921691909117905550506000805461ff001916610100179055505050565b6012546000906001600160a01b031633146117785760405162461bcd60e51b81526004018080602001828103825260588152602001806151316058913960600191505060405180910390fd5b6000610cc383612c2a565b60008061178e612ab1565b600954909150808214156117a757600092505050610e51565b60006117b16126bc565b600b54600c54600a54600654604080516315f2405360e01b815260048101879052602481018690526044810185905290519596509394929391926000926001600160a01b03909216916315f24053916064808301926020929190829003018186803b15801561181f57600080fd5b505afa158015611833573d6000803e3d6000fd5b505050506040513d602081101561184957600080fd5b5051905065048c273950008111156118a8576040805162461bcd60e51b815260206004820152601c60248201527f626f72726f772072617465206973206162737572646c79206869676800000000604482015290519081900360640190fd5b6000806118b58989612cb1565b909250905060008260038111156118c857fe5b1461191a576040805162461bcd60e51b815260206004820152601f60248201527f636f756c64206e6f742063616c63756c61746520626c6f636b2064656c746100604482015290519081900360640190fd5b611922614f12565b60008060008061194060405180602001604052808a81525087612cd4565b9097509450600087600381111561195357fe5b14611985576119706009600689600381111561196b57fe5b612d3c565b9e505050505050505050505050505050610e51565b61198f858c612668565b909750935060008760038111156119a257fe5b146119ba576119706009600189600381111561196b57fe5b6119c4848c612da2565b909750925060008760038111156119d757fe5b146119ef576119706009600489600381111561196b57fe5b611a0a6040518060200160405280600854815250858c612dc8565b90975091506000876003811115611a1d57fe5b14611a35576119706009600589600381111561196b57fe5b611a40858a8b612dc8565b90975090506000876003811115611a5357fe5b14611a6b576119706009600389600381111561196b57fe5b60098e9055600a819055600b839055600c829055604080518d8152602081018690528082018390526060810185905290517f4dec04e750ca11537cabcd8a9eab06494de08da3735bc8871cd41250e190bc049181900360800190a160009e50505050505050505050505050505090565b60008054610100900460ff16611b25576040805162461bcd60e51b815260206004820152600a6024820152691c994b595b9d195c995960b21b604482015290519081900360640190fd5b6000805461ff0019168155611b3c333386866122a7565b1490506000805461ff00191661010017905592915050565b600a5481565b6006546000906001600160a01b031663b8168816611b766126bc565b600b54600c546008546040518563ffffffff1660e01b81526004018085815260200184815260200183815260200182815260200194505050505060206040518083038186803b158015611bc857600080fd5b505afa158015611bdc573d6000803e3d6000fd5b505050506040513d6020811015611bf257600080fd5b5051905090565b60008054610100900460ff16611c43576040805162461bcd60e51b815260206004820152600a6024820152691c994b595b9d195c995960b21b604482015290519081900360640190fd5b6000805461ff0019169055611c5a33858585612e24565b90506000805461ff0019166101001790559392505050565b60035460009061010090046001600160a01b03163314611c985761103d600160456127dd565b600480546001600160a01b038481166001600160a01b0319831681179093556040805191909216808252602082019390935281517fca4f2f25d0898edd99413412fb94012f9e54ec8142f9b093e7720646a95b16a9929181900390910190a16000611165565b60008054610100900460ff16611d48576040805162461bcd60e51b815260206004820152600a6024820152691c994b595b9d195c995960b21b604482015290519081900360640190fd5b6000805461ff0019168155611d5b611783565b14611da6576040805162461bcd60e51b81526020600482015260166024820152751858d8dc9d59481a5b9d195c995cdd0819985a5b195960521b604482015290519081900360640190fd5b611dae610df1565b90506000805461ff00191661010017905590565b6001600160a01b0381166000908152600e6020526040812054819081908190818080611ded896129fd565b935090506000816003811115611dff57fe5b14611e1d5760095b975060009650869550859450611e509350505050565b611e256121f8565b925090506000816003811115611e3757fe5b14611e43576009611e07565b5060009650919450925090505b9193509193565b6012546000906001600160a01b03163314611ea35760405162461bcd60e51b81526004018080602001828103825260588152602001806151316058913960600191505060405180910390fd5b610c668261308a565b6000610c668261310f565b6001600160a01b039182166000908152600f6020908152604080832093909416825291909152205490565b6004546000906001600160a01b031633141580611efd575033155b15611f1557611f0e600160006127dd565b9050610e51565b60038054600480546001600160a01b03818116610100818102610100600160a81b0319871617968790556001600160a01b031990931690935560408051948390048216808652929095041660208401528351909391927ff9ffabca9c8276e99321725bcb43fb076a6c66a54b7f21c4e8146d8519b417dc92908290030190a1600454604080516001600160a01b038085168252909216602083015280517fca4f2f25d0898edd99413412fb94012f9e54ec8142f9b093e7720646a95b16a99281900390910190a160009250505090565b600080611ff0611783565b905080156120165761200e81601081111561200757fe5b60406127dd565b915050610cc8565b61116583612ab5565b6006546001600160a01b031681565b60008061203c85858561318f565b5095945050505050565b60035461010090046001600160a01b031681565b6006546000906001600160a01b03166315f240536120766126bc565b600b54600c546040518463ffffffff1660e01b815260040180848152602001838152602001828152602001935050505060206040518083038186803b158015611bc857600080fd5b60008054610100900460ff16612108576040805162461bcd60e51b815260206004820152600a6024820152691c994b595b9d195c995960b21b604482015290519081900360640190fd5b6000805461ff001916815561211b611783565b905080156121395761134681601081111561213257fe5b60466127dd565b611357836132c9565b600181565b600080548190610100900460ff16612193576040805162461bcd60e51b815260206004820152600a6024820152691c994b595b9d195c995960b21b604482015290519081900360640190fd5b6000805461ff00191681556121a6611783565b905080156121d1576121c48160108111156121bd57fe5b60366127dd565b9250600091506121e29050565b6121dc333386613371565b92509250505b6000805461ff0019166101001790559092909150565b600d54600090819080612213575050600754600091506122a3565b600061221d6126bc565b90506000612229614f12565b600061223a84600b54600c54613756565b93509050600081600381111561224c57fe5b14612261579550600094506122a39350505050565b61226b8386613794565b92509050600081600381111561227d57fe5b14612292579550600094506122a39350505050565b50516000955093506122a392505050565b9091565b600554604080516317b9b84b60e31b81523060048201526001600160a01b03868116602483015285811660448301526064820185905291516000938493169163bdcdc25891608480830192602092919082900301818787803b15801561230c57600080fd5b505af1158015612320573d6000803e3d6000fd5b505050506040513d602081101561233657600080fd5b5051905080156123555761234d6003604a83612d3c565b915050610ff5565b836001600160a01b0316856001600160a01b0316141561237b5761234d6002604b6127dd565b60006001600160a01b03878116908716141561239a57506000196123c2565b506001600160a01b038086166000908152600f60209081526040808320938a16835292905220545b6000806000806123d28589612cb1565b909450925060008460038111156123e557fe5b14612403576123f66009604b6127dd565b9650505050505050610ff5565b6001600160a01b038a166000908152600e60205260409020546124269089612cb1565b9094509150600084600381111561243957fe5b1461244a576123f66009604c6127dd565b6001600160a01b0389166000908152600e602052604090205461246d9089612da2565b9094509050600084600381111561248057fe5b14612491576123f66009604d6127dd565b6001600160a01b03808b166000908152600e6020526040808220859055918b1681522081905560001985146124e9576001600160a01b03808b166000908152600f60209081526040808320938f168352929052208390555b886001600160a01b03168a6001600160a01b03166000805160206152258339815191528a6040518082815260200191505060405180910390a36005546040805163352b4a3f60e11b81523060048201526001600160a01b038d811660248301528c81166044830152606482018c905291519190921691636a56947e91608480830192600092919082900301818387803b15801561258557600080fd5b505af1158015612599573d6000803e3d6000fd5b50600092506125a6915050565b9b9a5050505050505050505050565b600080548190610100900460ff16612601576040805162461bcd60e51b815260206004820152600a6024820152691c994b595b9d195c995960b21b604482015290519081900360640190fd5b6000805461ff0019168155612614611783565b9050801561263f5761263281601081111561262b57fe5b60356127dd565b9250600091506126509050565b61264a338686613371565b92509250505b6000805461ff00191661010017905590939092509050565b6000806000612675614f12565b61267f8686612cd4565b9092509050600082600381111561269257fe5b146126a357509150600090506126b5565b60006126ae82613844565b9350935050505b9250929050565b601154604080516370a0823160e01b8152306004820152905160009261010090046001600160a01b03169182916370a0823191602480820192602092909190829003018186803b15801561270f57600080fd5b505afa158015612723573d6000803e3d6000fd5b505050506040513d602081101561273957600080fd5b505191505090565b60008054610100900460ff1661278b576040805162461bcd60e51b815260206004820152600a6024820152691c994b595b9d195c995960b21b604482015290519081900360640190fd5b6000805461ff001916815561279e611783565b905080156127bc576113468160108111156127b557fe5b604e6127dd565b6127c583613853565b509150506000805461ff001916610100179055919050565b60007f45b96fe442630264581b197e84bbada861235052c5a1aadfff9ea4e40a969aa083601081111561280c57fe5b83605081111561281857fe5b604080519283526020830191909152600082820152519081900360600190a182601081111561116557fe5b600354600090819061010090046001600160a01b0316331461286b5761200e600160316127dd565b612873612ab1565b600954146128875761200e600a60336127dd565b826128906126bc565b10156128a25761200e600e60326127dd565b600c548311156128b85761200e600260346127dd565b50600c54828103908111156128fe5760405162461bcd60e51b815260040180806020018281038252602481526020018061533a6024913960400191505060405180910390fd5b600c81905560035461291e9061010090046001600160a01b03168461393b565b600354604080516101009092046001600160a01b0316825260208201859052818101839052517f3bad0c59cf2f06e7314077049f48a93578cd16f5ef92329f1dab1420a99c177e916060908290030190a16000611165565b60008054610100900460ff166129c0576040805162461bcd60e51b815260206004820152600a6024820152691c994b595b9d195c995960b21b604482015290519081900360640190fd5b6000805461ff00191681556129d3611783565b905080156129f1576113468160108111156129ea57fe5b60276127dd565b61135733600085613a36565b6001600160a01b038116600090815260106020526040812080548291829182918291612a34575060009450849350612aac92505050565b612a448160000154600a54613efd565b90945092506000846003811115612a5757fe5b14612a6c575091935060009250612aac915050565b612a7a838260010154613f3c565b90945091506000846003811115612a8d57fe5b14612aa2575091935060009250612aac915050565b5060009450925050505b915091565b4390565b600354600090819061010090046001600160a01b03163314612add5761200e600160426127dd565b612ae5612ab1565b60095414612af95761200e600a60416127dd565b600660009054906101000a90046001600160a01b03169050826001600160a01b0316632191f92a6040518163ffffffff1660e01b815260040160206040518083038186803b158015612b4a57600080fd5b505afa158015612b5e573d6000803e3d6000fd5b505050506040513d6020811015612b7457600080fd5b5051612bc7576040805162461bcd60e51b815260206004820152601c60248201527f6d61726b6572206d6574686f642072657475726e65642066616c736500000000604482015290519081900360640190fd5b600680546001600160a01b0319166001600160a01b03858116918217909255604080519284168352602083019190915280517fedffc32e068c7c95dfd4bdfd5c4d939a084d6b11c4199eac8436ed234d72f9269281900390910190a16000611165565b600080548190610100900460ff16612c76576040805162461bcd60e51b815260206004820152600a6024820152691c994b595b9d195c995960b21b604482015290519081900360640190fd5b6000805461ff0019168155612c89611783565b90508015612ca7576121c4816010811115612ca057fe5b601e6127dd565b6121dc3385613f67565b600080838311612cc85750600090508183036126b5565b506003905060006126b5565b6000612cde614f12565b600080612cef866000015186613efd565b90925090506000826003811115612d0257fe5b14612d21575060408051602081019091526000815290925090506126b5565b60408051602081019091529081526000969095509350505050565b60007f45b96fe442630264581b197e84bbada861235052c5a1aadfff9ea4e40a969aa0846010811115612d6b57fe5b846050811115612d7757fe5b604080519283526020830191909152818101859052519081900360600190a1836010811115610ff557fe5b600080838301848110612dba576000925090506126b5565b5060029150600090506126b5565b6000806000612dd5614f12565b612ddf8787612cd4565b90925090506000826003811115612df257fe5b14612e035750915060009050612e1c565b612e15612e0f82613844565b86612da2565b9350935050505b935093915050565b6005546040805163d02f735160e01b81523060048201526001600160a01b038781166024830152868116604483015285811660648301526084820185905291516000938493169163d02f73519160a480830192602092919082900301818787803b158015612e9157600080fd5b505af1158015612ea5573d6000803e3d6000fd5b505050506040513d6020811015612ebb57600080fd5b505190508015612ed25761234d6003601b83612d3c565b846001600160a01b0316846001600160a01b03161415612ef85761234d6006601c6127dd565b6001600160a01b0384166000908152600e602052604081205481908190612f1f9087612cb1565b90935091506000836003811115612f3257fe5b14612f5557612f4a6009601a85600381111561196b57fe5b945050505050610ff5565b6001600160a01b0388166000908152600e6020526040902054612f789087612da2565b90935090506000836003811115612f8b57fe5b14612fa357612f4a6009601985600381111561196b57fe5b6001600160a01b038088166000818152600e60209081526040808320879055938c168083529184902085905583518a815293519193600080516020615225833981519152929081900390910190a360055460408051636d35bf9160e01b81523060048201526001600160a01b038c811660248301528b811660448301528a81166064830152608482018a905291519190921691636d35bf919160a480830192600092919082900301818387803b15801561305c57600080fd5b505af1158015613070573d6000803e3d6000fd5b506000925061307d915050565b9998505050505050505050565b60008054610100900460ff166130d4576040805162461bcd60e51b815260206004820152600a6024820152691c994b595b9d195c995960b21b604482015290519081900360640190fd5b6000805461ff00191681556130e7611783565b90508015613105576113468160108111156130fe57fe5b60086127dd565b61135733846143c6565b60008054610100900460ff16613159576040805162461bcd60e51b815260206004820152600a6024820152691c994b595b9d195c995960b21b604482015290519081900360640190fd5b6000805461ff001916815561316c611783565b90508015613183576113468160108111156129ea57fe5b61135733846000613a36565b600080548190610100900460ff166131db576040805162461bcd60e51b815260206004820152600a6024820152691c994b595b9d195c995960b21b604482015290519081900360640190fd5b6000805461ff00191681556131ee611783565b905080156132195761320c81601081111561320557fe5b600f6127dd565b9250600091506132b09050565b836001600160a01b031663a6afed956040518163ffffffff1660e01b8152600401602060405180830381600087803b15801561325457600080fd5b505af1158015613268573d6000803e3d6000fd5b505050506040513d602081101561327e57600080fd5b50519050801561329e5761320c81601081111561329757fe5b60106127dd565b6132aa338787876146d4565b92509250505b6000805461ff0019166101001790559094909350915050565b60035460009061010090046001600160a01b031633146132ef5761103d600160476127dd565b6132f7612ab1565b6009541461330b5761103d600a60486127dd565b670de0b6b3a76400008211156133275761103d600260496127dd565b6008805490839055604080518281526020810185905281517faaa68312e2ea9d50e16af5068410ab56e1a1fd06037b1a35664812c30f821460929181900390910190a16000611165565b60055460408051631200453160e11b81523060048201526001600160a01b0386811660248301528581166044830152606482018590529151600093849384939116916324008a629160848082019260209290919082900301818787803b1580156133da57600080fd5b505af11580156133ee573d6000803e3d6000fd5b505050506040513d602081101561340457600080fd5b5051905080156134285761341b6003603883612d3c565b925060009150612e1c9050565b613430612ab1565b600954146134445761341b600a60396127dd565b61344c614fa3565b6001600160a01b0386166000908152601060205260409020600101546060820152613476866129fd565b608083018190526020830182600381111561348d57fe5b600381111561349857fe5b90525060009050816020015160038111156134af57fe5b146134d9576134cb600960378360200151600381111561196b57fe5b935060009250612e1c915050565b6000198514156134f257608081015160408201526134fa565b604081018590525b613508878260400151614c52565b60e08201819052608082015161351d91612cb1565b60a083018190526020830182600381111561353457fe5b600381111561353f57fe5b905250600090508160200151600381111561355657fe5b146135925760405162461bcd60e51b815260040180806020018281038252603a8152602001806151eb603a913960400191505060405180910390fd5b6135a2600b548260e00151612cb1565b60c08301819052602083018260038111156135b957fe5b60038111156135c457fe5b90525060009050816020015160038111156135db57fe5b146136175760405162461bcd60e51b81526004018080602001828103825260318152602001806152456031913960400191505060405180910390fd5b60a080820180516001600160a01b03808a16600081815260106020908152604091829020948555600a5460019095019490945560c0870151600b81905560e088015195518251948f16855294840192909252828101949094526060820192909252608081019190915290517f1a2a22cb034d26d1854bdc6666a5b91fe25efbbb5dcad3b0355478d6f5c362a1929181900390910190a160055460e0820151606083015160408051631ededc9160e01b81523060048201526001600160a01b038c811660248301528b8116604483015260648201949094526084810192909252519190921691631ededc919160a480830192600092919082900301818387803b15801561372257600080fd5b505af1158015613736573d6000803e3d6000fd5b5060009250613743915050565b8160e00151935093505050935093915050565b6000806000806137668787612da2565b9092509050600082600381111561377957fe5b1461378a5750915060009050612e1c565b612e158186612cb1565b600061379e614f12565b6000806137b386670de0b6b3a7640000613efd565b909250905060008260038111156137c657fe5b146137e5575060408051602081019091526000815290925090506126b5565b6000806137f28388613f3c565b9092509050600082600381111561380557fe5b14613827575060408051602081019091526000815290945092506126b5915050565b604080516020810190915290815260009890975095505050505050565b51670de0b6b3a7640000900490565b600080600080613861612ab1565b6009541461388057613875600a604f6127dd565b93509150612aac9050565b61388a3386614c52565b905080600c54019150600c548210156138ea576040805162461bcd60e51b815260206004820181905260248201527f61646420726573657276657320756e6578706563746564206f766572666c6f77604482015290519081900360640190fd5b600c829055604080513381526020810183905280820184905290517fa91e67c5ea634cd43a12c5a482724b03de01e85ca68702a53d0c2f45cb7c1dc59181900360600190a160009350915050915091565b6011546040805163a9059cbb60e01b81526001600160a01b03858116600483015260248201859052915161010090930490911691829163a9059cbb91604480830192600092919082900301818387803b15801561399757600080fd5b505af11580156139ab573d6000803e3d6000fd5b5050505060003d600081146139c757602081146139d157600080fd5b60001991506139dd565b60206000803e60005191505b5080613a30576040805162461bcd60e51b815260206004820152601960248201527f544f4b454e5f5452414e534645525f4f55545f4641494c454400000000000000604482015290519081900360640190fd5b50505050565b6000821580613a43575081155b613a7e5760405162461bcd60e51b81526004018080602001828103825260348152602001806153066034913960400191505060405180910390fd5b613a86614fe9565b613a8e6121f8565b6040830181905260208301826003811115613aa557fe5b6003811115613ab057fe5b9052506000905081602001516003811115613ac757fe5b14613aeb57613ae36009602b8360200151600381111561196b57fe5b915050611165565b8315613b6c576060810184905260408051602081018252908201518152613b129085612668565b6080830181905260208301826003811115613b2957fe5b6003811115613b3457fe5b9052506000905081602001516003811115613b4b57fe5b14613b6757613ae3600960298360200151600381111561196b57fe5b613be5565b613b888360405180602001604052808460400151815250614ea1565b6060830181905260208301826003811115613b9f57fe5b6003811115613baa57fe5b9052506000905081602001516003811115613bc157fe5b14613bdd57613ae36009602a8360200151600381111561196b57fe5b608081018390525b60055460608201516040805163eabe7d9160e01b81523060048201526001600160a01b03898116602483015260448201939093529051600093929092169163eabe7d919160648082019260209290919082900301818787803b158015613c4a57600080fd5b505af1158015613c5e573d6000803e3d6000fd5b505050506040513d6020811015613c7457600080fd5b505190508015613c9457613c8b6003602883612d3c565b92505050611165565b613c9c612ab1565b60095414613cb057613c8b600a602c6127dd565b613cc0600d548360600151612cb1565b60a0840181905260208401826003811115613cd757fe5b6003811115613ce257fe5b9052506000905082602001516003811115613cf957fe5b14613d1557613c8b6009602e8460200151600381111561196b57fe5b6001600160a01b0386166000908152600e60205260409020546060830151613d3d9190612cb1565b60c0840181905260208401826003811115613d5457fe5b6003811115613d5f57fe5b9052506000905082602001516003811115613d7657fe5b14613d9257613c8b6009602d8460200151600381111561196b57fe5b8160800151613d9f6126bc565b1015613db157613c8b600e602f6127dd565b613dbf86836080015161393b565b60a0820151600d5560c08201516001600160a01b0387166000818152600e6020908152604091829020939093556060850151815190815290513093600080516020615225833981519152928290030190a36080820151606080840151604080516001600160a01b038b168152602081019490945283810191909152517fe5b754fb1abb7f01b499791d0b820ae3b6af3424ac1c59768edb53f4ec31a9299281900390910190a160055460808301516060840151604080516351dff98960e01b81523060048201526001600160a01b038b81166024830152604482019490945260648101929092525191909216916351dff98991608480830192600092919082900301818387803b158015613ed257600080fd5b505af1158015613ee6573d6000803e3d6000fd5b5060009250613ef3915050565b9695505050505050565b60008083613f10575060009050806126b5565b83830283858281613f1d57fe5b0414613f31575060029150600090506126b5565b6000925090506126b5565b60008082613f5057506001905060006126b5565b6000838581613f5b57fe5b04915091509250929050565b60055460408051634ef4c3e160e01b81523060048201526001600160a01b03858116602483015260448201859052915160009384938493911691634ef4c3e19160648082019260209290919082900301818787803b158015613fc857600080fd5b505af1158015613fdc573d6000803e3d6000fd5b505050506040513d6020811015613ff257600080fd5b505190508015614016576140096003601f83612d3c565b9250600091506126b59050565b61401e612ab1565b6009541461403257614009600a60226127dd565b61403a614fe9565b6140426121f8565b604083018190526020830182600381111561405957fe5b600381111561406457fe5b905250600090508160200151600381111561407b57fe5b146140a557614097600960218360200151600381111561196b57fe5b9350600092506126b5915050565b6140af8686614c52565b60c08201819052604080516020810182529083015181526140d09190614ea1565b60608301819052602083018260038111156140e757fe5b60038111156140f257fe5b905250600090508160200151600381111561410957fe5b1461415b576040805162461bcd60e51b815260206004820181905260248201527f4d494e545f45584348414e47455f43414c43554c4154494f4e5f4641494c4544604482015290519081900360640190fd5b61416b600d548260600151612da2565b608083018190526020830182600381111561418257fe5b600381111561418d57fe5b90525060009050816020015160038111156141a457fe5b146141e05760405162461bcd60e51b81526004018080602001828103825260288152602001806152de6028913960400191505060405180910390fd5b6001600160a01b0386166000908152600e602052604090205460608201516142089190612da2565b60a083018190526020830182600381111561421f57fe5b600381111561422a57fe5b905250600090508160200151600381111561424157fe5b1461427d5760405162461bcd60e51b815260040180806020018281038252602b815260200180615189602b913960400191505060405180910390fd5b6080810151600d5560a08101516001600160a01b0387166000818152600e60209081526040918290209390935560c084015160608086015183519485529484019190915282820193909352517f4c209b5fc8ad50758f13e2e1088ba56a560dff690a1c6fef26394f4c03821c4f929181900390910190a1606081015160408051918252516001600160a01b0388169130916000805160206152258339815191529181900360200190a360055460c08201516060830151604080516341c728b960e01b81523060048201526001600160a01b038b81166024830152604482019490945260648101929092525191909216916341c728b991608480830192600092919082900301818387803b15801561439357600080fd5b505af11580156143a7573d6000803e3d6000fd5b50600092506143b4915050565b8160c001519350935050509250929050565b6005546040805163368f515360e21b81523060048201526001600160a01b0385811660248301526044820185905291516000938493169163da3d454c91606480830192602092919082900301818787803b15801561442357600080fd5b505af1158015614437573d6000803e3d6000fd5b505050506040513d602081101561444d57600080fd5b50519050801561446c576144646003600e83612d3c565b915050610c66565b614474612ab1565b6009541461448757614464600a806127dd565b826144906126bc565b10156144a257614464600e60096127dd565b6144aa615027565b6144b3856129fd565b60208301819052828260038111156144c757fe5b60038111156144d257fe5b90525060009050815160038111156144e657fe5b1461450b57614502600960078360000151600381111561196b57fe5b92505050610c66565b614519816020015185612da2565b604083018190528282600381111561452d57fe5b600381111561453857fe5b905250600090508151600381111561454c57fe5b14614568576145026009600c8360000151600381111561196b57fe5b614574600b5485612da2565b606083018190528282600381111561458857fe5b600381111561459357fe5b90525060009050815160038111156145a757fe5b146145c3576145026009600b8360000151600381111561196b57fe5b6145cd858561393b565b604080820180516001600160a01b03881660008181526010602090815290859020928355600a54600190930192909255606080860151600b81905593518551928352928201899052818501929092529081019190915290517f13ed6866d4e1ee6da46f845c46d7e54120883d75c5ea9a2dacc1c4ca8984ab809181900360800190a160055460408051635c77860560e01b81523060048201526001600160a01b0388811660248301526044820188905291519190921691635c77860591606480830192600092919082900301818387803b1580156146aa57600080fd5b505af11580156146be573d6000803e3d6000fd5b50600092506146cb915050565b95945050505050565b60055460408051632fe3f38f60e11b81523060048201526001600160a01b0384811660248301528781166044830152868116606483015260848201869052915160009384938493911691635fc7e71e9160a48082019260209290919082900301818787803b15801561474557600080fd5b505af1158015614759573d6000803e3d6000fd5b505050506040513d602081101561476f57600080fd5b505190508015614793576147866003601283612d3c565b925060009150614c499050565b61479b612ab1565b600954146147af57614786600a60166127dd565b6147b7612ab1565b846001600160a01b0316636c540baf6040518163ffffffff1660e01b815260040160206040518083038186803b1580156147f057600080fd5b505afa158015614804573d6000803e3d6000fd5b505050506040513d602081101561481a57600080fd5b50511461482d57614786600a60116127dd565b866001600160a01b0316866001600160a01b0316141561485357614786600660176127dd565b8461486457614786600760156127dd565b60001985141561487a57614786600760146127dd565b600080614888898989613371565b909250905081156148b8576148a98260108111156148a257fe5b60186127dd565b945060009350614c4992505050565b6005546040805163c488847b60e01b81523060048201526001600160a01b038981166024830152604482018590528251600094859492169263c488847b926064808301939192829003018186803b15801561491257600080fd5b505afa158015614926573d6000803e3d6000fd5b505050506040513d604081101561493c57600080fd5b508051602090910151909250905081156149875760405162461bcd60e51b81526004018080602001828103825260338152602001806152766033913960400191505060405180910390fd5b80886001600160a01b03166370a082318c6040518263ffffffff1660e01b815260040180826001600160a01b03166001600160a01b0316815260200191505060206040518083038186803b1580156149de57600080fd5b505afa1580156149f2573d6000803e3d6000fd5b505050506040513d6020811015614a0857600080fd5b50511015614a58576040805162461bcd60e51b815260206004820152601860248201527709892a2aa928882a88abea68a92b48abea89e9ebe9aaa86960431b604482015290519081900360640190fd5b60006001600160a01b038916301415614a7e57614a77308d8d85612e24565b9050614b08565b6040805163b2a02ff160e01b81526001600160a01b038e811660048301528d81166024830152604482018590529151918b169163b2a02ff1916064808201926020929091908290030181600087803b158015614ad957600080fd5b505af1158015614aed573d6000803e3d6000fd5b505050506040513d6020811015614b0357600080fd5b505190505b8015614b52576040805162461bcd60e51b81526020600482015260146024820152731d1bdad95b881cd95a5e9d5c994819985a5b195960621b604482015290519081900360640190fd5b604080516001600160a01b03808f168252808e1660208301528183018790528b1660608201526080810184905290517f298637f684da70674f26509b10f07ec2fbc77a335ab1e7d6215a4b2484d8bb529181900360a00190a1600554604080516347ef3b3b60e01b81523060048201526001600160a01b038c811660248301528f811660448301528e811660648301526084820188905260a48201869052915191909216916347ef3b3b9160c480830192600092919082900301818387803b158015614c1d57600080fd5b505af1158015614c31573d6000803e3d6000fd5b5060009250614c3e915050565b975092955050505050505b94509492505050565b601154604080516370a0823160e01b8152306004820152905160009261010090046001600160a01b031691839183916370a08231916024808301926020929190829003018186803b158015614ca657600080fd5b505afa158015614cba573d6000803e3d6000fd5b505050506040513d6020811015614cd057600080fd5b5051604080516323b872dd60e01b81526001600160a01b038881166004830152306024830152604482018890529151929350908416916323b872dd9160648082019260009290919082900301818387803b158015614d2d57600080fd5b505af1158015614d41573d6000803e3d6000fd5b5050505060003d60008114614d5d5760208114614d6757600080fd5b6000199150614d73565b60206000803e60005191505b5080614dc1576040805162461bcd60e51b81526020600482015260186024820152771513d2d15397d514905394d1915497d25397d1905253115160421b604482015290519081900360640190fd5b601154604080516370a0823160e01b8152306004820152905160009261010090046001600160a01b0316916370a08231916024808301926020929190829003018186803b158015614e1157600080fd5b505afa158015614e25573d6000803e3d6000fd5b505050506040513d6020811015614e3b57600080fd5b5051905082811015614e94576040805162461bcd60e51b815260206004820152601a60248201527f544f4b454e5f5452414e534645525f494e5f4f564552464c4f57000000000000604482015290519081900360640190fd5b9190910395945050505050565b6000806000614eae614f12565b61267f86866000614ebd614f12565b600080614ed2670de0b6b3a764000087613efd565b90925090506000826003811115614ee557fe5b14614f04575060408051602081019091526000815290925090506126b5565b6126ae818660000151613794565b6040518060200160405280600081525090565b828054600181600116156101000203166002900490600052602060002090601f016020900481019282601f10614f6657805160ff1916838001178555614f93565b82800160010185558215614f93579182015b82811115614f93578251825591602001919060010190614f78565b50614f9f929150615050565b5090565b6040805161010081019091528060008152602001600081526020016000815260200160008152602001600081526020016000815260200160008152602001600081525090565b6040805160e0810190915280600081526020016000815260200160008152602001600081526020016000815260200160008152602001600081525090565b604080516080810190915280600081526020016000815260200160008152602001600081525090565b610e5191905b80821115614f9f576000815560010161505656fe6f6e6c792061646d696e206d617920696e697469616c697a6520746865206d61726b65746d61726b6574206d6179206f6e6c7920626520696e697469616c697a6564206f6e6365696e697469616c2065786368616e67652072617465206d7573742062652067726561746572207468616e207a65726f2e73657474696e6720696e7465726573742072617465206d6f64656c206661696c65646f6e6c79207468652061646d696e206d61792063616c6c205f72657369676e496d706c656d656e746174696f6e4f6e6c79204d6f6e6579204d61726b657420496e7374616e63653a2063616c6c6572206973206e6f7420746865204d6f6e6579204d61726b657420496e7374616e636520666f72207468697320617373657420636c6173734d494e545f4e45575f4143434f554e545f42414c414e43455f43414c43554c4154494f4e5f4641494c4544626f72726f7742616c616e636553746f7265643a20626f72726f7742616c616e636553746f726564496e7465726e616c206661696c656452455041595f424f52524f575f4e45575f4143434f554e545f424f52524f575f42414c414e43455f43414c43554c4154494f4e5f4641494c4544ddf252ad1be2c89b69c2b068fc378daa952ba7f163c4a11628f55a4df523b3ef52455041595f424f52524f575f4e45575f544f54414c5f42414c414e43455f43414c43554c4154494f4e5f4641494c45444c49515549444154455f434f4d5054524f4c4c45525f43414c43554c4154455f414d4f554e545f5345495a455f4641494c454465786368616e67655261746553746f7265643a2065786368616e67655261746553746f726564496e7465726e616c206661696c65644d494e545f4e45575f544f54414c5f535550504c595f43414c43554c4154494f4e5f4641494c45446f6e65206f662072656465656d546f6b656e73496e206f722072656465656d416d6f756e74496e206d757374206265207a65726f72656475636520726573657276657320756e657870656374656420756e646572666c6f776f6e6c79207468652061646d696e206d61792063616c6c205f6265636f6d65496d706c656d656e746174696f6ea265627a7a7231582075d95ac7ae91959eca04a4bda041ca93a08108f6b3786eccdabc29aa9516713164736f6c63430005100032",
  "source": "pragma solidity ^0.5.16;\n\nimport \"./CErc20.sol\";\n\n/**\n * @title Compound's CErc20Delegate Contract\n * @notice CTokens which wrap an EIP-20 underlying and are delegated to\n * @author Compound\n */\ncontract CErc20Delegate is CErc20, CDelegateInterface {\n    /**\n     * @notice Construct an empty delegate\n     */\n    constructor() public {}\n\n    /**\n     * @notice Called by the delegator on a delegate to initialize it for duty\n     * @param data The encoded bytes data for any initialization\n     */\n    function _becomeImplementation(bytes memory data) public {\n        // Shh -- currently unused\n        data;\n\n        // Shh -- we don't ever want this hook to be marked pure\n        if (false) {\n            implementation = address(0);\n        }\n\n        require(msg.sender == admin, \"only the admin may call _becomeImplementation\");\n    }\n\n    /**\n     * @notice Called by the delegator on a delegate to forfeit its responsibility\n     */\n    function _resignImplementation() public {\n        // Shh -- we don't ever want this hook to be marked pure\n        if (false) {\n            implementation = address(0);\n        }\n\n        require(msg.sender == admin, \"only the admin may call _resignImplementation\");\n    }\n}\n",
  "sourcePath": "/home/stan36/repos/Askolend/AskoLend-contracts/contracts/compound/CErc20Delegate.sol",
  "compiler": {
    "name": "solc",
    "version": "0.5.16+commit.9c3226ce.Emscripten.clang"
  },
  "schemaVersion": "3.2.5",
  "updatedAt": "2020-09-27T19:23:21.492Z",
  "devdoc": {
    "author": "Compound",
    "methods": {
      "_acceptAdmin()": {
        "details": "Admin function for pending admin to accept role and update admin",
        "return": "uint 0=success, otherwise a failure (see ErrorReporter.sol for details)"
      },
      "_addReserves(uint256)": {
        "params": {
          "addAmount": "The amount fo underlying token to add as reserves"
        },
        "return": "uint 0=success, otherwise a failure (see ErrorReporter.sol for details)"
      },
      "_becomeImplementation(bytes)": {
        "params": {
          "data": "The encoded bytes data for any initialization"
        }
      },
      "_reduceReserves(uint256)": {
        "params": {
          "reduceAmount": "Amount of reduction to reserves"
        },
        "return": "uint 0=success, otherwise a failure (see ErrorReporter.sol for details)"
      },
      "_setComptroller(address)": {
        "details": "Admin function to set a new comptroller",
        "return": "uint 0=success, otherwise a failure (see ErrorReporter.sol for details)"
      },
      "_setInterestRateModel(address)": {
        "details": "Admin function to accrue interest and update the interest rate model",
        "params": {
          "newInterestRateModel": "the new interest rate model to use"
        },
        "return": "uint 0=success, otherwise a failure (see ErrorReporter.sol for details)"
      },
      "_setPendingAdmin(address)": {
        "details": "Admin function to begin change of admin. The newPendingAdmin must call `_acceptAdmin` to finalize the transfer.",
        "params": {
          "newPendingAdmin": "New pending admin."
        },
        "return": "uint 0=success, otherwise a failure (see ErrorReporter.sol for details)"
      },
      "_setReserveFactor(uint256)": {
        "details": "Admin function to accrue interest and set a new reserve factor",
        "return": "uint 0=success, otherwise a failure (see ErrorReporter.sol for details)"
      },
      "accrueInterest()": {
        "details": "This calculates interest accrued from the last checkpointed block  up to the current block and writes new checkpoint to storage."
      },
      "allowance(address,address)": {
        "params": {
          "owner": "The address of the account which owns the tokens to be spent",
          "spender": "The address of the account which may transfer tokens"
        },
        "return": "The number of tokens allowed to be spent (-1 means infinite)"
      },
      "approve(address,uint256)": {
        "details": "This will overwrite the approval amount for `spender` and is subject to issues noted [here](https://eips.ethereum.org/EIPS/eip-20#approve)",
        "params": {
          "amount": "The number of tokens that are approved (-1 means infinite)",
          "spender": "The address of the account which may transfer tokens"
        },
        "return": "Whether or not the approval succeeded"
      },
      "balanceOf(address)": {
        "params": {
          "owner": "The address of the account to query"
        },
        "return": "The number of tokens owned by `owner`"
      },
      "balanceOfUnderlying(address)": {
        "details": "This also accrues interest in a transaction",
        "params": {
          "owner": "The address of the account to query"
        },
        "return": "The amount of underlying owned by `owner`"
      },
      "borrow(uint256)": {
        "params": {
          "borrowAmount": "The amount of the underlying asset to borrow"
        },
        "return": "uint 0=success, otherwise a failure (see ErrorReporter.sol for details)"
      },
      "borrowBalanceCurrent(address)": {
        "params": {
          "account": "The address whose balance should be calculated after updating borrowIndex"
        },
        "return": "The calculated balance"
      },
      "borrowBalanceStored(address)": {
        "params": {
          "account": "The address whose balance should be calculated"
        },
        "return": "The calculated balance"
      },
      "borrowRatePerBlock()": {
        "return": "The borrow interest rate per block, scaled by 1e18"
      },
      "exchangeRateCurrent()": {
        "return": "Calculated exchange rate scaled by 1e18"
      },
      "exchangeRateStored()": {
        "details": "This function does not accrue interest before calculating the exchange rate",
        "return": "Calculated exchange rate scaled by 1e18"
      },
      "getAccountSnapshot(address)": {
        "details": "This is used by comptroller to more efficiently perform liquidity checks.",
        "params": {
          "account": "Address of the account to snapshot"
        },
        "return": "(possible error, token balance, borrow balance, exchange rate mantissa)"
      },
      "getCash()": {
        "return": "The quantity of underlying asset owned by this contract"
      },
      "initialize(address,address,address,uint256,string,string,uint8,address,bool)": {
        "params": {
          "comptroller_": "The address of the Comptroller",
          "decimals_": "ERC-20 decimal precision of this token",
          "initialExchangeRateMantissa_": "The initial exchange rate, scaled by 1e18",
          "interestRateModel_": "The address of the interest rate model",
          "name_": "ERC-20 name of this token",
          "symbol_": "ERC-20 symbol of this token",
          "underlying_": "The address of the underlying asset"
        }
      },
      "initialize(address,address,uint256,string,string,uint8)": {
        "params": {
          "comptroller_": "The address of the Comptroller",
          "decimals_": "EIP-20 decimal precision of this token",
          "initialExchangeRateMantissa_": "The initial exchange rate, scaled by 1e18",
          "interestRateModel_": "The address of the interest rate model",
          "name_": "EIP-20 name of this token",
          "symbol_": "EIP-20 symbol of this token"
        }
      },
      "liquidateBorrow(address,uint256,address)": {
        "params": {
          "borrower": "The borrower of this cToken to be liquidated",
          "cTokenCollateral": "The market in which to seize collateral from the borrower",
          "repayAmount": "The amount of the underlying borrowed asset to repay"
        },
        "return": "uint 0=success, otherwise a failure (see ErrorReporter.sol for details)"
      },
      "mint(uint256)": {
        "details": "Accrues interest whether or not the operation succeeds, unless reverted",
        "params": {
          "mintAmount": "The amount of the underlying asset to supply"
        },
        "return": "uint 0=success, otherwise a failure (see ErrorReporter.sol for details)"
      },
      "redeem(uint256)": {
        "details": "Accrues interest whether or not the operation succeeds, unless reverted",
        "params": {
          "redeemTokens": "The number of cTokens to redeem into underlying"
        },
        "return": "uint 0=success, otherwise a failure (see ErrorReporter.sol for details)"
      },
      "redeemUnderlying(uint256)": {
        "details": "Accrues interest whether or not the operation succeeds, unless reverted",
        "params": {
          "redeemAmount": "The amount of underlying to redeem"
        },
        "return": "uint 0=success, otherwise a failure (see ErrorReporter.sol for details)"
      },
      "repayBorrow(uint256)": {
        "params": {
          "repayAmount": "The amount to repay"
        },
        "return": "uint 0=success, otherwise a failure (see ErrorReporter.sol for details)"
      },
      "repayBorrowBehalf(address,uint256)": {
        "params": {
          "borrower": "the account with the debt being payed off",
          "repayAmount": "The amount to repay"
        },
        "return": "uint 0=success, otherwise a failure (see ErrorReporter.sol for details)"
      },
      "seize(address,address,uint256)": {
        "details": "Will fail unless called by another cToken during the process of liquidation. Its absolutely critical to use msg.sender as the borrowed cToken and not a parameter.",
        "params": {
          "borrower": "The account having collateral seized",
          "liquidator": "The account receiving seized collateral",
          "seizeTokens": "The number of cTokens to seize"
        },
        "return": "uint 0=success, otherwise a failure (see ErrorReporter.sol for details)"
      },
      "supplyRatePerBlock()": {
        "return": "The supply interest rate per block, scaled by 1e18"
      },
      "totalBorrowsCurrent()": {
        "return": "The total borrows with interest"
      },
      "transfer(address,uint256)": {
        "params": {
          "amount": "The number of tokens to transfer",
          "dst": "The address of the destination account"
        },
        "return": "Whether or not the transfer succeeded"
      },
      "transferFrom(address,address,uint256)": {
        "params": {
          "amount": "The number of tokens to transfer",
          "dst": "The address of the destination account",
          "src": "The address of the source account"
        },
        "return": "Whether or not the transfer succeeded"
      }
    },
    "title": "Compound's CErc20Delegate Contract"
  },
  "userdoc": {
    "methods": {
      "_acceptAdmin()": {
        "notice": "Accepts transfer of admin rights. msg.sender must be pendingAdmin"
      },
      "_addReserves(uint256)": {
        "notice": "The sender adds to reserves."
      },
      "_becomeImplementation(bytes)": {
        "notice": "Called by the delegator on a delegate to initialize it for duty"
      },
      "_reduceReserves(uint256)": {
        "notice": "Accrues interest and reduces reserves by transferring to admin"
      },
      "_resignImplementation()": {
        "notice": "Called by the delegator on a delegate to forfeit its responsibility"
      },
      "_setComptroller(address)": {
        "notice": "Sets a new comptroller for the market"
      },
      "_setInterestRateModel(address)": {
        "notice": "accrues interest and updates the interest rate model using _setInterestRateModelFresh"
      },
      "_setPendingAdmin(address)": {
        "notice": "Begins transfer of admin rights. The newPendingAdmin must call `_acceptAdmin` to finalize the transfer."
      },
      "_setReserveFactor(uint256)": {
        "notice": "accrues interest and sets a new reserve factor for the protocol using _setReserveFactorFresh"
      },
      "accrueInterest()": {
        "notice": "Applies accrued interest to total borrows and reserves"
      },
      "allowance(address,address)": {
        "notice": "Get the current allowance from `owner` for `spender`"
      },
      "approve(address,uint256)": {
        "notice": "Approve `spender` to transfer up to `amount` from `src`"
      },
      "balanceOf(address)": {
        "notice": "Get the token balance of the `owner`"
      },
      "balanceOfUnderlying(address)": {
        "notice": "Get the underlying balance of the `owner`"
      },
      "borrow(uint256)": {
        "notice": "Sender borrows assets from the protocol to their own address"
      },
      "borrowBalanceCurrent(address)": {
        "notice": "Accrue interest to updated borrowIndex and then calculate account's borrow balance using the updated borrowIndex"
      },
      "borrowBalanceStored(address)": {
        "notice": "Return the borrow balance of account based on stored data"
      },
      "borrowRatePerBlock()": {
        "notice": "Returns the current per-block borrow interest rate for this cToken"
      },
      "constructor": "Construct an empty delegate",
      "exchangeRateCurrent()": {
        "notice": "Accrue interest then return the up-to-date exchange rate"
      },
      "exchangeRateStored()": {
        "notice": "Calculates the exchange rate from the underlying to the CToken"
      },
      "getAccountSnapshot(address)": {
        "notice": "Get a snapshot of the account's balances, and the cached exchange rate"
      },
      "getCash()": {
        "notice": "Get cash balance of this cToken in the underlying asset"
      },
      "initialize(address,address,address,uint256,string,string,uint8,address,bool)": {
        "notice": "Initialize the new money market"
      },
      "initialize(address,address,uint256,string,string,uint8)": {
        "notice": "Initialize the money market"
      },
      "liquidateBorrow(address,uint256,address)": {
        "notice": "The sender liquidates the borrowers collateral. The collateral seized is transferred to the liquidator."
      },
      "mint(uint256)": {
        "notice": "Sender supplies assets into the market and receives cTokens in exchange"
      },
      "redeem(uint256)": {
        "notice": "Sender redeems cTokens in exchange for the underlying asset"
      },
      "redeemUnderlying(uint256)": {
        "notice": "Sender redeems cTokens in exchange for a specified amount of underlying asset"
      },
      "repayBorrow(uint256)": {
        "notice": "Sender repays their own borrow"
      },
      "repayBorrowBehalf(address,uint256)": {
        "notice": "Sender repays a borrow belonging to borrower"
      },
      "seize(address,address,uint256)": {
        "notice": "Transfers collateral tokens (this market) to the liquidator."
      },
      "supplyRatePerBlock()": {
        "notice": "Returns the current per-block supply interest rate for this cToken"
      },
      "totalBorrowsCurrent()": {
        "notice": "Returns the current total borrows plus accrued interest"
      },
      "transfer(address,uint256)": {
        "notice": "Transfer `amount` tokens from `msg.sender` to `dst`"
      },
      "transferFrom(address,address,uint256)": {
        "notice": "Transfer `amount` tokens from `src` to `dst`"
      }
    },
    "notice": "CTokens which wrap an EIP-20 underlying and are delegated to"
  }
}