{
  "contractName": "ComptrollerG2",
  "abi": [
    {
      "inputs": [],
      "payable": false,
      "stateMutability": "nonpayable",
      "type": "constructor"
    },
    {
      "anonymous": false,
      "inputs": [
        {
          "indexed": false,
          "internalType": "string",
          "name": "action",
          "type": "string"
        },
        {
          "indexed": false,
          "internalType": "bool",
          "name": "pauseState",
          "type": "bool"
        }
      ],
      "name": "ActionPaused",
      "type": "event"
    },
    {
      "anonymous": false,
      "inputs": [
        {
          "indexed": false,
          "internalType": "contract CToken",
          "name": "cToken",
          "type": "address"
        },
        {
          "indexed": false,
          "internalType": "string",
          "name": "action",
          "type": "string"
        },
        {
          "indexed": false,
          "internalType": "bool",
          "name": "pauseState",
          "type": "bool"
        }
      ],
      "name": "ActionPaused",
      "type": "event"
    },
    {
      "anonymous": false,
      "inputs": [
        {
          "indexed": false,
          "internalType": "uint256",
          "name": "error",
          "type": "uint256"
        },
        {
          "indexed": false,
          "internalType": "uint256",
          "name": "info",
          "type": "uint256"
        },
        {
          "indexed": false,
          "internalType": "uint256",
          "name": "detail",
          "type": "uint256"
        }
      ],
      "name": "Failure",
      "type": "event"
    },
    {
      "anonymous": false,
      "inputs": [
        {
          "indexed": false,
          "internalType": "contract CToken",
          "name": "cToken",
          "type": "address"
        },
        {
          "indexed": false,
          "internalType": "address",
          "name": "account",
          "type": "address"
        }
      ],
      "name": "MarketEntered",
      "type": "event"
    },
    {
      "anonymous": false,
      "inputs": [
        {
          "indexed": false,
          "internalType": "contract CToken",
          "name": "cToken",
          "type": "address"
        },
        {
          "indexed": false,
          "internalType": "address",
          "name": "account",
          "type": "address"
        }
      ],
      "name": "MarketExited",
      "type": "event"
    },
    {
      "anonymous": false,
      "inputs": [
        {
          "indexed": false,
          "internalType": "contract CToken",
          "name": "cToken",
          "type": "address"
        }
      ],
      "name": "MarketListed",
      "type": "event"
    },
    {
      "anonymous": false,
      "inputs": [
        {
          "indexed": false,
          "internalType": "uint256",
          "name": "oldCloseFactorMantissa",
          "type": "uint256"
        },
        {
          "indexed": false,
          "internalType": "uint256",
          "name": "newCloseFactorMantissa",
          "type": "uint256"
        }
      ],
      "name": "NewCloseFactor",
      "type": "event"
    },
    {
      "anonymous": false,
      "inputs": [
        {
          "indexed": false,
          "internalType": "contract CToken",
          "name": "cToken",
          "type": "address"
        },
        {
          "indexed": false,
          "internalType": "uint256",
          "name": "oldCollateralFactorMantissa",
          "type": "uint256"
        },
        {
          "indexed": false,
          "internalType": "uint256",
          "name": "newCollateralFactorMantissa",
          "type": "uint256"
        }
      ],
      "name": "NewCollateralFactor",
      "type": "event"
    },
    {
      "anonymous": false,
      "inputs": [
        {
          "indexed": false,
          "internalType": "uint256",
          "name": "oldLiquidationIncentiveMantissa",
          "type": "uint256"
        },
        {
          "indexed": false,
          "internalType": "uint256",
          "name": "newLiquidationIncentiveMantissa",
          "type": "uint256"
        }
      ],
      "name": "NewLiquidationIncentive",
      "type": "event"
    },
    {
      "anonymous": false,
      "inputs": [
        {
          "indexed": false,
          "internalType": "uint256",
          "name": "oldMaxAssets",
          "type": "uint256"
        },
        {
          "indexed": false,
          "internalType": "uint256",
          "name": "newMaxAssets",
          "type": "uint256"
        }
      ],
      "name": "NewMaxAssets",
      "type": "event"
    },
    {
      "anonymous": false,
      "inputs": [
        {
          "indexed": false,
          "internalType": "address",
          "name": "oldPauseGuardian",
          "type": "address"
        },
        {
          "indexed": false,
          "internalType": "address",
          "name": "newPauseGuardian",
          "type": "address"
        }
      ],
      "name": "NewPauseGuardian",
      "type": "event"
    },
    {
      "anonymous": false,
      "inputs": [
        {
          "indexed": false,
          "internalType": "contract UniswapOracleFactoryI",
          "name": "oldPriceOracle",
          "type": "address"
        },
        {
          "indexed": false,
          "internalType": "contract UniswapOracleFactoryI",
          "name": "newPriceOracle",
          "type": "address"
        }
      ],
      "name": "NewPriceOracle",
      "type": "event"
    },
    {
      "constant": true,
      "inputs": [],
      "name": "_borrowGuardianPaused",
      "outputs": [
        {
          "internalType": "bool",
          "name": "",
          "type": "bool"
        }
      ],
      "payable": false,
      "stateMutability": "view",
      "type": "function"
    },
    {
      "constant": true,
      "inputs": [],
      "name": "_mintGuardianPaused",
      "outputs": [
        {
          "internalType": "bool",
          "name": "",
          "type": "bool"
        }
      ],
      "payable": false,
      "stateMutability": "view",
      "type": "function"
    },
    {
      "constant": true,
      "inputs": [
        {
          "internalType": "address",
          "name": "",
          "type": "address"
        },
        {
          "internalType": "uint256",
          "name": "",
          "type": "uint256"
        }
      ],
      "name": "accountAssets",
      "outputs": [
        {
          "internalType": "contract CToken",
          "name": "",
          "type": "address"
        }
      ],
      "payable": false,
      "stateMutability": "view",
      "type": "function"
    },
    {
      "constant": true,
      "inputs": [],
      "name": "admin",
      "outputs": [
        {
          "internalType": "address",
          "name": "",
          "type": "address"
        }
      ],
      "payable": false,
      "stateMutability": "view",
      "type": "function"
    },
    {
      "constant": true,
      "inputs": [
        {
          "internalType": "address",
          "name": "",
          "type": "address"
        }
      ],
      "name": "borrowGuardianPaused",
      "outputs": [
        {
          "internalType": "bool",
          "name": "",
          "type": "bool"
        }
      ],
      "payable": false,
      "stateMutability": "view",
      "type": "function"
    },
    {
      "constant": true,
      "inputs": [],
      "name": "closeFactorMantissa",
      "outputs": [
        {
          "internalType": "uint256",
          "name": "",
          "type": "uint256"
        }
      ],
      "payable": false,
      "stateMutability": "view",
      "type": "function"
    },
    {
      "constant": true,
      "inputs": [],
      "name": "comptrollerImplementation",
      "outputs": [
        {
          "internalType": "address",
          "name": "",
          "type": "address"
        }
      ],
      "payable": false,
      "stateMutability": "view",
      "type": "function"
    },
    {
      "constant": true,
      "inputs": [],
      "name": "isComptroller",
      "outputs": [
        {
          "internalType": "bool",
          "name": "",
          "type": "bool"
        }
      ],
      "payable": false,
      "stateMutability": "view",
      "type": "function"
    },
    {
      "constant": true,
      "inputs": [],
      "name": "liquidationIncentiveMantissa",
      "outputs": [
        {
          "internalType": "uint256",
          "name": "",
          "type": "uint256"
        }
      ],
      "payable": false,
      "stateMutability": "view",
      "type": "function"
    },
    {
      "constant": true,
      "inputs": [
        {
          "internalType": "address",
          "name": "",
          "type": "address"
        }
      ],
      "name": "markets",
      "outputs": [
        {
          "internalType": "bool",
          "name": "isListed",
          "type": "bool"
        },
        {
          "internalType": "uint256",
          "name": "collateralFactorMantissa",
          "type": "uint256"
        },
        {
          "internalType": "bool",
          "name": "isComped",
          "type": "bool"
        }
      ],
      "payable": false,
      "stateMutability": "view",
      "type": "function"
    },
    {
      "constant": true,
      "inputs": [],
      "name": "maxAssets",
      "outputs": [
        {
          "internalType": "uint256",
          "name": "",
          "type": "uint256"
        }
      ],
      "payable": false,
      "stateMutability": "view",
      "type": "function"
    },
    {
      "constant": true,
      "inputs": [
        {
          "internalType": "address",
          "name": "",
          "type": "address"
        }
      ],
      "name": "mintGuardianPaused",
      "outputs": [
        {
          "internalType": "bool",
          "name": "",
          "type": "bool"
        }
      ],
      "payable": false,
      "stateMutability": "view",
      "type": "function"
    },
    {
      "constant": true,
      "inputs": [],
      "name": "oracle",
      "outputs": [
        {
          "internalType": "contract UniswapOracleFactoryI",
          "name": "",
          "type": "address"
        }
      ],
      "payable": false,
      "stateMutability": "view",
      "type": "function"
    },
    {
      "constant": true,
      "inputs": [],
      "name": "pauseGuardian",
      "outputs": [
        {
          "internalType": "address",
          "name": "",
          "type": "address"
        }
      ],
      "payable": false,
      "stateMutability": "view",
      "type": "function"
    },
    {
      "constant": true,
      "inputs": [],
      "name": "pendingAdmin",
      "outputs": [
        {
          "internalType": "address",
          "name": "",
          "type": "address"
        }
      ],
      "payable": false,
      "stateMutability": "view",
      "type": "function"
    },
    {
      "constant": true,
      "inputs": [],
      "name": "pendingComptrollerImplementation",
      "outputs": [
        {
          "internalType": "address",
          "name": "",
          "type": "address"
        }
      ],
      "payable": false,
      "stateMutability": "view",
      "type": "function"
    },
    {
      "constant": true,
      "inputs": [],
      "name": "seizeGuardianPaused",
      "outputs": [
        {
          "internalType": "bool",
          "name": "",
          "type": "bool"
        }
      ],
      "payable": false,
      "stateMutability": "view",
      "type": "function"
    },
    {
      "constant": true,
      "inputs": [],
      "name": "transferGuardianPaused",
      "outputs": [
        {
          "internalType": "bool",
          "name": "",
          "type": "bool"
        }
      ],
      "payable": false,
      "stateMutability": "view",
      "type": "function"
    },
    {
      "constant": true,
      "inputs": [
        {
          "internalType": "address",
          "name": "account",
          "type": "address"
        }
      ],
      "name": "getAssetsIn",
      "outputs": [
        {
          "internalType": "contract CToken[]",
          "name": "",
          "type": "address[]"
        }
      ],
      "payable": false,
      "stateMutability": "view",
      "type": "function"
    },
    {
      "constant": true,
      "inputs": [
        {
          "internalType": "address",
          "name": "account",
          "type": "address"
        },
        {
          "internalType": "contract CToken",
          "name": "cToken",
          "type": "address"
        }
      ],
      "name": "checkMembership",
      "outputs": [
        {
          "internalType": "bool",
          "name": "",
          "type": "bool"
        }
      ],
      "payable": false,
      "stateMutability": "view",
      "type": "function"
    },
    {
      "constant": false,
      "inputs": [
        {
          "internalType": "address[]",
          "name": "cTokens",
          "type": "address[]"
        }
      ],
      "name": "enterMarkets",
      "outputs": [
        {
          "internalType": "uint256[]",
          "name": "",
          "type": "uint256[]"
        }
      ],
      "payable": false,
      "stateMutability": "nonpayable",
      "type": "function"
    },
    {
      "constant": false,
      "inputs": [
        {
          "internalType": "address",
          "name": "cTokenAddress",
          "type": "address"
        }
      ],
      "name": "exitMarket",
      "outputs": [
        {
          "internalType": "uint256",
          "name": "",
          "type": "uint256"
        }
      ],
      "payable": false,
      "stateMutability": "nonpayable",
      "type": "function"
    },
    {
      "constant": false,
      "inputs": [
        {
          "internalType": "address",
          "name": "cToken",
          "type": "address"
        },
        {
          "internalType": "address",
          "name": "minter",
          "type": "address"
        },
        {
          "internalType": "uint256",
          "name": "mintAmount",
          "type": "uint256"
        }
      ],
      "name": "mintAllowed",
      "outputs": [
        {
          "internalType": "uint256",
          "name": "",
          "type": "uint256"
        }
      ],
      "payable": false,
      "stateMutability": "nonpayable",
      "type": "function"
    },
    {
      "constant": false,
      "inputs": [
        {
          "internalType": "address",
          "name": "cToken",
          "type": "address"
        },
        {
          "internalType": "address",
          "name": "minter",
          "type": "address"
        },
        {
          "internalType": "uint256",
          "name": "actualMintAmount",
          "type": "uint256"
        },
        {
          "internalType": "uint256",
          "name": "mintTokens",
          "type": "uint256"
        }
      ],
      "name": "mintVerify",
      "outputs": [],
      "payable": false,
      "stateMutability": "nonpayable",
      "type": "function"
    },
    {
      "constant": false,
      "inputs": [
        {
          "internalType": "address",
          "name": "cToken",
          "type": "address"
        },
        {
          "internalType": "address",
          "name": "redeemer",
          "type": "address"
        },
        {
          "internalType": "uint256",
          "name": "redeemTokens",
          "type": "uint256"
        }
      ],
      "name": "redeemAllowed",
      "outputs": [
        {
          "internalType": "uint256",
          "name": "",
          "type": "uint256"
        }
      ],
      "payable": false,
      "stateMutability": "nonpayable",
      "type": "function"
    },
    {
      "constant": false,
      "inputs": [
        {
          "internalType": "address",
          "name": "cToken",
          "type": "address"
        },
        {
          "internalType": "address",
          "name": "redeemer",
          "type": "address"
        },
        {
          "internalType": "uint256",
          "name": "redeemAmount",
          "type": "uint256"
        },
        {
          "internalType": "uint256",
          "name": "redeemTokens",
          "type": "uint256"
        }
      ],
      "name": "redeemVerify",
      "outputs": [],
      "payable": false,
      "stateMutability": "nonpayable",
      "type": "function"
    },
    {
      "constant": false,
      "inputs": [
        {
          "internalType": "address",
          "name": "cToken",
          "type": "address"
        },
        {
          "internalType": "address",
          "name": "borrower",
          "type": "address"
        },
        {
          "internalType": "uint256",
          "name": "borrowAmount",
          "type": "uint256"
        }
      ],
      "name": "borrowAllowed",
      "outputs": [
        {
          "internalType": "uint256",
          "name": "",
          "type": "uint256"
        }
      ],
      "payable": false,
      "stateMutability": "nonpayable",
      "type": "function"
    },
    {
      "constant": false,
      "inputs": [
        {
          "internalType": "address",
          "name": "cToken",
          "type": "address"
        },
        {
          "internalType": "address",
          "name": "borrower",
          "type": "address"
        },
        {
          "internalType": "uint256",
          "name": "borrowAmount",
          "type": "uint256"
        }
      ],
      "name": "borrowVerify",
      "outputs": [],
      "payable": false,
      "stateMutability": "nonpayable",
      "type": "function"
    },
    {
      "constant": false,
      "inputs": [
        {
          "internalType": "address",
          "name": "cToken",
          "type": "address"
        },
        {
          "internalType": "address",
          "name": "payer",
          "type": "address"
        },
        {
          "internalType": "address",
          "name": "borrower",
          "type": "address"
        },
        {
          "internalType": "uint256",
          "name": "repayAmount",
          "type": "uint256"
        }
      ],
      "name": "repayBorrowAllowed",
      "outputs": [
        {
          "internalType": "uint256",
          "name": "",
          "type": "uint256"
        }
      ],
      "payable": false,
      "stateMutability": "nonpayable",
      "type": "function"
    },
    {
      "constant": false,
      "inputs": [
        {
          "internalType": "address",
          "name": "cToken",
          "type": "address"
        },
        {
          "internalType": "address",
          "name": "payer",
          "type": "address"
        },
        {
          "internalType": "address",
          "name": "borrower",
          "type": "address"
        },
        {
          "internalType": "uint256",
          "name": "actualRepayAmount",
          "type": "uint256"
        },
        {
          "internalType": "uint256",
          "name": "borrowerIndex",
          "type": "uint256"
        }
      ],
      "name": "repayBorrowVerify",
      "outputs": [],
      "payable": false,
      "stateMutability": "nonpayable",
      "type": "function"
    },
    {
      "constant": false,
      "inputs": [
        {
          "internalType": "address",
          "name": "cTokenBorrowed",
          "type": "address"
        },
        {
          "internalType": "address",
          "name": "cTokenCollateral",
          "type": "address"
        },
        {
          "internalType": "address",
          "name": "liquidator",
          "type": "address"
        },
        {
          "internalType": "address",
          "name": "borrower",
          "type": "address"
        },
        {
          "internalType": "uint256",
          "name": "repayAmount",
          "type": "uint256"
        }
      ],
      "name": "liquidateBorrowAllowed",
      "outputs": [
        {
          "internalType": "uint256",
          "name": "",
          "type": "uint256"
        }
      ],
      "payable": false,
      "stateMutability": "nonpayable",
      "type": "function"
    },
    {
      "constant": false,
      "inputs": [
        {
          "internalType": "address",
          "name": "cTokenBorrowed",
          "type": "address"
        },
        {
          "internalType": "address",
          "name": "cTokenCollateral",
          "type": "address"
        },
        {
          "internalType": "address",
          "name": "liquidator",
          "type": "address"
        },
        {
          "internalType": "address",
          "name": "borrower",
          "type": "address"
        },
        {
          "internalType": "uint256",
          "name": "actualRepayAmount",
          "type": "uint256"
        },
        {
          "internalType": "uint256",
          "name": "seizeTokens",
          "type": "uint256"
        }
      ],
      "name": "liquidateBorrowVerify",
      "outputs": [],
      "payable": false,
      "stateMutability": "nonpayable",
      "type": "function"
    },
    {
      "constant": false,
      "inputs": [
        {
          "internalType": "address",
          "name": "cTokenCollateral",
          "type": "address"
        },
        {
          "internalType": "address",
          "name": "cTokenBorrowed",
          "type": "address"
        },
        {
          "internalType": "address",
          "name": "liquidator",
          "type": "address"
        },
        {
          "internalType": "address",
          "name": "borrower",
          "type": "address"
        },
        {
          "internalType": "uint256",
          "name": "seizeTokens",
          "type": "uint256"
        }
      ],
      "name": "seizeAllowed",
      "outputs": [
        {
          "internalType": "uint256",
          "name": "",
          "type": "uint256"
        }
      ],
      "payable": false,
      "stateMutability": "nonpayable",
      "type": "function"
    },
    {
      "constant": false,
      "inputs": [
        {
          "internalType": "address",
          "name": "cTokenCollateral",
          "type": "address"
        },
        {
          "internalType": "address",
          "name": "cTokenBorrowed",
          "type": "address"
        },
        {
          "internalType": "address",
          "name": "liquidator",
          "type": "address"
        },
        {
          "internalType": "address",
          "name": "borrower",
          "type": "address"
        },
        {
          "internalType": "uint256",
          "name": "seizeTokens",
          "type": "uint256"
        }
      ],
      "name": "seizeVerify",
      "outputs": [],
      "payable": false,
      "stateMutability": "nonpayable",
      "type": "function"
    },
    {
      "constant": false,
      "inputs": [
        {
          "internalType": "address",
          "name": "cToken",
          "type": "address"
        },
        {
          "internalType": "address",
          "name": "src",
          "type": "address"
        },
        {
          "internalType": "address",
          "name": "dst",
          "type": "address"
        },
        {
          "internalType": "uint256",
          "name": "transferTokens",
          "type": "uint256"
        }
      ],
      "name": "transferAllowed",
      "outputs": [
        {
          "internalType": "uint256",
          "name": "",
          "type": "uint256"
        }
      ],
      "payable": false,
      "stateMutability": "nonpayable",
      "type": "function"
    },
    {
      "constant": false,
      "inputs": [
        {
          "internalType": "address",
          "name": "cToken",
          "type": "address"
        },
        {
          "internalType": "address",
          "name": "src",
          "type": "address"
        },
        {
          "internalType": "address",
          "name": "dst",
          "type": "address"
        },
        {
          "internalType": "uint256",
          "name": "transferTokens",
          "type": "uint256"
        }
      ],
      "name": "transferVerify",
      "outputs": [],
      "payable": false,
      "stateMutability": "nonpayable",
      "type": "function"
    },
    {
      "constant": true,
      "inputs": [
        {
          "internalType": "address",
          "name": "account",
          "type": "address"
        }
      ],
      "name": "getAccountLiquidity",
      "outputs": [
        {
          "internalType": "uint256",
          "name": "",
          "type": "uint256"
        },
        {
          "internalType": "uint256",
          "name": "",
          "type": "uint256"
        },
        {
          "internalType": "uint256",
          "name": "",
          "type": "uint256"
        }
      ],
      "payable": false,
      "stateMutability": "view",
      "type": "function"
    },
    {
      "constant": true,
      "inputs": [
        {
          "internalType": "address",
          "name": "account",
          "type": "address"
        },
        {
          "internalType": "address",
          "name": "cTokenModify",
          "type": "address"
        },
        {
          "internalType": "uint256",
          "name": "redeemTokens",
          "type": "uint256"
        },
        {
          "internalType": "uint256",
          "name": "borrowAmount",
          "type": "uint256"
        }
      ],
      "name": "getHypotheticalAccountLiquidity",
      "outputs": [
        {
          "internalType": "uint256",
          "name": "",
          "type": "uint256"
        },
        {
          "internalType": "uint256",
          "name": "",
          "type": "uint256"
        },
        {
          "internalType": "uint256",
          "name": "",
          "type": "uint256"
        }
      ],
      "payable": false,
      "stateMutability": "view",
      "type": "function"
    },
    {
      "constant": true,
      "inputs": [
        {
          "internalType": "address",
          "name": "cTokenBorrowed",
          "type": "address"
        },
        {
          "internalType": "address",
          "name": "cTokenCollateral",
          "type": "address"
        },
        {
          "internalType": "uint256",
          "name": "actualRepayAmount",
          "type": "uint256"
        }
      ],
      "name": "liquidateCalculateSeizeTokens",
      "outputs": [
        {
          "internalType": "uint256",
          "name": "",
          "type": "uint256"
        },
        {
          "internalType": "uint256",
          "name": "",
          "type": "uint256"
        }
      ],
      "payable": false,
      "stateMutability": "view",
      "type": "function"
    },
    {
      "constant": false,
      "inputs": [
        {
          "internalType": "contract UniswapOracleFactoryI",
          "name": "newOracle",
          "type": "address"
        }
      ],
      "name": "_setPriceOracle",
      "outputs": [
        {
          "internalType": "uint256",
          "name": "",
          "type": "uint256"
        }
      ],
      "payable": false,
      "stateMutability": "nonpayable",
      "type": "function"
    },
    {
      "constant": false,
      "inputs": [
        {
          "internalType": "uint256",
          "name": "newCloseFactorMantissa",
          "type": "uint256"
        }
      ],
      "name": "_setCloseFactor",
      "outputs": [
        {
          "internalType": "uint256",
          "name": "",
          "type": "uint256"
        }
      ],
      "payable": false,
      "stateMutability": "nonpayable",
      "type": "function"
    },
    {
      "constant": false,
      "inputs": [
        {
          "internalType": "contract CToken",
          "name": "cToken",
          "type": "address"
        },
        {
          "internalType": "uint256",
          "name": "newCollateralFactorMantissa",
          "type": "uint256"
        }
      ],
      "name": "_setCollateralFactor",
      "outputs": [
        {
          "internalType": "uint256",
          "name": "",
          "type": "uint256"
        }
      ],
      "payable": false,
      "stateMutability": "nonpayable",
      "type": "function"
    },
    {
      "constant": false,
      "inputs": [
        {
          "internalType": "uint256",
          "name": "newMaxAssets",
          "type": "uint256"
        }
      ],
      "name": "_setMaxAssets",
      "outputs": [
        {
          "internalType": "uint256",
          "name": "",
          "type": "uint256"
        }
      ],
      "payable": false,
      "stateMutability": "nonpayable",
      "type": "function"
    },
    {
      "constant": false,
      "inputs": [
        {
          "internalType": "uint256",
          "name": "newLiquidationIncentiveMantissa",
          "type": "uint256"
        }
      ],
      "name": "_setLiquidationIncentive",
      "outputs": [
        {
          "internalType": "uint256",
          "name": "",
          "type": "uint256"
        }
      ],
      "payable": false,
      "stateMutability": "nonpayable",
      "type": "function"
    },
    {
      "constant": false,
      "inputs": [
        {
          "internalType": "contract CToken",
          "name": "cToken",
          "type": "address"
        }
      ],
      "name": "_supportMarket",
      "outputs": [
        {
          "internalType": "uint256",
          "name": "",
          "type": "uint256"
        }
      ],
      "payable": false,
      "stateMutability": "nonpayable",
      "type": "function"
    },
    {
      "constant": false,
      "inputs": [
        {
          "internalType": "address",
          "name": "newPauseGuardian",
          "type": "address"
        }
      ],
      "name": "_setPauseGuardian",
      "outputs": [
        {
          "internalType": "uint256",
          "name": "",
          "type": "uint256"
        }
      ],
      "payable": false,
      "stateMutability": "nonpayable",
      "type": "function"
    },
    {
      "constant": false,
      "inputs": [
        {
          "internalType": "contract CToken",
          "name": "cToken",
          "type": "address"
        },
        {
          "internalType": "bool",
          "name": "state",
          "type": "bool"
        }
      ],
      "name": "_setMintPaused",
      "outputs": [
        {
          "internalType": "bool",
          "name": "",
          "type": "bool"
        }
      ],
      "payable": false,
      "stateMutability": "nonpayable",
      "type": "function"
    },
    {
      "constant": false,
      "inputs": [
        {
          "internalType": "contract CToken",
          "name": "cToken",
          "type": "address"
        },
        {
          "internalType": "bool",
          "name": "state",
          "type": "bool"
        }
      ],
      "name": "_setBorrowPaused",
      "outputs": [
        {
          "internalType": "bool",
          "name": "",
          "type": "bool"
        }
      ],
      "payable": false,
      "stateMutability": "nonpayable",
      "type": "function"
    },
    {
      "constant": false,
      "inputs": [
        {
          "internalType": "bool",
          "name": "state",
          "type": "bool"
        }
      ],
      "name": "_setTransferPaused",
      "outputs": [
        {
          "internalType": "bool",
          "name": "",
          "type": "bool"
        }
      ],
      "payable": false,
      "stateMutability": "nonpayable",
      "type": "function"
    },
    {
      "constant": false,
      "inputs": [
        {
          "internalType": "bool",
          "name": "state",
          "type": "bool"
        }
      ],
      "name": "_setSeizePaused",
      "outputs": [
        {
          "internalType": "bool",
          "name": "",
          "type": "bool"
        }
      ],
      "payable": false,
      "stateMutability": "nonpayable",
      "type": "function"
    },
    {
      "constant": false,
      "inputs": [
        {
          "internalType": "contract Unitroller",
          "name": "unitroller",
          "type": "address"
        }
      ],
      "name": "_become",
      "outputs": [],
      "payable": false,
      "stateMutability": "nonpayable",
      "type": "function"
    }
  ],
  "bytecode": "0x608060405234801561001057600080fd5b50600080546001600160a01b031916331790556134b9806100326000396000f3fe608060405234801561001057600080fd5b50600436106102505760003560e01c80627e3dd21461025557806318c882a5146102715780631d504dc61461029f5780631ededc91146102c757806324008a621461030957806324a3d62214610357578063267822471461037b5780632d70db7814610383578063317b0b77146103a25780633bcf7ec1146103bf5780633c94786f146103ed57806341c728b9146103f557806347ef3b3b146104315780634ada90af1461047d5780634e79238f146104855780634ef4c3e1146104df5780634fd42e171461051557806351dff9891461053257806355ee1fe11461056e5780635c778605146105945780635ec88c79146105ca5780635f5af1aa146105f05780635fc7e71e146106165780636a56947e1461065c5780636d154ea5146106985780636d35bf91146106be578063731f0c2b146107045780637dc0d1d01461072a57806387f76303146107325780638e8f294b1461073a5780638ebf636414610782578063929fe9a1146107a157806394b2294b146107cf578063a76b3fda146107d7578063abfceffc146107fd578063ac0b0bb714610873578063bb82aa5e1461087b578063bdcdc25814610883578063c2998238146108bf578063c488847b14610960578063d02f7351146109af578063d9226ced146109f5578063da3d454c14610a12578063dce1544914610a48578063dcfbc0c714610a74578063e4028eee14610a7c578063e6653f3d14610aa8578063e875544614610ab0578063eabe7d9114610ab8578063ede4edd014610aee578063f851a44014610b14575b600080fd5b61025d610b1c565b604080519115158252519081900360200190f35b61025d6004803603604081101561028757600080fd5b506001600160a01b0381351690602001351515610b21565b6102c5600480360360208110156102b557600080fd5b50356001600160a01b0316610ca4565b005b6102c5600480360360a08110156102dd57600080fd5b506001600160a01b03813581169160208101358216916040820135169060608101359060800135610e09565b6103456004803603608081101561031f57600080fd5b506001600160a01b03813581169160208101358216916040820135169060600135610e10565b60408051918252519081900360200190f35b61035f610e46565b604080516001600160a01b039092168252519081900360200190f35b61035f610e55565b61025d6004803603602081101561039957600080fd5b50351515610e64565b610345600480360360208110156103b857600080fd5b5035610f81565b61025d600480360360408110156103d557600080fd5b506001600160a01b0381351690602001351515611092565b61025d611210565b6102c56004803603608081101561040b57600080fd5b506001600160a01b03813581169160208101359091169060408101359060600135611220565b6102c5600480360360c081101561044757600080fd5b506001600160a01b0381358116916020810135821691604082013581169160608101359091169060808101359060a00135611226565b61034561122e565b6104c16004803603608081101561049b57600080fd5b506001600160a01b03813581169160208101359091169060408101359060600135611234565b60408051938452602084019290925282820152519081900360600190f35b610345600480360360608110156104f557600080fd5b506001600160a01b0381358116916020810135909116906040013561126e565b6103456004803603602081101561052b57600080fd5b5035611304565b6102c56004803603608081101561054857600080fd5b506001600160a01b038135811691602081013590911690604081013590606001356113f8565b6103456004803603602081101561058457600080fd5b50356001600160a01b031661144c565b6102c5600480360360608110156105aa57600080fd5b506001600160a01b038135811691602081013590911690604001356114d3565b6104c1600480360360208110156105e057600080fd5b50356001600160a01b03166114d8565b6103456004803603602081101561060657600080fd5b50356001600160a01b031661150d565b610345600480360360a081101561062c57600080fd5b506001600160a01b0381358116916020810135821691604082013581169160608101359091169060800135611591565b6102c56004803603608081101561067257600080fd5b506001600160a01b03813581169160208101358216916040820135169060600135611220565b61025d600480360360208110156106ae57600080fd5b50356001600160a01b0316611718565b6102c5600480360360a08110156106d457600080fd5b506001600160a01b0381358116916020810135821691604082013581169160608101359091169060800135610e09565b61025d6004803603602081101561071a57600080fd5b50356001600160a01b031661172d565b61035f611742565b61025d611751565b6107606004803603602081101561075057600080fd5b50356001600160a01b0316611761565b6040805193151584526020840192909252151582820152519081900360600190f35b61025d6004803603602081101561079857600080fd5b50351515611787565b61025d600480360360408110156107b757600080fd5b506001600160a01b03813581169160200135166118a3565b6103456118d6565b610345600480360360208110156107ed57600080fd5b50356001600160a01b03166118dc565b6108236004803603602081101561081357600080fd5b50356001600160a01b0316611a2a565b60408051602080825283518183015283519192839290830191858101910280838360005b8381101561085f578181015183820152602001610847565b505050509050019250505060405180910390f35b61025d611ab3565b61035f611ac3565b6103456004803603608081101561089957600080fd5b506001600160a01b03813581169160208101358216916040820135169060600135611ad2565b610823600480360360208110156108d557600080fd5b810190602081018135600160201b8111156108ef57600080fd5b82018360208201111561090157600080fd5b803590602001918460208302840111600160201b8311171561092257600080fd5b919080806020026020016040519081016040528093929190818152602001838360200280828437600092019190915250929550611b34945050505050565b6109966004803603606081101561097657600080fd5b506001600160a01b03813581169160208101359091169060400135611bcb565b6040805192835260208301919091528051918290030190f35b610345600480360360a08110156109c557600080fd5b506001600160a01b0381358116916020810135821691604082013581169160608101359091169060800135611e40565b61034560048036036020811015610a0b57600080fd5b5035611fd7565b61034560048036036060811015610a2857600080fd5b506001600160a01b03813581169160208101359091169060400135612040565b61035f60048036036040811015610a5e57600080fd5b506001600160a01b03813516906020013561228d565b61035f6122c2565b61034560048036036040811015610a9257600080fd5b506001600160a01b0381351690602001356122d1565b61025d612481565b610345612491565b61034560048036036060811015610ace57600080fd5b506001600160a01b03813581169160208101359091169060400135612497565b61034560048036036020811015610b0457600080fd5b50356001600160a01b03166124a4565b61035f6127b7565b600181565b6001600160a01b03821660009081526009602052604081205460ff16610b785760405162461bcd60e51b815260040180806020018281038252602881526020018061336a6028913960400191505060405180910390fd5b600a546001600160a01b0316331480610b9b57506000546001600160a01b031633145b610bd65760405162461bcd60e51b81526004018080602001828103825260278152602001806133d26027913960400191505060405180910390fd5b6000546001600160a01b0316331480610bf157506001821515145b610c30576040805162461bcd60e51b815260206004820152601660248201526000805160206133b2833981519152604482015290519081900360640190fd5b6001600160a01b0383166000818152600c6020908152604091829020805486151560ff199091168117909155825193845283830152606090830181905260069083015265426f72726f7760d01b60808301525160008051602061343e8339815191529181900360a00190a150805b92915050565b806001600160a01b031663f851a4406040518163ffffffff1660e01b815260040160206040518083038186803b158015610cdd57600080fd5b505afa158015610cf1573d6000803e3d6000fd5b505050506040513d6020811015610d0757600080fd5b50516001600160a01b03163314610d4f5760405162461bcd60e51b815260040180806020018281038252602781526020018061345e6027913960400191505060405180910390fd5b6000816001600160a01b031663c1e803346040518163ffffffff1660e01b8152600401602060405180830381600087803b158015610d8c57600080fd5b505af1158015610da0573d6000803e3d6000fd5b505050506040513d6020811015610db657600080fd5b505190508015610e05576040805162461bcd60e51b815260206004820152601560248201527418da185b99d9481b9bdd08185d5d1a1bdc9a5e9959605a1b604482015290519081900360640190fd5b5050565b5050505050565b6001600160a01b03841660009081526009602052604081205460ff16610e3857506009610e3e565b60005b90505b949350505050565b600a546001600160a01b031681565b6001546001600160a01b031681565b600a546000906001600160a01b0316331480610e8a57506000546001600160a01b031633145b610ec55760405162461bcd60e51b81526004018080602001828103825260278152602001806133d26027913960400191505060405180910390fd5b6000546001600160a01b0316331480610ee057506001821515145b610f1f576040805162461bcd60e51b815260206004820152601660248201526000805160206133b2833981519152604482015290519081900360640190fd5b600a8054831515600160b81b810260ff60b81b1990921691909117909155604080516020810192909252808252600582820152645365697a6560d81b6060830152516000805160206133f98339815191529181900360800190a150805b919050565b600080546001600160a01b03163314610fa757610fa0600160046127c6565b9050610f7c565b610faf6132a7565b506040805160208101909152828152610fc66132a7565b50604080516020810190915266b1a2bc2ec500008152610fe6828261281a565b15610fff57610ff66005806127c6565b92505050610f7c565b6110076132a7565b506040805160208101909152670c7d713b49da000081526110288184612822565b15611042576110386005806127c6565b9350505050610f7c565b6005805490869055604080518281526020810188905281517f3b9670cf975d26958e754b57098eaa2ac914d8d2a31b83257997b9f346110fd9929181900390910190a160005b9695505050505050565b6001600160a01b03821660009081526009602052604081205460ff166110e95760405162461bcd60e51b815260040180806020018281038252602881526020018061336a6028913960400191505060405180910390fd5b600a546001600160a01b031633148061110c57506000546001600160a01b031633145b6111475760405162461bcd60e51b81526004018080602001828103825260278152602001806133d26027913960400191505060405180910390fd5b6000546001600160a01b031633148061116257506001821515145b6111a1576040805162461bcd60e51b815260206004820152601660248201526000805160206133b2833981519152604482015290519081900360640190fd5b6001600160a01b0383166000818152600b6020908152604091829020805486151560ff199091168117909155825193845283830152606090830181905260049083015263135a5b9d60e21b60808301525160008051602061343e8339815191529181900360a00190a150919050565b600a54600160a01b900460ff1681565b50505050565b505050505050565b60065481565b6000806000806000806112498a8a8a8a612829565b92509250925082601181111561125b57fe5b95509093509150505b9450945094915050565b6001600160a01b0383166000908152600b602052604081205460ff16156112cd576040805162461bcd60e51b815260206004820152600e60248201526d1b5a5b9d081a5cc81c185d5cd95960921b604482015290519081900360640190fd5b6001600160a01b03841660009081526009602052604090205460ff166112f75760095b90506112fd565b60005b90505b9392505050565b600080546001600160a01b0316331461132357610fa06001600b6127c6565b61132b6132a7565b5060408051602081019091528281526113426132a7565b506040805160208101909152670de0b6b3a764000081526113638282612822565b1561137457610ff66007600c6127c6565b61137c6132a7565b5060408051602081019091526714d1120d7b160000815261139d8184612822565b156113ae576110386007600c6127c6565b6006805490869055604080518281526020810188905281517faeba5a6c40a8ac138134bff1aaa65debf25971188a58804bad717f82f0ec1316929181900390910190a16000611088565b801580156114065750600082115b15611220576040805162461bcd60e51b815260206004820152601160248201527072656465656d546f6b656e73207a65726f60781b604482015290519081900360640190fd5b600080546001600160a01b0316331461146b57610fa0600160106127c6565b600480546001600160a01b038481166001600160a01b0319831681179093556040805191909216808252602082019390935281517fd52b2b9b7e9ee655fcb95d2e5b9e0c9f69e7ef2b8e9d2d0ea78402d576d22e22929181900390910190a160009392505050565b505050565b6000806000806000806114ef876000806000612829565b92509250925082601181111561150157fe5b97919650945092505050565b600080546001600160a01b0316331461152c57610fa0600160136127c6565b600a80546001600160a01b038481166001600160a01b0319831617928390556040805192821680845293909116602083015280517f0613b6ee6a04f0d09f390e4d9318894b9f6ac7fd83897cd8d18896ba579c401e9281900390910190a160006112fd565b6001600160a01b03851660009081526009602052604081205460ff1615806115d257506001600160a01b03851660009081526009602052604090205460ff16155b156115e15760095b905061170f565b6000806115ed85612c44565b9193509091506000905082601181111561160357fe5b1461161d5781601181111561161457fe5b9250505061170f565b80611629576003611614565b6000886001600160a01b03166395dd9193876040518263ffffffff1660e01b815260040180826001600160a01b03166001600160a01b0316815260200191505060206040518083038186803b15801561168157600080fd5b505afa158015611695573d6000803e3d6000fd5b505050506040513d60208110156116ab57600080fd5b50516040805160208101909152600554815290915060009081906116cf9084612c64565b909250905060008260038111156116e257fe5b146116f657600b5b9550505050505061170f565b808711156117055760116116ea565b6000955050505050505b95945050505050565b600c6020526000908152604090205460ff1681565b600b6020526000908152604090205460ff1681565b6004546001600160a01b031681565b600a54600160b01b900460ff1681565b60096020526000908152604090208054600182015460039092015460ff91821692911683565b600a546000906001600160a01b03163314806117ad57506000546001600160a01b031633145b6117e85760405162461bcd60e51b81526004018080602001828103825260278152602001806133d26027913960400191505060405180910390fd5b6000546001600160a01b031633148061180357506001821515145b611842576040805162461bcd60e51b815260206004820152601660248201526000805160206133b2833981519152604482015290519081900360640190fd5b600a8054831515600160b01b810260ff60b01b1990921691909117909155604080516020810192909252808252600882820152672a3930b739b332b960c11b6060830152516000805160206133f98339815191529181900360800190a15090565b6001600160a01b038082166000908152600960209081526040808320938616835260029093019052205460ff1692915050565b60075481565b600080546001600160a01b031633146118fb57610fa0600160126127c6565b6001600160a01b03821660009081526009602052604090205460ff161561192857610fa0600a60116127c6565b816001600160a01b031663fe9c44ae6040518163ffffffff1660e01b815260040160206040518083038186803b15801561196157600080fd5b505afa158015611975573d6000803e3d6000fd5b505050506040513d602081101561198b57600080fd5b5050604080516060810182526001808252600060208381018281528486018381526001600160a01b03891680855260098452938790209551865490151560ff199182161787559151948601949094559251600390940180549415159490931693909317909155825190815291517fcf583bb0c569eb967f806b11601c4cb93c10310485c67add5f8362c2f212321f9281900390910190a1600092915050565b60608060086000846001600160a01b03166001600160a01b03168152602001908152602001600020805480602002602001604051908101604052809291908181526020018280548015611aa657602002820191906000526020600020905b81546001600160a01b03168152600190910190602001808311611a88575b5093979650505050505050565b600a54600160b81b900460ff1681565b6002546001600160a01b031681565b600a54600090600160b01b900460ff1615611b29576040805162461bcd60e51b81526020600482015260126024820152711d1c985b9cd9995c881a5cc81c185d5cd95960721b604482015290519081900360640190fd5b610e3b858584612cb8565b6060600082519050606081604051908082528060200260200182016040528015611b68578160200160208202803883390190505b50905060005b82811015611bc3576000858281518110611b8457fe5b60200260200101519050611b988133612d27565b6011811115611ba357fe5b838381518110611baf57fe5b602090810291909101015250600101611b6e565b509392505050565b600480546040805163fc57d4df60e01b81526001600160a01b038781169482019490945290516000938493849391169163fc57d4df91602480820192602092909190829003018186803b158015611c2157600080fd5b505afa158015611c35573d6000803e3d6000fd5b505050506040513d6020811015611c4b57600080fd5b5051600480546040805163fc57d4df60e01b81526001600160a01b038a8116948201949094529051939450600093929091169163fc57d4df91602480820192602092909190829003018186803b158015611ca457600080fd5b505afa158015611cb8573d6000803e3d6000fd5b505050506040513d6020811015611cce57600080fd5b50519050811580611cdd575080155b15611cf257600d935060009250611e38915050565b6000866001600160a01b031663182df0f56040518163ffffffff1660e01b815260040160206040518083038186803b158015611d2d57600080fd5b505afa158015611d41573d6000803e3d6000fd5b505050506040513d6020811015611d5757600080fd5b505190506000611d656132a7565b611d6d6132a7565b611d756132a7565b6000611d8360065489612ebb565b945090506000816003811115611d9557fe5b14611db157600b5b995060009850611e38975050505050505050565b611dbb8787612ebb565b935090506000816003811115611dcd57fe5b14611dd957600b611d9d565b611de38484612ef6565b925090506000816003811115611df557fe5b14611e0157600b611d9d565b611e0b828c612c64565b955090506000816003811115611e1d57fe5b14611e2957600b611d9d565b60009950939750505050505050505b935093915050565b600a54600090600160b81b900460ff1615611e94576040805162461bcd60e51b815260206004820152600f60248201526e1cd95a5e99481a5cc81c185d5cd959608a1b604482015290519081900360640190fd5b6001600160a01b03861660009081526009602052604090205460ff161580611ed557506001600160a01b03851660009081526009602052604090205460ff16155b15611ee15760096115da565b846001600160a01b0316635fe3b5676040518163ffffffff1660e01b815260040160206040518083038186803b158015611f1a57600080fd5b505afa158015611f2e573d6000803e3d6000fd5b505050506040513d6020811015611f4457600080fd5b505160408051635fe3b56760e01b815290516001600160a01b0392831692891691635fe3b567916004808301926020929190829003018186803b158015611f8a57600080fd5b505afa158015611f9e573d6000803e3d6000fd5b505050506040513d6020811015611fb457600080fd5b50516001600160a01b031614611fcb5760026115da565b60009695505050505050565b600080546001600160a01b03163314611ff657610fa06001600d6127c6565b6007805490839055604080518281526020810185905281517f7093cf1eb653f749c3ff531d6df7f92764536a7fa0d13530cd26e070780c32ea929181900390910190a160006112fd565b6001600160a01b0383166000908152600c602052604081205460ff16156120a1576040805162461bcd60e51b815260206004820152601060248201526f189bdc9c9bddc81a5cc81c185d5cd95960821b604482015290519081900360640190fd5b6001600160a01b03841660009081526009602052604090205460ff166120c85760096112f0565b6001600160a01b038085166000908152600960209081526040808320938716835260029093019052205460ff166121b857336001600160a01b0385161461214e576040805162461bcd60e51b815260206004820152601560248201527439b2b73232b91036bab9ba1031329031aa37b5b2b760591b604482015290519081900360640190fd5b600061215a3385612d27565b9050600081601181111561216a57fe5b146121835780601181111561217b57fe5b9150506112fd565b6001600160a01b038086166000908152600960209081526040808320938816835260029093019052205460ff166121b657fe5b505b600480546040805163fc57d4df60e01b81526001600160a01b03888116948201949094529051929091169163fc57d4df91602480820192602092909190829003018186803b15801561220957600080fd5b505afa15801561221d573d6000803e3d6000fd5b505050506040513d602081101561223357600080fd5b505161224057600d6112f0565b6000806122508587600087612829565b9193509091506000905082601181111561226657fe5b146122805781601181111561227757fe5b925050506112fd565b8015611fcb576004612277565b600860205281600052604060002081815481106122a657fe5b6000918252602090912001546001600160a01b03169150829050565b6003546001600160a01b031681565b600080546001600160a01b031633146122f7576122f0600160066127c6565b9050610c9e565b6001600160a01b0383166000908152600960205260409020805460ff1661232c57612324600960076127c6565b915050610c9e565b6123346132a7565b50604080516020810190915283815261234b6132a7565b506040805160208101909152670c7d713b49da0000815261236c8183612822565b156123875761237d600660086127c6565b9350505050610c9e565b84158015906124105750600480546040805163fc57d4df60e01b81526001600160a01b038a8116948201949094529051929091169163fc57d4df91602480820192602092909190829003018186803b1580156123e257600080fd5b505afa1580156123f6573d6000803e3d6000fd5b505050506040513d602081101561240c57600080fd5b5051155b156124215761237d600d60096127c6565b60018301805490869055604080516001600160a01b03891681526020810183905280820188905290517f70483e6592cd5182d45ac970e05bc62cdcc90e9d8ef2c2dbe686cf383bcd7fc59181900360600190a16000979650505050505050565b600a54600160a81b900460ff1681565b60055481565b60006112fa848484612cb8565b6000808290506000806000836001600160a01b031663c37f68e2336040518263ffffffff1660e01b815260040180826001600160a01b03166001600160a01b0316815260200191505060806040518083038186803b15801561250557600080fd5b505afa158015612519573d6000803e3d6000fd5b505050506040513d608081101561252f57600080fd5b5080516020820151604090920151909450909250905082156125825760405162461bcd60e51b81526004018080602001828103825260258152602001806134196025913960400191505060405180910390fd5b801561259f57612594600c60026127c6565b945050505050610f7c565b60006125ac873385612cb8565b905080156125cd576125c1600e600383612f0e565b95505050505050610f7c565b6001600160a01b0385166000908152600960209081526040808320338452600281019092529091205460ff1661260c5760009650505050505050610f7c565b3360009081526002820160209081526040808320805460ff19169055600882529182902080548351818402810184019094528084526060939283018282801561267e57602002820191906000526020600020905b81546001600160a01b03168152600190910190602001808311612660575b5050835193945083925060009150505b828110156126d357896001600160a01b03168482815181106126ac57fe5b60200260200101516001600160a01b031614156126cb578091506126d3565b60010161268e565b508181106126dd57fe5b3360009081526008602052604090208054819060001981019081106126fe57fe5b9060005260206000200160009054906101000a90046001600160a01b031681838154811061272857fe5b600091825260209091200180546001600160a01b0319166001600160a01b039290921691909117905580546127618260001983016132ba565b50604080516001600160a01b038c16815233602082015281517fe699a64c18b07ac5b7301aa273f36a2287239eb9501d81950672794afba29a0d929181900390910190a160009c9b505050505050505050505050565b6000546001600160a01b031681565b60006000805160206133928339815191528360118111156127e357fe5b8360138111156127ef57fe5b604080519283526020830191909152600082820152519081900360600190a18260118111156112fd57fe5b519051111590565b5190511090565b60008060006128366132de565b6001600160a01b0388166000908152600860209081526040808320805482518185028101850190935280835284936060939291908301828280156128a357602002820191906000526020600020905b81546001600160a01b03168152600190910190602001808311612885575b50939450600093505050505b8151811015612bff5760008282815181106128c657fe5b60200260200101519050806001600160a01b031663c37f68e28e6040518263ffffffff1660e01b815260040180826001600160a01b03166001600160a01b0316815260200191505060806040518083038186803b15801561292657600080fd5b505afa15801561293a573d6000803e3d6000fd5b505050506040513d608081101561295057600080fd5b508051602082015160408084015160609485015160808c0152938a019390935291880191909152945084156129965750600f975060009650869550611264945050505050565b60408051602080820183526001600160a01b0380851660008181526009845285902060010154845260c08b01939093528351808301855260808b0151815260e08b015260048054855163fc57d4df60e01b815291820194909452935192169263fc57d4df9260248083019392829003018186803b158015612a1657600080fd5b505afa158015612a2a573d6000803e3d6000fd5b505050506040513d6020811015612a4057600080fd5b505160a08701819052612a645750600d975060009650869550611264945050505050565b604080516020810190915260a08701518152610100870181905260c087015160e0880151612a9192612f62565b61012088015293506000846003811115612aa757fe5b14612ac35750600b975060009650869550611264945050505050565b612adb86610120015187604001518860000151612fba565b875293506000846003811115612aed57fe5b14612b095750600b975060009650869550611264945050505050565b612b2186610100015187606001518860200151612fba565b602088015293506000846003811115612b3657fe5b14612b525750600b975060009650869550611264945050505050565b8b6001600160a01b0316816001600160a01b03161415612bf657612b808661012001518c8860200151612fba565b602088015293506000846003811115612b9557fe5b14612bb15750600b975060009650869550611264945050505050565b612bc58661010001518b8860200151612fba565b602088015293506000846003811115612bda57fe5b14612bf65750600b975060009650869550611264945050505050565b506001016128af565b50602084015184511115612c26575050506020810151905160009450039150829050611264565b50508151602090920151600095508594509190910391506112649050565b6000806000612c57846000806000612829565b9250925092509193909250565b6000806000612c716132a7565b612c7b8686613007565b90925090506000826003811115612c8e57fe5b14612c9f5750915060009050612cb1565b6000612caa8261306f565b9350935050505b9250929050565b6001600160a01b03831660009081526009602052604081205460ff16612cdf5760096112f0565b6001600160a01b038085166000908152600960209081526040808320938716835260029093019052205460ff16612d175760006112f0565b6000806122508587866000612829565b6001600160a01b0382166000908152600960205260408120805460ff16612d52576009915050610c9e565b836001600160a01b03166377e4974d6040518163ffffffff1660e01b815260040160206040518083038186803b158015612d8b57600080fd5b505afa158015612d9f573d6000803e3d6000fd5b505050506040513d6020811015612db557600080fd5b5051612dc5576009915050610c9e565b6001600160a01b038316600090815260028201602052604090205460ff16151560011415612df7576000915050610c9e565b6007546001600160a01b03841660009081526008602052604090205410612e22576010915050610c9e565b6001600160a01b0380841660008181526002840160209081526040808320805460ff19166001908117909155600883528184208054918201815584529282902090920180549489166001600160a01b031990951685179055815193845283019190915280517f3ab23ab0d51cccc0c3085aec51f99228625aa1a922b3a8ca89a26b0f2027a1a59281900390910190a15060009392505050565b6000612ec56132a7565b612eeb60405180602001604052808681525060405180602001604052808681525061307e565b915091509250929050565b6000612f006132a7565b83518351612eeb9190613167565b6000600080516020613392833981519152846011811115612f2b57fe5b846013811115612f3757fe5b604080519283526020830191909152818101859052519081900360600190a18360118111156112fa57fe5b6000612f6c6132a7565b6000612f766132a7565b612f80878761307e565b90925090506000826003811115612f9357fe5b14612fa2579092509050611e38565b612fac818661307e565b935093505050935093915050565b6000806000612fc76132a7565b612fd18787613007565b90925090506000826003811115612fe457fe5b14612ff55750915060009050611e38565b612fac6130018261306f565b86613217565b60006130116132a7565b60008061302286600001518661323d565b9092509050600082600381111561303557fe5b1461305457506040805160208101909152600081529092509050612cb1565b60408051602081019091529081526000969095509350505050565b51670de0b6b3a7640000900490565b60006130886132a7565b60008061309d8660000151866000015161323d565b909250905060008260038111156130b057fe5b146130cf57506040805160208101909152600081529092509050612cb1565b6000806130e46706f05b59d3b2000084613217565b909250905060008260038111156130f757fe5b1461311957506040805160208101909152600081529094509250612cb1915050565b60008061312e83670de0b6b3a764000061327c565b9092509050600082600381111561314157fe5b1461314857fe5b604080516020810190915290815260009a909950975050505050505050565b60006131716132a7565b60008061318686670de0b6b3a764000061323d565b9092509050600082600381111561319957fe5b146131b857506040805160208101909152600081529092509050612cb1565b6000806131c5838861327c565b909250905060008260038111156131d857fe5b146131fa57506040805160208101909152600081529094509250612cb1915050565b604080516020810190915290815260009890975095505050505050565b60008083830184811061322f57600092509050612cb1565b506002915060009050612cb1565b6000808361325057506000905080612cb1565b8383028385828161325d57fe5b041461327157506002915060009050612cb1565b600092509050612cb1565b600080826132905750600190506000612cb1565b600083858161329b57fe5b04915091509250929050565b6040518060200160405280600081525090565b8154818355818111156114d3576000838152602090206114d3918101908301613348565b60405180610140016040528060008152602001600081526020016000815260200160008152602001600081526020016000815260200161331c6132a7565b81526020016133296132a7565b81526020016133366132a7565b81526020016133436132a7565b905290565b61336691905b80821115613362576000815560010161334e565b5090565b9056fe63616e6e6f742070617573652061206d61726b65742074686174206973206e6f74206c697374656445b96fe442630264581b197e84bbada861235052c5a1aadfff9ea4e40a969aa06f6e6c792061646d696e2063616e20756e7061757365000000000000000000006f6e6c7920706175736520677561726469616e20616e642061646d696e2063616e207061757365ef159d9a32b2472e32b098f954f3ce62d232939f1c207070b584df1814de2de0657869744d61726b65743a206765744163636f756e74536e617073686f74206661696c656471aec636243f9709bb0007ae15e9afb8150ab01716d75fd7573be5cc096e03b06f6e6c7920756e6974726f6c6c65722061646d696e2063616e206368616e676520627261696e73a265627a7a72315820fcede4ab99ae8e5dbadb4c432ba0e04b8af7595ddeed6ef6ddd8660e74c68fbb64736f6c63430005100032",
  "source": "pragma solidity ^0.6.0;\n\nimport \"./CToken.sol\";\nimport \"./ErrorReporter.sol\";\nimport \"./Exponential.sol\";\nimport \"../interfaces/UniswapOracleFactoryI.sol\";\nimport \"./ComptrollerInterface.sol\";\nimport \"./ComptrollerStorage.sol\";\nimport \"./Unitroller.sol\";\n\n/**\n * @title Compound's Comptroller Contract\n * @author Compound\n */\ncontract ComptrollerG2 is ComptrollerV2Storage, ComptrollerInterface, ComptrollerErrorReporter, Exponential {\n    /**\n     * @notice Emitted when an admin supports a market\n     */\n    event MarketListed(CToken cToken);\n\n    /**\n     * @notice Emitted when an account enters a market\n     */\n    event MarketEntered(CToken cToken, address account);\n\n    /**\n     * @notice Emitted when an account exits a market\n     */\n    event MarketExited(CToken cToken, address account);\n\n    /**\n     * @notice Emitted when close factor is changed by admin\n     */\n    event NewCloseFactor(uint oldCloseFactorMantissa, uint newCloseFactorMantissa);\n\n    /**\n     * @notice Emitted when a collateral factor is changed by admin\n     */\n    event NewCollateralFactor(CToken cToken, uint oldCollateralFactorMantissa, uint newCollateralFactorMantissa);\n\n    /**\n     * @notice Emitted when liquidation incentive is changed by admin\n     */\n    event NewLiquidationIncentive(uint oldLiquidationIncentiveMantissa, uint newLiquidationIncentiveMantissa);\n\n    /**\n     * @notice Emitted when maxAssets is changed by admin\n     */\n    event NewMaxAssets(uint oldMaxAssets, uint newMaxAssets);\n\n    /**\n     * @notice Emitted when price oracle is changed\n     */\n    event NewPriceOracle(UniswapOracleFactoryI oldPriceOracle, UniswapOracleFactoryI newPriceOracle);\n\n    /**\n     * @notice Emitted when pause guardian is changed\n     */\n    event NewPauseGuardian(address oldPauseGuardian, address newPauseGuardian);\n\n    /**\n     * @notice Emitted when an action is paused globally\n     */\n    event ActionPaused(string action, bool pauseState);\n\n    /**\n     * @notice Emitted when an action is paused on a market\n     */\n    event ActionPaused(CToken cToken, string action, bool pauseState);\n\n    // closeFactorMantissa must be strictly greater than this value\n    uint internal constant closeFactorMinMantissa = 0.05e18; // 0.05\n\n    // closeFactorMantissa must not exceed this value\n    uint internal constant closeFactorMaxMantissa = 0.9e18; // 0.9\n\n    // No collateralFactorMantissa may exceed this value\n    uint internal constant collateralFactorMaxMantissa = 0.9e18; // 0.9\n\n    // liquidationIncentiveMantissa must be no less than this value\n    uint internal constant liquidationIncentiveMinMantissa = 1.0e18; // 1.0\n\n    // liquidationIncentiveMantissa must be no greater than this value\n    uint internal constant liquidationIncentiveMaxMantissa = 1.5e18; // 1.5\n\n    constructor() public {\n        admin = msg.sender;\n    }\n\n    /*** Assets You Are In ***/\n\n    /**\n     * @notice Returns the assets an account has entered\n     * @param account The address of the account to pull assets for\n     * @return A dynamic list with the assets the account has entered\n     */\n    function getAssetsIn(address account) external view returns (CToken[] memory) {\n        CToken[] memory assetsIn = accountAssets[account];\n\n        return assetsIn;\n    }\n\n    /**\n     * @notice Returns whether the given account is entered in the given asset\n     * @param account The address of the account to check\n     * @param cToken The cToken to check\n     * @return True if the account is in the asset, otherwise false.\n     */\n    function checkMembership(address account, CToken cToken) external view returns (bool) {\n        return markets[address(cToken)].accountMembership[account];\n    }\n\n    /**\n     * @notice Add assets to be included in account liquidity calculation\n     * @param cTokens The list of addresses of the cToken markets to be enabled\n     * @return Success indicator for whether each corresponding market was entered\n     */\n    function enterMarkets(address[] memory cTokens) public returns (uint[] memory) {\n        uint len = cTokens.length;\n\n        uint[] memory results = new uint[](len);\n        for (uint i = 0; i < len; i++) {\n            CToken cToken = CToken(cTokens[i]);\n\n            results[i] = uint(addToMarketInternal(cToken, msg.sender));\n        }\n\n        return results;\n    }\n\n    /**\n     * @notice Add the market to the borrower's \"assets in\" for liquidity calculations\n     * @param cToken The market to enter\n     * @param borrower The address of the account to modify\n     * @return Success indicator for whether the market was entered\n     */\n    function addToMarketInternal(CToken cToken, address borrower) internal returns (Error) {\n        Market storage marketToJoin = markets[address(cToken)];\n\n        if (!marketToJoin.isListed) {\n            // market is not listed, cannot join\n            return Error.MARKET_NOT_LISTED;\n        }\n\n        if (cToken.isALR() == false) {\n          // market is not an ALR market\n           return Error.MARKET_NOT_LISTED;\n        }\n\n        if (marketToJoin.accountMembership[borrower] == true) {\n            // already joined\n            return Error.NO_ERROR;\n        }\n\n        if (accountAssets[borrower].length >= maxAssets)  {\n            // no space, cannot join\n            return Error.TOO_MANY_ASSETS;\n        }\n\n        // survived the gauntlet, add to list\n        // NOTE: we store these somewhat redundantly as a significant optimization\n        //  this avoids having to iterate through the list for the most common use cases\n        //  that is, only when we need to perform liquidity checks\n        //  and not whenever we want to check if an account is in a particular market\n        marketToJoin.accountMembership[borrower] = true;\n        accountAssets[borrower].push(cToken);\n\n        emit MarketEntered(cToken, borrower);\n\n        return Error.NO_ERROR;\n    }\n\n    /**\n     * @notice Removes asset from sender's account liquidity calculation\n     * @dev Sender must not have an outstanding borrow balance in the asset,\n     *  or be providing neccessary collateral for an outstanding borrow.\n     * @param cTokenAddress The address of the asset to be removed\n     * @return Whether or not the account successfully exited the market\n     */\n    function exitMarket(address cTokenAddress) external returns (uint) {\n        CToken cToken = CToken(cTokenAddress);\n        /* Get sender tokensHeld and amountOwed underlying from the cToken */\n        (uint oErr, uint tokensHeld, uint amountOwed, ) = cToken.getAccountSnapshot(msg.sender);\n        require(oErr == 0, \"exitMarket: getAccountSnapshot failed\"); // semi-opaque error code\n\n        /* Fail if the sender has a borrow balance */\n        if (amountOwed != 0) {\n            return fail(Error.NONZERO_BORROW_BALANCE, FailureInfo.EXIT_MARKET_BALANCE_OWED);\n        }\n\n        /* Fail if the sender is not permitted to redeem all of their tokens */\n        uint allowed = redeemAllowedInternal(cTokenAddress, msg.sender, tokensHeld);\n        if (allowed != 0) {\n            return failOpaque(Error.REJECTION, FailureInfo.EXIT_MARKET_REJECTION, allowed);\n        }\n\n        Market storage marketToExit = markets[address(cToken)];\n\n        /* Return true if the sender is not already in the market */\n        if (!marketToExit.accountMembership[msg.sender]) {\n            return uint(Error.NO_ERROR);\n        }\n\n        /* Set cToken account membership to false */\n        delete marketToExit.accountMembership[msg.sender];\n\n        /* Delete cToken from the accounts list of assets */\n        // load into memory for faster iteration\n        CToken[] memory userAssetList = accountAssets[msg.sender];\n        uint len = userAssetList.length;\n        uint assetIndex = len;\n        for (uint i = 0; i < len; i++) {\n            if (userAssetList[i] == cToken) {\n                assetIndex = i;\n                break;\n            }\n        }\n\n        // We *must* have found the asset in the list or our redundant data structure is broken\n        assert(assetIndex < len);\n\n        // copy last item in list to location of item to be removed, reduce length by 1\n        CToken[] storage storedList = accountAssets[msg.sender];\n        storedList[assetIndex] = storedList[storedList.length - 1];\n        storedList.length--;\n\n        emit MarketExited(cToken, msg.sender);\n\n        return uint(Error.NO_ERROR);\n    }\n\n    /*** Policy Hooks ***/\n\n    /**\n     * @notice Checks if the account should be allowed to mint tokens in the given market\n     * @param cToken The market to verify the mint against\n     * @param minter The account which would get the minted tokens\n     * @param mintAmount The amount of underlying being supplied to the market in exchange for tokens\n     * @return 0 if the mint is allowed, otherwise a semi-opaque error code (See ErrorReporter.sol)\n     */\n    function mintAllowed(address cToken, address minter, uint mintAmount) external returns (uint) {\n        // Pausing is a very serious situation - we revert to sound the alarms\n        require(!mintGuardianPaused[cToken], \"mint is paused\");\n\n        // Shh - currently unused\n        minter;\n        mintAmount;\n\n        if (!markets[cToken].isListed) {\n            return uint(Error.MARKET_NOT_LISTED);\n        }\n\n        // *may include Policy Hook-type checks\n\n        return uint(Error.NO_ERROR);\n    }\n\n    /**\n     * @notice Validates mint and reverts on rejection. May emit logs.\n     * @param cToken Asset being minted\n     * @param minter The address minting the tokens\n     * @param actualMintAmount The amount of the underlying asset being minted\n     * @param mintTokens The number of tokens being minted\n     */\n    function mintVerify(address cToken, address minter, uint actualMintAmount, uint mintTokens) external {\n        // Shh - currently unused\n        cToken;\n        minter;\n        actualMintAmount;\n        mintTokens;\n\n        // Shh - we don't ever want this hook to be marked pure\n        if (false) {\n            maxAssets = maxAssets;\n        }\n    }\n\n    /**\n     * @notice Checks if the account should be allowed to redeem tokens in the given market\n     * @param cToken The market to verify the redeem against\n     * @param redeemer The account which would redeem the tokens\n     * @param redeemTokens The number of cTokens to exchange for the underlying asset in the market\n     * @return 0 if the redeem is allowed, otherwise a semi-opaque error code (See ErrorReporter.sol)\n     */\n    function redeemAllowed(address cToken, address redeemer, uint redeemTokens) external returns (uint) {\n        return redeemAllowedInternal(cToken, redeemer, redeemTokens);\n    }\n\n    function redeemAllowedInternal(address cToken, address redeemer, uint redeemTokens) internal view returns (uint) {\n        if (!markets[cToken].isListed) {\n            return uint(Error.MARKET_NOT_LISTED);\n        }\n\n        // *may include Policy Hook-type checks\n\n        /* If the redeemer is not 'in' the market, then we can bypass the liquidity check */\n        if (!markets[cToken].accountMembership[redeemer]) {\n            return uint(Error.NO_ERROR);\n        }\n\n        /* Otherwise, perform a hypothetical liquidity check to guard against shortfall */\n        (Error err, , uint shortfall) = getHypotheticalAccountLiquidityInternal(redeemer, CToken(cToken), redeemTokens, 0);\n        if (err != Error.NO_ERROR) {\n            return uint(err);\n        }\n        if (shortfall > 0) {\n            return uint(Error.INSUFFICIENT_LIQUIDITY);\n        }\n\n        return uint(Error.NO_ERROR);\n    }\n\n    /**\n     * @notice Validates redeem and reverts on rejection. May emit logs.\n     * @param cToken Asset being redeemed\n     * @param redeemer The address redeeming the tokens\n     * @param redeemAmount The amount of the underlying asset being redeemed\n     * @param redeemTokens The number of tokens being redeemed\n     */\n    function redeemVerify(address cToken, address redeemer, uint redeemAmount, uint redeemTokens) external {\n        // Shh - currently unused\n        cToken;\n        redeemer;\n\n        // Require tokens is zero or amount is also zero\n        if (redeemTokens == 0 && redeemAmount > 0) {\n            revert(\"redeemTokens zero\");\n        }\n    }\n\n    /**\n     * @notice Checks if the account should be allowed to borrow the underlying asset of the given market\n     * @param cToken The market to verify the borrow against\n     * @param borrower The account which would borrow the asset\n     * @param borrowAmount The amount of underlying the account would borrow\n     * @return 0 if the borrow is allowed, otherwise a semi-opaque error code (See ErrorReporter.sol)\n     */\n    function borrowAllowed(address cToken, address borrower, uint borrowAmount) external returns (uint) {\n        // Pausing is a very serious situation - we revert to sound the alarms\n        require(!borrowGuardianPaused[cToken], \"borrow is paused\");\n\n        if (!markets[cToken].isListed) {\n            return uint(Error.MARKET_NOT_LISTED);\n        }\n\n        // *may include Policy Hook-type checks\n\n        if (!markets[cToken].accountMembership[borrower]) {\n            // only cTokens may call borrowAllowed if borrower not in market\n            require(msg.sender == cToken, \"sender must be cToken\");\n\n            // attempt to add borrower to the market\n            Error err = addToMarketInternal(CToken(msg.sender), borrower);\n            if (err != Error.NO_ERROR) {\n                return uint(err);\n            }\n\n            // it should be impossible to break the important invariant\n            assert(markets[cToken].accountMembership[borrower]);\n        }\n\n        if (oracle.getUnderlyingPrice(cToken) == 0) {\n            return uint(Error.PRICE_ERROR);\n        }\n\n        (Error err, , uint shortfall) = getHypotheticalAccountLiquidityInternal(borrower, CToken(cToken), 0, borrowAmount);\n        if (err != Error.NO_ERROR) {\n            return uint(err);\n        }\n        if (shortfall > 0) {\n            return uint(Error.INSUFFICIENT_LIQUIDITY);\n        }\n\n        return uint(Error.NO_ERROR);\n    }\n\n    /**\n     * @notice Validates borrow and reverts on rejection. May emit logs.\n     * @param cToken Asset whose underlying is being borrowed\n     * @param borrower The address borrowing the underlying\n     * @param borrowAmount The amount of the underlying asset requested to borrow\n     */\n    function borrowVerify(address cToken, address borrower, uint borrowAmount) external {\n        // Shh - currently unused\n        cToken;\n        borrower;\n        borrowAmount;\n\n        // Shh - we don't ever want this hook to be marked pure\n        if (false) {\n            maxAssets = maxAssets;\n        }\n    }\n\n    /**\n     * @notice Checks if the account should be allowed to repay a borrow in the given market\n     * @param cToken The market to verify the repay against\n     * @param payer The account which would repay the asset\n     * @param borrower The account which would borrowed the asset\n     * @param repayAmount The amount of the underlying asset the account would repay\n     * @return 0 if the repay is allowed, otherwise a semi-opaque error code (See ErrorReporter.sol)\n     */\n    function repayBorrowAllowed(\n        address cToken,\n        address payer,\n        address borrower,\n        uint repayAmount) external returns (uint) {\n        // Shh - currently unused\n        payer;\n        borrower;\n        repayAmount;\n\n        if (!markets[cToken].isListed) {\n            return uint(Error.MARKET_NOT_LISTED);\n        }\n\n        // *may include Policy Hook-type checks\n\n        return uint(Error.NO_ERROR);\n    }\n\n    /**\n     * @notice Validates repayBorrow and reverts on rejection. May emit logs.\n     * @param cToken Asset being repaid\n     * @param payer The address repaying the borrow\n     * @param borrower The address of the borrower\n     * @param actualRepayAmount The amount of underlying being repaid\n     */\n    function repayBorrowVerify(\n        address cToken,\n        address payer,\n        address borrower,\n        uint actualRepayAmount,\n        uint borrowerIndex) external {\n        // Shh - currently unused\n        cToken;\n        payer;\n        borrower;\n        actualRepayAmount;\n        borrowerIndex;\n\n        // Shh - we don't ever want this hook to be marked pure\n        if (false) {\n            maxAssets = maxAssets;\n        }\n    }\n\n    /**\n     * @notice Checks if the liquidation should be allowed to occur\n     * @param cTokenBorrowed Asset which was borrowed by the borrower\n     * @param cTokenCollateral Asset which was used as collateral and will be seized\n     * @param liquidator The address repaying the borrow and seizing the collateral\n     * @param borrower The address of the borrower\n     * @param repayAmount The amount of underlying being repaid\n     */\n    function liquidateBorrowAllowed(\n        address cTokenBorrowed,\n        address cTokenCollateral,\n        address liquidator,\n        address borrower,\n        uint repayAmount) external returns (uint) {\n        // Shh - currently unused\n        liquidator;\n\n        if (!markets[cTokenBorrowed].isListed || !markets[cTokenCollateral].isListed) {\n            return uint(Error.MARKET_NOT_LISTED);\n        }\n\n        // *may include Policy Hook-type checks\n\n        /* The borrower must have shortfall in order to be liquidatable */\n        (Error err, , uint shortfall) = getAccountLiquidityInternal(borrower);\n        if (err != Error.NO_ERROR) {\n            return uint(err);\n        }\n        if (shortfall == 0) {\n            return uint(Error.INSUFFICIENT_SHORTFALL);\n        }\n\n        /* The liquidator may not repay more than what is allowed by the closeFactor */\n        uint borrowBalance = CToken(cTokenBorrowed).borrowBalanceStored(borrower);\n        (MathError mathErr, uint maxClose) = mulScalarTruncate(Exp({mantissa: closeFactorMantissa}), borrowBalance);\n        if (mathErr != MathError.NO_ERROR) {\n            return uint(Error.MATH_ERROR);\n        }\n        if (repayAmount > maxClose) {\n            return uint(Error.TOO_MUCH_REPAY);\n        }\n\n        return uint(Error.NO_ERROR);\n    }\n\n    /**\n     * @notice Validates liquidateBorrow and reverts on rejection. May emit logs.\n     * @param cTokenBorrowed Asset which was borrowed by the borrower\n     * @param cTokenCollateral Asset which was used as collateral and will be seized\n     * @param liquidator The address repaying the borrow and seizing the collateral\n     * @param borrower The address of the borrower\n     * @param actualRepayAmount The amount of underlying being repaid\n     */\n    function liquidateBorrowVerify(\n        address cTokenBorrowed,\n        address cTokenCollateral,\n        address liquidator,\n        address borrower,\n        uint actualRepayAmount,\n        uint seizeTokens) external {\n        // Shh - currently unused\n        cTokenBorrowed;\n        cTokenCollateral;\n        liquidator;\n        borrower;\n        actualRepayAmount;\n        seizeTokens;\n\n        // Shh - we don't ever want this hook to be marked pure\n        if (false) {\n            maxAssets = maxAssets;\n        }\n    }\n\n    /**\n     * @notice Checks if the seizing of assets should be allowed to occur\n     * @param cTokenCollateral Asset which was used as collateral and will be seized\n     * @param cTokenBorrowed Asset which was borrowed by the borrower\n     * @param liquidator The address repaying the borrow and seizing the collateral\n     * @param borrower The address of the borrower\n     * @param seizeTokens The number of collateral tokens to seize\n     */\n    function seizeAllowed(\n        address cTokenCollateral,\n        address cTokenBorrowed,\n        address liquidator,\n        address borrower,\n        uint seizeTokens) external returns (uint) {\n        // Pausing is a very serious situation - we revert to sound the alarms\n        require(!seizeGuardianPaused, \"seize is paused\");\n\n        // Shh - currently unused\n        liquidator;\n        borrower;\n        seizeTokens;\n\n        if (!markets[cTokenCollateral].isListed || !markets[cTokenBorrowed].isListed) {\n            return uint(Error.MARKET_NOT_LISTED);\n        }\n\n        if (CToken(cTokenCollateral).comptroller() != CToken(cTokenBorrowed).comptroller()) {\n            return uint(Error.COMPTROLLER_MISMATCH);\n        }\n\n        // *may include Policy Hook-type checks\n\n        return uint(Error.NO_ERROR);\n    }\n\n    /**\n     * @notice Validates seize and reverts on rejection. May emit logs.\n     * @param cTokenCollateral Asset which was used as collateral and will be seized\n     * @param cTokenBorrowed Asset which was borrowed by the borrower\n     * @param liquidator The address repaying the borrow and seizing the collateral\n     * @param borrower The address of the borrower\n     * @param seizeTokens The number of collateral tokens to seize\n     */\n    function seizeVerify(\n        address cTokenCollateral,\n        address cTokenBorrowed,\n        address liquidator,\n        address borrower,\n        uint seizeTokens) external {\n        // Shh - currently unused\n        cTokenCollateral;\n        cTokenBorrowed;\n        liquidator;\n        borrower;\n        seizeTokens;\n\n        // Shh - we don't ever want this hook to be marked pure\n        if (false) {\n            maxAssets = maxAssets;\n        }\n    }\n\n    /**\n     * @notice Checks if the account should be allowed to transfer tokens in the given market\n     * @param cToken The market to verify the transfer against\n     * @param src The account which sources the tokens\n     * @param dst The account which receives the tokens\n     * @param transferTokens The number of cTokens to transfer\n     * @return 0 if the transfer is allowed, otherwise a semi-opaque error code (See ErrorReporter.sol)\n     */\n    function transferAllowed(address cToken, address src, address dst, uint transferTokens) external returns (uint) {\n        // Pausing is a very serious situation - we revert to sound the alarms\n        require(!transferGuardianPaused, \"transfer is paused\");\n\n        // Shh - currently unused\n        dst;\n\n        // *may include Policy Hook-type checks\n\n        // Currently the only consideration is whether or not\n        //  the src is allowed to redeem this many tokens\n        return redeemAllowedInternal(cToken, src, transferTokens);\n    }\n\n    /**\n     * @notice Validates transfer and reverts on rejection. May emit logs.\n     * @param cToken Asset being transferred\n     * @param src The account which sources the tokens\n     * @param dst The account which receives the tokens\n     * @param transferTokens The number of cTokens to transfer\n     */\n    function transferVerify(address cToken, address src, address dst, uint transferTokens) external {\n        // Shh - currently unused\n        cToken;\n        src;\n        dst;\n        transferTokens;\n\n        // Shh - we don't ever want this hook to be marked pure\n        if (false) {\n            maxAssets = maxAssets;\n        }\n    }\n\n    /*** Liquidity/Liquidation Calculations ***/\n\n    /**\n     * @dev Local vars for avoiding stack-depth limits in calculating account liquidity.\n     *  Note that `cTokenBalance` is the number of cTokens the account owns in the market,\n     *  whereas `borrowBalance` is the amount of underlying that the account has borrowed.\n     */\n    struct AccountLiquidityLocalVars {\n        uint sumCollateral;\n        uint sumBorrowPlusEffects;\n        uint cTokenBalance;\n        uint borrowBalance;\n        uint exchangeRateMantissa;\n        uint oraclePriceMantissa;\n        Exp collateralFactor;\n        Exp exchangeRate;\n        Exp oraclePrice;\n        Exp tokensToEther;\n    }\n\n    /**\n     * @notice Determine the current account liquidity wrt collateral requirements\n     * @return (possible error code (semi-opaque),\n                account liquidity in excess of collateral requirements,\n     *          account shortfall below collateral requirements)\n     */\n    function getAccountLiquidity(address account) public view returns (uint, uint, uint) {\n        (Error err, uint liquidity, uint shortfall) = getHypotheticalAccountLiquidityInternal(account, CToken(0), 0, 0);\n\n        return (uint(err), liquidity, shortfall);\n    }\n\n    /**\n     * @notice Determine the current account liquidity wrt collateral requirements\n     * @return (possible error code,\n                account liquidity in excess of collateral requirements,\n     *          account shortfall below collateral requirements)\n     */\n    function getAccountLiquidityInternal(address account) internal view returns (Error, uint, uint) {\n        return getHypotheticalAccountLiquidityInternal(account, CToken(0), 0, 0);\n    }\n\n    /**\n     * @notice Determine what the account liquidity would be if the given amounts were redeemed/borrowed\n     * @param cTokenModify The market to hypothetically redeem/borrow in\n     * @param account The account to determine liquidity for\n     * @param redeemTokens The number of tokens to hypothetically redeem\n     * @param borrowAmount The amount of underlying to hypothetically borrow\n     * @return (possible error code (semi-opaque),\n                hypothetical account liquidity in excess of collateral requirements,\n     *          hypothetical account shortfall below collateral requirements)\n     */\n    function getHypotheticalAccountLiquidity(\n        address account,\n        address cTokenModify,\n        uint redeemTokens,\n        uint borrowAmount) public view returns (uint, uint, uint) {\n        (Error err, uint liquidity, uint shortfall) = getHypotheticalAccountLiquidityInternal(account, CToken(cTokenModify), redeemTokens, borrowAmount);\n        return (uint(err), liquidity, shortfall);\n    }\n\n    /**\n     * @notice Determine what the account liquidity would be if the given amounts were redeemed/borrowed\n     * @param cTokenModify The market to hypothetically redeem/borrow in\n     * @param account The account to determine liquidity for\n     * @param redeemTokens The number of tokens to hypothetically redeem\n     * @param borrowAmount The amount of underlying to hypothetically borrow\n     * @dev Note that we calculate the exchangeRateStored for each collateral cToken using stored data,\n     *  without calculating accumulated interest.\n     * @return (possible error code,\n                hypothetical account liquidity in excess of collateral requirements,\n     *          hypothetical account shortfall below collateral requirements)\n     */\n    function getHypotheticalAccountLiquidityInternal(\n        address account,\n        CToken cTokenModify,\n        uint redeemTokens,\n        uint borrowAmount) internal view returns (Error, uint, uint) {\n\n        AccountLiquidityLocalVars memory vars; // Holds all our calculation results\n        uint oErr;\n        MathError mErr;\n\n        // For each asset the account is in\n        CToken[] memory assets = accountAssets[account];\n        for (uint i = 0; i < assets.length; i++) {\n            CToken asset = assets[i];\n\n            // Read the balances and exchange rate from the cToken\n            (oErr, vars.cTokenBalance, vars.borrowBalance, vars.exchangeRateMantissa) = asset.getAccountSnapshot(account);\n            if (oErr != 0) { // semi-opaque error code, we assume NO_ERROR == 0 is invariant between upgrades\n                return (Error.SNAPSHOT_ERROR, 0, 0);\n            }\n            vars.collateralFactor = Exp({mantissa: markets[address(asset)].collateralFactorMantissa});\n            vars.exchangeRate = Exp({mantissa: vars.exchangeRateMantissa});\n\n            // Get the normalized price of the asset\n            vars.oraclePriceMantissa = oracle.getUnderlyingPrice(address(asset));\n            if (vars.oraclePriceMantissa == 0) {\n                return (Error.PRICE_ERROR, 0, 0);\n            }\n            vars.oraclePrice = Exp({mantissa: vars.oraclePriceMantissa});\n\n            // Pre-compute a conversion factor from tokens -> ether (normalized price value)\n            (mErr, vars.tokensToEther) = mulExp3(vars.collateralFactor, vars.exchangeRate, vars.oraclePrice);\n            if (mErr != MathError.NO_ERROR) {\n                return (Error.MATH_ERROR, 0, 0);\n            }\n\n            // sumCollateral += tokensToEther * cTokenBalance\n            (mErr, vars.sumCollateral) = mulScalarTruncateAddUInt(vars.tokensToEther, vars.cTokenBalance, vars.sumCollateral);\n            if (mErr != MathError.NO_ERROR) {\n                return (Error.MATH_ERROR, 0, 0);\n            }\n\n            // sumBorrowPlusEffects += oraclePrice * borrowBalance\n            (mErr, vars.sumBorrowPlusEffects) = mulScalarTruncateAddUInt(vars.oraclePrice, vars.borrowBalance, vars.sumBorrowPlusEffects);\n            if (mErr != MathError.NO_ERROR) {\n                return (Error.MATH_ERROR, 0, 0);\n            }\n\n            // Calculate effects of interacting with cTokenModify\n            if (asset == cTokenModify) {\n                // redeem effect\n                // sumBorrowPlusEffects += tokensToEther * redeemTokens\n                (mErr, vars.sumBorrowPlusEffects) = mulScalarTruncateAddUInt(vars.tokensToEther, redeemTokens, vars.sumBorrowPlusEffects);\n                if (mErr != MathError.NO_ERROR) {\n                    return (Error.MATH_ERROR, 0, 0);\n                }\n\n                // borrow effect\n                // sumBorrowPlusEffects += oraclePrice * borrowAmount\n                (mErr, vars.sumBorrowPlusEffects) = mulScalarTruncateAddUInt(vars.oraclePrice, borrowAmount, vars.sumBorrowPlusEffects);\n                if (mErr != MathError.NO_ERROR) {\n                    return (Error.MATH_ERROR, 0, 0);\n                }\n            }\n        }\n\n        // These are safe, as the underflow condition is checked first\n        if (vars.sumCollateral > vars.sumBorrowPlusEffects) {\n            return (Error.NO_ERROR, vars.sumCollateral - vars.sumBorrowPlusEffects, 0);\n        } else {\n            return (Error.NO_ERROR, 0, vars.sumBorrowPlusEffects - vars.sumCollateral);\n        }\n    }\n\n    /**\n     * @notice Calculate number of tokens of collateral asset to seize given an underlying amount\n     * @dev Used in liquidation (called in cToken.liquidateBorrowFresh)\n     * @param cTokenBorrowed The address of the borrowed cToken\n     * @param cTokenCollateral The address of the collateral cToken\n     * @param actualRepayAmount The amount of cTokenBorrowed underlying to convert into cTokenCollateral tokens\n     * @return (errorCode, number of cTokenCollateral tokens to be seized in a liquidation)\n     */\n    function liquidateCalculateSeizeTokens(address cTokenBorrowed, address cTokenCollateral, uint actualRepayAmount) external view returns (uint, uint) {\n        /* Read oracle prices for borrowed and collateral markets */\n        uint priceBorrowedMantissa = oracle.getUnderlyingPrice(cTokenBorrowed);\n        uint priceCollateralMantissa = oracle.getUnderlyingPrice(cTokenCollateral);\n        if (priceBorrowedMantissa == 0 || priceCollateralMantissa == 0) {\n            return (uint(Error.PRICE_ERROR), 0);\n        }\n\n        /*\n         * Get the exchange rate and calculate the number of collateral tokens to seize:\n         *  seizeAmount = actualRepayAmount * liquidationIncentive * priceBorrowed / priceCollateral\n         *  seizeTokens = seizeAmount / exchangeRate\n         *   = actualRepayAmount * (liquidationIncentive * priceBorrowed) / (priceCollateral * exchangeRate)\n         */\n        uint exchangeRateMantissa = CToken(cTokenCollateral).exchangeRateStored(); // Note: reverts on error\n        uint seizeTokens;\n        Exp memory numerator;\n        Exp memory denominator;\n        Exp memory ratio;\n        MathError mathErr;\n\n        (mathErr, numerator) = mulExp(liquidationIncentiveMantissa, priceBorrowedMantissa);\n        if (mathErr != MathError.NO_ERROR) {\n            return (uint(Error.MATH_ERROR), 0);\n        }\n\n        (mathErr, denominator) = mulExp(priceCollateralMantissa, exchangeRateMantissa);\n        if (mathErr != MathError.NO_ERROR) {\n            return (uint(Error.MATH_ERROR), 0);\n        }\n\n        (mathErr, ratio) = divExp(numerator, denominator);\n        if (mathErr != MathError.NO_ERROR) {\n            return (uint(Error.MATH_ERROR), 0);\n        }\n\n        (mathErr, seizeTokens) = mulScalarTruncate(ratio, actualRepayAmount);\n        if (mathErr != MathError.NO_ERROR) {\n            return (uint(Error.MATH_ERROR), 0);\n        }\n\n        return (uint(Error.NO_ERROR), seizeTokens);\n    }\n\n    /*** Admin Functions ***/\n\n    /**\n      * @notice Sets a new price oracle for the comptroller\n      * @dev Admin function to set a new price oracle\n      * @return uint 0=success, otherwise a failure (see ErrorReporter.sol for details)\n      */\n    function _setPriceOracle(UniswapOracleFactoryI newOracle) public returns (uint) {\n        // Check caller is admin\n        if (msg.sender != admin) {\n            return fail(Error.UNAUTHORIZED, FailureInfo.SET_PRICE_ORACLE_OWNER_CHECK);\n        }\n\n        // Track the old oracle for the comptroller\n        UniswapOracleFactoryI oldOracle = oracle;\n\n        // Set comptroller's oracle to newOracle\n        oracle = newOracle;\n\n        // Emit NewPriceOracle(oldOracle, newOracle)\n        emit NewPriceOracle(oldOracle, newOracle);\n\n        return uint(Error.NO_ERROR);\n    }\n\n    /**\n      * @notice Sets the closeFactor used when liquidating borrows\n      * @dev Admin function to set closeFactor\n      * @param newCloseFactorMantissa New close factor, scaled by 1e18\n      * @return uint 0=success, otherwise a failure. (See ErrorReporter for details)\n      */\n    function _setCloseFactor(uint newCloseFactorMantissa) external returns (uint256) {\n        // Check caller is admin\n        if (msg.sender != admin) {\n            return fail(Error.UNAUTHORIZED, FailureInfo.SET_CLOSE_FACTOR_OWNER_CHECK);\n        }\n\n        Exp memory newCloseFactorExp = Exp({mantissa: newCloseFactorMantissa});\n        Exp memory lowLimit = Exp({mantissa: closeFactorMinMantissa});\n        if (lessThanOrEqualExp(newCloseFactorExp, lowLimit)) {\n            return fail(Error.INVALID_CLOSE_FACTOR, FailureInfo.SET_CLOSE_FACTOR_VALIDATION);\n        }\n\n        Exp memory highLimit = Exp({mantissa: closeFactorMaxMantissa});\n        if (lessThanExp(highLimit, newCloseFactorExp)) {\n            return fail(Error.INVALID_CLOSE_FACTOR, FailureInfo.SET_CLOSE_FACTOR_VALIDATION);\n        }\n\n        uint oldCloseFactorMantissa = closeFactorMantissa;\n        closeFactorMantissa = newCloseFactorMantissa;\n        emit NewCloseFactor(oldCloseFactorMantissa, closeFactorMantissa);\n\n        return uint(Error.NO_ERROR);\n    }\n\n    /**\n      * @notice Sets the collateralFactor for a market\n      * @dev Admin function to set per-market collateralFactor\n      * @param cToken The market to set the factor on\n      * @param newCollateralFactorMantissa The new collateral factor, scaled by 1e18\n      * @return uint 0=success, otherwise a failure. (See ErrorReporter for details)\n      */\n    function _setCollateralFactor(CToken cToken, uint newCollateralFactorMantissa) external returns (uint256) {\n        // Check caller is admin\n        if (msg.sender != admin) {\n            return fail(Error.UNAUTHORIZED, FailureInfo.SET_COLLATERAL_FACTOR_OWNER_CHECK);\n        }\n\n        // Verify market is listed\n        Market storage market = markets[address(cToken)];\n        if (!market.isListed) {\n            return fail(Error.MARKET_NOT_LISTED, FailureInfo.SET_COLLATERAL_FACTOR_NO_EXISTS);\n        }\n\n        Exp memory newCollateralFactorExp = Exp({mantissa: newCollateralFactorMantissa});\n\n        // Check collateral factor <= 0.9\n        Exp memory highLimit = Exp({mantissa: collateralFactorMaxMantissa});\n        if (lessThanExp(highLimit, newCollateralFactorExp)) {\n            return fail(Error.INVALID_COLLATERAL_FACTOR, FailureInfo.SET_COLLATERAL_FACTOR_VALIDATION);\n        }\n\n        // If collateral factor != 0, fail if price == 0\n        if (newCollateralFactorMantissa != 0 && oracle.getUnderlyingPrice(address(cToken)) == 0) {\n            return fail(Error.PRICE_ERROR, FailureInfo.SET_COLLATERAL_FACTOR_WITHOUT_PRICE);\n        }\n\n        // Set market's collateral factor to new collateral factor, remember old value\n        uint oldCollateralFactorMantissa = market.collateralFactorMantissa;\n        market.collateralFactorMantissa = newCollateralFactorMantissa;\n\n        // Emit event with asset, old collateral factor, and new collateral factor\n        emit NewCollateralFactor(cToken, oldCollateralFactorMantissa, newCollateralFactorMantissa);\n\n        return uint(Error.NO_ERROR);\n    }\n\n    /**\n      * @notice Sets maxAssets which controls how many markets can be entered\n      * @dev Admin function to set maxAssets\n      * @param newMaxAssets New max assets\n      * @return uint 0=success, otherwise a failure. (See ErrorReporter for details)\n      */\n    function _setMaxAssets(uint newMaxAssets) external returns (uint) {\n        // Check caller is admin\n        if (msg.sender != admin) {\n            return fail(Error.UNAUTHORIZED, FailureInfo.SET_MAX_ASSETS_OWNER_CHECK);\n        }\n\n        uint oldMaxAssets = maxAssets;\n        maxAssets = newMaxAssets;\n        emit NewMaxAssets(oldMaxAssets, newMaxAssets);\n\n        return uint(Error.NO_ERROR);\n    }\n\n    /**\n      * @notice Sets liquidationIncentive\n      * @dev Admin function to set liquidationIncentive\n      * @param newLiquidationIncentiveMantissa New liquidationIncentive scaled by 1e18\n      * @return uint 0=success, otherwise a failure. (See ErrorReporter for details)\n      */\n    function _setLiquidationIncentive(uint newLiquidationIncentiveMantissa) external returns (uint) {\n        // Check caller is admin\n        if (msg.sender != admin) {\n            return fail(Error.UNAUTHORIZED, FailureInfo.SET_LIQUIDATION_INCENTIVE_OWNER_CHECK);\n        }\n\n        // Check de-scaled min <= newLiquidationIncentive <= max\n        Exp memory newLiquidationIncentive = Exp({mantissa: newLiquidationIncentiveMantissa});\n        Exp memory minLiquidationIncentive = Exp({mantissa: liquidationIncentiveMinMantissa});\n        if (lessThanExp(newLiquidationIncentive, minLiquidationIncentive)) {\n            return fail(Error.INVALID_LIQUIDATION_INCENTIVE, FailureInfo.SET_LIQUIDATION_INCENTIVE_VALIDATION);\n        }\n\n        Exp memory maxLiquidationIncentive = Exp({mantissa: liquidationIncentiveMaxMantissa});\n        if (lessThanExp(maxLiquidationIncentive, newLiquidationIncentive)) {\n            return fail(Error.INVALID_LIQUIDATION_INCENTIVE, FailureInfo.SET_LIQUIDATION_INCENTIVE_VALIDATION);\n        }\n\n        // Save current value for use in log\n        uint oldLiquidationIncentiveMantissa = liquidationIncentiveMantissa;\n\n        // Set liquidation incentive to new incentive\n        liquidationIncentiveMantissa = newLiquidationIncentiveMantissa;\n\n        // Emit event with old incentive, new incentive\n        emit NewLiquidationIncentive(oldLiquidationIncentiveMantissa, newLiquidationIncentiveMantissa);\n\n        return uint(Error.NO_ERROR);\n    }\n\n    /**\n      * @notice Add the market to the markets mapping and set it as listed\n      * @dev Admin function to set isListed and add support for the market\n      * @param cToken The address of the market (token) to list\n      * @return uint 0=success, otherwise a failure. (See enum Error for details)\n      */\n    function _supportMarket(CToken cToken) external returns (uint) {\n        if (msg.sender != admin) {\n            return fail(Error.UNAUTHORIZED, FailureInfo.SUPPORT_MARKET_OWNER_CHECK);\n        }\n\n        if (markets[address(cToken)].isListed) {\n            return fail(Error.MARKET_ALREADY_LISTED, FailureInfo.SUPPORT_MARKET_EXISTS);\n        }\n\n        cToken.isCToken(); // Sanity check to make sure its really a CToken\n\n        markets[address(cToken)] = Market({isListed: true, isComped: false, collateralFactorMantissa: 0});\n        emit MarketListed(cToken);\n\n        return uint(Error.NO_ERROR);\n    }\n\n    /**\n     * @notice Admin function to change the Pause Guardian\n     * @param newPauseGuardian The address of the new Pause Guardian\n     * @return uint 0=success, otherwise a failure. (See enum Error for details)\n     */\n    function _setPauseGuardian(address newPauseGuardian) public returns (uint) {\n        if (msg.sender != admin) {\n            return fail(Error.UNAUTHORIZED, FailureInfo.SET_PAUSE_GUARDIAN_OWNER_CHECK);\n        }\n\n        // Save current value for inclusion in log\n        address oldPauseGuardian = pauseGuardian;\n\n        // Store pauseGuardian with value newPauseGuardian\n        pauseGuardian = newPauseGuardian;\n\n        // Emit NewPauseGuardian(OldPauseGuardian, NewPauseGuardian)\n        emit NewPauseGuardian(oldPauseGuardian, pauseGuardian);\n\n        return uint(Error.NO_ERROR);\n    }\n\n    function _setMintPaused(CToken cToken, bool state) public returns (bool) {\n        require(markets[address(cToken)].isListed, \"cannot pause a market that is not listed\");\n        require(msg.sender == pauseGuardian || msg.sender == admin, \"only pause guardian and admin can pause\");\n        require(msg.sender == admin || state == true, \"only admin can unpause\");\n\n        mintGuardianPaused[address(cToken)] = state;\n        emit ActionPaused(cToken, \"Mint\", state);\n        return state;\n    }\n\n    function _setBorrowPaused(CToken cToken, bool state) public returns (bool) {\n        require(markets[address(cToken)].isListed, \"cannot pause a market that is not listed\");\n        require(msg.sender == pauseGuardian || msg.sender == admin, \"only pause guardian and admin can pause\");\n        require(msg.sender == admin || state == true, \"only admin can unpause\");\n\n        borrowGuardianPaused[address(cToken)] = state;\n        emit ActionPaused(cToken, \"Borrow\", state);\n        return state;\n    }\n\n    function _setTransferPaused(bool state) public returns (bool) {\n        require(msg.sender == pauseGuardian || msg.sender == admin, \"only pause guardian and admin can pause\");\n        require(msg.sender == admin || state == true, \"only admin can unpause\");\n\n        transferGuardianPaused = state;\n        emit ActionPaused(\"Transfer\", state);\n        return state;\n    }\n\n    function _setSeizePaused(bool state) public returns (bool) {\n        require(msg.sender == pauseGuardian || msg.sender == admin, \"only pause guardian and admin can pause\");\n        require(msg.sender == admin || state == true, \"only admin can unpause\");\n\n        seizeGuardianPaused = state;\n        emit ActionPaused(\"Seize\", state);\n        return state;\n    }\n\n    function _become(Unitroller unitroller) public {\n        require(msg.sender == unitroller.admin(), \"only unitroller admin can change brains\");\n\n        uint changeStatus = unitroller._acceptImplementation();\n        require(changeStatus == 0, \"change not authorized\");\n    }\n}\n",
  "sourcePath": "/home/stan36/repos/Askolend/AskoLend-contracts/contracts/compound/ComptrollerG2.sol",
  "compiler": {
    "name": "solc",
    "version": "0.5.16+commit.9c3226ce.Emscripten.clang"
  },
  "schemaVersion": "3.2.5",
  "updatedAt": "2020-09-30T00:17:28.917Z",
  "devdoc": {
    "author": "Compound",
    "methods": {
      "_setCloseFactor(uint256)": {
        "details": "Admin function to set closeFactor",
        "params": {
          "newCloseFactorMantissa": "New close factor, scaled by 1e18"
        },
        "return": "uint 0=success, otherwise a failure. (See ErrorReporter for details)"
      },
      "_setCollateralFactor(address,uint256)": {
        "details": "Admin function to set per-market collateralFactor",
        "params": {
          "cToken": "The market to set the factor on",
          "newCollateralFactorMantissa": "The new collateral factor, scaled by 1e18"
        },
        "return": "uint 0=success, otherwise a failure. (See ErrorReporter for details)"
      },
      "_setLiquidationIncentive(uint256)": {
        "details": "Admin function to set liquidationIncentive",
        "params": {
          "newLiquidationIncentiveMantissa": "New liquidationIncentive scaled by 1e18"
        },
        "return": "uint 0=success, otherwise a failure. (See ErrorReporter for details)"
      },
      "_setMaxAssets(uint256)": {
        "details": "Admin function to set maxAssets",
        "params": {
          "newMaxAssets": "New max assets"
        },
        "return": "uint 0=success, otherwise a failure. (See ErrorReporter for details)"
      },
      "_setPauseGuardian(address)": {
        "params": {
          "newPauseGuardian": "The address of the new Pause Guardian"
        },
        "return": "uint 0=success, otherwise a failure. (See enum Error for details)"
      },
      "_setPriceOracle(address)": {
        "details": "Admin function to set a new price oracle",
        "return": "uint 0=success, otherwise a failure (see ErrorReporter.sol for details)"
      },
      "_supportMarket(address)": {
        "details": "Admin function to set isListed and add support for the market",
        "params": {
          "cToken": "The address of the market (token) to list"
        },
        "return": "uint 0=success, otherwise a failure. (See enum Error for details)"
      },
      "borrowAllowed(address,address,uint256)": {
        "params": {
          "borrowAmount": "The amount of underlying the account would borrow",
          "borrower": "The account which would borrow the asset",
          "cToken": "The market to verify the borrow against"
        },
        "return": "0 if the borrow is allowed, otherwise a semi-opaque error code (See ErrorReporter.sol)"
      },
      "borrowVerify(address,address,uint256)": {
        "params": {
          "borrowAmount": "The amount of the underlying asset requested to borrow",
          "borrower": "The address borrowing the underlying",
          "cToken": "Asset whose underlying is being borrowed"
        }
      },
      "checkMembership(address,address)": {
        "params": {
          "account": "The address of the account to check",
          "cToken": "The cToken to check"
        },
        "return": "True if the account is in the asset, otherwise false."
      },
      "enterMarkets(address[])": {
        "params": {
          "cTokens": "The list of addresses of the cToken markets to be enabled"
        },
        "return": "Success indicator for whether each corresponding market was entered"
      },
      "exitMarket(address)": {
        "details": "Sender must not have an outstanding borrow balance in the asset, or be providing neccessary collateral for an outstanding borrow.",
        "params": {
          "cTokenAddress": "The address of the asset to be removed"
        },
        "return": "Whether or not the account successfully exited the market"
      },
      "getAccountLiquidity(address)": {
        "return": "(possible error code (semi-opaque), account liquidity in excess of collateral requirements,         account shortfall below collateral requirements)"
      },
      "getAssetsIn(address)": {
        "params": {
          "account": "The address of the account to pull assets for"
        },
        "return": "A dynamic list with the assets the account has entered"
      },
      "getHypotheticalAccountLiquidity(address,address,uint256,uint256)": {
        "params": {
          "account": "The account to determine liquidity for",
          "borrowAmount": "The amount of underlying to hypothetically borrow",
          "cTokenModify": "The market to hypothetically redeem/borrow in",
          "redeemTokens": "The number of tokens to hypothetically redeem"
        },
        "return": "(possible error code (semi-opaque), hypothetical account liquidity in excess of collateral requirements,         hypothetical account shortfall below collateral requirements)"
      },
      "liquidateBorrowAllowed(address,address,address,address,uint256)": {
        "params": {
          "borrower": "The address of the borrower",
          "cTokenBorrowed": "Asset which was borrowed by the borrower",
          "cTokenCollateral": "Asset which was used as collateral and will be seized",
          "liquidator": "The address repaying the borrow and seizing the collateral",
          "repayAmount": "The amount of underlying being repaid"
        }
      },
      "liquidateBorrowVerify(address,address,address,address,uint256,uint256)": {
        "params": {
          "actualRepayAmount": "The amount of underlying being repaid",
          "borrower": "The address of the borrower",
          "cTokenBorrowed": "Asset which was borrowed by the borrower",
          "cTokenCollateral": "Asset which was used as collateral and will be seized",
          "liquidator": "The address repaying the borrow and seizing the collateral"
        }
      },
      "liquidateCalculateSeizeTokens(address,address,uint256)": {
        "details": "Used in liquidation (called in cToken.liquidateBorrowFresh)",
        "params": {
          "actualRepayAmount": "The amount of cTokenBorrowed underlying to convert into cTokenCollateral tokens",
          "cTokenBorrowed": "The address of the borrowed cToken",
          "cTokenCollateral": "The address of the collateral cToken"
        },
        "return": "(errorCode, number of cTokenCollateral tokens to be seized in a liquidation)"
      },
      "mintAllowed(address,address,uint256)": {
        "params": {
          "cToken": "The market to verify the mint against",
          "mintAmount": "The amount of underlying being supplied to the market in exchange for tokens",
          "minter": "The account which would get the minted tokens"
        },
        "return": "0 if the mint is allowed, otherwise a semi-opaque error code (See ErrorReporter.sol)"
      },
      "mintVerify(address,address,uint256,uint256)": {
        "params": {
          "actualMintAmount": "The amount of the underlying asset being minted",
          "cToken": "Asset being minted",
          "mintTokens": "The number of tokens being minted",
          "minter": "The address minting the tokens"
        }
      },
      "redeemAllowed(address,address,uint256)": {
        "params": {
          "cToken": "The market to verify the redeem against",
          "redeemTokens": "The number of cTokens to exchange for the underlying asset in the market",
          "redeemer": "The account which would redeem the tokens"
        },
        "return": "0 if the redeem is allowed, otherwise a semi-opaque error code (See ErrorReporter.sol)"
      },
      "redeemVerify(address,address,uint256,uint256)": {
        "params": {
          "cToken": "Asset being redeemed",
          "redeemAmount": "The amount of the underlying asset being redeemed",
          "redeemTokens": "The number of tokens being redeemed",
          "redeemer": "The address redeeming the tokens"
        }
      },
      "repayBorrowAllowed(address,address,address,uint256)": {
        "params": {
          "borrower": "The account which would borrowed the asset",
          "cToken": "The market to verify the repay against",
          "payer": "The account which would repay the asset",
          "repayAmount": "The amount of the underlying asset the account would repay"
        },
        "return": "0 if the repay is allowed, otherwise a semi-opaque error code (See ErrorReporter.sol)"
      },
      "repayBorrowVerify(address,address,address,uint256,uint256)": {
        "params": {
          "actualRepayAmount": "The amount of underlying being repaid",
          "borrower": "The address of the borrower",
          "cToken": "Asset being repaid",
          "payer": "The address repaying the borrow"
        }
      },
      "seizeAllowed(address,address,address,address,uint256)": {
        "params": {
          "borrower": "The address of the borrower",
          "cTokenBorrowed": "Asset which was borrowed by the borrower",
          "cTokenCollateral": "Asset which was used as collateral and will be seized",
          "liquidator": "The address repaying the borrow and seizing the collateral",
          "seizeTokens": "The number of collateral tokens to seize"
        }
      },
      "seizeVerify(address,address,address,address,uint256)": {
        "params": {
          "borrower": "The address of the borrower",
          "cTokenBorrowed": "Asset which was borrowed by the borrower",
          "cTokenCollateral": "Asset which was used as collateral and will be seized",
          "liquidator": "The address repaying the borrow and seizing the collateral",
          "seizeTokens": "The number of collateral tokens to seize"
        }
      },
      "transferAllowed(address,address,address,uint256)": {
        "params": {
          "cToken": "The market to verify the transfer against",
          "dst": "The account which receives the tokens",
          "src": "The account which sources the tokens",
          "transferTokens": "The number of cTokens to transfer"
        },
        "return": "0 if the transfer is allowed, otherwise a semi-opaque error code (See ErrorReporter.sol)"
      },
      "transferVerify(address,address,address,uint256)": {
        "params": {
          "cToken": "Asset being transferred",
          "dst": "The account which receives the tokens",
          "src": "The account which sources the tokens",
          "transferTokens": "The number of cTokens to transfer"
        }
      }
    },
    "title": "Compound's Comptroller Contract"
  },
  "userdoc": {
    "methods": {
      "_setCloseFactor(uint256)": {
        "notice": "Sets the closeFactor used when liquidating borrows"
      },
      "_setCollateralFactor(address,uint256)": {
        "notice": "Sets the collateralFactor for a market"
      },
      "_setLiquidationIncentive(uint256)": {
        "notice": "Sets liquidationIncentive"
      },
      "_setMaxAssets(uint256)": {
        "notice": "Sets maxAssets which controls how many markets can be entered"
      },
      "_setPauseGuardian(address)": {
        "notice": "Admin function to change the Pause Guardian"
      },
      "_setPriceOracle(address)": {
        "notice": "Sets a new price oracle for the comptroller"
      },
      "_supportMarket(address)": {
        "notice": "Add the market to the markets mapping and set it as listed"
      },
      "borrowAllowed(address,address,uint256)": {
        "notice": "Checks if the account should be allowed to borrow the underlying asset of the given market"
      },
      "borrowVerify(address,address,uint256)": {
        "notice": "Validates borrow and reverts on rejection. May emit logs."
      },
      "checkMembership(address,address)": {
        "notice": "Returns whether the given account is entered in the given asset"
      },
      "enterMarkets(address[])": {
        "notice": "Add assets to be included in account liquidity calculation"
      },
      "exitMarket(address)": {
        "notice": "Removes asset from sender's account liquidity calculation"
      },
      "getAccountLiquidity(address)": {
        "notice": "Determine the current account liquidity wrt collateral requirements"
      },
      "getAssetsIn(address)": {
        "notice": "Returns the assets an account has entered"
      },
      "getHypotheticalAccountLiquidity(address,address,uint256,uint256)": {
        "notice": "Determine what the account liquidity would be if the given amounts were redeemed/borrowed"
      },
      "liquidateBorrowAllowed(address,address,address,address,uint256)": {
        "notice": "Checks if the liquidation should be allowed to occur"
      },
      "liquidateBorrowVerify(address,address,address,address,uint256,uint256)": {
        "notice": "Validates liquidateBorrow and reverts on rejection. May emit logs."
      },
      "liquidateCalculateSeizeTokens(address,address,uint256)": {
        "notice": "Calculate number of tokens of collateral asset to seize given an underlying amount"
      },
      "mintAllowed(address,address,uint256)": {
        "notice": "Checks if the account should be allowed to mint tokens in the given market"
      },
      "mintVerify(address,address,uint256,uint256)": {
        "notice": "Validates mint and reverts on rejection. May emit logs."
      },
      "redeemAllowed(address,address,uint256)": {
        "notice": "Checks if the account should be allowed to redeem tokens in the given market"
      },
      "redeemVerify(address,address,uint256,uint256)": {
        "notice": "Validates redeem and reverts on rejection. May emit logs."
      },
      "repayBorrowAllowed(address,address,address,uint256)": {
        "notice": "Checks if the account should be allowed to repay a borrow in the given market"
      },
      "repayBorrowVerify(address,address,address,uint256,uint256)": {
        "notice": "Validates repayBorrow and reverts on rejection. May emit logs."
      },
      "seizeAllowed(address,address,address,address,uint256)": {
        "notice": "Checks if the seizing of assets should be allowed to occur"
      },
      "seizeVerify(address,address,address,address,uint256)": {
        "notice": "Validates seize and reverts on rejection. May emit logs."
      },
      "transferAllowed(address,address,address,uint256)": {
        "notice": "Checks if the account should be allowed to transfer tokens in the given market"
      },
      "transferVerify(address,address,address,uint256)": {
        "notice": "Validates transfer and reverts on rejection. May emit logs."
      }
    }
  }
}