{
  "contractName": "DAIInterestRateModelV3",
  "abi": [
    {
      "inputs": [
        {
          "internalType": "uint256",
          "name": "jumpMultiplierPerYear",
          "type": "uint256"
        },
        {
          "internalType": "uint256",
          "name": "kink_",
          "type": "uint256"
        },
        {
          "internalType": "address",
          "name": "pot_",
          "type": "address"
        },
        {
          "internalType": "address",
          "name": "jug_",
          "type": "address"
        },
        {
          "internalType": "address",
          "name": "owner_",
          "type": "address"
        }
      ],
      "payable": false,
      "stateMutability": "nonpayable",
      "type": "constructor"
    },
    {
      "anonymous": false,
      "inputs": [
        {
          "indexed": false,
          "internalType": "uint256",
          "name": "baseRatePerBlock",
          "type": "uint256"
        },
        {
          "indexed": false,
          "internalType": "uint256",
          "name": "multiplierPerBlock",
          "type": "uint256"
        },
        {
          "indexed": false,
          "internalType": "uint256",
          "name": "jumpMultiplierPerBlock",
          "type": "uint256"
        },
        {
          "indexed": false,
          "internalType": "uint256",
          "name": "kink",
          "type": "uint256"
        }
      ],
      "name": "NewInterestParams",
      "type": "event"
    },
    {
      "constant": true,
      "inputs": [],
      "name": "assumedOneMinusReserveFactorMantissa",
      "outputs": [
        {
          "internalType": "uint256",
          "name": "",
          "type": "uint256"
        }
      ],
      "payable": false,
      "stateMutability": "view",
      "type": "function"
    },
    {
      "constant": true,
      "inputs": [],
      "name": "baseRatePerBlock",
      "outputs": [
        {
          "internalType": "uint256",
          "name": "",
          "type": "uint256"
        }
      ],
      "payable": false,
      "stateMutability": "view",
      "type": "function"
    },
    {
      "constant": true,
      "inputs": [],
      "name": "blocksPerYear",
      "outputs": [
        {
          "internalType": "uint256",
          "name": "",
          "type": "uint256"
        }
      ],
      "payable": false,
      "stateMutability": "view",
      "type": "function"
    },
    {
      "constant": true,
      "inputs": [],
      "name": "gapPerBlock",
      "outputs": [
        {
          "internalType": "uint256",
          "name": "",
          "type": "uint256"
        }
      ],
      "payable": false,
      "stateMutability": "view",
      "type": "function"
    },
    {
      "constant": true,
      "inputs": [
        {
          "internalType": "uint256",
          "name": "cash",
          "type": "uint256"
        },
        {
          "internalType": "uint256",
          "name": "borrows",
          "type": "uint256"
        },
        {
          "internalType": "uint256",
          "name": "reserves",
          "type": "uint256"
        }
      ],
      "name": "getBorrowRate",
      "outputs": [
        {
          "internalType": "uint256",
          "name": "",
          "type": "uint256"
        }
      ],
      "payable": false,
      "stateMutability": "view",
      "type": "function"
    },
    {
      "constant": true,
      "inputs": [],
      "name": "isInterestRateModel",
      "outputs": [
        {
          "internalType": "bool",
          "name": "",
          "type": "bool"
        }
      ],
      "payable": false,
      "stateMutability": "view",
      "type": "function"
    },
    {
      "constant": true,
      "inputs": [],
      "name": "jumpMultiplierPerBlock",
      "outputs": [
        {
          "internalType": "uint256",
          "name": "",
          "type": "uint256"
        }
      ],
      "payable": false,
      "stateMutability": "view",
      "type": "function"
    },
    {
      "constant": true,
      "inputs": [],
      "name": "kink",
      "outputs": [
        {
          "internalType": "uint256",
          "name": "",
          "type": "uint256"
        }
      ],
      "payable": false,
      "stateMutability": "view",
      "type": "function"
    },
    {
      "constant": true,
      "inputs": [],
      "name": "multiplierPerBlock",
      "outputs": [
        {
          "internalType": "uint256",
          "name": "",
          "type": "uint256"
        }
      ],
      "payable": false,
      "stateMutability": "view",
      "type": "function"
    },
    {
      "constant": true,
      "inputs": [],
      "name": "owner",
      "outputs": [
        {
          "internalType": "address",
          "name": "",
          "type": "address"
        }
      ],
      "payable": false,
      "stateMutability": "view",
      "type": "function"
    },
    {
      "constant": true,
      "inputs": [
        {
          "internalType": "uint256",
          "name": "cash",
          "type": "uint256"
        },
        {
          "internalType": "uint256",
          "name": "borrows",
          "type": "uint256"
        },
        {
          "internalType": "uint256",
          "name": "reserves",
          "type": "uint256"
        }
      ],
      "name": "utilizationRate",
      "outputs": [
        {
          "internalType": "uint256",
          "name": "",
          "type": "uint256"
        }
      ],
      "payable": false,
      "stateMutability": "pure",
      "type": "function"
    },
    {
      "constant": false,
      "inputs": [
        {
          "internalType": "uint256",
          "name": "baseRatePerYear",
          "type": "uint256"
        },
        {
          "internalType": "uint256",
          "name": "gapPerYear",
          "type": "uint256"
        },
        {
          "internalType": "uint256",
          "name": "jumpMultiplierPerYear",
          "type": "uint256"
        },
        {
          "internalType": "uint256",
          "name": "kink_",
          "type": "uint256"
        }
      ],
      "name": "updateJumpRateModel",
      "outputs": [],
      "payable": false,
      "stateMutability": "nonpayable",
      "type": "function"
    },
    {
      "constant": true,
      "inputs": [
        {
          "internalType": "uint256",
          "name": "cash",
          "type": "uint256"
        },
        {
          "internalType": "uint256",
          "name": "borrows",
          "type": "uint256"
        },
        {
          "internalType": "uint256",
          "name": "reserves",
          "type": "uint256"
        },
        {
          "internalType": "uint256",
          "name": "reserveFactorMantissa",
          "type": "uint256"
        }
      ],
      "name": "getSupplyRate",
      "outputs": [
        {
          "internalType": "uint256",
          "name": "",
          "type": "uint256"
        }
      ],
      "payable": false,
      "stateMutability": "view",
      "type": "function"
    },
    {
      "constant": true,
      "inputs": [],
      "name": "dsrPerBlock",
      "outputs": [
        {
          "internalType": "uint256",
          "name": "",
          "type": "uint256"
        }
      ],
      "payable": false,
      "stateMutability": "view",
      "type": "function"
    },
    {
      "constant": false,
      "inputs": [],
      "name": "poke",
      "outputs": [],
      "payable": false,
      "stateMutability": "nonpayable",
      "type": "function"
    }
  ],
  "bytecode": "0x60806040523480156200001157600080fd5b50604051620012be380380620012be833981810160405260a08110156200003757600080fd5b508051602082015160408301516060840151608090940151600080546001600160a01b0319166001600160a01b038316178155939492939192918086868483808484846200008884808585620000f8565b5050505050505050505062201480668e1bc9bf04000081620000a657fe5b04600555600680546001600160a01b038086166001600160a01b0319928316179092556007805492851692909116919091179055620000ed6001600160e01b03620001ea16565b505050505062000777565b6200011562201480856200046660201b620008541790919060201c565b6002556200016d620001376220148083620004b9602090811b620007fb17901c565b62000159670de0b6b3a764000086620004b960201b620007fb1790919060201c565b6200046660201b620008541790919060201c565b6001556200018b826220148062000466602090811b6200085417901c565b60038190556004829055600254600154604080519283526020830191909152818101929092526060810183905290517f6960ab234c7ef4b0c9197100f5393cfcde7c453ac910a27bd2000aa1dd4c068d9181900360800190a150505050565b60075460408051636cb1c69b60e11b8152644554482d4160d81b600482015281516000936001600160a01b03169263d9638d369260248082019391829003018186803b1580156200023a57600080fd5b505afa1580156200024f573d6000803e3d6000fd5b505050506040513d60408110156200026657600080fd5b505160075460408051635001f3b560e01b815290519293506000926200035192600f926200033d926b033b2e3c9fd0803ce8000000926200015992670de0b6b3a7640000928692869262000329926001600160a01b0390921691635001f3b591600480820192602092909190829003018186803b158015620002e757600080fd5b505afa158015620002fc573d6000803e3d6000fd5b505050506040513d60208110156200031357600080fd5b50518b9062000517602090811b6200075617901c565b6200057260201b620007b91790919060201c565b620004b960201b620007fb1790919060201c565b905062000380670d2f13f7789f000062000159670de0b6b3a76400006200033d6001600160e01b03620005bc16565b6002819055811115620003e157620003d860045462000159670de0b6b3a76400006200033d600554620003c4600254886200057260201b620007b91790919060201c565b6200051760201b620007561790919060201c565b60015562000410565b6200040c60045462000159670de0b6b3a7640000600554620004b960201b620007fb1790919060201c565b6001555b600254600154600354600454604080519485526020850193909352838301919091526060830152517f6960ab234c7ef4b0c9197100f5393cfcde7c453ac910a27bd2000aa1dd4c068d9181900360800190a15050565b6000620004b083836040518060400160405280601a81526020017f536166654d6174683a206469766973696f6e206279207a65726f0000000000008152506200067360201b60201c565b90505b92915050565b600082620004ca57506000620004b3565b82820282848281620004d857fe5b0414620004b05760405162461bcd60e51b81526004018080602001828103825260218152602001806200129d6021913960400191505060405180910390fd5b600082820183811015620004b0576040805162461bcd60e51b815260206004820152601b60248201527f536166654d6174683a206164646974696f6e206f766572666c6f770000000000604482015290519081900360640190fd5b6000620004b083836040518060400160405280601e81526020017f536166654d6174683a207375627472616374696f6e206f766572666c6f7700008152506200071a60201b60201c565b60006200066e600f6200033d633b9aca00620001596b033b2e3c9fd0803ce8000000600660009054906101000a90046001600160a01b03166001600160a01b031663487bf0826040518163ffffffff1660e01b815260040160206040518083038186803b1580156200062d57600080fd5b505afa15801562000642573d6000803e3d6000fd5b505050506040513d60208110156200065957600080fd5b50519062000572602090811b620007b917901c565b905090565b60008183620007035760405162461bcd60e51b81526004018080602001828103825283818151815260200191508051906020019080838360005b83811015620006c7578181015183820152602001620006ad565b50505050905090810190601f168015620006f55780820380516001836020036101000a031916815260200191505b509250505060405180910390fd5b5060008385816200071057fe5b0495945050505050565b600081848411156200076f5760405162461bcd60e51b8152602060048201818152835160248401528351909283926044909101919085019080838360008315620006c7578181015183820152602001620006ad565b505050900390565b610b1680620007876000396000f3fe608060405234801561001057600080fd5b50600436106100e55760003560e01c80638da5cb5b11610097578063b9f9850a11610066578063b9f9850a14610216578063f14039de1461021e578063f52d21f314610226578063fd2da3391461022e576100e5565b80638da5cb5b146101b357806396456c5c146101d7578063a385fb96146101df578063b8168816146101e7576100e5565b806315f24053146100ea57806318178358146101255780632037f3e71461012f5780632191f92a1461015e5780636dac7cd51461017a5780636e71e2d8146101825780638726bb89146101ab575b600080fd5b6101136004803603606081101561010057600080fd5b5080359060208101359060400135610236565b60408051918252519081900360200190f35b61012d61024d565b005b61012d6004803603608081101561014557600080fd5b508035906020810135906040810135906060013561048b565b6101666104f8565b604080519115158252519081900360200190f35b6101136104fd565b6101136004803603606081101561019857600080fd5b5080359060208101359060400135610509565b610113610547565b6101bb61054d565b604080516001600160a01b039092168252519081900360200190f35b61011361055c565b610113610606565b610113600480360360808110156101fd57600080fd5b508035906020810135906040810135906060013561060d565b610113610681565b610113610687565b61011361068d565b610113610693565b6000610243848484610699565b90505b9392505050565b60075460408051636cb1c69b60e11b8152644554482d4160d81b600482015281516000936001600160a01b03169263d9638d369260248082019391829003018186803b15801561029c57600080fd5b505afa1580156102b0573d6000803e3d6000fd5b505050506040513d60408110156102c657600080fd5b505160075460408051635001f3b560e01b8152905192935060009261039f92600f92610387926b033b2e3c9fd0803ce80000009261039392670de0b6b3a7640000928692869261037b926001600160a01b0390921691635001f3b591600480820192602092909190829003018186803b15801561034257600080fd5b505afa158015610356573d6000803e3d6000fd5b505050506040513d602081101561036c57600080fd5b50518b9063ffffffff61075616565b9063ffffffff6107b916565b9063ffffffff6107fb16565b9063ffffffff61085416565b90506103c1670d2f13f7789f0000610393670de0b6b3a764000061038761055c565b600281905581111561040e57610406600454610393670de0b6b3a76400006103876005546103fa600254886107b990919063ffffffff16565b9063ffffffff61075616565b600155610435565b610431600454610393670de0b6b3a76400006005546107fb90919063ffffffff16565b6001555b600254600154600354600454604080519485526020850193909352838301919091526060830152517f6960ab234c7ef4b0c9197100f5393cfcde7c453ac910a27bd2000aa1dd4c068d9181900360800190a15050565b6000546001600160a01b031633146104d45760405162461bcd60e51b8152600401808060200182810382526026815260200180610abc6026913960400191505060405180910390fd5b6220148083046005556104ea6000808484610896565b6104f261024d565b50505050565b600181565b670d2f13f7789f000081565b60008261051857506000610246565b61024361052f8361037b878763ffffffff61075616565b61039385670de0b6b3a764000063ffffffff6107fb16565b60015481565b6000546001600160a01b031681565b6000610601600f610387633b9aca006103936b033b2e3c9fd0803ce8000000600660009054906101000a90046001600160a01b03166001600160a01b031663487bf0826040518163ffffffff1660e01b815260040160206040518083038186803b1580156105c957600080fd5b505afa1580156105dd573d6000803e3d6000fd5b505050506040513d60208110156105f357600080fd5b50519063ffffffff6107b916565b905090565b6220148081565b60008061061c86868686610937565b905060006106348561037b898963ffffffff61075616565b90508061064357509050610679565b60006106618261039361065461055c565b8b9063ffffffff6107fb16565b9050610673818463ffffffff61075616565b93505050505b949350505050565b60035481565b60025481565b60055481565b60045481565b6000806106a7858585610509565b905060045481116106e1576106d96002546103fa670de0b6b3a7640000610393600154866107fb90919063ffffffff16565b915050610246565b600061070c6002546103fa670de0b6b3a76400006103936001546004546107fb90919063ffffffff16565b90506000610725600454846107b990919063ffffffff16565b905061074c826103fa670de0b6b3a7640000610393600354866107fb90919063ffffffff16565b9350505050610246565b6000828201838110156107b0576040805162461bcd60e51b815260206004820152601b60248201527f536166654d6174683a206164646974696f6e206f766572666c6f770000000000604482015290519081900360640190fd5b90505b92915050565b60006107b083836040518060400160405280601e81526020017f536166654d6174683a207375627472616374696f6e206f766572666c6f77000081525061099e565b60008261080a575060006107b3565b8282028284828161081757fe5b04146107b05760405162461bcd60e51b8152600401808060200182810382526021815260200180610a9b6021913960400191505060405180910390fd5b60006107b083836040518060400160405280601a81526020017f536166654d6174683a206469766973696f6e206279207a65726f000000000000815250610a35565b6108a9846220148063ffffffff61085416565b6002556108c261052f622014808363ffffffff6107fb16565b6001556108d8826220148063ffffffff61085416565b60038190556004829055600254600154604080519283526020830191909152818101929092526060810183905290517f6960ab234c7ef4b0c9197100f5393cfcde7c453ac910a27bd2000aa1dd4c068d9181900360800190a150505050565b600080610952670de0b6b3a76400008463ffffffff6107b916565b90506000610961878787610699565b90506000610981670de0b6b3a7640000610393848663ffffffff6107fb16565b9050610673670de0b6b3a7640000610393836103878c8c8c610509565b60008184841115610a2d5760405162461bcd60e51b81526004018080602001828103825283818151815260200191508051906020019080838360005b838110156109f25781810151838201526020016109da565b50505050905090810190601f168015610a1f5780820380516001836020036101000a031916815260200191505b509250505060405180910390fd5b505050900390565b60008183610a845760405162461bcd60e51b81526020600482018181528351602484015283519092839260449091019190850190808383600083156109f25781810151838201526020016109da565b506000838581610a9057fe5b049594505050505056fe536166654d6174683a206d756c7469706c69636174696f6e206f766572666c6f776f6e6c7920746865206f776e6572206d61792063616c6c20746869732066756e6374696f6e2ea265627a7a723158209410c3c5123333b1e4ba14c3da5c254856c16bb8c72123b0ed54df2467f947d664736f6c63430005100032536166654d6174683a206d756c7469706c69636174696f6e206f766572666c6f77",
  "source": "pragma solidity ^0.5.16;\n\nimport \"./JumpRateModelV2.sol\";\nimport \"@openzeppelin/contracts/math/SafeMath.sol\";\n\n/**\n  * @title Compound's DAIInterestRateModel Contract (version 3)\n  * @author Compound (modified by Dharma Labs)\n  * @notice The parameterized model described in section 2.4 of the original Compound Protocol whitepaper.\n  * Version 3 modifies the interest rate model in Version 2 by increasing the initial \"gap\" or slope of\n  * the model prior to the \"kink\" from 2% to 4%, and enabling updateable parameters.\n  */\ncontract DAIInterestRateModelV3 is JumpRateModelV2 {\n    using SafeMath for uint;\n\n    /**\n     * @notice The additional margin per block separating the base borrow rate from the roof.\n     */\n    uint public gapPerBlock;\n\n    /**\n     * @notice The assumed (1 - reserve factor) used to calculate the minimum borrow rate (reserve factor = 0.05)\n     */\n    uint public constant assumedOneMinusReserveFactorMantissa = 0.95e18;\n\n    PotLike pot;\n    JugLike jug;\n\n    /**\n     * @notice Construct an interest rate model\n     * @param jumpMultiplierPerYear The multiplierPerBlock after hitting a specified utilization point\n     * @param kink_ The utilization point at which the jump multiplier is applied\n     * @param pot_ The address of the Dai pot (where DSR is earned)\n     * @param jug_ The address of the Dai jug (where SF is kept)\n     * @param owner_ The address of the owner, i.e. the Timelock contract (which has the ability to update parameters directly)\n     */\n    constructor(uint jumpMultiplierPerYear, uint kink_, address pot_, address jug_, address owner_) JumpRateModelV2(0, 0, jumpMultiplierPerYear, kink_, owner_) public {\n        gapPerBlock = 4e16 / blocksPerYear;\n        pot = PotLike(pot_);\n        jug = JugLike(jug_);\n        poke();\n    }\n\n    /**\n     * @notice External function to update the parameters of the interest rate model\n     * @param baseRatePerYear The approximate target base APR, as a mantissa (scaled by 1e18). For DAI, this is calculated from DSR and SF. Input not used.\n     * @param gapPerYear The Additional margin per year separating the base borrow rate from the roof. (scaled by 1e18)\n     * @param jumpMultiplierPerYear The jumpMultiplierPerYear after hitting a specified utilization point\n     * @param kink_ The utilization point at which the jump multiplier is applied\n     */\n    function updateJumpRateModel(uint baseRatePerYear, uint gapPerYear, uint jumpMultiplierPerYear, uint kink_) external {\n        require(msg.sender == owner, \"only the owner may call this function.\");\n        gapPerBlock = gapPerYear / blocksPerYear;\n        updateJumpRateModelInternal(0, 0, jumpMultiplierPerYear, kink_);\n        poke();\n    }\n\n    /**\n     * @notice Calculates the current supply interest rate per block including the Dai savings rate\n     * @param cash The total amount of cash the market has\n     * @param borrows The total amount of borrows the market has outstanding\n     * @param reserves The total amnount of reserves the market has\n     * @param reserveFactorMantissa The current reserve factor the market has\n     * @return The supply rate per block (as a percentage, and scaled by 1e18)\n     */\n    function getSupplyRate(uint cash, uint borrows, uint reserves, uint reserveFactorMantissa) public view returns (uint) {\n        uint protocolRate = super.getSupplyRate(cash, borrows, reserves, reserveFactorMantissa);\n\n        uint underlying = cash.add(borrows).sub(reserves);\n        if (underlying == 0) {\n            return protocolRate;\n        } else {\n            uint cashRate = cash.mul(dsrPerBlock()).div(underlying);\n            return cashRate.add(protocolRate);\n        }\n    }\n\n    /**\n     * @notice Calculates the Dai savings rate per block\n     * @return The Dai savings rate per block (as a percentage, and scaled by 1e18)\n     */\n    function dsrPerBlock() public view returns (uint) {\n        return pot\n            .dsr().sub(1e27)  // scaled 1e27 aka RAY, and includes an extra \"ONE\" before subraction\n            .div(1e9) // descale to 1e18\n            .mul(15); // 15 seconds per block\n    }\n\n    /**\n     * @notice Resets the baseRate and multiplier per block based on the stability fee and Dai savings rate\n     */\n    function poke() public {\n        (uint duty, ) = jug.ilks(\"ETH-A\");\n        uint stabilityFeePerBlock = duty.add(jug.base()).sub(1e27).mul(1e18).div(1e27).mul(15);\n\n        // We ensure the minimum borrow rate >= DSR / (1 - reserve factor)\n        baseRatePerBlock = dsrPerBlock().mul(1e18).div(assumedOneMinusReserveFactorMantissa);\n\n        // The roof borrow rate is max(base rate, stability fee) + gap, from which we derive the slope\n        if (baseRatePerBlock < stabilityFeePerBlock) {\n            multiplierPerBlock = stabilityFeePerBlock.sub(baseRatePerBlock).add(gapPerBlock).mul(1e18).div(kink);\n        } else {\n            multiplierPerBlock = gapPerBlock.mul(1e18).div(kink);\n        }\n\n        emit NewInterestParams(baseRatePerBlock, multiplierPerBlock, jumpMultiplierPerBlock, kink);\n    }\n}\n\n\n/*** Maker Interfaces ***/\n\ncontract PotLike {\n    function chi() external view returns (uint);\n    function dsr() external view returns (uint);\n    function rho() external view returns (uint);\n    function pie(address) external view returns (uint);\n    function drip() external returns (uint);\n    function join(uint) external;\n    function exit(uint) external;\n}\n\ncontract JugLike {\n    // --- Data ---\n    struct Ilk {\n        uint256 duty;\n        uint256  rho;\n    }\n\n   mapping (bytes32 => Ilk) public ilks;\n   uint256 public base;\n}\n",
  "sourcePath": "/home/stan36/repos/Askolend/AskoLend-contracts/contracts/compound/DAIInterestRateModelV3.sol",
  "compiler": {
    "name": "solc",
    "version": "0.5.16+commit.9c3226ce.Emscripten.clang"
  },
  "schemaVersion": "3.2.5",
  "updatedAt": "2020-09-26T04:13:39.169Z",
  "devdoc": {
    "author": "Compound (modified by Dharma Labs)",
    "methods": {
      "constructor": {
        "params": {
          "jug_": "The address of the Dai jug (where SF is kept)",
          "jumpMultiplierPerYear": "The multiplierPerBlock after hitting a specified utilization point",
          "kink_": "The utilization point at which the jump multiplier is applied",
          "owner_": "The address of the owner, i.e. the Timelock contract (which has the ability to update parameters directly)",
          "pot_": "The address of the Dai pot (where DSR is earned)"
        }
      },
      "dsrPerBlock()": {
        "return": "The Dai savings rate per block (as a percentage, and scaled by 1e18)"
      },
      "getBorrowRate(uint256,uint256,uint256)": {
        "params": {
          "borrows": "The amount of borrows in the market",
          "cash": "The amount of cash in the market",
          "reserves": "The amount of reserves in the market"
        },
        "return": "The borrow rate percentage per block as a mantissa (scaled by 1e18)"
      },
      "getSupplyRate(uint256,uint256,uint256,uint256)": {
        "params": {
          "borrows": "The total amount of borrows the market has outstanding",
          "cash": "The total amount of cash the market has",
          "reserveFactorMantissa": "The current reserve factor the market has",
          "reserves": "The total amnount of reserves the market has"
        },
        "return": "The supply rate per block (as a percentage, and scaled by 1e18)"
      },
      "updateJumpRateModel(uint256,uint256,uint256,uint256)": {
        "params": {
          "baseRatePerYear": "The approximate target base APR, as a mantissa (scaled by 1e18). For DAI, this is calculated from DSR and SF. Input not used.",
          "gapPerYear": "The Additional margin per year separating the base borrow rate from the roof. (scaled by 1e18)",
          "jumpMultiplierPerYear": "The jumpMultiplierPerYear after hitting a specified utilization point",
          "kink_": "The utilization point at which the jump multiplier is applied"
        }
      },
      "utilizationRate(uint256,uint256,uint256)": {
        "params": {
          "borrows": "The amount of borrows in the market",
          "cash": "The amount of cash in the market",
          "reserves": "The amount of reserves in the market (currently unused)"
        },
        "return": "The utilization rate as a mantissa between [0, 1e18]"
      }
    },
    "title": "Compound's DAIInterestRateModel Contract (version 3)"
  },
  "userdoc": {
    "methods": {
      "constructor": "Construct an interest rate model",
      "dsrPerBlock()": {
        "notice": "Calculates the Dai savings rate per block"
      },
      "getBorrowRate(uint256,uint256,uint256)": {
        "notice": "Calculates the current borrow rate per block"
      },
      "getSupplyRate(uint256,uint256,uint256,uint256)": {
        "notice": "Calculates the current supply interest rate per block including the Dai savings rate"
      },
      "poke()": {
        "notice": "Resets the baseRate and multiplier per block based on the stability fee and Dai savings rate"
      },
      "updateJumpRateModel(uint256,uint256,uint256,uint256)": {
        "notice": "External function to update the parameters of the interest rate model"
      },
      "utilizationRate(uint256,uint256,uint256)": {
        "notice": "Calculates the utilization rate of the market: `borrows / (cash + borrows - reserves)`"
      }
    },
    "notice": "The parameterized model described in section 2.4 of the original Compound Protocol whitepaper. Version 3 modifies the interest rate model in Version 2 by increasing the initial \"gap\" or slope of the model prior to the \"kink\" from 2% to 4%, and enabling updateable parameters."
  }
}