{
  "contractName": "GovernorAlpha",
  "abi": [
    {
      "inputs": [
        {
          "internalType": "address",
          "name": "timelock_",
          "type": "address"
        },
        {
          "internalType": "address",
          "name": "comp_",
          "type": "address"
        },
        {
          "internalType": "address",
          "name": "guardian_",
          "type": "address"
        }
      ],
      "payable": false,
      "stateMutability": "nonpayable",
      "type": "constructor"
    },
    {
      "anonymous": false,
      "inputs": [
        {
          "indexed": false,
          "internalType": "uint256",
          "name": "id",
          "type": "uint256"
        }
      ],
      "name": "ProposalCanceled",
      "type": "event"
    },
    {
      "anonymous": false,
      "inputs": [
        {
          "indexed": false,
          "internalType": "uint256",
          "name": "id",
          "type": "uint256"
        },
        {
          "indexed": false,
          "internalType": "address",
          "name": "proposer",
          "type": "address"
        },
        {
          "indexed": false,
          "internalType": "address[]",
          "name": "targets",
          "type": "address[]"
        },
        {
          "indexed": false,
          "internalType": "uint256[]",
          "name": "values",
          "type": "uint256[]"
        },
        {
          "indexed": false,
          "internalType": "string[]",
          "name": "signatures",
          "type": "string[]"
        },
        {
          "indexed": false,
          "internalType": "bytes[]",
          "name": "calldatas",
          "type": "bytes[]"
        },
        {
          "indexed": false,
          "internalType": "uint256",
          "name": "startBlock",
          "type": "uint256"
        },
        {
          "indexed": false,
          "internalType": "uint256",
          "name": "endBlock",
          "type": "uint256"
        },
        {
          "indexed": false,
          "internalType": "string",
          "name": "description",
          "type": "string"
        }
      ],
      "name": "ProposalCreated",
      "type": "event"
    },
    {
      "anonymous": false,
      "inputs": [
        {
          "indexed": false,
          "internalType": "uint256",
          "name": "id",
          "type": "uint256"
        }
      ],
      "name": "ProposalExecuted",
      "type": "event"
    },
    {
      "anonymous": false,
      "inputs": [
        {
          "indexed": false,
          "internalType": "uint256",
          "name": "id",
          "type": "uint256"
        },
        {
          "indexed": false,
          "internalType": "uint256",
          "name": "eta",
          "type": "uint256"
        }
      ],
      "name": "ProposalQueued",
      "type": "event"
    },
    {
      "anonymous": false,
      "inputs": [
        {
          "indexed": false,
          "internalType": "address",
          "name": "voter",
          "type": "address"
        },
        {
          "indexed": false,
          "internalType": "uint256",
          "name": "proposalId",
          "type": "uint256"
        },
        {
          "indexed": false,
          "internalType": "bool",
          "name": "support",
          "type": "bool"
        },
        {
          "indexed": false,
          "internalType": "uint256",
          "name": "votes",
          "type": "uint256"
        }
      ],
      "name": "VoteCast",
      "type": "event"
    },
    {
      "constant": true,
      "inputs": [],
      "name": "BALLOT_TYPEHASH",
      "outputs": [
        {
          "internalType": "bytes32",
          "name": "",
          "type": "bytes32"
        }
      ],
      "payable": false,
      "stateMutability": "view",
      "type": "function"
    },
    {
      "constant": true,
      "inputs": [],
      "name": "DOMAIN_TYPEHASH",
      "outputs": [
        {
          "internalType": "bytes32",
          "name": "",
          "type": "bytes32"
        }
      ],
      "payable": false,
      "stateMutability": "view",
      "type": "function"
    },
    {
      "constant": true,
      "inputs": [],
      "name": "comp",
      "outputs": [
        {
          "internalType": "contract CompInterface",
          "name": "",
          "type": "address"
        }
      ],
      "payable": false,
      "stateMutability": "view",
      "type": "function"
    },
    {
      "constant": true,
      "inputs": [],
      "name": "guardian",
      "outputs": [
        {
          "internalType": "address",
          "name": "",
          "type": "address"
        }
      ],
      "payable": false,
      "stateMutability": "view",
      "type": "function"
    },
    {
      "constant": true,
      "inputs": [
        {
          "internalType": "address",
          "name": "",
          "type": "address"
        }
      ],
      "name": "latestProposalIds",
      "outputs": [
        {
          "internalType": "uint256",
          "name": "",
          "type": "uint256"
        }
      ],
      "payable": false,
      "stateMutability": "view",
      "type": "function"
    },
    {
      "constant": true,
      "inputs": [],
      "name": "name",
      "outputs": [
        {
          "internalType": "string",
          "name": "",
          "type": "string"
        }
      ],
      "payable": false,
      "stateMutability": "view",
      "type": "function"
    },
    {
      "constant": true,
      "inputs": [],
      "name": "proposalCount",
      "outputs": [
        {
          "internalType": "uint256",
          "name": "",
          "type": "uint256"
        }
      ],
      "payable": false,
      "stateMutability": "view",
      "type": "function"
    },
    {
      "constant": true,
      "inputs": [
        {
          "internalType": "uint256",
          "name": "",
          "type": "uint256"
        }
      ],
      "name": "proposals",
      "outputs": [
        {
          "internalType": "uint256",
          "name": "id",
          "type": "uint256"
        },
        {
          "internalType": "address",
          "name": "proposer",
          "type": "address"
        },
        {
          "internalType": "uint256",
          "name": "eta",
          "type": "uint256"
        },
        {
          "internalType": "uint256",
          "name": "startBlock",
          "type": "uint256"
        },
        {
          "internalType": "uint256",
          "name": "endBlock",
          "type": "uint256"
        },
        {
          "internalType": "uint256",
          "name": "forVotes",
          "type": "uint256"
        },
        {
          "internalType": "uint256",
          "name": "againstVotes",
          "type": "uint256"
        },
        {
          "internalType": "bool",
          "name": "canceled",
          "type": "bool"
        },
        {
          "internalType": "bool",
          "name": "executed",
          "type": "bool"
        }
      ],
      "payable": false,
      "stateMutability": "view",
      "type": "function"
    },
    {
      "constant": true,
      "inputs": [],
      "name": "timelock",
      "outputs": [
        {
          "internalType": "contract TimelockInterface",
          "name": "",
          "type": "address"
        }
      ],
      "payable": false,
      "stateMutability": "view",
      "type": "function"
    },
    {
      "constant": true,
      "inputs": [],
      "name": "quorumVotes",
      "outputs": [
        {
          "internalType": "uint256",
          "name": "",
          "type": "uint256"
        }
      ],
      "payable": false,
      "stateMutability": "pure",
      "type": "function"
    },
    {
      "constant": true,
      "inputs": [],
      "name": "proposalThreshold",
      "outputs": [
        {
          "internalType": "uint256",
          "name": "",
          "type": "uint256"
        }
      ],
      "payable": false,
      "stateMutability": "pure",
      "type": "function"
    },
    {
      "constant": true,
      "inputs": [],
      "name": "proposalMaxOperations",
      "outputs": [
        {
          "internalType": "uint256",
          "name": "",
          "type": "uint256"
        }
      ],
      "payable": false,
      "stateMutability": "pure",
      "type": "function"
    },
    {
      "constant": true,
      "inputs": [],
      "name": "votingDelay",
      "outputs": [
        {
          "internalType": "uint256",
          "name": "",
          "type": "uint256"
        }
      ],
      "payable": false,
      "stateMutability": "pure",
      "type": "function"
    },
    {
      "constant": true,
      "inputs": [],
      "name": "votingPeriod",
      "outputs": [
        {
          "internalType": "uint256",
          "name": "",
          "type": "uint256"
        }
      ],
      "payable": false,
      "stateMutability": "pure",
      "type": "function"
    },
    {
      "constant": false,
      "inputs": [
        {
          "internalType": "address[]",
          "name": "targets",
          "type": "address[]"
        },
        {
          "internalType": "uint256[]",
          "name": "values",
          "type": "uint256[]"
        },
        {
          "internalType": "string[]",
          "name": "signatures",
          "type": "string[]"
        },
        {
          "internalType": "bytes[]",
          "name": "calldatas",
          "type": "bytes[]"
        },
        {
          "internalType": "string",
          "name": "description",
          "type": "string"
        }
      ],
      "name": "propose",
      "outputs": [
        {
          "internalType": "uint256",
          "name": "",
          "type": "uint256"
        }
      ],
      "payable": false,
      "stateMutability": "nonpayable",
      "type": "function"
    },
    {
      "constant": false,
      "inputs": [
        {
          "internalType": "uint256",
          "name": "proposalId",
          "type": "uint256"
        }
      ],
      "name": "queue",
      "outputs": [],
      "payable": false,
      "stateMutability": "nonpayable",
      "type": "function"
    },
    {
      "constant": false,
      "inputs": [
        {
          "internalType": "uint256",
          "name": "proposalId",
          "type": "uint256"
        }
      ],
      "name": "execute",
      "outputs": [],
      "payable": true,
      "stateMutability": "payable",
      "type": "function"
    },
    {
      "constant": false,
      "inputs": [
        {
          "internalType": "uint256",
          "name": "proposalId",
          "type": "uint256"
        }
      ],
      "name": "cancel",
      "outputs": [],
      "payable": false,
      "stateMutability": "nonpayable",
      "type": "function"
    },
    {
      "constant": true,
      "inputs": [
        {
          "internalType": "uint256",
          "name": "proposalId",
          "type": "uint256"
        }
      ],
      "name": "getActions",
      "outputs": [
        {
          "internalType": "address[]",
          "name": "targets",
          "type": "address[]"
        },
        {
          "internalType": "uint256[]",
          "name": "values",
          "type": "uint256[]"
        },
        {
          "internalType": "string[]",
          "name": "signatures",
          "type": "string[]"
        },
        {
          "internalType": "bytes[]",
          "name": "calldatas",
          "type": "bytes[]"
        }
      ],
      "payable": false,
      "stateMutability": "view",
      "type": "function"
    },
    {
      "constant": true,
      "inputs": [
        {
          "internalType": "uint256",
          "name": "proposalId",
          "type": "uint256"
        },
        {
          "internalType": "address",
          "name": "voter",
          "type": "address"
        }
      ],
      "name": "getReceipt",
      "outputs": [
        {
          "components": [
            {
              "internalType": "bool",
              "name": "hasVoted",
              "type": "bool"
            },
            {
              "internalType": "bool",
              "name": "support",
              "type": "bool"
            },
            {
              "internalType": "uint96",
              "name": "votes",
              "type": "uint96"
            }
          ],
          "internalType": "struct GovernorAlpha.Receipt",
          "name": "",
          "type": "tuple"
        }
      ],
      "payable": false,
      "stateMutability": "view",
      "type": "function"
    },
    {
      "constant": true,
      "inputs": [
        {
          "internalType": "uint256",
          "name": "proposalId",
          "type": "uint256"
        }
      ],
      "name": "state",
      "outputs": [
        {
          "internalType": "enum GovernorAlpha.ProposalState",
          "name": "",
          "type": "uint8"
        }
      ],
      "payable": false,
      "stateMutability": "view",
      "type": "function"
    },
    {
      "constant": false,
      "inputs": [
        {
          "internalType": "uint256",
          "name": "proposalId",
          "type": "uint256"
        },
        {
          "internalType": "bool",
          "name": "support",
          "type": "bool"
        }
      ],
      "name": "castVote",
      "outputs": [],
      "payable": false,
      "stateMutability": "nonpayable",
      "type": "function"
    },
    {
      "constant": false,
      "inputs": [
        {
          "internalType": "uint256",
          "name": "proposalId",
          "type": "uint256"
        },
        {
          "internalType": "bool",
          "name": "support",
          "type": "bool"
        },
        {
          "internalType": "uint8",
          "name": "v",
          "type": "uint8"
        },
        {
          "internalType": "bytes32",
          "name": "r",
          "type": "bytes32"
        },
        {
          "internalType": "bytes32",
          "name": "s",
          "type": "bytes32"
        }
      ],
      "name": "castVoteBySig",
      "outputs": [],
      "payable": false,
      "stateMutability": "nonpayable",
      "type": "function"
    },
    {
      "constant": false,
      "inputs": [],
      "name": "__acceptAdmin",
      "outputs": [],
      "payable": false,
      "stateMutability": "nonpayable",
      "type": "function"
    },
    {
      "constant": false,
      "inputs": [],
      "name": "__abdicate",
      "outputs": [],
      "payable": false,
      "stateMutability": "nonpayable",
      "type": "function"
    },
    {
      "constant": false,
      "inputs": [
        {
          "internalType": "address",
          "name": "newPendingAdmin",
          "type": "address"
        },
        {
          "internalType": "uint256",
          "name": "eta",
          "type": "uint256"
        }
      ],
      "name": "__queueSetTimelockPendingAdmin",
      "outputs": [],
      "payable": false,
      "stateMutability": "nonpayable",
      "type": "function"
    },
    {
      "constant": false,
      "inputs": [
        {
          "internalType": "address",
          "name": "newPendingAdmin",
          "type": "address"
        },
        {
          "internalType": "uint256",
          "name": "eta",
          "type": "uint256"
        }
      ],
      "name": "__executeSetTimelockPendingAdmin",
      "outputs": [],
      "payable": false,
      "stateMutability": "nonpayable",
      "type": "function"
    }
  ],
  "bytecode": "0x60806040523480156200001157600080fd5b50604051620038e3380380620038e383398101604081905262000034916200008a565b600080546001600160a01b039485166001600160a01b0319918216179091556001805493851693821693909317909255600280549190931691161790556200010a565b80516200008481620000f0565b92915050565b600080600060608486031215620000a057600080fd5b6000620000ae868662000077565b9350506020620000c18682870162000077565b9250506040620000d48682870162000077565b9150509250925092565b60006001600160a01b03821662000084565b620000fb81620000de565b81146200010757600080fd5b50565b6137c9806200011a6000396000f3fe60806040526004361061016c5760003560e01c8063452a9320116100cc578063d33219b41161007a578063d33219b4146103e9578063da35c664146103fe578063da95691a14610413578063ddf0b00914610433578063deaaa7cc14610453578063e23a9a5214610468578063fe0d94c1146104955761016c565b8063452a9320146103335780634634c61f14610355578063760fbc13146103755780637bdbe4d01461038a578063915006711461039f578063b58131b0146103bf578063b9a61961146103d45761016c565b806320606b701161012957806320606b701461025757806321f43e421461026c57806324bc1a641461028c578063328dd982146102a15780633932abb1146102d15780633e4f49e6146102e657806340e58ee5146103135761016c565b8063013cf08b1461017157806302a251a3146101af57806306fdde03146101d1578063109d0af8146101f357806315373e3d1461021557806317977c6114610237575b600080fd5b34801561017d57600080fd5b5061019161018c366004612419565b6104a8565b6040516101a699989796959493929190613574565b60405180910390f35b3480156101bb57600080fd5b506101c4610501565b6040516101a691906132a1565b3480156101dd57600080fd5b506101e6610508565b6040516101a6919061335d565b3480156101ff57600080fd5b5061020861053b565b6040516101a69190613341565b34801561022157600080fd5b50610235610230366004612467565b61054a565b005b34801561024357600080fd5b506101c461025236600461225c565b610559565b34801561026357600080fd5b506101c461056b565b34801561027857600080fd5b50610235610287366004612282565b610582565b34801561029857600080fd5b506101c4610669565b3480156102ad57600080fd5b506102c16102bc366004612419565b610677565b6040516101a69493929190613254565b3480156102dd57600080fd5b506101c4610906565b3480156102f257600080fd5b50610306610301366004612419565b61090b565b6040516101a6919061334f565b34801561031f57600080fd5b5061023561032e366004612419565b610a8d565b34801561033f57600080fd5b50610348610cf6565b6040516101a691906130fe565b34801561036157600080fd5b50610235610370366004612497565b610d05565b34801561038157600080fd5b50610235610e9c565b34801561039657600080fd5b506101c4610ed8565b3480156103ab57600080fd5b506102356103ba366004612282565b610edd565b3480156103cb57600080fd5b506101c4610fb2565b3480156103e057600080fd5b50610235610fc0565b3480156103f557600080fd5b50610208611045565b34801561040a57600080fd5b506101c4611054565b34801561041f57600080fd5b506101c461042e3660046122bc565b61105a565b34801561043f57600080fd5b5061023561044e366004612419565b61147c565b34801561045f57600080fd5b506101c46116e6565b34801561047457600080fd5b50610488610483366004612437565b6116f2565b6040516101a691906134be565b6102356104a3366004612419565b611761565b6004602052600090815260409020805460018201546002830154600784015460088501546009860154600a870154600b9097015495966001600160a01b0390951695939492939192909160ff8082169161010090041689565b6143805b90565b60405180604001604052806017815260200176436f6d706f756e6420476f7665726e6f7220416c70686160481b81525081565b6001546001600160a01b031681565b610555338383611926565b5050565b60056020526000908152604090205481565b604051610577906130e8565b604051809103902081565b6002546001600160a01b031633146105b55760405162461bcd60e51b81526004016105ac9061339e565b60405180910390fd5b600080546040516001600160a01b0390911691630825f38f918391906105df9087906020016130fe565b604051602081830303815290604052856040518563ffffffff1660e01b815260040161060e9493929190613127565b600060405180830381600087803b15801561062857600080fd5b505af115801561063c573d6000803e3d6000fd5b505050506040513d6000823e601f3d908101601f1916820160405261066491908101906123e4565b505050565b6954b40b1f852bda00000090565b606080606080600060046000878152602001908152602001600020905080600301816004018260050183600601838054806020026020016040519081016040528092919081815260200182805480156106f957602002820191906000526020600020905b81546001600160a01b031681526001909101906020018083116106db575b505050505093508280548060200260200160405190810160405280929190818152602001828054801561074b57602002820191906000526020600020905b815481526020019060010190808311610737575b5050505050925081805480602002602001604051908101604052809291908181526020016000905b8282101561081e5760008481526020908190208301805460408051601f600260001961010060018716150201909416939093049283018590048502810185019091528181529283018282801561080a5780601f106107df5761010080835404028352916020019161080a565b820191906000526020600020905b8154815290600101906020018083116107ed57829003601f168201915b505050505081526020019060010190610773565b50505050915080805480602002602001604051908101604052809291908181526020016000905b828210156108f05760008481526020908190208301805460408051601f60026000196101006001871615020190941693909304928301859004850281018501909152818152928301828280156108dc5780601f106108b1576101008083540402835291602001916108dc565b820191906000526020600020905b8154815290600101906020018083116108bf57829003601f168201915b505050505081526020019060010190610845565b5050505090509450945094509450509193509193565b600190565b6000816003541015801561091f5750600082115b61093b5760405162461bcd60e51b81526004016105ac906133ae565b6000828152600460205260409020600b81015460ff1615610960576002915050610a88565b80600701544311610975576000915050610a88565b8060080154431161098a576001915050610a88565b80600a015481600901541115806109ab57506109a4610669565b8160090154105b156109ba576003915050610a88565b60028101546109cd576004915050610a88565b600b810154610100900460ff16156109e9576007915050610a88565b6002810154600054604080516360d143f160e11b81529051610a7293926001600160a01b03169163c1a287e2916004808301926020929190829003018186803b158015610a3557600080fd5b505afa158015610a49573d6000803e3d6000fd5b505050506040513d601f19601f82011682018060405250610a6d91908101906123c6565b611aef565b4210610a82576006915050610a88565b60059150505b919050565b6000610a988261090b565b90506007816007811115610aa857fe5b1415610ac65760405162461bcd60e51b81526004016105ac9061347e565b60008281526004602052604090206002546001600160a01b0316331480610b915750610af0610fb2565b60018054838201546001600160a01b039182169263782d6fe19290911690610b19904390611b1b565b6040518363ffffffff1660e01b8152600401610b36929190613176565b60206040518083038186803b158015610b4e57600080fd5b505afa158015610b62573d6000803e3d6000fd5b505050506040513d601f19601f82011682018060405250610b8691908101906124ff565b6001600160601b0316105b610bad5760405162461bcd60e51b81526004016105ac9061341e565b600b8101805460ff1916600117905560005b6003820154811015610cb9576000546003830180546001600160a01b039092169163591fcdfe919084908110610bf157fe5b6000918252602090912001546004850180546001600160a01b039092169185908110610c1957fe5b9060005260206000200154856005018581548110610c3357fe5b90600052602060002001866006018681548110610c4c57fe5b9060005260206000200187600201546040518663ffffffff1660e01b8152600401610c7b959493929190613213565b600060405180830381600087803b158015610c9557600080fd5b505af1158015610ca9573d6000803e3d6000fd5b505060019092019150610bbf9050565b507f789cf55be980739dad1d0699b93b58e806b51c9d96619bfa8fe0a28abaa7b30c83604051610ce991906132a1565b60405180910390a1505050565b6002546001600160a01b031681565b6000604051610d13906130e8565b604080519182900382208282019091526017825276436f6d706f756e6420476f7665726e6f7220416c70686160481b6020909201919091527ff5eb22c2e7100465020c98b00537528808db4fec6eb24c550685a92742247bc5610d74611b43565b30604051602001610d8894939291906132af565b6040516020818303038152906040528051906020012090506000604051610dae906130f3565b604051908190038120610dc791899089906020016132e4565b60405160208183030381529060405280519060200120905060008282604051602001610df49291906130b7565b604051602081830303815290604052805190602001209050600060018288888860405160008152602001604052604051610e31949392919061330c565b6020604051602081039080840390855afa158015610e53573d6000803e3d6000fd5b5050604051601f1901519150506001600160a01b038116610e865760405162461bcd60e51b81526004016105ac9061345e565b610e91818a8a611926565b505050505050505050565b6002546001600160a01b03163314610ec65760405162461bcd60e51b81526004016105ac906134ae565b600280546001600160a01b0319169055565b600a90565b6002546001600160a01b03163314610f075760405162461bcd60e51b81526004016105ac906133de565b600080546040516001600160a01b0390911691633a66f90191839190610f319087906020016130fe565b604051602081830303815290604052856040518563ffffffff1660e01b8152600401610f609493929190613127565b602060405180830381600087803b158015610f7a57600080fd5b505af1158015610f8e573d6000803e3d6000fd5b505050506040513d601f19601f8201168201806040525061066491908101906123c6565b69152d02c7e14af680000090565b6002546001600160a01b03163314610fea5760405162461bcd60e51b81526004016105ac9061336e565b6000805460408051630e18b68160e01b815290516001600160a01b0390921692630e18b6819260048084019382900301818387803b15801561102b57600080fd5b505af115801561103f573d6000803e3d6000fd5b50505050565b6000546001600160a01b031681565b60035481565b6000611064610fb2565b600180546001600160a01b03169063782d6fe1903390611085904390611b1b565b6040518363ffffffff1660e01b81526004016110a292919061310c565b60206040518083038186803b1580156110ba57600080fd5b505afa1580156110ce573d6000803e3d6000fd5b505050506040513d601f19601f820116820180604052506110f291908101906124ff565b6001600160601b0316116111185760405162461bcd60e51b81526004016105ac9061344e565b8451865114801561112a575083518651145b8015611137575082518651145b6111535760405162461bcd60e51b81526004016105ac9061340e565b85516111715760405162461bcd60e51b81526004016105ac9061343e565b611179610ed8565b865111156111995760405162461bcd60e51b81526004016105ac906133ee565b3360009081526005602052604090205480156112165760006111ba8261090b565b905060018160078111156111ca57fe5b14156111e85760405162461bcd60e51b81526004016105ac9061346e565b60008160078111156111f657fe5b14156112145760405162461bcd60e51b81526004016105ac906133ce565b505b600061122443610a6d610906565b9050600061123482610a6d610501565b6003805460010190559050611247611ca6565b604051806101a001604052806003548152602001336001600160a01b03168152602001600081526020018b81526020018a815260200189815260200188815260200184815260200183815260200160008152602001600081526020016000151581526020016000151581525090508060046000836000015181526020019081526020016000206000820151816000015560208201518160010160006101000a8154816001600160a01b0302191690836001600160a01b0316021790555060408201518160020155606082015181600301908051906020019061132a929190611d1b565b5060808201518051611346916004840191602090910190611d80565b5060a08201518051611362916005840191602090910190611dc7565b5060c0820151805161137e916006840191602090910190611e20565b5060e082015181600701556101008201518160080155610120820151816009015561014082015181600a015561016082015181600b0160006101000a81548160ff02191690831515021790555061018082015181600b0160016101000a81548160ff02191690831515021790555090505080600001516005600083602001516001600160a01b03166001600160a01b03168152602001908152602001600020819055507f7d84a6263ae0d98d3329bd7b46bb4e8d6f98cd35a7adb45c274c8b7fd5ebd5e08160000151338c8c8c8c89898e604051611464999897969594939291906134cc565b60405180910390a15193505050505b95945050505050565b60046114878261090b565b600781111561149257fe5b146114af5760405162461bcd60e51b81526004016105ac9061337e565b600081815260046020818152604080842084548251630d48571f60e31b815292519195946115049442946001600160a01b0390931693636a42b8f8938084019390829003018186803b158015610a3557600080fd5b905060005b60038301548110156116ac576116a483600301828154811061152757fe5b6000918252602090912001546004850180546001600160a01b03909216918490811061154f57fe5b906000526020600020015485600501848154811061156957fe5b600091825260209182902001805460408051601f60026000196101006001871615020190941693909304928301859004850281018501909152818152928301828280156115f75780601f106115cc576101008083540402835291602001916115f7565b820191906000526020600020905b8154815290600101906020018083116115da57829003601f168201915b505050505086600601858154811061160b57fe5b600091825260209182902001805460408051601f60026000196101006001871615020190941693909304928301859004850281018501909152818152928301828280156116995780601f1061166e57610100808354040283529160200191611699565b820191906000526020600020905b81548152906001019060200180831161167c57829003601f168201915b505050505086611b47565b600101611509565b50600282018190556040517f9a2e42fd6722813d69113e7d0079d3d940171428df7373df9c7f7617cfda289290610ce990859084906135fa565b604051610577906130f3565b6116fa611e79565b5060008281526004602090815260408083206001600160a01b0385168452600c018252918290208251606081018452905460ff80821615158352610100820416151592820192909252620100009091046001600160601b0316918101919091525b92915050565b600561176c8261090b565b600781111561177757fe5b146117945760405162461bcd60e51b81526004016105ac9061338e565b6000818152600460205260408120600b8101805461ff001916610100179055905b60038201548110156118ea576000546004830180546001600160a01b0390921691630825f38f9190849081106117e757fe5b906000526020600020015484600301848154811061180157fe5b6000918252602090912001546004860180546001600160a01b03909216918690811061182957fe5b906000526020600020015486600501868154811061184357fe5b9060005260206000200187600601878154811061185c57fe5b9060005260206000200188600201546040518763ffffffff1660e01b815260040161188b959493929190613213565b6000604051808303818588803b1580156118a457600080fd5b505af11580156118b8573d6000803e3d6000fd5b50505050506040513d6000823e601f3d908101601f191682016040526118e191908101906123e4565b506001016117b5565b507f712ae1383f79ac853f8d882153778e0260ef8f03b504e2866e0593e04d2b291f8260405161191a91906132a1565b60405180910390a15050565b60016119318361090b565b600781111561193c57fe5b146119595760405162461bcd60e51b81526004016105ac9061348e565b60008281526004602090815260408083206001600160a01b0387168452600c8101909252909120805460ff16156119a25760405162461bcd60e51b81526004016105ac906133be565b600154600783015460405163782d6fe160e01b81526000926001600160a01b03169163782d6fe1916119d8918a91600401613176565b60206040518083038186803b1580156119f057600080fd5b505afa158015611a04573d6000803e3d6000fd5b505050506040513d601f19601f82011682018060405250611a2891908101906124ff565b90508315611a5157611a478360090154826001600160601b0316611aef565b6009840155611a6e565b611a6883600a0154826001600160601b0316611aef565b600a8401555b8154600160ff199091161761ff00191661010085151502176dffffffffffffffffffffffff00001916620100006001600160601b038316021782556040517f877856338e13f63d0c36822ff0ef736b80934cd90574a3a5bc9262c39d217c4690611adf908890889088908690613184565b60405180910390a1505050505050565b600082820183811015611b145760405162461bcd60e51b81526004016105ac906133fe565b9392505050565b600082821115611b3d5760405162461bcd60e51b81526004016105ac9061349e565b50900390565b4690565b6000546040516001600160a01b039091169063f2b0653790611b7590889088908890889088906020016131b9565b604051602081830303815290604052805190602001206040518263ffffffff1660e01b8152600401611ba791906132a1565b60206040518083038186803b158015611bbf57600080fd5b505afa158015611bd3573d6000803e3d6000fd5b505050506040513d601f19601f82011682018060405250611bf791908101906123a8565b15611c145760405162461bcd60e51b81526004016105ac9061342e565b600054604051633a66f90160e01b81526001600160a01b0390911690633a66f90190611c4c90889088908890889088906004016131b9565b602060405180830381600087803b158015611c6657600080fd5b505af1158015611c7a573d6000803e3d6000fd5b505050506040513d601f19601f82011682018060405250611c9e91908101906123c6565b505050505050565b604051806101a001604052806000815260200160006001600160a01b031681526020016000815260200160608152602001606081526020016060815260200160608152602001600081526020016000815260200160008152602001600081526020016000151581526020016000151581525090565b828054828255906000526020600020908101928215611d70579160200282015b82811115611d7057825182546001600160a01b0319166001600160a01b03909116178255602090920191600190910190611d3b565b50611d7c929150611e99565b5090565b828054828255906000526020600020908101928215611dbb579160200282015b82811115611dbb578251825591602001919060010190611da0565b50611d7c929150611ebd565b828054828255906000526020600020908101928215611e14579160200282015b82811115611e145782518051611e04918491602090910190611ed7565b5091602001919060010190611de7565b50611d7c929150611f44565b828054828255906000526020600020908101928215611e6d579160200282015b82811115611e6d5782518051611e5d918491602090910190611ed7565b5091602001919060010190611e40565b50611d7c929150611f67565b604080516060810182526000808252602082018190529181019190915290565b61050591905b80821115611d7c5780546001600160a01b0319168155600101611e9f565b61050591905b80821115611d7c5760008155600101611ec3565b828054600181600116156101000203166002900490600052602060002090601f016020900481019282601f10611f1857805160ff1916838001178555611dbb565b82800160010185558215611dbb5791820182811115611dbb578251825591602001919060010190611da0565b61050591905b80821115611d7c576000611f5e8282611f8a565b50600101611f4a565b61050591905b80821115611d7c576000611f818282611f8a565b50600101611f6d565b50805460018160011615610100020316600290046000825580601f10611fb05750611fce565b601f016020900490600052602060002090810190611fce9190611ebd565b50565b803561175b8161374e565b600082601f830112611fed57600080fd5b8135612000611ffb8261362f565b613608565b9150818183526020840193506020810190508385602084028201111561202557600080fd5b60005b83811015612051578161203b8882611fd1565b8452506020928301929190910190600101612028565b5050505092915050565b600082601f83011261206c57600080fd5b813561207a611ffb8261362f565b81815260209384019390925082018360005b8381101561205157813586016120a288826121b1565b845250602092830192919091019060010161208c565b600082601f8301126120c957600080fd5b81356120d7611ffb8261362f565b81815260209384019390925082018360005b8381101561205157813586016120ff88826121b1565b84525060209283019291909101906001016120e9565b600082601f83011261212657600080fd5b8135612134611ffb8261362f565b9150818183526020840193506020810190508385602084028201111561215957600080fd5b60005b83811015612051578161216f888261219b565b845250602092830192919091019060010161215c565b803561175b81613762565b805161175b81613762565b803561175b8161376b565b805161175b8161376b565b600082601f8301126121c257600080fd5b81356121d0611ffb82613650565b915080825260208301602083018583830111156121ec57600080fd5b6121f7838284613702565b50505092915050565b600082601f83011261221157600080fd5b815161221f611ffb82613650565b9150808252602083016020830185838301111561223b57600080fd5b6121f783828461370e565b803561175b81613774565b805161175b8161377d565b60006020828403121561226e57600080fd5b600061227a8484611fd1565b949350505050565b6000806040838503121561229557600080fd5b60006122a18585611fd1565b92505060206122b28582860161219b565b9150509250929050565b600080600080600060a086880312156122d457600080fd5b853567ffffffffffffffff8111156122eb57600080fd5b6122f788828901611fdc565b955050602086013567ffffffffffffffff81111561231457600080fd5b61232088828901612115565b945050604086013567ffffffffffffffff81111561233d57600080fd5b612349888289016120b8565b935050606086013567ffffffffffffffff81111561236657600080fd5b6123728882890161205b565b925050608086013567ffffffffffffffff81111561238f57600080fd5b61239b888289016121b1565b9150509295509295909350565b6000602082840312156123ba57600080fd5b600061227a8484612190565b6000602082840312156123d857600080fd5b600061227a84846121a6565b6000602082840312156123f657600080fd5b815167ffffffffffffffff81111561240d57600080fd5b61227a84828501612200565b60006020828403121561242b57600080fd5b600061227a848461219b565b6000806040838503121561244a57600080fd5b6000612456858561219b565b92505060206122b285828601611fd1565b6000806040838503121561247a57600080fd5b6000612486858561219b565b92505060206122b285828601612185565b600080600080600060a086880312156124af57600080fd5b60006124bb888861219b565b95505060206124cc88828901612185565b94505060406124dd88828901612246565b93505060606124ee8882890161219b565b925050608061239b8882890161219b565b60006020828403121561251157600080fd5b600061227a8484612251565b60006125298383612558565b505060200190565b6000611b1483836126fa565b600061252983836126e0565b612552816136cf565b82525050565b61255281613697565b600061256c8261368a565b612576818561368e565b935061258183613678565b8060005b838110156125af578151612599888261251d565b97506125a483613678565b925050600101612585565b509495945050505050565b60006125c58261368a565b6125cf818561368e565b9350836020820285016125e185613678565b8060005b8581101561261b57848403895281516125fe8582612531565b945061260983613678565b60209a909a01999250506001016125e5565b5091979650505050505050565b60006126338261368a565b61263d818561368e565b93508360208202850161264f85613678565b8060005b8581101561261b578484038952815161266c8582612531565b945061267783613678565b60209a909a0199925050600101612653565b60006126948261368a565b61269e818561368e565b93506126a983613678565b8060005b838110156125af5781516126c1888261253d565b97506126cc83613678565b9250506001016126ad565b612552816136a2565b61255281610505565b6125526126f582610505565b610505565b60006127058261368a565b61270f818561368e565b935061271f81856020860161370e565b6127288161373a565b9093019392505050565b60008154600181166000811461274f5760018114612775576127b4565b607f6002830416612760818761368e565b60ff19841681529550506020850192506127b4565b60028204612783818761368e565b955061278e8561367e565b60005b828110156127ad57815488820152600190910190602001612791565b8701945050505b505092915050565b612552816136d6565b612552816136e1565b612552816136ec565b60006127e460398361368e565b7f476f7665726e6f72416c7068613a3a5f5f61636365707441646d696e3a20736581527f6e646572206d75737420626520676f7620677561726469616e00000000000000602082015260400192915050565b600061284360448361368e565b7f476f7665726e6f72416c7068613a3a71756575653a2070726f706f73616c206381527f616e206f6e6c79206265207175657565642069662069742069732073756363656020820152631959195960e21b604082015260600192915050565b60006128af60458361368e565b7f476f7665726e6f72416c7068613a3a657865637574653a2070726f706f73616c81527f2063616e206f6e6c7920626520657865637574656420696620697420697320716020820152641d595d595960da1b604082015260600192915050565b600061291c600283610a88565b61190160f01b815260020192915050565b600061293a604c8361368e565b7f476f7665726e6f72416c7068613a3a5f5f6578656375746553657454696d656c81527f6f636b50656e64696e6741646d696e3a2073656e646572206d7573742062652060208201526b33b7bb1033bab0b93234b0b760a11b604082015260600192915050565b60006129ae60188361368e565b7773657450656e64696e6741646d696e28616464726573732960401b815260200192915050565b60006129e260298361368e565b7f476f7665726e6f72416c7068613a3a73746174653a20696e76616c69642070728152681bdc1bdcd85b081a5960ba1b602082015260400192915050565b6000612a2d602d8361368e565b7f476f7665726e6f72416c7068613a3a5f63617374566f74653a20766f7465722081526c185b1c9958591e481d9bdd1959609a1b602082015260400192915050565b6000612a7c60598361368e565b7f476f7665726e6f72416c7068613a3a70726f706f73653a206f6e65206c69766581527f2070726f706f73616c207065722070726f706f7365722c20666f756e6420616e60208201527f20616c72656164792070656e64696e672070726f706f73616c00000000000000604082015260600192915050565b6000612b01604a8361368e565b7f476f7665726e6f72416c7068613a3a5f5f717565756553657454696d656c6f6381527f6b50656e64696e6741646d696e3a2073656e646572206d75737420626520676f6020820152693b1033bab0b93234b0b760b11b604082015260600192915050565b6000612b7360288361368e565b7f476f7665726e6f72416c7068613a3a70726f706f73653a20746f6f206d616e7981526720616374696f6e7360c01b602082015260400192915050565b6000612bbd60118361368e565b706164646974696f6e206f766572666c6f7760781b815260200192915050565b6000612bea604383610a88565b7f454950373132446f6d61696e28737472696e67206e616d652c75696e7432353681527f20636861696e49642c6164647265737320766572696679696e67436f6e74726160208201526263742960e81b604082015260430192915050565b6000612c55602783610a88565b7f42616c6c6f742875696e743235362070726f706f73616c49642c626f6f6c20738152667570706f72742960c81b602082015260270192915050565b6000612c9e60448361368e565b7f476f7665726e6f72416c7068613a3a70726f706f73653a2070726f706f73616c81527f2066756e6374696f6e20696e666f726d6174696f6e206172697479206d69736d6020820152630c2e8c6d60e31b604082015260600192915050565b6000612d0a602f8361368e565b7f476f7665726e6f72416c7068613a3a63616e63656c3a2070726f706f7365722081526e18589bdd99481d1a1c995cda1bdb19608a1b602082015260400192915050565b6000612d5b60448361368e565b7f476f7665726e6f72416c7068613a3a5f71756575654f725265766572743a207081527f726f706f73616c20616374696f6e20616c7265616479207175657565642061746020820152632065746160e01b604082015260600192915050565b6000612dc7602c8361368e565b7f476f7665726e6f72416c7068613a3a70726f706f73653a206d7573742070726f81526b7669646520616374696f6e7360a01b602082015260400192915050565b6000612e15603f8361368e565b7f476f7665726e6f72416c7068613a3a70726f706f73653a2070726f706f73657281527f20766f7465732062656c6f772070726f706f73616c207468726573686f6c6400602082015260400192915050565b6000612e74602f8361368e565b7f476f7665726e6f72416c7068613a3a63617374566f746542795369673a20696e81526e76616c6964207369676e617475726560881b602082015260400192915050565b6000612ec560588361368e565b7f476f7665726e6f72416c7068613a3a70726f706f73653a206f6e65206c69766581527f2070726f706f73616c207065722070726f706f7365722c20666f756e6420616e60208201527708185b1c9958591e481858dd1a5d99481c1c9bdc1bdcd85b60421b604082015260600192915050565b6000612f4560368361368e565b7f476f7665726e6f72416c7068613a3a63616e63656c3a2063616e6e6f742063618152751b98d95b08195e1958dd5d1959081c1c9bdc1bdcd85b60521b602082015260400192915050565b6000612f9d602a8361368e565b7f476f7665726e6f72416c7068613a3a5f63617374566f74653a20766f74696e67815269081a5cc818db1bdcd95960b21b602082015260400192915050565b6000612fe960158361368e565b747375627472616374696f6e20756e646572666c6f7760581b815260200192915050565b600061301a60368361368e565b7f476f7665726e6f72416c7068613a3a5f5f61626469636174653a2073656e6465815275391036bab9ba1031329033b7bb1033bab0b93234b0b760511b602082015260400192915050565b8051606083019061307684826126d7565b50602082015161308960208501826126d7565b50604082015161103f60408501826130ae565b612552816136bd565b612552816136f7565b612552816136c3565b60006130c28261290f565b91506130ce82856126e9565b6020820191506130de82846126e9565b5060200192915050565b600061175b82612bdd565b600061175b82612c48565b6020810161175b8284612558565b6040810161311a8285612549565b611b1460208301846126e0565b60a081016131358287612558565b61314260208301866127ce565b8181036040830152613153816129a1565b9050818103606083015261316781856126fa565b905061147360808301846126e0565b6040810161311a8285612558565b608081016131928287612558565b61319f60208301866126e0565b6131ac60408301856126d7565b61147360608301846130a5565b60a081016131c78288612558565b6131d460208301876126e0565b81810360408301526131e681866126fa565b905081810360608301526131fa81856126fa565b905061320960808301846126e0565b9695505050505050565b60a081016132218288612558565b61322e60208301876126e0565b81810360408301526132408186612732565b905081810360608301526131fa8185612732565b608080825281016132658187612561565b905081810360208301526132798186612689565b9050818103604083015261328d8185612628565b9050818103606083015261320981846125ba565b6020810161175b82846126e0565b608081016132bd82876126e0565b6132ca60208301866126e0565b6132d760408301856126e0565b6114736060830184612558565b606081016132f282866126e0565b6132ff60208301856126e0565b61227a60408301846126d7565b6080810161331a82876126e0565b613327602083018661309c565b61333460408301856126e0565b61147360608301846126e0565b6020810161175b82846127bc565b6020810161175b82846127c5565b60208082528101611b1481846126fa565b6020808252810161175b816127d7565b6020808252810161175b81612836565b6020808252810161175b816128a2565b6020808252810161175b8161292d565b6020808252810161175b816129d5565b6020808252810161175b81612a20565b6020808252810161175b81612a6f565b6020808252810161175b81612af4565b6020808252810161175b81612b66565b6020808252810161175b81612bb0565b6020808252810161175b81612c91565b6020808252810161175b81612cfd565b6020808252810161175b81612d4e565b6020808252810161175b81612dba565b6020808252810161175b81612e08565b6020808252810161175b81612e67565b6020808252810161175b81612eb8565b6020808252810161175b81612f38565b6020808252810161175b81612f90565b6020808252810161175b81612fdc565b6020808252810161175b8161300d565b6060810161175b8284613065565b61012081016134db828c6126e0565b6134e8602083018b612549565b81810360408301526134fa818a612561565b9050818103606083015261350e8189612689565b905081810360808301526135228188612628565b905081810360a083015261353681876125ba565b905061354560c08301866126e0565b61355260e08301856126e0565b81810361010083015261356581846126fa565b9b9a5050505050505050505050565b6101208101613583828c6126e0565b613590602083018b612558565b61359d604083018a6126e0565b6135aa60608301896126e0565b6135b760808301886126e0565b6135c460a08301876126e0565b6135d160c08301866126e0565b6135de60e08301856126d7565b6135ec6101008301846126d7565b9a9950505050505050505050565b6040810161311a82856126e0565b60405181810167ffffffffffffffff8111828210171561362757600080fd5b604052919050565b600067ffffffffffffffff82111561364657600080fd5b5060209081020190565b600067ffffffffffffffff82111561366757600080fd5b506020601f91909101601f19160190565b60200190565b60009081526020902090565b5190565b90815260200190565b600061175b826136b1565b151590565b80610a8881613744565b6001600160a01b031690565b60ff1690565b6001600160601b031690565b600061175b825b600061175b82613697565b600061175b826136a7565b600061175b82610505565b600061175b826136c3565b82818337506000910152565b60005b83811015613729578181015183820152602001613711565b8381111561103f5750506000910152565b601f01601f191690565b60088110611fce57fe5b61375781613697565b8114611fce57600080fd5b613757816136a2565b61375781610505565b613757816136bd565b613757816136c356fea365627a7a72315820327a4f5b6ad6711dfdbff6799851de4332d419a445effe3ac3f8744cc87ed98c6c6578706572696d656e74616cf564736f6c63430005100040",
  "source": "pragma solidity ^0.5.16;\npragma experimental ABIEncoderV2;\n\ncontract GovernorAlpha {\n    /// @notice The name of this contract\n    string public constant name = \"Compound Governor Alpha\";\n\n    /// @notice The number of votes in support of a proposal required in order for a quorum to be reached and for a vote to succeed\n    function quorumVotes() public pure returns (uint) { return 400000e18; } // 400,000 = 4% of Comp\n\n    /// @notice The number of votes required in order for a voter to become a proposer\n    function proposalThreshold() public pure returns (uint) { return 100000e18; } // 100,000 = 1% of Comp\n\n    /// @notice The maximum number of actions that can be included in a proposal\n    function proposalMaxOperations() public pure returns (uint) { return 10; } // 10 actions\n\n    /// @notice The delay before voting on a proposal may take place, once proposed\n    function votingDelay() public pure returns (uint) { return 1; } // 1 block\n\n    /// @notice The duration of voting on a proposal, in blocks\n    function votingPeriod() public pure returns (uint) { return 17280; } // ~3 days in blocks (assuming 15s blocks)\n\n    /// @notice The address of the Compound Protocol Timelock\n    TimelockInterface public timelock;\n\n    /// @notice The address of the Compound governance token\n    CompInterface public comp;\n\n    /// @notice The address of the Governor Guardian\n    address public guardian;\n\n    /// @notice The total number of proposals\n    uint public proposalCount;\n\n    struct Proposal {\n        /// @notice Unique id for looking up a proposal\n        uint id;\n\n        /// @notice Creator of the proposal\n        address proposer;\n\n        /// @notice The timestamp that the proposal will be available for execution, set once the vote succeeds\n        uint eta;\n\n        /// @notice the ordered list of target addresses for calls to be made\n        address[] targets;\n\n        /// @notice The ordered list of values (i.e. msg.value) to be passed to the calls to be made\n        uint[] values;\n\n        /// @notice The ordered list of function signatures to be called\n        string[] signatures;\n\n        /// @notice The ordered list of calldata to be passed to each call\n        bytes[] calldatas;\n\n        /// @notice The block at which voting begins: holders must delegate their votes prior to this block\n        uint startBlock;\n\n        /// @notice The block at which voting ends: votes must be cast prior to this block\n        uint endBlock;\n\n        /// @notice Current number of votes in favor of this proposal\n        uint forVotes;\n\n        /// @notice Current number of votes in opposition to this proposal\n        uint againstVotes;\n\n        /// @notice Flag marking whether the proposal has been canceled\n        bool canceled;\n\n        /// @notice Flag marking whether the proposal has been executed\n        bool executed;\n\n        /// @notice Receipts of ballots for the entire set of voters\n        mapping (address => Receipt) receipts;\n    }\n\n    /// @notice Ballot receipt record for a voter\n    struct Receipt {\n        /// @notice Whether or not a vote has been cast\n        bool hasVoted;\n\n        /// @notice Whether or not the voter supports the proposal\n        bool support;\n\n        /// @notice The number of votes the voter had, which were cast\n        uint96 votes;\n    }\n\n    /// @notice Possible states that a proposal may be in\n    enum ProposalState {\n        Pending,\n        Active,\n        Canceled,\n        Defeated,\n        Succeeded,\n        Queued,\n        Expired,\n        Executed\n    }\n\n    /// @notice The official record of all proposals ever proposed\n    mapping (uint => Proposal) public proposals;\n\n    /// @notice The latest proposal for each proposer\n    mapping (address => uint) public latestProposalIds;\n\n    /// @notice The EIP-712 typehash for the contract's domain\n    bytes32 public constant DOMAIN_TYPEHASH = keccak256(\"EIP712Domain(string name,uint256 chainId,address verifyingContract)\");\n\n    /// @notice The EIP-712 typehash for the ballot struct used by the contract\n    bytes32 public constant BALLOT_TYPEHASH = keccak256(\"Ballot(uint256 proposalId,bool support)\");\n\n    /// @notice An event emitted when a new proposal is created\n    event ProposalCreated(uint id, address proposer, address[] targets, uint[] values, string[] signatures, bytes[] calldatas, uint startBlock, uint endBlock, string description);\n\n    /// @notice An event emitted when a vote has been cast on a proposal\n    event VoteCast(address voter, uint proposalId, bool support, uint votes);\n\n    /// @notice An event emitted when a proposal has been canceled\n    event ProposalCanceled(uint id);\n\n    /// @notice An event emitted when a proposal has been queued in the Timelock\n    event ProposalQueued(uint id, uint eta);\n\n    /// @notice An event emitted when a proposal has been executed in the Timelock\n    event ProposalExecuted(uint id);\n\n    constructor(address timelock_, address comp_, address guardian_) public {\n        timelock = TimelockInterface(timelock_);\n        comp = CompInterface(comp_);\n        guardian = guardian_;\n    }\n\n    function propose(address[] memory targets, uint[] memory values, string[] memory signatures, bytes[] memory calldatas, string memory description) public returns (uint) {\n        require(comp.getPriorVotes(msg.sender, sub256(block.number, 1)) > proposalThreshold(), \"GovernorAlpha::propose: proposer votes below proposal threshold\");\n        require(targets.length == values.length && targets.length == signatures.length && targets.length == calldatas.length, \"GovernorAlpha::propose: proposal function information arity mismatch\");\n        require(targets.length != 0, \"GovernorAlpha::propose: must provide actions\");\n        require(targets.length <= proposalMaxOperations(), \"GovernorAlpha::propose: too many actions\");\n\n        uint latestProposalId = latestProposalIds[msg.sender];\n        if (latestProposalId != 0) {\n          ProposalState proposersLatestProposalState = state(latestProposalId);\n          require(proposersLatestProposalState != ProposalState.Active, \"GovernorAlpha::propose: one live proposal per proposer, found an already active proposal\");\n          require(proposersLatestProposalState != ProposalState.Pending, \"GovernorAlpha::propose: one live proposal per proposer, found an already pending proposal\");\n        }\n\n        uint startBlock = add256(block.number, votingDelay());\n        uint endBlock = add256(startBlock, votingPeriod());\n\n        proposalCount++;\n        Proposal memory newProposal = Proposal({\n            id: proposalCount,\n            proposer: msg.sender,\n            eta: 0,\n            targets: targets,\n            values: values,\n            signatures: signatures,\n            calldatas: calldatas,\n            startBlock: startBlock,\n            endBlock: endBlock,\n            forVotes: 0,\n            againstVotes: 0,\n            canceled: false,\n            executed: false\n        });\n\n        proposals[newProposal.id] = newProposal;\n        latestProposalIds[newProposal.proposer] = newProposal.id;\n\n        emit ProposalCreated(newProposal.id, msg.sender, targets, values, signatures, calldatas, startBlock, endBlock, description);\n        return newProposal.id;\n    }\n\n    function queue(uint proposalId) public {\n        require(state(proposalId) == ProposalState.Succeeded, \"GovernorAlpha::queue: proposal can only be queued if it is succeeded\");\n        Proposal storage proposal = proposals[proposalId];\n        uint eta = add256(block.timestamp, timelock.delay());\n        for (uint i = 0; i < proposal.targets.length; i++) {\n            _queueOrRevert(proposal.targets[i], proposal.values[i], proposal.signatures[i], proposal.calldatas[i], eta);\n        }\n        proposal.eta = eta;\n        emit ProposalQueued(proposalId, eta);\n    }\n\n    function _queueOrRevert(address target, uint value, string memory signature, bytes memory data, uint eta) internal {\n        require(!timelock.queuedTransactions(keccak256(abi.encode(target, value, signature, data, eta))), \"GovernorAlpha::_queueOrRevert: proposal action already queued at eta\");\n        timelock.queueTransaction(target, value, signature, data, eta);\n    }\n\n    function execute(uint proposalId) public payable {\n        require(state(proposalId) == ProposalState.Queued, \"GovernorAlpha::execute: proposal can only be executed if it is queued\");\n        Proposal storage proposal = proposals[proposalId];\n        proposal.executed = true;\n        for (uint i = 0; i < proposal.targets.length; i++) {\n            timelock.executeTransaction.value(proposal.values[i])(proposal.targets[i], proposal.values[i], proposal.signatures[i], proposal.calldatas[i], proposal.eta);\n        }\n        emit ProposalExecuted(proposalId);\n    }\n\n    function cancel(uint proposalId) public {\n        ProposalState state = state(proposalId);\n        require(state != ProposalState.Executed, \"GovernorAlpha::cancel: cannot cancel executed proposal\");\n\n        Proposal storage proposal = proposals[proposalId];\n        require(msg.sender == guardian || comp.getPriorVotes(proposal.proposer, sub256(block.number, 1)) < proposalThreshold(), \"GovernorAlpha::cancel: proposer above threshold\");\n\n        proposal.canceled = true;\n        for (uint i = 0; i < proposal.targets.length; i++) {\n            timelock.cancelTransaction(proposal.targets[i], proposal.values[i], proposal.signatures[i], proposal.calldatas[i], proposal.eta);\n        }\n\n        emit ProposalCanceled(proposalId);\n    }\n\n    function getActions(uint proposalId) public view returns (address[] memory targets, uint[] memory values, string[] memory signatures, bytes[] memory calldatas) {\n        Proposal storage p = proposals[proposalId];\n        return (p.targets, p.values, p.signatures, p.calldatas);\n    }\n\n    function getReceipt(uint proposalId, address voter) public view returns (Receipt memory) {\n        return proposals[proposalId].receipts[voter];\n    }\n\n    function state(uint proposalId) public view returns (ProposalState) {\n        require(proposalCount >= proposalId && proposalId > 0, \"GovernorAlpha::state: invalid proposal id\");\n        Proposal storage proposal = proposals[proposalId];\n        if (proposal.canceled) {\n            return ProposalState.Canceled;\n        } else if (block.number <= proposal.startBlock) {\n            return ProposalState.Pending;\n        } else if (block.number <= proposal.endBlock) {\n            return ProposalState.Active;\n        } else if (proposal.forVotes <= proposal.againstVotes || proposal.forVotes < quorumVotes()) {\n            return ProposalState.Defeated;\n        } else if (proposal.eta == 0) {\n            return ProposalState.Succeeded;\n        } else if (proposal.executed) {\n            return ProposalState.Executed;\n        } else if (block.timestamp >= add256(proposal.eta, timelock.GRACE_PERIOD())) {\n            return ProposalState.Expired;\n        } else {\n            return ProposalState.Queued;\n        }\n    }\n\n    function castVote(uint proposalId, bool support) public {\n        return _castVote(msg.sender, proposalId, support);\n    }\n\n    function castVoteBySig(uint proposalId, bool support, uint8 v, bytes32 r, bytes32 s) public {\n        bytes32 domainSeparator = keccak256(abi.encode(DOMAIN_TYPEHASH, keccak256(bytes(name)), getChainId(), address(this)));\n        bytes32 structHash = keccak256(abi.encode(BALLOT_TYPEHASH, proposalId, support));\n        bytes32 digest = keccak256(abi.encodePacked(\"\\x19\\x01\", domainSeparator, structHash));\n        address signatory = ecrecover(digest, v, r, s);\n        require(signatory != address(0), \"GovernorAlpha::castVoteBySig: invalid signature\");\n        return _castVote(signatory, proposalId, support);\n    }\n\n    function _castVote(address voter, uint proposalId, bool support) internal {\n        require(state(proposalId) == ProposalState.Active, \"GovernorAlpha::_castVote: voting is closed\");\n        Proposal storage proposal = proposals[proposalId];\n        Receipt storage receipt = proposal.receipts[voter];\n        require(receipt.hasVoted == false, \"GovernorAlpha::_castVote: voter already voted\");\n        uint96 votes = comp.getPriorVotes(voter, proposal.startBlock);\n\n        if (support) {\n            proposal.forVotes = add256(proposal.forVotes, votes);\n        } else {\n            proposal.againstVotes = add256(proposal.againstVotes, votes);\n        }\n\n        receipt.hasVoted = true;\n        receipt.support = support;\n        receipt.votes = votes;\n\n        emit VoteCast(voter, proposalId, support, votes);\n    }\n\n    function __acceptAdmin() public {\n        require(msg.sender == guardian, \"GovernorAlpha::__acceptAdmin: sender must be gov guardian\");\n        timelock.acceptAdmin();\n    }\n\n    function __abdicate() public {\n        require(msg.sender == guardian, \"GovernorAlpha::__abdicate: sender must be gov guardian\");\n        guardian = address(0);\n    }\n\n    function __queueSetTimelockPendingAdmin(address newPendingAdmin, uint eta) public {\n        require(msg.sender == guardian, \"GovernorAlpha::__queueSetTimelockPendingAdmin: sender must be gov guardian\");\n        timelock.queueTransaction(address(timelock), 0, \"setPendingAdmin(address)\", abi.encode(newPendingAdmin), eta);\n    }\n\n    function __executeSetTimelockPendingAdmin(address newPendingAdmin, uint eta) public {\n        require(msg.sender == guardian, \"GovernorAlpha::__executeSetTimelockPendingAdmin: sender must be gov guardian\");\n        timelock.executeTransaction(address(timelock), 0, \"setPendingAdmin(address)\", abi.encode(newPendingAdmin), eta);\n    }\n\n    function add256(uint256 a, uint256 b) internal pure returns (uint) {\n        uint c = a + b;\n        require(c >= a, \"addition overflow\");\n        return c;\n    }\n\n    function sub256(uint256 a, uint256 b) internal pure returns (uint) {\n        require(b <= a, \"subtraction underflow\");\n        return a - b;\n    }\n\n    function getChainId() internal pure returns (uint) {\n        uint chainId;\n        assembly { chainId := chainid() }\n        return chainId;\n    }\n}\n\ninterface TimelockInterface {\n    function delay() external view returns (uint);\n    function GRACE_PERIOD() external view returns (uint);\n    function acceptAdmin() external;\n    function queuedTransactions(bytes32 hash) external view returns (bool);\n    function queueTransaction(address target, uint value, string calldata signature, bytes calldata data, uint eta) external returns (bytes32);\n    function cancelTransaction(address target, uint value, string calldata signature, bytes calldata data, uint eta) external;\n    function executeTransaction(address target, uint value, string calldata signature, bytes calldata data, uint eta) external payable returns (bytes memory);\n}\n\ninterface CompInterface {\n    function getPriorVotes(address account, uint blockNumber) external view returns (uint96);\n}\n",
  "sourcePath": "/home/stan36/repos/Askolend/AskoLend-contracts/contracts/compound/Governance/GovernorAlpha.sol",
  "compiler": {
    "name": "solc",
    "version": "0.5.16+commit.9c3226ce.Emscripten.clang"
  },
  "schemaVersion": "3.2.5",
  "updatedAt": "2020-09-26T04:13:39.272Z",
  "devdoc": {
    "methods": {}
  },
  "userdoc": {
    "methods": {
      "proposalMaxOperations()": {
        "notice": "The maximum number of actions that can be included in a proposal"
      },
      "proposalThreshold()": {
        "notice": "The number of votes required in order for a voter to become a proposer"
      },
      "quorumVotes()": {
        "notice": "The number of votes in support of a proposal required in order for a quorum to be reached and for a vote to succeed"
      },
      "votingDelay()": {
        "notice": "The delay before voting on a proposal may take place, once proposed"
      },
      "votingPeriod()": {
        "notice": "The duration of voting on a proposal, in blocks"
      }
    }
  }
}