{
  "contractName": "MoneyMarketFactory",
  "abi": [
    {
      "anonymous": false,
      "inputs": [
        {
          "indexed": true,
          "internalType": "address",
          "name": "previousOwner",
          "type": "address"
        },
        {
          "indexed": true,
          "internalType": "address",
          "name": "newOwner",
          "type": "address"
        }
      ],
      "name": "OwnershipTransferred",
      "type": "event"
    },
    {
      "inputs": [],
      "name": "owner",
      "outputs": [
        {
          "internalType": "address",
          "name": "",
          "type": "address"
        }
      ],
      "stateMutability": "view",
      "type": "function",
      "constant": true
    },
    {
      "inputs": [],
      "name": "renounceOwnership",
      "outputs": [],
      "stateMutability": "nonpayable",
      "type": "function"
    },
    {
      "inputs": [
        {
          "internalType": "address",
          "name": "newOwner",
          "type": "address"
        }
      ],
      "name": "transferOwnership",
      "outputs": [],
      "stateMutability": "nonpayable",
      "type": "function"
    },
    {
      "inputs": [
        {
          "internalType": "address",
          "name": "_assetContractAdd",
          "type": "address"
        },
        {
          "internalType": "address",
          "name": "_oracleFactory",
          "type": "address"
        },
        {
          "internalType": "address",
          "name": "_owner",
          "type": "address"
        },
        {
          "internalType": "address",
          "name": "_ARTF",
          "type": "address"
        },
        {
          "internalType": "uint256",
          "name": "_collatRatio",
          "type": "uint256"
        },
        {
          "internalType": "string",
          "name": "_assetName",
          "type": "string"
        },
        {
          "internalType": "string",
          "name": "_assetSymbol",
          "type": "string"
        }
      ],
      "name": "createMMI",
      "outputs": [
        {
          "internalType": "address",
          "name": "",
          "type": "address"
        }
      ],
      "stateMutability": "nonpayable",
      "type": "function"
    }
  ],
  "bytecode": "0x608060405260006100176001600160e01b0361006616565b600080546001600160a01b0319166001600160a01b0383169081178255604051929350917f8be0079c531659141344cd1fd0a4f28419497f9722a3daafe3b4186f6b6457e0908290a35061006a565b3390565b6142f3806100796000396000f3fe608060405234801561001057600080fd5b506004361061004c5760003560e01c8063715018a6146100515780638da5cb5b1461005b578063d0175d711461007f578063f2fde38b146101d9575b600080fd5b6100596101ff565b005b6100636102c0565b604080516001600160a01b039092168252519081900360200190f35b610063600480360360e081101561009557600080fd5b6001600160a01b038235811692602081013582169260408201358316926060830135169160808101359181019060c0810160a08201356401000000008111156100dd57600080fd5b8201836020820111156100ef57600080fd5b8035906020019184600183028401116401000000008311171561011157600080fd5b91908080601f016020809104026020016040519081016040528093929190818152602001838380828437600092019190915250929594936020810193503591505064010000000081111561016457600080fd5b82018360208201111561017657600080fd5b8035906020019184600183028401116401000000008311171561019857600080fd5b91908080601f0160208091040260200160405190810160405280939291908181526020018383808284376000920191909152509295506102cf945050505050565b610059600480360360208110156101ef57600080fd5b50356001600160a01b031661041a565b610207610531565b6000546001600160a01b03908116911614610269576040805162461bcd60e51b815260206004820181905260248201527f4f776e61626c653a2063616c6c6572206973206e6f7420746865206f776e6572604482015290519081900360640190fd5b600080546040516001600160a01b03909116907f8be0079c531659141344cd1fd0a4f28419497f9722a3daafe3b4186f6b6457e0908390a36000805473ffffffffffffffffffffffffffffffffffffffff19169055565b6000546001600160a01b031690565b600080888888888888886040516102e590610535565b6001600160a01b038089168252878116602080840191909152878216604084015290861660608301526080820185905260e060a083018181528551918401919091528451909160c084019161010085019187019080838360005b8381101561035757818101518382015260200161033f565b50505050905090810190601f1680156103845780820380516001836020036101000a031916815260200191505b50838103825284518152845160209182019186019080838360005b838110156103b757818101518382015260200161039f565b50505050905090810190601f1680156103e45780820380516001836020036101000a031916815260200191505b509950505050505050505050604051809103906000f08015801561040c573d6000803e3d6000fd5b509998505050505050505050565b610422610531565b6000546001600160a01b03908116911614610484576040805162461bcd60e51b815260206004820181905260248201527f4f776e61626c653a2063616c6c6572206973206e6f7420746865206f776e6572604482015290519081900360640190fd5b6001600160a01b0381166104c95760405162461bcd60e51b81526004018080602001828103825260268152602001806142986026913960400191505060405180910390fd5b600080546040516001600160a01b03808516939216917f8be0079c531659141344cd1fd0a4f28419497f9722a3daafe3b4186f6b6457e091a36000805473ffffffffffffffffffffffffffffffffffffffff19166001600160a01b0392909216919091179055565b3390565b613d55806105438339019056fe60806040523480156200001157600080fd5b5060405162003d5538038062003d55833981810160405260e08110156200003757600080fd5b815160208301516040808501516060860151608087015160a0880180519451969895979396929591949293820192846401000000008211156200007957600080fd5b9083019060208201858111156200008f57600080fd5b8251640100000000811182820188101715620000aa57600080fd5b82525081516020918201929091019080838360005b83811015620000d9578181015183820152602001620000bf565b50505050905090810190601f168015620001075780820380516001836020036101000a031916815260200191505b50604052602001805160405193929190846401000000008211156200012b57600080fd5b9083019060208201858111156200014157600080fd5b82516401000000008111828201881017156200015c57600080fd5b82525081516020918201929091019080838360005b838110156200018b57818101518382015260200162000171565b50505050905090810190601f168015620001b95780820380516001836020036101000a031916815260200191505b506040525050506000620001d2620002b160201b60201c565b600080546001600160a01b0319166001600160a01b03831690811782556040519293509160008051602062003d35833981519152908290a3506001805561271060025581516200022a906006906020850190620003bd565b50805162000240906007906020840190620003bd565b506003839055600c80546001600160a01b038089166001600160a01b031992831617909255600b8054888416908316179055600880548a8416908316179055600d805492871692909116919091179055620002a4856001600160e01b03620002b616565b505050505050506200045f565b335b90565b620002c96001600160e01b03620002b116565b6000546001600160a01b039081169116146200032c576040805162461bcd60e51b815260206004820181905260248201527f4f776e61626c653a2063616c6c6572206973206e6f7420746865206f776e6572604482015290519081900360640190fd5b6001600160a01b038116620003735760405162461bcd60e51b815260040180806020018281038252602681526020018062003d0f6026913960400191505060405180910390fd5b600080546040516001600160a01b038085169392169160008051602062003d3583398151915291a3600080546001600160a01b0319166001600160a01b0392909216919091179055565b828054600181600116156101000203166002900490600052602060002090601f016020900481019282601f106200040057805160ff191683800117855562000430565b8280016001018555821562000430579182015b828111156200043057825182559160200191906001019062000413565b506200043e92915062000442565b5090565b620002b391905b808211156200043e576000815560010162000449565b6138a0806200046f6000396000f3fe608060405234801561001057600080fd5b50600436106102415760003560e01c80636ccdd9f711610145578063a1039b7e116100bd578063c9230c5d1161008c578063d162054a11610071578063d162054a146105ff578063d6b9b5d914610607578063f2fde38b1461062457610241565b8063c9230c5d146105da578063cf0aea85146105e257610241565b8063a1039b7e14610558578063ac9790281461057e578063b451bb2e146105ac578063c27d4df3146105d257610241565b806381a351ba116101145780638da5cb5b116100f95780638da5cb5b1461052b5780638e235b11146105335780639241cef21461055057610241565b806381a351ba146104df5780638cbe66451461050557610241565b80636ccdd9f7146104685780637144329714610494578063715018a6146104ba578063819c7f0c146104c257610241565b8063371fd8e6116101d85780634b3fd148116101a75780636155a20b1161018c5780636155a20b146103dc578063632d19ca14610408578063676128431461042e57610241565b80634b3fd148146103a85780634c20ac74146103d457610241565b8063371fd8e61461037357806338d52e0f146103905780633f60825b14610398578063460bb650146103a057610241565b80631d7bd46e116102145780631d7bd46e146103175780631dda0780146103345780631f2dc5ef1461033c57806322b2d4021461035657610241565b8063045de1f8146102465780630a3ed4321461026a57806311e2c02f14610292578063176de7a81461029a575b600080fd5b61024e61064a565b604080516001600160a01b039092168252519081900360200190f35b6102906004803603602081101561028057600080fd5b50356001600160a01b0316610659565b005b61024e61071a565b6102a2610729565b6040805160208082528351818301528351919283929083019185019080838360005b838110156102dc5781810151838201526020016102c4565b50505050905090810190601f1680156103095780820380516001836020036101000a031916815260200191505b509250505060405180910390f35b6102906004803603602081101561032d57600080fd5b50356107b7565b61024e61085c565b61034461086b565b60408051918252519081900360200190f35b6102906004803603602081101561036c57600080fd5b5035610871565b6102906004803603602081101561038957600080fd5b50356109a0565b61024e611263565b610344611272565b61024e611278565b610290600480360360408110156103be57600080fd5b50803590602001356001600160a01b0316611287565b61024e61194c565b610290600480360360408110156103f257600080fd5b506001600160a01b03813516906020013561195b565b6102906004803603602081101561041e57600080fd5b50356001600160a01b0316611dde565b6104546004803603602081101561044457600080fd5b50356001600160a01b0316611eea565b604080519115158252519081900360200190f35b6102906004803603604081101561047e57600080fd5b506001600160a01b038135169060200135611f86565b610290600480360360208110156104aa57600080fd5b50356001600160a01b0316612409565b610290612483565b610290600480360360208110156104d857600080fd5b5035612525565b610290600480360360208110156104f557600080fd5b50356001600160a01b03166125b8565b61024e6004803603602081101561051b57600080fd5b50356001600160a01b03166126d9565b61024e6126f4565b6102906004803603602081101561054957600080fd5b5035612703565b61024e612760565b6104546004803603602081101561056e57600080fd5b50356001600160a01b031661276f565b6102906004803603604081101561059457600080fd5b506001600160a01b0381358116916020013516612784565b610290600480360360208110156105c257600080fd5b50356001600160a01b0316612dc7565b61024e612e6d565b6102a2612e7c565b610290600480360360208110156105f857600080fd5b5035612ed7565b61024e613006565b6102906004803603602081101561061d57600080fd5b5035613015565b6102906004803603602081101561063a57600080fd5b50356001600160a01b03166130ba565b6005546001600160a01b031681565b6106616131b2565b6000546001600160a01b039081169116146106b1576040805162461bcd60e51b815260206004820181905260248201526000805160206137f8833981519152604482015290519081900360640190fd5b600a5460408051630eab343560e21b81526001600160a01b03848116600483015291519190921691633aacd0d491602480830192600092919082900301818387803b1580156106ff57600080fd5b505af1158015610713573d6000803e3d6000fd5b5050505050565b600c546001600160a01b031681565b6007805460408051602060026001851615610100026000190190941693909304601f810184900484028201840190925281815292918301828280156107af5780601f10610784576101008083540402835291602001916107af565b820191906000526020600020905b81548152906001019060200180831161079257829003601f168201915b505050505081565b6107bf6131b2565b6000546001600160a01b0390811691161461080f576040805162461bcd60e51b815260206004820181905260248201526000805160206137f8833981519152604482015290519081900360640190fd5b600a54604080516322d3cecb60e21b81526004810184905290516001600160a01b0390921691638b4f3b2c9160248082019260009290919082900301818387803b1580156106ff57600080fd5b600d546001600160a01b031681565b60025481565b600260015414156108c9576040805162461bcd60e51b815260206004820152601f60248201527f5265656e7472616e637947756172643a207265656e7472616e742063616c6c00604482015290519081900360640190fd5b6002600155600a54604080516340c10f1960e01b81523360048201526024810184905290516001600160a01b03909216916340c10f199160448082019260009290919082900301818387803b15801561092157600080fd5b505af1158015610935573d6000803e3d6000fd5b5050600a5460085461095e93506001600160a01b0390811692503391168463ffffffff6131b616565b604080513381526020810183905281517f7328ca2a2e824164ca6ec3121966d63601356d01901d9a5d2ee466cb726d1e3c929181900390910190a15060018055565b600260015414156109f8576040805162461bcd60e51b815260206004820152601f60248201527f5265656e7472616e637947756172643a207265656e7472616e742063616c6c00604482015290519081900360640190fd5b6002600155600a54604080516305eff7ef60e21b815233600482015290516000926001600160a01b0316916317bfdfbc91602480830192602092919082900301818787803b158015610a4957600080fd5b505af1158015610a5d573d6000803e3d6000fd5b505050506040513d6020811015610a7357600080fd5b5051600954604080516305eff7ef60e21b815233600482015290519293506000926001600160a01b03909216916317bfdfbc9160248082019260209290919082900301818787803b158015610ac757600080fd5b505af1158015610adb573d6000803e3d6000fd5b505050506040513d6020811015610af157600080fd5b505190506000610b07838363ffffffff61324416565b905080841115610b5e576040805162461bcd60e51b815260206004820152601160248201527f5265706179696e6720746f6f206d756368000000000000000000000000000000604482015290519081900360640190fd5b60008085610e67578415610c1457600a54604080516369a5e8cf60e01b81526004810188905233602482015290516001600160a01b03909216916369a5e8cf916044808201926020929091908290030181600087803b158015610bc057600080fd5b505af1158015610bd4573d6000803e3d6000fd5b505050506040513d6020811015610bea57600080fd5b5051600a54600854919250610c14916001600160a01b03908116913391168863ffffffff6131b616565b60008411610c535760405162461bcd60e51b81526004018080602001828103825260298152602001806138186029913960400191505060405180910390fd5b600954604080516369a5e8cf60e01b81526004810187905233602482015290516001600160a01b03909216916369a5e8cf916044808201926020929091908290030181600087803b158015610ca757600080fd5b505af1158015610cbb573d6000803e3d6000fd5b505050506040513d6020811015610cd157600080fd5b5051600954600854919350610cfb916001600160a01b03908116913391168763ffffffff6131b616565b600c546008546040805163513396f760e11b81526001600160a01b039283166004820152602481018790529051600093929092169163a2672dee9160448082019260209290919082900301818787803b158015610d5757600080fd5b505af1158015610d6b573d6000803e3d6000fd5b505050506040513d6020811015610d8157600080fd5b5051600b54336000818152600e60205260408082205481517f6a8394ad00000000000000000000000000000000000000000000000000000000815260048101949094526001600160a01b03908116602485015260448401869052905194955090921692636a8394ad9260648084019391929182900301818387803b158015610e0857600080fd5b505af1158015610e1c573d6000803e3d6000fd5b505060408051338152602081018990528082018a905290517f2a6c148cdc9347a81dfbfe504afb64ea0aeca1114171ef18a3e11cb1fda8b3a69350908190036060019150a1506111f8565b841561110f57858510610f6157600a54604080516369a5e8cf60e01b81526004810189905233602482015290516001600160a01b03909216916369a5e8cf916044808201926020929091908290030181600087803b158015610ec857600080fd5b505af1158015610edc573d6000803e3d6000fd5b505050506040513d6020811015610ef257600080fd5b5051600a54600854919250610f1c916001600160a01b03908116913391168963ffffffff6131b616565b604080513381526000602082015280820188905290517f2a6c148cdc9347a81dfbfe504afb64ea0aeca1114171ef18a3e11cb1fda8b3a69181900360600190a161110a565b6000610f73878763ffffffff6132a516565b600a54604080516369a5e8cf60e01b815260006004820181905233602483015291519394506001600160a01b03909216926369a5e8cf926044808201936020939283900390910190829087803b158015610fcc57600080fd5b505af1158015610fe0573d6000803e3d6000fd5b505050506040513d6020811015610ff657600080fd5b5051600a54600854919350611020916001600160a01b03908116913391168963ffffffff6131b616565b600954604080516369a5e8cf60e01b81526004810184905233602482015290516001600160a01b03909216916369a5e8cf916044808201926020929091908290030181600087803b15801561107457600080fd5b505af1158015611088573d6000803e3d6000fd5b505050506040513d602081101561109e57600080fd5b50516009546008549194506110c8916001600160a01b03908116913391168463ffffffff6131b616565b604080513381526020810185905280820184905290517f2a6c148cdc9347a81dfbfe504afb64ea0aeca1114171ef18a3e11cb1fda8b3a69181900360600190a1505b6111f8565b600954604080516369a5e8cf60e01b81526004810189905233602482015290516001600160a01b03909216916369a5e8cf916044808201926020929091908290030181600087803b15801561116357600080fd5b505af1158015611177573d6000803e3d6000fd5b505050506040513d602081101561118d57600080fd5b50516009546008549193506111b7916001600160a01b03908116913391168963ffffffff6131b616565b604080513381526020810184905260008183015290517f2a6c148cdc9347a81dfbfe504afb64ea0aeca1114171ef18a3e11cb1fda8b3a69181900360600190a15b611208848363ffffffff6132a516565b1580156112225750611220858263ffffffff6132a516565b155b1561125757336000908152600e6020908152604080832080546001600160a01b0319169055600f9091529020805460ff191690555b50506001805550505050565b6008546001600160a01b031681565b60035481565b6004546001600160a01b031681565b600260015414156112df576040805162461bcd60e51b815260206004820152601f60248201527f5265656e7472616e637947756172643a207265656e7472616e742063616c6c00604482015290519081900360640190fd5b6002600155336000908152600e60205260409020546001600160a01b038281169116148061131d5750336000908152600f602052604090205460ff16155b61136e576040805162461bcd60e51b815260206004820152601460248201527f636f6c6c61746572616c206e6f74207269676874000000000000000000000000604482015290519081900360640190fd5b816113c0576040805162461bcd60e51b815260206004820152601e60248201527f616d6f756e742063616e6e6f7420626520657175616c20746f207a65726f0000604482015290519081900360640190fd5b6113c861373a565b600954604080516305eff7ef60e21b815233600482015290516001600160a01b03909216916317bfdfbc916024808201926020929091908290030181600087803b15801561141557600080fd5b505af1158015611429573d6000803e3d6000fd5b505050506040513d602081101561143f57600080fd5b50518152600a54604080516305eff7ef60e21b815233600482015290516001600160a01b03909216916317bfdfbc916024808201926020929091908290030181600087803b15801561149057600080fd5b505af11580156114a4573d6000803e3d6000fd5b505050506040513d60208110156114ba57600080fd5b5051602082018190526114e5906114d7908563ffffffff61324416565b82519063ffffffff61324416565b6040808301829052600c54600854825163513396f760e11b81526001600160a01b0391821660048201526024810194909452915191169163a2672dee9160448083019260209291908290030181600087803b15801561154357600080fd5b505af1158015611557573d6000803e3d6000fd5b505050506040513d602081101561156d57600080fd5b50516080820152600c546008546040805163513396f760e11b81526001600160a01b039283166004820152602481018790529051919092169163a2672dee9160448083019260209291908290030181600087803b1580156115cd57600080fd5b505af11580156115e1573d6000803e3d6000fd5b505050506040513d60208110156115f757600080fd5b505160a0820152600b54604080517f6012b4310000000000000000000000000000000000000000000000000000000081523360048201526001600160a01b03858116602483015291519190921691636012b4319160448083019260209291908290030181600087803b15801561166c57600080fd5b505af1158015611680573d6000803e3d6000fd5b505050506040513d602081101561169657600080fd5b5051606082015260035460808201516116b49163ffffffff6132e716565b60c0820181905260808201516116cf9163ffffffff61324416565b60e082018190526060820151101561172e576040805162461bcd60e51b815260206004820152601560248201527f6e6f7420656e6f75676820636f6c6c61746572616c0000000000000000000000604482015290519081900360640190fd5b600b5460e082015160a0830151604080517f85695b140000000000000000000000000000000000000000000000000000000081523360048201526001600160a01b038781166024830152604482019490945260648101929092525191909216916385695b1491608480830192600092919082900301818387803b1580156117b457600080fd5b505af11580156117c8573d6000803e3d6000fd5b505050506117e06002846132e790919063ffffffff16565b6101008201908152336000818152600e6020908152604080832080546001600160a01b0319166001600160a01b0389811691909117909155600f909252808320805460ff1916600117905560095494518151630967fa2960e31b81526004810191909152602481019490945251931692634b3fd14892604480820193929182900301818387803b15801561187357600080fd5b505af1158015611887573d6000803e3d6000fd5b5050600a5461010084015160408051630967fa2960e31b81526004810192909252336024830152516001600160a01b039092169350634b3fd148925060448082019260009290919082900301818387803b1580156118e457600080fd5b505af11580156118f8573d6000803e3d6000fd5b505050610100820151604080513381526020810183905280820192909252517fe1979fe4c35e0cef342fef5668e2c8e7a7e9f5d5d1ca8fee0ac6c427fa4153af92509081900360600190a150506001805550565b6008546001600160a01b031690565b6119636131b2565b6000546001600160a01b039081169116146119b3576040805162461bcd60e51b815260206004820181905260248201526000805160206137f8833981519152604482015290519081900360640190fd5b60606040516020018080634148522d60e01b815250600401905060405160208183030381529060405290508060066040516020018083805190602001908083835b60208310611a135780518252601f1990920191602091820191016119f4565b6001836020036101000a03801982511681845116808217855250505050505090500182805460018160011615610100020316600290048015611a8c5780601f10611a6a576101008083540402835291820191611a8c565b820191906000526020600020905b815481529060010190602001808311611a78575b505092505050604051602081830303815290604052905060606040516020018080634148522d60e01b815250600401905060405160208183030381529060405290508060076040516020018083805190602001908083835b60208310611b035780518252601f199092019160209182019101611ae4565b6001836020036101000a03801982511681845116808217855250505050505090500182805460018160011615610100020316600290048015611b7c5780601f10611b5a576101008083540402835291820191611b7c565b820191906000526020600020905b815481529060010190602001808311611b68575b505092505050604051602081830303815290604052905060608290506060829050600d60009054906101000a90046001600160a01b03166001600160a01b0316634f84a10087600860009054906101000a90046001600160a01b0316600c60009054906101000a90046001600160a01b0316600b60009054906101000a90046001600160a01b0316878760008d6040518963ffffffff1660e01b815260040180896001600160a01b03166001600160a01b03168152602001886001600160a01b03166001600160a01b03168152602001876001600160a01b03166001600160a01b03168152602001866001600160a01b03166001600160a01b03168152602001806020018060200185151515158152602001848152602001838103835287818151815260200191508051906020019080838360005b83811015611cc9578181015183820152602001611cb1565b50505050905090810190601f168015611cf65780820380516001836020036101000a031916815260200191505b50838103825286518152865160209182019188019080838360005b83811015611d29578181015183820152602001611d11565b50505050905090810190601f168015611d565780820380516001836020036101000a031916815260200191505b509a5050505050505050505050602060405180830381600087803b158015611d7d57600080fd5b505af1158015611d91573d6000803e3d6000fd5b505050506040513d6020811015611da757600080fd5b5051600980546001600160a01b03199081166001600160a01b03938416179182905560048054929093169116179055505050505050565b611de66131b2565b6000546001600160a01b03908116911614611e36576040805162461bcd60e51b815260206004820181905260248201526000805160206137f8833981519152604482015290519081900360640190fd5b6009546040805163f536642f60e01b81526001600160a01b0384811660048301529151919092169163f536642f91602480830192600092919082900301818387803b158015611e8457600080fd5b505af1158015611e98573d6000803e3d6000fd5b5050600a546040805163f536642f60e01b81526001600160a01b038681166004830152915191909216935063f536642f9250602480830192600092919082900301818387803b1580156106ff57600080fd5b600b54604080517f0dc9cacd0000000000000000000000000000000000000000000000000000000081526001600160a01b03848116600483015291516000939290921691630dc9cacd91602480820192602092909190829003018186803b158015611f5457600080fd5b505afa158015611f68573d6000803e3d6000fd5b505050506040513d6020811015611f7e57600080fd5b505192915050565b611f8e6131b2565b6000546001600160a01b03908116911614611fde576040805162461bcd60e51b815260206004820181905260248201526000805160206137f8833981519152604482015290519081900360640190fd5b6060604051602001808063416c522d60e01b815250600401905060405160208183030381529060405290508060066040516020018083805190602001908083835b6020831061203e5780518252601f19909201916020918201910161201f565b6001836020036101000a038019825116818451168082178552505050505050905001828054600181600116156101000203166002900480156120b75780601f106120955761010080835404028352918201916120b7565b820191906000526020600020905b8154815290600101906020018083116120a3575b50509250505060405160208183030381529060405290506060604051602001808063416c522d60e01b815250600401905060405160208183030381529060405290508060076040516020018083805190602001908083835b6020831061212e5780518252601f19909201916020918201910161210f565b6001836020036101000a038019825116818451168082178552505050505050905001828054600181600116156101000203166002900480156121a75780601f106121855761010080835404028352918201916121a7565b820191906000526020600020905b815481529060010190602001808311612193575b505092505050604051602081830303815290604052905060608290506060829050600d60009054906101000a90046001600160a01b03166001600160a01b0316634f84a10087600860009054906101000a90046001600160a01b0316600c60009054906101000a90046001600160a01b0316600b60009054906101000a90046001600160a01b0316878760018d6040518963ffffffff1660e01b815260040180896001600160a01b03166001600160a01b03168152602001886001600160a01b03166001600160a01b03168152602001876001600160a01b03166001600160a01b03168152602001866001600160a01b03166001600160a01b03168152602001806020018060200185151515158152602001848152602001838103835287818151815260200191508051906020019080838360005b838110156122f45781810151838201526020016122dc565b50505050905090810190601f1680156123215780820380516001836020036101000a031916815260200191505b50838103825286518152865160209182019188019080838360005b8381101561235457818101518382015260200161233c565b50505050905090810190601f1680156123815780820380516001836020036101000a031916815260200191505b509a5050505050505050505050602060405180830381600087803b1580156123a857600080fd5b505af11580156123bc573d6000803e3d6000fd5b505050506040513d60208110156123d257600080fd5b5051600a80546001600160a01b03199081166001600160a01b03938416179182905560058054929093169116179055505050505050565b6124116131b2565b6000546001600160a01b03908116911614612461576040805162461bcd60e51b815260206004820181905260248201526000805160206137f8833981519152604482015290519081900360640190fd5b600b80546001600160a01b0319166001600160a01b0392909216919091179055565b61248b6131b2565b6000546001600160a01b039081169116146124db576040805162461bcd60e51b815260206004820181905260248201526000805160206137f8833981519152604482015290519081900360640190fd5b600080546040516001600160a01b03909116907f8be0079c531659141344cd1fd0a4f28419497f9722a3daafe3b4186f6b6457e0908390a3600080546001600160a01b0319169055565b61252d6131b2565b6000546001600160a01b0390811691161461257d576040805162461bcd60e51b815260206004820181905260248201526000805160206137f8833981519152604482015290519081900360640190fd5b60028190556040805182815290517f196705942f4c6fbf7fd7dba9534af3776a46c60ebbc95a100625bcd4a230d8469181900360200190a150565b6125c06131b2565b6000546001600160a01b03908116911614612610576040805162461bcd60e51b815260206004820181905260248201526000805160206137f8833981519152604482015290519081900360640190fd5b600c80546001600160a01b0319166001600160a01b03838116918217909255600a5460408051633df5806d60e11b8152600481019390935251921691637beb00da9160248082019260009290919082900301818387803b15801561267357600080fd5b505af1158015612687573d6000803e3d6000fd5b505060095460408051633df5806d60e11b81526001600160a01b0386811660048301529151919092169350637beb00da9250602480830192600092919082900301818387803b1580156106ff57600080fd5b600e602052600090815260409020546001600160a01b031681565b6000546001600160a01b031690565b61270b6131b2565b6000546001600160a01b0390811691161461275b576040805162461bcd60e51b815260206004820181905260248201526000805160206137f8833981519152604482015290519081900360640190fd5b600355565b6009546001600160a01b031681565b600f6020526000908152604090205460ff1681565b61278c61373a565b336001600160a01b03841614156127ea576040805162461bcd60e51b815260206004820152601b60248201527f796f752063616e74206c697175696461746520796f757273656c660000000000604482015290519081900360640190fd5b600a54604080516305eff7ef60e21b81526001600160a01b038681166004830152915160009392909216916317bfdfbc9160248082019260209290919082900301818787803b15801561283c57600080fd5b505af1158015612850573d6000803e3d6000fd5b505050506040513d602081101561286657600080fd5b5051600954604080516305eff7ef60e21b81526001600160a01b038881166004830152915193945060009391909216916317bfdfbc91602480830192602092919082900301818787803b1580156128bc57600080fd5b505af11580156128d0573d6000803e3d6000fd5b505050506040513d60208110156128e657600080fd5b5051905060006128fc838363ffffffff61324416565b600c546008546040805163513396f760e11b81526001600160a01b03928316600482015260248101859052905193945091169163a2672dee916044808201926020929091908290030181600087803b15801561295757600080fd5b505af115801561296b573d6000803e3d6000fd5b505050506040513d602081101561298157600080fd5b50516060850152600b54604080517fda92fd8a0000000000000000000000000000000000000000000000000000000081526001600160a01b03898116600483015288811660248301529151919092169163da92fd8a916044808301926020929190829003018186803b1580156129f657600080fd5b505afa158015612a0a573d6000803e3d6000fd5b505050506040513d6020811015612a2057600080fd5b505160a08501526003546060850151612a3e9163ffffffff6132e716565b60c085018190526060850151612a599163ffffffff61324416565b6080850181905260a08501511115612aa25760405162461bcd60e51b81526004018080602001828103825260258152602001806137ad6025913960400191505060405180910390fd5b600b5460a0850151600854604080517fb21a0d3c00000000000000000000000000000000000000000000000000000000815260048101939093526001600160a01b038a81166024850152306044850152918216606484015288821660848401525192169163b21a0d3c9160a48082019260009290919082900301818387803b158015612b2d57600080fd5b505af1158015612b41573d6000803e3d6000fd5b5050600854604080517f70a082310000000000000000000000000000000000000000000000000000000081523060048201529051600094506001600160a01b0390921692506370a08231916024808301926020929190829003018186803b158015612bab57600080fd5b505afa158015612bbf573d6000803e3d6000fd5b505050506040513d6020811015612bd557600080fd5b505190506000612beb828463ffffffff6132a516565b600a54600854919250612c11916001600160a01b0390811691168763ffffffff61332916565b600954600854612c34916001600160a01b0391821691168663ffffffff61332916565b600854612c51906001600160a01b0316338363ffffffff61332916565b600a54604080516369a5e8cf60e01b81526000600482018190526001600160a01b038c81166024840152925192909316926369a5e8cf926044808401936020939083900390910190829087803b158015612caa57600080fd5b505af1158015612cbe573d6000803e3d6000fd5b505050506040513d6020811015612cd457600080fd5b505160e0870152600954604080516369a5e8cf60e01b81526000600482018190526001600160a01b038c81166024840152925192909316926369a5e8cf926044808401936020939083900390910190829087803b158015612d3457600080fd5b505af1158015612d48573d6000803e3d6000fd5b505050506040513d6020811015612d5e57600080fd5b5051610100870152606080870151604080516001600160a01b038c16815233602082015280820192909252309282019290925290517fbf8c93ffab42c7a8745e30d00eef080c6704962d26f0b42a0e9d9589b7417af19181900360800190a15050505050505050565b612dcf6131b2565b6000546001600160a01b03908116911614612e1f576040805162461bcd60e51b815260206004820181905260248201526000805160206137f8833981519152604482015290519081900360640190fd5b60095460408051630eab343560e21b81526001600160a01b03848116600483015291519190921691633aacd0d491602480830192600092919082900301818387803b1580156106ff57600080fd5b600a546001600160a01b031681565b6006805460408051602060026001851615610100026000190190941693909304601f810184900484028201840190925281815292918301828280156107af5780601f10610784576101008083540402835291602001916107af565b60026001541415612f2f576040805162461bcd60e51b815260206004820152601f60248201527f5265656e7472616e637947756172643a207265656e7472616e742063616c6c00604482015290519081900360640190fd5b6002600155600954604080516340c10f1960e01b81523360048201526024810184905290516001600160a01b03909216916340c10f199160448082019260009290919082900301818387803b158015612f8757600080fd5b505af1158015612f9b573d6000803e3d6000fd5b5050600954600854612fc493506001600160a01b0390811692503391168463ffffffff6131b616565b604080513381526020810183905281517f0f82438f3b5c78264c4b6dce428942fd963308db5c690635d87bc654cb811d33929181900390910190a15060018055565b600b546001600160a01b031681565b61301d6131b2565b6000546001600160a01b0390811691161461306d576040805162461bcd60e51b815260206004820181905260248201526000805160206137f8833981519152604482015290519081900360640190fd5b600954604080516322d3cecb60e21b81526004810184905290516001600160a01b0390921691638b4f3b2c9160248082019260009290919082900301818387803b1580156106ff57600080fd5b6130c26131b2565b6000546001600160a01b03908116911614613112576040805162461bcd60e51b815260206004820181905260248201526000805160206137f8833981519152604482015290519081900360640190fd5b6001600160a01b0381166131575760405162461bcd60e51b81526004018080602001828103825260268152602001806137876026913960400191505060405180910390fd5b600080546040516001600160a01b03808516939216917f8be0079c531659141344cd1fd0a4f28419497f9722a3daafe3b4186f6b6457e091a3600080546001600160a01b0319166001600160a01b0392909216919091179055565b3390565b604080516001600160a01b0380861660248301528416604482015260648082018490528251808303909101815260849091019091526020810180517bffffffffffffffffffffffffffffffffffffffffffffffffffffffff167f23b872dd0000000000000000000000000000000000000000000000000000000017905261323e9085906133ae565b50505050565b60008282018381101561329e576040805162461bcd60e51b815260206004820152601b60248201527f536166654d6174683a206164646974696f6e206f766572666c6f770000000000604482015290519081900360640190fd5b9392505050565b600061329e83836040518060400160405280601e81526020017f536166654d6174683a207375627472616374696f6e206f766572666c6f77000081525061345f565b600061329e83836040518060400160405280601a81526020017f536166654d6174683a206469766973696f6e206279207a65726f0000000000008152506134f6565b604080516001600160a01b038416602482015260448082018490528251808303909101815260649091019091526020810180517bffffffffffffffffffffffffffffffffffffffffffffffffffffffff167fa9059cbb000000000000000000000000000000000000000000000000000000001790526133a99084906133ae565b505050565b6060613403826040518060400160405280602081526020017f5361666545524332303a206c6f772d6c6576656c2063616c6c206661696c6564815250856001600160a01b031661355b9092919063ffffffff16565b8051909150156133a95780806020019051602081101561342257600080fd5b50516133a95760405162461bcd60e51b815260040180806020018281038252602a815260200180613841602a913960400191505060405180910390fd5b600081848411156134ee5760405162461bcd60e51b81526004018080602001828103825283818151815260200191508051906020019080838360005b838110156134b357818101518382015260200161349b565b50505050905090810190601f1680156134e05780820380516001836020036101000a031916815260200191505b509250505060405180910390fd5b505050900390565b600081836135455760405162461bcd60e51b81526020600482018181528351602484015283519092839260449091019190850190808383600083156134b357818101518382015260200161349b565b50600083858161355157fe5b0495945050505050565b606061356a8484600085613572565b949350505050565b6060824710156135b35760405162461bcd60e51b81526004018080602001828103825260268152602001806137d26026913960400191505060405180910390fd5b6135bc856136ce565b61360d576040805162461bcd60e51b815260206004820152601d60248201527f416464726573733a2063616c6c20746f206e6f6e2d636f6e7472616374000000604482015290519081900360640190fd5b60006060866001600160a01b031685876040518082805190602001908083835b6020831061364c5780518252601f19909201916020918201910161362d565b6001836020036101000a03801982511681845116808217855250505050505090500191505060006040518083038185875af1925050503d80600081146136ae576040519150601f19603f3d011682016040523d82523d6000602084013e6136b3565b606091505b50915091506136c38282866136d4565b979650505050505050565b3b151590565b606083156136e357508161329e565b8251156136f35782518084602001fd5b60405162461bcd60e51b81526020600482018181528451602484015284518593919283926044019190850190808383600083156134b357818101518382015260200161349b565b604051806101200160405280600081526020016000815260200160008152602001600081526020016000815260200160008152602001600081526020016000815260200160008152509056fe4f776e61626c653a206e6577206f776e657220697320746865207a65726f20616464726573734163636f756e7420697320636f6d706c69616e742063616e6e6f74206c6971756964617465416464726573733a20696e73756666696369656e742062616c616e636520666f722063616c6c4f776e61626c653a2063616c6c6572206973206e6f7420746865206f776e65725468657265206973206e6f7468696e6720746f207265706179206f6e2074686973206163636f756e745361666545524332303a204552433230206f7065726174696f6e20646964206e6f742073756363656564a2646970667358221220480ff156519443bdec9b71bc5ba55f63528a46a6aa41d6c8aa8fc771fd303a7864736f6c634300060600334f776e61626c653a206e6577206f776e657220697320746865207a65726f20616464726573738be0079c531659141344cd1fd0a4f28419497f9722a3daafe3b4186f6b6457e04f776e61626c653a206e6577206f776e657220697320746865207a65726f2061646472657373a26469706673582212203223be72ceaca7a1e50c3b9ca68f3e265aa59aff10f04d0c76b1f0d633daede764736f6c63430006060033",
  "immutableReferences": {},
  "source": "pragma solidity 0.6.6;\n\nimport \"./MoneyMarketInstance.sol\";\nimport \"openzeppelin-solidity/contracts/access/Ownable.sol\";\n\n////////////////////////////////////////////////////////////////////////////////////////////\n/// @title MoneyMarketFactory\n/// @author Christopher Dixon\n////////////////////////////////////////////////////////////////////////////////////////////\n/**\nThe MoneyMarketFactory contract is designed to produce individual MoneyMarketInstance contracts\nThis contract uses the OpenZeppelin contract Library to inherit functions from\n  Ownable.sol\n**/\n\ncontract MoneyMarketFactory is Ownable {\n    /**\n@notice the createMMI function is used to initialize the MoneyMakerInstance and deploy its associated AHR && ALR token contracts\n@param _assetContractAdd is the address of the ERC20 asset being whitelisted\n@param _oracleFactory is the address of the  oracle factory\n@param _owner is the address of the MoneyMarketControl factory\n@param _ARTF is the address of the ART Token Factory\n@param _collatRatio is the number that will be used when calculating the collateralizastion ratio for a MMI\n@param _assetName is the name of the asset(e.x: ChainLink)\n@param _assetSymbol is the symbol of the asset(e.x: LINK)\n@dev this function uses ABI encoding to properly concatenate AHR- && ALR- in front of the tokens name and symbol\n      before creating each token.\n**/\n    function createMMI(\n        address _assetContractAdd,\n        address _oracleFactory,\n        address _owner,\n        address _ARTF,\n        uint256 _collatRatio,\n        string memory _assetName,\n        string memory _assetSymbol\n    ) public returns (address) {\n        address _MMinstance =\n            address(\n                new MoneyMarketInstance(\n                    _assetContractAdd,\n                    _oracleFactory,\n                    _owner,\n                    _ARTF,\n                    _collatRatio,\n                    _assetName,\n                    _assetSymbol\n                )\n            );\n\n        return _MMinstance;\n    }\n}\n",
  "sourcePath": "/home/stan36/repos/asko/Askolend/AskoLend-contracts/contracts/MoneyMarketFactory.sol",
  "compiler": {
    "name": "solc",
    "version": "0.6.6+commit.6c089d02.Emscripten.clang"
  },
  "schemaVersion": "3.3.2",
  "updatedAt": "2021-06-17T02:26:58.386Z",
  "networkType": "ethereum",
  "devdoc": {
    "methods": {
      "createMMI(address,address,address,address,uint256,string,string)": {
        "details": "this function uses ABI encoding to properly concatenate AHR- && ALR- in front of the tokens name and symbol before creating each token.*",
        "params": {
          "_ARTF": "is the address of the ART Token Factory",
          "_assetContractAdd": "is the address of the ERC20 asset being whitelisted",
          "_assetName": "is the name of the asset(e.x: ChainLink)",
          "_assetSymbol": "is the symbol of the asset(e.x: LINK)",
          "_collatRatio": "is the number that will be used when calculating the collateralizastion ratio for a MMI",
          "_oracleFactory": "is the address of the  oracle factory",
          "_owner": "is the address of the MoneyMarketControl factory"
        }
      },
      "owner()": {
        "details": "Returns the address of the current owner."
      },
      "renounceOwnership()": {
        "details": "Leaves the contract without owner. It will not be possible to call `onlyOwner` functions anymore. Can only be called by the current owner.     * NOTE: Renouncing ownership will leave the contract without an owner, thereby removing any functionality that is only available to the owner."
      },
      "transferOwnership(address)": {
        "details": "Transfers ownership of the contract to a new account (`newOwner`). Can only be called by the current owner."
      }
    }
  },
  "userdoc": {
    "methods": {
      "createMMI(address,address,address,address,uint256,string,string)": {
        "notice": "the createMMI function is used to initialize the MoneyMakerInstance and deploy its associated AHR && ALR token contracts"
      }
    },
    "notice": "The MoneyMarketFactory contract is designed to produce individual MoneyMarketInstance contracts This contract uses the OpenZeppelin contract Library to inherit functions from Ownable.sol*"
  }
}