{
  "contractName": "MoneyMarketInstance",
  "abi": [
    {
      "inputs": [
        {
          "internalType": "address",
          "name": "_assetContractAdd",
          "type": "address"
        },
        {
          "internalType": "address",
          "name": "_owner",
          "type": "address"
        },
        {
          "internalType": "address",
          "name": "_oracle",
          "type": "address"
        },
        {
          "internalType": "address",
          "name": "_oracleFactory",
          "type": "address"
        },
        {
          "internalType": "string",
          "name": "_assetName",
          "type": "string"
        },
        {
          "internalType": "string",
          "name": "_assetSymbol",
          "type": "string"
        }
      ],
      "stateMutability": "nonpayable",
      "type": "constructor"
    },
    {
      "anonymous": false,
      "inputs": [
        {
          "indexed": false,
          "internalType": "uint256",
          "name": "error",
          "type": "uint256"
        },
        {
          "indexed": false,
          "internalType": "uint256",
          "name": "info",
          "type": "uint256"
        },
        {
          "indexed": false,
          "internalType": "uint256",
          "name": "detail",
          "type": "uint256"
        }
      ],
      "name": "Failure",
      "type": "event"
    },
    {
      "anonymous": false,
      "inputs": [
        {
          "indexed": true,
          "internalType": "address",
          "name": "previousOwner",
          "type": "address"
        },
        {
          "indexed": true,
          "internalType": "address",
          "name": "newOwner",
          "type": "address"
        }
      ],
      "name": "OwnershipTransferred",
      "type": "event"
    },
    {
      "inputs": [],
      "name": "AHR",
      "outputs": [
        {
          "internalType": "contract AskoRiskToken",
          "name": "",
          "type": "address"
        }
      ],
      "stateMutability": "view",
      "type": "function"
    },
    {
      "inputs": [],
      "name": "ALR",
      "outputs": [
        {
          "internalType": "contract AskoRiskToken",
          "name": "",
          "type": "address"
        }
      ],
      "stateMutability": "view",
      "type": "function"
    },
    {
      "inputs": [],
      "name": "MMF",
      "outputs": [
        {
          "internalType": "contract MoneyMarketFactoryI",
          "name": "",
          "type": "address"
        }
      ],
      "stateMutability": "view",
      "type": "function"
    },
    {
      "inputs": [],
      "name": "UOF",
      "outputs": [
        {
          "internalType": "contract UniswapOracleFactoryI",
          "name": "",
          "type": "address"
        }
      ],
      "stateMutability": "view",
      "type": "function"
    },
    {
      "inputs": [],
      "name": "asset",
      "outputs": [
        {
          "internalType": "contract IERC20",
          "name": "",
          "type": "address"
        }
      ],
      "stateMutability": "view",
      "type": "function"
    },
    {
      "inputs": [],
      "name": "assetName",
      "outputs": [
        {
          "internalType": "string",
          "name": "",
          "type": "string"
        }
      ],
      "stateMutability": "view",
      "type": "function"
    },
    {
      "inputs": [],
      "name": "assetSymbol",
      "outputs": [
        {
          "internalType": "string",
          "name": "",
          "type": "string"
        }
      ],
      "stateMutability": "view",
      "type": "function"
    },
    {
      "inputs": [],
      "name": "divisor",
      "outputs": [
        {
          "internalType": "uint256",
          "name": "",
          "type": "uint256"
        }
      ],
      "stateMutability": "view",
      "type": "function"
    },
    {
      "inputs": [],
      "name": "feePercent",
      "outputs": [
        {
          "internalType": "uint256",
          "name": "",
          "type": "uint256"
        }
      ],
      "stateMutability": "view",
      "type": "function"
    },
    {
      "inputs": [],
      "name": "fee_AHR",
      "outputs": [
        {
          "internalType": "uint256",
          "name": "",
          "type": "uint256"
        }
      ],
      "stateMutability": "view",
      "type": "function"
    },
    {
      "inputs": [],
      "name": "fee_ALR",
      "outputs": [
        {
          "internalType": "uint256",
          "name": "",
          "type": "uint256"
        }
      ],
      "stateMutability": "view",
      "type": "function"
    },
    {
      "inputs": [],
      "name": "liquidationIncentiveMantissa",
      "outputs": [
        {
          "internalType": "uint256",
          "name": "",
          "type": "uint256"
        }
      ],
      "stateMutability": "view",
      "type": "function"
    },
    {
      "inputs": [
        {
          "internalType": "address",
          "name": "",
          "type": "address"
        }
      ],
      "name": "nonCompliant",
      "outputs": [
        {
          "internalType": "uint256",
          "name": "",
          "type": "uint256"
        }
      ],
      "stateMutability": "view",
      "type": "function"
    },
    {
      "inputs": [],
      "name": "oracle",
      "outputs": [
        {
          "internalType": "contract UniswapOracleInstanceI",
          "name": "",
          "type": "address"
        }
      ],
      "stateMutability": "view",
      "type": "function"
    },
    {
      "inputs": [],
      "name": "owner",
      "outputs": [
        {
          "internalType": "address",
          "name": "",
          "type": "address"
        }
      ],
      "stateMutability": "view",
      "type": "function"
    },
    {
      "inputs": [],
      "name": "renounceOwnership",
      "outputs": [],
      "stateMutability": "nonpayable",
      "type": "function"
    },
    {
      "inputs": [
        {
          "internalType": "address",
          "name": "newOwner",
          "type": "address"
        }
      ],
      "name": "transferOwnership",
      "outputs": [],
      "stateMutability": "nonpayable",
      "type": "function"
    },
    {
      "inputs": [
        {
          "internalType": "address",
          "name": "_InterestRateModel",
          "type": "address"
        },
        {
          "internalType": "uint256",
          "name": "_fee",
          "type": "uint256"
        },
        {
          "internalType": "uint256",
          "name": "_initialExchangeRate",
          "type": "uint256"
        }
      ],
      "name": "_setUpAHR",
      "outputs": [],
      "stateMutability": "nonpayable",
      "type": "function"
    },
    {
      "inputs": [
        {
          "internalType": "address",
          "name": "_InterestRateModel",
          "type": "address"
        },
        {
          "internalType": "uint256",
          "name": "_fee",
          "type": "uint256"
        },
        {
          "internalType": "uint256",
          "name": "_initialExchangeRate",
          "type": "uint256"
        }
      ],
      "name": "_setUpALR",
      "outputs": [],
      "stateMutability": "nonpayable",
      "type": "function"
    },
    {
      "inputs": [
        {
          "internalType": "uint256",
          "name": "_amount",
          "type": "uint256"
        }
      ],
      "name": "lendToAHRpool",
      "outputs": [],
      "stateMutability": "nonpayable",
      "type": "function"
    },
    {
      "inputs": [
        {
          "internalType": "uint256",
          "name": "_amount",
          "type": "uint256"
        }
      ],
      "name": "lendToALRpool",
      "outputs": [],
      "stateMutability": "nonpayable",
      "type": "function"
    },
    {
      "inputs": [
        {
          "internalType": "uint256",
          "name": "_amount",
          "type": "uint256"
        }
      ],
      "name": "borrow",
      "outputs": [
        {
          "internalType": "uint256",
          "name": "",
          "type": "uint256"
        }
      ],
      "stateMutability": "nonpayable",
      "type": "function"
    },
    {
      "inputs": [
        {
          "internalType": "uint256",
          "name": "_repayAmount",
          "type": "uint256"
        }
      ],
      "name": "repay",
      "outputs": [
        {
          "internalType": "uint256",
          "name": "",
          "type": "uint256"
        }
      ],
      "stateMutability": "nonpayable",
      "type": "function"
    },
    {
      "inputs": [
        {
          "internalType": "address",
          "name": "borrower",
          "type": "address"
        }
      ],
      "name": "markAccountNonCompliant",
      "outputs": [],
      "stateMutability": "nonpayable",
      "type": "function"
    },
    {
      "inputs": [
        {
          "internalType": "address",
          "name": "borrower",
          "type": "address"
        },
        {
          "internalType": "uint256",
          "name": "repayAmount",
          "type": "uint256"
        },
        {
          "internalType": "contract AskoRiskToken",
          "name": "_ART",
          "type": "address"
        }
      ],
      "name": "liquidateAccount",
      "outputs": [],
      "stateMutability": "nonpayable",
      "type": "function"
    }
  ],
  "bytecode": "0x60806040526714d1120d7b1600006005553480156200001d57600080fd5b5060405162004de238038062004de2833981810160405260c08110156200004357600080fd5b81516020830151604080850151606086015160808701805193519597949692959194919392820192846401000000008211156200007f57600080fd5b9083019060208201858111156200009557600080fd5b8251640100000000811182820188101715620000b057600080fd5b82525081516020918201929091019080838360005b83811015620000df578181015183820152602001620000c5565b50505050905090810190601f1680156200010d5780820380516001836020036101000a031916815260200191505b50604052602001805160405193929190846401000000008211156200013157600080fd5b9083019060208201858111156200014757600080fd5b82516401000000008111828201881017156200016257600080fd5b82525081516020918201929091019080838360005b838110156200019157818101518382015260200162000177565b50505050905090810190601f168015620001bf5780820380516001836020036101000a031916815260200191505b506040525050506000620001d8620002b960201b60201c565b600080546001600160a01b0319166001600160a01b03831690811782556040519293509160008051602062004dc2833981519152908290a350600880546001600160a01b0319166001600160a01b038816179055612710600255815162000247906006906020850190620003c5565b5080516200025d906007906020840190620003c5565b50600d80546001600160a01b038086166001600160a01b031992831617909255600b805492871692821692909217909155600c805490911633179055620002ad856001600160e01b03620002be16565b50505050505062000467565b335b90565b620002d16001600160e01b03620002b916565b6000546001600160a01b0390811691161462000334576040805162461bcd60e51b815260206004820181905260248201527f4f776e61626c653a2063616c6c6572206973206e6f7420746865206f776e6572604482015290519081900360640190fd5b6001600160a01b0381166200037b5760405162461bcd60e51b815260040180806020018281038252602681526020018062004d9c6026913960400191505060405180910390fd5b600080546040516001600160a01b038085169392169160008051602062004dc283398151915291a3600080546001600160a01b0319166001600160a01b0392909216919091179055565b828054600181600116156101000203166002900490600052602060002090601f016020900481019282601f106200040857805160ff191683800117855562000438565b8280016001018555821562000438579182015b82811115620004385782518255916020019190600101906200041b565b50620004469291506200044a565b5090565b620002bb91905b8082111562000446576000815560010162000451565b61492580620004776000396000f3fe60806040523480156200001157600080fd5b50600436106200014e5760003560e01c806311e2c02f1462000153578063176de7a814620001795780631f2dc5ef14620001fb5780631f432cf5146200021757806322b2d402146200024e578063371fd8e6146200026e57806338d52e0f146200028e57806341f4118914620002985780634ada90af14620002c157806351e03bf914620002cb578063588eec881462000304578063715018a6146200032d5780637dc0d1d014620003375780637fd6f15c14620003415780638da5cb5b146200034b5780639241cef21462000355578063c27d4df3146200035f578063c5ebeaec1462000369578063c9230c5d1462000389578063cf0aea851462000393578063d162054a14620003b3578063dcc716bd14620003bd578063f2130c7014620003f2578063f2fde38b14620003fc578063f9828b4f1462000425575b600080fd5b6200015d6200042f565b604080516001600160a01b039092168252519081900360200190f35b620001836200043e565b6040805160208082528351818301528351919283929083019185019080838360005b83811015620001bf578181015183820152602001620001a5565b50505050905090810190601f168015620001ed5780820380516001836020036101000a031916815260200191505b509250505060405180910390f35b62000205620004d0565b60408051918252519081900360200190f35b6200024c600480360360608110156200022f57600080fd5b506001600160a01b038135169060208101359060400135620004d6565b005b6200024c600480360360208110156200026657600080fd5b503562000921565b62000205600480360360208110156200028657600080fd5b503562000a1f565b6200015d62000cf3565b6200024c60048036036020811015620002b057600080fd5b50356001600160a01b031662000d02565b6200020562000d42565b6200024c60048036036060811015620002e357600080fd5b506001600160a01b0381358116916020810135916040909101351662000d48565b62000205600480360360208110156200031c57600080fd5b50356001600160a01b03166200113d565b6200024c6200114f565b6200015d620011e4565b62000205620011f3565b6200015d620011f9565b6200015d62001208565b6200015d62001217565b62000205600480360360208110156200038157600080fd5b503562001226565b6200018362001310565b6200024c60048036036020811015620003ab57600080fd5b50356200136e565b6200015d62001450565b6200024c60048036036060811015620003d557600080fd5b506001600160a01b0381351690602081013590604001356200145f565b6200020562001874565b6200024c600480360360208110156200041457600080fd5b50356001600160a01b03166200187a565b6200020562001967565b600d546001600160a01b031681565b6007805460408051602060026001851615610100026000190190941693909304601f81018490048402820184019092528181529291830182828015620004c85780601f106200049c57610100808354040283529160200191620004c8565b820191906000526020600020905b815481529060010190602001808311620004aa57829003601f168201915b505050505081565b60025481565b600c546001600160a01b03163314620005215760405162461bcd60e51b8152600401808060200182810382526041815260200180620048af6041913960600191505060405180910390fd5b60048281556040805163416c522d60e01b6020808301919091528251808303909401845260248201909252825183926006926044019182918501908083835b60208310620005815780518252601f19909201916020918201910162000560565b6001836020036101000a03801982511681845116808217855250505050505090500182805460018160011615610100020316600290048015620005fe5780601f10620005db576101008083540402835291820191620005fe565b820191906000526020600020905b815481529060010190602001808311620005e9575b50509250505060405160208183030381529060405290506060604051602001808063416c522d60e01b815250600401905060405160208183030381529060405290508060076040516020018083805190602001908083835b60208310620006775780518252601f19909201916020918201910162000656565b6001836020036101000a03801982511681845116808217855250505050505090500182805460018160011615610100020316600290048015620006f45780601f10620006d1576101008083540402835291820191620006f4565b820191906000526020600020905b815481529060010190602001808311620006df575b505060408051601f1981840301815290829052600854600d549196508795508694508a93506001600160a01b0390811692911690859085906001908b906200073c9062001eda565b6001600160a01b038089168252878116602080840191909152908716604083015283151560a083015260c0820183905260e06060830181815287519184019190915286519091608084019161010085019189019080838360005b83811015620007b057818101518382015260200162000796565b50505050905090810190601f168015620007de5780820380516001836020036101000a031916815260200191505b50838103825286518152865160209182019188019080838360005b8381101562000813578181015183820152602001620007f9565b50505050905090810190601f168015620008415780820380516001836020036101000a031916815260200191505b509950505050505050505050604051809103906000f0801580156200086a573d6000803e3d6000fd5b50600a80546001600160a01b0319166001600160a01b0392831617908190556008546040805163095ea7b360e01b8152928416600484018190526a0c097ce7bc90715b34b9f160241b602485015290519093919091169163095ea7b39160448083019260209291908290030181600087803b158015620008e957600080fd5b505af1158015620008fe573d6000803e3d6000fd5b505050506040513d60208110156200091557600080fd5b50505050505050505050565b600854600a54604080516323b872dd60e01b81523360048201526001600160a01b03928316602482015260448101859052905191909216916323b872dd9160648083019260209291908290030181600087803b1580156200098157600080fd5b505af115801562000996573d6000803e3d6000fd5b505050506040513d6020811015620009ad57600080fd5b5050600a54604080516340c10f1960e01b81523360048201526024810184905290516001600160a01b03909216916340c10f199160448082019260009290919082900301818387803b15801562000a0357600080fd5b505af115801562000a18573d6000803e3d6000fd5b5050505050565b600a54604080516305eff7ef60e21b8152336004820152905160009283926001600160a01b03909116916317bfdfbc9160248082019260209290919082900301818787803b15801562000a7157600080fd5b505af115801562000a86573d6000803e3d6000fd5b505050506040513d602081101562000a9d57600080fd5b505190506000811562000c6c5783821062000b3757600a546040805163073a938160e11b81526004810187905290516001600160a01b0390921691630e752702916024808201926020929091908290030181600087803b15801562000b0157600080fd5b505af115801562000b16573d6000803e3d6000fd5b505050506040513d602081101562000b2d57600080fd5b5051905062000c66565b600062000b4b858463ffffffff6200196d16565b600a546040805163073a938160e11b81526004810184905290519293506001600160a01b0390911691630e752702916024808201926020929091908290030181600087803b15801562000b9d57600080fd5b505af115801562000bb2573d6000803e3d6000fd5b505050506040513d602081101562000bc957600080fd5b50519150600062000be1868363ffffffff6200196d16565b6009546040805163073a938160e11b81526004810184905290519293506001600160a01b0390911691630e752702916024808201926020929091908290030181600087803b15801562000c3357600080fd5b505af115801562000c48573d6000803e3d6000fd5b505050506040513d602081101562000c5f57600080fd5b5051925050505b62000cec565b6009546040805163073a938160e11b81526004810187905290516001600160a01b0390921691630e752702916024808201926020929091908290030181600087803b15801562000cbb57600080fd5b505af115801562000cd0573d6000803e3d6000fd5b505050506040513d602081101562000ce757600080fd5b505190505b9392505050565b6008546001600160a01b031681565b6001600160a01b0381166000908152600e60205260409020541562000d2657600080fd5b6001600160a01b03166000908152600e60205260409020429055565b60055481565b6001600160a01b0383166000908152600e602052604090205462000d759061070863ffffffff620019b116565b42101562000d8257600080fd5b600c5460408051632fe3f38f60e11b81523060048201526001600160a01b03848116602483015233604483015286811660648301526084820186905291516000939290921691635fc7e71e9160a48082019260209290919082900301818787803b15801562000df057600080fd5b505af115801562000e05573d6000803e3d6000fd5b505050506040513d602081101562000e1c57600080fd5b505190508062000e40576001600160a01b0384166000908152600e60205260408120555b600d546008546040805163fc57d4df60e01b81526001600160a01b0392831660048201529051600093929092169163fc57d4df91602480820192602092909190829003018186803b15801562000e9557600080fd5b505afa15801562000eaa573d6000803e3d6000fd5b505050506040513d602081101562000ec157600080fd5b5051600d546040805163fc57d4df60e01b81526001600160a01b0387811660048301529151939450600093919092169163fc57d4df916024808301926020929190829003018186803b15801562000f1757600080fd5b505afa15801562000f2c573d6000803e3d6000fd5b505050506040513d602081101562000f4357600080fd5b50519050811580159062000f5657508015155b62000f6057600080fd5b6000846001600160a01b031663bd6d894d6040518163ffffffff1660e01b8152600401602060405180830381600087803b15801562000f9e57600080fd5b505af115801562000fb3573d6000803e3d6000fd5b505050506040513d602081101562000fca57600080fd5b50519050600062000fda62001ee8565b62000fe462001ee8565b62000fee62001ee8565b600062000ffe6005548962001a0a565b9450905060008160038111156200101157fe5b146200101c57600080fd5b62001028878762001a0a565b9350905060008160038111156200103b57fe5b146200104657600080fd5b62001052848462001a4a565b9250905060008160038111156200106557fe5b146200107057600080fd5b6200107c828c62001a66565b9550905060008160038111156200108f57fe5b146200109a57600080fd5b60085460408051638157230b60e01b81526001600160a01b03928316600482015230602482015260448101889052606481018e90529051918c1691638157230b9160848082019260009290919082900301818387803b158015620010fd57600080fd5b505af115801562001112573d6000803e3d6000fd5b5050506001600160a01b03909c166000908152600e6020526040812055505050505050505050505050565b600e6020526000908152604090205481565b6200115962001ac2565b6000546001600160a01b03908116911614620011ab576040805162461bcd60e51b815260206004820181905260248201526000805160206200486f833981519152604482015290519081900360640190fd5b600080546040516001600160a01b03909116906000805160206200488f833981519152908390a3600080546001600160a01b0319169055565b600b546001600160a01b031681565b60015481565b6000546001600160a01b031690565b6009546001600160a01b031681565b600a546001600160a01b031681565b6000806200123c83600263ffffffff62001ac616565b6009546040805163317afabb60e21b81526004810184905290519293506000926001600160a01b039092169163c5ebeaec9160248082019260209290919082900301818787803b1580156200129057600080fd5b505af1158015620012a5573d6000803e3d6000fd5b505050506040513d6020811015620012bc57600080fd5b5051600a546040805163317afabb60e21b81526004810186905290519293506001600160a01b039091169163c5ebeaec916024808201926020929091908290030181600087803b15801562000cbb57600080fd5b6006805460408051602060026001851615610100026000190190941693909304601f81018490048402820184019092528181529291830182828015620004c85780601f106200049c57610100808354040283529160200191620004c8565b600854600954604080516323b872dd60e01b81523360048201526001600160a01b03928316602482015260448101859052905191909216916323b872dd9160648083019260209291908290030181600087803b158015620013ce57600080fd5b505af1158015620013e3573d6000803e3d6000fd5b505050506040513d6020811015620013fa57600080fd5b5050600954604080516340c10f1960e01b81523360048201526024810184905290516001600160a01b03909216916340c10f199160448082019260009290919082900301818387803b15801562000a0357600080fd5b600c546001600160a01b031681565b600c546001600160a01b03163314620014aa5760405162461bcd60e51b8152600401808060200182810382526041815260200180620048af6041913960600191505060405180910390fd5b600382905560408051634148522d60e01b60208083019190915282518083036004018152602483019093528251839260069260449091019182918501908083835b602083106200150c5780518252601f199092019160209182019101620014eb565b6001836020036101000a03801982511681845116808217855250505050505090500182805460018160011615610100020316600290048015620015895780601f106200156657610100808354040283529182019162001589565b820191906000526020600020905b81548152906001019060200180831162001574575b505092505050604051602081830303815290604052905060606040516020018080634148522d60e01b815250600401905060405160208183030381529060405290508060076040516020018083805190602001908083835b60208310620016025780518252601f199092019160209182019101620015e1565b6001836020036101000a038019825116818451168082178552505050505050905001828054600181600116156101000203166002900480156200167f5780601f106200165c5761010080835404028352918201916200167f565b820191906000526020600020905b8154815290600101906020018083116200166a575b505060408051601f1981840301815290829052600854600d549196508795508694508a93506001600160a01b0390811692911690859085906000908b90620016c79062001eda565b6001600160a01b038089168252878116602080840191909152908716604083015283151560a083015260c0820183905260e06060830181815287519184019190915286519091608084019161010085019189019080838360005b838110156200173b57818101518382015260200162001721565b50505050905090810190601f168015620017695780820380516001836020036101000a031916815260200191505b50838103825286518152865160209182019188019080838360005b838110156200179e57818101518382015260200162001784565b50505050905090810190601f168015620017cc5780820380516001836020036101000a031916815260200191505b509950505050505050505050604051809103906000f080158015620017f5573d6000803e3d6000fd5b50600980546001600160a01b0319166001600160a01b0392831617908190556008546040805163095ea7b360e01b8152928416600484018190526a0c097ce7bc90715b34b9f160241b602485015290519093919091169163095ea7b39160448083019260209291908290030181600087803b158015620008e957600080fd5b60035481565b6200188462001ac2565b6000546001600160a01b03908116911614620018d6576040805162461bcd60e51b815260206004820181905260248201526000805160206200486f833981519152604482015290519081900360640190fd5b6001600160a01b0381166200191d5760405162461bcd60e51b8152600401808060200182810382526026815260200180620048496026913960400191505060405180910390fd5b600080546040516001600160a01b03808516939216916000805160206200488f83398151915291a3600080546001600160a01b0319166001600160a01b0392909216919091179055565b60045481565b600062000cec83836040518060400160405280601e81526020017f536166654d6174683a207375627472616374696f6e206f766572666c6f77000081525062001b07565b60008282018381101562000cec576040805162461bcd60e51b815260206004820152601b60248201527a536166654d6174683a206164646974696f6e206f766572666c6f7760281b604482015290519081900360640190fd5b600062001a1662001ee8565b62001a3e60405180602001604052808681525060405180602001604052808681525062001ba2565b915091505b9250929050565b600062001a5662001ee8565b8351835162001a3e919062001c9b565b600080600062001a7562001ee8565b62001a81868662001d57565b9092509050600082600381111562001a9557fe5b1462001aa8575091506000905062001a43565b600062001ab58262001dc6565b9350935050509250929050565b3390565b600062000cec83836040518060400160405280601a815260200179536166654d6174683a206469766973696f6e206279207a65726f60301b81525062001dd5565b6000818484111562001b9a5760405162461bcd60e51b81526004018080602001828103825283818151815260200191508051906020019080838360005b8381101562001b5e57818101518382015260200162001b44565b50505050905090810190601f16801562001b8c5780820380516001836020036101000a031916815260200191505b509250505060405180910390fd5b505050900390565b600062001bae62001ee8565b60008062001bc58660000151866000015162001e3e565b9092509050600082600381111562001bd957fe5b1462001bfa5750604080516020810190915260008152909250905062001a43565b60008062001c116706f05b59d3b200008462001e83565b9092509050600082600381111562001c2557fe5b1462001c495750604080516020810190915260008152909450925062001a43915050565b60008062001c6083670de0b6b3a764000062001eac565b9092509050600082600381111562001c7457fe5b1462001c7c57fe5b604080516020810190915290815260009a909950975050505050505050565b600062001ca762001ee8565b60008062001cbe86670de0b6b3a764000062001e3e565b9092509050600082600381111562001cd257fe5b1462001cf35750604080516020810190915260008152909250905062001a43565b60008062001d02838862001eac565b9092509050600082600381111562001d1657fe5b1462001d3a5750604080516020810190915260008152909450925062001a43915050565b604080516020810190915290815260009890975095505050505050565b600062001d6362001ee8565b60008062001d7686600001518662001e3e565b9092509050600082600381111562001d8a57fe5b1462001dab5750604080516020810190915260008152909250905062001a43565b60408051602081019091529081526000969095509350505050565b51670de0b6b3a7640000900490565b6000818362001e275760405162461bcd60e51b815260206004820181815283516024840152835190928392604490910191908501908083836000831562001b5e57818101518382015260200162001b44565b50600083858162001e3457fe5b0495945050505050565b6000808362001e535750600090508062001a43565b8383028385828162001e6157fe5b041462001e775750600291506000905062001a43565b60009250905062001a43565b60008083830184811062001e9d5760009250905062001a43565b50600291506000905062001a43565b6000808262001ec2575060019050600062001a43565b600083858162001ece57fe5b04915091509250929050565b61294d8062001efc83390190565b604051806020016040528060008152509056fe60806040523480156200001157600080fd5b506040516200294d3803806200294d833981810160405260e08110156200003757600080fd5b8151602083015160408085015160608601805192519496939591949391820192846401000000008211156200006b57600080fd5b9083019060208201858111156200008157600080fd5b82516401000000008111828201881017156200009c57600080fd5b82525081516020918201929091019080838360005b83811015620000cb578181015183820152602001620000b1565b50505050905090810190601f168015620000f95780820380516001836020036101000a031916815260200191505b50604052602001805160405193929190846401000000008211156200011d57600080fd5b9083019060208201858111156200013357600080fd5b82516401000000008111828201881017156200014e57600080fd5b82525081516020918201929091019080838360005b838110156200017d57818101518382015260200162000163565b50505050905090810190601f168015620001ab5780820380516001836020036101000a031916815260200191505b5060409081526020820151910151909250905082846000620001d56001600160e01b03620002ce16565b600080546001600160a01b0319166001600160a01b0383169081178255604051929350917f8be0079c531659141344cd1fd0a4f28419497f9722a3daafe3b4186f6b6457e0908290a350815162000234906004906020850190620002d3565b5080516200024a906005906020840190620002d3565b50506006805460ff1916600817905550600e80546001600160a01b039788166001600160a01b03199182161790915560108054821633179055600f8054988816988216989098179097556011805495909616949096169390931790935550600d8054911515600160a01b0260ff60a01b199092169190911790555060075562000375565b335b90565b828054600181600116156101000203166002900490600052602060002090601f016020900481019282601f106200031657805160ff191683800117855562000346565b8280016001018555821562000346579182015b828111156200034657825182559160200191906001019062000329565b506200035492915062000358565b5090565b620002d091905b808211156200035457600081556001016200035f565b6125c880620003856000396000f3fe608060405234801561001057600080fd5b50600436106101cd5760003560e01c806306fdde03146101d2578063095ea7b31461024f5780630e7527021461028f57806311e2c02f146102be578063173b9904146102e257806317bfdfbc146102ea57806318160ddd14610310578063230b9da31461031857806323b872dd14610320578063313ce5671461035657806338d52e0f14610374578063395093511461037c5780633af9e669146103a85780633b1d21a2146103ce57806340c10f19146103d657806347bd3718146104045780636c540baf1461040c57806370a0823114610414578063715018a61461043a57806373acee981461044257806377e4974d1461044a5780638157230b146104525780638da5cb5b1461048e5780638f840ddd1461049657806395d89b411461049e5780639dc29fac146104a6578063a457c2d7146104d2578063a6afed95146104fe578063a9059cbb14610506578063aa5af0fd14610532578063ae9d70b01461053a578063bd6d894d14610542578063c37f68e21461054a578063c5d9bf711461058e578063c5ebeaec14610596578063dd62ed3e146105b3578063f2fde38b146105e1578063f3fdb15a14610607578063f8f9da281461060f575b600080fd5b6101da610617565b6040805160208082528351818301528351919283929083019185019080838360005b838110156102145781810151838201526020016101fc565b50505050905090810190601f1680156102415780820380516001836020036101000a031916815260200191505b509250505060405180910390f35b61027b6004803603604081101561026557600080fd5b506001600160a01b0381351690602001356106ae565b604080519115158252519081900360200190f35b6102ac600480360360208110156102a557600080fd5b50356106cb565b60408051918252519081900360200190f35b6102c6610951565b604080516001600160a01b039092168252519081900360200190f35b6102ac610960565b6102ac6004803603602081101561030057600080fd5b50356001600160a01b0316610966565b6102ac610a5c565b6102c6610a62565b61027b6004803603606081101561033657600080fd5b506001600160a01b03813581169160208101359091169060400135610a71565b61035e610afe565b6040805160ff9092168252519081900360200190f35b6102c6610b07565b61027b6004803603604081101561039257600080fd5b506001600160a01b038135169060200135610b16565b6102ac600480360360208110156103be57600080fd5b50356001600160a01b0316610b6a565b6102ac610c05565b610402600480360360408110156103ec57600080fd5b506001600160a01b038135169060200135610c14565b005b6102ac610d4c565b6102ac610d52565b6102ac6004803603602081101561042a57600080fd5b50356001600160a01b0316610d58565b610402610d73565b6102ac610e03565b61027b610e60565b6104026004803603608081101561046857600080fd5b506001600160a01b03813581169160208101359091169060408101359060600135610e70565b6102c6610efd565b6102ac610f0c565b6101da610f12565b610402600480360360408110156104bc57600080fd5b506001600160a01b038135169060200135610f73565b61027b600480360360408110156104e857600080fd5b506001600160a01b038135169060200135610fd9565b6102ac611047565b61027b6004803603604081101561051c57600080fd5b506001600160a01b038135169060200135611354565b6102ac611368565b6102ac61136e565b6102ac61140d565b6105706004803603602081101561056057600080fd5b50356001600160a01b0316611504565b60408051938452602084019290925282820152519081900360600190f35b6102c661153a565b6102ac600480360360208110156105ac57600080fd5b5035611549565b6102ac600480360360408110156105c957600080fd5b506001600160a01b0381358116916020013516611735565b610402600480360360208110156105f757600080fd5b50356001600160a01b0316611760565b6102c6611846565b6102ac611855565b60048054604080516020601f60026000196101006001881615020190951694909404938401819004810282018101909252828152606093909290918301828280156106a35780601f10610678576101008083540402835291602001916106a3565b820191906000526020600020905b81548152906001019060200180831161068657829003601f168201915b505050505090505b90565b60006106c26106bb6118b9565b84846118bd565b50600192915050565b6010546000906001600160a01b031633146107175760405162461bcd60e51b815260040180806020018281038252604a815260200180612469604a913960600191505060405180910390fd5b6000610721611047565b9050801561072e57600080fd5b6107366119a9565b6009541461074357600080fd5b61074b61225e565b3360008181526012602052604090819020600101549083015261076d90610966565b606082015260001984141561078b5760608101516020820152610793565b602081018490525b600e54604080516323b872dd60e01b81523360048201523060248201526044810187905290516001600160a01b03909216916323b872dd916064808201926020929091908290030181600087803b1580156107ed57600080fd5b505af1158015610801573d6000803e3d6000fd5b505050506040513d602081101561081757600080fd5b50506060810151602082015161082d91906119ad565b608083018190528282600381111561084157fe5b600381111561084c57fe5b905250600090508151600381111561086057fe5b1461089c5760405162461bcd60e51b815260040180806020018281038252603a81526020018061242f603a913960400191505060405180910390fd5b6108ac600b5482602001516119ad565b60a08301819052828260038111156108c057fe5b60038111156108cb57fe5b90525060009050815160038111156108df57fe5b1461091b5760405162461bcd60e51b81526004018080602001828103825260318152602001806124d36031913960400191505060405180910390fd5b6080810151336000908152601260205260408120918255600a5460019092019190915560a0820151600b555b925050505b919050565b6011546001600160a01b031681565b60085481565b600080610971611047565b146109bc576040805162461bcd60e51b81526020600482015260166024820152751858d8dc9d59481a5b9d195c995cdd0819985a5b195960521b604482015290519081900360640190fd5b6001600160a01b03821660009081526012602052604081208054829182916109eb57600094505050505061094c565b6109fb8160000154600a546119d3565b90945092506000846003811115610a0e57fe5b14610a2057600094505050505061094c565b610a2e838260010154611a12565b90945091506000846003811115610a4157fe5b14610a5357600094505050505061094c565b50949350505050565b60035490565b600d546001600160a01b031681565b6000610a7e848484611a3d565b610af484610a8a6118b9565b610aef856040518060600160405280602881526020016123c7602891396001600160a01b038a16600090815260026020526040812090610ac86118b9565b6001600160a01b03168152602081019190915260400160002054919063ffffffff611b9416565b6118bd565b5060019392505050565b60065460ff1690565b600e546001600160a01b031681565b60006106c2610b236118b9565b84610aef8560026000610b346118b9565b6001600160a01b03908116825260208083019390935260409182016000908120918c16815292529020549063ffffffff611c2b16565b6000610b74612295565b6040518060200160405280610b8761140d565b90529050600080610ba083610b9b87610d58565b611c8a565b90925090506000826003811115610bb357fe5b14610947576040805162461bcd60e51b815260206004820152601f60248201527f62616c616e636520636f756c64206e6f742062652063616c63756c6174656400604482015290519081900360640190fd5b6000610c0f611cdd565b905090565b610c1c6118b9565b6000546001600160a01b03908116911614610c6c576040805162461bcd60e51b815260206004820181905260248201526000805160206123ef833981519152604482015290519081900360640190fd5b6000610c76611047565b90508015610c8357600080fd5b610c8b6122a8565b610c9361140d565b602080830191825260408051918201905290518152610cb3908490611d28565b6040830181905282826003811115610cc757fe5b6003811115610cd257fe5b9052506000905081516003811115610ce657fe5b14610d38576040805162461bcd60e51b815260206004820181905260248201527f4d494e545f45584348414e47455f43414c43554c4154494f4e5f4641494c4544604482015290519081900360640190fd5b610d46848260400151611d3f565b50505050565b600b5481565b60095481565b6001600160a01b031660009081526001602052604090205490565b610d7b6118b9565b6000546001600160a01b03908116911614610dcb576040805162461bcd60e51b815260206004820181905260248201526000805160206123ef833981519152604482015290519081900360640190fd5b600080546040516001600160a01b039091169060008051602061240f833981519152908390a3600080546001600160a01b0319169055565b600080610e0e611047565b14610e59576040805162461bcd60e51b81526020600482015260166024820152751858d8dc9d59481a5b9d195c995cdd0819985a5b195960521b604482015290519081900360640190fd5b50600b5490565b600d54600160a01b900460ff1681565b601154600e546040805163f0defe9360e01b81526001600160a01b0392831660048201528783166024820152868316604482015260648101869052608481018590529051919092169163f0defe939160a480830192600092919082900301818387803b158015610edf57600080fd5b505af1158015610ef3573d6000803e3d6000fd5b5050505050505050565b6000546001600160a01b031690565b600c5481565b60058054604080516020601f60026000196101006001881615020190951694909404938401819004810282018101909252828152606093909290918301828280156106a35780601f10610678576101008083540402835291602001916106a3565b610f7b6118b9565b6000546001600160a01b03908116911614610fcb576040805162461bcd60e51b815260206004820181905260248201526000805160206123ef833981519152604482015290519081900360640190fd5b610fd58282611e2b565b5050565b60006106c2610fe66118b9565b84610aef8560405180606001604052806025815260200161256e60259139600260006110106118b9565b6001600160a01b03908116825260208083019390935260409182016000908120918d1681529252902054919063ffffffff611b9416565b6000806110526119a9565b6009549091508082141561106b576000925050506106ab565b6000611075611cdd565b600b54600c54600a54600f54604080516315f2405360e01b815260048101879052602481018690526044810185905290519596509394929391926000926001600160a01b03909216916315f24053916064808301926020929190829003018186803b1580156110e357600080fd5b505afa1580156110f7573d6000803e3d6000fd5b505050506040513d602081101561110d57600080fd5b5051905065048c2739500081111561116b576040805162461bcd60e51b815260206004820152601c60248201527b0c4dee4e4deee40e4c2e8ca40d2e640c2c4e6eae4c8d8f240d0d2ced60231b604482015290519081900360640190fd5b60008061117889896119ad565b9092509050600082600381111561118b57fe5b146111dd576040805162461bcd60e51b815260206004820152601f60248201527f636f756c64206e6f742063616c63756c61746520626c6f636b2064656c746100604482015290519081900360640190fd5b6111e5612295565b60008060008061120360405180602001604052808a81525087611f21565b9097509450600087600381111561121657fe5b14611248576112336009600689600381111561122e57fe5b611f89565b9e5050505050505050505050505050506106ab565b611252858c611c8a565b9097509350600087600381111561126557fe5b1461127d576112336009600189600381111561122e57fe5b611287848c611fe5565b9097509250600087600381111561129a57fe5b146112b2576112336009600489600381111561122e57fe5b6112cd6040518060200160405280600854815250858c61200b565b909750915060008760038111156112e057fe5b146112f8576112336009600589600381111561122e57fe5b611303858a8b61200b565b9097509050600087600381111561131657fe5b1461132e576112336009600389600381111561122e57fe5b60099d909d55600a9c909c55600b55505050600c97909755506000979650505050505050565b60006106c26113616118b9565b8484611a3d565b600a5481565b600f546000906001600160a01b031663b816881661138a611cdd565b600b54600c546008546040518563ffffffff1660e01b81526004018085815260200184815260200183815260200182815260200194505050505060206040518083038186803b1580156113dc57600080fd5b505afa1580156113f0573d6000803e3d6000fd5b505050506040513d602081101561140657600080fd5b5051905090565b600080611418611047565b14611463576040805162461bcd60e51b81526020600482015260166024820152751858d8dc9d59481a5b9d195c995cdd0819985a5b195960521b604482015290519081900360640190fd5b61146b610a5c565b61147857506007546106ab565b6000611482611cdd565b9050600061148e612295565b600061149f84600b54600c54612067565b9350905060008160038111156114b157fe5b146114c35760009450505050506106ab565b6114d4836114cf610a5c565b6120a5565b9250905060008160038111156114e657fe5b146114f85760009450505050506106ab565b505192506106ab915050565b60008060008061151385610d58565b9050600061152086610966565b9050600061152c61140d565b929791965091945092505050565b6010546001600160a01b031681565b6010546000906001600160a01b031633146115955760405162461bcd60e51b815260040180806020018281038252604a815260200180612469604a913960600191505060405180910390fd5b600061159f611047565b905080156115c5576115bd8160108111156115b657fe5b6008612155565b91505061094c565b826115ce611cdd565b10156115e0576115bd600e6009612155565b6115e86122ca565b6115f133610966565b602082018190526116029085611fe5565b604083018190528282600381111561161657fe5b600381111561162157fe5b905250600090508151600381111561163557fe5b1461163f57600080fd5b61164b600b5485611fe5565b606083018190528282600381111561165f57fe5b600381111561166a57fe5b905250600090508151600381111561167e57fe5b1461168857600080fd5b600e546040805163a9059cbb60e01b81523360048201526024810187905290516001600160a01b039092169163a9059cbb916044808201926020929091908290030181600087803b1580156116dc57600080fd5b505af11580156116f0573d6000803e3d6000fd5b505050506040513d602081101561170657600080fd5b50506040808201513360009081526012602052918220908155600a546001909101556060820151600b55610947565b6001600160a01b03918216600090815260026020908152604080832093909416825291909152205490565b6117686118b9565b6000546001600160a01b039081169116146117b8576040805162461bcd60e51b815260206004820181905260248201526000805160206123ef833981519152604482015290519081900360640190fd5b6001600160a01b0381166117fd5760405162461bcd60e51b81526004018080602001828103825260268152602001806123596026913960400191505060405180910390fd5b600080546040516001600160a01b038085169392169160008051602061240f83398151915291a3600080546001600160a01b0319166001600160a01b0392909216919091179055565b600f546001600160a01b031681565b600f546000906001600160a01b03166315f24053611871611cdd565b600b54600c546040518463ffffffff1660e01b815260040180848152602001838152602001828152602001935050505060206040518083038186803b1580156113dc57600080fd5b3390565b6001600160a01b0383166119025760405162461bcd60e51b815260040180806020018281038252602481526020018061254a6024913960400191505060405180910390fd5b6001600160a01b0382166119475760405162461bcd60e51b815260040180806020018281038252602281526020018061237f6022913960400191505060405180910390fd5b6001600160a01b03808416600081815260026020908152604080832094871680845294825291829020859055815185815291517f8c5be1e5ebec7d5bd14f71427d1e84f3dd0314c0f7b2291e5b200ac8c7c3b9259281900390910190a3505050565b4390565b6000808383116119c45750600090508183036119cc565b506003905060005b9250929050565b600080836119e6575060009050806119cc565b838302838582816119f357fe5b0414611a07575060029150600090506119cc565b6000925090506119cc565b60008082611a2657506001905060006119cc565b6000838581611a3157fe5b04915091509250929050565b6001600160a01b038316611a825760405162461bcd60e51b81526004018080602001828103825260258152602001806125256025913960400191505060405180910390fd5b6001600160a01b038216611ac75760405162461bcd60e51b81526004018080602001828103825260238152602001806122f46023913960400191505060405180910390fd5b611ad28383836121a9565b611b15816040518060600160405280602681526020016123a1602691396001600160a01b038616600090815260016020526040902054919063ffffffff611b9416565b6001600160a01b038085166000908152600160205260408082209390935590841681522054611b4a908263ffffffff611c2b16565b6001600160a01b0380841660008181526001602090815260409182902094909455805185815290519193928716926000805160206124b383398151915292918290030190a3505050565b60008184841115611c235760405162461bcd60e51b81526004018080602001828103825283818151815260200191508051906020019080838360005b83811015611be8578181015183820152602001611bd0565b50505050905090810190601f168015611c155780820380516001836020036101000a031916815260200191505b509250505060405180910390fd5b505050900390565b600082820183811015611c83576040805162461bcd60e51b815260206004820152601b60248201527a536166654d6174683a206164646974696f6e206f766572666c6f7760281b604482015290519081900360640190fd5b9392505050565b6000806000611c97612295565b611ca18686611f21565b90925090506000826003811115611cb457fe5b14611cc557509150600090506119cc565b6000611cd0826121ae565b9350935050509250929050565b600e54604080516370a0823160e01b815230600482015290516000926001600160a01b0316916370a08231916024808301926020929190829003018186803b1580156113dc57600080fd5b6000806000611d35612295565b611ca186866121bd565b6001600160a01b038216611d9a576040805162461bcd60e51b815260206004820152601f60248201527f45524332303a206d696e7420746f20746865207a65726f206164647265737300604482015290519081900360640190fd5b611da6600083836121a9565b600354611db9908263ffffffff611c2b16565b6003556001600160a01b038216600090815260016020526040902054611de5908263ffffffff611c2b16565b6001600160a01b03831660008181526001602090815260408083209490945583518581529351929391926000805160206124b38339815191529281900390910190a35050565b6001600160a01b038216611e705760405162461bcd60e51b81526004018080602001828103825260218152602001806125046021913960400191505060405180910390fd5b611e7c826000836121a9565b611ebf81604051806060016040528060228152602001612317602291396001600160a01b038516600090815260016020526040902054919063ffffffff611b9416565b6001600160a01b038316600090815260016020526040902055600354611eeb908263ffffffff61221c16565b6003556040805182815290516000916001600160a01b038516916000805160206124b38339815191529181900360200190a35050565b6000611f2b612295565b600080611f3c8660000151866119d3565b90925090506000826003811115611f4f57fe5b14611f6e575060408051602081019091526000815290925090506119cc565b60408051602081019091529081526000969095509350505050565b6000600080516020612339833981519152846010811115611fa657fe5b846050811115611fb257fe5b604080519283526020830191909152818101859052519081900360600190a1836010811115611fdd57fe5b949350505050565b600080838301848110611ffd576000925090506119cc565b5060029150600090506119cc565b6000806000612018612295565b6120228787611f21565b9092509050600082600381111561203557fe5b14612046575091506000905061205f565b612058612052826121ae565b86611fe5565b9350935050505b935093915050565b6000806000806120778787611fe5565b9092509050600082600381111561208a57fe5b1461209b575091506000905061205f565b61205881866119ad565b60006120af612295565b6000806120c486670de0b6b3a76400006119d3565b909250905060008260038111156120d757fe5b146120f6575060408051602081019091526000815290925090506119cc565b6000806121038388611a12565b9092509050600082600381111561211657fe5b14612138575060408051602081019091526000815290945092506119cc915050565b604080516020810190915290815260009890975095505050505050565b600060008051602061233983398151915283601081111561217257fe5b83605081111561217e57fe5b604080519283526020830191909152600082820152519081900360600190a1826010811115611c8357fe5b505050565b51670de0b6b3a7640000900490565b60006121c7612295565b6000806121dc670de0b6b3a7640000876119d3565b909250905060008260038111156121ef57fe5b1461220e575060408051602081019091526000815290925090506119cc565b611cd08186600001516120a5565b6000611c8383836040518060400160405280601e81526020017f536166654d6174683a207375627472616374696f6e206f766572666c6f770000815250611b94565b6040805160c08101909152806000815260200160008152602001600081526020016000815260200160008152602001600081525090565b6040518060200160405280600081525090565b6040805160608101909152806000815260200160008152602001600081525090565b60408051608081019091528060008152602001600081526020016000815260200160008152509056fe45524332303a207472616e7366657220746f20746865207a65726f206164647265737345524332303a206275726e20616d6f756e7420657863656564732062616c616e636545b96fe442630264581b197e84bbada861235052c5a1aadfff9ea4e40a969aa04f776e61626c653a206e6577206f776e657220697320746865207a65726f206164647265737345524332303a20617070726f766520746f20746865207a65726f206164647265737345524332303a207472616e7366657220616d6f756e7420657863656564732062616c616e636545524332303a207472616e7366657220616d6f756e74206578636565647320616c6c6f77616e63654f776e61626c653a2063616c6c6572206973206e6f7420746865206f776e65728be0079c531659141344cd1fd0a4f28419497f9722a3daafe3b4186f6b6457e052455041595f424f52524f575f4e45575f4143434f554e545f424f52524f575f42414c414e43455f43414c43554c4154494f4e5f4641494c45444e6f7420746865204d6f6e65794d61726b6574496e7374616e63653a2063616c6c6572206973206e6f74207468697320746f6b656e73204d6f6e65794d61726b6574496e7374616e6365ddf252ad1be2c89b69c2b068fc378daa952ba7f163c4a11628f55a4df523b3ef52455041595f424f52524f575f4e45575f544f54414c5f42414c414e43455f43414c43554c4154494f4e5f4641494c454445524332303a206275726e2066726f6d20746865207a65726f206164647265737345524332303a207472616e736665722066726f6d20746865207a65726f206164647265737345524332303a20617070726f76652066726f6d20746865207a65726f206164647265737345524332303a2064656372656173656420616c6c6f77616e63652062656c6f77207a65726fa26469706673582212205f717931116b5ad363785579b4d1153693b2ba957641f5ca87227052b9ca9d2f64736f6c634300060000334f776e61626c653a206e6577206f776e657220697320746865207a65726f20616464726573734f776e61626c653a2063616c6c6572206973206e6f7420746865206f776e65728be0079c531659141344cd1fd0a4f28419497f9722a3daafe3b4186f6b6457e04f6e6c79204d6f6e6579204d61726b657420466163746f72793a2063616c6c6572206973206e6f7420746865204d6f6e6579204d61726b657420466163746f7279a2646970667358221220390e044a91f512856b04b69fef46d1a2b5f3b5c6ab0cdea09257178bb1e9a57f64736f6c634300060000334f776e61626c653a206e6577206f776e657220697320746865207a65726f20616464726573738be0079c531659141344cd1fd0a4f28419497f9722a3daafe3b4186f6b6457e0",
  "source": "pragma solidity ^0.6.0;\n\nimport \"@openzeppelin/contracts/access/Ownable.sol\";\nimport \"@openzeppelin/contracts/math/SafeMath.sol\";\nimport \"@openzeppelin/contracts/token/ERC20/IERC20.sol\";\nimport \"./compound/InterestRateModel.sol\";\nimport \"./compound/Exponential.sol\";\nimport \"./compound/ErrorReporter.sol\";\nimport \"./interfaces/UniswapOracleFactoryI.sol\";\nimport \"./interfaces/UniswapOracleInstanceI.sol\";\nimport \"./interfaces/MoneyMarketFactoryI.sol\";\nimport \"./AskoRiskToken.sol\";\n\n\n////////////////////////////////////////////////////////////////////////////////////////////\n/// @title MoneyMarketInstance\n/// @author Christopher Dixon\n////////////////////////////////////////////////////////////////////////////////////////////\n/**\nThe MoneyMarketInstance contract is designed facilitate a tiered money market for an individual ERC20 asset\nThis contract uses the OpenZeppelin contract Library to inherit functions from\n  Ownable.sol && IRC20.sol\n**/\ncontract MoneyMarketInstance is Ownable, Exponential, TokenErrorReporter {\n    using SafeMath for uint256;\n\n  uint public feePercent;\n  uint public divisor;\n  uint public fee_AHR;\n  uint public fee_ALR;\n  uint public liquidationIncentiveMantissa = 1.5e18; // 1.5\n\n\n  string public assetName;\n  string public assetSymbol;\n\n\n  IERC20 public asset;\n  AskoRiskToken public AHR;\n  AskoRiskToken public ALR;\n  UniswapOracleInstanceI public oracle;\n  MoneyMarketFactoryI public MMF;\n  UniswapOracleFactoryI public UOF;\n\n  mapping(address => uint) public nonCompliant;\n\n\n\n\n\n\n\n/**\n@notice onlyMMFactory is a modifier used to make a function only callable by the Money Market Factory contract\n**/\n  modifier onlyMMFactory()  {\n    require(msg.sender == address(MMF), \"Only Money Market Factory: caller is not the Money Market Factory\");\n    _;\n  }\n\n\n/**\n@notice the constructor function is fired during the contract deployment process. The constructor can only be fired once and\n        is used to initialize the MoneyMakerInstance and deploy its associated AHR && ALR token contracts\n@param _assetContractAdd is the address of the ERC20 asset being whitelisted\n@param _owner is the address that will own this contract(The AskoDAO)\n@param _assetName is the name of the asset(e.x: ChainLink)\n@param _assetSymbol is the symbol of the asset(e.x: LINK)\n@dev this function uses ABI encoding to properly concatenate AHR- && ALR- in front of the tokens name and symbol\n      before creating each token.\n**/\n  constructor (\n    address _assetContractAdd,\n    address _owner,\n    address _oracle,\n    address _oracleFactory,\n\t\tstring memory _assetName,\n\t\tstring memory _assetSymbol\n  )\n  public\n  {\n    asset = IERC20(_assetContractAdd);\n\n\n  divisor = 10000;\n  assetName = _assetName;\n  assetSymbol = _assetSymbol;\n  UOF = UniswapOracleFactoryI(_oracleFactory);\n  oracle = UniswapOracleInstanceI(_oracle);\n  MMF = MoneyMarketFactoryI(msg.sender);\n  transferOwnership(_owner);\n\n  }\n\n/**\n@notice setUp is called by the MoneyMarketFactory after a contract is created to set up the initial variables.\n        This is split from the constructor function to keep from reaching the gas block limit\n@param  _InterestRateModel is the address of this MoneyMarketInstances InterestRateModel\n@param _fee is a number representing the fee for exchanging an AHR token, as a mantissa (scaled by 1e18)\n@dev this function will create a token whos name and symbol is concatenated with a \"AHR-\" in front of it\n      example: AHR-LINK\n@dev asset.approve() is called to allow the AHR contract to freeely transfer the assset from this contract when the mint\n      lendToAHRpool function is called.\n**/\nfunction _setUpAHR(\n    address _InterestRateModel,\n    uint _fee,\n    uint _initialExchangeRate\n  )\n  public\n  onlyMMFactory\n  {\n  fee_AHR = _fee;\n  bytes memory ahrname = abi.encodePacked(\"AHR-\");\n  ahrname = abi.encodePacked(ahrname, assetName);\n\n  bytes memory ahrsymbol = abi.encodePacked(\"AHR-\");\n  ahrsymbol = abi.encodePacked(ahrsymbol, assetSymbol);\n\n  string memory assetNameAHR = string(ahrname);\n  string memory assetSymbolAHR = string(ahrsymbol);\n\n  AHR = new AskoRiskToken(\n    _InterestRateModel,\n    address(asset),\n    address(UOF),\n    assetNameAHR,\n    assetSymbolAHR,\n    false,\n    _initialExchangeRate\n  );\n\n  address ahr = address(AHR);\n\n  asset.approve(ahr, 1000000000000000000000000000000000000);\n  }\n\n/**\n@notice setUp is called by the MoneyMarketFactory after a contract is created to set up the initial variables.\n        This is split from the constructor function to keep from reaching the gas block limit\n@param  _InterestRateModel is the address of this MoneyMarketInstances InterestRateModel\n@param _fee is a number representing the fee for exchanging an ALR token, as a mantissa (scaled by 1e18)\n@dev this function will create a token whos name and symbol is concatenated with a \"ALR-\" in front of it\n      example: ALR-LINK\n@dev asset.approve() is called to allow the ALR contract to freeely transfer the assset from this contract when the mint\n      lendToALRpool function is called.\n**/\n  function _setUpALR(\n      address _InterestRateModel,\n      uint256 _fee,\n      uint _initialExchangeRate\n    )\n    public\n    onlyMMFactory\n    {\n    fee_ALR = _fee;\n    bytes memory alrname = abi.encodePacked(\"AlR-\");\n    alrname = abi.encodePacked(alrname, assetName);\n\n    bytes memory alrsymbol = abi.encodePacked(\"AlR-\");\n    alrsymbol = abi.encodePacked(alrsymbol, assetSymbol);\n\n    string memory assetNameALR = string(alrname);\n    string memory assetSymbolALR = string(alrsymbol);\n\n    ALR = new AskoRiskToken(\n      _InterestRateModel,\n      address(asset),\n      address(UOF),\n      assetNameALR,\n      assetSymbolALR,\n      true,\n      _initialExchangeRate\n    );\n\n    address alr = address(ALR);\n    asset.approve(alr, 1000000000000000000000000000000000000);\n    }\n\n\n\n/**\n@notice lendToAHRpool is used to lend assets to a MoneyMarketInstance's High Risk pool\n@param _amount is the amount of the asset being lent\n@dev the user will need to first approve the transfer of the underlying asset\n**/\n  function lendToAHRpool(uint _amount) public {\n    asset.transferFrom(msg.sender, address(AHR), _amount);\n    AHR.mint(msg.sender, _amount);\n  }\n\n/**\n@notice lendToAHRpool is used to lend assets to a MoneyMarketInstance's Low Risk pool\n@param _amount is the amount of the asset being lent\n@dev the user will need to first approve the transfer of the underlying asset\n**/\n    function lendToALRpool(uint _amount) public {\n    asset.transferFrom(msg.sender, address(ALR), _amount);\n      ALR.mint(msg.sender, _amount);\n    }\n\n\n\n\n/**\n@notice borrow is used to take out a loan from in MoneyMarketInstance's underlying asset\n@param _amount is the amount of asset being barrowed\n**/\n  function borrow(uint _amount) public returns(uint) {\n      uint half = _amount.div(2);\n      uint err = AHR.borrow(half);\n       err = ALR.borrow(half);\n      return (err);\n  }\n\n/**\n@notice repay is used to repay a loan\n@param _repayAmount is the amount of the underlying asset being repayed\n**/\n\tfunction repay(uint _repayAmount) public returns(uint) {\n    uint accountBorrowsALR = ALR.borrowBalanceCurrent(msg.sender);\n\n    uint err = 0;\n\n    if(accountBorrowsALR != 0) { //if amount owed to ALR isnt zero\n          if(accountBorrowsALR >= _repayAmount) { //check if repay amount is greater than ALR borrow balance\n             err = ALR.repayBorrow(_repayAmount); //if it is repay amount to ALR\n          } else { //if not\n            uint amountToALR = _repayAmount.sub(accountBorrowsALR); //calculate aount needed to pay off ALR\n             err = ALR.repayBorrow(amountToALR); //pay off ALR\n            uint amountToAHR = _repayAmount.sub(amountToALR);//calculate AHR amount\n            err = AHR.repayBorrow(amountToAHR);\n          }\n    } else {//if amount owed to ALR IS zero\n       err = AHR.repayBorrow(_repayAmount);//pay towards AHR\n    }\n\n    return err;\n  }\n\nfunction markAccountNonCompliant(address borrower) public {\n  require(nonCompliant[borrower] == 0);\n  nonCompliant[borrower] = now;\n}\n\n\n\n/**\n@notice The sender liquidates the borrowers collateral. This function is called on the MoneyMarket the borrower owes to.\n@param borrower The borrower of this cToken to be liquidated\n@param repayAmount The amount of the underlying borrowed asset to repay\n@param _ART is the address of the AskoRiskToken\n */\nfunction liquidateAccount(address borrower, uint repayAmount, AskoRiskToken _ART) public {\n\nrequire(now >= nonCompliant[borrower].add(1800));//checks if its been nonCompliant for more than a half hour\n\n  bool allowed = MMF.liquidateBorrowAllowed(address(this), address(_ART), msg.sender, borrower, repayAmount);\n  if (!allowed) {\n      nonCompliant[borrower] = 0;//resets borrowers compliance timer if its not alloud\n  }\n\n  /* Read oracle prices for borrowed and collateral markets */\n  uint priceBorrowedMantissa = UOF.getUnderlyingPrice(address(asset));\n  uint priceCollateralMantissa = UOF.getUnderlyingPrice(address(_ART));\n  require(priceBorrowedMantissa != 0 && priceCollateralMantissa != 0);\n\n\n  /*\n   * Get the exchange rate and calculate the number of collateral tokens to seize:\n   *  seizeAmount = actualRepayAmount * liquidationIncentive * priceBorrowed / priceCollateral\n   *  seizeTokens = seizeAmount / exchangeRate\n   *   = actualRepayAmount * (liquidationIncentive * priceBorrowed) / (priceCollateral * exchangeRate)\n   */\n  uint exchangeRateMantissa = _ART.exchangeRateCurrent(); // Note: reverts on error\n  uint seizeTokens;\n  Exp memory numerator;\n  Exp memory denominator;\n  Exp memory ratio;\n  MathError mathErr;\n\n  (mathErr, numerator) = mulExp(liquidationIncentiveMantissa, priceBorrowedMantissa);\n  require(mathErr == MathError.NO_ERROR);\n\n\n  (mathErr, denominator) = mulExp(priceCollateralMantissa, exchangeRateMantissa);\n  require(mathErr == MathError.NO_ERROR);\n\n  (mathErr, ratio) = divExp(numerator, denominator);\n  require(mathErr == MathError.NO_ERROR);\n\n  (mathErr, seizeTokens) = mulScalarTruncate(ratio, repayAmount);\n  require(mathErr == MathError.NO_ERROR);\n\n\n\n  _ART._liquidateFor(address(asset), address(this), seizeTokens, repayAmount);\n/**\nthis function calls the MoneyMarketInstance where the borrower has collateral staked and has it swap\nits underlying asset on uniswap for the underlying asset borrowed\n**/\n\n    nonCompliant[borrower] = 0;//resets borrowers compliance timer\n\n}\n\n\n\n}\n",
  "sourcePath": "/home/stan36/repos/Askolend/AskoLend-contracts/contracts/MoneyMarketInstance.sol",
  "compiler": {
    "name": "solc",
    "version": "0.6.0+commit.26b70077.Emscripten.clang"
  },
  "schemaVersion": "3.2.5",
  "updatedAt": "2020-10-06T18:35:28.024Z",
  "devdoc": {
    "methods": {
      "_setUpAHR(address,uint256,uint256)": {
        "details": "this function will create a token whos name and symbol is concatenated with a \"AHR-\" in front of it example: AHR-LINKasset.approve() is called to allow the AHR contract to freeely transfer the assset from this contract when the mint lendToAHRpool function is called.*",
        "params": {
          "_InterestRateModel": "is the address of this MoneyMarketInstances InterestRateModel",
          "_fee": "is a number representing the fee for exchanging an AHR token, as a mantissa (scaled by 1e18)"
        }
      },
      "_setUpALR(address,uint256,uint256)": {
        "details": "this function will create a token whos name and symbol is concatenated with a \"ALR-\" in front of it example: ALR-LINKasset.approve() is called to allow the ALR contract to freeely transfer the assset from this contract when the mint lendToALRpool function is called.*",
        "params": {
          "_InterestRateModel": "is the address of this MoneyMarketInstances InterestRateModel",
          "_fee": "is a number representing the fee for exchanging an ALR token, as a mantissa (scaled by 1e18)"
        }
      },
      "borrow(uint256)": {
        "params": {
          "_amount": "is the amount of asset being barrowed*"
        }
      },
      "constructor": {
        "details": "this function uses ABI encoding to properly concatenate AHR- && ALR- in front of the tokens name and symbol before creating each token.*",
        "params": {
          "_assetContractAdd": "is the address of the ERC20 asset being whitelisted",
          "_assetName": "is the name of the asset(e.x: ChainLink)",
          "_assetSymbol": "is the symbol of the asset(e.x: LINK)",
          "_owner": "is the address that will own this contract(The AskoDAO)"
        }
      },
      "lendToAHRpool(uint256)": {
        "details": "the user will need to first approve the transfer of the underlying asset*",
        "params": {
          "_amount": "is the amount of the asset being lent"
        }
      },
      "lendToALRpool(uint256)": {
        "details": "the user will need to first approve the transfer of the underlying asset*",
        "params": {
          "_amount": "is the amount of the asset being lent"
        }
      },
      "liquidateAccount(address,uint256,address)": {
        "params": {
          "_ART": "is the address of the AskoRiskToken",
          "borrower": "The borrower of this cToken to be liquidated",
          "repayAmount": "The amount of the underlying borrowed asset to repay"
        }
      },
      "owner()": {
        "details": "Returns the address of the current owner."
      },
      "renounceOwnership()": {
        "details": "Leaves the contract without owner. It will not be possible to call `onlyOwner` functions anymore. Can only be called by the current owner.     * NOTE: Renouncing ownership will leave the contract without an owner, thereby removing any functionality that is only available to the owner."
      },
      "repay(uint256)": {
        "params": {
          "_repayAmount": "is the amount of the underlying asset being repayed*"
        }
      },
      "transferOwnership(address)": {
        "details": "Transfers ownership of the contract to a new account (`newOwner`). Can only be called by the current owner."
      }
    }
  },
  "userdoc": {
    "methods": {
      "_setUpAHR(address,uint256,uint256)": {
        "notice": "setUp is called by the MoneyMarketFactory after a contract is created to set up the initial variables. This is split from the constructor function to keep from reaching the gas block limit"
      },
      "_setUpALR(address,uint256,uint256)": {
        "notice": "setUp is called by the MoneyMarketFactory after a contract is created to set up the initial variables. This is split from the constructor function to keep from reaching the gas block limit"
      },
      "borrow(uint256)": {
        "notice": "borrow is used to take out a loan from in MoneyMarketInstance's underlying asset"
      },
      "constructor": "the constructor function is fired during the contract deployment process. The constructor can only be fired once and is used to initialize the MoneyMakerInstance and deploy its associated AHR && ALR token contracts",
      "lendToAHRpool(uint256)": {
        "notice": "lendToAHRpool is used to lend assets to a MoneyMarketInstance's High Risk pool"
      },
      "lendToALRpool(uint256)": {
        "notice": "lendToAHRpool is used to lend assets to a MoneyMarketInstance's Low Risk pool"
      },
      "liquidateAccount(address,uint256,address)": {
        "notice": "The sender liquidates the borrowers collateral. This function is called on the MoneyMarket the borrower owes to."
      },
      "repay(uint256)": {
        "notice": "repay is used to repay a loan"
      }
    },
    "notice": "The MoneyMarketInstance contract is designed facilitate a tiered money market for an individual ERC20 asset This contract uses the OpenZeppelin contract Library to inherit functions from Ownable.sol && IRC20.sol*"
  }
}