{
  "contractName": "MoneyMarketInstance",
  "abi": [
    {
      "inputs": [
        {
          "internalType": "address",
          "name": "_assetContractAdd",
          "type": "address"
        },
        {
          "internalType": "address",
          "name": "_oracleFactory",
          "type": "address"
        },
        {
          "internalType": "address",
          "name": "_owner",
          "type": "address"
        },
        {
          "internalType": "string",
          "name": "_assetName",
          "type": "string"
        },
        {
          "internalType": "string",
          "name": "_assetSymbol",
          "type": "string"
        }
      ],
      "stateMutability": "nonpayable",
      "type": "constructor"
    },
    {
      "anonymous": false,
      "inputs": [
        {
          "indexed": true,
          "internalType": "address",
          "name": "previousOwner",
          "type": "address"
        },
        {
          "indexed": true,
          "internalType": "address",
          "name": "newOwner",
          "type": "address"
        }
      ],
      "name": "OwnershipTransferred",
      "type": "event"
    },
    {
      "inputs": [],
      "name": "AHR",
      "outputs": [
        {
          "internalType": "contract AskoRiskToken",
          "name": "",
          "type": "address"
        }
      ],
      "stateMutability": "view",
      "type": "function"
    },
    {
      "inputs": [],
      "name": "ALR",
      "outputs": [
        {
          "internalType": "contract AskoRiskToken",
          "name": "",
          "type": "address"
        }
      ],
      "stateMutability": "view",
      "type": "function"
    },
    {
      "inputs": [],
      "name": "MMF",
      "outputs": [
        {
          "internalType": "contract MoneyMarketFactoryI",
          "name": "",
          "type": "address"
        }
      ],
      "stateMutability": "view",
      "type": "function"
    },
    {
      "inputs": [],
      "name": "UOF",
      "outputs": [
        {
          "internalType": "contract UniswapOracleFactoryI",
          "name": "",
          "type": "address"
        }
      ],
      "stateMutability": "view",
      "type": "function"
    },
    {
      "inputs": [],
      "name": "asset",
      "outputs": [
        {
          "internalType": "contract IERC20",
          "name": "",
          "type": "address"
        }
      ],
      "stateMutability": "view",
      "type": "function"
    },
    {
      "inputs": [],
      "name": "assetName",
      "outputs": [
        {
          "internalType": "string",
          "name": "",
          "type": "string"
        }
      ],
      "stateMutability": "view",
      "type": "function"
    },
    {
      "inputs": [],
      "name": "assetSymbol",
      "outputs": [
        {
          "internalType": "string",
          "name": "",
          "type": "string"
        }
      ],
      "stateMutability": "view",
      "type": "function"
    },
    {
      "inputs": [],
      "name": "divisor",
      "outputs": [
        {
          "internalType": "uint256",
          "name": "",
          "type": "uint256"
        }
      ],
      "stateMutability": "view",
      "type": "function"
    },
    {
      "inputs": [],
      "name": "feePercent",
      "outputs": [
        {
          "internalType": "uint256",
          "name": "",
          "type": "uint256"
        }
      ],
      "stateMutability": "view",
      "type": "function"
    },
    {
      "inputs": [],
      "name": "fee_AHR",
      "outputs": [
        {
          "internalType": "uint256",
          "name": "",
          "type": "uint256"
        }
      ],
      "stateMutability": "view",
      "type": "function"
    },
    {
      "inputs": [],
      "name": "fee_ALR",
      "outputs": [
        {
          "internalType": "uint256",
          "name": "",
          "type": "uint256"
        }
      ],
      "stateMutability": "view",
      "type": "function"
    },
    {
      "inputs": [],
      "name": "owner",
      "outputs": [
        {
          "internalType": "address",
          "name": "",
          "type": "address"
        }
      ],
      "stateMutability": "view",
      "type": "function"
    },
    {
      "inputs": [],
      "name": "renounceOwnership",
      "outputs": [],
      "stateMutability": "nonpayable",
      "type": "function"
    },
    {
      "inputs": [
        {
          "internalType": "address",
          "name": "newOwner",
          "type": "address"
        }
      ],
      "name": "transferOwnership",
      "outputs": [],
      "stateMutability": "nonpayable",
      "type": "function"
    },
    {
      "inputs": [
        {
          "internalType": "address",
          "name": "_InterestRateModel",
          "type": "address"
        },
        {
          "internalType": "uint256",
          "name": "_fee",
          "type": "uint256"
        },
        {
          "internalType": "uint256",
          "name": "_initialExchangeRate",
          "type": "uint256"
        }
      ],
      "name": "_setUpAHR",
      "outputs": [],
      "stateMutability": "nonpayable",
      "type": "function"
    },
    {
      "inputs": [
        {
          "internalType": "address",
          "name": "_InterestRateModel",
          "type": "address"
        },
        {
          "internalType": "uint256",
          "name": "_fee",
          "type": "uint256"
        },
        {
          "internalType": "uint256",
          "name": "_initialExchangeRate",
          "type": "uint256"
        }
      ],
      "name": "_setUpALR",
      "outputs": [],
      "stateMutability": "nonpayable",
      "type": "function"
    },
    {
      "inputs": [],
      "name": "getAssetAdd",
      "outputs": [
        {
          "internalType": "address",
          "name": "",
          "type": "address"
        }
      ],
      "stateMutability": "view",
      "type": "function"
    },
    {
      "inputs": [
        {
          "internalType": "uint256",
          "name": "_amount",
          "type": "uint256"
        }
      ],
      "name": "lendToAHRpool",
      "outputs": [],
      "stateMutability": "nonpayable",
      "type": "function"
    },
    {
      "inputs": [
        {
          "internalType": "uint256",
          "name": "_amount",
          "type": "uint256"
        }
      ],
      "name": "lendToALRpool",
      "outputs": [],
      "stateMutability": "nonpayable",
      "type": "function"
    },
    {
      "inputs": [
        {
          "internalType": "uint256",
          "name": "_amount",
          "type": "uint256"
        },
        {
          "internalType": "address",
          "name": "_collateral",
          "type": "address"
        }
      ],
      "name": "borrow",
      "outputs": [],
      "stateMutability": "nonpayable",
      "type": "function"
    },
    {
      "inputs": [
        {
          "internalType": "uint256",
          "name": "_repayAmount",
          "type": "uint256"
        }
      ],
      "name": "repay",
      "outputs": [],
      "stateMutability": "nonpayable",
      "type": "function"
    },
    {
      "inputs": [
        {
          "internalType": "uint256",
          "name": "_amount",
          "type": "uint256"
        }
      ],
      "name": "collateralizeALR",
      "outputs": [],
      "stateMutability": "nonpayable",
      "type": "function"
    }
  ],
  "bytecode": "0x60806040523480156200001157600080fd5b506040516200405d3803806200405d833981810160405260a08110156200003757600080fd5b8151602083015160408085015160608601805192519496939591949391820192846401000000008211156200006b57600080fd5b9083019060208201858111156200008157600080fd5b82516401000000008111828201881017156200009c57600080fd5b82525081516020918201929091019080838360005b83811015620000cb578181015183820152602001620000b1565b50505050905090810190601f168015620000f95780820380516001836020036101000a031916815260200191505b50604052602001805160405193929190846401000000008211156200011d57600080fd5b9083019060208201858111156200013357600080fd5b82516401000000008111828201881017156200014e57600080fd5b82525081516020918201929091019080838360005b838110156200017d57818101518382015260200162000163565b50505050905090810190601f168015620001ab5780820380516001836020036101000a031916815260200191505b506040525050506000620001c46200028860201b60201c565b600080546001600160a01b0319166001600160a01b0383169081178255604051929350917f8be0079c531659141344cd1fd0a4f28419497f9722a3daafe3b4186f6b6457e0908290a3506127106002558151620002299060059060208501906200028d565b5080516200023f9060069060208401906200028d565b5050600b80546001600160a01b039485166001600160a01b031991821617909155600a80549385169382169390931790925550600780549390921692169190911790556200032f565b335b90565b828054600181600116156101000203166002900490600052602060002090601f016020900481019282601f10620002d057805160ff191683800117855562000300565b8280016001018555821562000300579182015b8281111562000300578251825591602001919060010190620002e3565b506200030e92915062000312565b5090565b6200028a91905b808211156200030e576000815560010162000319565b613d1e806200033f6000396000f3fe60806040523480156200001157600080fd5b50600436106200012a5760003560e01c806303438def146200012f57806311e2c02f1462000151578063176de7a814620001775780631f2dc5ef14620001f95780631f432cf5146200021557806322b2d402146200024a578063371fd8e6146200026a57806338d52e0f146200028a5780634b3fd14814620002945780634c20ac7414620002c3578063715018a614620002cd5780637fd6f15c14620002d75780638da5cb5b14620002e15780639241cef214620002eb578063c27d4df314620002f5578063c9230c5d14620002ff578063cf0aea851462000309578063d162054a1462000329578063dcc716bd1462000333578063f2130c701462000368578063f2fde38b1462000372578063f9828b4f146200039b575b600080fd5b6200014f600480360360208110156200014757600080fd5b5035620003a5565b005b6200015b6200048d565b604080516001600160a01b039092168252519081900360200190f35b620001816200049c565b6040805160208082528351818301528351919283929083019185019080838360005b83811015620001bd578181015183820152602001620001a3565b50505050905090810190601f168015620001eb5780820380516001836020036101000a031916815260200191505b509250505060405180910390f35b620002036200052e565b60408051918252519081900360200190f35b6200014f600480360360608110156200022d57600080fd5b506001600160a01b03813516906020810135906040013562000534565b6200014f600480360360208110156200026257600080fd5b5035620008bf565b6200014f600480360360208110156200028257600080fd5b5035620009a1565b6200015b62000c0e565b6200014f60048036036040811015620002ac57600080fd5b50803590602001356001600160a01b031662000c1d565b6200015b62000f99565b6200014f62000fa8565b620002036200103d565b6200015b62001043565b6200015b62001052565b6200015b62001061565b6200018162001070565b6200014f600480360360208110156200032157600080fd5b5035620010ce565b6200015b620011b0565b6200014f600480360360608110156200034b57600080fd5b506001600160a01b038135169060208101359060400135620011bf565b620002036200154c565b6200014f600480360360208110156200038a57600080fd5b50356001600160a01b031662001552565b620002036200163f565b60095460408051632770a7eb60e21b81523360048201526024810184905290516001600160a01b0390921691639dc29fac9160448082019260009290919082900301818387803b158015620003f957600080fd5b505af11580156200040e573d6000803e3d6000fd5b5050600a546009546040805163152eadbb60e01b81523360048201526001600160a01b03928316602482015260448101879052905191909216935063152eadbb9250606480830192600092919082900301818387803b1580156200047157600080fd5b505af115801562000486573d6000803e3d6000fd5b5050505050565b600b546001600160a01b031681565b6006805460408051602060026001851615610100026000190190941693909304601f81018490048402820184019092528181529291830182828015620005265780601f10620004fa5761010080835404028352916020019162000526565b820191906000526020600020905b8154815290600101906020018083116200050857829003601f168201915b505050505081565b60025481565b600a546001600160a01b031633146200054c57600080fd5b60048281556040805163416c522d60e01b6020808301919091528251808303909401845260248201909252825183926005926044019182918501908083835b60208310620005ac5780518252601f1990920191602091820191016200058b565b6001836020036101000a03801982511681845116808217855250505050505090500182805460018160011615610100020316600290048015620006295780601f106200060657610100808354040283529182019162000629565b820191906000526020600020905b81548152906001019060200180831162000614575b50509250505060405160208183030381529060405290506060604051602001808063416c522d60e01b815250600401905060405160208183030381529060405290508060066040516020018083805190602001908083835b60208310620006a25780518252601f19909201916020918201910162000681565b6001836020036101000a038019825116818451168082178552505050505050905001828054600181600116156101000203166002900480156200071f5780601f10620006fc5761010080835404028352918201916200071f565b820191906000526020600020905b8154815290600101906020018083116200070a575b505060408051601f1981840301815290829052600754600b549196508795508694508a93506001600160a01b0390811692911690859085906001908b90620007679062001892565b6001600160a01b038089168252878116602080840191909152908716604083015283151560a083015260c0820183905260e06060830181815287519184019190915286519091608084019161010085019189019080838360005b83811015620007db578181015183820152602001620007c1565b50505050905090810190601f168015620008095780820380516001836020036101000a031916815260200191505b50838103825286518152865160209182019188019080838360005b838110156200083e57818101518382015260200162000824565b50505050905090810190601f1680156200086c5780820380516001836020036101000a031916815260200191505b509950505050505050505050604051809103906000f08015801562000895573d6000803e3d6000fd5b50600980546001600160a01b0319166001600160a01b039290921691909117905550505050505050565b600754600954604080516323b872dd60e01b81523360048201526001600160a01b03928316602482015260448101859052905191909216916323b872dd9160648083019260209291908290030181600087803b1580156200091f57600080fd5b505af115801562000934573d6000803e3d6000fd5b505050506040513d60208110156200094b57600080fd5b5050600954604080516340c10f1960e01b81523360048201526024810184905290516001600160a01b03909216916340c10f199160448082019260009290919082900301818387803b1580156200047157600080fd5b600954604080516305eff7ef60e21b815233600482015290516000926001600160a01b0316916317bfdfbc91602480830192602092919082900301818787803b158015620009ee57600080fd5b505af115801562000a03573d6000803e3d6000fd5b505050506040513d602081101562000a1a57600080fd5b50519050801562000ba25781811062000a9a576009546040805163073a938160e11b81526004810185905290516001600160a01b0390921691630e7527029160248082019260009290919082900301818387803b15801562000a7b57600080fd5b505af115801562000a90573d6000803e3d6000fd5b5050505062000b9c565b600062000aae838363ffffffff6200164516565b6009546040805163073a938160e11b81526004810184905290519293506001600160a01b0390911691630e7527029160248082019260009290919082900301818387803b15801562000aff57600080fd5b505af115801562000b14573d6000803e3d6000fd5b50505050600062000b2f82856200164590919063ffffffff16565b6008546040805163073a938160e11b81526004810184905290519293506001600160a01b0390911691630e7527029160248082019260009290919082900301818387803b15801562000b8057600080fd5b505af115801562000b95573d6000803e3d6000fd5b5050505050505b62000c0a565b6008546040805163073a938160e11b81526004810185905290516001600160a01b0390921691630e7527029160248082019260009290919082900301818387803b15801562000bf057600080fd5b505af115801562000c05573d6000803e3d6000fd5b505050505b5050565b6007546001600160a01b031681565b600a5460408051634750e71960e01b81523360048201526001600160a01b03848116602483015291516000939290921691634750e7199160448082019260209290919082900301818787803b15801562000c7657600080fd5b505af115801562000c8b573d6000803e3d6000fd5b505050506040513d602081101562000ca257600080fd5b5051600854604080516305eff7ef60e21b815233600482015290519293506000926001600160a01b03909216916317bfdfbc9160248082019260209290919082900301818787803b15801562000cf757600080fd5b505af115801562000d0c573d6000803e3d6000fd5b505050506040513d602081101562000d2357600080fd5b5051600954604080516305eff7ef60e21b815233600482015290519293506000926001600160a01b03909216916317bfdfbc9160248082019260209290919082900301818787803b15801562000d7857600080fd5b505af115801562000d8d573d6000803e3d6000fd5b505050506040513d602081101562000da457600080fd5b50519050600062000dce62000dc0838863ffffffff6200169216565b849063ffffffff6200169216565b600b546007546040805163fc57d4df60e01b81526001600160a01b0392831660048201529051939450600093919092169163fc57d4df916024808301926020929190829003018186803b15801562000e2557600080fd5b505afa15801562000e3a573d6000803e3d6000fd5b505050506040513d602081101562000e5157600080fd5b50519050600062000e69828463ffffffff620016eb16565b9050600062000e8082600363ffffffff6200174916565b9050600062000e96838363ffffffff6200169216565b90508088101562000ea657600080fd5b600062000ebb8b600263ffffffff6200174916565b6008546040805163317afabb60e21b81526004810184905290519293506001600160a01b039091169163c5ebeaec9160248082019260009290919082900301818387803b15801562000f0c57600080fd5b505af115801562000f21573d6000803e3d6000fd5b50506009546040805163317afabb60e21b81526004810186905290516001600160a01b03909216935063c5ebeaec925060248082019260009290919082900301818387803b15801562000f7357600080fd5b505af115801562000f88573d6000803e3d6000fd5b505050505050505050505050505050565b6007546001600160a01b031690565b62000fb26200178a565b6000546001600160a01b0390811691161462001004576040805162461bcd60e51b8152602060048201819052602482015260008051602062003ca9833981519152604482015290519081900360640190fd5b600080546040516001600160a01b039091169060008051602062003cc9833981519152908390a3600080546001600160a01b0319169055565b60015481565b6000546001600160a01b031690565b6008546001600160a01b031681565b6009546001600160a01b031681565b6005805460408051602060026001851615610100026000190190941693909304601f81018490048402820184019092528181529291830182828015620005265780601f10620004fa5761010080835404028352916020019162000526565b600754600854604080516323b872dd60e01b81523360048201526001600160a01b03928316602482015260448101859052905191909216916323b872dd9160648083019260209291908290030181600087803b1580156200112e57600080fd5b505af115801562001143573d6000803e3d6000fd5b505050506040513d60208110156200115a57600080fd5b5050600854604080516340c10f1960e01b81523360048201526024810184905290516001600160a01b03909216916340c10f199160448082019260009290919082900301818387803b1580156200047157600080fd5b600a546001600160a01b031681565b600a546001600160a01b03163314620011d757600080fd5b600382905560408051634148522d60e01b60208083019190915282518083036004018152602483019093528251839260059260449091019182918501908083835b60208310620012395780518252601f19909201916020918201910162001218565b6001836020036101000a03801982511681845116808217855250505050505090500182805460018160011615610100020316600290048015620012b65780601f1062001293576101008083540402835291820191620012b6565b820191906000526020600020905b815481529060010190602001808311620012a1575b505092505050604051602081830303815290604052905060606040516020018080634148522d60e01b815250600401905060405160208183030381529060405290508060066040516020018083805190602001908083835b602083106200132f5780518252601f1990920191602091820191016200130e565b6001836020036101000a03801982511681845116808217855250505050505090500182805460018160011615610100020316600290048015620013ac5780601f1062001389576101008083540402835291820191620013ac565b820191906000526020600020905b81548152906001019060200180831162001397575b505060408051601f1981840301815290829052600754600b549196508795508694508a93506001600160a01b0390811692911690859085906000908b90620013f49062001892565b6001600160a01b038089168252878116602080840191909152908716604083015283151560a083015260c0820183905260e06060830181815287519184019190915286519091608084019161010085019189019080838360005b83811015620014685781810151838201526020016200144e565b50505050905090810190601f168015620014965780820380516001836020036101000a031916815260200191505b50838103825286518152865160209182019188019080838360005b83811015620014cb578181015183820152602001620014b1565b50505050905090810190601f168015620014f95780820380516001836020036101000a031916815260200191505b509950505050505050505050604051809103906000f08015801562001522573d6000803e3d6000fd5b50600880546001600160a01b0319166001600160a01b039290921691909117905550505050505050565b60035481565b6200155c6200178a565b6000546001600160a01b03908116911614620015ae576040805162461bcd60e51b8152602060048201819052602482015260008051602062003ca9833981519152604482015290519081900360640190fd5b6001600160a01b038116620015f55760405162461bcd60e51b815260040180806020018281038252602681526020018062003c626026913960400191505060405180910390fd5b600080546040516001600160a01b038085169392169160008051602062003cc983398151915291a3600080546001600160a01b0319166001600160a01b0392909216919091179055565b60045481565b60006200168983836040518060400160405280601e81526020017f536166654d6174683a207375627472616374696f6e206f766572666c6f7700008152506200178e565b90505b92915050565b60008282018381101562001689576040805162461bcd60e51b815260206004820152601b60248201527a536166654d6174683a206164646974696f6e206f766572666c6f7760281b604482015290519081900360640190fd5b600082620016fc575060006200168c565b828202828482816200170a57fe5b0414620016895760405162461bcd60e51b815260040180806020018281038252602181526020018062003c886021913960400191505060405180910390fd5b60006200168983836040518060400160405280601a815260200179536166654d6174683a206469766973696f6e206279207a65726f60301b81525062001829565b3390565b60008184841115620018215760405162461bcd60e51b81526004018080602001828103825283818151815260200191508051906020019080838360005b83811015620017e5578181015183820152602001620017cb565b50505050905090810190601f168015620018135780820380516001836020036101000a031916815260200191505b509250505060405180910390fd5b505050900390565b600081836200187b5760405162461bcd60e51b8152602060048201818152835160248401528351909283926044909101919085019080838360008315620017e5578181015183820152602001620017cb565b5060008385816200188857fe5b0495945050505050565b6123c180620018a18339019056fe60806040523480156200001157600080fd5b50604051620023c1380380620023c1833981810160405260e08110156200003757600080fd5b8151602083015160408085015160608601805192519496939591949391820192846401000000008211156200006b57600080fd5b9083019060208201858111156200008157600080fd5b82516401000000008111828201881017156200009c57600080fd5b82525081516020918201929091019080838360005b83811015620000cb578181015183820152602001620000b1565b50505050905090810190601f168015620000f95780820380516001836020036101000a031916815260200191505b50604052602001805160405193929190846401000000008211156200011d57600080fd5b9083019060208201858111156200013357600080fd5b82516401000000008111828201881017156200014e57600080fd5b82525081516020918201929091019080838360005b838110156200017d57818101518382015260200162000163565b50505050905090810190601f168015620001ab5780820380516001836020036101000a031916815260200191505b5060409081526020820151910151909250905082846000620001d56001600160e01b03620002ce16565b600080546001600160a01b0319166001600160a01b0383169081178255604051929350917f8be0079c531659141344cd1fd0a4f28419497f9722a3daafe3b4186f6b6457e0908290a350815162000234906004906020850190620002d3565b5080516200024a906005906020840190620002d3565b50506006805460ff1916600817905550600e80546001600160a01b039788166001600160a01b03199182161790915560108054821633179055600f8054988816988216989098179097556011805495909616949096169390931790935550600d8054911515600160a01b0260ff60a01b199092169190911790555060075562000375565b335b90565b828054600181600116156101000203166002900490600052602060002090601f016020900481019282601f106200031657805160ff191683800117855562000346565b8280016001018555821562000346579182015b828111156200034657825182559160200191906001019062000329565b506200035492915062000358565b5090565b620002d091905b808211156200035457600081556001016200035f565b61203c80620003856000396000f3fe608060405234801561001057600080fd5b50600436106101d85760003560e01c806306fdde03146101dd578063095ea7b31461025a5780630e7527021461029a57806311e2c02f146102b9578063173b9904146102dd57806317bfdfbc146102f757806318160ddd1461031d578063230b9da31461032557806323b872dd1461032d578063313ce5671461036357806338d52e0f1461038157806339509351146103895780633af9e669146103b55780633b1d21a2146103db57806340c10f19146103e357806347bd37181461040f5780634c20ac74146104175780636c540baf1461041f57806370a0823114610427578063715018a61461044d57806373acee981461045557806377e4974d1461045d5780638157230b146104655780638da5cb5b146104a15780638f840ddd146104a957806395d89b41146104b15780639dc29fac146104b9578063a457c2d7146104e5578063a6afed9514610511578063a9059cbb14610519578063aa5af0fd14610545578063ae9d70b01461054d578063bd6d894d14610555578063c37f68e21461055d578063c5d9bf71146105a1578063c5ebeaec146105a9578063dd62ed3e146105c6578063f2fde38b146105f4578063f3fdb15a1461061a578063f8f9da2814610622575b600080fd5b6101e561062a565b6040805160208082528351818301528351919283929083019185019080838360005b8381101561021f578181015183820152602001610207565b50505050905090810190601f16801561024c5780820380516001836020036101000a031916815260200191505b509250505060405180910390f35b6102866004803603604081101561027057600080fd5b506001600160a01b0381351690602001356106c1565b604080519115158252519081900360200190f35b6102b7600480360360208110156102b057600080fd5b50356106de565b005b6102c16108b0565b604080516001600160a01b039092168252519081900360200190f35b6102e56108bf565b60408051918252519081900360200190f35b6102e56004803603602081101561030d57600080fd5b50356001600160a01b03166108c5565b6102e5610971565b6102c1610977565b6102866004803603606081101561034357600080fd5b506001600160a01b03813581169160208101359091169060400135610986565b61036b610a13565b6040805160ff9092168252519081900360200190f35b6102c1610a1c565b6102866004803603604081101561039f57600080fd5b506001600160a01b038135169060200135610a2b565b6102e5600480360360208110156103cb57600080fd5b50356001600160a01b0316610a7f565b6102e5610ada565b6102b7600480360360408110156103f957600080fd5b506001600160a01b038135169060200135610ae9565b6102e5610b80565b6102c1610b86565b6102e5610b95565b6102e56004803603602081101561043d57600080fd5b50356001600160a01b0316610b9b565b6102b7610bb6565b6102e5610c46565b610286610c57565b6102b76004803603608081101561047b57600080fd5b506001600160a01b03813581169160208101359091169060408101359060600135610c67565b6102c1610cf4565b6102e5610d03565b6101e5610d09565b6102b7600480360360408110156104cf57600080fd5b506001600160a01b038135169060200135610d6a565b610286600480360360408110156104fb57600080fd5b506001600160a01b038135169060200135610d8f565b6102b7610dfd565b6102866004803603604081101561052f57600080fd5b506001600160a01b038135169060200135611011565b6102e5611025565b6102e561102b565b6102e56110ca565b6105836004803603602081101561057357600080fd5b50356001600160a01b0316611166565b60408051938452602084019290925282820152519081900360600190f35b6102c161119c565b6102b7600480360360208110156105bf57600080fd5b50356111ab565b6102e5600480360360408110156105dc57600080fd5b506001600160a01b0381358116916020013516611333565b6102b76004803603602081101561060a57600080fd5b50356001600160a01b031661135e565b6102c1611444565b6102e5611453565b60048054604080516020601f60026000196101006001881615020190951694909404938401819004810282018101909252828152606093909290918301828280156106b65780601f1061068b576101008083540402835291602001916106b6565b820191906000526020600020905b81548152906001019060200180831161069957829003601f168201915b505050505090505b90565b60006106d56106ce6114b7565b84846114bb565b50600192915050565b6010546001600160a01b031633146106f557600080fd5b6106fd610dfd565b6107056115a7565b6009541461071257600080fd5b61071a611da7565b3360008181526012602052604090819020600101549083015261073c906108c5565b606082015260001982141561075a5760608101516020820152610762565b602081018290525b600e54604080516323b872dd60e01b81523360048201523060248201526044810185905290516001600160a01b03909216916323b872dd916064808201926020929091908290030181600087803b1580156107bc57600080fd5b505af11580156107d0573d6000803e3d6000fd5b505050506040513d60208110156107e657600080fd5b5050606081015160208201516107fc91906115ab565b608083018190528282600381111561081057fe5b600381111561081b57fe5b905250600090508151600381111561082f57fe5b1461083957600080fd5b610849600b5482602001516115ab565b60a083018190528282600381111561085d57fe5b600381111561086857fe5b905250600090508151600381111561087c57fe5b1461088657600080fd5b6080810151336000908152601260205260409020908155600a5460019091015560a00151600b5550565b6011546001600160a01b031681565b60085481565b60006108cf610dfd565b6001600160a01b03821660009081526012602052604081208054829182916108fe57600094505050505061096c565b61090e8160000154600a546115d1565b9094509250600084600381111561092157fe5b1461093357600094505050505061096c565b610941838260010154611610565b9094509150600084600381111561095457fe5b1461096657600094505050505061096c565b50925050505b919050565b60035490565b600d546001600160a01b031681565b600061099384848461163b565b610a098461099f6114b7565b610a0485604051806060016040528060288152602001611ef0602891396001600160a01b038a166000908152600260205260408120906109dd6114b7565b6001600160a01b03168152602081019190915260400160002054919063ffffffff61179216565b6114bb565b5060019392505050565b60065460ff1690565b600e546001600160a01b031681565b60006106d5610a386114b7565b84610a048560026000610a496114b7565b6001600160a01b03908116825260208083019390935260409182016000908120918c16815292529020549063ffffffff61182916565b6000610a89611dde565b6040518060200160405280610a9c6110ca565b90529050600080610ab583610ab087610b9b565b611888565b90925090506000826003811115610ac857fe5b14610ad257600080fd5b949350505050565b6000610ae46118db565b905090565b6010546001600160a01b03163314610b0057600080fd5b610b08611df1565b610b106110ca565b602080830191825260408051918201905290518152610b30908390611926565b6040830181905282826003811115610b4457fe5b6003811115610b4f57fe5b9052506000905081516003811115610b6357fe5b14610b6d57600080fd5b610b7b83826040015161193d565b505050565b600b5481565b600e546001600160a01b031690565b60095481565b6001600160a01b031660009081526001602052604090205490565b610bbe6114b7565b6000546001600160a01b03908116911614610c0e576040805162461bcd60e51b81526020600482018190526024820152600080516020611f18833981519152604482015290519081900360640190fd5b600080546040516001600160a01b0390911690600080516020611f38833981519152908390a3600080546001600160a01b0319169055565b6000610c50610dfd565b50600b5490565b600d54600160a01b900460ff1681565b601154600e546040805163f0defe9360e01b81526001600160a01b0392831660048201528783166024820152868316604482015260648101869052608481018590529051919092169163f0defe939160a480830192600092919082900301818387803b158015610cd657600080fd5b505af1158015610cea573d6000803e3d6000fd5b5050505050505050565b6000546001600160a01b031690565b600c5481565b60058054604080516020601f60026000196101006001881615020190951694909404938401819004810282018101909252828152606093909290918301828280156106b65780601f1061068b576101008083540402835291602001916106b6565b6010546001600160a01b03163314610d8157600080fd5b610d8b8282611a29565b5050565b60006106d5610d9c6114b7565b84610a0485604051806060016040528060258152602001611fe26025913960026000610dc66114b7565b6001600160a01b03908116825260208083019390935260409182016000908120918d1681529252902054919063ffffffff61179216565b6000610e076115a7565b60095490915080821415610e1a57600080fd5b6000610e246118db565b600b54600c54600a54600f54604080516315f2405360e01b815260048101879052602481018690526044810185905290519596509394929391926000926001600160a01b03909216916315f24053916064808301926020929190829003018186803b158015610e9257600080fd5b505afa158015610ea6573d6000803e3d6000fd5b505050506040513d6020811015610ebc57600080fd5b5051905065048c27395000811115610ed357600080fd5b600080610ee089896115ab565b90925090506000826003811115610ef357fe5b14610efd57600080fd5b610f05611dde565b600080600080610f2360405180602001604052808a81525087611b1f565b90975094506000876003811115610f3657fe5b14610f4057600080fd5b610f4a858c611888565b90975093506000876003811115610f5d57fe5b14610f6757600080fd5b610f71848c611b87565b90975092506000876003811115610f8457fe5b14610f8e57600080fd5b610fa96040518060200160405280600854815250858c611bad565b90975091506000876003811115610fbc57fe5b1415610fc757600080fd5b610fd2858a8b611bad565b90975090506000876003811115610fe557fe5b1415610ff057600080fd5b60099d909d55600a9c909c55600b55505050600c9790975550505050505050565b60006106d561101e6114b7565b848461163b565b600a5481565b600f546000906001600160a01b031663b81688166110476118db565b600b54600c546008546040518563ffffffff1660e01b81526004018085815260200184815260200183815260200182815260200194505050505060206040518083038186803b15801561109957600080fd5b505afa1580156110ad573d6000803e3d6000fd5b505050506040513d60208110156110c357600080fd5b5051905090565b60006110d4610dfd565b6110dc610971565b6110e957506007546106be565b60006110f36118db565b905060006110ff611dde565b600061111084600b54600c54611c09565b93509050600081600381111561112257fe5b1461112c57600080fd5b61113d83611138610971565b611c47565b92509050600081600381111561114f57fe5b141561115a57600080fd5b505192506106be915050565b60008060008061117585610b9b565b90506000611182866108c5565b9050600061118e6110ca565b929791965091945092505050565b6010546001600160a01b031681565b6010546001600160a01b031633146111c257600080fd5b6111ca610dfd565b806111d36118db565b116111dd57600080fd5b6111e5611e13565b6111ee336108c5565b602082018190526111ff9083611b87565b604083018190528282600381111561121357fe5b600381111561121e57fe5b905250600090508151600381111561123257fe5b1461123c57600080fd5b611248600b5483611b87565b606083018190528282600381111561125c57fe5b600381111561126757fe5b905250600090508151600381111561127b57fe5b1461128557600080fd5b60408181015133600081815260126020908152848220938455600a546001909401939093556060850151600b55600e54845163a9059cbb60e01b815260048101939093526024830187905293516001600160a01b039094169363a9059cbb936044808501949193918390030190829087803b15801561130357600080fd5b505af1158015611317573d6000803e3d6000fd5b505050506040513d602081101561132d57600080fd5b50505050565b6001600160a01b03918216600090815260026020908152604080832093909416825291909152205490565b6113666114b7565b6000546001600160a01b039081169116146113b6576040805162461bcd60e51b81526020600482018190526024820152600080516020611f18833981519152604482015290519081900360640190fd5b6001600160a01b0381166113fb5760405162461bcd60e51b8152600401808060200182810382526026815260200180611e826026913960400191505060405180910390fd5b600080546040516001600160a01b0380851693921691600080516020611f3883398151915291a3600080546001600160a01b0319166001600160a01b0392909216919091179055565b600f546001600160a01b031681565b600f546000906001600160a01b03166315f2405361146f6118db565b600b54600c546040518463ffffffff1660e01b815260040180848152602001838152602001828152602001935050505060206040518083038186803b15801561109957600080fd5b3390565b6001600160a01b0383166115005760405162461bcd60e51b8152600401808060200182810382526024815260200180611fbe6024913960400191505060405180910390fd5b6001600160a01b0382166115455760405162461bcd60e51b8152600401808060200182810382526022815260200180611ea86022913960400191505060405180910390fd5b6001600160a01b03808416600081815260026020908152604080832094871680845294825291829020859055815185815291517f8c5be1e5ebec7d5bd14f71427d1e84f3dd0314c0f7b2291e5b200ac8c7c3b9259281900390910190a3505050565b4390565b6000808383116115c25750600090508183036115ca565b506003905060005b9250929050565b600080836115e4575060009050806115ca565b838302838582816115f157fe5b0414611605575060029150600090506115ca565b6000925090506115ca565b6000808261162457506001905060006115ca565b600083858161162f57fe5b04915091509250929050565b6001600160a01b0383166116805760405162461bcd60e51b8152600401808060200182810382526025815260200180611f996025913960400191505060405180910390fd5b6001600160a01b0382166116c55760405162461bcd60e51b8152600401808060200182810382526023815260200180611e3d6023913960400191505060405180910390fd5b6116d0838383610b7b565b61171381604051806060016040528060268152602001611eca602691396001600160a01b038616600090815260016020526040902054919063ffffffff61179216565b6001600160a01b038085166000908152600160205260408082209390935590841681522054611748908263ffffffff61182916565b6001600160a01b038084166000818152600160209081526040918290209490945580518581529051919392871692600080516020611f5883398151915292918290030190a3505050565b600081848411156118215760405162461bcd60e51b81526004018080602001828103825283818151815260200191508051906020019080838360005b838110156117e65781810151838201526020016117ce565b50505050905090810190601f1680156118135780820380516001836020036101000a031916815260200191505b509250505060405180910390fd5b505050900390565b600082820183811015611881576040805162461bcd60e51b815260206004820152601b60248201527a536166654d6174683a206164646974696f6e206f766572666c6f7760281b604482015290519081900360640190fd5b9392505050565b6000806000611895611dde565b61189f8686611b1f565b909250905060008260038111156118b257fe5b146118c357509150600090506115ca565b60006118ce82611cf7565b9350935050509250929050565b600e54604080516370a0823160e01b815230600482015290516000926001600160a01b0316916370a08231916024808301926020929190829003018186803b15801561109957600080fd5b6000806000611933611dde565b61189f8686611d06565b6001600160a01b038216611998576040805162461bcd60e51b815260206004820152601f60248201527f45524332303a206d696e7420746f20746865207a65726f206164647265737300604482015290519081900360640190fd5b6119a460008383610b7b565b6003546119b7908263ffffffff61182916565b6003556001600160a01b0382166000908152600160205260409020546119e3908263ffffffff61182916565b6001600160a01b0383166000818152600160209081526040808320949094558351858152935192939192600080516020611f588339815191529281900390910190a35050565b6001600160a01b038216611a6e5760405162461bcd60e51b8152600401808060200182810382526021815260200180611f786021913960400191505060405180910390fd5b611a7a82600083610b7b565b611abd81604051806060016040528060228152602001611e60602291396001600160a01b038516600090815260016020526040902054919063ffffffff61179216565b6001600160a01b038316600090815260016020526040902055600354611ae9908263ffffffff611d6516565b6003556040805182815290516000916001600160a01b03851691600080516020611f588339815191529181900360200190a35050565b6000611b29611dde565b600080611b3a8660000151866115d1565b90925090506000826003811115611b4d57fe5b14611b6c575060408051602081019091526000815290925090506115ca565b60408051602081019091529081526000969095509350505050565b600080838301848110611b9f576000925090506115ca565b5060029150600090506115ca565b6000806000611bba611dde565b611bc48787611b1f565b90925090506000826003811115611bd757fe5b14611be85750915060009050611c01565b611bfa611bf482611cf7565b86611b87565b9350935050505b935093915050565b600080600080611c198787611b87565b90925090506000826003811115611c2c57fe5b14611c3d5750915060009050611c01565b611bfa81866115ab565b6000611c51611dde565b600080611c6686670de0b6b3a76400006115d1565b90925090506000826003811115611c7957fe5b14611c98575060408051602081019091526000815290925090506115ca565b600080611ca58388611610565b90925090506000826003811115611cb857fe5b14611cda575060408051602081019091526000815290945092506115ca915050565b604080516020810190915290815260009890975095505050505050565b51670de0b6b3a7640000900490565b6000611d10611dde565b600080611d25670de0b6b3a7640000876115d1565b90925090506000826003811115611d3857fe5b14611d57575060408051602081019091526000815290925090506115ca565b6118ce818660000151611c47565b600061188183836040518060400160405280601e81526020017f536166654d6174683a207375627472616374696f6e206f766572666c6f770000815250611792565b6040805160c08101909152806000815260200160008152602001600081526020016000815260200160008152602001600081525090565b6040518060200160405280600081525090565b6040805160608101909152806000815260200160008152602001600081525090565b60408051608081019091528060008152602001600081526020016000815260200160008152509056fe45524332303a207472616e7366657220746f20746865207a65726f206164647265737345524332303a206275726e20616d6f756e7420657863656564732062616c616e63654f776e61626c653a206e6577206f776e657220697320746865207a65726f206164647265737345524332303a20617070726f766520746f20746865207a65726f206164647265737345524332303a207472616e7366657220616d6f756e7420657863656564732062616c616e636545524332303a207472616e7366657220616d6f756e74206578636565647320616c6c6f77616e63654f776e61626c653a2063616c6c6572206973206e6f7420746865206f776e65728be0079c531659141344cd1fd0a4f28419497f9722a3daafe3b4186f6b6457e0ddf252ad1be2c89b69c2b068fc378daa952ba7f163c4a11628f55a4df523b3ef45524332303a206275726e2066726f6d20746865207a65726f206164647265737345524332303a207472616e736665722066726f6d20746865207a65726f206164647265737345524332303a20617070726f76652066726f6d20746865207a65726f206164647265737345524332303a2064656372656173656420616c6c6f77616e63652062656c6f77207a65726fa2646970667358221220b91d0aee7317d03300dea6c4d4ef6a223b6c731b4fb433e6a146ff10681a3ea664736f6c634300060200334f776e61626c653a206e6577206f776e657220697320746865207a65726f2061646472657373536166654d6174683a206d756c7469706c69636174696f6e206f766572666c6f774f776e61626c653a2063616c6c6572206973206e6f7420746865206f776e65728be0079c531659141344cd1fd0a4f28419497f9722a3daafe3b4186f6b6457e0a26469706673582212208ad8316490c3b89d4ee897fee1684435d59f6d7709d6051c49bde047701bd4fa64736f6c63430006020033",
  "source": "pragma solidity ^0.6.0;\n\nimport \"@openzeppelin/contracts/access/Ownable.sol\";\nimport \"@openzeppelin/contracts/math/SafeMath.sol\";\nimport \"@openzeppelin/contracts/token/ERC20/IERC20.sol\";\nimport \"./compound/Exponential.sol\";\nimport \"./interfaces/UniswapOracleFactoryI.sol\";\nimport \"./interfaces/MoneyMarketFactoryI.sol\";\nimport \"./AskoRiskToken.sol\";\n////////////////////////////////////////////////////////////////////////////////////////////\n/// @title MoneyMarketInstance\n/// @author Christopher Dixon\n////////////////////////////////////////////////////////////////////////////////////////////\n/**\nThe MoneyMarketInstance contract is designed facilitate a tiered money market for an individual ERC20 asset\nThis contract uses the OpenZeppelin contract Library to inherit functions from\n  Ownable.sol && IRC20.sol\n**/\ncontract MoneyMarketInstance is Ownable, Exponential {\n    using SafeMath for uint256;\n\n  uint public feePercent;\n  uint public divisor;\n  uint public fee_AHR;\n  uint public fee_ALR;\n\n\n\n  string public assetName;\n  string public assetSymbol;\n\n\n  IERC20 public asset;\n  AskoRiskToken public AHR;\n  AskoRiskToken public ALR;\n  MoneyMarketFactoryI public MMF;\n  UniswapOracleFactoryI public UOF;\n\n\n\n/**\n@notice onlyMMFactory is a modifier used to make a function only callable by the Money Market Factory contract\n**/\n  modifier onlyMMFactory()  {\n    require(msg.sender == address(MMF));\n    _;\n  }\n\n\n/**\n@notice the constructor function is fired during the contract deployment process. The constructor can only be fired once and\n        is used to initialize the MoneyMakerInstance and deploy its associated AHR && ALR token contracts\n@param _assetContractAdd is the address of the ERC20 asset being whitelisted\n@param _assetName is the name of the asset(e.x: ChainLink)\n@param _assetSymbol is the symbol of the asset(e.x: LINK)\n@dev this function uses ABI encoding to properly concatenate AHR- && ALR- in front of the tokens name and symbol\n      before creating each token.\n**/\n  constructor (\n    address _assetContractAdd,\n    address _oracleFactory,\n    address _owner,\n\t\tstring memory _assetName,\n\t\tstring memory _assetSymbol\n  )\n  public\n  {\n  divisor = 10000;\n  assetName = _assetName;\n  assetSymbol = _assetSymbol;\n  UOF = UniswapOracleFactoryI(_oracleFactory);\n  MMF = MoneyMarketFactoryI(_owner);\n  asset = IERC20(_assetContractAdd);\n  }\n\n/**\n@notice setUp is called by the MoneyMarketFactory after a contract is created to set up the initial variables.\n        This is split from the constructor function to keep from reaching the gas block limit\n@param  _InterestRateModel is the address of this MoneyMarketInstances InterestRateModel\n@param _fee is a number representing the fee for exchanging an AHR token, as a mantissa (scaled by 1e18)\n@dev this function will create a token whos name and symbol is concatenated with a \"AHR-\" in front of it\n      example: AHR-LINK\n@dev asset.approve() is called to allow the AHR contract to freeely transfer the assset from this contract when the mint\n      lendToAHRpool function is called.\n**/\nfunction _setUpAHR(\n    address _InterestRateModel,\n    uint _fee,\n    uint _initialExchangeRate\n  )\n  public\n  onlyMMFactory\n  {\n  fee_AHR = _fee;\n  bytes memory ahrname = abi.encodePacked(\"AHR-\");\n  ahrname = abi.encodePacked(ahrname, assetName);\n\n  bytes memory ahrsymbol = abi.encodePacked(\"AHR-\");\n  ahrsymbol = abi.encodePacked(ahrsymbol, assetSymbol);\n\n  string memory assetNameAHR = string(ahrname);\n  string memory assetSymbolAHR = string(ahrsymbol);\n\n  AHR = new AskoRiskToken(\n    _InterestRateModel,\n    address(asset),\n    address(UOF),\n    assetNameAHR,\n    assetSymbolAHR,\n    false,\n    _initialExchangeRate\n  );\n  }\n\n/**\n@notice setUp is called by the MoneyMarketFactory after a contract is created to set up the initial variables.\n        This is split from the constructor function to keep from reaching the gas block limit\n@param  _InterestRateModel is the address of this MoneyMarketInstances InterestRateModel\n@param _fee is a number representing the fee for exchanging an ALR token, as a mantissa (scaled by 1e18)\n@dev this function will create a token whos name and symbol is concatenated with a \"ALR-\" in front of it\n      example: ALR-LINK\n@dev asset.approve() is called to allow the ALR contract to freeely transfer the assset from this contract when the mint\n      lendToALRpool function is called.\n**/\n  function _setUpALR(\n      address _InterestRateModel,\n      uint256 _fee,\n      uint _initialExchangeRate\n    )\n    public\n    onlyMMFactory\n    {\n    fee_ALR = _fee;\n    bytes memory alrname = abi.encodePacked(\"AlR-\");\n    alrname = abi.encodePacked(alrname, assetName);\n\n    bytes memory alrsymbol = abi.encodePacked(\"AlR-\");\n    alrsymbol = abi.encodePacked(alrsymbol, assetSymbol);\n\n    string memory assetNameALR = string(alrname);\n    string memory assetSymbolALR = string(alrsymbol);\n\n    ALR = new AskoRiskToken(\n      _InterestRateModel,\n      address(asset),\n      address(UOF),\n      assetNameALR,\n      assetSymbolALR,\n      true,\n      _initialExchangeRate\n    );\n    }\n\n\n/**\n@notice getAssetAdd allows for easy retrieval of a Money Markets underlying asset's address\n**/\n\n  function getAssetAdd() public view returns (address) {\n    return address(asset);\n  }\n/**\n@notice lendToAHRpool is used to lend assets to a MoneyMarketInstance's High Risk pool\n@param _amount is the amount of the asset being lent\n@dev the user will need to first approve the transfer of the underlying asset\n**/\n  function lendToAHRpool(uint _amount) public {\n    //transfer appropriate amount off the asset from msg.sender to the AHR contract\n    asset.transferFrom(msg.sender, address(AHR), _amount);\n    //call mint function on AHR contract\n    AHR.mint(msg.sender, _amount);\n  }\n\n/**\n@notice lendToAHRpool is used to lend assets to a MoneyMarketInstance's Low Risk pool\n@param _amount is the amount of the asset being lent\n@dev the user will need to first approve the transfer of the underlying asset\n**/\n    function lendToALRpool(uint _amount) public {\n      //transfer appropriate amount off the asset from msg.sender to the AHR contract\n      asset.transferFrom(msg.sender, address(ALR), _amount);\n      //call mint function on ALR contract\n      ALR.mint(msg.sender, _amount);\n    }\n\n\n/**\n@notice borrow is used to take out a loan from in MoneyMarketInstance's underlying asset\n@param _amount is the amount of asset being barrowed\n**/\n  function borrow(uint _amount, address _collateral) public {\n    //check that the user has enough collateral in input moeny market\n    uint collateralValue = MMF.checkCollateralValue(msg.sender, _collateral);\n    //get current borrow balances for each ART\n    uint borrowBalAHR = AHR.borrowBalanceCurrent(msg.sender);\n    uint borrowBalALR = ALR.borrowBalanceCurrent(msg.sender);\n    //calculate the new amount that would be owed if borrow suceeds\n    uint totalFutureAmountOwed = borrowBalAHR.add(borrowBalALR.add(_amount));\n    //check current asset price\n    uint priceOfAsset = UOF.getUnderlyingPrice(address(asset));\n    //get the usd price value of _amount\n    uint assetAmountValOwed = priceOfAsset.mul(totalFutureAmountOwed);\n    //divide amount value by 3\n    uint thirdVal = assetAmountValOwed.div(3);\n    //add 1/3 value to asset value to get 150% asset value\n    uint collateralNeeded = assetAmountValOwed.add(thirdVal);\n    //require collateral value to be greater than 150% of the amount value of loan\n    require(collateralValue >= collateralNeeded);\n    //cut amount of tokens in half\n    uint half = _amount.div(2);\n    //borrow half from each pool\n    AHR.borrow(half);\n    ALR.borrow(half);\n  }\n\n/**\n@notice repay is used to repay a loan\n@param _repayAmount is the amount of the underlying asset being repayed\n**/\n\tfunction repay(uint _repayAmount) public {\n    //get their current owed balance of ALR\n    uint accountBorrowsALR = ALR.borrowBalanceCurrent(msg.sender);\n\n    if(accountBorrowsALR != 0) { //if amount owed to ALR isnt zero\n          if(accountBorrowsALR >= _repayAmount) { //check if repay amount is greater than ALR borrow balance\n            ALR.repayBorrow(_repayAmount); //if it is repay amount to ALR\n          } else { //if not\n            uint amountToALR = _repayAmount.sub(accountBorrowsALR); //calculate amSount needed to pay off ALR\n             ALR.repayBorrow(amountToALR); //pay off ALR\n            uint amountToAHR = _repayAmount.sub(amountToALR);//calculate AHR amount\n          AHR.repayBorrow(amountToAHR); //pay off towards AHR\n          }\n    } else {//if amount owed to ALR IS zero\n      AHR.repayBorrow(_repayAmount);//pay towards AHR\n    }\n  }\n\n\n\n/**\n@notice collateralizeALR allows a user to collateralize the ALR they hold in a specific money market\n@param _amount is the amount of ALR being collateralized\n**/\n   function collateralizeALR(uint _amount) public {\n     ALR.burn(msg.sender, _amount);\n     MMF.trackCollateral(msg.sender, address(ALR), _amount);\n   }\n\n\n\n}\n",
  "sourcePath": "/home/stan36/repos/Askolend/AskoLend-contracts/contracts/MoneyMarketInstance.sol",
  "compiler": {
    "name": "solc",
    "version": "0.6.2+commit.bacdbe57.Emscripten.clang"
  },
  "schemaVersion": "3.2.5",
  "updatedAt": "2020-10-08T00:15:37.085Z",
  "devdoc": {
    "methods": {
      "_setUpAHR(address,uint256,uint256)": {
        "details": "this function will create a token whos name and symbol is concatenated with a \"AHR-\" in front of it example: AHR-LINKasset.approve() is called to allow the AHR contract to freeely transfer the assset from this contract when the mint lendToAHRpool function is called.*",
        "params": {
          "_InterestRateModel": "is the address of this MoneyMarketInstances InterestRateModel",
          "_fee": "is a number representing the fee for exchanging an AHR token, as a mantissa (scaled by 1e18)"
        }
      },
      "_setUpALR(address,uint256,uint256)": {
        "details": "this function will create a token whos name and symbol is concatenated with a \"ALR-\" in front of it example: ALR-LINKasset.approve() is called to allow the ALR contract to freeely transfer the assset from this contract when the mint lendToALRpool function is called.*",
        "params": {
          "_InterestRateModel": "is the address of this MoneyMarketInstances InterestRateModel",
          "_fee": "is a number representing the fee for exchanging an ALR token, as a mantissa (scaled by 1e18)"
        }
      },
      "borrow(uint256,address)": {
        "params": {
          "_amount": "is the amount of asset being barrowed*"
        }
      },
      "collateralizeALR(uint256)": {
        "params": {
          "_amount": "is the amount of ALR being collateralized*"
        }
      },
      "constructor": {
        "details": "this function uses ABI encoding to properly concatenate AHR- && ALR- in front of the tokens name and symbol before creating each token.*",
        "params": {
          "_assetContractAdd": "is the address of the ERC20 asset being whitelisted",
          "_assetName": "is the name of the asset(e.x: ChainLink)",
          "_assetSymbol": "is the symbol of the asset(e.x: LINK)"
        }
      },
      "lendToAHRpool(uint256)": {
        "details": "the user will need to first approve the transfer of the underlying asset*",
        "params": {
          "_amount": "is the amount of the asset being lent"
        }
      },
      "lendToALRpool(uint256)": {
        "details": "the user will need to first approve the transfer of the underlying asset*",
        "params": {
          "_amount": "is the amount of the asset being lent"
        }
      },
      "owner()": {
        "details": "Returns the address of the current owner."
      },
      "renounceOwnership()": {
        "details": "Leaves the contract without owner. It will not be possible to call `onlyOwner` functions anymore. Can only be called by the current owner.     * NOTE: Renouncing ownership will leave the contract without an owner, thereby removing any functionality that is only available to the owner."
      },
      "repay(uint256)": {
        "params": {
          "_repayAmount": "is the amount of the underlying asset being repayed*"
        }
      },
      "transferOwnership(address)": {
        "details": "Transfers ownership of the contract to a new account (`newOwner`). Can only be called by the current owner."
      }
    }
  },
  "userdoc": {
    "methods": {
      "_setUpAHR(address,uint256,uint256)": {
        "notice": "setUp is called by the MoneyMarketFactory after a contract is created to set up the initial variables. This is split from the constructor function to keep from reaching the gas block limit"
      },
      "_setUpALR(address,uint256,uint256)": {
        "notice": "setUp is called by the MoneyMarketFactory after a contract is created to set up the initial variables. This is split from the constructor function to keep from reaching the gas block limit"
      },
      "borrow(uint256,address)": {
        "notice": "borrow is used to take out a loan from in MoneyMarketInstance's underlying asset"
      },
      "collateralizeALR(uint256)": {
        "notice": "collateralizeALR allows a user to collateralize the ALR they hold in a specific money market"
      },
      "constructor": "the constructor function is fired during the contract deployment process. The constructor can only be fired once and is used to initialize the MoneyMakerInstance and deploy its associated AHR && ALR token contracts",
      "getAssetAdd()": {
        "notice": "getAssetAdd allows for easy retrieval of a Money Markets underlying asset's address*"
      },
      "lendToAHRpool(uint256)": {
        "notice": "lendToAHRpool is used to lend assets to a MoneyMarketInstance's High Risk pool"
      },
      "lendToALRpool(uint256)": {
        "notice": "lendToAHRpool is used to lend assets to a MoneyMarketInstance's Low Risk pool"
      },
      "repay(uint256)": {
        "notice": "repay is used to repay a loan"
      }
    },
    "notice": "The MoneyMarketInstance contract is designed facilitate a tiered money market for an individual ERC20 asset This contract uses the OpenZeppelin contract Library to inherit functions from Ownable.sol && IRC20.sol*"
  }
}