{
  "contractName": "MoneyMarketControl",
  "abi": [
    {
      "inputs": [
        {
          "internalType": "address",
          "name": "_oracle",
          "type": "address"
        },
        {
          "internalType": "address",
          "name": "_MMF",
          "type": "address"
        },
        {
          "internalType": "address",
          "name": "_ARTF",
          "type": "address"
        }
      ],
      "stateMutability": "nonpayable",
      "type": "constructor"
    },
    {
      "anonymous": false,
      "inputs": [
        {
          "indexed": false,
          "internalType": "address",
          "name": "asset",
          "type": "address"
        },
        {
          "indexed": false,
          "internalType": "address",
          "name": "interestRateModel",
          "type": "address"
        }
      ],
      "name": "AHRcreated",
      "type": "event"
    },
    {
      "anonymous": false,
      "inputs": [
        {
          "indexed": false,
          "internalType": "address",
          "name": "asset",
          "type": "address"
        },
        {
          "indexed": false,
          "internalType": "address",
          "name": "interestRateModel",
          "type": "address"
        }
      ],
      "name": "ALRcreated",
      "type": "event"
    },
    {
      "anonymous": false,
      "inputs": [
        {
          "indexed": true,
          "internalType": "address",
          "name": "previousOwner",
          "type": "address"
        },
        {
          "indexed": true,
          "internalType": "address",
          "name": "newOwner",
          "type": "address"
        }
      ],
      "name": "OwnershipTransferred",
      "type": "event"
    },
    {
      "anonymous": false,
      "inputs": [
        {
          "indexed": false,
          "internalType": "address",
          "name": "asset",
          "type": "address"
        },
        {
          "indexed": false,
          "internalType": "address",
          "name": "moneyMarket",
          "type": "address"
        },
        {
          "indexed": false,
          "internalType": "address",
          "name": "oracle",
          "type": "address"
        }
      ],
      "name": "WhiteListed",
      "type": "event"
    },
    {
      "inputs": [],
      "name": "ARTF",
      "outputs": [
        {
          "internalType": "address",
          "name": "",
          "type": "address"
        }
      ],
      "stateMutability": "view",
      "type": "function"
    },
    {
      "inputs": [],
      "name": "MMF",
      "outputs": [
        {
          "internalType": "contract MoneyMarketFactoryI",
          "name": "",
          "type": "address"
        }
      ],
      "stateMutability": "view",
      "type": "function"
    },
    {
      "inputs": [],
      "name": "Oracle",
      "outputs": [
        {
          "internalType": "contract UniswapOracleFactoryI",
          "name": "",
          "type": "address"
        }
      ],
      "stateMutability": "view",
      "type": "function"
    },
    {
      "inputs": [
        {
          "internalType": "address",
          "name": "",
          "type": "address"
        }
      ],
      "name": "_ALRtracker",
      "outputs": [
        {
          "internalType": "address",
          "name": "",
          "type": "address"
        }
      ],
      "stateMutability": "view",
      "type": "function"
    },
    {
      "inputs": [
        {
          "internalType": "uint256",
          "name": "",
          "type": "uint256"
        }
      ],
      "name": "assets",
      "outputs": [
        {
          "internalType": "address",
          "name": "",
          "type": "address"
        }
      ],
      "stateMutability": "view",
      "type": "function"
    },
    {
      "inputs": [],
      "name": "instanceCount",
      "outputs": [
        {
          "internalType": "uint256",
          "name": "",
          "type": "uint256"
        }
      ],
      "stateMutability": "view",
      "type": "function"
    },
    {
      "inputs": [
        {
          "internalType": "address",
          "name": "",
          "type": "address"
        }
      ],
      "name": "instanceTracker",
      "outputs": [
        {
          "internalType": "address",
          "name": "",
          "type": "address"
        }
      ],
      "stateMutability": "view",
      "type": "function"
    },
    {
      "inputs": [
        {
          "internalType": "address",
          "name": "",
          "type": "address"
        }
      ],
      "name": "oracleTracker",
      "outputs": [
        {
          "internalType": "address",
          "name": "",
          "type": "address"
        }
      ],
      "stateMutability": "view",
      "type": "function"
    },
    {
      "inputs": [],
      "name": "owner",
      "outputs": [
        {
          "internalType": "address",
          "name": "",
          "type": "address"
        }
      ],
      "stateMutability": "view",
      "type": "function"
    },
    {
      "inputs": [],
      "name": "renounceOwnership",
      "outputs": [],
      "stateMutability": "nonpayable",
      "type": "function"
    },
    {
      "inputs": [
        {
          "internalType": "address",
          "name": "newOwner",
          "type": "address"
        }
      ],
      "name": "transferOwnership",
      "outputs": [],
      "stateMutability": "nonpayable",
      "type": "function"
    },
    {
      "inputs": [
        {
          "internalType": "address",
          "name": "_assetContractAdd",
          "type": "address"
        },
        {
          "internalType": "string",
          "name": "_assetName",
          "type": "string"
        },
        {
          "internalType": "string",
          "name": "_assetSymbol",
          "type": "string"
        }
      ],
      "name": "whitelistAsset",
      "outputs": [],
      "stateMutability": "nonpayable",
      "type": "function"
    },
    {
      "inputs": [
        {
          "internalType": "uint256",
          "name": "_baseRatePerYear",
          "type": "uint256"
        },
        {
          "internalType": "uint256",
          "name": "_multiplierPerYear",
          "type": "uint256"
        },
        {
          "internalType": "uint256",
          "name": "_jumpMultiplierPerYear",
          "type": "uint256"
        },
        {
          "internalType": "uint256",
          "name": "_optimal",
          "type": "uint256"
        },
        {
          "internalType": "uint256",
          "name": "_fee",
          "type": "uint256"
        },
        {
          "internalType": "uint256",
          "name": "_initialExchangeRate",
          "type": "uint256"
        },
        {
          "internalType": "address",
          "name": "_assetContractAdd",
          "type": "address"
        }
      ],
      "name": "setUpAHR",
      "outputs": [],
      "stateMutability": "nonpayable",
      "type": "function"
    },
    {
      "inputs": [
        {
          "internalType": "uint256",
          "name": "_baseRatePerYear",
          "type": "uint256"
        },
        {
          "internalType": "uint256",
          "name": "_multiplierPerYear",
          "type": "uint256"
        },
        {
          "internalType": "uint256",
          "name": "_jumpMultiplierPerYear",
          "type": "uint256"
        },
        {
          "internalType": "uint256",
          "name": "_optimal",
          "type": "uint256"
        },
        {
          "internalType": "uint256",
          "name": "_fee",
          "type": "uint256"
        },
        {
          "internalType": "uint256",
          "name": "_initialExchangeRate",
          "type": "uint256"
        },
        {
          "internalType": "address",
          "name": "_assetContractAdd",
          "type": "address"
        }
      ],
      "name": "setUpALR",
      "outputs": [],
      "stateMutability": "nonpayable",
      "type": "function"
    },
    {
      "inputs": [],
      "name": "getAssets",
      "outputs": [
        {
          "internalType": "address[]",
          "name": "",
          "type": "address[]"
        }
      ],
      "stateMutability": "view",
      "type": "function"
    },
    {
      "inputs": [
        {
          "internalType": "address",
          "name": "_borrower",
          "type": "address"
        },
        {
          "internalType": "address",
          "name": "_ALR",
          "type": "address"
        },
        {
          "internalType": "uint256",
          "name": "_amount",
          "type": "uint256"
        }
      ],
      "name": "trackCollateralUp",
      "outputs": [],
      "stateMutability": "nonpayable",
      "type": "function"
    },
    {
      "inputs": [
        {
          "internalType": "address",
          "name": "_borrower",
          "type": "address"
        },
        {
          "internalType": "address",
          "name": "_ALR",
          "type": "address"
        },
        {
          "internalType": "uint256",
          "name": "_amount",
          "type": "uint256"
        }
      ],
      "name": "trackCollateralDown",
      "outputs": [],
      "stateMutability": "nonpayable",
      "type": "function"
    },
    {
      "inputs": [
        {
          "internalType": "address",
          "name": "_borrower",
          "type": "address"
        },
        {
          "internalType": "address",
          "name": "_ALR",
          "type": "address"
        }
      ],
      "name": "checkCollateralizedALR",
      "outputs": [
        {
          "internalType": "uint256",
          "name": "",
          "type": "uint256"
        }
      ],
      "stateMutability": "view",
      "type": "function"
    },
    {
      "inputs": [
        {
          "internalType": "address",
          "name": "_borrower",
          "type": "address"
        },
        {
          "internalType": "address",
          "name": "_ALR",
          "type": "address"
        }
      ],
      "name": "checkAvailibleCollateralValue",
      "outputs": [
        {
          "internalType": "uint256",
          "name": "",
          "type": "uint256"
        }
      ],
      "stateMutability": "nonpayable",
      "type": "function"
    },
    {
      "inputs": [
        {
          "internalType": "address",
          "name": "__inQ",
          "type": "address"
        }
      ],
      "name": "_checkIfALR",
      "outputs": [
        {
          "internalType": "bool",
          "name": "",
          "type": "bool"
        }
      ],
      "stateMutability": "view",
      "type": "function"
    },
    {
      "inputs": [
        {
          "internalType": "uint256",
          "name": "_liquidateValue",
          "type": "uint256"
        },
        {
          "internalType": "address",
          "name": "_borrower",
          "type": "address"
        },
        {
          "internalType": "address",
          "name": "_liquidator",
          "type": "address"
        },
        {
          "internalType": "contract AskoRiskTokenI",
          "name": "_ALR",
          "type": "address"
        }
      ],
      "name": "liquidateTrigger",
      "outputs": [],
      "stateMutability": "nonpayable",
      "type": "function"
    },
    {
      "inputs": [
        {
          "internalType": "uint256",
          "name": "_baseRatePerYear",
          "type": "uint256"
        },
        {
          "internalType": "uint256",
          "name": "_multiplierPerYear",
          "type": "uint256"
        },
        {
          "internalType": "uint256",
          "name": "_jumpMultiplierPerYear",
          "type": "uint256"
        },
        {
          "internalType": "uint256",
          "name": "_optimal",
          "type": "uint256"
        },
        {
          "internalType": "address",
          "name": "_assetContractAdd",
          "type": "address"
        },
        {
          "internalType": "bool",
          "name": "_isALR",
          "type": "bool"
        }
      ],
      "name": "updateIRM",
      "outputs": [],
      "stateMutability": "nonpayable",
      "type": "function"
    },
    {
      "inputs": [
        {
          "internalType": "uint256",
          "name": "_newRR",
          "type": "uint256"
        },
        {
          "internalType": "bool",
          "name": "_isALR",
          "type": "bool"
        },
        {
          "internalType": "address",
          "name": "_asset",
          "type": "address"
        }
      ],
      "name": "updateRR",
      "outputs": [],
      "stateMutability": "nonpayable",
      "type": "function"
    }
  ],
  "bytecode": "0x608060405234801561001057600080fd5b506040516124fe3803806124fe8339818101604052606081101561003357600080fd5b508051602082015160409092015190919060006100576001600160e01b036100e316565b600080546001600160a01b0319166001600160a01b0383169081178255604051929350917f8be0079c531659141344cd1fd0a4f28419497f9722a3daafe3b4186f6b6457e0908290a350600380546001600160a01b039485166001600160a01b0319918216179091556004805493851693821693909317909255600280549190931691161790556100e7565b3390565b612408806100f66000396000f3fe60806040523480156200001157600080fd5b50600436106200016c5760003560e01c80637ab2d44711620000d5578063da92fd8a1162000087578063da92fd8a14620005dd578063eb8341b3146200060e578063ec56c7161462000637578063f189d7a31462000641578063f24a534e1462000678578063f2fde38b1462000682576200016c565b80637ab2d44714620004d65780638da5cb5b146200052357806390200849146200052d578063b3f643e7146200057a578063cf35bdd014620005b3578063d162054a14620005d3576200016c565b806335424d2c116200012f57806335424d2c14620003825780633ca0037b14620003cb5780636012b43114620003f457806367e4ac2c14620004375780636a8394ad1462000493578063715018a614620004cc576200016c565b80630ba7345d14620001715780630dc9cacd14620002b55780631dda078014620002f25780632bb0df2314620003185780633373a4471462000359575b600080fd5b620002b3600480360360608110156200018957600080fd5b6001600160a01b038235169190810190604081016020820135600160201b811115620001b457600080fd5b820183602082011115620001c757600080fd5b803590602001918460018302840111600160201b83111715620001e957600080fd5b91908080601f0160208091040260200160405190810160405280939291908181526020018383808284376000920191909152509295949360208101935035915050600160201b8111156200023c57600080fd5b8201836020820111156200024f57600080fd5b803590602001918460018302840111600160201b831117156200027157600080fd5b91908080601f016020809104026020016040519081016040528093929190818152602001838380828437600092019190915250929550620006ab945050505050565b005b620002de60048036036020811015620002cd57600080fd5b50356001600160a01b031662000ae2565b604080519115158252519081900360200190f35b620002fc62000b00565b604080516001600160a01b039092168252519081900360200190f35b620002b3600480360360808110156200033057600080fd5b508035906001600160a01b03602082013581169160408101358216916060909101351662000b0f565b620002fc600480360360208110156200037157600080fd5b50356001600160a01b031662000bc3565b620002b3600480360360c08110156200039a57600080fd5b508035906020810135906040810135906060810135906001600160a01b036080820135169060a00135151562000bde565b620002fc60048036036020811015620003e357600080fd5b50356001600160a01b031662000d59565b62000425600480360360408110156200040c57600080fd5b506001600160a01b038135811691602001351662000d74565b60408051918252519081900360200190f35b6200044162000ec6565b60408051602080825283518183015283519192839290830191858101910280838360005b838110156200047f57818101518382015260200162000465565b505050509050019250505060405180910390f35b620002b360048036036060811015620004ab57600080fd5b506001600160a01b0381358116916020810135909116906040013562000f2a565b620002b362001082565b620002b3600480360360e0811015620004ee57600080fd5b5080359060208101359060408101359060608101359060808101359060a08101359060c001356001600160a01b031662001128565b620002fc6200127a565b620002b3600480360360e08110156200054557600080fd5b5080359060208101359060408101359060608101359060808101359060a08101359060c001356001600160a01b031662001289565b620002b3600480360360608110156200059257600080fd5b506001600160a01b038135811691602081013590911690604001356200147a565b620002fc60048036036020811015620005cb57600080fd5b50356200157b565b620002fc620015a3565b6200042560048036036040811015620005f557600080fd5b506001600160a01b0381358116916020013516620015b2565b620002fc600480360360208110156200062657600080fd5b50356001600160a01b0316620015dd565b62000425620015f8565b620002b3600480360360608110156200065957600080fd5b508035906020810135151590604001356001600160a01b0316620015fe565b620002fc620016f5565b620002b3600480360360208110156200069a57600080fd5b50356001600160a01b031662001704565b620006b562001802565b6000546001600160a01b0390811691161462000707576040805162461bcd60e51b81526020600482018190526024820152600080516020620023b3833981519152604482015290519081900360640190fd5b600180548101905560035460408051632fb2da6160e01b81526001600160a01b03868116600483015291516000939290921691632fb2da619160248082019260209290919082900301818787803b1580156200076257600080fd5b505af115801562000777573d6000803e3d6000fd5b505050506040513d60208110156200078e57600080fd5b810190808051906020019092919050505090506000600460009054906101000a90046001600160a01b03166001600160a01b031663cc83954d86600360009054906101000a90046001600160a01b031630600260009054906101000a90046001600160a01b031689896040518763ffffffff1660e01b815260040180876001600160a01b03166001600160a01b03168152602001866001600160a01b03166001600160a01b03168152602001856001600160a01b03166001600160a01b03168152602001846001600160a01b03166001600160a01b031681526020018060200180602001838103835285818151815260200191508051906020019080838360005b83811015620008a95781810151838201526020016200088f565b50505050905090810190601f168015620008d75780820380516001836020036101000a031916815260200191505b50838103825284518152845160209182019186019080838360005b838110156200090c578181015183820152602001620008f2565b50505050905090810190601f1680156200093a5780820380516001836020036101000a031916815260200191505b5098505050505050505050602060405180830381600087803b1580156200096057600080fd5b505af115801562000975573d6000803e3d6000fd5b505050506040513d60208110156200098c57600080fd5b50516001600160a01b038082166000818152600a6020526040808220805460ff191660011790556003548151631be1d0b960e01b815260048101949094528a85166024850152905194955090921692631be1d0b99260448084019391929182900301818387803b15801562000a0057600080fd5b505af115801562000a15573d6000803e3d6000fd5b5050506001600160a01b03808716600081815260066020908152604080832080548689166001600160a01b03199182168117909255818552600884528285208054978b16978216881790556005805460018101825595527f036b6384b5eca791c62761152d0c79bb0604c104a5fb6f4eb0703f3154bb3db0909401805490941685179093558051938452908301919091528181019290925290517f1f39f253506bf384ce653a878c22225914e6a145c0e77c978fbe8d578024a64e92509081900360600190a15050505050565b6001600160a01b03166000908152600b602052604090205460ff1690565b6002546001600160a01b031681565b336000908152600a602052604090205460ff16151560011462000b3157600080fd5b6001600160a01b03808416600081815260096020908152604080832086861680855292528083208390558051632df9ed4360e21b8152600481018a905260248101949094529386166044840152925163b7e7b50c92606480820193929182900301818387803b15801562000ba457600080fd5b505af115801562000bb9573d6000803e3d6000fd5b5050505050505050565b6006602052600090815260409020546001600160a01b031681565b6001600160a01b038083166000908152600660205260408082205490519216918890889088908890869062000c139062001947565b948552602085019390935260408085019290925260608401526001600160a01b039091166080830152519081900360a001906000f08015801562000c5b573d6000803e3d6000fd5b509050821562000cdd57816001600160a01b0316630a3ed432826040518263ffffffff1660e01b815260040180826001600160a01b03166001600160a01b03168152602001915050600060405180830381600087803b15801562000cbe57600080fd5b505af115801562000cd3573d6000803e3d6000fd5b5050505062000bb9565b816001600160a01b031663b451bb2e826040518263ffffffff1660e01b815260040180826001600160a01b03166001600160a01b03168152602001915050600060405180830381600087803b15801562000d3657600080fd5b505af115801562000d4b573d6000803e3d6000fd5b505050505050505050505050565b6007602052600090815260409020546001600160a01b031681565b6000808290506000816001600160a01b03166370a08231866040518263ffffffff1660e01b815260040180826001600160a01b03166001600160a01b03168152602001915050602060405180830381600087803b15801562000dd557600080fd5b505af115801562000dea573d6000803e3d6000fd5b505050506040513d602081101562000e0157600080fd5b505160408051635f27adbd60e01b81526004810183905290519192506000916001600160a01b03851691635f27adbd91602480830192602092919082900301818787803b15801562000e5257600080fd5b505af115801562000e67573d6000803e3d6000fd5b505050506040513d602081101562000e7e57600080fd5b50516001600160a01b038088166000908152600960209081526040808320938a168352929052205490915062000ebb828263ffffffff6200180616565b979650505050505050565b6060600580548060200260200160405190810160405280929190818152602001828054801562000f2057602002820191906000526020600020905b81546001600160a01b0316815260019091019060200180831162000f01575b5050505050905090565b336000908152600a602052604090205460ff16151560011462000f4c57600080fd5b336000908152600a602052604090205460ff168062000f7a5750336000908152600b602052604090205460ff165b62000fc2576040805162461bcd60e51b81526020600482015260136024820152721b9bdd081848185cdadbc818dbdb9d1c9858dd606a1b604482015290519081900360640190fd5b6001600160a01b0380841660009081526009602090815260408083209386168352929052205481101562001054576001600160a01b0380841660009081526009602090815260408083209386168352929052205462001028908263ffffffff6200180616565b6001600160a01b038085166000908152600960209081526040808320938716835292905220556200107d565b6001600160a01b0380841660009081526009602090815260408083209386168352929052908120555b505050565b6200108c62001802565b6000546001600160a01b03908116911614620010de576040805162461bcd60e51b81526020600482018190526024820152600080516020620023b3833981519152604482015290519081900360640190fd5b600080546040516001600160a01b03909116907f8be0079c531659141344cd1fd0a4f28419497f9722a3daafe3b4186f6b6457e0908390a3600080546001600160a01b0319169055565b6001600160a01b03808216600090815260066020526040808220549051921691899089908990899086906200115d9062001947565b948552602085019390935260408085019290925260608401526001600160a01b039091166080830152519081900360a001906000f080158015620011a5573d6000803e3d6000fd5b509050816001600160a01b031663dcc716bd8287876040518463ffffffff1660e01b815260040180846001600160a01b03166001600160a01b031681526020018381526020018281526020019350505050600060405180830381600087803b1580156200121157600080fd5b505af115801562001226573d6000803e3d6000fd5b5050604080516001600160a01b0380881682528516602082015281517f1441a6afff6cbd4a06d0416e0d93d0fa8d5fbe9c7c5d1df49b7f93d72add02829450908190039091019150a1505050505050505050565b6000546001600160a01b031690565b6001600160a01b0380821660009081526006602052604080822054905192169189908990899089908690620012be9062001947565b948552602085019390935260408085019290925260608401526001600160a01b039091166080830152519081900360a001906000f08015801562001306573d6000803e3d6000fd5b506001600160a01b038084166000818152600b6020526040808220805460ff191660011790558051631f432cf560e01b81529385166004850152602484018a905260448401899052519394509092631f432cf592606480820193929182900301818387803b1580156200137857600080fd5b505af11580156200138d573d6000803e3d6000fd5b505050508160076000846001600160a01b031663c27d4df36040518163ffffffff1660e01b815260040160206040518083038186803b158015620013d057600080fd5b505afa158015620013e5573d6000803e3d6000fd5b505050506040513d6020811015620013fc57600080fd5b50516001600160a01b039081168252602080830193909352604091820160002080546001600160a01b03191694821694909417909355805186841681529284169183019190915280517f450572808a85306efa02e194c62463c8bb5a4e6b55dc35e3732ed63a35d27ce79281900390910190a1505050505050505050565b336000908152600a602052604090205460ff1615156001146200149c57600080fd5b336000908152600a602052604090205460ff1680620014ca5750336000908152600b602052604090205460ff165b62001512576040805162461bcd60e51b81526020600482015260136024820152721b9bdd081848185cdadbc818dbdb9d1c9858dd606a1b604482015290519081900360640190fd5b6001600160a01b038084166000908152600960209081526040808320938616835292905220546200154a908263ffffffff6200185116565b6001600160a01b03938416600090815260096020908152604080832095909616825293909352929091209190915550565b600581815481106200158957fe5b6000918252602090912001546001600160a01b0316905081565b6004546001600160a01b031681565b6001600160a01b03918216600090815260096020908152604080832093909416825291909152205490565b6008602052600090815260409020546001600160a01b031681565b60015481565b336000908152600a602052604090205460ff1615156001146200162057600080fd5b6001600160a01b03808216600090815260066020526040902054168215620016a857806001600160a01b0316631d7bd46e856040518263ffffffff1660e01b815260040180828152602001915050600060405180830381600087803b1580156200168957600080fd5b505af11580156200169e573d6000803e3d6000fd5b50505050620016ef565b806001600160a01b031663d6b9b5d9856040518263ffffffff1660e01b815260040180828152602001915050600060405180830381600087803b15801562000ba457600080fd5b50505050565b6003546001600160a01b031681565b6200170e62001802565b6000546001600160a01b0390811691161462001760576040805162461bcd60e51b81526020600482018190526024820152600080516020620023b3833981519152604482015290519081900360640190fd5b6001600160a01b038116620017a75760405162461bcd60e51b81526004018080602001828103825260268152602001806200238d6026913960400191505060405180910390fd5b600080546040516001600160a01b03808516939216917f8be0079c531659141344cd1fd0a4f28419497f9722a3daafe3b4186f6b6457e091a3600080546001600160a01b0319166001600160a01b0392909216919091179055565b3390565b60006200184a83836040518060400160405280601e81526020017f536166654d6174683a207375627472616374696f6e206f766572666c6f770000815250620018ac565b9392505050565b6000828201838110156200184a576040805162461bcd60e51b815260206004820152601b60248201527f536166654d6174683a206164646974696f6e206f766572666c6f770000000000604482015290519081900360640190fd5b600081848411156200193f5760405162461bcd60e51b81526004018080602001828103825283818151815260200191508051906020019080838360005b8381101562001903578181015183820152602001620018e9565b50505050905090810190601f168015620019315780820380516001836020036101000a031916815260200191505b509250505060405180910390fd5b505050900390565b610a3780620019568339019056fe608060405234801561001057600080fd5b50604051610a37380380610a37833981810160405260a081101561003357600080fd5b508051602082015160408301516060840151608090940151600080546001600160a01b0319166001600160a01b03831617905592939192909190848484848461007e8585858561008d565b505050505050505050506102bc565b6100a7622014808561017060201b6105901790919060201c565b6002556100f66100c562201480836101c1602090811b61053717901c565b6100e4670de0b6b3a7640000866101c160201b6105371790919060201c565b61017060201b6105901790919060201c565b6001556101118262201480610170602090811b61059017901c565b60038190556004829055600254600154604080519283526020830191909152818101929092526060810183905290517f6960ab234c7ef4b0c9197100f5393cfcde7c453ac910a27bd2000aa1dd4c068d9181900360800190a150505050565b60006101b883836040518060400160405280601a81526020017f536166654d6174683a206469766973696f6e206279207a65726f00000000000081525061021a60201b60201c565b90505b92915050565b6000826101d0575060006101bb565b828202828482816101dd57fe5b04146101b85760405162461bcd60e51b8152600401808060200182810382526021815260200180610a166021913960400191505060405180910390fd5b600081836102a65760405162461bcd60e51b81526004018080602001828103825283818151815260200191508051906020019080838360005b8381101561026b578181015183820152602001610253565b50505050905090810190601f1680156102985780820380516001836020036101000a031916815260200191505b509250505060405180910390fd5b5060008385816102b257fe5b0495945050505050565b61074b806102cb6000396000f3fe608060405234801561001057600080fd5b506004361061009e5760003560e01c8063a385fb9611610066578063a385fb9614610164578063b81688161461016c578063b9f9850a1461019b578063f14039de146101a3578063fd2da339146101ab5761009e565b806315f24053146100a35780632037f3e7146100de5780636e71e2d81461010f5780638726bb89146101385780638da5cb5b14610140575b600080fd5b6100cc600480360360608110156100b957600080fd5b50803590602081013590604001356101b3565b60408051918252519081900360200190f35b61010d600480360360808110156100f457600080fd5b50803590602081013590604081013590606001356101ca565b005b6100cc6004803603606081101561012557600080fd5b5080359060208101359060400135610225565b6100cc61027b565b610148610281565b604080516001600160a01b039092168252519081900360200190f35b6100cc610290565b6100cc6004803603608081101561018257600080fd5b5080359060208101359060408101359060600135610297565b6100cc610316565b6100cc61031c565b6100cc610322565b60006101c0848484610328565b90505b9392505050565b6000546001600160a01b031633146102135760405162461bcd60e51b81526004018080602001828103825260268152602001806106f06026913960400191505060405180910390fd5b61021f848484846103f1565b50505050565b600082610234575060006101c3565b6101c06102578361024b878763ffffffff61049216565b9063ffffffff6104f516565b61026f85670de0b6b3a764000063ffffffff61053716565b9063ffffffff61059016565b60015481565b6000546001600160a01b031681565b6220148081565b6000806102b2670de0b6b3a76400008463ffffffff6104f516565b905060006102c1878787610328565b905060006102e1670de0b6b3a764000061026f848663ffffffff61053716565b905061030a670de0b6b3a764000061026f836102fe8c8c8c610225565b9063ffffffff61053716565b98975050505050505050565b60035481565b60025481565b60045481565b600080610336858585610225565b9050600454811161037c57610374600254610368670de0b6b3a764000061026f6001548661053790919063ffffffff16565b9063ffffffff61049216565b9150506101c3565b60006103a7600254610368670de0b6b3a764000061026f60015460045461053790919063ffffffff16565b905060006103c0600454846104f590919063ffffffff16565b90506103e782610368670de0b6b3a764000061026f6003548661053790919063ffffffff16565b93505050506101c3565b610404846220148063ffffffff61059016565b60025561041d610257622014808363ffffffff61053716565b600155610433826220148063ffffffff61059016565b60038190556004829055600254600154604080519283526020830191909152818101929092526060810183905290517f6960ab234c7ef4b0c9197100f5393cfcde7c453ac910a27bd2000aa1dd4c068d9181900360800190a150505050565b6000828201838110156104ec576040805162461bcd60e51b815260206004820152601b60248201527f536166654d6174683a206164646974696f6e206f766572666c6f770000000000604482015290519081900360640190fd5b90505b92915050565b60006104ec83836040518060400160405280601e81526020017f536166654d6174683a207375627472616374696f6e206f766572666c6f7700008152506105d2565b600082610546575060006104ef565b8282028284828161055357fe5b04146104ec5760405162461bcd60e51b81526004018080602001828103825260218152602001806106cf6021913960400191505060405180910390fd5b60006104ec83836040518060400160405280601a81526020017f536166654d6174683a206469766973696f6e206279207a65726f000000000000815250610669565b600081848411156106615760405162461bcd60e51b81526004018080602001828103825283818151815260200191508051906020019080838360005b8381101561062657818101518382015260200161060e565b50505050905090810190601f1680156106535780820380516001836020036101000a031916815260200191505b509250505060405180910390fd5b505050900390565b600081836106b85760405162461bcd60e51b815260206004820181815283516024840152835190928392604490910191908501908083836000831561062657818101518382015260200161060e565b5060008385816106c457fe5b049594505050505056fe536166654d6174683a206d756c7469706c69636174696f6e206f766572666c6f776f6e6c7920746865206f776e6572206d61792063616c6c20746869732066756e6374696f6e2ea2646970667358221220caea896722968de3ac40f39516174b02ed5c6d4bc1efab3d8d6070c34c6e426264736f6c63430006060033536166654d6174683a206d756c7469706c69636174696f6e206f766572666c6f774f776e61626c653a206e6577206f776e657220697320746865207a65726f20616464726573734f776e61626c653a2063616c6c6572206973206e6f7420746865206f776e6572a264697066735822122044f4d21731557ccbde6e45bcd591711a3dee5d6f82a282181ad41940532dc4ee64736f6c63430006060033",
  "immutableReferences": {},
  "source": "pragma solidity ^0.6.0;\n\nimport \"openzeppelin-solidity/contracts/access/Ownable.sol\";\nimport \"openzeppelin-solidity/contracts/math/SafeMath.sol\";\nimport \"./MoneyMarketInstance.sol\";\nimport \"./interfaces/UniswapOracleFactoryI.sol\";\nimport \"./interfaces/MoneyMarketFactoryI.sol\";\nimport \"./interfaces/MoneyMarketInstanceI.sol\";\nimport \"./interfaces/AskoRiskTokenI.sol\";\nimport \"./compound/JumpRateModelV2.sol\";\nimport \"./compound/Exponential.sol\";\n\n////////////////////////////////////////////////////////////////////////////////////////////\n/// @title MoneyMarketFactory\n/// @author Christopher Dixon\n////////////////////////////////////////////////////////////////////////////////////////////\n/**\nMoneyMarketControl is designed to coordinate Money Markets\nThis contract uses the OpenZeppelin contract Library to inherit functions from\n  Ownable.sol\n**/\n\ncontract MoneyMarketControl is Ownable, Exponential {\n    using SafeMath for uint256;\n\n    uint256 public instanceCount; //tracks the number of instances\n    address public ARTF;\n    UniswapOracleFactoryI public Oracle; //oracle factory contract interface\n    MoneyMarketFactoryI public MMF;\n\n    address[] public assets;\n\n    mapping(address => address) public instanceTracker; //maps erc20 address to the assets MoneyMarketInstance\n    mapping(address => address) public _ALRtracker; // tracks a money markets address to its ALR token.\n    mapping(address => address) public oracleTracker; //maps a MM oracle to its Money market address\n    mapping(address => mapping(address => uint256)) collateralTracker; //tracks user to a market to an amount collaterlized in that market\n    mapping(address => bool) isMMI;\n    mapping(address => bool) isALR;\n\n    /**\n  @notice onlyMMFactory is a modifier used to make a function only callable by the Money Market Instance contract\n  **/\n    modifier onlyMMI() {\n        require(isMMI[msg.sender] == true);\n        _;\n    }\n\n    event WhiteListed(address asset, address moneyMarket, address oracle);\n    event AHRcreated(address asset, address interestRateModel);\n    event ALRcreated(address asset, address interestRateModel);\n\n    /**\n@notice the constructor function is fired during the contract deployment process. The constructor can only be fired once and\n        is used to set up Oracle variables for the MoneyMarketFactory contract.\n@param _oracle is the address for the UniswapOracleFactorycontract\n**/\n    constructor(\n        address _oracle,\n        address _MMF,\n        address _ARTF\n    ) public {\n        Oracle = UniswapOracleFactoryI(_oracle);\n        MMF = MoneyMarketFactoryI(_MMF);\n        ARTF = _ARTF;\n    }\n\n    /**\n@notice whitelistAsset is an onlyOwner function designed to be called by the AskoDAO.\n        This function creates a new MoneyMarketInstancecontract for an input asset as well\n        as a UniswapOracleInstance for the asset.\n@param _assetContractAdd is the address of the ERC20 asset being whitelisted\n@param _assetName is the name of the asset(e.x: ChainLink)\n@param _assetSymbol is the symbol of the asset(e.x: LINK)\n**/\n    function whitelistAsset(\n        address _assetContractAdd,\n        string memory _assetName,\n        string memory _assetSymbol\n    ) public onlyOwner {\n        instanceCount++;\n\n        address oracle = address(Oracle.createNewOracle(_assetContractAdd));\n\n        address _MMinstance = MMF.createMMI(\n            _assetContractAdd,\n            address(Oracle),\n            address(this),\n            ARTF,\n            _assetName,\n            _assetSymbol\n        );\n\n        isMMI[_MMinstance] = true;\n        Oracle.linkMMI(_MMinstance, _assetContractAdd);\n        instanceTracker[_assetContractAdd] = _MMinstance;\n        oracleTracker[_MMinstance] = oracle;\n        assets.push(_assetContractAdd);\n        emit WhiteListed(_assetContractAdd, _MMinstance, oracle);\n    }\n\n    /**\n@notice setUpAHR is used to set up a MoneyMarketInstances Asko High Risk Token as well as its InterestRateModel\n@param _baseRatePerYear The approximate target base APR, as a mantissa (scaled by 1e18)\n@param _multiplierPerYear  The rate of increase in interest rate wrt utilization (scaled by 1e18)\n@param _jumpMultiplierPerYear The multiplierPerBlock after hitting a specified utilization point\n@param _optimal The utilization point at which the jump multiplier is applied(Refered to as the Kink in the InterestRateModel)\n@param _fee is a number representing the fee for exchanging an AHR token, as a mantissa (scaled by 1e18)\n@param _assetContractAdd is the contract address of the asset whos MoneyMarketInstance is being set up\n@dev this function can only be called after an asset has been whitelisted as it needs an existing MoneyMarketInstance contract\n**/\n    function setUpAHR(\n        uint256 _baseRatePerYear,\n        uint256 _multiplierPerYear,\n        uint256 _jumpMultiplierPerYear,\n        uint256 _optimal,\n        uint256 _fee,\n        uint256 _initialExchangeRate,\n        address _assetContractAdd\n    ) public {\n        MoneyMarketInstanceI _MMI = MoneyMarketInstanceI(\n            instanceTracker[_assetContractAdd]\n        );\n\n        address interestRateModel = address(\n            new JumpRateModelV2(\n                _baseRatePerYear,\n                _multiplierPerYear,\n                _jumpMultiplierPerYear,\n                _optimal,\n                address(_MMI)\n            )\n        );\n\n        _MMI._setUpAHR(interestRateModel, _fee, _initialExchangeRate);\n\n        emit AHRcreated(_assetContractAdd, interestRateModel);\n    }\n\n    /**\n@notice setUpAHR is used to set up a MoneyMarketInstances Asko High Risk Token as well as its InterestRateModel\n@param _baseRatePerYear The approximate target base APR, as a mantissa (scaled by 1e18)\n@param _multiplierPerYear  The rate of increase in interest rate wrt utilization (scaled by 1e18)\n@param _jumpMultiplierPerYear The multiplierPerBlock after hitting a specified utilization point\n@param _optimal The utilization point at which the jump multiplier is applied(Refered to as the Kink in the InterestRateModel)\n@param _fee is a number representing the fee for exchanging an ALR token, as a mantissa (scaled by 1e18)\n@param _assetContractAdd is the contract address of the asset whos MoneyMarketInstance is being set up\n@dev this function can only be called after an asset has been whitelisted as it needs an existing MoneyMarketInstance contract\n**/\n    function setUpALR(\n        uint256 _baseRatePerYear,\n        uint256 _multiplierPerYear,\n        uint256 _jumpMultiplierPerYear,\n        uint256 _optimal,\n        uint256 _fee,\n        uint256 _initialExchangeRate,\n        address _assetContractAdd\n    ) public {\n        MoneyMarketInstanceI _MMI = MoneyMarketInstanceI(\n            instanceTracker[_assetContractAdd]\n        );\n\n        address interestRateModel = address(\n            new JumpRateModelV2(\n                _baseRatePerYear,\n                _multiplierPerYear,\n                _jumpMultiplierPerYear,\n                _optimal,\n                address(_MMI)\n            )\n        );\n        isALR[address(_MMI)] = true;\n        _MMI._setUpALR(interestRateModel, _fee, _initialExchangeRate);\n        _ALRtracker[_MMI.ALR()] = address(_MMI);\n\n        emit ALRcreated(_assetContractAdd, interestRateModel);\n    }\n\n    /**\n@notice getAsset returns an array of all assets whitelisted on the platform.\n@dev this can be used to loop through and retreive each assets MoneyMarket by the front end\n**/\n    function getAssets() public view returns (address[] memory) {\n        return assets;\n    }\n\n    /**\n@notice trackCollateralUp is an external function used bya MMI to track collateral amounts globally\n@param _borrower is the address of the corrower\n@param _ALR is the address of the ALR being collateralized\n@param _amount is the amount of USDC being collateralized\n@dev this function can only be called by a MoneyMarketInstance.\n**/\n    function trackCollateralUp(\n        address _borrower,\n        address _ALR,\n        uint256 _amount\n    ) external onlyMMI {\n        require(isMMI[msg.sender] || isALR[msg.sender], \"not a asko contract\");\n        collateralTracker[_borrower][_ALR] = collateralTracker[_borrower][_ALR]\n            .add(_amount);\n    }\n\n    /**\n @notice trackCollateralDown is an external function used bya MMI to track collateral amounts globally\n @param _ALR is the address of the ALR being collateralized\n @param _ALR is the address of the seller\n @param _amount is the amount of USDC being collateralized\n @dev this function can only be called by a MoneyMarketInstance.\n **/\n    function trackCollateralDown(\n        address _borrower,\n        address _ALR,\n        uint256 _amount\n    ) external onlyMMI {\n        require(isMMI[msg.sender] || isALR[msg.sender], \"not a asko contract\");\n        if (collateralTracker[_borrower][_ALR] > _amount) {\n            collateralTracker[_borrower][_ALR] = collateralTracker[_borrower][_ALR]\n                .sub(_amount);\n        } else {\n            collateralTracker[_borrower][_ALR] = 0;\n        }\n    }\n\n    \n\n/**\n@notice checkCollateralizedALR is used by the front end to check a borrowers collateralized ALR amount\n@param _borrower is the address of the borrower\n@param _ALR is the address of the ALR being used as collateral\n**/\n    function checkCollateralizedALR(address _borrower, address _ALR)\n        public\n        view\n        returns (uint256)\n    {\n        return collateralTracker[_borrower][_ALR];\n    }\n\n    /**\n@notice checkCollateralValue is a view function that accepts an account address and an ALR contract\n        address and returns the USD value of the availible collateral they have. Availible collateral is\n        determined by the total amount of collateral minus the amount of collateral that is still availible to borrow against\n@param _borrower is the address whos collateral value we are looking up\n@param _ALR is the address of the ALR token where collateral value is being looked up\n **/\n    function checkAvailibleCollateralValue(address _borrower, address _ALR)\n        external\n        returns (uint256)\n    {\n        //instantiate art token\n        AskoRiskTokenI _ART = AskoRiskTokenI(_ALR);\n        //get borrowers art balance\n        uint256 artBal = _ART.balanceOf(_borrower);\n        //get USDC value of art balance\n        uint256 usdcValOfBalance = _ART.getUSDCWorthOfART(artBal);\n        //retrieve the amount of the USDC value they have borrowed\n        uint256 usdcValLocked = collateralTracker[_borrower][_ALR];\n        //retrieve USDC availible collateral\n        return usdcValOfBalance.sub(usdcValLocked);\n    }\n\n/**\n@notice _checkIfALR is used to check if an input address is an ALR contract\n@param __inQ is the address in question\n**/\n\n    function _checkIfALR(address __inQ) external view returns (bool) {\n        return isALR[__inQ];\n    }\n\n\n/**\n@notice liquidateTrigger is a protected function that can only be called by a money market instance.\n@param _liquidateValue is the value being liquidated\n@param _borrower is the address of the account being liquidated\n@param _liquidator is the address of the account doing the liquidating\n@param _ALR is the address of the Asko Low Risk token that was used as collateral\n**/\n    function liquidateTrigger(\n        uint256 _liquidateValue,\n        address _borrower,\n        address _liquidator,\n        AskoRiskTokenI _ALR\n    ) public onlyMMI {\n        collateralTracker[_borrower][address(_ALR)] = 0;\n        _ALR._liquidate(_liquidateValue, _borrower, _liquidator);\n    }\n\n/**\n@notice updateIRM allows the admin of this contract to update a AskoRiskToken's Interest Rate Model\n@param _baseRatePerYear The approximate target base APR, as a mantissa (scaled by 1e18)\n@param _multiplierPerYear  The rate of increase in interest rate wrt utilization (scaled by 1e18)\n@param _jumpMultiplierPerYear The multiplierPerBlock after hitting a specified utilization point\n@param _optimal The utilization point at which the jump multiplier is applied(Refered to as the Kink in the InterestRateModel)\n@param _assetContractAdd is the contract address of the asset whos MoneyMarketInstance is being set up\n@param _isALR is a bool representing whether or not the Asko risk token being updated is a ALR or not\n**/\n    function updateIRM(\n        uint256 _baseRatePerYear,\n        uint256 _multiplierPerYear,\n        uint256 _jumpMultiplierPerYear,\n        uint256 _optimal,\n        address _assetContractAdd,\n        bool _isALR\n    ) public {\n        MoneyMarketInstanceI _MMI = MoneyMarketInstanceI(\n            instanceTracker[_assetContractAdd]\n        );\n\n        address interestRateModel = address(\n            new JumpRateModelV2(\n                _baseRatePerYear,\n                _multiplierPerYear,\n                _jumpMultiplierPerYear,\n                _optimal,\n                address(_MMI)\n            )\n        );\n        if (_isALR) {\n            _MMI.updateALR(interestRateModel);\n        } else {\n            _MMI.updateAHR(interestRateModel);\n        }\n    }\n\n/**\n@notice updateRR allows the admin to update the reserve ratio for an Asko Risk Token\n@param _newRR is the new reserve ratio value(scaled by 1e18)\n@param _isALR is a bool representing whether of not the Reserve ratio being updated iis an ALR or not\n@param _asset is the address of the asset(token) whos ART tokens are being updated\n**/\n    function updateRR(\n        uint256 _newRR,\n        bool _isALR,\n        address _asset\n    ) public onlyMMI {\n        MoneyMarketInstanceI _MMI = MoneyMarketInstanceI(\n            instanceTracker[_asset]\n        );\n        if (_isALR) {\n            _MMI.setRRALR(_newRR);\n        } else {\n            _MMI.setRRAHR(_newRR);\n        }\n    }\n}\n",
  "sourcePath": "/home/stan36/repos/Askolend/AskoLend-contracts/contracts/MoneyMarketControl.sol",
  "compiler": {
    "name": "solc",
    "version": "0.6.6+commit.6c089d02.Emscripten.clang"
  },
  "schemaVersion": "3.3.2",
  "updatedAt": "2021-01-08T04:13:17.655Z",
  "devdoc": {
    "methods": {
      "_checkIfALR(address)": {
        "params": {
          "__inQ": "is the address in question*"
        }
      },
      "checkAvailibleCollateralValue(address,address)": {
        "params": {
          "_ALR": "is the address of the ALR token where collateral value is being looked up*",
          "_borrower": "is the address whos collateral value we are looking up"
        }
      },
      "checkCollateralizedALR(address,address)": {
        "params": {
          "_ALR": "is the address of the ALR being used as collateral*",
          "_borrower": "is the address of the borrower"
        }
      },
      "constructor": {
        "params": {
          "_oracle": "is the address for the UniswapOracleFactorycontract*"
        }
      },
      "getAssets()": {
        "details": "this can be used to loop through and retreive each assets MoneyMarket by the front end*"
      },
      "liquidateTrigger(uint256,address,address,address)": {
        "params": {
          "_ALR": "is the address of the Asko Low Risk token that was used as collateral*",
          "_borrower": "is the address of the account being liquidated",
          "_liquidateValue": "is the value being liquidated",
          "_liquidator": "is the address of the account doing the liquidating"
        }
      },
      "owner()": {
        "details": "Returns the address of the current owner."
      },
      "renounceOwnership()": {
        "details": "Leaves the contract without owner. It will not be possible to call `onlyOwner` functions anymore. Can only be called by the current owner.     * NOTE: Renouncing ownership will leave the contract without an owner, thereby removing any functionality that is only available to the owner."
      },
      "setUpAHR(uint256,uint256,uint256,uint256,uint256,uint256,address)": {
        "details": "this function can only be called after an asset has been whitelisted as it needs an existing MoneyMarketInstance contract*",
        "params": {
          "_assetContractAdd": "is the contract address of the asset whos MoneyMarketInstance is being set up",
          "_baseRatePerYear": "The approximate target base APR, as a mantissa (scaled by 1e18)",
          "_fee": "is a number representing the fee for exchanging an AHR token, as a mantissa (scaled by 1e18)",
          "_jumpMultiplierPerYear": "The multiplierPerBlock after hitting a specified utilization point",
          "_multiplierPerYear": "The rate of increase in interest rate wrt utilization (scaled by 1e18)",
          "_optimal": "The utilization point at which the jump multiplier is applied(Refered to as the Kink in the InterestRateModel)"
        }
      },
      "setUpALR(uint256,uint256,uint256,uint256,uint256,uint256,address)": {
        "details": "this function can only be called after an asset has been whitelisted as it needs an existing MoneyMarketInstance contract*",
        "params": {
          "_assetContractAdd": "is the contract address of the asset whos MoneyMarketInstance is being set up",
          "_baseRatePerYear": "The approximate target base APR, as a mantissa (scaled by 1e18)",
          "_fee": "is a number representing the fee for exchanging an ALR token, as a mantissa (scaled by 1e18)",
          "_jumpMultiplierPerYear": "The multiplierPerBlock after hitting a specified utilization point",
          "_multiplierPerYear": "The rate of increase in interest rate wrt utilization (scaled by 1e18)",
          "_optimal": "The utilization point at which the jump multiplier is applied(Refered to as the Kink in the InterestRateModel)"
        }
      },
      "trackCollateralDown(address,address,uint256)": {
        "details": "this function can only be called by a MoneyMarketInstance.*",
        "params": {
          "_ALR": "is the address of the seller",
          "_amount": "is the amount of USDC being collateralized"
        }
      },
      "trackCollateralUp(address,address,uint256)": {
        "details": "this function can only be called by a MoneyMarketInstance.*",
        "params": {
          "_ALR": "is the address of the ALR being collateralized",
          "_amount": "is the amount of USDC being collateralized",
          "_borrower": "is the address of the corrower"
        }
      },
      "transferOwnership(address)": {
        "details": "Transfers ownership of the contract to a new account (`newOwner`). Can only be called by the current owner."
      },
      "updateIRM(uint256,uint256,uint256,uint256,address,bool)": {
        "params": {
          "_assetContractAdd": "is the contract address of the asset whos MoneyMarketInstance is being set up",
          "_baseRatePerYear": "The approximate target base APR, as a mantissa (scaled by 1e18)",
          "_isALR": "is a bool representing whether or not the Asko risk token being updated is a ALR or not*",
          "_jumpMultiplierPerYear": "The multiplierPerBlock after hitting a specified utilization point",
          "_multiplierPerYear": "The rate of increase in interest rate wrt utilization (scaled by 1e18)",
          "_optimal": "The utilization point at which the jump multiplier is applied(Refered to as the Kink in the InterestRateModel)"
        }
      },
      "updateRR(uint256,bool,address)": {
        "params": {
          "_asset": "is the address of the asset(token) whos ART tokens are being updated*",
          "_isALR": "is a bool representing whether of not the Reserve ratio being updated iis an ALR or not",
          "_newRR": "is the new reserve ratio value(scaled by 1e18)"
        }
      },
      "whitelistAsset(address,string,string)": {
        "params": {
          "_assetContractAdd": "is the address of the ERC20 asset being whitelisted",
          "_assetName": "is the name of the asset(e.x: ChainLink)",
          "_assetSymbol": "is the symbol of the asset(e.x: LINK)*"
        }
      }
    }
  },
  "userdoc": {
    "methods": {
      "_checkIfALR(address)": {
        "notice": "_checkIfALR is used to check if an input address is an ALR contract"
      },
      "checkAvailibleCollateralValue(address,address)": {
        "notice": "checkCollateralValue is a view function that accepts an account address and an ALR contract address and returns the USD value of the availible collateral they have. Availible collateral is determined by the total amount of collateral minus the amount of collateral that is still availible to borrow against"
      },
      "checkCollateralizedALR(address,address)": {
        "notice": "checkCollateralizedALR is used by the front end to check a borrowers collateralized ALR amount"
      },
      "constructor": "the constructor function is fired during the contract deployment process. The constructor can only be fired once and is used to set up Oracle variables for the MoneyMarketFactory contract.",
      "getAssets()": {
        "notice": "getAsset returns an array of all assets whitelisted on the platform."
      },
      "liquidateTrigger(uint256,address,address,address)": {
        "notice": "liquidateTrigger is a protected function that can only be called by a money market instance."
      },
      "setUpAHR(uint256,uint256,uint256,uint256,uint256,uint256,address)": {
        "notice": "setUpAHR is used to set up a MoneyMarketInstances Asko High Risk Token as well as its InterestRateModel"
      },
      "setUpALR(uint256,uint256,uint256,uint256,uint256,uint256,address)": {
        "notice": "setUpAHR is used to set up a MoneyMarketInstances Asko High Risk Token as well as its InterestRateModel"
      },
      "trackCollateralDown(address,address,uint256)": {
        "notice": "trackCollateralDown is an external function used bya MMI to track collateral amounts globally"
      },
      "trackCollateralUp(address,address,uint256)": {
        "notice": "trackCollateralUp is an external function used bya MMI to track collateral amounts globally"
      },
      "updateIRM(uint256,uint256,uint256,uint256,address,bool)": {
        "notice": "updateIRM allows the admin of this contract to update a AskoRiskToken's Interest Rate Model"
      },
      "updateRR(uint256,bool,address)": {
        "notice": "updateRR allows the admin to update the reserve ratio for an Asko Risk Token"
      },
      "whitelistAsset(address,string,string)": {
        "notice": "whitelistAsset is an onlyOwner function designed to be called by the AskoDAO. This function creates a new MoneyMarketInstancecontract for an input asset as well as a UniswapOracleInstance for the asset."
      }
    },
    "notice": "MoneyMarketControl is designed to coordinate Money Markets This contract uses the OpenZeppelin contract Library to inherit functions from Ownable.sol*"
  }
}