{
  "contractName": "MoneyMarketInstance",
  "abi": [
    {
      "inputs": [
        {
          "internalType": "address",
          "name": "_assetContractAdd",
          "type": "address"
        },
        {
          "internalType": "address",
          "name": "_oracleFactory",
          "type": "address"
        },
        {
          "internalType": "address",
          "name": "_owner",
          "type": "address"
        },
        {
          "internalType": "string",
          "name": "_assetName",
          "type": "string"
        },
        {
          "internalType": "string",
          "name": "_assetSymbol",
          "type": "string"
        }
      ],
      "stateMutability": "nonpayable",
      "type": "constructor"
    },
    {
      "anonymous": false,
      "inputs": [
        {
          "indexed": false,
          "internalType": "address",
          "name": "borrower",
          "type": "address"
        },
        {
          "indexed": false,
          "internalType": "uint256",
          "name": "AHRamount",
          "type": "uint256"
        },
        {
          "indexed": false,
          "internalType": "uint256",
          "name": "ALRamount",
          "type": "uint256"
        }
      ],
      "name": "Borrow",
      "type": "event"
    },
    {
      "anonymous": false,
      "inputs": [
        {
          "indexed": false,
          "internalType": "address",
          "name": "collateralizer",
          "type": "address"
        },
        {
          "indexed": false,
          "internalType": "uint256",
          "name": "amount",
          "type": "uint256"
        }
      ],
      "name": "Collateralized",
      "type": "event"
    },
    {
      "anonymous": false,
      "inputs": [
        {
          "indexed": false,
          "internalType": "address",
          "name": "lender",
          "type": "address"
        },
        {
          "indexed": false,
          "internalType": "uint256",
          "name": "amount",
          "type": "uint256"
        }
      ],
      "name": "LentToAHR",
      "type": "event"
    },
    {
      "anonymous": false,
      "inputs": [
        {
          "indexed": false,
          "internalType": "address",
          "name": "lender",
          "type": "address"
        },
        {
          "indexed": false,
          "internalType": "uint256",
          "name": "amount",
          "type": "uint256"
        }
      ],
      "name": "LentToALR",
      "type": "event"
    },
    {
      "anonymous": false,
      "inputs": [
        {
          "indexed": true,
          "internalType": "address",
          "name": "previousOwner",
          "type": "address"
        },
        {
          "indexed": true,
          "internalType": "address",
          "name": "newOwner",
          "type": "address"
        }
      ],
      "name": "OwnershipTransferred",
      "type": "event"
    },
    {
      "anonymous": false,
      "inputs": [
        {
          "indexed": false,
          "internalType": "address",
          "name": "borrower",
          "type": "address"
        },
        {
          "indexed": false,
          "internalType": "uint256",
          "name": "AHRamount",
          "type": "uint256"
        },
        {
          "indexed": false,
          "internalType": "uint256",
          "name": "ALRamount",
          "type": "uint256"
        }
      ],
      "name": "Repayed",
      "type": "event"
    },
    {
      "inputs": [],
      "name": "AHR",
      "outputs": [
        {
          "internalType": "contract AskoRiskToken",
          "name": "",
          "type": "address"
        }
      ],
      "stateMutability": "view",
      "type": "function"
    },
    {
      "inputs": [],
      "name": "ALR",
      "outputs": [
        {
          "internalType": "contract AskoRiskToken",
          "name": "",
          "type": "address"
        }
      ],
      "stateMutability": "view",
      "type": "function"
    },
    {
      "inputs": [],
      "name": "MMF",
      "outputs": [
        {
          "internalType": "contract MoneyMarketFactoryI",
          "name": "",
          "type": "address"
        }
      ],
      "stateMutability": "view",
      "type": "function"
    },
    {
      "inputs": [],
      "name": "UOF",
      "outputs": [
        {
          "internalType": "contract UniswapOracleFactoryI",
          "name": "",
          "type": "address"
        }
      ],
      "stateMutability": "view",
      "type": "function"
    },
    {
      "inputs": [],
      "name": "asset",
      "outputs": [
        {
          "internalType": "contract IERC20",
          "name": "",
          "type": "address"
        }
      ],
      "stateMutability": "view",
      "type": "function"
    },
    {
      "inputs": [],
      "name": "assetName",
      "outputs": [
        {
          "internalType": "string",
          "name": "",
          "type": "string"
        }
      ],
      "stateMutability": "view",
      "type": "function"
    },
    {
      "inputs": [],
      "name": "assetSymbol",
      "outputs": [
        {
          "internalType": "string",
          "name": "",
          "type": "string"
        }
      ],
      "stateMutability": "view",
      "type": "function"
    },
    {
      "inputs": [],
      "name": "divisor",
      "outputs": [
        {
          "internalType": "uint256",
          "name": "",
          "type": "uint256"
        }
      ],
      "stateMutability": "view",
      "type": "function"
    },
    {
      "inputs": [],
      "name": "fee_AHR",
      "outputs": [
        {
          "internalType": "uint256",
          "name": "",
          "type": "uint256"
        }
      ],
      "stateMutability": "view",
      "type": "function"
    },
    {
      "inputs": [],
      "name": "fee_ALR",
      "outputs": [
        {
          "internalType": "uint256",
          "name": "",
          "type": "uint256"
        }
      ],
      "stateMutability": "view",
      "type": "function"
    },
    {
      "inputs": [],
      "name": "owner",
      "outputs": [
        {
          "internalType": "address",
          "name": "",
          "type": "address"
        }
      ],
      "stateMutability": "view",
      "type": "function"
    },
    {
      "inputs": [],
      "name": "renounceOwnership",
      "outputs": [],
      "stateMutability": "nonpayable",
      "type": "function"
    },
    {
      "inputs": [
        {
          "internalType": "address",
          "name": "newOwner",
          "type": "address"
        }
      ],
      "name": "transferOwnership",
      "outputs": [],
      "stateMutability": "nonpayable",
      "type": "function"
    },
    {
      "inputs": [
        {
          "internalType": "address",
          "name": "_InterestRateModel",
          "type": "address"
        },
        {
          "internalType": "uint256",
          "name": "_fee",
          "type": "uint256"
        },
        {
          "internalType": "uint256",
          "name": "_initialExchangeRate",
          "type": "uint256"
        }
      ],
      "name": "_setUpAHR",
      "outputs": [],
      "stateMutability": "nonpayable",
      "type": "function"
    },
    {
      "inputs": [
        {
          "internalType": "address",
          "name": "_InterestRateModel",
          "type": "address"
        },
        {
          "internalType": "uint256",
          "name": "_fee",
          "type": "uint256"
        },
        {
          "internalType": "uint256",
          "name": "_initialExchangeRate",
          "type": "uint256"
        }
      ],
      "name": "_setUpALR",
      "outputs": [],
      "stateMutability": "nonpayable",
      "type": "function"
    },
    {
      "inputs": [],
      "name": "getAssetAdd",
      "outputs": [
        {
          "internalType": "address",
          "name": "",
          "type": "address"
        }
      ],
      "stateMutability": "view",
      "type": "function"
    },
    {
      "inputs": [
        {
          "internalType": "uint256",
          "name": "_fee",
          "type": "uint256"
        }
      ],
      "name": "setFeeAHR",
      "outputs": [],
      "stateMutability": "nonpayable",
      "type": "function"
    },
    {
      "inputs": [
        {
          "internalType": "uint256",
          "name": "_fee",
          "type": "uint256"
        }
      ],
      "name": "setFeeALR",
      "outputs": [],
      "stateMutability": "nonpayable",
      "type": "function"
    },
    {
      "inputs": [
        {
          "internalType": "uint256",
          "name": "_payedAmount",
          "type": "uint256"
        },
        {
          "internalType": "uint256",
          "name": "_feePercent",
          "type": "uint256"
        }
      ],
      "name": "calculateFee",
      "outputs": [
        {
          "internalType": "uint256",
          "name": "",
          "type": "uint256"
        }
      ],
      "stateMutability": "view",
      "type": "function"
    },
    {
      "inputs": [
        {
          "internalType": "uint256",
          "name": "_amount",
          "type": "uint256"
        }
      ],
      "name": "lendToAHRpool",
      "outputs": [],
      "stateMutability": "nonpayable",
      "type": "function"
    },
    {
      "inputs": [
        {
          "internalType": "uint256",
          "name": "_amount",
          "type": "uint256"
        }
      ],
      "name": "lendToALRpool",
      "outputs": [],
      "stateMutability": "nonpayable",
      "type": "function"
    },
    {
      "inputs": [
        {
          "internalType": "uint256",
          "name": "_amount",
          "type": "uint256"
        },
        {
          "internalType": "address",
          "name": "_collateral",
          "type": "address"
        }
      ],
      "name": "borrow",
      "outputs": [],
      "stateMutability": "nonpayable",
      "type": "function"
    },
    {
      "inputs": [
        {
          "internalType": "uint256",
          "name": "_repayAmount",
          "type": "uint256"
        }
      ],
      "name": "repay",
      "outputs": [],
      "stateMutability": "nonpayable",
      "type": "function"
    },
    {
      "inputs": [
        {
          "internalType": "uint256",
          "name": "_amount",
          "type": "uint256"
        }
      ],
      "name": "collateralizeALR",
      "outputs": [],
      "stateMutability": "nonpayable",
      "type": "function"
    },
    {
      "inputs": [
        {
          "internalType": "address",
          "name": "_inQuestion",
          "type": "address"
        }
      ],
      "name": "checkIfALR",
      "outputs": [
        {
          "internalType": "bool",
          "name": "",
          "type": "bool"
        }
      ],
      "stateMutability": "view",
      "type": "function"
    }
  ],
  "bytecode": "0x60806040523480156200001157600080fd5b50604051620059c4380380620059c4833981810160405260a08110156200003757600080fd5b8151602083015160408085015160608601805192519496939591949391820192846401000000008211156200006b57600080fd5b9083019060208201858111156200008157600080fd5b82516401000000008111828201881017156200009c57600080fd5b82525081516020918201929091019080838360005b83811015620000cb578181015183820152602001620000b1565b50505050905090810190601f168015620000f95780820380516001836020036101000a031916815260200191505b50604052602001805160405193929190846401000000008211156200011d57600080fd5b9083019060208201858111156200013357600080fd5b82516401000000008111828201881017156200014e57600080fd5b82525081516020918201929091019080838360005b838110156200017d57818101518382015260200162000163565b50505050905090810190601f168015620001ab5780820380516001836020036101000a031916815260200191505b506040525050506000620001c46200028860201b60201c565b600080546001600160a01b0319166001600160a01b0383169081178255604051929350917f8be0079c531659141344cd1fd0a4f28419497f9722a3daafe3b4186f6b6457e0908290a3506127106001558151620002299060049060208501906200028d565b5080516200023f9060059060208401906200028d565b5050600a80546001600160a01b039485166001600160a01b031991821617909155600980549385169382169390931790925550600680549390921692169190911790556200032f565b335b90565b828054600181600116156101000203166002900490600052602060002090601f016020900481019282601f10620002d057805160ff191683800117855562000300565b8280016001018555821562000300579182015b8281111562000300578251825591602001919060010190620002e3565b506200030e92915062000312565b5090565b6200028a91905b808211156200030e576000815560010162000319565b615685806200033f6000396000f3fe60806040523480156200001157600080fd5b5060043610620001845760003560e01c80636761284311620000e1578063c9230c5d1162000093578063c9230c5d14620003f2578063cf0aea8514620003fc578063d162054a146200041c578063dcc716bd1462000426578063f2130c70146200045b578063f2fde38b1462000465578063f9828b4f146200048e5762000184565b806367612843146200036d5780636c713a1514620003aa578063715018a614620003ca5780638da5cb5b14620003d45780639241cef214620003de578063c27d4df314620003e85762000184565b806334e73122116200013b57806334e7312214620002c4578063371fd8e614620002ea57806338d52e0f146200030a5780634b3fd14814620003145780634c20ac741462000343578063551f8b01146200034d5762000184565b806303438def146200018957806311e2c02f14620001ab578063176de7a814620001d15780631f2dc5ef14620002535780631f432cf5146200026f57806322b2d40214620002a4575b600080fd5b620001a960048036036020811015620001a157600080fd5b503562000498565b005b620001b5620005bb565b604080516001600160a01b039092168252519081900360200190f35b620001db620005ca565b6040805160208082528351818301528351919283929083019185019080838360005b8381101562000217578181015183820152602001620001fd565b50505050905090810190601f168015620002455780820380516001836020036101000a031916815260200191505b509250505060405180910390f35b6200025d6200065c565b60408051918252519081900360200190f35b620001a9600480360360608110156200028757600080fd5b506001600160a01b03813516906020810135906040013562000662565b620001a960048036036020811015620002bc57600080fd5b503562000a08565b6200025d60048036036040811015620002dc57600080fd5b508035906020013562000b41565b620001a9600480360360208110156200030257600080fd5b503562000b77565b620001b562001283565b620001a9600480360360408110156200032c57600080fd5b50803590602001356001600160a01b031662001292565b620001b56200176a565b620001a9600480360360208110156200036557600080fd5b503562001779565b62000396600480360360208110156200038557600080fd5b50356001600160a01b0316620017da565b604080519115158252519081900360200190f35b620001a960048036036020811015620003c257600080fd5b503562001860565b620001a9620018c1565b620001b562001967565b620001b562001976565b620001b562001985565b620001db62001994565b620001a9600480360360208110156200041457600080fd5b5035620019f2565b620001b562001b2b565b620001a9600480360360608110156200043e57600080fd5b506001600160a01b03813516906020810135906040013562001b3a565b6200025d62001ee0565b620001a9600480360360208110156200047d57600080fd5b50356001600160a01b031662001ee6565b6200025d62001fe4565b60085460408051632770a7eb60e21b81523360048201526024810184905290516001600160a01b0390921691639dc29fac9160448082019260009290919082900301818387803b158015620004ec57600080fd5b505af115801562000501573d6000803e3d6000fd5b50506009546008546040805163b3f643e760e01b81523360048201526001600160a01b03928316602482015260448101879052905191909216935063b3f643e79250606480830192600092919082900301818387803b1580156200056457600080fd5b505af115801562000579573d6000803e3d6000fd5b5050604080513381526020810185905281517f2ceb23d1a429a36e05e1dd6ebfeceac2b6904c032f15f7648ebd4711510a15f79450908190039091019150a150565b600a546001600160a01b031681565b6005805460408051602060026001851615610100026000190190941693909304601f81018490048402820184019092528181529291830182828015620006545780601f10620006285761010080835404028352916020019162000654565b820191906000526020600020905b8154815290600101906020018083116200063657829003601f168201915b505050505081565b60015481565b6009546001600160a01b031633146200067a57600080fd5b816003819055506060604051602001808063416c522d60e01b815250600401905060405160208183030381529060405290508060046040516020018083805190602001908083835b60208310620006e35780518252601f199092019160209182019101620006c2565b6001836020036101000a03801982511681845116808217855250505050505090500182805460018160011615610100020316600290048015620007605780601f106200073d57610100808354040283529182019162000760565b820191906000526020600020905b8154815290600101906020018083116200074b575b50509250505060405160208183030381529060405290506060604051602001808063416c522d60e01b815250600401905060405160208183030381529060405290508060056040516020018083805190602001908083835b60208310620007d95780518252601f199092019160209182019101620007b8565b6001836020036101000a03801982511681845116808217855250505050505090500182805460018160011615610100020316600290048015620008565780601f106200083357610100808354040283529182019162000856565b820191906000526020600020905b81548152906001019060200180831162000841575b505060408051601f1981840301815290829052600654600a546009549297508896508795508b94506001600160a01b03918216939082169290911690869086906001908c90620008a6906200223a565b6001600160a01b03808a1682528881166020808401919091528882166040840152908716606083015283151560c083015260e08201839052610100608083018181528751918401919091528651909160a084019161012085019189019080838360005b838110156200092357818101518382015260200162000909565b50505050905090810190601f168015620009515780820380516001836020036101000a031916815260200191505b50838103825286518152865160209182019188019080838360005b83811015620009865781810151838201526020016200096c565b50505050905090810190601f168015620009b45780820380516001836020036101000a031916815260200191505b509a5050505050505050505050604051809103906000f080158015620009de573d6000803e3d6000fd5b50600880546001600160a01b0319166001600160a01b039290921691909117905550505050505050565b600654600854604080516323b872dd60e01b81523360048201526001600160a01b03928316602482015260448101859052905191909216916323b872dd9160648083019260209291908290030181600087803b15801562000a6857600080fd5b505af115801562000a7d573d6000803e3d6000fd5b505050506040513d602081101562000a9457600080fd5b5050600854604080516340c10f1960e01b81523360048201526024810184905290516001600160a01b03909216916340c10f199160448082019260009290919082900301818387803b15801562000aea57600080fd5b505af115801562000aff573d6000803e3d6000fd5b5050604080513381526020810185905281517f7328ca2a2e824164ca6ec3121966d63601356d01901d9a5d2ee466cb726d1e3c9450908190039091019150a150565b60008062000b6d60015462000b60858762001fea90919063ffffffff16565b9063ffffffff6200204f16565b9150505b92915050565b600854604080516305eff7ef60e21b815233600482015290516000926001600160a01b0316916317bfdfbc91602480830192602092919082900301818787803b15801562000bc457600080fd5b505af115801562000bd9573d6000803e3d6000fd5b505050506040513d602081101562000bf057600080fd5b5051600754604080516305eff7ef60e21b815233600482015290519293506000926001600160a01b03909216916317bfdfbc9160248082019260209290919082900301818787803b15801562000c4557600080fd5b505af115801562000c5a573d6000803e3d6000fd5b505050506040513d602081101562000c7157600080fd5b50519050600062000c89838363ffffffff6200209316565b90508084111562000c9957600080fd5b6000808415620010805785851062000df357600854604080516369a5e8cf60e01b81526004810189905233602482015290516001600160a01b03909216916369a5e8cf916044808201926020929091908290030181600087803b15801562000d0057600080fd5b505af115801562000d15573d6000803e3d6000fd5b505050506040513d602081101562000d2c57600080fd5b5051600654600854604080516323b872dd60e01b81523360048201526001600160a01b0392831660248201526044810185905290519394509116916323b872dd916064808201926020929091908290030181600087803b15801562000d9057600080fd5b505af115801562000da5573d6000803e3d6000fd5b505050506040513d602081101562000dbc57600080fd5b505060408051338152600060208201528082018890529051600080516020620056308339815191529181900360600190a16200107a565b600062000e07878763ffffffff620020ee16565b600854604080516369a5e8cf60e01b81526004810184905233602482015290519293506001600160a01b03909116916369a5e8cf916044808201926020929091908290030181600087803b15801562000e5f57600080fd5b505af115801562000e74573d6000803e3d6000fd5b505050506040513d602081101562000e8b57600080fd5b5051600654600854604080516323b872dd60e01b81523360048201526001600160a01b0392831660248201526044810185905290519395509116916323b872dd916064808201926020929091908290030181600087803b15801562000eef57600080fd5b505af115801562000f04573d6000803e3d6000fd5b505050506040513d602081101562000f1b57600080fd5b506000905062000f32888363ffffffff620020ee16565b600754604080516369a5e8cf60e01b81526004810184905233602482015290519293506001600160a01b03909116916369a5e8cf916044808201926020929091908290030181600087803b15801562000f8a57600080fd5b505af115801562000f9f573d6000803e3d6000fd5b505050506040513d602081101562000fb657600080fd5b5051600654600754604080516323b872dd60e01b81523360048201526001600160a01b0392831660248201526044810185905290519397509116916323b872dd916064808201926020929091908290030181600087803b1580156200101a57600080fd5b505af11580156200102f573d6000803e3d6000fd5b505050506040513d60208110156200104657600080fd5b505060408051338152602081018690528082018590529051600080516020620056308339815191529181900360600190a150505b6200127b565b600754604080516369a5e8cf60e01b81526004810189905233602482015290516001600160a01b03909216916369a5e8cf916044808201926020929091908290030181600087803b158015620010d557600080fd5b505af1158015620010ea573d6000803e3d6000fd5b505050506040513d60208110156200110157600080fd5b5051600654600754604080516323b872dd60e01b81523360048201526001600160a01b0392831660248201526044810185905290519395509116916323b872dd916064808201926020929091908290030181600087803b1580156200116557600080fd5b505af11580156200117a573d6000803e3d6000fd5b505050506040513d60208110156200119157600080fd5b5050836200124b57600954336000818152600c6020908152604080832054600b909252808320548151632c8bad0f60e01b815260048101959095526001600160a01b039283166024860152604485015251931692632c8bad0f92606480820193929182900301818387803b1580156200120957600080fd5b505af11580156200121e573d6000803e3d6000fd5b5050336000908152600c6020908152604080832080546001600160a01b0319169055600b90915281205550505b60408051338152602081018490526000818301529051600080516020620056308339815191529181900360600190a15b505050505050565b6006546001600160a01b031681565b336000908152600c60205260409020546001600160a01b0382811691161480620012d25750336000908152600c60205260409020546001600160a01b0316155b620012dc57600080fd5b60095460408051636012b43160e01b81523360048201526001600160a01b03848116602483015291516000939290921691636012b4319160448082019260209290919082900301818787803b1580156200133557600080fd5b505af11580156200134a573d6000803e3d6000fd5b505050506040513d60208110156200136157600080fd5b5051600754604080516305eff7ef60e21b815233600482015290519293506000926001600160a01b03909216916317bfdfbc9160248082019260209290919082900301818787803b158015620013b657600080fd5b505af1158015620013cb573d6000803e3d6000fd5b505050506040513d6020811015620013e257600080fd5b5051600854604080516305eff7ef60e21b815233600482015290519293506000926001600160a01b03909216916317bfdfbc9160248082019260209290919082900301818787803b1580156200143757600080fd5b505af11580156200144c573d6000803e3d6000fd5b505050506040513d60208110156200146357600080fd5b5051905060006200148d6200147f838863ffffffff6200209316565b849063ffffffff6200209316565b600a546006546040805163fc57d4df60e01b81526001600160a01b0392831660048201529051939450600093919092169163fc57d4df916024808301926020929190829003018186803b158015620014e457600080fd5b505afa158015620014f9573d6000803e3d6000fd5b505050506040513d60208110156200151057600080fd5b50519050600062001528828463ffffffff62001fea16565b905060006200153f82600263ffffffff6200204f16565b9050600062001555838363ffffffff6200209316565b9050808810156200156557600080fd5b60006200157a8b600263ffffffff6200204f16565b6009546040805163ee82616160e01b81523360048201526001600160a01b038e8116602483015260448201879052915193945091169163ee8261619160648082019260009290919082900301818387803b158015620015d857600080fd5b505af1158015620015ed573d6000803e3d6000fd5b5050336000908152600b602052604090205462001614925090508363ffffffff6200209316565b336000818152600b6020908152604080832094909455600c905282812080546001600160a01b0319166001600160a01b038f8116919091179091556007548451630967fa2960e31b81526004810187905260248101949094529351931692634b3fd14892604480820193929182900301818387803b1580156200169657600080fd5b505af1158015620016ab573d6000803e3d6000fd5b505060085460408051630967fa2960e31b81526004810186905233602482015290516001600160a01b039092169350634b3fd148925060448082019260009290919082900301818387803b1580156200170357600080fd5b505af115801562001718573d6000803e3d6000fd5b5050604080513381526020810185905280820185905290517fe1979fe4c35e0cef342fef5668e2c8e7a7e9f5d5d1ca8fee0ac6c427fa4153af9350908190036060019150a15050505050505050505050565b6006546001600160a01b031690565b6200178362002132565b6000546001600160a01b03908116911614620017d5576040805162461bcd60e51b8152602060048201819052602482015260008051602062005610833981519152604482015290519081900360640190fd5b600355565b60095460408051630dc9cacd60e01b81526001600160a01b03848116600483015291516000939290921691630dc9cacd91602480820192602092909190829003018186803b1580156200182c57600080fd5b505afa15801562001841573d6000803e3d6000fd5b505050506040513d60208110156200185857600080fd5b505192915050565b6200186a62002132565b6000546001600160a01b03908116911614620018bc576040805162461bcd60e51b8152602060048201819052602482015260008051602062005610833981519152604482015290519081900360640190fd5b600255565b620018cb62002132565b6000546001600160a01b039081169116146200191d576040805162461bcd60e51b8152602060048201819052602482015260008051602062005610833981519152604482015290519081900360640190fd5b600080546040516001600160a01b03909116907f8be0079c531659141344cd1fd0a4f28419497f9722a3daafe3b4186f6b6457e0908390a3600080546001600160a01b0319169055565b6000546001600160a01b031690565b6007546001600160a01b031681565b6008546001600160a01b031681565b6004805460408051602060026001851615610100026000190190941693909304601f81018490048402820184019092528181529291830182828015620006545780601f10620006285761010080835404028352916020019162000654565b600654600754604080516323b872dd60e01b81523360048201526001600160a01b03928316602482015260448101859052905191909216916323b872dd9160648083019260209291908290030181600087803b15801562001a5257600080fd5b505af115801562001a67573d6000803e3d6000fd5b505050506040513d602081101562001a7e57600080fd5b5050600754604080516340c10f1960e01b81523360048201526024810184905290516001600160a01b03909216916340c10f199160448082019260009290919082900301818387803b15801562001ad457600080fd5b505af115801562001ae9573d6000803e3d6000fd5b5050604080513381526020810185905281517f0f82438f3b5c78264c4b6dce428942fd963308db5c690635d87bc654cb811d339450908190039091019150a150565b6009546001600160a01b031681565b6009546001600160a01b0316331462001b5257600080fd5b8160028190555060606040516020018080634148522d60e01b815250600401905060405160208183030381529060405290508060046040516020018083805190602001908083835b6020831062001bbb5780518252601f19909201916020918201910162001b9a565b6001836020036101000a0380198251168184511680821785525050505050509050018280546001816001161561010002031660029004801562001c385780601f1062001c1557610100808354040283529182019162001c38565b820191906000526020600020905b81548152906001019060200180831162001c23575b505092505050604051602081830303815290604052905060606040516020018080634148522d60e01b815250600401905060405160208183030381529060405290508060056040516020018083805190602001908083835b6020831062001cb15780518252601f19909201916020918201910162001c90565b6001836020036101000a0380198251168184511680821785525050505050509050018280546001816001161561010002031660029004801562001d2e5780601f1062001d0b57610100808354040283529182019162001d2e565b820191906000526020600020905b81548152906001019060200180831162001d19575b505060408051601f1981840301815290829052600654600a546009549297508896508795508b94506001600160a01b03918216939082169290911690869086906000908c9062001d7e906200223a565b6001600160a01b03808a1682528881166020808401919091528882166040840152908716606083015283151560c083015260e08201839052610100608083018181528751918401919091528651909160a084019161012085019189019080838360005b8381101562001dfb57818101518382015260200162001de1565b50505050905090810190601f16801562001e295780820380516001836020036101000a031916815260200191505b50838103825286518152865160209182019188019080838360005b8381101562001e5e57818101518382015260200162001e44565b50505050905090810190601f16801562001e8c5780820380516001836020036101000a031916815260200191505b509a5050505050505050505050604051809103906000f08015801562001eb6573d6000803e3d6000fd5b50600780546001600160a01b0319166001600160a01b039290921691909117905550505050505050565b60025481565b62001ef062002132565b6000546001600160a01b0390811691161462001f42576040805162461bcd60e51b8152602060048201819052602482015260008051602062005610833981519152604482015290519081900360640190fd5b6001600160a01b03811662001f895760405162461bcd60e51b8152600401808060200182810382526026815260200180620055c96026913960400191505060405180910390fd5b600080546040516001600160a01b03808516939216917f8be0079c531659141344cd1fd0a4f28419497f9722a3daafe3b4186f6b6457e091a3600080546001600160a01b0319166001600160a01b0392909216919091179055565b60035481565b60008262001ffb5750600062000b71565b828202828482816200200957fe5b0414620020485760405162461bcd60e51b8152600401808060200182810382526021815260200180620055ef6021913960400191505060405180910390fd5b9392505050565b60006200204883836040518060400160405280601a81526020017f536166654d6174683a206469766973696f6e206279207a65726f00000000000081525062002136565b60008282018381101562002048576040805162461bcd60e51b815260206004820152601b60248201527f536166654d6174683a206164646974696f6e206f766572666c6f770000000000604482015290519081900360640190fd5b60006200204883836040518060400160405280601e81526020017f536166654d6174683a207375627472616374696f6e206f766572666c6f770000815250620021dd565b3390565b60008183620021c65760405162461bcd60e51b81526004018080602001828103825283818151815260200191508051906020019080838360005b838110156200218a57818101518382015260200162002170565b50505050905090810190601f168015620021b85780820380516001836020036101000a031916815260200191505b509250505060405180910390fd5b506000838581620021d357fe5b0495945050505050565b60008184841115620022325760405162461bcd60e51b81526020600482018181528351602484015283519092839260449091019190850190808383600083156200218a57818101518382015260200162002170565b505050900390565b61338080620022498339019056fe608060405266038d7ea4c68000600d553480156200001c57600080fd5b50604051620033803803806200338083398181016040526101008110156200004357600080fd5b81516020830151604080850151606086015160808701805193519597949692959194919392820192846401000000008211156200007f57600080fd5b9083019060208201858111156200009557600080fd5b8251640100000000811182820188101715620000b057600080fd5b82525081516020918201929091019080838360005b83811015620000df578181015183820152602001620000c5565b50505050905090810190601f1680156200010d5780820380516001836020036101000a031916815260200191505b50604052602001805160405193929190846401000000008211156200013157600080fd5b9083019060208201858111156200014757600080fd5b82516401000000008111828201881017156200016257600080fd5b82525081516020918201929091019080838360005b838110156200019157818101518382015260200162000177565b50505050905090810190601f168015620001bf5780820380516001836020036101000a031916815260200191505b5060409081526020820151910151909250905083836000620001e96001600160e01b036200038f16565b600080546001600160a01b0319166001600160a01b0383169081178255604051929350917f8be0079c531659141344cd1fd0a4f28419497f9722a3daafe3b4186f6b6457e0908290a35081516200024890600490602085019062000398565b5080516200025e90600590602084019062000398565b506012600660006101000a81548160ff021916908360ff160217905550505086600e60016101000a8154816001600160a01b0302191690836001600160a01b0316021790555033601060006101000a8154816001600160a01b0302191690836001600160a01b0316021790555087600f60006101000a8154816001600160a01b0302191690836001600160a01b0316021790555085601260006101000a8154816001600160a01b0302191690836001600160a01b0316021790555084601160006101000a8154816001600160a01b0302191690836001600160a01b0316021790555081600e60006101000a81548160ff02191690831515021790555080600781905550620003716200039460201b60201c565b6009555050670de0b6b3a7640000600a55506200043a945050505050565b335b90565b4390565b828054600181600116156101000203166002900490600052602060002090601f016020900481019282601f10620003db57805160ff19168380011785556200040b565b828001600101855582156200040b579182015b828111156200040b578251825591602001919060010190620003ee565b50620004199291506200041d565b5090565b6200039191905b8082111562000419576000815560010162000424565b612f36806200044a6000396000f3fe608060405234801561001057600080fd5b50600436106102c15760003560e01c806373acee981161017d578063ae9d70b0116100d9578063db006a7511610092578063db006a751461077d578063dd62ed3e1461079a578063e778bc21146107c8578063ee27a2f2146107ee578063f2fde38b146107f6578063f3fdb15a1461081c578063f8f9da2814610824576102c1565b8063ae9d70b014610711578063bd6d894d14610719578063c37f68e214610721578063c5d9bf7114610765578063cd5c6f571461076d578063d162054a14610775576102c1565b80639dc29fac116101365780639dc29fac1461066d5780639f560dd514610699578063a275370d146106a1578063a457c2d7146106a9578063a6afed95146106d5578063a9059cbb146106dd578063aa5af0fd14610709576102c1565b806373acee981461061f5780637746efab1461062757806377e4974d1461064d5780638da5cb5b146106555780638f840ddd1461065d57806395d89b4114610665576102c1565b80633af9e6691161022c5780634b3fd148116101e55780634b3fd148146105815780634c20ac74146105ad578063503d37ea146105b557806369a5e8cf146105bd5780636c540baf146105e957806370a08231146105f1578063715018a614610617576102c1565b80633af9e669146104f15780633b1d21a21461051757806340c10f191461051f57806341f411891461054b57806347bd3718146105715780634ada90af14610579576102c1565b806318160ddd1161027e57806318160ddd1461042557806323b872dd1461042d57806325e6918014610463578063313ce5671461049f57806338d52e0f146104bd57806339509351146104c5576102c1565b806306fdde03146102c6578063095ea7b31461034357806311e2c02f14610383578063127bc306146103a7578063173b9904146103e557806317bfdfbc146103ff575b600080fd5b6102ce61082c565b6040805160208082528351818301528351919283929083019185019080838360005b838110156103085781810151838201526020016102f0565b50505050905090810190601f1680156103355780820380516001836020036101000a031916815260200191505b509250505060405180910390f35b61036f6004803603604081101561035957600080fd5b506001600160a01b0381351690602001356108c3565b604080519115158252519081900360200190f35b61038b6108e1565b604080516001600160a01b039092168252519081900360200190f35b6103e3600480360360808110156103bd57600080fd5b508035906001600160a01b036020820135811691604081013590911690606001356108f0565b005b6103ed610ae0565b60408051918252519081900360200190f35b6103ed6004803603602081101561041557600080fd5b50356001600160a01b0316610ae6565b6103ed610aff565b61036f6004803603606081101561044357600080fd5b506001600160a01b03813581169160208101359091169060400135610b05565b6103e36004803603608081101561047957600080fd5b506001600160a01b03813581169160208101358216916040820135169060600135610b92565b6104a761124c565b6040805160ff9092168252519081900360200190f35b61038b611255565b61036f600480360360408110156104db57600080fd5b506001600160a01b038135169060200135611269565b6103ed6004803603602081101561050757600080fd5b50356001600160a01b03166112bd565b6103ed61131a565b6103e36004803603604081101561053557600080fd5b506001600160a01b038135169060200135611329565b6103e36004803603602081101561056157600080fd5b50356001600160a01b03166113f0565b6103ed611466565b6103ed61146c565b6103e36004803603604081101561059757600080fd5b50803590602001356001600160a01b0316611472565b61038b611613565b6103ed611627565b6103ed600480360360408110156105d357600080fd5b50803590602001356001600160a01b0316611644565b6103ed6117a3565b6103ed6004803603602081101561060757600080fd5b50356001600160a01b03166117a9565b6103e36117c4565b6103ed611878565b6103ed6004803603602081101561063d57600080fd5b50356001600160a01b0316611889565b61036f61192c565b61038b611935565b6103ed611944565b6102ce61194a565b6103e36004803603604081101561068357600080fd5b506001600160a01b0381351690602001356119ab565b6103ed611a14565b6103ed611a25565b61036f600480360360408110156106bf57600080fd5b506001600160a01b038135169060200135611a31565b6103e3611a9f565b61036f600480360360408110156106f357600080fd5b506001600160a01b038135169060200135611c7a565b6103ed611c8e565b6103ed611c94565b6103ed611d33565b6107476004803603602081101561073757600080fd5b50356001600160a01b0316611d9c565b60408051938452602084019290925282820152519081900360600190f35b61038b611dd2565b6103ed611de1565b61038b611deb565b6103e36004803603602081101561079357600080fd5b5035611dfa565b6103ed600480360360408110156107b057600080fd5b506001600160a01b0381358116916020013516611f54565b6103ed600480360360208110156107de57600080fd5b50356001600160a01b0316611f7f565b6103ed611f9c565b6103e36004803603602081101561080c57600080fd5b50356001600160a01b0316611fa6565b61038b6120b0565b6103ed6120bf565b60048054604080516020601f60026000196101006001881615020190951694909404938401819004810282018101909252828152606093909290918301828280156108b85780601f1061088d576101008083540402835291602001916108b8565b820191906000526020600020905b81548152906001019060200180831161089b57829003601f168201915b505050505090505b90565b60006108d76108d0612123565b8484612127565b5060015b92915050565b6012546001600160a01b031681565b60105460408051636761284360e01b815233600482015290516001600160a01b0390921691636761284391602480820192602092909190829003018186803b15801561093b57600080fd5b505afa15801561094f573d6000803e3d6000fd5b505050506040513d602081101561096557600080fd5b505161097057600080fd5b6000610987600d548661221390919063ffffffff16565b90506000610993612273565b905060006109c66109aa888563ffffffff6122c316565b6109ba848763ffffffff6122c316565b9063ffffffff6122c316565b600e546040805163a9059cbb60e01b81526001600160a01b038981166004830152602482018890529151939450610100909204169163a9059cbb916044808201926020929091908290030181600087803b158015610a2357600080fd5b505af1158015610a37573d6000803e3d6000fd5b505050506040513d6020811015610a4d57600080fd5b5050600e546040805163a9059cbb60e01b81526001600160a01b0389811660048301526024820185905291516101009093049091169163a9059cbb916044808201926020929091908290030181600087803b158015610aab57600080fd5b505af1158015610abf573d6000803e3d6000fd5b505050506040513d6020811015610ad557600080fd5b505050505050505050565b60085481565b6000610af0611a9f565b610af982611889565b50919050565b60035490565b6000610b12848484612305565b610b8884610b1e612123565b610b8385604051806060016040528060288152602001612e2a602891396001600160a01b038a16600090815260026020526040812090610b5c612123565b6001600160a01b03168152602081019190915260400160002054919063ffffffff61245c16565b612127565b5060019392505050565b6001600160a01b038416600090815260146020526040902054610bbd9061070863ffffffff6124f316565b421015610bc957600080fd5b610bd1612c5b565b826001600160a01b0316634c20ac746040518163ffffffff1660e01b815260040160206040518083038186803b158015610c0a57600080fd5b505afa158015610c1e573d6000803e3d6000fd5b505050506040513d6020811015610c3457600080fd5b50516001600160a01b03908116602083810191909152601254600e546040805163fc57d4df60e01b81526101009092048516600483015251600094929092169263fc57d4df92602480840193829003018186803b158015610c9457600080fd5b505afa158015610ca8573d6000803e3d6000fd5b505050506040513d6020811015610cbe57600080fd5b50516012546020848101516040805163fc57d4df60e01b81526001600160a01b0392831660048201529051949550600094919093169263fc57d4df926024808301939192829003018186803b158015610d1657600080fd5b505afa158015610d2a573d6000803e3d6000fd5b505050506040513d6020811015610d4057600080fd5b505190508115801590610d5257508015155b610d5b57600080fd5b610d6487610ae6565b60408401819052610d7b908363ffffffff61221316565b608084015260115460208085015160408051636012b43160e01b81526001600160a01b038c81166004830152928316602482015290519190931692636012b4319260448083019391928290030181600087803b158015610dda57600080fd5b505af1158015610dee573d6000803e3d6000fd5b505050506040513d6020811015610e0457600080fd5b505160c08401526080830151610e2190600263ffffffff61254d16565b60e084018190526080840151610e3c9163ffffffff6124f316565b60a0840181905260c0840151116111f357610e55611d33565b610100840152610e63612cc0565b610e6b612cc0565b610e73612cc0565b6000610e81600d548761258f565b8095508192505050610e988588610100015161258f565b93509050610ea684846125cb565b92509050610eb482896125e3565b88610120018181525081925050506000896001600160a01b0316633b1d21a26040518163ffffffff1660e01b815260040160206040518083038186803b158015610efd57600080fd5b505afa158015610f11573d6000803e3d6000fd5b505050506040513d6020811015610f2757600080fd5b81019080805190602001909291905050509050601260009054906101000a90046001600160a01b03166001600160a01b031663f0defe93600e60019054906101000a90046001600160a01b03168a602001518d8c61012001518d604001516040518663ffffffff1660e01b815260040180866001600160a01b03166001600160a01b03168152602001856001600160a01b03166001600160a01b03168152602001846001600160a01b03166001600160a01b0316815260200183815260200182815260200195505050505050600060405180830381600087803b15801561100d57600080fd5b505af1158015611021573d6000803e3d6000fd5b5050506040808a0151815163093de18360e11b815260048101919091526001600160a01b038f811660248301528e81166044830152606482018590529151918d16925063127bc30691608480830192600092919082900301818387803b15801561108a57600080fd5b505af115801561109e573d6000803e3d6000fd5b50505050601160009054906101000a90046001600160a01b03166001600160a01b0316636a8394ad8d8c8b61012001516040518463ffffffff1660e01b815260040180846001600160a01b03166001600160a01b03168152602001836001600160a01b03166001600160a01b031681526020018281526020019350505050600060405180830381600087803b15801561113657600080fd5b505af115801561114a573d6000803e3d6000fd5b505050507f5c23ea591f56ead8def3c6093151c00b81ae725fd9dc1df332ecbb05d7ffca138c338b308e60405180866001600160a01b03166001600160a01b03168152602001856001600160a01b03166001600160a01b03168152602001848152602001836001600160a01b03166001600160a01b03168152602001826001600160a01b03166001600160a01b031681526020019550505050505060405180910390a150505050505b6001600160a01b038716600081815260146020908152604080832092909255815192835290517f8b90ad01289e9e1ff6adb7d9daaab5be066e59551bf4750452652c245633921a9281900390910190a150505050505050565b60065460ff1690565b600e5461010090046001600160a01b031681565b60006108d7611276612123565b84610b838560026000611287612123565b6001600160a01b03908116825260208083019390935260409182016000908120918c16815292529020549063ffffffff6124f316565b60006112c7612cc0565b60405180602001604052806112da611d33565b905290506000806112f3836112ee876117a9565b6125e3565b9092509050600082600381111561130657fe5b1461131057600080fd5b925050505b919050565b6000611324612273565b905090565b6010546001600160a01b0316331461134057600080fd5b611348612cd3565b611350611d33565b602080830191825260408051918201905290518152611370908390612636565b604083018190528282600381111561138457fe5b600381111561138f57fe5b81525050506113a283826040015161264d565b60408082015181516001600160a01b0386168152602081019190915281517f30385c845b448a36257a6a1716e6ad2e1bc2cbe333cde1e69fe849ad6511adfe929181900390910190a1505050565b6001600160a01b0381166000908152601460205260409020541561141357600080fd5b6001600160a01b038116600081815260146020908152604091829020429055815192835290517f3b3501fe4aad385ff06e57c56ea31e3b02a720dba8cc5caf692583515db8412f9281900390910190a150565b600b5481565b600d5481565b6010546001600160a01b0316331461148957600080fd5b611491611a9f565b8161149a612273565b116114a457600080fd5b6114ac612cf5565b6114b582610ae6565b602082018190526114c69084612739565b60408301819052828260038111156114da57fe5b60038111156114e557fe5b81525050506114f6600b5484612739565b606083018190528282600381111561150a57fe5b600381111561151557fe5b905250506040808201516001600160a01b03808516600081815260136020908152858220948555600a546001909501949094556060860151600b55600e54855163a9059cbb60e01b815260048101939093526024830189905294516101009095049092169363a9059cbb9360448084019491938390030190829087803b15801561159e57600080fd5b505af11580156115b2573d6000803e3d6000fd5b505050506040513d60208110156115c857600080fd5b5050604080516001600160a01b03841681526020810185905281517fac59582e5396aca512fa873a2047e7f4c80f8f55d4a06cb34a78a0187f62719f929181900390910190a1505050565b600e5461010090046001600160a01b031690565b6000611324622433946116386120bf565b9063ffffffff61221316565b6010546000906001600160a01b0316331461165e57600080fd5b611666611a9f565b61166e612d1e565b6001600160a01b03831660009081526013602052604090819020600101549082015261169983610ae6565b6060820152836116b257606081015160208201526116ba565b602081018490525b6116cc8160600151826020015161275f565b60808301819052828260038111156116e057fe5b60038111156116eb57fe5b8152505050611700600b54826020015161275f565b60a083018190528282600381111561171457fe5b600381111561171f57fe5b9052505060808101516001600160a01b038416600081815260136020908152604091829020938455600a5460019094019390935560a0840151600b558284015181519283529282019290925281517f4792e4d6a0dabb47a2ac2b2fb3ab426c2e1a5e3cab374282d855ac6cb03a5712929181900390910190a1602001519392505050565b60095481565b6001600160a01b031660009081526001602052604090205490565b6117cc612123565b6000546001600160a01b0390811691161461182e576040805162461bcd60e51b815260206004820181905260248201527f4f776e61626c653a2063616c6c6572206973206e6f7420746865206f776e6572604482015290519081900360640190fd5b600080546040516001600160a01b03909116907f8be0079c531659141344cd1fd0a4f28419497f9722a3daafe3b4186f6b6457e0908390a3600080546001600160a01b0319169055565b6000611882611a9f565b50600b5490565b6001600160a01b03811660009081526013602052604081208054829182918291906118bb576000945050505050611315565b6118cb8160000154600a54612782565b909450925060008460038111156118de57fe5b146118f0576000945050505050611315565b6118fe8382600101546127c1565b9094509150600084600381111561191157fe5b14611923576000945050505050611315565b50949350505050565b600e5460ff1681565b6000546001600160a01b031690565b600c5481565b60058054604080516020601f60026000196101006001881615020190951694909404938401819004810282018101909252828152606093909290918301828280156108b85780601f1061088d576101008083540402835291602001916108b8565b6010546001600160a01b031633146119c257600080fd5b6119cc82826127ec565b604080516001600160a01b03841681526020810183905281517fcc16f5dbb4873280815c1ee09dbd06736cffcc184412cf7a71a0fdb75d397ca5929181900390910190a15050565b600061132462243394611638611c94565b670de0b6b3a764000081565b60006108d7611a3e612123565b84610b8385604051806060016040528060258152602001612edc6025913960026000611a68612123565b6001600160a01b03908116825260208083019390935260409182016000908120918d1681529252902054919063ffffffff61245c16565b6000611aa96128e2565b6009549091506000611ab9612273565b600b54600c54600a549293509091848614611c7257600f54604080516315f2405360e01b815260048101879052602481018690526044810185905290516000926001600160a01b0316916315f24053916064808301926020929190829003018186803b158015611b2857600080fd5b505afa158015611b3c573d6000803e3d6000fd5b505050506040513d6020811015611b5257600080fd5b5051905065048c27395000811115611b6957600080fd5b600080611b76898961275f565b91509150611b82612cc0565b600080600080611ba060405180602001604052808a815250876128e6565b9097509450611baf858c6125e3565b9097509350611bbe848c612739565b604080516020810190915260085481529198509350611bde90858c61294e565b9097509150611bee858a8061294e565b80925081985050508d60098190555080600a8190555082600b8190555081600c819055507fe3972ae250606e82c6683843383cb8a51755588d2f443af42e8cb5b1e085392d600954600a54600b54600c546040518085815260200184815260200183815260200182815260200194505050505060405180910390a150505050505050505b505050505050565b60006108d7611c87612123565b8484612305565b600a5481565b600f546000906001600160a01b031663b8168816611cb0612273565b600b54600c546008546040518563ffffffff1660e01b81526004018085815260200184815260200183815260200182815260200194505050505060206040518083038186803b158015611d0257600080fd5b505afa158015611d16573d6000803e3d6000fd5b505050506040513d6020811015611d2c57600080fd5b5051905090565b6000611d3d611a9f565b611d45610aff565b611d5257506007546108c0565b6000611d5c612273565b90506000611d68612cc0565b6000611d7984600b54600c546129aa565b93509050611d8e83611d89610aff565b6129e8565b5195506108c0945050505050565b600080600080611dab856117a9565b90506000611db886610ae6565b90506000611dc4611d33565b929791965091945092505050565b6010546001600160a01b031681565b6000611d45610aff565b6011546001600160a01b031681565b611e02611a9f565b80611e0c57600080fd5b611e14612cd3565b611e1c611d33565b6020820152611e2b33836127ec565b611e4760405180602001604052808360200151815250836125e3565b6040830181905282826003811115611e5b57fe5b6003811115611e6657fe5b905250506040810151611e77612273565b1015611e8257600080fd5b600e54604082810151815163a9059cbb60e01b8152336004820152602481019190915290516101009092046001600160a01b03169163a9059cbb916044808201926020929091908290030181600087803b158015611edf57600080fd5b505af1158015611ef3573d6000803e3d6000fd5b505050506040513d6020811015611f0957600080fd5b50506040808201518151338152602081018590528083019190915290517ff3a670cd3af7d64b488926880889d08a8585a138ff455227af6737339a1ec2629181900360600190a15050565b6001600160a01b03918216600090815260026020908152604080832093909416825291909152205490565b6000611f89612cc0565b60405180602001604052806112da611de1565b65048c2739500081565b611fae612123565b6000546001600160a01b03908116911614612010576040805162461bcd60e51b815260206004820181905260248201527f4f776e61626c653a2063616c6c6572206973206e6f7420746865206f776e6572604482015290519081900360640190fd5b6001600160a01b0381166120555760405162461bcd60e51b8152600401808060200182810382526026815260200180612d9b6026913960400191505060405180910390fd5b600080546040516001600160a01b03808516939216917f8be0079c531659141344cd1fd0a4f28419497f9722a3daafe3b4186f6b6457e091a3600080546001600160a01b0319166001600160a01b0392909216919091179055565b600f546001600160a01b031681565b600f546000906001600160a01b03166315f240536120db612273565b600b54600c546040518463ffffffff1660e01b815260040180848152602001838152602001828152602001935050505060206040518083038186803b158015611d0257600080fd5b3390565b6001600160a01b03831661216c5760405162461bcd60e51b8152600401808060200182810382526024815260200180612eb86024913960400191505060405180910390fd5b6001600160a01b0382166121b15760405162461bcd60e51b8152600401808060200182810382526022815260200180612dc16022913960400191505060405180910390fd5b6001600160a01b03808416600081815260026020908152604080832094871680845294825291829020859055815185815291517f8c5be1e5ebec7d5bd14f71427d1e84f3dd0314c0f7b2291e5b200ac8c7c3b9259281900390910190a3505050565b600082612222575060006108db565b8282028284828161222f57fe5b041461226c5760405162461bcd60e51b8152600401808060200182810382526021815260200180612e096021913960400191505060405180910390fd5b9392505050565b600e54604080516370a0823160e01b8152306004820152905160009261010090046001600160a01b0316916370a08231916024808301926020929190829003018186803b158015611d0257600080fd5b600061226c83836040518060400160405280601e81526020017f536166654d6174683a207375627472616374696f6e206f766572666c6f77000081525061245c565b6001600160a01b03831661234a5760405162461bcd60e51b8152600401808060200182810382526025815260200180612e936025913960400191505060405180910390fd5b6001600160a01b03821661238f5760405162461bcd60e51b8152600401808060200182810382526023815260200180612d566023913960400191505060405180910390fd5b61239a838383612a99565b6123dd81604051806060016040528060268152602001612de3602691396001600160a01b038616600090815260016020526040902054919063ffffffff61245c16565b6001600160a01b038085166000908152600160205260408082209390935590841681522054612412908263ffffffff6124f316565b6001600160a01b038084166000818152600160209081526040918290209490945580518581529051919392871692600080516020612e5283398151915292918290030190a3505050565b600081848411156124eb5760405162461bcd60e51b81526004018080602001828103825283818151815260200191508051906020019080838360005b838110156124b0578181015183820152602001612498565b50505050905090810190601f1680156124dd5780820380516001836020036101000a031916815260200191505b509250505060405180910390fd5b505050900390565b60008282018381101561226c576040805162461bcd60e51b815260206004820152601b60248201527f536166654d6174683a206164646974696f6e206f766572666c6f770000000000604482015290519081900360640190fd5b600061226c83836040518060400160405280601a81526020017f536166654d6174683a206469766973696f6e206279207a65726f000000000000815250612a9e565b6000612599612cc0565b6125bf604051806020016040528086815250604051806020016040528086815250612b03565b915091505b9250929050565b60006125d5612cc0565b835183516125bf91906129e8565b60008060006125f0612cc0565b6125fa86866128e6565b9092509050600082600381111561260d57fe5b1461261e57509150600090506125c4565b600061262982612bed565b9350935050509250929050565b6000806000612643612cc0565b6125fa8686612bfc565b6001600160a01b0382166126a8576040805162461bcd60e51b815260206004820152601f60248201527f45524332303a206d696e7420746f20746865207a65726f206164647265737300604482015290519081900360640190fd5b6126b460008383612a99565b6003546126c7908263ffffffff6124f316565b6003556001600160a01b0382166000908152600160205260409020546126f3908263ffffffff6124f316565b6001600160a01b0383166000818152600160209081526040808320949094558351858152935192939192600080516020612e528339815191529281900390910190a35050565b600080838301848110612751576000925090506125c4565b5060029150600090506125c4565b6000808383116127765750600090508183036125c4565b506003905060006125c4565b60008083612795575060009050806125c4565b838302838582816127a257fe5b04146127b6575060029150600090506125c4565b6000925090506125c4565b600080826127d557506001905060006125c4565b60008385816127e057fe5b04915091509250929050565b6001600160a01b0382166128315760405162461bcd60e51b8152600401808060200182810382526021815260200180612e726021913960400191505060405180910390fd5b61283d82600083612a99565b61288081604051806060016040528060228152602001612d79602291396001600160a01b038516600090815260016020526040902054919063ffffffff61245c16565b6001600160a01b0383166000908152600160205260409020556003546128ac908263ffffffff6122c316565b6003556040805182815290516000916001600160a01b03851691600080516020612e528339815191529181900360200190a35050565b4390565b60006128f0612cc0565b600080612901866000015186612782565b9092509050600082600381111561291457fe5b14612933575060408051602081019091526000815290925090506125c4565b60408051602081019091529081526000969095509350505050565b600080600061295b612cc0565b61296587876128e6565b9092509050600082600381111561297857fe5b1461298957509150600090506129a2565b61299b61299582612bed565b86612739565b9350935050505b935093915050565b6000806000806129ba8787612739565b909250905060008260038111156129cd57fe5b146129de57509150600090506129a2565b61299b818661275f565b60006129f2612cc0565b600080612a0786670de0b6b3a7640000612782565b90925090506000826003811115612a1a57fe5b14612a39575060408051602081019091526000815290925090506125c4565b600080612a4683886127c1565b90925090506000826003811115612a5957fe5b14612a7c57816040518060200160405280600081525095509550505050506125c4565b604080516020810190915290815260009890975095505050505050565b505050565b60008183612aed5760405162461bcd60e51b81526020600482018181528351602484015283519092839260449091019190850190808383600083156124b0578181015183820152602001612498565b506000838581612af957fe5b0495945050505050565b6000612b0d612cc0565b600080612b2286600001518660000151612782565b90925090506000826003811115612b3557fe5b14612b54575060408051602081019091526000815290925090506125c4565b600080612b696706f05b59d3b2000084612739565b90925090506000826003811115612b7c57fe5b14612b9f57816040518060200160405280600081525095509550505050506125c4565b600080612bb483670de0b6b3a76400006127c1565b90925090506000826003811115612bc757fe5b14612bce57fe5b604080516020810190915290815260009a909950975050505050505050565b51670de0b6b3a7640000900490565b6000612c06612cc0565b600080612c1b670de0b6b3a764000087612782565b90925090506000826003811115612c2e57fe5b14612c4d575060408051602081019091526000815290925090506125c4565b6126298186600001516129e8565b60405180610140016040528060006001600160a01b0316815260200160006001600160a01b0316815260200160008152602001600081526020016000815260200160008152602001600081526020016000815260200160008152602001600081525090565b6040518060200160405280600081525090565b6040805160608101909152806000815260200160008152602001600081525090565b604080516080810190915280600081526020016000815260200160008152602001600081525090565b6040805160c0810190915280600081526020016000815260200160008152602001600081526020016000815260200160008152509056fe45524332303a207472616e7366657220746f20746865207a65726f206164647265737345524332303a206275726e20616d6f756e7420657863656564732062616c616e63654f776e61626c653a206e6577206f776e657220697320746865207a65726f206164647265737345524332303a20617070726f766520746f20746865207a65726f206164647265737345524332303a207472616e7366657220616d6f756e7420657863656564732062616c616e6365536166654d6174683a206d756c7469706c69636174696f6e206f766572666c6f7745524332303a207472616e7366657220616d6f756e74206578636565647320616c6c6f77616e6365ddf252ad1be2c89b69c2b068fc378daa952ba7f163c4a11628f55a4df523b3ef45524332303a206275726e2066726f6d20746865207a65726f206164647265737345524332303a207472616e736665722066726f6d20746865207a65726f206164647265737345524332303a20617070726f76652066726f6d20746865207a65726f206164647265737345524332303a2064656372656173656420616c6c6f77616e63652062656c6f77207a65726fa2646970667358221220e77b9ddc3ba4e2e027c630f136b21e7ff0c2979d37253cf0dd64cf7d8a782aac64736f6c634300060600334f776e61626c653a206e6577206f776e657220697320746865207a65726f2061646472657373536166654d6174683a206d756c7469706c69636174696f6e206f766572666c6f774f776e61626c653a2063616c6c6572206973206e6f7420746865206f776e65722a6c148cdc9347a81dfbfe504afb64ea0aeca1114171ef18a3e11cb1fda8b3a6a264697066735822122049220f0aa33a0957704d189dfa6930b9686fd76a3c9885e1069f5cbfbb8248d664736f6c63430006060033",
  "immutableReferences": {},
  "source": "pragma solidity ^0.6.0;\n\nimport \"@openzeppelin/contracts/access/Ownable.sol\";\nimport \"@openzeppelin/contracts/math/SafeMath.sol\";\nimport \"@openzeppelin/contracts/token/ERC20/IERC20.sol\";\nimport \"./compound/Exponential.sol\";\nimport \"./interfaces/UniswapOracleFactoryI.sol\";\nimport \"./interfaces/MoneyMarketFactoryI.sol\";\nimport \"./AskoRiskToken.sol\";\n\n////////////////////////////////////////////////////////////////////////////////////////////\n/// @title MoneyMarketInstance\n/// @author Christopher Dixon\n////////////////////////////////////////////////////////////////////////////////////////////\n/**\nThe MoneyMarketInstance contract is designed facilitate a tiered money market for an individual ERC20 asset\nThis contract uses the OpenZeppelin contract Library to inherit functions from\n  Ownable.sol && IRC20.sol\n**/\ncontract MoneyMarketInstance is Ownable, Exponential {\n    using SafeMath for uint256;\n\n    uint256 public divisor;\n    uint256 public fee_AHR;\n    uint256 public fee_ALR;\n\n    string public assetName;\n    string public assetSymbol;\n\n    IERC20 public asset;\n    AskoRiskToken public AHR;\n    AskoRiskToken public ALR;\n    MoneyMarketFactoryI public MMF;\n    UniswapOracleFactoryI public UOF;\n\n    mapping(address => uint256) lockedCollateral;\n    mapping(address => address) collateralLockedALR;\n    /**\n@notice onlyMMFactory is a modifier used to make a function only callable by the Money Market Factory contract\n**/\n    modifier onlyMMFactory() {\n        require(msg.sender == address(MMF));\n        _;\n    }\n\n    event LentToAHR(address lender, uint256 amount);\n    event LentToALR(address lender, uint256 amount);\n    event Borrow(address borrower, uint256 AHRamount, uint256 ALRamount);\n    event Repayed(address borrower, uint256 AHRamount, uint256 ALRamount);\n    event Collateralized(address collateralizer, uint256 amount);\n\n    /**\n@notice the constructor function is fired during the contract deployment process. The constructor can only be fired once and\n        is used to initialize the MoneyMakerInstance and deploy its associated AHR && ALR token contracts\n@param _assetContractAdd is the address of the ERC20 asset being whitelisted\n@param _assetName is the name of the asset(e.x: ChainLink)\n@param _assetSymbol is the symbol of the asset(e.x: LINK)\n@dev this function uses ABI encoding to properly concatenate AHR- && ALR- in front of the tokens name and symbol\n      before creating each token.\n**/\n    constructor(\n        address _assetContractAdd,\n        address _oracleFactory,\n        address _owner,\n        string memory _assetName,\n        string memory _assetSymbol\n    ) public {\n        divisor = 10000;\n        assetName = _assetName;\n        assetSymbol = _assetSymbol;\n        UOF = UniswapOracleFactoryI(_oracleFactory);\n        MMF = MoneyMarketFactoryI(_owner);\n        asset = IERC20(_assetContractAdd);\n    }\n\n    /**\n@notice setUp is called by the MoneyMarketFactory after a contract is created to set up the initial variables.\n        This is split from the constructor function to keep from reaching the gas block limit\n@param  _InterestRateModel is the address of this MoneyMarketInstances InterestRateModel\n@param _fee is a number representing the fee for exchanging an AHR token, as a mantissa (scaled by 1e18)\n@dev this function will create a token whos name and symbol is concatenated with a \"AHR-\" in front of it\n      example: AHR-LINK\n@dev asset.approve() is called to allow the AHR contract to freeely transfer the assset from this contract when the mint\n      lendToAHRpool function is called.\n**/\n    function _setUpAHR(\n        address _InterestRateModel,\n        uint256 _fee,\n        uint256 _initialExchangeRate\n    ) public onlyMMFactory {\n        fee_AHR = _fee;\n        bytes memory ahrname = abi.encodePacked(\"AHR-\");\n        ahrname = abi.encodePacked(ahrname, assetName);\n        //abi encode and concat strings\n        bytes memory ahrsymbol = abi.encodePacked(\"AHR-\");\n        ahrsymbol = abi.encodePacked(ahrsymbol, assetSymbol);\n        //abi encode and concat strings\n        string memory assetNameAHR = string(ahrname);\n        string memory assetSymbolAHR = string(ahrsymbol);\n        //un-encode concated string\n        AHR = new AskoRiskToken( //creates new Asko High Risk Token Contract\n            _InterestRateModel,\n            address(asset),\n            address(UOF),\n            address(MMF),\n            assetNameAHR,\n            assetSymbolAHR,\n            false,\n            _initialExchangeRate\n        );\n    }\n\n    /**\n@notice setUp is called by the MoneyMarketFactory after a contract is created to set up the initial variables.\n        This is split from the constructor function to keep from reaching the gas block limit\n@param  _InterestRateModel is the address of this MoneyMarketInstances InterestRateModel\n@param _fee is a number representing the fee for exchanging an ALR token, as a mantissa (scaled by 1e18)\n@dev this function will create a token whos name and symbol is concatenated with a \"ALR-\" in front of it\n      example: ALR-LINK\n@dev asset.approve() is called to allow the ALR contract to freeely transfer the assset from this contract when the mint\n      lendToALRpool function is called.\n**/\n    function _setUpALR(\n        address _InterestRateModel,\n        uint256 _fee,\n        uint256 _initialExchangeRate\n    ) public onlyMMFactory {\n        fee_ALR = _fee;\n        bytes memory alrname = abi.encodePacked(\"AlR-\");\n        alrname = abi.encodePacked(alrname, assetName);\n        //abi encode and concat strings\n        bytes memory alrsymbol = abi.encodePacked(\"AlR-\");\n        alrsymbol = abi.encodePacked(alrsymbol, assetSymbol);\n        //abi encode and concat strings\n        string memory assetNameALR = string(alrname);\n        string memory assetSymbolALR = string(alrsymbol);\n        //un-encode concated string\n        ALR = new AskoRiskToken( //creates new Asko Low Risk Token Contract\n            _InterestRateModel,\n            address(asset),\n            address(UOF),\n            address(MMF),\n            assetNameALR,\n            assetSymbolALR,\n            true,\n            _initialExchangeRate\n        );\n    }\n\n    /**\n@notice getAssetAdd allows for easy retrieval of a Money Markets underlying asset's address\n**/\n    function getAssetAdd() public view returns (address) {\n        return address(asset);\n    }\n\n    /**\n  @notice setFee allows the owner of this contract to set the fee\n  @param  _fee is the input number representing the fee\n  @dev the divisor is set to 10,000 in the constructor for this contract. this allows for\n        a fee percentage accounting for two decimal places. feePercent must account for this when being set.\n        The following examples show feePercent amounts and how they equate to percentages:\n                EX:\n                    a 1% fee would be set as feePercent = 100\n                    a .5% fee would be set as feePercent = 50\n                    a 50% fee would be set as feePercent = 5000\n  **/\n    function setFeeAHR(uint256 _fee) public onlyOwner {\n        fee_AHR = _fee;\n    }\n\n    /**\n  @notice setFee allows the owner of this contract to set the fee\n  @param  _fee is the input number representing the fee\n  @dev the divisor is set to 10,000 in the constructor for this contract. this allows for\n        a fee percentage accounting for two decimal places. feePercent must account for this when being set.\n        The following examples show feePercent amounts and how they equate to percentages:\n                EX:\n                    a 1% fee would be set as feePercent = 100\n                    a .5% fee would be set as feePercent = 50\n                    a 50% fee would be set as feePercent = 5000\n  **/\n    function setFeeALR(uint256 _fee) public onlyOwner {\n        fee_ALR = _fee;\n    }\n\n    /**\n  @notice calculateFee is used to calculate the fee earned\n  @param _payedAmount is a uint representing the full amount of an ERC20 asset payed\n  @dev the divisor is set to 10,000 in the constructor for this contract. this allows for\n        a fee percentage accounting for two decimal places. feePercent must account for this when being set.\n        The following examples show feePercent amounts and how they equate to percentages:\n                EX:\n                    a 1% fee would be set as feePercent = 100\n                    a .5% fee would be set as feePercent = 50\n                    a 50% fee would be set as feePercent = 5000\n  **/\n    function calculateFee(uint256 _payedAmount, uint256 _feePercent)\n        public\n        view\n        returns (uint256)\n    {\n        uint256 fee = _payedAmount.mul(_feePercent).div(divisor);\n        return fee;\n    }\n\n    /**\n@notice lendToAHRpool is used to lend assets to a MoneyMarketInstance's High Risk pool\n@param _amount is the amount of the asset being lent\n@dev the user will need to first approve the transfer of the underlying asset\n**/\n    function lendToAHRpool(uint256 _amount) public {\n        //transfer appropriate amount off the asset from msg.sender to the AHR contract\n        asset.transferFrom(msg.sender, address(AHR), _amount);\n        //call mint function on AHR contract\n        AHR.mint(msg.sender, _amount);\n        emit LentToAHR(msg.sender, _amount);\n    }\n\n    /**\n@notice lendToAHRpool is used to lend assets to a MoneyMarketInstance's Low Risk pool\n@param _amount is the amount of the asset being lent\n@dev the user will need to first approve the transfer of the underlying asset\n**/\n    function lendToALRpool(uint256 _amount) public {\n        //transfer appropriate amount off the asset from msg.sender to the AHR contract\n        asset.transferFrom(msg.sender, address(ALR), _amount);\n        //call mint function on ALR contract\n        ALR.mint(msg.sender, _amount);\n        emit LentToALR(msg.sender, _amount);\n    }\n\n    /**\n@notice borrow is used to take out a loan from in MoneyMarketInstance's underlying asset\n@param _amount is the amount of asset being barrowed\n@param _collateral is the address of the ALR token being used as collateral\n**/\n    function borrow(uint256 _amount, address _collateral) public {\n        require(\n            _collateral == collateralLockedALR[msg.sender] ||\n                collateralLockedALR[msg.sender] == address(0)\n        );\n        //check that the user has enough collateral in input moeny market\n        uint256 collateralValue = MMF.checkAvailibleCollateralValue(\n            msg.sender,\n            _collateral\n        );\n        //get current borrow balances for each ART\n        uint256 borrowBalAHR = AHR.borrowBalanceCurrent(msg.sender);\n        uint256 borrowBalALR = ALR.borrowBalanceCurrent(msg.sender);\n        //calculate the new amount that would be owed if borrow suceeds\n        uint256 totalFutureAmountOwed = borrowBalAHR.add(\n            borrowBalALR.add(_amount)\n        );\n        //check current asset price\n        uint256 priceOfAsset = UOF.getUnderlyingPrice(address(asset));\n        //get the usd price value of _amount\n        uint256 assetAmountValOwed = priceOfAsset.mul(totalFutureAmountOwed);\n        //divide amount value by 3\n        uint256 halfVal = assetAmountValOwed.div(2);\n        //add 1/2 value to asset value to get 150% asset value\n        uint256 collateralNeeded = assetAmountValOwed.add(halfVal);\n        //require collateral value to be greater than 150% of the amount value of loan\n        require(collateralValue >= collateralNeeded);\n        //cut amount of tokens in half\n        uint256 half = _amount.div(2);\n        //lock the collateral needed for this loan so it cant be \"double spent\"\n        MMF.lockCollateral(msg.sender, _collateral, collateralNeeded);\n        //track locked amount\n        lockedCollateral[msg.sender] = lockedCollateral[msg.sender].add(\n            collateralNeeded\n        );\n        //track which ALR is locked\n        collateralLockedALR[msg.sender] = _collateral;\n        //borrow half from each pool\n        AHR.borrow(half, msg.sender);\n        ALR.borrow(half, msg.sender);\n        emit Borrow(msg.sender, half, half);\n    }\n\n    /**\n@notice repay is used to repay a loan\n@param _repayAmount is the amount of the underlying asset being repayed\n**/\n    function repay(uint256 _repayAmount) public {\n        //get their current owed balance of ALR\n        uint256 accountBorrowsALR = ALR.borrowBalanceCurrent(msg.sender);\n        uint256 accountBorrowsAHR = AHR.borrowBalanceCurrent(msg.sender);\n        uint256 totalBorrows = accountBorrowsALR.add(accountBorrowsAHR);\n        require(_repayAmount <= totalBorrows);\n        uint256 payAmountAHR;\n        uint256 payAmountALR;\n        if (accountBorrowsALR != 0) {\n            //if amount owed to ALR isnt zero\n            if (accountBorrowsALR >= _repayAmount) {\n                //check if repay amount is greater than ALR borrow balance\n                payAmountALR = ALR.repayBorrow(_repayAmount, msg.sender); //if it is repay amount to ALR\n                //transfer asset from the user to this contract\n                asset.transferFrom(msg.sender, address(ALR), payAmountALR);\n                emit Repayed(msg.sender, 0, _repayAmount);\n            } else {\n                //if not\n                uint256 amountToALR = _repayAmount.sub(accountBorrowsALR); //calculate amount needed to pay off ALR\n                payAmountALR = ALR.repayBorrow(amountToALR, msg.sender); //pay off ALR\n                //transfer asset from the user to this contract\n                asset.transferFrom(msg.sender, address(ALR), payAmountALR);\n                uint256 amountToAHR = _repayAmount.sub(amountToALR); //calculate AHR amount\n                payAmountAHR = AHR.repayBorrow(amountToAHR, msg.sender); //pay off towards AHR\n                //transfer asset from the user to this contract\n                asset.transferFrom(msg.sender, address(AHR), payAmountAHR);\n                emit Repayed(msg.sender, payAmountAHR, payAmountALR);\n            }\n        } else {\n            //if amount owed to ALR IS zero\n            payAmountAHR = AHR.repayBorrow(_repayAmount, msg.sender); //pay towards AHR\n            //transfer asset from the user to this contract\n            asset.transferFrom(msg.sender, address(AHR), payAmountAHR);\n\n            if (accountBorrowsAHR == 0) {\n                //if the loan is fully payed off\n                //unlock the users locked collateral for this loan\n                MMF.unlockCollateral(\n                    msg.sender,\n                    collateralLockedALR[msg.sender],\n                    lockedCollateral[msg.sender]\n                );\n                //reset collateralLockedALR address to zero so the user can use a different ALR address in future borrows\n                collateralLockedALR[msg.sender] = address(0);\n                //reset locked collateral amount\n                lockedCollateral[msg.sender] = 0;\n            }\n            emit Repayed(msg.sender, payAmountAHR, 0);\n        }\n    }\n\n    /**\n@notice collateralizeALR allows a user to collateralize the ALR they hold in a specific money market\n@param _amount is the amount of ALR being collateralized\n**/\n    function collateralizeALR(uint256 _amount) public {\n        ALR.burn(msg.sender, _amount);\n        MMF.trackCollateralUp(msg.sender, address(ALR), _amount);\n        emit Collateralized(msg.sender, _amount);\n    }\n\n    /**\n@notice allowa an ALR to check if the address calling it is anothe ALR\n**/\n\n    function checkIfALR(address _inQuestion) public view returns (bool) {\n        return MMF._checkIfALR(_inQuestion);\n    }\n}\n",
  "sourcePath": "/home/stan36/repos/Askolend/AskoLend-contracts/contracts/MoneyMarketInstance.sol",
  "compiler": {
    "name": "solc",
    "version": "0.6.6+commit.6c089d02.Emscripten.clang"
  },
  "schemaVersion": "3.2.4",
  "updatedAt": "2020-11-08T23:11:37.281Z",
  "devdoc": {
    "methods": {
      "_setUpAHR(address,uint256,uint256)": {
        "details": "this function will create a token whos name and symbol is concatenated with a \"AHR-\" in front of it example: AHR-LINKasset.approve() is called to allow the AHR contract to freeely transfer the assset from this contract when the mint lendToAHRpool function is called.*",
        "params": {
          "_InterestRateModel": "is the address of this MoneyMarketInstances InterestRateModel",
          "_fee": "is a number representing the fee for exchanging an AHR token, as a mantissa (scaled by 1e18)"
        }
      },
      "_setUpALR(address,uint256,uint256)": {
        "details": "this function will create a token whos name and symbol is concatenated with a \"ALR-\" in front of it example: ALR-LINKasset.approve() is called to allow the ALR contract to freeely transfer the assset from this contract when the mint lendToALRpool function is called.*",
        "params": {
          "_InterestRateModel": "is the address of this MoneyMarketInstances InterestRateModel",
          "_fee": "is a number representing the fee for exchanging an ALR token, as a mantissa (scaled by 1e18)"
        }
      },
      "borrow(uint256,address)": {
        "params": {
          "_amount": "is the amount of asset being barrowed",
          "_collateral": "is the address of the ALR token being used as collateral*"
        }
      },
      "calculateFee(uint256,uint256)": {
        "details": "the divisor is set to 10,000 in the constructor for this contract. this allows for a fee percentage accounting for two decimal places. feePercent must account for this when being set. The following examples show feePercent amounts and how they equate to percentages: EX: a 1% fee would be set as feePercent = 100 a .5% fee would be set as feePercent = 50 a 50% fee would be set as feePercent = 5000*",
        "params": {
          "_payedAmount": "is a uint representing the full amount of an ERC20 asset payed"
        }
      },
      "collateralizeALR(uint256)": {
        "params": {
          "_amount": "is the amount of ALR being collateralized*"
        }
      },
      "constructor": {
        "details": "this function uses ABI encoding to properly concatenate AHR- && ALR- in front of the tokens name and symbol before creating each token.*",
        "params": {
          "_assetContractAdd": "is the address of the ERC20 asset being whitelisted",
          "_assetName": "is the name of the asset(e.x: ChainLink)",
          "_assetSymbol": "is the symbol of the asset(e.x: LINK)"
        }
      },
      "lendToAHRpool(uint256)": {
        "details": "the user will need to first approve the transfer of the underlying asset*",
        "params": {
          "_amount": "is the amount of the asset being lent"
        }
      },
      "lendToALRpool(uint256)": {
        "details": "the user will need to first approve the transfer of the underlying asset*",
        "params": {
          "_amount": "is the amount of the asset being lent"
        }
      },
      "owner()": {
        "details": "Returns the address of the current owner."
      },
      "renounceOwnership()": {
        "details": "Leaves the contract without owner. It will not be possible to call `onlyOwner` functions anymore. Can only be called by the current owner.     * NOTE: Renouncing ownership will leave the contract without an owner, thereby removing any functionality that is only available to the owner."
      },
      "repay(uint256)": {
        "params": {
          "_repayAmount": "is the amount of the underlying asset being repayed*"
        }
      },
      "setFeeAHR(uint256)": {
        "details": "the divisor is set to 10,000 in the constructor for this contract. this allows for a fee percentage accounting for two decimal places. feePercent must account for this when being set. The following examples show feePercent amounts and how they equate to percentages: EX: a 1% fee would be set as feePercent = 100 a .5% fee would be set as feePercent = 50 a 50% fee would be set as feePercent = 5000*",
        "params": {
          "_fee": "is the input number representing the fee"
        }
      },
      "setFeeALR(uint256)": {
        "details": "the divisor is set to 10,000 in the constructor for this contract. this allows for a fee percentage accounting for two decimal places. feePercent must account for this when being set. The following examples show feePercent amounts and how they equate to percentages: EX: a 1% fee would be set as feePercent = 100 a .5% fee would be set as feePercent = 50 a 50% fee would be set as feePercent = 5000*",
        "params": {
          "_fee": "is the input number representing the fee"
        }
      },
      "transferOwnership(address)": {
        "details": "Transfers ownership of the contract to a new account (`newOwner`). Can only be called by the current owner."
      }
    }
  },
  "userdoc": {
    "methods": {
      "_setUpAHR(address,uint256,uint256)": {
        "notice": "setUp is called by the MoneyMarketFactory after a contract is created to set up the initial variables. This is split from the constructor function to keep from reaching the gas block limit"
      },
      "_setUpALR(address,uint256,uint256)": {
        "notice": "setUp is called by the MoneyMarketFactory after a contract is created to set up the initial variables. This is split from the constructor function to keep from reaching the gas block limit"
      },
      "borrow(uint256,address)": {
        "notice": "borrow is used to take out a loan from in MoneyMarketInstance's underlying asset"
      },
      "calculateFee(uint256,uint256)": {
        "notice": "calculateFee is used to calculate the fee earned"
      },
      "checkIfALR(address)": {
        "notice": "allowa an ALR to check if the address calling it is anothe ALR*"
      },
      "collateralizeALR(uint256)": {
        "notice": "collateralizeALR allows a user to collateralize the ALR they hold in a specific money market"
      },
      "constructor": "the constructor function is fired during the contract deployment process. The constructor can only be fired once and is used to initialize the MoneyMakerInstance and deploy its associated AHR && ALR token contracts",
      "getAssetAdd()": {
        "notice": "getAssetAdd allows for easy retrieval of a Money Markets underlying asset's address*"
      },
      "lendToAHRpool(uint256)": {
        "notice": "lendToAHRpool is used to lend assets to a MoneyMarketInstance's High Risk pool"
      },
      "lendToALRpool(uint256)": {
        "notice": "lendToAHRpool is used to lend assets to a MoneyMarketInstance's Low Risk pool"
      },
      "repay(uint256)": {
        "notice": "repay is used to repay a loan"
      },
      "setFeeAHR(uint256)": {
        "notice": "setFee allows the owner of this contract to set the fee"
      },
      "setFeeALR(uint256)": {
        "notice": "setFee allows the owner of this contract to set the fee"
      }
    },
    "notice": "The MoneyMarketInstance contract is designed facilitate a tiered money market for an individual ERC20 asset This contract uses the OpenZeppelin contract Library to inherit functions from Ownable.sol && IRC20.sol*"
  }
}