{
  "contractName": "MoneyMarketFactory",
  "abi": [
    {
      "anonymous": false,
      "inputs": [
        {
          "indexed": true,
          "internalType": "address",
          "name": "previousOwner",
          "type": "address"
        },
        {
          "indexed": true,
          "internalType": "address",
          "name": "newOwner",
          "type": "address"
        }
      ],
      "name": "OwnershipTransferred",
      "type": "event"
    },
    {
      "inputs": [],
      "name": "owner",
      "outputs": [
        {
          "internalType": "address",
          "name": "",
          "type": "address"
        }
      ],
      "stateMutability": "view",
      "type": "function",
      "constant": true
    },
    {
      "inputs": [],
      "name": "renounceOwnership",
      "outputs": [],
      "stateMutability": "nonpayable",
      "type": "function"
    },
    {
      "inputs": [
        {
          "internalType": "address",
          "name": "newOwner",
          "type": "address"
        }
      ],
      "name": "transferOwnership",
      "outputs": [],
      "stateMutability": "nonpayable",
      "type": "function"
    },
    {
      "inputs": [
        {
          "internalType": "address",
          "name": "_assetContractAdd",
          "type": "address"
        },
        {
          "internalType": "address",
          "name": "_oracleFactory",
          "type": "address"
        },
        {
          "internalType": "address",
          "name": "_owner",
          "type": "address"
        },
        {
          "internalType": "address",
          "name": "_ARTF",
          "type": "address"
        },
        {
          "internalType": "uint256",
          "name": "_collatRatio",
          "type": "uint256"
        },
        {
          "internalType": "string",
          "name": "_assetName",
          "type": "string"
        },
        {
          "internalType": "string",
          "name": "_assetSymbol",
          "type": "string"
        }
      ],
      "name": "createMMI",
      "outputs": [
        {
          "internalType": "address",
          "name": "",
          "type": "address"
        }
      ],
      "stateMutability": "nonpayable",
      "type": "function"
    }
  ],
  "bytecode": "0x608060405260006100176001600160e01b0361006616565b600080546001600160a01b0319166001600160a01b0383169081178255604051929350917f8be0079c531659141344cd1fd0a4f28419497f9722a3daafe3b4186f6b6457e0908290a35061006a565b3390565b613dcb806100796000396000f3fe608060405234801561001057600080fd5b506004361061004c5760003560e01c8063715018a6146100515780638da5cb5b1461005b578063d0175d711461007f578063f2fde38b146101d5575b600080fd5b6100596101fb565b005b6100636102af565b604080516001600160a01b039092168252519081900360200190f35b610063600480360360e081101561009557600080fd5b6001600160a01b038235811692602081013582169260408201358316926060830135169160808101359181019060c0810160a0820135600160201b8111156100dc57600080fd5b8201836020820111156100ee57600080fd5b803590602001918460018302840111600160201b8311171561010f57600080fd5b91908080601f0160208091040260200160405190810160405280939291908181526020018383808284376000920191909152509295949360208101935035915050600160201b81111561016157600080fd5b82018360208201111561017357600080fd5b803590602001918460018302840111600160201b8311171561019457600080fd5b91908080601f0160208091040260200160405190810160405280939291908181526020018383808284376000920191909152509295506102be945050505050565b610059600480360360208110156101eb57600080fd5b50356001600160a01b0316610409565b610203610513565b6000546001600160a01b03908116911614610265576040805162461bcd60e51b815260206004820181905260248201527f4f776e61626c653a2063616c6c6572206973206e6f7420746865206f776e6572604482015290519081900360640190fd5b600080546040516001600160a01b03909116907f8be0079c531659141344cd1fd0a4f28419497f9722a3daafe3b4186f6b6457e0908390a3600080546001600160a01b0319169055565b6000546001600160a01b031690565b600080888888888888886040516102d490610517565b6001600160a01b038089168252878116602080840191909152878216604084015290861660608301526080820185905260e060a083018181528551918401919091528451909160c084019161010085019187019080838360005b8381101561034657818101518382015260200161032e565b50505050905090810190601f1680156103735780820380516001836020036101000a031916815260200191505b50838103825284518152845160209182019186019080838360005b838110156103a657818101518382015260200161038e565b50505050905090810190601f1680156103d35780820380516001836020036101000a031916815260200191505b509950505050505050505050604051809103906000f0801580156103fb573d6000803e3d6000fd5b509998505050505050505050565b610411610513565b6000546001600160a01b03908116911614610473576040805162461bcd60e51b815260206004820181905260248201527f4f776e61626c653a2063616c6c6572206973206e6f7420746865206f776e6572604482015290519081900360640190fd5b6001600160a01b0381166104b85760405162461bcd60e51b8152600401808060200182810382526026815260200180613d706026913960400191505060405180910390fd5b600080546040516001600160a01b03808516939216917f8be0079c531659141344cd1fd0a4f28419497f9722a3daafe3b4186f6b6457e091a3600080546001600160a01b0319166001600160a01b0392909216919091179055565b3390565b61384b806105258339019056fe60806040523480156200001157600080fd5b506040516200384b3803806200384b833981810160405260e08110156200003757600080fd5b815160208301516040808501516060860151608087015160a0880180519451969895979396929591949293820192846401000000008211156200007957600080fd5b9083019060208201858111156200008f57600080fd5b8251640100000000811182820188101715620000aa57600080fd5b82525081516020918201929091019080838360005b83811015620000d9578181015183820152602001620000bf565b50505050905090810190601f168015620001075780820380516001836020036101000a031916815260200191505b50604052602001805160405193929190846401000000008211156200012b57600080fd5b9083019060208201858111156200014157600080fd5b82516401000000008111828201881017156200015c57600080fd5b82525081516020918201929091019080838360005b838110156200018b57818101518382015260200162000171565b50505050905090810190601f168015620001b95780820380516001836020036101000a031916815260200191505b506040525050506000620001d2620002ad60201b60201c565b600080546001600160a01b0319166001600160a01b0383169081178255604051929350917f8be0079c531659141344cd1fd0a4f28419497f9722a3daafe3b4186f6b6457e0908290a3506001805561271060025581516200023b906006906020850190620002b2565b50805162000251906007906020840190620002b2565b505050600355600c80546001600160a01b03199081166001600160a01b0395861617909155600b805482169385169390931790925560088054831694841694909417909355600d80549091169290911691909117905562000354565b335b90565b828054600181600116156101000203166002900490600052602060002090601f016020900481019282601f10620002f557805160ff191683800117855562000325565b8280016001018555821562000325579182015b828111156200032557825182559160200191906001019062000308565b506200033392915062000337565b5090565b620002af91905b808211156200033357600081556001016200033e565b6134e780620003646000396000f3fe608060405234801561001057600080fd5b50600436106101d15760003560e01c80636ccdd9f711610105578063a1039b7e1161009d578063a1039b7e146104e8578063ac9790281461050e578063b451bb2e1461053c578063c27d4df314610562578063c9230c5d1461056a578063cf0aea8514610572578063d162054a1461058f578063d6b9b5d914610597578063f2fde38b146105b4576101d1565b80636ccdd9f7146103f85780637144329714610424578063715018a61461044a578063819c7f0c1461045257806381a351ba1461046f5780638cbe6645146104955780638da5cb5b146104bb5780638e235b11146104c35780639241cef2146104e0576101d1565b8063371fd8e611610178578063371fd8e61461030357806338d52e0f146103205780633f60825b14610328578063460bb650146103305780634b3fd148146103385780634c20ac74146103645780636155a20b1461036c578063632d19ca1461039857806367612843146103be576101d1565b8063045de1f8146101d65780630a3ed432146101fa57806311e2c02f14610222578063176de7a81461022a5780631d7bd46e146102a75780631dda0780146102c45780631f2dc5ef146102cc57806322b2d402146102e6575b600080fd5b6101de6105da565b604080516001600160a01b039092168252519081900360200190f35b6102206004803603602081101561021057600080fd5b50356001600160a01b03166105e9565b005b6101de61069b565b6102326106aa565b6040805160208082528351818301528351919283929083019185019080838360005b8381101561026c578181015183820152602001610254565b50505050905090810190601f1680156102995780820380516001836020036101000a031916815260200191505b509250505060405180910390f35b610220600480360360208110156102bd57600080fd5b5035610738565b6101de6107ce565b6102d46107dd565b60408051918252519081900360200190f35b610220600480360360208110156102fc57600080fd5b50356107e3565b6102206004803603602081101561031957600080fd5b5035610900565b6101de61111e565b6102d461112d565b6101de611133565b6102206004803603604081101561034e57600080fd5b50803590602001356001600160a01b0316611142565b6101de611754565b6102206004803603604081101561038257600080fd5b506001600160a01b038135169060200135611763565b610220600480360360208110156103ae57600080fd5b50356001600160a01b0316611bd7565b6103e4600480360360208110156103d457600080fd5b50356001600160a01b0316611ce3565b604080519115158252519081900360200190f35b6102206004803603604081101561040e57600080fd5b506001600160a01b038135169060200135611d66565b6102206004803603602081101561043a57600080fd5b50356001600160a01b03166121da565b610220612254565b6102206004803603602081101561046857600080fd5b50356122f6565b6102206004803603602081101561048557600080fd5b50356001600160a01b031661237a565b6101de600480360360208110156104ab57600080fd5b50356001600160a01b03166123e5565b6101de612400565b610220600480360360208110156104d957600080fd5b503561240f565b6101de61246c565b6103e4600480360360208110156104fe57600080fd5b50356001600160a01b031661247b565b6102206004803603604081101561052457600080fd5b506001600160a01b0381358116916020013516612490565b6102206004803603602081101561055257600080fd5b50356001600160a01b0316612a75565b6101de612b0c565b610232612b1b565b6102206004803603602081101561058857600080fd5b5035612b76565b6101de612c93565b610220600480360360208110156105ad57600080fd5b5035612ca2565b610220600480360360208110156105ca57600080fd5b50356001600160a01b0316612d38565b6005546001600160a01b031681565b600b546001600160a01b031633146106325760405162461bcd60e51b81526004018080602001828103825260338152602001806134156033913960400191505060405180910390fd5b600a5460408051630eab343560e21b81526001600160a01b03848116600483015291519190921691633aacd0d491602480830192600092919082900301818387803b15801561068057600080fd5b505af1158015610694573d6000803e3d6000fd5b5050505050565b600c546001600160a01b031681565b6007805460408051602060026001851615610100026000190190941693909304601f810184900484028201840190925281815292918301828280156107305780601f1061070557610100808354040283529160200191610730565b820191906000526020600020905b81548152906001019060200180831161071357829003601f168201915b505050505081565b600b546001600160a01b031633146107815760405162461bcd60e51b81526004018080602001828103825260338152602001806134156033913960400191505060405180910390fd5b600a54604080516322d3cecb60e21b81526004810184905290516001600160a01b0390921691638b4f3b2c9160248082019260009290919082900301818387803b15801561068057600080fd5b600d546001600160a01b031681565b60025481565b60026001541415610829576040805162461bcd60e51b815260206004820152601f60248201526000805160206133a9833981519152604482015290519081900360640190fd5b6002600155600a54600854610853916001600160a01b03918216913391168463ffffffff612e3016565b600a54604080516340c10f1960e01b81523360048201526024810184905290516001600160a01b03909216916340c10f199160448082019260009290919082900301818387803b1580156108a657600080fd5b505af11580156108ba573d6000803e3d6000fd5b5050604080513381526020810185905281517f7328ca2a2e824164ca6ec3121966d63601356d01901d9a5d2ee466cb726d1e3c9450908190039091019150a15060018055565b60026001541415610946576040805162461bcd60e51b815260206004820152601f60248201526000805160206133a9833981519152604482015290519081900360640190fd5b6002600155600a54604080516305eff7ef60e21b815233600482015290516000926001600160a01b0316916317bfdfbc91602480830192602092919082900301818787803b15801561099757600080fd5b505af11580156109ab573d6000803e3d6000fd5b505050506040513d60208110156109c157600080fd5b5051600954604080516305eff7ef60e21b815233600482015290519293506000926001600160a01b03909216916317bfdfbc9160248082019260209290919082900301818787803b158015610a1557600080fd5b505af1158015610a29573d6000803e3d6000fd5b505050506040513d6020811015610a3f57600080fd5b505190506000610a55838363ffffffff612e9016565b905080841115610aa0576040805162461bcd60e51b81526020600482015260116024820152700a4cae0c2f2d2dcce40e8dede40daeac6d607b1b604482015290519081900360640190fd5b60008085610c32578415610b5657600a54600854610ad3916001600160a01b03918216913391168863ffffffff612e3016565b600a54604080516369a5e8cf60e01b81526004810188905233602482015290516001600160a01b03909216916369a5e8cf916044808201926020929091908290030181600087803b158015610b2757600080fd5b505af1158015610b3b573d6000803e3d6000fd5b505050506040513d6020811015610b5157600080fd5b505190505b600954600854610b7b916001600160a01b03918216913391168763ffffffff612e3016565b600954604080516369a5e8cf60e01b81526004810187905233602482015290516001600160a01b03909216916369a5e8cf916044808201926020929091908290030181600087803b158015610bcf57600080fd5b505af1158015610be3573d6000803e3d6000fd5b505050506040513d6020811015610bf957600080fd5b505160408051338152602081018790528082018890529051919350600080516020613492833981519152919081900360600190a1610f91565b8415610eb957858510610d1b57600a54600854610c64916001600160a01b03918216913391168963ffffffff612e3016565b600a54604080516369a5e8cf60e01b81526004810189905233602482015290516001600160a01b03909216916369a5e8cf916044808201926020929091908290030181600087803b158015610cb857600080fd5b505af1158015610ccc573d6000803e3d6000fd5b505050506040513d6020811015610ce257600080fd5b505160408051338152600060208201528082018990529051919250600080516020613492833981519152919081900360600190a1610eb4565b6000610d2d878763ffffffff612ef116565b600a54600854919250610d55916001600160a01b03908116913391168963ffffffff612e3016565b600a54604080516369a5e8cf60e01b815260006004820181905233602483015291516001600160a01b03909316926369a5e8cf92604480840193602093929083900390910190829087803b158015610dac57600080fd5b505af1158015610dc0573d6000803e3d6000fd5b505050506040513d6020811015610dd657600080fd5b5051600954600854919350610e00916001600160a01b03908116913391168463ffffffff612e3016565b600954604080516369a5e8cf60e01b81526004810184905233602482015290516001600160a01b03909216916369a5e8cf916044808201926020929091908290030181600087803b158015610e5457600080fd5b505af1158015610e68573d6000803e3d6000fd5b505050506040513d6020811015610e7e57600080fd5b505160408051338152602081018390528082018590529051919450600080516020613492833981519152919081900360600190a1505b610f91565b600954600854610ede916001600160a01b03918216913391168563ffffffff612e3016565b600954604080516369a5e8cf60e01b81526004810189905233602482015290516001600160a01b03909216916369a5e8cf916044808201926020929091908290030181600087803b158015610f3257600080fd5b505af1158015610f46573d6000803e3d6000fd5b505050506040513d6020811015610f5c57600080fd5b505160408051338152602081018390526000818301529051919350600080516020613492833981519152919081900360600190a15b600086610f9f575082610fa2565b50855b600c546008546040805163513396f760e11b81526001600160a01b039283166004820152602481018590529051600093929092169163a2672dee9160448082019260209290919082900301818787803b158015610ffe57600080fd5b505af1158015611012573d6000803e3d6000fd5b505050506040513d602081101561102857600080fd5b5051600b54336000818152600e6020526040808220548151636a8394ad60e01b815260048101949094526001600160a01b03908116602485015260448401869052905194955090921692636a8394ad9260648084019391929182900301818387803b15801561109657600080fd5b505af11580156110aa573d6000803e3d6000fd5b505050506110c18487612ef190919063ffffffff16565b1580156110db57506110d9878463ffffffff612ef116565b155b1561111057336000908152600e6020908152604080832080546001600160a01b0319169055600f9091529020805460ff191690555b505060018055505050505050565b6008546001600160a01b031681565b60035481565b6004546001600160a01b031681565b60026001541415611188576040805162461bcd60e51b815260206004820152601f60248201526000805160206133a9833981519152604482015290519081900360640190fd5b6002600155336000908152600e60205260409020546001600160a01b03828116911614806111c65750336000908152600f602052604090205460ff16155b61120e576040805162461bcd60e51b815260206004820152601460248201527318dbdb1b185d195c985b081b9bdd081c9a59da1d60621b604482015290519081900360640190fd5b61121661335c565b600954604080516305eff7ef60e21b815233600482015290516001600160a01b03909216916317bfdfbc916024808201926020929091908290030181600087803b15801561126357600080fd5b505af1158015611277573d6000803e3d6000fd5b505050506040513d602081101561128d57600080fd5b50518152600a54604080516305eff7ef60e21b815233600482015290516001600160a01b03909216916317bfdfbc916024808201926020929091908290030181600087803b1580156112de57600080fd5b505af11580156112f2573d6000803e3d6000fd5b505050506040513d602081101561130857600080fd5b50516020820181905261133390611325908563ffffffff612e9016565b82519063ffffffff612e9016565b6040808301829052600c54600854825163513396f760e11b81526001600160a01b0391821660048201526024810194909452915191169163a2672dee9160448083019260209291908290030181600087803b15801561139157600080fd5b505af11580156113a5573d6000803e3d6000fd5b505050506040513d60208110156113bb57600080fd5b50516080820152600c546008546040805163513396f760e11b81526001600160a01b039283166004820152602481018790529051919092169163a2672dee9160448083019260209291908290030181600087803b15801561141b57600080fd5b505af115801561142f573d6000803e3d6000fd5b505050506040513d602081101561144557600080fd5b505160a0820152600b5460408051636012b43160e01b81523360048201526001600160a01b03858116602483015291519190921691636012b4319160448083019260209291908290030181600087803b1580156114a157600080fd5b505af11580156114b5573d6000803e3d6000fd5b505050506040513d60208110156114cb57600080fd5b5051606082015260035460808201516114e99163ffffffff612f3316565b60c0820181905260808201516115049163ffffffff612e9016565b60e082018190526060820151101561155b576040805162461bcd60e51b81526020600482015260156024820152741b9bdd08195b9bdd59da0818dbdb1b185d195c985b605a1b604482015290519081900360640190fd5b600b5460a08201516040805163b3f643e760e01b81523360048201526001600160a01b03868116602483015260448201939093529051919092169163b3f643e791606480830192600092919082900301818387803b1580156115bc57600080fd5b505af11580156115d0573d6000803e3d6000fd5b505050506115e8600284612f3390919063ffffffff16565b6101008201908152336000818152600e6020908152604080832080546001600160a01b0319166001600160a01b0389811691909117909155600f909252808320805460ff1916600117905560095494518151630967fa2960e31b81526004810191909152602481019490945251931692634b3fd14892604480820193929182900301818387803b15801561167b57600080fd5b505af115801561168f573d6000803e3d6000fd5b5050600a5461010084015160408051630967fa2960e31b81526004810192909252336024830152516001600160a01b039092169350634b3fd148925060448082019260009290919082900301818387803b1580156116ec57600080fd5b505af1158015611700573d6000803e3d6000fd5b505050610100820151604080513381526020810183905280820192909252517fe1979fe4c35e0cef342fef5668e2c8e7a7e9f5d5d1ca8fee0ac6c427fa4153af92509081900360600190a150506001805550565b6008546001600160a01b031690565b600b546001600160a01b031633146117ac5760405162461bcd60e51b81526004018080602001828103825260338152602001806134156033913960400191505060405180910390fd5b60606040516020018080634148522d60e01b815250600401905060405160208183030381529060405290508060066040516020018083805190602001908083835b6020831061180c5780518252601f1990920191602091820191016117ed565b6001836020036101000a038019825116818451168082178552505050505050905001828054600181600116156101000203166002900480156118855780601f10611863576101008083540402835291820191611885565b820191906000526020600020905b815481529060010190602001808311611871575b505092505050604051602081830303815290604052905060606040516020018080634148522d60e01b815250600401905060405160208183030381529060405290508060076040516020018083805190602001908083835b602083106118fc5780518252601f1990920191602091820191016118dd565b6001836020036101000a038019825116818451168082178552505050505050905001828054600181600116156101000203166002900480156119755780601f10611953576101008083540402835291820191611975565b820191906000526020600020905b815481529060010190602001808311611961575b505092505050604051602081830303815290604052905060608290506060829050600d60009054906101000a90046001600160a01b03166001600160a01b0316634f84a10087600860009054906101000a90046001600160a01b0316600c60009054906101000a90046001600160a01b0316600b60009054906101000a90046001600160a01b0316878760008d6040518963ffffffff1660e01b815260040180896001600160a01b03166001600160a01b03168152602001886001600160a01b03166001600160a01b03168152602001876001600160a01b03166001600160a01b03168152602001866001600160a01b03166001600160a01b03168152602001806020018060200185151515158152602001848152602001838103835287818151815260200191508051906020019080838360005b83811015611ac2578181015183820152602001611aaa565b50505050905090810190601f168015611aef5780820380516001836020036101000a031916815260200191505b50838103825286518152865160209182019188019080838360005b83811015611b22578181015183820152602001611b0a565b50505050905090810190601f168015611b4f5780820380516001836020036101000a031916815260200191505b509a5050505050505050505050602060405180830381600087803b158015611b7657600080fd5b505af1158015611b8a573d6000803e3d6000fd5b505050506040513d6020811015611ba057600080fd5b5051600980546001600160a01b03199081166001600160a01b03938416179182905560048054929093169116179055505050505050565b611bdf612f75565b6000546001600160a01b03908116911614611c2f576040805162461bcd60e51b81526020600482018190526024820152600080516020613448833981519152604482015290519081900360640190fd5b600954604080516310152fc960e21b81526001600160a01b03848116600483015291519190921691634054bf2491602480830192600092919082900301818387803b158015611c7d57600080fd5b505af1158015611c91573d6000803e3d6000fd5b5050600a54604080516310152fc960e21b81526001600160a01b0386811660048301529151919092169350634054bf249250602480830192600092919082900301818387803b15801561068057600080fd5b600b5460408051630dc9cacd60e01b81526001600160a01b03848116600483015291516000939290921691630dc9cacd91602480820192602092909190829003018186803b158015611d3457600080fd5b505afa158015611d48573d6000803e3d6000fd5b505050506040513d6020811015611d5e57600080fd5b505192915050565b600b546001600160a01b03163314611daf5760405162461bcd60e51b81526004018080602001828103825260338152602001806134156033913960400191505060405180910390fd5b6060604051602001808063416c522d60e01b815250600401905060405160208183030381529060405290508060066040516020018083805190602001908083835b60208310611e0f5780518252601f199092019160209182019101611df0565b6001836020036101000a03801982511681845116808217855250505050505090500182805460018160011615610100020316600290048015611e885780601f10611e66576101008083540402835291820191611e88565b820191906000526020600020905b815481529060010190602001808311611e74575b50509250505060405160208183030381529060405290506060604051602001808063416c522d60e01b815250600401905060405160208183030381529060405290508060076040516020018083805190602001908083835b60208310611eff5780518252601f199092019160209182019101611ee0565b6001836020036101000a03801982511681845116808217855250505050505090500182805460018160011615610100020316600290048015611f785780601f10611f56576101008083540402835291820191611f78565b820191906000526020600020905b815481529060010190602001808311611f64575b505092505050604051602081830303815290604052905060608290506060829050600d60009054906101000a90046001600160a01b03166001600160a01b0316634f84a10087600860009054906101000a90046001600160a01b0316600c60009054906101000a90046001600160a01b0316600b60009054906101000a90046001600160a01b0316878760018d6040518963ffffffff1660e01b815260040180896001600160a01b03166001600160a01b03168152602001886001600160a01b03166001600160a01b03168152602001876001600160a01b03166001600160a01b03168152602001866001600160a01b03166001600160a01b03168152602001806020018060200185151515158152602001848152602001838103835287818151815260200191508051906020019080838360005b838110156120c55781810151838201526020016120ad565b50505050905090810190601f1680156120f25780820380516001836020036101000a031916815260200191505b50838103825286518152865160209182019188019080838360005b8381101561212557818101518382015260200161210d565b50505050905090810190601f1680156121525780820380516001836020036101000a031916815260200191505b509a5050505050505050505050602060405180830381600087803b15801561217957600080fd5b505af115801561218d573d6000803e3d6000fd5b505050506040513d60208110156121a357600080fd5b5051600a80546001600160a01b03199081166001600160a01b03938416179182905560058054929093169116179055505050505050565b6121e2612f75565b6000546001600160a01b03908116911614612232576040805162461bcd60e51b81526020600482018190526024820152600080516020613448833981519152604482015290519081900360640190fd5b600b80546001600160a01b0319166001600160a01b0392909216919091179055565b61225c612f75565b6000546001600160a01b039081169116146122ac576040805162461bcd60e51b81526020600482018190526024820152600080516020613448833981519152604482015290519081900360640190fd5b600080546040516001600160a01b03909116907f8be0079c531659141344cd1fd0a4f28419497f9722a3daafe3b4186f6b6457e0908390a3600080546001600160a01b0319169055565b600b546001600160a01b0316331461233f5760405162461bcd60e51b81526004018080602001828103825260338152602001806134156033913960400191505060405180910390fd5b60028190556040805182815290517f196705942f4c6fbf7fd7dba9534af3776a46c60ebbc95a100625bcd4a230d8469181900360200190a150565b600b546001600160a01b031633146123c35760405162461bcd60e51b81526004018080602001828103825260338152602001806134156033913960400191505060405180910390fd5b600c80546001600160a01b0319166001600160a01b0392909216919091179055565b600e602052600090815260409020546001600160a01b031681565b6000546001600160a01b031690565b612417612f75565b6000546001600160a01b03908116911614612467576040805162461bcd60e51b81526020600482018190526024820152600080516020613448833981519152604482015290519081900360640190fd5b600355565b6009546001600160a01b031681565b600f6020526000908152604090205460ff1681565b61249861335c565b336001600160a01b03841614156124f6576040805162461bcd60e51b815260206004820152601b60248201527f796f752063616e74206c697175696461746520796f757273656c660000000000604482015290519081900360640190fd5b600a54604080516305eff7ef60e21b81526001600160a01b038681166004830152915160009392909216916317bfdfbc9160248082019260209290919082900301818787803b15801561254857600080fd5b505af115801561255c573d6000803e3d6000fd5b505050506040513d602081101561257257600080fd5b5051600954604080516305eff7ef60e21b81526001600160a01b038881166004830152915193945060009391909216916317bfdfbc91602480830192602092919082900301818787803b1580156125c857600080fd5b505af11580156125dc573d6000803e3d6000fd5b505050506040513d60208110156125f257600080fd5b505190506000612608838363ffffffff612e9016565b600c546008546040805163513396f760e11b81526001600160a01b03928316600482015260248101859052905193945091169163a2672dee916044808201926020929091908290030181600087803b15801561266357600080fd5b505af1158015612677573d6000803e3d6000fd5b505050506040513d602081101561268d57600080fd5b50516060850152600b5460408051636012b43160e01b81526001600160a01b038981166004830152888116602483015291519190921691636012b4319160448083019260209291908290030181600087803b1580156126eb57600080fd5b505af11580156126ff573d6000803e3d6000fd5b505050506040513d602081101561271557600080fd5b505160a085015260035460608501516127339163ffffffff612f3316565b60c08501819052606085015161274e9163ffffffff612e9016565b6080850181905260a0850151106127a3576040805162461bcd60e51b81526020600482015260146024820152731058d8dbdd5b9d081a5cc818dbdb5c1b1a585b9d60621b604482015290519081900360640190fd5b600b5460a085015160085460408051632c86834f60e21b815260048101939093526001600160a01b038a81166024850152306044850152918216606484015288821660848401525192169163b21a0d3c9160a48082019260009290919082900301818387803b15801561281557600080fd5b505af1158015612829573d6000803e3d6000fd5b5050600854604080516370a0823160e01b81523060048201529051600094506128b793506002926001600160a01b0316916370a08231916024808301926020929190829003018186803b15801561287f57600080fd5b505afa158015612893573d6000803e3d6000fd5b505050506040513d60208110156128a957600080fd5b50519063ffffffff612f3316565b6009546008549192506128dd916001600160a01b0390811691168363ffffffff612f7916565b600a54600854612900916001600160a01b0391821691168363ffffffff612f7916565b600a54604080516369a5e8cf60e01b81526000600482018190526001600160a01b038b81166024840152925192909316926369a5e8cf926044808401936020939083900390910190829087803b15801561295957600080fd5b505af115801561296d573d6000803e3d6000fd5b505050506040513d602081101561298357600080fd5b505160e0860152600954604080516369a5e8cf60e01b81526000600482018190526001600160a01b038b81166024840152925192909316926369a5e8cf926044808401936020939083900390910190829087803b1580156129e357600080fd5b505af11580156129f7573d6000803e3d6000fd5b505050506040513d6020811015612a0d57600080fd5b5051610100860152606080860151604080516001600160a01b038b16815233602082015280820192909252309282019290925290517fbf8c93ffab42c7a8745e30d00eef080c6704962d26f0b42a0e9d9589b7417af19181900360800190a150505050505050565b600b546001600160a01b03163314612abe5760405162461bcd60e51b81526004018080602001828103825260338152602001806134156033913960400191505060405180910390fd5b60095460408051630eab343560e21b81526001600160a01b03848116600483015291519190921691633aacd0d491602480830192600092919082900301818387803b15801561068057600080fd5b600a546001600160a01b031681565b6006805460408051602060026001851615610100026000190190941693909304601f810184900484028201840190925281815292918301828280156107305780601f1061070557610100808354040283529160200191610730565b60026001541415612bbc576040805162461bcd60e51b815260206004820152601f60248201526000805160206133a9833981519152604482015290519081900360640190fd5b6002600155600954600854612be6916001600160a01b03918216913391168463ffffffff612e3016565b600954604080516340c10f1960e01b81523360048201526024810184905290516001600160a01b03909216916340c10f199160448082019260009290919082900301818387803b158015612c3957600080fd5b505af1158015612c4d573d6000803e3d6000fd5b5050604080513381526020810185905281517f0f82438f3b5c78264c4b6dce428942fd963308db5c690635d87bc654cb811d339450908190039091019150a15060018055565b600b546001600160a01b031681565b600b546001600160a01b03163314612ceb5760405162461bcd60e51b81526004018080602001828103825260338152602001806134156033913960400191505060405180910390fd5b600954604080516322d3cecb60e21b81526004810184905290516001600160a01b0390921691638b4f3b2c9160248082019260009290919082900301818387803b15801561068057600080fd5b612d40612f75565b6000546001600160a01b03908116911614612d90576040805162461bcd60e51b81526020600482018190526024820152600080516020613448833981519152604482015290519081900360640190fd5b6001600160a01b038116612dd55760405162461bcd60e51b81526004018080602001828103825260268152602001806133c96026913960400191505060405180910390fd5b600080546040516001600160a01b03808516939216917f8be0079c531659141344cd1fd0a4f28419497f9722a3daafe3b4186f6b6457e091a3600080546001600160a01b0319166001600160a01b0392909216919091179055565b604080516001600160a01b0380861660248301528416604482015260648082018490528251808303909101815260849091019091526020810180516001600160e01b03166323b872dd60e01b179052612e8a908590612fd0565b50505050565b600082820183811015612eea576040805162461bcd60e51b815260206004820152601b60248201527f536166654d6174683a206164646974696f6e206f766572666c6f770000000000604482015290519081900360640190fd5b9392505050565b6000612eea83836040518060400160405280601e81526020017f536166654d6174683a207375627472616374696f6e206f766572666c6f770000815250613081565b6000612eea83836040518060400160405280601a81526020017f536166654d6174683a206469766973696f6e206279207a65726f000000000000815250613118565b3390565b604080516001600160a01b038416602482015260448082018490528251808303909101815260649091019091526020810180516001600160e01b031663a9059cbb60e01b179052612fcb908490612fd0565b505050565b6060613025826040518060400160405280602081526020017f5361666545524332303a206c6f772d6c6576656c2063616c6c206661696c6564815250856001600160a01b031661317d9092919063ffffffff16565b805190915015612fcb5780806020019051602081101561304457600080fd5b5051612fcb5760405162461bcd60e51b815260040180806020018281038252602a815260200180613468602a913960400191505060405180910390fd5b600081848411156131105760405162461bcd60e51b81526004018080602001828103825283818151815260200191508051906020019080838360005b838110156130d55781810151838201526020016130bd565b50505050905090810190601f1680156131025780820380516001836020036101000a031916815260200191505b509250505060405180910390fd5b505050900390565b600081836131675760405162461bcd60e51b81526020600482018181528351602484015283519092839260449091019190850190808383600083156130d55781810151838201526020016130bd565b50600083858161317357fe5b0495945050505050565b606061318c8484600085613194565b949350505050565b6060824710156131d55760405162461bcd60e51b81526004018080602001828103825260268152602001806133ef6026913960400191505060405180910390fd5b6131de856132f0565b61322f576040805162461bcd60e51b815260206004820152601d60248201527f416464726573733a2063616c6c20746f206e6f6e2d636f6e7472616374000000604482015290519081900360640190fd5b60006060866001600160a01b031685876040518082805190602001908083835b6020831061326e5780518252601f19909201916020918201910161324f565b6001836020036101000a03801982511681845116808217855250505050505090500191505060006040518083038185875af1925050503d80600081146132d0576040519150601f19603f3d011682016040523d82523d6000602084013e6132d5565b606091505b50915091506132e58282866132f6565b979650505050505050565b3b151590565b60608315613305575081612eea565b8251156133155782518084602001fd5b60405162461bcd60e51b81526020600482018181528451602484015284518593919283926044019190850190808383600083156130d55781810151838201526020016130bd565b604051806101200160405280600081526020016000815260200160008152602001600081526020016000815260200160008152602001600081526020016000815260200160008152509056fe5265656e7472616e637947756172643a207265656e7472616e742063616c6c004f776e61626c653a206e6577206f776e657220697320746865207a65726f2061646472657373416464726573733a20696e73756666696369656e742062616c616e636520666f722063616c6c4d73672e73656e646572206973206e6f7420746865204d6f6e6579204d61726b657420436f6e74726f6c20636f6e74726163744f776e61626c653a2063616c6c6572206973206e6f7420746865206f776e65725361666545524332303a204552433230206f7065726174696f6e20646964206e6f7420737563636565642a6c148cdc9347a81dfbfe504afb64ea0aeca1114171ef18a3e11cb1fda8b3a6a2646970667358221220e32aef31f26c7a7d929f44cf7ccd76b5c16d153a192df4587a35a5bfde57c98d64736f6c634300060600334f776e61626c653a206e6577206f776e657220697320746865207a65726f2061646472657373a26469706673582212206def558c5416af41c662ea9bb00733bf3d8a9dc4f3277193bea2a748d32c2c4864736f6c63430006060033",
  "immutableReferences": {},
  "source": "pragma solidity 0.6.6;\n\nimport \"./MoneyMarketInstance.sol\";\nimport \"openzeppelin-solidity/contracts/access/Ownable.sol\";\n\n////////////////////////////////////////////////////////////////////////////////////////////\n/// @title MoneyMarketFactory\n/// @author Christopher Dixon\n////////////////////////////////////////////////////////////////////////////////////////////\n/**\nThe MoneyMarketFactory contract is designed to produce individual MoneyMarketInstance contracts\nThis contract uses the OpenZeppelin contract Library to inherit functions from\n  Ownable.sol\n**/\n\ncontract MoneyMarketFactory is Ownable {\n    /**\n@notice the createMMI function is used to initialize the MoneyMakerInstance and deploy its associated AHR && ALR token contracts\n@param _assetContractAdd is the address of the ERC20 asset being whitelisted\n@param _oracleFactory is the address of the  oracle factory\n@param _owner is the address of the MoneyMarketControl factory\n@param _ARTF is the address of the ART Token Factory\n@param _collatRatio is the number that will be used when calculating the collateralizastion ratio for a MMI\n@param _assetName is the name of the asset(e.x: ChainLink)\n@param _assetSymbol is the symbol of the asset(e.x: LINK)\n@dev this function uses ABI encoding to properly concatenate AHR- && ALR- in front of the tokens name and symbol\n      before creating each token.\n**/\n    function createMMI(\n        address _assetContractAdd,\n        address _oracleFactory,\n        address _owner,\n        address _ARTF,\n        uint256 _collatRatio,\n        string memory _assetName,\n        string memory _assetSymbol\n    ) public returns (address) {\n        address _MMinstance =\n            address(\n                new MoneyMarketInstance(\n                    _assetContractAdd,\n                    _oracleFactory,\n                    _owner,\n                    _ARTF,\n                    _collatRatio,\n                    _assetName,\n                    _assetSymbol\n                )\n            );\n\n        return _MMinstance;\n    }\n}\n",
  "sourcePath": "/home/stan36/repos/Askolend/AskoLend-contracts/contracts/MoneyMarketFactory.sol",
  "compiler": {
    "name": "solc",
    "version": "0.6.6+commit.6c089d02.Emscripten.clang"
  },
  "schemaVersion": "3.3.2",
  "updatedAt": "2021-02-10T22:55:43.107Z",
  "networkType": "ethereum",
  "devdoc": {
    "methods": {
      "createMMI(address,address,address,address,uint256,string,string)": {
        "details": "this function uses ABI encoding to properly concatenate AHR- && ALR- in front of the tokens name and symbol before creating each token.*",
        "params": {
          "_ARTF": "is the address of the ART Token Factory",
          "_assetContractAdd": "is the address of the ERC20 asset being whitelisted",
          "_assetName": "is the name of the asset(e.x: ChainLink)",
          "_assetSymbol": "is the symbol of the asset(e.x: LINK)",
          "_collatRatio": "is the number that will be used when calculating the collateralizastion ratio for a MMI",
          "_oracleFactory": "is the address of the  oracle factory",
          "_owner": "is the address of the MoneyMarketControl factory"
        }
      },
      "owner()": {
        "details": "Returns the address of the current owner."
      },
      "renounceOwnership()": {
        "details": "Leaves the contract without owner. It will not be possible to call `onlyOwner` functions anymore. Can only be called by the current owner.     * NOTE: Renouncing ownership will leave the contract without an owner, thereby removing any functionality that is only available to the owner."
      },
      "transferOwnership(address)": {
        "details": "Transfers ownership of the contract to a new account (`newOwner`). Can only be called by the current owner."
      }
    }
  },
  "userdoc": {
    "methods": {
      "createMMI(address,address,address,address,uint256,string,string)": {
        "notice": "the createMMI function is used to initialize the MoneyMakerInstance and deploy its associated AHR && ALR token contracts"
      }
    },
    "notice": "The MoneyMarketFactory contract is designed to produce individual MoneyMarketInstance contracts This contract uses the OpenZeppelin contract Library to inherit functions from Ownable.sol*"
  }
}