{
  "contractName": "MoneyMarketControl",
  "abi": [
    {
      "inputs": [
        {
          "internalType": "address",
          "name": "_oracle",
          "type": "address"
        },
        {
          "internalType": "address",
          "name": "_MMF",
          "type": "address"
        }
      ],
      "stateMutability": "nonpayable",
      "type": "constructor"
    },
    {
      "anonymous": false,
      "inputs": [
        {
          "indexed": true,
          "internalType": "address",
          "name": "previousOwner",
          "type": "address"
        },
        {
          "indexed": true,
          "internalType": "address",
          "name": "newOwner",
          "type": "address"
        }
      ],
      "name": "OwnershipTransferred",
      "type": "event"
    },
    {
      "inputs": [],
      "name": "MMF",
      "outputs": [
        {
          "internalType": "contract MoneyMarketFactoryI",
          "name": "",
          "type": "address"
        }
      ],
      "stateMutability": "view",
      "type": "function"
    },
    {
      "inputs": [],
      "name": "Oracle",
      "outputs": [
        {
          "internalType": "contract UniswapOracleFactoryI",
          "name": "",
          "type": "address"
        }
      ],
      "stateMutability": "view",
      "type": "function"
    },
    {
      "inputs": [
        {
          "internalType": "address",
          "name": "",
          "type": "address"
        }
      ],
      "name": "_ALRtracker",
      "outputs": [
        {
          "internalType": "address",
          "name": "",
          "type": "address"
        }
      ],
      "stateMutability": "view",
      "type": "function"
    },
    {
      "inputs": [],
      "name": "instanceCount",
      "outputs": [
        {
          "internalType": "uint256",
          "name": "",
          "type": "uint256"
        }
      ],
      "stateMutability": "view",
      "type": "function"
    },
    {
      "inputs": [
        {
          "internalType": "address",
          "name": "",
          "type": "address"
        }
      ],
      "name": "instanceTracker",
      "outputs": [
        {
          "internalType": "address",
          "name": "",
          "type": "address"
        }
      ],
      "stateMutability": "view",
      "type": "function"
    },
    {
      "inputs": [],
      "name": "liquidationIncentiveMantissa",
      "outputs": [
        {
          "internalType": "uint256",
          "name": "",
          "type": "uint256"
        }
      ],
      "stateMutability": "view",
      "type": "function"
    },
    {
      "inputs": [
        {
          "internalType": "address",
          "name": "",
          "type": "address"
        }
      ],
      "name": "oracleTracker",
      "outputs": [
        {
          "internalType": "address",
          "name": "",
          "type": "address"
        }
      ],
      "stateMutability": "view",
      "type": "function"
    },
    {
      "inputs": [],
      "name": "owner",
      "outputs": [
        {
          "internalType": "address",
          "name": "",
          "type": "address"
        }
      ],
      "stateMutability": "view",
      "type": "function"
    },
    {
      "inputs": [],
      "name": "renounceOwnership",
      "outputs": [],
      "stateMutability": "nonpayable",
      "type": "function"
    },
    {
      "inputs": [
        {
          "internalType": "address",
          "name": "newOwner",
          "type": "address"
        }
      ],
      "name": "transferOwnership",
      "outputs": [],
      "stateMutability": "nonpayable",
      "type": "function"
    },
    {
      "inputs": [
        {
          "internalType": "address",
          "name": "_assetContractAdd",
          "type": "address"
        },
        {
          "internalType": "string",
          "name": "_assetName",
          "type": "string"
        },
        {
          "internalType": "string",
          "name": "_assetSymbol",
          "type": "string"
        }
      ],
      "name": "whitelistAsset",
      "outputs": [],
      "stateMutability": "nonpayable",
      "type": "function"
    },
    {
      "inputs": [
        {
          "internalType": "uint256",
          "name": "_baseRatePerYear",
          "type": "uint256"
        },
        {
          "internalType": "uint256",
          "name": "_multiplierPerYear",
          "type": "uint256"
        },
        {
          "internalType": "uint256",
          "name": "_jumpMultiplierPerYear",
          "type": "uint256"
        },
        {
          "internalType": "uint256",
          "name": "_optimal",
          "type": "uint256"
        },
        {
          "internalType": "uint256",
          "name": "_fee",
          "type": "uint256"
        },
        {
          "internalType": "uint256",
          "name": "_initialExchangeRate",
          "type": "uint256"
        },
        {
          "internalType": "address",
          "name": "_assetContractAdd",
          "type": "address"
        }
      ],
      "name": "setUpAHR",
      "outputs": [],
      "stateMutability": "nonpayable",
      "type": "function"
    },
    {
      "inputs": [
        {
          "internalType": "uint256",
          "name": "_baseRatePerYear",
          "type": "uint256"
        },
        {
          "internalType": "uint256",
          "name": "_multiplierPerYear",
          "type": "uint256"
        },
        {
          "internalType": "uint256",
          "name": "_jumpMultiplierPerYear",
          "type": "uint256"
        },
        {
          "internalType": "uint256",
          "name": "_optimal",
          "type": "uint256"
        },
        {
          "internalType": "uint256",
          "name": "_fee",
          "type": "uint256"
        },
        {
          "internalType": "uint256",
          "name": "_initialExchangeRate",
          "type": "uint256"
        },
        {
          "internalType": "address",
          "name": "_assetContractAdd",
          "type": "address"
        }
      ],
      "name": "setUpALR",
      "outputs": [],
      "stateMutability": "nonpayable",
      "type": "function"
    },
    {
      "inputs": [
        {
          "internalType": "address",
          "name": "_borrower",
          "type": "address"
        },
        {
          "internalType": "address",
          "name": "_ALR",
          "type": "address"
        },
        {
          "internalType": "uint256",
          "name": "_amount",
          "type": "uint256"
        }
      ],
      "name": "trackCollateral",
      "outputs": [],
      "stateMutability": "nonpayable",
      "type": "function"
    },
    {
      "inputs": [
        {
          "internalType": "address",
          "name": "_borrower",
          "type": "address"
        },
        {
          "internalType": "address",
          "name": "_ALR",
          "type": "address"
        }
      ],
      "name": "checkCollateralValue",
      "outputs": [
        {
          "internalType": "uint256",
          "name": "",
          "type": "uint256"
        }
      ],
      "stateMutability": "view",
      "type": "function"
    },
    {
      "inputs": [
        {
          "internalType": "address",
          "name": "_borrower",
          "type": "address"
        },
        {
          "internalType": "address",
          "name": "_ART",
          "type": "address"
        }
      ],
      "name": "markAccountNonCompliant",
      "outputs": [],
      "stateMutability": "nonpayable",
      "type": "function"
    },
    {
      "inputs": [
        {
          "internalType": "address",
          "name": "borrower",
          "type": "address"
        },
        {
          "internalType": "uint256",
          "name": "repayAmount",
          "type": "uint256"
        },
        {
          "internalType": "contract AskoRiskToken",
          "name": "_ARTowed",
          "type": "address"
        },
        {
          "internalType": "contract AskoRiskToken",
          "name": "_ARTcollateralized",
          "type": "address"
        }
      ],
      "name": "liquidateAccount",
      "outputs": [],
      "stateMutability": "nonpayable",
      "type": "function"
    }
  ],
  "bytecode": "0x60806040526714d1120d7b16000060025534801561001c57600080fd5b5060405161258f38038061258f8339818101604052604081101561003f57600080fd5b508051602090910151600061005b6001600160e01b036100d616565b600080546001600160a01b0319166001600160a01b0383169081178255604051929350917f8be0079c531659141344cd1fd0a4f28419497f9722a3daafe3b4186f6b6457e0908290a350600380546001600160a01b039384166001600160a01b031991821617909155600480549290931691161790556100da565b3390565b6124a6806100e96000396000f3fe60806040523480156200001157600080fd5b5060043610620001005760003560e01c80637ab2d447116200009f5780637ab2d44714620003865780638da5cb5b14620003d35780639020084914620003dd578063bbae21e9146200042a578063d162054a146200045b578063eb8341b31462000465578063ec56c716146200048e578063f24a534e1462000498578063f2fde38b14620004a25762000100565b80630ba7345d14620001055780630f9368e61462000249578063152eadbb14620002885780633373a44714620002c15780633ca0037b14620003065780634750e719146200032f5780634ada90af1462000372578063715018a6146200037c575b600080fd5b62000247600480360360608110156200011d57600080fd5b6001600160a01b038235169190810190604081016020820135600160201b8111156200014857600080fd5b8201836020820111156200015b57600080fd5b803590602001918460018302840111600160201b831117156200017d57600080fd5b91908080601f0160208091040260200160405190810160405280939291908181526020018383808284376000920191909152509295949360208101935035915050600160201b811115620001d057600080fd5b820183602082011115620001e357600080fd5b803590602001918460018302840111600160201b831117156200020557600080fd5b91908080601f016020809104026020016040519081016040528093929190818152602001838380828437600092019190915250929550620004cb945050505050565b005b62000247600480360360808110156200026157600080fd5b506001600160a01b038135811691602081013591604082013581169160600135166200086f565b6200024760048036036060811015620002a057600080fd5b506001600160a01b0381358116916020810135909116906040013562000df3565b620002ea60048036036020811015620002d957600080fd5b50356001600160a01b031662000e41565b604080516001600160a01b039092168252519081900360200190f35b620002ea600480360360208110156200031e57600080fd5b50356001600160a01b031662000e5c565b62000360600480360360408110156200034757600080fd5b506001600160a01b038135811691602001351662000e77565b60408051918252519081900360200190f35b6200036062000fd2565b6200024762000fd8565b62000247600480360360e08110156200039e57600080fd5b5080359060208101359060408101359060608101359060808101359060a08101359060c001356001600160a01b03166200107e565b620002ea6200118b565b62000247600480360360e0811015620003f557600080fd5b5080359060208101359060408101359060608101359060808101359060a08101359060c001356001600160a01b03166200119a565b62000247600480360360408110156200044257600080fd5b506001600160a01b038135811691602001351662001283565b620002ea620012e0565b620002ea600480360360208110156200047d57600080fd5b50356001600160a01b0316620012ef565b620003606200130a565b620002ea62001310565b6200024760048036036020811015620004ba57600080fd5b50356001600160a01b03166200131f565b620004d56200141d565b6000546001600160a01b0390811691161462000527576040805162461bcd60e51b8152602060048201819052602482015260008051602062002451833981519152604482015290519081900360640190fd5b600180548101905560035460408051632fb2da6160e01b81526001600160a01b03868116600483015291516000939290921691632fb2da619160248082019260209290919082900301818787803b1580156200058257600080fd5b505af115801562000597573d6000803e3d6000fd5b505050506040513d6020811015620005ae57600080fd5b810190808051906020019092919050505090506000600460009054906101000a90046001600160a01b03166001600160a01b031663cc83954d863385600360009054906101000a90046001600160a01b031689896040518763ffffffff1660e01b815260040180876001600160a01b03166001600160a01b03168152602001866001600160a01b03166001600160a01b03168152602001856001600160a01b03166001600160a01b03168152602001846001600160a01b03166001600160a01b031681526020018060200180602001838103835285818151815260200191508051906020019080838360005b83811015620006b45781810151838201526020016200069a565b50505050905090810190601f168015620006e25780820380516001836020036101000a031916815260200191505b50838103825284518152845160209182019186019080838360005b8381101562000717578181015183820152602001620006fd565b50505050905090810190601f168015620007455780820380516001836020036101000a031916815260200191505b5098505050505050505050602060405180830381600087803b1580156200076b57600080fd5b505af115801562000780573d6000803e3d6000fd5b505050506040513d60208110156200079757600080fd5b50516001600160a01b038082166000818152600a6020526040808220805460ff191660011790556003548151631be1d0b960e01b815260048101949094528a85166024850152905194955090921692631be1d0b99260448084019391929182900301818387803b1580156200080b57600080fd5b505af115801562000820573d6000803e3d6000fd5b505050506001600160a01b03948516600090815260056020908152604080832080549489166001600160a01b031995861681179091558352600790915290208054929095169116179092555050565b6001600160a01b03808516600090815260086020908152604080832093861683529290522054620008a99061070863ffffffff6200142116565b421015620008b657600080fd5b620008c062001953565b826001600160a01b0316634c20ac746040518163ffffffff1660e01b815260040160206040518083038186803b158015620008fa57600080fd5b505afa1580156200090f573d6000803e3d6000fd5b505050506040513d60208110156200092657600080fd5b50516001600160a01b039081168252604080516313082b1d60e21b8152905191841691634c20ac7491600480820192602092909190829003018186803b1580156200097057600080fd5b505afa15801562000985573d6000803e3d6000fd5b505050506040513d60208110156200099c57600080fd5b50516001600160a01b0390811660208381019190915260035483516040805163fc57d4df60e01b8152918516600483015251600094929092169263fc57d4df92602480840193829003018186803b158015620009f757600080fd5b505afa15801562000a0c573d6000803e3d6000fd5b505050506040513d602081101562000a2357600080fd5b50516003546020848101516040805163fc57d4df60e01b81526001600160a01b0392831660048201529051949550600094919093169263fc57d4df926024808301939192829003018186803b15801562000a7c57600080fd5b505afa15801562000a91573d6000803e3d6000fd5b505050506040513d602081101562000aa857600080fd5b50519050811580159062000abb57508015155b62000ac557600080fd5b846001600160a01b03166317bfdfbc886040518263ffffffff1660e01b815260040180826001600160a01b03166001600160a01b03168152602001915050602060405180830381600087803b15801562000b1e57600080fd5b505af115801562000b33573d6000803e3d6000fd5b505050506040513d602081101562000b4a57600080fd5b505160408085019182526001600160a01b03808a16600090815260096020908152838220928916825291909152205460608501525162000b91908363ffffffff6200148316565b6080840152606083015162000bad908263ffffffff6200148316565b60a0840181905262000bc790600263ffffffff620014e116565b60c0840181905260a084015162000be49163ffffffff6200142116565b60a0840181905260808401511162000dbf57846001600160a01b031663bd6d894d6040518163ffffffff1660e01b8152600401602060405180830381600087803b15801562000c3257600080fd5b505af115801562000c47573d6000803e3d6000fd5b505050506040513d602081101562000c5e57600080fd5b505160e084015262000c6f620019b1565b62000c79620019b1565b62000c83620019b1565b600062000c936002548762001525565b94509050600081600381111562000ca657fe5b1462000cb157600080fd5b62000cc1858860e0015162001525565b93509050600081600381111562000cd457fe5b1462000cdf57600080fd5b62000ceb848462001565565b92509050600081600381111562000cfe57fe5b1462000d0957600080fd5b62000d15828b62001581565b6101008901529050600081600381111562000d2c57fe5b1462000d3757600080fd5b865161010088015160408051638157230b60e01b81526001600160a01b0393841660048201528c841660248201526044810192909252606482018d905251918a1691638157230b9160848082019260009290919082900301818387803b15801562000da157600080fd5b505af115801562000db6573d6000803e3d6000fd5b50505050505050505b5050506001600160a01b03938416600090815260086020908152604080832094909616825292909252509182209190915550565b336000908152600a602052604090205460ff16151560011462000e1557600080fd5b6001600160a01b0392831660009081526009602090815260408083209490951682529290925291902055565b6005602052600090815260409020546001600160a01b031681565b6006602052600090815260409020546001600160a01b031681565b336000908152600a602052604081205460ff16151560011462000e9957600080fd5b60003390506000816001600160a01b0316634c20ac746040518163ffffffff1660e01b815260040160206040518083038186803b15801562000eda57600080fd5b505afa15801562000eef573d6000803e3d6000fd5b505050506040513d602081101562000f0657600080fd5b50516003546040805163fc57d4df60e01b81526001600160a01b0380851660048301529151939450600093919092169163fc57d4df916024808301926020929190829003018186803b15801562000f5c57600080fd5b505afa15801562000f71573d6000803e3d6000fd5b505050506040513d602081101562000f8857600080fd5b50516001600160a01b038088166000908152600960209081526040808320938a168352929052205490915062000fc5818363ffffffff6200148316565b9450505050505b92915050565b60025481565b62000fe26200141d565b6000546001600160a01b0390811691161462001034576040805162461bcd60e51b8152602060048201819052602482015260008051602062002451833981519152604482015290519081900360640190fd5b600080546040516001600160a01b03909116907f8be0079c531659141344cd1fd0a4f28419497f9722a3daafe3b4186f6b6457e0908390a3600080546001600160a01b0319169055565b6001600160a01b0380821660009081526005602052604080822054905192169189908990899089908690620010b390620019c4565b948552602085019390935260408085019290925260608401526001600160a01b039091166080830152519081900360a001906000f080158015620010fb573d6000803e3d6000fd5b509050816001600160a01b031663dcc716bd8287876040518463ffffffff1660e01b815260040180846001600160a01b03166001600160a01b031681526020018381526020018281526020019350505050600060405180830381600087803b1580156200116757600080fd5b505af11580156200117c573d6000803e3d6000fd5b50505050505050505050505050565b6000546001600160a01b031690565b6001600160a01b0380821660009081526005602052604080822054905192169189908990899089908690620011cf90620019c4565b948552602085019390935260408085019290925260608401526001600160a01b039091166080830152519081900360a001906000f08015801562001217573d6000803e3d6000fd5b509050816001600160a01b0316631f432cf58287876040518463ffffffff1660e01b815260040180846001600160a01b03166001600160a01b031681526020018381526020018281526020019350505050600060405180830381600087803b1580156200116757600080fd5b6001600160a01b0380831660009081526008602090815260408083209385168352929052205415620012b457600080fd5b6001600160a01b0391821660009081526008602090815260408083209390941682529190915220429055565b6004546001600160a01b031681565b6007602052600090815260409020546001600160a01b031681565b60015481565b6003546001600160a01b031681565b620013296200141d565b6000546001600160a01b039081169116146200137b576040805162461bcd60e51b8152602060048201819052602482015260008051602062002451833981519152604482015290519081900360640190fd5b6001600160a01b038116620013c25760405162461bcd60e51b81526004018080602001828103825260268152602001806200240a6026913960400191505060405180910390fd5b600080546040516001600160a01b03808516939216917f8be0079c531659141344cd1fd0a4f28419497f9722a3daafe3b4186f6b6457e091a3600080546001600160a01b0319166001600160a01b0392909216919091179055565b3390565b6000828201838110156200147c576040805162461bcd60e51b815260206004820152601b60248201527f536166654d6174683a206164646974696f6e206f766572666c6f770000000000604482015290519081900360640190fd5b9392505050565b600082620014945750600062000fcc565b82820282848281620014a257fe5b04146200147c5760405162461bcd60e51b8152600401808060200182810382526021815260200180620024306021913960400191505060405180910390fd5b60006200147c83836040518060400160405280601a81526020017f536166654d6174683a206469766973696f6e206279207a65726f000000000000815250620015dd565b600062001531620019b1565b6200155960405180602001604052808681525060405180602001604052808681525062001684565b915091505b9250929050565b600062001571620019b1565b835183516200155991906200177d565b600080600062001590620019b1565b6200159c868662001839565b90925090506000826003811115620015b057fe5b14620015c357509150600090506200155e565b6000620015d082620018a8565b9350935050509250929050565b600081836200166d5760405162461bcd60e51b81526004018080602001828103825283818151815260200191508051906020019080838360005b838110156200163157818101518382015260200162001617565b50505050905090810190601f1680156200165f5780820380516001836020036101000a031916815260200191505b509250505060405180910390fd5b5060008385816200167a57fe5b0495945050505050565b600062001690620019b1565b600080620016a786600001518660000151620018b7565b90925090506000826003811115620016bb57fe5b14620016dc575060408051602081019091526000815290925090506200155e565b600080620016f36706f05b59d3b2000084620018fc565b909250905060008260038111156200170757fe5b146200172b575060408051602081019091526000815290945092506200155e915050565b6000806200174283670de0b6b3a764000062001925565b909250905060008260038111156200175657fe5b146200175e57fe5b604080516020810190915290815260009a909950975050505050505050565b600062001789620019b1565b600080620017a086670de0b6b3a7640000620018b7565b90925090506000826003811115620017b457fe5b14620017d5575060408051602081019091526000815290925090506200155e565b600080620017e4838862001925565b90925090506000826003811115620017f857fe5b146200181c575060408051602081019091526000815290945092506200155e915050565b604080516020810190915290815260009890975095505050505050565b600062001845620019b1565b60008062001858866000015186620018b7565b909250905060008260038111156200186c57fe5b146200188d575060408051602081019091526000815290925090506200155e565b60408051602081019091529081526000969095509350505050565b51670de0b6b3a7640000900490565b60008083620018cc575060009050806200155e565b83830283858281620018da57fe5b0414620018f0575060029150600090506200155e565b6000925090506200155e565b60008083830184811062001916576000925090506200155e565b5060029150600090506200155e565b600080826200193b57506001905060006200155e565b60008385816200194757fe5b04915091509250929050565b60405180610120016040528060006001600160a01b0316815260200160006001600160a01b03168152602001600081526020016000815260200160008152602001600081526020016000815260200160008152602001600081525090565b6040518060200160405280600081525090565b610a3780620019d38339019056fe608060405234801561001057600080fd5b50604051610a37380380610a37833981810160405260a081101561003357600080fd5b508051602082015160408301516060840151608090940151600080546001600160a01b0319166001600160a01b03831617905592939192909190848484848461007e8585858561008d565b505050505050505050506102bc565b6100a7622014808561017060201b6105901790919060201c565b6002556100f66100c562201480836101c1602090811b61053717901c565b6100e4670de0b6b3a7640000866101c160201b6105371790919060201c565b61017060201b6105901790919060201c565b6001556101118262201480610170602090811b61059017901c565b60038190556004829055600254600154604080519283526020830191909152818101929092526060810183905290517f6960ab234c7ef4b0c9197100f5393cfcde7c453ac910a27bd2000aa1dd4c068d9181900360800190a150505050565b60006101b883836040518060400160405280601a81526020017f536166654d6174683a206469766973696f6e206279207a65726f00000000000081525061021a60201b60201c565b90505b92915050565b6000826101d0575060006101bb565b828202828482816101dd57fe5b04146101b85760405162461bcd60e51b8152600401808060200182810382526021815260200180610a166021913960400191505060405180910390fd5b600081836102a65760405162461bcd60e51b81526004018080602001828103825283818151815260200191508051906020019080838360005b8381101561026b578181015183820152602001610253565b50505050905090810190601f1680156102985780820380516001836020036101000a031916815260200191505b509250505060405180910390fd5b5060008385816102b257fe5b0495945050505050565b61074b806102cb6000396000f3fe608060405234801561001057600080fd5b506004361061009e5760003560e01c8063a385fb9611610066578063a385fb9614610164578063b81688161461016c578063b9f9850a1461019b578063f14039de146101a3578063fd2da339146101ab5761009e565b806315f24053146100a35780632037f3e7146100de5780636e71e2d81461010f5780638726bb89146101385780638da5cb5b14610140575b600080fd5b6100cc600480360360608110156100b957600080fd5b50803590602081013590604001356101b3565b60408051918252519081900360200190f35b61010d600480360360808110156100f457600080fd5b50803590602081013590604081013590606001356101ca565b005b6100cc6004803603606081101561012557600080fd5b5080359060208101359060400135610225565b6100cc61027b565b610148610281565b604080516001600160a01b039092168252519081900360200190f35b6100cc610290565b6100cc6004803603608081101561018257600080fd5b5080359060208101359060408101359060600135610297565b6100cc610316565b6100cc61031c565b6100cc610322565b60006101c0848484610328565b90505b9392505050565b6000546001600160a01b031633146102135760405162461bcd60e51b81526004018080602001828103825260268152602001806106f06026913960400191505060405180910390fd5b61021f848484846103f1565b50505050565b600082610234575060006101c3565b6101c06102578361024b878763ffffffff61049216565b9063ffffffff6104f516565b61026f85670de0b6b3a764000063ffffffff61053716565b9063ffffffff61059016565b60015481565b6000546001600160a01b031681565b6220148081565b6000806102b2670de0b6b3a76400008463ffffffff6104f516565b905060006102c1878787610328565b905060006102e1670de0b6b3a764000061026f848663ffffffff61053716565b905061030a670de0b6b3a764000061026f836102fe8c8c8c610225565b9063ffffffff61053716565b98975050505050505050565b60035481565b60025481565b60045481565b600080610336858585610225565b9050600454811161037c57610374600254610368670de0b6b3a764000061026f6001548661053790919063ffffffff16565b9063ffffffff61049216565b9150506101c3565b60006103a7600254610368670de0b6b3a764000061026f60015460045461053790919063ffffffff16565b905060006103c0600454846104f590919063ffffffff16565b90506103e782610368670de0b6b3a764000061026f6003548661053790919063ffffffff16565b93505050506101c3565b610404846220148063ffffffff61059016565b60025561041d610257622014808363ffffffff61053716565b600155610433826220148063ffffffff61059016565b60038190556004829055600254600154604080519283526020830191909152818101929092526060810183905290517f6960ab234c7ef4b0c9197100f5393cfcde7c453ac910a27bd2000aa1dd4c068d9181900360800190a150505050565b6000828201838110156104ec576040805162461bcd60e51b815260206004820152601b60248201527f536166654d6174683a206164646974696f6e206f766572666c6f770000000000604482015290519081900360640190fd5b90505b92915050565b60006104ec83836040518060400160405280601e81526020017f536166654d6174683a207375627472616374696f6e206f766572666c6f7700008152506105d2565b600082610546575060006104ef565b8282028284828161055357fe5b04146104ec5760405162461bcd60e51b81526004018080602001828103825260218152602001806106cf6021913960400191505060405180910390fd5b60006104ec83836040518060400160405280601a81526020017f536166654d6174683a206469766973696f6e206279207a65726f000000000000815250610669565b600081848411156106615760405162461bcd60e51b81526004018080602001828103825283818151815260200191508051906020019080838360005b8381101561062657818101518382015260200161060e565b50505050905090810190601f1680156106535780820380516001836020036101000a031916815260200191505b509250505060405180910390fd5b505050900390565b600081836106b85760405162461bcd60e51b815260206004820181815283516024840152835190928392604490910191908501908083836000831561062657818101518382015260200161060e565b5060008385816106c457fe5b049594505050505056fe536166654d6174683a206d756c7469706c69636174696f6e206f766572666c6f776f6e6c7920746865206f776e6572206d61792063616c6c20746869732066756e6374696f6e2ea26469706673582212208dc0ade6001139ac4656020faee4028a69f9b439fdafbf4978b85af4fe7584a864736f6c63430006020033536166654d6174683a206d756c7469706c69636174696f6e206f766572666c6f774f776e61626c653a206e6577206f776e657220697320746865207a65726f2061646472657373536166654d6174683a206d756c7469706c69636174696f6e206f766572666c6f774f776e61626c653a2063616c6c6572206973206e6f7420746865206f776e6572a2646970667358221220f50d85a66bbc3ae113a4664d90d4c1ec1604798521099f94c3c73824362ca17b64736f6c63430006020033",
  "source": "pragma solidity ^0.6.0;\n\nimport \"@openzeppelin/contracts/access/Ownable.sol\";\nimport \"@openzeppelin/contracts/math/SafeMath.sol\";\nimport \"./MoneyMarketInstance.sol\";\nimport \"./interfaces/UniswapOracleFactoryI.sol\";\nimport \"./interfaces/MoneyMarketFactoryI.sol\";\nimport \"./compound/JumpRateModelV2.sol\";\nimport \"./compound/Exponential.sol\";\n////////////////////////////////////////////////////////////////////////////////////////////\n/// @title MoneyMarketFactory\n/// @author Christopher Dixon\n////////////////////////////////////////////////////////////////////////////////////////////\n/**\nMoneyMarketControl is designed to coordinate Money Markets\nThis contract uses the OpenZeppelin contract Library to inherit functions from\n  Ownable.sol\n**/\n\ncontract MoneyMarketControl is Ownable, Exponential {\n\n  using SafeMath for uint;\n\n\n\n  uint public instanceCount;//tracks the number of instances\n  uint public liquidationIncentiveMantissa = 1.5e18; // 1.5\n\n  UniswapOracleFactoryI public Oracle;//oracle factory contract interface\n  MoneyMarketFactoryI public MMF;\n\n  mapping(address => address) public instanceTracker; //maps erc20 address to the assets MoneyMarketInstance\n  mapping(address => address) public _ALRtracker; // tracks a money markets address to its ALR token.\n  mapping(address => address) public oracleTracker; //maps a MM oracle to its Money market address\n  mapping(address =>mapping(address => uint)) nonCompliant;// tracks user to a market to a time\n  mapping(address =>mapping(address => uint)) collateralTracker; //tracks user to a market to an amount collaterlized in that market\n  mapping(address => bool) isMMI;\n\n  /**\n  @notice onlyMMFactory is a modifier used to make a function only callable by the Money Market Instance contract\n  **/\n    modifier onlyMMI()  {\n      require(isMMI[msg.sender] == true);\n      _;\n    }\n/**\n@notice the constructor function is fired during the contract deployment process. The constructor can only be fired once and\n        is used to set up Oracle variables for the MoneyMarketFactory contract.\n@param _oracle is the address for the UniswapOracleFactorycontract\n**/\nconstructor ( address _oracle, address _MMF) public {\n  Oracle = UniswapOracleFactoryI(_oracle);\n  MMF = MoneyMarketFactoryI(_MMF);\n}\n\n/**\n@notice whitelistAsset is an onlyOwner function designed to be called by the AskoDAO.\n        This function creates a new MoneyMarketInstancecontract for an input asset as well\n        as a UniswapOracleInstance for the asset.\n@param _assetContractAdd is the address of the ERC20 asset being whitelisted\n@param _assetName is the name of the asset(e.x: ChainLink)\n@param _assetSymbol is the symbol of the asset(e.x: LINK)\n**/\n  function whitelistAsset(\n    address _assetContractAdd,\n\t\tstring memory _assetName,\n\t\tstring memory _assetSymbol\n  )\n  public\n  onlyOwner\n  {\n    instanceCount++;\n\n  address oracle = address(Oracle.createNewOracle( _assetContractAdd));\n\n  address _MMinstance = MMF.createMMI(\n        _assetContractAdd,\n        msg.sender,\n        oracle,\n        address(Oracle),\n   \t\t _assetName,\n   \t\t _assetSymbol\n     );\n\n    isMMI[_MMinstance] = true;\n    Oracle.linkMMI(_MMinstance, _assetContractAdd);\n    instanceTracker[_assetContractAdd] = _MMinstance;\n    oracleTracker[_MMinstance] = oracle;\n  }\n\n/**\n@notice setUpAHR is used to set up a MoneyMarketInstances Asko High Risk Token as well as its InterestRateModel\n@param _baseRatePerYear The approximate target base APR, as a mantissa (scaled by 1e18)\n@param _multiplierPerYear  The rate of increase in interest rate wrt utilization (scaled by 1e18)\n@param _jumpMultiplierPerYear The multiplierPerBlock after hitting a specified utilization point\n@param _optimal The utilization point at which the jump multiplier is applied(Refered to as the Kink in the InterestRateModel)\n@param _fee is a number representing the fee for exchanging an ALR token, as a mantissa (scaled by 1e18)\n@param _assetContractAdd is the contract address of the asset whos MoneyMarketInstance is being set up\n@dev this function can only be called after an asset has been whitelisted as it needs an existing MoneyMarketInstance contract\n**/\n  function setUpAHR(\n    uint _baseRatePerYear,\n    uint _multiplierPerYear,\n    uint _jumpMultiplierPerYear,\n    uint _optimal,\n    uint _fee,\n    uint _initialExchangeRate,\n    address _assetContractAdd\n  )\n  public\n  {\n    MoneyMarketInstance _MMI = MoneyMarketInstance(instanceTracker[_assetContractAdd]);\n\n    address interestRateModel = address( new JumpRateModelV2(\n      _baseRatePerYear,\n      _multiplierPerYear,\n      _jumpMultiplierPerYear,\n      _optimal,\n      address(_MMI)\n    ));\n\n_MMI._setUpAHR(\n  interestRateModel,\n  _fee,\n  _initialExchangeRate\n);\n  }\n\n/**\n@notice setUpAHR is used to set up a MoneyMarketInstances Asko High Risk Token as well as its InterestRateModel\n@param _baseRatePerYear The approximate target base APR, as a mantissa (scaled by 1e18)\n@param _multiplierPerYear  The rate of increase in interest rate wrt utilization (scaled by 1e18)\n@param _jumpMultiplierPerYear The multiplierPerBlock after hitting a specified utilization point\n@param _optimal The utilization point at which the jump multiplier is applied(Refered to as the Kink in the InterestRateModel)\n@param _fee is a number representing the fee for exchanging an ALR token, as a mantissa (scaled by 1e18)\n@param _assetContractAdd is the contract address of the asset whos MoneyMarketInstance is being set up\n@dev this function can only be called after an asset has been whitelisted as it needs an existing MoneyMarketInstance contract\n**/\n  function setUpALR(\n    uint _baseRatePerYear,\n    uint _multiplierPerYear,\n    uint _jumpMultiplierPerYear,\n    uint _optimal,\n    uint _fee,\n    uint _initialExchangeRate,\n    address _assetContractAdd\n  )\n  public\n  {\n    MoneyMarketInstance _MMI = MoneyMarketInstance(instanceTracker[_assetContractAdd]);\n\n    address interestRateModel = address( new JumpRateModelV2(\n      _baseRatePerYear,\n      _multiplierPerYear,\n      _jumpMultiplierPerYear,\n      _optimal,\n      address(_MMI)\n    ));\n\n    _MMI._setUpALR(\n      interestRateModel,\n      _fee,\n      _initialExchangeRate\n    );\n  }\n\n/**\n@notice trackCollateral is an external function used bya MMI to track collateral amounts globally\n@param _borrower is the address of the corrower\n@param _ALR is the address of the seller\n@param _amount is the amount of ALR being collateralized\n@dev this function can only be called by a MoneyMarketInstance.\n**/\n function trackCollateral(address _borrower, address _ALR, uint _amount) external onlyMMI {\n   collateralTracker[_borrower][_ALR] = _amount;\n }\n\n /**\n@notice checkCollateralValue is a view function that accepts an account address and an ALR contract\n        address and returns the USD value of the collateral they have locked.\n@param _borrower is the address whos collateral value we are looking up\n@param _ALR is the address of the ALR token where collateral value is being looked up\n@dev this function can only be called by a MoneyMarketInstance.\n **/\n function checkCollateralValue(address _borrower, address _ALR) external view onlyMMI returns(uint) {\n//instantiate the MoneyMakerInstance calling this function\n   MoneyMarketInstance MMI = MoneyMarketInstance(msg.sender);\n//retreive the address of its asset\n   address asset = MMI.getAssetAdd();\n//retrieve USD price of this asset\n   uint priceOfAsset = Oracle.getUnderlyingPrice(asset);\n//retrieve the amount of the asset locked as collateral\n   uint amountOfAssetCollat = collateralTracker[_borrower][_ALR];\n//multiply the amount of collateral by the asset price and return it\n   return amountOfAssetCollat.mul(priceOfAsset);\n }\n\n/**\n@notice markAccountNonCompliant is used by a potential liquidator to mark an account as non compliant which starts its 30 minute timer\n@param _borrower is the address of the non compliant borrower\n@param _ART is the address of the money market instances ALR token the user is non-compliant in\n**/\n  function markAccountNonCompliant(address _borrower, address _ART) public {\n    //needs to check for account compliance\n    require(nonCompliant[_borrower][_ART] == 0);\n    nonCompliant[_borrower][_ART] = now;\n  }\n\n  struct liquidateLocalVar {\n      address assetOwed;\n      address assetColat;\n      uint borrowedAmount;\n      uint collatAmount;\n      uint borrowedValue;\n      uint collatValue;\n      uint halfVal;\n      uint exchangeRateMantissa; // Note: reverts on error\n      uint seizeTokens;\n  }\n\n/**\n@notice The sender liquidates the borrowers collateral. This function is called on the MoneyMarket the borrower owes to.\n@param borrower The borrower of this cToken to be liquidated\n@param repayAmount The amount of the underlying borrowed asset to repay\n@param _ARTowed is the address of the AskoRiskToken where the borrower owes asset\n@param _ARTcollateralized is the address of the AskoRiskToken where the borrower has collateral\n\n*/\n  function liquidateAccount(address borrower, uint repayAmount, AskoRiskToken _ARTowed, AskoRiskToken _ARTcollateralized) public {\n//checks if its been nonCompliant for more than a half hour\n    require(now >= nonCompliant[borrower][address(_ARTowed)].add(1800));\n    //create local vars storage\n        liquidateLocalVar memory vars;\n//get asset addresses of both ARTs\n     vars.assetOwed = _ARTowed.getAssetAdd();\n     vars.assetColat = _ARTcollateralized.getAssetAdd();\n//Read oracle prices for borrowed and collateral markets\n    uint priceBorrowedMantissa = Oracle.getUnderlyingPrice(vars.assetOwed);\n    uint priceCollateralMantissa = Oracle.getUnderlyingPrice(vars.assetColat);\n    require(priceBorrowedMantissa != 0 && priceCollateralMantissa != 0);\n//retrieve asset amounts for each\n    vars.borrowedAmount = _ARTowed.borrowBalanceCurrent(borrower);\n    vars.collatAmount = collateralTracker[borrower][address(_ARTcollateralized)];\n//calculate USDC value amounts of each\n    vars.borrowedValue = vars.borrowedAmount.mul(priceBorrowedMantissa);\n    vars.collatValue = vars.collatAmount.mul(priceCollateralMantissa);\n//divide collateral value in half\n    vars.halfVal = vars.collatValue.div(2);\n//add 1/2 the collateral value to the total collateral value for 150% colleral value\n    vars.collatValue = vars.collatValue.add(vars.halfVal);\n//require the value of whats been borrowed to be lower than 150% of the collaterals value\n    if (vars.collatValue >= vars.borrowedValue){\n\n//Get the exchange rate and calculate the number of collateral tokens to seize:\n\n     vars.exchangeRateMantissa = _ARTowed.exchangeRateCurrent(); // Note: reverts on error\n\n    Exp memory numerator;\n    Exp memory denominator;\n    Exp memory ratio;\n    MathError mathErr;\n//numerator = liquidationIncentive * priceBorrowed\n    (mathErr, numerator) = mulExp(liquidationIncentiveMantissa, priceBorrowedMantissa);\n    require(mathErr == MathError.NO_ERROR);\n\n//denominator = priceCollateral * exchangeRate\n    (mathErr, denominator) = mulExp(priceCollateralMantissa, vars.exchangeRateMantissa);\n    require(mathErr == MathError.NO_ERROR);\n//ratio = (liquidationIncentive * priceBorrowed) / (priceCollateral * exchangeRate)\n    (mathErr, ratio) = divExp(numerator, denominator);\n    require(mathErr == MathError.NO_ERROR);\n//seizeTokens = actualRepayAmount * (liquidationIncentive * priceBorrowed) / (priceCollateral * exchangeRate)\n    (mathErr, vars.seizeTokens) = mulScalarTruncate(ratio, repayAmount);\n    require(mathErr == MathError.NO_ERROR);\n/**\nthis function calls the MoneyMarketInstance where the borrower has collateral staked and has it swap\nits underlying asset on uniswap for the underlying asset borrowed\n**/\n    _ARTcollateralized._liquidateFor(vars.assetOwed, address(_ARTowed), vars.seizeTokens, repayAmount);\n    }\n  //reset accounts compliant timer\n  nonCompliant[borrower][address(_ARTowed)] = 0;//resets borrowers compliance timer\n  }\n\n\n\n}\n",
  "sourcePath": "/home/stan36/repos/Askolend/AskoLend-contracts/contracts/MoneyMarketControl.sol",
  "compiler": {
    "name": "solc",
    "version": "0.6.2+commit.bacdbe57.Emscripten.clang"
  },
  "schemaVersion": "3.2.5",
  "updatedAt": "2020-10-08T02:00:16.299Z",
  "devdoc": {
    "methods": {
      "checkCollateralValue(address,address)": {
        "details": "this function can only be called by a MoneyMarketInstance.*",
        "params": {
          "_ALR": "is the address of the ALR token where collateral value is being looked up",
          "_borrower": "is the address whos collateral value we are looking up"
        }
      },
      "constructor": {
        "params": {
          "_oracle": "is the address for the UniswapOracleFactorycontract*"
        }
      },
      "liquidateAccount(address,uint256,address,address)": {
        "params": {
          "_ARTcollateralized": "is the address of the AskoRiskToken where the borrower has collateral",
          "_ARTowed": "is the address of the AskoRiskToken where the borrower owes asset",
          "borrower": "The borrower of this cToken to be liquidated",
          "repayAmount": "The amount of the underlying borrowed asset to repay"
        }
      },
      "markAccountNonCompliant(address,address)": {
        "params": {
          "_ART": "is the address of the money market instances ALR token the user is non-compliant in*",
          "_borrower": "is the address of the non compliant borrower"
        }
      },
      "owner()": {
        "details": "Returns the address of the current owner."
      },
      "renounceOwnership()": {
        "details": "Leaves the contract without owner. It will not be possible to call `onlyOwner` functions anymore. Can only be called by the current owner.     * NOTE: Renouncing ownership will leave the contract without an owner, thereby removing any functionality that is only available to the owner."
      },
      "setUpAHR(uint256,uint256,uint256,uint256,uint256,uint256,address)": {
        "details": "this function can only be called after an asset has been whitelisted as it needs an existing MoneyMarketInstance contract*",
        "params": {
          "_assetContractAdd": "is the contract address of the asset whos MoneyMarketInstance is being set up",
          "_baseRatePerYear": "The approximate target base APR, as a mantissa (scaled by 1e18)",
          "_fee": "is a number representing the fee for exchanging an ALR token, as a mantissa (scaled by 1e18)",
          "_jumpMultiplierPerYear": "The multiplierPerBlock after hitting a specified utilization point",
          "_multiplierPerYear": "The rate of increase in interest rate wrt utilization (scaled by 1e18)",
          "_optimal": "The utilization point at which the jump multiplier is applied(Refered to as the Kink in the InterestRateModel)"
        }
      },
      "setUpALR(uint256,uint256,uint256,uint256,uint256,uint256,address)": {
        "details": "this function can only be called after an asset has been whitelisted as it needs an existing MoneyMarketInstance contract*",
        "params": {
          "_assetContractAdd": "is the contract address of the asset whos MoneyMarketInstance is being set up",
          "_baseRatePerYear": "The approximate target base APR, as a mantissa (scaled by 1e18)",
          "_fee": "is a number representing the fee for exchanging an ALR token, as a mantissa (scaled by 1e18)",
          "_jumpMultiplierPerYear": "The multiplierPerBlock after hitting a specified utilization point",
          "_multiplierPerYear": "The rate of increase in interest rate wrt utilization (scaled by 1e18)",
          "_optimal": "The utilization point at which the jump multiplier is applied(Refered to as the Kink in the InterestRateModel)"
        }
      },
      "trackCollateral(address,address,uint256)": {
        "details": "this function can only be called by a MoneyMarketInstance.*",
        "params": {
          "_ALR": "is the address of the seller",
          "_amount": "is the amount of ALR being collateralized",
          "_borrower": "is the address of the corrower"
        }
      },
      "transferOwnership(address)": {
        "details": "Transfers ownership of the contract to a new account (`newOwner`). Can only be called by the current owner."
      },
      "whitelistAsset(address,string,string)": {
        "params": {
          "_assetContractAdd": "is the address of the ERC20 asset being whitelisted",
          "_assetName": "is the name of the asset(e.x: ChainLink)",
          "_assetSymbol": "is the symbol of the asset(e.x: LINK)*"
        }
      }
    }
  },
  "userdoc": {
    "methods": {
      "checkCollateralValue(address,address)": {
        "notice": "checkCollateralValue is a view function that accepts an account address and an ALR contract address and returns the USD value of the collateral they have locked."
      },
      "constructor": "the constructor function is fired during the contract deployment process. The constructor can only be fired once and is used to set up Oracle variables for the MoneyMarketFactory contract.",
      "liquidateAccount(address,uint256,address,address)": {
        "notice": "The sender liquidates the borrowers collateral. This function is called on the MoneyMarket the borrower owes to."
      },
      "markAccountNonCompliant(address,address)": {
        "notice": "markAccountNonCompliant is used by a potential liquidator to mark an account as non compliant which starts its 30 minute timer"
      },
      "setUpAHR(uint256,uint256,uint256,uint256,uint256,uint256,address)": {
        "notice": "setUpAHR is used to set up a MoneyMarketInstances Asko High Risk Token as well as its InterestRateModel"
      },
      "setUpALR(uint256,uint256,uint256,uint256,uint256,uint256,address)": {
        "notice": "setUpAHR is used to set up a MoneyMarketInstances Asko High Risk Token as well as its InterestRateModel"
      },
      "trackCollateral(address,address,uint256)": {
        "notice": "trackCollateral is an external function used bya MMI to track collateral amounts globally"
      },
      "whitelistAsset(address,string,string)": {
        "notice": "whitelistAsset is an onlyOwner function designed to be called by the AskoDAO. This function creates a new MoneyMarketInstancecontract for an input asset as well as a UniswapOracleInstance for the asset."
      }
    },
    "notice": "MoneyMarketControl is designed to coordinate Money Markets This contract uses the OpenZeppelin contract Library to inherit functions from Ownable.sol*"
  }
}