{
  "contractName": "MoneyMarketInstance",
  "abi": [
    {
      "inputs": [
        {
          "internalType": "address",
          "name": "_assetContractAdd",
          "type": "address"
        },
        {
          "internalType": "address",
          "name": "_oracleFactory",
          "type": "address"
        },
        {
          "internalType": "address",
          "name": "_owner",
          "type": "address"
        },
        {
          "internalType": "string",
          "name": "_assetName",
          "type": "string"
        },
        {
          "internalType": "string",
          "name": "_assetSymbol",
          "type": "string"
        }
      ],
      "stateMutability": "nonpayable",
      "type": "constructor"
    },
    {
      "anonymous": false,
      "inputs": [
        {
          "indexed": false,
          "internalType": "address",
          "name": "borrower",
          "type": "address"
        },
        {
          "indexed": false,
          "internalType": "uint256",
          "name": "AHRamount",
          "type": "uint256"
        },
        {
          "indexed": false,
          "internalType": "uint256",
          "name": "ALRamount",
          "type": "uint256"
        }
      ],
      "name": "Borrow",
      "type": "event"
    },
    {
      "anonymous": false,
      "inputs": [
        {
          "indexed": false,
          "internalType": "address",
          "name": "collateralizer",
          "type": "address"
        },
        {
          "indexed": false,
          "internalType": "uint256",
          "name": "amount",
          "type": "uint256"
        }
      ],
      "name": "Collateralized",
      "type": "event"
    },
    {
      "anonymous": false,
      "inputs": [
        {
          "indexed": false,
          "internalType": "address",
          "name": "lender",
          "type": "address"
        },
        {
          "indexed": false,
          "internalType": "uint256",
          "name": "amount",
          "type": "uint256"
        }
      ],
      "name": "LentToAHR",
      "type": "event"
    },
    {
      "anonymous": false,
      "inputs": [
        {
          "indexed": false,
          "internalType": "address",
          "name": "lender",
          "type": "address"
        },
        {
          "indexed": false,
          "internalType": "uint256",
          "name": "amount",
          "type": "uint256"
        }
      ],
      "name": "LentToALR",
      "type": "event"
    },
    {
      "anonymous": false,
      "inputs": [
        {
          "indexed": true,
          "internalType": "address",
          "name": "previousOwner",
          "type": "address"
        },
        {
          "indexed": true,
          "internalType": "address",
          "name": "newOwner",
          "type": "address"
        }
      ],
      "name": "OwnershipTransferred",
      "type": "event"
    },
    {
      "anonymous": false,
      "inputs": [
        {
          "indexed": false,
          "internalType": "address",
          "name": "borrower",
          "type": "address"
        },
        {
          "indexed": false,
          "internalType": "uint256",
          "name": "AHRamount",
          "type": "uint256"
        },
        {
          "indexed": false,
          "internalType": "uint256",
          "name": "ALRamount",
          "type": "uint256"
        }
      ],
      "name": "Repayed",
      "type": "event"
    },
    {
      "inputs": [],
      "name": "AHR",
      "outputs": [
        {
          "internalType": "contract AskoRiskToken",
          "name": "",
          "type": "address"
        }
      ],
      "stateMutability": "view",
      "type": "function"
    },
    {
      "inputs": [],
      "name": "ALR",
      "outputs": [
        {
          "internalType": "contract AskoRiskToken",
          "name": "",
          "type": "address"
        }
      ],
      "stateMutability": "view",
      "type": "function"
    },
    {
      "inputs": [],
      "name": "MMF",
      "outputs": [
        {
          "internalType": "contract MoneyMarketFactoryI",
          "name": "",
          "type": "address"
        }
      ],
      "stateMutability": "view",
      "type": "function"
    },
    {
      "inputs": [],
      "name": "UOF",
      "outputs": [
        {
          "internalType": "contract UniswapOracleFactoryI",
          "name": "",
          "type": "address"
        }
      ],
      "stateMutability": "view",
      "type": "function"
    },
    {
      "inputs": [],
      "name": "asset",
      "outputs": [
        {
          "internalType": "contract IERC20",
          "name": "",
          "type": "address"
        }
      ],
      "stateMutability": "view",
      "type": "function"
    },
    {
      "inputs": [],
      "name": "assetName",
      "outputs": [
        {
          "internalType": "string",
          "name": "",
          "type": "string"
        }
      ],
      "stateMutability": "view",
      "type": "function"
    },
    {
      "inputs": [],
      "name": "assetSymbol",
      "outputs": [
        {
          "internalType": "string",
          "name": "",
          "type": "string"
        }
      ],
      "stateMutability": "view",
      "type": "function"
    },
    {
      "inputs": [],
      "name": "divisor",
      "outputs": [
        {
          "internalType": "uint256",
          "name": "",
          "type": "uint256"
        }
      ],
      "stateMutability": "view",
      "type": "function"
    },
    {
      "inputs": [],
      "name": "fee_AHR",
      "outputs": [
        {
          "internalType": "uint256",
          "name": "",
          "type": "uint256"
        }
      ],
      "stateMutability": "view",
      "type": "function"
    },
    {
      "inputs": [],
      "name": "fee_ALR",
      "outputs": [
        {
          "internalType": "uint256",
          "name": "",
          "type": "uint256"
        }
      ],
      "stateMutability": "view",
      "type": "function"
    },
    {
      "inputs": [],
      "name": "owner",
      "outputs": [
        {
          "internalType": "address",
          "name": "",
          "type": "address"
        }
      ],
      "stateMutability": "view",
      "type": "function"
    },
    {
      "inputs": [],
      "name": "renounceOwnership",
      "outputs": [],
      "stateMutability": "nonpayable",
      "type": "function"
    },
    {
      "inputs": [
        {
          "internalType": "address",
          "name": "newOwner",
          "type": "address"
        }
      ],
      "name": "transferOwnership",
      "outputs": [],
      "stateMutability": "nonpayable",
      "type": "function"
    },
    {
      "inputs": [
        {
          "internalType": "address",
          "name": "_InterestRateModel",
          "type": "address"
        },
        {
          "internalType": "uint256",
          "name": "_fee",
          "type": "uint256"
        },
        {
          "internalType": "uint256",
          "name": "_initialExchangeRate",
          "type": "uint256"
        }
      ],
      "name": "_setUpAHR",
      "outputs": [],
      "stateMutability": "nonpayable",
      "type": "function"
    },
    {
      "inputs": [
        {
          "internalType": "address",
          "name": "_InterestRateModel",
          "type": "address"
        },
        {
          "internalType": "uint256",
          "name": "_fee",
          "type": "uint256"
        },
        {
          "internalType": "uint256",
          "name": "_initialExchangeRate",
          "type": "uint256"
        }
      ],
      "name": "_setUpALR",
      "outputs": [],
      "stateMutability": "nonpayable",
      "type": "function"
    },
    {
      "inputs": [],
      "name": "getAssetAdd",
      "outputs": [
        {
          "internalType": "address",
          "name": "",
          "type": "address"
        }
      ],
      "stateMutability": "view",
      "type": "function"
    },
    {
      "inputs": [
        {
          "internalType": "uint256",
          "name": "_fee",
          "type": "uint256"
        }
      ],
      "name": "setFeeAHR",
      "outputs": [],
      "stateMutability": "nonpayable",
      "type": "function"
    },
    {
      "inputs": [
        {
          "internalType": "uint256",
          "name": "_fee",
          "type": "uint256"
        }
      ],
      "name": "setFeeALR",
      "outputs": [],
      "stateMutability": "nonpayable",
      "type": "function"
    },
    {
      "inputs": [
        {
          "internalType": "uint256",
          "name": "_payedAmount",
          "type": "uint256"
        },
        {
          "internalType": "uint256",
          "name": "_feePercent",
          "type": "uint256"
        }
      ],
      "name": "calculateFee",
      "outputs": [
        {
          "internalType": "uint256",
          "name": "",
          "type": "uint256"
        }
      ],
      "stateMutability": "view",
      "type": "function"
    },
    {
      "inputs": [
        {
          "internalType": "uint256",
          "name": "_amount",
          "type": "uint256"
        }
      ],
      "name": "lendToAHRpool",
      "outputs": [],
      "stateMutability": "nonpayable",
      "type": "function"
    },
    {
      "inputs": [
        {
          "internalType": "uint256",
          "name": "_amount",
          "type": "uint256"
        }
      ],
      "name": "lendToALRpool",
      "outputs": [],
      "stateMutability": "nonpayable",
      "type": "function"
    },
    {
      "inputs": [
        {
          "internalType": "uint256",
          "name": "_amount",
          "type": "uint256"
        },
        {
          "internalType": "address",
          "name": "_collateral",
          "type": "address"
        }
      ],
      "name": "borrow",
      "outputs": [],
      "stateMutability": "nonpayable",
      "type": "function"
    },
    {
      "inputs": [
        {
          "internalType": "uint256",
          "name": "_repayAmount",
          "type": "uint256"
        }
      ],
      "name": "repay",
      "outputs": [],
      "stateMutability": "nonpayable",
      "type": "function"
    },
    {
      "inputs": [
        {
          "internalType": "uint256",
          "name": "_amount",
          "type": "uint256"
        }
      ],
      "name": "collateralizeALR",
      "outputs": [],
      "stateMutability": "nonpayable",
      "type": "function"
    },
    {
      "inputs": [
        {
          "internalType": "address",
          "name": "_inQuestion",
          "type": "address"
        }
      ],
      "name": "checkIfALR",
      "outputs": [
        {
          "internalType": "bool",
          "name": "",
          "type": "bool"
        }
      ],
      "stateMutability": "view",
      "type": "function"
    }
  ],
  "bytecode": "0x60806040523480156200001157600080fd5b50604051620059b8380380620059b8833981810160405260a08110156200003757600080fd5b8151602083015160408085015160608601805192519496939591949391820192846401000000008211156200006b57600080fd5b9083019060208201858111156200008157600080fd5b82516401000000008111828201881017156200009c57600080fd5b82525081516020918201929091019080838360005b83811015620000cb578181015183820152602001620000b1565b50505050905090810190601f168015620000f95780820380516001836020036101000a031916815260200191505b50604052602001805160405193929190846401000000008211156200011d57600080fd5b9083019060208201858111156200013357600080fd5b82516401000000008111828201881017156200014e57600080fd5b82525081516020918201929091019080838360005b838110156200017d57818101518382015260200162000163565b50505050905090810190601f168015620001ab5780820380516001836020036101000a031916815260200191505b506040525050506000620001c46200028860201b60201c565b600080546001600160a01b0319166001600160a01b0383169081178255604051929350917f8be0079c531659141344cd1fd0a4f28419497f9722a3daafe3b4186f6b6457e0908290a3506127106001558151620002299060049060208501906200028d565b5080516200023f9060059060208401906200028d565b5050600a80546001600160a01b039485166001600160a01b031991821617909155600980549385169382169390931790925550600680549390921692169190911790556200032f565b335b90565b828054600181600116156101000203166002900490600052602060002090601f016020900481019282601f10620002d057805160ff191683800117855562000300565b8280016001018555821562000300579182015b8281111562000300578251825591602001919060010190620002e3565b506200030e92915062000312565b5090565b6200028a91905b808211156200030e576000815560010162000319565b615679806200033f6000396000f3fe60806040523480156200001157600080fd5b50600436106200014e5760003560e01c806303438def146200015357806311e2c02f1462000175578063176de7a8146200019b5780631f2dc5ef146200021d5780631f432cf5146200023957806322b2d402146200026e57806334e73122146200028e578063371fd8e614620002b457806338d52e0f14620002d45780634b3fd14814620002de5780634c20ac74146200030d578063551f8b0114620003175780636761284314620003375780636c713a151462000374578063715018a614620003945780638da5cb5b146200039e5780639241cef214620003a8578063c27d4df314620003b2578063c9230c5d14620003bc578063cf0aea8514620003c6578063d162054a14620003e6578063dcc716bd14620003f0578063f2130c701462000425578063f2fde38b146200042f578063f9828b4f1462000458575b600080fd5b62000173600480360360208110156200016b57600080fd5b503562000462565b005b6200017f62000585565b604080516001600160a01b039092168252519081900360200190f35b620001a562000594565b6040805160208082528351818301528351919283929083019185019080838360005b83811015620001e1578181015183820152602001620001c7565b50505050905090810190601f1680156200020f5780820380516001836020036101000a031916815260200191505b509250505060405180910390f35b6200022762000626565b60408051918252519081900360200190f35b62000173600480360360608110156200025157600080fd5b506001600160a01b0381351690602081013590604001356200062c565b62000173600480360360208110156200028657600080fd5b5035620009d2565b6200022760048036036040811015620002a657600080fd5b508035906020013562000b0b565b6200017360048036036020811015620002cc57600080fd5b503562000b41565b6200017f6200125c565b6200017360048036036040811015620002f657600080fd5b50803590602001356001600160a01b03166200126b565b6200017f620017e2565b62000173600480360360208110156200032f57600080fd5b5035620017f1565b62000360600480360360208110156200034f57600080fd5b50356001600160a01b031662001852565b604080519115158252519081900360200190f35b62000173600480360360208110156200038c57600080fd5b5035620018d8565b6200017362001939565b6200017f620019ce565b6200017f620019dd565b6200017f620019ec565b620001a5620019fb565b6200017360048036036020811015620003de57600080fd5b503562001a59565b6200017f62001b92565b62000173600480360360608110156200040857600080fd5b506001600160a01b03813516906020810135906040013562001ba1565b6200022762001f47565b62000173600480360360208110156200044757600080fd5b50356001600160a01b031662001f4d565b620002276200203a565b60085460408051632770a7eb60e21b81523360048201526024810184905290516001600160a01b0390921691639dc29fac9160448082019260009290919082900301818387803b158015620004b657600080fd5b505af1158015620004cb573d6000803e3d6000fd5b50506009546008546040805163b3f643e760e01b81523360048201526001600160a01b03928316602482015260448101879052905191909216935063b3f643e79250606480830192600092919082900301818387803b1580156200052e57600080fd5b505af115801562000543573d6000803e3d6000fd5b5050604080513381526020810185905281517f2ceb23d1a429a36e05e1dd6ebfeceac2b6904c032f15f7648ebd4711510a15f79450908190039091019150a150565b600a546001600160a01b031681565b6005805460408051602060026001851615610100026000190190941693909304601f810184900484028201840190925281815292918301828280156200061e5780601f10620005f2576101008083540402835291602001916200061e565b820191906000526020600020905b8154815290600101906020018083116200060057829003601f168201915b505050505081565b60015481565b6009546001600160a01b031633146200064457600080fd5b816003819055506060604051602001808063416c522d60e01b815250600401905060405160208183030381529060405290508060046040516020018083805190602001908083835b60208310620006ad5780518252601f1990920191602091820191016200068c565b6001836020036101000a038019825116818451168082178552505050505050905001828054600181600116156101000203166002900480156200072a5780601f10620007075761010080835404028352918201916200072a565b820191906000526020600020905b81548152906001019060200180831162000715575b50509250505060405160208183030381529060405290506060604051602001808063416c522d60e01b815250600401905060405160208183030381529060405290508060056040516020018083805190602001908083835b60208310620007a35780518252601f19909201916020918201910162000782565b6001836020036101000a03801982511681845116808217855250505050505090500182805460018160011615610100020316600290048015620008205780601f10620007fd57610100808354040283529182019162000820565b820191906000526020600020905b8154815290600101906020018083116200080b575b505060408051601f1981840301815290829052600654600a546009549297508896508795508b94506001600160a01b03918216939082169290911690869086906001908c9062000870906200228b565b6001600160a01b03808a1682528881166020808401919091528882166040840152908716606083015283151560c083015260e08201839052610100608083018181528751918401919091528651909160a084019161012085019189019080838360005b83811015620008ed578181015183820152602001620008d3565b50505050905090810190601f1680156200091b5780820380516001836020036101000a031916815260200191505b50838103825286518152865160209182019188019080838360005b838110156200095057818101518382015260200162000936565b50505050905090810190601f1680156200097e5780820380516001836020036101000a031916815260200191505b509a5050505050505050505050604051809103906000f080158015620009a8573d6000803e3d6000fd5b50600880546001600160a01b0319166001600160a01b039290921691909117905550505050505050565b600654600854604080516323b872dd60e01b81523360048201526001600160a01b03928316602482015260448101859052905191909216916323b872dd9160648083019260209291908290030181600087803b15801562000a3257600080fd5b505af115801562000a47573d6000803e3d6000fd5b505050506040513d602081101562000a5e57600080fd5b5050600854604080516340c10f1960e01b81523360048201526024810184905290516001600160a01b03909216916340c10f199160448082019260009290919082900301818387803b15801562000ab457600080fd5b505af115801562000ac9573d6000803e3d6000fd5b5050604080513381526020810185905281517f7328ca2a2e824164ca6ec3121966d63601356d01901d9a5d2ee466cb726d1e3c9450908190039091019150a150565b60008062000b3760015462000b2a85876200204090919063ffffffff16565b9063ffffffff620020a516565b9150505b92915050565b600854604080516305eff7ef60e21b815233600482015290516000926001600160a01b0316916317bfdfbc91602480830192602092919082900301818787803b15801562000b8e57600080fd5b505af115801562000ba3573d6000803e3d6000fd5b505050506040513d602081101562000bba57600080fd5b5051600754604080516305eff7ef60e21b815233600482015290519293506000926001600160a01b03909216916317bfdfbc9160248082019260209290919082900301818787803b15801562000c0f57600080fd5b505af115801562000c24573d6000803e3d6000fd5b505050506040513d602081101562000c3b57600080fd5b50519050600062000c53838363ffffffff620020e616565b90508084111562000c6357600080fd5b60008084156200104a5785851062000dbd57600854604080516369a5e8cf60e01b81526004810189905233602482015290516001600160a01b03909216916369a5e8cf916044808201926020929091908290030181600087803b15801562000cca57600080fd5b505af115801562000cdf573d6000803e3d6000fd5b505050506040513d602081101562000cf657600080fd5b5051600654600854604080516323b872dd60e01b81523360048201526001600160a01b0392831660248201526044810185905290519394509116916323b872dd916064808201926020929091908290030181600087803b15801562000d5a57600080fd5b505af115801562000d6f573d6000803e3d6000fd5b505050506040513d602081101562000d8657600080fd5b505060408051338152600060208201528082018890529051600080516020620056248339815191529181900360600190a162001044565b600062000dd1878763ffffffff6200213f16565b600854604080516369a5e8cf60e01b81526004810184905233602482015290519293506001600160a01b03909116916369a5e8cf916044808201926020929091908290030181600087803b15801562000e2957600080fd5b505af115801562000e3e573d6000803e3d6000fd5b505050506040513d602081101562000e5557600080fd5b5051600654600854604080516323b872dd60e01b81523360048201526001600160a01b0392831660248201526044810185905290519395509116916323b872dd916064808201926020929091908290030181600087803b15801562000eb957600080fd5b505af115801562000ece573d6000803e3d6000fd5b505050506040513d602081101562000ee557600080fd5b506000905062000efc888363ffffffff6200213f16565b600754604080516369a5e8cf60e01b81526004810184905233602482015290519293506001600160a01b03909116916369a5e8cf916044808201926020929091908290030181600087803b15801562000f5457600080fd5b505af115801562000f69573d6000803e3d6000fd5b505050506040513d602081101562000f8057600080fd5b5051600654600754604080516323b872dd60e01b81523360048201526001600160a01b0392831660248201526044810185905290519397509116916323b872dd916064808201926020929091908290030181600087803b15801562000fe457600080fd5b505af115801562000ff9573d6000803e3d6000fd5b505050506040513d60208110156200101057600080fd5b505060408051338152602081018690528082018590529051600080516020620056248339815191529181900360600190a150505b62001254565b600754604080516369a5e8cf60e01b81526004810189905233602482015290516001600160a01b03909216916369a5e8cf916044808201926020929091908290030181600087803b1580156200109f57600080fd5b505af1158015620010b4573d6000803e3d6000fd5b505050506040513d6020811015620010cb57600080fd5b5051600654600754604080516323b872dd60e01b81523360048201526001600160a01b0392831660248201526044810185905290519395509116916323b872dd916064808201926020929091908290030181600087803b1580156200112f57600080fd5b505af115801562001144573d6000803e3d6000fd5b505050506040513d60208110156200115b57600080fd5b5050836200122457600954336000818152600c6020908152604080832054600b909252808320548151632c8bad0f60e01b815260048101959095526001600160a01b039283166024860152604485015251931692632c8bad0f92606480820193929182900301818387803b158015620011d357600080fd5b505af1158015620011e8573d6000803e3d6000fd5b5050336000908152600c6020908152604080832080546001600160a01b0319169055600d8252808320805460ff19169055600b90915281205550505b60408051338152602081018490526000818301529051600080516020620056248339815191529181900360600190a15b505050505050565b6006546001600160a01b031681565b336000908152600c60205260409020546001600160a01b0382811691161480620012a55750336000908152600d602052604090205460ff16155b620012af57600080fd5b60095460408051636012b43160e01b81523360048201526001600160a01b03848116602483015291516000939290921691636012b4319160448082019260209290919082900301818787803b1580156200130857600080fd5b505af11580156200131d573d6000803e3d6000fd5b505050506040513d60208110156200133457600080fd5b5051600754604080516305eff7ef60e21b815233600482015290519293506000926001600160a01b03909216916317bfdfbc9160248082019260209290919082900301818787803b1580156200138957600080fd5b505af11580156200139e573d6000803e3d6000fd5b505050506040513d6020811015620013b557600080fd5b5051600854604080516305eff7ef60e21b815233600482015290519293506000926001600160a01b03909216916317bfdfbc9160248082019260209290919082900301818787803b1580156200140a57600080fd5b505af11580156200141f573d6000803e3d6000fd5b505050506040513d60208110156200143657600080fd5b5051905060006200146062001452838863ffffffff620020e616565b849063ffffffff620020e616565b600a546006546040805163fc57d4df60e01b81526001600160a01b0392831660048201529051939450600093919092169163fc57d4df916024808301926020929190829003018186803b158015620014b757600080fd5b505afa158015620014cc573d6000803e3d6000fd5b505050506040513d6020811015620014e357600080fd5b505190506000620014fb828463ffffffff6200204016565b905060006200151282600263ffffffff620020a516565b9050600062001528838363ffffffff620020e616565b9050808810156200153857600080fd5b60006200154d8b600263ffffffff620020a516565b6009546040805163ee82616160e01b81523360048201526001600160a01b038e8116602483015260448201879052915193945091169163ee8261619160648082019260009290919082900301818387803b158015620015ab57600080fd5b505af1158015620015c0573d6000803e3d6000fd5b5050336000908152600b6020526040902054620015e7925090508363ffffffff620020e616565b600b6000336001600160a01b03166001600160a01b031681526020019081526020016000208190555089600c6000336001600160a01b03166001600160a01b0316815260200190815260200160002060006101000a8154816001600160a01b0302191690836001600160a01b031602179055506001600d6000336001600160a01b03166001600160a01b0316815260200190815260200160002060006101000a81548160ff021916908315150217905550600760009054906101000a90046001600160a01b03166001600160a01b0316634b3fd14882336040518363ffffffff1660e01b815260040180838152602001826001600160a01b03166001600160a01b0316815260200192505050600060405180830381600087803b1580156200170e57600080fd5b505af115801562001723573d6000803e3d6000fd5b505060085460408051630967fa2960e31b81526004810186905233602482015290516001600160a01b039092169350634b3fd148925060448082019260009290919082900301818387803b1580156200177b57600080fd5b505af115801562001790573d6000803e3d6000fd5b5050604080513381526020810185905280820185905290517fe1979fe4c35e0cef342fef5668e2c8e7a7e9f5d5d1ca8fee0ac6c427fa4153af9350908190036060019150a15050505050505050505050565b6006546001600160a01b031690565b620017fb62002183565b6000546001600160a01b039081169116146200184d576040805162461bcd60e51b81526020600482018190526024820152600080516020620055e4833981519152604482015290519081900360640190fd5b600355565b60095460408051630dc9cacd60e01b81526001600160a01b03848116600483015291516000939290921691630dc9cacd91602480820192602092909190829003018186803b158015620018a457600080fd5b505afa158015620018b9573d6000803e3d6000fd5b505050506040513d6020811015620018d057600080fd5b505192915050565b620018e262002183565b6000546001600160a01b0390811691161462001934576040805162461bcd60e51b81526020600482018190526024820152600080516020620055e4833981519152604482015290519081900360640190fd5b600255565b6200194362002183565b6000546001600160a01b0390811691161462001995576040805162461bcd60e51b81526020600482018190526024820152600080516020620055e4833981519152604482015290519081900360640190fd5b600080546040516001600160a01b039091169060008051602062005604833981519152908390a3600080546001600160a01b0319169055565b6000546001600160a01b031690565b6007546001600160a01b031681565b6008546001600160a01b031681565b6004805460408051602060026001851615610100026000190190941693909304601f810184900484028201840190925281815292918301828280156200061e5780601f10620005f2576101008083540402835291602001916200061e565b600654600754604080516323b872dd60e01b81523360048201526001600160a01b03928316602482015260448101859052905191909216916323b872dd9160648083019260209291908290030181600087803b15801562001ab957600080fd5b505af115801562001ace573d6000803e3d6000fd5b505050506040513d602081101562001ae557600080fd5b5050600754604080516340c10f1960e01b81523360048201526024810184905290516001600160a01b03909216916340c10f199160448082019260009290919082900301818387803b15801562001b3b57600080fd5b505af115801562001b50573d6000803e3d6000fd5b5050604080513381526020810185905281517f0f82438f3b5c78264c4b6dce428942fd963308db5c690635d87bc654cb811d339450908190039091019150a150565b6009546001600160a01b031681565b6009546001600160a01b0316331462001bb957600080fd5b8160028190555060606040516020018080634148522d60e01b815250600401905060405160208183030381529060405290508060046040516020018083805190602001908083835b6020831062001c225780518252601f19909201916020918201910162001c01565b6001836020036101000a0380198251168184511680821785525050505050509050018280546001816001161561010002031660029004801562001c9f5780601f1062001c7c57610100808354040283529182019162001c9f565b820191906000526020600020905b81548152906001019060200180831162001c8a575b505092505050604051602081830303815290604052905060606040516020018080634148522d60e01b815250600401905060405160208183030381529060405290508060056040516020018083805190602001908083835b6020831062001d185780518252601f19909201916020918201910162001cf7565b6001836020036101000a0380198251168184511680821785525050505050509050018280546001816001161561010002031660029004801562001d955780601f1062001d7257610100808354040283529182019162001d95565b820191906000526020600020905b81548152906001019060200180831162001d80575b505060408051601f1981840301815290829052600654600a546009549297508896508795508b94506001600160a01b03918216939082169290911690869086906000908c9062001de5906200228b565b6001600160a01b03808a1682528881166020808401919091528882166040840152908716606083015283151560c083015260e08201839052610100608083018181528751918401919091528651909160a084019161012085019189019080838360005b8381101562001e6257818101518382015260200162001e48565b50505050905090810190601f16801562001e905780820380516001836020036101000a031916815260200191505b50838103825286518152865160209182019188019080838360005b8381101562001ec557818101518382015260200162001eab565b50505050905090810190601f16801562001ef35780820380516001836020036101000a031916815260200191505b509a5050505050505050505050604051809103906000f08015801562001f1d573d6000803e3d6000fd5b50600780546001600160a01b0319166001600160a01b039290921691909117905550505050505050565b60025481565b62001f5762002183565b6000546001600160a01b0390811691161462001fa9576040805162461bcd60e51b81526020600482018190526024820152600080516020620055e4833981519152604482015290519081900360640190fd5b6001600160a01b03811662001ff05760405162461bcd60e51b81526004018080602001828103825260268152602001806200559d6026913960400191505060405180910390fd5b600080546040516001600160a01b03808516939216916000805160206200560483398151915291a3600080546001600160a01b0319166001600160a01b0392909216919091179055565b60035481565b600082620020515750600062000b3b565b828202828482816200205f57fe5b04146200209e5760405162461bcd60e51b8152600401808060200182810382526021815260200180620055c36021913960400191505060405180910390fd5b9392505050565b60006200209e83836040518060400160405280601a815260200179536166654d6174683a206469766973696f6e206279207a65726f60301b81525062002187565b6000828201838110156200209e576040805162461bcd60e51b815260206004820152601b60248201527a536166654d6174683a206164646974696f6e206f766572666c6f7760281b604482015290519081900360640190fd5b60006200209e83836040518060400160405280601e81526020017f536166654d6174683a207375627472616374696f6e206f766572666c6f7700008152506200222e565b3390565b60008183620022175760405162461bcd60e51b81526004018080602001828103825283818151815260200191508051906020019080838360005b83811015620021db578181015183820152602001620021c1565b50505050905090810190601f168015620022095780820380516001836020036101000a031916815260200191505b509250505060405180910390fd5b5060008385816200222457fe5b0495945050505050565b60008184841115620022835760405162461bcd60e51b8152602060048201818152835160248401528351909283926044909101919085019080838360008315620021db578181015183820152602001620021c1565b505050900390565b613303806200229a8339019056fe608060405266038d7ea4c68000600d553480156200001c57600080fd5b50604051620033033803806200330383398181016040526101008110156200004357600080fd5b81516020830151604080850151606086015160808701805193519597949692959194919392820192846401000000008211156200007f57600080fd5b9083019060208201858111156200009557600080fd5b8251640100000000811182820188101715620000b057600080fd5b82525081516020918201929091019080838360005b83811015620000df578181015183820152602001620000c5565b50505050905090810190601f1680156200010d5780820380516001836020036101000a031916815260200191505b50604052602001805160405193929190846401000000008211156200013157600080fd5b9083019060208201858111156200014757600080fd5b82516401000000008111828201881017156200016257600080fd5b82525081516020918201929091019080838360005b838110156200019157818101518382015260200162000177565b50505050905090810190601f168015620001bf5780820380516001836020036101000a031916815260200191505b5060409081526020820151910151909250905083836000620001e96001600160e01b036200038f16565b600080546001600160a01b0319166001600160a01b0383169081178255604051929350917f8be0079c531659141344cd1fd0a4f28419497f9722a3daafe3b4186f6b6457e0908290a35081516200024890600490602085019062000398565b5080516200025e90600590602084019062000398565b506012600660006101000a81548160ff021916908360ff160217905550505086600e60016101000a8154816001600160a01b0302191690836001600160a01b0316021790555033601060006101000a8154816001600160a01b0302191690836001600160a01b0316021790555087600f60006101000a8154816001600160a01b0302191690836001600160a01b0316021790555085601260006101000a8154816001600160a01b0302191690836001600160a01b0316021790555084601160006101000a8154816001600160a01b0302191690836001600160a01b0316021790555081600e60006101000a81548160ff02191690831515021790555080600781905550620003716200039460201b60201c565b6009555050670de0b6b3a7640000600a55506200043a945050505050565b335b90565b4390565b828054600181600116156101000203166002900490600052602060002090601f016020900481019282601f10620003db57805160ff19168380011785556200040b565b828001600101855582156200040b579182015b828111156200040b578251825591602001919060010190620003ee565b50620004199291506200041d565b5090565b6200039191905b8082111562000419576000815560010162000424565b612eb9806200044a6000396000f3fe608060405234801561001057600080fd5b50600436106102515760003560e01c806306fdde0314610256578063095ea7b3146102d357806311e2c02f14610313578063127bc30614610337578063173b99041461037557806317bfdfbc1461038f57806318160ddd146103b557806323b872dd146103bd57806325e69180146103f3578063313ce5671461042f57806338d52e0f1461044d57806339509351146104555780633af9e669146104815780633b1d21a2146104a757806340c10f19146104af57806341f41189146104db57806347bd3718146105015780634ada90af146105095780634b3fd148146105115780634c20ac741461053d578063503d37ea1461054557806369a5e8cf1461054d5780636c540baf1461057957806370a0823114610581578063715018a6146105a757806373acee98146105af5780637746efab146105b757806377e4974d146105dd5780638da5cb5b146105e55780638f840ddd146105ed57806395d89b41146105f55780639dc29fac146105fd5780639f560dd514610629578063a275370d14610631578063a457c2d714610639578063a6afed9514610665578063a9059cbb1461066d578063aa5af0fd14610699578063ae9d70b0146106a1578063bd6d894d146106a9578063c37f68e2146106b1578063c5d9bf71146106f5578063cd5c6f57146106fd578063d162054a14610705578063db006a751461070d578063dd62ed3e1461072a578063e778bc2114610758578063ee27a2f21461077e578063f2fde38b14610786578063f3fdb15a146107ac578063f8f9da28146107b4575b600080fd5b61025e6107bc565b6040805160208082528351818301528351919283929083019185019080838360005b83811015610298578181015183820152602001610280565b50505050905090810190601f1680156102c55780820380516001836020036101000a031916815260200191505b509250505060405180910390f35b6102ff600480360360408110156102e957600080fd5b506001600160a01b038135169060200135610853565b604080519115158252519081900360200190f35b61031b610871565b604080516001600160a01b039092168252519081900360200190f35b6103736004803603608081101561034d57600080fd5b508035906001600160a01b03602082013581169160408101359091169060600135610880565b005b61037d610a70565b60408051918252519081900360200190f35b61037d600480360360208110156103a557600080fd5b50356001600160a01b0316610a76565b61037d610a8f565b6102ff600480360360608110156103d357600080fd5b506001600160a01b03813581169160208101359091169060400135610a95565b6103736004803603608081101561040957600080fd5b506001600160a01b03813581169160208101358216916040820135169060600135610b22565b6104376111dc565b6040805160ff9092168252519081900360200190f35b61031b6111e5565b6102ff6004803603604081101561046b57600080fd5b506001600160a01b0381351690602001356111f9565b61037d6004803603602081101561049757600080fd5b50356001600160a01b031661124d565b61037d6112aa565b610373600480360360408110156104c557600080fd5b506001600160a01b0381351690602001356112b9565b610373600480360360208110156104f157600080fd5b50356001600160a01b0316611380565b61037d6113f6565b61037d6113fc565b6103736004803603604081101561052757600080fd5b50803590602001356001600160a01b0316611402565b61031b6115a3565b61037d6115b7565b61037d6004803603604081101561056357600080fd5b50803590602001356001600160a01b03166115d4565b61037d611733565b61037d6004803603602081101561059757600080fd5b50356001600160a01b0316611739565b610373611754565b61037d6117e4565b61037d600480360360208110156105cd57600080fd5b50356001600160a01b03166117f5565b6102ff611898565b61031b6118a1565b61037d6118b0565b61025e6118b6565b6103736004803603604081101561061357600080fd5b506001600160a01b038135169060200135611917565b61037d611980565b61037d611991565b6102ff6004803603604081101561064f57600080fd5b506001600160a01b03813516906020013561199d565b610373611a0b565b6102ff6004803603604081101561068357600080fd5b506001600160a01b038135169060200135611be6565b61037d611bfa565b61037d611c00565b61037d611c9f565b6106d7600480360360208110156106c757600080fd5b50356001600160a01b0316611d08565b60408051938452602084019290925282820152519081900360600190f35b61031b611d3e565b61037d611d4d565b61031b611d57565b6103736004803603602081101561072357600080fd5b5035611d66565b61037d6004803603604081101561074057600080fd5b506001600160a01b0381358116916020013516611ec0565b61037d6004803603602081101561076e57600080fd5b50356001600160a01b0316611eeb565b61037d611f08565b6103736004803603602081101561079c57600080fd5b50356001600160a01b0316611f12565b61031b611ff8565b61037d612007565b60048054604080516020601f60026000196101006001881615020190951694909404938401819004810282018101909252828152606093909290918301828280156108485780601f1061081d57610100808354040283529160200191610848565b820191906000526020600020905b81548152906001019060200180831161082b57829003601f168201915b505050505090505b90565b600061086761086061206b565b848461206f565b5060015b92915050565b6012546001600160a01b031681565b60105460408051636761284360e01b815233600482015290516001600160a01b0390921691636761284391602480820192602092909190829003018186803b1580156108cb57600080fd5b505afa1580156108df573d6000803e3d6000fd5b505050506040513d60208110156108f557600080fd5b505161090057600080fd5b6000610917600d548661215b90919063ffffffff16565b905060006109236121bb565b9050600061095661093a888563ffffffff61220b16565b61094a848763ffffffff61220b16565b9063ffffffff61220b16565b600e546040805163a9059cbb60e01b81526001600160a01b038981166004830152602482018890529151939450610100909204169163a9059cbb916044808201926020929091908290030181600087803b1580156109b357600080fd5b505af11580156109c7573d6000803e3d6000fd5b505050506040513d60208110156109dd57600080fd5b5050600e546040805163a9059cbb60e01b81526001600160a01b0389811660048301526024820185905291516101009093049091169163a9059cbb916044808201926020929091908290030181600087803b158015610a3b57600080fd5b505af1158015610a4f573d6000803e3d6000fd5b505050506040513d6020811015610a6557600080fd5b505050505050505050565b60085481565b6000610a80611a0b565b610a89826117f5565b50919050565b60035490565b6000610aa284848461224d565b610b1884610aae61206b565b610b1385604051806060016040528060288152602001612d6d602891396001600160a01b038a16600090815260026020526040812090610aec61206b565b6001600160a01b03168152602081019190915260400160002054919063ffffffff6123a416565b61206f565b5060019392505050565b6001600160a01b038416600090815260146020526040902054610b4d9061070863ffffffff61243b16565b421015610b5957600080fd5b610b61612b9e565b826001600160a01b0316634c20ac746040518163ffffffff1660e01b815260040160206040518083038186803b158015610b9a57600080fd5b505afa158015610bae573d6000803e3d6000fd5b505050506040513d6020811015610bc457600080fd5b50516001600160a01b03908116602083810191909152601254600e546040805163fc57d4df60e01b81526101009092048516600483015251600094929092169263fc57d4df92602480840193829003018186803b158015610c2457600080fd5b505afa158015610c38573d6000803e3d6000fd5b505050506040513d6020811015610c4e57600080fd5b50516012546020848101516040805163fc57d4df60e01b81526001600160a01b0392831660048201529051949550600094919093169263fc57d4df926024808301939192829003018186803b158015610ca657600080fd5b505afa158015610cba573d6000803e3d6000fd5b505050506040513d6020811015610cd057600080fd5b505190508115801590610ce257508015155b610ceb57600080fd5b610cf487610a76565b60408401819052610d0b908363ffffffff61215b16565b608084015260115460208085015160408051636012b43160e01b81526001600160a01b038c81166004830152928316602482015290519190931692636012b4319260448083019391928290030181600087803b158015610d6a57600080fd5b505af1158015610d7e573d6000803e3d6000fd5b505050506040513d6020811015610d9457600080fd5b505160c08401526080830151610db190600263ffffffff61249316565b60e084018190526080840151610dcc9163ffffffff61243b16565b60a0840181905260c08401511161118357610de5611c9f565b610100840152610df3612c03565b610dfb612c03565b610e03612c03565b6000610e11600d54876124d2565b8095508192505050610e28858861010001516124d2565b93509050610e36848461250e565b92509050610e448289612526565b88610120018181525081925050506000896001600160a01b0316633b1d21a26040518163ffffffff1660e01b815260040160206040518083038186803b158015610e8d57600080fd5b505afa158015610ea1573d6000803e3d6000fd5b505050506040513d6020811015610eb757600080fd5b81019080805190602001909291905050509050601260009054906101000a90046001600160a01b03166001600160a01b031663f0defe93600e60019054906101000a90046001600160a01b03168a602001518d8c61012001518d604001516040518663ffffffff1660e01b815260040180866001600160a01b03166001600160a01b03168152602001856001600160a01b03166001600160a01b03168152602001846001600160a01b03166001600160a01b0316815260200183815260200182815260200195505050505050600060405180830381600087803b158015610f9d57600080fd5b505af1158015610fb1573d6000803e3d6000fd5b5050506040808a0151815163093de18360e11b815260048101919091526001600160a01b038f811660248301528e81166044830152606482018590529151918d16925063127bc30691608480830192600092919082900301818387803b15801561101a57600080fd5b505af115801561102e573d6000803e3d6000fd5b50505050601160009054906101000a90046001600160a01b03166001600160a01b0316636a8394ad8d8c8b61012001516040518463ffffffff1660e01b815260040180846001600160a01b03166001600160a01b03168152602001836001600160a01b03166001600160a01b031681526020018281526020019350505050600060405180830381600087803b1580156110c657600080fd5b505af11580156110da573d6000803e3d6000fd5b505050507f5c23ea591f56ead8def3c6093151c00b81ae725fd9dc1df332ecbb05d7ffca138c338b308e60405180866001600160a01b03166001600160a01b03168152602001856001600160a01b03166001600160a01b03168152602001848152602001836001600160a01b03166001600160a01b03168152602001826001600160a01b03166001600160a01b031681526020019550505050505060405180910390a150505050505b6001600160a01b038716600081815260146020908152604080832092909255815192835290517f8b90ad01289e9e1ff6adb7d9daaab5be066e59551bf4750452652c245633921a9281900390910190a150505050505050565b60065460ff1690565b600e5461010090046001600160a01b031681565b600061086761120661206b565b84610b13856002600061121761206b565b6001600160a01b03908116825260208083019390935260409182016000908120918c16815292529020549063ffffffff61243b16565b6000611257612c03565b604051806020016040528061126a611c9f565b905290506000806112838361127e87611739565b612526565b9092509050600082600381111561129657fe5b146112a057600080fd5b925050505b919050565b60006112b46121bb565b905090565b6010546001600160a01b031633146112d057600080fd5b6112d8612c16565b6112e0611c9f565b602080830191825260408051918201905290518152611300908390612579565b604083018190528282600381111561131457fe5b600381111561131f57fe5b8152505050611332838260400151612590565b60408082015181516001600160a01b0386168152602081019190915281517f30385c845b448a36257a6a1716e6ad2e1bc2cbe333cde1e69fe849ad6511adfe929181900390910190a1505050565b6001600160a01b038116600090815260146020526040902054156113a357600080fd5b6001600160a01b038116600081815260146020908152604091829020429055815192835290517f3b3501fe4aad385ff06e57c56ea31e3b02a720dba8cc5caf692583515db8412f9281900390910190a150565b600b5481565b600d5481565b6010546001600160a01b0316331461141957600080fd5b611421611a0b565b8161142a6121bb565b1161143457600080fd5b61143c612c38565b61144582610a76565b60208201819052611456908461267c565b604083018190528282600381111561146a57fe5b600381111561147557fe5b8152505050611486600b548461267c565b606083018190528282600381111561149a57fe5b60038111156114a557fe5b905250506040808201516001600160a01b03808516600081815260136020908152858220948555600a546001909501949094556060860151600b55600e54855163a9059cbb60e01b815260048101939093526024830189905294516101009095049092169363a9059cbb9360448084019491938390030190829087803b15801561152e57600080fd5b505af1158015611542573d6000803e3d6000fd5b505050506040513d602081101561155857600080fd5b5050604080516001600160a01b03841681526020810185905281517fac59582e5396aca512fa873a2047e7f4c80f8f55d4a06cb34a78a0187f62719f929181900390910190a1505050565b600e5461010090046001600160a01b031690565b60006112b4622433946115c8612007565b9063ffffffff61215b16565b6010546000906001600160a01b031633146115ee57600080fd5b6115f6611a0b565b6115fe612c61565b6001600160a01b03831660009081526013602052604090819020600101549082015261162983610a76565b606082015283611642576060810151602082015261164a565b602081018490525b61165c816060015182602001516126a2565b608083018190528282600381111561167057fe5b600381111561167b57fe5b8152505050611690600b5482602001516126a2565b60a08301819052828260038111156116a457fe5b60038111156116af57fe5b9052505060808101516001600160a01b038416600081815260136020908152604091829020938455600a5460019094019390935560a0840151600b558284015181519283529282019290925281517f4792e4d6a0dabb47a2ac2b2fb3ab426c2e1a5e3cab374282d855ac6cb03a5712929181900390910190a1602001519392505050565b60095481565b6001600160a01b031660009081526001602052604090205490565b61175c61206b565b6000546001600160a01b039081169116146117ac576040805162461bcd60e51b81526020600482018190526024820152600080516020612d95833981519152604482015290519081900360640190fd5b600080546040516001600160a01b0390911690600080516020612db5833981519152908390a3600080546001600160a01b0319169055565b60006117ee611a0b565b50600b5490565b6001600160a01b03811660009081526013602052604081208054829182918291906118275760009450505050506112a5565b6118378160000154600a546126c5565b9094509250600084600381111561184a57fe5b1461185c5760009450505050506112a5565b61186a838260010154612704565b9094509150600084600381111561187d57fe5b1461188f5760009450505050506112a5565b50949350505050565b600e5460ff1681565b6000546001600160a01b031690565b600c5481565b60058054604080516020601f60026000196101006001881615020190951694909404938401819004810282018101909252828152606093909290918301828280156108485780601f1061081d57610100808354040283529160200191610848565b6010546001600160a01b0316331461192e57600080fd5b611938828261272f565b604080516001600160a01b03841681526020810183905281517fcc16f5dbb4873280815c1ee09dbd06736cffcc184412cf7a71a0fdb75d397ca5929181900390910190a15050565b60006112b4622433946115c8611c00565b670de0b6b3a764000081565b60006108676119aa61206b565b84610b1385604051806060016040528060258152602001612e5f60259139600260006119d461206b565b6001600160a01b03908116825260208083019390935260409182016000908120918d1681529252902054919063ffffffff6123a416565b6000611a15612825565b6009549091506000611a256121bb565b600b54600c54600a549293509091848614611bde57600f54604080516315f2405360e01b815260048101879052602481018690526044810185905290516000926001600160a01b0316916315f24053916064808301926020929190829003018186803b158015611a9457600080fd5b505afa158015611aa8573d6000803e3d6000fd5b505050506040513d6020811015611abe57600080fd5b5051905065048c27395000811115611ad557600080fd5b600080611ae289896126a2565b91509150611aee612c03565b600080600080611b0c60405180602001604052808a81525087612829565b9097509450611b1b858c612526565b9097509350611b2a848c61267c565b604080516020810190915260085481529198509350611b4a90858c612891565b9097509150611b5a858a80612891565b80925081985050508d60098190555080600a8190555082600b8190555081600c819055507fe3972ae250606e82c6683843383cb8a51755588d2f443af42e8cb5b1e085392d600954600a54600b54600c546040518085815260200184815260200183815260200182815260200194505050505060405180910390a150505050505050505b505050505050565b6000610867611bf361206b565b848461224d565b600a5481565b600f546000906001600160a01b031663b8168816611c1c6121bb565b600b54600c546008546040518563ffffffff1660e01b81526004018085815260200184815260200183815260200182815260200194505050505060206040518083038186803b158015611c6e57600080fd5b505afa158015611c82573d6000803e3d6000fd5b505050506040513d6020811015611c9857600080fd5b5051905090565b6000611ca9611a0b565b611cb1610a8f565b611cbe5750600754610850565b6000611cc86121bb565b90506000611cd4612c03565b6000611ce584600b54600c546128ed565b93509050611cfa83611cf5610a8f565b61292b565b519550610850945050505050565b600080600080611d1785611739565b90506000611d2486610a76565b90506000611d30611c9f565b929791965091945092505050565b6010546001600160a01b031681565b6000611cb1610a8f565b6011546001600160a01b031681565b611d6e611a0b565b80611d7857600080fd5b611d80612c16565b611d88611c9f565b6020820152611d97338361272f565b611db36040518060200160405280836020015181525083612526565b6040830181905282826003811115611dc757fe5b6003811115611dd257fe5b905250506040810151611de36121bb565b1015611dee57600080fd5b600e54604082810151815163a9059cbb60e01b8152336004820152602481019190915290516101009092046001600160a01b03169163a9059cbb916044808201926020929091908290030181600087803b158015611e4b57600080fd5b505af1158015611e5f573d6000803e3d6000fd5b505050506040513d6020811015611e7557600080fd5b50506040808201518151338152602081018590528083019190915290517ff3a670cd3af7d64b488926880889d08a8585a138ff455227af6737339a1ec2629181900360600190a15050565b6001600160a01b03918216600090815260026020908152604080832093909416825291909152205490565b6000611ef5612c03565b604051806020016040528061126a611d4d565b65048c2739500081565b611f1a61206b565b6000546001600160a01b03908116911614611f6a576040805162461bcd60e51b81526020600482018190526024820152600080516020612d95833981519152604482015290519081900360640190fd5b6001600160a01b038116611faf5760405162461bcd60e51b8152600401808060200182810382526026815260200180612cde6026913960400191505060405180910390fd5b600080546040516001600160a01b0380851693921691600080516020612db583398151915291a3600080546001600160a01b0319166001600160a01b0392909216919091179055565b600f546001600160a01b031681565b600f546000906001600160a01b03166315f240536120236121bb565b600b54600c546040518463ffffffff1660e01b815260040180848152602001838152602001828152602001935050505060206040518083038186803b158015611c6e57600080fd5b3390565b6001600160a01b0383166120b45760405162461bcd60e51b8152600401808060200182810382526024815260200180612e3b6024913960400191505060405180910390fd5b6001600160a01b0382166120f95760405162461bcd60e51b8152600401808060200182810382526022815260200180612d046022913960400191505060405180910390fd5b6001600160a01b03808416600081815260026020908152604080832094871680845294825291829020859055815185815291517f8c5be1e5ebec7d5bd14f71427d1e84f3dd0314c0f7b2291e5b200ac8c7c3b9259281900390910190a3505050565b60008261216a5750600061086b565b8282028284828161217757fe5b04146121b45760405162461bcd60e51b8152600401808060200182810382526021815260200180612d4c6021913960400191505060405180910390fd5b9392505050565b600e54604080516370a0823160e01b8152306004820152905160009261010090046001600160a01b0316916370a08231916024808301926020929190829003018186803b158015611c6e57600080fd5b60006121b483836040518060400160405280601e81526020017f536166654d6174683a207375627472616374696f6e206f766572666c6f7700008152506123a4565b6001600160a01b0383166122925760405162461bcd60e51b8152600401808060200182810382526025815260200180612e166025913960400191505060405180910390fd5b6001600160a01b0382166122d75760405162461bcd60e51b8152600401808060200182810382526023815260200180612c996023913960400191505060405180910390fd5b6122e28383836129dc565b61232581604051806060016040528060268152602001612d26602691396001600160a01b038616600090815260016020526040902054919063ffffffff6123a416565b6001600160a01b03808516600090815260016020526040808220939093559084168152205461235a908263ffffffff61243b16565b6001600160a01b038084166000818152600160209081526040918290209490945580518581529051919392871692600080516020612dd583398151915292918290030190a3505050565b600081848411156124335760405162461bcd60e51b81526004018080602001828103825283818151815260200191508051906020019080838360005b838110156123f85781810151838201526020016123e0565b50505050905090810190601f1680156124255780820380516001836020036101000a031916815260200191505b509250505060405180910390fd5b505050900390565b6000828201838110156121b4576040805162461bcd60e51b815260206004820152601b60248201527a536166654d6174683a206164646974696f6e206f766572666c6f7760281b604482015290519081900360640190fd5b60006121b483836040518060400160405280601a815260200179536166654d6174683a206469766973696f6e206279207a65726f60301b8152506129e1565b60006124dc612c03565b612502604051806020016040528086815250604051806020016040528086815250612a46565b915091505b9250929050565b6000612518612c03565b83518351612502919061292b565b6000806000612533612c03565b61253d8686612829565b9092509050600082600381111561255057fe5b146125615750915060009050612507565b600061256c82612b30565b9350935050509250929050565b6000806000612586612c03565b61253d8686612b3f565b6001600160a01b0382166125eb576040805162461bcd60e51b815260206004820152601f60248201527f45524332303a206d696e7420746f20746865207a65726f206164647265737300604482015290519081900360640190fd5b6125f7600083836129dc565b60035461260a908263ffffffff61243b16565b6003556001600160a01b038216600090815260016020526040902054612636908263ffffffff61243b16565b6001600160a01b0383166000818152600160209081526040808320949094558351858152935192939192600080516020612dd58339815191529281900390910190a35050565b60008083830184811061269457600092509050612507565b506002915060009050612507565b6000808383116126b9575060009050818303612507565b50600390506000612507565b600080836126d857506000905080612507565b838302838582816126e557fe5b04146126f957506002915060009050612507565b600092509050612507565b600080826127185750600190506000612507565b600083858161272357fe5b04915091509250929050565b6001600160a01b0382166127745760405162461bcd60e51b8152600401808060200182810382526021815260200180612df56021913960400191505060405180910390fd5b612780826000836129dc565b6127c381604051806060016040528060228152602001612cbc602291396001600160a01b038516600090815260016020526040902054919063ffffffff6123a416565b6001600160a01b0383166000908152600160205260409020556003546127ef908263ffffffff61220b16565b6003556040805182815290516000916001600160a01b03851691600080516020612dd58339815191529181900360200190a35050565b4390565b6000612833612c03565b6000806128448660000151866126c5565b9092509050600082600381111561285757fe5b1461287657506040805160208101909152600081529092509050612507565b60408051602081019091529081526000969095509350505050565b600080600061289e612c03565b6128a88787612829565b909250905060008260038111156128bb57fe5b146128cc57509150600090506128e5565b6128de6128d882612b30565b8661267c565b9350935050505b935093915050565b6000806000806128fd878761267c565b9092509050600082600381111561291057fe5b1461292157509150600090506128e5565b6128de81866126a2565b6000612935612c03565b60008061294a86670de0b6b3a76400006126c5565b9092509050600082600381111561295d57fe5b1461297c57506040805160208101909152600081529092509050612507565b6000806129898388612704565b9092509050600082600381111561299c57fe5b146129bf5781604051806020016040528060008152509550955050505050612507565b604080516020810190915290815260009890975095505050505050565b505050565b60008183612a305760405162461bcd60e51b81526020600482018181528351602484015283519092839260449091019190850190808383600083156123f85781810151838201526020016123e0565b506000838581612a3c57fe5b0495945050505050565b6000612a50612c03565b600080612a65866000015186600001516126c5565b90925090506000826003811115612a7857fe5b14612a9757506040805160208101909152600081529092509050612507565b600080612aac6706f05b59d3b200008461267c565b90925090506000826003811115612abf57fe5b14612ae25781604051806020016040528060008152509550955050505050612507565b600080612af783670de0b6b3a7640000612704565b90925090506000826003811115612b0a57fe5b14612b1157fe5b604080516020810190915290815260009a909950975050505050505050565b51670de0b6b3a7640000900490565b6000612b49612c03565b600080612b5e670de0b6b3a7640000876126c5565b90925090506000826003811115612b7157fe5b14612b9057506040805160208101909152600081529092509050612507565b61256c81866000015161292b565b60405180610140016040528060006001600160a01b0316815260200160006001600160a01b0316815260200160008152602001600081526020016000815260200160008152602001600081526020016000815260200160008152602001600081525090565b6040518060200160405280600081525090565b6040805160608101909152806000815260200160008152602001600081525090565b604080516080810190915280600081526020016000815260200160008152602001600081525090565b6040805160c0810190915280600081526020016000815260200160008152602001600081526020016000815260200160008152509056fe45524332303a207472616e7366657220746f20746865207a65726f206164647265737345524332303a206275726e20616d6f756e7420657863656564732062616c616e63654f776e61626c653a206e6577206f776e657220697320746865207a65726f206164647265737345524332303a20617070726f766520746f20746865207a65726f206164647265737345524332303a207472616e7366657220616d6f756e7420657863656564732062616c616e6365536166654d6174683a206d756c7469706c69636174696f6e206f766572666c6f7745524332303a207472616e7366657220616d6f756e74206578636565647320616c6c6f77616e63654f776e61626c653a2063616c6c6572206973206e6f7420746865206f776e65728be0079c531659141344cd1fd0a4f28419497f9722a3daafe3b4186f6b6457e0ddf252ad1be2c89b69c2b068fc378daa952ba7f163c4a11628f55a4df523b3ef45524332303a206275726e2066726f6d20746865207a65726f206164647265737345524332303a207472616e736665722066726f6d20746865207a65726f206164647265737345524332303a20617070726f76652066726f6d20746865207a65726f206164647265737345524332303a2064656372656173656420616c6c6f77616e63652062656c6f77207a65726fa264697066735822122041f439e7e42fe85bf786b16c0cd261b3c4c58d52dae807984ac828300319d34364736f6c634300060600334f776e61626c653a206e6577206f776e657220697320746865207a65726f2061646472657373536166654d6174683a206d756c7469706c69636174696f6e206f766572666c6f774f776e61626c653a2063616c6c6572206973206e6f7420746865206f776e65728be0079c531659141344cd1fd0a4f28419497f9722a3daafe3b4186f6b6457e02a6c148cdc9347a81dfbfe504afb64ea0aeca1114171ef18a3e11cb1fda8b3a6a264697066735822122096aa62b78d2e823ffbb369b2269b0c59b736c1cc9fcc57c5886ab9444346c70d64736f6c63430006060033",
  "immutableReferences": {},
  "source": "pragma solidity ^0.6.0;\n\nimport \"@openzeppelin/contracts/access/Ownable.sol\";\nimport \"@openzeppelin/contracts/math/SafeMath.sol\";\nimport \"@openzeppelin/contracts/token/ERC20/IERC20.sol\";\nimport \"./compound/Exponential.sol\";\nimport \"./interfaces/UniswapOracleFactoryI.sol\";\nimport \"./interfaces/MoneyMarketFactoryI.sol\";\nimport \"./AskoRiskToken.sol\";\n\n////////////////////////////////////////////////////////////////////////////////////////////\n/// @title MoneyMarketInstance\n/// @author Christopher Dixon\n////////////////////////////////////////////////////////////////////////////////////////////\n/**\nThe MoneyMarketInstance contract is designed facilitate a tiered money market for an individual ERC20 asset\nThis contract uses the OpenZeppelin contract Library to inherit functions from\n  Ownable.sol && IRC20.sol\n**/\ncontract MoneyMarketInstance is Ownable, Exponential {\n    using SafeMath for uint256;\n\n    uint256 public divisor;\n    uint256 public fee_AHR;\n    uint256 public fee_ALR;\n\n    string public assetName;\n    string public assetSymbol;\n\n    IERC20 public asset;\n    AskoRiskToken public AHR;\n    AskoRiskToken public ALR;\n    MoneyMarketFactoryI public MMF;\n    UniswapOracleFactoryI public UOF;\n\n    mapping(address => uint256) lockedCollateral;\n    mapping(address => address) collateralLockedALR;\n    mapping(address => bool) cantCollateralize;\n    /**\n@notice onlyMMFactory is a modifier used to make a function only callable by the Money Market Factory contract\n**/\n    modifier onlyMMFactory() {\n        require(msg.sender == address(MMF));\n        _;\n    }\n\n    event LentToAHR(address lender, uint256 amount);\n    event LentToALR(address lender, uint256 amount);\n    event Borrow(address borrower, uint256 AHRamount, uint256 ALRamount);\n    event Repayed(address borrower, uint256 AHRamount, uint256 ALRamount);\n    event Collateralized(address collateralizer, uint256 amount);\n\n    /**\n@notice the constructor function is fired during the contract deployment process. The constructor can only be fired once and\n        is used to initialize the MoneyMakerInstance and deploy its associated AHR && ALR token contracts\n@param _assetContractAdd is the address of the ERC20 asset being whitelisted\n@param _assetName is the name of the asset(e.x: ChainLink)\n@param _assetSymbol is the symbol of the asset(e.x: LINK)\n@dev this function uses ABI encoding to properly concatenate AHR- && ALR- in front of the tokens name and symbol\n      before creating each token.\n**/\n    constructor(\n        address _assetContractAdd,\n        address _oracleFactory,\n        address _owner,\n        string memory _assetName,\n        string memory _assetSymbol\n    ) public {\n        divisor = 10000;\n        assetName = _assetName;\n        assetSymbol = _assetSymbol;\n        UOF = UniswapOracleFactoryI(_oracleFactory);\n        MMF = MoneyMarketFactoryI(_owner);\n        asset = IERC20(_assetContractAdd);\n    }\n\n    /**\n@notice setUp is called by the MoneyMarketFactory after a contract is created to set up the initial variables.\n        This is split from the constructor function to keep from reaching the gas block limit\n@param  _InterestRateModel is the address of this MoneyMarketInstances InterestRateModel\n@param _fee is a number representing the fee for exchanging an AHR token, as a mantissa (scaled by 1e18)\n@dev this function will create a token whos name and symbol is concatenated with a \"AHR-\" in front of it\n      example: AHR-LINK\n@dev asset.approve() is called to allow the AHR contract to freeely transfer the assset from this contract when the mint\n      lendToAHRpool function is called.\n**/\n    function _setUpAHR(\n        address _InterestRateModel,\n        uint256 _fee,\n        uint256 _initialExchangeRate\n    ) public onlyMMFactory {\n        fee_AHR = _fee;\n        bytes memory ahrname = abi.encodePacked(\"AHR-\");\n        ahrname = abi.encodePacked(ahrname, assetName);\n        //abi encode and concat strings\n        bytes memory ahrsymbol = abi.encodePacked(\"AHR-\");\n        ahrsymbol = abi.encodePacked(ahrsymbol, assetSymbol);\n        //abi encode and concat strings\n        string memory assetNameAHR = string(ahrname);\n        string memory assetSymbolAHR = string(ahrsymbol);\n        //un-encode concated string\n        AHR = new AskoRiskToken( //creates new Asko High Risk Token Contract\n            _InterestRateModel,\n            address(asset),\n            address(UOF),\n            address(MMF),\n            assetNameAHR,\n            assetSymbolAHR,\n            false,\n            _initialExchangeRate\n        );\n    }\n\n    /**\n@notice setUp is called by the MoneyMarketFactory after a contract is created to set up the initial variables.\n        This is split from the constructor function to keep from reaching the gas block limit\n@param  _InterestRateModel is the address of this MoneyMarketInstances InterestRateModel\n@param _fee is a number representing the fee for exchanging an ALR token, as a mantissa (scaled by 1e18)\n@dev this function will create a token whos name and symbol is concatenated with a \"ALR-\" in front of it\n      example: ALR-LINK\n@dev asset.approve() is called to allow the ALR contract to freeely transfer the assset from this contract when the mint\n      lendToALRpool function is called.\n**/\n    function _setUpALR(\n        address _InterestRateModel,\n        uint256 _fee,\n        uint256 _initialExchangeRate\n    ) public onlyMMFactory {\n        fee_ALR = _fee;\n        bytes memory alrname = abi.encodePacked(\"AlR-\");\n        alrname = abi.encodePacked(alrname, assetName);\n        //abi encode and concat strings\n        bytes memory alrsymbol = abi.encodePacked(\"AlR-\");\n        alrsymbol = abi.encodePacked(alrsymbol, assetSymbol);\n        //abi encode and concat strings\n        string memory assetNameALR = string(alrname);\n        string memory assetSymbolALR = string(alrsymbol);\n        //un-encode concated string\n        ALR = new AskoRiskToken( //creates new Asko Low Risk Token Contract\n            _InterestRateModel,\n            address(asset),\n            address(UOF),\n            address(MMF),\n            assetNameALR,\n            assetSymbolALR,\n            true,\n            _initialExchangeRate\n        );\n    }\n\n    /**\n@notice getAssetAdd allows for easy retrieval of a Money Markets underlying asset's address\n**/\n    function getAssetAdd() public view returns (address) {\n        return address(asset);\n    }\n\n    /**\n  @notice setFee allows the owner of this contract to set the fee\n  @param  _fee is the input number representing the fee\n  @dev the divisor is set to 10,000 in the constructor for this contract. this allows for\n        a fee percentage accounting for two decimal places. feePercent must account for this when being set.\n        The following examples show feePercent amounts and how they equate to percentages:\n                EX:\n                    a 1% fee would be set as feePercent = 100\n                    a .5% fee would be set as feePercent = 50\n                    a 50% fee would be set as feePercent = 5000\n  **/\n    function setFeeAHR(uint256 _fee) public onlyOwner {\n        fee_AHR = _fee;\n    }\n\n    /**\n  @notice setFee allows the owner of this contract to set the fee\n  @param  _fee is the input number representing the fee\n  @dev the divisor is set to 10,000 in the constructor for this contract. this allows for\n        a fee percentage accounting for two decimal places. feePercent must account for this when being set.\n        The following examples show feePercent amounts and how they equate to percentages:\n                EX:\n                    a 1% fee would be set as feePercent = 100\n                    a .5% fee would be set as feePercent = 50\n                    a 50% fee would be set as feePercent = 5000\n  **/\n    function setFeeALR(uint256 _fee) public onlyOwner {\n        fee_ALR = _fee;\n    }\n\n    /**\n  @notice calculateFee is used to calculate the fee earned\n  @param _payedAmount is a uint representing the full amount of an ERC20 asset payed\n  @dev the divisor is set to 10,000 in the constructor for this contract. this allows for\n        a fee percentage accounting for two decimal places. feePercent must account for this when being set.\n        The following examples show feePercent amounts and how they equate to percentages:\n                EX:\n                    a 1% fee would be set as feePercent = 100\n                    a .5% fee would be set as feePercent = 50\n                    a 50% fee would be set as feePercent = 5000\n  **/\n    function calculateFee(uint256 _payedAmount, uint256 _feePercent)\n        public\n        view\n        returns (uint256)\n    {\n        uint256 fee = _payedAmount.mul(_feePercent).div(divisor);\n        return fee;\n    }\n\n    /**\n@notice lendToAHRpool is used to lend assets to a MoneyMarketInstance's High Risk pool\n@param _amount is the amount of the asset being lent\n@dev the user will need to first approve the transfer of the underlying asset\n**/\n    function lendToAHRpool(uint256 _amount) public {\n        //transfer appropriate amount off the asset from msg.sender to the AHR contract\n        asset.transferFrom(msg.sender, address(AHR), _amount);\n        //call mint function on AHR contract\n        AHR.mint(msg.sender, _amount);\n        emit LentToAHR(msg.sender, _amount);\n    }\n\n    /**\n@notice lendToAHRpool is used to lend assets to a MoneyMarketInstance's Low Risk pool\n@param _amount is the amount of the asset being lent\n@dev the user will need to first approve the transfer of the underlying asset\n**/\n    function lendToALRpool(uint256 _amount) public {\n        //transfer appropriate amount off the asset from msg.sender to the AHR contract\n        asset.transferFrom(msg.sender, address(ALR), _amount);\n        //call mint function on ALR contract\n        ALR.mint(msg.sender, _amount);\n        emit LentToALR(msg.sender, _amount);\n    }\n\n    /**\n@notice borrow is used to take out a loan from in MoneyMarketInstance's underlying asset\n@param _amount is the amount of asset being barrowed\n@param _collateral is the address of the ALR token being used as collateral\n**/\n    function borrow(uint256 _amount, address _collateral) public {\n        //require that the collateral a user is looking to use is the same as the type they already have a loan in\n        //OR that their cantCollateralize mapping is false\n        require(\n            _collateral == collateralLockedALR[msg.sender] ||\n                cantCollateralize[msg.sender] == false\n        );\n        //check that the user has enough collateral in input moeny market\n        uint256 collateralValue = MMF.checkAvailibleCollateralValue(\n            msg.sender,\n            _collateral\n        );\n        //get current borrow balances for each ART\n        uint256 borrowBalAHR = AHR.borrowBalanceCurrent(msg.sender);\n        uint256 borrowBalALR = ALR.borrowBalanceCurrent(msg.sender);\n        //calculate the new amount that would be owed if borrow suceeds\n        uint256 totalFutureAmountOwed = borrowBalAHR.add(\n            borrowBalALR.add(_amount)\n        );\n        //check current asset price\n        uint256 priceOfAsset = UOF.getUnderlyingPrice(address(asset));\n        //get the usd price value of _amount\n        uint256 assetAmountValOwed = priceOfAsset.mul(totalFutureAmountOwed);\n        //divide amount value by 3\n        uint256 halfVal = assetAmountValOwed.div(2);\n        //add 1/2 value to asset value to get 150% asset value\n        uint256 collateralNeeded = assetAmountValOwed.add(halfVal);\n        //require collateral value to be greater than 150% of the amount value of loan\n        require(collateralValue >= collateralNeeded);\n        //cut amount of tokens in half\n        uint256 half = _amount.div(2);\n        //lock the collateral needed for this loan so it cant be \"double spent\"\n        MMF.lockCollateral(msg.sender, _collateral, collateralNeeded);\n        //track locked amount\n        lockedCollateral[msg.sender] = lockedCollateral[msg.sender].add(\n            collateralNeeded\n        );\n        //track which ALR is locked\n        collateralLockedALR[msg.sender] = _collateral;\n        cantCollateralize[msg.sender] = true;\n        //borrow half from each pool\n        AHR.borrow(half, msg.sender);\n        ALR.borrow(half, msg.sender);\n        emit Borrow(msg.sender, half, half);\n    }\n\n    /**\n@notice repay is used to repay a loan\n@param _repayAmount is the amount of the underlying asset being repayed\n**/\n    function repay(uint256 _repayAmount) public {\n        //get their current owed balance of ALR\n        uint256 accountBorrowsALR = ALR.borrowBalanceCurrent(msg.sender);\n        uint256 accountBorrowsAHR = AHR.borrowBalanceCurrent(msg.sender);\n        uint256 totalBorrows = accountBorrowsALR.add(accountBorrowsAHR);\n        require(_repayAmount <= totalBorrows);\n        uint256 payAmountAHR;\n        uint256 payAmountALR;\n        if (accountBorrowsALR != 0) {\n            //if amount owed to ALR isnt zero\n            if (accountBorrowsALR >= _repayAmount) {\n                //check if repay amount is greater than ALR borrow balance\n                payAmountALR = ALR.repayBorrow(_repayAmount, msg.sender); //if it is repay amount to ALR\n                //transfer asset from the user to this contract\n                asset.transferFrom(msg.sender, address(ALR), payAmountALR);\n                emit Repayed(msg.sender, 0, _repayAmount);\n            } else {\n                //if not\n                uint256 amountToALR = _repayAmount.sub(accountBorrowsALR); //calculate amount needed to pay off ALR\n                payAmountALR = ALR.repayBorrow(amountToALR, msg.sender); //pay off ALR\n                //transfer asset from the user to this contract\n                asset.transferFrom(msg.sender, address(ALR), payAmountALR);\n                uint256 amountToAHR = _repayAmount.sub(amountToALR); //calculate AHR amount\n                payAmountAHR = AHR.repayBorrow(amountToAHR, msg.sender); //pay off towards AHR\n                //transfer asset from the user to this contract\n                asset.transferFrom(msg.sender, address(AHR), payAmountAHR);\n                emit Repayed(msg.sender, payAmountAHR, payAmountALR);\n            }\n        } else {\n            //if amount owed to ALR IS zero\n            payAmountAHR = AHR.repayBorrow(_repayAmount, msg.sender); //pay towards AHR\n            //transfer asset from the user to this contract\n            asset.transferFrom(msg.sender, address(AHR), payAmountAHR);\n\n            if (accountBorrowsAHR == 0) {\n                //if the loan is fully payed off\n                //unlock the users locked collateral for this loan\n                MMF.unlockCollateral(\n                    msg.sender,\n                    collateralLockedALR[msg.sender],\n                    lockedCollateral[msg.sender]\n                );\n                //reset collateralLockedALR address to zero so the user can use a different ALR address in future borrows\n                collateralLockedALR[msg.sender] = address(0);\n                cantCollateralize[msg.sender] = false;\n                //reset locked collateral amount\n                lockedCollateral[msg.sender] = 0;\n            }\n            emit Repayed(msg.sender, payAmountAHR, 0);\n        }\n    }\n\n    /**\n@notice collateralizeALR allows a user to collateralize the ALR they hold in a specific money market\n@param _amount is the amount of ALR being collateralized\n**/\n    function collateralizeALR(uint256 _amount) public {\n        ALR.burn(msg.sender, _amount);\n        MMF.trackCollateralUp(msg.sender, address(ALR), _amount);\n        emit Collateralized(msg.sender, _amount);\n    }\n\n    /**\n@notice allowa an ALR to check if the address calling it is anothe ALR\n**/\n\n    function checkIfALR(address _inQuestion) public view returns (bool) {\n        return MMF._checkIfALR(_inQuestion);\n    }\n}\n",
  "sourcePath": "/home/stan36/repos/Askolend/AskoLend-contracts/contracts/MoneyMarketInstance.sol",
  "compiler": {
    "name": "solc",
    "version": "0.6.6+commit.6c089d02.Emscripten.clang"
  },
  "schemaVersion": "3.3.2",
  "updatedAt": "2020-11-19T04:53:20.143Z",
  "devdoc": {
    "methods": {
      "_setUpAHR(address,uint256,uint256)": {
        "details": "this function will create a token whos name and symbol is concatenated with a \"AHR-\" in front of it example: AHR-LINKasset.approve() is called to allow the AHR contract to freeely transfer the assset from this contract when the mint lendToAHRpool function is called.*",
        "params": {
          "_InterestRateModel": "is the address of this MoneyMarketInstances InterestRateModel",
          "_fee": "is a number representing the fee for exchanging an AHR token, as a mantissa (scaled by 1e18)"
        }
      },
      "_setUpALR(address,uint256,uint256)": {
        "details": "this function will create a token whos name and symbol is concatenated with a \"ALR-\" in front of it example: ALR-LINKasset.approve() is called to allow the ALR contract to freeely transfer the assset from this contract when the mint lendToALRpool function is called.*",
        "params": {
          "_InterestRateModel": "is the address of this MoneyMarketInstances InterestRateModel",
          "_fee": "is a number representing the fee for exchanging an ALR token, as a mantissa (scaled by 1e18)"
        }
      },
      "borrow(uint256,address)": {
        "params": {
          "_amount": "is the amount of asset being barrowed",
          "_collateral": "is the address of the ALR token being used as collateral*"
        }
      },
      "calculateFee(uint256,uint256)": {
        "details": "the divisor is set to 10,000 in the constructor for this contract. this allows for a fee percentage accounting for two decimal places. feePercent must account for this when being set. The following examples show feePercent amounts and how they equate to percentages: EX: a 1% fee would be set as feePercent = 100 a .5% fee would be set as feePercent = 50 a 50% fee would be set as feePercent = 5000*",
        "params": {
          "_payedAmount": "is a uint representing the full amount of an ERC20 asset payed"
        }
      },
      "collateralizeALR(uint256)": {
        "params": {
          "_amount": "is the amount of ALR being collateralized*"
        }
      },
      "constructor": {
        "details": "this function uses ABI encoding to properly concatenate AHR- && ALR- in front of the tokens name and symbol before creating each token.*",
        "params": {
          "_assetContractAdd": "is the address of the ERC20 asset being whitelisted",
          "_assetName": "is the name of the asset(e.x: ChainLink)",
          "_assetSymbol": "is the symbol of the asset(e.x: LINK)"
        }
      },
      "lendToAHRpool(uint256)": {
        "details": "the user will need to first approve the transfer of the underlying asset*",
        "params": {
          "_amount": "is the amount of the asset being lent"
        }
      },
      "lendToALRpool(uint256)": {
        "details": "the user will need to first approve the transfer of the underlying asset*",
        "params": {
          "_amount": "is the amount of the asset being lent"
        }
      },
      "owner()": {
        "details": "Returns the address of the current owner."
      },
      "renounceOwnership()": {
        "details": "Leaves the contract without owner. It will not be possible to call `onlyOwner` functions anymore. Can only be called by the current owner.     * NOTE: Renouncing ownership will leave the contract without an owner, thereby removing any functionality that is only available to the owner."
      },
      "repay(uint256)": {
        "params": {
          "_repayAmount": "is the amount of the underlying asset being repayed*"
        }
      },
      "setFeeAHR(uint256)": {
        "details": "the divisor is set to 10,000 in the constructor for this contract. this allows for a fee percentage accounting for two decimal places. feePercent must account for this when being set. The following examples show feePercent amounts and how they equate to percentages: EX: a 1% fee would be set as feePercent = 100 a .5% fee would be set as feePercent = 50 a 50% fee would be set as feePercent = 5000*",
        "params": {
          "_fee": "is the input number representing the fee"
        }
      },
      "setFeeALR(uint256)": {
        "details": "the divisor is set to 10,000 in the constructor for this contract. this allows for a fee percentage accounting for two decimal places. feePercent must account for this when being set. The following examples show feePercent amounts and how they equate to percentages: EX: a 1% fee would be set as feePercent = 100 a .5% fee would be set as feePercent = 50 a 50% fee would be set as feePercent = 5000*",
        "params": {
          "_fee": "is the input number representing the fee"
        }
      },
      "transferOwnership(address)": {
        "details": "Transfers ownership of the contract to a new account (`newOwner`). Can only be called by the current owner."
      }
    }
  },
  "userdoc": {
    "methods": {
      "_setUpAHR(address,uint256,uint256)": {
        "notice": "setUp is called by the MoneyMarketFactory after a contract is created to set up the initial variables. This is split from the constructor function to keep from reaching the gas block limit"
      },
      "_setUpALR(address,uint256,uint256)": {
        "notice": "setUp is called by the MoneyMarketFactory after a contract is created to set up the initial variables. This is split from the constructor function to keep from reaching the gas block limit"
      },
      "borrow(uint256,address)": {
        "notice": "borrow is used to take out a loan from in MoneyMarketInstance's underlying asset"
      },
      "calculateFee(uint256,uint256)": {
        "notice": "calculateFee is used to calculate the fee earned"
      },
      "checkIfALR(address)": {
        "notice": "allowa an ALR to check if the address calling it is anothe ALR*"
      },
      "collateralizeALR(uint256)": {
        "notice": "collateralizeALR allows a user to collateralize the ALR they hold in a specific money market"
      },
      "constructor": "the constructor function is fired during the contract deployment process. The constructor can only be fired once and is used to initialize the MoneyMakerInstance and deploy its associated AHR && ALR token contracts",
      "getAssetAdd()": {
        "notice": "getAssetAdd allows for easy retrieval of a Money Markets underlying asset's address*"
      },
      "lendToAHRpool(uint256)": {
        "notice": "lendToAHRpool is used to lend assets to a MoneyMarketInstance's High Risk pool"
      },
      "lendToALRpool(uint256)": {
        "notice": "lendToAHRpool is used to lend assets to a MoneyMarketInstance's Low Risk pool"
      },
      "repay(uint256)": {
        "notice": "repay is used to repay a loan"
      },
      "setFeeAHR(uint256)": {
        "notice": "setFee allows the owner of this contract to set the fee"
      },
      "setFeeALR(uint256)": {
        "notice": "setFee allows the owner of this contract to set the fee"
      }
    },
    "notice": "The MoneyMarketInstance contract is designed facilitate a tiered money market for an individual ERC20 asset This contract uses the OpenZeppelin contract Library to inherit functions from Ownable.sol && IRC20.sol*"
  }
}