{
  "contractName": "MoneyMarketInstance",
  "abi": [
    {
      "inputs": [
        {
          "internalType": "address",
          "name": "_assetContractAdd",
          "type": "address"
        },
        {
          "internalType": "address",
          "name": "_oracleFactory",
          "type": "address"
        },
        {
          "internalType": "address",
          "name": "_owner",
          "type": "address"
        },
        {
          "internalType": "string",
          "name": "_assetName",
          "type": "string"
        },
        {
          "internalType": "string",
          "name": "_assetSymbol",
          "type": "string"
        }
      ],
      "stateMutability": "nonpayable",
      "type": "constructor"
    },
    {
      "anonymous": false,
      "inputs": [
        {
          "indexed": false,
          "internalType": "address",
          "name": "borrower",
          "type": "address"
        },
        {
          "indexed": false,
          "internalType": "uint256",
          "name": "AHRamount",
          "type": "uint256"
        },
        {
          "indexed": false,
          "internalType": "uint256",
          "name": "ALRamount",
          "type": "uint256"
        }
      ],
      "name": "Borrow",
      "type": "event"
    },
    {
      "anonymous": false,
      "inputs": [
        {
          "indexed": false,
          "internalType": "address",
          "name": "collateralizer",
          "type": "address"
        },
        {
          "indexed": false,
          "internalType": "uint256",
          "name": "amount",
          "type": "uint256"
        }
      ],
      "name": "Collateralized",
      "type": "event"
    },
    {
      "anonymous": false,
      "inputs": [
        {
          "indexed": false,
          "internalType": "address",
          "name": "lender",
          "type": "address"
        },
        {
          "indexed": false,
          "internalType": "uint256",
          "name": "amount",
          "type": "uint256"
        }
      ],
      "name": "LentToAHR",
      "type": "event"
    },
    {
      "anonymous": false,
      "inputs": [
        {
          "indexed": false,
          "internalType": "address",
          "name": "lender",
          "type": "address"
        },
        {
          "indexed": false,
          "internalType": "uint256",
          "name": "amount",
          "type": "uint256"
        }
      ],
      "name": "LentToALR",
      "type": "event"
    },
    {
      "anonymous": false,
      "inputs": [
        {
          "indexed": true,
          "internalType": "address",
          "name": "previousOwner",
          "type": "address"
        },
        {
          "indexed": true,
          "internalType": "address",
          "name": "newOwner",
          "type": "address"
        }
      ],
      "name": "OwnershipTransferred",
      "type": "event"
    },
    {
      "anonymous": false,
      "inputs": [
        {
          "indexed": false,
          "internalType": "address",
          "name": "borrower",
          "type": "address"
        },
        {
          "indexed": false,
          "internalType": "uint256",
          "name": "AHRamount",
          "type": "uint256"
        },
        {
          "indexed": false,
          "internalType": "uint256",
          "name": "ALRamount",
          "type": "uint256"
        }
      ],
      "name": "Repayed",
      "type": "event"
    },
    {
      "inputs": [],
      "name": "AHR",
      "outputs": [
        {
          "internalType": "contract AskoRiskToken",
          "name": "",
          "type": "address"
        }
      ],
      "stateMutability": "view",
      "type": "function"
    },
    {
      "inputs": [],
      "name": "ALR",
      "outputs": [
        {
          "internalType": "contract AskoRiskToken",
          "name": "",
          "type": "address"
        }
      ],
      "stateMutability": "view",
      "type": "function"
    },
    {
      "inputs": [],
      "name": "MMF",
      "outputs": [
        {
          "internalType": "contract MoneyMarketFactoryI",
          "name": "",
          "type": "address"
        }
      ],
      "stateMutability": "view",
      "type": "function"
    },
    {
      "inputs": [],
      "name": "UOF",
      "outputs": [
        {
          "internalType": "contract UniswapOracleFactoryI",
          "name": "",
          "type": "address"
        }
      ],
      "stateMutability": "view",
      "type": "function"
    },
    {
      "inputs": [],
      "name": "asset",
      "outputs": [
        {
          "internalType": "contract IERC20",
          "name": "",
          "type": "address"
        }
      ],
      "stateMutability": "view",
      "type": "function"
    },
    {
      "inputs": [],
      "name": "assetName",
      "outputs": [
        {
          "internalType": "string",
          "name": "",
          "type": "string"
        }
      ],
      "stateMutability": "view",
      "type": "function"
    },
    {
      "inputs": [],
      "name": "assetSymbol",
      "outputs": [
        {
          "internalType": "string",
          "name": "",
          "type": "string"
        }
      ],
      "stateMutability": "view",
      "type": "function"
    },
    {
      "inputs": [],
      "name": "divisor",
      "outputs": [
        {
          "internalType": "uint256",
          "name": "",
          "type": "uint256"
        }
      ],
      "stateMutability": "view",
      "type": "function"
    },
    {
      "inputs": [],
      "name": "fee_AHR",
      "outputs": [
        {
          "internalType": "uint256",
          "name": "",
          "type": "uint256"
        }
      ],
      "stateMutability": "view",
      "type": "function"
    },
    {
      "inputs": [],
      "name": "fee_ALR",
      "outputs": [
        {
          "internalType": "uint256",
          "name": "",
          "type": "uint256"
        }
      ],
      "stateMutability": "view",
      "type": "function"
    },
    {
      "inputs": [],
      "name": "owner",
      "outputs": [
        {
          "internalType": "address",
          "name": "",
          "type": "address"
        }
      ],
      "stateMutability": "view",
      "type": "function"
    },
    {
      "inputs": [],
      "name": "renounceOwnership",
      "outputs": [],
      "stateMutability": "nonpayable",
      "type": "function"
    },
    {
      "inputs": [
        {
          "internalType": "address",
          "name": "newOwner",
          "type": "address"
        }
      ],
      "name": "transferOwnership",
      "outputs": [],
      "stateMutability": "nonpayable",
      "type": "function"
    },
    {
      "inputs": [
        {
          "internalType": "address",
          "name": "_InterestRateModel",
          "type": "address"
        },
        {
          "internalType": "uint256",
          "name": "_fee",
          "type": "uint256"
        },
        {
          "internalType": "uint256",
          "name": "_initialExchangeRate",
          "type": "uint256"
        }
      ],
      "name": "_setUpAHR",
      "outputs": [],
      "stateMutability": "nonpayable",
      "type": "function"
    },
    {
      "inputs": [
        {
          "internalType": "address",
          "name": "_InterestRateModel",
          "type": "address"
        },
        {
          "internalType": "uint256",
          "name": "_fee",
          "type": "uint256"
        },
        {
          "internalType": "uint256",
          "name": "_initialExchangeRate",
          "type": "uint256"
        }
      ],
      "name": "_setUpALR",
      "outputs": [],
      "stateMutability": "nonpayable",
      "type": "function"
    },
    {
      "inputs": [],
      "name": "getAssetAdd",
      "outputs": [
        {
          "internalType": "address",
          "name": "",
          "type": "address"
        }
      ],
      "stateMutability": "view",
      "type": "function"
    },
    {
      "inputs": [
        {
          "internalType": "uint256",
          "name": "_fee",
          "type": "uint256"
        }
      ],
      "name": "setFeeAHR",
      "outputs": [],
      "stateMutability": "nonpayable",
      "type": "function"
    },
    {
      "inputs": [
        {
          "internalType": "uint256",
          "name": "_fee",
          "type": "uint256"
        }
      ],
      "name": "setFeeALR",
      "outputs": [],
      "stateMutability": "nonpayable",
      "type": "function"
    },
    {
      "inputs": [
        {
          "internalType": "uint256",
          "name": "_payedAmount",
          "type": "uint256"
        },
        {
          "internalType": "uint256",
          "name": "_feePercent",
          "type": "uint256"
        }
      ],
      "name": "calculateFee",
      "outputs": [
        {
          "internalType": "uint256",
          "name": "",
          "type": "uint256"
        }
      ],
      "stateMutability": "view",
      "type": "function"
    },
    {
      "inputs": [
        {
          "internalType": "uint256",
          "name": "_amount",
          "type": "uint256"
        }
      ],
      "name": "lendToAHRpool",
      "outputs": [],
      "stateMutability": "nonpayable",
      "type": "function"
    },
    {
      "inputs": [
        {
          "internalType": "uint256",
          "name": "_amount",
          "type": "uint256"
        }
      ],
      "name": "lendToALRpool",
      "outputs": [],
      "stateMutability": "nonpayable",
      "type": "function"
    },
    {
      "inputs": [
        {
          "internalType": "uint256",
          "name": "_amount",
          "type": "uint256"
        },
        {
          "internalType": "address",
          "name": "_collateral",
          "type": "address"
        }
      ],
      "name": "borrow",
      "outputs": [],
      "stateMutability": "nonpayable",
      "type": "function"
    },
    {
      "inputs": [
        {
          "internalType": "uint256",
          "name": "_repayAmount",
          "type": "uint256"
        }
      ],
      "name": "repay",
      "outputs": [],
      "stateMutability": "nonpayable",
      "type": "function"
    },
    {
      "inputs": [
        {
          "internalType": "uint256",
          "name": "_amount",
          "type": "uint256"
        }
      ],
      "name": "collateralizeALR",
      "outputs": [],
      "stateMutability": "nonpayable",
      "type": "function"
    }
  ],
  "bytecode": "0x60806040523480156200001157600080fd5b5060405162004cfb38038062004cfb833981810160405260a08110156200003757600080fd5b8151602083015160408085015160608601805192519496939591949391820192846401000000008211156200006b57600080fd5b9083019060208201858111156200008157600080fd5b82516401000000008111828201881017156200009c57600080fd5b82525081516020918201929091019080838360005b83811015620000cb578181015183820152602001620000b1565b50505050905090810190601f168015620000f95780820380516001836020036101000a031916815260200191505b50604052602001805160405193929190846401000000008211156200011d57600080fd5b9083019060208201858111156200013357600080fd5b82516401000000008111828201881017156200014e57600080fd5b82525081516020918201929091019080838360005b838110156200017d57818101518382015260200162000163565b50505050905090810190601f168015620001ab5780820380516001836020036101000a031916815260200191505b506040525050506000620001c46200028860201b60201c565b600080546001600160a01b0319166001600160a01b0383169081178255604051929350917f8be0079c531659141344cd1fd0a4f28419497f9722a3daafe3b4186f6b6457e0908290a3506127106001558151620002299060049060208501906200028d565b5080516200023f9060059060208401906200028d565b5050600a80546001600160a01b039485166001600160a01b031991821617909155600980549385169382169390931790925550600680549390921692169190911790556200032f565b335b90565b828054600181600116156101000203166002900490600052602060002090601f016020900481019282601f10620002d057805160ff191683800117855562000300565b8280016001018555821562000300579182015b8281111562000300578251825591602001919060010190620002e3565b506200030e92915062000312565b5090565b6200028a91905b808211156200030e576000815560010162000319565b6149bc806200033f6000396000f3fe60806040523480156200001157600080fd5b5060043610620001785760003560e01c80636c713a1511620000d5578063cf0aea851162000087578063cf0aea8514620003b3578063d162054a14620003d3578063dcc716bd14620003dd578063f2130c701462000412578063f2fde38b146200041c578063f9828b4f14620004455762000178565b80636c713a151462000361578063715018a614620003815780638da5cb5b146200038b5780639241cef21462000395578063c27d4df3146200039f578063c9230c5d14620003a95762000178565b806334e73122116200012f57806334e7312214620002b8578063371fd8e614620002de57806338d52e0f14620002fe5780634b3fd14814620003085780634c20ac741462000337578063551f8b0114620003415762000178565b806303438def146200017d57806311e2c02f146200019f578063176de7a814620001c55780631f2dc5ef14620002475780631f432cf5146200026357806322b2d4021462000298575b600080fd5b6200019d600480360360208110156200019557600080fd5b50356200044f565b005b620001a962000572565b604080516001600160a01b039092168252519081900360200190f35b620001cf62000581565b6040805160208082528351818301528351919283929083019185019080838360005b838110156200020b578181015183820152602001620001f1565b50505050905090810190601f168015620002395780820380516001836020036101000a031916815260200191505b509250505060405180910390f35b6200025162000613565b60408051918252519081900360200190f35b6200019d600480360360608110156200027b57600080fd5b506001600160a01b03813516906020810135906040013562000619565b6200019d60048036036020811015620002b057600080fd5b5035620009ad565b6200025160048036036040811015620002d057600080fd5b508035906020013562000ae6565b6200019d60048036036020811015620002f657600080fd5b503562000b1c565b620001a9620011ff565b6200019d600480360360408110156200032057600080fd5b50803590602001356001600160a01b03166200120e565b620001a9620016e6565b6200019d600480360360208110156200035957600080fd5b5035620016f5565b6200019d600480360360208110156200037957600080fd5b503562001756565b6200019d620017b7565b620001a96200185d565b620001a96200186c565b620001a96200187b565b620001cf6200188a565b6200019d60048036036020811015620003cb57600080fd5b5035620018e8565b620001a962001a21565b6200019d60048036036060811015620003f557600080fd5b506001600160a01b03813516906020810135906040013562001a30565b6200025162001dc4565b6200019d600480360360208110156200043457600080fd5b50356001600160a01b031662001dca565b6200025162001ec8565b60085460408051632770a7eb60e21b81523360048201526024810184905290516001600160a01b0390921691639dc29fac9160448082019260009290919082900301818387803b158015620004a357600080fd5b505af1158015620004b8573d6000803e3d6000fd5b50506009546008546040805163152eadbb60e01b81523360048201526001600160a01b03928316602482015260448101879052905191909216935063152eadbb9250606480830192600092919082900301818387803b1580156200051b57600080fd5b505af115801562000530573d6000803e3d6000fd5b5050604080513381526020810185905281517f2ceb23d1a429a36e05e1dd6ebfeceac2b6904c032f15f7648ebd4711510a15f79450908190039091019150a150565b600a546001600160a01b031681565b6005805460408051602060026001851615610100026000190190941693909304601f810184900484028201840190925281815292918301828280156200060b5780601f10620005df576101008083540402835291602001916200060b565b820191906000526020600020905b815481529060010190602001808311620005ed57829003601f168201915b505050505081565b60015481565b6009546001600160a01b031633146200063157600080fd5b816003819055506060604051602001808063416c522d60e01b815250600401905060405160208183030381529060405290508060046040516020018083805190602001908083835b602083106200069a5780518252601f19909201916020918201910162000679565b6001836020036101000a03801982511681845116808217855250505050505090500182805460018160011615610100020316600290048015620007175780601f10620006f457610100808354040283529182019162000717565b820191906000526020600020905b81548152906001019060200180831162000702575b50509250505060405160208183030381529060405290506060604051602001808063416c522d60e01b815250600401905060405160208183030381529060405290508060056040516020018083805190602001908083835b60208310620007905780518252601f1990920191602091820191016200076f565b6001836020036101000a038019825116818451168082178552505050505050905001828054600181600116156101000203166002900480156200080d5780601f10620007ea5761010080835404028352918201916200080d565b820191906000526020600020905b815481529060010190602001808311620007f8575b505060408051601f1981840301815290829052600654600a549196508795508694508a93506001600160a01b0390811692911690859085906001908b9062000855906200211e565b6001600160a01b038089168252878116602080840191909152908716604083015283151560a083015260c0820183905260e06060830181815287519184019190915286519091608084019161010085019189019080838360005b83811015620008c9578181015183820152602001620008af565b50505050905090810190601f168015620008f75780820380516001836020036101000a031916815260200191505b50838103825286518152865160209182019188019080838360005b838110156200092c57818101518382015260200162000912565b50505050905090810190601f1680156200095a5780820380516001836020036101000a031916815260200191505b509950505050505050505050604051809103906000f08015801562000983573d6000803e3d6000fd5b50600880546001600160a01b0319166001600160a01b039290921691909117905550505050505050565b600654600854604080516323b872dd60e01b81523360048201526001600160a01b03928316602482015260448101859052905191909216916323b872dd9160648083019260209291908290030181600087803b15801562000a0d57600080fd5b505af115801562000a22573d6000803e3d6000fd5b505050506040513d602081101562000a3957600080fd5b5050600854604080516340c10f1960e01b81523360048201526024810184905290516001600160a01b03909216916340c10f199160448082019260009290919082900301818387803b15801562000a8f57600080fd5b505af115801562000aa4573d6000803e3d6000fd5b5050604080513381526020810185905281517f7328ca2a2e824164ca6ec3121966d63601356d01901d9a5d2ee466cb726d1e3c9450908190039091019150a150565b60008062000b1260015462000b05858762001ece90919063ffffffff16565b9063ffffffff62001f3316565b9150505b92915050565b600854604080516305eff7ef60e21b815233600482015290516000926001600160a01b0316916317bfdfbc91602480830192602092919082900301818787803b15801562000b6957600080fd5b505af115801562000b7e573d6000803e3d6000fd5b505050506040513d602081101562000b9557600080fd5b50519050600080821562000f805783831062000cf357600854604080516369a5e8cf60e01b81526004810187905233602482015290516001600160a01b03909216916369a5e8cf916044808201926020929091908290030181600087803b15801562000c0057600080fd5b505af115801562000c15573d6000803e3d6000fd5b505050506040513d602081101562000c2c57600080fd5b5051600654600854604080516323b872dd60e01b81523360048201526001600160a01b0392831660248201526044810185905290519394509116916323b872dd916064808201926020929091908290030181600087803b15801562000c9057600080fd5b505af115801562000ca5573d6000803e3d6000fd5b505050506040513d602081101562000cbc57600080fd5b505060408051338152600060208201528082018690529051600080516020620049678339815191529181900360600190a162000f7a565b600062000d07858563ffffffff62001f7716565b600854604080516369a5e8cf60e01b81526004810184905233602482015290519293506001600160a01b03909116916369a5e8cf916044808201926020929091908290030181600087803b15801562000d5f57600080fd5b505af115801562000d74573d6000803e3d6000fd5b505050506040513d602081101562000d8b57600080fd5b5051600654600854604080516323b872dd60e01b81523360048201526001600160a01b0392831660248201526044810185905290519395509116916323b872dd916064808201926020929091908290030181600087803b15801562000def57600080fd5b505af115801562000e04573d6000803e3d6000fd5b505050506040513d602081101562000e1b57600080fd5b506000905062000e32868363ffffffff62001f7716565b600754604080516369a5e8cf60e01b81526004810184905233602482015290519293506001600160a01b03909116916369a5e8cf916044808201926020929091908290030181600087803b15801562000e8a57600080fd5b505af115801562000e9f573d6000803e3d6000fd5b505050506040513d602081101562000eb657600080fd5b5051600654600754604080516323b872dd60e01b81523360048201526001600160a01b0392831660248201526044810185905290519397509116916323b872dd916064808201926020929091908290030181600087803b15801562000f1a57600080fd5b505af115801562000f2f573d6000803e3d6000fd5b505050506040513d602081101562000f4657600080fd5b505060408051338152602081018690528082018590529051600080516020620049678339815191529181900360600190a150505b620011f9565b600754604080516369a5e8cf60e01b81526004810187905233602482015290516001600160a01b03909216916369a5e8cf916044808201926020929091908290030181600087803b15801562000fd557600080fd5b505af115801562000fea573d6000803e3d6000fd5b505050506040513d60208110156200100157600080fd5b5051600654600754604080516323b872dd60e01b81523360048201526001600160a01b0392831660248201526044810185905290519395509116916323b872dd916064808201926020929091908290030181600087803b1580156200106557600080fd5b505af11580156200107a573d6000803e3d6000fd5b505050506040513d60208110156200109157600080fd5b5050600854604080516305eff7ef60e21b815233600482015290516000926001600160a01b0316916317bfdfbc91602480830192602092919082900301818787803b158015620010e057600080fd5b505af1158015620010f5573d6000803e3d6000fd5b505050506040513d60208110156200110c57600080fd5b5051905080620011c857600954336000818152600c6020908152604080832054600b909252808320548151632c8bad0f60e01b815260048101959095526001600160a01b039283166024860152604485015251931692632c8bad0f92606480820193929182900301818387803b1580156200118657600080fd5b505af11580156200119b573d6000803e3d6000fd5b5050336000908152600c6020908152604080832080546001600160a01b0319169055600b90915281205550505b60408051338152602081018590526000818301529051600080516020620049678339815191529181900360600190a1505b50505050565b6006546001600160a01b031681565b336000908152600c60205260409020546001600160a01b03828116911614806200124e5750336000908152600c60205260409020546001600160a01b0316155b6200125857600080fd5b60095460408051636012b43160e01b81523360048201526001600160a01b03848116602483015291516000939290921691636012b4319160448082019260209290919082900301818787803b158015620012b157600080fd5b505af1158015620012c6573d6000803e3d6000fd5b505050506040513d6020811015620012dd57600080fd5b5051600754604080516305eff7ef60e21b815233600482015290519293506000926001600160a01b03909216916317bfdfbc9160248082019260209290919082900301818787803b1580156200133257600080fd5b505af115801562001347573d6000803e3d6000fd5b505050506040513d60208110156200135e57600080fd5b5051600854604080516305eff7ef60e21b815233600482015290519293506000926001600160a01b03909216916317bfdfbc9160248082019260209290919082900301818787803b158015620013b357600080fd5b505af1158015620013c8573d6000803e3d6000fd5b505050506040513d6020811015620013df57600080fd5b50519050600062001409620013fb838863ffffffff62001fbb16565b849063ffffffff62001fbb16565b600a546006546040805163fc57d4df60e01b81526001600160a01b0392831660048201529051939450600093919092169163fc57d4df916024808301926020929190829003018186803b1580156200146057600080fd5b505afa15801562001475573d6000803e3d6000fd5b505050506040513d60208110156200148c57600080fd5b505190506000620014a4828463ffffffff62001ece16565b90506000620014bb82600263ffffffff62001f3316565b90506000620014d1838363ffffffff62001fbb16565b905080881015620014e157600080fd5b6000620014f68b600263ffffffff62001f3316565b6009546040805163ee82616160e01b81523360048201526001600160a01b038e8116602483015260448201879052915193945091169163ee8261619160648082019260009290919082900301818387803b1580156200155457600080fd5b505af115801562001569573d6000803e3d6000fd5b5050336000908152600b602052604090205462001590925090508363ffffffff62001fbb16565b336000818152600b6020908152604080832094909455600c905282812080546001600160a01b0319166001600160a01b038f8116919091179091556007548451630967fa2960e31b81526004810187905260248101949094529351931692634b3fd14892604480820193929182900301818387803b1580156200161257600080fd5b505af115801562001627573d6000803e3d6000fd5b505060085460408051630967fa2960e31b81526004810186905233602482015290516001600160a01b039092169350634b3fd148925060448082019260009290919082900301818387803b1580156200167f57600080fd5b505af115801562001694573d6000803e3d6000fd5b5050604080513381526020810185905280820185905290517fe1979fe4c35e0cef342fef5668e2c8e7a7e9f5d5d1ca8fee0ac6c427fa4153af9350908190036060019150a15050505050505050505050565b6006546001600160a01b031690565b620016ff62002016565b6000546001600160a01b0390811691161462001751576040805162461bcd60e51b8152602060048201819052602482015260008051602062004947833981519152604482015290519081900360640190fd5b600355565b6200176062002016565b6000546001600160a01b03908116911614620017b2576040805162461bcd60e51b8152602060048201819052602482015260008051602062004947833981519152604482015290519081900360640190fd5b600255565b620017c162002016565b6000546001600160a01b0390811691161462001813576040805162461bcd60e51b8152602060048201819052602482015260008051602062004947833981519152604482015290519081900360640190fd5b600080546040516001600160a01b03909116907f8be0079c531659141344cd1fd0a4f28419497f9722a3daafe3b4186f6b6457e0908390a3600080546001600160a01b0319169055565b6000546001600160a01b031690565b6007546001600160a01b031681565b6008546001600160a01b031681565b6004805460408051602060026001851615610100026000190190941693909304601f810184900484028201840190925281815292918301828280156200060b5780601f10620005df576101008083540402835291602001916200060b565b600654600754604080516323b872dd60e01b81523360048201526001600160a01b03928316602482015260448101859052905191909216916323b872dd9160648083019260209291908290030181600087803b1580156200194857600080fd5b505af11580156200195d573d6000803e3d6000fd5b505050506040513d60208110156200197457600080fd5b5050600754604080516340c10f1960e01b81523360048201526024810184905290516001600160a01b03909216916340c10f199160448082019260009290919082900301818387803b158015620019ca57600080fd5b505af1158015620019df573d6000803e3d6000fd5b5050604080513381526020810185905281517f0f82438f3b5c78264c4b6dce428942fd963308db5c690635d87bc654cb811d339450908190039091019150a150565b6009546001600160a01b031681565b6009546001600160a01b0316331462001a4857600080fd5b8160028190555060606040516020018080634148522d60e01b815250600401905060405160208183030381529060405290508060046040516020018083805190602001908083835b6020831062001ab15780518252601f19909201916020918201910162001a90565b6001836020036101000a0380198251168184511680821785525050505050509050018280546001816001161561010002031660029004801562001b2e5780601f1062001b0b57610100808354040283529182019162001b2e565b820191906000526020600020905b81548152906001019060200180831162001b19575b505092505050604051602081830303815290604052905060606040516020018080634148522d60e01b815250600401905060405160208183030381529060405290508060056040516020018083805190602001908083835b6020831062001ba75780518252601f19909201916020918201910162001b86565b6001836020036101000a0380198251168184511680821785525050505050509050018280546001816001161561010002031660029004801562001c245780601f1062001c0157610100808354040283529182019162001c24565b820191906000526020600020905b81548152906001019060200180831162001c0f575b505060408051601f1981840301815290829052600654600a549196508795508694508a93506001600160a01b0390811692911690859085906000908b9062001c6c906200211e565b6001600160a01b038089168252878116602080840191909152908716604083015283151560a083015260c0820183905260e06060830181815287519184019190915286519091608084019161010085019189019080838360005b8381101562001ce057818101518382015260200162001cc6565b50505050905090810190601f16801562001d0e5780820380516001836020036101000a031916815260200191505b50838103825286518152865160209182019188019080838360005b8381101562001d4357818101518382015260200162001d29565b50505050905090810190601f16801562001d715780820380516001836020036101000a031916815260200191505b509950505050505050505050604051809103906000f08015801562001d9a573d6000803e3d6000fd5b50600780546001600160a01b0319166001600160a01b039290921691909117905550505050505050565b60025481565b62001dd462002016565b6000546001600160a01b0390811691161462001e26576040805162461bcd60e51b8152602060048201819052602482015260008051602062004947833981519152604482015290519081900360640190fd5b6001600160a01b03811662001e6d5760405162461bcd60e51b8152600401808060200182810382526026815260200180620049006026913960400191505060405180910390fd5b600080546040516001600160a01b03808516939216917f8be0079c531659141344cd1fd0a4f28419497f9722a3daafe3b4186f6b6457e091a3600080546001600160a01b0319166001600160a01b0392909216919091179055565b60035481565b60008262001edf5750600062000b16565b8282028284828162001eed57fe5b041462001f2c5760405162461bcd60e51b8152600401808060200182810382526021815260200180620049266021913960400191505060405180910390fd5b9392505050565b600062001f2c83836040518060400160405280601a81526020017f536166654d6174683a206469766973696f6e206279207a65726f0000000000008152506200201a565b600062001f2c83836040518060400160405280601e81526020017f536166654d6174683a207375627472616374696f6e206f766572666c6f770000815250620020c1565b60008282018381101562001f2c576040805162461bcd60e51b815260206004820152601b60248201527f536166654d6174683a206164646974696f6e206f766572666c6f770000000000604482015290519081900360640190fd5b3390565b60008183620020aa5760405162461bcd60e51b81526004018080602001828103825283818151815260200191508051906020019080838360005b838110156200206e57818101518382015260200162002054565b50505050905090810190601f1680156200209c5780820380516001836020036101000a031916815260200191505b509250505060405180910390fd5b506000838581620020b757fe5b0495945050505050565b60008184841115620021165760405162461bcd60e51b81526020600482018181528351602484015283519092839260449091019190850190808383600083156200206e57818101518382015260200162002054565b505050900390565b6127d3806200212d8339019056fe60806040523480156200001157600080fd5b50604051620027d3380380620027d3833981810160405260e08110156200003757600080fd5b8151602083015160408085015160608601805192519496939591949391820192846401000000008211156200006b57600080fd5b9083019060208201858111156200008157600080fd5b82516401000000008111828201881017156200009c57600080fd5b82525081516020918201929091019080838360005b83811015620000cb578181015183820152602001620000b1565b50505050905090810190601f168015620000f95780820380516001836020036101000a031916815260200191505b50604052602001805160405193929190846401000000008211156200011d57600080fd5b9083019060208201858111156200013357600080fd5b82516401000000008111828201881017156200014e57600080fd5b82525081516020918201929091019080838360005b838110156200017d57818101518382015260200162000163565b50505050905090810190601f168015620001ab5780820380516001836020036101000a031916815260200191505b5060409081526020820151910151909250905083836000620001d56001600160e01b03620002e916565b600080546001600160a01b0319166001600160a01b0383169081178255604051929350917f8be0079c531659141344cd1fd0a4f28419497f9722a3daafe3b4186f6b6457e0908290a350815162000234906004906020850190620002f2565b5080516200024a906005906020840190620002f2565b505060068054600860ff1991821617909155600d8054600f8054336001600160a01b031991821617909155600e805482166001600160a01b038e811691909117909155601080549092168b821617909155610100600160a81b0319909116610100918b169190910217909116841515179055506007819055620002cc620002ee565b6009555050670de0b6b3a7640000600a5550620003949350505050565b335b90565b4390565b828054600181600116156101000203166002900490600052602060002090601f016020900481019282601f106200033557805160ff191683800117855562000365565b8280016001018555821562000365579182015b828111156200036557825182559160200191906001019062000348565b506200037392915062000377565b5090565b620002eb91905b808211156200037357600081556001016200037e565b61242f80620003a46000396000f3fe608060405234801561001057600080fd5b50600436106102955760003560e01c806377e4974d11610167578063ae9d70b0116100ce578063dd62ed3e11610087578063dd62ed3e146106fc578063e778bc211461072a578063ee27a2f214610750578063f2fde38b14610758578063f3fdb15a1461077e578063f8f9da281461078657610295565b8063ae9d70b01461067b578063bd6d894d14610683578063c37f68e21461068b578063c5d9bf71146106cf578063cd5c6f57146106d7578063db006a75146106df57610295565b80639f560dd5116101205780639f560dd514610603578063a275370d1461060b578063a457c2d714610613578063a6afed951461063f578063a9059cbb14610647578063aa5af0fd1461067357610295565b806377e4974d1461057b5780638157230b146105835780638da5cb5b146105bf5780638f840ddd146105c757806395d89b41146105cf5780639dc29fac146105d757610295565b80633b1d21a21161020b57806369a5e8cf116101c457806369a5e8cf146104eb5780636c540baf1461051757806370a082311461051f578063715018a61461054557806373acee981461054d5780637746efab1461055557610295565b80633b1d21a21461047157806340c10f191461047957806347bd3718146104a75780634b3fd148146104af5780634c20ac74146104db578063503d37ea146104e357610295565b806318160ddd1161025d57806318160ddd146103bb57806323b872dd146103c3578063313ce567146103f957806338d52e0f14610417578063395093511461041f5780633af9e6691461044b57610295565b806306fdde031461029a578063095ea7b31461031757806311e2c02f14610357578063173b99041461037b57806317bfdfbc14610395575b600080fd5b6102a261078e565b6040805160208082528351818301528351919283929083019185019080838360005b838110156102dc5781810151838201526020016102c4565b50505050905090810190601f1680156103095780820380516001836020036101000a031916815260200191505b509250505060405180910390f35b6103436004803603604081101561032d57600080fd5b506001600160a01b038135169060200135610825565b604080519115158252519081900360200190f35b61035f610843565b604080516001600160a01b039092168252519081900360200190f35b610383610852565b60408051918252519081900360200190f35b610383600480360360208110156103ab57600080fd5b50356001600160a01b0316610858565b610383610871565b610343600480360360608110156103d957600080fd5b506001600160a01b03813581169160208101359091169060400135610877565b610401610904565b6040805160ff9092168252519081900360200190f35b61035f61090d565b6103436004803603604081101561043557600080fd5b506001600160a01b038135169060200135610921565b6103836004803603602081101561046157600080fd5b50356001600160a01b0316610975565b6103836109d2565b6104a56004803603604081101561048f57600080fd5b506001600160a01b0381351690602001356109e1565b005b610383610aa8565b6104a5600480360360408110156104c557600080fd5b50803590602001356001600160a01b0316610aae565b61035f610c4f565b610383610c63565b6103836004803603604081101561050157600080fd5b50803590602001356001600160a01b0316610c80565b610383610ddf565b6103836004803603602081101561053557600080fd5b50356001600160a01b0316610de5565b6104a5610e00565b610383610eb4565b6103836004803603602081101561056b57600080fd5b50356001600160a01b0316610ec5565b610343610f68565b6104a56004803603608081101561059957600080fd5b506001600160a01b03813581169160208101359091169060408101359060600135610f71565b61035f611086565b610383611095565b6102a261109b565b6104a5600480360360408110156105ed57600080fd5b506001600160a01b0381351690602001356110fc565b610383611165565b610383611176565b6103436004803603604081101561062957600080fd5b506001600160a01b038135169060200135611182565b6104a56111f0565b6103436004803603604081101561065d57600080fd5b506001600160a01b0381351690602001356113cb565b6103836113df565b6103836113e5565b610383611484565b6106b1600480360360208110156106a157600080fd5b50356001600160a01b03166114ed565b60408051938452602084019290925282820152519081900360600190f35b61035f611523565b610383611532565b6104a5600480360360208110156106f557600080fd5b503561153c565b6103836004803603604081101561071257600080fd5b506001600160a01b0381358116916020013516611696565b6103836004803603602081101561074057600080fd5b50356001600160a01b03166116c1565b6103836116de565b6104a56004803603602081101561076e57600080fd5b50356001600160a01b03166116e8565b61035f6117f2565b610383611801565b60048054604080516020601f600260001961010060018816150201909516949094049384018190048102820181019092528281526060939092909183018282801561081a5780601f106107ef5761010080835404028352916020019161081a565b820191906000526020600020905b8154815290600101906020018083116107fd57829003601f168201915b505050505090505b90565b6000610839610832611865565b8484611869565b5060015b92915050565b6010546001600160a01b031681565b60085481565b60006108626111f0565b61086b82610ec5565b50919050565b60035490565b6000610884848484611955565b6108fa84610890611865565b6108f585604051806060016040528060288152602001612323602891396001600160a01b038a166000908152600260205260408120906108ce611865565b6001600160a01b03168152602081019190915260400160002054919063ffffffff611aac16565b611869565b5060019392505050565b60065460ff1690565b600d5461010090046001600160a01b031681565b600061083961092e611865565b846108f5856002600061093f611865565b6001600160a01b03908116825260208083019390935260409182016000908120918c16815292529020549063ffffffff611b4316565b600061097f6121b9565b6040518060200160405280610992611484565b905290506000806109ab836109a687610de5565b611ba4565b909250905060008260038111156109be57fe5b146109c857600080fd5b925050505b919050565b60006109dc611bf8565b905090565b600f546001600160a01b031633146109f857600080fd5b610a006121cc565b610a08611484565b602080830191825260408051918201905290518152610a28908390611c48565b6040830181905282826003811115610a3c57fe5b6003811115610a4757fe5b8152505050610a5a838260400151611c5f565b60408082015181516001600160a01b0386168152602081019190915281517f30385c845b448a36257a6a1716e6ad2e1bc2cbe333cde1e69fe849ad6511adfe929181900390910190a1505050565b600b5481565b600f546001600160a01b03163314610ac557600080fd5b610acd6111f0565b81610ad6611bf8565b11610ae057600080fd5b610ae86121ee565b610af182610858565b60208201819052610b029084611d4b565b6040830181905282826003811115610b1657fe5b6003811115610b2157fe5b8152505050610b32600b5484611d4b565b6060830181905282826003811115610b4657fe5b6003811115610b5157fe5b905250506040808201516001600160a01b03808516600081815260116020908152858220948555600a546001909501949094556060860151600b55600d54855163a9059cbb60e01b815260048101939093526024830189905294516101009095049092169363a9059cbb9360448084019491938390030190829087803b158015610bda57600080fd5b505af1158015610bee573d6000803e3d6000fd5b505050506040513d6020811015610c0457600080fd5b5050604080516001600160a01b03841681526020810185905281517fac59582e5396aca512fa873a2047e7f4c80f8f55d4a06cb34a78a0187f62719f929181900390910190a1505050565b600d5461010090046001600160a01b031690565b60006109dc62243394610c74611801565b9063ffffffff611d7116565b600f546000906001600160a01b03163314610c9a57600080fd5b610ca26111f0565b610caa612217565b6001600160a01b038316600090815260116020526040908190206001015490820152610cd583610858565b606082015283610cee5760608101516020820152610cf6565b602081018490525b610d0881606001518260200151611dca565b6080830181905282826003811115610d1c57fe5b6003811115610d2757fe5b8152505050610d3c600b548260200151611dca565b60a0830181905282826003811115610d5057fe5b6003811115610d5b57fe5b9052505060808101516001600160a01b038416600081815260116020908152604091829020938455600a5460019094019390935560a0840151600b558284015181519283529282019290925281517f4792e4d6a0dabb47a2ac2b2fb3ab426c2e1a5e3cab374282d855ac6cb03a5712929181900390910190a1602001519392505050565b60095481565b6001600160a01b031660009081526001602052604090205490565b610e08611865565b6000546001600160a01b03908116911614610e6a576040805162461bcd60e51b815260206004820181905260248201527f4f776e61626c653a2063616c6c6572206973206e6f7420746865206f776e6572604482015290519081900360640190fd5b600080546040516001600160a01b03909116907f8be0079c531659141344cd1fd0a4f28419497f9722a3daafe3b4186f6b6457e0908390a3600080546001600160a01b0319169055565b6000610ebe6111f0565b50600b5490565b6001600160a01b0381166000908152601160205260408120805482918291829190610ef75760009450505050506109cd565b610f078160000154600a54611ded565b90945092506000846003811115610f1a57fe5b14610f2c5760009450505050506109cd565b610f3a838260010154611e2c565b90945091506000846003811115610f4d57fe5b14610f5f5760009450505050506109cd565b50949350505050565b600d5460ff1681565b600f5460408051638da5cb5b60e01b8152905133926001600160a01b031691638da5cb5b916004808301926020929190829003018186803b158015610fb557600080fd5b505afa158015610fc9573d6000803e3d6000fd5b505050506040513d6020811015610fdf57600080fd5b50516001600160a01b031614610ff457600080fd5b601054600d546040805163f0defe9360e01b81526101009092046001600160a01b039081166004840152878116602484015286811660448401526064830186905260848301859052905192169163f0defe939160a48082019260009290919082900301818387803b15801561106857600080fd5b505af115801561107c573d6000803e3d6000fd5b5050505050505050565b6000546001600160a01b031690565b600c5481565b60058054604080516020601f600260001961010060018816150201909516949094049384018190048102820181019092528281526060939092909183018282801561081a5780601f106107ef5761010080835404028352916020019161081a565b600f546001600160a01b0316331461111357600080fd5b61111d8282611e57565b604080516001600160a01b03841681526020810183905281517fcc16f5dbb4873280815c1ee09dbd06736cffcc184412cf7a71a0fdb75d397ca5929181900390910190a15050565b60006109dc62243394610c746113e5565b670de0b6b3a764000081565b600061083961118f611865565b846108f5856040518060600160405280602581526020016123d560259139600260006111b9611865565b6001600160a01b03908116825260208083019390935260409182016000908120918d1681529252902054919063ffffffff611aac16565b60006111fa611f4d565b600954909150600061120a611bf8565b600b54600c54600a5492935090918486146113c357600e54604080516315f2405360e01b815260048101879052602481018690526044810185905290516000926001600160a01b0316916315f24053916064808301926020929190829003018186803b15801561127957600080fd5b505afa15801561128d573d6000803e3d6000fd5b505050506040513d60208110156112a357600080fd5b5051905065048c273950008111156112ba57600080fd5b6000806112c78989611dca565b915091506112d36121b9565b6000806000806112f160405180602001604052808a81525087611f51565b9097509450611300858c611ba4565b909750935061130f848c611d4b565b60408051602081019091526008548152919850935061132f90858c611fb9565b909750915061133f858a80611fb9565b80925081985050508d60098190555080600a8190555082600b8190555081600c819055507fe3972ae250606e82c6683843383cb8a51755588d2f443af42e8cb5b1e085392d600954600a54600b54600c546040518085815260200184815260200183815260200182815260200194505050505060405180910390a150505050505050505b505050505050565b60006108396113d8611865565b8484611955565b600a5481565b600e546000906001600160a01b031663b8168816611401611bf8565b600b54600c546008546040518563ffffffff1660e01b81526004018085815260200184815260200183815260200182815260200194505050505060206040518083038186803b15801561145357600080fd5b505afa158015611467573d6000803e3d6000fd5b505050506040513d602081101561147d57600080fd5b5051905090565b600061148e6111f0565b611496610871565b6114a35750600754610822565b60006114ad611bf8565b905060006114b96121b9565b60006114ca84600b54600c54612015565b935090506114df836114da610871565b612053565b519550610822945050505050565b6000806000806114fc85610de5565b9050600061150986610858565b90506000611515611484565b929791965091945092505050565b600f546001600160a01b031681565b6000611496610871565b6115446111f0565b8061154e57600080fd5b6115566121cc565b61155e611484565b602082015261156d3383611e57565b6115896040518060200160405280836020015181525083611ba4565b604083018190528282600381111561159d57fe5b60038111156115a857fe5b9052505060408101516115b9611bf8565b10156115c457600080fd5b600d54604082810151815163a9059cbb60e01b8152336004820152602481019190915290516101009092046001600160a01b03169163a9059cbb916044808201926020929091908290030181600087803b15801561162157600080fd5b505af1158015611635573d6000803e3d6000fd5b505050506040513d602081101561164b57600080fd5b50506040808201518151338152602081018590528083019190915290517ff3a670cd3af7d64b488926880889d08a8585a138ff455227af6737339a1ec2629181900360600190a15050565b6001600160a01b03918216600090815260026020908152604080832093909416825291909152205490565b60006116cb6121b9565b6040518060200160405280610992611532565b65048c2739500081565b6116f0611865565b6000546001600160a01b03908116911614611752576040805162461bcd60e51b815260206004820181905260248201527f4f776e61626c653a2063616c6c6572206973206e6f7420746865206f776e6572604482015290519081900360640190fd5b6001600160a01b0381166117975760405162461bcd60e51b81526004018080602001828103825260268152602001806122946026913960400191505060405180910390fd5b600080546040516001600160a01b03808516939216917f8be0079c531659141344cd1fd0a4f28419497f9722a3daafe3b4186f6b6457e091a3600080546001600160a01b0319166001600160a01b0392909216919091179055565b600e546001600160a01b031681565b600e546000906001600160a01b03166315f2405361181d611bf8565b600b54600c546040518463ffffffff1660e01b815260040180848152602001838152602001828152602001935050505060206040518083038186803b15801561145357600080fd5b3390565b6001600160a01b0383166118ae5760405162461bcd60e51b81526004018080602001828103825260248152602001806123b16024913960400191505060405180910390fd5b6001600160a01b0382166118f35760405162461bcd60e51b81526004018080602001828103825260228152602001806122ba6022913960400191505060405180910390fd5b6001600160a01b03808416600081815260026020908152604080832094871680845294825291829020859055815185815291517f8c5be1e5ebec7d5bd14f71427d1e84f3dd0314c0f7b2291e5b200ac8c7c3b9259281900390910190a3505050565b6001600160a01b03831661199a5760405162461bcd60e51b815260040180806020018281038252602581526020018061238c6025913960400191505060405180910390fd5b6001600160a01b0382166119df5760405162461bcd60e51b815260040180806020018281038252602381526020018061224f6023913960400191505060405180910390fd5b6119ea838383612104565b611a2d816040518060600160405280602681526020016122dc602691396001600160a01b038616600090815260016020526040902054919063ffffffff611aac16565b6001600160a01b038085166000908152600160205260408082209390935590841681522054611a62908263ffffffff611b4316565b6001600160a01b03808416600081815260016020908152604091829020949094558051858152905191939287169260008051602061234b83398151915292918290030190a3505050565b60008184841115611b3b5760405162461bcd60e51b81526004018080602001828103825283818151815260200191508051906020019080838360005b83811015611b00578181015183820152602001611ae8565b50505050905090810190601f168015611b2d5780820380516001836020036101000a031916815260200191505b509250505060405180910390fd5b505050900390565b600082820183811015611b9d576040805162461bcd60e51b815260206004820152601b60248201527f536166654d6174683a206164646974696f6e206f766572666c6f770000000000604482015290519081900360640190fd5b9392505050565b6000806000611bb16121b9565b611bbb8686611f51565b90925090506000826003811115611bce57fe5b14611bdf5750915060009050611bf1565b6000611bea82612109565b9350935050505b9250929050565b600d54604080516370a0823160e01b8152306004820152905160009261010090046001600160a01b0316916370a08231916024808301926020929190829003018186803b15801561145357600080fd5b6000806000611c556121b9565b611bbb8686612118565b6001600160a01b038216611cba576040805162461bcd60e51b815260206004820152601f60248201527f45524332303a206d696e7420746f20746865207a65726f206164647265737300604482015290519081900360640190fd5b611cc660008383612104565b600354611cd9908263ffffffff611b4316565b6003556001600160a01b038216600090815260016020526040902054611d05908263ffffffff611b4316565b6001600160a01b038316600081815260016020908152604080832094909455835185815293519293919260008051602061234b8339815191529281900390910190a35050565b600080838301848110611d6357600092509050611bf1565b506002915060009050611bf1565b600082611d805750600061083d565b82820282848281611d8d57fe5b0414611b9d5760405162461bcd60e51b81526004018080602001828103825260218152602001806123026021913960400191505060405180910390fd5b600080838311611de1575060009050818303611bf1565b50600390506000611bf1565b60008083611e0057506000905080611bf1565b83830283858281611e0d57fe5b0414611e2157506002915060009050611bf1565b600092509050611bf1565b60008082611e405750600190506000611bf1565b6000838581611e4b57fe5b04915091509250929050565b6001600160a01b038216611e9c5760405162461bcd60e51b815260040180806020018281038252602181526020018061236b6021913960400191505060405180910390fd5b611ea882600083612104565b611eeb81604051806060016040528060228152602001612272602291396001600160a01b038516600090815260016020526040902054919063ffffffff611aac16565b6001600160a01b038316600090815260016020526040902055600354611f17908263ffffffff61217716565b6003556040805182815290516000916001600160a01b0385169160008051602061234b8339815191529181900360200190a35050565b4390565b6000611f5b6121b9565b600080611f6c866000015186611ded565b90925090506000826003811115611f7f57fe5b14611f9e57506040805160208101909152600081529092509050611bf1565b60408051602081019091529081526000969095509350505050565b6000806000611fc66121b9565b611fd08787611f51565b90925090506000826003811115611fe357fe5b14611ff4575091506000905061200d565b61200661200082612109565b86611d4b565b9350935050505b935093915050565b6000806000806120258787611d4b565b9092509050600082600381111561203857fe5b14612049575091506000905061200d565b6120068186611dca565b600061205d6121b9565b60008061207286670de0b6b3a7640000611ded565b9092509050600082600381111561208557fe5b146120a457506040805160208101909152600081529092509050611bf1565b6000806120b18388611e2c565b909250905060008260038111156120c457fe5b146120e75781604051806020016040528060008152509550955050505050611bf1565b604080516020810190915290815260009890975095505050505050565b505050565b51670de0b6b3a7640000900490565b60006121226121b9565b600080612137670de0b6b3a764000087611ded565b9092509050600082600381111561214a57fe5b1461216957506040805160208101909152600081529092509050611bf1565b611bea818660000151612053565b6000611b9d83836040518060400160405280601e81526020017f536166654d6174683a207375627472616374696f6e206f766572666c6f770000815250611aac565b6040518060200160405280600081525090565b6040805160608101909152806000815260200160008152602001600081525090565b604080516080810190915280600081526020016000815260200160008152602001600081525090565b6040805160c0810190915280600081526020016000815260200160008152602001600081526020016000815260200160008152509056fe45524332303a207472616e7366657220746f20746865207a65726f206164647265737345524332303a206275726e20616d6f756e7420657863656564732062616c616e63654f776e61626c653a206e6577206f776e657220697320746865207a65726f206164647265737345524332303a20617070726f766520746f20746865207a65726f206164647265737345524332303a207472616e7366657220616d6f756e7420657863656564732062616c616e6365536166654d6174683a206d756c7469706c69636174696f6e206f766572666c6f7745524332303a207472616e7366657220616d6f756e74206578636565647320616c6c6f77616e6365ddf252ad1be2c89b69c2b068fc378daa952ba7f163c4a11628f55a4df523b3ef45524332303a206275726e2066726f6d20746865207a65726f206164647265737345524332303a207472616e736665722066726f6d20746865207a65726f206164647265737345524332303a20617070726f76652066726f6d20746865207a65726f206164647265737345524332303a2064656372656173656420616c6c6f77616e63652062656c6f77207a65726fa264697066735822122020e8241b32e771d7b71814dd5dc3b5b61677ed042d337f5066b5951c2457f6f764736f6c634300060600334f776e61626c653a206e6577206f776e657220697320746865207a65726f2061646472657373536166654d6174683a206d756c7469706c69636174696f6e206f766572666c6f774f776e61626c653a2063616c6c6572206973206e6f7420746865206f776e65722a6c148cdc9347a81dfbfe504afb64ea0aeca1114171ef18a3e11cb1fda8b3a6a2646970667358221220d6cd3a918d60503a1192a7e31d18427f136a667eb3e2b8bc4413d2ae14af473064736f6c63430006060033",
  "immutableReferences": {},
  "source": "pragma solidity ^0.6.0;\n\nimport \"@openzeppelin/contracts/access/Ownable.sol\";\nimport \"@openzeppelin/contracts/math/SafeMath.sol\";\nimport \"@openzeppelin/contracts/token/ERC20/IERC20.sol\";\nimport \"./compound/Exponential.sol\";\nimport \"./interfaces/UniswapOracleFactoryI.sol\";\nimport \"./interfaces/MoneyMarketFactoryI.sol\";\nimport \"./AskoRiskToken.sol\";\n////////////////////////////////////////////////////////////////////////////////////////////\n/// @title MoneyMarketInstance\n/// @author Christopher Dixon\n////////////////////////////////////////////////////////////////////////////////////////////\n/**\nThe MoneyMarketInstance contract is designed facilitate a tiered money market for an individual ERC20 asset\nThis contract uses the OpenZeppelin contract Library to inherit functions from\n  Ownable.sol && IRC20.sol\n**/\ncontract MoneyMarketInstance is Ownable, Exponential {\n    using SafeMath for uint256;\n\n  uint public divisor;\n  uint public fee_AHR;\n  uint public fee_ALR;\n\n\n\n  string public assetName;\n  string public assetSymbol;\n\n\n  IERC20 public asset;\n  AskoRiskToken public AHR;\n  AskoRiskToken public ALR;\n  MoneyMarketFactoryI public MMF;\n  UniswapOracleFactoryI public UOF;\n\nmapping(address => uint) lockedCollateral;\nmapping(address => address) collateralLockedALR;\n/**\n@notice onlyMMFactory is a modifier used to make a function only callable by the Money Market Factory contract\n**/\n  modifier onlyMMFactory()  {\n    require(msg.sender == address(MMF));\n    _;\n  }\n\n  event LentToAHR(address lender, uint amount);\n  event LentToALR(address lender, uint amount);\n  event Borrow(address borrower, uint AHRamount, uint ALRamount);\n  event Repayed(address borrower, uint AHRamount,uint ALRamount);\n  event Collateralized(address collateralizer, uint amount);\n\n/**\n@notice the constructor function is fired during the contract deployment process. The constructor can only be fired once and\n        is used to initialize the MoneyMakerInstance and deploy its associated AHR && ALR token contracts\n@param _assetContractAdd is the address of the ERC20 asset being whitelisted\n@param _assetName is the name of the asset(e.x: ChainLink)\n@param _assetSymbol is the symbol of the asset(e.x: LINK)\n@dev this function uses ABI encoding to properly concatenate AHR- && ALR- in front of the tokens name and symbol\n      before creating each token.\n**/\n  constructor (\n    address _assetContractAdd,\n    address _oracleFactory,\n    address _owner,\n\t\tstring memory _assetName,\n\t\tstring memory _assetSymbol\n  )\n  public\n  {\n  divisor = 10000;\n  assetName = _assetName;\n  assetSymbol = _assetSymbol;\n  UOF = UniswapOracleFactoryI(_oracleFactory);\n  MMF = MoneyMarketFactoryI(_owner);\n  asset = IERC20(_assetContractAdd);\n  }\n\n/**\n@notice setUp is called by the MoneyMarketFactory after a contract is created to set up the initial variables.\n        This is split from the constructor function to keep from reaching the gas block limit\n@param  _InterestRateModel is the address of this MoneyMarketInstances InterestRateModel\n@param _fee is a number representing the fee for exchanging an AHR token, as a mantissa (scaled by 1e18)\n@dev this function will create a token whos name and symbol is concatenated with a \"AHR-\" in front of it\n      example: AHR-LINK\n@dev asset.approve() is called to allow the AHR contract to freeely transfer the assset from this contract when the mint\n      lendToAHRpool function is called.\n**/\nfunction _setUpAHR(\n    address _InterestRateModel,\n    uint _fee,\n    uint _initialExchangeRate\n  )\n  public\n  onlyMMFactory\n  {\n  fee_AHR = _fee;\n  bytes memory ahrname = abi.encodePacked(\"AHR-\");\n  ahrname = abi.encodePacked(ahrname, assetName);\n//abi encode and concat strings\n  bytes memory ahrsymbol = abi.encodePacked(\"AHR-\");\n  ahrsymbol = abi.encodePacked(ahrsymbol, assetSymbol);\n//abi encode and concat strings\n  string memory assetNameAHR = string(ahrname);\n  string memory assetSymbolAHR = string(ahrsymbol);\n//un-encode concated string\n  AHR = new AskoRiskToken(//creates new Asko High Risk Token Contract\n    _InterestRateModel,\n    address(asset),\n    address(UOF),\n    assetNameAHR,\n    assetSymbolAHR,\n    false,\n    _initialExchangeRate\n  );\n  }\n\n/**\n@notice setUp is called by the MoneyMarketFactory after a contract is created to set up the initial variables.\n        This is split from the constructor function to keep from reaching the gas block limit\n@param  _InterestRateModel is the address of this MoneyMarketInstances InterestRateModel\n@param _fee is a number representing the fee for exchanging an ALR token, as a mantissa (scaled by 1e18)\n@dev this function will create a token whos name and symbol is concatenated with a \"ALR-\" in front of it\n      example: ALR-LINK\n@dev asset.approve() is called to allow the ALR contract to freeely transfer the assset from this contract when the mint\n      lendToALRpool function is called.\n**/\n  function _setUpALR(\n      address _InterestRateModel,\n      uint256 _fee,\n      uint _initialExchangeRate\n    )\n    public\n    onlyMMFactory\n    {\n    fee_ALR = _fee;\n    bytes memory alrname = abi.encodePacked(\"AlR-\");\n    alrname = abi.encodePacked(alrname, assetName);\n//abi encode and concat strings\n    bytes memory alrsymbol = abi.encodePacked(\"AlR-\");\n    alrsymbol = abi.encodePacked(alrsymbol, assetSymbol);\n//abi encode and concat strings\n    string memory assetNameALR = string(alrname);\n    string memory assetSymbolALR = string(alrsymbol);\n//un-encode concated string\n    ALR = new AskoRiskToken(//creates new Asko Low Risk Token Contract\n      _InterestRateModel,\n      address(asset),\n      address(UOF),\n      assetNameALR,\n      assetSymbolALR,\n      true,\n      _initialExchangeRate\n    );\n    }\n\n\n/**\n@notice getAssetAdd allows for easy retrieval of a Money Markets underlying asset's address\n**/\n  function getAssetAdd() public view returns (address) {\n    return address(asset);\n  }\n\n  /**\n  @notice setFee allows the owner of this contract to set the fee\n  @param  _fee is the input number representing the fee\n  @dev the divisor is set to 10,000 in the constructor for this contract. this allows for\n        a fee percentage accounting for two decimal places. feePercent must account for this when being set.\n        The following examples show feePercent amounts and how they equate to percentages:\n                EX:\n                    a 1% fee would be set as feePercent = 100\n                    a .5% fee would be set as feePercent = 50\n                    a 50% fee would be set as feePercent = 5000\n  **/\n    function setFeeAHR(uint _fee) public onlyOwner {\n        fee_AHR = _fee;\n    }\n\n  /**\n  @notice setFee allows the owner of this contract to set the fee\n  @param  _fee is the input number representing the fee\n  @dev the divisor is set to 10,000 in the constructor for this contract. this allows for\n        a fee percentage accounting for two decimal places. feePercent must account for this when being set.\n        The following examples show feePercent amounts and how they equate to percentages:\n                EX:\n                    a 1% fee would be set as feePercent = 100\n                    a .5% fee would be set as feePercent = 50\n                    a 50% fee would be set as feePercent = 5000\n  **/\n    function setFeeALR(uint _fee) public onlyOwner {\n        fee_ALR = _fee;\n    }\n\n\n  /**\n  @notice calculateFee is used to calculate the fee earned\n  @param _payedAmount is a uint representing the full amount of an ERC20 asset payed\n  @dev the divisor is set to 10,000 in the constructor for this contract. this allows for\n        a fee percentage accounting for two decimal places. feePercent must account for this when being set.\n        The following examples show feePercent amounts and how they equate to percentages:\n                EX:\n                    a 1% fee would be set as feePercent = 100\n                    a .5% fee would be set as feePercent = 50\n                    a 50% fee would be set as feePercent = 5000\n  **/\n  function calculateFee(uint256 _payedAmount, uint _feePercent) public view returns(uint) {\n    uint256 fee = _payedAmount.mul(_feePercent).div(divisor);\n    return fee;\n  }\n\n/**\n@notice lendToAHRpool is used to lend assets to a MoneyMarketInstance's High Risk pool\n@param _amount is the amount of the asset being lent\n@dev the user will need to first approve the transfer of the underlying asset\n**/\n  function lendToAHRpool(uint _amount) public {\n    //transfer appropriate amount off the asset from msg.sender to the AHR contract\n    asset.transferFrom(msg.sender, address(AHR), _amount);\n    //call mint function on AHR contract\n    AHR.mint(msg.sender, _amount);\n    emit LentToAHR(msg.sender, _amount);\n  }\n\n/**\n@notice lendToAHRpool is used to lend assets to a MoneyMarketInstance's Low Risk pool\n@param _amount is the amount of the asset being lent\n@dev the user will need to first approve the transfer of the underlying asset\n**/\n    function lendToALRpool(uint _amount) public {\n      //transfer appropriate amount off the asset from msg.sender to the AHR contract\n      asset.transferFrom(msg.sender, address(ALR), _amount);\n      //call mint function on ALR contract\n      ALR.mint(msg.sender, _amount);\n      emit LentToALR(msg.sender, _amount);\n    }\n\n\n/**\n@notice borrow is used to take out a loan from in MoneyMarketInstance's underlying asset\n@param _amount is the amount of asset being barrowed\n@param _collateral is the address of the ALR token being used as collateral\n**/\n  function borrow(uint _amount, address _collateral) public {\n    require(_collateral == collateralLockedALR[msg.sender] || collateralLockedALR[msg.sender] == address(0));\n    //check that the user has enough collateral in input moeny market\n    uint collateralValue = MMF.checkAvailibleCollateralValue(msg.sender, _collateral);\n    //get current borrow balances for each ART\n    uint borrowBalAHR = AHR.borrowBalanceCurrent(msg.sender);\n    uint borrowBalALR = ALR.borrowBalanceCurrent(msg.sender);\n    //calculate the new amount that would be owed if borrow suceeds\n    uint totalFutureAmountOwed = borrowBalAHR.add(borrowBalALR.add(_amount));\n    //check current asset price\n    uint priceOfAsset = UOF.getUnderlyingPrice(address(asset));\n    //get the usd price value of _amount\n    uint assetAmountValOwed = priceOfAsset.mul(totalFutureAmountOwed);\n    //divide amount value by 3\n    uint halfVal = assetAmountValOwed.div(2);\n    //add 1/2 value to asset value to get 150% asset value\n    uint collateralNeeded = assetAmountValOwed.add(halfVal);\n    //require collateral value to be greater than 150% of the amount value of loan\n    require(collateralValue >= collateralNeeded);\n    //cut amount of tokens in half\n    uint half = _amount.div(2);\n    //lock the collateral needed for this loan so it cant be \"double spent\"\n    MMF.lockCollateral(msg.sender, _collateral, collateralNeeded);\n    //track locked amount\n    lockedCollateral[msg.sender] = lockedCollateral[msg.sender].add(collateralNeeded);\n    //track which ALR is locked\n    collateralLockedALR[msg.sender] = _collateral;\n    //borrow half from each pool\n    AHR.borrow(half, msg.sender);\n    ALR.borrow(half, msg.sender);\n    emit Borrow(msg.sender, half, half);\n  }\n\n/**\n@notice repay is used to repay a loan\n@param _repayAmount is the amount of the underlying asset being repayed\n**/\n\tfunction repay(uint _repayAmount) public {\n    //get their current owed balance of ALR\n    uint accountBorrowsALR = ALR.borrowBalanceCurrent(msg.sender);\n    uint payAmountAHR;\n    uint payAmountALR;\n    if(accountBorrowsALR != 0) { //if amount owed to ALR isnt zero\n          if(accountBorrowsALR >= _repayAmount) { //check if repay amount is greater than ALR borrow balance\n            payAmountALR = ALR.repayBorrow(_repayAmount, msg.sender); //if it is repay amount to ALR\n            //transfer asset from the user to this contract\n            asset.transferFrom(msg.sender, address(ALR), payAmountALR);\n            emit Repayed(msg.sender, 0, _repayAmount);\n          } else { //if not\n            uint amountToALR = _repayAmount.sub(accountBorrowsALR); //calculate amount needed to pay off ALR\n            payAmountALR = ALR.repayBorrow(amountToALR, msg.sender); //pay off ALR\n             //transfer asset from the user to this contract\n            asset.transferFrom(msg.sender, address(ALR), payAmountALR);\n            uint amountToAHR = _repayAmount.sub(amountToALR);//calculate AHR amount\n            payAmountAHR = AHR.repayBorrow(amountToAHR, msg.sender); //pay off towards AHR\n          //transfer asset from the user to this contract\n            asset.transferFrom(msg.sender, address(AHR), payAmountAHR);\n            emit Repayed(msg.sender, payAmountAHR, payAmountALR);\n          }\n    } else {//if amount owed to ALR IS zero\n      payAmountAHR = AHR.repayBorrow(_repayAmount, msg.sender);//pay towards AHR\n      //transfer asset from the user to this contract\n      asset.transferFrom(msg.sender, address(AHR), payAmountAHR);\n      uint accountBorrowsAHR =  ALR.borrowBalanceCurrent(msg.sender);\n      if(accountBorrowsAHR == 0) { //if the loan is fully payed off\n        //unlock the users locked collateral for this loan\n        MMF.unlockCollateral(msg.sender, collateralLockedALR[msg.sender], lockedCollateral[msg.sender]);\n        //reset collateralLockedALR address to zero so the user can use a different ALR address in future borrows\n        collateralLockedALR[msg.sender] = address(0);\n        //reset locked collateral amount\n        lockedCollateral[msg.sender] = 0;\n      }\n      emit Repayed(msg.sender, payAmountAHR, 0);\n  }\n}\n\n\n\n/**\n@notice collateralizeALR allows a user to collateralize the ALR they hold in a specific money market\n@param _amount is the amount of ALR being collateralized\n**/\n   function collateralizeALR(uint _amount) public {\n     ALR.burn(msg.sender, _amount);\n     MMF.trackCollateral(msg.sender, address(ALR), _amount);\n     emit Collateralized(msg.sender, _amount);\n   }\n\n\n}\n",
  "sourcePath": "/home/stan36/repos/Askolend/AskoLend-contracts/contracts/MoneyMarketInstance.sol",
  "compiler": {
    "name": "solc",
    "version": "0.6.6+commit.6c089d02.Emscripten.clang"
  },
  "schemaVersion": "3.2.5",
  "updatedAt": "2020-10-23T20:53:06.368Z",
  "devdoc": {
    "methods": {
      "_setUpAHR(address,uint256,uint256)": {
        "details": "this function will create a token whos name and symbol is concatenated with a \"AHR-\" in front of it example: AHR-LINKasset.approve() is called to allow the AHR contract to freeely transfer the assset from this contract when the mint lendToAHRpool function is called.*",
        "params": {
          "_InterestRateModel": "is the address of this MoneyMarketInstances InterestRateModel",
          "_fee": "is a number representing the fee for exchanging an AHR token, as a mantissa (scaled by 1e18)"
        }
      },
      "_setUpALR(address,uint256,uint256)": {
        "details": "this function will create a token whos name and symbol is concatenated with a \"ALR-\" in front of it example: ALR-LINKasset.approve() is called to allow the ALR contract to freeely transfer the assset from this contract when the mint lendToALRpool function is called.*",
        "params": {
          "_InterestRateModel": "is the address of this MoneyMarketInstances InterestRateModel",
          "_fee": "is a number representing the fee for exchanging an ALR token, as a mantissa (scaled by 1e18)"
        }
      },
      "borrow(uint256,address)": {
        "params": {
          "_amount": "is the amount of asset being barrowed",
          "_collateral": "is the address of the ALR token being used as collateral*"
        }
      },
      "calculateFee(uint256,uint256)": {
        "details": "the divisor is set to 10,000 in the constructor for this contract. this allows for a fee percentage accounting for two decimal places. feePercent must account for this when being set. The following examples show feePercent amounts and how they equate to percentages: EX: a 1% fee would be set as feePercent = 100 a .5% fee would be set as feePercent = 50 a 50% fee would be set as feePercent = 5000*",
        "params": {
          "_payedAmount": "is a uint representing the full amount of an ERC20 asset payed"
        }
      },
      "collateralizeALR(uint256)": {
        "params": {
          "_amount": "is the amount of ALR being collateralized*"
        }
      },
      "constructor": {
        "details": "this function uses ABI encoding to properly concatenate AHR- && ALR- in front of the tokens name and symbol before creating each token.*",
        "params": {
          "_assetContractAdd": "is the address of the ERC20 asset being whitelisted",
          "_assetName": "is the name of the asset(e.x: ChainLink)",
          "_assetSymbol": "is the symbol of the asset(e.x: LINK)"
        }
      },
      "lendToAHRpool(uint256)": {
        "details": "the user will need to first approve the transfer of the underlying asset*",
        "params": {
          "_amount": "is the amount of the asset being lent"
        }
      },
      "lendToALRpool(uint256)": {
        "details": "the user will need to first approve the transfer of the underlying asset*",
        "params": {
          "_amount": "is the amount of the asset being lent"
        }
      },
      "owner()": {
        "details": "Returns the address of the current owner."
      },
      "renounceOwnership()": {
        "details": "Leaves the contract without owner. It will not be possible to call `onlyOwner` functions anymore. Can only be called by the current owner.     * NOTE: Renouncing ownership will leave the contract without an owner, thereby removing any functionality that is only available to the owner."
      },
      "repay(uint256)": {
        "params": {
          "_repayAmount": "is the amount of the underlying asset being repayed*"
        }
      },
      "setFeeAHR(uint256)": {
        "details": "the divisor is set to 10,000 in the constructor for this contract. this allows for a fee percentage accounting for two decimal places. feePercent must account for this when being set. The following examples show feePercent amounts and how they equate to percentages: EX: a 1% fee would be set as feePercent = 100 a .5% fee would be set as feePercent = 50 a 50% fee would be set as feePercent = 5000*",
        "params": {
          "_fee": "is the input number representing the fee"
        }
      },
      "setFeeALR(uint256)": {
        "details": "the divisor is set to 10,000 in the constructor for this contract. this allows for a fee percentage accounting for two decimal places. feePercent must account for this when being set. The following examples show feePercent amounts and how they equate to percentages: EX: a 1% fee would be set as feePercent = 100 a .5% fee would be set as feePercent = 50 a 50% fee would be set as feePercent = 5000*",
        "params": {
          "_fee": "is the input number representing the fee"
        }
      },
      "transferOwnership(address)": {
        "details": "Transfers ownership of the contract to a new account (`newOwner`). Can only be called by the current owner."
      }
    }
  },
  "userdoc": {
    "methods": {
      "_setUpAHR(address,uint256,uint256)": {
        "notice": "setUp is called by the MoneyMarketFactory after a contract is created to set up the initial variables. This is split from the constructor function to keep from reaching the gas block limit"
      },
      "_setUpALR(address,uint256,uint256)": {
        "notice": "setUp is called by the MoneyMarketFactory after a contract is created to set up the initial variables. This is split from the constructor function to keep from reaching the gas block limit"
      },
      "borrow(uint256,address)": {
        "notice": "borrow is used to take out a loan from in MoneyMarketInstance's underlying asset"
      },
      "calculateFee(uint256,uint256)": {
        "notice": "calculateFee is used to calculate the fee earned"
      },
      "collateralizeALR(uint256)": {
        "notice": "collateralizeALR allows a user to collateralize the ALR they hold in a specific money market"
      },
      "constructor": "the constructor function is fired during the contract deployment process. The constructor can only be fired once and is used to initialize the MoneyMakerInstance and deploy its associated AHR && ALR token contracts",
      "getAssetAdd()": {
        "notice": "getAssetAdd allows for easy retrieval of a Money Markets underlying asset's address*"
      },
      "lendToAHRpool(uint256)": {
        "notice": "lendToAHRpool is used to lend assets to a MoneyMarketInstance's High Risk pool"
      },
      "lendToALRpool(uint256)": {
        "notice": "lendToAHRpool is used to lend assets to a MoneyMarketInstance's Low Risk pool"
      },
      "repay(uint256)": {
        "notice": "repay is used to repay a loan"
      },
      "setFeeAHR(uint256)": {
        "notice": "setFee allows the owner of this contract to set the fee"
      },
      "setFeeALR(uint256)": {
        "notice": "setFee allows the owner of this contract to set the fee"
      }
    },
    "notice": "The MoneyMarketInstance contract is designed facilitate a tiered money market for an individual ERC20 asset This contract uses the OpenZeppelin contract Library to inherit functions from Ownable.sol && IRC20.sol*"
  }
}