{
  "contractName": "MoneyMarketInstance",
  "abi": [
    {
      "inputs": [
        {
          "internalType": "address",
          "name": "_assetContractAdd",
          "type": "address"
        },
        {
          "internalType": "address",
          "name": "_oracleFactory",
          "type": "address"
        },
        {
          "internalType": "address",
          "name": "_owner",
          "type": "address"
        },
        {
          "internalType": "address",
          "name": "_ARTF",
          "type": "address"
        },
        {
          "internalType": "uint256",
          "name": "_collatRatio",
          "type": "uint256"
        },
        {
          "internalType": "string",
          "name": "_assetName",
          "type": "string"
        },
        {
          "internalType": "string",
          "name": "_assetSymbol",
          "type": "string"
        }
      ],
      "stateMutability": "nonpayable",
      "type": "constructor"
    },
    {
      "anonymous": false,
      "inputs": [
        {
          "indexed": false,
          "internalType": "address",
          "name": "borrower",
          "type": "address"
        },
        {
          "indexed": false,
          "internalType": "uint256",
          "name": "AHRamount",
          "type": "uint256"
        },
        {
          "indexed": false,
          "internalType": "uint256",
          "name": "ALRamount",
          "type": "uint256"
        }
      ],
      "name": "Borrow",
      "type": "event"
    },
    {
      "anonymous": false,
      "inputs": [
        {
          "indexed": false,
          "internalType": "address",
          "name": "collateralizer",
          "type": "address"
        },
        {
          "indexed": false,
          "internalType": "uint256",
          "name": "amount",
          "type": "uint256"
        }
      ],
      "name": "Collateralized",
      "type": "event"
    },
    {
      "anonymous": false,
      "inputs": [
        {
          "indexed": false,
          "internalType": "address",
          "name": "lender",
          "type": "address"
        },
        {
          "indexed": false,
          "internalType": "uint256",
          "name": "amount",
          "type": "uint256"
        }
      ],
      "name": "LentToAHR",
      "type": "event"
    },
    {
      "anonymous": false,
      "inputs": [
        {
          "indexed": false,
          "internalType": "address",
          "name": "lender",
          "type": "address"
        },
        {
          "indexed": false,
          "internalType": "uint256",
          "name": "amount",
          "type": "uint256"
        }
      ],
      "name": "LentToALR",
      "type": "event"
    },
    {
      "anonymous": false,
      "inputs": [
        {
          "indexed": false,
          "internalType": "address",
          "name": "borrower",
          "type": "address"
        },
        {
          "indexed": false,
          "internalType": "address",
          "name": "liquidator",
          "type": "address"
        },
        {
          "indexed": false,
          "internalType": "uint256",
          "name": "totalBorrowswETHval",
          "type": "uint256"
        },
        {
          "indexed": false,
          "internalType": "address",
          "name": "moneyMarket",
          "type": "address"
        }
      ],
      "name": "Liquidated",
      "type": "event"
    },
    {
      "anonymous": false,
      "inputs": [
        {
          "indexed": true,
          "internalType": "address",
          "name": "previousOwner",
          "type": "address"
        },
        {
          "indexed": true,
          "internalType": "address",
          "name": "newOwner",
          "type": "address"
        }
      ],
      "name": "OwnershipTransferred",
      "type": "event"
    },
    {
      "anonymous": false,
      "inputs": [
        {
          "indexed": false,
          "internalType": "address",
          "name": "borrower",
          "type": "address"
        },
        {
          "indexed": false,
          "internalType": "uint256",
          "name": "AHRamount",
          "type": "uint256"
        },
        {
          "indexed": false,
          "internalType": "uint256",
          "name": "ALRamount",
          "type": "uint256"
        }
      ],
      "name": "Repayed",
      "type": "event"
    },
    {
      "anonymous": false,
      "inputs": [
        {
          "indexed": false,
          "internalType": "uint256",
          "name": "newDivisor",
          "type": "uint256"
        }
      ],
      "name": "divisorUpdated",
      "type": "event"
    },
    {
      "inputs": [],
      "name": "AHR",
      "outputs": [
        {
          "internalType": "contract AskoRiskTokenI",
          "name": "",
          "type": "address"
        }
      ],
      "stateMutability": "view",
      "type": "function"
    },
    {
      "inputs": [],
      "name": "ALR",
      "outputs": [
        {
          "internalType": "contract AskoRiskTokenI",
          "name": "",
          "type": "address"
        }
      ],
      "stateMutability": "view",
      "type": "function"
    },
    {
      "inputs": [],
      "name": "ARTF",
      "outputs": [
        {
          "internalType": "contract ARTFactoryI",
          "name": "",
          "type": "address"
        }
      ],
      "stateMutability": "view",
      "type": "function"
    },
    {
      "inputs": [],
      "name": "MMF",
      "outputs": [
        {
          "internalType": "contract MoneyMarketFactoryI",
          "name": "",
          "type": "address"
        }
      ],
      "stateMutability": "view",
      "type": "function"
    },
    {
      "inputs": [],
      "name": "UOF",
      "outputs": [
        {
          "internalType": "contract UniswapOracleFactoryI",
          "name": "",
          "type": "address"
        }
      ],
      "stateMutability": "view",
      "type": "function"
    },
    {
      "inputs": [],
      "name": "ahr",
      "outputs": [
        {
          "internalType": "address",
          "name": "",
          "type": "address"
        }
      ],
      "stateMutability": "view",
      "type": "function"
    },
    {
      "inputs": [],
      "name": "alr",
      "outputs": [
        {
          "internalType": "address",
          "name": "",
          "type": "address"
        }
      ],
      "stateMutability": "view",
      "type": "function"
    },
    {
      "inputs": [],
      "name": "asset",
      "outputs": [
        {
          "internalType": "contract IERC20",
          "name": "",
          "type": "address"
        }
      ],
      "stateMutability": "view",
      "type": "function"
    },
    {
      "inputs": [],
      "name": "assetName",
      "outputs": [
        {
          "internalType": "string",
          "name": "",
          "type": "string"
        }
      ],
      "stateMutability": "view",
      "type": "function"
    },
    {
      "inputs": [],
      "name": "assetSymbol",
      "outputs": [
        {
          "internalType": "string",
          "name": "",
          "type": "string"
        }
      ],
      "stateMutability": "view",
      "type": "function"
    },
    {
      "inputs": [
        {
          "internalType": "address",
          "name": "",
          "type": "address"
        }
      ],
      "name": "cantCollateralize",
      "outputs": [
        {
          "internalType": "bool",
          "name": "",
          "type": "bool"
        }
      ],
      "stateMutability": "view",
      "type": "function"
    },
    {
      "inputs": [],
      "name": "collatRatio",
      "outputs": [
        {
          "internalType": "uint256",
          "name": "",
          "type": "uint256"
        }
      ],
      "stateMutability": "view",
      "type": "function"
    },
    {
      "inputs": [
        {
          "internalType": "address",
          "name": "",
          "type": "address"
        }
      ],
      "name": "collateralLockedALR",
      "outputs": [
        {
          "internalType": "address",
          "name": "",
          "type": "address"
        }
      ],
      "stateMutability": "view",
      "type": "function"
    },
    {
      "inputs": [],
      "name": "divisor",
      "outputs": [
        {
          "internalType": "uint256",
          "name": "",
          "type": "uint256"
        }
      ],
      "stateMutability": "view",
      "type": "function"
    },
    {
      "inputs": [],
      "name": "owner",
      "outputs": [
        {
          "internalType": "address",
          "name": "",
          "type": "address"
        }
      ],
      "stateMutability": "view",
      "type": "function"
    },
    {
      "inputs": [],
      "name": "renounceOwnership",
      "outputs": [],
      "stateMutability": "nonpayable",
      "type": "function"
    },
    {
      "inputs": [
        {
          "internalType": "address",
          "name": "newOwner",
          "type": "address"
        }
      ],
      "name": "transferOwnership",
      "outputs": [],
      "stateMutability": "nonpayable",
      "type": "function"
    },
    {
      "inputs": [
        {
          "internalType": "address",
          "name": "_InterestRateModel",
          "type": "address"
        },
        {
          "internalType": "uint256",
          "name": "_initialExchangeRate",
          "type": "uint256"
        }
      ],
      "name": "_setUpAHR",
      "outputs": [],
      "stateMutability": "nonpayable",
      "type": "function"
    },
    {
      "inputs": [
        {
          "internalType": "address",
          "name": "_InterestRateModel",
          "type": "address"
        },
        {
          "internalType": "uint256",
          "name": "_initialExchangeRate",
          "type": "uint256"
        }
      ],
      "name": "_setUpALR",
      "outputs": [],
      "stateMutability": "nonpayable",
      "type": "function"
    },
    {
      "inputs": [
        {
          "internalType": "uint256",
          "name": "_amount",
          "type": "uint256"
        }
      ],
      "name": "lendToAHRpool",
      "outputs": [],
      "stateMutability": "nonpayable",
      "type": "function"
    },
    {
      "inputs": [
        {
          "internalType": "uint256",
          "name": "_amount",
          "type": "uint256"
        }
      ],
      "name": "lendToALRpool",
      "outputs": [],
      "stateMutability": "nonpayable",
      "type": "function"
    },
    {
      "inputs": [
        {
          "internalType": "uint256",
          "name": "_amount",
          "type": "uint256"
        },
        {
          "internalType": "address",
          "name": "_collateral",
          "type": "address"
        }
      ],
      "name": "borrow",
      "outputs": [],
      "stateMutability": "nonpayable",
      "type": "function"
    },
    {
      "inputs": [
        {
          "internalType": "uint256",
          "name": "_repayAmount",
          "type": "uint256"
        }
      ],
      "name": "repay",
      "outputs": [],
      "stateMutability": "nonpayable",
      "type": "function"
    },
    {
      "inputs": [
        {
          "internalType": "address",
          "name": "_borrower",
          "type": "address"
        },
        {
          "internalType": "contract AskoRiskTokenI",
          "name": "_ARTcollateralized",
          "type": "address"
        }
      ],
      "name": "liquidateAccount",
      "outputs": [],
      "stateMutability": "nonpayable",
      "type": "function"
    },
    {
      "inputs": [
        {
          "internalType": "address",
          "name": "_newModel",
          "type": "address"
        }
      ],
      "name": "updateALR",
      "outputs": [],
      "stateMutability": "nonpayable",
      "type": "function"
    },
    {
      "inputs": [
        {
          "internalType": "address",
          "name": "_newModel",
          "type": "address"
        }
      ],
      "name": "updateAHR",
      "outputs": [],
      "stateMutability": "nonpayable",
      "type": "function"
    },
    {
      "inputs": [
        {
          "internalType": "uint256",
          "name": "_RR",
          "type": "uint256"
        }
      ],
      "name": "setRRAHR",
      "outputs": [],
      "stateMutability": "nonpayable",
      "type": "function"
    },
    {
      "inputs": [
        {
          "internalType": "uint256",
          "name": "_RR",
          "type": "uint256"
        }
      ],
      "name": "setRRALR",
      "outputs": [],
      "stateMutability": "nonpayable",
      "type": "function"
    },
    {
      "inputs": [
        {
          "internalType": "uint256",
          "name": "_NewD",
          "type": "uint256"
        }
      ],
      "name": "updateDivisor",
      "outputs": [],
      "stateMutability": "nonpayable",
      "type": "function"
    },
    {
      "inputs": [
        {
          "internalType": "address",
          "name": "_newOracle",
          "type": "address"
        }
      ],
      "name": "_upgradeMMIOracle",
      "outputs": [],
      "stateMutability": "nonpayable",
      "type": "function"
    },
    {
      "inputs": [
        {
          "internalType": "address",
          "name": "_newMMF",
          "type": "address"
        }
      ],
      "name": "upgradeMoneyMarketFactory",
      "outputs": [],
      "stateMutability": "nonpayable",
      "type": "function"
    },
    {
      "inputs": [
        {
          "internalType": "address",
          "name": "_targetAdd",
          "type": "address"
        }
      ],
      "name": "_collectFees",
      "outputs": [],
      "stateMutability": "nonpayable",
      "type": "function"
    },
    {
      "inputs": [
        {
          "internalType": "uint256",
          "name": "_newCR",
          "type": "uint256"
        }
      ],
      "name": "_changeColatRatio",
      "outputs": [],
      "stateMutability": "nonpayable",
      "type": "function"
    },
    {
      "inputs": [],
      "name": "getAssetAdd",
      "outputs": [
        {
          "internalType": "address",
          "name": "",
          "type": "address"
        }
      ],
      "stateMutability": "view",
      "type": "function"
    },
    {
      "inputs": [
        {
          "internalType": "address",
          "name": "_inQuestion",
          "type": "address"
        }
      ],
      "name": "checkIfALR",
      "outputs": [
        {
          "internalType": "bool",
          "name": "",
          "type": "bool"
        }
      ],
      "stateMutability": "view",
      "type": "function"
    }
  ],
  "bytecode": "0x60806040523480156200001157600080fd5b5060405162003a5c38038062003a5c833981810160405260e08110156200003757600080fd5b815160208301516040808501516060860151608087015160a0880180519451969895979396929591949293820192846401000000008211156200007957600080fd5b9083019060208201858111156200008f57600080fd5b8251640100000000811182820188101715620000aa57600080fd5b82525081516020918201929091019080838360005b83811015620000d9578181015183820152602001620000bf565b50505050905090810190601f168015620001075780820380516001836020036101000a031916815260200191505b50604052602001805160405193929190846401000000008211156200012b57600080fd5b9083019060208201858111156200014157600080fd5b82516401000000008111828201881017156200015c57600080fd5b82525081516020918201929091019080838360005b838110156200018b57818101518382015260200162000171565b50505050905090810190601f168015620001b95780820380516001836020036101000a031916815260200191505b506040525050506000620001d2620002b160201b60201c565b600080546001600160a01b0319166001600160a01b03831690811782556040519293509160008051602062003a3c833981519152908290a3506001805561271060025581516200022a906006906020850190620003bd565b50805162000240906007906020840190620003bd565b506003839055600c80546001600160a01b038089166001600160a01b031992831617909255600b8054888416908316179055600880548a8416908316179055600d805492871692909116919091179055620002a4856001600160e01b03620002b616565b505050505050506200045f565b335b90565b620002c96001600160e01b03620002b116565b6000546001600160a01b039081169116146200032c576040805162461bcd60e51b815260206004820181905260248201527f4f776e61626c653a2063616c6c6572206973206e6f7420746865206f776e6572604482015290519081900360640190fd5b6001600160a01b038116620003735760405162461bcd60e51b815260040180806020018281038252602681526020018062003a166026913960400191505060405180910390fd5b600080546040516001600160a01b038085169392169160008051602062003a3c83398151915291a3600080546001600160a01b0319166001600160a01b0392909216919091179055565b828054600181600116156101000203166002900490600052602060002090601f016020900481019282601f106200040057805160ff191683800117855562000430565b8280016001018555821562000430579182015b828111156200043057825182559160200191906001019062000413565b506200043e92915062000442565b5090565b620002b391905b808211156200043e576000815560010162000449565b6135a7806200046f6000396000f3fe608060405234801561001057600080fd5b50600436106102115760003560e01c80636ccdd9f711610125578063a1039b7e116100ad578063c9230c5d1161007c578063c9230c5d146105aa578063cf0aea85146105b2578063d162054a146105cf578063d6b9b5d9146105d7578063f2fde38b146105f457610211565b8063a1039b7e14610528578063ac9790281461054e578063b451bb2e1461057c578063c27d4df3146105a257610211565b806381a351ba116100f457806381a351ba146104af5780638cbe6645146104d55780638da5cb5b146104fb5780638e235b11146105035780639241cef21461052057610211565b80636ccdd9f7146104385780637144329714610464578063715018a61461048a578063819c7f0c1461049257610211565b8063371fd8e6116101a85780634b3fd148116101775780634b3fd148146103785780634c20ac74146103a45780636155a20b146103ac578063632d19ca146103d857806367612843146103fe57610211565b8063371fd8e61461034357806338d52e0f146103605780633f60825b14610368578063460bb6501461037057610211565b80631d7bd46e116101e45780631d7bd46e146102e75780631dda0780146103045780631f2dc5ef1461030c57806322b2d4021461032657610211565b8063045de1f8146102165780630a3ed4321461023a57806311e2c02f14610262578063176de7a81461026a575b600080fd5b61021e61061a565b604080516001600160a01b039092168252519081900360200190f35b6102606004803603602081101561025057600080fd5b50356001600160a01b0316610629565b005b61021e6106db565b6102726106ea565b6040805160208082528351818301528351919283929083019185019080838360005b838110156102ac578181015183820152602001610294565b50505050905090810190601f1680156102d95780820380516001836020036101000a031916815260200191505b509250505060405180910390f35b610260600480360360208110156102fd57600080fd5b5035610778565b61021e61080e565b61031461081d565b60408051918252519081900360200190f35b6102606004803603602081101561033c57600080fd5b5035610823565b6102606004803603602081101561035957600080fd5b5035610940565b61021e611149565b610314611158565b61021e61115e565b6102606004803603604081101561038e57600080fd5b50803590602001356001600160a01b031661116d565b61021e6117dd565b610260600480360360408110156103c257600080fd5b506001600160a01b0381351690602001356117ec565b610260600480360360208110156103ee57600080fd5b50356001600160a01b0316611c60565b6104246004803603602081101561041457600080fd5b50356001600160a01b0316611d6c565b604080519115158252519081900360200190f35b6102606004803603604081101561044e57600080fd5b506001600160a01b038135169060200135611def565b6102606004803603602081101561047a57600080fd5b50356001600160a01b0316612263565b6102606122dd565b610260600480360360208110156104a857600080fd5b503561237f565b610260600480360360208110156104c557600080fd5b50356001600160a01b0316612403565b61021e600480360360208110156104eb57600080fd5b50356001600160a01b031661246e565b61021e612489565b6102606004803603602081101561051957600080fd5b5035612498565b61021e6124f5565b6104246004803603602081101561053e57600080fd5b50356001600160a01b0316612504565b6102606004803603604081101561056457600080fd5b506001600160a01b0381358116916020013516612519565b6102606004803603602081101561059257600080fd5b50356001600160a01b0316612b10565b61021e612ba7565b610272612bb6565b610260600480360360208110156105c857600080fd5b5035612c11565b61021e612d2e565b610260600480360360208110156105ed57600080fd5b5035612d3d565b6102606004803603602081101561060a57600080fd5b50356001600160a01b0316612dd3565b6005546001600160a01b031681565b600b546001600160a01b031633146106725760405162461bcd60e51b81526004018080602001828103825260338152602001806134d56033913960400191505060405180910390fd5b600a5460408051630eab343560e21b81526001600160a01b03848116600483015291519190921691633aacd0d491602480830192600092919082900301818387803b1580156106c057600080fd5b505af11580156106d4573d6000803e3d6000fd5b5050505050565b600c546001600160a01b031681565b6007805460408051602060026001851615610100026000190190941693909304601f810184900484028201840190925281815292918301828280156107705780601f1061074557610100808354040283529160200191610770565b820191906000526020600020905b81548152906001019060200180831161075357829003601f168201915b505050505081565b600b546001600160a01b031633146107c15760405162461bcd60e51b81526004018080602001828103825260338152602001806134d56033913960400191505060405180910390fd5b600a54604080516322d3cecb60e21b81526004810184905290516001600160a01b0390921691638b4f3b2c9160248082019260009290919082900301818387803b1580156106c057600080fd5b600d546001600160a01b031681565b60025481565b60026001541415610869576040805162461bcd60e51b815260206004820152601f6024820152600080516020613444833981519152604482015290519081900360640190fd5b6002600155600a54604080516340c10f1960e01b81523360048201526024810184905290516001600160a01b03909216916340c10f199160448082019260009290919082900301818387803b1580156108c157600080fd5b505af11580156108d5573d6000803e3d6000fd5b5050600a546008546108fe93506001600160a01b0390811692503391168463ffffffff612ecb16565b604080513381526020810183905281517f7328ca2a2e824164ca6ec3121966d63601356d01901d9a5d2ee466cb726d1e3c929181900390910190a15060018055565b60026001541415610986576040805162461bcd60e51b815260206004820152601f6024820152600080516020613444833981519152604482015290519081900360640190fd5b6002600155600a54604080516305eff7ef60e21b815233600482015290516000926001600160a01b0316916317bfdfbc91602480830192602092919082900301818787803b1580156109d757600080fd5b505af11580156109eb573d6000803e3d6000fd5b505050506040513d6020811015610a0157600080fd5b5051600954604080516305eff7ef60e21b815233600482015290519293506000926001600160a01b03909216916317bfdfbc9160248082019260209290919082900301818787803b158015610a5557600080fd5b505af1158015610a69573d6000803e3d6000fd5b505050506040513d6020811015610a7f57600080fd5b505190506000610a95838363ffffffff612f2b16565b905080841115610ae0576040805162461bcd60e51b81526020600482015260116024820152700a4cae0c2f2d2dcce40e8dede40daeac6d607b1b604482015290519081900360640190fd5b60008085610d7f578415610b9657600a54604080516369a5e8cf60e01b81526004810188905233602482015290516001600160a01b03909216916369a5e8cf916044808201926020929091908290030181600087803b158015610b4257600080fd5b505af1158015610b56573d6000803e3d6000fd5b505050506040513d6020811015610b6c57600080fd5b5051600a54600854919250610b96916001600160a01b03908116913391168863ffffffff612ecb16565b600954604080516369a5e8cf60e01b81526004810187905233602482015290516001600160a01b03909216916369a5e8cf916044808201926020929091908290030181600087803b158015610bea57600080fd5b505af1158015610bfe573d6000803e3d6000fd5b505050506040513d6020811015610c1457600080fd5b5051600954600854919350610c3e916001600160a01b03908116913391168763ffffffff612ecb16565b600c546008546040805163513396f760e11b81526001600160a01b039283166004820152602481018790529051600093929092169163a2672dee9160448082019260209290919082900301818787803b158015610c9a57600080fd5b505af1158015610cae573d6000803e3d6000fd5b505050506040513d6020811015610cc457600080fd5b5051600b54336000818152600e6020526040808220548151636a8394ad60e01b815260048101949094526001600160a01b03908116602485015260448401869052905194955090921692636a8394ad9260648084019391929182900301818387803b158015610d3257600080fd5b505af1158015610d46573d6000803e3d6000fd5b505060408051338152602081018990528082018a905290516000805160206135528339815191529350908190036060019150a1506110de565b841561100657858510610e6857600a54600854610db1916001600160a01b03918216913391168963ffffffff612ecb16565b600a54604080516369a5e8cf60e01b81526004810189905233602482015290516001600160a01b03909216916369a5e8cf916044808201926020929091908290030181600087803b158015610e0557600080fd5b505af1158015610e19573d6000803e3d6000fd5b505050506040513d6020811015610e2f57600080fd5b505160408051338152600060208201528082018990529051919250600080516020613552833981519152919081900360600190a1611001565b6000610e7a878763ffffffff612f8c16565b600a54600854919250610ea2916001600160a01b03908116913391168963ffffffff612ecb16565b600a54604080516369a5e8cf60e01b815260006004820181905233602483015291516001600160a01b03909316926369a5e8cf92604480840193602093929083900390910190829087803b158015610ef957600080fd5b505af1158015610f0d573d6000803e3d6000fd5b505050506040513d6020811015610f2357600080fd5b5051600954600854919350610f4d916001600160a01b03908116913391168463ffffffff612ecb16565b600954604080516369a5e8cf60e01b81526004810184905233602482015290516001600160a01b03909216916369a5e8cf916044808201926020929091908290030181600087803b158015610fa157600080fd5b505af1158015610fb5573d6000803e3d6000fd5b505050506040513d6020811015610fcb57600080fd5b505160408051338152602081018390528082018590529051919450600080516020613552833981519152919081900360600190a1505b6110de565b60095460085461102b916001600160a01b03918216913391168563ffffffff612ecb16565b600954604080516369a5e8cf60e01b81526004810189905233602482015290516001600160a01b03909216916369a5e8cf916044808201926020929091908290030181600087803b15801561107f57600080fd5b505af1158015611093573d6000803e3d6000fd5b505050506040513d60208110156110a957600080fd5b505160408051338152602081018390526000818301529051919350600080516020613552833981519152919081900360600190a15b6110ee848363ffffffff612f8c16565b1580156111085750611106858263ffffffff612f8c16565b155b1561113d57336000908152600e6020908152604080832080546001600160a01b0319169055600f9091529020805460ff191690555b50506001805550505050565b6008546001600160a01b031681565b60035481565b6004546001600160a01b031681565b600260015414156111b3576040805162461bcd60e51b815260206004820152601f6024820152600080516020613444833981519152604482015290519081900360640190fd5b6002600155336000908152600e60205260409020546001600160a01b03828116911614806111f15750336000908152600f602052604090205460ff16155b611239576040805162461bcd60e51b815260206004820152601460248201527318dbdb1b185d195c985b081b9bdd081c9a59da1d60621b604482015290519081900360640190fd5b8161128b576040805162461bcd60e51b815260206004820152601e60248201527f616d6f756e742063616e6e6f7420626520657175616c20746f207a65726f0000604482015290519081900360640190fd5b6112936133f7565b600954604080516305eff7ef60e21b815233600482015290516001600160a01b03909216916317bfdfbc916024808201926020929091908290030181600087803b1580156112e057600080fd5b505af11580156112f4573d6000803e3d6000fd5b505050506040513d602081101561130a57600080fd5b50518152600a54604080516305eff7ef60e21b815233600482015290516001600160a01b03909216916317bfdfbc916024808201926020929091908290030181600087803b15801561135b57600080fd5b505af115801561136f573d6000803e3d6000fd5b505050506040513d602081101561138557600080fd5b5051602082018190526113b0906113a2908563ffffffff612f2b16565b82519063ffffffff612f2b16565b6040808301829052600c54600854825163513396f760e11b81526001600160a01b0391821660048201526024810194909452915191169163a2672dee9160448083019260209291908290030181600087803b15801561140e57600080fd5b505af1158015611422573d6000803e3d6000fd5b505050506040513d602081101561143857600080fd5b50516080820152600c546008546040805163513396f760e11b81526001600160a01b039283166004820152602481018790529051919092169163a2672dee9160448083019260209291908290030181600087803b15801561149857600080fd5b505af11580156114ac573d6000803e3d6000fd5b505050506040513d60208110156114c257600080fd5b505160a0820152600b5460408051636012b43160e01b81523360048201526001600160a01b03858116602483015291519190921691636012b4319160448083019260209291908290030181600087803b15801561151e57600080fd5b505af1158015611532573d6000803e3d6000fd5b505050506040513d602081101561154857600080fd5b5051606082015260035460808201516115669163ffffffff612fce16565b60c0820181905260808201516115819163ffffffff612f2b16565b60e08201819052606082015110156115d8576040805162461bcd60e51b81526020600482015260156024820152741b9bdd08195b9bdd59da0818dbdb1b185d195c985b605a1b604482015290519081900360640190fd5b600b5460e082015160a08301516040805163215a56c560e21b81523360048201526001600160a01b038781166024830152604482019490945260648101929092525191909216916385695b1491608480830192600092919082900301818387803b15801561164557600080fd5b505af1158015611659573d6000803e3d6000fd5b50505050611671600284612fce90919063ffffffff16565b6101008201908152336000818152600e6020908152604080832080546001600160a01b0319166001600160a01b0389811691909117909155600f909252808320805460ff1916600117905560095494518151630967fa2960e31b81526004810191909152602481019490945251931692634b3fd14892604480820193929182900301818387803b15801561170457600080fd5b505af1158015611718573d6000803e3d6000fd5b5050600a5461010084015160408051630967fa2960e31b81526004810192909252336024830152516001600160a01b039092169350634b3fd148925060448082019260009290919082900301818387803b15801561177557600080fd5b505af1158015611789573d6000803e3d6000fd5b505050610100820151604080513381526020810183905280820192909252517fe1979fe4c35e0cef342fef5668e2c8e7a7e9f5d5d1ca8fee0ac6c427fa4153af92509081900360600190a150506001805550565b6008546001600160a01b031690565b600b546001600160a01b031633146118355760405162461bcd60e51b81526004018080602001828103825260338152602001806134d56033913960400191505060405180910390fd5b60606040516020018080634148522d60e01b815250600401905060405160208183030381529060405290508060066040516020018083805190602001908083835b602083106118955780518252601f199092019160209182019101611876565b6001836020036101000a0380198251168184511680821785525050505050509050018280546001816001161561010002031660029004801561190e5780601f106118ec57610100808354040283529182019161190e565b820191906000526020600020905b8154815290600101906020018083116118fa575b505092505050604051602081830303815290604052905060606040516020018080634148522d60e01b815250600401905060405160208183030381529060405290508060076040516020018083805190602001908083835b602083106119855780518252601f199092019160209182019101611966565b6001836020036101000a038019825116818451168082178552505050505050905001828054600181600116156101000203166002900480156119fe5780601f106119dc5761010080835404028352918201916119fe565b820191906000526020600020905b8154815290600101906020018083116119ea575b505092505050604051602081830303815290604052905060608290506060829050600d60009054906101000a90046001600160a01b03166001600160a01b0316634f84a10087600860009054906101000a90046001600160a01b0316600c60009054906101000a90046001600160a01b0316600b60009054906101000a90046001600160a01b0316878760008d6040518963ffffffff1660e01b815260040180896001600160a01b03166001600160a01b03168152602001886001600160a01b03166001600160a01b03168152602001876001600160a01b03166001600160a01b03168152602001866001600160a01b03166001600160a01b03168152602001806020018060200185151515158152602001848152602001838103835287818151815260200191508051906020019080838360005b83811015611b4b578181015183820152602001611b33565b50505050905090810190601f168015611b785780820380516001836020036101000a031916815260200191505b50838103825286518152865160209182019188019080838360005b83811015611bab578181015183820152602001611b93565b50505050905090810190601f168015611bd85780820380516001836020036101000a031916815260200191505b509a5050505050505050505050602060405180830381600087803b158015611bff57600080fd5b505af1158015611c13573d6000803e3d6000fd5b505050506040513d6020811015611c2957600080fd5b5051600980546001600160a01b03199081166001600160a01b03938416179182905560048054929093169116179055505050505050565b611c68613010565b6000546001600160a01b03908116911614611cb8576040805162461bcd60e51b81526020600482018190526024820152600080516020613508833981519152604482015290519081900360640190fd5b6009546040805163f536642f60e01b81526001600160a01b0384811660048301529151919092169163f536642f91602480830192600092919082900301818387803b158015611d0657600080fd5b505af1158015611d1a573d6000803e3d6000fd5b5050600a546040805163f536642f60e01b81526001600160a01b038681166004830152915191909216935063f536642f9250602480830192600092919082900301818387803b1580156106c057600080fd5b600b5460408051630dc9cacd60e01b81526001600160a01b03848116600483015291516000939290921691630dc9cacd91602480820192602092909190829003018186803b158015611dbd57600080fd5b505afa158015611dd1573d6000803e3d6000fd5b505050506040513d6020811015611de757600080fd5b505192915050565b600b546001600160a01b03163314611e385760405162461bcd60e51b81526004018080602001828103825260338152602001806134d56033913960400191505060405180910390fd5b6060604051602001808063416c522d60e01b815250600401905060405160208183030381529060405290508060066040516020018083805190602001908083835b60208310611e985780518252601f199092019160209182019101611e79565b6001836020036101000a03801982511681845116808217855250505050505090500182805460018160011615610100020316600290048015611f115780601f10611eef576101008083540402835291820191611f11565b820191906000526020600020905b815481529060010190602001808311611efd575b50509250505060405160208183030381529060405290506060604051602001808063416c522d60e01b815250600401905060405160208183030381529060405290508060076040516020018083805190602001908083835b60208310611f885780518252601f199092019160209182019101611f69565b6001836020036101000a038019825116818451168082178552505050505050905001828054600181600116156101000203166002900480156120015780601f10611fdf576101008083540402835291820191612001565b820191906000526020600020905b815481529060010190602001808311611fed575b505092505050604051602081830303815290604052905060608290506060829050600d60009054906101000a90046001600160a01b03166001600160a01b0316634f84a10087600860009054906101000a90046001600160a01b0316600c60009054906101000a90046001600160a01b0316600b60009054906101000a90046001600160a01b0316878760018d6040518963ffffffff1660e01b815260040180896001600160a01b03166001600160a01b03168152602001886001600160a01b03166001600160a01b03168152602001876001600160a01b03166001600160a01b03168152602001866001600160a01b03166001600160a01b03168152602001806020018060200185151515158152602001848152602001838103835287818151815260200191508051906020019080838360005b8381101561214e578181015183820152602001612136565b50505050905090810190601f16801561217b5780820380516001836020036101000a031916815260200191505b50838103825286518152865160209182019188019080838360005b838110156121ae578181015183820152602001612196565b50505050905090810190601f1680156121db5780820380516001836020036101000a031916815260200191505b509a5050505050505050505050602060405180830381600087803b15801561220257600080fd5b505af1158015612216573d6000803e3d6000fd5b505050506040513d602081101561222c57600080fd5b5051600a80546001600160a01b03199081166001600160a01b03938416179182905560058054929093169116179055505050505050565b61226b613010565b6000546001600160a01b039081169116146122bb576040805162461bcd60e51b81526020600482018190526024820152600080516020613508833981519152604482015290519081900360640190fd5b600b80546001600160a01b0319166001600160a01b0392909216919091179055565b6122e5613010565b6000546001600160a01b03908116911614612335576040805162461bcd60e51b81526020600482018190526024820152600080516020613508833981519152604482015290519081900360640190fd5b600080546040516001600160a01b03909116907f8be0079c531659141344cd1fd0a4f28419497f9722a3daafe3b4186f6b6457e0908390a3600080546001600160a01b0319169055565b600b546001600160a01b031633146123c85760405162461bcd60e51b81526004018080602001828103825260338152602001806134d56033913960400191505060405180910390fd5b60028190556040805182815290517f196705942f4c6fbf7fd7dba9534af3776a46c60ebbc95a100625bcd4a230d8469181900360200190a150565b600b546001600160a01b0316331461244c5760405162461bcd60e51b81526004018080602001828103825260338152602001806134d56033913960400191505060405180910390fd5b600c80546001600160a01b0319166001600160a01b0392909216919091179055565b600e602052600090815260409020546001600160a01b031681565b6000546001600160a01b031690565b6124a0613010565b6000546001600160a01b039081169116146124f0576040805162461bcd60e51b81526020600482018190526024820152600080516020613508833981519152604482015290519081900360640190fd5b600355565b6009546001600160a01b031681565b600f6020526000908152604090205460ff1681565b6125216133f7565b336001600160a01b038416141561257f576040805162461bcd60e51b815260206004820152601b60248201527f796f752063616e74206c697175696461746520796f757273656c660000000000604482015290519081900360640190fd5b600a54604080516305eff7ef60e21b81526001600160a01b038681166004830152915160009392909216916317bfdfbc9160248082019260209290919082900301818787803b1580156125d157600080fd5b505af11580156125e5573d6000803e3d6000fd5b505050506040513d60208110156125fb57600080fd5b5051600954604080516305eff7ef60e21b81526001600160a01b038881166004830152915193945060009391909216916317bfdfbc91602480830192602092919082900301818787803b15801561265157600080fd5b505af1158015612665573d6000803e3d6000fd5b505050506040513d602081101561267b57600080fd5b505190506000612691838363ffffffff612f2b16565b600c546008546040805163513396f760e11b81526001600160a01b03928316600482015260248101859052905193945091169163a2672dee916044808201926020929091908290030181600087803b1580156126ec57600080fd5b505af1158015612700573d6000803e3d6000fd5b505050506040513d602081101561271657600080fd5b50516060850152600b5460408051636d497ec560e11b81526001600160a01b03898116600483015288811660248301529151919092169163da92fd8a916044808301926020929190829003018186803b15801561277257600080fd5b505afa158015612786573d6000803e3d6000fd5b505050506040513d602081101561279c57600080fd5b505160a085015260035460608501516127ba9163ffffffff612fce16565b60c0850181905260608501516127d59163ffffffff612f2b16565b6080850181905260a08501511061281d5760405162461bcd60e51b815260040180806020018281038252602581526020018061348a6025913960400191505060405180910390fd5b600b5460a085015160085460408051632c86834f60e21b815260048101939093526001600160a01b038a81166024850152306044850152918216606484015288821660848401525192169163b21a0d3c9160a48082019260009290919082900301818387803b15801561288f57600080fd5b505af11580156128a3573d6000803e3d6000fd5b5050600854604080516370a0823160e01b81523060048201529051600094506001600160a01b0390921692506370a08231916024808301926020929190829003018186803b1580156128f457600080fd5b505afa158015612908573d6000803e3d6000fd5b505050506040513d602081101561291e57600080fd5b505190506000612934828463ffffffff612f8c16565b600a5460085491925061295a916001600160a01b0390811691168763ffffffff61301416565b60095460085461297d916001600160a01b0391821691168663ffffffff61301416565b60085461299a906001600160a01b0316338363ffffffff61301416565b600a54604080516369a5e8cf60e01b81526000600482018190526001600160a01b038c81166024840152925192909316926369a5e8cf926044808401936020939083900390910190829087803b1580156129f357600080fd5b505af1158015612a07573d6000803e3d6000fd5b505050506040513d6020811015612a1d57600080fd5b505160e0870152600954604080516369a5e8cf60e01b81526000600482018190526001600160a01b038c81166024840152925192909316926369a5e8cf926044808401936020939083900390910190829087803b158015612a7d57600080fd5b505af1158015612a91573d6000803e3d6000fd5b505050506040513d6020811015612aa757600080fd5b5051610100870152606080870151604080516001600160a01b038c16815233602082015280820192909252309282019290925290517fbf8c93ffab42c7a8745e30d00eef080c6704962d26f0b42a0e9d9589b7417af19181900360800190a15050505050505050565b600b546001600160a01b03163314612b595760405162461bcd60e51b81526004018080602001828103825260338152602001806134d56033913960400191505060405180910390fd5b60095460408051630eab343560e21b81526001600160a01b03848116600483015291519190921691633aacd0d491602480830192600092919082900301818387803b1580156106c057600080fd5b600a546001600160a01b031681565b6006805460408051602060026001851615610100026000190190941693909304601f810184900484028201840190925281815292918301828280156107705780601f1061074557610100808354040283529160200191610770565b60026001541415612c57576040805162461bcd60e51b815260206004820152601f6024820152600080516020613444833981519152604482015290519081900360640190fd5b6002600155600954604080516340c10f1960e01b81523360048201526024810184905290516001600160a01b03909216916340c10f199160448082019260009290919082900301818387803b158015612caf57600080fd5b505af1158015612cc3573d6000803e3d6000fd5b5050600954600854612cec93506001600160a01b0390811692503391168463ffffffff612ecb16565b604080513381526020810183905281517f0f82438f3b5c78264c4b6dce428942fd963308db5c690635d87bc654cb811d33929181900390910190a15060018055565b600b546001600160a01b031681565b600b546001600160a01b03163314612d865760405162461bcd60e51b81526004018080602001828103825260338152602001806134d56033913960400191505060405180910390fd5b600954604080516322d3cecb60e21b81526004810184905290516001600160a01b0390921691638b4f3b2c9160248082019260009290919082900301818387803b1580156106c057600080fd5b612ddb613010565b6000546001600160a01b03908116911614612e2b576040805162461bcd60e51b81526020600482018190526024820152600080516020613508833981519152604482015290519081900360640190fd5b6001600160a01b038116612e705760405162461bcd60e51b81526004018080602001828103825260268152602001806134646026913960400191505060405180910390fd5b600080546040516001600160a01b03808516939216917f8be0079c531659141344cd1fd0a4f28419497f9722a3daafe3b4186f6b6457e091a3600080546001600160a01b0319166001600160a01b0392909216919091179055565b604080516001600160a01b0380861660248301528416604482015260648082018490528251808303909101815260849091019091526020810180516001600160e01b03166323b872dd60e01b179052612f2590859061306b565b50505050565b600082820183811015612f85576040805162461bcd60e51b815260206004820152601b60248201527f536166654d6174683a206164646974696f6e206f766572666c6f770000000000604482015290519081900360640190fd5b9392505050565b6000612f8583836040518060400160405280601e81526020017f536166654d6174683a207375627472616374696f6e206f766572666c6f77000081525061311c565b6000612f8583836040518060400160405280601a81526020017f536166654d6174683a206469766973696f6e206279207a65726f0000000000008152506131b3565b3390565b604080516001600160a01b038416602482015260448082018490528251808303909101815260649091019091526020810180516001600160e01b031663a9059cbb60e01b17905261306690849061306b565b505050565b60606130c0826040518060400160405280602081526020017f5361666545524332303a206c6f772d6c6576656c2063616c6c206661696c6564815250856001600160a01b03166132189092919063ffffffff16565b805190915015613066578080602001905160208110156130df57600080fd5b50516130665760405162461bcd60e51b815260040180806020018281038252602a815260200180613528602a913960400191505060405180910390fd5b600081848411156131ab5760405162461bcd60e51b81526004018080602001828103825283818151815260200191508051906020019080838360005b83811015613170578181015183820152602001613158565b50505050905090810190601f16801561319d5780820380516001836020036101000a031916815260200191505b509250505060405180910390fd5b505050900390565b600081836132025760405162461bcd60e51b8152602060048201818152835160248401528351909283926044909101919085019080838360008315613170578181015183820152602001613158565b50600083858161320e57fe5b0495945050505050565b6060613227848460008561322f565b949350505050565b6060824710156132705760405162461bcd60e51b81526004018080602001828103825260268152602001806134af6026913960400191505060405180910390fd5b6132798561338b565b6132ca576040805162461bcd60e51b815260206004820152601d60248201527f416464726573733a2063616c6c20746f206e6f6e2d636f6e7472616374000000604482015290519081900360640190fd5b60006060866001600160a01b031685876040518082805190602001908083835b602083106133095780518252601f1990920191602091820191016132ea565b6001836020036101000a03801982511681845116808217855250505050505090500191505060006040518083038185875af1925050503d806000811461336b576040519150601f19603f3d011682016040523d82523d6000602084013e613370565b606091505b5091509150613380828286613391565b979650505050505050565b3b151590565b606083156133a0575081612f85565b8251156133b05782518084602001fd5b60405162461bcd60e51b8152602060048201818152845160248401528451859391928392604401919085019080838360008315613170578181015183820152602001613158565b604051806101200160405280600081526020016000815260200160008152602001600081526020016000815260200160008152602001600081526020016000815260200160008152509056fe5265656e7472616e637947756172643a207265656e7472616e742063616c6c004f776e61626c653a206e6577206f776e657220697320746865207a65726f20616464726573734163636f756e7420697320636f6d706c69616e742063616e6e6f74206c6971756964617465416464726573733a20696e73756666696369656e742062616c616e636520666f722063616c6c4d73672e73656e646572206973206e6f7420746865204d6f6e6579204d61726b657420436f6e74726f6c20636f6e74726163744f776e61626c653a2063616c6c6572206973206e6f7420746865206f776e65725361666545524332303a204552433230206f7065726174696f6e20646964206e6f7420737563636565642a6c148cdc9347a81dfbfe504afb64ea0aeca1114171ef18a3e11cb1fda8b3a6a26469706673582212209750f245451944be529b1b539dc33c9cd8c1cb40b6ad4ba5641b9b171b80bd1c64736f6c634300060600334f776e61626c653a206e6577206f776e657220697320746865207a65726f20616464726573738be0079c531659141344cd1fd0a4f28419497f9722a3daafe3b4186f6b6457e0",
  "immutableReferences": {},
  "source": "pragma solidity 0.6.6;\n\nimport \"openzeppelin-solidity/contracts/access/Ownable.sol\";\nimport \"openzeppelin-solidity/contracts/utils/ReentrancyGuard.sol\";\nimport \"openzeppelin-solidity/contracts/math/SafeMath.sol\";\nimport \"openzeppelin-solidity/contracts/token/ERC20/SafeERC20.sol\";\nimport \"./compound/Exponential.sol\";\nimport \"./interfaces/UniswapOracleFactoryI.sol\";\nimport \"./interfaces/MoneyMarketFactoryI.sol\";\nimport \"./interfaces/AskoRiskTokenI.sol\";\nimport \"./interfaces/ARTFactoryI.sol\";\n\n////////////////////////////////////////////////////////////////////////////////////////////\n/// @title MoneyMarketInstance\n/// @author Christopher Dixon\n////////////////////////////////////////////////////////////////////////////////////////////\n/**\nThe MoneyMarketInstance contract is designed facilitate a tiered money market for an individual ERC20 asset\nThis contract uses the OpenZeppelin contract Library to inherit functions from\n  Ownable.sol, SafeMath.sol, ReentrancyGuard && SafeERC20.sol\n**/\ncontract MoneyMarketInstance is Ownable, Exponential, ReentrancyGuard {\n    using SafeMath for uint256;\n    using SafeERC20 for IERC20;\n\n    uint256 public divisor;\n    uint256 public collatRatio;\n    address public ahr;\n    address public alr;\n\n    string public assetName;\n    string public assetSymbol;\n\n    IERC20 public asset;\n    AskoRiskTokenI public AHR;\n    AskoRiskTokenI public ALR;\n    MoneyMarketFactoryI public MMF;\n    UniswapOracleFactoryI public UOF;\n    ARTFactoryI public ARTF;\n\n    mapping(address => address) public collateralLockedALR;\n    mapping(address => bool) public cantCollateralize;\n\n    /**\n@notice onlyMMFactory is a modifier used to make a function only callable by the Money Market Factory contract\n**/\n    modifier onlyMMFactory() {\n        require(\n            msg.sender == address(MMF),\n            \"Msg.sender is not the Money Market Control contract\"\n        );\n        _;\n    }\n\n    event LentToAHR(address lender, uint256 amount);\n    event LentToALR(address lender, uint256 amount);\n    event Borrow(address borrower, uint256 AHRamount, uint256 ALRamount);\n    event Repayed(address borrower, uint256 AHRamount, uint256 ALRamount);\n    event Collateralized(address collateralizer, uint256 amount);\n    event Liquidated(\n        address borrower,\n        address liquidator,\n        uint256 totalBorrowswETHval,\n        address moneyMarket\n    );\n    event divisorUpdated(uint256 newDivisor);\n\n    /**\n@notice the constructor function is fired during the contract deployment process. The constructor can only be fired once and\n        is used to initialize the MoneyMakerInstance and deploy its associated AHR && ALR token contracts\n@param _assetContractAdd is the address of the ERC20 asset being whitelisted\n@param _oracleFactory is the address of the  oracle factory\n@param _owner is the address of the MoneyMarketControl factory\n@param _ARTF is the address of the ART Token Factory\n@param _collatRatio is the number that will be used when calculating the collateralizastion ratio for a MMI\n@param _assetName is the name of the asset(e.x: ChainLink)\n@param _assetSymbol is the symbol of the asset(e.x: LINK)\n**/\n    constructor(\n        address _assetContractAdd,\n        address _oracleFactory,\n        address _owner,\n        address _ARTF,\n        uint256 _collatRatio,\n        string memory _assetName,\n        string memory _assetSymbol\n    ) public {\n        divisor = 10000;\n        assetName = _assetName;\n        assetSymbol = _assetSymbol;\n        collatRatio = _collatRatio;\n        UOF = UniswapOracleFactoryI(_oracleFactory);\n        MMF = MoneyMarketFactoryI(_owner);\n        asset = IERC20(_assetContractAdd);\n        ARTF = ARTFactoryI(_ARTF);\n        transferOwnership(_owner);\n    }\n\n    ///////////////External Functions //////////////////\n\n    /**\n@notice setUp is called by the MoneyMarketFactory after a contract is created to set up the initial variables.\n        This is split from the constructor function to keep from reaching the gas block limit\n@param  _InterestRateModel is the address of this MoneyMarketInstances InterestRateModel\n@param _initialExchangeRate is the initial exchange rate between an asset and its AHR token\n@dev this function will create a token whos name and symbol is concatenated with a \"AHR-\" in front of it\n      example: AHR-LINK\n@dev asset.approve() is called to allow the AHR contract to freeely transfer the assset from this contract when the mint\n      lendToAHRpool function is called.\n@dev this function uses ABI encoding to properly concatenate AHR- && ALR- in front of the tokens name and symbol\n      before creating each token.\n**/\n    function _setUpAHR(address _InterestRateModel, uint256 _initialExchangeRate)\n        external\n        onlyMMFactory\n    {\n        bytes memory ahrname = abi.encodePacked(\"AHR-\");\n        ahrname = abi.encodePacked(ahrname, assetName);\n        //abi encode and concat strings\n        bytes memory ahrsymbol = abi.encodePacked(\"AHR-\");\n        ahrsymbol = abi.encodePacked(ahrsymbol, assetSymbol);\n        //abi encode and concat strings\n        string memory assetNameAHR = string(ahrname);\n        string memory assetSymbolAHR = string(ahrsymbol);\n        //un-encode concated string\n        AHR = AskoRiskTokenI(\n            ARTF.createART( //creates new Asko High Risk Token Contract\n                _InterestRateModel,\n                address(asset),\n                address(UOF),\n                address(MMF),\n                assetNameAHR,\n                assetSymbolAHR,\n                false,\n                _initialExchangeRate\n            )\n        );\n        ahr = address(AHR);\n    }\n\n    /**\n@notice setUp is called by the MoneyMarketFactory after a contract is created to set up the initial variables.\n        This is split from the constructor function to keep from reaching the gas block limit\n@param  _InterestRateModel is the address of this MoneyMarketInstances InterestRateModel\n@param _initialExchangeRate is the initial exchange rate between an asset and its ALR token\n@dev this function will create a token whos name and symbol is concatenated with a \"ALR-\" in front of it\n      example: ALR-LINK\n@dev asset.approve() is called to allow the ALR contract to freeely transfer the assset from this contract when the mint\n      lendToALRpool function is called.\n@dev this function uses ABI encoding to properly concatenate AHR- && ALR- in front of the tokens name and symbol\n      before creating each token.\n**/\n    function _setUpALR(address _InterestRateModel, uint256 _initialExchangeRate)\n        external\n        onlyMMFactory\n    {\n        bytes memory alrname = abi.encodePacked(\"AlR-\");\n        alrname = abi.encodePacked(alrname, assetName);\n        //abi encode and concat strings\n        bytes memory alrsymbol = abi.encodePacked(\"AlR-\");\n        alrsymbol = abi.encodePacked(alrsymbol, assetSymbol);\n        //abi encode and concat strings\n        string memory assetNameALR = string(alrname);\n        string memory assetSymbolALR = string(alrsymbol);\n        //un-encode concated string\n        ALR = AskoRiskTokenI(\n            ARTF.createART( //creates new Asko High Risk Token Contract\n                _InterestRateModel,\n                address(asset),\n                address(UOF),\n                address(MMF),\n                assetNameALR,\n                assetSymbolALR,\n                true,\n                _initialExchangeRate\n            )\n        );\n        alr = address(ALR);\n    }\n\n    /**\n@notice lendToAHRpool is used to lend assets to a MoneyMarketInstance's High Risk pool\n@param _amount is the amount of the asset being lent\n@dev the user will need to first approve the transfer of the underlying asset\n**/\n    function lendToAHRpool(uint256 _amount) external nonReentrant {\n        //call mint function on AHR contract\n        AHR.mint(msg.sender, _amount);\n        //transfer appropriate amount off the asset from msg.sender to the AHR contract\n        asset.safeTransferFrom(msg.sender, address(AHR), _amount);\n        emit LentToAHR(msg.sender, _amount);\n    }\n\n    /**\n@notice lendToALRpool is used to lend assets to a MoneyMarketInstance's Low Risk pool\n@param _amount is the amount of the asset being lent\n@dev the user will need to first approve the transfer of the underlying asset\n**/\n    function lendToALRpool(uint256 _amount) external nonReentrant {\n        //call mint function on ALR contract\n        ALR.mint(msg.sender, _amount);\n        //transfer appropriate amount off the asset from msg.sender to the AHR contract\n        asset.safeTransferFrom(msg.sender, address(ALR), _amount);\n        emit LentToALR(msg.sender, _amount);\n    }\n\n    //struct used to avoid stack too deep errors\n    struct borrowVars {\n        uint256 borrowBalAHR;\n        uint256 borrowBalALR;\n        uint256 totalFutureAmountOwed;\n        uint256 availibleCollateralValue;\n        uint256 assetAmountValOwed;\n        uint256 amountValue;\n        uint256 halfVal;\n        uint256 collateralNeeded;\n        uint256 half;\n    }\n\n    /**\n@notice borrow is used to take out a loan from in MoneyMarketInstance's underlying asset\n@param _amount is the amount of asset being barrowed\n@param _collateral is the address of the ALR token being used as collateral\n**/\n    function borrow(uint256 _amount, address _collateral)\n        external\n        nonReentrant\n    {\n        //require that the collateral a user is looking to use is the same as the type they already have a loan in\n        //OR that their cantCollateralize mapping is false\n        require(\n            _collateral == collateralLockedALR[msg.sender] ||\n                cantCollateralize[msg.sender] == false,\n            \"collateral not right\"\n        );\n        require(_amount != 0, \"amount cannot be equal to zero\");\n        borrowVars memory vars;\n        //check that the user has enough collateral in input money market\n        //this returns the wETH price of their asset\n\n        //get current borrow balances for each ART\n        vars.borrowBalAHR = AHR.borrowBalanceCurrent(msg.sender);\n        vars.borrowBalALR = ALR.borrowBalanceCurrent(msg.sender);\n        //calculate the new amount that would be owed if borrow suceeds\n        vars.totalFutureAmountOwed = vars.borrowBalAHR.add(\n            vars.borrowBalALR.add(_amount)\n        );\n        //check current asset wETH value of whats owed\n        vars.assetAmountValOwed = UOF.getUnderlyingPriceofAsset(\n            address(asset),\n            vars.totalFutureAmountOwed\n        );\n        //get wETH value of _amount\n        vars.amountValue = UOF.getUnderlyingPriceofAsset(\n            address(asset),\n            _amount\n        );\n        //get wETH value of availible collateral\n        vars.availibleCollateralValue = MMF.checkAvailibleCollateralValue(\n            msg.sender,\n            _collateral\n        );\n\n        //divide amount value by collatRatio\n        vars.halfVal = vars.assetAmountValOwed.div(collatRatio);\n        //add collatRatio of value to asset value to get the right ratio asset value\n        vars.collateralNeeded = vars.assetAmountValOwed.add(vars.halfVal);\n        //require collateral value to be greater than collatRatio of the amount value of loan\n        require(\n            vars.availibleCollateralValue >= vars.collateralNeeded,\n            \"not enough collateral\"\n        );\n        //track wETH value being locked for the loan\n        MMF.trackCollateralUp(msg.sender, _collateral, vars.collateralNeeded, vars.amountValue);\n        //cut amount of tokens in half\n        vars.half = _amount.div(2);\n\n        //track which ALR is locked\n        collateralLockedALR[msg.sender] = _collateral;\n        cantCollateralize[msg.sender] = true;\n        //borrow half from each pool\n        AHR.borrow(vars.half, msg.sender);\n        ALR.borrow(vars.half, msg.sender);\n        emit Borrow(msg.sender, vars.half, vars.half);\n    }\n\n    /**\n@notice repay is used to repay a loan\n@param _repayAmount is the amount of the underlying asset being repayed\n**/\n    function repay(uint256 _repayAmount) external nonReentrant {\n        //get their current owed balance of ALR\n        uint256 accountBorrowsALR = ALR.borrowBalanceCurrent(msg.sender);\n        uint256 accountBorrowsAHR = AHR.borrowBalanceCurrent(msg.sender);\n        uint256 totalBorrows = accountBorrowsALR.add(accountBorrowsAHR);\n        require(_repayAmount <= totalBorrows, \"Repaying too much\");\n        uint256 payAmountAHR;\n        uint256 payAmountALR;\n\n        ///////////////repay all///////////////\n        if (_repayAmount == 0) {\n            if (accountBorrowsALR != 0) {\n              payAmountALR = ALR.repayBorrow(accountBorrowsALR, msg.sender); // repay amount to ALR\n                asset.safeTransferFrom(\n                    msg.sender,\n                    address(ALR),\n                    accountBorrowsALR\n                );\n            }\n            payAmountAHR = AHR.repayBorrow(accountBorrowsAHR, msg.sender); //pay off towards AHR\n            asset.safeTransferFrom(msg.sender, address(AHR), accountBorrowsAHR);\n            ///get wETH value of what was repayed\n            uint256 _wETHvalRepayed =\n                UOF.getUnderlyingPriceofAsset(address(asset), totalBorrows);\n            ////track repayment in MMC\n            MMF.trackCollateralDown(\n                msg.sender,\n                collateralLockedALR[msg.sender],\n                _wETHvalRepayed\n            );\n            emit Repayed(msg.sender, accountBorrowsAHR, accountBorrowsALR);\n        } else {\n            ///////////////repay ALR///////////////////\n            if (accountBorrowsALR != 0) {\n                //if amount owed to ALR isnt zero\n                if (accountBorrowsALR >= _repayAmount) {\n                    //if repay amount is less than whats owed in ALR\n                    //transfer asset from the user to the ALR contract\n                    asset.safeTransferFrom(\n                        msg.sender,\n                        address(ALR),\n                        _repayAmount\n                    );\n                    payAmountALR = ALR.repayBorrow(_repayAmount, msg.sender); // repay amount to ALR\n\n                    emit Repayed(msg.sender, 0, _repayAmount);\n                } else {\n                    ///////////////repay all of ALR && some AHR///////////////////\n                    //if repay amount is MORE than ALR owed\n                    uint256 amountToAHR = _repayAmount.sub(accountBorrowsALR); //calculate amount going to AHR\n                    asset.safeTransferFrom(\n                        msg.sender,\n                        address(ALR),\n                        accountBorrowsALR\n                    );\n                     //transfer remaining ALR bal to ALR\n                    payAmountALR = ALR.repayBorrow(0, msg.sender); //pay off ALR\n                    asset.safeTransferFrom(\n                        msg.sender,\n                        address(AHR),\n                        amountToAHR\n                    ); // transfer remaining payment amount to AHR\n                    payAmountAHR = AHR.repayBorrow(amountToAHR, msg.sender); //pay off towards AHR\n                    //if payAmountAHR is greater than 0 transfer asset from the user to the AHR contract\n                    emit Repayed(msg.sender, payAmountAHR, payAmountALR);\n                }\n            } else {\n                //if amount owed to ALR is zero\n                //transfer asset from the user to this contract\n                asset.safeTransferFrom(msg.sender, address(AHR), payAmountAHR);\n                payAmountAHR = AHR.repayBorrow(_repayAmount, msg.sender); //pay towards AHR\n                emit Repayed(msg.sender, payAmountAHR, 0);\n            }\n        }\n\n\n        //////////////fully repayed logic/////////////\n        if (\n            accountBorrowsAHR.sub(payAmountAHR) == 0 &&\n            accountBorrowsALR.sub(payAmountALR) == 0\n        ) {\n            //if the loan is fully payed off\n            //unlock the users locked collateral for this loan\n\n            //reset collateralLockedALR address to zero so the user can use a different ALR address in future borrows with this MMI\n            collateralLockedALR[msg.sender] = address(0);\n            cantCollateralize[msg.sender] = false;\n        }\n    }\n\n    //struct used to avoid stack too deep errors\n    struct liquidateLocalVar {\n        uint256 accountBorrowsALR;\n        uint256 accountBorrowsAHR;\n        uint256 totalBorrows;\n        uint256 borrowedValue;\n        uint256 borrowedValuecollatRatio;\n        uint256 collatValue;\n        uint256 halfVal;\n        uint256 payAmountALR; // Note: reverts on error\n        uint256 payAmountAHR;\n    }\n\n    /**\n    @notice _liquidateFor is called by the liquidateAccount function on a MMI where a user is being liquidated. This function\n            is called on a MMI contract where collateral is staked.\n            @param _borrower is the address of the borrower account who is non compliant\n            @param _ARTcollateralized is the address of the ALR Token contract used as collateral\n    **/\n    function liquidateAccount(\n        address _borrower,\n        AskoRiskTokenI _ARTcollateralized\n    ) external {\n        //create local vars storage\n        liquidateLocalVar memory vars;\n        require(msg.sender != _borrower, \"you cant liquidate yourself\");\n        //get current borrowed amount\n        uint256 accountBorrowsALR = ALR.borrowBalanceCurrent(_borrower);\n        uint256 accountBorrowsAHR = AHR.borrowBalanceCurrent(_borrower);\n        uint256 totalBorrows = accountBorrowsALR.add(accountBorrowsAHR); //666 augur total\n\n        //get wETH value of borrowed value\n        vars.borrowedValue = UOF.getUnderlyingPriceofAsset(\n            address(asset),\n            totalBorrows\n        );\n        //get wETH collateral value\n        vars.collatValue = MMF.checkCollateralizedALR(\n            _borrower,\n            address(_ARTcollateralized)\n        );\n        //divide borrowedValue by collatRatio\n        vars.halfVal = vars.borrowedValue.div(collatRatio);\n        //add collatRatio of the borrowedValue value to the total borrowedValue value for correct collateral amount\n        vars.borrowedValuecollatRatio = vars.borrowedValue.add(vars.halfVal);\n        /**\n      need to check if the amount of collateral is less than borrowedValuecollatRatio of the borrowed amount\n      if the collateral value is greater than or equal to borrowedValuecollatRatio of the borrowed value than we liquidate\n      **/\n        require(\n            vars.collatValue < vars.borrowedValuecollatRatio,\n            \"Account is compliant cannot liquidate\"\n        );\n        //call MoneyMarketControl which will track values and call the ART token for the swap\n        MMF.liquidateTrigger(\n            vars.collatValue,\n            _borrower,\n            address(this),\n            address(asset),\n            address(_ARTcollateralized)\n        );\n        //Half the returned asset amount and send half to each ART contract\n        uint256 totalEarned = asset.balanceOf(address(this));\n        uint remaining = totalEarned.sub(totalBorrows);\n        asset.safeTransfer(address(ALR), accountBorrowsALR);\n        asset.safeTransfer(address(AHR), accountBorrowsAHR);\n        asset.safeTransfer(msg.sender, remaining);\n        vars.payAmountALR = ALR.repayBorrow(0, _borrower); //pay off ALR for borrower\n        vars.payAmountAHR = AHR.repayBorrow(0, _borrower); //pay off  AHR for borrower\n        //Emit the Event\n        emit Liquidated(\n            _borrower,\n            msg.sender,\n            vars.borrowedValue,\n            address(this)\n        );\n    }\n\n    /**\n    @notice these are admin functions for updating individual ART values. All of these functions are protected\n    and can only be called by the MoneyMarketControl contract. These functions can be considered as Internal functions to the platform.\n    **/\n    function updateALR(address _newModel) external onlyMMFactory {\n        ALR._updateInterestModel(_newModel);\n    }\n\n    function updateAHR(address _newModel) external onlyMMFactory {\n        AHR._updateInterestModel(_newModel);\n    }\n\n    function setRRAHR(uint256 _RR) external onlyMMFactory {\n        AHR.setReserveRatio(_RR);\n    }\n\n    function setRRALR(uint256 _RR) external onlyMMFactory {\n        ALR.setReserveRatio(_RR);\n    }\n\n    function updateDivisor(uint256 _NewD) external onlyMMFactory {\n        divisor = _NewD;\n        emit divisorUpdated(_NewD);\n    }\n\n    function _upgradeMMIOracle(address _newOracle) external onlyMMFactory {\n        UOF = UniswapOracleFactoryI(_newOracle);\n    }\n\n    function upgradeMoneyMarketFactory(address _newMMF) external onlyOwner {\n        MMF = MoneyMarketFactoryI(_newMMF);\n    }\n\n    function _collectFees(address _targetAdd) external onlyOwner {\n        AHR._withdrawFee(_targetAdd);\n        ALR._withdrawFee(_targetAdd);\n    }\n\n    function _changeColatRatio(uint256 _newCR) external onlyOwner {\n        collatRatio = _newCR;\n    }\n\n    //////////////////View Functions/////////////////\n    /**\n    @notice getAssetAdd allows for easy retrieval of a Money Markets underlying asset's address\n    **/\n    function getAssetAdd() public view returns (address) {\n        return address(asset);\n    }\n\n    function checkIfALR(address _inQuestion) public view returns (bool) {\n        return MMF._checkIfALR(_inQuestion);\n    }\n}\n",
  "sourcePath": "/home/stan36/repos/asko/Askolend/AskoLend-contracts/contracts/MoneyMarketInstance.sol",
  "compiler": {
    "name": "solc",
    "version": "0.6.6+commit.6c089d02.Emscripten.clang"
  },
  "schemaVersion": "3.3.2",
  "updatedAt": "2021-03-08T00:35:13.137Z",
  "devdoc": {
    "methods": {
      "_setUpAHR(address,uint256)": {
        "details": "this function will create a token whos name and symbol is concatenated with a \"AHR-\" in front of it example: AHR-LINKasset.approve() is called to allow the AHR contract to freeely transfer the assset from this contract when the mint lendToAHRpool function is called.this function uses ABI encoding to properly concatenate AHR- && ALR- in front of the tokens name and symbol before creating each token.*",
        "params": {
          "_InterestRateModel": "is the address of this MoneyMarketInstances InterestRateModel",
          "_initialExchangeRate": "is the initial exchange rate between an asset and its AHR token"
        }
      },
      "_setUpALR(address,uint256)": {
        "details": "this function will create a token whos name and symbol is concatenated with a \"ALR-\" in front of it example: ALR-LINKasset.approve() is called to allow the ALR contract to freeely transfer the assset from this contract when the mint lendToALRpool function is called.this function uses ABI encoding to properly concatenate AHR- && ALR- in front of the tokens name and symbol before creating each token.*",
        "params": {
          "_InterestRateModel": "is the address of this MoneyMarketInstances InterestRateModel",
          "_initialExchangeRate": "is the initial exchange rate between an asset and its ALR token"
        }
      },
      "borrow(uint256,address)": {
        "params": {
          "_amount": "is the amount of asset being barrowed",
          "_collateral": "is the address of the ALR token being used as collateral*"
        }
      },
      "constructor": {
        "params": {
          "_ARTF": "is the address of the ART Token Factory",
          "_assetContractAdd": "is the address of the ERC20 asset being whitelisted",
          "_assetName": "is the name of the asset(e.x: ChainLink)",
          "_assetSymbol": "is the symbol of the asset(e.x: LINK)*",
          "_collatRatio": "is the number that will be used when calculating the collateralizastion ratio for a MMI",
          "_oracleFactory": "is the address of the  oracle factory",
          "_owner": "is the address of the MoneyMarketControl factory"
        }
      },
      "lendToAHRpool(uint256)": {
        "details": "the user will need to first approve the transfer of the underlying asset*",
        "params": {
          "_amount": "is the amount of the asset being lent"
        }
      },
      "lendToALRpool(uint256)": {
        "details": "the user will need to first approve the transfer of the underlying asset*",
        "params": {
          "_amount": "is the amount of the asset being lent"
        }
      },
      "liquidateAccount(address,address)": {
        "params": {
          "_ARTcollateralized": "is the address of the ALR Token contract used as collateral*",
          "_borrower": "is the address of the borrower account who is non compliant"
        }
      },
      "owner()": {
        "details": "Returns the address of the current owner."
      },
      "renounceOwnership()": {
        "details": "Leaves the contract without owner. It will not be possible to call `onlyOwner` functions anymore. Can only be called by the current owner.     * NOTE: Renouncing ownership will leave the contract without an owner, thereby removing any functionality that is only available to the owner."
      },
      "repay(uint256)": {
        "params": {
          "_repayAmount": "is the amount of the underlying asset being repayed*"
        }
      },
      "transferOwnership(address)": {
        "details": "Transfers ownership of the contract to a new account (`newOwner`). Can only be called by the current owner."
      }
    }
  },
  "userdoc": {
    "methods": {
      "_setUpAHR(address,uint256)": {
        "notice": "setUp is called by the MoneyMarketFactory after a contract is created to set up the initial variables. This is split from the constructor function to keep from reaching the gas block limit"
      },
      "_setUpALR(address,uint256)": {
        "notice": "setUp is called by the MoneyMarketFactory after a contract is created to set up the initial variables. This is split from the constructor function to keep from reaching the gas block limit"
      },
      "borrow(uint256,address)": {
        "notice": "borrow is used to take out a loan from in MoneyMarketInstance's underlying asset"
      },
      "constructor": "the constructor function is fired during the contract deployment process. The constructor can only be fired once and is used to initialize the MoneyMakerInstance and deploy its associated AHR && ALR token contracts",
      "getAssetAdd()": {
        "notice": "getAssetAdd allows for easy retrieval of a Money Markets underlying asset's address*"
      },
      "lendToAHRpool(uint256)": {
        "notice": "lendToAHRpool is used to lend assets to a MoneyMarketInstance's High Risk pool"
      },
      "lendToALRpool(uint256)": {
        "notice": "lendToALRpool is used to lend assets to a MoneyMarketInstance's Low Risk pool"
      },
      "liquidateAccount(address,address)": {
        "notice": "_liquidateFor is called by the liquidateAccount function on a MMI where a user is being liquidated. This function is called on a MMI contract where collateral is staked."
      },
      "repay(uint256)": {
        "notice": "repay is used to repay a loan"
      },
      "updateALR(address)": {
        "notice": "these are admin functions for updating individual ART values. All of these functions are protected and can only be called by the MoneyMarketControl contract. These functions can be considered as Internal functions to the platform.*"
      }
    },
    "notice": "The MoneyMarketInstance contract is designed facilitate a tiered money market for an individual ERC20 asset This contract uses the OpenZeppelin contract Library to inherit functions from Ownable.sol, SafeMath.sol, ReentrancyGuard && SafeERC20.sol*"
  }
}