{
  "contractName": "MoneyMarketInstance",
  "abi": [
    {
      "inputs": [
        {
          "internalType": "address",
          "name": "_assetContractAdd",
          "type": "address"
        },
        {
          "internalType": "address",
          "name": "_oracleFactory",
          "type": "address"
        },
        {
          "internalType": "address",
          "name": "_owner",
          "type": "address"
        },
        {
          "internalType": "string",
          "name": "_assetName",
          "type": "string"
        },
        {
          "internalType": "string",
          "name": "_assetSymbol",
          "type": "string"
        }
      ],
      "stateMutability": "nonpayable",
      "type": "constructor"
    },
    {
      "anonymous": false,
      "inputs": [
        {
          "indexed": false,
          "internalType": "address",
          "name": "borrower",
          "type": "address"
        },
        {
          "indexed": false,
          "internalType": "uint256",
          "name": "AHRamount",
          "type": "uint256"
        },
        {
          "indexed": false,
          "internalType": "uint256",
          "name": "ALRamount",
          "type": "uint256"
        }
      ],
      "name": "Borrow",
      "type": "event"
    },
    {
      "anonymous": false,
      "inputs": [
        {
          "indexed": false,
          "internalType": "address",
          "name": "collateralizer",
          "type": "address"
        },
        {
          "indexed": false,
          "internalType": "uint256",
          "name": "amount",
          "type": "uint256"
        }
      ],
      "name": "Collateralized",
      "type": "event"
    },
    {
      "anonymous": false,
      "inputs": [
        {
          "indexed": false,
          "internalType": "address",
          "name": "lender",
          "type": "address"
        },
        {
          "indexed": false,
          "internalType": "uint256",
          "name": "amount",
          "type": "uint256"
        }
      ],
      "name": "LentToAHR",
      "type": "event"
    },
    {
      "anonymous": false,
      "inputs": [
        {
          "indexed": false,
          "internalType": "address",
          "name": "lender",
          "type": "address"
        },
        {
          "indexed": false,
          "internalType": "uint256",
          "name": "amount",
          "type": "uint256"
        }
      ],
      "name": "LentToALR",
      "type": "event"
    },
    {
      "anonymous": false,
      "inputs": [
        {
          "indexed": true,
          "internalType": "address",
          "name": "previousOwner",
          "type": "address"
        },
        {
          "indexed": true,
          "internalType": "address",
          "name": "newOwner",
          "type": "address"
        }
      ],
      "name": "OwnershipTransferred",
      "type": "event"
    },
    {
      "anonymous": false,
      "inputs": [
        {
          "indexed": false,
          "internalType": "address",
          "name": "borrower",
          "type": "address"
        },
        {
          "indexed": false,
          "internalType": "uint256",
          "name": "AHRamount",
          "type": "uint256"
        },
        {
          "indexed": false,
          "internalType": "uint256",
          "name": "ALRamount",
          "type": "uint256"
        }
      ],
      "name": "Repayed",
      "type": "event"
    },
    {
      "inputs": [],
      "name": "AHR",
      "outputs": [
        {
          "internalType": "contract AskoRiskToken",
          "name": "",
          "type": "address"
        }
      ],
      "stateMutability": "view",
      "type": "function"
    },
    {
      "inputs": [],
      "name": "ALR",
      "outputs": [
        {
          "internalType": "contract AskoRiskToken",
          "name": "",
          "type": "address"
        }
      ],
      "stateMutability": "view",
      "type": "function"
    },
    {
      "inputs": [],
      "name": "MMF",
      "outputs": [
        {
          "internalType": "contract MoneyMarketFactoryI",
          "name": "",
          "type": "address"
        }
      ],
      "stateMutability": "view",
      "type": "function"
    },
    {
      "inputs": [],
      "name": "UOF",
      "outputs": [
        {
          "internalType": "contract UniswapOracleFactoryI",
          "name": "",
          "type": "address"
        }
      ],
      "stateMutability": "view",
      "type": "function"
    },
    {
      "inputs": [],
      "name": "asset",
      "outputs": [
        {
          "internalType": "contract IERC20",
          "name": "",
          "type": "address"
        }
      ],
      "stateMutability": "view",
      "type": "function"
    },
    {
      "inputs": [],
      "name": "assetName",
      "outputs": [
        {
          "internalType": "string",
          "name": "",
          "type": "string"
        }
      ],
      "stateMutability": "view",
      "type": "function"
    },
    {
      "inputs": [],
      "name": "assetSymbol",
      "outputs": [
        {
          "internalType": "string",
          "name": "",
          "type": "string"
        }
      ],
      "stateMutability": "view",
      "type": "function"
    },
    {
      "inputs": [],
      "name": "divisor",
      "outputs": [
        {
          "internalType": "uint256",
          "name": "",
          "type": "uint256"
        }
      ],
      "stateMutability": "view",
      "type": "function"
    },
    {
      "inputs": [],
      "name": "feePercent",
      "outputs": [
        {
          "internalType": "uint256",
          "name": "",
          "type": "uint256"
        }
      ],
      "stateMutability": "view",
      "type": "function"
    },
    {
      "inputs": [],
      "name": "fee_AHR",
      "outputs": [
        {
          "internalType": "uint256",
          "name": "",
          "type": "uint256"
        }
      ],
      "stateMutability": "view",
      "type": "function"
    },
    {
      "inputs": [],
      "name": "fee_ALR",
      "outputs": [
        {
          "internalType": "uint256",
          "name": "",
          "type": "uint256"
        }
      ],
      "stateMutability": "view",
      "type": "function"
    },
    {
      "inputs": [],
      "name": "owner",
      "outputs": [
        {
          "internalType": "address",
          "name": "",
          "type": "address"
        }
      ],
      "stateMutability": "view",
      "type": "function"
    },
    {
      "inputs": [],
      "name": "renounceOwnership",
      "outputs": [],
      "stateMutability": "nonpayable",
      "type": "function"
    },
    {
      "inputs": [
        {
          "internalType": "address",
          "name": "newOwner",
          "type": "address"
        }
      ],
      "name": "transferOwnership",
      "outputs": [],
      "stateMutability": "nonpayable",
      "type": "function"
    },
    {
      "inputs": [
        {
          "internalType": "address",
          "name": "_InterestRateModel",
          "type": "address"
        },
        {
          "internalType": "uint256",
          "name": "_fee",
          "type": "uint256"
        },
        {
          "internalType": "uint256",
          "name": "_initialExchangeRate",
          "type": "uint256"
        }
      ],
      "name": "_setUpAHR",
      "outputs": [],
      "stateMutability": "nonpayable",
      "type": "function"
    },
    {
      "inputs": [
        {
          "internalType": "address",
          "name": "_InterestRateModel",
          "type": "address"
        },
        {
          "internalType": "uint256",
          "name": "_fee",
          "type": "uint256"
        },
        {
          "internalType": "uint256",
          "name": "_initialExchangeRate",
          "type": "uint256"
        }
      ],
      "name": "_setUpALR",
      "outputs": [],
      "stateMutability": "nonpayable",
      "type": "function"
    },
    {
      "inputs": [],
      "name": "getAssetAdd",
      "outputs": [
        {
          "internalType": "address",
          "name": "",
          "type": "address"
        }
      ],
      "stateMutability": "view",
      "type": "function"
    },
    {
      "inputs": [
        {
          "internalType": "uint256",
          "name": "_fee",
          "type": "uint256"
        }
      ],
      "name": "setFeeAHR",
      "outputs": [],
      "stateMutability": "nonpayable",
      "type": "function"
    },
    {
      "inputs": [
        {
          "internalType": "uint256",
          "name": "_fee",
          "type": "uint256"
        }
      ],
      "name": "setFeeALR",
      "outputs": [],
      "stateMutability": "nonpayable",
      "type": "function"
    },
    {
      "inputs": [
        {
          "internalType": "uint256",
          "name": "_payedAmount",
          "type": "uint256"
        },
        {
          "internalType": "uint256",
          "name": "_feePercent",
          "type": "uint256"
        }
      ],
      "name": "calculateFee",
      "outputs": [
        {
          "internalType": "uint256",
          "name": "",
          "type": "uint256"
        }
      ],
      "stateMutability": "view",
      "type": "function"
    },
    {
      "inputs": [
        {
          "internalType": "uint256",
          "name": "_amount",
          "type": "uint256"
        }
      ],
      "name": "lendToAHRpool",
      "outputs": [],
      "stateMutability": "nonpayable",
      "type": "function"
    },
    {
      "inputs": [
        {
          "internalType": "uint256",
          "name": "_amount",
          "type": "uint256"
        }
      ],
      "name": "lendToALRpool",
      "outputs": [],
      "stateMutability": "nonpayable",
      "type": "function"
    },
    {
      "inputs": [
        {
          "internalType": "uint256",
          "name": "_amount",
          "type": "uint256"
        },
        {
          "internalType": "address",
          "name": "_collateral",
          "type": "address"
        }
      ],
      "name": "borrow",
      "outputs": [],
      "stateMutability": "nonpayable",
      "type": "function"
    },
    {
      "inputs": [
        {
          "internalType": "uint256",
          "name": "_repayAmount",
          "type": "uint256"
        }
      ],
      "name": "repay",
      "outputs": [],
      "stateMutability": "nonpayable",
      "type": "function"
    },
    {
      "inputs": [
        {
          "internalType": "uint256",
          "name": "_amount",
          "type": "uint256"
        }
      ],
      "name": "collateralizeALR",
      "outputs": [],
      "stateMutability": "nonpayable",
      "type": "function"
    }
  ],
  "bytecode": "0x60806040523480156200001157600080fd5b5060405162004bba38038062004bba833981810160405260a08110156200003757600080fd5b8151602083015160408085015160608601805192519496939591949391820192846401000000008211156200006b57600080fd5b9083019060208201858111156200008157600080fd5b82516401000000008111828201881017156200009c57600080fd5b82525081516020918201929091019080838360005b83811015620000cb578181015183820152602001620000b1565b50505050905090810190601f168015620000f95780820380516001836020036101000a031916815260200191505b50604052602001805160405193929190846401000000008211156200011d57600080fd5b9083019060208201858111156200013357600080fd5b82516401000000008111828201881017156200014e57600080fd5b82525081516020918201929091019080838360005b838110156200017d57818101518382015260200162000163565b50505050905090810190601f168015620001ab5780820380516001836020036101000a031916815260200191505b506040525050506000620001c46200028860201b60201c565b600080546001600160a01b0319166001600160a01b0383169081178255604051929350917f8be0079c531659141344cd1fd0a4f28419497f9722a3daafe3b4186f6b6457e0908290a3506127106002558151620002299060059060208501906200028d565b5080516200023f9060069060208401906200028d565b5050600b80546001600160a01b039485166001600160a01b031991821617909155600a80549385169382169390931790925550600780549390921692169190911790556200032f565b335b90565b828054600181600116156101000203166002900490600052602060002090601f016020900481019282601f10620002d057805160ff191683800117855562000300565b8280016001018555821562000300579182015b8281111562000300578251825591602001919060010190620002e3565b506200030e92915062000312565b5090565b6200028a91905b808211156200030e576000815560010162000319565b61487b806200033f6000396000f3fe60806040523480156200001157600080fd5b5060043610620001845760003560e01c80636c713a1511620000e1578063c9230c5d1162000093578063c9230c5d14620003bf578063cf0aea8514620003c9578063d162054a14620003e9578063dcc716bd14620003f3578063f2130c701462000428578063f2fde38b1462000432578063f9828b4f146200045b5762000184565b80636c713a15146200036d578063715018a6146200038d5780637fd6f15c14620003975780638da5cb5b14620003a15780639241cef214620003ab578063c27d4df314620003b55762000184565b806334e73122116200013b57806334e7312214620002c4578063371fd8e614620002ea57806338d52e0f146200030a5780634b3fd14814620003145780634c20ac741462000343578063551f8b01146200034d5762000184565b806303438def146200018957806311e2c02f14620001ab578063176de7a814620001d15780631f2dc5ef14620002535780631f432cf5146200026f57806322b2d40214620002a4575b600080fd5b620001a960048036036020811015620001a157600080fd5b503562000465565b005b620001b562000588565b604080516001600160a01b039092168252519081900360200190f35b620001db62000597565b6040805160208082528351818301528351919283929083019185019080838360005b8381101562000217578181015183820152602001620001fd565b50505050905090810190601f168015620002455780820380516001836020036101000a031916815260200191505b509250505060405180910390f35b6200025d62000629565b60408051918252519081900360200190f35b620001a9600480360360608110156200028757600080fd5b506001600160a01b0381351690602081013590604001356200062f565b620001a960048036036020811015620002bc57600080fd5b5035620009ba565b6200025d60048036036040811015620002dc57600080fd5b508035906020013562000b1d565b620001a9600480360360208110156200030257600080fd5b503562000b53565b620001b56200112e565b620001a9600480360360408110156200032c57600080fd5b50803590602001356001600160a01b03166200113d565b620001b562001506565b620001a9600480360360208110156200036557600080fd5b503562001515565b620001a9600480360360208110156200038557600080fd5b503562001576565b620001a9620015d7565b6200025d6200167d565b620001b562001683565b620001b562001692565b620001b5620016a1565b620001db620016b0565b620001a960048036036020811015620003e157600080fd5b50356200170e565b620001b562001871565b620001a9600480360360608110156200040b57600080fd5b506001600160a01b03813516906020810135906040013562001880565b6200025d62001c0d565b620001a9600480360360208110156200044a57600080fd5b50356001600160a01b031662001c13565b6200025d62001d11565b60095460408051632770a7eb60e21b81523360048201526024810184905290516001600160a01b0390921691639dc29fac9160448082019260009290919082900301818387803b158015620004b957600080fd5b505af1158015620004ce573d6000803e3d6000fd5b5050600a546009546040805163152eadbb60e01b81523360048201526001600160a01b03928316602482015260448101879052905191909216935063152eadbb9250606480830192600092919082900301818387803b1580156200053157600080fd5b505af115801562000546573d6000803e3d6000fd5b5050604080513381526020810185905281517f2ceb23d1a429a36e05e1dd6ebfeceac2b6904c032f15f7648ebd4711510a15f79450908190039091019150a150565b600b546001600160a01b031681565b6006805460408051602060026001851615610100026000190190941693909304601f81018490048402820184019092528181529291830182828015620006215780601f10620005f55761010080835404028352916020019162000621565b820191906000526020600020905b8154815290600101906020018083116200060357829003601f168201915b505050505081565b60025481565b600a546001600160a01b031633146200064757600080fd5b60048281556040805163416c522d60e01b6020808301919091528251808303909401845260248201909252825183926005926044019182918501908083835b60208310620006a75780518252601f19909201916020918201910162000686565b6001836020036101000a03801982511681845116808217855250505050505090500182805460018160011615610100020316600290048015620007245780601f106200070157610100808354040283529182019162000724565b820191906000526020600020905b8154815290600101906020018083116200070f575b50509250505060405160208183030381529060405290506060604051602001808063416c522d60e01b815250600401905060405160208183030381529060405290508060066040516020018083805190602001908083835b602083106200079d5780518252601f1990920191602091820191016200077c565b6001836020036101000a038019825116818451168082178552505050505050905001828054600181600116156101000203166002900480156200081a5780601f10620007f75761010080835404028352918201916200081a565b820191906000526020600020905b81548152906001019060200180831162000805575b505060408051601f1981840301815290829052600754600b549196508795508694508a93506001600160a01b0390811692911690859085906001908b90620008629062001f67565b6001600160a01b038089168252878116602080840191909152908716604083015283151560a083015260c0820183905260e06060830181815287519184019190915286519091608084019161010085019189019080838360005b83811015620008d6578181015183820152602001620008bc565b50505050905090810190601f168015620009045780820380516001836020036101000a031916815260200191505b50838103825286518152865160209182019188019080838360005b83811015620009395781810151838201526020016200091f565b50505050905090810190601f168015620009675780820380516001836020036101000a031916815260200191505b509950505050505050505050604051809103906000f08015801562000990573d6000803e3d6000fd5b50600980546001600160a01b0319166001600160a01b039290921691909117905550505050505050565b6000620009ca8260045462000b1d565b90506000620009e0838363ffffffff62001d1716565b600754600954604080516323b872dd60e01b81523360048201526001600160a01b0392831660248201526044810188905290519394509116916323b872dd916064808201926020929091908290030181600087803b15801562000a4257600080fd5b505af115801562000a57573d6000803e3d6000fd5b505050506040513d602081101562000a6e57600080fd5b5050600954604080516340c10f1960e01b81523360048201526024810184905290516001600160a01b03909216916340c10f199160448082019260009290919082900301818387803b15801562000ac457600080fd5b505af115801562000ad9573d6000803e3d6000fd5b5050604080513381526020810187905281517f7328ca2a2e824164ca6ec3121966d63601356d01901d9a5d2ee466cb726d1e3c9450908190039091019150a1505050565b60008062000b4960025462000b3c858762001d6290919063ffffffff16565b9063ffffffff62001dc016565b9150505b92915050565b600062000b638260045462000b1d565b9050600062000b79838363ffffffff62001e0416565b600954604080516305eff7ef60e21b815233600482015290519293506000926001600160a01b03909216916317bfdfbc9160248082019260209290919082900301818787803b15801562000bcc57600080fd5b505af115801562000be1573d6000803e3d6000fd5b505050506040513d602081101562000bf857600080fd5b50519050600080821562000fe35783831062000d5657600954604080516369a5e8cf60e01b81526004810187905233602482015290516001600160a01b03909216916369a5e8cf916044808201926020929091908290030181600087803b15801562000c6357600080fd5b505af115801562000c78573d6000803e3d6000fd5b505050506040513d602081101562000c8f57600080fd5b5051600754600954604080516323b872dd60e01b81523360048201526001600160a01b0392831660248201526044810185905290519394509116916323b872dd916064808201926020929091908290030181600087803b15801562000cf357600080fd5b505af115801562000d08573d6000803e3d6000fd5b505050506040513d602081101562000d1f57600080fd5b505060408051338152600060208201528082018890529051600080516020620048268339815191529181900360600190a162000fdd565b600062000d6a858563ffffffff62001d1716565b600954604080516369a5e8cf60e01b81526004810184905233602482015290519293506001600160a01b03909116916369a5e8cf916044808201926020929091908290030181600087803b15801562000dc257600080fd5b505af115801562000dd7573d6000803e3d6000fd5b505050506040513d602081101562000dee57600080fd5b5051600754600954604080516323b872dd60e01b81523360048201526001600160a01b0392831660248201526044810185905290519395509116916323b872dd916064808201926020929091908290030181600087803b15801562000e5257600080fd5b505af115801562000e67573d6000803e3d6000fd5b505050506040513d602081101562000e7e57600080fd5b506000905062000e95868363ffffffff62001d1716565b600854604080516369a5e8cf60e01b81526004810184905233602482015290519293506001600160a01b03909116916369a5e8cf916044808201926020929091908290030181600087803b15801562000eed57600080fd5b505af115801562000f02573d6000803e3d6000fd5b505050506040513d602081101562000f1957600080fd5b5051600754600854604080516323b872dd60e01b81523360048201526001600160a01b0392831660248201526044810185905290519397509116916323b872dd916064808201926020929091908290030181600087803b15801562000f7d57600080fd5b505af115801562000f92573d6000803e3d6000fd5b505050506040513d602081101562000fa957600080fd5b505060408051338152602081018690528082018590529051600080516020620048268339815191529181900360600190a150505b62001126565b600854604080516369a5e8cf60e01b81526004810187905233602482015290516001600160a01b03909216916369a5e8cf916044808201926020929091908290030181600087803b1580156200103857600080fd5b505af11580156200104d573d6000803e3d6000fd5b505050506040513d60208110156200106457600080fd5b5051600754600854604080516323b872dd60e01b81523360048201526001600160a01b0392831660248201526044810185905290519395509116916323b872dd916064808201926020929091908290030181600087803b158015620010c857600080fd5b505af1158015620010dd573d6000803e3d6000fd5b505050506040513d6020811015620010f457600080fd5b505060408051338152602081018490526000818301529051600080516020620048268339815191529181900360600190a15b505050505050565b6007546001600160a01b031681565b600a5460408051634750e71960e01b81523360048201526001600160a01b03848116602483015291516000939290921691634750e7199160448082019260209290919082900301818787803b1580156200119657600080fd5b505af1158015620011ab573d6000803e3d6000fd5b505050506040513d6020811015620011c257600080fd5b5051600854604080516305eff7ef60e21b815233600482015290519293506000926001600160a01b03909216916317bfdfbc9160248082019260209290919082900301818787803b1580156200121757600080fd5b505af11580156200122c573d6000803e3d6000fd5b505050506040513d60208110156200124357600080fd5b5051600954604080516305eff7ef60e21b815233600482015290519293506000926001600160a01b03909216916317bfdfbc9160248082019260209290919082900301818787803b1580156200129857600080fd5b505af1158015620012ad573d6000803e3d6000fd5b505050506040513d6020811015620012c457600080fd5b505190506000620012ee620012e0838863ffffffff62001e0416565b849063ffffffff62001e0416565b600b546007546040805163fc57d4df60e01b81526001600160a01b0392831660048201529051939450600093919092169163fc57d4df916024808301926020929190829003018186803b1580156200134557600080fd5b505afa1580156200135a573d6000803e3d6000fd5b505050506040513d60208110156200137157600080fd5b50519050600062001389828463ffffffff62001d6216565b90506000620013a082600263ffffffff62001dc016565b90506000620013b6838363ffffffff62001e0416565b905080881015620013c657600080fd5b6000620013db8b600263ffffffff62001dc016565b60085460408051630967fa2960e31b81526004810184905233602482015290519293506001600160a01b0390911691634b3fd1489160448082019260009290919082900301818387803b1580156200143257600080fd5b505af115801562001447573d6000803e3d6000fd5b505060095460408051630967fa2960e31b81526004810186905233602482015290516001600160a01b039092169350634b3fd148925060448082019260009290919082900301818387803b1580156200149f57600080fd5b505af1158015620014b4573d6000803e3d6000fd5b5050604080513381526020810185905280820185905290517fe1979fe4c35e0cef342fef5668e2c8e7a7e9f5d5d1ca8fee0ac6c427fa4153af9350908190036060019150a15050505050505050505050565b6007546001600160a01b031690565b6200151f62001e5f565b6000546001600160a01b0390811691161462001571576040805162461bcd60e51b8152602060048201819052602482015260008051602062004806833981519152604482015290519081900360640190fd5b600455565b6200158062001e5f565b6000546001600160a01b03908116911614620015d2576040805162461bcd60e51b8152602060048201819052602482015260008051602062004806833981519152604482015290519081900360640190fd5b600355565b620015e162001e5f565b6000546001600160a01b0390811691161462001633576040805162461bcd60e51b8152602060048201819052602482015260008051602062004806833981519152604482015290519081900360640190fd5b600080546040516001600160a01b03909116907f8be0079c531659141344cd1fd0a4f28419497f9722a3daafe3b4186f6b6457e0908390a3600080546001600160a01b0319169055565b60015481565b6000546001600160a01b031690565b6008546001600160a01b031681565b6009546001600160a01b031681565b6005805460408051602060026001851615610100026000190190941693909304601f81018490048402820184019092528181529291830182828015620006215780601f10620005f55761010080835404028352916020019162000621565b60006200171e8260035462000b1d565b9050600062001734838363ffffffff62001d1716565b600754600854604080516323b872dd60e01b81523360048201526001600160a01b0392831660248201526044810188905290519394509116916323b872dd916064808201926020929091908290030181600087803b1580156200179657600080fd5b505af1158015620017ab573d6000803e3d6000fd5b505050506040513d6020811015620017c257600080fd5b5050600854604080516340c10f1960e01b81523360048201526024810184905290516001600160a01b03909216916340c10f199160448082019260009290919082900301818387803b1580156200181857600080fd5b505af11580156200182d573d6000803e3d6000fd5b5050604080513381526020810187905281517f0f82438f3b5c78264c4b6dce428942fd963308db5c690635d87bc654cb811d339450908190039091019150a1505050565b600a546001600160a01b031681565b600a546001600160a01b031633146200189857600080fd5b600382905560408051634148522d60e01b60208083019190915282518083036004018152602483019093528251839260059260449091019182918501908083835b60208310620018fa5780518252601f199092019160209182019101620018d9565b6001836020036101000a03801982511681845116808217855250505050505090500182805460018160011615610100020316600290048015620019775780601f106200195457610100808354040283529182019162001977565b820191906000526020600020905b81548152906001019060200180831162001962575b505092505050604051602081830303815290604052905060606040516020018080634148522d60e01b815250600401905060405160208183030381529060405290508060066040516020018083805190602001908083835b60208310620019f05780518252601f199092019160209182019101620019cf565b6001836020036101000a0380198251168184511680821785525050505050509050018280546001816001161561010002031660029004801562001a6d5780601f1062001a4a57610100808354040283529182019162001a6d565b820191906000526020600020905b81548152906001019060200180831162001a58575b505060408051601f1981840301815290829052600754600b549196508795508694508a93506001600160a01b0390811692911690859085906000908b9062001ab59062001f67565b6001600160a01b038089168252878116602080840191909152908716604083015283151560a083015260c0820183905260e06060830181815287519184019190915286519091608084019161010085019189019080838360005b8381101562001b2957818101518382015260200162001b0f565b50505050905090810190601f16801562001b575780820380516001836020036101000a031916815260200191505b50838103825286518152865160209182019188019080838360005b8381101562001b8c57818101518382015260200162001b72565b50505050905090810190601f16801562001bba5780820380516001836020036101000a031916815260200191505b509950505050505050505050604051809103906000f08015801562001be3573d6000803e3d6000fd5b50600880546001600160a01b0319166001600160a01b039290921691909117905550505050505050565b60035481565b62001c1d62001e5f565b6000546001600160a01b0390811691161462001c6f576040805162461bcd60e51b8152602060048201819052602482015260008051602062004806833981519152604482015290519081900360640190fd5b6001600160a01b03811662001cb65760405162461bcd60e51b8152600401808060200182810382526026815260200180620047bf6026913960400191505060405180910390fd5b600080546040516001600160a01b03808516939216917f8be0079c531659141344cd1fd0a4f28419497f9722a3daafe3b4186f6b6457e091a3600080546001600160a01b0319166001600160a01b0392909216919091179055565b60045481565b600062001d5b83836040518060400160405280601e81526020017f536166654d6174683a207375627472616374696f6e206f766572666c6f77000081525062001e63565b9392505050565b60008262001d735750600062000b4d565b8282028284828162001d8157fe5b041462001d5b5760405162461bcd60e51b8152600401808060200182810382526021815260200180620047e56021913960400191505060405180910390fd5b600062001d5b83836040518060400160405280601a81526020017f536166654d6174683a206469766973696f6e206279207a65726f00000000000081525062001efe565b60008282018381101562001d5b576040805162461bcd60e51b815260206004820152601b60248201527f536166654d6174683a206164646974696f6e206f766572666c6f770000000000604482015290519081900360640190fd5b3390565b6000818484111562001ef65760405162461bcd60e51b81526004018080602001828103825283818151815260200191508051906020019080838360005b8381101562001eba57818101518382015260200162001ea0565b50505050905090810190601f16801562001ee85780820380516001836020036101000a031916815260200191505b509250505060405180910390fd5b505050900390565b6000818362001f505760405162461bcd60e51b815260206004820181815283516024840152835190928392604490910191908501908083836000831562001eba57818101518382015260200162001ea0565b50600083858162001f5d57fe5b0495945050505050565b6128498062001f768339019056fe60806040523480156200001157600080fd5b506040516200284938038062002849833981810160405260e08110156200003757600080fd5b8151602083015160408085015160608601805192519496939591949391820192846401000000008211156200006b57600080fd5b9083019060208201858111156200008157600080fd5b82516401000000008111828201881017156200009c57600080fd5b82525081516020918201929091019080838360005b83811015620000cb578181015183820152602001620000b1565b50505050905090810190601f168015620000f95780820380516001836020036101000a031916815260200191505b50604052602001805160405193929190846401000000008211156200011d57600080fd5b9083019060208201858111156200013357600080fd5b82516401000000008111828201881017156200014e57600080fd5b82525081516020918201929091019080838360005b838110156200017d57818101518382015260200162000163565b50505050905090810190601f168015620001ab5780820380516001836020036101000a031916815260200191505b5060409081526020820151910151909250905083836000620001d56001600160e01b03620002e916565b600080546001600160a01b0319166001600160a01b0383169081178255604051929350917f8be0079c531659141344cd1fd0a4f28419497f9722a3daafe3b4186f6b6457e0908290a350815162000234906004906020850190620002f2565b5080516200024a906005906020840190620002f2565b505060068054600860ff1991821617909155600d8054600f8054336001600160a01b031991821617909155600e805482166001600160a01b038e811691909117909155601080549092168b821617909155610100600160a81b0319909116610100918b169190910217909116841515179055506007819055620002cc620002ee565b6009555050670de0b6b3a7640000600a5550620003949350505050565b335b90565b4390565b828054600181600116156101000203166002900490600052602060002090601f016020900481019282601f106200033557805160ff191683800117855562000365565b8280016001018555821562000365579182015b828111156200036557825182559160200191906001019062000348565b506200037392915062000377565b5090565b620002eb91905b808211156200037357600081556001016200037e565b6124a580620003a46000396000f3fe608060405234801561001057600080fd5b506004361061027f5760003560e01c806377e4974d1161015c578063ae9d70b0116100ce578063dd62ed3e11610087578063dd62ed3e146106d6578063e778bc2114610704578063ee27a2f21461072a578063f2fde38b14610732578063f3fdb15a14610758578063f8f9da28146107605761027f565b8063ae9d70b014610655578063bd6d894d1461065d578063c37f68e214610665578063c5d9bf71146106a9578063cd5c6f57146106b1578063db006a75146106b95761027f565b80639dc29fac116101205780639dc29fac146105b9578063a275370d146105e5578063a457c2d7146105ed578063a6afed9514610619578063a9059cbb14610621578063aa5af0fd1461064d5761027f565b806377e4974d1461055d5780638157230b146105655780638da5cb5b146105a15780638f840ddd146105a957806395d89b41146105b15761027f565b80633b1d21a2116101f557806369a5e8cf116101b957806369a5e8cf146104cd5780636c540baf146104f957806370a0823114610501578063715018a61461052757806373acee981461052f5780637746efab146105375761027f565b80633b1d21a21461045b57806340c10f191461046357806347bd3718146104915780634b3fd148146104995780634c20ac74146104c55761027f565b806318160ddd1161024757806318160ddd146103a557806323b872dd146103ad578063313ce567146103e357806338d52e0f1461040157806339509351146104095780633af9e669146104355761027f565b806306fdde0314610284578063095ea7b31461030157806311e2c02f14610341578063173b99041461036557806317bfdfbc1461037f575b600080fd5b61028c610768565b6040805160208082528351818301528351919283929083019185019080838360005b838110156102c65781810151838201526020016102ae565b50505050905090810190601f1680156102f35780820380516001836020036101000a031916815260200191505b509250505060405180910390f35b61032d6004803603604081101561031757600080fd5b506001600160a01b0381351690602001356107ff565b604080519115158252519081900360200190f35b61034961081c565b604080516001600160a01b039092168252519081900360200190f35b61036d61082b565b60408051918252519081900360200190f35b61036d6004803603602081101561039557600080fd5b50356001600160a01b0316610831565b61036d61084a565b61032d600480360360608110156103c357600080fd5b506001600160a01b03813581169160208101359091169060400135610850565b6103eb6108dd565b6040805160ff9092168252519081900360200190f35b6103496108e6565b61032d6004803603604081101561041f57600080fd5b506001600160a01b0381351690602001356108fa565b61036d6004803603602081101561044b57600080fd5b50356001600160a01b031661094e565b61036d6109ab565b61048f6004803603604081101561047957600080fd5b506001600160a01b0381351690602001356109ba565b005b61036d610a9a565b61048f600480360360408110156104af57600080fd5b50803590602001356001600160a01b0316610aa0565b610349610c74565b61036d600480360360408110156104e357600080fd5b50803590602001356001600160a01b0316610c88565b61036d610e1a565b61036d6004803603602081101561051757600080fd5b50356001600160a01b0316610e20565b61048f610e3b565b61036d610eef565b61036d6004803603602081101561054d57600080fd5b50356001600160a01b0316610f00565b61032d610fa3565b61048f6004803603608081101561057b57600080fd5b506001600160a01b03813581169160208101359091169060408101359060600135610fac565b6103496110c1565b61036d6110d0565b61028c6110d6565b61048f600480360360408110156105cf57600080fd5b506001600160a01b038135169060200135611137565b61036d6111a0565b61032d6004803603604081101561060357600080fd5b506001600160a01b0381351690602001356111ac565b61048f61121a565b61032d6004803603604081101561063757600080fd5b506001600160a01b03813516906020013561146b565b61036d61147f565b61036d611485565b61036d611524565b61068b6004803603602081101561067b57600080fd5b50356001600160a01b031661153a565b60408051938452602084019290925282820152519081900360600190f35b610349611570565b61036d61157f565b61048f600480360360208110156106cf57600080fd5b5035611612565b61036d600480360360408110156106ec57600080fd5b506001600160a01b0381358116916020013516611786565b61036d6004803603602081101561071a57600080fd5b50356001600160a01b03166117b1565b61036d6117ce565b61048f6004803603602081101561074857600080fd5b50356001600160a01b03166117d8565b6103496118e2565b61036d6118f1565b60048054604080516020601f60026000196101006001881615020190951694909404938401819004810282018101909252828152606093909290918301828280156107f45780601f106107c9576101008083540402835291602001916107f4565b820191906000526020600020905b8154815290600101906020018083116107d757829003601f168201915b505050505090505b90565b600061081361080c611955565b8484611959565b50600192915050565b6010546001600160a01b031681565b60085481565b600061083b61121a565b61084482610f00565b50919050565b60035490565b600061085d848484611a45565b6108d384610869611955565b6108ce85604051806060016040528060288152602001612399602891396001600160a01b038a166000908152600260205260408120906108a7611955565b6001600160a01b03168152602081019190915260400160002054919063ffffffff611b9c16565b611959565b5060019392505050565b60065460ff1690565b600d5461010090046001600160a01b031681565b6000610813610907611955565b846108ce8560026000610918611955565b6001600160a01b03908116825260208083019390935260409182016000908120918c16815292529020549063ffffffff611c3316565b6000610958612250565b604051806020016040528061096b611524565b905290506000806109848361097f87610e20565b611c94565b9092509050600082600381111561099757fe5b146109a157600080fd5b925050505b919050565b60006109b5611ce8565b905090565b600f546001600160a01b031633146109d157600080fd5b6109d9612263565b6109e1611524565b602080830191825260408051918201905290518152610a01908390611d38565b6040830181905282826003811115610a1557fe5b6003811115610a2057fe5b9052506000905081516003811115610a3457fe5b14610a3e57600080fd5b610a4c838260400151611d4f565b60408082015181516001600160a01b0386168152602081019190915281517f30385c845b448a36257a6a1716e6ad2e1bc2cbe333cde1e69fe849ad6511adfe929181900390910190a1505050565b600b5481565b600f546001600160a01b03163314610ab757600080fd5b610abf61121a565b81610ac8611ce8565b11610ad257600080fd5b610ada612285565b610ae382610831565b60208201819052610af49084611e3b565b6040830181905282826003811115610b0857fe5b6003811115610b1357fe5b9052506000905081516003811115610b2757fe5b14610b3157600080fd5b610b3d600b5484611e3b565b6060830181905282826003811115610b5157fe5b6003811115610b5c57fe5b9052506000905081516003811115610b7057fe5b14610b7a57600080fd5b6040808201516001600160a01b03808516600081815260116020908152858220948555600a546001909501949094556060860151600b55600d54855163a9059cbb60e01b815260048101939093526024830189905294516101009095049092169363a9059cbb9360448084019491938390030190829087803b158015610bff57600080fd5b505af1158015610c13573d6000803e3d6000fd5b505050506040513d6020811015610c2957600080fd5b5050604080516001600160a01b03841681526020810185905281517fac59582e5396aca512fa873a2047e7f4c80f8f55d4a06cb34a78a0187f62719f929181900390910190a1505050565b600d5461010090046001600160a01b031690565b600f546000906001600160a01b03163314610ca257600080fd5b610caa61121a565b610cb26122ae565b6001600160a01b038316600090815260116020526040908190206001015490820152610cdd83610831565b606082015283610cf65760608101516020820152610cfe565b602081018490525b610d1081606001518260200151611e61565b6080830181905282826003811115610d2457fe5b6003811115610d2f57fe5b9052506000905081516003811115610d4357fe5b14610d4d57600080fd5b610d5d600b548260200151611e61565b60a0830181905282826003811115610d7157fe5b6003811115610d7c57fe5b9052506000905081516003811115610d9057fe5b14610d9a57600080fd5b60808101516001600160a01b038416600081815260116020908152604091829020938455600a5460019094019390935560a0840151600b558284015181519283529282019290925281517f4792e4d6a0dabb47a2ac2b2fb3ab426c2e1a5e3cab374282d855ac6cb03a5712929181900390910190a1602001519392505050565b60095481565b6001600160a01b031660009081526001602052604090205490565b610e43611955565b6000546001600160a01b03908116911614610ea5576040805162461bcd60e51b815260206004820181905260248201527f4f776e61626c653a2063616c6c6572206973206e6f7420746865206f776e6572604482015290519081900360640190fd5b600080546040516001600160a01b03909116907f8be0079c531659141344cd1fd0a4f28419497f9722a3daafe3b4186f6b6457e0908390a3600080546001600160a01b0319169055565b6000610ef961121a565b50600b5490565b6001600160a01b0381166000908152601160205260408120805482918291829190610f325760009450505050506109a6565b610f428160000154600a54611e84565b90945092506000846003811115610f5557fe5b14610f675760009450505050506109a6565b610f75838260010154611ec3565b90945091506000846003811115610f8857fe5b14610f9a5760009450505050506109a6565b50949350505050565b600d5460ff1681565b600f5460408051638da5cb5b60e01b8152905133926001600160a01b031691638da5cb5b916004808301926020929190829003018186803b158015610ff057600080fd5b505afa158015611004573d6000803e3d6000fd5b505050506040513d602081101561101a57600080fd5b50516001600160a01b03161461102f57600080fd5b601054600d546040805163f0defe9360e01b81526101009092046001600160a01b039081166004840152878116602484015286811660448401526064830186905260848301859052905192169163f0defe939160a48082019260009290919082900301818387803b1580156110a357600080fd5b505af11580156110b7573d6000803e3d6000fd5b5050505050505050565b6000546001600160a01b031690565b600c5481565b60058054604080516020601f60026000196101006001881615020190951694909404938401819004810282018101909252828152606093909290918301828280156107f45780601f106107c9576101008083540402835291602001916107f4565b600f546001600160a01b0316331461114e57600080fd5b6111588282611eee565b604080516001600160a01b03841681526020810183905281517fcc16f5dbb4873280815c1ee09dbd06736cffcc184412cf7a71a0fdb75d397ca5929181900390910190a15050565b670de0b6b3a764000081565b60006108136111b9611955565b846108ce8560405180606001604052806025815260200161244b60259139600260006111e3611955565b6001600160a01b03908116825260208083019390935260409182016000908120918d1681529252902054919063ffffffff611b9c16565b6000611224611fe4565b6009549091506000611234611ce8565b600b54600c54600a54929350909184861461146357600e54604080516315f2405360e01b815260048101879052602481018690526044810185905290516000926001600160a01b0316916315f24053916064808301926020929190829003018186803b1580156112a357600080fd5b505afa1580156112b7573d6000803e3d6000fd5b505050506040513d60208110156112cd57600080fd5b5051905065048c273950008111156112e457600080fd5b6000806112f18989611e61565b9092509050600082600381111561130457fe5b1461130e57600080fd5b611316612250565b60008060008061133460405180602001604052808a81525087611fe8565b9097509450600087600381111561134757fe5b1461135157600080fd5b61135b858c611c94565b9097509350600087600381111561136e57fe5b1461137857600080fd5b611382848c611e3b565b9097509250600087600381111561139557fe5b1461139f57600080fd5b6113ba6040518060200160405280600854815250858c612050565b909750915060008760038111156113cd57fe5b146113d757600080fd5b6113e2858a8b612050565b909750905060008760038111156113f557fe5b146113ff57600080fd5b60098e9055600a819055600b839055600c829055604080518f8152602081018390528082018590526060810184905290517fe3972ae250606e82c6683843383cb8a51755588d2f443af42e8cb5b1e085392d9181900360800190a150505050505050505b505050505050565b6000610813611478611955565b8484611a45565b600a5481565b600e546000906001600160a01b031663b81688166114a1611ce8565b600b54600c546008546040518563ffffffff1660e01b81526004018085815260200184815260200183815260200182815260200194505050505060206040518083038186803b1580156114f357600080fd5b505afa158015611507573d6000803e3d6000fd5b505050506040513d602081101561151d57600080fd5b5051905090565b600061152e61121a565b61153661157f565b5090565b60008060008061154985610e20565b9050600061155686610831565b90506000611562611524565b929791965091945092505050565b600f546001600160a01b031681565b600061158961084a565b61159657506007546107fc565b60006115a0611ce8565b905060006115ac612250565b60006115bd84600b54600c546120ac565b9350905060008160038111156115cf57fe5b146115d957600080fd5b6115ea836115e561084a565b6120ea565b9250905060008160038111156115fc57fe5b1461160657600080fd5b505192506107fc915050565b61161a61121a565b8061162457600080fd5b61162c612263565b611634611524565b60208201526116433383611eee565b61165f6040518060200160405280836020015181525083611c94565b604083018190528282600381111561167357fe5b600381111561167e57fe5b905250600090508151600381111561169257fe5b1461169c57600080fd5b80604001516116a9611ce8565b10156116b457600080fd5b600d54604082810151815163a9059cbb60e01b8152336004820152602481019190915290516101009092046001600160a01b03169163a9059cbb916044808201926020929091908290030181600087803b15801561171157600080fd5b505af1158015611725573d6000803e3d6000fd5b505050506040513d602081101561173b57600080fd5b50506040808201518151338152602081018590528083019190915290517ff3a670cd3af7d64b488926880889d08a8585a138ff455227af6737339a1ec2629181900360600190a15050565b6001600160a01b03918216600090815260026020908152604080832093909416825291909152205490565b60006117bb612250565b604051806020016040528061096b61157f565b65048c2739500081565b6117e0611955565b6000546001600160a01b03908116911614611842576040805162461bcd60e51b815260206004820181905260248201527f4f776e61626c653a2063616c6c6572206973206e6f7420746865206f776e6572604482015290519081900360640190fd5b6001600160a01b0381166118875760405162461bcd60e51b815260040180806020018281038252602681526020018061232b6026913960400191505060405180910390fd5b600080546040516001600160a01b03808516939216917f8be0079c531659141344cd1fd0a4f28419497f9722a3daafe3b4186f6b6457e091a3600080546001600160a01b0319166001600160a01b0392909216919091179055565b600e546001600160a01b031681565b600e546000906001600160a01b03166315f2405361190d611ce8565b600b54600c546040518463ffffffff1660e01b815260040180848152602001838152602001828152602001935050505060206040518083038186803b1580156114f357600080fd5b3390565b6001600160a01b03831661199e5760405162461bcd60e51b81526004018080602001828103825260248152602001806124276024913960400191505060405180910390fd5b6001600160a01b0382166119e35760405162461bcd60e51b81526004018080602001828103825260228152602001806123516022913960400191505060405180910390fd5b6001600160a01b03808416600081815260026020908152604080832094871680845294825291829020859055815185815291517f8c5be1e5ebec7d5bd14f71427d1e84f3dd0314c0f7b2291e5b200ac8c7c3b9259281900390910190a3505050565b6001600160a01b038316611a8a5760405162461bcd60e51b81526004018080602001828103825260258152602001806124026025913960400191505060405180910390fd5b6001600160a01b038216611acf5760405162461bcd60e51b81526004018080602001828103825260238152602001806122e66023913960400191505060405180910390fd5b611ada83838361219b565b611b1d81604051806060016040528060268152602001612373602691396001600160a01b038616600090815260016020526040902054919063ffffffff611b9c16565b6001600160a01b038085166000908152600160205260408082209390935590841681522054611b52908263ffffffff611c3316565b6001600160a01b0380841660008181526001602090815260409182902094909455805185815290519193928716926000805160206123c183398151915292918290030190a3505050565b60008184841115611c2b5760405162461bcd60e51b81526004018080602001828103825283818151815260200191508051906020019080838360005b83811015611bf0578181015183820152602001611bd8565b50505050905090810190601f168015611c1d5780820380516001836020036101000a031916815260200191505b509250505060405180910390fd5b505050900390565b600082820183811015611c8d576040805162461bcd60e51b815260206004820152601b60248201527f536166654d6174683a206164646974696f6e206f766572666c6f770000000000604482015290519081900360640190fd5b9392505050565b6000806000611ca1612250565b611cab8686611fe8565b90925090506000826003811115611cbe57fe5b14611ccf5750915060009050611ce1565b6000611cda826121a0565b9350935050505b9250929050565b600d54604080516370a0823160e01b8152306004820152905160009261010090046001600160a01b0316916370a08231916024808301926020929190829003018186803b1580156114f357600080fd5b6000806000611d45612250565b611cab86866121af565b6001600160a01b038216611daa576040805162461bcd60e51b815260206004820152601f60248201527f45524332303a206d696e7420746f20746865207a65726f206164647265737300604482015290519081900360640190fd5b611db66000838361219b565b600354611dc9908263ffffffff611c3316565b6003556001600160a01b038216600090815260016020526040902054611df5908263ffffffff611c3316565b6001600160a01b03831660008181526001602090815260408083209490945583518581529351929391926000805160206123c18339815191529281900390910190a35050565b600080838301848110611e5357600092509050611ce1565b506002915060009050611ce1565b600080838311611e78575060009050818303611ce1565b50600390506000611ce1565b60008083611e9757506000905080611ce1565b83830283858281611ea457fe5b0414611eb857506002915060009050611ce1565b600092509050611ce1565b60008082611ed75750600190506000611ce1565b6000838581611ee257fe5b04915091509250929050565b6001600160a01b038216611f335760405162461bcd60e51b81526004018080602001828103825260218152602001806123e16021913960400191505060405180910390fd5b611f3f8260008361219b565b611f8281604051806060016040528060228152602001612309602291396001600160a01b038516600090815260016020526040902054919063ffffffff611b9c16565b6001600160a01b038316600090815260016020526040902055600354611fae908263ffffffff61220e16565b6003556040805182815290516000916001600160a01b038516916000805160206123c18339815191529181900360200190a35050565b4390565b6000611ff2612250565b600080612003866000015186611e84565b9092509050600082600381111561201657fe5b1461203557506040805160208101909152600081529092509050611ce1565b60408051602081019091529081526000969095509350505050565b600080600061205d612250565b6120678787611fe8565b9092509050600082600381111561207a57fe5b1461208b57509150600090506120a4565b61209d612097826121a0565b86611e3b565b9350935050505b935093915050565b6000806000806120bc8787611e3b565b909250905060008260038111156120cf57fe5b146120e057509150600090506120a4565b61209d8186611e61565b60006120f4612250565b60008061210986670de0b6b3a7640000611e84565b9092509050600082600381111561211c57fe5b1461213b57506040805160208101909152600081529092509050611ce1565b6000806121488388611ec3565b9092509050600082600381111561215b57fe5b1461217e5781604051806020016040528060008152509550955050505050611ce1565b604080516020810190915290815260009890975095505050505050565b505050565b51670de0b6b3a7640000900490565b60006121b9612250565b6000806121ce670de0b6b3a764000087611e84565b909250905060008260038111156121e157fe5b1461220057506040805160208101909152600081529092509050611ce1565b611cda8186600001516120ea565b6000611c8d83836040518060400160405280601e81526020017f536166654d6174683a207375627472616374696f6e206f766572666c6f770000815250611b9c565b6040518060200160405280600081525090565b6040805160608101909152806000815260200160008152602001600081525090565b604080516080810190915280600081526020016000815260200160008152602001600081525090565b6040805160c0810190915280600081526020016000815260200160008152602001600081526020016000815260200160008152509056fe45524332303a207472616e7366657220746f20746865207a65726f206164647265737345524332303a206275726e20616d6f756e7420657863656564732062616c616e63654f776e61626c653a206e6577206f776e657220697320746865207a65726f206164647265737345524332303a20617070726f766520746f20746865207a65726f206164647265737345524332303a207472616e7366657220616d6f756e7420657863656564732062616c616e636545524332303a207472616e7366657220616d6f756e74206578636565647320616c6c6f77616e6365ddf252ad1be2c89b69c2b068fc378daa952ba7f163c4a11628f55a4df523b3ef45524332303a206275726e2066726f6d20746865207a65726f206164647265737345524332303a207472616e736665722066726f6d20746865207a65726f206164647265737345524332303a20617070726f76652066726f6d20746865207a65726f206164647265737345524332303a2064656372656173656420616c6c6f77616e63652062656c6f77207a65726fa2646970667358221220b71f6610fcf257cd6167174b6dc0ee4119f03f9b2a7801ab72ea3fe1648524d864736f6c634300060600334f776e61626c653a206e6577206f776e657220697320746865207a65726f2061646472657373536166654d6174683a206d756c7469706c69636174696f6e206f766572666c6f774f776e61626c653a2063616c6c6572206973206e6f7420746865206f776e65722a6c148cdc9347a81dfbfe504afb64ea0aeca1114171ef18a3e11cb1fda8b3a6a26469706673582212200eac3d3d5ee1a6b011f79508fbfbab6b7b33582e4c58ad3f05892ff2a1a3733964736f6c63430006060033",
  "immutableReferences": {},
  "source": "pragma solidity ^0.6.0;\n\nimport \"@openzeppelin/contracts/access/Ownable.sol\";\nimport \"@openzeppelin/contracts/math/SafeMath.sol\";\nimport \"@openzeppelin/contracts/token/ERC20/IERC20.sol\";\nimport \"./compound/Exponential.sol\";\nimport \"./interfaces/UniswapOracleFactoryI.sol\";\nimport \"./interfaces/MoneyMarketFactoryI.sol\";\nimport \"./AskoRiskToken.sol\";\n////////////////////////////////////////////////////////////////////////////////////////////\n/// @title MoneyMarketInstance\n/// @author Christopher Dixon\n////////////////////////////////////////////////////////////////////////////////////////////\n/**\nThe MoneyMarketInstance contract is designed facilitate a tiered money market for an individual ERC20 asset\nThis contract uses the OpenZeppelin contract Library to inherit functions from\n  Ownable.sol && IRC20.sol\n**/\ncontract MoneyMarketInstance is Ownable, Exponential {\n    using SafeMath for uint256;\n\n  uint public feePercent;\n  uint public divisor;\n  uint public fee_AHR;\n  uint public fee_ALR;\n\n\n\n  string public assetName;\n  string public assetSymbol;\n\n\n  IERC20 public asset;\n  AskoRiskToken public AHR;\n  AskoRiskToken public ALR;\n  MoneyMarketFactoryI public MMF;\n  UniswapOracleFactoryI public UOF;\n\n/**\n@notice onlyMMFactory is a modifier used to make a function only callable by the Money Market Factory contract\n**/\n  modifier onlyMMFactory()  {\n    require(msg.sender == address(MMF));\n    _;\n  }\n\n  event LentToAHR(address lender, uint amount);\n  event LentToALR(address lender, uint amount);\n  event Borrow(address borrower, uint AHRamount, uint ALRamount);\n  event Repayed(address borrower, uint AHRamount,uint ALRamount);\n  event Collateralized(address collateralizer, uint amount);\n\n/**\n@notice the constructor function is fired during the contract deployment process. The constructor can only be fired once and\n        is used to initialize the MoneyMakerInstance and deploy its associated AHR && ALR token contracts\n@param _assetContractAdd is the address of the ERC20 asset being whitelisted\n@param _assetName is the name of the asset(e.x: ChainLink)\n@param _assetSymbol is the symbol of the asset(e.x: LINK)\n@dev this function uses ABI encoding to properly concatenate AHR- && ALR- in front of the tokens name and symbol\n      before creating each token.\n**/\n  constructor (\n    address _assetContractAdd,\n    address _oracleFactory,\n    address _owner,\n\t\tstring memory _assetName,\n\t\tstring memory _assetSymbol\n  )\n  public\n  {\n  divisor = 10000;\n  assetName = _assetName;\n  assetSymbol = _assetSymbol;\n  UOF = UniswapOracleFactoryI(_oracleFactory);\n  MMF = MoneyMarketFactoryI(_owner);\n  asset = IERC20(_assetContractAdd);\n  }\n\n/**\n@notice setUp is called by the MoneyMarketFactory after a contract is created to set up the initial variables.\n        This is split from the constructor function to keep from reaching the gas block limit\n@param  _InterestRateModel is the address of this MoneyMarketInstances InterestRateModel\n@param _fee is a number representing the fee for exchanging an AHR token, as a mantissa (scaled by 1e18)\n@dev this function will create a token whos name and symbol is concatenated with a \"AHR-\" in front of it\n      example: AHR-LINK\n@dev asset.approve() is called to allow the AHR contract to freeely transfer the assset from this contract when the mint\n      lendToAHRpool function is called.\n**/\nfunction _setUpAHR(\n    address _InterestRateModel,\n    uint _fee,\n    uint _initialExchangeRate\n  )\n  public\n  onlyMMFactory\n  {\n  fee_AHR = _fee;\n  bytes memory ahrname = abi.encodePacked(\"AHR-\");\n  ahrname = abi.encodePacked(ahrname, assetName);\n//abi encode and concat strings\n  bytes memory ahrsymbol = abi.encodePacked(\"AHR-\");\n  ahrsymbol = abi.encodePacked(ahrsymbol, assetSymbol);\n//abi encode and concat strings\n  string memory assetNameAHR = string(ahrname);\n  string memory assetSymbolAHR = string(ahrsymbol);\n//un-encode concated string\n  AHR = new AskoRiskToken(//creates new Asko High Risk Token Contract\n    _InterestRateModel,\n    address(asset),\n    address(UOF),\n    assetNameAHR,\n    assetSymbolAHR,\n    false,\n    _initialExchangeRate\n  );\n  }\n\n/**\n@notice setUp is called by the MoneyMarketFactory after a contract is created to set up the initial variables.\n        This is split from the constructor function to keep from reaching the gas block limit\n@param  _InterestRateModel is the address of this MoneyMarketInstances InterestRateModel\n@param _fee is a number representing the fee for exchanging an ALR token, as a mantissa (scaled by 1e18)\n@dev this function will create a token whos name and symbol is concatenated with a \"ALR-\" in front of it\n      example: ALR-LINK\n@dev asset.approve() is called to allow the ALR contract to freeely transfer the assset from this contract when the mint\n      lendToALRpool function is called.\n**/\n  function _setUpALR(\n      address _InterestRateModel,\n      uint256 _fee,\n      uint _initialExchangeRate\n    )\n    public\n    onlyMMFactory\n    {\n    fee_ALR = _fee;\n    bytes memory alrname = abi.encodePacked(\"AlR-\");\n    alrname = abi.encodePacked(alrname, assetName);\n//abi encode and concat strings\n    bytes memory alrsymbol = abi.encodePacked(\"AlR-\");\n    alrsymbol = abi.encodePacked(alrsymbol, assetSymbol);\n//abi encode and concat strings\n    string memory assetNameALR = string(alrname);\n    string memory assetSymbolALR = string(alrsymbol);\n//un-encode concated string\n    ALR = new AskoRiskToken(//creates new Asko Low Risk Token Contract\n      _InterestRateModel,\n      address(asset),\n      address(UOF),\n      assetNameALR,\n      assetSymbolALR,\n      true,\n      _initialExchangeRate\n    );\n    }\n\n\n/**\n@notice getAssetAdd allows for easy retrieval of a Money Markets underlying asset's address\n**/\n  function getAssetAdd() public view returns (address) {\n    return address(asset);\n  }\n\n  /**\n  @notice setFee allows the owner of this contract to set the fee\n  @param  _fee is the input number representing the fee\n  @dev the divisor is set to 10,000 in the constructor for this contract. this allows for\n        a fee percentage accounting for two decimal places. feePercent must account for this when being set.\n        The following examples show feePercent amounts and how they equate to percentages:\n                EX:\n                    a 1% fee would be set as feePercent = 100\n                    a .5% fee would be set as feePercent = 50\n                    a 50% fee would be set as feePercent = 5000\n  **/\n    function setFeeAHR(uint _fee) public onlyOwner {\n        fee_AHR = _fee;\n    }\n\n  /**\n  @notice setFee allows the owner of this contract to set the fee\n  @param  _fee is the input number representing the fee\n  @dev the divisor is set to 10,000 in the constructor for this contract. this allows for\n        a fee percentage accounting for two decimal places. feePercent must account for this when being set.\n        The following examples show feePercent amounts and how they equate to percentages:\n                EX:\n                    a 1% fee would be set as feePercent = 100\n                    a .5% fee would be set as feePercent = 50\n                    a 50% fee would be set as feePercent = 5000\n  **/\n    function setFeeALR(uint _fee) public onlyOwner {\n        fee_ALR = _fee;\n    }\n\n\n  /**\n  @notice calculateFee is used to calculate the fee earned\n  @param _payedAmount is a uint representing the full amount of an ERC20 asset payed\n  @dev the divisor is set to 10,000 in the constructor for this contract. this allows for\n        a fee percentage accounting for two decimal places. feePercent must account for this when being set.\n        The following examples show feePercent amounts and how they equate to percentages:\n                EX:\n                    a 1% fee would be set as feePercent = 100\n                    a .5% fee would be set as feePercent = 50\n                    a 50% fee would be set as feePercent = 5000\n  **/\n  function calculateFee(uint256 _payedAmount, uint _feePercent) public view returns(uint) {\n    uint256 fee = _payedAmount.mul(_feePercent).div(divisor);\n    return fee;\n  }\n\n/**\n@notice lendToAHRpool is used to lend assets to a MoneyMarketInstance's High Risk pool\n@param _amount is the amount of the asset being lent\n@dev the user will need to first approve the transfer of the underlying asset\n**/\n  function lendToAHRpool(uint _amount) public {\n    uint fees = calculateFee(_amount, fee_AHR);\n    uint remaining = _amount.sub(fees);\n    //transfer appropriate amount off the asset from msg.sender to the AHR contract\n    asset.transferFrom(msg.sender, address(AHR), _amount);\n    //call mint function on AHR contract\n    AHR.mint(msg.sender, remaining);\n    emit LentToAHR(msg.sender, _amount);\n  }\n\n/**\n@notice lendToAHRpool is used to lend assets to a MoneyMarketInstance's Low Risk pool\n@param _amount is the amount of the asset being lent\n@dev the user will need to first approve the transfer of the underlying asset\n**/\n    function lendToALRpool(uint _amount) public {\n      uint fees = calculateFee(_amount, fee_ALR);\n      uint remaining = _amount.sub(fees);\n      //transfer appropriate amount off the asset from msg.sender to the AHR contract\n      asset.transferFrom(msg.sender, address(ALR), _amount);\n      //call mint function on ALR contract\n      ALR.mint(msg.sender, remaining);\n      emit LentToALR(msg.sender, _amount);\n    }\n\n\n/**\n@notice borrow is used to take out a loan from in MoneyMarketInstance's underlying asset\n@param _amount is the amount of asset being barrowed\n@param _collateral is the address of the ALR token being used as collateral\n**/\n  function borrow(uint _amount, address _collateral) public {\n    //check that the user has enough collateral in input moeny market\n    uint collateralValue = MMF.checkCollateralValue(msg.sender, _collateral);\n    //get current borrow balances for each ART\n    uint borrowBalAHR = AHR.borrowBalanceCurrent(msg.sender);\n    uint borrowBalALR = ALR.borrowBalanceCurrent(msg.sender);\n    //calculate the new amount that would be owed if borrow suceeds\n    uint totalFutureAmountOwed = borrowBalAHR.add(borrowBalALR.add(_amount));\n    //check current asset price\n    uint priceOfAsset = UOF.getUnderlyingPrice(address(asset));\n    //get the usd price value of _amount\n    uint assetAmountValOwed = priceOfAsset.mul(totalFutureAmountOwed);\n    //divide amount value by 3\n    uint halfVal = assetAmountValOwed.div(2);\n    //add 1/2 value to asset value to get 150% asset value\n    uint collateralNeeded = assetAmountValOwed.add(halfVal);\n    //require collateral value to be greater than 150% of the amount value of loan\n    require(collateralValue >= collateralNeeded);\n    //cut amount of tokens in half\n    uint half = _amount.div(2);\n    //borrow half from each pool\n    AHR.borrow(half, msg.sender);\n    ALR.borrow(half, msg.sender);\n    emit Borrow(msg.sender, half, half);\n  }\n\n/**\n@notice repay is used to repay a loan\n@param _repayAmount is the amount of the underlying asset being repayed\n**/\n\tfunction repay(uint _repayAmount) public {\n\n    uint fees = calculateFee(_repayAmount, fee_ALR);\n    uint remaining = _repayAmount.add(fees);\n    //get their current owed balance of ALR\n    uint accountBorrowsALR = ALR.borrowBalanceCurrent(msg.sender);\n    uint payAmountAHR;\n    uint payAmountALR;\n    if(accountBorrowsALR != 0) { //if amount owed to ALR isnt zero\n          if(accountBorrowsALR >= remaining) { //check if repay amount is greater than ALR borrow balance\n            payAmountALR = ALR.repayBorrow(remaining, msg.sender); //if it is repay amount to ALR\n            //transfer asset from the user to this contract\n            asset.transferFrom(msg.sender, address(ALR), payAmountALR);\n            emit Repayed(msg.sender, 0, _repayAmount);\n          } else { //if not\n            uint amountToALR = remaining.sub(accountBorrowsALR); //calculate amount needed to pay off ALR\n            payAmountALR = ALR.repayBorrow(amountToALR, msg.sender); //pay off ALR\n             //transfer asset from the user to this contract\n            asset.transferFrom(msg.sender, address(ALR), payAmountALR);\n            uint amountToAHR = remaining.sub(amountToALR);//calculate AHR amount\n            payAmountAHR = AHR.repayBorrow(amountToAHR, msg.sender); //pay off towards AHR\n          //transfer asset from the user to this contract\n            asset.transferFrom(msg.sender, address(AHR), payAmountAHR);\n            emit Repayed(msg.sender, payAmountAHR, payAmountALR);\n          }\n    } else {//if amount owed to ALR IS zero\n      payAmountAHR = AHR.repayBorrow(remaining, msg.sender);//pay towards AHR\n      //transfer asset from the user to this contract\n      asset.transferFrom(msg.sender, address(AHR), payAmountAHR);\n      emit Repayed(msg.sender, payAmountAHR, 0);\n  }\n}\n\n\n\n/**\n@notice collateralizeALR allows a user to collateralize the ALR they hold in a specific money market\n@param _amount is the amount of ALR being collateralized\n**/\n   function collateralizeALR(uint _amount) public {\n     ALR.burn(msg.sender, _amount);\n     MMF.trackCollateral(msg.sender, address(ALR), _amount);\n     emit Collateralized(msg.sender, _amount);\n   }\n\n\n\n}\n",
  "sourcePath": "/home/stan36/repos/Askolend/AskoLend-contracts/contracts/MoneyMarketInstance.sol",
  "compiler": {
    "name": "solc",
    "version": "0.6.6+commit.6c089d02.Emscripten.clang"
  },
  "schemaVersion": "3.2.5",
  "updatedAt": "2020-10-22T19:48:09.961Z",
  "devdoc": {
    "methods": {
      "_setUpAHR(address,uint256,uint256)": {
        "details": "this function will create a token whos name and symbol is concatenated with a \"AHR-\" in front of it example: AHR-LINKasset.approve() is called to allow the AHR contract to freeely transfer the assset from this contract when the mint lendToAHRpool function is called.*",
        "params": {
          "_InterestRateModel": "is the address of this MoneyMarketInstances InterestRateModel",
          "_fee": "is a number representing the fee for exchanging an AHR token, as a mantissa (scaled by 1e18)"
        }
      },
      "_setUpALR(address,uint256,uint256)": {
        "details": "this function will create a token whos name and symbol is concatenated with a \"ALR-\" in front of it example: ALR-LINKasset.approve() is called to allow the ALR contract to freeely transfer the assset from this contract when the mint lendToALRpool function is called.*",
        "params": {
          "_InterestRateModel": "is the address of this MoneyMarketInstances InterestRateModel",
          "_fee": "is a number representing the fee for exchanging an ALR token, as a mantissa (scaled by 1e18)"
        }
      },
      "borrow(uint256,address)": {
        "params": {
          "_amount": "is the amount of asset being barrowed",
          "_collateral": "is the address of the ALR token being used as collateral*"
        }
      },
      "calculateFee(uint256,uint256)": {
        "details": "the divisor is set to 10,000 in the constructor for this contract. this allows for a fee percentage accounting for two decimal places. feePercent must account for this when being set. The following examples show feePercent amounts and how they equate to percentages: EX: a 1% fee would be set as feePercent = 100 a .5% fee would be set as feePercent = 50 a 50% fee would be set as feePercent = 5000*",
        "params": {
          "_payedAmount": "is a uint representing the full amount of an ERC20 asset payed"
        }
      },
      "collateralizeALR(uint256)": {
        "params": {
          "_amount": "is the amount of ALR being collateralized*"
        }
      },
      "constructor": {
        "details": "this function uses ABI encoding to properly concatenate AHR- && ALR- in front of the tokens name and symbol before creating each token.*",
        "params": {
          "_assetContractAdd": "is the address of the ERC20 asset being whitelisted",
          "_assetName": "is the name of the asset(e.x: ChainLink)",
          "_assetSymbol": "is the symbol of the asset(e.x: LINK)"
        }
      },
      "lendToAHRpool(uint256)": {
        "details": "the user will need to first approve the transfer of the underlying asset*",
        "params": {
          "_amount": "is the amount of the asset being lent"
        }
      },
      "lendToALRpool(uint256)": {
        "details": "the user will need to first approve the transfer of the underlying asset*",
        "params": {
          "_amount": "is the amount of the asset being lent"
        }
      },
      "owner()": {
        "details": "Returns the address of the current owner."
      },
      "renounceOwnership()": {
        "details": "Leaves the contract without owner. It will not be possible to call `onlyOwner` functions anymore. Can only be called by the current owner.     * NOTE: Renouncing ownership will leave the contract without an owner, thereby removing any functionality that is only available to the owner."
      },
      "repay(uint256)": {
        "params": {
          "_repayAmount": "is the amount of the underlying asset being repayed*"
        }
      },
      "setFeeAHR(uint256)": {
        "details": "the divisor is set to 10,000 in the constructor for this contract. this allows for a fee percentage accounting for two decimal places. feePercent must account for this when being set. The following examples show feePercent amounts and how they equate to percentages: EX: a 1% fee would be set as feePercent = 100 a .5% fee would be set as feePercent = 50 a 50% fee would be set as feePercent = 5000*",
        "params": {
          "_fee": "is the input number representing the fee"
        }
      },
      "setFeeALR(uint256)": {
        "details": "the divisor is set to 10,000 in the constructor for this contract. this allows for a fee percentage accounting for two decimal places. feePercent must account for this when being set. The following examples show feePercent amounts and how they equate to percentages: EX: a 1% fee would be set as feePercent = 100 a .5% fee would be set as feePercent = 50 a 50% fee would be set as feePercent = 5000*",
        "params": {
          "_fee": "is the input number representing the fee"
        }
      },
      "transferOwnership(address)": {
        "details": "Transfers ownership of the contract to a new account (`newOwner`). Can only be called by the current owner."
      }
    }
  },
  "userdoc": {
    "methods": {
      "_setUpAHR(address,uint256,uint256)": {
        "notice": "setUp is called by the MoneyMarketFactory after a contract is created to set up the initial variables. This is split from the constructor function to keep from reaching the gas block limit"
      },
      "_setUpALR(address,uint256,uint256)": {
        "notice": "setUp is called by the MoneyMarketFactory after a contract is created to set up the initial variables. This is split from the constructor function to keep from reaching the gas block limit"
      },
      "borrow(uint256,address)": {
        "notice": "borrow is used to take out a loan from in MoneyMarketInstance's underlying asset"
      },
      "calculateFee(uint256,uint256)": {
        "notice": "calculateFee is used to calculate the fee earned"
      },
      "collateralizeALR(uint256)": {
        "notice": "collateralizeALR allows a user to collateralize the ALR they hold in a specific money market"
      },
      "constructor": "the constructor function is fired during the contract deployment process. The constructor can only be fired once and is used to initialize the MoneyMakerInstance and deploy its associated AHR && ALR token contracts",
      "getAssetAdd()": {
        "notice": "getAssetAdd allows for easy retrieval of a Money Markets underlying asset's address*"
      },
      "lendToAHRpool(uint256)": {
        "notice": "lendToAHRpool is used to lend assets to a MoneyMarketInstance's High Risk pool"
      },
      "lendToALRpool(uint256)": {
        "notice": "lendToAHRpool is used to lend assets to a MoneyMarketInstance's Low Risk pool"
      },
      "repay(uint256)": {
        "notice": "repay is used to repay a loan"
      },
      "setFeeAHR(uint256)": {
        "notice": "setFee allows the owner of this contract to set the fee"
      },
      "setFeeALR(uint256)": {
        "notice": "setFee allows the owner of this contract to set the fee"
      }
    },
    "notice": "The MoneyMarketInstance contract is designed facilitate a tiered money market for an individual ERC20 asset This contract uses the OpenZeppelin contract Library to inherit functions from Ownable.sol && IRC20.sol*"
  }
}