{
  "contractName": "MoneyMarketControl",
  "abi": [
    {
      "inputs": [
        {
          "internalType": "address",
          "name": "_oracle",
          "type": "address"
        },
        {
          "internalType": "address",
          "name": "_MMF",
          "type": "address"
        }
      ],
      "stateMutability": "nonpayable",
      "type": "constructor"
    },
    {
      "anonymous": false,
      "inputs": [
        {
          "indexed": true,
          "internalType": "address",
          "name": "previousOwner",
          "type": "address"
        },
        {
          "indexed": true,
          "internalType": "address",
          "name": "newOwner",
          "type": "address"
        }
      ],
      "name": "OwnershipTransferred",
      "type": "event"
    },
    {
      "inputs": [],
      "name": "MMF",
      "outputs": [
        {
          "internalType": "contract MoneyMarketFactoryI",
          "name": "",
          "type": "address"
        }
      ],
      "stateMutability": "view",
      "type": "function"
    },
    {
      "inputs": [],
      "name": "Oracle",
      "outputs": [
        {
          "internalType": "contract UniswapOracleFactoryI",
          "name": "",
          "type": "address"
        }
      ],
      "stateMutability": "view",
      "type": "function"
    },
    {
      "inputs": [
        {
          "internalType": "address",
          "name": "",
          "type": "address"
        }
      ],
      "name": "_ALRtracker",
      "outputs": [
        {
          "internalType": "address",
          "name": "",
          "type": "address"
        }
      ],
      "stateMutability": "view",
      "type": "function"
    },
    {
      "inputs": [],
      "name": "instanceCount",
      "outputs": [
        {
          "internalType": "uint256",
          "name": "",
          "type": "uint256"
        }
      ],
      "stateMutability": "view",
      "type": "function"
    },
    {
      "inputs": [
        {
          "internalType": "address",
          "name": "",
          "type": "address"
        }
      ],
      "name": "instanceTracker",
      "outputs": [
        {
          "internalType": "address",
          "name": "",
          "type": "address"
        }
      ],
      "stateMutability": "view",
      "type": "function"
    },
    {
      "inputs": [
        {
          "internalType": "address",
          "name": "",
          "type": "address"
        }
      ],
      "name": "oracleTracker",
      "outputs": [
        {
          "internalType": "address",
          "name": "",
          "type": "address"
        }
      ],
      "stateMutability": "view",
      "type": "function"
    },
    {
      "inputs": [],
      "name": "owner",
      "outputs": [
        {
          "internalType": "address",
          "name": "",
          "type": "address"
        }
      ],
      "stateMutability": "view",
      "type": "function"
    },
    {
      "inputs": [],
      "name": "renounceOwnership",
      "outputs": [],
      "stateMutability": "nonpayable",
      "type": "function"
    },
    {
      "inputs": [
        {
          "internalType": "address",
          "name": "newOwner",
          "type": "address"
        }
      ],
      "name": "transferOwnership",
      "outputs": [],
      "stateMutability": "nonpayable",
      "type": "function"
    },
    {
      "inputs": [
        {
          "internalType": "address",
          "name": "_assetContractAdd",
          "type": "address"
        },
        {
          "internalType": "string",
          "name": "_assetName",
          "type": "string"
        },
        {
          "internalType": "string",
          "name": "_assetSymbol",
          "type": "string"
        }
      ],
      "name": "whitelistAsset",
      "outputs": [],
      "stateMutability": "nonpayable",
      "type": "function"
    },
    {
      "inputs": [
        {
          "internalType": "uint256",
          "name": "_baseRatePerYear",
          "type": "uint256"
        },
        {
          "internalType": "uint256",
          "name": "_multiplierPerYear",
          "type": "uint256"
        },
        {
          "internalType": "uint256",
          "name": "_jumpMultiplierPerYear",
          "type": "uint256"
        },
        {
          "internalType": "uint256",
          "name": "_optimal",
          "type": "uint256"
        },
        {
          "internalType": "uint256",
          "name": "_fee",
          "type": "uint256"
        },
        {
          "internalType": "uint256",
          "name": "_initialExchangeRate",
          "type": "uint256"
        },
        {
          "internalType": "address",
          "name": "_assetContractAdd",
          "type": "address"
        }
      ],
      "name": "setUpAHR",
      "outputs": [],
      "stateMutability": "nonpayable",
      "type": "function"
    },
    {
      "inputs": [
        {
          "internalType": "uint256",
          "name": "_baseRatePerYear",
          "type": "uint256"
        },
        {
          "internalType": "uint256",
          "name": "_multiplierPerYear",
          "type": "uint256"
        },
        {
          "internalType": "uint256",
          "name": "_jumpMultiplierPerYear",
          "type": "uint256"
        },
        {
          "internalType": "uint256",
          "name": "_optimal",
          "type": "uint256"
        },
        {
          "internalType": "uint256",
          "name": "_fee",
          "type": "uint256"
        },
        {
          "internalType": "uint256",
          "name": "_initialExchangeRate",
          "type": "uint256"
        },
        {
          "internalType": "address",
          "name": "_assetContractAdd",
          "type": "address"
        }
      ],
      "name": "setUpALR",
      "outputs": [],
      "stateMutability": "nonpayable",
      "type": "function"
    }
  ],
  "bytecode": "0x608060405234801561001057600080fd5b506040516116cd3803806116cd8339818101604052604081101561003357600080fd5b508051602090910151600061004f6001600160e01b036100ca16565b600080546001600160a01b0319166001600160a01b0383169081178255604051929350917f8be0079c531659141344cd1fd0a4f28419497f9722a3daafe3b4186f6b6457e0908290a350600280546001600160a01b039384166001600160a01b031991821617909155600380549290931691161790556100ce565b3390565b6115f0806100dd6000396000f3fe60806040523480156200001157600080fd5b5060043610620000b25760003560e01c80630ba7345d14620000b75780633373a44714620001fb5780633ca0037b1462000240578063715018a614620002695780637ab2d44714620002735780638da5cb5b14620002c05780639020084914620002ca578063d162054a1462000317578063eb8341b31462000321578063ec56c716146200034a578063f24a534e1462000366578063f2fde38b1462000370575b600080fd5b620001f960048036036060811015620000cf57600080fd5b6001600160a01b038235169190810190604081016020820135600160201b811115620000fa57600080fd5b8201836020820111156200010d57600080fd5b803590602001918460018302840111600160201b831117156200012f57600080fd5b91908080601f0160208091040260200160405190810160405280939291908181526020018383808284376000920191909152509295949360208101935035915050600160201b8111156200018257600080fd5b8201836020820111156200019557600080fd5b803590602001918460018302840111600160201b83111715620001b757600080fd5b91908080601f01602080910402602001604051908101604052809392919081815260200183838082843760009201919091525092955062000399945050505050565b005b62000224600480360360208110156200021357600080fd5b50356001600160a01b031662000724565b604080516001600160a01b039092168252519081900360200190f35b62000224600480360360208110156200025857600080fd5b50356001600160a01b03166200073f565b620001f96200075a565b620001f9600480360360e08110156200028b57600080fd5b5080359060208101359060408101359060608101359060808101359060a08101359060c001356001600160a01b0316620007ef565b62000224620008fc565b620001f9600480360360e0811015620002e257600080fd5b5080359060208101359060408101359060608101359060808101359060a08101359060c001356001600160a01b03166200090b565b62000224620009f4565b62000224600480360360208110156200033957600080fd5b50356001600160a01b031662000a03565b6200035462000a1e565b60408051918252519081900360200190f35b6200022462000a24565b620001f9600480360360208110156200038857600080fd5b50356001600160a01b031662000a33565b620003a362000b20565b6000546001600160a01b03908116911614620003f5576040805162461bcd60e51b815260206004820181905260248201526000805160206200157b833981519152604482015290519081900360640190fd5b600180548101905560025460408051632fb2da6160e01b81526001600160a01b03868116600483015291516000939290921691632fb2da619160248082019260209290919082900301818787803b1580156200045057600080fd5b505af115801562000465573d6000803e3d6000fd5b505050506040513d60208110156200047c57600080fd5b810190808051906020019092919050505090506000600360009054906101000a90046001600160a01b03166001600160a01b031663cc83954d863385600260009054906101000a90046001600160a01b031689896040518763ffffffff1660e01b815260040180876001600160a01b03166001600160a01b03168152602001866001600160a01b03166001600160a01b03168152602001856001600160a01b03166001600160a01b03168152602001846001600160a01b03166001600160a01b031681526020018060200180602001838103835285818151815260200191508051906020019080838360005b838110156200058257818101518382015260200162000568565b50505050905090810190601f168015620005b05780820380516001836020036101000a031916815260200191505b50838103825284518152845160209182019186019080838360005b83811015620005e5578181015183820152602001620005cb565b50505050905090810190601f168015620006135780820380516001836020036101000a031916815260200191505b5098505050505050505050602060405180830381600087803b1580156200063957600080fd5b505af11580156200064e573d6000803e3d6000fd5b505050506040513d60208110156200066557600080fd5b505160025460408051631be1d0b960e01b81526001600160a01b03808516600483015289811660248301529151939450911691631be1d0b99160448082019260009290919082900301818387803b158015620006c057600080fd5b505af1158015620006d5573d6000803e3d6000fd5b505050506001600160a01b03948516600090815260046020908152604080832080549489166001600160a01b031995861681179091558352600690915290208054929095169116179092555050565b6004602052600090815260409020546001600160a01b031681565b6005602052600090815260409020546001600160a01b031681565b6200076462000b20565b6000546001600160a01b03908116911614620007b6576040805162461bcd60e51b815260206004820181905260248201526000805160206200157b833981519152604482015290519081900360640190fd5b600080546040516001600160a01b03909116906000805160206200159b833981519152908390a3600080546001600160a01b0319169055565b6001600160a01b0380821660009081526004602052604080822054905192169189908990899089908690620008249062000b24565b948552602085019390935260408085019290925260608401526001600160a01b039091166080830152519081900360a001906000f0801580156200086c573d6000803e3d6000fd5b509050816001600160a01b031663dcc716bd8287876040518463ffffffff1660e01b815260040180846001600160a01b03166001600160a01b031681526020018381526020018281526020019350505050600060405180830381600087803b158015620008d857600080fd5b505af1158015620008ed573d6000803e3d6000fd5b50505050505050505050505050565b6000546001600160a01b031690565b6001600160a01b0380821660009081526004602052604080822054905192169189908990899089908690620009409062000b24565b948552602085019390935260408085019290925260608401526001600160a01b039091166080830152519081900360a001906000f08015801562000988573d6000803e3d6000fd5b509050816001600160a01b0316631f432cf58287876040518463ffffffff1660e01b815260040180846001600160a01b03166001600160a01b031681526020018381526020018281526020019350505050600060405180830381600087803b158015620008d857600080fd5b6003546001600160a01b031681565b6006602052600090815260409020546001600160a01b031681565b60015481565b6002546001600160a01b031681565b62000a3d62000b20565b6000546001600160a01b0390811691161462000a8f576040805162461bcd60e51b815260206004820181905260248201526000805160206200157b833981519152604482015290519081900360640190fd5b6001600160a01b03811662000ad65760405162461bcd60e51b8152600401808060200182810382526026815260200180620015556026913960400191505060405180910390fd5b600080546040516001600160a01b03808516939216916000805160206200159b83398151915291a3600080546001600160a01b0319166001600160a01b0392909216919091179055565b3390565b610a228062000b338339019056fe608060405234801561001057600080fd5b50604051610a22380380610a22833981810160405260a081101561003357600080fd5b508051602082015160408301516060840151608090940151600080546001600160a01b0319166001600160a01b03831617905592939192909190848484848461007e8585858561008d565b505050505050505050506102bc565b6100a7622014808561017060201b61057e1790919060201c565b6002556100f66100c562201480836101c1602090811b61052517901c565b6100e4670de0b6b3a7640000866101c160201b6105251790919060201c565b61017060201b61057e1790919060201c565b6001556101118262201480610170602090811b61057e17901c565b60038190556004829055600254600154604080519283526020830191909152818101929092526060810183905290517f6960ab234c7ef4b0c9197100f5393cfcde7c453ac910a27bd2000aa1dd4c068d9181900360800190a150505050565b60006101b883836040518060400160405280601a81526020017f536166654d6174683a206469766973696f6e206279207a65726f00000000000081525061021a60201b60201c565b90505b92915050565b6000826101d0575060006101bb565b828202828482816101dd57fe5b04146101b85760405162461bcd60e51b8152600401808060200182810382526021815260200180610a016021913960400191505060405180910390fd5b600081836102a65760405162461bcd60e51b81526004018080602001828103825283818151815260200191508051906020019080838360005b8381101561026b578181015183820152602001610253565b50505050905090810190601f1680156102985780820380516001836020036101000a031916815260200191505b509250505060405180910390fd5b5060008385816102b257fe5b0495945050505050565b610736806102cb6000396000f3fe608060405234801561001057600080fd5b506004361061008e5760003560e01c806315f24053146100935780632037f3e7146100ce5780636e71e2d8146100ff5780638726bb89146101285780638da5cb5b14610130578063a385fb9614610154578063b81688161461015c578063b9f9850a1461018b578063f14039de14610193578063fd2da3391461019b575b600080fd5b6100bc600480360360608110156100a957600080fd5b50803590602081013590604001356101a3565b60408051918252519081900360200190f35b6100fd600480360360808110156100e457600080fd5b50803590602081013590604081013590606001356101ba565b005b6100bc6004803603606081101561011557600080fd5b5080359060208101359060400135610215565b6100bc61026b565b610138610271565b604080516001600160a01b039092168252519081900360200190f35b6100bc610280565b6100bc6004803603608081101561017257600080fd5b5080359060208101359060408101359060600135610287565b6100bc610306565b6100bc61030c565b6100bc610312565b60006101b0848484610318565b90505b9392505050565b6000546001600160a01b031633146102035760405162461bcd60e51b81526004018080602001828103825260268152602001806106db6026913960400191505060405180910390fd5b61020f848484846103e1565b50505050565b600082610224575060006101b3565b6101b06102478361023b878763ffffffff61048216565b9063ffffffff6104e316565b61025f85670de0b6b3a764000063ffffffff61052516565b9063ffffffff61057e16565b60015481565b6000546001600160a01b031681565b6220148081565b6000806102a2670de0b6b3a76400008463ffffffff6104e316565b905060006102b1878787610318565b905060006102d1670de0b6b3a764000061025f848663ffffffff61052516565b90506102fa670de0b6b3a764000061025f836102ee8c8c8c610215565b9063ffffffff61052516565b98975050505050505050565b60035481565b60025481565b60045481565b600080610326858585610215565b9050600454811161036c57610364600254610358670de0b6b3a764000061025f6001548661052590919063ffffffff16565b9063ffffffff61048216565b9150506101b3565b6000610397600254610358670de0b6b3a764000061025f60015460045461052590919063ffffffff16565b905060006103b0600454846104e390919063ffffffff16565b90506103d782610358670de0b6b3a764000061025f6003548661052590919063ffffffff16565b93505050506101b3565b6103f4846220148063ffffffff61057e16565b60025561040d610247622014808363ffffffff61052516565b600155610423826220148063ffffffff61057e16565b60038190556004829055600254600154604080519283526020830191909152818101929092526060810183905290517f6960ab234c7ef4b0c9197100f5393cfcde7c453ac910a27bd2000aa1dd4c068d9181900360800190a150505050565b6000828201838110156104da576040805162461bcd60e51b815260206004820152601b60248201527a536166654d6174683a206164646974696f6e206f766572666c6f7760281b604482015290519081900360640190fd5b90505b92915050565b60006104da83836040518060400160405280601e81526020017f536166654d6174683a207375627472616374696f6e206f766572666c6f7700008152506105bd565b600082610534575060006104dd565b8282028284828161054157fe5b04146104da5760405162461bcd60e51b81526004018080602001828103825260218152602001806106ba6021913960400191505060405180910390fd5b60006104da83836040518060400160405280601a815260200179536166654d6174683a206469766973696f6e206279207a65726f60301b815250610654565b6000818484111561064c5760405162461bcd60e51b81526004018080602001828103825283818151815260200191508051906020019080838360005b838110156106115781810151838201526020016105f9565b50505050905090810190601f16801561063e5780820380516001836020036101000a031916815260200191505b509250505060405180910390fd5b505050900390565b600081836106a35760405162461bcd60e51b81526020600482018181528351602484015283519092839260449091019190850190808383600083156106115781810151838201526020016105f9565b5060008385816106af57fe5b049594505050505056fe536166654d6174683a206d756c7469706c69636174696f6e206f766572666c6f776f6e6c7920746865206f776e6572206d61792063616c6c20746869732066756e6374696f6e2ea2646970667358221220b376605bebb3cbf01c77ec17b7440f0f7c4c458be533721f72571707ddbadfae64736f6c63430006000033536166654d6174683a206d756c7469706c69636174696f6e206f766572666c6f774f776e61626c653a206e6577206f776e657220697320746865207a65726f20616464726573734f776e61626c653a2063616c6c6572206973206e6f7420746865206f776e65728be0079c531659141344cd1fd0a4f28419497f9722a3daafe3b4186f6b6457e0a2646970667358221220afa92001d09859d02e8704ec7a2093c49df3829f43a20c3e75b54ccea476323c64736f6c63430006000033",
  "source": "pragma solidity ^0.6.0;\n\nimport \"@openzeppelin/contracts/access/Ownable.sol\";\nimport \"@openzeppelin/contracts/math/SafeMath.sol\";\nimport \"./MoneyMarketInstance.sol\";\nimport \"./interfaces/UniswapOracleFactoryI.sol\";\nimport \"./interfaces/UniswapOracleInstanceI.sol\";\nimport \"./interfaces/MoneyMarketFactoryI.sol\";\nimport \"./compound/JumpRateModelV2.sol\";\n\n\n\n////////////////////////////////////////////////////////////////////////////////////////////\n/// @title MoneyMarketFactory\n/// @author Christopher Dixon\n////////////////////////////////////////////////////////////////////////////////////////////\n/**\nThe MoneyMarketFactory contract is designed to produce individual MoneyMarketInstance contracts\nThis contract uses the OpenZeppelin contract Library to inherit functions from\n  Ownable.sol\n**/\n\ncontract MoneyMarketControl is Ownable {\n  using SafeMath for uint;\n\n\n\n  uint public instanceCount;//tracks the number of instances\n\n  UniswapOracleFactoryI public Oracle;//oracle factory contract interface\n  MoneyMarketFactoryI public MMF;\n\n  mapping(address => address) public instanceTracker; //maps erc20 address to the assets MoneyMarketInstance\n  mapping(address => address) public _ALRtracker; // tracks a money markets address to its ALR token.\n  mapping(address => address) public oracleTracker; //maps a MM oracle to its Money market address\n\n\n/**\n@notice the constructor function is fired during the contract deployment process. The constructor can only be fired once and\n        is used to set up Oracle variables for the MoneyMarketFactory contract.\n@param _oracle is the address for the UniswapOracleFactorycontract\n**/\nconstructor ( address _oracle, address _MMF) public {\n  Oracle = UniswapOracleFactoryI(_oracle);\n  MMF = MoneyMarketFactoryI(_MMF);\n}\n\n/**\n@notice whitelistAsset is an onlyOwner function designed to be called by the AskoDAO.\n        This function creates a new MoneyMarketInstancecontract for an input asset as well\n        as a UniswapOracleInstance for the asset.\n@param _assetContractAdd is the address of the ERC20 asset being whitelisted\n@param _assetName is the name of the asset(e.x: ChainLink)\n@param _assetSymbol is the symbol of the asset(e.x: LINK)\n**/\n  function whitelistAsset(\n    address _assetContractAdd,\n\t\tstring memory _assetName,\n\t\tstring memory _assetSymbol\n  )\n  public\n  onlyOwner\n  {\n    instanceCount++;\n\n  address oracle = address(Oracle.createNewOracle( _assetContractAdd));\n\n    address _MMinstance = MMF.createMMI(\n       _assetContractAdd,\n       msg.sender,\n       oracle,\n       address(Oracle),\n  \t\t _assetName,\n  \t\t _assetSymbol\n    );\n\n\n    Oracle.linkMMI(_MMinstance, _assetContractAdd);\n    instanceTracker[_assetContractAdd] = _MMinstance;\n    oracleTracker[_MMinstance] = oracle;\n  }\n\n/**\n@notice setUpAHR is used to set up a MoneyMarketInstances Asko High Risk Token as well as its InterestRateModel\n@param _baseRatePerYear The approximate target base APR, as a mantissa (scaled by 1e18)\n@param _multiplierPerYear  The rate of increase in interest rate wrt utilization (scaled by 1e18)\n@param _jumpMultiplierPerYear The multiplierPerBlock after hitting a specified utilization point\n@param _optimal The utilization point at which the jump multiplier is applied(Refered to as the Kink in the InterestRateModel)\n@param _fee is a number representing the fee for exchanging an ALR token, as a mantissa (scaled by 1e18)\n@param _assetContractAdd is the contract address of the asset whos MoneyMarketInstance is being set up\n@dev this function can only be called after an asset has been whitelisted as it needs an existing MoneyMarketInstance contract\n**/\n  function setUpAHR(\n    uint _baseRatePerYear,\n    uint _multiplierPerYear,\n    uint _jumpMultiplierPerYear,\n    uint _optimal,\n    uint _fee,\n    uint _initialExchangeRate,\n    address _assetContractAdd\n  )\n  public\n  {\n    MoneyMarketInstance _MMI = MoneyMarketInstance(instanceTracker[_assetContractAdd]);\n\n    address interestRateModel = address( new JumpRateModelV2(\n      _baseRatePerYear,\n      _multiplierPerYear,\n      _jumpMultiplierPerYear,\n      _optimal,\n      address(_MMI)\n    ));\n\n_MMI._setUpAHR(\n  interestRateModel,\n  _fee,\n  _initialExchangeRate\n);\n  }\n\n/**\n@notice setUpAHR is used to set up a MoneyMarketInstances Asko High Risk Token as well as its InterestRateModel\n@param _baseRatePerYear The approximate target base APR, as a mantissa (scaled by 1e18)\n@param _multiplierPerYear  The rate of increase in interest rate wrt utilization (scaled by 1e18)\n@param _jumpMultiplierPerYear The multiplierPerBlock after hitting a specified utilization point\n@param _optimal The utilization point at which the jump multiplier is applied(Refered to as the Kink in the InterestRateModel)\n@param _fee is a number representing the fee for exchanging an ALR token, as a mantissa (scaled by 1e18)\n@param _assetContractAdd is the contract address of the asset whos MoneyMarketInstance is being set up\n@dev this function can only be called after an asset has been whitelisted as it needs an existing MoneyMarketInstance contract\n**/\n  function setUpALR(\n    uint _baseRatePerYear,\n    uint _multiplierPerYear,\n    uint _jumpMultiplierPerYear,\n    uint _optimal,\n    uint _fee,\n    uint _initialExchangeRate,\n    address _assetContractAdd\n  )\n  public\n  {\n    MoneyMarketInstance _MMI = MoneyMarketInstance(instanceTracker[_assetContractAdd]);\n\n    address interestRateModel = address( new JumpRateModelV2(\n      _baseRatePerYear,\n      _multiplierPerYear,\n      _jumpMultiplierPerYear,\n      _optimal,\n      address(_MMI)\n    ));\n\n    _MMI._setUpALR(\n      interestRateModel,\n      _fee,\n      _initialExchangeRate\n    );\n  }\n\n\n}\n",
  "sourcePath": "/home/stan36/repos/Askolend/AskoLend-contracts/contracts/MoneyMarketControl.sol",
  "compiler": {
    "name": "solc",
    "version": "0.6.0+commit.26b70077.Emscripten.clang"
  },
  "schemaVersion": "3.2.5",
  "updatedAt": "2020-10-06T18:35:28.016Z",
  "devdoc": {
    "methods": {
      "constructor": {
        "params": {
          "_oracle": "is the address for the UniswapOracleFactorycontract*"
        }
      },
      "owner()": {
        "details": "Returns the address of the current owner."
      },
      "renounceOwnership()": {
        "details": "Leaves the contract without owner. It will not be possible to call `onlyOwner` functions anymore. Can only be called by the current owner.     * NOTE: Renouncing ownership will leave the contract without an owner, thereby removing any functionality that is only available to the owner."
      },
      "setUpAHR(uint256,uint256,uint256,uint256,uint256,uint256,address)": {
        "details": "this function can only be called after an asset has been whitelisted as it needs an existing MoneyMarketInstance contract*",
        "params": {
          "_assetContractAdd": "is the contract address of the asset whos MoneyMarketInstance is being set up",
          "_baseRatePerYear": "The approximate target base APR, as a mantissa (scaled by 1e18)",
          "_fee": "is a number representing the fee for exchanging an ALR token, as a mantissa (scaled by 1e18)",
          "_jumpMultiplierPerYear": "The multiplierPerBlock after hitting a specified utilization point",
          "_multiplierPerYear": "The rate of increase in interest rate wrt utilization (scaled by 1e18)",
          "_optimal": "The utilization point at which the jump multiplier is applied(Refered to as the Kink in the InterestRateModel)"
        }
      },
      "setUpALR(uint256,uint256,uint256,uint256,uint256,uint256,address)": {
        "details": "this function can only be called after an asset has been whitelisted as it needs an existing MoneyMarketInstance contract*",
        "params": {
          "_assetContractAdd": "is the contract address of the asset whos MoneyMarketInstance is being set up",
          "_baseRatePerYear": "The approximate target base APR, as a mantissa (scaled by 1e18)",
          "_fee": "is a number representing the fee for exchanging an ALR token, as a mantissa (scaled by 1e18)",
          "_jumpMultiplierPerYear": "The multiplierPerBlock after hitting a specified utilization point",
          "_multiplierPerYear": "The rate of increase in interest rate wrt utilization (scaled by 1e18)",
          "_optimal": "The utilization point at which the jump multiplier is applied(Refered to as the Kink in the InterestRateModel)"
        }
      },
      "transferOwnership(address)": {
        "details": "Transfers ownership of the contract to a new account (`newOwner`). Can only be called by the current owner."
      },
      "whitelistAsset(address,string,string)": {
        "params": {
          "_assetContractAdd": "is the address of the ERC20 asset being whitelisted",
          "_assetName": "is the name of the asset(e.x: ChainLink)",
          "_assetSymbol": "is the symbol of the asset(e.x: LINK)*"
        }
      }
    }
  },
  "userdoc": {
    "methods": {
      "constructor": "the constructor function is fired during the contract deployment process. The constructor can only be fired once and is used to set up Oracle variables for the MoneyMarketFactory contract.",
      "setUpAHR(uint256,uint256,uint256,uint256,uint256,uint256,address)": {
        "notice": "setUpAHR is used to set up a MoneyMarketInstances Asko High Risk Token as well as its InterestRateModel"
      },
      "setUpALR(uint256,uint256,uint256,uint256,uint256,uint256,address)": {
        "notice": "setUpAHR is used to set up a MoneyMarketInstances Asko High Risk Token as well as its InterestRateModel"
      },
      "whitelistAsset(address,string,string)": {
        "notice": "whitelistAsset is an onlyOwner function designed to be called by the AskoDAO. This function creates a new MoneyMarketInstancecontract for an input asset as well as a UniswapOracleInstance for the asset."
      }
    },
    "notice": "The MoneyMarketFactory contract is designed to produce individual MoneyMarketInstance contracts This contract uses the OpenZeppelin contract Library to inherit functions from Ownable.sol*"
  }
}