{
  "contractName": "MoneyMarketFactory",
  "abi": [
    {
      "anonymous": false,
      "inputs": [
        {
          "indexed": true,
          "internalType": "address",
          "name": "previousOwner",
          "type": "address"
        },
        {
          "indexed": true,
          "internalType": "address",
          "name": "newOwner",
          "type": "address"
        }
      ],
      "name": "OwnershipTransferred",
      "type": "event"
    },
    {
      "inputs": [],
      "name": "owner",
      "outputs": [
        {
          "internalType": "address",
          "name": "",
          "type": "address"
        }
      ],
      "stateMutability": "view",
      "type": "function"
    },
    {
      "inputs": [],
      "name": "renounceOwnership",
      "outputs": [],
      "stateMutability": "nonpayable",
      "type": "function"
    },
    {
      "inputs": [
        {
          "internalType": "address",
          "name": "newOwner",
          "type": "address"
        }
      ],
      "name": "transferOwnership",
      "outputs": [],
      "stateMutability": "nonpayable",
      "type": "function"
    },
    {
      "inputs": [
        {
          "internalType": "address",
          "name": "_assetContractAdd",
          "type": "address"
        },
        {
          "internalType": "address",
          "name": "_oracleFactory",
          "type": "address"
        },
        {
          "internalType": "address",
          "name": "_owner",
          "type": "address"
        },
        {
          "internalType": "address",
          "name": "_ARTF",
          "type": "address"
        },
        {
          "internalType": "string",
          "name": "_assetName",
          "type": "string"
        },
        {
          "internalType": "string",
          "name": "_assetSymbol",
          "type": "string"
        }
      ],
      "name": "createMMI",
      "outputs": [
        {
          "internalType": "address",
          "name": "",
          "type": "address"
        }
      ],
      "stateMutability": "nonpayable",
      "type": "function"
    }
  ],
  "bytecode": "0x608060405260006100176001600160e01b0361006616565b600080546001600160a01b0319166001600160a01b0383169081178255604051929350917f8be0079c531659141344cd1fd0a4f28419497f9722a3daafe3b4186f6b6457e0908290a35061006a565b3390565b61349f806100796000396000f3fe608060405234801561001057600080fd5b506004361061004c5760003560e01c8063715018a6146100515780638da5cb5b1461005b578063cc83954d1461007f578063f2fde38b146101d0575b600080fd5b6100596101f6565b005b6100636102aa565b604080516001600160a01b039092168252519081900360200190f35b610063600480360360c081101561009557600080fd5b6001600160a01b03823581169260208101358216926040820135831692606083013516919081019060a081016080820135600160201b8111156100d757600080fd5b8201836020820111156100e957600080fd5b803590602001918460018302840111600160201b8311171561010a57600080fd5b91908080601f0160208091040260200160405190810160405280939291908181526020018383808284376000920191909152509295949360208101935035915050600160201b81111561015c57600080fd5b82018360208201111561016e57600080fd5b803590602001918460018302840111600160201b8311171561018f57600080fd5b91908080601f0160208091040260200160405190810160405280939291908181526020018383808284376000920191909152509295506102b9945050505050565b610059600480360360208110156101e657600080fd5b50356001600160a01b03166103f9565b6101fe610503565b6000546001600160a01b03908116911614610260576040805162461bcd60e51b815260206004820181905260248201527f4f776e61626c653a2063616c6c6572206973206e6f7420746865206f776e6572604482015290519081900360640190fd5b600080546040516001600160a01b03909116907f8be0079c531659141344cd1fd0a4f28419497f9722a3daafe3b4186f6b6457e0908390a3600080546001600160a01b0319169055565b6000546001600160a01b031690565b6000808787878787876040516102ce90610507565b6001600160a01b0380881682528681166020808401919091528682166040840152908516606083015260c0608083018181528551918401919091528451909160a084019160e085019187019080838360005b83811015610338578181015183820152602001610320565b50505050905090810190601f1680156103655780820380516001836020036101000a031916815260200191505b50838103825284518152845160209182019186019080838360005b83811015610398578181015183820152602001610380565b50505050905090810190601f1680156103c55780820380516001836020036101000a031916815260200191505b5098505050505050505050604051809103906000f0801580156103ec573d6000803e3d6000fd5b5098975050505050505050565b610401610503565b6000546001600160a01b03908116911614610463576040805162461bcd60e51b815260206004820181905260248201527f4f776e61626c653a2063616c6c6572206973206e6f7420746865206f776e6572604482015290519081900360640190fd5b6001600160a01b0381166104a85760405162461bcd60e51b81526004018080602001828103825260268152602001806134446026913960400191505060405180910390fd5b600080546040516001600160a01b03808516939216917f8be0079c531659141344cd1fd0a4f28419497f9722a3daafe3b4186f6b6457e091a3600080546001600160a01b0319166001600160a01b0392909216919091179055565b3390565b612f2f806105158339019056fe60806040523480156200001157600080fd5b5060405162002f2f38038062002f2f833981810160405260c08110156200003757600080fd5b81516020830151604080850151606086015160808701805193519597949692959194919392820192846401000000008211156200007357600080fd5b9083019060208201858111156200008957600080fd5b8251640100000000811182820188101715620000a457600080fd5b82525081516020918201929091019080838360005b83811015620000d3578181015183820152602001620000b9565b50505050905090810190601f168015620001015780820380516001836020036101000a031916815260200191505b50604052602001805160405193929190846401000000008211156200012557600080fd5b9083019060208201858111156200013b57600080fd5b82516401000000008111828201881017156200015657600080fd5b82525081516020918201929091019080838360005b83811015620001855781810151838201526020016200016b565b50505050905090810190601f168015620001b35780820380516001836020036101000a031916815260200191505b506040525050506000620001cc620002a060201b60201c565b600080546001600160a01b0319166001600160a01b0383169081178255604051929350917f8be0079c531659141344cd1fd0a4f28419497f9722a3daafe3b4186f6b6457e0908290a350612710600155815162000231906006906020850190620002a5565b50805162000247906007906020840190620002a5565b5050600c80546001600160a01b03199081166001600160a01b0396871617909155600b80548216948616949094179093555060088054831694841694909417909355600d80549091169290911691909117905562000347565b335b90565b828054600181600116156101000203166002900490600052602060002090601f016020900481019282601f10620002e857805160ff191683800117855562000318565b8280016001018555821562000318579182015b8281111562000318578251825591602001919060010190620002fb565b50620003269291506200032a565b5090565b620002a291905b8082111562000326576000815560010162000331565b612bd880620003576000396000f3fe608060405234801561001057600080fd5b506004361061019a5760003560e01c806367612843116100e4578063c27d4df311610092578063c27d4df31461042b578063c9230c5d14610433578063cf0aea851461043b578063d162054a14610458578063dcc716bd14610460578063f2130c7014610492578063f2fde38b1461049a578063f9828b4f146104c05761019a565b806367612843146103795780636c713a15146103b3578063715018a6146103d05780637d1fc742146103d85780638da5cb5b146103fe5780639241cef21461040657806392625edb1461040e5761019a565b806322b2d4021161014c57806322b2d402146102bb57806334e73122146102d8578063371fd8e6146102fb57806338d52e0f14610318578063460bb650146103205780634b3fd148146103285780634c20ac7414610354578063551f8b011461035c5761019a565b806303438def1461019f578063045de1f8146101be57806311e2c02f146101e2578063176de7a8146101ea5780631dda0780146102675780631f2dc5ef1461026f5780631f432cf514610289575b600080fd5b6101bc600480360360208110156101b557600080fd5b50356104c8565b005b6101c6610664565b604080516001600160a01b039092168252519081900360200190f35b6101c6610673565b6101f2610682565b6040805160208082528351818301528351919283929083019185019080838360005b8381101561022c578181015183820152602001610214565b50505050905090810190601f1680156102595780820380516001836020036101000a031916815260200191505b509250505060405180910390f35b6101c6610710565b61027761071f565b60408051918252519081900360200190f35b6101bc6004803603606081101561029f57600080fd5b506001600160a01b038135169060208101359060400135610725565b6101bc600480360360208110156102d157600080fd5b5035610b68565b610277600480360360408110156102ee57600080fd5b5080359060200135610c9c565b6101bc6004803603602081101561031157600080fd5b5035610cce565b6101c66116f3565b6101c6611702565b6101bc6004803603604081101561033e57600080fd5b50803590602001356001600160a01b0316611711565b6101c6611d72565b6101bc6004803603602081101561037257600080fd5b5035611d81565b61039f6004803603602081101561038f57600080fd5b50356001600160a01b0316611dde565b604080519115158252519081900360200190f35b6101bc600480360360208110156103c957600080fd5b5035611e61565b6101bc611ebe565b610277600480360360208110156103ee57600080fd5b50356001600160a01b0316611f60565b6101c6611f7b565b6101c6611f8a565b6101bc6004803603602081101561042457600080fd5b5035611f99565b6101c661218f565b6101f261219e565b6101bc6004803603602081101561045157600080fd5b50356121f9565b6101c661232d565b6101bc6004803603606081101561047657600080fd5b506001600160a01b03813516906020810135906040013561233c565b61027761277f565b6101bc600480360360208110156104b057600080fd5b50356001600160a01b0316612785565b61027761287d565b600a546040805163d383752d60e01b81526004810184905290516000926001600160a01b03169163d383752d91602480830192602092919082900301818787803b15801561051557600080fd5b505af1158015610529573d6000803e3d6000fd5b505050506040513d602081101561053f57600080fd5b5051600a5460408051632770a7eb60e21b81523360048201526024810184905290519293506001600160a01b0390911691639dc29fac9160448082019260009290919082900301818387803b15801561059757600080fd5b505af11580156105ab573d6000803e3d6000fd5b5050600b54600a546040805163b3f643e760e01b81523360048201526001600160a01b03928316602482015260448101879052905191909216935063b3f643e79250606480830192600092919082900301818387803b15801561060d57600080fd5b505af1158015610621573d6000803e3d6000fd5b5050604080513381526020810186905281517f2ceb23d1a429a36e05e1dd6ebfeceac2b6904c032f15f7648ebd4711510a15f79450908190039091019150a15050565b6005546001600160a01b031681565b600c546001600160a01b031681565b6007805460408051602060026001851615610100026000190190941693909304601f810184900484028201840190925281815292918301828280156107085780601f106106dd57610100808354040283529160200191610708565b820191906000526020600020905b8154815290600101906020018083116106eb57829003601f168201915b505050505081565b600d546001600160a01b031681565b60015481565b600b546001600160a01b0316331461073c57600080fd5b60038290556040805163416c522d60e01b60208083019190915282518083036004018152602483019093528251839260069260449091019182918501908083835b6020831061079c5780518252601f19909201916020918201910161077d565b6001836020036101000a038019825116818451168082178552505050505050905001828054600181600116156101000203166002900480156108155780601f106107f3576101008083540402835291820191610815565b820191906000526020600020905b815481529060010190602001808311610801575b50509250505060405160208183030381529060405290506060604051602001808063416c522d60e01b815250600401905060405160208183030381529060405290508060076040516020018083805190602001908083835b6020831061088c5780518252601f19909201916020918201910161086d565b6001836020036101000a038019825116818451168082178552505050505050905001828054600181600116156101000203166002900480156109055780601f106108e3576101008083540402835291820191610905565b820191906000526020600020905b8154815290600101906020018083116108f1575b505092505050604051602081830303815290604052905060608290506060829050600d60009054906101000a90046001600160a01b03166001600160a01b0316634f84a10088600860009054906101000a90046001600160a01b0316600c60009054906101000a90046001600160a01b0316600b60009054906101000a90046001600160a01b0316878760018d6040518963ffffffff1660e01b815260040180896001600160a01b03166001600160a01b03168152602001886001600160a01b03166001600160a01b03168152602001876001600160a01b03166001600160a01b03168152602001866001600160a01b03166001600160a01b03168152602001806020018060200185151515158152602001848152602001838103835287818151815260200191508051906020019080838360005b83811015610a52578181015183820152602001610a3a565b50505050905090810190601f168015610a7f5780820380516001836020036101000a031916815260200191505b50838103825286518152865160209182019188019080838360005b83811015610ab2578181015183820152602001610a9a565b50505050905090810190601f168015610adf5780820380516001836020036101000a031916815260200191505b509a5050505050505050505050602060405180830381600087803b158015610b0657600080fd5b505af1158015610b1a573d6000803e3d6000fd5b505050506040513d6020811015610b3057600080fd5b5051600a80546001600160a01b03199081166001600160a01b0393841617918290556005805492909316911617905550505050505050565b600854600a54604080516323b872dd60e01b81523360048201526001600160a01b03928316602482015260448101859052905191909216916323b872dd9160648083019260209291908290030181600087803b158015610bc757600080fd5b505af1158015610bdb573d6000803e3d6000fd5b505050506040513d6020811015610bf157600080fd5b5050600a54604080516340c10f1960e01b81523360048201526024810184905290516001600160a01b03909216916340c10f199160448082019260009290919082900301818387803b158015610c4657600080fd5b505af1158015610c5a573d6000803e3d6000fd5b5050604080513381526020810185905281517f7328ca2a2e824164ca6ec3121966d63601356d01901d9a5d2ee466cb726d1e3c9450908190039091019150a150565b600080610cc4600154610cb8858761288390919063ffffffff16565b9063ffffffff6128e316565b9150505b92915050565b600a54604080516305eff7ef60e21b815233600482015290516000926001600160a01b0316916317bfdfbc91602480830192602092919082900301818787803b158015610d1a57600080fd5b505af1158015610d2e573d6000803e3d6000fd5b505050506040513d6020811015610d4457600080fd5b5051600954604080516305eff7ef60e21b815233600482015290519293506000926001600160a01b03909216916317bfdfbc9160248082019260209290919082900301818787803b158015610d9857600080fd5b505af1158015610dac573d6000803e3d6000fd5b505050506040513d6020811015610dc257600080fd5b505190506000610dd8838363ffffffff61292516565b905080841115610e23576040805162461bcd60e51b81526020600482015260116024820152700a4cae0c2f2d2dcce40e8dede40daeac6d607b1b604482015290519081900360640190fd5b60008085611081578415610f3f57600854600a54604080516323b872dd60e01b81523360048201526001600160a01b03928316602482015260448101899052905191909216916323b872dd9160648083019260209291908290030181600087803b158015610e9057600080fd5b505af1158015610ea4573d6000803e3d6000fd5b505050506040513d6020811015610eba57600080fd5b5050600a54604080516369a5e8cf60e01b81526004810188905233602482015290516001600160a01b03909216916369a5e8cf916044808201926020929091908290030181600087803b158015610f1057600080fd5b505af1158015610f24573d6000803e3d6000fd5b505050506040513d6020811015610f3a57600080fd5b505190505b600854600954604080516323b872dd60e01b81523360048201526001600160a01b03928316602482015260448101889052905191909216916323b872dd9160648083019260209291908290030181600087803b158015610f9e57600080fd5b505af1158015610fb2573d6000803e3d6000fd5b505050506040513d6020811015610fc857600080fd5b5050600954604080516369a5e8cf60e01b81526004810187905233602482015290516001600160a01b03909216916369a5e8cf916044808201926020929091908290030181600087803b15801561101e57600080fd5b505af1158015611032573d6000803e3d6000fd5b505050506040513d602081101561104857600080fd5b505160408051338152602081018790528082018890529051919350600080516020612b83833981519152919081900360600190a1611576565b8415611438578585106111d057600854600a54604080516323b872dd60e01b81523360048201526001600160a01b039283166024820152604481018a9052905191909216916323b872dd9160648083019260209291908290030181600087803b1580156110ed57600080fd5b505af1158015611101573d6000803e3d6000fd5b505050506040513d602081101561111757600080fd5b5050600a54604080516369a5e8cf60e01b81526004810189905233602482015290516001600160a01b03909216916369a5e8cf916044808201926020929091908290030181600087803b15801561116d57600080fd5b505af1158015611181573d6000803e3d6000fd5b505050506040513d602081101561119757600080fd5b505160408051338152600060208201528082018990529051919250600080516020612b83833981519152919081900360600190a1611433565b60006111e2878763ffffffff61297f16565b600854600a54604080516323b872dd60e01b81523360048201526001600160a01b039283166024820152604481018b905290519394509116916323b872dd916064808201926020929091908290030181600087803b15801561124357600080fd5b505af1158015611257573d6000803e3d6000fd5b505050506040513d602081101561126d57600080fd5b5050600a54604080516369a5e8cf60e01b815260006004820181905233602483015291516001600160a01b03909316926369a5e8cf92604480840193602093929083900390910190829087803b1580156112c657600080fd5b505af11580156112da573d6000803e3d6000fd5b505050506040513d60208110156112f057600080fd5b5051600854600954604080516323b872dd60e01b81523360048201526001600160a01b0392831660248201526044810186905290519395509116916323b872dd916064808201926020929091908290030181600087803b15801561135357600080fd5b505af1158015611367573d6000803e3d6000fd5b505050506040513d602081101561137d57600080fd5b5050600954604080516369a5e8cf60e01b81526004810184905233602482015290516001600160a01b03909216916369a5e8cf916044808201926020929091908290030181600087803b1580156113d357600080fd5b505af11580156113e7573d6000803e3d6000fd5b505050506040513d60208110156113fd57600080fd5b505160408051338152602081018390528082018590529051919450600080516020612b83833981519152919081900360600190a1505b611576565b600854600954604080516323b872dd60e01b81523360048201526001600160a01b03928316602482015260448101869052905191909216916323b872dd9160648083019260209291908290030181600087803b15801561149757600080fd5b505af11580156114ab573d6000803e3d6000fd5b505050506040513d60208110156114c157600080fd5b5050600954604080516369a5e8cf60e01b81526004810189905233602482015290516001600160a01b03909216916369a5e8cf916044808201926020929091908290030181600087803b15801561151757600080fd5b505af115801561152b573d6000803e3d6000fd5b505050506040513d602081101561154157600080fd5b505160408051338152602081018390526000818301529051919350600080516020612b83833981519152919081900360600190a15b611586848363ffffffff61297f16565b1580156115a0575061159e858263ffffffff61297f16565b155b156116eb57600b54336000818152600f6020908152604080832054600e909252808320548151632c8bad0f60e01b815260048101959095526001600160a01b039283166024860152604485015251931692632c8bad0f92606480820193929182900301818387803b15801561161457600080fd5b505af1158015611628573d6000803e3d6000fd5b5050600b54336000818152600f6020908152604080832054600e90925280832054815163b3f643e760e01b815260048101959095526001600160a01b0392831660248601526044850152519316945063b3f643e79350606480830193919282900301818387803b15801561169b57600080fd5b505af11580156116af573d6000803e3d6000fd5b5050336000908152600f6020908152604080832080546001600160a01b031916905560108252808320805460ff19169055600e90915281205550505b505050505050565b6008546001600160a01b031681565b6004546001600160a01b031681565b336000908152600f60205260409020546001600160a01b038281169116148061174a57503360009081526010602052604090205460ff16155b61175357600080fd5b61175b612ac1565b600b5460408051636012b43160e01b81523360048201526001600160a01b03858116602483015291519190921691636012b4319160448083019260209291908290030181600087803b1580156117b057600080fd5b505af11580156117c4573d6000803e3d6000fd5b505050506040513d60208110156117da57600080fd5b50518152600954604080516305eff7ef60e21b815233600482015290516001600160a01b03909216916317bfdfbc916024808201926020929091908290030181600087803b15801561182b57600080fd5b505af115801561183f573d6000803e3d6000fd5b505050506040513d602081101561185557600080fd5b5051602082810191909152600a54604080516305eff7ef60e21b815233600482015290516001600160a01b03909216926317bfdfbc926024808401938290030181600087803b1580156118a757600080fd5b505af11580156118bb573d6000803e3d6000fd5b505050506040513d60208110156118d157600080fd5b5051604082018190526118ff906118ee908563ffffffff61292516565b60208301519063ffffffff61292516565b60608201819052600c546008546040805163513396f760e11b81526001600160a01b03928316600482015260248101949094525191169163a2672dee916044808301926020929190829003018186803b15801561195b57600080fd5b505afa15801561196f573d6000803e3d6000fd5b505050506040513d602081101561198557600080fd5b505160a0820152600c546008546040805163513396f760e11b81526001600160a01b039283166004820152602481018790529051919092169163a2672dee916044808301926020929190829003018186803b1580156119e357600080fd5b505afa1580156119f7573d6000803e3d6000fd5b505050506040513d6020811015611a0d57600080fd5b505160c0820181905260408051635f27adbd60e01b815260048101929092525183916001600160a01b03831691635f27adbd916024808201926020929091908290030181600087803b158015611a6257600080fd5b505af1158015611a76573d6000803e3d6000fd5b505050506040513d6020811015611a8c57600080fd5b505160e083015260a0820151611aa990600263ffffffff6128e316565b610100830181905260a0830151611ac59163ffffffff61292516565b610120830181905282511015611ada57600080fd5b611aeb84600263ffffffff6128e316565b610140830152600b5460e08301516040805163ee82616160e01b81523360048201526001600160a01b03878116602483015260448201939093529051919092169163ee82616191606480830192600092919082900301818387803b158015611b5257600080fd5b505af1158015611b66573d6000803e3d6000fd5b5050600b5460e085015160408051636a8394ad60e01b81523360048201526001600160a01b03898116602483015260448201939093529051919092169350636a8394ad9250606480830192600092919082900301818387803b158015611bcb57600080fd5b505af1158015611bdf573d6000803e3d6000fd5b5050505060e0820151336000908152600e6020526040902054611c0191612925565b336000818152600e6020908152604080832094909455600f815283822080546001600160a01b0319166001600160a01b03898116919091179091556010909152838220805460ff191660011790556009546101408701518551630967fa2960e31b8152600481019190915260248101949094529351931692634b3fd14892604480820193929182900301818387803b158015611c9c57600080fd5b505af1158015611cb0573d6000803e3d6000fd5b5050600a5461014085015160408051630967fa2960e31b81526004810192909252336024830152516001600160a01b039092169350634b3fd148925060448082019260009290919082900301818387803b158015611d0d57600080fd5b505af1158015611d21573d6000803e3d6000fd5b505050610140830151604080513381526020810183905280820192909252517fe1979fe4c35e0cef342fef5668e2c8e7a7e9f5d5d1ca8fee0ac6c427fa4153af92509081900360600190a150505050565b6008546001600160a01b031690565b611d896129c1565b6000546001600160a01b03908116911614611dd9576040805162461bcd60e51b81526020600482018190526024820152600080516020612b63833981519152604482015290519081900360640190fd5b600355565b600b5460408051630dc9cacd60e01b81526001600160a01b03848116600483015291516000939290921691630dc9cacd91602480820192602092909190829003018186803b158015611e2f57600080fd5b505afa158015611e43573d6000803e3d6000fd5b505050506040513d6020811015611e5957600080fd5b505192915050565b611e696129c1565b6000546001600160a01b03908116911614611eb9576040805162461bcd60e51b81526020600482018190526024820152600080516020612b63833981519152604482015290519081900360640190fd5b600255565b611ec66129c1565b6000546001600160a01b03908116911614611f16576040805162461bcd60e51b81526020600482018190526024820152600080516020612b63833981519152604482015290519081900360640190fd5b600080546040516001600160a01b03909116907f8be0079c531659141344cd1fd0a4f28419497f9722a3daafe3b4186f6b6457e0908390a3600080546001600160a01b0319169055565b6001600160a01b03166000908152600e602052604090205490565b6000546001600160a01b031690565b6009546001600160a01b031681565b600a546040805163d383752d60e01b81526004810184905290516000926001600160a01b03169163d383752d91602480830192602092919082900301818787803b158015611fe657600080fd5b505af1158015611ffa573d6000803e3d6000fd5b505050506040513d602081101561201057600080fd5b5051600b54600a5460408051636d497ec560e11b81523360048201526001600160a01b0392831660248201529051939450600093919092169163da92fd8a916044808301926020929190829003018186803b15801561206e57600080fd5b505afa158015612082573d6000803e3d6000fd5b505050506040513d602081101561209857600080fd5b50519050808211156120a957600080fd5b600b54600a5460408051636a8394ad60e01b81523360048201526001600160a01b0392831660248201526044810186905290519190921691636a8394ad91606480830192600092919082900301818387803b15801561210757600080fd5b505af115801561211b573d6000803e3d6000fd5b5050600a54604080516340c10f1960e01b81523360048201526024810187905290516001600160a01b0390921693506340c10f19925060448082019260009290919082900301818387803b15801561217257600080fd5b505af1158015612186573d6000803e3d6000fd5b50505050505050565b600a546001600160a01b031681565b6006805460408051602060026001851615610100026000190190941693909304601f810184900484028201840190925281815292918301828280156107085780601f106106dd57610100808354040283529160200191610708565b600854600954604080516323b872dd60e01b81523360048201526001600160a01b03928316602482015260448101859052905191909216916323b872dd9160648083019260209291908290030181600087803b15801561225857600080fd5b505af115801561226c573d6000803e3d6000fd5b505050506040513d602081101561228257600080fd5b5050600954604080516340c10f1960e01b81523360048201526024810184905290516001600160a01b03909216916340c10f199160448082019260009290919082900301818387803b1580156122d757600080fd5b505af11580156122eb573d6000803e3d6000fd5b5050604080513381526020810185905281517f0f82438f3b5c78264c4b6dce428942fd963308db5c690635d87bc654cb811d339450908190039091019150a150565b600b546001600160a01b031681565b600b546001600160a01b0316331461235357600080fd5b600282905560408051634148522d60e01b60208083019190915282518083036004018152602483019093528251839260069260449091019182918501908083835b602083106123b35780518252601f199092019160209182019101612394565b6001836020036101000a0380198251168184511680821785525050505050509050018280546001816001161561010002031660029004801561242c5780601f1061240a57610100808354040283529182019161242c565b820191906000526020600020905b815481529060010190602001808311612418575b505092505050604051602081830303815290604052905060606040516020018080634148522d60e01b815250600401905060405160208183030381529060405290508060076040516020018083805190602001908083835b602083106124a35780518252601f199092019160209182019101612484565b6001836020036101000a0380198251168184511680821785525050505050509050018280546001816001161561010002031660029004801561251c5780601f106124fa57610100808354040283529182019161251c565b820191906000526020600020905b815481529060010190602001808311612508575b505092505050604051602081830303815290604052905060608290506060829050600d60009054906101000a90046001600160a01b03166001600160a01b0316634f84a10088600860009054906101000a90046001600160a01b0316600c60009054906101000a90046001600160a01b0316600b60009054906101000a90046001600160a01b0316878760008d6040518963ffffffff1660e01b815260040180896001600160a01b03166001600160a01b03168152602001886001600160a01b03166001600160a01b03168152602001876001600160a01b03166001600160a01b03168152602001866001600160a01b03166001600160a01b03168152602001806020018060200185151515158152602001848152602001838103835287818151815260200191508051906020019080838360005b83811015612669578181015183820152602001612651565b50505050905090810190601f1680156126965780820380516001836020036101000a031916815260200191505b50838103825286518152865160209182019188019080838360005b838110156126c95781810151838201526020016126b1565b50505050905090810190601f1680156126f65780820380516001836020036101000a031916815260200191505b509a5050505050505050505050602060405180830381600087803b15801561271d57600080fd5b505af1158015612731573d6000803e3d6000fd5b505050506040513d602081101561274757600080fd5b5051600980546001600160a01b03199081166001600160a01b0393841617918290556004805492909316911617905550505050505050565b60025481565b61278d6129c1565b6000546001600160a01b039081169116146127dd576040805162461bcd60e51b81526020600482018190526024820152600080516020612b63833981519152604482015290519081900360640190fd5b6001600160a01b0381166128225760405162461bcd60e51b8152600401808060200182810382526026815260200180612b1c6026913960400191505060405180910390fd5b600080546040516001600160a01b03808516939216917f8be0079c531659141344cd1fd0a4f28419497f9722a3daafe3b4186f6b6457e091a3600080546001600160a01b0319166001600160a01b0392909216919091179055565b60035481565b60008261289257506000610cc8565b8282028284828161289f57fe5b04146128dc5760405162461bcd60e51b8152600401808060200182810382526021815260200180612b426021913960400191505060405180910390fd5b9392505050565b60006128dc83836040518060400160405280601a81526020017f536166654d6174683a206469766973696f6e206279207a65726f0000000000008152506129c5565b6000828201838110156128dc576040805162461bcd60e51b815260206004820152601b60248201527f536166654d6174683a206164646974696f6e206f766572666c6f770000000000604482015290519081900360640190fd5b60006128dc83836040518060400160405280601e81526020017f536166654d6174683a207375627472616374696f6e206f766572666c6f770000815250612a67565b3390565b60008183612a515760405162461bcd60e51b81526004018080602001828103825283818151815260200191508051906020019080838360005b83811015612a165781810151838201526020016129fe565b50505050905090810190601f168015612a435780820380516001836020036101000a031916815260200191505b509250505060405180910390fd5b506000838581612a5d57fe5b0495945050505050565b60008184841115612ab95760405162461bcd60e51b8152602060048201818152835160248401528351909283926044909101919085019080838360008315612a165781810151838201526020016129fe565b505050900390565b6040518061016001604052806000815260200160008152602001600081526020016000815260200160008152602001600081526020016000815260200160008152602001600081526020016000815260200160008152509056fe4f776e61626c653a206e6577206f776e657220697320746865207a65726f2061646472657373536166654d6174683a206d756c7469706c69636174696f6e206f766572666c6f774f776e61626c653a2063616c6c6572206973206e6f7420746865206f776e65722a6c148cdc9347a81dfbfe504afb64ea0aeca1114171ef18a3e11cb1fda8b3a6a26469706673582212207518e64b3e8a671d8d1de8cc53950874b64eec2ae56003381cf8c3cdf4e8ec9e64736f6c634300060600334f776e61626c653a206e6577206f776e657220697320746865207a65726f2061646472657373a26469706673582212201814c09fe8a8b589f50bdf6078c2646241eac3f6900e93ac29497eedefffc22b64736f6c63430006060033",
  "immutableReferences": {},
  "source": "pragma solidity ^0.6.0;\n\nimport \"./MoneyMarketInstance.sol\";\nimport \"openzeppelin-solidity/contracts/access/Ownable.sol\";\n\n////////////////////////////////////////////////////////////////////////////////////////////\n/// @title MoneyMarketFactory\n/// @author Christopher Dixon\n////////////////////////////////////////////////////////////////////////////////////////////\n/**\nThe MoneyMarketFactory contract is designed to produce individual MoneyMarketInstance contracts\nThis contract uses the OpenZeppelin contract Library to inherit functions from\n  Ownable.sol\n**/\n\ncontract MoneyMarketFactory is Ownable {\n    /**\n@notice the createMMI function is used to initialize the MoneyMakerInstance and deploy its associated AHR && ALR token contracts\n@param _assetContractAdd is the address of the ERC20 asset being whitelisted\n@param _owner is the address that will own this contract(The AskoDAO)\n@param _assetName is the name of the asset(e.x: ChainLink)\n@param _assetSymbol is the symbol of the asset(e.x: LINK)\n@dev this function uses ABI encoding to properly concatenate AHR- && ALR- in front of the tokens name and symbol\n      before creating each token.\n**/\n    function createMMI(\n        address _assetContractAdd,\n        address _oracleFactory,\n        address _owner,\n        address _ARTF,\n        string memory _assetName,\n        string memory _assetSymbol\n    ) public returns (address) {\n        address _MMinstance = address(\n            new MoneyMarketInstance(\n                _assetContractAdd,\n                _oracleFactory,\n                _owner,\n                _ARTF,\n                _assetName,\n                _assetSymbol\n            )\n        );\n\n        return _MMinstance;\n    }\n}\n",
  "sourcePath": "/home/stan36/repos/Askolend/AskoLend-contracts/contracts/MoneyMarketFactory.sol",
  "compiler": {
    "name": "solc",
    "version": "0.6.6+commit.6c089d02.Emscripten.clang"
  },
  "schemaVersion": "3.3.2",
  "updatedAt": "2020-12-04T05:13:09.232Z",
  "devdoc": {
    "methods": {
      "createMMI(address,address,address,address,string,string)": {
        "details": "this function uses ABI encoding to properly concatenate AHR- && ALR- in front of the tokens name and symbol before creating each token.*",
        "params": {
          "_assetContractAdd": "is the address of the ERC20 asset being whitelisted",
          "_assetName": "is the name of the asset(e.x: ChainLink)",
          "_assetSymbol": "is the symbol of the asset(e.x: LINK)",
          "_owner": "is the address that will own this contract(The AskoDAO)"
        }
      },
      "owner()": {
        "details": "Returns the address of the current owner."
      },
      "renounceOwnership()": {
        "details": "Leaves the contract without owner. It will not be possible to call `onlyOwner` functions anymore. Can only be called by the current owner.     * NOTE: Renouncing ownership will leave the contract without an owner, thereby removing any functionality that is only available to the owner."
      },
      "transferOwnership(address)": {
        "details": "Transfers ownership of the contract to a new account (`newOwner`). Can only be called by the current owner."
      }
    }
  },
  "userdoc": {
    "methods": {
      "createMMI(address,address,address,address,string,string)": {
        "notice": "the createMMI function is used to initialize the MoneyMakerInstance and deploy its associated AHR && ALR token contracts"
      }
    },
    "notice": "The MoneyMarketFactory contract is designed to produce individual MoneyMarketInstance contracts This contract uses the OpenZeppelin contract Library to inherit functions from Ownable.sol*"
  }
}