{
  "contractName": "MoneyMarketInstance",
  "abi": [
    {
      "inputs": [
        {
          "internalType": "address",
          "name": "_assetContractAdd",
          "type": "address"
        },
        {
          "internalType": "address",
          "name": "_oracleFactory",
          "type": "address"
        },
        {
          "internalType": "address",
          "name": "_owner",
          "type": "address"
        },
        {
          "internalType": "string",
          "name": "_assetName",
          "type": "string"
        },
        {
          "internalType": "string",
          "name": "_assetSymbol",
          "type": "string"
        }
      ],
      "stateMutability": "nonpayable",
      "type": "constructor"
    },
    {
      "anonymous": false,
      "inputs": [
        {
          "indexed": true,
          "internalType": "address",
          "name": "previousOwner",
          "type": "address"
        },
        {
          "indexed": true,
          "internalType": "address",
          "name": "newOwner",
          "type": "address"
        }
      ],
      "name": "OwnershipTransferred",
      "type": "event"
    },
    {
      "inputs": [],
      "name": "AHR",
      "outputs": [
        {
          "internalType": "contract AskoRiskToken",
          "name": "",
          "type": "address"
        }
      ],
      "stateMutability": "view",
      "type": "function"
    },
    {
      "inputs": [],
      "name": "ALR",
      "outputs": [
        {
          "internalType": "contract AskoRiskToken",
          "name": "",
          "type": "address"
        }
      ],
      "stateMutability": "view",
      "type": "function"
    },
    {
      "inputs": [],
      "name": "MMF",
      "outputs": [
        {
          "internalType": "contract MoneyMarketFactoryI",
          "name": "",
          "type": "address"
        }
      ],
      "stateMutability": "view",
      "type": "function"
    },
    {
      "inputs": [],
      "name": "UOF",
      "outputs": [
        {
          "internalType": "contract UniswapOracleFactoryI",
          "name": "",
          "type": "address"
        }
      ],
      "stateMutability": "view",
      "type": "function"
    },
    {
      "inputs": [],
      "name": "asset",
      "outputs": [
        {
          "internalType": "contract IERC20",
          "name": "",
          "type": "address"
        }
      ],
      "stateMutability": "view",
      "type": "function"
    },
    {
      "inputs": [],
      "name": "assetName",
      "outputs": [
        {
          "internalType": "string",
          "name": "",
          "type": "string"
        }
      ],
      "stateMutability": "view",
      "type": "function"
    },
    {
      "inputs": [],
      "name": "assetSymbol",
      "outputs": [
        {
          "internalType": "string",
          "name": "",
          "type": "string"
        }
      ],
      "stateMutability": "view",
      "type": "function"
    },
    {
      "inputs": [],
      "name": "divisor",
      "outputs": [
        {
          "internalType": "uint256",
          "name": "",
          "type": "uint256"
        }
      ],
      "stateMutability": "view",
      "type": "function"
    },
    {
      "inputs": [],
      "name": "feePercent",
      "outputs": [
        {
          "internalType": "uint256",
          "name": "",
          "type": "uint256"
        }
      ],
      "stateMutability": "view",
      "type": "function"
    },
    {
      "inputs": [],
      "name": "fee_AHR",
      "outputs": [
        {
          "internalType": "uint256",
          "name": "",
          "type": "uint256"
        }
      ],
      "stateMutability": "view",
      "type": "function"
    },
    {
      "inputs": [],
      "name": "fee_ALR",
      "outputs": [
        {
          "internalType": "uint256",
          "name": "",
          "type": "uint256"
        }
      ],
      "stateMutability": "view",
      "type": "function"
    },
    {
      "inputs": [],
      "name": "owner",
      "outputs": [
        {
          "internalType": "address",
          "name": "",
          "type": "address"
        }
      ],
      "stateMutability": "view",
      "type": "function"
    },
    {
      "inputs": [],
      "name": "renounceOwnership",
      "outputs": [],
      "stateMutability": "nonpayable",
      "type": "function"
    },
    {
      "inputs": [
        {
          "internalType": "address",
          "name": "newOwner",
          "type": "address"
        }
      ],
      "name": "transferOwnership",
      "outputs": [],
      "stateMutability": "nonpayable",
      "type": "function"
    },
    {
      "inputs": [
        {
          "internalType": "address",
          "name": "_InterestRateModel",
          "type": "address"
        },
        {
          "internalType": "uint256",
          "name": "_fee",
          "type": "uint256"
        },
        {
          "internalType": "uint256",
          "name": "_initialExchangeRate",
          "type": "uint256"
        }
      ],
      "name": "_setUpAHR",
      "outputs": [],
      "stateMutability": "nonpayable",
      "type": "function"
    },
    {
      "inputs": [
        {
          "internalType": "address",
          "name": "_InterestRateModel",
          "type": "address"
        },
        {
          "internalType": "uint256",
          "name": "_fee",
          "type": "uint256"
        },
        {
          "internalType": "uint256",
          "name": "_initialExchangeRate",
          "type": "uint256"
        }
      ],
      "name": "_setUpALR",
      "outputs": [],
      "stateMutability": "nonpayable",
      "type": "function"
    },
    {
      "inputs": [],
      "name": "getAssetAdd",
      "outputs": [
        {
          "internalType": "address",
          "name": "",
          "type": "address"
        }
      ],
      "stateMutability": "view",
      "type": "function"
    },
    {
      "inputs": [
        {
          "internalType": "uint256",
          "name": "_amount",
          "type": "uint256"
        }
      ],
      "name": "lendToAHRpool",
      "outputs": [],
      "stateMutability": "nonpayable",
      "type": "function"
    },
    {
      "inputs": [
        {
          "internalType": "uint256",
          "name": "_amount",
          "type": "uint256"
        }
      ],
      "name": "lendToALRpool",
      "outputs": [],
      "stateMutability": "nonpayable",
      "type": "function"
    },
    {
      "inputs": [
        {
          "internalType": "uint256",
          "name": "_amount",
          "type": "uint256"
        },
        {
          "internalType": "address",
          "name": "_collateral",
          "type": "address"
        }
      ],
      "name": "borrow",
      "outputs": [],
      "stateMutability": "nonpayable",
      "type": "function"
    },
    {
      "inputs": [
        {
          "internalType": "uint256",
          "name": "_repayAmount",
          "type": "uint256"
        }
      ],
      "name": "repay",
      "outputs": [],
      "stateMutability": "nonpayable",
      "type": "function"
    },
    {
      "inputs": [
        {
          "internalType": "uint256",
          "name": "_amount",
          "type": "uint256"
        }
      ],
      "name": "collateralizeALR",
      "outputs": [],
      "stateMutability": "nonpayable",
      "type": "function"
    }
  ],
  "bytecode": "0x60806040523480156200001157600080fd5b506040516200419938038062004199833981810160405260a08110156200003757600080fd5b8151602083015160408085015160608601805192519496939591949391820192846401000000008211156200006b57600080fd5b9083019060208201858111156200008157600080fd5b82516401000000008111828201881017156200009c57600080fd5b82525081516020918201929091019080838360005b83811015620000cb578181015183820152602001620000b1565b50505050905090810190601f168015620000f95780820380516001836020036101000a031916815260200191505b50604052602001805160405193929190846401000000008211156200011d57600080fd5b9083019060208201858111156200013357600080fd5b82516401000000008111828201881017156200014e57600080fd5b82525081516020918201929091019080838360005b838110156200017d57818101518382015260200162000163565b50505050905090810190601f168015620001ab5780820380516001836020036101000a031916815260200191505b506040525050506000620001c46200028860201b60201c565b600080546001600160a01b0319166001600160a01b0383169081178255604051929350917f8be0079c531659141344cd1fd0a4f28419497f9722a3daafe3b4186f6b6457e0908290a3506127106002558151620002299060059060208501906200028d565b5080516200023f9060069060208401906200028d565b5050600b80546001600160a01b039485166001600160a01b031991821617909155600a80549385169382169390931790925550600780549390921692169190911790556200032f565b335b90565b828054600181600116156101000203166002900490600052602060002090601f016020900481019282601f10620002d057805160ff191683800117855562000300565b8280016001018555821562000300579182015b8281111562000300578251825591602001919060010190620002e3565b506200030e92915062000312565b5090565b6200028a91905b808211156200030e576000815560010162000319565b613e5a806200033f6000396000f3fe60806040523480156200001157600080fd5b5060043610620001605760003560e01c80637fd6f15c11620000c9578063cf0aea851162000087578063cf0aea85146200033f578063d162054a146200035f578063dcc716bd1462000369578063f2130c70146200039e578063f2fde38b14620003a8578063f9828b4f14620003d15762000160565b80637fd6f15c146200030d5780638da5cb5b14620003175780639241cef21462000321578063c27d4df3146200032b578063c9230c5d14620003355762000160565b806322b2d402116200012357806322b2d4021462000280578063371fd8e614620002a057806338d52e0f14620002c05780634b3fd14814620002ca5780634c20ac7414620002f9578063715018a614620003035762000160565b806303438def146200016557806311e2c02f1462000187578063176de7a814620001ad5780631f2dc5ef146200022f5780631f432cf5146200024b575b600080fd5b62000185600480360360208110156200017d57600080fd5b5035620003db565b005b62000191620004c3565b604080516001600160a01b039092168252519081900360200190f35b620001b7620004d2565b6040805160208082528351818301528351919283929083019185019080838360005b83811015620001f3578181015183820152602001620001d9565b50505050905090810190601f168015620002215780820380516001836020036101000a031916815260200191505b509250505060405180910390f35b6200023962000564565b60408051918252519081900360200190f35b62000185600480360360608110156200026357600080fd5b506001600160a01b0381351690602081013590604001356200056a565b62000185600480360360208110156200029857600080fd5b5035620008f5565b6200018560048036036020811015620002b857600080fd5b5035620009d7565b6200019162000c44565b6200018560048036036040811015620002e257600080fd5b50803590602001356001600160a01b031662000c53565b6200019162000fcf565b6200018562000fde565b6200023962001095565b620001916200109b565b62000191620010aa565b62000191620010b9565b620001b7620010c8565b62000185600480360360208110156200035757600080fd5b503562001126565b6200019162001208565b62000185600480360360608110156200038157600080fd5b506001600160a01b03813516906020810135906040013562001217565b62000239620015a4565b6200018560048036036020811015620003c057600080fd5b50356001600160a01b0316620015aa565b62000239620016b9565b60095460408051632770a7eb60e21b81523360048201526024810184905290516001600160a01b0390921691639dc29fac9160448082019260009290919082900301818387803b1580156200042f57600080fd5b505af115801562000444573d6000803e3d6000fd5b5050600a546009546040805163152eadbb60e01b81523360048201526001600160a01b03928316602482015260448101879052905191909216935063152eadbb9250606480830192600092919082900301818387803b158015620004a757600080fd5b505af1158015620004bc573d6000803e3d6000fd5b5050505050565b600b546001600160a01b031681565b6006805460408051602060026001851615610100026000190190941693909304601f810184900484028201840190925281815292918301828280156200055c5780601f1062000530576101008083540402835291602001916200055c565b820191906000526020600020905b8154815290600101906020018083116200053e57829003601f168201915b505050505081565b60025481565b600a546001600160a01b031633146200058257600080fd5b60048281556040805163416c522d60e01b6020808301919091528251808303909401845260248201909252825183926005926044019182918501908083835b60208310620005e25780518252601f199092019160209182019101620005c1565b6001836020036101000a038019825116818451168082178552505050505050905001828054600181600116156101000203166002900480156200065f5780601f106200063c5761010080835404028352918201916200065f565b820191906000526020600020905b8154815290600101906020018083116200064a575b50509250505060405160208183030381529060405290506060604051602001808063416c522d60e01b815250600401905060405160208183030381529060405290508060066040516020018083805190602001908083835b60208310620006d85780518252601f199092019160209182019101620006b7565b6001836020036101000a03801982511681845116808217855250505050505090500182805460018160011615610100020316600290048015620007555780601f106200073257610100808354040283529182019162000755565b820191906000526020600020905b81548152906001019060200180831162000740575b505060408051601f1981840301815290829052600754600b549196508795508694508a93506001600160a01b0390811692911690859085906001908b906200079d9062001911565b6001600160a01b038089168252878116602080840191909152908716604083015283151560a083015260c0820183905260e06060830181815287519184019190915286519091608084019161010085019189019080838360005b8381101562000811578181015183820152602001620007f7565b50505050905090810190601f1680156200083f5780820380516001836020036101000a031916815260200191505b50838103825286518152865160209182019188019080838360005b83811015620008745781810151838201526020016200085a565b50505050905090810190601f168015620008a25780820380516001836020036101000a031916815260200191505b509950505050505050505050604051809103906000f080158015620008cb573d6000803e3d6000fd5b50600980546001600160a01b0319166001600160a01b039290921691909117905550505050505050565b600754600954604080516323b872dd60e01b81523360048201526001600160a01b03928316602482015260448101859052905191909216916323b872dd9160648083019260209291908290030181600087803b1580156200095557600080fd5b505af11580156200096a573d6000803e3d6000fd5b505050506040513d60208110156200098157600080fd5b5050600954604080516340c10f1960e01b81523360048201526024810184905290516001600160a01b03909216916340c10f199160448082019260009290919082900301818387803b158015620004a757600080fd5b600954604080516305eff7ef60e21b815233600482015290516000926001600160a01b0316916317bfdfbc91602480830192602092919082900301818787803b15801562000a2457600080fd5b505af115801562000a39573d6000803e3d6000fd5b505050506040513d602081101562000a5057600080fd5b50519050801562000bd85781811062000ad0576009546040805163073a938160e11b81526004810185905290516001600160a01b0390921691630e7527029160248082019260009290919082900301818387803b15801562000ab157600080fd5b505af115801562000ac6573d6000803e3d6000fd5b5050505062000bd2565b600062000ae4838363ffffffff620016bf16565b6009546040805163073a938160e11b81526004810184905290519293506001600160a01b0390911691630e7527029160248082019260009290919082900301818387803b15801562000b3557600080fd5b505af115801562000b4a573d6000803e3d6000fd5b50505050600062000b658285620016bf90919063ffffffff16565b6008546040805163073a938160e11b81526004810184905290519293506001600160a01b0390911691630e7527029160248082019260009290919082900301818387803b15801562000bb657600080fd5b505af115801562000bcb573d6000803e3d6000fd5b5050505050505b62000c40565b6008546040805163073a938160e11b81526004810185905290516001600160a01b0390921691630e7527029160248082019260009290919082900301818387803b15801562000c2657600080fd5b505af115801562000c3b573d6000803e3d6000fd5b505050505b5050565b6007546001600160a01b031681565b600a5460408051634750e71960e01b81523360048201526001600160a01b03848116602483015291516000939290921691634750e7199160448082019260209290919082900301818787803b15801562000cac57600080fd5b505af115801562000cc1573d6000803e3d6000fd5b505050506040513d602081101562000cd857600080fd5b5051600854604080516305eff7ef60e21b815233600482015290519293506000926001600160a01b03909216916317bfdfbc9160248082019260209290919082900301818787803b15801562000d2d57600080fd5b505af115801562000d42573d6000803e3d6000fd5b505050506040513d602081101562000d5957600080fd5b5051600954604080516305eff7ef60e21b815233600482015290519293506000926001600160a01b03909216916317bfdfbc9160248082019260209290919082900301818787803b15801562000dae57600080fd5b505af115801562000dc3573d6000803e3d6000fd5b505050506040513d602081101562000dda57600080fd5b50519050600062000e0462000df6838863ffffffff6200170c16565b849063ffffffff6200170c16565b600b546007546040805163fc57d4df60e01b81526001600160a01b0392831660048201529051939450600093919092169163fc57d4df916024808301926020929190829003018186803b15801562000e5b57600080fd5b505afa15801562000e70573d6000803e3d6000fd5b505050506040513d602081101562000e8757600080fd5b50519050600062000e9f828463ffffffff6200176716565b9050600062000eb682600263ffffffff620017c516565b9050600062000ecc838363ffffffff6200170c16565b90508088101562000edc57600080fd5b600062000ef18b600263ffffffff620017c516565b6008546040805163317afabb60e21b81526004810184905290519293506001600160a01b039091169163c5ebeaec9160248082019260009290919082900301818387803b15801562000f4257600080fd5b505af115801562000f57573d6000803e3d6000fd5b50506009546040805163317afabb60e21b81526004810186905290516001600160a01b03909216935063c5ebeaec925060248082019260009290919082900301818387803b15801562000fa957600080fd5b505af115801562000fbe573d6000803e3d6000fd5b505050505050505050505050505050565b6007546001600160a01b031690565b62000fe862001809565b6000546001600160a01b039081169116146200104b576040805162461bcd60e51b815260206004820181905260248201527f4f776e61626c653a2063616c6c6572206973206e6f7420746865206f776e6572604482015290519081900360640190fd5b600080546040516001600160a01b03909116907f8be0079c531659141344cd1fd0a4f28419497f9722a3daafe3b4186f6b6457e0908390a3600080546001600160a01b0319169055565b60015481565b6000546001600160a01b031690565b6008546001600160a01b031681565b6009546001600160a01b031681565b6005805460408051602060026001851615610100026000190190941693909304601f810184900484028201840190925281815292918301828280156200055c5780601f1062000530576101008083540402835291602001916200055c565b600754600854604080516323b872dd60e01b81523360048201526001600160a01b03928316602482015260448101859052905191909216916323b872dd9160648083019260209291908290030181600087803b1580156200118657600080fd5b505af11580156200119b573d6000803e3d6000fd5b505050506040513d6020811015620011b257600080fd5b5050600854604080516340c10f1960e01b81523360048201526024810184905290516001600160a01b03909216916340c10f199160448082019260009290919082900301818387803b158015620004a757600080fd5b600a546001600160a01b031681565b600a546001600160a01b031633146200122f57600080fd5b600382905560408051634148522d60e01b60208083019190915282518083036004018152602483019093528251839260059260449091019182918501908083835b60208310620012915780518252601f19909201916020918201910162001270565b6001836020036101000a038019825116818451168082178552505050505050905001828054600181600116156101000203166002900480156200130e5780601f10620012eb5761010080835404028352918201916200130e565b820191906000526020600020905b815481529060010190602001808311620012f9575b505092505050604051602081830303815290604052905060606040516020018080634148522d60e01b815250600401905060405160208183030381529060405290508060066040516020018083805190602001908083835b60208310620013875780518252601f19909201916020918201910162001366565b6001836020036101000a03801982511681845116808217855250505050505090500182805460018160011615610100020316600290048015620014045780601f10620013e157610100808354040283529182019162001404565b820191906000526020600020905b815481529060010190602001808311620013ef575b505060408051601f1981840301815290829052600754600b549196508795508694508a93506001600160a01b0390811692911690859085906000908b906200144c9062001911565b6001600160a01b038089168252878116602080840191909152908716604083015283151560a083015260c0820183905260e06060830181815287519184019190915286519091608084019161010085019189019080838360005b83811015620014c0578181015183820152602001620014a6565b50505050905090810190601f168015620014ee5780820380516001836020036101000a031916815260200191505b50838103825286518152865160209182019188019080838360005b838110156200152357818101518382015260200162001509565b50505050905090810190601f168015620015515780820380516001836020036101000a031916815260200191505b509950505050505050505050604051809103906000f0801580156200157a573d6000803e3d6000fd5b50600880546001600160a01b0319166001600160a01b039290921691909117905550505050505050565b60035481565b620015b462001809565b6000546001600160a01b0390811691161462001617576040805162461bcd60e51b815260206004820181905260248201527f4f776e61626c653a2063616c6c6572206973206e6f7420746865206f776e6572604482015290519081900360640190fd5b6001600160a01b0381166200165e5760405162461bcd60e51b815260040180806020018281038252602681526020018062003dde6026913960400191505060405180910390fd5b600080546040516001600160a01b03808516939216917f8be0079c531659141344cd1fd0a4f28419497f9722a3daafe3b4186f6b6457e091a3600080546001600160a01b0319166001600160a01b0392909216919091179055565b60045481565b60006200170383836040518060400160405280601e81526020017f536166654d6174683a207375627472616374696f6e206f766572666c6f7700008152506200180d565b90505b92915050565b60008282018381101562001703576040805162461bcd60e51b815260206004820152601b60248201527f536166654d6174683a206164646974696f6e206f766572666c6f770000000000604482015290519081900360640190fd5b600082620017785750600062001706565b828202828482816200178657fe5b0414620017035760405162461bcd60e51b815260040180806020018281038252602181526020018062003e046021913960400191505060405180910390fd5b60006200170383836040518060400160405280601a81526020017f536166654d6174683a206469766973696f6e206279207a65726f000000000000815250620018a8565b3390565b60008184841115620018a05760405162461bcd60e51b81526004018080602001828103825283818151815260200191508051906020019080838360005b83811015620018645781810151838201526020016200184a565b50505050905090810190601f168015620018925780820380516001836020036101000a031916815260200191505b509250505060405180910390fd5b505050900390565b60008183620018fa5760405162461bcd60e51b8152602060048201818152835160248401528351909283926044909101919085019080838360008315620018645781810151838201526020016200184a565b5060008385816200190757fe5b0495945050505050565b6124be80620019208339019056fe60806040523480156200001157600080fd5b50604051620024be380380620024be833981810160405260e08110156200003757600080fd5b8151602083015160408085015160608601805192519496939591949391820192846401000000008211156200006b57600080fd5b9083019060208201858111156200008157600080fd5b82516401000000008111828201881017156200009c57600080fd5b82525081516020918201929091019080838360005b83811015620000cb578181015183820152602001620000b1565b50505050905090810190601f168015620000f95780820380516001836020036101000a031916815260200191505b50604052602001805160405193929190846401000000008211156200011d57600080fd5b9083019060208201858111156200013357600080fd5b82516401000000008111828201881017156200014e57600080fd5b82525081516020918201929091019080838360005b838110156200017d57818101518382015260200162000163565b50505050905090810190601f168015620001ab5780820380516001836020036101000a031916815260200191505b5060409081526020820151910151909250905082846000620001d56001600160e01b03620002ce16565b600080546001600160a01b0319166001600160a01b0383169081178255604051929350917f8be0079c531659141344cd1fd0a4f28419497f9722a3daafe3b4186f6b6457e0908290a350815162000234906004906020850190620002d3565b5080516200024a906005906020840190620002d3565b50506006805460ff1916600817905550600e80546001600160a01b039788166001600160a01b03199182161790915560108054821633179055600f8054988816988216989098179097556011805495909616949096169390931790935550600d8054911515600160a01b0260ff60a01b199092169190911790555060075562000375565b335b90565b828054600181600116156101000203166002900490600052602060002090601f016020900481019282601f106200031657805160ff191683800117855562000346565b8280016001018555821562000346579182015b828111156200034657825182559160200191906001019062000329565b506200035492915062000358565b5090565b620002d091905b808211156200035457600081556001016200035f565b61213980620003856000396000f3fe608060405234801561001057600080fd5b50600436106102485760003560e01c806373acee981161013b578063aa5af0fd116100b8578063c5ebeaec1161007c578063c5ebeaec14610619578063dd62ed3e14610636578063f2fde38b14610664578063f3fdb15a1461068a578063f8f9da281461069257610248565b8063aa5af0fd146105b5578063ae9d70b0146105bd578063bd6d894d146105c5578063c37f68e2146105cd578063c5d9bf711461061157610248565b806395d89b41116100ff57806395d89b41146105215780639dc29fac14610529578063a457c2d714610555578063a6afed9514610581578063a9059cbb1461058957610248565b806373acee98146104c557806377e4974d146104cd5780638157230b146104d55780638da5cb5b146105115780638f840ddd1461051957610248565b806338d52e0f116101c957806347bd37181161018d57806347bd37181461047f5780634c20ac74146104875780636c540baf1461048f57806370a0823114610497578063715018a6146104bd57610248565b806338d52e0f146103f157806339509351146103f95780633af9e669146104255780633b1d21a21461044b57806340c10f191461045357610248565b806317bfdfbc1161021057806317bfdfbc1461036757806318160ddd1461038d578063230b9da31461039557806323b872dd1461039d578063313ce567146103d357610248565b806306fdde031461024d578063095ea7b3146102ca5780630e7527021461030a57806311e2c02f14610329578063173b99041461034d575b600080fd5b61025561069a565b6040805160208082528351818301528351919283929083019185019080838360005b8381101561028f578181015183820152602001610277565b50505050905090810190601f1680156102bc5780820380516001836020036101000a031916815260200191505b509250505060405180910390f35b6102f6600480360360408110156102e057600080fd5b506001600160a01b038135169060200135610731565b604080519115158252519081900360200190f35b6103276004803603602081101561032057600080fd5b503561074e565b005b610331610920565b604080516001600160a01b039092168252519081900360200190f35b61035561092f565b60408051918252519081900360200190f35b6103556004803603602081101561037d57600080fd5b50356001600160a01b0316610935565b6103556109e1565b6103316109e7565b6102f6600480360360608110156103b357600080fd5b506001600160a01b038135811691602081013590911690604001356109f6565b6103db610a83565b6040805160ff9092168252519081900360200190f35b610331610a8c565b6102f66004803603604081101561040f57600080fd5b506001600160a01b038135169060200135610a9b565b6103556004803603602081101561043b57600080fd5b50356001600160a01b0316610aef565b610355610b4a565b6103276004803603604081101561046957600080fd5b506001600160a01b038135169060200135610b59565b610355610bf0565b610331610bf6565b610355610c05565b610355600480360360208110156104ad57600080fd5b50356001600160a01b0316610c0b565b610327610c26565b610355610cda565b6102f6610ceb565b610327600480360360808110156104eb57600080fd5b506001600160a01b03813581169160208101359091169060408101359060600135610cfb565b610331610e0b565b610355610e1a565b610255610e20565b6103276004803603604081101561053f57600080fd5b506001600160a01b038135169060200135610e81565b6102f66004803603604081101561056b57600080fd5b506001600160a01b038135169060200135610ea6565b610327610f14565b6102f66004803603604081101561059f57600080fd5b506001600160a01b038135169060200135611128565b61035561113c565b610355611142565b6103556111e1565b6105f3600480360360208110156105e357600080fd5b50356001600160a01b031661127d565b60408051938452602084019290925282820152519081900360600190f35b6103316112b3565b6103276004803603602081101561062f57600080fd5b50356112c2565b6103556004803603604081101561064c57600080fd5b506001600160a01b038135811691602001351661144a565b6103276004803603602081101561067a57600080fd5b50356001600160a01b0316611475565b61033161157f565b61035561158e565b60048054604080516020601f60026000196101006001881615020190951694909404938401819004810282018101909252828152606093909290918301828280156107265780601f106106fb57610100808354040283529160200191610726565b820191906000526020600020905b81548152906001019060200180831161070957829003601f168201915b505050505090505b90565b600061074561073e6115f2565b84846115f6565b50600192915050565b6010546001600160a01b0316331461076557600080fd5b61076d610f14565b6107756116e2565b6009541461078257600080fd5b61078a611ee4565b336000818152601260205260409081902060010154908301526107ac90610935565b60608201526000198214156107ca57606081015160208201526107d2565b602081018290525b600e54604080516323b872dd60e01b81523360048201523060248201526044810185905290516001600160a01b03909216916323b872dd916064808201926020929091908290030181600087803b15801561082c57600080fd5b505af1158015610840573d6000803e3d6000fd5b505050506040513d602081101561085657600080fd5b50506060810151602082015161086c91906116e6565b608083018190528282600381111561088057fe5b600381111561088b57fe5b905250600090508151600381111561089f57fe5b146108a957600080fd5b6108b9600b5482602001516116e6565b60a08301819052828260038111156108cd57fe5b60038111156108d857fe5b90525060009050815160038111156108ec57fe5b146108f657600080fd5b6080810151336000908152601260205260409020908155600a5460019091015560a00151600b5550565b6011546001600160a01b031681565b60085481565b600061093f610f14565b6001600160a01b038216600090815260126020526040812080548291829161096e5760009450505050506109dc565b61097e8160000154600a5461170c565b9094509250600084600381111561099157fe5b146109a35760009450505050506109dc565b6109b183826001015461174b565b909450915060008460038111156109c457fe5b146109d65760009450505050506109dc565b50925050505b919050565b60035490565b600d546001600160a01b031681565b6000610a03848484611776565b610a7984610a0f6115f2565b610a748560405180606001604052806028815260200161202d602891396001600160a01b038a16600090815260026020526040812090610a4d6115f2565b6001600160a01b03168152602081019190915260400160002054919063ffffffff6118cd16565b6115f6565b5060019392505050565b60065460ff1690565b600e546001600160a01b031681565b6000610745610aa86115f2565b84610a748560026000610ab96115f2565b6001600160a01b03908116825260208083019390935260409182016000908120918c16815292529020549063ffffffff61196416565b6000610af9611f1b565b6040518060200160405280610b0c6111e1565b90529050600080610b2583610b2087610c0b565b6119c5565b90925090506000826003811115610b3857fe5b14610b4257600080fd5b949350505050565b6000610b54611a18565b905090565b6010546001600160a01b03163314610b7057600080fd5b610b78611f2e565b610b806111e1565b602080830191825260408051918201905290518152610ba0908390611a63565b6040830181905282826003811115610bb457fe5b6003811115610bbf57fe5b9052506000905081516003811115610bd357fe5b14610bdd57600080fd5b610beb838260400151611a7a565b505050565b600b5481565b600e546001600160a01b031690565b60095481565b6001600160a01b031660009081526001602052604090205490565b610c2e6115f2565b6000546001600160a01b03908116911614610c90576040805162461bcd60e51b815260206004820181905260248201527f4f776e61626c653a2063616c6c6572206973206e6f7420746865206f776e6572604482015290519081900360640190fd5b600080546040516001600160a01b03909116907f8be0079c531659141344cd1fd0a4f28419497f9722a3daafe3b4186f6b6457e0908390a3600080546001600160a01b0319169055565b6000610ce4610f14565b50600b5490565b600d54600160a01b900460ff1681565b60105460408051638da5cb5b60e01b8152905133926001600160a01b031691638da5cb5b916004808301926020929190829003018186803b158015610d3f57600080fd5b505afa158015610d53573d6000803e3d6000fd5b505050506040513d6020811015610d6957600080fd5b50516001600160a01b031614610d7e57600080fd5b601154600e546040805163f0defe9360e01b81526001600160a01b0392831660048201528783166024820152868316604482015260648101869052608481018590529051919092169163f0defe939160a480830192600092919082900301818387803b158015610ded57600080fd5b505af1158015610e01573d6000803e3d6000fd5b5050505050505050565b6000546001600160a01b031690565b600c5481565b60058054604080516020601f60026000196101006001881615020190951694909404938401819004810282018101909252828152606093909290918301828280156107265780601f106106fb57610100808354040283529160200191610726565b6010546001600160a01b03163314610e9857600080fd5b610ea28282611b66565b5050565b6000610745610eb36115f2565b84610a74856040518060600160405280602581526020016120df6025913960026000610edd6115f2565b6001600160a01b03908116825260208083019390935260409182016000908120918d1681529252902054919063ffffffff6118cd16565b6000610f1e6116e2565b60095490915080821415610f3157600080fd5b6000610f3b611a18565b600b54600c54600a54600f54604080516315f2405360e01b815260048101879052602481018690526044810185905290519596509394929391926000926001600160a01b03909216916315f24053916064808301926020929190829003018186803b158015610fa957600080fd5b505afa158015610fbd573d6000803e3d6000fd5b505050506040513d6020811015610fd357600080fd5b5051905065048c27395000811115610fea57600080fd5b600080610ff789896116e6565b9092509050600082600381111561100a57fe5b1461101457600080fd5b61101c611f1b565b60008060008061103a60405180602001604052808a81525087611c5c565b9097509450600087600381111561104d57fe5b1461105757600080fd5b611061858c6119c5565b9097509350600087600381111561107457fe5b1461107e57600080fd5b611088848c611cc4565b9097509250600087600381111561109b57fe5b146110a557600080fd5b6110c06040518060200160405280600854815250858c611cea565b909750915060008760038111156110d357fe5b14156110de57600080fd5b6110e9858a8b611cea565b909750905060008760038111156110fc57fe5b141561110757600080fd5b60099d909d55600a9c909c55600b55505050600c9790975550505050505050565b60006107456111356115f2565b8484611776565b600a5481565b600f546000906001600160a01b031663b816881661115e611a18565b600b54600c546008546040518563ffffffff1660e01b81526004018085815260200184815260200183815260200182815260200194505050505060206040518083038186803b1580156111b057600080fd5b505afa1580156111c4573d6000803e3d6000fd5b505050506040513d60208110156111da57600080fd5b5051905090565b60006111eb610f14565b6111f36109e1565b611200575060075461072e565b600061120a611a18565b90506000611216611f1b565b600061122784600b54600c54611d46565b93509050600081600381111561123957fe5b1461124357600080fd5b6112548361124f6109e1565b611d84565b92509050600081600381111561126657fe5b141561127157600080fd5b5051925061072e915050565b60008060008061128c85610c0b565b9050600061129986610935565b905060006112a56111e1565b929791965091945092505050565b6010546001600160a01b031681565b6010546001600160a01b031633146112d957600080fd5b6112e1610f14565b806112ea611a18565b116112f457600080fd5b6112fc611f50565b61130533610935565b602082018190526113169083611cc4565b604083018190528282600381111561132a57fe5b600381111561133557fe5b905250600090508151600381111561134957fe5b1461135357600080fd5b61135f600b5483611cc4565b606083018190528282600381111561137357fe5b600381111561137e57fe5b905250600090508151600381111561139257fe5b1461139c57600080fd5b60408181015133600081815260126020908152848220938455600a546001909401939093556060850151600b55600e54845163a9059cbb60e01b815260048101939093526024830187905293516001600160a01b039094169363a9059cbb936044808501949193918390030190829087803b15801561141a57600080fd5b505af115801561142e573d6000803e3d6000fd5b505050506040513d602081101561144457600080fd5b50505050565b6001600160a01b03918216600090815260026020908152604080832093909416825291909152205490565b61147d6115f2565b6000546001600160a01b039081169116146114df576040805162461bcd60e51b815260206004820181905260248201527f4f776e61626c653a2063616c6c6572206973206e6f7420746865206f776e6572604482015290519081900360640190fd5b6001600160a01b0381166115245760405162461bcd60e51b8152600401808060200182810382526026815260200180611fbf6026913960400191505060405180910390fd5b600080546040516001600160a01b03808516939216917f8be0079c531659141344cd1fd0a4f28419497f9722a3daafe3b4186f6b6457e091a3600080546001600160a01b0319166001600160a01b0392909216919091179055565b600f546001600160a01b031681565b600f546000906001600160a01b03166315f240536115aa611a18565b600b54600c546040518463ffffffff1660e01b815260040180848152602001838152602001828152602001935050505060206040518083038186803b1580156111b057600080fd5b3390565b6001600160a01b03831661163b5760405162461bcd60e51b81526004018080602001828103825260248152602001806120bb6024913960400191505060405180910390fd5b6001600160a01b0382166116805760405162461bcd60e51b8152600401808060200182810382526022815260200180611fe56022913960400191505060405180910390fd5b6001600160a01b03808416600081815260026020908152604080832094871680845294825291829020859055815185815291517f8c5be1e5ebec7d5bd14f71427d1e84f3dd0314c0f7b2291e5b200ac8c7c3b9259281900390910190a3505050565b4390565b6000808383116116fd575060009050818303611705565b506003905060005b9250929050565b6000808361171f57506000905080611705565b8383028385828161172c57fe5b041461174057506002915060009050611705565b600092509050611705565b6000808261175f5750600190506000611705565b600083858161176a57fe5b04915091509250929050565b6001600160a01b0383166117bb5760405162461bcd60e51b81526004018080602001828103825260258152602001806120966025913960400191505060405180910390fd5b6001600160a01b0382166118005760405162461bcd60e51b8152600401808060200182810382526023815260200180611f7a6023913960400191505060405180910390fd5b61180b838383610beb565b61184e81604051806060016040528060268152602001612007602691396001600160a01b038616600090815260016020526040902054919063ffffffff6118cd16565b6001600160a01b038085166000908152600160205260408082209390935590841681522054611883908263ffffffff61196416565b6001600160a01b03808416600081815260016020908152604091829020949094558051858152905191939287169260008051602061205583398151915292918290030190a3505050565b6000818484111561195c5760405162461bcd60e51b81526004018080602001828103825283818151815260200191508051906020019080838360005b83811015611921578181015183820152602001611909565b50505050905090810190601f16801561194e5780820380516001836020036101000a031916815260200191505b509250505060405180910390fd5b505050900390565b6000828201838110156119be576040805162461bcd60e51b815260206004820152601b60248201527f536166654d6174683a206164646974696f6e206f766572666c6f770000000000604482015290519081900360640190fd5b9392505050565b60008060006119d2611f1b565b6119dc8686611c5c565b909250905060008260038111156119ef57fe5b14611a005750915060009050611705565b6000611a0b82611e34565b9350935050509250929050565b600e54604080516370a0823160e01b815230600482015290516000926001600160a01b0316916370a08231916024808301926020929190829003018186803b1580156111b057600080fd5b6000806000611a70611f1b565b6119dc8686611e43565b6001600160a01b038216611ad5576040805162461bcd60e51b815260206004820152601f60248201527f45524332303a206d696e7420746f20746865207a65726f206164647265737300604482015290519081900360640190fd5b611ae160008383610beb565b600354611af4908263ffffffff61196416565b6003556001600160a01b038216600090815260016020526040902054611b20908263ffffffff61196416565b6001600160a01b03831660008181526001602090815260408083209490945583518581529351929391926000805160206120558339815191529281900390910190a35050565b6001600160a01b038216611bab5760405162461bcd60e51b81526004018080602001828103825260218152602001806120756021913960400191505060405180910390fd5b611bb782600083610beb565b611bfa81604051806060016040528060228152602001611f9d602291396001600160a01b038516600090815260016020526040902054919063ffffffff6118cd16565b6001600160a01b038316600090815260016020526040902055600354611c26908263ffffffff611ea216565b6003556040805182815290516000916001600160a01b038516916000805160206120558339815191529181900360200190a35050565b6000611c66611f1b565b600080611c7786600001518661170c565b90925090506000826003811115611c8a57fe5b14611ca957506040805160208101909152600081529092509050611705565b60408051602081019091529081526000969095509350505050565b600080838301848110611cdc57600092509050611705565b506002915060009050611705565b6000806000611cf7611f1b565b611d018787611c5c565b90925090506000826003811115611d1457fe5b14611d255750915060009050611d3e565b611d37611d3182611e34565b86611cc4565b9350935050505b935093915050565b600080600080611d568787611cc4565b90925090506000826003811115611d6957fe5b14611d7a5750915060009050611d3e565b611d3781866116e6565b6000611d8e611f1b565b600080611da386670de0b6b3a764000061170c565b90925090506000826003811115611db657fe5b14611dd557506040805160208101909152600081529092509050611705565b600080611de2838861174b565b90925090506000826003811115611df557fe5b14611e1757506040805160208101909152600081529094509250611705915050565b604080516020810190915290815260009890975095505050505050565b51670de0b6b3a7640000900490565b6000611e4d611f1b565b600080611e62670de0b6b3a76400008761170c565b90925090506000826003811115611e7557fe5b14611e9457506040805160208101909152600081529092509050611705565b611a0b818660000151611d84565b60006119be83836040518060400160405280601e81526020017f536166654d6174683a207375627472616374696f6e206f766572666c6f7700008152506118cd565b6040805160c08101909152806000815260200160008152602001600081526020016000815260200160008152602001600081525090565b6040518060200160405280600081525090565b6040805160608101909152806000815260200160008152602001600081525090565b60408051608081019091528060008152602001600081526020016000815260200160008152509056fe45524332303a207472616e7366657220746f20746865207a65726f206164647265737345524332303a206275726e20616d6f756e7420657863656564732062616c616e63654f776e61626c653a206e6577206f776e657220697320746865207a65726f206164647265737345524332303a20617070726f766520746f20746865207a65726f206164647265737345524332303a207472616e7366657220616d6f756e7420657863656564732062616c616e636545524332303a207472616e7366657220616d6f756e74206578636565647320616c6c6f77616e6365ddf252ad1be2c89b69c2b068fc378daa952ba7f163c4a11628f55a4df523b3ef45524332303a206275726e2066726f6d20746865207a65726f206164647265737345524332303a207472616e736665722066726f6d20746865207a65726f206164647265737345524332303a20617070726f76652066726f6d20746865207a65726f206164647265737345524332303a2064656372656173656420616c6c6f77616e63652062656c6f77207a65726fa2646970667358221220b545274253963141ea1b65cf3cb09c2a217a18ca6540dc17074f2aae6411cd7964736f6c634300060200334f776e61626c653a206e6577206f776e657220697320746865207a65726f2061646472657373536166654d6174683a206d756c7469706c69636174696f6e206f766572666c6f77a26469706673582212200d6e188843fa86cdf352ed5deac693da882c1dd29297f64276aa8d7c45a6f5d064736f6c63430006020033",
  "source": "pragma solidity ^0.6.0;\n\nimport \"@openzeppelin/contracts/access/Ownable.sol\";\nimport \"@openzeppelin/contracts/math/SafeMath.sol\";\nimport \"@openzeppelin/contracts/token/ERC20/IERC20.sol\";\nimport \"./compound/Exponential.sol\";\nimport \"./interfaces/UniswapOracleFactoryI.sol\";\nimport \"./interfaces/MoneyMarketFactoryI.sol\";\nimport \"./AskoRiskToken.sol\";\n////////////////////////////////////////////////////////////////////////////////////////////\n/// @title MoneyMarketInstance\n/// @author Christopher Dixon\n////////////////////////////////////////////////////////////////////////////////////////////\n/**\nThe MoneyMarketInstance contract is designed facilitate a tiered money market for an individual ERC20 asset\nThis contract uses the OpenZeppelin contract Library to inherit functions from\n  Ownable.sol && IRC20.sol\n**/\ncontract MoneyMarketInstance is Ownable, Exponential {\n    using SafeMath for uint256;\n\n  uint public feePercent;\n  uint public divisor;\n  uint public fee_AHR;\n  uint public fee_ALR;\n\n\n\n  string public assetName;\n  string public assetSymbol;\n\n\n  IERC20 public asset;\n  AskoRiskToken public AHR;\n  AskoRiskToken public ALR;\n  MoneyMarketFactoryI public MMF;\n  UniswapOracleFactoryI public UOF;\n\n\n\n/**\n@notice onlyMMFactory is a modifier used to make a function only callable by the Money Market Factory contract\n**/\n  modifier onlyMMFactory()  {\n    require(msg.sender == address(MMF));\n    _;\n  }\n\n\n/**\n@notice the constructor function is fired during the contract deployment process. The constructor can only be fired once and\n        is used to initialize the MoneyMakerInstance and deploy its associated AHR && ALR token contracts\n@param _assetContractAdd is the address of the ERC20 asset being whitelisted\n@param _assetName is the name of the asset(e.x: ChainLink)\n@param _assetSymbol is the symbol of the asset(e.x: LINK)\n@dev this function uses ABI encoding to properly concatenate AHR- && ALR- in front of the tokens name and symbol\n      before creating each token.\n**/\n  constructor (\n    address _assetContractAdd,\n    address _oracleFactory,\n    address _owner,\n\t\tstring memory _assetName,\n\t\tstring memory _assetSymbol\n  )\n  public\n  {\n  divisor = 10000;\n  assetName = _assetName;\n  assetSymbol = _assetSymbol;\n  UOF = UniswapOracleFactoryI(_oracleFactory);\n  MMF = MoneyMarketFactoryI(_owner);\n  asset = IERC20(_assetContractAdd);\n  }\n\n/**\n@notice setUp is called by the MoneyMarketFactory after a contract is created to set up the initial variables.\n        This is split from the constructor function to keep from reaching the gas block limit\n@param  _InterestRateModel is the address of this MoneyMarketInstances InterestRateModel\n@param _fee is a number representing the fee for exchanging an AHR token, as a mantissa (scaled by 1e18)\n@dev this function will create a token whos name and symbol is concatenated with a \"AHR-\" in front of it\n      example: AHR-LINK\n@dev asset.approve() is called to allow the AHR contract to freeely transfer the assset from this contract when the mint\n      lendToAHRpool function is called.\n**/\nfunction _setUpAHR(\n    address _InterestRateModel,\n    uint _fee,\n    uint _initialExchangeRate\n  )\n  public\n  onlyMMFactory\n  {\n  fee_AHR = _fee;\n  bytes memory ahrname = abi.encodePacked(\"AHR-\");\n  ahrname = abi.encodePacked(ahrname, assetName);\n\n  bytes memory ahrsymbol = abi.encodePacked(\"AHR-\");\n  ahrsymbol = abi.encodePacked(ahrsymbol, assetSymbol);\n\n  string memory assetNameAHR = string(ahrname);\n  string memory assetSymbolAHR = string(ahrsymbol);\n\n  AHR = new AskoRiskToken(\n    _InterestRateModel,\n    address(asset),\n    address(UOF),\n    assetNameAHR,\n    assetSymbolAHR,\n    false,\n    _initialExchangeRate\n  );\n  }\n\n/**\n@notice setUp is called by the MoneyMarketFactory after a contract is created to set up the initial variables.\n        This is split from the constructor function to keep from reaching the gas block limit\n@param  _InterestRateModel is the address of this MoneyMarketInstances InterestRateModel\n@param _fee is a number representing the fee for exchanging an ALR token, as a mantissa (scaled by 1e18)\n@dev this function will create a token whos name and symbol is concatenated with a \"ALR-\" in front of it\n      example: ALR-LINK\n@dev asset.approve() is called to allow the ALR contract to freeely transfer the assset from this contract when the mint\n      lendToALRpool function is called.\n**/\n  function _setUpALR(\n      address _InterestRateModel,\n      uint256 _fee,\n      uint _initialExchangeRate\n    )\n    public\n    onlyMMFactory\n    {\n    fee_ALR = _fee;\n    bytes memory alrname = abi.encodePacked(\"AlR-\");\n    alrname = abi.encodePacked(alrname, assetName);\n\n    bytes memory alrsymbol = abi.encodePacked(\"AlR-\");\n    alrsymbol = abi.encodePacked(alrsymbol, assetSymbol);\n\n    string memory assetNameALR = string(alrname);\n    string memory assetSymbolALR = string(alrsymbol);\n\n    ALR = new AskoRiskToken(\n      _InterestRateModel,\n      address(asset),\n      address(UOF),\n      assetNameALR,\n      assetSymbolALR,\n      true,\n      _initialExchangeRate\n    );\n    }\n\n\n/**\n@notice getAssetAdd allows for easy retrieval of a Money Markets underlying asset's address\n**/\n\n  function getAssetAdd() public view returns (address) {\n    return address(asset);\n  }\n/**\n@notice lendToAHRpool is used to lend assets to a MoneyMarketInstance's High Risk pool\n@param _amount is the amount of the asset being lent\n@dev the user will need to first approve the transfer of the underlying asset\n**/\n  function lendToAHRpool(uint _amount) public {\n    //transfer appropriate amount off the asset from msg.sender to the AHR contract\n    asset.transferFrom(msg.sender, address(AHR), _amount);\n    //call mint function on AHR contract\n    AHR.mint(msg.sender, _amount);\n  }\n\n/**\n@notice lendToAHRpool is used to lend assets to a MoneyMarketInstance's Low Risk pool\n@param _amount is the amount of the asset being lent\n@dev the user will need to first approve the transfer of the underlying asset\n**/\n    function lendToALRpool(uint _amount) public {\n      //transfer appropriate amount off the asset from msg.sender to the AHR contract\n      asset.transferFrom(msg.sender, address(ALR), _amount);\n      //call mint function on ALR contract\n      ALR.mint(msg.sender, _amount);\n    }\n\n\n/**\n@notice borrow is used to take out a loan from in MoneyMarketInstance's underlying asset\n@param _amount is the amount of asset being barrowed\n**/\n  function borrow(uint _amount, address _collateral) public {\n    //check that the user has enough collateral in input moeny market\n    uint collateralValue = MMF.checkCollateralValue(msg.sender, _collateral);\n    //get current borrow balances for each ART\n    uint borrowBalAHR = AHR.borrowBalanceCurrent(msg.sender);\n    uint borrowBalALR = ALR.borrowBalanceCurrent(msg.sender);\n    //calculate the new amount that would be owed if borrow suceeds\n    uint totalFutureAmountOwed = borrowBalAHR.add(borrowBalALR.add(_amount));\n    //check current asset price\n    uint priceOfAsset = UOF.getUnderlyingPrice(address(asset));\n    //get the usd price value of _amount\n    uint assetAmountValOwed = priceOfAsset.mul(totalFutureAmountOwed);\n    //divide amount value by 3\n    uint halfVal = assetAmountValOwed.div(2);\n    //add 1/2 value to asset value to get 150% asset value\n    uint collateralNeeded = assetAmountValOwed.add(halfVal);\n    //require collateral value to be greater than 150% of the amount value of loan\n    require(collateralValue >= collateralNeeded);\n    //cut amount of tokens in half\n    uint half = _amount.div(2);\n    //borrow half from each pool\n    AHR.borrow(half);\n    ALR.borrow(half);\n  }\n\n/**\n@notice repay is used to repay a loan\n@param _repayAmount is the amount of the underlying asset being repayed\n**/\n\tfunction repay(uint _repayAmount) public {\n    //get their current owed balance of ALR\n    uint accountBorrowsALR = ALR.borrowBalanceCurrent(msg.sender);\n\n    if(accountBorrowsALR != 0) { //if amount owed to ALR isnt zero\n          if(accountBorrowsALR >= _repayAmount) { //check if repay amount is greater than ALR borrow balance\n            ALR.repayBorrow(_repayAmount); //if it is repay amount to ALR\n          } else { //if not\n            uint amountToALR = _repayAmount.sub(accountBorrowsALR); //calculate amSount needed to pay off ALR\n             ALR.repayBorrow(amountToALR); //pay off ALR\n            uint amountToAHR = _repayAmount.sub(amountToALR);//calculate AHR amount\n          AHR.repayBorrow(amountToAHR); //pay off towards AHR\n          }\n    } else {//if amount owed to ALR IS zero\n      AHR.repayBorrow(_repayAmount);//pay towards AHR\n    }\n  }\n\n\n\n/**\n@notice collateralizeALR allows a user to collateralize the ALR they hold in a specific money market\n@param _amount is the amount of ALR being collateralized\n**/\n   function collateralizeALR(uint _amount) public {\n     ALR.burn(msg.sender, _amount);\n     MMF.trackCollateral(msg.sender, address(ALR), _amount);\n   }\n\n\n\n}\n",
  "sourcePath": "/home/stan36/repos/Askolend/AskoLend-contracts/contracts/MoneyMarketInstance.sol",
  "compiler": {
    "name": "solc",
    "version": "0.6.2+commit.bacdbe57.Emscripten.clang"
  },
  "schemaVersion": "3.2.5",
  "updatedAt": "2020-10-08T02:00:16.312Z",
  "devdoc": {
    "methods": {
      "_setUpAHR(address,uint256,uint256)": {
        "details": "this function will create a token whos name and symbol is concatenated with a \"AHR-\" in front of it example: AHR-LINKasset.approve() is called to allow the AHR contract to freeely transfer the assset from this contract when the mint lendToAHRpool function is called.*",
        "params": {
          "_InterestRateModel": "is the address of this MoneyMarketInstances InterestRateModel",
          "_fee": "is a number representing the fee for exchanging an AHR token, as a mantissa (scaled by 1e18)"
        }
      },
      "_setUpALR(address,uint256,uint256)": {
        "details": "this function will create a token whos name and symbol is concatenated with a \"ALR-\" in front of it example: ALR-LINKasset.approve() is called to allow the ALR contract to freeely transfer the assset from this contract when the mint lendToALRpool function is called.*",
        "params": {
          "_InterestRateModel": "is the address of this MoneyMarketInstances InterestRateModel",
          "_fee": "is a number representing the fee for exchanging an ALR token, as a mantissa (scaled by 1e18)"
        }
      },
      "borrow(uint256,address)": {
        "params": {
          "_amount": "is the amount of asset being barrowed*"
        }
      },
      "collateralizeALR(uint256)": {
        "params": {
          "_amount": "is the amount of ALR being collateralized*"
        }
      },
      "constructor": {
        "details": "this function uses ABI encoding to properly concatenate AHR- && ALR- in front of the tokens name and symbol before creating each token.*",
        "params": {
          "_assetContractAdd": "is the address of the ERC20 asset being whitelisted",
          "_assetName": "is the name of the asset(e.x: ChainLink)",
          "_assetSymbol": "is the symbol of the asset(e.x: LINK)"
        }
      },
      "lendToAHRpool(uint256)": {
        "details": "the user will need to first approve the transfer of the underlying asset*",
        "params": {
          "_amount": "is the amount of the asset being lent"
        }
      },
      "lendToALRpool(uint256)": {
        "details": "the user will need to first approve the transfer of the underlying asset*",
        "params": {
          "_amount": "is the amount of the asset being lent"
        }
      },
      "owner()": {
        "details": "Returns the address of the current owner."
      },
      "renounceOwnership()": {
        "details": "Leaves the contract without owner. It will not be possible to call `onlyOwner` functions anymore. Can only be called by the current owner.     * NOTE: Renouncing ownership will leave the contract without an owner, thereby removing any functionality that is only available to the owner."
      },
      "repay(uint256)": {
        "params": {
          "_repayAmount": "is the amount of the underlying asset being repayed*"
        }
      },
      "transferOwnership(address)": {
        "details": "Transfers ownership of the contract to a new account (`newOwner`). Can only be called by the current owner."
      }
    }
  },
  "userdoc": {
    "methods": {
      "_setUpAHR(address,uint256,uint256)": {
        "notice": "setUp is called by the MoneyMarketFactory after a contract is created to set up the initial variables. This is split from the constructor function to keep from reaching the gas block limit"
      },
      "_setUpALR(address,uint256,uint256)": {
        "notice": "setUp is called by the MoneyMarketFactory after a contract is created to set up the initial variables. This is split from the constructor function to keep from reaching the gas block limit"
      },
      "borrow(uint256,address)": {
        "notice": "borrow is used to take out a loan from in MoneyMarketInstance's underlying asset"
      },
      "collateralizeALR(uint256)": {
        "notice": "collateralizeALR allows a user to collateralize the ALR they hold in a specific money market"
      },
      "constructor": "the constructor function is fired during the contract deployment process. The constructor can only be fired once and is used to initialize the MoneyMakerInstance and deploy its associated AHR && ALR token contracts",
      "getAssetAdd()": {
        "notice": "getAssetAdd allows for easy retrieval of a Money Markets underlying asset's address*"
      },
      "lendToAHRpool(uint256)": {
        "notice": "lendToAHRpool is used to lend assets to a MoneyMarketInstance's High Risk pool"
      },
      "lendToALRpool(uint256)": {
        "notice": "lendToAHRpool is used to lend assets to a MoneyMarketInstance's Low Risk pool"
      },
      "repay(uint256)": {
        "notice": "repay is used to repay a loan"
      }
    },
    "notice": "The MoneyMarketInstance contract is designed facilitate a tiered money market for an individual ERC20 asset This contract uses the OpenZeppelin contract Library to inherit functions from Ownable.sol && IRC20.sol*"
  }
}