{
  "contractName": "MoneyMarketInstance",
  "abi": [
    {
      "inputs": [
        {
          "internalType": "address",
          "name": "_assetContractAdd",
          "type": "address"
        },
        {
          "internalType": "address",
          "name": "_oracleFactory",
          "type": "address"
        },
        {
          "internalType": "address",
          "name": "_owner",
          "type": "address"
        },
        {
          "internalType": "address",
          "name": "_ARTF",
          "type": "address"
        },
        {
          "internalType": "string",
          "name": "_assetName",
          "type": "string"
        },
        {
          "internalType": "string",
          "name": "_assetSymbol",
          "type": "string"
        }
      ],
      "stateMutability": "nonpayable",
      "type": "constructor"
    },
    {
      "anonymous": false,
      "inputs": [
        {
          "indexed": false,
          "internalType": "address",
          "name": "borrower",
          "type": "address"
        },
        {
          "indexed": false,
          "internalType": "uint256",
          "name": "AHRamount",
          "type": "uint256"
        },
        {
          "indexed": false,
          "internalType": "uint256",
          "name": "ALRamount",
          "type": "uint256"
        }
      ],
      "name": "Borrow",
      "type": "event"
    },
    {
      "anonymous": false,
      "inputs": [
        {
          "indexed": false,
          "internalType": "address",
          "name": "collateralizer",
          "type": "address"
        },
        {
          "indexed": false,
          "internalType": "uint256",
          "name": "amount",
          "type": "uint256"
        }
      ],
      "name": "Collateralized",
      "type": "event"
    },
    {
      "anonymous": false,
      "inputs": [
        {
          "indexed": false,
          "internalType": "address",
          "name": "lender",
          "type": "address"
        },
        {
          "indexed": false,
          "internalType": "uint256",
          "name": "amount",
          "type": "uint256"
        }
      ],
      "name": "LentToAHR",
      "type": "event"
    },
    {
      "anonymous": false,
      "inputs": [
        {
          "indexed": false,
          "internalType": "address",
          "name": "lender",
          "type": "address"
        },
        {
          "indexed": false,
          "internalType": "uint256",
          "name": "amount",
          "type": "uint256"
        }
      ],
      "name": "LentToALR",
      "type": "event"
    },
    {
      "anonymous": false,
      "inputs": [
        {
          "indexed": true,
          "internalType": "address",
          "name": "previousOwner",
          "type": "address"
        },
        {
          "indexed": true,
          "internalType": "address",
          "name": "newOwner",
          "type": "address"
        }
      ],
      "name": "OwnershipTransferred",
      "type": "event"
    },
    {
      "anonymous": false,
      "inputs": [
        {
          "indexed": false,
          "internalType": "address",
          "name": "borrower",
          "type": "address"
        },
        {
          "indexed": false,
          "internalType": "uint256",
          "name": "AHRamount",
          "type": "uint256"
        },
        {
          "indexed": false,
          "internalType": "uint256",
          "name": "ALRamount",
          "type": "uint256"
        }
      ],
      "name": "Repayed",
      "type": "event"
    },
    {
      "inputs": [],
      "name": "AHR",
      "outputs": [
        {
          "internalType": "contract AskoRiskTokenI",
          "name": "",
          "type": "address"
        }
      ],
      "stateMutability": "view",
      "type": "function"
    },
    {
      "inputs": [],
      "name": "ALR",
      "outputs": [
        {
          "internalType": "contract AskoRiskTokenI",
          "name": "",
          "type": "address"
        }
      ],
      "stateMutability": "view",
      "type": "function"
    },
    {
      "inputs": [],
      "name": "ARTF",
      "outputs": [
        {
          "internalType": "contract ARTFactoryI",
          "name": "",
          "type": "address"
        }
      ],
      "stateMutability": "view",
      "type": "function"
    },
    {
      "inputs": [],
      "name": "MMF",
      "outputs": [
        {
          "internalType": "contract MoneyMarketFactoryI",
          "name": "",
          "type": "address"
        }
      ],
      "stateMutability": "view",
      "type": "function"
    },
    {
      "inputs": [],
      "name": "UOF",
      "outputs": [
        {
          "internalType": "contract UniswapOracleFactoryI",
          "name": "",
          "type": "address"
        }
      ],
      "stateMutability": "view",
      "type": "function"
    },
    {
      "inputs": [],
      "name": "ahr",
      "outputs": [
        {
          "internalType": "address",
          "name": "",
          "type": "address"
        }
      ],
      "stateMutability": "view",
      "type": "function"
    },
    {
      "inputs": [],
      "name": "alr",
      "outputs": [
        {
          "internalType": "address",
          "name": "",
          "type": "address"
        }
      ],
      "stateMutability": "view",
      "type": "function"
    },
    {
      "inputs": [],
      "name": "asset",
      "outputs": [
        {
          "internalType": "contract IERC20",
          "name": "",
          "type": "address"
        }
      ],
      "stateMutability": "view",
      "type": "function"
    },
    {
      "inputs": [],
      "name": "assetName",
      "outputs": [
        {
          "internalType": "string",
          "name": "",
          "type": "string"
        }
      ],
      "stateMutability": "view",
      "type": "function"
    },
    {
      "inputs": [],
      "name": "assetSymbol",
      "outputs": [
        {
          "internalType": "string",
          "name": "",
          "type": "string"
        }
      ],
      "stateMutability": "view",
      "type": "function"
    },
    {
      "inputs": [],
      "name": "divisor",
      "outputs": [
        {
          "internalType": "uint256",
          "name": "",
          "type": "uint256"
        }
      ],
      "stateMutability": "view",
      "type": "function"
    },
    {
      "inputs": [],
      "name": "fee_AHR",
      "outputs": [
        {
          "internalType": "uint256",
          "name": "",
          "type": "uint256"
        }
      ],
      "stateMutability": "view",
      "type": "function"
    },
    {
      "inputs": [],
      "name": "fee_ALR",
      "outputs": [
        {
          "internalType": "uint256",
          "name": "",
          "type": "uint256"
        }
      ],
      "stateMutability": "view",
      "type": "function"
    },
    {
      "inputs": [],
      "name": "owner",
      "outputs": [
        {
          "internalType": "address",
          "name": "",
          "type": "address"
        }
      ],
      "stateMutability": "view",
      "type": "function"
    },
    {
      "inputs": [],
      "name": "renounceOwnership",
      "outputs": [],
      "stateMutability": "nonpayable",
      "type": "function"
    },
    {
      "inputs": [
        {
          "internalType": "address",
          "name": "newOwner",
          "type": "address"
        }
      ],
      "name": "transferOwnership",
      "outputs": [],
      "stateMutability": "nonpayable",
      "type": "function"
    },
    {
      "inputs": [
        {
          "internalType": "address",
          "name": "_InterestRateModel",
          "type": "address"
        },
        {
          "internalType": "uint256",
          "name": "_fee",
          "type": "uint256"
        },
        {
          "internalType": "uint256",
          "name": "_initialExchangeRate",
          "type": "uint256"
        }
      ],
      "name": "_setUpAHR",
      "outputs": [],
      "stateMutability": "nonpayable",
      "type": "function"
    },
    {
      "inputs": [
        {
          "internalType": "address",
          "name": "_InterestRateModel",
          "type": "address"
        },
        {
          "internalType": "uint256",
          "name": "_fee",
          "type": "uint256"
        },
        {
          "internalType": "uint256",
          "name": "_initialExchangeRate",
          "type": "uint256"
        }
      ],
      "name": "_setUpALR",
      "outputs": [],
      "stateMutability": "nonpayable",
      "type": "function"
    },
    {
      "inputs": [],
      "name": "getAssetAdd",
      "outputs": [
        {
          "internalType": "address",
          "name": "",
          "type": "address"
        }
      ],
      "stateMutability": "view",
      "type": "function"
    },
    {
      "inputs": [
        {
          "internalType": "address",
          "name": "_account",
          "type": "address"
        }
      ],
      "name": "viewLockedCollateralizedALR",
      "outputs": [
        {
          "internalType": "uint256",
          "name": "",
          "type": "uint256"
        }
      ],
      "stateMutability": "view",
      "type": "function"
    },
    {
      "inputs": [
        {
          "internalType": "uint256",
          "name": "_amount",
          "type": "uint256"
        }
      ],
      "name": "lendToAHRpool",
      "outputs": [],
      "stateMutability": "nonpayable",
      "type": "function"
    },
    {
      "inputs": [
        {
          "internalType": "uint256",
          "name": "_amount",
          "type": "uint256"
        }
      ],
      "name": "lendToALRpool",
      "outputs": [],
      "stateMutability": "nonpayable",
      "type": "function"
    },
    {
      "inputs": [
        {
          "internalType": "uint256",
          "name": "_amount",
          "type": "uint256"
        },
        {
          "internalType": "address",
          "name": "_collateral",
          "type": "address"
        }
      ],
      "name": "borrow",
      "outputs": [],
      "stateMutability": "nonpayable",
      "type": "function"
    },
    {
      "inputs": [
        {
          "internalType": "uint256",
          "name": "_repayAmount",
          "type": "uint256"
        }
      ],
      "name": "repay",
      "outputs": [],
      "stateMutability": "nonpayable",
      "type": "function"
    },
    {
      "inputs": [
        {
          "internalType": "address",
          "name": "_borrower",
          "type": "address"
        },
        {
          "internalType": "contract AskoRiskTokenI",
          "name": "_ARTcollateralized",
          "type": "address"
        }
      ],
      "name": "liquidateAccount",
      "outputs": [],
      "stateMutability": "nonpayable",
      "type": "function"
    },
    {
      "inputs": [
        {
          "internalType": "address",
          "name": "_inQuestion",
          "type": "address"
        }
      ],
      "name": "checkIfALR",
      "outputs": [
        {
          "internalType": "bool",
          "name": "",
          "type": "bool"
        }
      ],
      "stateMutability": "view",
      "type": "function"
    },
    {
      "inputs": [
        {
          "internalType": "address",
          "name": "_newModel",
          "type": "address"
        }
      ],
      "name": "updateALR",
      "outputs": [],
      "stateMutability": "nonpayable",
      "type": "function"
    },
    {
      "inputs": [
        {
          "internalType": "address",
          "name": "_newModel",
          "type": "address"
        }
      ],
      "name": "updateAHR",
      "outputs": [],
      "stateMutability": "nonpayable",
      "type": "function"
    },
    {
      "inputs": [
        {
          "internalType": "uint256",
          "name": "_RR",
          "type": "uint256"
        }
      ],
      "name": "setRRAHR",
      "outputs": [],
      "stateMutability": "nonpayable",
      "type": "function"
    },
    {
      "inputs": [
        {
          "internalType": "uint256",
          "name": "_RR",
          "type": "uint256"
        }
      ],
      "name": "setRRALR",
      "outputs": [],
      "stateMutability": "nonpayable",
      "type": "function"
    }
  ],
  "bytecode": "0x60806040523480156200001157600080fd5b506040516200316a3803806200316a833981810160405260c08110156200003757600080fd5b81516020830151604080850151606086015160808701805193519597949692959194919392820192846401000000008211156200007357600080fd5b9083019060208201858111156200008957600080fd5b8251640100000000811182820188101715620000a457600080fd5b82525081516020918201929091019080838360005b83811015620000d3578181015183820152602001620000b9565b50505050905090810190601f168015620001015780820380516001836020036101000a031916815260200191505b50604052602001805160405193929190846401000000008211156200012557600080fd5b9083019060208201858111156200013b57600080fd5b82516401000000008111828201881017156200015657600080fd5b82525081516020918201929091019080838360005b83811015620001855781810151838201526020016200016b565b50505050905090810190601f168015620001b35780820380516001836020036101000a031916815260200191505b506040525050506000620001cc620002a060201b60201c565b600080546001600160a01b0319166001600160a01b0383169081178255604051929350917f8be0079c531659141344cd1fd0a4f28419497f9722a3daafe3b4186f6b6457e0908290a350612710600155815162000231906006906020850190620002a5565b50805162000247906007906020840190620002a5565b5050600c80546001600160a01b03199081166001600160a01b0396871617909155600b80548216948616949094179093555060088054831694841694909417909355600d80549091169290911691909117905562000347565b335b90565b828054600181600116156101000203166002900490600052602060002090601f016020900481019282601f10620002e857805160ff191683800117855562000318565b8280016001018555821562000318579182015b8281111562000318578251825591602001919060010190620002fb565b50620003269291506200032a565b5090565b620002a291905b8082111562000326576000815560010162000331565b612e1380620003576000396000f3fe608060405234801561001057600080fd5b506004361061019a5760003560e01c8063715018a6116100e4578063c9230c5d11610092578063c9230c5d14610433578063cf0aea851461043b578063d162054a14610458578063d6b9b5d914610460578063dcc716bd1461047d578063f2130c70146104af578063f2fde38b146104b7578063f9828b4f146104dd5761019a565b8063715018a6146103995780637d1fc742146103a15780638da5cb5b146103c75780639241cef2146103cf578063ac979028146103d7578063b451bb2e14610405578063c27d4df31461042b5761019a565b80631f432cf51161014c5780631f432cf5146102af57806322b2d402146102e1578063371fd8e6146102fe57806338d52e0f1461031b578063460bb650146103235780634b3fd1481461032b5780634c20ac7414610357578063676128431461035f5761019a565b8063045de1f81461019f5780630a3ed432146101c357806311e2c02f146101eb578063176de7a8146101f35780631d7bd46e146102705780631dda07801461028d5780631f2dc5ef14610295575b600080fd5b6101a76104e5565b604080516001600160a01b039092168252519081900360200190f35b6101e9600480360360208110156101d957600080fd5b50356001600160a01b03166104f4565b005b6101a7610574565b6101fb610583565b6040805160208082528351818301528351919283929083019185019080838360005b8381101561023557818101518382015260200161021d565b50505050905090810190601f1680156102625780820380516001836020036101000a031916815260200191505b509250505060405180910390f35b6101e96004803603602081101561028657600080fd5b5035610611565b6101a7610675565b61029d610684565b60408051918252519081900360200190f35b6101e9600480360360608110156102c557600080fd5b506001600160a01b03813516906020810135906040013561068a565b6101e9600480360360208110156102f757600080fd5b5035610acd565b6101e96004803603602081101561031457600080fd5b5035610c01565b6101a761163a565b6101a7611649565b6101e96004803603604081101561034157600080fd5b50803590602001356001600160a01b0316611658565b6101a7611c1a565b6103856004803603602081101561037557600080fd5b50356001600160a01b0316611c29565b604080519115158252519081900360200190f35b6101e9611cac565b61029d600480360360208110156103b757600080fd5b50356001600160a01b0316611d60565b6101a7611d7b565b6101a7611d8a565b6101e9600480360360408110156103ed57600080fd5b506001600160a01b0381358116916020013516611d99565b6101e96004803603602081101561041b57600080fd5b50356001600160a01b0316612397565b6101a76123fc565b6101fb61240b565b6101e96004803603602081101561045157600080fd5b5035612466565b6101a761259a565b6101e96004803603602081101561047657600080fd5b50356125a9565b6101e96004803603606081101561049357600080fd5b506001600160a01b03813516906020810135906040013561260d565b61029d612a50565b6101e9600480360360208110156104cd57600080fd5b50356001600160a01b0316612a56565b61029d612b60565b6005546001600160a01b031681565b600b546001600160a01b0316331461050b57600080fd5b600a5460408051630eab343560e21b81526001600160a01b03848116600483015291519190921691633aacd0d491602480830192600092919082900301818387803b15801561055957600080fd5b505af115801561056d573d6000803e3d6000fd5b5050505050565b600c546001600160a01b031681565b6007805460408051602060026001851615610100026000190190941693909304601f810184900484028201840190925281815292918301828280156106095780601f106105de57610100808354040283529160200191610609565b820191906000526020600020905b8154815290600101906020018083116105ec57829003601f168201915b505050505081565b600b546001600160a01b0316331461062857600080fd5b600a54604080516322d3cecb60e21b81526004810184905290516001600160a01b0390921691638b4f3b2c9160248082019260009290919082900301818387803b15801561055957600080fd5b600d546001600160a01b031681565b60015481565b600b546001600160a01b031633146106a157600080fd5b60038290556040805163416c522d60e01b60208083019190915282518083036004018152602483019093528251839260069260449091019182918501908083835b602083106107015780518252601f1990920191602091820191016106e2565b6001836020036101000a0380198251168184511680821785525050505050509050018280546001816001161561010002031660029004801561077a5780601f1061075857610100808354040283529182019161077a565b820191906000526020600020905b815481529060010190602001808311610766575b50509250505060405160208183030381529060405290506060604051602001808063416c522d60e01b815250600401905060405160208183030381529060405290508060076040516020018083805190602001908083835b602083106107f15780518252601f1990920191602091820191016107d2565b6001836020036101000a0380198251168184511680821785525050505050509050018280546001816001161561010002031660029004801561086a5780601f1061084857610100808354040283529182019161086a565b820191906000526020600020905b815481529060010190602001808311610856575b505092505050604051602081830303815290604052905060608290506060829050600d60009054906101000a90046001600160a01b03166001600160a01b0316634f84a10088600860009054906101000a90046001600160a01b0316600c60009054906101000a90046001600160a01b0316600b60009054906101000a90046001600160a01b0316878760018d6040518963ffffffff1660e01b815260040180896001600160a01b03166001600160a01b03168152602001886001600160a01b03166001600160a01b03168152602001876001600160a01b03166001600160a01b03168152602001866001600160a01b03166001600160a01b03168152602001806020018060200185151515158152602001848152602001838103835287818151815260200191508051906020019080838360005b838110156109b757818101518382015260200161099f565b50505050905090810190601f1680156109e45780820380516001836020036101000a031916815260200191505b50838103825286518152865160209182019188019080838360005b83811015610a175781810151838201526020016109ff565b50505050905090810190601f168015610a445780820380516001836020036101000a031916815260200191505b509a5050505050505050505050602060405180830381600087803b158015610a6b57600080fd5b505af1158015610a7f573d6000803e3d6000fd5b505050506040513d6020811015610a9557600080fd5b5051600a80546001600160a01b03199081166001600160a01b0393841617918290556005805492909316911617905550505050505050565b600854600a54604080516323b872dd60e01b81523360048201526001600160a01b03928316602482015260448101859052905191909216916323b872dd9160648083019260209291908290030181600087803b158015610b2c57600080fd5b505af1158015610b40573d6000803e3d6000fd5b505050506040513d6020811015610b5657600080fd5b5050600a54604080516340c10f1960e01b81523360048201526024810184905290516001600160a01b03909216916340c10f199160448082019260009290919082900301818387803b158015610bab57600080fd5b505af1158015610bbf573d6000803e3d6000fd5b5050604080513381526020810185905281517f7328ca2a2e824164ca6ec3121966d63601356d01901d9a5d2ee466cb726d1e3c9450908190039091019150a150565b600a54604080516305eff7ef60e21b815233600482015290516000926001600160a01b0316916317bfdfbc91602480830192602092919082900301818787803b158015610c4d57600080fd5b505af1158015610c61573d6000803e3d6000fd5b505050506040513d6020811015610c7757600080fd5b5051600954604080516305eff7ef60e21b815233600482015290519293506000926001600160a01b03909216916317bfdfbc9160248082019260209290919082900301818787803b158015610ccb57600080fd5b505af1158015610cdf573d6000803e3d6000fd5b505050506040513d6020811015610cf557600080fd5b505190506000610d0b838363ffffffff612b6616565b905080841115610d56576040805162461bcd60e51b81526020600482015260116024820152700a4cae0c2f2d2dcce40e8dede40daeac6d607b1b604482015290519081900360640190fd5b60008085610fb4578415610e7257600854600a54604080516323b872dd60e01b81523360048201526001600160a01b03928316602482015260448101899052905191909216916323b872dd9160648083019260209291908290030181600087803b158015610dc357600080fd5b505af1158015610dd7573d6000803e3d6000fd5b505050506040513d6020811015610ded57600080fd5b5050600a54604080516369a5e8cf60e01b81526004810188905233602482015290516001600160a01b03909216916369a5e8cf916044808201926020929091908290030181600087803b158015610e4357600080fd5b505af1158015610e57573d6000803e3d6000fd5b505050506040513d6020811015610e6d57600080fd5b505190505b600854600954604080516323b872dd60e01b81523360048201526001600160a01b03928316602482015260448101889052905191909216916323b872dd9160648083019260209291908290030181600087803b158015610ed157600080fd5b505af1158015610ee5573d6000803e3d6000fd5b505050506040513d6020811015610efb57600080fd5b5050600954604080516369a5e8cf60e01b81526004810187905233602482015290516001600160a01b03909216916369a5e8cf916044808201926020929091908290030181600087803b158015610f5157600080fd5b505af1158015610f65573d6000803e3d6000fd5b505050506040513d6020811015610f7b57600080fd5b505160408051338152602081018790528082018890529051919350600080516020612dbe833981519152919081900360600190a16114a9565b841561136b5785851061110357600854600a54604080516323b872dd60e01b81523360048201526001600160a01b039283166024820152604481018a9052905191909216916323b872dd9160648083019260209291908290030181600087803b15801561102057600080fd5b505af1158015611034573d6000803e3d6000fd5b505050506040513d602081101561104a57600080fd5b5050600a54604080516369a5e8cf60e01b81526004810189905233602482015290516001600160a01b03909216916369a5e8cf916044808201926020929091908290030181600087803b1580156110a057600080fd5b505af11580156110b4573d6000803e3d6000fd5b505050506040513d60208110156110ca57600080fd5b505160408051338152600060208201528082018990529051919250600080516020612dbe833981519152919081900360600190a1611366565b6000611115878763ffffffff612bc716565b600854600a54604080516323b872dd60e01b81523360048201526001600160a01b039283166024820152604481018b905290519394509116916323b872dd916064808201926020929091908290030181600087803b15801561117657600080fd5b505af115801561118a573d6000803e3d6000fd5b505050506040513d60208110156111a057600080fd5b5050600a54604080516369a5e8cf60e01b815260006004820181905233602483015291516001600160a01b03909316926369a5e8cf92604480840193602093929083900390910190829087803b1580156111f957600080fd5b505af115801561120d573d6000803e3d6000fd5b505050506040513d602081101561122357600080fd5b5051600854600954604080516323b872dd60e01b81523360048201526001600160a01b0392831660248201526044810186905290519395509116916323b872dd916064808201926020929091908290030181600087803b15801561128657600080fd5b505af115801561129a573d6000803e3d6000fd5b505050506040513d60208110156112b057600080fd5b5050600954604080516369a5e8cf60e01b81526004810184905233602482015290516001600160a01b03909216916369a5e8cf916044808201926020929091908290030181600087803b15801561130657600080fd5b505af115801561131a573d6000803e3d6000fd5b505050506040513d602081101561133057600080fd5b505160408051338152602081018390528082018590529051919450600080516020612dbe833981519152919081900360600190a1505b6114a9565b600854600954604080516323b872dd60e01b81523360048201526001600160a01b03928316602482015260448101869052905191909216916323b872dd9160648083019260209291908290030181600087803b1580156113ca57600080fd5b505af11580156113de573d6000803e3d6000fd5b505050506040513d60208110156113f457600080fd5b5050600954604080516369a5e8cf60e01b81526004810189905233602482015290516001600160a01b03909216916369a5e8cf916044808201926020929091908290030181600087803b15801561144a57600080fd5b505af115801561145e573d6000803e3d6000fd5b505050506040513d602081101561147457600080fd5b505160408051338152602081018390526000818301529051919350600080516020612dbe833981519152919081900360600190a15b6000866114b75750826114ba565b50855b600c546008546040805163513396f760e11b81526001600160a01b039283166004820152602481018590529051600093929092169163a2672dee9160448082019260209290919082900301818787803b15801561151657600080fd5b505af115801561152a573d6000803e3d6000fd5b505050506040513d602081101561154057600080fd5b5051600b54336000818152600f6020526040808220548151636a8394ad60e01b815260048101949094526001600160a01b03908116602485015260448401869052905194955090921692636a8394ad9260648084019391929182900301818387803b1580156115ae57600080fd5b505af11580156115c2573d6000803e3d6000fd5b505050506115d98487612bc790919063ffffffff16565b1580156115f357506115f1878463ffffffff612bc716565b155b1561163057336000908152600f6020908152604080832080546001600160a01b031916905560108252808320805460ff19169055600e9091528120555b5050505050505050565b6008546001600160a01b031681565b6004546001600160a01b031681565b336000908152600f60205260409020546001600160a01b038281169116148061169157503360009081526010602052604090205460ff16155b6116d9576040805162461bcd60e51b815260206004820152601460248201527318dbdb1b185d195c985b081b9bdd081c9a59da1d60621b604482015290519081900360640190fd5b6116e1612d4b565b600954604080516305eff7ef60e21b815233600482015290516001600160a01b03909216916317bfdfbc916024808201926020929091908290030181600087803b15801561172e57600080fd5b505af1158015611742573d6000803e3d6000fd5b505050506040513d602081101561175857600080fd5b50518152600a54604080516305eff7ef60e21b815233600482015290516001600160a01b03909216916317bfdfbc916024808201926020929091908290030181600087803b1580156117a957600080fd5b505af11580156117bd573d6000803e3d6000fd5b505050506040513d60208110156117d357600080fd5b5051602082018190526117fe906117f0908563ffffffff612b6616565b82519063ffffffff612b6616565b6040808301829052600c54600854825163513396f760e11b81526001600160a01b0391821660048201526024810194909452915191169163a2672dee9160448083019260209291908290030181600087803b15801561185c57600080fd5b505af1158015611870573d6000803e3d6000fd5b505050506040513d602081101561188657600080fd5b50516080820152600c546008546040805163513396f760e11b81526001600160a01b039283166004820152602481018790529051919092169163a2672dee9160448083019260209291908290030181600087803b1580156118e657600080fd5b505af11580156118fa573d6000803e3d6000fd5b505050506040513d602081101561191057600080fd5b505160a0820152600b5460408051636012b43160e01b81523360048201526001600160a01b03858116602483015291519190921691636012b4319160448083019260209291908290030181600087803b15801561196c57600080fd5b505af1158015611980573d6000803e3d6000fd5b505050506040513d602081101561199657600080fd5b5051606082015260808101516119b390600263ffffffff612c0916565b60c0820181905260808201516119ce9163ffffffff612b6616565b60e0820181905260608201511015611a25576040805162461bcd60e51b81526020600482015260156024820152741b9bdd08195b9bdd59da0818dbdb1b185d195c985b605a1b604482015290519081900360640190fd5b600b5460a08201516040805163b3f643e760e01b81523360048201526001600160a01b03868116602483015260448201939093529051919092169163b3f643e791606480830192600092919082900301818387803b158015611a8657600080fd5b505af1158015611a9a573d6000803e3d6000fd5b50505050611ab2600284612c0990919063ffffffff16565b6101008201908152336000818152600f6020908152604080832080546001600160a01b0319166001600160a01b03898116919091179091556010909252808320805460ff1916600117905560095494518151630967fa2960e31b81526004810191909152602481019490945251931692634b3fd14892604480820193929182900301818387803b158015611b4557600080fd5b505af1158015611b59573d6000803e3d6000fd5b5050600a5461010084015160408051630967fa2960e31b81526004810192909252336024830152516001600160a01b039092169350634b3fd148925060448082019260009290919082900301818387803b158015611bb657600080fd5b505af1158015611bca573d6000803e3d6000fd5b505050610100820151604080513381526020810183905280820192909252517fe1979fe4c35e0cef342fef5668e2c8e7a7e9f5d5d1ca8fee0ac6c427fa4153af92509081900360600190a1505050565b6008546001600160a01b031690565b600b5460408051630dc9cacd60e01b81526001600160a01b03848116600483015291516000939290921691630dc9cacd91602480820192602092909190829003018186803b158015611c7a57600080fd5b505afa158015611c8e573d6000803e3d6000fd5b505050506040513d6020811015611ca457600080fd5b505192915050565b611cb4612c4b565b6000546001600160a01b03908116911614611d16576040805162461bcd60e51b815260206004820181905260248201527f4f776e61626c653a2063616c6c6572206973206e6f7420746865206f776e6572604482015290519081900360640190fd5b600080546040516001600160a01b03909116907f8be0079c531659141344cd1fd0a4f28419497f9722a3daafe3b4186f6b6457e0908390a3600080546001600160a01b0319169055565b6001600160a01b03166000908152600e602052604090205490565b6000546001600160a01b031690565b6009546001600160a01b031681565b611da1612d4b565b336001600160a01b0384161415611dff576040805162461bcd60e51b815260206004820152601b60248201527f796f752063616e74206c697175696461746520796f757273656c660000000000604482015290519081900360640190fd5b600a54604080516305eff7ef60e21b81526001600160a01b038681166004830152915160009392909216916317bfdfbc9160248082019260209290919082900301818787803b158015611e5157600080fd5b505af1158015611e65573d6000803e3d6000fd5b505050506040513d6020811015611e7b57600080fd5b5051600954604080516305eff7ef60e21b81526001600160a01b038881166004830152915193945060009391909216916317bfdfbc91602480830192602092919082900301818787803b158015611ed157600080fd5b505af1158015611ee5573d6000803e3d6000fd5b505050506040513d6020811015611efb57600080fd5b505190506000611f11838363ffffffff612b6616565b600c546008546040805163513396f760e11b81526001600160a01b03928316600482015260248101859052905193945091169163a2672dee916044808201926020929091908290030181600087803b158015611f6c57600080fd5b505af1158015611f80573d6000803e3d6000fd5b505050506040513d6020811015611f9657600080fd5b50516060850152600b5460408051636012b43160e01b81526001600160a01b038981166004830152888116602483015291519190921691636012b4319160448083019260209291908290030181600087803b158015611ff457600080fd5b505af1158015612008573d6000803e3d6000fd5b505050506040513d602081101561201e57600080fd5b505160a0850152606084015161203b90600263ffffffff612c0916565b60c0850181905260608501516120569163ffffffff612b6616565b6080850181905260a0850151101561238f57600854600a54604080516323b872dd60e01b81523360048201526001600160a01b03928316602482015260448101879052905191909216916323b872dd9160648083019260209291908290030181600087803b1580156120c757600080fd5b505af11580156120db573d6000803e3d6000fd5b505050506040513d60208110156120f157600080fd5b5050600854600954604080516323b872dd60e01b81523360048201526001600160a01b03928316602482015260448101869052905191909216916323b872dd9160648083019260209291908290030181600087803b15801561215257600080fd5b505af1158015612166573d6000803e3d6000fd5b505050506040513d602081101561217c57600080fd5b5050600b54606085015160408051632bb0df2360e01b815260048101929092526001600160a01b03898116602484015233604484015288811660648401529051921691632bb0df239160848082019260009290919082900301818387803b1580156121e657600080fd5b505af11580156121fa573d6000803e3d6000fd5b5050600a54604080516369a5e8cf60e01b81526000600482018190526001600160a01b038c8116602484015292519290931694506369a5e8cf93506044808201936020939283900390910190829087803b15801561225757600080fd5b505af115801561226b573d6000803e3d6000fd5b505050506040513d602081101561228157600080fd5b505160e0850152600954604080516369a5e8cf60e01b81526000600482018190526001600160a01b038a81166024840152925192909316926369a5e8cf926044808401936020939083900390910190829087803b1580156122e157600080fd5b505af11580156122f5573d6000803e3d6000fd5b505050506040513d602081101561230b57600080fd5b5051610100850152600b54606085015160408051636a8394ad60e01b81526001600160a01b038a811660048301528981166024830152604482019390935290519190921691636a8394ad91606480830192600092919082900301818387803b15801561237657600080fd5b505af115801561238a573d6000803e3d6000fd5b505050505b505050505050565b600b546001600160a01b031633146123ae57600080fd5b60095460408051630eab343560e21b81526001600160a01b03848116600483015291519190921691633aacd0d491602480830192600092919082900301818387803b15801561055957600080fd5b600a546001600160a01b031681565b6006805460408051602060026001851615610100026000190190941693909304601f810184900484028201840190925281815292918301828280156106095780601f106105de57610100808354040283529160200191610609565b600854600954604080516323b872dd60e01b81523360048201526001600160a01b03928316602482015260448101859052905191909216916323b872dd9160648083019260209291908290030181600087803b1580156124c557600080fd5b505af11580156124d9573d6000803e3d6000fd5b505050506040513d60208110156124ef57600080fd5b5050600954604080516340c10f1960e01b81523360048201526024810184905290516001600160a01b03909216916340c10f199160448082019260009290919082900301818387803b15801561254457600080fd5b505af1158015612558573d6000803e3d6000fd5b5050604080513381526020810185905281517f0f82438f3b5c78264c4b6dce428942fd963308db5c690635d87bc654cb811d339450908190039091019150a150565b600b546001600160a01b031681565b600b546001600160a01b031633146125c057600080fd5b600954604080516322d3cecb60e21b81526004810184905290516001600160a01b0390921691638b4f3b2c9160248082019260009290919082900301818387803b15801561055957600080fd5b600b546001600160a01b0316331461262457600080fd5b600282905560408051634148522d60e01b60208083019190915282518083036004018152602483019093528251839260069260449091019182918501908083835b602083106126845780518252601f199092019160209182019101612665565b6001836020036101000a038019825116818451168082178552505050505050905001828054600181600116156101000203166002900480156126fd5780601f106126db5761010080835404028352918201916126fd565b820191906000526020600020905b8154815290600101906020018083116126e9575b505092505050604051602081830303815290604052905060606040516020018080634148522d60e01b815250600401905060405160208183030381529060405290508060076040516020018083805190602001908083835b602083106127745780518252601f199092019160209182019101612755565b6001836020036101000a038019825116818451168082178552505050505050905001828054600181600116156101000203166002900480156127ed5780601f106127cb5761010080835404028352918201916127ed565b820191906000526020600020905b8154815290600101906020018083116127d9575b505092505050604051602081830303815290604052905060608290506060829050600d60009054906101000a90046001600160a01b03166001600160a01b0316634f84a10088600860009054906101000a90046001600160a01b0316600c60009054906101000a90046001600160a01b0316600b60009054906101000a90046001600160a01b0316878760008d6040518963ffffffff1660e01b815260040180896001600160a01b03166001600160a01b03168152602001886001600160a01b03166001600160a01b03168152602001876001600160a01b03166001600160a01b03168152602001866001600160a01b03166001600160a01b03168152602001806020018060200185151515158152602001848152602001838103835287818151815260200191508051906020019080838360005b8381101561293a578181015183820152602001612922565b50505050905090810190601f1680156129675780820380516001836020036101000a031916815260200191505b50838103825286518152865160209182019188019080838360005b8381101561299a578181015183820152602001612982565b50505050905090810190601f1680156129c75780820380516001836020036101000a031916815260200191505b509a5050505050505050505050602060405180830381600087803b1580156129ee57600080fd5b505af1158015612a02573d6000803e3d6000fd5b505050506040513d6020811015612a1857600080fd5b5051600980546001600160a01b03199081166001600160a01b0393841617918290556004805492909316911617905550505050505050565b60025481565b612a5e612c4b565b6000546001600160a01b03908116911614612ac0576040805162461bcd60e51b815260206004820181905260248201527f4f776e61626c653a2063616c6c6572206973206e6f7420746865206f776e6572604482015290519081900360640190fd5b6001600160a01b038116612b055760405162461bcd60e51b8152600401808060200182810382526026815260200180612d986026913960400191505060405180910390fd5b600080546040516001600160a01b03808516939216917f8be0079c531659141344cd1fd0a4f28419497f9722a3daafe3b4186f6b6457e091a3600080546001600160a01b0319166001600160a01b0392909216919091179055565b60035481565b600082820183811015612bc0576040805162461bcd60e51b815260206004820152601b60248201527f536166654d6174683a206164646974696f6e206f766572666c6f770000000000604482015290519081900360640190fd5b9392505050565b6000612bc083836040518060400160405280601e81526020017f536166654d6174683a207375627472616374696f6e206f766572666c6f770000815250612c4f565b6000612bc083836040518060400160405280601a81526020017f536166654d6174683a206469766973696f6e206279207a65726f000000000000815250612ce6565b3390565b60008184841115612cde5760405162461bcd60e51b81526004018080602001828103825283818151815260200191508051906020019080838360005b83811015612ca3578181015183820152602001612c8b565b50505050905090810190601f168015612cd05780820380516001836020036101000a031916815260200191505b509250505060405180910390fd5b505050900390565b60008183612d355760405162461bcd60e51b8152602060048201818152835160248401528351909283926044909101919085019080838360008315612ca3578181015183820152602001612c8b565b506000838581612d4157fe5b0495945050505050565b604051806101200160405280600081526020016000815260200160008152602001600081526020016000815260200160008152602001600081526020016000815260200160008152509056fe4f776e61626c653a206e6577206f776e657220697320746865207a65726f20616464726573732a6c148cdc9347a81dfbfe504afb64ea0aeca1114171ef18a3e11cb1fda8b3a6a264697066735822122036a573394eb997a115e075f7a22043ebccba1c817c9cd8ee6ffbe93610b2691164736f6c63430006060033",
  "immutableReferences": {},
  "source": "pragma solidity ^0.6.0;\n\nimport \"openzeppelin-solidity/contracts/access/Ownable.sol\";\nimport \"openzeppelin-solidity/contracts/math/SafeMath.sol\";\nimport \"openzeppelin-solidity/contracts/token/ERC20/IERC20.sol\";\nimport \"./compound/Exponential.sol\";\nimport \"./interfaces/UniswapOracleFactoryI.sol\";\nimport \"./interfaces/MoneyMarketFactoryI.sol\";\nimport \"./interfaces/AskoRiskTokenI.sol\";\nimport \"./interfaces/ARTFactoryI.sol\";\n\n////////////////////////////////////////////////////////////////////////////////////////////\n/// @title MoneyMarketInstance\n/// @author Christopher Dixon\n////////////////////////////////////////////////////////////////////////////////////////////\n/**\nThe MoneyMarketInstance contract is designed facilitate a tiered money market for an individual ERC20 asset\nThis contract uses the OpenZeppelin contract Library to inherit functions from\n  Ownable.sol && IRC20.sol\n**/\ncontract MoneyMarketInstance is Ownable, Exponential {\n    using SafeMath for uint256;\n\n    uint256 public divisor;\n    uint256 public fee_AHR;\n    uint256 public fee_ALR;\n    address public ahr;\n    address public alr;\n\n    string public assetName;\n    string public assetSymbol;\n\n    IERC20 public asset;\n    AskoRiskTokenI public AHR;\n    AskoRiskTokenI public ALR;\n    MoneyMarketFactoryI public MMF;\n    UniswapOracleFactoryI public UOF;\n    ARTFactoryI public ARTF;\n\n    mapping(address => uint256) lockedCollateral;\n    mapping(address => address) collateralLockedALR;\n    mapping(address => bool) cantCollateralize;\n    /**\n@notice onlyMMFactory is a modifier used to make a function only callable by the Money Market Factory contract\n**/\n    modifier onlyMMFactory() {\n        require(msg.sender == address(MMF));\n        _;\n    }\n\n    event LentToAHR(address lender, uint256 amount);\n    event LentToALR(address lender, uint256 amount);\n    event Borrow(address borrower, uint256 AHRamount, uint256 ALRamount);\n    event Repayed(address borrower, uint256 AHRamount, uint256 ALRamount);\n    event Collateralized(address collateralizer, uint256 amount);\n\n    /**\n@notice the constructor function is fired during the contract deployment process. The constructor can only be fired once and\n        is used to initialize the MoneyMakerInstance and deploy its associated AHR && ALR token contracts\n@param _assetContractAdd is the address of the ERC20 asset being whitelisted\n@param _assetName is the name of the asset(e.x: ChainLink)\n@param _assetSymbol is the symbol of the asset(e.x: LINK)\n@dev this function uses ABI encoding to properly concatenate AHR- && ALR- in front of the tokens name and symbol\n      before creating each token.\n**/\n    constructor(\n        address _assetContractAdd,\n        address _oracleFactory,\n        address _owner,\n        address _ARTF,\n        string memory _assetName,\n        string memory _assetSymbol\n    ) public {\n        divisor = 10000;\n        assetName = _assetName;\n        assetSymbol = _assetSymbol;\n        UOF = UniswapOracleFactoryI(_oracleFactory);\n        MMF = MoneyMarketFactoryI(_owner);\n        asset = IERC20(_assetContractAdd);\n        ARTF = ARTFactoryI(_ARTF);\n    }\n\n    /**\n@notice setUp is called by the MoneyMarketFactory after a contract is created to set up the initial variables.\n        This is split from the constructor function to keep from reaching the gas block limit\n@param  _InterestRateModel is the address of this MoneyMarketInstances InterestRateModel\n@param _fee is a number representing the fee for exchanging an AHR token, as a mantissa (scaled by 1e18)\n@dev this function will create a token whos name and symbol is concatenated with a \"AHR-\" in front of it\n      example: AHR-LINK\n@dev asset.approve() is called to allow the AHR contract to freeely transfer the assset from this contract when the mint\n      lendToAHRpool function is called.\n**/\n    function _setUpAHR(\n        address _InterestRateModel,\n        uint256 _fee,\n        uint256 _initialExchangeRate\n    ) public onlyMMFactory {\n        fee_AHR = _fee;\n        bytes memory ahrname = abi.encodePacked(\"AHR-\");\n        ahrname = abi.encodePacked(ahrname, assetName);\n        //abi encode and concat strings\n        bytes memory ahrsymbol = abi.encodePacked(\"AHR-\");\n        ahrsymbol = abi.encodePacked(ahrsymbol, assetSymbol);\n        //abi encode and concat strings\n        string memory assetNameAHR = string(ahrname);\n        string memory assetSymbolAHR = string(ahrsymbol);\n        //un-encode concated string\n        AHR = AskoRiskTokenI(\n            ARTF.createART( //creates new Asko High Risk Token Contract\n                _InterestRateModel,\n                address(asset),\n                address(UOF),\n                address(MMF),\n                assetNameAHR,\n                assetSymbolAHR,\n                false,\n                _initialExchangeRate\n            )\n        );\n        ahr = address(AHR);\n    }\n\n    /**\n@notice setUp is called by the MoneyMarketFactory after a contract is created to set up the initial variables.\n        This is split from the constructor function to keep from reaching the gas block limit\n@param  _InterestRateModel is the address of this MoneyMarketInstances InterestRateModel\n@param _fee is a number representing the fee for exchanging an ALR token, as a mantissa (scaled by 1e18)\n@dev this function will create a token whos name and symbol is concatenated with a \"ALR-\" in front of it\n      example: ALR-LINK\n@dev asset.approve() is called to allow the ALR contract to freeely transfer the assset from this contract when the mint\n      lendToALRpool function is called.\n**/\n    function _setUpALR(\n        address _InterestRateModel,\n        uint256 _fee,\n        uint256 _initialExchangeRate\n    ) public onlyMMFactory {\n        fee_ALR = _fee;\n        bytes memory alrname = abi.encodePacked(\"AlR-\");\n        alrname = abi.encodePacked(alrname, assetName);\n        //abi encode and concat strings\n        bytes memory alrsymbol = abi.encodePacked(\"AlR-\");\n        alrsymbol = abi.encodePacked(alrsymbol, assetSymbol);\n        //abi encode and concat strings\n        string memory assetNameALR = string(alrname);\n        string memory assetSymbolALR = string(alrsymbol);\n        //un-encode concated string\n        ALR = AskoRiskTokenI(\n            ARTF.createART( //creates new Asko High Risk Token Contract\n                _InterestRateModel,\n                address(asset),\n                address(UOF),\n                address(MMF),\n                assetNameALR,\n                assetSymbolALR,\n                true,\n                _initialExchangeRate\n            )\n        );\n        alr = address(ALR);\n    }\n\n    /**\n@notice getAssetAdd allows for easy retrieval of a Money Markets underlying asset's address\n**/\n    function getAssetAdd() public view returns (address) {\n        return address(asset);\n    }\n\n    function viewLockedCollateralizedALR(address _account)\n        public\n        view\n        returns (uint256)\n    {\n        return lockedCollateral[_account];\n    }\n\n    /**\n@notice lendToAHRpool is used to lend assets to a MoneyMarketInstance's High Risk pool\n@param _amount is the amount of the asset being lent\n@dev the user will need to first approve the transfer of the underlying asset\n**/\n    function lendToAHRpool(uint256 _amount) public {\n        //transfer appropriate amount off the asset from msg.sender to the AHR contract\n        asset.transferFrom(msg.sender, address(AHR), _amount);\n        //call mint function on AHR contract\n        AHR.mint(msg.sender, _amount);\n        emit LentToAHR(msg.sender, _amount);\n    }\n\n    /**\n@notice lendToAHRpool is used to lend assets to a MoneyMarketInstance's Low Risk pool\n@param _amount is the amount of the asset being lent\n@dev the user will need to first approve the transfer of the underlying asset\n**/\n    function lendToALRpool(uint256 _amount) public {\n        //transfer appropriate amount off the asset from msg.sender to the AHR contract\n        asset.transferFrom(msg.sender, address(ALR), _amount);\n        //call mint function on ALR contract\n        ALR.mint(msg.sender, _amount);\n        emit LentToALR(msg.sender, _amount);\n    }\n\n    //struct used to avoid stack too deep errors\n    struct borrowVars {\n        uint256 borrowBalAHR;\n        uint256 borrowBalALR;\n        uint256 totalFutureAmountOwed;\n        uint256 availibleCollateralValue;\n        uint256 assetAmountValOwed;\n        uint256 amountValue; // Note: reverts on error\n        uint256 halfVal;\n        uint256 collateralNeeded;\n        uint256 half;\n    }\n\n    /**\n@notice borrow is used to take out a loan from in MoneyMarketInstance's underlying asset\n@param _amount is the amount of asset being barrowed\n@param _collateral is the address of the ALR token being used as collateral\n**/\n    function borrow(uint256 _amount, address _collateral) public {\n        //require that the collateral a user is looking to use is the same as the type they already have a loan in\n        //OR that their cantCollateralize mapping is false\n        require(\n            _collateral == collateralLockedALR[msg.sender] ||\n                cantCollateralize[msg.sender] == false,\n            \"collateral not right\"\n        );\n        borrowVars memory vars;\n        //check that the user has enough collateral in input money market\n        //this returns the USDC price of their asset\n\n        //get current borrow balances for each ART\n        vars.borrowBalAHR = AHR.borrowBalanceCurrent(msg.sender);\n        vars.borrowBalALR = ALR.borrowBalanceCurrent(msg.sender);\n        //calculate the new amount that would be owed if borrow suceeds\n        vars.totalFutureAmountOwed = vars.borrowBalAHR.add(\n            vars.borrowBalALR.add(_amount)\n        );\n        //check current asset USDC value of whats owed\n        vars.assetAmountValOwed = UOF.getUnderlyingPriceofAsset(\n            address(asset),\n            vars.totalFutureAmountOwed\n        );\n        //get USDC value of _amount\n        vars.amountValue = UOF.getUnderlyingPriceofAsset(\n            address(asset),\n            _amount\n        );\n        //get USDC value of availible collateral\n        vars.availibleCollateralValue = MMF.checkAvailibleCollateralValue(\n            msg.sender,\n            _collateral\n        );\n\n        //divide amount value by 3\n        vars.halfVal = vars.assetAmountValOwed.div(2);\n        //add 1/2 value to asset value to get 150% asset value\n        vars.collateralNeeded = vars.assetAmountValOwed.add(vars.halfVal);\n        //require collateral value to be greater than 150% of the amount value of loan\n        require(\n            vars.availibleCollateralValue >= vars.collateralNeeded,\n            \"not enough collateral\"\n        );\n        //track USDC value being locked for the loan\n        MMF.trackCollateralUp(msg.sender, _collateral, vars.amountValue);\n        //cut amount of tokens in half\n        vars.half = _amount.div(2);\n\n        //track which ALR is locked\n        collateralLockedALR[msg.sender] = _collateral;\n        cantCollateralize[msg.sender] = true;\n        //borrow half from each pool\n        AHR.borrow(vars.half, msg.sender);\n        ALR.borrow(vars.half, msg.sender);\n        emit Borrow(msg.sender, vars.half, vars.half);\n    }\n\n    /**\n@notice repay is used to repay a loan\n@param _repayAmount is the amount of the underlying asset being repayed\n**/\n    function repay(uint256 _repayAmount) public {\n        //get their current owed balance of ALR\n        uint256 accountBorrowsALR = ALR.borrowBalanceCurrent(msg.sender);\n        uint256 accountBorrowsAHR = AHR.borrowBalanceCurrent(msg.sender);\n        uint256 totalBorrows = accountBorrowsALR.add(accountBorrowsAHR);\n        require(_repayAmount <= totalBorrows, \"Repaying too much\");\n        uint256 payAmountAHR;\n        uint256 payAmountALR;\n\n        ///////////////repay all///////////////\n        if (_repayAmount == 0) {\n            if (accountBorrowsALR != 0) {\n                asset.transferFrom(msg.sender, address(ALR), accountBorrowsALR);\n                payAmountALR = ALR.repayBorrow(accountBorrowsALR, msg.sender); // repay amount to ALR\n            }\n            asset.transferFrom(msg.sender, address(AHR), accountBorrowsAHR);\n            payAmountAHR = AHR.repayBorrow(accountBorrowsAHR, msg.sender); //pay off towards AHR\n            emit Repayed(msg.sender, accountBorrowsAHR, accountBorrowsALR);\n        } else {\n            ///////////////repay ALR///////////////////\n            if (accountBorrowsALR != 0) {\n                //if amount owed to ALR isnt zero\n                if (accountBorrowsALR >= _repayAmount) {\n                    //if repay amount is less than whats owed in ALR\n                    //transfer asset from the user to this contract\n                    asset.transferFrom(msg.sender, address(ALR), _repayAmount);\n                    payAmountALR = ALR.repayBorrow(_repayAmount, msg.sender); // repay amount to ALR\n\n                    emit Repayed(msg.sender, 0, _repayAmount);\n                } else {\n                    ///////////////repay all of ALR && some AHR///////////////////\n                    //if repay amount is MORE than ALR owed\n                    uint256 amountToAHR = _repayAmount.sub(accountBorrowsALR); //calculate amount going to AHR\n                    asset.transferFrom(\n                        msg.sender,\n                        address(ALR),\n                        accountBorrowsALR\n                    ); //transfer remaining ALR bal to ALR\n                    payAmountALR = ALR.repayBorrow(0, msg.sender); //pay off ALR\n                    asset.transferFrom(msg.sender, address(AHR), amountToAHR); // transfer remaining payment amount to AHR\n                    payAmountAHR = AHR.repayBorrow(amountToAHR, msg.sender); //pay off towards AHR\n                    //if payAmountAHR is greater than 0 transfer asset from the user to the AHR contract\n                    emit Repayed(msg.sender, payAmountAHR, payAmountALR);\n                }\n            } else {\n                //if amount owed to ALR is zero\n                //transfer asset from the user to this contract\n                asset.transferFrom(msg.sender, address(AHR), payAmountAHR);\n                payAmountAHR = AHR.repayBorrow(_repayAmount, msg.sender); //pay towards AHR\n                emit Repayed(msg.sender, payAmountAHR, 0);\n            }\n        }\n\n        ///////unlock collateral value logic/////////\n        uint256 repayedAmount;\n        if (_repayAmount == 0) {\n            repayedAmount = totalBorrows;\n        } else {\n            repayedAmount = _repayAmount;\n        }\n        ///get USDC value of what was repayed\n        uint256 _USDCvalRepayed = UOF.getUnderlyingPriceofAsset(\n            address(asset),\n            repayedAmount\n        );\n        ////track repayment in MMC\n        MMF.trackCollateralDown(\n            msg.sender,\n            collateralLockedALR[msg.sender],\n            _USDCvalRepayed\n        );\n        //////////////fully repayed logic/////////////\n        if (\n            accountBorrowsAHR.sub(payAmountAHR) == 0 &&\n            accountBorrowsALR.sub(payAmountALR) == 0\n        ) {\n            //if the loan is fully payed off\n            //unlock the users locked collateral for this loan\n\n            //reset collateralLockedALR address to zero so the user can use a different ALR address in future borrows\n            collateralLockedALR[msg.sender] = address(0);\n            cantCollateralize[msg.sender] = false;\n            //reset locked collateral amount\n            lockedCollateral[msg.sender] = 0;\n        }\n    }\n\n    //struct used to avoid stack too deep errors\n    struct liquidateLocalVar {\n        uint256 accountBorrowsALR;\n        uint256 accountBorrowsAHR;\n        uint256 totalBorrows;\n        uint256 borrowedValue;\n        uint256 borrowedValue150;\n        uint256 collatValue;\n        uint256 halfVal;\n        uint256 payAmountALR; // Note: reverts on error\n        uint256 payAmountAHR;\n    }\n\n    /**\n    @notice _liquidateFor is called by the liquidateAccount function on a MMI where a user is being liquidated. This function\n            is called on a MMI contract where collateral is staked.\n\n    **/\n    function liquidateAccount(\n        address _borrower,\n        AskoRiskTokenI _ARTcollateralized\n    ) public {\n        //create local vars storage\n        liquidateLocalVar memory vars;\n        require(msg.sender != _borrower, \"you cant liquidate yourself\");\n        //get current borrowed amount\n        uint256 accountBorrowsALR = ALR.borrowBalanceCurrent(_borrower);\n        uint256 accountBorrowsAHR = AHR.borrowBalanceCurrent(_borrower);\n        uint256 totalBorrows = accountBorrowsALR.add(accountBorrowsAHR);\n\n        //get USDC value of borrowed value\n        vars.borrowedValue = UOF.getUnderlyingPriceofAsset(\n            address(asset),\n            totalBorrows\n        );\n        //get usdc collateral value\n        vars.collatValue = MMF.checkAvailibleCollateralValue(\n            _borrower,\n            address(_ARTcollateralized)\n        );\n        //divide borrowedValue value in half\n        vars.halfVal = vars.borrowedValue.div(2);\n        //add 1/2 the borrowedValue value to the total borrowedValue value for 150% borrowedValue value\n        vars.borrowedValue150 = vars.borrowedValue.add(vars.halfVal);\n        /**\n      need to check if the amount of collateral is less than 150% of the borrowed amount\n      if the collateral value is greater than or equal to 150% of the borrowed value than we liquidate\n      **/\n        if (vars.collatValue < vars.borrowedValue150) {\n            //transfer asset from msg.sender to repay loan\n            asset.transferFrom(msg.sender, address(ALR), accountBorrowsALR);\n            asset.transferFrom(msg.sender, address(AHR), accountBorrowsAHR);\n            MMF.liquidateTrigger(\n                vars.borrowedValue,\n                _borrower,\n                msg.sender,\n                address(_ARTcollateralized)\n            );\n            vars.payAmountALR = ALR.repayBorrow(0, _borrower); //pay off ALR\n            vars.payAmountAHR = AHR.repayBorrow(0, _borrower); //pay off  AHR\n\n            //track collateral\n            MMF.trackCollateralDown(\n                _borrower,\n                address(_ARTcollateralized),\n                vars.borrowedValue\n            );\n        }\n    }\n\n    /**\n@notice these are admin functions for updating individual ART values\n**/\n\n    function checkIfALR(address _inQuestion) public view returns (bool) {\n        return MMF._checkIfALR(_inQuestion);\n    }\n\n    function updateALR(address _newModel) public onlyMMFactory {\n        ALR._updateInterestModel(_newModel);\n    }\n\n    function updateAHR(address _newModel) public onlyMMFactory {\n        AHR._updateInterestModel(_newModel);\n    }\n\n    function setRRAHR(uint256 _RR) public onlyMMFactory {\n        AHR.setReserveRatio(_RR);\n    }\n\n    function setRRALR(uint256 _RR) public onlyMMFactory {\n        ALR.setReserveRatio(_RR);\n    }\n}\n",
  "sourcePath": "/home/stan36/repos/Askolend/AskoLend-contracts/contracts/MoneyMarketInstance.sol",
  "compiler": {
    "name": "solc",
    "version": "0.6.6+commit.6c089d02.Emscripten.clang"
  },
  "schemaVersion": "3.3.2",
  "updatedAt": "2020-12-10T00:49:13.428Z",
  "devdoc": {
    "methods": {
      "_setUpAHR(address,uint256,uint256)": {
        "details": "this function will create a token whos name and symbol is concatenated with a \"AHR-\" in front of it example: AHR-LINKasset.approve() is called to allow the AHR contract to freeely transfer the assset from this contract when the mint lendToAHRpool function is called.*",
        "params": {
          "_InterestRateModel": "is the address of this MoneyMarketInstances InterestRateModel",
          "_fee": "is a number representing the fee for exchanging an AHR token, as a mantissa (scaled by 1e18)"
        }
      },
      "_setUpALR(address,uint256,uint256)": {
        "details": "this function will create a token whos name and symbol is concatenated with a \"ALR-\" in front of it example: ALR-LINKasset.approve() is called to allow the ALR contract to freeely transfer the assset from this contract when the mint lendToALRpool function is called.*",
        "params": {
          "_InterestRateModel": "is the address of this MoneyMarketInstances InterestRateModel",
          "_fee": "is a number representing the fee for exchanging an ALR token, as a mantissa (scaled by 1e18)"
        }
      },
      "borrow(uint256,address)": {
        "params": {
          "_amount": "is the amount of asset being barrowed",
          "_collateral": "is the address of the ALR token being used as collateral*"
        }
      },
      "constructor": {
        "details": "this function uses ABI encoding to properly concatenate AHR- && ALR- in front of the tokens name and symbol before creating each token.*",
        "params": {
          "_assetContractAdd": "is the address of the ERC20 asset being whitelisted",
          "_assetName": "is the name of the asset(e.x: ChainLink)",
          "_assetSymbol": "is the symbol of the asset(e.x: LINK)"
        }
      },
      "lendToAHRpool(uint256)": {
        "details": "the user will need to first approve the transfer of the underlying asset*",
        "params": {
          "_amount": "is the amount of the asset being lent"
        }
      },
      "lendToALRpool(uint256)": {
        "details": "the user will need to first approve the transfer of the underlying asset*",
        "params": {
          "_amount": "is the amount of the asset being lent"
        }
      },
      "owner()": {
        "details": "Returns the address of the current owner."
      },
      "renounceOwnership()": {
        "details": "Leaves the contract without owner. It will not be possible to call `onlyOwner` functions anymore. Can only be called by the current owner.     * NOTE: Renouncing ownership will leave the contract without an owner, thereby removing any functionality that is only available to the owner."
      },
      "repay(uint256)": {
        "params": {
          "_repayAmount": "is the amount of the underlying asset being repayed*"
        }
      },
      "transferOwnership(address)": {
        "details": "Transfers ownership of the contract to a new account (`newOwner`). Can only be called by the current owner."
      }
    }
  },
  "userdoc": {
    "methods": {
      "_setUpAHR(address,uint256,uint256)": {
        "notice": "setUp is called by the MoneyMarketFactory after a contract is created to set up the initial variables. This is split from the constructor function to keep from reaching the gas block limit"
      },
      "_setUpALR(address,uint256,uint256)": {
        "notice": "setUp is called by the MoneyMarketFactory after a contract is created to set up the initial variables. This is split from the constructor function to keep from reaching the gas block limit"
      },
      "borrow(uint256,address)": {
        "notice": "borrow is used to take out a loan from in MoneyMarketInstance's underlying asset"
      },
      "checkIfALR(address)": {
        "notice": "these are admin functions for updating individual ART values*"
      },
      "constructor": "the constructor function is fired during the contract deployment process. The constructor can only be fired once and is used to initialize the MoneyMakerInstance and deploy its associated AHR && ALR token contracts",
      "getAssetAdd()": {
        "notice": "getAssetAdd allows for easy retrieval of a Money Markets underlying asset's address*"
      },
      "lendToAHRpool(uint256)": {
        "notice": "lendToAHRpool is used to lend assets to a MoneyMarketInstance's High Risk pool"
      },
      "lendToALRpool(uint256)": {
        "notice": "lendToAHRpool is used to lend assets to a MoneyMarketInstance's Low Risk pool"
      },
      "liquidateAccount(address,address)": {
        "notice": "_liquidateFor is called by the liquidateAccount function on a MMI where a user is being liquidated. This function is called on a MMI contract where collateral is staked.*"
      },
      "repay(uint256)": {
        "notice": "repay is used to repay a loan"
      }
    },
    "notice": "The MoneyMarketInstance contract is designed facilitate a tiered money market for an individual ERC20 asset This contract uses the OpenZeppelin contract Library to inherit functions from Ownable.sol && IRC20.sol*"
  }
}