{
  "contractName": "MoneyMarketControl",
  "abi": [
    {
      "inputs": [
        {
          "internalType": "address",
          "name": "_oracle",
          "type": "address"
        },
        {
          "internalType": "address",
          "name": "_MMF",
          "type": "address"
        },
        {
          "internalType": "address",
          "name": "_ARTF",
          "type": "address"
        }
      ],
      "stateMutability": "nonpayable",
      "type": "constructor"
    },
    {
      "anonymous": false,
      "inputs": [
        {
          "indexed": false,
          "internalType": "address",
          "name": "asset",
          "type": "address"
        },
        {
          "indexed": false,
          "internalType": "address",
          "name": "interestRateModel",
          "type": "address"
        }
      ],
      "name": "AHRcreated",
      "type": "event"
    },
    {
      "anonymous": false,
      "inputs": [
        {
          "indexed": false,
          "internalType": "address",
          "name": "asset",
          "type": "address"
        },
        {
          "indexed": false,
          "internalType": "address",
          "name": "interestRateModel",
          "type": "address"
        }
      ],
      "name": "ALRcreated",
      "type": "event"
    },
    {
      "anonymous": false,
      "inputs": [
        {
          "indexed": false,
          "internalType": "address",
          "name": "ALR",
          "type": "address"
        },
        {
          "indexed": false,
          "internalType": "address",
          "name": "borrower",
          "type": "address"
        },
        {
          "indexed": false,
          "internalType": "uint256",
          "name": "_amount",
          "type": "uint256"
        }
      ],
      "name": "CollateralDown",
      "type": "event"
    },
    {
      "anonymous": false,
      "inputs": [
        {
          "indexed": false,
          "internalType": "address",
          "name": "ALR",
          "type": "address"
        },
        {
          "indexed": false,
          "internalType": "address",
          "name": "borrower",
          "type": "address"
        },
        {
          "indexed": false,
          "internalType": "uint256",
          "name": "_amount",
          "type": "uint256"
        }
      ],
      "name": "CollateralUp",
      "type": "event"
    },
    {
      "anonymous": false,
      "inputs": [
        {
          "indexed": false,
          "internalType": "uint256",
          "name": "baseRatePerYear",
          "type": "uint256"
        },
        {
          "indexed": false,
          "internalType": "uint256",
          "name": "multiplierPerYear",
          "type": "uint256"
        },
        {
          "indexed": false,
          "internalType": "uint256",
          "name": "jumpMultiplierPerYear",
          "type": "uint256"
        },
        {
          "indexed": false,
          "internalType": "uint256",
          "name": "optimal",
          "type": "uint256"
        },
        {
          "indexed": false,
          "internalType": "address",
          "name": "assetContractAdd",
          "type": "address"
        },
        {
          "indexed": false,
          "internalType": "address",
          "name": "moneyMarketInstance",
          "type": "address"
        }
      ],
      "name": "InterestRateModelUpdate",
      "type": "event"
    },
    {
      "anonymous": false,
      "inputs": [
        {
          "indexed": false,
          "internalType": "address",
          "name": "MonetMarketInstance",
          "type": "address"
        }
      ],
      "name": "MMIOracleUpgrade",
      "type": "event"
    },
    {
      "anonymous": false,
      "inputs": [
        {
          "indexed": false,
          "internalType": "address",
          "name": "newARTFactory",
          "type": "address"
        }
      ],
      "name": "NewArtFactory",
      "type": "event"
    },
    {
      "anonymous": false,
      "inputs": [
        {
          "indexed": false,
          "internalType": "address",
          "name": "newMMFactory",
          "type": "address"
        }
      ],
      "name": "NewMoneyMarketFactory",
      "type": "event"
    },
    {
      "anonymous": false,
      "inputs": [
        {
          "indexed": false,
          "internalType": "address",
          "name": "newOracle",
          "type": "address"
        }
      ],
      "name": "OracleUpgrade",
      "type": "event"
    },
    {
      "anonymous": false,
      "inputs": [
        {
          "indexed": true,
          "internalType": "address",
          "name": "previousOwner",
          "type": "address"
        },
        {
          "indexed": true,
          "internalType": "address",
          "name": "newOwner",
          "type": "address"
        }
      ],
      "name": "OwnershipTransferred",
      "type": "event"
    },
    {
      "anonymous": false,
      "inputs": [
        {
          "indexed": false,
          "internalType": "bool",
          "name": "isALR",
          "type": "bool"
        },
        {
          "indexed": false,
          "internalType": "address",
          "name": "asset",
          "type": "address"
        },
        {
          "indexed": false,
          "internalType": "address",
          "name": "moneyMarketInstance",
          "type": "address"
        },
        {
          "indexed": false,
          "internalType": "uint256",
          "name": "newRR",
          "type": "uint256"
        }
      ],
      "name": "ReserveRateUpdate",
      "type": "event"
    },
    {
      "anonymous": false,
      "inputs": [
        {
          "indexed": false,
          "internalType": "address",
          "name": "asset",
          "type": "address"
        },
        {
          "indexed": false,
          "internalType": "address",
          "name": "moneyMarket",
          "type": "address"
        },
        {
          "indexed": false,
          "internalType": "address",
          "name": "oracle",
          "type": "address"
        }
      ],
      "name": "WhiteListed",
      "type": "event"
    },
    {
      "inputs": [],
      "name": "ARTF",
      "outputs": [
        {
          "internalType": "address",
          "name": "",
          "type": "address"
        }
      ],
      "stateMutability": "view",
      "type": "function"
    },
    {
      "inputs": [],
      "name": "MMF",
      "outputs": [
        {
          "internalType": "contract MoneyMarketFactoryI",
          "name": "",
          "type": "address"
        }
      ],
      "stateMutability": "view",
      "type": "function"
    },
    {
      "inputs": [],
      "name": "Oracle",
      "outputs": [
        {
          "internalType": "contract UniswapOracleFactoryI",
          "name": "",
          "type": "address"
        }
      ],
      "stateMutability": "view",
      "type": "function"
    },
    {
      "inputs": [
        {
          "internalType": "address",
          "name": "",
          "type": "address"
        }
      ],
      "name": "_ALRtracker",
      "outputs": [
        {
          "internalType": "address",
          "name": "",
          "type": "address"
        }
      ],
      "stateMutability": "view",
      "type": "function"
    },
    {
      "inputs": [
        {
          "internalType": "uint256",
          "name": "",
          "type": "uint256"
        }
      ],
      "name": "assets",
      "outputs": [
        {
          "internalType": "address",
          "name": "",
          "type": "address"
        }
      ],
      "stateMutability": "view",
      "type": "function"
    },
    {
      "inputs": [
        {
          "internalType": "address",
          "name": "",
          "type": "address"
        },
        {
          "internalType": "address",
          "name": "",
          "type": "address"
        }
      ],
      "name": "collateralTracker",
      "outputs": [
        {
          "internalType": "uint256",
          "name": "",
          "type": "uint256"
        }
      ],
      "stateMutability": "view",
      "type": "function"
    },
    {
      "inputs": [],
      "name": "instanceCount",
      "outputs": [
        {
          "internalType": "uint256",
          "name": "",
          "type": "uint256"
        }
      ],
      "stateMutability": "view",
      "type": "function"
    },
    {
      "inputs": [
        {
          "internalType": "address",
          "name": "",
          "type": "address"
        }
      ],
      "name": "instanceTracker",
      "outputs": [
        {
          "internalType": "address",
          "name": "",
          "type": "address"
        }
      ],
      "stateMutability": "view",
      "type": "function"
    },
    {
      "inputs": [
        {
          "internalType": "address",
          "name": "",
          "type": "address"
        }
      ],
      "name": "isALR",
      "outputs": [
        {
          "internalType": "bool",
          "name": "",
          "type": "bool"
        }
      ],
      "stateMutability": "view",
      "type": "function"
    },
    {
      "inputs": [
        {
          "internalType": "address",
          "name": "",
          "type": "address"
        }
      ],
      "name": "isMMI",
      "outputs": [
        {
          "internalType": "bool",
          "name": "",
          "type": "bool"
        }
      ],
      "stateMutability": "view",
      "type": "function"
    },
    {
      "inputs": [
        {
          "internalType": "address",
          "name": "",
          "type": "address"
        }
      ],
      "name": "oracleTracker",
      "outputs": [
        {
          "internalType": "address",
          "name": "",
          "type": "address"
        }
      ],
      "stateMutability": "view",
      "type": "function"
    },
    {
      "inputs": [],
      "name": "owner",
      "outputs": [
        {
          "internalType": "address",
          "name": "",
          "type": "address"
        }
      ],
      "stateMutability": "view",
      "type": "function"
    },
    {
      "inputs": [],
      "name": "renounceOwnership",
      "outputs": [],
      "stateMutability": "nonpayable",
      "type": "function"
    },
    {
      "inputs": [
        {
          "internalType": "address",
          "name": "newOwner",
          "type": "address"
        }
      ],
      "name": "transferOwnership",
      "outputs": [],
      "stateMutability": "nonpayable",
      "type": "function"
    },
    {
      "inputs": [
        {
          "internalType": "address",
          "name": "_assetContractAdd",
          "type": "address"
        },
        {
          "internalType": "string",
          "name": "_assetName",
          "type": "string"
        },
        {
          "internalType": "string",
          "name": "_assetSymbol",
          "type": "string"
        }
      ],
      "name": "whitelistAsset",
      "outputs": [],
      "stateMutability": "nonpayable",
      "type": "function"
    },
    {
      "inputs": [
        {
          "internalType": "uint256",
          "name": "_baseRatePerYear",
          "type": "uint256"
        },
        {
          "internalType": "uint256",
          "name": "_multiplierPerYear",
          "type": "uint256"
        },
        {
          "internalType": "uint256",
          "name": "_jumpMultiplierPerYear",
          "type": "uint256"
        },
        {
          "internalType": "uint256",
          "name": "_optimal",
          "type": "uint256"
        },
        {
          "internalType": "uint256",
          "name": "_fee",
          "type": "uint256"
        },
        {
          "internalType": "uint256",
          "name": "_initialExchangeRate",
          "type": "uint256"
        },
        {
          "internalType": "address",
          "name": "_assetContractAdd",
          "type": "address"
        }
      ],
      "name": "setUpAHR",
      "outputs": [],
      "stateMutability": "nonpayable",
      "type": "function"
    },
    {
      "inputs": [
        {
          "internalType": "uint256",
          "name": "_baseRatePerYear",
          "type": "uint256"
        },
        {
          "internalType": "uint256",
          "name": "_multiplierPerYear",
          "type": "uint256"
        },
        {
          "internalType": "uint256",
          "name": "_jumpMultiplierPerYear",
          "type": "uint256"
        },
        {
          "internalType": "uint256",
          "name": "_optimal",
          "type": "uint256"
        },
        {
          "internalType": "uint256",
          "name": "_fee",
          "type": "uint256"
        },
        {
          "internalType": "uint256",
          "name": "_initialExchangeRate",
          "type": "uint256"
        },
        {
          "internalType": "address",
          "name": "_assetContractAdd",
          "type": "address"
        }
      ],
      "name": "setUpALR",
      "outputs": [],
      "stateMutability": "nonpayable",
      "type": "function"
    },
    {
      "inputs": [
        {
          "internalType": "address",
          "name": "_borrower",
          "type": "address"
        },
        {
          "internalType": "address",
          "name": "_ALR",
          "type": "address"
        },
        {
          "internalType": "uint256",
          "name": "_amount",
          "type": "uint256"
        }
      ],
      "name": "trackCollateralUp",
      "outputs": [],
      "stateMutability": "nonpayable",
      "type": "function"
    },
    {
      "inputs": [
        {
          "internalType": "address",
          "name": "_borrower",
          "type": "address"
        },
        {
          "internalType": "address",
          "name": "_ALR",
          "type": "address"
        },
        {
          "internalType": "uint256",
          "name": "_amount",
          "type": "uint256"
        }
      ],
      "name": "trackCollateralDown",
      "outputs": [],
      "stateMutability": "nonpayable",
      "type": "function"
    },
    {
      "inputs": [
        {
          "internalType": "address",
          "name": "_borrower",
          "type": "address"
        },
        {
          "internalType": "address",
          "name": "_ALR",
          "type": "address"
        }
      ],
      "name": "checkAvailibleCollateralValue",
      "outputs": [
        {
          "internalType": "uint256",
          "name": "",
          "type": "uint256"
        }
      ],
      "stateMutability": "nonpayable",
      "type": "function"
    },
    {
      "inputs": [
        {
          "internalType": "uint256",
          "name": "_liquidateValue",
          "type": "uint256"
        },
        {
          "internalType": "address",
          "name": "_borrower",
          "type": "address"
        },
        {
          "internalType": "address",
          "name": "_liquidator",
          "type": "address"
        },
        {
          "internalType": "contract AskoRiskTokenI",
          "name": "_ALR",
          "type": "address"
        }
      ],
      "name": "liquidateTrigger",
      "outputs": [],
      "stateMutability": "nonpayable",
      "type": "function"
    },
    {
      "inputs": [
        {
          "internalType": "uint256",
          "name": "_baseRatePerYear",
          "type": "uint256"
        },
        {
          "internalType": "uint256",
          "name": "_multiplierPerYear",
          "type": "uint256"
        },
        {
          "internalType": "uint256",
          "name": "_jumpMultiplierPerYear",
          "type": "uint256"
        },
        {
          "internalType": "uint256",
          "name": "_optimal",
          "type": "uint256"
        },
        {
          "internalType": "address",
          "name": "_assetContractAdd",
          "type": "address"
        },
        {
          "internalType": "bool",
          "name": "_isALR",
          "type": "bool"
        }
      ],
      "name": "updateIRM",
      "outputs": [],
      "stateMutability": "nonpayable",
      "type": "function"
    },
    {
      "inputs": [
        {
          "internalType": "uint256",
          "name": "_newRR",
          "type": "uint256"
        },
        {
          "internalType": "bool",
          "name": "_isALR",
          "type": "bool"
        },
        {
          "internalType": "address",
          "name": "_asset",
          "type": "address"
        }
      ],
      "name": "updateRR",
      "outputs": [],
      "stateMutability": "nonpayable",
      "type": "function"
    },
    {
      "inputs": [
        {
          "internalType": "address",
          "name": "_newOracle",
          "type": "address"
        }
      ],
      "name": "upgradeOracle",
      "outputs": [],
      "stateMutability": "nonpayable",
      "type": "function"
    },
    {
      "inputs": [
        {
          "internalType": "address",
          "name": "_newMMF",
          "type": "address"
        }
      ],
      "name": "upgradeMoneyMarketFactory",
      "outputs": [],
      "stateMutability": "nonpayable",
      "type": "function"
    },
    {
      "inputs": [
        {
          "internalType": "address",
          "name": "_ARTF",
          "type": "address"
        }
      ],
      "name": "upgradeARTFactory",
      "outputs": [],
      "stateMutability": "nonpayable",
      "type": "function"
    },
    {
      "inputs": [
        {
          "internalType": "address",
          "name": "_asset",
          "type": "address"
        }
      ],
      "name": "upgradeMMIOracle",
      "outputs": [],
      "stateMutability": "nonpayable",
      "type": "function"
    },
    {
      "inputs": [
        {
          "internalType": "address",
          "name": "_targetAdd",
          "type": "address"
        }
      ],
      "name": "collectFees",
      "outputs": [],
      "stateMutability": "nonpayable",
      "type": "function"
    },
    {
      "inputs": [],
      "name": "getAssets",
      "outputs": [
        {
          "internalType": "address[]",
          "name": "",
          "type": "address[]"
        }
      ],
      "stateMutability": "view",
      "type": "function"
    },
    {
      "inputs": [
        {
          "internalType": "address",
          "name": "_borrower",
          "type": "address"
        },
        {
          "internalType": "address",
          "name": "_ALR",
          "type": "address"
        }
      ],
      "name": "checkCollateralizedALR",
      "outputs": [
        {
          "internalType": "uint256",
          "name": "",
          "type": "uint256"
        }
      ],
      "stateMutability": "view",
      "type": "function"
    },
    {
      "inputs": [
        {
          "internalType": "address",
          "name": "__inQ",
          "type": "address"
        }
      ],
      "name": "_checkIfALR",
      "outputs": [
        {
          "internalType": "bool",
          "name": "",
          "type": "bool"
        }
      ],
      "stateMutability": "view",
      "type": "function"
    },
    {
      "inputs": [
        {
          "internalType": "address",
          "name": "_account",
          "type": "address"
        },
        {
          "internalType": "address",
          "name": "_alr",
          "type": "address"
        }
      ],
      "name": "viewCollateral",
      "outputs": [
        {
          "internalType": "uint256",
          "name": "",
          "type": "uint256"
        }
      ],
      "stateMutability": "view",
      "type": "function"
    }
  ],
  "bytecode": "0x608060405234801561001057600080fd5b50604051620031b4380380620031b48339818101604052606081101561003557600080fd5b508051602082015160409092015190919060006100596001600160e01b036100e516565b600080546001600160a01b0319166001600160a01b0383169081178255604051929350917f8be0079c531659141344cd1fd0a4f28419497f9722a3daafe3b4186f6b6457e0908290a350600580546001600160a01b039485166001600160a01b0319918216179091556006805493851693821693909317909255600480549190931691161790556100e9565b3390565b6130bb80620000f96000396000f3fe60806040523480156200001157600080fd5b5060043610620001d85760003560e01c80638da5cb5b1162000105578063da92fd8a116200009f578063da92fd8a1462000492578063eb8341b3146200070d578063ec56c7161462000736578063f189d7a31462000740578063f24a534e1462000777578063f2fde38b1462000781578063f4a64d9e14620007aa578063fc0c79a414620007d357620001d8565b80638da5cb5b14620005d85780639020084914620005e257806395127634146200062f578063a480ca791462000658578063b3f643e71462000681578063c16a7f6d14620006ba578063cf35bdd014620006e3578063d162054a146200070357620001d8565b8063551a32a31162000177578063551a32a3146200041e5780636012b4311462000461578063660a3922146200049257806367e4ac2c14620004c35780636a8394ad146200051f578063714432971462000558578063715018a614620005815780637ab2d447146200058b57620001d8565b80630ba7345d14620001dd5780630dc9cacd14620002b65780631dda078014620002f35780632619aa7414620003195780632bb0df2314620003425780633373a447146200038357806335424d2c14620003ac5780633ca0037b14620003f5575b600080fd5b620002b460048036036060811015620001f557600080fd5b6001600160a01b038235169190810190604081016020820135600160201b8111156200022057600080fd5b8201836020820111156200023357600080fd5b803590602001918460018302840111600160201b831117156200025557600080fd5b919390929091602081019035600160201b8111156200027357600080fd5b8201836020820111156200028657600080fd5b803590602001918460018302840111600160201b83111715620002a857600080fd5b509092509050620007fc565b005b620002df60048036036020811015620002ce57600080fd5b50356001600160a01b031662000b4b565b604080519115158252519081900360200190f35b620002fd62000b69565b604080516001600160a01b039092168252519081900360200190f35b620002b4600480360360208110156200033157600080fd5b50356001600160a01b031662000b78565b620002b4600480360360808110156200035a57600080fd5b508035906001600160a01b03602082013581169160408101358216916060909101351662000c8a565b620002fd600480360360208110156200039b57600080fd5b50356001600160a01b031662000dc5565b620002b4600480360360c0811015620003c457600080fd5b508035906020810135906040810135906060810135906001600160a01b036080820135169060a00135151562000de0565b620002fd600480360360208110156200040d57600080fd5b50356001600160a01b03166200107e565b6200044f600480360360408110156200043657600080fd5b506001600160a01b038135811691602001351662001099565b60408051918252519081900360200190f35b6200044f600480360360408110156200047957600080fd5b506001600160a01b0381358116916020013516620010b6565b6200044f60048036036040811015620004aa57600080fd5b506001600160a01b038135811691602001351662001208565b620004cd62001233565b60408051602080825283518183015283519192839290830191858101910280838360005b838110156200050b578181015183820152602001620004f1565b505050509050019250505060405180910390f35b620002b4600480360360608110156200053757600080fd5b506001600160a01b0381358116916020810135909116906040013562001297565b620002b4600480360360208110156200057057600080fd5b50356001600160a01b0316620014c0565b620002b462001570565b620002b4600480360360e0811015620005a357600080fd5b5080359060208101359060408101359060608101359060808101359060a08101359060c001356001600160a01b031662001616565b620002fd6200182c565b620002b4600480360360e0811015620005fa57600080fd5b5080359060208101359060408101359060608101359060808101359060a08101359060c001356001600160a01b03166200183b565b620002b4600480360360208110156200064757600080fd5b50356001600160a01b031662001b84565b620002b4600480360360208110156200067057600080fd5b50356001600160a01b031662001c34565b620002b4600480360360608110156200069957600080fd5b506001600160a01b0381358116916020810135909116906040013562001e36565b620002df60048036036020811015620006d257600080fd5b50356001600160a01b031662001ffa565b620002fd60048036036020811015620006fb57600080fd5b50356200200f565b620002fd62002037565b620002fd600480360360208110156200072557600080fd5b50356001600160a01b031662002046565b6200044f62002061565b620002b4600480360360608110156200075857600080fd5b508035906020810135151590604001356001600160a01b031662002067565b620002fd6200226c565b620002b4600480360360208110156200079957600080fd5b50356001600160a01b03166200227b565b620002b460048036036020811015620007c257600080fd5b50356001600160a01b031662002379565b620002df60048036036020811015620007eb57600080fd5b50356001600160a01b031662002429565b620008066200243e565b6000546001600160a01b0390811691161462000858576040805162461bcd60e51b8152602060048201819052602482015260008051602062003040833981519152604482015290519081900360640190fd5b600180548101905560055460408051632fb2da6160e01b81526001600160a01b03888116600483015291516000939290921691632fb2da619160248082019260209290919082900301818787803b158015620008b357600080fd5b505af1158015620008c8573d6000803e3d6000fd5b505050506040513d6020811015620008df57600080fd5b50516006546005546004805460405163cc83954d60e01b81526001600160a01b038c81169382019384529384166024820181905230604483018190529285166064830181905260c06084840190815260c484018d9052979850600097959096169563cc83954d958e9592949391928e928e928e928e9290919060a481019060e401878780828437600083820152601f01601f191690910184810383528581526020019050858580828437600081840152601f19601f8201169050808301925050509a5050505050505050505050602060405180830381600087803b158015620009c757600080fd5b505af1158015620009dc573d6000803e3d6000fd5b505050506040513d6020811015620009f357600080fd5b50516001600160a01b038082166000818152600c6020526040808220805460ff191660011790556005548151631be1d0b960e01b815260048101949094528c85166024850152905194955090921692631be1d0b99260448084019391929182900301818387803b15801562000a6757600080fd5b505af115801562000a7c573d6000803e3d6000fd5b5050506001600160a01b03808916600081815260086020908152604080832080548689166001600160a01b03199182168117909255818552600a84528285208054978b16978216881790556007805460018101825595527fa66cc928b5edb82af9bd49922954155ab7b0942694bea4ce44661d9a8736c688909401805490941685179093558051938452908301919091528181019290925290517f1f39f253506bf384ce653a878c22225914e6a145c0e77c978fbe8d578024a64e92509081900360600190a150505050505050565b6001600160a01b03166000908152600d602052604090205460ff1690565b6004546001600160a01b031681565b62000b826200243e565b6000546001600160a01b0390811691161462000bd4576040805162461bcd60e51b8152602060048201819052602482015260008051602062003040833981519152604482015290519081900360640190fd5b6001600160a01b038082166000908152600860205260408082205460055482516340d1a8dd60e11b81529085166004820152915193169283926381a351ba926024808201939182900301818387803b15801562000c3057600080fd5b505af115801562000c45573d6000803e3d6000fd5b5050604080516001600160a01b038516815290517f222ca4e5354025db6af5297df5e14527cd0f278ae58d6afb706fc407e86ff1c39350908190036020019150a15050565b336000908152600c602052604090205460ff1662000cda5760405162461bcd60e51b8152600401808060200182810382526029815260200180620030176029913960400191505060405180910390fd5b6001600160a01b0381166000908152600d602052604090205460ff1662000d335760405162461bcd60e51b815260040180806020018281038252602881526020018062002fc96028913960400191505060405180910390fd5b6001600160a01b038084166000818152600b6020908152604080832086861680855292528083208390558051632df9ed4360e21b8152600481018a905260248101949094529386166044840152925163b7e7b50c92606480820193929182900301818387803b15801562000da657600080fd5b505af115801562000dbb573d6000803e3d6000fd5b5050505050505050565b6008602052600090815260409020546001600160a01b031681565b62000dea6200243e565b6000546001600160a01b0390811691161462000e3c576040805162461bcd60e51b8152602060048201819052602482015260008051602062003040833981519152604482015290519081900360640190fd5b6001600160a01b038083166000908152600860209081526040808320549093168252600c9052205460ff1662000ea45760405162461bcd60e51b8152600401808060200182810382526026815260200180620030606026913960400191505060405180910390fd5b6001600160a01b038083166000908152600860205260408082205490519216918890889088908890869062000ed99062002583565b948552602085019390935260408085019290925260608401526001600160a01b039091166080830152519081900360a001906000f08015801562000f21573d6000803e3d6000fd5b509050821562000fa357816001600160a01b0316630a3ed432826040518263ffffffff1660e01b815260040180826001600160a01b03166001600160a01b03168152602001915050600060405180830381600087803b15801562000f8457600080fd5b505af115801562000f99573d6000803e3d6000fd5b5050505062001016565b816001600160a01b031663b451bb2e826040518263ffffffff1660e01b815260040180826001600160a01b03166001600160a01b03168152602001915050600060405180830381600087803b15801562000ffc57600080fd5b505af115801562001011573d6000803e3d6000fd5b505050505b6040805189815260208101899052808201889052606081018790526001600160a01b038087166080830152841660a082015290517f5eba12b49ba101d084d1915a1ecf4000336c4e3d48ffd0d8e399643425a5a75a9181900360c00190a15050505050505050565b6009602052600090815260409020546001600160a01b031681565b600b60209081526000928352604080842090915290825290205481565b6000808290506000816001600160a01b03166370a08231866040518263ffffffff1660e01b815260040180826001600160a01b03166001600160a01b03168152602001915050602060405180830381600087803b1580156200111757600080fd5b505af11580156200112c573d6000803e3d6000fd5b505050506040513d60208110156200114357600080fd5b5051604080516342c28d1360e01b81526004810183905290519192506000916001600160a01b038516916342c28d1391602480830192602092919082900301818787803b1580156200119457600080fd5b505af1158015620011a9573d6000803e3d6000fd5b505050506040513d6020811015620011c057600080fd5b50516001600160a01b038088166000908152600b60209081526040808320938a1683529290522054909150620011fd828263ffffffff6200244216565b979650505050505050565b6001600160a01b039182166000908152600b6020908152604080832093909416825291909152205490565b606060078054806020026020016040519081016040528092919081815260200182805480156200128d57602002820191906000526020600020905b81546001600160a01b031681526001909101906020018083116200126e575b5050505050905090565b336000908152600c602052604090205460ff16620012e75760405162461bcd60e51b8152600401808060200182810382526029815260200180620030176029913960400191505060405180910390fd5b336000908152600c602052604090205460ff1680620013155750336000908152600d602052604090205460ff165b6200135d576040805162461bcd60e51b81526020600482015260136024820152721b9bdd081848185cdadbc818dbdb9d1c9858dd606a1b604482015290519081900360640190fd5b6001600160a01b0382166000908152600d602052604090205460ff16620013b65760405162461bcd60e51b815260040180806020018281038252602881526020018062002fc96028913960400191505060405180910390fd5b6001600160a01b038084166000908152600b602090815260408083209386168352929052205481101562001448576001600160a01b038084166000908152600b60209081526040808320938616835292905220546200141c908263ffffffff6200244216565b6001600160a01b038085166000908152600b602090815260408083209387168352929052205562001471565b6001600160a01b038084166000908152600b602090815260408083209386168352929052908120555b604080516001600160a01b0380851682528516602082015280820183905290517fbadc5ccaa0d403d61e58d233b71619e10eae7fe08e79840279832756cdce7c099181900360600190a1505050565b620014ca6200243e565b6000546001600160a01b039081169116146200151c576040805162461bcd60e51b8152602060048201819052602482015260008051602062003040833981519152604482015290519081900360640190fd5b600680546001600160a01b0383166001600160a01b0319909116811790915560408051918252517f1c482de766d22b14fb775d057f24c9dc5192ffe616a3384688fff5d8b3b4af639181900360200190a150565b6200157a6200243e565b6000546001600160a01b03908116911614620015cc576040805162461bcd60e51b8152602060048201819052602482015260008051602062003040833981519152604482015290519081900360640190fd5b600080546040516001600160a01b03909116907f8be0079c531659141344cd1fd0a4f28419497f9722a3daafe3b4186f6b6457e0908390a3600080546001600160a01b0319169055565b620016206200243e565b6000546001600160a01b0390811691161462001672576040805162461bcd60e51b8152602060048201819052602482015260008051602062003040833981519152604482015290519081900360640190fd5b6001600160a01b038082166000908152600860209081526040808320549093168252600c9052205460ff16620016da5760405162461bcd60e51b8152600401808060200182810382526026815260200180620030606026913960400191505060405180910390fd5b6001600160a01b03808216600090815260086020526040808220549051921691899089908990899086906200170f9062002583565b948552602085019390935260408085019290925260608401526001600160a01b039091166080830152519081900360a001906000f08015801562001757573d6000803e3d6000fd5b509050816001600160a01b031663dcc716bd8287876040518463ffffffff1660e01b815260040180846001600160a01b03166001600160a01b031681526020018381526020018281526020019350505050600060405180830381600087803b158015620017c357600080fd5b505af1158015620017d8573d6000803e3d6000fd5b5050604080516001600160a01b0380881682528516602082015281517f1441a6afff6cbd4a06d0416e0d93d0fa8d5fbe9c7c5d1df49b7f93d72add02829450908190039091019150a1505050505050505050565b6000546001600160a01b031690565b620018456200243e565b6000546001600160a01b0390811691161462001897576040805162461bcd60e51b8152602060048201819052602482015260008051602062003040833981519152604482015290519081900360640190fd5b6001600160a01b038082166000908152600860209081526040808320549093168252600c9052205460ff16620018ff5760405162461bcd60e51b8152600401808060200182810382526026815260200180620030606026913960400191505060405180910390fd5b6001600160a01b0380821660009081526008602052604080822054905192169189908990899089908690620019349062002583565b948552602085019390935260408085019290925260608401526001600160a01b039091166080830152519081900360a001906000f0801580156200197c573d6000803e3d6000fd5b509050816001600160a01b0316631f432cf58287876040518463ffffffff1660e01b815260040180846001600160a01b03166001600160a01b031681526020018381526020018281526020019350505050600060405180830381600087803b158015620019e857600080fd5b505af1158015620019fd573d6000803e3d6000fd5b505050508160096000846001600160a01b031663c27d4df36040518163ffffffff1660e01b815260040160206040518083038186803b15801562001a4057600080fd5b505afa15801562001a55573d6000803e3d6000fd5b505050506040513d602081101562001a6c57600080fd5b50516001600160a01b0390811682526020808301939093526040918201600090812080546001600160a01b03191695831695909517909455815163c27d4df360e01b81529151600194600d9490939288169263c27d4df39260048083019392829003018186803b15801562001ae057600080fd5b505afa15801562001af5573d6000803e3d6000fd5b505050506040513d602081101562001b0c57600080fd5b50516001600160a01b0390811682526020808301939093526040918201600020805460ff191694151594909417909355805186841681529284169183019190915280517f450572808a85306efa02e194c62463c8bb5a4e6b55dc35e3732ed63a35d27ce79281900390910190a1505050505050505050565b62001b8e6200243e565b6000546001600160a01b0390811691161462001be0576040805162461bcd60e51b8152602060048201819052602482015260008051602062003040833981519152604482015290519081900360640190fd5b600580546001600160a01b0383166001600160a01b0319909116811790915560408051918252517f41f7f29014bcd1ddb5aec88966f0acd59d2d3abdf823d1e2b7d1aae1b7c0a09d9181900360200190a150565b62001c3e6200243e565b6000546001600160a01b0390811691161462001c90576040805162461bcd60e51b8152602060048201819052602482015260008051602062003040833981519152604482015290519081900360640190fd5b60005a90506002546000141562001d5157600060086000600760008154811062001cb657fe5b60009182526020808320909101546001600160a01b03908116845290830193909352604091820181205482516331968ce560e11b81528785166004820152925193169350839263632d19ca92602480820193929182900301818387803b15801562001d2057600080fd5b505af115801562001d35573d6000803e3d6000fd5b5050505062001d4c5a839063ffffffff6200244216565b600355505b60015b600754811162001e31575b6003545a111562001e28576000600860006007848154811062001d7e57fe5b60009182526020808320909101546001600160a01b03908116845290830193909352604091820181205482516331968ce560e11b81528885166004820152925193169350839263632d19ca92602480820193929182900301818387803b15801562001de857600080fd5b505af115801562001dfd573d6000803e3d6000fd5b50506007546002541415915062001e1b905057600060025562001e21565b60028290555b5062001d5f565b60010162001d54565b505050565b336000908152600c602052604090205460ff1662001e865760405162461bcd60e51b8152600401808060200182810382526029815260200180620030176029913960400191505060405180910390fd5b336000908152600c602052604090205460ff168062001eb45750336000908152600d602052604090205460ff165b62001efc576040805162461bcd60e51b81526020600482015260136024820152721b9bdd081848185cdadbc818dbdb9d1c9858dd606a1b604482015290519081900360640190fd5b6001600160a01b0382166000908152600d602052604090205460ff1662001f555760405162461bcd60e51b815260040180806020018281038252602881526020018062002fc96028913960400191505060405180910390fd5b6001600160a01b038084166000908152600b602090815260408083209386168352929052205462001f8d908263ffffffff6200248d16565b6001600160a01b038085166000818152600b60209081526040808320948816808452948252918290209490945580519283529282015280820183905290517f8509986c28c8cf3bf7b6a84bded4e9f2cfe1de342e96404005762b78d5cbf2b69181900360600190a1505050565b600c6020526000908152604090205460ff1681565b600781815481106200201d57fe5b6000918252602090912001546001600160a01b0316905081565b6006546001600160a01b031681565b600a602052600090815260409020546001600160a01b031681565b60015481565b620020716200243e565b6000546001600160a01b03908116911614620020c3576040805162461bcd60e51b8152602060048201819052602482015260008051602062003040833981519152604482015290519081900360640190fd5b6001600160a01b038082166000908152600860209081526040808320549093168252600c9052205460ff166200212b5760405162461bcd60e51b8152600401808060200182810382526026815260200180620030606026913960400191505060405180910390fd5b6001600160a01b03808216600090815260086020526040902054168215620021b357806001600160a01b0316631d7bd46e856040518263ffffffff1660e01b815260040180828152602001915050600060405180830381600087803b1580156200219457600080fd5b505af1158015620021a9573d6000803e3d6000fd5b5050505062002214565b806001600160a01b031663d6b9b5d9856040518263ffffffff1660e01b815260040180828152602001915050600060405180830381600087803b158015620021fa57600080fd5b505af11580156200220f573d6000803e3d6000fd5b505050505b6040805184151581526001600160a01b0380851660208301528316818301526060810186905290517faf1f918b7ad38bfbdfc578d6869ef4815d3f9f7e901c47ebf9a5e9e9dbbb55549181900360800190a150505050565b6005546001600160a01b031681565b620022856200243e565b6000546001600160a01b03908116911614620022d7576040805162461bcd60e51b8152602060048201819052602482015260008051602062003040833981519152604482015290519081900360640190fd5b6001600160a01b0381166200231e5760405162461bcd60e51b815260040180806020018281038252602681526020018062002ff16026913960400191505060405180910390fd5b600080546040516001600160a01b03808516939216917f8be0079c531659141344cd1fd0a4f28419497f9722a3daafe3b4186f6b6457e091a3600080546001600160a01b0319166001600160a01b0392909216919091179055565b620023836200243e565b6000546001600160a01b03908116911614620023d5576040805162461bcd60e51b8152602060048201819052602482015260008051602062003040833981519152604482015290519081900360640190fd5b600480546001600160a01b0383166001600160a01b0319909116811790915560408051918252517f0f5b5f9bd13196295cbfcfd70d45e2df4850fc6bc8e24449155f9393032fe8fc9181900360200190a150565b600d6020526000908152604090205460ff1681565b3390565b60006200248683836040518060400160405280601e81526020017f536166654d6174683a207375627472616374696f6e206f766572666c6f770000815250620024e8565b9392505050565b60008282018381101562002486576040805162461bcd60e51b815260206004820152601b60248201527f536166654d6174683a206164646974696f6e206f766572666c6f770000000000604482015290519081900360640190fd5b600081848411156200257b5760405162461bcd60e51b81526004018080602001828103825283818151815260200191508051906020019080838360005b838110156200253f57818101518382015260200162002525565b50505050905090810190601f1680156200256d5780820380516001836020036101000a031916815260200191505b509250505060405180910390fd5b505050900390565b610a3780620025928339019056fe608060405234801561001057600080fd5b50604051610a37380380610a37833981810160405260a081101561003357600080fd5b508051602082015160408301516060840151608090940151600080546001600160a01b0319166001600160a01b03831617905592939192909190848484848461007e8585858561008d565b505050505050505050506102bc565b6100a7622014808561017060201b6105901790919060201c565b6002556100f66100c562201480836101c1602090811b61053717901c565b6100e4670de0b6b3a7640000866101c160201b6105371790919060201c565b61017060201b6105901790919060201c565b6001556101118262201480610170602090811b61059017901c565b60038190556004829055600254600154604080519283526020830191909152818101929092526060810183905290517f6960ab234c7ef4b0c9197100f5393cfcde7c453ac910a27bd2000aa1dd4c068d9181900360800190a150505050565b60006101b883836040518060400160405280601a81526020017f536166654d6174683a206469766973696f6e206279207a65726f00000000000081525061021a60201b60201c565b90505b92915050565b6000826101d0575060006101bb565b828202828482816101dd57fe5b04146101b85760405162461bcd60e51b8152600401808060200182810382526021815260200180610a166021913960400191505060405180910390fd5b600081836102a65760405162461bcd60e51b81526004018080602001828103825283818151815260200191508051906020019080838360005b8381101561026b578181015183820152602001610253565b50505050905090810190601f1680156102985780820380516001836020036101000a031916815260200191505b509250505060405180910390fd5b5060008385816102b257fe5b0495945050505050565b61074b806102cb6000396000f3fe608060405234801561001057600080fd5b506004361061009e5760003560e01c8063a385fb9611610066578063a385fb9614610164578063b81688161461016c578063b9f9850a1461019b578063f14039de146101a3578063fd2da339146101ab5761009e565b806315f24053146100a35780632037f3e7146100de5780636e71e2d81461010f5780638726bb89146101385780638da5cb5b14610140575b600080fd5b6100cc600480360360608110156100b957600080fd5b50803590602081013590604001356101b3565b60408051918252519081900360200190f35b61010d600480360360808110156100f457600080fd5b50803590602081013590604081013590606001356101ca565b005b6100cc6004803603606081101561012557600080fd5b5080359060208101359060400135610225565b6100cc61027b565b610148610281565b604080516001600160a01b039092168252519081900360200190f35b6100cc610290565b6100cc6004803603608081101561018257600080fd5b5080359060208101359060408101359060600135610297565b6100cc610316565b6100cc61031c565b6100cc610322565b60006101c0848484610328565b90505b9392505050565b6000546001600160a01b031633146102135760405162461bcd60e51b81526004018080602001828103825260268152602001806106f06026913960400191505060405180910390fd5b61021f848484846103f1565b50505050565b600082610234575060006101c3565b6101c06102578361024b878763ffffffff61049216565b9063ffffffff6104f516565b61026f85670de0b6b3a764000063ffffffff61053716565b9063ffffffff61059016565b60015481565b6000546001600160a01b031681565b6220148081565b6000806102b2670de0b6b3a76400008463ffffffff6104f516565b905060006102c1878787610328565b905060006102e1670de0b6b3a764000061026f848663ffffffff61053716565b905061030a670de0b6b3a764000061026f836102fe8c8c8c610225565b9063ffffffff61053716565b98975050505050505050565b60035481565b60025481565b60045481565b600080610336858585610225565b9050600454811161037c57610374600254610368670de0b6b3a764000061026f6001548661053790919063ffffffff16565b9063ffffffff61049216565b9150506101c3565b60006103a7600254610368670de0b6b3a764000061026f60015460045461053790919063ffffffff16565b905060006103c0600454846104f590919063ffffffff16565b90506103e782610368670de0b6b3a764000061026f6003548661053790919063ffffffff16565b93505050506101c3565b610404846220148063ffffffff61059016565b60025561041d610257622014808363ffffffff61053716565b600155610433826220148063ffffffff61059016565b60038190556004829055600254600154604080519283526020830191909152818101929092526060810183905290517f6960ab234c7ef4b0c9197100f5393cfcde7c453ac910a27bd2000aa1dd4c068d9181900360800190a150505050565b6000828201838110156104ec576040805162461bcd60e51b815260206004820152601b60248201527f536166654d6174683a206164646974696f6e206f766572666c6f770000000000604482015290519081900360640190fd5b90505b92915050565b60006104ec83836040518060400160405280601e81526020017f536166654d6174683a207375627472616374696f6e206f766572666c6f7700008152506105d2565b600082610546575060006104ef565b8282028284828161055357fe5b04146104ec5760405162461bcd60e51b81526004018080602001828103825260218152602001806106cf6021913960400191505060405180910390fd5b60006104ec83836040518060400160405280601a81526020017f536166654d6174683a206469766973696f6e206279207a65726f000000000000815250610669565b600081848411156106615760405162461bcd60e51b81526004018080602001828103825283818151815260200191508051906020019080838360005b8381101561062657818101518382015260200161060e565b50505050905090810190601f1680156106535780820380516001836020036101000a031916815260200191505b509250505060405180910390fd5b505050900390565b600081836106b85760405162461bcd60e51b815260206004820181815283516024840152835190928392604490910191908501908083836000831561062657818101518382015260200161060e565b5060008385816106c457fe5b049594505050505056fe536166654d6174683a206d756c7469706c69636174696f6e206f766572666c6f776f6e6c7920746865206f776e6572206d61792063616c6c20746869732066756e6374696f6e2ea2646970667358221220de50d3843efab30ccdd3cf97a6d3d0ec7d9bf86e19dd3eb0f1bdc6f3eba7bc0764736f6c63430006060033536166654d6174683a206d756c7469706c69636174696f6e206f766572666c6f77496e70757420414c522061646472657373206973206e6f7420616e20414c5220636f6e74726163744f776e61626c653a206e6577206f776e657220697320746865207a65726f20616464726573736d73672e73656e646572206973206e6f742061204d6f6e6579204d61726b657420496e7374616e63654f776e61626c653a2063616c6c6572206973206e6f7420746865206f776e6572496e707574206173736574206164647265737320646f65736e74206861766520616e204d4d49a26469706673582212200eef092effa81d583754bab9f06103fa99870d1fae347e4425762bc13099deaa64736f6c63430006060033",
  "immutableReferences": {},
  "source": "pragma solidity 0.6.6;\n\nimport \"openzeppelin-solidity/contracts/access/Ownable.sol\";\nimport \"openzeppelin-solidity/contracts/math/SafeMath.sol\";\nimport \"./MoneyMarketInstance.sol\";\nimport \"./interfaces/UniswapOracleFactoryI.sol\";\nimport \"./interfaces/MoneyMarketFactoryI.sol\";\nimport \"./interfaces/MoneyMarketInstanceI.sol\";\nimport \"./interfaces/AskoRiskTokenI.sol\";\nimport \"./compound/JumpRateModelV2.sol\";\nimport \"./compound/Exponential.sol\";\n\n////////////////////////////////////////////////////////////////////////////////////////////\n/// @title MoneyMarketFactory\n/// @author Christopher Dixon\n////////////////////////////////////////////////////////////////////////////////////////////\n/**\nMoneyMarketControl is designed to coordinate Money Markets\nThis contract uses the OpenZeppelin contract Library to inherit functions from\n  Ownable.sol\n**/\n\ncontract MoneyMarketControl is Ownable, Exponential {\n    using SafeMath for uint256;\n\n    uint256 public instanceCount; //tracks the number of instances\n    uint256 internal feeTracker;\n    uint internal costOfOneWithdraw;\n    address public ARTF;\n    UniswapOracleFactoryI public Oracle; //oracle factory contract interface\n    MoneyMarketFactoryI public MMF;\n\n    address[] public assets;\n\n    mapping(address => address) public instanceTracker; //maps erc20 address to the assets MoneyMarketInstance\n    mapping(address => address) public _ALRtracker; // tracks a money markets address to its ALR token.\n    mapping(address => address) public oracleTracker; //maps a MM oracle to its Money market address\n    mapping(address => mapping(address => uint256)) public collateralTracker; //tracks user to a market to an amount collaterlized in that market\n    mapping(address => bool) public isMMI;\n    mapping(address => bool) public isALR;\n\n    /**\n  @notice onlyMMFactory is a modifier used to make a function only callable by the Money Market Instance contract\n  **/\n    modifier onlyMMI() {\n        require(isMMI[msg.sender], \"msg.sender is not a Money Market Instance\");\n        _;\n    }\n\n    event WhiteListed(address asset, address moneyMarket, address oracle);\n    event AHRcreated(address asset, address interestRateModel);\n    event ALRcreated(address asset, address interestRateModel);\n    event CollateralUp(address ALR, address borrower, uint256 _amount);\n    event CollateralDown(address ALR, address borrower, uint256 _amount);\n    event InterestRateModelUpdate(\n        uint256 baseRatePerYear,\n        uint256 multiplierPerYear,\n        uint256 jumpMultiplierPerYear,\n        uint256 optimal,\n        address assetContractAdd,\n        address moneyMarketInstance\n    );\n    event ReserveRateUpdate(\n        bool isALR,\n        address asset,\n        address moneyMarketInstance,\n        uint256 newRR\n    );\n    event OracleUpgrade(address newOracle);\n    event NewMoneyMarketFactory(address newMMFactory);\n    event NewArtFactory(address newARTFactory);\n    event MMIOracleUpgrade(address MonetMarketInstance);\n\n    /**\n@notice the constructor function is fired during the contract deployment process. The constructor can only be fired once and\n        is used to set up Oracle variables for the MoneyMarketFactory contract.\n@param _oracle is the address for the UniswapOracleFactorycontract\n**/\n    constructor(\n        address _oracle,\n        address _MMF,\n        address _ARTF\n    ) public {\n        Oracle = UniswapOracleFactoryI(_oracle);\n        MMF = MoneyMarketFactoryI(_MMF);\n        ARTF = _ARTF;\n    }\n\n    ///////////External Functions/////////////////\n    /**\n@notice whitelistAsset is an onlyOwner function designed to be called by the AskoDAO.\n        This function creates a new MoneyMarketInstancecontract for an input asset as well\n        as a UniswapOracleInstance for the asset.\n@param _assetContractAdd is the address of the ERC20 asset being whitelisted\n@param _assetName is the name of the asset(e.x: ChainLink)\n@param _assetSymbol is the symbol of the asset(e.x: LINK)\n**/\n    function whitelistAsset(\n        address _assetContractAdd,\n        string calldata _assetName,\n        string calldata _assetSymbol\n    ) external onlyOwner {\n        instanceCount++;\n\n        address oracle = address(Oracle.createNewOracle(_assetContractAdd));\n\n        address _MMinstance = MMF.createMMI(\n            _assetContractAdd,\n            address(Oracle),\n            address(this),\n            ARTF,\n            _assetName,\n            _assetSymbol\n        );\n\n        isMMI[_MMinstance] = true;\n        Oracle.linkMMI(_MMinstance, _assetContractAdd);\n        instanceTracker[_assetContractAdd] = _MMinstance;\n        oracleTracker[_MMinstance] = oracle;\n        assets.push(_assetContractAdd);\n        emit WhiteListed(_assetContractAdd, _MMinstance, oracle);\n    }\n\n    /**\n@notice setUpAHR is used to set up a MoneyMarketInstances Asko High Risk Token as well as its InterestRateModel\n@param _baseRatePerYear The approximate target base APR, as a mantissa (scaled by 1e18)\n@param _multiplierPerYear  The rate of increase in interest rate wrt utilization (scaled by 1e18)\n@param _jumpMultiplierPerYear The multiplierPerBlock after hitting a specified utilization point\n@param _optimal The utilization point at which the jump multiplier is applied(Refered to as the Kink in the InterestRateModel)\n@param _fee is a number representing the fee for exchanging an AHR token, as a mantissa (scaled by 1e18)\n@param _assetContractAdd is the contract address of the asset whos MoneyMarketInstance is being set up\n@dev this function can only be called after an asset has been whitelisted as it needs an existing MoneyMarketInstance contract\n**/\n    function setUpAHR(\n        uint256 _baseRatePerYear,\n        uint256 _multiplierPerYear,\n        uint256 _jumpMultiplierPerYear,\n        uint256 _optimal,\n        uint256 _fee,\n        uint256 _initialExchangeRate,\n        address _assetContractAdd\n    ) external onlyOwner {\n        require(isMMI[instanceTracker[_assetContractAdd]], \"Input asset address doesnt have an MMI\");\n        MoneyMarketInstanceI _MMI = MoneyMarketInstanceI(\n            instanceTracker[_assetContractAdd]\n        );\n\n        address interestRateModel = address(\n            new JumpRateModelV2(\n                _baseRatePerYear,\n                _multiplierPerYear,\n                _jumpMultiplierPerYear,\n                _optimal,\n                address(_MMI)\n            )\n        );\n\n        _MMI._setUpAHR(interestRateModel, _fee, _initialExchangeRate);\n\n        emit AHRcreated(_assetContractAdd, interestRateModel);\n    }\n\n    /**\n@notice setUpAHR is used to set up a MoneyMarketInstances Asko High Risk Token as well as its InterestRateModel\n@param _baseRatePerYear The approximate target base APR, as a mantissa (scaled by 1e18)\n@param _multiplierPerYear  The rate of increase in interest rate wrt utilization (scaled by 1e18)\n@param _jumpMultiplierPerYear The multiplierPerBlock after hitting a specified utilization point\n@param _optimal The utilization point at which the jump multiplier is applied(Refered to as the Kink in the InterestRateModel)\n@param _fee is a number representing the fee for exchanging an ALR token, as a mantissa (scaled by 1e18)\n@param _assetContractAdd is the contract address of the asset whos MoneyMarketInstance is being set up\n@dev this function can only be called after an asset has been whitelisted as it needs an existing MoneyMarketInstance contract\n**/\n    function setUpALR(\n        uint256 _baseRatePerYear,\n        uint256 _multiplierPerYear,\n        uint256 _jumpMultiplierPerYear,\n        uint256 _optimal,\n        uint256 _fee,\n        uint256 _initialExchangeRate,\n        address _assetContractAdd\n    ) external onlyOwner {\n        require(isMMI[instanceTracker[_assetContractAdd]], \"Input asset address doesnt have an MMI\");\n        MoneyMarketInstanceI _MMI = MoneyMarketInstanceI(\n            instanceTracker[_assetContractAdd]\n        );\n\n        address interestRateModel = address(\n            new JumpRateModelV2(\n                _baseRatePerYear,\n                _multiplierPerYear,\n                _jumpMultiplierPerYear,\n                _optimal,\n                address(_MMI)\n            )\n        );\n        _MMI._setUpALR(interestRateModel, _fee, _initialExchangeRate);\n        _ALRtracker[_MMI.ALR()] = address(_MMI);\n        isALR[_MMI.ALR()] = true;\n\n        emit ALRcreated(_assetContractAdd, interestRateModel);\n    }\n\n    /**\n@notice trackCollateralUp is an external function used bya MMI to track collateral amounts globally\n@param _borrower is the address of the corrower\n@param _ALR is the address of the ALR being collateralized\n@param _amount is the amount of USDC being collateralized\n@dev this function can only be called by a MoneyMarketInstance.\n**/\n    function trackCollateralUp(\n        address _borrower,\n        address _ALR,\n        uint256 _amount\n    ) external onlyMMI {\n        require(isMMI[msg.sender] || isALR[msg.sender], \"not a asko contract\");\n        require(isALR[_ALR], \"Input ALR address is not an ALR contract\");\n        collateralTracker[_borrower][_ALR] = collateralTracker[_borrower][_ALR]\n            .add(_amount);\n        emit CollateralUp(_ALR, _borrower, _amount);\n    }\n\n    /**\n @notice trackCollateralDown is an external function used bya MMI to track collateral amounts globally\n @param _ALR is the address of the ALR being collateralized\n @param _ALR is the address of the seller\n @param _amount is the amount of USDC being collateralized\n @dev this function can only be called by a MoneyMarketInstance.\n **/\n    function trackCollateralDown(\n        address _borrower,\n        address _ALR,\n        uint256 _amount\n    ) external onlyMMI {\n        require(isMMI[msg.sender] || isALR[msg.sender], \"not a asko contract\");\n        require(isALR[_ALR], \"Input ALR address is not an ALR contract\");\n        if (collateralTracker[_borrower][_ALR] > _amount) {\n            collateralTracker[_borrower][_ALR] = collateralTracker[_borrower][_ALR]\n                .sub(_amount);\n        } else {\n            collateralTracker[_borrower][_ALR] = 0;\n        }\n        emit CollateralDown(_ALR, _borrower, _amount);\n    }\n\n    /**\n@notice checkCollateralValue is a view function that accepts an account address and an ALR contract\n        address and returns the USD value of the availible collateral they have. Availible collateral is\n        determined by the total amount of collateral minus the amount of collateral that is still availible to borrow against\n@param _borrower is the address whos collateral value we are looking up\n@param _ALR is the address of the ALR token where collateral value is being looked up\n **/\n    function checkAvailibleCollateralValue(address _borrower, address _ALR)\n        external\n        returns (uint256)\n    {\n        //instantiate art token\n        AskoRiskTokenI _ART = AskoRiskTokenI(_ALR);\n        //get borrowers art balance\n        uint256 artBal = _ART.balanceOf(_borrower);\n        //get USDC value of art balance\n        uint256 usdcValOfBalance = _ART.getwETHWorthOfART(artBal);\n        //retrieve the amount of the USDC value they have borrowed\n        uint256 usdcValLocked = collateralTracker[_borrower][_ALR];\n        //retrieve USDC availible collateral\n        return usdcValOfBalance.sub(usdcValLocked);\n    }\n\n    /**\n@notice liquidateTrigger is a protected function that can only be called by a money market instance.\n@param _liquidateValue is the value being liquidated\n@param _borrower is the address of the account being liquidated\n@param _liquidator is the address of the account doing the liquidating\n@param _ALR is the address of the Asko Low Risk token that was used as collateral\n**/\n    function liquidateTrigger(\n        uint256 _liquidateValue,\n        address _borrower,\n        address _liquidator,\n        AskoRiskTokenI _ALR\n    ) external onlyMMI {\n        require(isALR[address(_ALR)], \"Input ALR address is not an ALR contract\");\n        collateralTracker[_borrower][address(_ALR)] = 0;\n        _ALR._liquidate(_liquidateValue, _borrower, _liquidator);\n    }\n\n    /**\n@notice updateIRM allows the admin of this contract to update a AskoRiskToken's Interest Rate Model\n@param _baseRatePerYear The approximate target base APR, as a mantissa (scaled by 1e18)\n@param _multiplierPerYear  The rate of increase in interest rate wrt utilization (scaled by 1e18)\n@param _jumpMultiplierPerYear The multiplierPerBlock after hitting a specified utilization point\n@param _optimal The utilization point at which the jump multiplier is applied(Refered to as the Kink in the InterestRateModel)\n@param _assetContractAdd is the contract address of the asset whos MoneyMarketInstance is being set up\n@param _isALR is a bool representing whether or not the Asko risk token being updated is a ALR or not\n**/\n    function updateIRM(\n        uint256 _baseRatePerYear,\n        uint256 _multiplierPerYear,\n        uint256 _jumpMultiplierPerYear,\n        uint256 _optimal,\n        address _assetContractAdd,\n        bool _isALR\n    ) external onlyOwner {\n        require(isMMI[instanceTracker[_assetContractAdd]], \"Input asset address doesnt have an MMI\");\n        MoneyMarketInstanceI _MMI = MoneyMarketInstanceI(\n            instanceTracker[_assetContractAdd]\n        );\n\n        address interestRateModel = address(\n            new JumpRateModelV2(\n                _baseRatePerYear,\n                _multiplierPerYear,\n                _jumpMultiplierPerYear,\n                _optimal,\n                address(_MMI)\n            )\n        );\n        if (_isALR) {\n            _MMI.updateALR(interestRateModel);\n        } else {\n            _MMI.updateAHR(interestRateModel);\n        }\n\n        emit InterestRateModelUpdate(\n            _baseRatePerYear,\n            _multiplierPerYear,\n            _jumpMultiplierPerYear,\n            _optimal,\n            _assetContractAdd,\n            address(_MMI)\n        );\n    }\n\n    /**\n@notice updateRR allows the admin to update the reserve ratio for an Asko Risk Token\n@param _newRR is the new reserve ratio value(scaled by 1e18)\n@param _isALR is a bool representing whether of not the Reserve ratio being updated iis an ALR or not\n@param _asset is the address of the asset(token) whos ART tokens are being updated\n**/\n    function updateRR(\n        uint256 _newRR,\n        bool _isALR,\n        address _asset\n    ) external onlyOwner {\n        require(isMMI[instanceTracker[_asset]], \"Input asset address doesnt have an MMI\");\n        MoneyMarketInstanceI _MMI = MoneyMarketInstanceI(\n            instanceTracker[_asset]\n        );\n        if (_isALR) {\n            _MMI.setRRALR(_newRR);\n        } else {\n            _MMI.setRRAHR(_newRR);\n        }\n        emit ReserveRateUpdate(_isALR, _asset, address(_MMI), _newRR);\n    }\n\n    /**\n@notice upgradeOracle allows the contract owner to update the oracle factory address\n@param _newOracle is the address of the new oracle factory contract.\n**/\n    function upgradeOracle(address _newOracle) external onlyOwner {\n        Oracle = UniswapOracleFactoryI(_newOracle);\n        emit OracleUpgrade(_newOracle);\n    }\n\n    /**\nv@notice upgradeMoneyMarketFactory allows the contract owner to update the Money Market factory address\n@param _newMMF is the address of the new Money Market factory contract.\n**/\n    function upgradeMoneyMarketFactory(address _newMMF) external onlyOwner {\n        MMF = MoneyMarketFactoryI(_newMMF);\n        emit NewMoneyMarketFactory(_newMMF);\n    }\n\n    /**\n@notice upgradeARTFactory allows the contract owner to update the ART Factory address\n@param _ARTF is the address of the new ART factory contract.\n**/\n    function upgradeARTFactory(address _ARTF) external onlyOwner {\n        ARTF = _ARTF;\n        emit NewArtFactory(_ARTF);\n    }\n\n    /**\n@notice upgradeMMIOracle allows the owner of the Money Market Control contract to update the oracle\n        factory contract that a Money Market instance points to\n@param _asset is the address of the asset the MoneyMarketInstance controls\n**/\n    function upgradeMMIOracle(address _asset) external onlyOwner {\n        MoneyMarketInstanceI _MMI = MoneyMarketInstanceI(\n            instanceTracker[_asset]\n        );\n        _MMI._upgradeMMIOracle(address(Oracle));\n        emit MMIOracleUpgrade(address(_MMI));\n    }\n\n    /**\n    @notice collectFees allows the owner of the MMC to withdraw the earned fees from All MMI's\n    @param _targetAdd is the address the fees will be sent to\n    **/\n    function collectFees(address _targetAdd) external onlyOwner {\n      //get starting availible gas\n      uint start = gasleft();\n      //If the feeTracker is set to zero\n      if(feeTracker == 0){\n        //instantiate the MoneyMarketInstance in position zero of the assets array\n        MoneyMarketInstanceI MMI = MoneyMarketInstanceI(instanceTracker[assets[0]]);\n        //collect fees\n        MMI._collectFees(_targetAdd);\n        //record the gas cost of collecting the fees\n        costOfOneWithdraw = start.sub(gasleft());\n      }\n\n      //loop through each MoneyMarketInstance\n      for(uint x=1; x <= assets.length; x++) {\n        //while the amount of gas allows it\n         while (gasleft() > costOfOneWithdraw) {\n           //instantiate the MoneyMarketInstance\n        MoneyMarketInstanceI MMI = MoneyMarketInstanceI(instanceTracker[assets[x]]);\n          //collect fees from it\n        MMI._collectFees(_targetAdd);\n        // if the fee tracker is equal to the number of MMI's\n        if(feeTracker == assets.length){\n          //set it to zero\n          feeTracker = 0;\n          //if not\n        } else {\n              //track which MMI the loop is on\n              feeTracker = x;\n          }\n        }\n      }\n    }\n\n    ///////////View Functions/////////////////////////\n    /**\n    @notice getAsset returns an array of all assets whitelisted on the platform.\n    @dev this can be used to loop through and retreive each assets MoneyMarket by the front end\n    **/\n    function getAssets() public view returns (address[] memory) {\n        return assets;\n    }\n\n    /**\n    @notice checkCollateralizedALR is used by the front end to check a borrowers collateralized ALR amount\n    @param _borrower is the address of the borrower\n    @param _ALR is the address of the ALR being used as collateral\n    **/\n    function checkCollateralizedALR(address _borrower, address _ALR)\n        public\n        view\n        returns (uint256)\n    {\n        return collateralTracker[_borrower][_ALR];\n    }\n\n    /**\n    @notice _checkIfALR is used to check if an input address is an ALR contract\n    @param __inQ is the address in question\n    **/\n\n    function _checkIfALR(address __inQ) external view returns (bool) {\n        return isALR[__inQ];\n    }\n\n    /**\ntells you the USDC value of their locked ALR\n**/\nfunction viewCollateral(address _account, address _alr)\n    public\n    view\n    returns (uint256)\n{\n    return collateralTracker[_account][_alr];\n}\n}\n",
  "sourcePath": "/home/stan36/repos/Askolend/AskoLend-contracts/contracts/MoneyMarketControl.sol",
  "compiler": {
    "name": "solc",
    "version": "0.6.6+commit.6c089d02.Emscripten.clang"
  },
  "schemaVersion": "3.3.2",
  "updatedAt": "2021-02-04T17:51:00.906Z",
  "devdoc": {
    "methods": {
      "_checkIfALR(address)": {
        "params": {
          "__inQ": "is the address in question*"
        }
      },
      "checkAvailibleCollateralValue(address,address)": {
        "params": {
          "_ALR": "is the address of the ALR token where collateral value is being looked up*",
          "_borrower": "is the address whos collateral value we are looking up"
        }
      },
      "checkCollateralizedALR(address,address)": {
        "params": {
          "_ALR": "is the address of the ALR being used as collateral*",
          "_borrower": "is the address of the borrower"
        }
      },
      "collectFees(address)": {
        "params": {
          "_targetAdd": "is the address the fees will be sent to*"
        }
      },
      "constructor": {
        "params": {
          "_oracle": "is the address for the UniswapOracleFactorycontract*"
        }
      },
      "getAssets()": {
        "details": "this can be used to loop through and retreive each assets MoneyMarket by the front end*"
      },
      "liquidateTrigger(uint256,address,address,address)": {
        "params": {
          "_ALR": "is the address of the Asko Low Risk token that was used as collateral*",
          "_borrower": "is the address of the account being liquidated",
          "_liquidateValue": "is the value being liquidated",
          "_liquidator": "is the address of the account doing the liquidating"
        }
      },
      "owner()": {
        "details": "Returns the address of the current owner."
      },
      "renounceOwnership()": {
        "details": "Leaves the contract without owner. It will not be possible to call `onlyOwner` functions anymore. Can only be called by the current owner.     * NOTE: Renouncing ownership will leave the contract without an owner, thereby removing any functionality that is only available to the owner."
      },
      "setUpAHR(uint256,uint256,uint256,uint256,uint256,uint256,address)": {
        "details": "this function can only be called after an asset has been whitelisted as it needs an existing MoneyMarketInstance contract*",
        "params": {
          "_assetContractAdd": "is the contract address of the asset whos MoneyMarketInstance is being set up",
          "_baseRatePerYear": "The approximate target base APR, as a mantissa (scaled by 1e18)",
          "_fee": "is a number representing the fee for exchanging an AHR token, as a mantissa (scaled by 1e18)",
          "_jumpMultiplierPerYear": "The multiplierPerBlock after hitting a specified utilization point",
          "_multiplierPerYear": "The rate of increase in interest rate wrt utilization (scaled by 1e18)",
          "_optimal": "The utilization point at which the jump multiplier is applied(Refered to as the Kink in the InterestRateModel)"
        }
      },
      "setUpALR(uint256,uint256,uint256,uint256,uint256,uint256,address)": {
        "details": "this function can only be called after an asset has been whitelisted as it needs an existing MoneyMarketInstance contract*",
        "params": {
          "_assetContractAdd": "is the contract address of the asset whos MoneyMarketInstance is being set up",
          "_baseRatePerYear": "The approximate target base APR, as a mantissa (scaled by 1e18)",
          "_fee": "is a number representing the fee for exchanging an ALR token, as a mantissa (scaled by 1e18)",
          "_jumpMultiplierPerYear": "The multiplierPerBlock after hitting a specified utilization point",
          "_multiplierPerYear": "The rate of increase in interest rate wrt utilization (scaled by 1e18)",
          "_optimal": "The utilization point at which the jump multiplier is applied(Refered to as the Kink in the InterestRateModel)"
        }
      },
      "trackCollateralDown(address,address,uint256)": {
        "details": "this function can only be called by a MoneyMarketInstance.*",
        "params": {
          "_ALR": "is the address of the seller",
          "_amount": "is the amount of USDC being collateralized"
        }
      },
      "trackCollateralUp(address,address,uint256)": {
        "details": "this function can only be called by a MoneyMarketInstance.*",
        "params": {
          "_ALR": "is the address of the ALR being collateralized",
          "_amount": "is the amount of USDC being collateralized",
          "_borrower": "is the address of the corrower"
        }
      },
      "transferOwnership(address)": {
        "details": "Transfers ownership of the contract to a new account (`newOwner`). Can only be called by the current owner."
      },
      "updateIRM(uint256,uint256,uint256,uint256,address,bool)": {
        "params": {
          "_assetContractAdd": "is the contract address of the asset whos MoneyMarketInstance is being set up",
          "_baseRatePerYear": "The approximate target base APR, as a mantissa (scaled by 1e18)",
          "_isALR": "is a bool representing whether or not the Asko risk token being updated is a ALR or not*",
          "_jumpMultiplierPerYear": "The multiplierPerBlock after hitting a specified utilization point",
          "_multiplierPerYear": "The rate of increase in interest rate wrt utilization (scaled by 1e18)",
          "_optimal": "The utilization point at which the jump multiplier is applied(Refered to as the Kink in the InterestRateModel)"
        }
      },
      "updateRR(uint256,bool,address)": {
        "params": {
          "_asset": "is the address of the asset(token) whos ART tokens are being updated*",
          "_isALR": "is a bool representing whether of not the Reserve ratio being updated iis an ALR or not",
          "_newRR": "is the new reserve ratio value(scaled by 1e18)"
        }
      },
      "upgradeARTFactory(address)": {
        "params": {
          "_ARTF": "is the address of the new ART factory contract.*"
        }
      },
      "upgradeMMIOracle(address)": {
        "params": {
          "_asset": "is the address of the asset the MoneyMarketInstance controls*"
        }
      },
      "upgradeMoneyMarketFactory(address)": {
        "params": {
          "_newMMF": "is the address of the new Money Market factory contract.*"
        }
      },
      "upgradeOracle(address)": {
        "params": {
          "_newOracle": "is the address of the new oracle factory contract.*"
        }
      },
      "whitelistAsset(address,string,string)": {
        "params": {
          "_assetContractAdd": "is the address of the ERC20 asset being whitelisted",
          "_assetName": "is the name of the asset(e.x: ChainLink)",
          "_assetSymbol": "is the symbol of the asset(e.x: LINK)*"
        }
      }
    }
  },
  "userdoc": {
    "methods": {
      "_checkIfALR(address)": {
        "notice": "_checkIfALR is used to check if an input address is an ALR contract"
      },
      "checkAvailibleCollateralValue(address,address)": {
        "notice": "checkCollateralValue is a view function that accepts an account address and an ALR contract address and returns the USD value of the availible collateral they have. Availible collateral is determined by the total amount of collateral minus the amount of collateral that is still availible to borrow against"
      },
      "checkCollateralizedALR(address,address)": {
        "notice": "checkCollateralizedALR is used by the front end to check a borrowers collateralized ALR amount"
      },
      "collectFees(address)": {
        "notice": "collectFees allows the owner of the MMC to withdraw the earned fees from All MMI's"
      },
      "constructor": "the constructor function is fired during the contract deployment process. The constructor can only be fired once and is used to set up Oracle variables for the MoneyMarketFactory contract.",
      "getAssets()": {
        "notice": "getAsset returns an array of all assets whitelisted on the platform."
      },
      "liquidateTrigger(uint256,address,address,address)": {
        "notice": "liquidateTrigger is a protected function that can only be called by a money market instance."
      },
      "setUpAHR(uint256,uint256,uint256,uint256,uint256,uint256,address)": {
        "notice": "setUpAHR is used to set up a MoneyMarketInstances Asko High Risk Token as well as its InterestRateModel"
      },
      "setUpALR(uint256,uint256,uint256,uint256,uint256,uint256,address)": {
        "notice": "setUpAHR is used to set up a MoneyMarketInstances Asko High Risk Token as well as its InterestRateModel"
      },
      "trackCollateralDown(address,address,uint256)": {
        "notice": "trackCollateralDown is an external function used bya MMI to track collateral amounts globally"
      },
      "trackCollateralUp(address,address,uint256)": {
        "notice": "trackCollateralUp is an external function used bya MMI to track collateral amounts globally"
      },
      "updateIRM(uint256,uint256,uint256,uint256,address,bool)": {
        "notice": "updateIRM allows the admin of this contract to update a AskoRiskToken's Interest Rate Model"
      },
      "updateRR(uint256,bool,address)": {
        "notice": "updateRR allows the admin to update the reserve ratio for an Asko Risk Token"
      },
      "upgradeARTFactory(address)": {
        "notice": "upgradeARTFactory allows the contract owner to update the ART Factory address"
      },
      "upgradeMMIOracle(address)": {
        "notice": "upgradeMMIOracle allows the owner of the Money Market Control contract to update the oracle factory contract that a Money Market instance points to"
      },
      "upgradeMoneyMarketFactory(address)": {
        "notice": "upgradeMoneyMarketFactory allows the contract owner to update the Money Market factory address"
      },
      "upgradeOracle(address)": {
        "notice": "upgradeOracle allows the contract owner to update the oracle factory address"
      },
      "viewCollateral(address,address)": {
        "notice": "tells you the USDC value of their locked ALR*"
      },
      "whitelistAsset(address,string,string)": {
        "notice": "whitelistAsset is an onlyOwner function designed to be called by the AskoDAO. This function creates a new MoneyMarketInstancecontract for an input asset as well as a UniswapOracleInstance for the asset."
      }
    },
    "notice": "MoneyMarketControl is designed to coordinate Money Markets This contract uses the OpenZeppelin contract Library to inherit functions from Ownable.sol*"
  }
}