{
  "contractName": "MoneyMarketInstance",
  "abi": [
    {
      "inputs": [
        {
          "internalType": "address",
          "name": "_assetContractAdd",
          "type": "address"
        },
        {
          "internalType": "address",
          "name": "_owner",
          "type": "address"
        },
        {
          "internalType": "address",
          "name": "_oracle",
          "type": "address"
        },
        {
          "internalType": "string",
          "name": "_assetName",
          "type": "string"
        },
        {
          "internalType": "string",
          "name": "_assetSymbol",
          "type": "string"
        }
      ],
      "payable": false,
      "stateMutability": "nonpayable",
      "type": "constructor"
    },
    {
      "anonymous": false,
      "inputs": [
        {
          "indexed": true,
          "internalType": "address",
          "name": "previousOwner",
          "type": "address"
        },
        {
          "indexed": true,
          "internalType": "address",
          "name": "newOwner",
          "type": "address"
        }
      ],
      "name": "OwnershipTransferred",
      "type": "event"
    },
    {
      "constant": true,
      "inputs": [],
      "name": "AHR",
      "outputs": [
        {
          "internalType": "contract AskoRiskToken",
          "name": "",
          "type": "address"
        }
      ],
      "payable": false,
      "stateMutability": "view",
      "type": "function"
    },
    {
      "constant": true,
      "inputs": [],
      "name": "ALR",
      "outputs": [
        {
          "internalType": "contract AskoRiskToken",
          "name": "",
          "type": "address"
        }
      ],
      "payable": false,
      "stateMutability": "view",
      "type": "function"
    },
    {
      "constant": true,
      "inputs": [],
      "name": "MMF",
      "outputs": [
        {
          "internalType": "contract MoneyMarketFactoryI",
          "name": "",
          "type": "address"
        }
      ],
      "payable": false,
      "stateMutability": "view",
      "type": "function"
    },
    {
      "constant": true,
      "inputs": [],
      "name": "asset",
      "outputs": [
        {
          "internalType": "contract IERC20",
          "name": "",
          "type": "address"
        }
      ],
      "payable": false,
      "stateMutability": "view",
      "type": "function"
    },
    {
      "constant": true,
      "inputs": [],
      "name": "assetAHRPoolBalance",
      "outputs": [
        {
          "internalType": "uint256",
          "name": "",
          "type": "uint256"
        }
      ],
      "payable": false,
      "stateMutability": "view",
      "type": "function"
    },
    {
      "constant": true,
      "inputs": [],
      "name": "assetAHRborrowBalance",
      "outputs": [
        {
          "internalType": "uint256",
          "name": "",
          "type": "uint256"
        }
      ],
      "payable": false,
      "stateMutability": "view",
      "type": "function"
    },
    {
      "constant": true,
      "inputs": [],
      "name": "assetALRPoolBalance",
      "outputs": [
        {
          "internalType": "uint256",
          "name": "",
          "type": "uint256"
        }
      ],
      "payable": false,
      "stateMutability": "view",
      "type": "function"
    },
    {
      "constant": true,
      "inputs": [],
      "name": "assetALRborrowBalance",
      "outputs": [
        {
          "internalType": "uint256",
          "name": "",
          "type": "uint256"
        }
      ],
      "payable": false,
      "stateMutability": "view",
      "type": "function"
    },
    {
      "constant": true,
      "inputs": [],
      "name": "assetName",
      "outputs": [
        {
          "internalType": "string",
          "name": "",
          "type": "string"
        }
      ],
      "payable": false,
      "stateMutability": "view",
      "type": "function"
    },
    {
      "constant": true,
      "inputs": [],
      "name": "assetSymbol",
      "outputs": [
        {
          "internalType": "string",
          "name": "",
          "type": "string"
        }
      ],
      "payable": false,
      "stateMutability": "view",
      "type": "function"
    },
    {
      "constant": true,
      "inputs": [],
      "name": "blocksPerYear",
      "outputs": [
        {
          "internalType": "uint256",
          "name": "",
          "type": "uint256"
        }
      ],
      "payable": false,
      "stateMutability": "view",
      "type": "function"
    },
    {
      "constant": true,
      "inputs": [],
      "name": "divisor",
      "outputs": [
        {
          "internalType": "uint256",
          "name": "",
          "type": "uint256"
        }
      ],
      "payable": false,
      "stateMutability": "view",
      "type": "function"
    },
    {
      "constant": true,
      "inputs": [],
      "name": "factoryMM",
      "outputs": [
        {
          "internalType": "address",
          "name": "",
          "type": "address"
        }
      ],
      "payable": false,
      "stateMutability": "view",
      "type": "function"
    },
    {
      "constant": true,
      "inputs": [],
      "name": "feePercent",
      "outputs": [
        {
          "internalType": "uint256",
          "name": "",
          "type": "uint256"
        }
      ],
      "payable": false,
      "stateMutability": "view",
      "type": "function"
    },
    {
      "constant": true,
      "inputs": [],
      "name": "fee_AHR",
      "outputs": [
        {
          "internalType": "uint256",
          "name": "",
          "type": "uint256"
        }
      ],
      "payable": false,
      "stateMutability": "view",
      "type": "function"
    },
    {
      "constant": true,
      "inputs": [],
      "name": "fee_ALR",
      "outputs": [
        {
          "internalType": "uint256",
          "name": "",
          "type": "uint256"
        }
      ],
      "payable": false,
      "stateMutability": "view",
      "type": "function"
    },
    {
      "constant": true,
      "inputs": [],
      "name": "oracle",
      "outputs": [
        {
          "internalType": "contract UniswapOracleInstanceI",
          "name": "",
          "type": "address"
        }
      ],
      "payable": false,
      "stateMutability": "view",
      "type": "function"
    },
    {
      "constant": true,
      "inputs": [],
      "name": "owner",
      "outputs": [
        {
          "internalType": "address",
          "name": "",
          "type": "address"
        }
      ],
      "payable": false,
      "stateMutability": "view",
      "type": "function"
    },
    {
      "constant": false,
      "inputs": [],
      "name": "renounceOwnership",
      "outputs": [],
      "payable": false,
      "stateMutability": "nonpayable",
      "type": "function"
    },
    {
      "constant": false,
      "inputs": [
        {
          "internalType": "address",
          "name": "newOwner",
          "type": "address"
        }
      ],
      "name": "transferOwnership",
      "outputs": [],
      "payable": false,
      "stateMutability": "nonpayable",
      "type": "function"
    },
    {
      "constant": false,
      "inputs": [
        {
          "internalType": "address",
          "name": "_InterestRateModel",
          "type": "address"
        },
        {
          "internalType": "uint256",
          "name": "_fee",
          "type": "uint256"
        },
        {
          "internalType": "uint256",
          "name": "_initialExchangeRate",
          "type": "uint256"
        }
      ],
      "name": "_setUpAHR",
      "outputs": [],
      "payable": false,
      "stateMutability": "nonpayable",
      "type": "function"
    },
    {
      "constant": false,
      "inputs": [
        {
          "internalType": "address",
          "name": "_InterestRateModel",
          "type": "address"
        },
        {
          "internalType": "uint256",
          "name": "_fee",
          "type": "uint256"
        },
        {
          "internalType": "uint256",
          "name": "_initialExchangeRate",
          "type": "uint256"
        }
      ],
      "name": "_setUpALR",
      "outputs": [],
      "payable": false,
      "stateMutability": "nonpayable",
      "type": "function"
    },
    {
      "constant": false,
      "inputs": [
        {
          "internalType": "uint256",
          "name": "_fee",
          "type": "uint256"
        }
      ],
      "name": "setFeeAHR",
      "outputs": [],
      "payable": false,
      "stateMutability": "nonpayable",
      "type": "function"
    },
    {
      "constant": false,
      "inputs": [
        {
          "internalType": "uint256",
          "name": "_fee",
          "type": "uint256"
        }
      ],
      "name": "setFeeALR",
      "outputs": [],
      "payable": false,
      "stateMutability": "nonpayable",
      "type": "function"
    },
    {
      "constant": true,
      "inputs": [
        {
          "internalType": "uint256",
          "name": "_payedAmount",
          "type": "uint256"
        }
      ],
      "name": "calculateFee",
      "outputs": [
        {
          "internalType": "uint256",
          "name": "",
          "type": "uint256"
        }
      ],
      "payable": false,
      "stateMutability": "view",
      "type": "function"
    },
    {
      "constant": false,
      "inputs": [
        {
          "internalType": "uint256",
          "name": "_amount",
          "type": "uint256"
        }
      ],
      "name": "lendToAHRpool",
      "outputs": [],
      "payable": false,
      "stateMutability": "nonpayable",
      "type": "function"
    },
    {
      "constant": false,
      "inputs": [
        {
          "internalType": "uint256",
          "name": "_amount",
          "type": "uint256"
        }
      ],
      "name": "lendToALRpool",
      "outputs": [],
      "payable": false,
      "stateMutability": "nonpayable",
      "type": "function"
    },
    {
      "constant": false,
      "inputs": [
        {
          "internalType": "uint256",
          "name": "_amount",
          "type": "uint256"
        }
      ],
      "name": "borrow",
      "outputs": [
        {
          "internalType": "uint256",
          "name": "",
          "type": "uint256"
        }
      ],
      "payable": false,
      "stateMutability": "nonpayable",
      "type": "function"
    },
    {
      "constant": false,
      "inputs": [
        {
          "internalType": "uint256",
          "name": "_repayAmount",
          "type": "uint256"
        }
      ],
      "name": "repay",
      "outputs": [
        {
          "internalType": "uint256",
          "name": "",
          "type": "uint256"
        }
      ],
      "payable": false,
      "stateMutability": "nonpayable",
      "type": "function"
    }
  ],
  "bytecode": "0x60806040523480156200001157600080fd5b5060405162007a6838038062007a68833981810160405260a08110156200003757600080fd5b8151602083015160408085015160608601805192519496939591949391820192846401000000008211156200006b57600080fd5b9083019060208201858111156200008157600080fd5b82516401000000008111828201881017156200009c57600080fd5b82525081516020918201929091019080838360005b83811015620000cb578181015183820152602001620000b1565b50505050905090810190601f168015620000f95780820380516001836020036101000a031916815260200191505b50604052602001805160405193929190846401000000008211156200011d57600080fd5b9083019060208201858111156200013357600080fd5b82516401000000008111828201881017156200014e57600080fd5b82525081516020918201929091019080838360005b838110156200017d57818101518382015260200162000163565b50505050905090810190601f168015620001ab5780820380516001836020036101000a031916815260200191505b506040525050506000620001c46200029960201b60201c565b600080546001600160a01b0319166001600160a01b03831690811782556040519293509160008051602062007a48833981519152908290a350600d80546001600160a01b0319166001600160a01b0387161790556127106003556220148060015581516200023a90600b906020850190620003a5565b5080516200025090600c906020840190620003a5565b50601080546001600160a01b0385166001600160a01b03199182161790915560118054909116331790556200028e846001600160e01b036200029e16565b505050505062000447565b335b90565b620002b16001600160e01b036200029916565b6000546001600160a01b0390811691161462000314576040805162461bcd60e51b815260206004820181905260248201527f4f776e61626c653a2063616c6c6572206973206e6f7420746865206f776e6572604482015290519081900360640190fd5b6001600160a01b0381166200035b5760405162461bcd60e51b815260040180806020018281038252602681526020018062007a226026913960400191505060405180910390fd5b600080546040516001600160a01b038085169392169160008051602062007a4883398151915291a3600080546001600160a01b0319166001600160a01b0392909216919091179055565b828054600181600116156101000203166002900490600052602060002090601f016020900481019282601f10620003e857805160ff191683800117855562000418565b8280016001018555821562000418579182015b8281111562000418578251825591602001919060010190620003fb565b50620004269291506200042a565b5090565b6200029b91905b8082111562000426576000815560010162000431565b6175cb80620004576000396000f3fe60806040523480156200001157600080fd5b5060043610620001c65760003560e01c806399a5d747116200010b578063cf0aea8511620000b1578063f2fde38b116200007b578063f2fde38b146200045d578063f3b3160e1462000486578063f9828b4f1462000490578063fab26ec1146200049a57620001c6565b8063cf0aea8514620003f4578063d162054a1462000414578063dcc716bd146200041e578063f2130c70146200045357620001c6565b806399a5d74714620003825780639b1edb4314620003a2578063a196b36914620003ac578063a385fb9614620003b6578063c27d4df314620003c0578063c5ebeaec14620003ca578063c9230c5d14620003ea57620001c6565b8063551f8b011162000171578063551f8b0114620003105780636c713a151462000330578063715018a614620003505780637dc0d1d0146200035a5780637fd6f15c14620003645780638da5cb5b146200036e5780639241cef2146200037857620001c6565b806313ecfe6014620001cb578063176de7a814620001e75780631f2dc5ef14620002695780631f432cf5146200027357806322b2d40214620002aa578063371fd8e614620002ca57806338d52e0f14620002ea575b600080fd5b620001d5620004a4565b60408051918252519081900360200190f35b620001f1620004aa565b6040805160208082528351818301528351919283929083019185019080838360005b838110156200022d57818101518382015260200162000213565b50505050905090810190601f1680156200025b5780820380516001836020036101000a031916815260200191505b509250505060405180910390f35b620001d56200053c565b620002a8600480360360608110156200028b57600080fd5b506001600160a01b03813516906020810135906040013562000542565b005b620002a860048036036020811015620002c257600080fd5b5035620009a7565b620001d560048036036020811015620002e257600080fd5b503562000ab0565b620002f462000d83565b604080516001600160a01b039092168252519081900360200190f35b620002a8600480360360208110156200032857600080fd5b503562000d92565b620002a8600480360360208110156200034857600080fd5b503562000df3565b620002a862000e54565b620002f462000efa565b620001d562000f09565b620002f462000f0f565b620002f462000f1e565b620001d5600480360360208110156200039a57600080fd5b503562000f2d565b620001d562000f5b565b620001d562000f61565b620001d562000f67565b620002f462000f6d565b620001d560048036036020811015620003e257600080fd5b503562000f7c565b620001f162001066565b620002a8600480360360208110156200040c57600080fd5b5035620010c4565b620002f46200119c565b620002a8600480360360608110156200043657600080fd5b506001600160a01b038135169060208101359060400135620011ab565b620001d5620015d8565b620002a8600480360360208110156200047557600080fd5b50356001600160a01b0316620015de565b620001d5620016dc565b620001d5620016e2565b620002f4620016e8565b60045481565b600c805460408051602060026001851615610100026000190190941693909304601f81018490048402820184019092528181529291830182828015620005345780601f10620005085761010080835404028352916020019162000534565b820191906000526020600020905b8154815290600101906020018083116200051657829003601f168201915b505050505081565b60035481565b6011546001600160a01b031633146200058d5760405162461bcd60e51b8152600401808060200182810382526041815260200180620075566041913960600191505060405180910390fd5b60098290556040805163416c522d60e01b602080830191909152825180830360040181526024830190935282518392600b9260449091019182918501908083835b60208310620005ef5780518252601f199092019160209182019101620005ce565b6001836020036101000a038019825116818451168082178552505050505050905001828054600181600116156101000203166002900480156200066c5780601f10620006495761010080835404028352918201916200066c565b820191906000526020600020905b81548152906001019060200180831162000657575b50509250505060405160208183030381529060405290506060604051602001808063416c522d60e01b8152506004019050604051602081830303815290604052905080600c6040516020018083805190602001908083835b60208310620006e55780518252601f199092019160209182019101620006c4565b6001836020036101000a03801982511681845116808217855250505050505090500182805460018160011615610100020316600290048015620007625780601f106200073f57610100808354040283529182019162000762565b820191906000526020600020905b8154815290600101906020018083116200074d575b505060408051601f19818403018152919052600d549094508593508492506001600160a01b031690506200079562000f0f565b888785856008306001604051620007ac90620018ee565b6001600160a01b03808b16825289811660208084019190915289821660408401526060830189905260ff861660c084015290841660e0830152821515610100830152610120608083018181528851918401919091528751909160a08401916101408501918a019080838360005b838110156200083357818101518382015260200162000819565b50505050905090810190601f168015620008615780820380516001836020036101000a031916815260200191505b50838103825287518152875160209182019189019080838360005b83811015620008965781810151838201526020016200087c565b50505050905090810190601f168015620008c45780820380516001836020036101000a031916815260200191505b509b505050505050505050505050604051809103906000f080158015620008ef573d6000803e3d6000fd5b50600f80546001600160a01b0319166001600160a01b039283161790819055600d546040805163095ea7b360e01b8152928416600484018190526ec097ce7bc90715b34b9f1000000000602485015290519093919091169163095ea7b39160448083019260209291908290030181600087803b1580156200096f57600080fd5b505af115801562000984573d6000803e3d6000fd5b505050506040513d60208110156200099b57600080fd5b50505050505050505050565b600d54604080516323b872dd60e01b81523360048201523060248201526044810184905290516001600160a01b03909216916323b872dd916064808201926020929091908290030181600087803b15801562000a0257600080fd5b505af115801562000a17573d6000803e3d6000fd5b505050506040513d602081101562000a2e57600080fd5b5050600f546040805163140e25ad60e31b81526004810184905290516001600160a01b039092169163a0712d68916024808201926020929091908290030181600087803b15801562000a7f57600080fd5b505af115801562000a94573d6000803e3d6000fd5b505050506040513d602081101562000aab57600080fd5b505050565b600f54604080516395dd919360e01b8152336004820152905160009283926001600160a01b03909116916395dd919391602480820192602092909190829003018186803b15801562000b0157600080fd5b505afa15801562000b16573d6000803e3d6000fd5b505050506040513d602081101562000b2d57600080fd5b505190506000811562000cfc5783821062000bc757600f546040805163073a938160e11b81526004810187905290516001600160a01b0390921691630e752702916024808201926020929091908290030181600087803b15801562000b9157600080fd5b505af115801562000ba6573d6000803e3d6000fd5b505050506040513d602081101562000bbd57600080fd5b5051905062000cf6565b600062000bdb858463ffffffff620016f716565b600f546040805163073a938160e11b81526004810184905290519293506001600160a01b0390911691630e752702916024808201926020929091908290030181600087803b15801562000c2d57600080fd5b505af115801562000c42573d6000803e3d6000fd5b505050506040513d602081101562000c5957600080fd5b50519150600062000c71868363ffffffff620016f716565b600e546040805163073a938160e11b81526004810184905290519293506001600160a01b0390911691630e752702916024808201926020929091908290030181600087803b15801562000cc357600080fd5b505af115801562000cd8573d6000803e3d6000fd5b505050506040513d602081101562000cef57600080fd5b5051925050505b62000d7c565b600e546040805163073a938160e11b81526004810187905290516001600160a01b0390921691630e752702916024808201926020929091908290030181600087803b15801562000d4b57600080fd5b505af115801562000d60573d6000803e3d6000fd5b505050506040513d602081101562000d7757600080fd5b505190505b9392505050565b600d546001600160a01b031681565b62000d9c62001744565b6000546001600160a01b0390811691161462000dee576040805162461bcd60e51b8152602060048201819052602482015260008051602062007536833981519152604482015290519081900360640190fd5b600955565b62000dfd62001744565b6000546001600160a01b0390811691161462000e4f576040805162461bcd60e51b8152602060048201819052602482015260008051602062007536833981519152604482015290519081900360640190fd5b600855565b62000e5e62001744565b6000546001600160a01b0390811691161462000eb0576040805162461bcd60e51b8152602060048201819052602482015260008051602062007536833981519152604482015290519081900360640190fd5b600080546040516001600160a01b03909116907f8be0079c531659141344cd1fd0a4f28419497f9722a3daafe3b4186f6b6457e0908390a3600080546001600160a01b0319169055565b6010546001600160a01b031681565b60025481565b6000546001600160a01b031690565b600e546001600160a01b031681565b60008062000d7c60035462000f4e600254866200174890919063ffffffff16565b9063ffffffff620017a616565b60075481565b60065481565b60015481565b600f546001600160a01b031681565b60008062000f9283600263ffffffff620017a616565b600e546040805163317afabb60e21b81526004810184905290519293506000926001600160a01b039092169163c5ebeaec9160248082019260209290919082900301818787803b15801562000fe657600080fd5b505af115801562000ffb573d6000803e3d6000fd5b505050506040513d60208110156200101257600080fd5b5051600f546040805163317afabb60e21b81526004810186905290519293506001600160a01b039091169163c5ebeaec916024808201926020929091908290030181600087803b15801562000d4b57600080fd5b600b805460408051602060026001851615610100026000190190941693909304601f81018490048402820184019092528181529291830182828015620005345780601f10620005085761010080835404028352916020019162000534565b600d54604080516323b872dd60e01b81523360048201523060248201526044810184905290516001600160a01b03909216916323b872dd916064808201926020929091908290030181600087803b1580156200111f57600080fd5b505af115801562001134573d6000803e3d6000fd5b505050506040513d60208110156200114b57600080fd5b5050600e546040805163140e25ad60e31b81526004810184905290516001600160a01b039092169163a0712d68916024808201926020929091908290030181600087803b15801562000a7f57600080fd5b6011546001600160a01b031681565b6011546001600160a01b03163314620011f65760405162461bcd60e51b8152600401808060200182810382526041815260200180620075566041913960600191505060405180910390fd5b600882905560408051634148522d60e01b602080830191909152825180830360040181526024830190935282518392600b9260449091019182918501908083835b60208310620012585780518252601f19909201916020918201910162001237565b6001836020036101000a03801982511681845116808217855250505050505090500182805460018160011615610100020316600290048015620012d55780601f10620012b2576101008083540402835291820191620012d5565b820191906000526020600020905b815481529060010190602001808311620012c0575b505092505050604051602081830303815290604052905060606040516020018080634148522d60e01b8152506004019050604051602081830303815290604052905080600c6040516020018083805190602001908083835b602083106200134e5780518252601f1990920191602091820191016200132d565b6001836020036101000a03801982511681845116808217855250505050505090500182805460018160011615610100020316600290048015620013cb5780601f10620013a8576101008083540402835291820191620013cb565b820191906000526020600020905b815481529060010190602001808311620013b6575b505060408051601f19818403018152919052600d549094508593508492506001600160a01b03169050620013fe62000f0f565b8887858560083060006040516200141590620018ee565b6001600160a01b03808b16825289811660208084019190915289821660408401526060830189905260ff861660c084015290841660e0830152821515610100830152610120608083018181528851918401919091528751909160a08401916101408501918a019080838360005b838110156200149c57818101518382015260200162001482565b50505050905090810190601f168015620014ca5780820380516001836020036101000a031916815260200191505b50838103825287518152875160209182019189019080838360005b83811015620014ff578181015183820152602001620014e5565b50505050905090810190601f1680156200152d5780820380516001836020036101000a031916815260200191505b509b505050505050505050505050604051809103906000f08015801562001558573d6000803e3d6000fd5b50600e80546001600160a01b0319166001600160a01b039283161790819055600d546040805163095ea7b360e01b8152928416600484018190526ec097ce7bc90715b34b9f1000000000602485015290519093919091169163095ea7b39160448083019260209291908290030181600087803b1580156200096f57600080fd5b60085481565b620015e862001744565b6000546001600160a01b039081169116146200163a576040805162461bcd60e51b8152602060048201819052602482015260008051602062007536833981519152604482015290519081900360640190fd5b6001600160a01b038116620016815760405162461bcd60e51b8152600401808060200182810382526026815260200180620074ef6026913960400191505060405180910390fd5b600080546040516001600160a01b03808516939216917f8be0079c531659141344cd1fd0a4f28419497f9722a3daafe3b4186f6b6457e091a3600080546001600160a01b0319166001600160a01b0392909216919091179055565b60055481565b60095481565b600a546001600160a01b031681565b60006200173b83836040518060400160405280601e81526020017f536166654d6174683a207375627472616374696f6e206f766572666c6f770000815250620017ea565b90505b92915050565b3390565b60008262001759575060006200173e565b828202828482816200176757fe5b04146200173b5760405162461bcd60e51b8152600401808060200182810382526021815260200180620075156021913960400191505060405180910390fd5b60006200173b83836040518060400160405280601a81526020017f536166654d6174683a206469766973696f6e206279207a65726f00000000000081525062001885565b600081848411156200187d5760405162461bcd60e51b81526004018080602001828103825283818151815260200191508051906020019080838360005b838110156200184157818101518382015260200162001827565b50505050905090810190601f1680156200186f5780820380516001836020036101000a031916815260200191505b509250505060405180910390fd5b505050900390565b60008183620018d75760405162461bcd60e51b81526020600482018181528351602484015283519092839260449091019190850190808383600083156200184157818101518382015260200162001827565b506000838581620018e457fe5b0495945050505050565b615bf280620018fd8339019056fe60806040523480156200001157600080fd5b5060405162005bf238038062005bf283398181016040526101208110156200003857600080fd5b81516020830151604080850151606086015160808701805193519597949692959194919392820192846401000000008211156200007457600080fd5b9083019060208201858111156200008a57600080fd5b8251640100000000811182820188101715620000a557600080fd5b82525081516020918201929091019080838360005b83811015620000d4578181015183820152602001620000ba565b50505050905090810190601f168015620001025780820380516001836020036101000a031916815260200191505b50604052602001805160405193929190846401000000008211156200012657600080fd5b9083019060208201858111156200013c57600080fd5b82516401000000008111828201881017156200015757600080fd5b82525081516020918201929091019080838360005b83811015620001865781810151838201526020016200016c565b50505050905090810190601f168015620001b45780820380516001836020036101000a031916815260200191505b50604090815260208201519082015160609092015160038054610100600160a81b0319163361010002179055909350909150620001f98989898989898989896200022e565b50600380546001600160a01b0390921661010002610100600160a81b0319909216919091179055506200096995505050505050565b620002498888888888886200032860201b620013ba1760201c565b88601160016101000a8154816001600160a01b0302191690836001600160a01b03160217905550601160019054906101000a90046001600160a01b03166001600160a01b03166318160ddd6040518163ffffffff1660e01b815260040160206040518083038186803b158015620002bf57600080fd5b505afa158015620002d4573d6000803e3d6000fd5b505050506040513d6020811015620002eb57600080fd5b5050601280546001600160a01b0319166001600160a01b0393909316929092179091556011805460ff191691151591909117905550505050505050565b60035461010090046001600160a01b03163314620003785760405162461bcd60e51b815260040180806020018281038252602481526020018062005b596024913960400191505060405180910390fd5b600954158015620003895750600a54155b620003c65760405162461bcd60e51b815260040180806020018281038252602381526020018062005b7d6023913960400191505060405180910390fd5b600784905583620004095760405162461bcd60e51b815260040180806020018281038252603081526020018062005ba06030913960400191505060405180910390fd5b60006200041f876001600160e01b036200054416565b9050801562000475576040805162461bcd60e51b815260206004820152601a60248201527f73657474696e6720636f6d7074726f6c6c6572206661696c6564000000000000604482015290519081900360640190fd5b620004886001600160e01b03620006ac16565b600955670de0b6b3a7640000600a55620004ab866001600160e01b03620006b116565b90508015620004ec5760405162461bcd60e51b815260040180806020018281038252602281526020018062005bd06022913960400191505060405180910390fd5b835162000501906001906020870190620008c7565b50825162000517906002906020860190620008c7565b50506003805460ff90921660ff1990921691909117905550506000805461ff001916610100179055505050565b60035460009061010090046001600160a01b031633146200057e57620005766001603f6001600160e01b036200085716565b9050620006a7565b60055460408051623f1ee960e11b815290516001600160a01b0392831692851691627e3dd2916004808301926020929190829003018186803b158015620005c457600080fd5b505afa158015620005d9573d6000803e3d6000fd5b505050506040513d6020811015620005f057600080fd5b505162000644576040805162461bcd60e51b815260206004820152601c60248201527f6d61726b6572206d6574686f642072657475726e65642066616c736500000000604482015290519081900360640190fd5b600580546001600160a01b0319166001600160a01b03858116918217909255604080519284168352602083019190915280517f7ac369dbd14fa5ea3f473ed67cc9d598964a77501540ba6751eb0b3decf5870d9281900390910190a160005b9150505b919050565b435b90565b600354600090819061010090046001600160a01b03163314620006ee57620006e5600160426001600160e01b036200085716565b915050620006a7565b620007016001600160e01b03620006ac16565b600954146200072157620006e5600a60416001600160e01b036200085716565b600660009054906101000a90046001600160a01b03169050826001600160a01b0316632191f92a6040518163ffffffff1660e01b815260040160206040518083038186803b1580156200077357600080fd5b505afa15801562000788573d6000803e3d6000fd5b505050506040513d60208110156200079f57600080fd5b5051620007f3576040805162461bcd60e51b815260206004820152601c60248201527f6d61726b6572206d6574686f642072657475726e65642066616c736500000000604482015290519081900360640190fd5b600680546001600160a01b0319166001600160a01b03858116918217909255604080519284168352602083019190915280517fedffc32e068c7c95dfd4bdfd5c4d939a084d6b11c4199eac8436ed234d72f9269281900390910190a16000620006a3565b60007f45b96fe442630264581b197e84bbada861235052c5a1aadfff9ea4e40a969aa08360108111156200088757fe5b8360508111156200089457fe5b604080519283526020830191909152600082820152519081900360600190a1826010811115620008c057fe5b9392505050565b828054600181600116156101000203166002900490600052602060002090601f016020900481019282601f106200090a57805160ff19168380011785556200093a565b828001600101855582156200093a579182015b828111156200093a5782518255916020019190600101906200091d565b50620009489291506200094c565b5090565b620006ae91905b8082111562000948576000815560010162000953565b6151e080620009796000396000f3fe608060405234801561001057600080fd5b50600436106102b65760003560e01c8063852a12e311610172578063bd6d894d116100d9578063f2b3abbd11610092578063f2b3abbd14610a04578063f3fdb15a14610a2a578063f5e3c46214610a32578063f851a44014610a68578063f8f9da2814610a70578063fca7820b14610a78578063fe9c44ae14610a95576102b6565b8063bd6d894d14610940578063c37f68e214610948578063c5ebeaec14610994578063db006a75146109b1578063dd62ed3e146109ce578063e9c714f2146109fc576102b6565b8063a6afed951161012b578063a6afed95146108a0578063a9059cbb146108a8578063aa5af0fd146108d4578063ae9d70b0146108dc578063b2a02ff1146108e4578063b71d1a0c1461091a576102b6565b8063852a12e3146106e25780638f840ddd146106ff57806395d89b411461070757806395dd91931461070f57806399d8c1b414610735578063a0712d6814610883576102b6565b80633b1d21a211610221578063601a0bf1116101da578063601a0bf1146106775780636c540baf146106945780636f307dc31461069c57806370a08231146106a457806373acee98146106ca57806377e4974d146106d25780637d3a71ef146106da576102b6565b80633b1d21a2146104af5780633e941010146104b75780634576b5db146104d457806347bd3718146104fa5780635dc48ff4146105025780635fe3b5671461066f576102b6565b8063182df0f511610273578063182df0f5146103dd57806323b872dd146103e55780632608f8181461041b5780632678224714610447578063313ce5671461046b5780633af9e66914610489576102b6565b806306fdde03146102bb578063095ea7b3146103385780630e75270214610378578063173b9904146103a757806317bfdfbc146103af57806318160ddd146103d5575b600080fd5b6102c3610a9d565b6040805160208082528351818301528351919283929083019185019080838360005b838110156102fd5781810151838201526020016102e5565b50505050905090810190601f16801561032a5780820380516001836020036101000a031916815260200191505b509250505060405180910390f35b6103646004803603604081101561034e57600080fd5b506001600160a01b038135169060200135610b2a565b604080519115158252519081900360200190f35b6103956004803603602081101561038e57600080fd5b5035610b97565b60408051918252519081900360200190f35b610395610bf8565b610395600480360360208110156103c557600080fd5b50356001600160a01b0316610bfe565b610395610cc6565b610395610ccc565b610364600480360360608110156103fb57600080fd5b506001600160a01b03813581169160208101359091169060400135610d2f565b6103956004803603604081101561043157600080fd5b506001600160a01b038135169060200135610da9565b61044f610e0a565b604080516001600160a01b039092168252519081900360200190f35b610473610e19565b6040805160ff9092168252519081900360200190f35b6103956004803603602081101561049f57600080fd5b50356001600160a01b0316610e22565b610395610ed8565b610395600480360360208110156104cd57600080fd5b5035610ee7565b610395600480360360208110156104ea57600080fd5b50356001600160a01b0316610ef2565b610395611047565b61066d600480360361012081101561051957600080fd5b6001600160a01b03823581169260208101358216926040820135909216916060820135919081019060a081016080820135600160201b81111561055b57600080fd5b82018360208201111561056d57600080fd5b803590602001918460018302840111600160201b8311171561058e57600080fd5b91908080601f0160208091040260200160405190810160405280939291908181526020018383808284376000920191909152509295949360208101935035915050600160201b8111156105e057600080fd5b8201836020820111156105f257600080fd5b803590602001918460018302840111600160201b8311171561061357600080fd5b91908080601f0160208091040260200160405190810160405280939291908181526020018383808284376000920191909152509295505050813560ff1692505060208101356001600160a01b03169060400135151561104d565b005b61044f611137565b6103956004803603602081101561068d57600080fd5b5035611146565b6103956111e9565b61044f6111ef565b610395600480360360208110156106ba57600080fd5b50356001600160a01b0316611203565b61039561121e565b6103646112dc565b61044f6112e5565b610395600480360360208110156106f857600080fd5b50356112f4565b6103956112ff565b6102c3611305565b6103956004803603602081101561072557600080fd5b50356001600160a01b031661135d565b61066d600480360360c081101561074b57600080fd5b6001600160a01b03823581169260208101359091169160408201359190810190608081016060820135600160201b81111561078557600080fd5b82018360208201111561079757600080fd5b803590602001918460018302840111600160201b831117156107b857600080fd5b91908080601f0160208091040260200160405190810160405280939291908181526020018383808284376000920191909152509295949360208101935035915050600160201b81111561080a57600080fd5b82018360208201111561081c57600080fd5b803590602001918460018302840111600160201b8311171561083d57600080fd5b91908080601f0160208091040260200160405190810160405280939291908181526020018383808284376000920191909152509295505050903560ff1691506113ba9050565b6103956004803603602081101561089957600080fd5b50356115a7565b6103956115fe565b610364600480360360408110156108be57600080fd5b506001600160a01b038135169060200135611956565b6103956119cf565b6103956119d5565b610395600480360360608110156108fa57600080fd5b506001600160a01b03813581169160208101359091169060400135611a74565b6103956004803603602081101561093057600080fd5b50356001600160a01b0316611aed565b610395611b79565b61096e6004803603602081101561095e57600080fd5b50356001600160a01b0316611c3d565b604080519485526020850193909352838301919091526060830152519081900360800190f35b610395600480360360208110156109aa57600080fd5b5035611cd2565b610395600480360360208110156109c757600080fd5b5035611d27565b610395600480360360408110156109e457600080fd5b506001600160a01b0381358116916020013516611d32565b610395611d5d565b61039560048036036020811015610a1a57600080fd5b50356001600160a01b0316611e60565b61044f611e9a565b61039560048036036060811015610a4857600080fd5b506001600160a01b03813581169160208101359160409091013516611ea9565b61044f611ec1565b610395611ed5565b61039560048036036020811015610a8e57600080fd5b5035611f39565b610364611fbd565b60018054604080516020600284861615610100026000190190941693909304601f81018490048402820184019092528181529291830182828015610b225780601f10610af757610100808354040283529160200191610b22565b820191906000526020600020905b815481529060010190602001808311610b0557829003601f168201915b505050505081565b336000818152600f602090815260408083206001600160a01b03871680855290835281842086905581518681529151939493909284927f8c5be1e5ebec7d5bd14f71427d1e84f3dd0314c0f7b2291e5b200ac8c7c3b925929081900390910190a360019150505b92915050565b6012546000906001600160a01b03163314610be35760405162461bcd60e51b8152600401808060200182810382526058815260200180614f7f6058913960600191505060405180910390fd5b6000610bee83611fc2565b509150505b919050565b60085481565b60008054610100900460ff16610c48576040805162461bcd60e51b815260206004820152600a6024820152691c994b595b9d195c995960b21b604482015290519081900360640190fd5b6000805461ff0019168155610c5b6115fe565b14610ca6576040805162461bcd60e51b81526020600482015260166024820152751858d8dc9d59481a5b9d195c995cdd0819985a5b195960521b604482015290519081900360640190fd5b610caf8261135d565b90505b6000805461ff001916610100179055919050565b600d5481565b6000806000610cd9612073565b90925090506000826003811115610cec57fe5b14610d285760405162461bcd60e51b81526004018080602001828103825260358152602001806150f76035913960400191505060405180910390fd5b9150505b90565b60008054610100900460ff16610d79576040805162461bcd60e51b815260206004820152600a6024820152691c994b595b9d195c995960b21b604482015290519081900360640190fd5b6000805461ff0019168155610d9033868686612122565b1490506000805461ff0019166101001790559392505050565b6012546000906001600160a01b03163314610df55760405162461bcd60e51b8152600401808060200182810382526058815260200180614f7f6058913960600191505060405180910390fd5b6000610e018484612430565b50949350505050565b6004546001600160a01b031681565b60035460ff1681565b6000610e2c614d8d565b6040518060200160405280610e3f611b79565b90526001600160a01b0384166000908152600e6020526040812054919250908190610e6b9084906124e3565b90925090506000826003811115610e7e57fe5b14610ed0576040805162461bcd60e51b815260206004820152601f60248201527f62616c616e636520636f756c64206e6f742062652063616c63756c6174656400604482015290519081900360640190fd5b949350505050565b6000610ee2612537565b905090565b6000610b91826125bc565b60035460009061010090046001600160a01b03163314610f1f57610f186001603f612658565b9050610bf3565b60055460408051623f1ee960e11b815290516001600160a01b0392831692851691627e3dd2916004808301926020929190829003018186803b158015610f6457600080fd5b505afa158015610f78573d6000803e3d6000fd5b505050506040513d6020811015610f8e57600080fd5b5051610fe1576040805162461bcd60e51b815260206004820152601c60248201527f6d61726b6572206d6574686f642072657475726e65642066616c736500000000604482015290519081900360640190fd5b600580546001600160a01b0319166001600160a01b03858116918217909255604080519284168352602083019190915280517f7ac369dbd14fa5ea3f473ed67cc9d598964a77501540ba6751eb0b3decf5870d9281900390910190a160005b9392505050565b600b5481565b61105b8888888888886113ba565b88601160016101000a8154816001600160a01b0302191690836001600160a01b03160217905550601160019054906101000a90046001600160a01b03166001600160a01b03166318160ddd6040518163ffffffff1660e01b815260040160206040518083038186803b1580156110d057600080fd5b505afa1580156110e4573d6000803e3d6000fd5b505050506040513d60208110156110fa57600080fd5b5050601280546001600160a01b0319166001600160a01b0393909316929092179091556011805460ff191691151591909117905550505050505050565b6005546001600160a01b031681565b60008054610100900460ff16611190576040805162461bcd60e51b815260206004820152600a6024820152691c994b595b9d195c995960b21b604482015290519081900360640190fd5b6000805461ff00191681556111a36115fe565b905080156111c9576111c18160108111156111ba57fe5b6030612658565b915050610cb2565b6111d2836126be565b9150506000805461ff001916610100179055919050565b60095481565b60115461010090046001600160a01b031681565b6001600160a01b03166000908152600e602052604090205490565b60008054610100900460ff16611268576040805162461bcd60e51b815260206004820152600a6024820152691c994b595b9d195c995960b21b604482015290519081900360640190fd5b6000805461ff001916815561127b6115fe565b146112c6576040805162461bcd60e51b81526020600482015260166024820152751858d8dc9d59481a5b9d195c995cdd0819985a5b195960521b604482015290519081900360640190fd5b50600b546000805461ff00191661010017905590565b60115460ff1681565b6012546001600160a01b031681565b6000610b91826127f1565b600c5481565b6002805460408051602060018416156101000260001901909316849004601f81018490048402820184019092528181529291830182828015610b225780601f10610af757610100808354040283529160200191610b22565b600080600061136b84612878565b9092509050600082600381111561137e57fe5b146110405760405162461bcd60e51b81526004018080602001828103825260378152602001806150026037913960400191505060405180910390fd5b60035461010090046001600160a01b031633146114085760405162461bcd60e51b8152600401808060200182810382526024815260200180614ee66024913960400191505060405180910390fd5b6009541580156114185750600a54155b6114535760405162461bcd60e51b8152600401808060200182810382526023815260200180614f0a6023913960400191505060405180910390fd5b6007849055836114945760405162461bcd60e51b8152600401808060200182810382526030815260200180614f2d6030913960400191505060405180910390fd5b600061149f87610ef2565b905080156114f4576040805162461bcd60e51b815260206004820152601a60248201527f73657474696e6720636f6d7074726f6c6c6572206661696c6564000000000000604482015290519081900360640190fd5b6114fc61292c565b600955670de0b6b3a7640000600a5561151486612930565b905080156115535760405162461bcd60e51b8152600401808060200182810382526022815260200180614f5d6022913960400191505060405180910390fd5b8351611566906001906020870190614da0565b50825161157a906002906020860190614da0565b50506003805460ff90921660ff1990921691909117905550506000805461ff001916610100179055505050565b6012546000906001600160a01b031633146115f35760405162461bcd60e51b8152600401808060200182810382526058815260200180614f7f6058913960600191505060405180910390fd5b6000610bee83612aa5565b60008061160961292c565b6009549091508082141561162257600092505050610d2c565b600061162c612537565b600b54600c54600a54600654604080516315f2405360e01b815260048101879052602481018690526044810185905290519596509394929391926000926001600160a01b03909216916315f24053916064808301926020929190829003018186803b15801561169a57600080fd5b505afa1580156116ae573d6000803e3d6000fd5b505050506040513d60208110156116c457600080fd5b5051905065048c27395000811115611723576040805162461bcd60e51b815260206004820152601c60248201527f626f72726f772072617465206973206162737572646c79206869676800000000604482015290519081900360640190fd5b6000806117308989612b2c565b9092509050600082600381111561174357fe5b14611795576040805162461bcd60e51b815260206004820152601f60248201527f636f756c64206e6f742063616c63756c61746520626c6f636b2064656c746100604482015290519081900360640190fd5b61179d614d8d565b6000806000806117bb60405180602001604052808a81525087612b4f565b909750945060008760038111156117ce57fe5b14611800576117eb600960068960038111156117e657fe5b612bb7565b9e505050505050505050505050505050610d2c565b61180a858c6124e3565b9097509350600087600381111561181d57fe5b14611835576117eb600960018960038111156117e657fe5b61183f848c612c1d565b9097509250600087600381111561185257fe5b1461186a576117eb600960048960038111156117e657fe5b6118856040518060200160405280600854815250858c612c43565b9097509150600087600381111561189857fe5b146118b0576117eb600960058960038111156117e657fe5b6118bb858a8b612c43565b909750905060008760038111156118ce57fe5b146118e6576117eb600960038960038111156117e657fe5b60098e9055600a819055600b839055600c829055604080518d8152602081018690528082018390526060810185905290517f4dec04e750ca11537cabcd8a9eab06494de08da3735bc8871cd41250e190bc049181900360800190a160009e50505050505050505050505050505090565b60008054610100900460ff166119a0576040805162461bcd60e51b815260206004820152600a6024820152691c994b595b9d195c995960b21b604482015290519081900360640190fd5b6000805461ff00191681556119b733338686612122565b1490506000805461ff00191661010017905592915050565b600a5481565b6006546000906001600160a01b031663b81688166119f1612537565b600b54600c546008546040518563ffffffff1660e01b81526004018085815260200184815260200183815260200182815260200194505050505060206040518083038186803b158015611a4357600080fd5b505afa158015611a57573d6000803e3d6000fd5b505050506040513d6020811015611a6d57600080fd5b5051905090565b60008054610100900460ff16611abe576040805162461bcd60e51b815260206004820152600a6024820152691c994b595b9d195c995960b21b604482015290519081900360640190fd5b6000805461ff0019169055611ad533858585612c9f565b90506000805461ff0019166101001790559392505050565b60035460009061010090046001600160a01b03163314611b1357610f1860016045612658565b600480546001600160a01b038481166001600160a01b0319831681179093556040805191909216808252602082019390935281517fca4f2f25d0898edd99413412fb94012f9e54ec8142f9b093e7720646a95b16a9929181900390910190a16000611040565b60008054610100900460ff16611bc3576040805162461bcd60e51b815260206004820152600a6024820152691c994b595b9d195c995960b21b604482015290519081900360640190fd5b6000805461ff0019168155611bd66115fe565b14611c21576040805162461bcd60e51b81526020600482015260166024820152751858d8dc9d59481a5b9d195c995cdd0819985a5b195960521b604482015290519081900360640190fd5b611c29610ccc565b90506000805461ff00191661010017905590565b6001600160a01b0381166000908152600e6020526040812054819081908190818080611c6889612878565b935090506000816003811115611c7a57fe5b14611c985760095b975060009650869550859450611ccb9350505050565b611ca0612073565b925090506000816003811115611cb257fe5b14611cbe576009611c82565b5060009650919450925090505b9193509193565b6012546000906001600160a01b03163314611d1e5760405162461bcd60e51b8152600401808060200182810382526058815260200180614f7f6058913960600191505060405180910390fd5b610b9182612f05565b6000610b9182612f8a565b6001600160a01b039182166000908152600f6020908152604080832093909416825291909152205490565b6004546000906001600160a01b031633141580611d78575033155b15611d9057611d8960016000612658565b9050610d2c565b60038054600480546001600160a01b03818116610100818102610100600160a81b0319871617968790556001600160a01b031990931690935560408051948390048216808652929095041660208401528351909391927ff9ffabca9c8276e99321725bcb43fb076a6c66a54b7f21c4e8146d8519b417dc92908290030190a1600454604080516001600160a01b038085168252909216602083015280517fca4f2f25d0898edd99413412fb94012f9e54ec8142f9b093e7720646a95b16a99281900390910190a160009250505090565b600080611e6b6115fe565b90508015611e9157611e89816010811115611e8257fe5b6040612658565b915050610bf3565b61104083612930565b6006546001600160a01b031681565b600080611eb785858561300a565b5095945050505050565b60035461010090046001600160a01b031681565b6006546000906001600160a01b03166315f24053611ef1612537565b600b54600c546040518463ffffffff1660e01b815260040180848152602001838152602001828152602001935050505060206040518083038186803b158015611a4357600080fd5b60008054610100900460ff16611f83576040805162461bcd60e51b815260206004820152600a6024820152691c994b595b9d195c995960b21b604482015290519081900360640190fd5b6000805461ff0019168155611f966115fe565b90508015611fb4576111c1816010811115611fad57fe5b6046612658565b6111d283613144565b600181565b600080548190610100900460ff1661200e576040805162461bcd60e51b815260206004820152600a6024820152691c994b595b9d195c995960b21b604482015290519081900360640190fd5b6000805461ff00191681556120216115fe565b9050801561204c5761203f81601081111561203857fe5b6036612658565b92506000915061205d9050565b6120573333866131ec565b92509250505b6000805461ff0019166101001790559092909150565b600d5460009081908061208e5750506007546000915061211e565b6000612098612537565b905060006120a4614d8d565b60006120b584600b54600c546135d1565b9350905060008160038111156120c757fe5b146120dc5795506000945061211e9350505050565b6120e6838661360f565b9250905060008160038111156120f857fe5b1461210d5795506000945061211e9350505050565b505160009550935061211e92505050565b9091565b600554604080516317b9b84b60e31b81523060048201526001600160a01b03868116602483015285811660448301526064820185905291516000938493169163bdcdc25891608480830192602092919082900301818787803b15801561218757600080fd5b505af115801561219b573d6000803e3d6000fd5b505050506040513d60208110156121b157600080fd5b5051905080156121d0576121c86003604a83612bb7565b915050610ed0565b836001600160a01b0316856001600160a01b031614156121f6576121c86002604b612658565b60006001600160a01b038781169087161415612215575060001961223d565b506001600160a01b038086166000908152600f60209081526040808320938a16835292905220545b60008060008061224d8589612b2c565b9094509250600084600381111561226057fe5b1461227e576122716009604b612658565b9650505050505050610ed0565b6001600160a01b038a166000908152600e60205260409020546122a19089612b2c565b909450915060008460038111156122b457fe5b146122c5576122716009604c612658565b6001600160a01b0389166000908152600e60205260409020546122e89089612c1d565b909450905060008460038111156122fb57fe5b1461230c576122716009604d612658565b6001600160a01b03808b166000908152600e6020526040808220859055918b168152208190556000198514612364576001600160a01b03808b166000908152600f60209081526040808320938f168352929052208390555b886001600160a01b03168a6001600160a01b03166000805160206150738339815191528a6040518082815260200191505060405180910390a36005546040805163352b4a3f60e11b81523060048201526001600160a01b038d811660248301528c81166044830152606482018c905291519190921691636a56947e91608480830192600092919082900301818387803b15801561240057600080fd5b505af1158015612414573d6000803e3d6000fd5b5060009250612421915050565b9b9a5050505050505050505050565b600080548190610100900460ff1661247c576040805162461bcd60e51b815260206004820152600a6024820152691c994b595b9d195c995960b21b604482015290519081900360640190fd5b6000805461ff001916815561248f6115fe565b905080156124ba576124ad8160108111156124a657fe5b6035612658565b9250600091506124cb9050565b6124c53386866131ec565b92509250505b6000805461ff00191661010017905590939092509050565b60008060006124f0614d8d565b6124fa8686612b4f565b9092509050600082600381111561250d57fe5b1461251e5750915060009050612530565b6000612529826136bf565b9350935050505b9250929050565b601154604080516370a0823160e01b8152306004820152905160009261010090046001600160a01b03169182916370a0823191602480820192602092909190829003018186803b15801561258a57600080fd5b505afa15801561259e573d6000803e3d6000fd5b505050506040513d60208110156125b457600080fd5b505191505090565b60008054610100900460ff16612606576040805162461bcd60e51b815260206004820152600a6024820152691c994b595b9d195c995960b21b604482015290519081900360640190fd5b6000805461ff00191681556126196115fe565b90508015612637576111c181601081111561263057fe5b604e612658565b612640836136ce565b509150506000805461ff001916610100179055919050565b60007f45b96fe442630264581b197e84bbada861235052c5a1aadfff9ea4e40a969aa083601081111561268757fe5b83605081111561269357fe5b604080519283526020830191909152600082820152519081900360600190a182601081111561104057fe5b600354600090819061010090046001600160a01b031633146126e657611e8960016031612658565b6126ee61292c565b6009541461270257611e89600a6033612658565b8261270b612537565b101561271d57611e89600e6032612658565b600c5483111561273357611e8960026034612658565b50600c54828103908111156127795760405162461bcd60e51b81526004018080602001828103825260248152602001806151886024913960400191505060405180910390fd5b600c8190556003546127999061010090046001600160a01b0316846137b6565b600354604080516101009092046001600160a01b0316825260208201859052818101839052517f3bad0c59cf2f06e7314077049f48a93578cd16f5ef92329f1dab1420a99c177e916060908290030190a16000611040565b60008054610100900460ff1661283b576040805162461bcd60e51b815260206004820152600a6024820152691c994b595b9d195c995960b21b604482015290519081900360640190fd5b6000805461ff001916815561284e6115fe565b9050801561286c576111c181601081111561286557fe5b6027612658565b6111d2336000856138b1565b6001600160a01b0381166000908152601060205260408120805482918291829182916128af57506000945084935061292792505050565b6128bf8160000154600a54613d78565b909450925060008460038111156128d257fe5b146128e7575091935060009250612927915050565b6128f5838260010154613db7565b9094509150600084600381111561290857fe5b1461291d575091935060009250612927915050565b5060009450925050505b915091565b4390565b600354600090819061010090046001600160a01b0316331461295857611e8960016042612658565b61296061292c565b6009541461297457611e89600a6041612658565b600660009054906101000a90046001600160a01b03169050826001600160a01b0316632191f92a6040518163ffffffff1660e01b815260040160206040518083038186803b1580156129c557600080fd5b505afa1580156129d9573d6000803e3d6000fd5b505050506040513d60208110156129ef57600080fd5b5051612a42576040805162461bcd60e51b815260206004820152601c60248201527f6d61726b6572206d6574686f642072657475726e65642066616c736500000000604482015290519081900360640190fd5b600680546001600160a01b0319166001600160a01b03858116918217909255604080519284168352602083019190915280517fedffc32e068c7c95dfd4bdfd5c4d939a084d6b11c4199eac8436ed234d72f9269281900390910190a16000611040565b600080548190610100900460ff16612af1576040805162461bcd60e51b815260206004820152600a6024820152691c994b595b9d195c995960b21b604482015290519081900360640190fd5b6000805461ff0019168155612b046115fe565b90508015612b225761203f816010811115612b1b57fe5b601e612658565b6120573385613de2565b600080838311612b43575060009050818303612530565b50600390506000612530565b6000612b59614d8d565b600080612b6a866000015186613d78565b90925090506000826003811115612b7d57fe5b14612b9c57506040805160208101909152600081529092509050612530565b60408051602081019091529081526000969095509350505050565b60007f45b96fe442630264581b197e84bbada861235052c5a1aadfff9ea4e40a969aa0846010811115612be657fe5b846050811115612bf257fe5b604080519283526020830191909152818101859052519081900360600190a1836010811115610ed057fe5b600080838301848110612c3557600092509050612530565b506002915060009050612530565b6000806000612c50614d8d565b612c5a8787612b4f565b90925090506000826003811115612c6d57fe5b14612c7e5750915060009050612c97565b612c90612c8a826136bf565b86612c1d565b9350935050505b935093915050565b6005546040805163d02f735160e01b81523060048201526001600160a01b038781166024830152868116604483015285811660648301526084820185905291516000938493169163d02f73519160a480830192602092919082900301818787803b158015612d0c57600080fd5b505af1158015612d20573d6000803e3d6000fd5b505050506040513d6020811015612d3657600080fd5b505190508015612d4d576121c86003601b83612bb7565b846001600160a01b0316846001600160a01b03161415612d73576121c86006601c612658565b6001600160a01b0384166000908152600e602052604081205481908190612d9a9087612b2c565b90935091506000836003811115612dad57fe5b14612dd057612dc56009601a8560038111156117e657fe5b945050505050610ed0565b6001600160a01b0388166000908152600e6020526040902054612df39087612c1d565b90935090506000836003811115612e0657fe5b14612e1e57612dc5600960198560038111156117e657fe5b6001600160a01b038088166000818152600e60209081526040808320879055938c168083529184902085905583518a815293519193600080516020615073833981519152929081900390910190a360055460408051636d35bf9160e01b81523060048201526001600160a01b038c811660248301528b811660448301528a81166064830152608482018a905291519190921691636d35bf919160a480830192600092919082900301818387803b158015612ed757600080fd5b505af1158015612eeb573d6000803e3d6000fd5b5060009250612ef8915050565b9998505050505050505050565b60008054610100900460ff16612f4f576040805162461bcd60e51b815260206004820152600a6024820152691c994b595b9d195c995960b21b604482015290519081900360640190fd5b6000805461ff0019168155612f626115fe565b90508015612f80576111c1816010811115612f7957fe5b6008612658565b6111d23384614241565b60008054610100900460ff16612fd4576040805162461bcd60e51b815260206004820152600a6024820152691c994b595b9d195c995960b21b604482015290519081900360640190fd5b6000805461ff0019168155612fe76115fe565b90508015612ffe576111c181601081111561286557fe5b6111d2338460006138b1565b600080548190610100900460ff16613056576040805162461bcd60e51b815260206004820152600a6024820152691c994b595b9d195c995960b21b604482015290519081900360640190fd5b6000805461ff00191681556130696115fe565b905080156130945761308781601081111561308057fe5b600f612658565b92506000915061312b9050565b836001600160a01b031663a6afed956040518163ffffffff1660e01b8152600401602060405180830381600087803b1580156130cf57600080fd5b505af11580156130e3573d6000803e3d6000fd5b505050506040513d60208110156130f957600080fd5b5051905080156131195761308781601081111561311257fe5b6010612658565b6131253387878761454f565b92509250505b6000805461ff0019166101001790559094909350915050565b60035460009061010090046001600160a01b0316331461316a57610f1860016047612658565b61317261292c565b6009541461318657610f18600a6048612658565b670de0b6b3a76400008211156131a257610f1860026049612658565b6008805490839055604080518281526020810185905281517faaa68312e2ea9d50e16af5068410ab56e1a1fd06037b1a35664812c30f821460929181900390910190a16000611040565b60055460408051631200453160e11b81523060048201526001600160a01b0386811660248301528581166044830152606482018590529151600093849384939116916324008a629160848082019260209290919082900301818787803b15801561325557600080fd5b505af1158015613269573d6000803e3d6000fd5b505050506040513d602081101561327f57600080fd5b5051905080156132a3576132966003603883612bb7565b925060009150612c979050565b6132ab61292c565b600954146132bf57613296600a6039612658565b6132c7614e1e565b6001600160a01b03861660009081526010602052604090206001015460608201526132f186612878565b608083018190526020830182600381111561330857fe5b600381111561331357fe5b905250600090508160200151600381111561332a57fe5b146133545761334660096037836020015160038111156117e657fe5b935060009250612c97915050565b60001985141561336d5760808101516040820152613375565b604081018590525b613383878260400151614acd565b60e08201819052608082015161339891612b2c565b60a08301819052602083018260038111156133af57fe5b60038111156133ba57fe5b90525060009050816020015160038111156133d157fe5b1461340d5760405162461bcd60e51b815260040180806020018281038252603a815260200180615039603a913960400191505060405180910390fd5b61341d600b548260e00151612b2c565b60c083018190526020830182600381111561343457fe5b600381111561343f57fe5b905250600090508160200151600381111561345657fe5b146134925760405162461bcd60e51b81526004018080602001828103825260318152602001806150936031913960400191505060405180910390fd5b60a080820180516001600160a01b03808a16600081815260106020908152604091829020948555600a5460019095019490945560c0870151600b81905560e088015195518251948f16855294840192909252828101949094526060820192909252608081019190915290517f1a2a22cb034d26d1854bdc6666a5b91fe25efbbb5dcad3b0355478d6f5c362a1929181900390910190a160055460e0820151606083015160408051631ededc9160e01b81523060048201526001600160a01b038c811660248301528b8116604483015260648201949094526084810192909252519190921691631ededc919160a480830192600092919082900301818387803b15801561359d57600080fd5b505af11580156135b1573d6000803e3d6000fd5b50600092506135be915050565b8160e00151935093505050935093915050565b6000806000806135e18787612c1d565b909250905060008260038111156135f457fe5b146136055750915060009050612c97565b612c908186612b2c565b6000613619614d8d565b60008061362e86670de0b6b3a7640000613d78565b9092509050600082600381111561364157fe5b1461366057506040805160208101909152600081529092509050612530565b60008061366d8388613db7565b9092509050600082600381111561368057fe5b146136a257506040805160208101909152600081529094509250612530915050565b604080516020810190915290815260009890975095505050505050565b51670de0b6b3a7640000900490565b6000806000806136dc61292c565b600954146136fb576136f0600a604f612658565b935091506129279050565b6137053386614acd565b905080600c54019150600c54821015613765576040805162461bcd60e51b815260206004820181905260248201527f61646420726573657276657320756e6578706563746564206f766572666c6f77604482015290519081900360640190fd5b600c829055604080513381526020810183905280820184905290517fa91e67c5ea634cd43a12c5a482724b03de01e85ca68702a53d0c2f45cb7c1dc59181900360600190a160009350915050915091565b6011546040805163a9059cbb60e01b81526001600160a01b03858116600483015260248201859052915161010090930490911691829163a9059cbb91604480830192600092919082900301818387803b15801561381257600080fd5b505af1158015613826573d6000803e3d6000fd5b5050505060003d60008114613842576020811461384c57600080fd5b6000199150613858565b60206000803e60005191505b50806138ab576040805162461bcd60e51b815260206004820152601960248201527f544f4b454e5f5452414e534645525f4f55545f4641494c454400000000000000604482015290519081900360640190fd5b50505050565b60008215806138be575081155b6138f95760405162461bcd60e51b81526004018080602001828103825260348152602001806151546034913960400191505060405180910390fd5b613901614e64565b613909612073565b604083018190526020830182600381111561392057fe5b600381111561392b57fe5b905250600090508160200151600381111561394257fe5b146139665761395e6009602b836020015160038111156117e657fe5b915050611040565b83156139e757606081018490526040805160208101825290820151815261398d90856124e3565b60808301819052602083018260038111156139a457fe5b60038111156139af57fe5b90525060009050816020015160038111156139c657fe5b146139e25761395e60096029836020015160038111156117e657fe5b613a60565b613a038360405180602001604052808460400151815250614d1c565b6060830181905260208301826003811115613a1a57fe5b6003811115613a2557fe5b9052506000905081602001516003811115613a3c57fe5b14613a585761395e6009602a836020015160038111156117e657fe5b608081018390525b60055460608201516040805163eabe7d9160e01b81523060048201526001600160a01b03898116602483015260448201939093529051600093929092169163eabe7d919160648082019260209290919082900301818787803b158015613ac557600080fd5b505af1158015613ad9573d6000803e3d6000fd5b505050506040513d6020811015613aef57600080fd5b505190508015613b0f57613b066003602883612bb7565b92505050611040565b613b1761292c565b60095414613b2b57613b06600a602c612658565b613b3b600d548360600151612b2c565b60a0840181905260208401826003811115613b5257fe5b6003811115613b5d57fe5b9052506000905082602001516003811115613b7457fe5b14613b9057613b066009602e846020015160038111156117e657fe5b6001600160a01b0386166000908152600e60205260409020546060830151613bb89190612b2c565b60c0840181905260208401826003811115613bcf57fe5b6003811115613bda57fe5b9052506000905082602001516003811115613bf157fe5b14613c0d57613b066009602d846020015160038111156117e657fe5b8160800151613c1a612537565b1015613c2c57613b06600e602f612658565b613c3a8683608001516137b6565b60a0820151600d5560c08201516001600160a01b0387166000818152600e6020908152604091829020939093556060850151815190815290513093600080516020615073833981519152928290030190a36080820151606080840151604080516001600160a01b038b168152602081019490945283810191909152517fe5b754fb1abb7f01b499791d0b820ae3b6af3424ac1c59768edb53f4ec31a9299281900390910190a160055460808301516060840151604080516351dff98960e01b81523060048201526001600160a01b038b81166024830152604482019490945260648101929092525191909216916351dff98991608480830192600092919082900301818387803b158015613d4d57600080fd5b505af1158015613d61573d6000803e3d6000fd5b5060009250613d6e915050565b9695505050505050565b60008083613d8b57506000905080612530565b83830283858281613d9857fe5b0414613dac57506002915060009050612530565b600092509050612530565b60008082613dcb5750600190506000612530565b6000838581613dd657fe5b04915091509250929050565b60055460408051634ef4c3e160e01b81523060048201526001600160a01b03858116602483015260448201859052915160009384938493911691634ef4c3e19160648082019260209290919082900301818787803b158015613e4357600080fd5b505af1158015613e57573d6000803e3d6000fd5b505050506040513d6020811015613e6d57600080fd5b505190508015613e9157613e846003601f83612bb7565b9250600091506125309050565b613e9961292c565b60095414613ead57613e84600a6022612658565b613eb5614e64565b613ebd612073565b6040830181905260208301826003811115613ed457fe5b6003811115613edf57fe5b9052506000905081602001516003811115613ef657fe5b14613f2057613f1260096021836020015160038111156117e657fe5b935060009250612530915050565b613f2a8686614acd565b60c0820181905260408051602081018252908301518152613f4b9190614d1c565b6060830181905260208301826003811115613f6257fe5b6003811115613f6d57fe5b9052506000905081602001516003811115613f8457fe5b14613fd6576040805162461bcd60e51b815260206004820181905260248201527f4d494e545f45584348414e47455f43414c43554c4154494f4e5f4641494c4544604482015290519081900360640190fd5b613fe6600d548260600151612c1d565b6080830181905260208301826003811115613ffd57fe5b600381111561400857fe5b905250600090508160200151600381111561401f57fe5b1461405b5760405162461bcd60e51b815260040180806020018281038252602881526020018061512c6028913960400191505060405180910390fd5b6001600160a01b0386166000908152600e602052604090205460608201516140839190612c1d565b60a083018190526020830182600381111561409a57fe5b60038111156140a557fe5b90525060009050816020015160038111156140bc57fe5b146140f85760405162461bcd60e51b815260040180806020018281038252602b815260200180614fd7602b913960400191505060405180910390fd5b6080810151600d5560a08101516001600160a01b0387166000818152600e60209081526040918290209390935560c084015160608086015183519485529484019190915282820193909352517f4c209b5fc8ad50758f13e2e1088ba56a560dff690a1c6fef26394f4c03821c4f929181900390910190a1606081015160408051918252516001600160a01b0388169130916000805160206150738339815191529181900360200190a360055460c08201516060830151604080516341c728b960e01b81523060048201526001600160a01b038b81166024830152604482019490945260648101929092525191909216916341c728b991608480830192600092919082900301818387803b15801561420e57600080fd5b505af1158015614222573d6000803e3d6000fd5b506000925061422f915050565b8160c001519350935050509250929050565b6005546040805163368f515360e21b81523060048201526001600160a01b0385811660248301526044820185905291516000938493169163da3d454c91606480830192602092919082900301818787803b15801561429e57600080fd5b505af11580156142b2573d6000803e3d6000fd5b505050506040513d60208110156142c857600080fd5b5051905080156142e7576142df6003600e83612bb7565b915050610b91565b6142ef61292c565b60095414614302576142df600a80612658565b8261430b612537565b101561431d576142df600e6009612658565b614325614ea2565b61432e85612878565b602083018190528282600381111561434257fe5b600381111561434d57fe5b905250600090508151600381111561436157fe5b146143865761437d60096007836000015160038111156117e657fe5b92505050610b91565b614394816020015185612c1d565b60408301819052828260038111156143a857fe5b60038111156143b357fe5b90525060009050815160038111156143c757fe5b146143e35761437d6009600c836000015160038111156117e657fe5b6143ef600b5485612c1d565b606083018190528282600381111561440357fe5b600381111561440e57fe5b905250600090508151600381111561442257fe5b1461443e5761437d6009600b836000015160038111156117e657fe5b61444885856137b6565b604080820180516001600160a01b03881660008181526010602090815290859020928355600a54600190930192909255606080860151600b81905593518551928352928201899052818501929092529081019190915290517f13ed6866d4e1ee6da46f845c46d7e54120883d75c5ea9a2dacc1c4ca8984ab809181900360800190a160055460408051635c77860560e01b81523060048201526001600160a01b0388811660248301526044820188905291519190921691635c77860591606480830192600092919082900301818387803b15801561452557600080fd5b505af1158015614539573d6000803e3d6000fd5b5060009250614546915050565b95945050505050565b60055460408051632fe3f38f60e11b81523060048201526001600160a01b0384811660248301528781166044830152868116606483015260848201869052915160009384938493911691635fc7e71e9160a48082019260209290919082900301818787803b1580156145c057600080fd5b505af11580156145d4573d6000803e3d6000fd5b505050506040513d60208110156145ea57600080fd5b50519050801561460e576146016003601283612bb7565b925060009150614ac49050565b61461661292c565b6009541461462a57614601600a6016612658565b61463261292c565b846001600160a01b0316636c540baf6040518163ffffffff1660e01b815260040160206040518083038186803b15801561466b57600080fd5b505afa15801561467f573d6000803e3d6000fd5b505050506040513d602081101561469557600080fd5b5051146146a857614601600a6011612658565b866001600160a01b0316866001600160a01b031614156146ce5761460160066017612658565b846146df5761460160076015612658565b6000198514156146f55761460160076014612658565b6000806147038989896131ec565b909250905081156147335761472482601081111561471d57fe5b6018612658565b945060009350614ac492505050565b6005546040805163c488847b60e01b81523060048201526001600160a01b038981166024830152604482018590528251600094859492169263c488847b926064808301939192829003018186803b15801561478d57600080fd5b505afa1580156147a1573d6000803e3d6000fd5b505050506040513d60408110156147b757600080fd5b508051602090910151909250905081156148025760405162461bcd60e51b81526004018080602001828103825260338152602001806150c46033913960400191505060405180910390fd5b80886001600160a01b03166370a082318c6040518263ffffffff1660e01b815260040180826001600160a01b03166001600160a01b0316815260200191505060206040518083038186803b15801561485957600080fd5b505afa15801561486d573d6000803e3d6000fd5b505050506040513d602081101561488357600080fd5b505110156148d3576040805162461bcd60e51b815260206004820152601860248201527709892a2aa928882a88abea68a92b48abea89e9ebe9aaa86960431b604482015290519081900360640190fd5b60006001600160a01b0389163014156148f9576148f2308d8d85612c9f565b9050614983565b6040805163b2a02ff160e01b81526001600160a01b038e811660048301528d81166024830152604482018590529151918b169163b2a02ff1916064808201926020929091908290030181600087803b15801561495457600080fd5b505af1158015614968573d6000803e3d6000fd5b505050506040513d602081101561497e57600080fd5b505190505b80156149cd576040805162461bcd60e51b81526020600482015260146024820152731d1bdad95b881cd95a5e9d5c994819985a5b195960621b604482015290519081900360640190fd5b604080516001600160a01b03808f168252808e1660208301528183018790528b1660608201526080810184905290517f298637f684da70674f26509b10f07ec2fbc77a335ab1e7d6215a4b2484d8bb529181900360a00190a1600554604080516347ef3b3b60e01b81523060048201526001600160a01b038c811660248301528f811660448301528e811660648301526084820188905260a48201869052915191909216916347ef3b3b9160c480830192600092919082900301818387803b158015614a9857600080fd5b505af1158015614aac573d6000803e3d6000fd5b5060009250614ab9915050565b975092955050505050505b94509492505050565b601154604080516370a0823160e01b8152306004820152905160009261010090046001600160a01b031691839183916370a08231916024808301926020929190829003018186803b158015614b2157600080fd5b505afa158015614b35573d6000803e3d6000fd5b505050506040513d6020811015614b4b57600080fd5b5051604080516323b872dd60e01b81526001600160a01b038881166004830152306024830152604482018890529151929350908416916323b872dd9160648082019260009290919082900301818387803b158015614ba857600080fd5b505af1158015614bbc573d6000803e3d6000fd5b5050505060003d60008114614bd85760208114614be257600080fd5b6000199150614bee565b60206000803e60005191505b5080614c3c576040805162461bcd60e51b81526020600482015260186024820152771513d2d15397d514905394d1915497d25397d1905253115160421b604482015290519081900360640190fd5b601154604080516370a0823160e01b8152306004820152905160009261010090046001600160a01b0316916370a08231916024808301926020929190829003018186803b158015614c8c57600080fd5b505afa158015614ca0573d6000803e3d6000fd5b505050506040513d6020811015614cb657600080fd5b5051905082811015614d0f576040805162461bcd60e51b815260206004820152601a60248201527f544f4b454e5f5452414e534645525f494e5f4f564552464c4f57000000000000604482015290519081900360640190fd5b9190910395945050505050565b6000806000614d29614d8d565b6124fa86866000614d38614d8d565b600080614d4d670de0b6b3a764000087613d78565b90925090506000826003811115614d6057fe5b14614d7f57506040805160208101909152600081529092509050612530565b61252981866000015161360f565b6040518060200160405280600081525090565b828054600181600116156101000203166002900490600052602060002090601f016020900481019282601f10614de157805160ff1916838001178555614e0e565b82800160010185558215614e0e579182015b82811115614e0e578251825591602001919060010190614df3565b50614e1a929150614ecb565b5090565b6040805161010081019091528060008152602001600081526020016000815260200160008152602001600081526020016000815260200160008152602001600081525090565b6040805160e0810190915280600081526020016000815260200160008152602001600081526020016000815260200160008152602001600081525090565b604080516080810190915280600081526020016000815260200160008152602001600081525090565b610d2c91905b80821115614e1a5760008155600101614ed156fe6f6e6c792061646d696e206d617920696e697469616c697a6520746865206d61726b65746d61726b6574206d6179206f6e6c7920626520696e697469616c697a6564206f6e6365696e697469616c2065786368616e67652072617465206d7573742062652067726561746572207468616e207a65726f2e73657474696e6720696e7465726573742072617465206d6f64656c206661696c65644f6e6c79204d6f6e6579204d61726b657420496e7374616e63653a2063616c6c6572206973206e6f7420746865204d6f6e6579204d61726b657420496e7374616e636520666f72207468697320617373657420636c6173734d494e545f4e45575f4143434f554e545f42414c414e43455f43414c43554c4154494f4e5f4641494c4544626f72726f7742616c616e636553746f7265643a20626f72726f7742616c616e636553746f726564496e7465726e616c206661696c656452455041595f424f52524f575f4e45575f4143434f554e545f424f52524f575f42414c414e43455f43414c43554c4154494f4e5f4641494c4544ddf252ad1be2c89b69c2b068fc378daa952ba7f163c4a11628f55a4df523b3ef52455041595f424f52524f575f4e45575f544f54414c5f42414c414e43455f43414c43554c4154494f4e5f4641494c45444c49515549444154455f434f4d5054524f4c4c45525f43414c43554c4154455f414d4f554e545f5345495a455f4641494c454465786368616e67655261746553746f7265643a2065786368616e67655261746553746f726564496e7465726e616c206661696c65644d494e545f4e45575f544f54414c5f535550504c595f43414c43554c4154494f4e5f4641494c45446f6e65206f662072656465656d546f6b656e73496e206f722072656465656d416d6f756e74496e206d757374206265207a65726f72656475636520726573657276657320756e657870656374656420756e646572666c6f77a265627a7a723158208ffce2e43d0902300a24f4243be5d50acd1731e58e2d4845349c919355fdf99564736f6c634300051000326f6e6c792061646d696e206d617920696e697469616c697a6520746865206d61726b65746d61726b6574206d6179206f6e6c7920626520696e697469616c697a6564206f6e6365696e697469616c2065786368616e67652072617465206d7573742062652067726561746572207468616e207a65726f2e73657474696e6720696e7465726573742072617465206d6f64656c206661696c65644f776e61626c653a206e6577206f776e657220697320746865207a65726f2061646472657373536166654d6174683a206d756c7469706c69636174696f6e206f766572666c6f774f776e61626c653a2063616c6c6572206973206e6f7420746865206f776e65724f6e6c79204d6f6e6579204d61726b657420466163746f72793a2063616c6c6572206973206e6f7420746865204d6f6e6579204d61726b657420466163746f7279a265627a7a7231582096fad3d34b4158e4c405a290e48f2bc2854be706b055841bd8515d8ea0c5969364736f6c634300051000324f776e61626c653a206e6577206f776e657220697320746865207a65726f20616464726573738be0079c531659141344cd1fd0a4f28419497f9722a3daafe3b4186f6b6457e0",
  "source": "pragma solidity ^0.5.16;\n\nimport \"@openzeppelin/contracts/access/Ownable.sol\";\nimport \"@openzeppelin/contracts/math/SafeMath.sol\";\nimport \"@openzeppelin/contracts/token/ERC20/IERC20.sol\";\nimport \"./AskoRiskToken.sol\";\nimport \"./interfaces/MoneyMarketFactoryI.sol\";\nimport \"./interfaces/UniswapOracleInstanceI.sol\";\nimport \"./compound/InterestRateModel.sol\";\nimport \"./compound/ComptrollerInterface.sol\";\n\n////////////////////////////////////////////////////////////////////////////////////////////\n/// @title MoneyMarketInstance\n/// @author Christopher Dixon\n////////////////////////////////////////////////////////////////////////////////////////////\n/**\nThe MoneyMarketInstance contract is designed facilitate a tiered money market for an individual ERC20 asset\nThis contract uses the OpenZeppelin contract Library to inherit functions from\n  Ownable.sol && IRC20.sol\n**/\ncontract MoneyMarketInstance is Ownable {\n    using SafeMath for uint256;\n\n  uint256 public blocksPerYear;\n  uint256 public feePercent;\n  uint256 public divisor;\n  uint256 public assetAHRPoolBalance;\n  uint256 public assetALRPoolBalance;\n  uint256 public assetAHRborrowBalance;\n  uint256 public assetALRborrowBalance;\n  uint256 public fee_AHR;\n  uint256 public fee_ALR;\n  address public factoryMM;\n  string public assetName;\n  string public assetSymbol;\n\n\n  IERC20 public asset;\n  AskoRiskToken public AHR;\n  AskoRiskToken public ALR;\n  UniswapOracleInstanceI public oracle;\n  MoneyMarketFactoryI public MMF;\n\n\n\n\n\n\n/**\n@notice onlyMMFactory is a modifier used to make a function only callable by the Money Market Factory contract\n**/\n  modifier onlyMMFactory()  {\n    require(msg.sender == address(MMF), \"Only Money Market Factory: caller is not the Money Market Factory\");\n    _;\n  }\n\n\n/**\n@notice the constructor function is fired during the contract deployment process. The constructor can only be fired once and\n        is used to initialize the MoneyMakerInstance and deploy its associated AHR && ALR token contracts\n@param _assetContractAdd is the address of the ERC20 asset being whitelisted\n@param _owner is the address that will own this contract(The AskoDAO)\n@param _assetName is the name of the asset(e.x: ChainLink)\n@param _assetSymbol is the symbol of the asset(e.x: LINK)\n@dev this function uses ABI encoding to properly concatenate AHR- && ALR- in front of the tokens name and symbol\n      before creating each token.\n**/\n  constructor (\n    address _assetContractAdd,\n    address _owner,\n    address _oracle,\n\t\tstring memory _assetName,\n\t\tstring memory _assetSymbol\n  )\n  public\n  {\n    asset = IERC20(_assetContractAdd);\n\n\n  divisor = 10000;\n  blocksPerYear = 2102400;\n  assetName = _assetName;\n  assetSymbol = _assetSymbol;\n  oracle = UniswapOracleInstanceI(_oracle);\n  MMF = MoneyMarketFactoryI(msg.sender);\n  transferOwnership(_owner);\n\n  }\n\n/**\n@notice setUp is called by the MoneyMarketFactory after a contract is created to set up the initial variables.\n        This is split from the constructor function to keep from reaching the gas block limit\n@param  _InterestRateModel is the address of this MoneyMarketInstances InterestRateModel\n@param _fee is a number representing the fee for exchanging an AHR token, as a mantissa (scaled by 1e18)\n@dev this function will create a token whos name and symbol is concatenated with a \"AHR-\" in front of it\n      example: AHR-LINK\n@dev asset.approve() is called to allow the AHR contract to freeely transfer the assset from this contract when the mint\n      lendToAHRpool function is called.\n**/\nfunction _setUpAHR(\n    address _InterestRateModel,\n    uint _fee,\n    uint _initialExchangeRate\n  )\n  public\n  onlyMMFactory\n  {\n  fee_AHR = _fee;\n  bytes memory ahrname = abi.encodePacked(\"AHR-\");\n  ahrname = abi.encodePacked(ahrname, assetName);\n\n  bytes memory ahrsymbol = abi.encodePacked(\"AHR-\");\n  ahrsymbol = abi.encodePacked(ahrsymbol, assetSymbol);\n\n  string memory assetNameAHR = string(ahrname);\n  string memory assetSymbolAHR = string(ahrsymbol);\n\n  AHR = AskoRiskToken(address(new AskoRiskToken(\n    address(asset),\n    ComptrollerInterface(owner()),\n    InterestRateModel(_InterestRateModel),\n    _initialExchangeRate,\n    assetNameAHR,\n    assetSymbolAHR,\n    8,\n    address(uint160(address(this))),\n    false\n  )));\n\n  address ahr = address(AHR);\n\n  asset.approve(ahr, 1000000000000000000000000000000000000);\n  }\n\n/**\n@notice setUp is called by the MoneyMarketFactory after a contract is created to set up the initial variables.\n        This is split from the constructor function to keep from reaching the gas block limit\n@param  _InterestRateModel is the address of this MoneyMarketInstances InterestRateModel\n@param _fee is a number representing the fee for exchanging an ALR token, as a mantissa (scaled by 1e18)\n@dev this function will create a token whos name and symbol is concatenated with a \"ALR-\" in front of it\n      example: ALR-LINK\n@dev asset.approve() is called to allow the ALR contract to freeely transfer the assset from this contract when the mint\n      lendToALRpool function is called.\n**/\n  function _setUpALR(\n      address _InterestRateModel,\n      uint256 _fee,\n      uint _initialExchangeRate\n    )\n    public\n    onlyMMFactory\n    {\n    fee_ALR = _fee;\n    bytes memory alrname = abi.encodePacked(\"AlR-\");\n    alrname = abi.encodePacked(alrname, assetName);\n\n    bytes memory alrsymbol = abi.encodePacked(\"AlR-\");\n    alrsymbol = abi.encodePacked(alrsymbol, assetSymbol);\n\n    string memory assetNameALR = string(alrname);\n    string memory assetSymbolALR = string(alrsymbol);\n\n    ALR = AskoRiskToken(address(new AskoRiskToken(\n      address(asset),\n      ComptrollerInterface(owner()),\n      InterestRateModel(_InterestRateModel),\n      _initialExchangeRate,\n      assetNameALR,\n      assetSymbolALR,\n      8,\n      address(uint160(address(this))),\n      true\n    )));\n\n    address alr = address(ALR);\n    asset.approve(alr, 1000000000000000000000000000000000000);\n    }\n\n\n\n/**\n@notice setFee allows the owner of this contract to set the fee\n@param  _fee is the input number representing the fee\n@dev the divisor is set to 10,000 in the constructor for this contract. this allows for\n      a fee percentage accounting for two decimal places. feePercent must account for this when being set.\n      The following examples show feePercent amounts and how they equate to percentages:\n              EX:\n                  a 1% fee would be set as feePercent = 100\n                  a .5% fee would be set as feePercent = 50\n                  a 50% fee would be set as feePercent = 5000\n**/\n  function setFeeAHR(uint _fee) public onlyOwner {\n      fee_AHR = _fee;\n  }\n\n/**\n@notice setFee allows the owner of this contract to set the fee\n@param  _fee is the input number representing the fee\n@dev the divisor is set to 10,000 in the constructor for this contract. this allows for\n      a fee percentage accounting for two decimal places. feePercent must account for this when being set.\n      The following examples show feePercent amounts and how they equate to percentages:\n              EX:\n                  a 1% fee would be set as feePercent = 100\n                  a .5% fee would be set as feePercent = 50\n                  a 50% fee would be set as feePercent = 5000\n**/\n  function setFeeALR(uint _fee) public onlyOwner {\n      fee_ALR = _fee;\n  }\n\n\n/**\n@notice calculateFee is used to calculate the fee earned\n@param _payedAmount is a uint representing the full amount of an ERC20 asset payed\n@dev the divisor is set to 10,000 in the constructor for this contract. this allows for\n      a fee percentage accounting for two decimal places. feePercent must account for this when being set.\n      The following examples show feePercent amounts and how they equate to percentages:\n              EX:\n                  a 1% fee would be set as feePercent = 100\n                  a .5% fee would be set as feePercent = 50\n                  a 50% fee would be set as feePercent = 5000\n**/\nfunction calculateFee(uint256 _payedAmount) public view returns(uint) {\n  uint256 fee = _payedAmount.mul(feePercent).div(divisor);\n  return fee;\n}\n\n/**\n@notice lendToAHRpool is used to lend assets to a MoneyMarketInstance's High Risk pool\n@param _amount is the amount of the asset being lent\n@dev the user will need to first approve the transfer of the underlying asset\n**/\n  function lendToAHRpool(uint _amount) public {\n        asset.transferFrom(msg.sender, address(this), _amount);\n        AHR.mint(_amount);\n  }\n\n/**\n@notice lendToAHRpool is used to lend assets to a MoneyMarketInstance's Low Risk pool\n@param _amount is the amount of the asset being lent\n@dev the user will need to first approve the transfer of the underlying asset\n**/\n    function lendToALRpool(uint _amount) public {\n        asset.transferFrom(msg.sender, address(this), _amount);\n        ALR.mint(_amount);\n    }\n\n\n\n\n/**\n@notice borrow is used to take out a loan from in MoneyMarketInstance's underlying asset\n@param _amount is the amount of asset being barrowed\n**/\n  function borrow(uint _amount) public returns(uint) {\n      uint half = _amount.div(2);\n      uint err = AHR.borrow(half);\n       err = ALR.borrow(half);\n      return (err);\n  }\n\n/**\n@notice repay is used to repay a loan\n@param _repayAmount is the amount of the underlying asset being repayed\n**/\n\tfunction repay(uint _repayAmount) public returns(uint) {\n    uint accountBorrowsALR = ALR.borrowBalanceStored(msg.sender);\n\n    uint err = 0;\n\n    if(accountBorrowsALR != 0) { //if amount owed to ALR isnt zero\n          if(accountBorrowsALR >= _repayAmount) { //check if repay amount is greater than ALR borrow balance\n             err = ALR.repayBorrow(_repayAmount); //if it is repay amount to ALR\n          } else { //if not\n            uint amountToALR = _repayAmount.sub(accountBorrowsALR); //calculate aount needed to pay off ALR\n             err = ALR.repayBorrow(amountToALR); //pay off ALR\n            uint amountToAHR = _repayAmount.sub(amountToALR);//calculate AHR amount\n            err = AHR.repayBorrow(amountToAHR);\n          }\n    } else {//if amount owed to ALR IS zero\n       err = AHR.repayBorrow(_repayAmount);//pay towards AHR\n    }\n\n    return err;\n  }\n\n\n\n}\n",
  "sourcePath": "/home/stan36/repos/Askolend/AskoLend-contracts/contracts/MoneyMarketInstance.sol",
  "compiler": {
    "name": "solc",
    "version": "0.5.16+commit.9c3226ce.Emscripten.clang"
  },
  "schemaVersion": "3.2.5",
  "updatedAt": "2020-09-27T19:23:21.467Z",
  "devdoc": {
    "methods": {
      "_setUpAHR(address,uint256,uint256)": {
        "details": "this function will create a token whos name and symbol is concatenated with a \"AHR-\" in front of it example: AHR-LINKasset.approve() is called to allow the AHR contract to freeely transfer the assset from this contract when the mint lendToAHRpool function is called.*",
        "params": {
          "_InterestRateModel": "is the address of this MoneyMarketInstances InterestRateModel",
          "_fee": "is a number representing the fee for exchanging an AHR token, as a mantissa (scaled by 1e18)"
        }
      },
      "_setUpALR(address,uint256,uint256)": {
        "details": "this function will create a token whos name and symbol is concatenated with a \"ALR-\" in front of it example: ALR-LINKasset.approve() is called to allow the ALR contract to freeely transfer the assset from this contract when the mint lendToALRpool function is called.*",
        "params": {
          "_InterestRateModel": "is the address of this MoneyMarketInstances InterestRateModel",
          "_fee": "is a number representing the fee for exchanging an ALR token, as a mantissa (scaled by 1e18)"
        }
      },
      "borrow(uint256)": {
        "params": {
          "_amount": "is the amount of asset being barrowed*"
        }
      },
      "calculateFee(uint256)": {
        "details": "the divisor is set to 10,000 in the constructor for this contract. this allows for a fee percentage accounting for two decimal places. feePercent must account for this when being set. The following examples show feePercent amounts and how they equate to percentages: EX: a 1% fee would be set as feePercent = 100 a .5% fee would be set as feePercent = 50 a 50% fee would be set as feePercent = 5000*",
        "params": {
          "_payedAmount": "is a uint representing the full amount of an ERC20 asset payed"
        }
      },
      "constructor": {
        "details": "this function uses ABI encoding to properly concatenate AHR- && ALR- in front of the tokens name and symbol before creating each token.*",
        "params": {
          "_assetContractAdd": "is the address of the ERC20 asset being whitelisted",
          "_assetName": "is the name of the asset(e.x: ChainLink)",
          "_assetSymbol": "is the symbol of the asset(e.x: LINK)",
          "_owner": "is the address that will own this contract(The AskoDAO)"
        }
      },
      "lendToAHRpool(uint256)": {
        "details": "the user will need to first approve the transfer of the underlying asset*",
        "params": {
          "_amount": "is the amount of the asset being lent"
        }
      },
      "lendToALRpool(uint256)": {
        "details": "the user will need to first approve the transfer of the underlying asset*",
        "params": {
          "_amount": "is the amount of the asset being lent"
        }
      },
      "owner()": {
        "details": "Returns the address of the current owner."
      },
      "renounceOwnership()": {
        "details": "Leaves the contract without owner. It will not be possible to call `onlyOwner` functions anymore. Can only be called by the current owner.     * NOTE: Renouncing ownership will leave the contract without an owner, thereby removing any functionality that is only available to the owner."
      },
      "repay(uint256)": {
        "params": {
          "_repayAmount": "is the amount of the underlying asset being repayed*"
        }
      },
      "setFeeAHR(uint256)": {
        "details": "the divisor is set to 10,000 in the constructor for this contract. this allows for a fee percentage accounting for two decimal places. feePercent must account for this when being set. The following examples show feePercent amounts and how they equate to percentages: EX: a 1% fee would be set as feePercent = 100 a .5% fee would be set as feePercent = 50 a 50% fee would be set as feePercent = 5000*",
        "params": {
          "_fee": "is the input number representing the fee"
        }
      },
      "setFeeALR(uint256)": {
        "details": "the divisor is set to 10,000 in the constructor for this contract. this allows for a fee percentage accounting for two decimal places. feePercent must account for this when being set. The following examples show feePercent amounts and how they equate to percentages: EX: a 1% fee would be set as feePercent = 100 a .5% fee would be set as feePercent = 50 a 50% fee would be set as feePercent = 5000*",
        "params": {
          "_fee": "is the input number representing the fee"
        }
      },
      "transferOwnership(address)": {
        "details": "Transfers ownership of the contract to a new account (`newOwner`). Can only be called by the current owner."
      }
    }
  },
  "userdoc": {
    "methods": {
      "_setUpAHR(address,uint256,uint256)": {
        "notice": "setUp is called by the MoneyMarketFactory after a contract is created to set up the initial variables. This is split from the constructor function to keep from reaching the gas block limit"
      },
      "_setUpALR(address,uint256,uint256)": {
        "notice": "setUp is called by the MoneyMarketFactory after a contract is created to set up the initial variables. This is split from the constructor function to keep from reaching the gas block limit"
      },
      "borrow(uint256)": {
        "notice": "borrow is used to take out a loan from in MoneyMarketInstance's underlying asset"
      },
      "calculateFee(uint256)": {
        "notice": "calculateFee is used to calculate the fee earned"
      },
      "constructor": "the constructor function is fired during the contract deployment process. The constructor can only be fired once and is used to initialize the MoneyMakerInstance and deploy its associated AHR && ALR token contracts",
      "lendToAHRpool(uint256)": {
        "notice": "lendToAHRpool is used to lend assets to a MoneyMarketInstance's High Risk pool"
      },
      "lendToALRpool(uint256)": {
        "notice": "lendToAHRpool is used to lend assets to a MoneyMarketInstance's Low Risk pool"
      },
      "repay(uint256)": {
        "notice": "repay is used to repay a loan"
      },
      "setFeeAHR(uint256)": {
        "notice": "setFee allows the owner of this contract to set the fee"
      },
      "setFeeALR(uint256)": {
        "notice": "setFee allows the owner of this contract to set the fee"
      }
    },
    "notice": "The MoneyMarketInstance contract is designed facilitate a tiered money market for an individual ERC20 asset This contract uses the OpenZeppelin contract Library to inherit functions from Ownable.sol && IRC20.sol*"
  }
}