{
  "contractName": "MoneyMarketControl",
  "abi": [
    {
      "inputs": [
        {
          "internalType": "address",
          "name": "_oracle",
          "type": "address"
        },
        {
          "internalType": "address",
          "name": "_MMF",
          "type": "address"
        }
      ],
      "stateMutability": "nonpayable",
      "type": "constructor"
    },
    {
      "anonymous": false,
      "inputs": [
        {
          "indexed": false,
          "internalType": "address",
          "name": "asset",
          "type": "address"
        },
        {
          "indexed": false,
          "internalType": "address",
          "name": "interestRateModel",
          "type": "address"
        }
      ],
      "name": "AHRcreated",
      "type": "event"
    },
    {
      "anonymous": false,
      "inputs": [
        {
          "indexed": false,
          "internalType": "address",
          "name": "asset",
          "type": "address"
        },
        {
          "indexed": false,
          "internalType": "address",
          "name": "interestRateModel",
          "type": "address"
        }
      ],
      "name": "ALRcreated",
      "type": "event"
    },
    {
      "anonymous": false,
      "inputs": [
        {
          "indexed": true,
          "internalType": "address",
          "name": "previousOwner",
          "type": "address"
        },
        {
          "indexed": true,
          "internalType": "address",
          "name": "newOwner",
          "type": "address"
        }
      ],
      "name": "OwnershipTransferred",
      "type": "event"
    },
    {
      "anonymous": false,
      "inputs": [
        {
          "indexed": false,
          "internalType": "address",
          "name": "asset",
          "type": "address"
        },
        {
          "indexed": false,
          "internalType": "address",
          "name": "moneyMarket",
          "type": "address"
        },
        {
          "indexed": false,
          "internalType": "address",
          "name": "oracle",
          "type": "address"
        }
      ],
      "name": "WhiteListed",
      "type": "event"
    },
    {
      "inputs": [],
      "name": "MMF",
      "outputs": [
        {
          "internalType": "contract MoneyMarketFactoryI",
          "name": "",
          "type": "address"
        }
      ],
      "stateMutability": "view",
      "type": "function"
    },
    {
      "inputs": [],
      "name": "Oracle",
      "outputs": [
        {
          "internalType": "contract UniswapOracleFactoryI",
          "name": "",
          "type": "address"
        }
      ],
      "stateMutability": "view",
      "type": "function"
    },
    {
      "inputs": [
        {
          "internalType": "address",
          "name": "",
          "type": "address"
        }
      ],
      "name": "_ALRtracker",
      "outputs": [
        {
          "internalType": "address",
          "name": "",
          "type": "address"
        }
      ],
      "stateMutability": "view",
      "type": "function"
    },
    {
      "inputs": [
        {
          "internalType": "uint256",
          "name": "",
          "type": "uint256"
        }
      ],
      "name": "assets",
      "outputs": [
        {
          "internalType": "address",
          "name": "",
          "type": "address"
        }
      ],
      "stateMutability": "view",
      "type": "function"
    },
    {
      "inputs": [],
      "name": "instanceCount",
      "outputs": [
        {
          "internalType": "uint256",
          "name": "",
          "type": "uint256"
        }
      ],
      "stateMutability": "view",
      "type": "function"
    },
    {
      "inputs": [
        {
          "internalType": "address",
          "name": "",
          "type": "address"
        }
      ],
      "name": "instanceTracker",
      "outputs": [
        {
          "internalType": "address",
          "name": "",
          "type": "address"
        }
      ],
      "stateMutability": "view",
      "type": "function"
    },
    {
      "inputs": [
        {
          "internalType": "address",
          "name": "",
          "type": "address"
        }
      ],
      "name": "oracleTracker",
      "outputs": [
        {
          "internalType": "address",
          "name": "",
          "type": "address"
        }
      ],
      "stateMutability": "view",
      "type": "function"
    },
    {
      "inputs": [],
      "name": "owner",
      "outputs": [
        {
          "internalType": "address",
          "name": "",
          "type": "address"
        }
      ],
      "stateMutability": "view",
      "type": "function"
    },
    {
      "inputs": [],
      "name": "renounceOwnership",
      "outputs": [],
      "stateMutability": "nonpayable",
      "type": "function"
    },
    {
      "inputs": [
        {
          "internalType": "address",
          "name": "newOwner",
          "type": "address"
        }
      ],
      "name": "transferOwnership",
      "outputs": [],
      "stateMutability": "nonpayable",
      "type": "function"
    },
    {
      "inputs": [
        {
          "internalType": "address",
          "name": "_assetContractAdd",
          "type": "address"
        },
        {
          "internalType": "string",
          "name": "_assetName",
          "type": "string"
        },
        {
          "internalType": "string",
          "name": "_assetSymbol",
          "type": "string"
        }
      ],
      "name": "whitelistAsset",
      "outputs": [],
      "stateMutability": "nonpayable",
      "type": "function"
    },
    {
      "inputs": [
        {
          "internalType": "uint256",
          "name": "_baseRatePerYear",
          "type": "uint256"
        },
        {
          "internalType": "uint256",
          "name": "_multiplierPerYear",
          "type": "uint256"
        },
        {
          "internalType": "uint256",
          "name": "_jumpMultiplierPerYear",
          "type": "uint256"
        },
        {
          "internalType": "uint256",
          "name": "_optimal",
          "type": "uint256"
        },
        {
          "internalType": "uint256",
          "name": "_fee",
          "type": "uint256"
        },
        {
          "internalType": "uint256",
          "name": "_initialExchangeRate",
          "type": "uint256"
        },
        {
          "internalType": "address",
          "name": "_assetContractAdd",
          "type": "address"
        }
      ],
      "name": "setUpAHR",
      "outputs": [],
      "stateMutability": "nonpayable",
      "type": "function"
    },
    {
      "inputs": [
        {
          "internalType": "uint256",
          "name": "_baseRatePerYear",
          "type": "uint256"
        },
        {
          "internalType": "uint256",
          "name": "_multiplierPerYear",
          "type": "uint256"
        },
        {
          "internalType": "uint256",
          "name": "_jumpMultiplierPerYear",
          "type": "uint256"
        },
        {
          "internalType": "uint256",
          "name": "_optimal",
          "type": "uint256"
        },
        {
          "internalType": "uint256",
          "name": "_fee",
          "type": "uint256"
        },
        {
          "internalType": "uint256",
          "name": "_initialExchangeRate",
          "type": "uint256"
        },
        {
          "internalType": "address",
          "name": "_assetContractAdd",
          "type": "address"
        }
      ],
      "name": "setUpALR",
      "outputs": [],
      "stateMutability": "nonpayable",
      "type": "function"
    },
    {
      "inputs": [],
      "name": "getAssets",
      "outputs": [
        {
          "internalType": "address[]",
          "name": "",
          "type": "address[]"
        }
      ],
      "stateMutability": "view",
      "type": "function"
    },
    {
      "inputs": [
        {
          "internalType": "address",
          "name": "_borrower",
          "type": "address"
        },
        {
          "internalType": "address",
          "name": "_ALR",
          "type": "address"
        },
        {
          "internalType": "uint256",
          "name": "_amount",
          "type": "uint256"
        }
      ],
      "name": "trackCollateralUp",
      "outputs": [],
      "stateMutability": "nonpayable",
      "type": "function"
    },
    {
      "inputs": [
        {
          "internalType": "address",
          "name": "_borrower",
          "type": "address"
        },
        {
          "internalType": "address",
          "name": "_ALR",
          "type": "address"
        },
        {
          "internalType": "uint256",
          "name": "_amount",
          "type": "uint256"
        }
      ],
      "name": "trackCollateralDown",
      "outputs": [],
      "stateMutability": "nonpayable",
      "type": "function"
    },
    {
      "inputs": [
        {
          "internalType": "address",
          "name": "_borrower",
          "type": "address"
        },
        {
          "internalType": "address",
          "name": "_ALR",
          "type": "address"
        },
        {
          "internalType": "uint256",
          "name": "_amount",
          "type": "uint256"
        }
      ],
      "name": "lockCollateral",
      "outputs": [],
      "stateMutability": "nonpayable",
      "type": "function"
    },
    {
      "inputs": [
        {
          "internalType": "address",
          "name": "_borrower",
          "type": "address"
        },
        {
          "internalType": "address",
          "name": "_ALR",
          "type": "address"
        },
        {
          "internalType": "uint256",
          "name": "_amount",
          "type": "uint256"
        }
      ],
      "name": "unlockCollateral",
      "outputs": [],
      "stateMutability": "nonpayable",
      "type": "function"
    },
    {
      "inputs": [
        {
          "internalType": "address",
          "name": "_borrower",
          "type": "address"
        },
        {
          "internalType": "address",
          "name": "_ALR",
          "type": "address"
        }
      ],
      "name": "checkAvailibleCollateralValue",
      "outputs": [
        {
          "internalType": "uint256",
          "name": "",
          "type": "uint256"
        }
      ],
      "stateMutability": "view",
      "type": "function"
    },
    {
      "inputs": [
        {
          "internalType": "address",
          "name": "__inQ",
          "type": "address"
        }
      ],
      "name": "_checkIfALR",
      "outputs": [
        {
          "internalType": "bool",
          "name": "",
          "type": "bool"
        }
      ],
      "stateMutability": "view",
      "type": "function"
    }
  ],
  "bytecode": "0x608060405234801561001057600080fd5b506040516120633803806120638339818101604052604081101561003357600080fd5b508051602090910151600061004f6001600160e01b036100ca16565b600080546001600160a01b0319166001600160a01b0383169081178255604051929350917f8be0079c531659141344cd1fd0a4f28419497f9722a3daafe3b4186f6b6457e0908290a350600280546001600160a01b039384166001600160a01b031991821617909155600380549290931691161790556100ce565b3390565b611f86806100dd6000396000f3fe60806040523480156200001157600080fd5b5060043610620001485760003560e01c80638da5cb5b11620000bd578063eb8341b3116200007b578063eb8341b3146200055e578063ec56c7161462000587578063ee8261611462000591578063f24a534e14620005ca578063f2fde38b14620005d45762000148565b80638da5cb5b14620004a45780639020084914620004ae578063b3f643e714620004fb578063cf35bdd01462000534578063d162054a14620005545762000148565b80636012b431116200010b5780636012b431146200037557806367e4ac2c14620003b85780636a8394ad1462000414578063715018a6146200044d5780637ab2d44714620004575762000148565b80630ba7345d146200014d5780630dc9cacd14620002915780632c8bad0f14620002ce5780633373a44714620003075780633ca0037b146200034c575b600080fd5b6200028f600480360360608110156200016557600080fd5b6001600160a01b038235169190810190604081016020820135600160201b8111156200019057600080fd5b820183602082011115620001a357600080fd5b803590602001918460018302840111600160201b83111715620001c557600080fd5b91908080601f0160208091040260200160405190810160405280939291908181526020018383808284376000920191909152509295949360208101935035915050600160201b8111156200021857600080fd5b8201836020820111156200022b57600080fd5b803590602001918460018302840111600160201b831117156200024d57600080fd5b91908080601f016020809104026020016040519081016040528093929190818152602001838380828437600092019190915250929550620005fd945050505050565b005b620002ba60048036036020811015620002a957600080fd5b50356001600160a01b031662000a05565b604080519115158252519081900360200190f35b6200028f60048036036060811015620002e657600080fd5b506001600160a01b0381358116916020810135909116906040013562000a23565b62000330600480360360208110156200031f57600080fd5b50356001600160a01b031662000aae565b604080516001600160a01b039092168252519081900360200190f35b62000330600480360360208110156200036457600080fd5b50356001600160a01b031662000ac9565b620003a6600480360360408110156200038d57600080fd5b506001600160a01b038135811691602001351662000ae4565b60408051918252519081900360200190f35b620003c262000c6e565b60408051602080825283518183015283519192839290830191858101910280838360005b8381101562000400578181015183820152602001620003e6565b505050509050019250505060405180910390f35b6200028f600480360360608110156200042c57600080fd5b506001600160a01b0381358116916020810135909116906040013562000cd2565b6200028f62000d73565b6200028f600480360360e08110156200046f57600080fd5b5080359060208101359060408101359060608101359060808101359060a08101359060c001356001600160a01b031662000e19565b6200033062000f6b565b6200028f600480360360e0811015620004c657600080fd5b5080359060208101359060408101359060608101359060808101359060a08101359060c001356001600160a01b031662000f7a565b6200028f600480360360608110156200051357600080fd5b506001600160a01b03813581169160208101359091169060400135620010d2565b62000330600480360360208110156200054c57600080fd5b503562001142565b620003306200116a565b62000330600480360360208110156200057657600080fd5b50356001600160a01b031662001179565b620003a662001194565b6200028f60048036036060811015620005a957600080fd5b506001600160a01b038135811691602081013590911690604001356200119a565b62000330620011f4565b6200028f60048036036020811015620005ec57600080fd5b50356001600160a01b031662001203565b6200060762001301565b6000546001600160a01b0390811691161462000659576040805162461bcd60e51b8152602060048201819052602482015260008051602062001f31833981519152604482015290519081900360640190fd5b600180548101905560025460408051632fb2da6160e01b81526001600160a01b03868116600483015291516000939290921691632fb2da619160248082019260209290919082900301818787803b158015620006b457600080fd5b505af1158015620006c9573d6000803e3d6000fd5b505050506040513d6020811015620006e057600080fd5b810190808051906020019092919050505090506000600360009054906101000a90046001600160a01b03166001600160a01b031663ee61748c86600260009054906101000a90046001600160a01b03163088886040518663ffffffff1660e01b815260040180866001600160a01b03166001600160a01b03168152602001856001600160a01b03166001600160a01b03168152602001846001600160a01b03166001600160a01b031681526020018060200180602001838103835285818151815260200191508051906020019080838360005b83811015620007cd578181015183820152602001620007b3565b50505050905090810190601f168015620007fb5780820380516001836020036101000a031916815260200191505b50838103825284518152845160209182019186019080838360005b838110156200083057818101518382015260200162000816565b50505050905090810190601f1680156200085e5780820380516001836020036101000a031916815260200191505b50975050505050505050602060405180830381600087803b1580156200088357600080fd5b505af115801562000898573d6000803e3d6000fd5b505050506040513d6020811015620008af57600080fd5b50516001600160a01b038082166000818152600a6020526040808220805460ff191660011790556002548151631be1d0b960e01b815260048101949094528a85166024850152905194955090921692631be1d0b99260448084019391929182900301818387803b1580156200092357600080fd5b505af115801562000938573d6000803e3d6000fd5b5050506001600160a01b03808716600081815260056020908152604080832080548689166001600160a01b03199182168117909255818552600784528285208054978b16978216881790556004805460018101825595527f8a35acfbc15ff81a39ae7d344fd709f28e8600b4aa8c65c6b64bfe7fe36bd19b909401805490941685179093558051938452908301919091528181019290925290517f1f39f253506bf384ce653a878c22225914e6a145c0e77c978fbe8d578024a64e92509081900360600190a15050505050565b6001600160a01b03166000908152600b602052604090205460ff1690565b336000908152600a602052604090205460ff16151560011462000a4557600080fd5b6001600160a01b0380841660009081526008602090815260408083209386168352929052205462000a7d908263ffffffff6200130516565b6001600160a01b03938416600090815260096020908152604080832095909616825293909352929091209190915550565b6005602052600090815260409020546001600160a01b031681565b6006602052600090815260409020546001600160a01b031681565b336000908152600a602052604081205460ff16151560011462000b0657600080fd5b60003390506000816001600160a01b0316634c20ac746040518163ffffffff1660e01b815260040160206040518083038186803b15801562000b4757600080fd5b505afa15801562000b5c573d6000803e3d6000fd5b505050506040513d602081101562000b7357600080fd5b50516002546040805163fc57d4df60e01b81526001600160a01b0380851660048301529151939450600093919092169163fc57d4df916024808301926020929190829003018186803b15801562000bc957600080fd5b505afa15801562000bde573d6000803e3d6000fd5b505050506040513d602081101562000bf557600080fd5b50516001600160a01b038088166000818152600860209081526040808320948b16808452948252808320549383526009825280832094835293905291822054929350919062000c4b838363ffffffff6200130516565b905062000c5f818563ffffffff6200135016565b96505050505050505b92915050565b6060600480548060200260200160405190810160405280929190818152602001828054801562000cc857602002820191906000526020600020905b81546001600160a01b0316815260019091019060200180831162000ca9575b5050505050905090565b336000908152600a602052604090205460ff168062000d005750336000908152600b602052604090205460ff165b62000d0a57600080fd5b6001600160a01b0380841660009081526008602090815260408083209386168352929052205462000d42908263ffffffff6200130516565b6001600160a01b03938416600090815260086020908152604080832095909616825293909352929091209190915550565b62000d7d62001301565b6000546001600160a01b0390811691161462000dcf576040805162461bcd60e51b8152602060048201819052602482015260008051602062001f31833981519152604482015290519081900360640190fd5b600080546040516001600160a01b03909116907f8be0079c531659141344cd1fd0a4f28419497f9722a3daafe3b4186f6b6457e0908390a3600080546001600160a01b0319169055565b6001600160a01b038082166000908152600560205260408082205490519216918990899089908990869062000e4e90620014a4565b948552602085019390935260408085019290925260608401526001600160a01b039091166080830152519081900360a001906000f08015801562000e96573d6000803e3d6000fd5b509050816001600160a01b031663dcc716bd8287876040518463ffffffff1660e01b815260040180846001600160a01b03166001600160a01b031681526020018381526020018281526020019350505050600060405180830381600087803b15801562000f0257600080fd5b505af115801562000f17573d6000803e3d6000fd5b5050604080516001600160a01b0380881682528516602082015281517f1441a6afff6cbd4a06d0416e0d93d0fa8d5fbe9c7c5d1df49b7f93d72add02829450908190039091019150a1505050505050505050565b6000546001600160a01b031690565b6001600160a01b038082166000908152600560205260408082205490519216918990899089908990869062000faf90620014a4565b948552602085019390935260408085019290925260608401526001600160a01b039091166080830152519081900360a001906000f08015801562000ff7573d6000803e3d6000fd5b506001600160a01b038084166000818152600b6020526040808220805460ff191660011790558051631f432cf560e01b81529385166004850152602484018a905260448401899052519394509092631f432cf592606480820193929182900301818387803b1580156200106957600080fd5b505af11580156200107e573d6000803e3d6000fd5b5050604080516001600160a01b0380881682528516602082015281517f450572808a85306efa02e194c62463c8bb5a4e6b55dc35e3732ed63a35d27ce79450908190039091019150a1505050505050505050565b336000908152600a602052604090205460ff1680620011005750336000908152600b602052604090205460ff165b6200110a57600080fd5b6001600160a01b0380841660009081526008602090815260408083209386168352929052205462000d42908263ffffffff620013ae16565b600481815481106200115057fe5b6000918252602090912001546001600160a01b0316905081565b6003546001600160a01b031681565b6007602052600090815260409020546001600160a01b031681565b60015481565b336000908152600a602052604090205460ff161515600114620011bc57600080fd5b6001600160a01b0380841660009081526009602090815260408083209386168352929052205462000a7d908263ffffffff620013ae16565b6002546001600160a01b031681565b6200120d62001301565b6000546001600160a01b039081169116146200125f576040805162461bcd60e51b8152602060048201819052602482015260008051602062001f31833981519152604482015290519081900360640190fd5b6001600160a01b038116620012a65760405162461bcd60e51b815260040180806020018281038252602681526020018062001eea6026913960400191505060405180910390fd5b600080546040516001600160a01b03808516939216917f8be0079c531659141344cd1fd0a4f28419497f9722a3daafe3b4186f6b6457e091a3600080546001600160a01b0319166001600160a01b0392909216919091179055565b3390565b60006200134983836040518060400160405280601e81526020017f536166654d6174683a207375627472616374696f6e206f766572666c6f77000081525062001409565b9392505050565b600082620013615750600062000c68565b828202828482816200136f57fe5b0414620013495760405162461bcd60e51b815260040180806020018281038252602181526020018062001f106021913960400191505060405180910390fd5b60008282018381101562001349576040805162461bcd60e51b815260206004820152601b60248201527f536166654d6174683a206164646974696f6e206f766572666c6f770000000000604482015290519081900360640190fd5b600081848411156200149c5760405162461bcd60e51b81526004018080602001828103825283818151815260200191508051906020019080838360005b838110156200146057818101518382015260200162001446565b50505050905090810190601f1680156200148e5780820380516001836020036101000a031916815260200191505b509250505060405180910390fd5b505050900390565b610a3780620014b38339019056fe608060405234801561001057600080fd5b50604051610a37380380610a37833981810160405260a081101561003357600080fd5b508051602082015160408301516060840151608090940151600080546001600160a01b0319166001600160a01b03831617905592939192909190848484848461007e8585858561008d565b505050505050505050506102bc565b6100a7622014808561017060201b6105901790919060201c565b6002556100f66100c562201480836101c1602090811b61053717901c565b6100e4670de0b6b3a7640000866101c160201b6105371790919060201c565b61017060201b6105901790919060201c565b6001556101118262201480610170602090811b61059017901c565b60038190556004829055600254600154604080519283526020830191909152818101929092526060810183905290517f6960ab234c7ef4b0c9197100f5393cfcde7c453ac910a27bd2000aa1dd4c068d9181900360800190a150505050565b60006101b883836040518060400160405280601a81526020017f536166654d6174683a206469766973696f6e206279207a65726f00000000000081525061021a60201b60201c565b90505b92915050565b6000826101d0575060006101bb565b828202828482816101dd57fe5b04146101b85760405162461bcd60e51b8152600401808060200182810382526021815260200180610a166021913960400191505060405180910390fd5b600081836102a65760405162461bcd60e51b81526004018080602001828103825283818151815260200191508051906020019080838360005b8381101561026b578181015183820152602001610253565b50505050905090810190601f1680156102985780820380516001836020036101000a031916815260200191505b509250505060405180910390fd5b5060008385816102b257fe5b0495945050505050565b61074b806102cb6000396000f3fe608060405234801561001057600080fd5b506004361061009e5760003560e01c8063a385fb9611610066578063a385fb9614610164578063b81688161461016c578063b9f9850a1461019b578063f14039de146101a3578063fd2da339146101ab5761009e565b806315f24053146100a35780632037f3e7146100de5780636e71e2d81461010f5780638726bb89146101385780638da5cb5b14610140575b600080fd5b6100cc600480360360608110156100b957600080fd5b50803590602081013590604001356101b3565b60408051918252519081900360200190f35b61010d600480360360808110156100f457600080fd5b50803590602081013590604081013590606001356101ca565b005b6100cc6004803603606081101561012557600080fd5b5080359060208101359060400135610225565b6100cc61027b565b610148610281565b604080516001600160a01b039092168252519081900360200190f35b6100cc610290565b6100cc6004803603608081101561018257600080fd5b5080359060208101359060408101359060600135610297565b6100cc610316565b6100cc61031c565b6100cc610322565b60006101c0848484610328565b90505b9392505050565b6000546001600160a01b031633146102135760405162461bcd60e51b81526004018080602001828103825260268152602001806106f06026913960400191505060405180910390fd5b61021f848484846103f1565b50505050565b600082610234575060006101c3565b6101c06102578361024b878763ffffffff61049216565b9063ffffffff6104f516565b61026f85670de0b6b3a764000063ffffffff61053716565b9063ffffffff61059016565b60015481565b6000546001600160a01b031681565b6220148081565b6000806102b2670de0b6b3a76400008463ffffffff6104f516565b905060006102c1878787610328565b905060006102e1670de0b6b3a764000061026f848663ffffffff61053716565b905061030a670de0b6b3a764000061026f836102fe8c8c8c610225565b9063ffffffff61053716565b98975050505050505050565b60035481565b60025481565b60045481565b600080610336858585610225565b9050600454811161037c57610374600254610368670de0b6b3a764000061026f6001548661053790919063ffffffff16565b9063ffffffff61049216565b9150506101c3565b60006103a7600254610368670de0b6b3a764000061026f60015460045461053790919063ffffffff16565b905060006103c0600454846104f590919063ffffffff16565b90506103e782610368670de0b6b3a764000061026f6003548661053790919063ffffffff16565b93505050506101c3565b610404846220148063ffffffff61059016565b60025561041d610257622014808363ffffffff61053716565b600155610433826220148063ffffffff61059016565b60038190556004829055600254600154604080519283526020830191909152818101929092526060810183905290517f6960ab234c7ef4b0c9197100f5393cfcde7c453ac910a27bd2000aa1dd4c068d9181900360800190a150505050565b6000828201838110156104ec576040805162461bcd60e51b815260206004820152601b60248201527f536166654d6174683a206164646974696f6e206f766572666c6f770000000000604482015290519081900360640190fd5b90505b92915050565b60006104ec83836040518060400160405280601e81526020017f536166654d6174683a207375627472616374696f6e206f766572666c6f7700008152506105d2565b600082610546575060006104ef565b8282028284828161055357fe5b04146104ec5760405162461bcd60e51b81526004018080602001828103825260218152602001806106cf6021913960400191505060405180910390fd5b60006104ec83836040518060400160405280601a81526020017f536166654d6174683a206469766973696f6e206279207a65726f000000000000815250610669565b600081848411156106615760405162461bcd60e51b81526004018080602001828103825283818151815260200191508051906020019080838360005b8381101561062657818101518382015260200161060e565b50505050905090810190601f1680156106535780820380516001836020036101000a031916815260200191505b509250505060405180910390fd5b505050900390565b600081836106b85760405162461bcd60e51b815260206004820181815283516024840152835190928392604490910191908501908083836000831561062657818101518382015260200161060e565b5060008385816106c457fe5b049594505050505056fe536166654d6174683a206d756c7469706c69636174696f6e206f766572666c6f776f6e6c7920746865206f776e6572206d61792063616c6c20746869732066756e6374696f6e2ea26469706673582212207198bc77528df87b6577b8b2ecafde4a22c75b4e77d088e020fb7e86421e1e9b64736f6c63430006060033536166654d6174683a206d756c7469706c69636174696f6e206f766572666c6f774f776e61626c653a206e6577206f776e657220697320746865207a65726f2061646472657373536166654d6174683a206d756c7469706c69636174696f6e206f766572666c6f774f776e61626c653a2063616c6c6572206973206e6f7420746865206f776e6572a264697066735822122007c4ca23762b059c4e54dc1d851629bb737e6e890bb669a030fba4e6a598068164736f6c63430006060033",
  "immutableReferences": {},
  "source": "pragma solidity ^0.6.0;\n\nimport \"@openzeppelin/contracts/access/Ownable.sol\";\nimport \"@openzeppelin/contracts/math/SafeMath.sol\";\nimport \"./MoneyMarketInstance.sol\";\nimport \"./interfaces/UniswapOracleFactoryI.sol\";\nimport \"./interfaces/MoneyMarketFactoryI.sol\";\nimport \"./interfaces/MoneyMarketInstanceI.sol\";\nimport \"./interfaces/AskoRiskTokenI.sol\";\nimport \"./compound/JumpRateModelV2.sol\";\nimport \"./compound/Exponential.sol\";\n////////////////////////////////////////////////////////////////////////////////////////////\n/// @title MoneyMarketFactory\n/// @author Christopher Dixon\n////////////////////////////////////////////////////////////////////////////////////////////\n/**\nMoneyMarketControl is designed to coordinate Money Markets\nThis contract uses the OpenZeppelin contract Library to inherit functions from\n  Ownable.sol\n**/\n\ncontract MoneyMarketControl is Ownable, Exponential {\n\n  using SafeMath for uint;\n\n\n\n  uint public instanceCount;//tracks the number of instances\n\n\n  UniswapOracleFactoryI public Oracle;//oracle factory contract interface\n  MoneyMarketFactoryI public MMF;\n\n  address[] public assets;\n\n  mapping(address => address) public instanceTracker; //maps erc20 address to the assets MoneyMarketInstance\n  mapping(address => address) public _ALRtracker; // tracks a money markets address to its ALR token.\n  mapping(address => address) public oracleTracker; //maps a MM oracle to its Money market address\n  mapping(address => mapping(address => uint)) collateralTracker; //tracks user to a market to an amount collaterlized in that market\n  mapping(address => mapping(address => uint)) lockedCollateralTracker; //tracks user to a market to an amount of collateral locked in a market\n  mapping(address => bool) isMMI;\n  mapping(address => bool) isALR;\n\n  /**\n  @notice onlyMMFactory is a modifier used to make a function only callable by the Money Market Instance contract\n  **/\n    modifier onlyMMI()  {\n      require(isMMI[msg.sender] == true);\n      _;\n    }\n\n    event WhiteListed(address asset, address moneyMarket, address oracle);\n    event AHRcreated(address asset, address interestRateModel);\n    event ALRcreated(address asset, address interestRateModel);\n\n/**\n@notice the constructor function is fired during the contract deployment process. The constructor can only be fired once and\n        is used to set up Oracle variables for the MoneyMarketFactory contract.\n@param _oracle is the address for the UniswapOracleFactorycontract\n**/\nconstructor ( address _oracle, address _MMF) public {\n  Oracle = UniswapOracleFactoryI(_oracle);\n  MMF = MoneyMarketFactoryI(_MMF);\n}\n\n/**\n@notice whitelistAsset is an onlyOwner function designed to be called by the AskoDAO.\n        This function creates a new MoneyMarketInstancecontract for an input asset as well\n        as a UniswapOracleInstance for the asset.\n@param _assetContractAdd is the address of the ERC20 asset being whitelisted\n@param _assetName is the name of the asset(e.x: ChainLink)\n@param _assetSymbol is the symbol of the asset(e.x: LINK)\n**/\n  function whitelistAsset(\n    address _assetContractAdd,\n\t\tstring memory _assetName,\n\t\tstring memory _assetSymbol\n  )\n  public\n  onlyOwner\n  {\n    instanceCount++;\n\n  address oracle = address(Oracle.createNewOracle( _assetContractAdd));\n\n  address _MMinstance = MMF.createMMI(\n        _assetContractAdd,\n        address(Oracle),\n        address(this),\n   \t\t _assetName,\n   \t\t _assetSymbol\n     );\n\n    isMMI[_MMinstance] = true;\n    Oracle.linkMMI(_MMinstance, _assetContractAdd);\n    instanceTracker[_assetContractAdd] = _MMinstance;\n    oracleTracker[_MMinstance] = oracle;\n    assets.push(_assetContractAdd);\n    emit WhiteListed(_assetContractAdd, _MMinstance, oracle);\n  }\n\n/**\n@notice setUpAHR is used to set up a MoneyMarketInstances Asko High Risk Token as well as its InterestRateModel\n@param _baseRatePerYear The approximate target base APR, as a mantissa (scaled by 1e18)\n@param _multiplierPerYear  The rate of increase in interest rate wrt utilization (scaled by 1e18)\n@param _jumpMultiplierPerYear The multiplierPerBlock after hitting a specified utilization point\n@param _optimal The utilization point at which the jump multiplier is applied(Refered to as the Kink in the InterestRateModel)\n@param _fee is a number representing the fee for exchanging an AHR token, as a mantissa (scaled by 1e18)\n@param _assetContractAdd is the contract address of the asset whos MoneyMarketInstance is being set up\n@dev this function can only be called after an asset has been whitelisted as it needs an existing MoneyMarketInstance contract\n**/\n  function setUpAHR(\n    uint _baseRatePerYear,\n    uint _multiplierPerYear,\n    uint _jumpMultiplierPerYear,\n    uint _optimal,\n    uint _fee,\n    uint _initialExchangeRate,\n    address _assetContractAdd\n  )\n  public\n  {\n    MoneyMarketInstanceI _MMI = MoneyMarketInstanceI(instanceTracker[_assetContractAdd]);\n\n    address interestRateModel = address( new JumpRateModelV2(\n      _baseRatePerYear,\n      _multiplierPerYear,\n      _jumpMultiplierPerYear,\n      _optimal,\n      address(_MMI)\n    ));\n\n_MMI._setUpAHR(\n  interestRateModel,\n  _fee,\n  _initialExchangeRate\n);\n\nemit AHRcreated(_assetContractAdd, interestRateModel);\n  }\n\n/**\n@notice setUpAHR is used to set up a MoneyMarketInstances Asko High Risk Token as well as its InterestRateModel\n@param _baseRatePerYear The approximate target base APR, as a mantissa (scaled by 1e18)\n@param _multiplierPerYear  The rate of increase in interest rate wrt utilization (scaled by 1e18)\n@param _jumpMultiplierPerYear The multiplierPerBlock after hitting a specified utilization point\n@param _optimal The utilization point at which the jump multiplier is applied(Refered to as the Kink in the InterestRateModel)\n@param _fee is a number representing the fee for exchanging an ALR token, as a mantissa (scaled by 1e18)\n@param _assetContractAdd is the contract address of the asset whos MoneyMarketInstance is being set up\n@dev this function can only be called after an asset has been whitelisted as it needs an existing MoneyMarketInstance contract\n**/\n  function setUpALR(\n    uint _baseRatePerYear,\n    uint _multiplierPerYear,\n    uint _jumpMultiplierPerYear,\n    uint _optimal,\n    uint _fee,\n    uint _initialExchangeRate,\n    address _assetContractAdd\n  )\n  public\n  {\n    MoneyMarketInstanceI _MMI = MoneyMarketInstanceI(instanceTracker[_assetContractAdd]);\n\n    address interestRateModel = address( new JumpRateModelV2(\n      _baseRatePerYear,\n      _multiplierPerYear,\n      _jumpMultiplierPerYear,\n      _optimal,\n      address(_MMI)\n    ));\n    isALR[address(_MMI)] = true;\n\n    _MMI._setUpALR(\n      interestRateModel,\n      _fee,\n      _initialExchangeRate\n    );\n    emit ALRcreated(_assetContractAdd, interestRateModel);\n\n  }\n\n/**\n@notice getAsset returns an array of all assets whitelisted on the platform.\n@dev this can be used to loop through and retreive each assets MoneyMarket by the front end\n**/\n  function getAssets() public view returns(address[] memory) {\n    return assets;\n  }\n\n/**\n@notice trackCollateralUp is an external function used bya MMI to track collateral amounts globally\n@param _borrower is the address of the corrower\n@param _ALR is the address of the seller\n@param _amount is the amount of ALR being collateralized\n@dev this function can only be called by a MoneyMarketInstance.\n**/\n function trackCollateralUp(address _borrower, address _ALR, uint _amount) external {\n   require( isMMI[msg.sender] || isALR[msg.sender]);\n   collateralTracker[_borrower][_ALR] = collateralTracker[_borrower][_ALR].add(_amount);\n }\n\n /**\n @notice trackCollateralDown is an external function used bya MMI to track collateral amounts globally\n @param _borrower is the address of the corrower\n @param _ALR is the address of the seller\n @param _amount is the amount of ALR being collateralized\n @dev this function can only be called by a MoneyMarketInstance.\n **/\n  function trackCollateralDown(address _borrower, address _ALR, uint _amount) external {\n    require( isMMI[msg.sender] || isALR[msg.sender]);\n    collateralTracker[_borrower][_ALR] = collateralTracker[_borrower][_ALR].sub(_amount);\n  }\n\n/**\n@notice lockCollateral is used by an MMI when a user borrows against their collateral to track collateral amounts\n        globally.\n@param _borrower is the address of the corrower\n@param _ALR is the address of the seller\n@param _amount is the amount of ALR  collateral being \"locked\" in a borrow\n@dev this function can only be called by a MoneyMarketInstance.\n**/\n function lockCollateral(address _borrower, address _ALR, uint _amount) external onlyMMI {\n   lockedCollateralTracker[_borrower][_ALR] = lockedCollateralTracker[_borrower][_ALR].add(_amount);\n }\n\n /**\n @notice unlockCollateral is used by an MMI when a user pays a loan off to unlock their borrowed against collateral so that\n          it can be borrowed against again\n @param _borrower is the address of the corrower\n @param _ALR is the address of the seller\n @param _amount is the amount of ALR  collateral being \"unlocked\" from a repay\n @dev this function can only be called by a MoneyMarketInstance.\n **/\n  function unlockCollateral(address _borrower, address _ALR, uint _amount) external onlyMMI {\n    lockedCollateralTracker[_borrower][_ALR] = collateralTracker[_borrower][_ALR].sub(_amount);\n  }\n\n\n\n /**\n@notice checkCollateralValue is a view function that accepts an account address and an ALR contract\n        address and returns the USD value of the availible collateral they have. Availible collateral is\n        determined by the total amount of collateral minus the amount of collateral that is still availible to borrow against\n@param _borrower is the address whos collateral value we are looking up\n@param _ALR is the address of the ALR token where collateral value is being looked up\n@dev this function can only be called by a MoneyMarketInstance.\n **/\n function checkAvailibleCollateralValue(address _borrower, address _ALR ) external view onlyMMI returns(uint) {\n//instantiate the MoneyMakerInstance calling this function\n   MoneyMarketInstanceI MMI = MoneyMarketInstanceI(msg.sender);\n//retreive the address of its asset\n   address asset = MMI.getAssetAdd();\n//retrieve USD price of this asset\n   uint priceOfAsset = Oracle.getUnderlyingPrice(asset);\n//retrieve the amount of the asset locked as collateral\n   uint amountOfAssetCollat = collateralTracker[_borrower][_ALR];\n//retreive the amount of locked collateral that is loaned against\n   uint amountOfLockedCollat = lockedCollateralTracker[_borrower][_ALR];\n//determine availible collateral\n  uint availibleCollateral = amountOfAssetCollat.sub(amountOfLockedCollat);\n//multiply the amount of availible collateral by the asset price and return it\n   return availibleCollateral.mul(priceOfAsset);\n }\n\n\n\nfunction _checkIfALR(address __inQ) external view returns(bool) {\n  return isALR[__inQ];\n}\n\n}\n",
  "sourcePath": "/home/stan36/repos/Askolend/AskoLend-contracts/contracts/MoneyMarketControl.sol",
  "compiler": {
    "name": "solc",
    "version": "0.6.6+commit.6c089d02.Emscripten.clang"
  },
  "schemaVersion": "3.2.4",
  "updatedAt": "2020-10-25T07:44:02.056Z",
  "devdoc": {
    "methods": {
      "checkAvailibleCollateralValue(address,address)": {
        "details": "this function can only be called by a MoneyMarketInstance.*",
        "params": {
          "_ALR": "is the address of the ALR token where collateral value is being looked up",
          "_borrower": "is the address whos collateral value we are looking up"
        }
      },
      "constructor": {
        "params": {
          "_oracle": "is the address for the UniswapOracleFactorycontract*"
        }
      },
      "getAssets()": {
        "details": "this can be used to loop through and retreive each assets MoneyMarket by the front end*"
      },
      "lockCollateral(address,address,uint256)": {
        "details": "this function can only be called by a MoneyMarketInstance.*",
        "params": {
          "_ALR": "is the address of the seller",
          "_amount": "is the amount of ALR  collateral being \"locked\" in a borrow",
          "_borrower": "is the address of the corrower"
        }
      },
      "owner()": {
        "details": "Returns the address of the current owner."
      },
      "renounceOwnership()": {
        "details": "Leaves the contract without owner. It will not be possible to call `onlyOwner` functions anymore. Can only be called by the current owner.     * NOTE: Renouncing ownership will leave the contract without an owner, thereby removing any functionality that is only available to the owner."
      },
      "setUpAHR(uint256,uint256,uint256,uint256,uint256,uint256,address)": {
        "details": "this function can only be called after an asset has been whitelisted as it needs an existing MoneyMarketInstance contract*",
        "params": {
          "_assetContractAdd": "is the contract address of the asset whos MoneyMarketInstance is being set up",
          "_baseRatePerYear": "The approximate target base APR, as a mantissa (scaled by 1e18)",
          "_fee": "is a number representing the fee for exchanging an AHR token, as a mantissa (scaled by 1e18)",
          "_jumpMultiplierPerYear": "The multiplierPerBlock after hitting a specified utilization point",
          "_multiplierPerYear": "The rate of increase in interest rate wrt utilization (scaled by 1e18)",
          "_optimal": "The utilization point at which the jump multiplier is applied(Refered to as the Kink in the InterestRateModel)"
        }
      },
      "setUpALR(uint256,uint256,uint256,uint256,uint256,uint256,address)": {
        "details": "this function can only be called after an asset has been whitelisted as it needs an existing MoneyMarketInstance contract*",
        "params": {
          "_assetContractAdd": "is the contract address of the asset whos MoneyMarketInstance is being set up",
          "_baseRatePerYear": "The approximate target base APR, as a mantissa (scaled by 1e18)",
          "_fee": "is a number representing the fee for exchanging an ALR token, as a mantissa (scaled by 1e18)",
          "_jumpMultiplierPerYear": "The multiplierPerBlock after hitting a specified utilization point",
          "_multiplierPerYear": "The rate of increase in interest rate wrt utilization (scaled by 1e18)",
          "_optimal": "The utilization point at which the jump multiplier is applied(Refered to as the Kink in the InterestRateModel)"
        }
      },
      "trackCollateralDown(address,address,uint256)": {
        "details": "this function can only be called by a MoneyMarketInstance.*",
        "params": {
          "_ALR": "is the address of the seller",
          "_amount": "is the amount of ALR being collateralized",
          "_borrower": "is the address of the corrower"
        }
      },
      "trackCollateralUp(address,address,uint256)": {
        "details": "this function can only be called by a MoneyMarketInstance.*",
        "params": {
          "_ALR": "is the address of the seller",
          "_amount": "is the amount of ALR being collateralized",
          "_borrower": "is the address of the corrower"
        }
      },
      "transferOwnership(address)": {
        "details": "Transfers ownership of the contract to a new account (`newOwner`). Can only be called by the current owner."
      },
      "unlockCollateral(address,address,uint256)": {
        "details": "this function can only be called by a MoneyMarketInstance.*",
        "params": {
          "_ALR": "is the address of the seller",
          "_amount": "is the amount of ALR  collateral being \"unlocked\" from a repay",
          "_borrower": "is the address of the corrower"
        }
      },
      "whitelistAsset(address,string,string)": {
        "params": {
          "_assetContractAdd": "is the address of the ERC20 asset being whitelisted",
          "_assetName": "is the name of the asset(e.x: ChainLink)",
          "_assetSymbol": "is the symbol of the asset(e.x: LINK)*"
        }
      }
    }
  },
  "userdoc": {
    "methods": {
      "checkAvailibleCollateralValue(address,address)": {
        "notice": "checkCollateralValue is a view function that accepts an account address and an ALR contract address and returns the USD value of the availible collateral they have. Availible collateral is determined by the total amount of collateral minus the amount of collateral that is still availible to borrow against"
      },
      "constructor": "the constructor function is fired during the contract deployment process. The constructor can only be fired once and is used to set up Oracle variables for the MoneyMarketFactory contract.",
      "getAssets()": {
        "notice": "getAsset returns an array of all assets whitelisted on the platform."
      },
      "lockCollateral(address,address,uint256)": {
        "notice": "lockCollateral is used by an MMI when a user borrows against their collateral to track collateral amounts globally."
      },
      "setUpAHR(uint256,uint256,uint256,uint256,uint256,uint256,address)": {
        "notice": "setUpAHR is used to set up a MoneyMarketInstances Asko High Risk Token as well as its InterestRateModel"
      },
      "setUpALR(uint256,uint256,uint256,uint256,uint256,uint256,address)": {
        "notice": "setUpAHR is used to set up a MoneyMarketInstances Asko High Risk Token as well as its InterestRateModel"
      },
      "trackCollateralDown(address,address,uint256)": {
        "notice": "trackCollateralDown is an external function used bya MMI to track collateral amounts globally"
      },
      "trackCollateralUp(address,address,uint256)": {
        "notice": "trackCollateralUp is an external function used bya MMI to track collateral amounts globally"
      },
      "unlockCollateral(address,address,uint256)": {
        "notice": "unlockCollateral is used by an MMI when a user pays a loan off to unlock their borrowed against collateral so that it can be borrowed against again"
      },
      "whitelistAsset(address,string,string)": {
        "notice": "whitelistAsset is an onlyOwner function designed to be called by the AskoDAO. This function creates a new MoneyMarketInstancecontract for an input asset as well as a UniswapOracleInstance for the asset."
      }
    },
    "notice": "MoneyMarketControl is designed to coordinate Money Markets This contract uses the OpenZeppelin contract Library to inherit functions from Ownable.sol*"
  }
}