{
  "contractName": "MoneyMarketControl",
  "abi": [
    {
      "inputs": [
        {
          "internalType": "address",
          "name": "_oracle",
          "type": "address"
        },
        {
          "internalType": "address",
          "name": "_MMF",
          "type": "address"
        }
      ],
      "stateMutability": "nonpayable",
      "type": "constructor"
    },
    {
      "anonymous": false,
      "inputs": [
        {
          "indexed": true,
          "internalType": "address",
          "name": "previousOwner",
          "type": "address"
        },
        {
          "indexed": true,
          "internalType": "address",
          "name": "newOwner",
          "type": "address"
        }
      ],
      "name": "OwnershipTransferred",
      "type": "event"
    },
    {
      "inputs": [],
      "name": "MMF",
      "outputs": [
        {
          "internalType": "contract MoneyMarketFactoryI",
          "name": "",
          "type": "address"
        }
      ],
      "stateMutability": "view",
      "type": "function",
      "constant": true
    },
    {
      "inputs": [],
      "name": "Oracle",
      "outputs": [
        {
          "internalType": "contract UniswapOracleFactoryI",
          "name": "",
          "type": "address"
        }
      ],
      "stateMutability": "view",
      "type": "function",
      "constant": true
    },
    {
      "inputs": [
        {
          "internalType": "address",
          "name": "",
          "type": "address"
        }
      ],
      "name": "_ALRtracker",
      "outputs": [
        {
          "internalType": "address",
          "name": "",
          "type": "address"
        }
      ],
      "stateMutability": "view",
      "type": "function",
      "constant": true
    },
    {
      "inputs": [
        {
          "internalType": "uint256",
          "name": "",
          "type": "uint256"
        }
      ],
      "name": "assets",
      "outputs": [
        {
          "internalType": "address",
          "name": "",
          "type": "address"
        }
      ],
      "stateMutability": "view",
      "type": "function",
      "constant": true
    },
    {
      "inputs": [],
      "name": "instanceCount",
      "outputs": [
        {
          "internalType": "uint256",
          "name": "",
          "type": "uint256"
        }
      ],
      "stateMutability": "view",
      "type": "function",
      "constant": true
    },
    {
      "inputs": [
        {
          "internalType": "address",
          "name": "",
          "type": "address"
        }
      ],
      "name": "instanceTracker",
      "outputs": [
        {
          "internalType": "address",
          "name": "",
          "type": "address"
        }
      ],
      "stateMutability": "view",
      "type": "function",
      "constant": true
    },
    {
      "inputs": [],
      "name": "liquidationIncentiveMantissa",
      "outputs": [
        {
          "internalType": "uint256",
          "name": "",
          "type": "uint256"
        }
      ],
      "stateMutability": "view",
      "type": "function",
      "constant": true
    },
    {
      "inputs": [
        {
          "internalType": "address",
          "name": "",
          "type": "address"
        }
      ],
      "name": "oracleTracker",
      "outputs": [
        {
          "internalType": "address",
          "name": "",
          "type": "address"
        }
      ],
      "stateMutability": "view",
      "type": "function",
      "constant": true
    },
    {
      "inputs": [],
      "name": "owner",
      "outputs": [
        {
          "internalType": "address",
          "name": "",
          "type": "address"
        }
      ],
      "stateMutability": "view",
      "type": "function",
      "constant": true
    },
    {
      "inputs": [],
      "name": "renounceOwnership",
      "outputs": [],
      "stateMutability": "nonpayable",
      "type": "function"
    },
    {
      "inputs": [
        {
          "internalType": "address",
          "name": "newOwner",
          "type": "address"
        }
      ],
      "name": "transferOwnership",
      "outputs": [],
      "stateMutability": "nonpayable",
      "type": "function"
    },
    {
      "inputs": [
        {
          "internalType": "address",
          "name": "_assetContractAdd",
          "type": "address"
        },
        {
          "internalType": "string",
          "name": "_assetName",
          "type": "string"
        },
        {
          "internalType": "string",
          "name": "_assetSymbol",
          "type": "string"
        }
      ],
      "name": "whitelistAsset",
      "outputs": [],
      "stateMutability": "nonpayable",
      "type": "function"
    },
    {
      "inputs": [
        {
          "internalType": "uint256",
          "name": "_baseRatePerYear",
          "type": "uint256"
        },
        {
          "internalType": "uint256",
          "name": "_multiplierPerYear",
          "type": "uint256"
        },
        {
          "internalType": "uint256",
          "name": "_jumpMultiplierPerYear",
          "type": "uint256"
        },
        {
          "internalType": "uint256",
          "name": "_optimal",
          "type": "uint256"
        },
        {
          "internalType": "uint256",
          "name": "_fee",
          "type": "uint256"
        },
        {
          "internalType": "uint256",
          "name": "_initialExchangeRate",
          "type": "uint256"
        },
        {
          "internalType": "address",
          "name": "_assetContractAdd",
          "type": "address"
        }
      ],
      "name": "setUpAHR",
      "outputs": [],
      "stateMutability": "nonpayable",
      "type": "function"
    },
    {
      "inputs": [
        {
          "internalType": "uint256",
          "name": "_baseRatePerYear",
          "type": "uint256"
        },
        {
          "internalType": "uint256",
          "name": "_multiplierPerYear",
          "type": "uint256"
        },
        {
          "internalType": "uint256",
          "name": "_jumpMultiplierPerYear",
          "type": "uint256"
        },
        {
          "internalType": "uint256",
          "name": "_optimal",
          "type": "uint256"
        },
        {
          "internalType": "uint256",
          "name": "_fee",
          "type": "uint256"
        },
        {
          "internalType": "uint256",
          "name": "_initialExchangeRate",
          "type": "uint256"
        },
        {
          "internalType": "address",
          "name": "_assetContractAdd",
          "type": "address"
        }
      ],
      "name": "setUpALR",
      "outputs": [],
      "stateMutability": "nonpayable",
      "type": "function"
    },
    {
      "inputs": [],
      "name": "getAssets",
      "outputs": [
        {
          "internalType": "address[]",
          "name": "",
          "type": "address[]"
        }
      ],
      "stateMutability": "view",
      "type": "function",
      "constant": true
    },
    {
      "inputs": [
        {
          "internalType": "address",
          "name": "_borrower",
          "type": "address"
        },
        {
          "internalType": "address",
          "name": "_ALR",
          "type": "address"
        },
        {
          "internalType": "uint256",
          "name": "_amount",
          "type": "uint256"
        }
      ],
      "name": "trackCollateral",
      "outputs": [],
      "stateMutability": "nonpayable",
      "type": "function"
    },
    {
      "inputs": [
        {
          "internalType": "address",
          "name": "_borrower",
          "type": "address"
        },
        {
          "internalType": "address",
          "name": "_ALR",
          "type": "address"
        }
      ],
      "name": "checkCollateralValue",
      "outputs": [
        {
          "internalType": "uint256",
          "name": "",
          "type": "uint256"
        }
      ],
      "stateMutability": "view",
      "type": "function",
      "constant": true
    },
    {
      "inputs": [
        {
          "internalType": "address",
          "name": "_borrower",
          "type": "address"
        },
        {
          "internalType": "address",
          "name": "_ART",
          "type": "address"
        }
      ],
      "name": "markAccountNonCompliant",
      "outputs": [],
      "stateMutability": "nonpayable",
      "type": "function"
    },
    {
      "inputs": [
        {
          "internalType": "address",
          "name": "borrower",
          "type": "address"
        },
        {
          "internalType": "uint256",
          "name": "repayAmount",
          "type": "uint256"
        },
        {
          "internalType": "contract AskoRiskTokenI",
          "name": "_ARTowed",
          "type": "address"
        },
        {
          "internalType": "contract AskoRiskTokenI",
          "name": "_ARTcollateralized",
          "type": "address"
        }
      ],
      "name": "liquidateAccount",
      "outputs": [],
      "stateMutability": "nonpayable",
      "type": "function"
    }
  ],
  "bytecode": "0x60806040526714d1120d7b16000060025534801561001c57600080fd5b506040516126e83803806126e88339818101604052604081101561003f57600080fd5b508051602090910151600061005b6001600160e01b036100d616565b600080546001600160a01b0319166001600160a01b0383169081178255604051929350917f8be0079c531659141344cd1fd0a4f28419497f9722a3daafe3b4186f6b6457e0908290a350600380546001600160a01b039384166001600160a01b031991821617909155600480549290931691161790556100da565b3390565b6125ff806100e96000396000f3fe60806040523480156200001157600080fd5b50600436106200012a5760003560e01c80637ab2d44711620000bd578063d162054a116200007b578063d162054a1462000501578063eb8341b3146200050b578063ec56c7161462000534578063f24a534e146200053e578063f2fde38b1462000548576200012a565b80637ab2d447146200040c5780638da5cb5b1462000459578063902008491462000463578063bbae21e914620004b0578063cf35bdd014620004e1576200012a565b80630ba7345d146200012f5780630f9368e61462000273578063152eadbb14620002b25780633373a44714620002eb5780633ca0037b14620003305780634750e71914620003595780634ada90af146200039c57806367e4ac2c14620003a6578063715018a61462000402575b600080fd5b62000271600480360360608110156200014757600080fd5b6001600160a01b038235169190810190604081016020820135600160201b8111156200017257600080fd5b8201836020820111156200018557600080fd5b803590602001918460018302840111600160201b83111715620001a757600080fd5b91908080601f0160208091040260200160405190810160405280939291908181526020018383808284376000920191909152509295949360208101935035915050600160201b811115620001fa57600080fd5b8201836020820111156200020d57600080fd5b803590602001918460018302840111600160201b831117156200022f57600080fd5b91908080601f01602080910402602001604051908101604052809392919081815260200183838082843760009201919091525092955062000571945050505050565b005b62000271600480360360808110156200028b57600080fd5b506001600160a01b038135811691602081013591604082013581169160600135166200093a565b6200027160048036036060811015620002ca57600080fd5b506001600160a01b0381358116916020810135909116906040013562000ebe565b62000314600480360360208110156200030357600080fd5b50356001600160a01b031662000f0c565b604080516001600160a01b039092168252519081900360200190f35b62000314600480360360208110156200034857600080fd5b50356001600160a01b031662000f27565b6200038a600480360360408110156200037157600080fd5b506001600160a01b038135811691602001351662000f42565b60408051918252519081900360200190f35b6200038a6200109d565b620003b0620010a3565b60408051602080825283518183015283519192839290830191858101910280838360005b83811015620003ee578181015183820152602001620003d4565b505050509050019250505060405180910390f35b6200027162001107565b62000271600480360360e08110156200042457600080fd5b5080359060208101359060408101359060608101359060808101359060a08101359060c001356001600160a01b0316620011ad565b62000314620012ba565b62000271600480360360e08110156200047b57600080fd5b5080359060208101359060408101359060608101359060808101359060a08101359060c001356001600160a01b0316620012c9565b6200027160048036036040811015620004c857600080fd5b506001600160a01b0381358116916020013516620013b2565b6200031460048036036020811015620004f957600080fd5b50356200140f565b6200031462001437565b62000314600480360360208110156200052357600080fd5b50356001600160a01b031662001446565b6200038a62001461565b6200031462001467565b62000271600480360360208110156200056057600080fd5b50356001600160a01b031662001476565b6200057b62001574565b6000546001600160a01b03908116911614620005cd576040805162461bcd60e51b81526020600482018190526024820152600080516020620025aa833981519152604482015290519081900360640190fd5b600180548101905560035460408051632fb2da6160e01b81526001600160a01b03868116600483015291516000939290921691632fb2da619160248082019260209290919082900301818787803b1580156200062857600080fd5b505af11580156200063d573d6000803e3d6000fd5b505050506040513d60208110156200065457600080fd5b810190808051906020019092919050505090506000600460009054906101000a90046001600160a01b03166001600160a01b031663ee61748c86600360009054906101000a90046001600160a01b03163088886040518663ffffffff1660e01b815260040180866001600160a01b03166001600160a01b03168152602001856001600160a01b03166001600160a01b03168152602001846001600160a01b03166001600160a01b031681526020018060200180602001838103835285818151815260200191508051906020019080838360005b838110156200074157818101518382015260200162000727565b50505050905090810190601f1680156200076f5780820380516001836020036101000a031916815260200191505b50838103825284518152845160209182019186019080838360005b83811015620007a45781810151838201526020016200078a565b50505050905090810190601f168015620007d25780820380516001836020036101000a031916815260200191505b50975050505050505050602060405180830381600087803b158015620007f757600080fd5b505af11580156200080c573d6000803e3d6000fd5b505050506040513d60208110156200082357600080fd5b50516001600160a01b038082166000818152600b6020526040808220805460ff191660011790556003548151631be1d0b960e01b815260048101949094528a85166024850152905194955090921692631be1d0b99260448084019391929182900301818387803b1580156200089757600080fd5b505af1158015620008ac573d6000803e3d6000fd5b5050506001600160a01b0395861660008181526006602090815260408083208054968b166001600160a01b0319978816811790915583526008909152812080549590981694841694909417909655506005805460018101825592527f036b6384b5eca791c62761152d0c79bb0604c104a5fb6f4eb0703f3154bb3db090910180549091169093179092555050565b6001600160a01b03808516600090815260096020908152604080832093861683529290522054620009749061070863ffffffff6200157816565b4210156200098157600080fd5b6200098b62001aac565b826001600160a01b0316634c20ac746040518163ffffffff1660e01b815260040160206040518083038186803b158015620009c557600080fd5b505afa158015620009da573d6000803e3d6000fd5b505050506040513d6020811015620009f157600080fd5b50516001600160a01b039081168252604080516313082b1d60e21b8152905191841691634c20ac7491600480820192602092909190829003018186803b15801562000a3b57600080fd5b505afa15801562000a50573d6000803e3d6000fd5b505050506040513d602081101562000a6757600080fd5b50516001600160a01b0390811660208381019190915260035483516040805163fc57d4df60e01b8152918516600483015251600094929092169263fc57d4df92602480840193829003018186803b15801562000ac257600080fd5b505afa15801562000ad7573d6000803e3d6000fd5b505050506040513d602081101562000aee57600080fd5b50516003546020848101516040805163fc57d4df60e01b81526001600160a01b0392831660048201529051949550600094919093169263fc57d4df926024808301939192829003018186803b15801562000b4757600080fd5b505afa15801562000b5c573d6000803e3d6000fd5b505050506040513d602081101562000b7357600080fd5b50519050811580159062000b8657508015155b62000b9057600080fd5b846001600160a01b03166317bfdfbc886040518263ffffffff1660e01b815260040180826001600160a01b03166001600160a01b03168152602001915050602060405180830381600087803b15801562000be957600080fd5b505af115801562000bfe573d6000803e3d6000fd5b505050506040513d602081101562000c1557600080fd5b505160408085019182526001600160a01b03808a166000908152600a6020908152838220928916825291909152205460608501525162000c5c908363ffffffff620015da16565b6080840152606083015162000c78908263ffffffff620015da16565b60a0840181905262000c9290600263ffffffff6200163816565b60c0840181905260a084015162000caf9163ffffffff6200157816565b60a0840181905260808401511162000e8a57846001600160a01b031663bd6d894d6040518163ffffffff1660e01b8152600401602060405180830381600087803b15801562000cfd57600080fd5b505af115801562000d12573d6000803e3d6000fd5b505050506040513d602081101562000d2957600080fd5b505160e084015262000d3a62001b0a565b62000d4462001b0a565b62000d4e62001b0a565b600062000d5e600254876200167c565b94509050600081600381111562000d7157fe5b1462000d7c57600080fd5b62000d8c858860e001516200167c565b93509050600081600381111562000d9f57fe5b1462000daa57600080fd5b62000db68484620016bc565b92509050600081600381111562000dc957fe5b1462000dd457600080fd5b62000de0828b620016d8565b6101008901529050600081600381111562000df757fe5b1462000e0257600080fd5b865161010088015160408051638157230b60e01b81526001600160a01b0393841660048201528c841660248201526044810192909252606482018d905251918a1691638157230b9160848082019260009290919082900301818387803b15801562000e6c57600080fd5b505af115801562000e81573d6000803e3d6000fd5b50505050505050505b5050506001600160a01b03938416600090815260096020908152604080832094909616825292909252509182209190915550565b336000908152600b602052604090205460ff16151560011462000ee057600080fd5b6001600160a01b039283166000908152600a602090815260408083209490951682529290925291902055565b6006602052600090815260409020546001600160a01b031681565b6007602052600090815260409020546001600160a01b031681565b336000908152600b602052604081205460ff16151560011462000f6457600080fd5b60003390506000816001600160a01b0316634c20ac746040518163ffffffff1660e01b815260040160206040518083038186803b15801562000fa557600080fd5b505afa15801562000fba573d6000803e3d6000fd5b505050506040513d602081101562000fd157600080fd5b50516003546040805163fc57d4df60e01b81526001600160a01b0380851660048301529151939450600093919092169163fc57d4df916024808301926020929190829003018186803b1580156200102757600080fd5b505afa1580156200103c573d6000803e3d6000fd5b505050506040513d60208110156200105357600080fd5b50516001600160a01b038088166000908152600a60209081526040808320938a168352929052205490915062001090818363ffffffff620015da16565b9450505050505b92915050565b60025481565b60606005805480602002602001604051908101604052809291908181526020018280548015620010fd57602002820191906000526020600020905b81546001600160a01b03168152600190910190602001808311620010de575b5050505050905090565b6200111162001574565b6000546001600160a01b0390811691161462001163576040805162461bcd60e51b81526020600482018190526024820152600080516020620025aa833981519152604482015290519081900360640190fd5b600080546040516001600160a01b03909116907f8be0079c531659141344cd1fd0a4f28419497f9722a3daafe3b4186f6b6457e0908390a3600080546001600160a01b0319169055565b6001600160a01b0380821660009081526006602052604080822054905192169189908990899089908690620011e29062001b1d565b948552602085019390935260408085019290925260608401526001600160a01b039091166080830152519081900360a001906000f0801580156200122a573d6000803e3d6000fd5b509050816001600160a01b031663dcc716bd8287876040518463ffffffff1660e01b815260040180846001600160a01b03166001600160a01b031681526020018381526020018281526020019350505050600060405180830381600087803b1580156200129657600080fd5b505af1158015620012ab573d6000803e3d6000fd5b50505050505050505050505050565b6000546001600160a01b031690565b6001600160a01b0380821660009081526006602052604080822054905192169189908990899089908690620012fe9062001b1d565b948552602085019390935260408085019290925260608401526001600160a01b039091166080830152519081900360a001906000f08015801562001346573d6000803e3d6000fd5b509050816001600160a01b0316631f432cf58287876040518463ffffffff1660e01b815260040180846001600160a01b03166001600160a01b031681526020018381526020018281526020019350505050600060405180830381600087803b1580156200129657600080fd5b6001600160a01b0380831660009081526009602090815260408083209385168352929052205415620013e357600080fd5b6001600160a01b0391821660009081526009602090815260408083209390941682529190915220429055565b600581815481106200141d57fe5b6000918252602090912001546001600160a01b0316905081565b6004546001600160a01b031681565b6008602052600090815260409020546001600160a01b031681565b60015481565b6003546001600160a01b031681565b6200148062001574565b6000546001600160a01b03908116911614620014d2576040805162461bcd60e51b81526020600482018190526024820152600080516020620025aa833981519152604482015290519081900360640190fd5b6001600160a01b038116620015195760405162461bcd60e51b8152600401808060200182810382526026815260200180620025636026913960400191505060405180910390fd5b600080546040516001600160a01b03808516939216917f8be0079c531659141344cd1fd0a4f28419497f9722a3daafe3b4186f6b6457e091a3600080546001600160a01b0319166001600160a01b0392909216919091179055565b3390565b600082820183811015620015d3576040805162461bcd60e51b815260206004820152601b60248201527f536166654d6174683a206164646974696f6e206f766572666c6f770000000000604482015290519081900360640190fd5b9392505050565b600082620015eb5750600062001097565b82820282848281620015f957fe5b0414620015d35760405162461bcd60e51b8152600401808060200182810382526021815260200180620025896021913960400191505060405180910390fd5b6000620015d383836040518060400160405280601a81526020017f536166654d6174683a206469766973696f6e206279207a65726f00000000000081525062001734565b60006200168862001b0a565b620016b0604051806020016040528086815250604051806020016040528086815250620017db565b915091505b9250929050565b6000620016c862001b0a565b83518351620016b09190620018d5565b6000806000620016e762001b0a565b620016f3868662001992565b909250905060008260038111156200170757fe5b146200171a5750915060009050620016b5565b6000620017278262001a01565b9350935050509250929050565b60008183620017c45760405162461bcd60e51b81526004018080602001828103825283818151815260200191508051906020019080838360005b83811015620017885781810151838201526020016200176e565b50505050905090810190601f168015620017b65780820380516001836020036101000a031916815260200191505b509250505060405180910390fd5b506000838581620017d157fe5b0495945050505050565b6000620017e762001b0a565b600080620017fe8660000151866000015162001a10565b909250905060008260038111156200181257fe5b146200183357506040805160208101909152600081529092509050620016b5565b6000806200184a6706f05b59d3b200008462001a55565b909250905060008260038111156200185e57fe5b14620018835781604051806020016040528060008152509550955050505050620016b5565b6000806200189a83670de0b6b3a764000062001a7e565b90925090506000826003811115620018ae57fe5b14620018b657fe5b604080516020810190915290815260009a909950975050505050505050565b6000620018e162001b0a565b600080620018f886670de0b6b3a764000062001a10565b909250905060008260038111156200190c57fe5b146200192d57506040805160208101909152600081529092509050620016b5565b6000806200193c838862001a7e565b909250905060008260038111156200195057fe5b14620019755781604051806020016040528060008152509550955050505050620016b5565b604080516020810190915290815260009890975095505050505050565b60006200199e62001b0a565b600080620019b186600001518662001a10565b90925090506000826003811115620019c557fe5b14620019e657506040805160208101909152600081529092509050620016b5565b60408051602081019091529081526000969095509350505050565b51670de0b6b3a7640000900490565b6000808362001a2557506000905080620016b5565b8383028385828162001a3357fe5b041462001a4957506002915060009050620016b5565b600092509050620016b5565b60008083830184811062001a6f57600092509050620016b5565b506002915060009050620016b5565b6000808262001a945750600190506000620016b5565b600083858162001aa057fe5b04915091509250929050565b60405180610120016040528060006001600160a01b0316815260200160006001600160a01b03168152602001600081526020016000815260200160008152602001600081526020016000815260200160008152602001600081525090565b6040518060200160405280600081525090565b610a378062001b2c8339019056fe608060405234801561001057600080fd5b50604051610a37380380610a37833981810160405260a081101561003357600080fd5b508051602082015160408301516060840151608090940151600080546001600160a01b0319166001600160a01b03831617905592939192909190848484848461007e8585858561008d565b505050505050505050506102bc565b6100a7622014808561017060201b6105901790919060201c565b6002556100f66100c562201480836101c1602090811b61053717901c565b6100e4670de0b6b3a7640000866101c160201b6105371790919060201c565b61017060201b6105901790919060201c565b6001556101118262201480610170602090811b61059017901c565b60038190556004829055600254600154604080519283526020830191909152818101929092526060810183905290517f6960ab234c7ef4b0c9197100f5393cfcde7c453ac910a27bd2000aa1dd4c068d9181900360800190a150505050565b60006101b883836040518060400160405280601a81526020017f536166654d6174683a206469766973696f6e206279207a65726f00000000000081525061021a60201b60201c565b90505b92915050565b6000826101d0575060006101bb565b828202828482816101dd57fe5b04146101b85760405162461bcd60e51b8152600401808060200182810382526021815260200180610a166021913960400191505060405180910390fd5b600081836102a65760405162461bcd60e51b81526004018080602001828103825283818151815260200191508051906020019080838360005b8381101561026b578181015183820152602001610253565b50505050905090810190601f1680156102985780820380516001836020036101000a031916815260200191505b509250505060405180910390fd5b5060008385816102b257fe5b0495945050505050565b61074b806102cb6000396000f3fe608060405234801561001057600080fd5b506004361061009e5760003560e01c8063a385fb9611610066578063a385fb9614610164578063b81688161461016c578063b9f9850a1461019b578063f14039de146101a3578063fd2da339146101ab5761009e565b806315f24053146100a35780632037f3e7146100de5780636e71e2d81461010f5780638726bb89146101385780638da5cb5b14610140575b600080fd5b6100cc600480360360608110156100b957600080fd5b50803590602081013590604001356101b3565b60408051918252519081900360200190f35b61010d600480360360808110156100f457600080fd5b50803590602081013590604081013590606001356101ca565b005b6100cc6004803603606081101561012557600080fd5b5080359060208101359060400135610225565b6100cc61027b565b610148610281565b604080516001600160a01b039092168252519081900360200190f35b6100cc610290565b6100cc6004803603608081101561018257600080fd5b5080359060208101359060408101359060600135610297565b6100cc610316565b6100cc61031c565b6100cc610322565b60006101c0848484610328565b90505b9392505050565b6000546001600160a01b031633146102135760405162461bcd60e51b81526004018080602001828103825260268152602001806106f06026913960400191505060405180910390fd5b61021f848484846103f1565b50505050565b600082610234575060006101c3565b6101c06102578361024b878763ffffffff61049216565b9063ffffffff6104f516565b61026f85670de0b6b3a764000063ffffffff61053716565b9063ffffffff61059016565b60015481565b6000546001600160a01b031681565b6220148081565b6000806102b2670de0b6b3a76400008463ffffffff6104f516565b905060006102c1878787610328565b905060006102e1670de0b6b3a764000061026f848663ffffffff61053716565b905061030a670de0b6b3a764000061026f836102fe8c8c8c610225565b9063ffffffff61053716565b98975050505050505050565b60035481565b60025481565b60045481565b600080610336858585610225565b9050600454811161037c57610374600254610368670de0b6b3a764000061026f6001548661053790919063ffffffff16565b9063ffffffff61049216565b9150506101c3565b60006103a7600254610368670de0b6b3a764000061026f60015460045461053790919063ffffffff16565b905060006103c0600454846104f590919063ffffffff16565b90506103e782610368670de0b6b3a764000061026f6003548661053790919063ffffffff16565b93505050506101c3565b610404846220148063ffffffff61059016565b60025561041d610257622014808363ffffffff61053716565b600155610433826220148063ffffffff61059016565b60038190556004829055600254600154604080519283526020830191909152818101929092526060810183905290517f6960ab234c7ef4b0c9197100f5393cfcde7c453ac910a27bd2000aa1dd4c068d9181900360800190a150505050565b6000828201838110156104ec576040805162461bcd60e51b815260206004820152601b60248201527f536166654d6174683a206164646974696f6e206f766572666c6f770000000000604482015290519081900360640190fd5b90505b92915050565b60006104ec83836040518060400160405280601e81526020017f536166654d6174683a207375627472616374696f6e206f766572666c6f7700008152506105d2565b600082610546575060006104ef565b8282028284828161055357fe5b04146104ec5760405162461bcd60e51b81526004018080602001828103825260218152602001806106cf6021913960400191505060405180910390fd5b60006104ec83836040518060400160405280601a81526020017f536166654d6174683a206469766973696f6e206279207a65726f000000000000815250610669565b600081848411156106615760405162461bcd60e51b81526004018080602001828103825283818151815260200191508051906020019080838360005b8381101561062657818101518382015260200161060e565b50505050905090810190601f1680156106535780820380516001836020036101000a031916815260200191505b509250505060405180910390fd5b505050900390565b600081836106b85760405162461bcd60e51b815260206004820181815283516024840152835190928392604490910191908501908083836000831561062657818101518382015260200161060e565b5060008385816106c457fe5b049594505050505056fe536166654d6174683a206d756c7469706c69636174696f6e206f766572666c6f776f6e6c7920746865206f776e6572206d61792063616c6c20746869732066756e6374696f6e2ea26469706673582212207198bc77528df87b6577b8b2ecafde4a22c75b4e77d088e020fb7e86421e1e9b64736f6c63430006060033536166654d6174683a206d756c7469706c69636174696f6e206f766572666c6f774f776e61626c653a206e6577206f776e657220697320746865207a65726f2061646472657373536166654d6174683a206d756c7469706c69636174696f6e206f766572666c6f774f776e61626c653a2063616c6c6572206973206e6f7420746865206f776e6572a2646970667358221220ced89819aebac5c5ba708cbd5d579ddfc3cdbc6120d966639080de190fc5ca0964736f6c63430006060033",
  "immutableReferences": {},
  "source": "pragma solidity ^0.6.0;\n\nimport \"@openzeppelin/contracts/access/Ownable.sol\";\nimport \"@openzeppelin/contracts/math/SafeMath.sol\";\nimport \"./MoneyMarketInstance.sol\";\nimport \"./interfaces/UniswapOracleFactoryI.sol\";\nimport \"./interfaces/MoneyMarketFactoryI.sol\";\nimport \"./interfaces/MoneyMarketInstanceI.sol\";\nimport \"./interfaces/AskoRiskTokenI.sol\";\nimport \"./compound/JumpRateModelV2.sol\";\nimport \"./compound/Exponential.sol\";\n////////////////////////////////////////////////////////////////////////////////////////////\n/// @title MoneyMarketFactory\n/// @author Christopher Dixon\n////////////////////////////////////////////////////////////////////////////////////////////\n/**\nMoneyMarketControl is designed to coordinate Money Markets\nThis contract uses the OpenZeppelin contract Library to inherit functions from\n  Ownable.sol\n**/\n\ncontract MoneyMarketControl is Ownable, Exponential {\n\n  using SafeMath for uint;\n\n\n\n  uint public instanceCount;//tracks the number of instances\n  uint public liquidationIncentiveMantissa = 1.5e18; // 1.5\n\n  UniswapOracleFactoryI public Oracle;//oracle factory contract interface\n  MoneyMarketFactoryI public MMF;\n\n  address[] public assets;\n\n  mapping(address => address) public instanceTracker; //maps erc20 address to the assets MoneyMarketInstance\n  mapping(address => address) public _ALRtracker; // tracks a money markets address to its ALR token.\n  mapping(address => address) public oracleTracker; //maps a MM oracle to its Money market address\n  mapping(address => mapping(address => uint)) nonCompliant;// tracks user to a market to a time\n  mapping(address => mapping(address => uint)) collateralTracker; //tracks user to a market to an amount collaterlized in that market\n  mapping(address => bool) isMMI;\n\n  /**\n  @notice onlyMMFactory is a modifier used to make a function only callable by the Money Market Instance contract\n  **/\n    modifier onlyMMI()  {\n      require(isMMI[msg.sender] == true);\n      _;\n    }\n/**\n@notice the constructor function is fired during the contract deployment process. The constructor can only be fired once and\n        is used to set up Oracle variables for the MoneyMarketFactory contract.\n@param _oracle is the address for the UniswapOracleFactorycontract\n**/\nconstructor ( address _oracle, address _MMF) public {\n  Oracle = UniswapOracleFactoryI(_oracle);\n  MMF = MoneyMarketFactoryI(_MMF);\n}\n\n/**\n@notice whitelistAsset is an onlyOwner function designed to be called by the AskoDAO.\n        This function creates a new MoneyMarketInstancecontract for an input asset as well\n        as a UniswapOracleInstance for the asset.\n@param _assetContractAdd is the address of the ERC20 asset being whitelisted\n@param _assetName is the name of the asset(e.x: ChainLink)\n@param _assetSymbol is the symbol of the asset(e.x: LINK)\n**/\n  function whitelistAsset(\n    address _assetContractAdd,\n\t\tstring memory _assetName,\n\t\tstring memory _assetSymbol\n  )\n  public\n  onlyOwner\n  {\n    instanceCount++;\n\n  address oracle = address(Oracle.createNewOracle( _assetContractAdd));\n\n  address _MMinstance = MMF.createMMI(\n        _assetContractAdd,\n        address(Oracle),\n        address(this),\n   \t\t _assetName,\n   \t\t _assetSymbol\n     );\n\n    isMMI[_MMinstance] = true;\n    Oracle.linkMMI(_MMinstance, _assetContractAdd);\n    instanceTracker[_assetContractAdd] = _MMinstance;\n    oracleTracker[_MMinstance] = oracle;\n    assets.push(_assetContractAdd);\n  }\n\n/**\n@notice setUpAHR is used to set up a MoneyMarketInstances Asko High Risk Token as well as its InterestRateModel\n@param _baseRatePerYear The approximate target base APR, as a mantissa (scaled by 1e18)\n@param _multiplierPerYear  The rate of increase in interest rate wrt utilization (scaled by 1e18)\n@param _jumpMultiplierPerYear The multiplierPerBlock after hitting a specified utilization point\n@param _optimal The utilization point at which the jump multiplier is applied(Refered to as the Kink in the InterestRateModel)\n@param _fee is a number representing the fee for exchanging an AHR token, as a mantissa (scaled by 1e18)\n@param _assetContractAdd is the contract address of the asset whos MoneyMarketInstance is being set up\n@dev this function can only be called after an asset has been whitelisted as it needs an existing MoneyMarketInstance contract\n**/\n  function setUpAHR(\n    uint _baseRatePerYear,\n    uint _multiplierPerYear,\n    uint _jumpMultiplierPerYear,\n    uint _optimal,\n    uint _fee,\n    uint _initialExchangeRate,\n    address _assetContractAdd\n  )\n  public\n  {\n    MoneyMarketInstanceI _MMI = MoneyMarketInstanceI(instanceTracker[_assetContractAdd]);\n\n    address interestRateModel = address( new JumpRateModelV2(\n      _baseRatePerYear,\n      _multiplierPerYear,\n      _jumpMultiplierPerYear,\n      _optimal,\n      address(_MMI)\n    ));\n\n_MMI._setUpAHR(\n  interestRateModel,\n  _fee,\n  _initialExchangeRate\n);\n  }\n\n/**\n@notice setUpAHR is used to set up a MoneyMarketInstances Asko High Risk Token as well as its InterestRateModel\n@param _baseRatePerYear The approximate target base APR, as a mantissa (scaled by 1e18)\n@param _multiplierPerYear  The rate of increase in interest rate wrt utilization (scaled by 1e18)\n@param _jumpMultiplierPerYear The multiplierPerBlock after hitting a specified utilization point\n@param _optimal The utilization point at which the jump multiplier is applied(Refered to as the Kink in the InterestRateModel)\n@param _fee is a number representing the fee for exchanging an ALR token, as a mantissa (scaled by 1e18)\n@param _assetContractAdd is the contract address of the asset whos MoneyMarketInstance is being set up\n@dev this function can only be called after an asset has been whitelisted as it needs an existing MoneyMarketInstance contract\n**/\n  function setUpALR(\n    uint _baseRatePerYear,\n    uint _multiplierPerYear,\n    uint _jumpMultiplierPerYear,\n    uint _optimal,\n    uint _fee,\n    uint _initialExchangeRate,\n    address _assetContractAdd\n  )\n  public\n  {\n    MoneyMarketInstanceI _MMI = MoneyMarketInstanceI(instanceTracker[_assetContractAdd]);\n\n    address interestRateModel = address( new JumpRateModelV2(\n      _baseRatePerYear,\n      _multiplierPerYear,\n      _jumpMultiplierPerYear,\n      _optimal,\n      address(_MMI)\n    ));\n\n    _MMI._setUpALR(\n      interestRateModel,\n      _fee,\n      _initialExchangeRate\n    );\n  }\n\n\n  function getAssets() public view returns(address[] memory) {\n    return assets;\n  }\n\n/**\n@notice trackCollateral is an external function used bya MMI to track collateral amounts globally\n@param _borrower is the address of the corrower\n@param _ALR is the address of the seller\n@param _amount is the amount of ALR being collateralized\n@dev this function can only be called by a MoneyMarketInstance.\n**/\n function trackCollateral(address _borrower, address _ALR, uint _amount) external onlyMMI {\n   collateralTracker[_borrower][_ALR] = _amount;\n }\n\n /**\n@notice checkCollateralValue is a view function that accepts an account address and an ALR contract\n        address and returns the USD value of the collateral they have locked.\n@param _borrower is the address whos collateral value we are looking up\n@param _ALR is the address of the ALR token where collateral value is being looked up\n@dev this function can only be called by a MoneyMarketInstance.\n **/\n function checkCollateralValue(address _borrower, address _ALR) external view onlyMMI returns(uint) {\n//instantiate the MoneyMakerInstance calling this function\n   MoneyMarketInstanceI MMI = MoneyMarketInstanceI(msg.sender);\n//retreive the address of its asset\n   address asset = MMI.getAssetAdd();\n//retrieve USD price of this asset\n   uint priceOfAsset = Oracle.getUnderlyingPrice(asset);\n//retrieve the amount of the asset locked as collateral\n   uint amountOfAssetCollat = collateralTracker[_borrower][_ALR];\n//multiply the amount of collateral by the asset price and return it\n   return amountOfAssetCollat.mul(priceOfAsset);\n }\n\n/**\n@notice markAccountNonCompliant is used by a potential liquidator to mark an account as non compliant which starts its 30 minute timer\n@param _borrower is the address of the non compliant borrower\n@param _ART is the address of the money market instances ALR token the user is non-compliant in\n**/\n  function markAccountNonCompliant(address _borrower, address _ART) public {\n    //needs to check for account compliance\n    require(nonCompliant[_borrower][_ART] == 0);\n    nonCompliant[_borrower][_ART] = now;\n  }\n//struct used to avoid stack too deep errors\n  struct liquidateLocalVar {\n      address assetOwed;\n      address assetColat;\n      uint borrowedAmount;\n      uint collatAmount;\n      uint borrowedValue;\n      uint collatValue;\n      uint halfVal;\n      uint exchangeRateMantissa; // Note: reverts on error\n      uint seizeTokens;\n  }\n\n/**\n@notice The sender liquidates the borrowers collateral. This function is called on the MoneyMarket the borrower owes to.\n@param borrower The borrower of this cToken to be liquidated\n@param repayAmount The amount of the underlying borrowed asset to repay\n@param _ARTowed is the address of the AskoRiskToken where the borrower owes asset\n@param _ARTcollateralized is the address of the AskoRiskToken where the borrower has collateral\n\n*/\n  function liquidateAccount(address borrower, uint repayAmount, AskoRiskTokenI _ARTowed, AskoRiskTokenI _ARTcollateralized) public {\n//checks if its been nonCompliant for more than a half hour\n    require(now >= nonCompliant[borrower][address(_ARTowed)].add(1800));\n    //create local vars storage\n        liquidateLocalVar memory vars;\n//get asset addresses of both ARTs\n     vars.assetOwed = _ARTowed.getAssetAdd();\n     vars.assetColat = _ARTcollateralized.getAssetAdd();\n//Read oracle prices for borrowed and collateral markets\n    uint priceBorrowedMantissa = Oracle.getUnderlyingPrice(vars.assetOwed);\n    uint priceCollateralMantissa = Oracle.getUnderlyingPrice(vars.assetColat);\n    require(priceBorrowedMantissa != 0 && priceCollateralMantissa != 0);\n//retrieve asset amounts for each\n    vars.borrowedAmount = _ARTowed.borrowBalanceCurrent(borrower);\n    vars.collatAmount = collateralTracker[borrower][address(_ARTcollateralized)];\n//calculate USDC value amounts of each\n    vars.borrowedValue = vars.borrowedAmount.mul(priceBorrowedMantissa);\n    vars.collatValue = vars.collatAmount.mul(priceCollateralMantissa);\n//divide collateral value in half\n    vars.halfVal = vars.collatValue.div(2);\n//add 1/2 the collateral value to the total collateral value for 150% colleral value\n    vars.collatValue = vars.collatValue.add(vars.halfVal);\n//require the value of whats been borrowed to be lower than 150% of the collaterals value\n    if (vars.collatValue >= vars.borrowedValue){\n//Get the exchange rate and calculate the number of collateral tokens to seize:\n     vars.exchangeRateMantissa = _ARTowed.exchangeRateCurrent(); // Note: reverts on error\n    Exp memory numerator;\n    Exp memory denominator;\n    Exp memory ratio;\n    MathError mathErr;\n//numerator = liquidationIncentive * priceBorrowed\n    (mathErr, numerator) = mulExp(liquidationIncentiveMantissa, priceBorrowedMantissa);\n    require(mathErr == MathError.NO_ERROR);\n//denominator = priceCollateral * exchangeRate\n    (mathErr, denominator) = mulExp(priceCollateralMantissa, vars.exchangeRateMantissa);\n    require(mathErr == MathError.NO_ERROR);\n//ratio = (liquidationIncentive * priceBorrowed) / (priceCollateral * exchangeRate)\n    (mathErr, ratio) = divExp(numerator, denominator);\n    require(mathErr == MathError.NO_ERROR);\n//seizeTokens = actualRepayAmount * (liquidationIncentive * priceBorrowed) / (priceCollateral * exchangeRate)\n    (mathErr, vars.seizeTokens) = mulScalarTruncate(ratio, repayAmount);\n    require(mathErr == MathError.NO_ERROR);\n/**\nthis function calls the MoneyMarketInstance where the borrower has collateral staked and has it swap\nits underlying asset on uniswap for the underlying asset borrowed\n**/\n    _ARTcollateralized._liquidateFor(vars.assetOwed, address(_ARTowed), vars.seizeTokens, repayAmount);\n    }\n  //reset accounts compliant timer\n  nonCompliant[borrower][address(_ARTowed)] = 0;//resets borrowers compliance timer\n  }\n\n\n\n}\n",
  "sourcePath": "/home/stan36/repos/Askolend/AskoLend-contracts/contracts/MoneyMarketControl.sol",
  "compiler": {
    "name": "solc",
    "version": "0.6.6+commit.6c089d02.Emscripten.clang"
  },
  "schemaVersion": "3.2.5",
  "updatedAt": "2020-10-19T17:13:25.778Z",
  "networkType": "ethereum",
  "devdoc": {
    "methods": {
      "checkCollateralValue(address,address)": {
        "details": "this function can only be called by a MoneyMarketInstance.*",
        "params": {
          "_ALR": "is the address of the ALR token where collateral value is being looked up",
          "_borrower": "is the address whos collateral value we are looking up"
        }
      },
      "constructor": {
        "params": {
          "_oracle": "is the address for the UniswapOracleFactorycontract*"
        }
      },
      "liquidateAccount(address,uint256,address,address)": {
        "params": {
          "_ARTcollateralized": "is the address of the AskoRiskToken where the borrower has collateral",
          "_ARTowed": "is the address of the AskoRiskToken where the borrower owes asset",
          "borrower": "The borrower of this cToken to be liquidated",
          "repayAmount": "The amount of the underlying borrowed asset to repay"
        }
      },
      "markAccountNonCompliant(address,address)": {
        "params": {
          "_ART": "is the address of the money market instances ALR token the user is non-compliant in*",
          "_borrower": "is the address of the non compliant borrower"
        }
      },
      "owner()": {
        "details": "Returns the address of the current owner."
      },
      "renounceOwnership()": {
        "details": "Leaves the contract without owner. It will not be possible to call `onlyOwner` functions anymore. Can only be called by the current owner.     * NOTE: Renouncing ownership will leave the contract without an owner, thereby removing any functionality that is only available to the owner."
      },
      "setUpAHR(uint256,uint256,uint256,uint256,uint256,uint256,address)": {
        "details": "this function can only be called after an asset has been whitelisted as it needs an existing MoneyMarketInstance contract*",
        "params": {
          "_assetContractAdd": "is the contract address of the asset whos MoneyMarketInstance is being set up",
          "_baseRatePerYear": "The approximate target base APR, as a mantissa (scaled by 1e18)",
          "_fee": "is a number representing the fee for exchanging an AHR token, as a mantissa (scaled by 1e18)",
          "_jumpMultiplierPerYear": "The multiplierPerBlock after hitting a specified utilization point",
          "_multiplierPerYear": "The rate of increase in interest rate wrt utilization (scaled by 1e18)",
          "_optimal": "The utilization point at which the jump multiplier is applied(Refered to as the Kink in the InterestRateModel)"
        }
      },
      "setUpALR(uint256,uint256,uint256,uint256,uint256,uint256,address)": {
        "details": "this function can only be called after an asset has been whitelisted as it needs an existing MoneyMarketInstance contract*",
        "params": {
          "_assetContractAdd": "is the contract address of the asset whos MoneyMarketInstance is being set up",
          "_baseRatePerYear": "The approximate target base APR, as a mantissa (scaled by 1e18)",
          "_fee": "is a number representing the fee for exchanging an ALR token, as a mantissa (scaled by 1e18)",
          "_jumpMultiplierPerYear": "The multiplierPerBlock after hitting a specified utilization point",
          "_multiplierPerYear": "The rate of increase in interest rate wrt utilization (scaled by 1e18)",
          "_optimal": "The utilization point at which the jump multiplier is applied(Refered to as the Kink in the InterestRateModel)"
        }
      },
      "trackCollateral(address,address,uint256)": {
        "details": "this function can only be called by a MoneyMarketInstance.*",
        "params": {
          "_ALR": "is the address of the seller",
          "_amount": "is the amount of ALR being collateralized",
          "_borrower": "is the address of the corrower"
        }
      },
      "transferOwnership(address)": {
        "details": "Transfers ownership of the contract to a new account (`newOwner`). Can only be called by the current owner."
      },
      "whitelistAsset(address,string,string)": {
        "params": {
          "_assetContractAdd": "is the address of the ERC20 asset being whitelisted",
          "_assetName": "is the name of the asset(e.x: ChainLink)",
          "_assetSymbol": "is the symbol of the asset(e.x: LINK)*"
        }
      }
    }
  },
  "userdoc": {
    "methods": {
      "checkCollateralValue(address,address)": {
        "notice": "checkCollateralValue is a view function that accepts an account address and an ALR contract address and returns the USD value of the collateral they have locked."
      },
      "constructor": "the constructor function is fired during the contract deployment process. The constructor can only be fired once and is used to set up Oracle variables for the MoneyMarketFactory contract.",
      "liquidateAccount(address,uint256,address,address)": {
        "notice": "The sender liquidates the borrowers collateral. This function is called on the MoneyMarket the borrower owes to."
      },
      "markAccountNonCompliant(address,address)": {
        "notice": "markAccountNonCompliant is used by a potential liquidator to mark an account as non compliant which starts its 30 minute timer"
      },
      "setUpAHR(uint256,uint256,uint256,uint256,uint256,uint256,address)": {
        "notice": "setUpAHR is used to set up a MoneyMarketInstances Asko High Risk Token as well as its InterestRateModel"
      },
      "setUpALR(uint256,uint256,uint256,uint256,uint256,uint256,address)": {
        "notice": "setUpAHR is used to set up a MoneyMarketInstances Asko High Risk Token as well as its InterestRateModel"
      },
      "trackCollateral(address,address,uint256)": {
        "notice": "trackCollateral is an external function used bya MMI to track collateral amounts globally"
      },
      "whitelistAsset(address,string,string)": {
        "notice": "whitelistAsset is an onlyOwner function designed to be called by the AskoDAO. This function creates a new MoneyMarketInstancecontract for an input asset as well as a UniswapOracleInstance for the asset."
      }
    },
    "notice": "MoneyMarketControl is designed to coordinate Money Markets This contract uses the OpenZeppelin contract Library to inherit functions from Ownable.sol*"
  }
}