{
  "contractName": "MoneyMarketControl",
  "abi": [
    {
      "inputs": [
        {
          "internalType": "address",
          "name": "_oracle",
          "type": "address"
        },
        {
          "internalType": "address",
          "name": "_MMF",
          "type": "address"
        }
      ],
      "stateMutability": "nonpayable",
      "type": "constructor"
    },
    {
      "anonymous": false,
      "inputs": [
        {
          "indexed": true,
          "internalType": "address",
          "name": "previousOwner",
          "type": "address"
        },
        {
          "indexed": true,
          "internalType": "address",
          "name": "newOwner",
          "type": "address"
        }
      ],
      "name": "OwnershipTransferred",
      "type": "event"
    },
    {
      "inputs": [],
      "name": "MMF",
      "outputs": [
        {
          "internalType": "contract MoneyMarketFactoryI",
          "name": "",
          "type": "address"
        }
      ],
      "stateMutability": "view",
      "type": "function",
      "constant": true
    },
    {
      "inputs": [],
      "name": "Oracle",
      "outputs": [
        {
          "internalType": "contract UniswapOracleFactoryI",
          "name": "",
          "type": "address"
        }
      ],
      "stateMutability": "view",
      "type": "function",
      "constant": true
    },
    {
      "inputs": [
        {
          "internalType": "address",
          "name": "",
          "type": "address"
        }
      ],
      "name": "_ALRtracker",
      "outputs": [
        {
          "internalType": "address",
          "name": "",
          "type": "address"
        }
      ],
      "stateMutability": "view",
      "type": "function",
      "constant": true
    },
    {
      "inputs": [],
      "name": "instanceCount",
      "outputs": [
        {
          "internalType": "uint256",
          "name": "",
          "type": "uint256"
        }
      ],
      "stateMutability": "view",
      "type": "function",
      "constant": true
    },
    {
      "inputs": [
        {
          "internalType": "address",
          "name": "",
          "type": "address"
        }
      ],
      "name": "instanceTracker",
      "outputs": [
        {
          "internalType": "address",
          "name": "",
          "type": "address"
        }
      ],
      "stateMutability": "view",
      "type": "function",
      "constant": true
    },
    {
      "inputs": [],
      "name": "liquidationIncentiveMantissa",
      "outputs": [
        {
          "internalType": "uint256",
          "name": "",
          "type": "uint256"
        }
      ],
      "stateMutability": "view",
      "type": "function",
      "constant": true
    },
    {
      "inputs": [
        {
          "internalType": "address",
          "name": "",
          "type": "address"
        }
      ],
      "name": "oracleTracker",
      "outputs": [
        {
          "internalType": "address",
          "name": "",
          "type": "address"
        }
      ],
      "stateMutability": "view",
      "type": "function",
      "constant": true
    },
    {
      "inputs": [],
      "name": "owner",
      "outputs": [
        {
          "internalType": "address",
          "name": "",
          "type": "address"
        }
      ],
      "stateMutability": "view",
      "type": "function",
      "constant": true
    },
    {
      "inputs": [],
      "name": "renounceOwnership",
      "outputs": [],
      "stateMutability": "nonpayable",
      "type": "function"
    },
    {
      "inputs": [
        {
          "internalType": "address",
          "name": "newOwner",
          "type": "address"
        }
      ],
      "name": "transferOwnership",
      "outputs": [],
      "stateMutability": "nonpayable",
      "type": "function"
    },
    {
      "inputs": [
        {
          "internalType": "address",
          "name": "_assetContractAdd",
          "type": "address"
        },
        {
          "internalType": "string",
          "name": "_assetName",
          "type": "string"
        },
        {
          "internalType": "string",
          "name": "_assetSymbol",
          "type": "string"
        }
      ],
      "name": "whitelistAsset",
      "outputs": [],
      "stateMutability": "nonpayable",
      "type": "function"
    },
    {
      "inputs": [
        {
          "internalType": "uint256",
          "name": "_baseRatePerYear",
          "type": "uint256"
        },
        {
          "internalType": "uint256",
          "name": "_multiplierPerYear",
          "type": "uint256"
        },
        {
          "internalType": "uint256",
          "name": "_jumpMultiplierPerYear",
          "type": "uint256"
        },
        {
          "internalType": "uint256",
          "name": "_optimal",
          "type": "uint256"
        },
        {
          "internalType": "uint256",
          "name": "_fee",
          "type": "uint256"
        },
        {
          "internalType": "uint256",
          "name": "_initialExchangeRate",
          "type": "uint256"
        },
        {
          "internalType": "address",
          "name": "_assetContractAdd",
          "type": "address"
        }
      ],
      "name": "setUpAHR",
      "outputs": [],
      "stateMutability": "nonpayable",
      "type": "function"
    },
    {
      "inputs": [
        {
          "internalType": "uint256",
          "name": "_baseRatePerYear",
          "type": "uint256"
        },
        {
          "internalType": "uint256",
          "name": "_multiplierPerYear",
          "type": "uint256"
        },
        {
          "internalType": "uint256",
          "name": "_jumpMultiplierPerYear",
          "type": "uint256"
        },
        {
          "internalType": "uint256",
          "name": "_optimal",
          "type": "uint256"
        },
        {
          "internalType": "uint256",
          "name": "_fee",
          "type": "uint256"
        },
        {
          "internalType": "uint256",
          "name": "_initialExchangeRate",
          "type": "uint256"
        },
        {
          "internalType": "address",
          "name": "_assetContractAdd",
          "type": "address"
        }
      ],
      "name": "setUpALR",
      "outputs": [],
      "stateMutability": "nonpayable",
      "type": "function"
    },
    {
      "inputs": [
        {
          "internalType": "address",
          "name": "_borrower",
          "type": "address"
        },
        {
          "internalType": "address",
          "name": "_ALR",
          "type": "address"
        },
        {
          "internalType": "uint256",
          "name": "_amount",
          "type": "uint256"
        }
      ],
      "name": "trackCollateral",
      "outputs": [],
      "stateMutability": "nonpayable",
      "type": "function"
    },
    {
      "inputs": [
        {
          "internalType": "address",
          "name": "_borrower",
          "type": "address"
        },
        {
          "internalType": "address",
          "name": "_ALR",
          "type": "address"
        }
      ],
      "name": "checkCollateralValue",
      "outputs": [
        {
          "internalType": "uint256",
          "name": "",
          "type": "uint256"
        }
      ],
      "stateMutability": "view",
      "type": "function",
      "constant": true
    },
    {
      "inputs": [
        {
          "internalType": "address",
          "name": "_borrower",
          "type": "address"
        },
        {
          "internalType": "address",
          "name": "_ART",
          "type": "address"
        }
      ],
      "name": "markAccountNonCompliant",
      "outputs": [],
      "stateMutability": "nonpayable",
      "type": "function"
    },
    {
      "inputs": [
        {
          "internalType": "address",
          "name": "borrower",
          "type": "address"
        },
        {
          "internalType": "uint256",
          "name": "repayAmount",
          "type": "uint256"
        },
        {
          "internalType": "contract AskoRiskToken",
          "name": "_ART",
          "type": "address"
        }
      ],
      "name": "liquidateAccount",
      "outputs": [],
      "stateMutability": "nonpayable",
      "type": "function"
    }
  ],
  "bytecode": "0x60806040526714d1120d7b16000060025534801561001c57600080fd5b5060405161224d38038061224d8339818101604052604081101561003f57600080fd5b508051602090910151600061005b6001600160e01b036100d616565b600080546001600160a01b0319166001600160a01b0383169081178255604051929350917f8be0079c531659141344cd1fd0a4f28419497f9722a3daafe3b4186f6b6457e0908290a350600380546001600160a01b039384166001600160a01b031991821617909155600480549290931691161790556100da565b3390565b612164806100e96000396000f3fe60806040523480156200001157600080fd5b5060043610620000ee5760003560e01c80630ba7345d14620000f3578063152eadbb14620002375780633373a44714620002705780633ca0037b14620002b55780634750e71914620002de5780634ada90af146200032157806351e03bf9146200032b578063715018a614620003645780637ab2d447146200036e5780638da5cb5b14620003bb5780639020084914620003c5578063bbae21e91462000412578063d162054a1462000443578063eb8341b3146200044d578063ec56c7161462000476578063f24a534e1462000480578063f2fde38b146200048a575b600080fd5b62000235600480360360608110156200010b57600080fd5b6001600160a01b038235169190810190604081016020820135600160201b8111156200013657600080fd5b8201836020820111156200014957600080fd5b803590602001918460018302840111600160201b831117156200016b57600080fd5b91908080601f0160208091040260200160405190810160405280939291908181526020018383808284376000920191909152509295949360208101935035915050600160201b811115620001be57600080fd5b820183602082011115620001d157600080fd5b803590602001918460018302840111600160201b83111715620001f357600080fd5b91908080601f016020809104026020016040519081016040528093929190818152602001838380828437600092019190915250929550620004b3945050505050565b005b62000235600480360360608110156200024f57600080fd5b506001600160a01b0381358116916020810135909116906040013562000857565b62000299600480360360208110156200028857600080fd5b50356001600160a01b0316620008a5565b604080516001600160a01b039092168252519081900360200190f35b6200029960048036036020811015620002cd57600080fd5b50356001600160a01b0316620008c0565b6200030f60048036036040811015620002f657600080fd5b506001600160a01b0381358116916020013516620008db565b60408051918252519081900360200190f35b6200030f62000a36565b62000235600480360360608110156200034357600080fd5b506001600160a01b0381358116916020810135916040909101351662000a3c565b6200023562000df8565b62000235600480360360e08110156200038657600080fd5b5080359060208101359060408101359060608101359060808101359060a08101359060c001356001600160a01b031662000e8d565b6200029962000f9a565b62000235600480360360e0811015620003dd57600080fd5b5080359060208101359060408101359060608101359060808101359060a08101359060c001356001600160a01b031662000fa9565b62000235600480360360408110156200042a57600080fd5b506001600160a01b038135811691602001351662001092565b62000299620010ef565b62000299600480360360208110156200046557600080fd5b50356001600160a01b0316620010fe565b6200030f62001119565b620002996200111f565b6200023560048036036020811015620004a257600080fd5b50356001600160a01b03166200112e565b620004bd6200121b565b6000546001600160a01b039081169116146200050f576040805162461bcd60e51b81526020600482018190526024820152600080516020620020ef833981519152604482015290519081900360640190fd5b600180548101905560035460408051632fb2da6160e01b81526001600160a01b03868116600483015291516000939290921691632fb2da619160248082019260209290919082900301818787803b1580156200056a57600080fd5b505af11580156200057f573d6000803e3d6000fd5b505050506040513d60208110156200059657600080fd5b810190808051906020019092919050505090506000600460009054906101000a90046001600160a01b03166001600160a01b031663cc83954d863385600360009054906101000a90046001600160a01b031689896040518763ffffffff1660e01b815260040180876001600160a01b03166001600160a01b03168152602001866001600160a01b03166001600160a01b03168152602001856001600160a01b03166001600160a01b03168152602001846001600160a01b03166001600160a01b031681526020018060200180602001838103835285818151815260200191508051906020019080838360005b838110156200069c57818101518382015260200162000682565b50505050905090810190601f168015620006ca5780820380516001836020036101000a031916815260200191505b50838103825284518152845160209182019186019080838360005b83811015620006ff578181015183820152602001620006e5565b50505050905090810190601f1680156200072d5780820380516001836020036101000a031916815260200191505b5098505050505050505050602060405180830381600087803b1580156200075357600080fd5b505af115801562000768573d6000803e3d6000fd5b505050506040513d60208110156200077f57600080fd5b50516001600160a01b038082166000818152600a6020526040808220805460ff191660011790556003548151631be1d0b960e01b815260048101949094528a85166024850152905194955090921692631be1d0b99260448084019391929182900301818387803b158015620007f357600080fd5b505af115801562000808573d6000803e3d6000fd5b505050506001600160a01b03948516600090815260056020908152604080832080549489166001600160a01b031995861681179091558352600790915290208054929095169116179092555050565b336000908152600a602052604090205460ff1615156001146200087957600080fd5b6001600160a01b0392831660009081526009602090815260408083209490951682529290925291902055565b6005602052600090815260409020546001600160a01b031681565b6006602052600090815260409020546001600160a01b031681565b336000908152600a602052604081205460ff161515600114620008fd57600080fd5b60003390506000816001600160a01b0316634c20ac746040518163ffffffff1660e01b815260040160206040518083038186803b1580156200093e57600080fd5b505afa15801562000953573d6000803e3d6000fd5b505050506040513d60208110156200096a57600080fd5b50516003546040805163fc57d4df60e01b81526001600160a01b0380851660048301529151939450600093919092169163fc57d4df916024808301926020929190829003018186803b158015620009c057600080fd5b505afa158015620009d5573d6000803e3d6000fd5b505050506040513d6020811015620009ec57600080fd5b50516001600160a01b038088166000908152600960209081526040808320938a168352929052205490915062000a29818363ffffffff6200121f16565b9450505050505b92915050565b60025481565b6001600160a01b0380841660009081526008602090815260408083209385168352929052205462000a769061070863ffffffff6200128416565b42101562000a8357600080fd5b6000816001600160a01b0316634c20ac746040518163ffffffff1660e01b815260040160206040518083038186803b15801562000abf57600080fd5b505afa15801562000ad4573d6000803e3d6000fd5b505050506040513d602081101562000aeb57600080fd5b50516003546040805163fc57d4df60e01b81526001600160a01b0380851660048301529151939450600093919092169163fc57d4df916024808301926020929190829003018186803b15801562000b4157600080fd5b505afa15801562000b56573d6000803e3d6000fd5b505050506040513d602081101562000b6d57600080fd5b50516003546040805163fc57d4df60e01b81526001600160a01b0387811660048301529151939450600093919092169163fc57d4df916024808301926020929190829003018186803b15801562000bc357600080fd5b505afa15801562000bd8573d6000803e3d6000fd5b505050506040513d602081101562000bef57600080fd5b50519050811580159062000c0257508015155b62000c0c57600080fd5b6000846001600160a01b031663bd6d894d6040518163ffffffff1660e01b8152600401602060405180830381600087803b15801562000c4a57600080fd5b505af115801562000c5f573d6000803e3d6000fd5b505050506040513d602081101562000c7657600080fd5b50519050600062000c8662001664565b62000c9062001664565b62000c9a62001664565b600062000caa60025489620012dd565b94509050600081600381111562000cbd57fe5b1462000cc857600080fd5b62000cd48787620012dd565b93509050600081600381111562000ce757fe5b1462000cf257600080fd5b62000cfe84846200131d565b92509050600081600381111562000d1157fe5b1462000d1c57600080fd5b62000d28828c62001339565b95509050600081600381111562000d3b57fe5b1462000d4657600080fd5b60408051638157230b60e01b81526001600160a01b038b8116600483015230602483015260448201889052606482018e90529151918c1691638157230b9160848082019260009290919082900301818387803b15801562000da657600080fd5b505af115801562000dbb573d6000803e3d6000fd5b5050506001600160a01b039c8d1660009081526008602090815260408083209d909f1682529b909b52505050988720969096555050505050505050565b62000e026200121b565b6000546001600160a01b0390811691161462000e54576040805162461bcd60e51b81526020600482018190526024820152600080516020620020ef833981519152604482015290519081900360640190fd5b600080546040516001600160a01b03909116906000805160206200210f833981519152908390a3600080546001600160a01b0319169055565b6001600160a01b038082166000908152600560205260408082205490519216918990899089908990869062000ec29062001677565b948552602085019390935260408085019290925260608401526001600160a01b039091166080830152519081900360a001906000f08015801562000f0a573d6000803e3d6000fd5b509050816001600160a01b031663dcc716bd8287876040518463ffffffff1660e01b815260040180846001600160a01b03166001600160a01b031681526020018381526020018281526020019350505050600060405180830381600087803b15801562000f7657600080fd5b505af115801562000f8b573d6000803e3d6000fd5b50505050505050505050505050565b6000546001600160a01b031690565b6001600160a01b038082166000908152600560205260408082205490519216918990899089908990869062000fde9062001677565b948552602085019390935260408085019290925260608401526001600160a01b039091166080830152519081900360a001906000f08015801562001026573d6000803e3d6000fd5b509050816001600160a01b0316631f432cf58287876040518463ffffffff1660e01b815260040180846001600160a01b03166001600160a01b031681526020018381526020018281526020019350505050600060405180830381600087803b15801562000f7657600080fd5b6001600160a01b0380831660009081526008602090815260408083209385168352929052205415620010c357600080fd5b6001600160a01b0391821660009081526008602090815260408083209390941682529190915220429055565b6004546001600160a01b031681565b6007602052600090815260409020546001600160a01b031681565b60015481565b6003546001600160a01b031681565b620011386200121b565b6000546001600160a01b039081169116146200118a576040805162461bcd60e51b81526020600482018190526024820152600080516020620020ef833981519152604482015290519081900360640190fd5b6001600160a01b038116620011d15760405162461bcd60e51b8152600401808060200182810382526026815260200180620020a86026913960400191505060405180910390fd5b600080546040516001600160a01b03808516939216916000805160206200210f83398151915291a3600080546001600160a01b0319166001600160a01b0392909216919091179055565b3390565b600082620012305750600062000a30565b828202828482816200123e57fe5b04146200127d5760405162461bcd60e51b8152600401808060200182810382526021815260200180620020ce6021913960400191505060405180910390fd5b9392505050565b6000828201838110156200127d576040805162461bcd60e51b815260206004820152601b60248201527a536166654d6174683a206164646974696f6e206f766572666c6f7760281b604482015290519081900360640190fd5b6000620012e962001664565b6200131160405180602001604052808681525060405180602001604052808681525062001395565b915091505b9250929050565b60006200132962001664565b835183516200131191906200148e565b60008060006200134862001664565b6200135486866200154a565b909250905060008260038111156200136857fe5b146200137b575091506000905062001316565b60006200138882620015b9565b9350935050509250929050565b6000620013a162001664565b600080620013b886600001518660000151620015c8565b90925090506000826003811115620013cc57fe5b14620013ed5750604080516020810190915260008152909250905062001316565b600080620014046706f05b59d3b20000846200160d565b909250905060008260038111156200141857fe5b146200143c5750604080516020810190915260008152909450925062001316915050565b6000806200145383670de0b6b3a764000062001636565b909250905060008260038111156200146757fe5b146200146f57fe5b604080516020810190915290815260009a909950975050505050505050565b60006200149a62001664565b600080620014b186670de0b6b3a7640000620015c8565b90925090506000826003811115620014c557fe5b14620014e65750604080516020810190915260008152909250905062001316565b600080620014f5838862001636565b909250905060008260038111156200150957fe5b146200152d5750604080516020810190915260008152909450925062001316915050565b604080516020810190915290815260009890975095505050505050565b60006200155662001664565b60008062001569866000015186620015c8565b909250905060008260038111156200157d57fe5b146200159e5750604080516020810190915260008152909250905062001316565b60408051602081019091529081526000969095509350505050565b51670de0b6b3a7640000900490565b60008083620015dd5750600090508062001316565b83830283858281620015eb57fe5b0414620016015750600291506000905062001316565b60009250905062001316565b600080838301848110620016275760009250905062001316565b50600291506000905062001316565b600080826200164c575060019050600062001316565b60008385816200165857fe5b04915091509250929050565b6040518060200160405280600081525090565b610a2280620016868339019056fe608060405234801561001057600080fd5b50604051610a22380380610a22833981810160405260a081101561003357600080fd5b508051602082015160408301516060840151608090940151600080546001600160a01b0319166001600160a01b03831617905592939192909190848484848461007e8585858561008d565b505050505050505050506102bc565b6100a7622014808561017060201b61057e1790919060201c565b6002556100f66100c562201480836101c1602090811b61052517901c565b6100e4670de0b6b3a7640000866101c160201b6105251790919060201c565b61017060201b61057e1790919060201c565b6001556101118262201480610170602090811b61057e17901c565b60038190556004829055600254600154604080519283526020830191909152818101929092526060810183905290517f6960ab234c7ef4b0c9197100f5393cfcde7c453ac910a27bd2000aa1dd4c068d9181900360800190a150505050565b60006101b883836040518060400160405280601a81526020017f536166654d6174683a206469766973696f6e206279207a65726f00000000000081525061021a60201b60201c565b90505b92915050565b6000826101d0575060006101bb565b828202828482816101dd57fe5b04146101b85760405162461bcd60e51b8152600401808060200182810382526021815260200180610a016021913960400191505060405180910390fd5b600081836102a65760405162461bcd60e51b81526004018080602001828103825283818151815260200191508051906020019080838360005b8381101561026b578181015183820152602001610253565b50505050905090810190601f1680156102985780820380516001836020036101000a031916815260200191505b509250505060405180910390fd5b5060008385816102b257fe5b0495945050505050565b610736806102cb6000396000f3fe608060405234801561001057600080fd5b506004361061008e5760003560e01c806315f24053146100935780632037f3e7146100ce5780636e71e2d8146100ff5780638726bb89146101285780638da5cb5b14610130578063a385fb9614610154578063b81688161461015c578063b9f9850a1461018b578063f14039de14610193578063fd2da3391461019b575b600080fd5b6100bc600480360360608110156100a957600080fd5b50803590602081013590604001356101a3565b60408051918252519081900360200190f35b6100fd600480360360808110156100e457600080fd5b50803590602081013590604081013590606001356101ba565b005b6100bc6004803603606081101561011557600080fd5b5080359060208101359060400135610215565b6100bc61026b565b610138610271565b604080516001600160a01b039092168252519081900360200190f35b6100bc610280565b6100bc6004803603608081101561017257600080fd5b5080359060208101359060408101359060600135610287565b6100bc610306565b6100bc61030c565b6100bc610312565b60006101b0848484610318565b90505b9392505050565b6000546001600160a01b031633146102035760405162461bcd60e51b81526004018080602001828103825260268152602001806106db6026913960400191505060405180910390fd5b61020f848484846103e1565b50505050565b600082610224575060006101b3565b6101b06102478361023b878763ffffffff61048216565b9063ffffffff6104e316565b61025f85670de0b6b3a764000063ffffffff61052516565b9063ffffffff61057e16565b60015481565b6000546001600160a01b031681565b6220148081565b6000806102a2670de0b6b3a76400008463ffffffff6104e316565b905060006102b1878787610318565b905060006102d1670de0b6b3a764000061025f848663ffffffff61052516565b90506102fa670de0b6b3a764000061025f836102ee8c8c8c610215565b9063ffffffff61052516565b98975050505050505050565b60035481565b60025481565b60045481565b600080610326858585610215565b9050600454811161036c57610364600254610358670de0b6b3a764000061025f6001548661052590919063ffffffff16565b9063ffffffff61048216565b9150506101b3565b6000610397600254610358670de0b6b3a764000061025f60015460045461052590919063ffffffff16565b905060006103b0600454846104e390919063ffffffff16565b90506103d782610358670de0b6b3a764000061025f6003548661052590919063ffffffff16565b93505050506101b3565b6103f4846220148063ffffffff61057e16565b60025561040d610247622014808363ffffffff61052516565b600155610423826220148063ffffffff61057e16565b60038190556004829055600254600154604080519283526020830191909152818101929092526060810183905290517f6960ab234c7ef4b0c9197100f5393cfcde7c453ac910a27bd2000aa1dd4c068d9181900360800190a150505050565b6000828201838110156104da576040805162461bcd60e51b815260206004820152601b60248201527a536166654d6174683a206164646974696f6e206f766572666c6f7760281b604482015290519081900360640190fd5b90505b92915050565b60006104da83836040518060400160405280601e81526020017f536166654d6174683a207375627472616374696f6e206f766572666c6f7700008152506105bd565b600082610534575060006104dd565b8282028284828161054157fe5b04146104da5760405162461bcd60e51b81526004018080602001828103825260218152602001806106ba6021913960400191505060405180910390fd5b60006104da83836040518060400160405280601a815260200179536166654d6174683a206469766973696f6e206279207a65726f60301b815250610654565b6000818484111561064c5760405162461bcd60e51b81526004018080602001828103825283818151815260200191508051906020019080838360005b838110156106115781810151838201526020016105f9565b50505050905090810190601f16801561063e5780820380516001836020036101000a031916815260200191505b509250505060405180910390fd5b505050900390565b600081836106a35760405162461bcd60e51b81526020600482018181528351602484015283519092839260449091019190850190808383600083156106115781810151838201526020016105f9565b5060008385816106af57fe5b049594505050505056fe536166654d6174683a206d756c7469706c69636174696f6e206f766572666c6f776f6e6c7920746865206f776e6572206d61792063616c6c20746869732066756e6374696f6e2ea264697066735822122073d44998edbc1f1ce43254e6cc49d8f1a1ad8851f0a067fc6ba7ef802231ee5a64736f6c63430006020033536166654d6174683a206d756c7469706c69636174696f6e206f766572666c6f774f776e61626c653a206e6577206f776e657220697320746865207a65726f2061646472657373536166654d6174683a206d756c7469706c69636174696f6e206f766572666c6f774f776e61626c653a2063616c6c6572206973206e6f7420746865206f776e65728be0079c531659141344cd1fd0a4f28419497f9722a3daafe3b4186f6b6457e0a2646970667358221220d72d73696ca0d0f0ad9388fa545101af2adca6557abc754bc68f224d7fce507764736f6c63430006020033",
  "source": "pragma solidity ^0.6.0;\n\nimport \"@openzeppelin/contracts/access/Ownable.sol\";\nimport \"@openzeppelin/contracts/math/SafeMath.sol\";\nimport \"./MoneyMarketInstance.sol\";\nimport \"./interfaces/UniswapOracleFactoryI.sol\";\nimport \"./interfaces/MoneyMarketFactoryI.sol\";\nimport \"./compound/JumpRateModelV2.sol\";\nimport \"./compound/Exponential.sol\";\n////////////////////////////////////////////////////////////////////////////////////////////\n/// @title MoneyMarketFactory\n/// @author Christopher Dixon\n////////////////////////////////////////////////////////////////////////////////////////////\n/**\nThe MoneyMarketFactory contract is designed to produce individual MoneyMarketInstance contracts\nThis contract uses the OpenZeppelin contract Library to inherit functions from\n  Ownable.sol\n**/\n\ncontract MoneyMarketControl is Ownable, Exponential {\n\n  using SafeMath for uint;\n\n\n\n  uint public instanceCount;//tracks the number of instances\n  uint public liquidationIncentiveMantissa = 1.5e18; // 1.5\n\n  UniswapOracleFactoryI public Oracle;//oracle factory contract interface\n  MoneyMarketFactoryI public MMF;\n\n  mapping(address => address) public instanceTracker; //maps erc20 address to the assets MoneyMarketInstance\n  mapping(address => address) public _ALRtracker; // tracks a money markets address to its ALR token.\n  mapping(address => address) public oracleTracker; //maps a MM oracle to its Money market address\n  mapping(address =>mapping(address => uint)) nonCompliant;// tracks user to a market to a time\n  mapping(address =>mapping(address => uint)) collateralTracker; //tracks user to a market to an amount collaterlized in that market\n  mapping(address => bool) isMMI;\n\n  /**\n  @notice onlyMMFactory is a modifier used to make a function only callable by the Money Market Instance contract\n  **/\n    modifier onlyMMI()  {\n      require(isMMI[msg.sender] == true);\n      _;\n    }\n/**\n@notice the constructor function is fired during the contract deployment process. The constructor can only be fired once and\n        is used to set up Oracle variables for the MoneyMarketFactory contract.\n@param _oracle is the address for the UniswapOracleFactorycontract\n**/\nconstructor ( address _oracle, address _MMF) public {\n  Oracle = UniswapOracleFactoryI(_oracle);\n  MMF = MoneyMarketFactoryI(_MMF);\n}\n\n/**\n@notice whitelistAsset is an onlyOwner function designed to be called by the AskoDAO.\n        This function creates a new MoneyMarketInstancecontract for an input asset as well\n        as a UniswapOracleInstance for the asset.\n@param _assetContractAdd is the address of the ERC20 asset being whitelisted\n@param _assetName is the name of the asset(e.x: ChainLink)\n@param _assetSymbol is the symbol of the asset(e.x: LINK)\n**/\n  function whitelistAsset(\n    address _assetContractAdd,\n\t\tstring memory _assetName,\n\t\tstring memory _assetSymbol\n  )\n  public\n  onlyOwner\n  {\n    instanceCount++;\n\n  address oracle = address(Oracle.createNewOracle( _assetContractAdd));\n\n  address _MMinstance = MMF.createMMI(\n        _assetContractAdd,\n        msg.sender,\n        oracle,\n        address(Oracle),\n   \t\t _assetName,\n   \t\t _assetSymbol\n     );\n\n    isMMI[_MMinstance] = true;\n    Oracle.linkMMI(_MMinstance, _assetContractAdd);\n    instanceTracker[_assetContractAdd] = _MMinstance;\n    oracleTracker[_MMinstance] = oracle;\n  }\n\n/**\n@notice setUpAHR is used to set up a MoneyMarketInstances Asko High Risk Token as well as its InterestRateModel\n@param _baseRatePerYear The approximate target base APR, as a mantissa (scaled by 1e18)\n@param _multiplierPerYear  The rate of increase in interest rate wrt utilization (scaled by 1e18)\n@param _jumpMultiplierPerYear The multiplierPerBlock after hitting a specified utilization point\n@param _optimal The utilization point at which the jump multiplier is applied(Refered to as the Kink in the InterestRateModel)\n@param _fee is a number representing the fee for exchanging an ALR token, as a mantissa (scaled by 1e18)\n@param _assetContractAdd is the contract address of the asset whos MoneyMarketInstance is being set up\n@dev this function can only be called after an asset has been whitelisted as it needs an existing MoneyMarketInstance contract\n**/\n  function setUpAHR(\n    uint _baseRatePerYear,\n    uint _multiplierPerYear,\n    uint _jumpMultiplierPerYear,\n    uint _optimal,\n    uint _fee,\n    uint _initialExchangeRate,\n    address _assetContractAdd\n  )\n  public\n  {\n    MoneyMarketInstance _MMI = MoneyMarketInstance(instanceTracker[_assetContractAdd]);\n\n    address interestRateModel = address( new JumpRateModelV2(\n      _baseRatePerYear,\n      _multiplierPerYear,\n      _jumpMultiplierPerYear,\n      _optimal,\n      address(_MMI)\n    ));\n\n_MMI._setUpAHR(\n  interestRateModel,\n  _fee,\n  _initialExchangeRate\n);\n  }\n\n/**\n@notice setUpAHR is used to set up a MoneyMarketInstances Asko High Risk Token as well as its InterestRateModel\n@param _baseRatePerYear The approximate target base APR, as a mantissa (scaled by 1e18)\n@param _multiplierPerYear  The rate of increase in interest rate wrt utilization (scaled by 1e18)\n@param _jumpMultiplierPerYear The multiplierPerBlock after hitting a specified utilization point\n@param _optimal The utilization point at which the jump multiplier is applied(Refered to as the Kink in the InterestRateModel)\n@param _fee is a number representing the fee for exchanging an ALR token, as a mantissa (scaled by 1e18)\n@param _assetContractAdd is the contract address of the asset whos MoneyMarketInstance is being set up\n@dev this function can only be called after an asset has been whitelisted as it needs an existing MoneyMarketInstance contract\n**/\n  function setUpALR(\n    uint _baseRatePerYear,\n    uint _multiplierPerYear,\n    uint _jumpMultiplierPerYear,\n    uint _optimal,\n    uint _fee,\n    uint _initialExchangeRate,\n    address _assetContractAdd\n  )\n  public\n  {\n    MoneyMarketInstance _MMI = MoneyMarketInstance(instanceTracker[_assetContractAdd]);\n\n    address interestRateModel = address( new JumpRateModelV2(\n      _baseRatePerYear,\n      _multiplierPerYear,\n      _jumpMultiplierPerYear,\n      _optimal,\n      address(_MMI)\n    ));\n\n    _MMI._setUpALR(\n      interestRateModel,\n      _fee,\n      _initialExchangeRate\n    );\n  }\n\n/**\n@notice trackCollateral is an external function used bya MMI to track collateral amounts globally\n@param _borrower is the address of the corrower\n@param _ALR is the address of the seller\n@param _amount is the amount being collateralized\n@dev this function can only be called by a MoneyMarketInstance.\n**/\n function trackCollateral(address _borrower, address _ALR, uint _amount) external onlyMMI {\n   collateralTracker[_borrower][_ALR] = _amount;\n }\n\n /**\n\n **/\n function checkCollateralValue(address _borrower, address _ALR) external view onlyMMI returns(uint) {\n   MoneyMarketInstance MMI = MoneyMarketInstance(msg.sender);\n   address asset = MMI.getAssetAdd();\n   uint priceOfAsset = Oracle.getUnderlyingPrice(asset);\n   uint amountOfAssetCollat = collateralTracker[_borrower][_ALR];\n   return amountOfAssetCollat.mul(priceOfAsset);\n }\n\n/**\n@notice markAccountNonCompliant is used by a potential liquidator to mark an account as non compliant which starts its 30 minute timer\n@param _borrower is the address of the non compliant borrower\n@param _ART is the address of the money market instances ALR token the user is non-compliant in\n**/\n  function markAccountNonCompliant(address _borrower, address _ART) public {\n    //needs to check for account compliance\n    require(nonCompliant[_borrower][_ART] == 0);\n    nonCompliant[_borrower][_ART] = now;\n  }\n\n\n\n/**\n@notice The sender liquidates the borrowers collateral. This function is called on the MoneyMarket the borrower owes to.\n@param borrower The borrower of this cToken to be liquidated\n@param repayAmount The amount of the underlying borrowed asset to repay\n@param _ART is the address of the AskoRiskToken\n*/\n  function liquidateAccount(address borrower, uint repayAmount, AskoRiskToken _ART) public {\n       require(now >= nonCompliant[borrower][address(_ART)].add(1800));//checks if its been nonCompliant for more than a half hour\n//need to impliment check if this is aloud\n\n    address asset = _ART.getAssetAdd();\n    /* Read oracle prices for borrowed and collateral markets */\n    uint priceBorrowedMantissa = Oracle.getUnderlyingPrice(asset);\n    uint priceCollateralMantissa = Oracle.getUnderlyingPrice(address(_ART));\n    require(priceBorrowedMantissa != 0 && priceCollateralMantissa != 0);\n\n  /////////////////////////////////////////////////////////////////////////////////////////////////////////////////////\n    /*\n     * Get the exchange rate and calculate the number of collateral tokens to seize:\n     *  seizeAmount = actualRepayAmount * liquidationIncentive * priceBorrowed / priceCollateral\n     *  seizeTokens = seizeAmount / exchangeRate\n     *   = actualRepayAmount * (liquidationIncentive * priceBorrowed) / (priceCollateral * exchangeRate)\n     */\n    uint exchangeRateMantissa = _ART.exchangeRateCurrent(); // Note: reverts on error\n    uint seizeTokens;\n    Exp memory numerator;\n    Exp memory denominator;\n    Exp memory ratio;\n    MathError mathErr;\n\n    (mathErr, numerator) = mulExp(liquidationIncentiveMantissa, priceBorrowedMantissa);\n    require(mathErr == MathError.NO_ERROR);\n\n\n    (mathErr, denominator) = mulExp(priceCollateralMantissa, exchangeRateMantissa);\n    require(mathErr == MathError.NO_ERROR);\n\n    (mathErr, ratio) = divExp(numerator, denominator);\n    require(mathErr == MathError.NO_ERROR);\n\n    (mathErr, seizeTokens) = mulScalarTruncate(ratio, repayAmount);\n    require(mathErr == MathError.NO_ERROR);\n  /////////////////////////////////////////////////////////////////////////////////////////////////////////////////////\n\n    _ART._liquidateFor(address(asset), address(this), seizeTokens, repayAmount);\n  /**\n  this function calls the MoneyMarketInstance where the borrower has collateral staked and has it swap\n  its underlying asset on uniswap for the underlying asset borrowed\n  **/\n\n      nonCompliant[borrower][address(_ART)] = 0;//resets borrowers compliance timer\n\n  }\n\n}\n",
  "sourcePath": "/home/stan36/repos/Askolend/AskoLend-contracts/contracts/MoneyMarketControl.sol",
  "compiler": {
    "name": "solc",
    "version": "0.6.2+commit.bacdbe57.Emscripten.clang"
  },
  "schemaVersion": "3.2.5",
  "updatedAt": "2020-10-08T00:19:56.900Z",
  "networkType": "ethereum",
  "devdoc": {
    "methods": {
      "constructor": {
        "params": {
          "_oracle": "is the address for the UniswapOracleFactorycontract*"
        }
      },
      "liquidateAccount(address,uint256,address)": {
        "params": {
          "_ART": "is the address of the AskoRiskToken",
          "borrower": "The borrower of this cToken to be liquidated",
          "repayAmount": "The amount of the underlying borrowed asset to repay"
        }
      },
      "markAccountNonCompliant(address,address)": {
        "params": {
          "_ART": "is the address of the money market instances ALR token the user is non-compliant in*",
          "_borrower": "is the address of the non compliant borrower"
        }
      },
      "owner()": {
        "details": "Returns the address of the current owner."
      },
      "renounceOwnership()": {
        "details": "Leaves the contract without owner. It will not be possible to call `onlyOwner` functions anymore. Can only be called by the current owner.     * NOTE: Renouncing ownership will leave the contract without an owner, thereby removing any functionality that is only available to the owner."
      },
      "setUpAHR(uint256,uint256,uint256,uint256,uint256,uint256,address)": {
        "details": "this function can only be called after an asset has been whitelisted as it needs an existing MoneyMarketInstance contract*",
        "params": {
          "_assetContractAdd": "is the contract address of the asset whos MoneyMarketInstance is being set up",
          "_baseRatePerYear": "The approximate target base APR, as a mantissa (scaled by 1e18)",
          "_fee": "is a number representing the fee for exchanging an ALR token, as a mantissa (scaled by 1e18)",
          "_jumpMultiplierPerYear": "The multiplierPerBlock after hitting a specified utilization point",
          "_multiplierPerYear": "The rate of increase in interest rate wrt utilization (scaled by 1e18)",
          "_optimal": "The utilization point at which the jump multiplier is applied(Refered to as the Kink in the InterestRateModel)"
        }
      },
      "setUpALR(uint256,uint256,uint256,uint256,uint256,uint256,address)": {
        "details": "this function can only be called after an asset has been whitelisted as it needs an existing MoneyMarketInstance contract*",
        "params": {
          "_assetContractAdd": "is the contract address of the asset whos MoneyMarketInstance is being set up",
          "_baseRatePerYear": "The approximate target base APR, as a mantissa (scaled by 1e18)",
          "_fee": "is a number representing the fee for exchanging an ALR token, as a mantissa (scaled by 1e18)",
          "_jumpMultiplierPerYear": "The multiplierPerBlock after hitting a specified utilization point",
          "_multiplierPerYear": "The rate of increase in interest rate wrt utilization (scaled by 1e18)",
          "_optimal": "The utilization point at which the jump multiplier is applied(Refered to as the Kink in the InterestRateModel)"
        }
      },
      "trackCollateral(address,address,uint256)": {
        "details": "this function can only be called by a MoneyMarketInstance.*",
        "params": {
          "_ALR": "is the address of the seller",
          "_amount": "is the amount being collateralized",
          "_borrower": "is the address of the corrower"
        }
      },
      "transferOwnership(address)": {
        "details": "Transfers ownership of the contract to a new account (`newOwner`). Can only be called by the current owner."
      },
      "whitelistAsset(address,string,string)": {
        "params": {
          "_assetContractAdd": "is the address of the ERC20 asset being whitelisted",
          "_assetName": "is the name of the asset(e.x: ChainLink)",
          "_assetSymbol": "is the symbol of the asset(e.x: LINK)*"
        }
      }
    }
  },
  "userdoc": {
    "methods": {
      "checkCollateralValue(address,address)": {
        "notice": "*"
      },
      "constructor": "the constructor function is fired during the contract deployment process. The constructor can only be fired once and is used to set up Oracle variables for the MoneyMarketFactory contract.",
      "liquidateAccount(address,uint256,address)": {
        "notice": "The sender liquidates the borrowers collateral. This function is called on the MoneyMarket the borrower owes to."
      },
      "markAccountNonCompliant(address,address)": {
        "notice": "markAccountNonCompliant is used by a potential liquidator to mark an account as non compliant which starts its 30 minute timer"
      },
      "setUpAHR(uint256,uint256,uint256,uint256,uint256,uint256,address)": {
        "notice": "setUpAHR is used to set up a MoneyMarketInstances Asko High Risk Token as well as its InterestRateModel"
      },
      "setUpALR(uint256,uint256,uint256,uint256,uint256,uint256,address)": {
        "notice": "setUpAHR is used to set up a MoneyMarketInstances Asko High Risk Token as well as its InterestRateModel"
      },
      "trackCollateral(address,address,uint256)": {
        "notice": "trackCollateral is an external function used bya MMI to track collateral amounts globally"
      },
      "whitelistAsset(address,string,string)": {
        "notice": "whitelistAsset is an onlyOwner function designed to be called by the AskoDAO. This function creates a new MoneyMarketInstancecontract for an input asset as well as a UniswapOracleInstance for the asset."
      }
    },
    "notice": "The MoneyMarketFactory contract is designed to produce individual MoneyMarketInstance contracts This contract uses the OpenZeppelin contract Library to inherit functions from Ownable.sol*"
  }
}