{
  "contractName": "UniswapOracleFactory",
  "abi": [
    {
      "inputs": [
        {
          "internalType": "address",
          "name": "_uniFactoryAdd",
          "type": "address"
        },
        {
          "internalType": "address",
          "name": "_router",
          "type": "address"
        },
        {
          "internalType": "address",
          "name": "_wETH",
          "type": "address"
        }
      ],
      "stateMutability": "nonpayable",
      "type": "constructor"
    },
    {
      "anonymous": false,
      "inputs": [
        {
          "indexed": true,
          "internalType": "address",
          "name": "previousOwner",
          "type": "address"
        },
        {
          "indexed": true,
          "internalType": "address",
          "name": "newOwner",
          "type": "address"
        }
      ],
      "name": "OwnershipTransferred",
      "type": "event"
    },
    {
      "inputs": [],
      "name": "factory",
      "outputs": [
        {
          "internalType": "contract UniI",
          "name": "",
          "type": "address"
        }
      ],
      "stateMutability": "view",
      "type": "function",
      "constant": true
    },
    {
      "inputs": [
        {
          "internalType": "address",
          "name": "",
          "type": "address"
        }
      ],
      "name": "instanceTracker",
      "outputs": [
        {
          "internalType": "address",
          "name": "",
          "type": "address"
        }
      ],
      "stateMutability": "view",
      "type": "function",
      "constant": true
    },
    {
      "inputs": [],
      "name": "owner",
      "outputs": [
        {
          "internalType": "address",
          "name": "",
          "type": "address"
        }
      ],
      "stateMutability": "view",
      "type": "function",
      "constant": true
    },
    {
      "inputs": [],
      "name": "renounceOwnership",
      "outputs": [],
      "stateMutability": "nonpayable",
      "type": "function"
    },
    {
      "inputs": [
        {
          "internalType": "address",
          "name": "newOwner",
          "type": "address"
        }
      ],
      "name": "transferOwnership",
      "outputs": [],
      "stateMutability": "nonpayable",
      "type": "function"
    },
    {
      "inputs": [],
      "name": "uniswapRouter",
      "outputs": [
        {
          "internalType": "contract IUniswapV2Router02",
          "name": "",
          "type": "address"
        }
      ],
      "stateMutability": "view",
      "type": "function",
      "constant": true
    },
    {
      "inputs": [],
      "name": "uniswap_router_add",
      "outputs": [
        {
          "internalType": "address",
          "name": "",
          "type": "address"
        }
      ],
      "stateMutability": "view",
      "type": "function",
      "constant": true
    },
    {
      "inputs": [],
      "name": "wETH_add",
      "outputs": [
        {
          "internalType": "address",
          "name": "",
          "type": "address"
        }
      ],
      "stateMutability": "view",
      "type": "function",
      "constant": true
    },
    {
      "inputs": [
        {
          "internalType": "address",
          "name": "token",
          "type": "address"
        }
      ],
      "name": "createNewOracle",
      "outputs": [
        {
          "internalType": "address",
          "name": "",
          "type": "address"
        }
      ],
      "stateMutability": "nonpayable",
      "type": "function"
    },
    {
      "inputs": [
        {
          "internalType": "address",
          "name": "_MMI",
          "type": "address"
        },
        {
          "internalType": "address",
          "name": "_asset",
          "type": "address"
        }
      ],
      "name": "linkMMI",
      "outputs": [],
      "stateMutability": "nonpayable",
      "type": "function"
    },
    {
      "inputs": [
        {
          "internalType": "address",
          "name": "_MMI",
          "type": "address"
        },
        {
          "internalType": "uint256",
          "name": "_amount",
          "type": "uint256"
        }
      ],
      "name": "getUnderlyingPriceofAsset",
      "outputs": [
        {
          "internalType": "uint256",
          "name": "",
          "type": "uint256"
        }
      ],
      "stateMutability": "nonpayable",
      "type": "function"
    },
    {
      "inputs": [
        {
          "internalType": "address",
          "name": "_MMI",
          "type": "address"
        },
        {
          "internalType": "uint256",
          "name": "_amount",
          "type": "uint256"
        }
      ],
      "name": "viewUnderlyingPriceofAsset",
      "outputs": [
        {
          "internalType": "uint256",
          "name": "",
          "type": "uint256"
        }
      ],
      "stateMutability": "view",
      "type": "function",
      "constant": true
    },
    {
      "inputs": [
        {
          "internalType": "address",
          "name": "_MMI",
          "type": "address"
        },
        {
          "internalType": "uint256",
          "name": "_amount",
          "type": "uint256"
        }
      ],
      "name": "getUnderlyingAssetPriceOfwETH",
      "outputs": [
        {
          "internalType": "uint256",
          "name": "",
          "type": "uint256"
        }
      ],
      "stateMutability": "nonpayable",
      "type": "function"
    },
    {
      "inputs": [
        {
          "internalType": "address",
          "name": "_MMI",
          "type": "address"
        },
        {
          "internalType": "uint256",
          "name": "_amount",
          "type": "uint256"
        }
      ],
      "name": "viewUnderlyingAssetPriceOfwETH",
      "outputs": [
        {
          "internalType": "uint256",
          "name": "",
          "type": "uint256"
        }
      ],
      "stateMutability": "view",
      "type": "function",
      "constant": true
    },
    {
      "inputs": [
        {
          "internalType": "address",
          "name": "_tokenA",
          "type": "address"
        },
        {
          "internalType": "address",
          "name": "_tokenB",
          "type": "address"
        }
      ],
      "name": "getPathForERC20Swap",
      "outputs": [
        {
          "internalType": "address[]",
          "name": "",
          "type": "address[]"
        }
      ],
      "stateMutability": "view",
      "type": "function",
      "constant": true
    },
    {
      "inputs": [
        {
          "internalType": "address",
          "name": "_asset",
          "type": "address"
        }
      ],
      "name": "getPairAdd",
      "outputs": [
        {
          "internalType": "address",
          "name": "",
          "type": "address"
        }
      ],
      "stateMutability": "view",
      "type": "function",
      "constant": true
    }
  ],
  "bytecode": "0x608060405234801561001057600080fd5b506040516124133803806124138339818101604052606081101561003357600080fd5b508051602082015160409092015190919060006100576001600160e01b036100f216565b600080546001600160a01b0319166001600160a01b0383169081178255604051929350917f8be0079c531659141344cd1fd0a4f28419497f9722a3daafe3b4186f6b6457e0908290a350600480546001600160a01b03199081166001600160a01b03948516908117909255600380548216958516959095179094556002805485169290931691909117909155600180549092161790556100f6565b3390565b61230e806101056000396000f3fe60806040523480156200001157600080fd5b5060043610620000f45760003560e01c8063735de9f71162000093578063735de9f714620002a157806381a61d7f14620002ab5780638c8b685114620002da5780638da5cb5b14620002e4578063a2672dee14620002ee578063c45a0155146200031d578063d0bad8151462000327578063f2fde38b146200035057620000f4565b806318ee56ca14620000f95780631bc7796f146200013a5780631be1d0b914620001bd5780632fb2da6114620001f05780633373a44714620002355780635a63c265146200025e578063706287a8146200028d578063715018a61462000297575b600080fd5b62000128600480360360408110156200011157600080fd5b506001600160a01b03813516906020013562000379565b60408051918252519081900360200190f35b6200016b600480360360408110156200015257600080fd5b506001600160a01b038135811691602001351662000409565b60408051602080825283518183015283519192839290830191858101910280838360005b83811015620001a95781810151838201526020016200018f565b505050509050019250505060405180910390f35b620001ee60048036036040811015620001d557600080fd5b506001600160a01b0381358116916020013516620004b8565b005b62000219600480360360208110156200020857600080fd5b50356001600160a01b0316620004f2565b604080516001600160a01b039092168252519081900360200190f35b62000219600480360360208110156200024d57600080fd5b50356001600160a01b0316620005ef565b62000128600480360360408110156200027657600080fd5b506001600160a01b0381351690602001356200060a565b620002196200067a565b620001ee62000689565b620002196200072f565b6200012860048036036040811015620002c357600080fd5b506001600160a01b0381351690602001356200073e565b6200021962000798565b62000219620007a7565b62000128600480360360408110156200030657600080fd5b506001600160a01b038135169060200135620007b6565b6200021962000811565b62000219600480360360208110156200033f57600080fd5b50356001600160a01b031662000820565b620001ee600480360360208110156200036857600080fd5b50356001600160a01b0316620008b1565b6001600160a01b038083166000908152600560209081526040808320548151637893365960e01b815260048101879052915193941692839263789336599260248082019391829003018186803b158015620003d357600080fd5b505afa158015620003e8573d6000803e3d6000fd5b505050506040513d6020811015620003ff57600080fd5b5051949350505050565b6040805160038082526080820190925260609182919060208201838036833701905050905083816000815181106200043d57fe5b6001600160a01b0392831660209182029290920101526002548251911690829060019081106200046957fe5b60200260200101906001600160a01b031690816001600160a01b03168152505082816002815181106200049857fe5b6001600160a01b0390921660209283029190910190910152905092915050565b6001600160a01b03908116600090815260056020526040808220549383168252902080546001600160a01b03191692909116919091179055565b6000620004fe620009af565b6000546001600160a01b0390811691161462000550576040805162461bcd60e51b81526020600482018190526024820152600080516020620022b9833981519152604482015290519081900360640190fd5b6003546002546040516000926001600160a01b039081169286929116906200057890620009b3565b6001600160a01b03938416815291831660208301529091166040808301919091525190819003606001906000f080158015620005b8573d6000803e3d6000fd5b506001600160a01b03938416600090815260056020526040902080546001600160a01b031916948216949094179093555090919050565b6005602052600090815260409020546001600160a01b031681565b6001600160a01b0380831660009081526005602090815260408083205481516321cbc6e160e01b81526004810187905291519394169283926321cbc6e1926024808201939182900301818887803b1580156200066557600080fd5b505af1158015620003e8573d6000803e3d6000fd5b6002546001600160a01b031681565b62000693620009af565b6000546001600160a01b03908116911614620006e5576040805162461bcd60e51b81526020600482018190526024820152600080516020620022b9833981519152604482015290519081900360640190fd5b600080546040516001600160a01b03909116907f8be0079c531659141344cd1fd0a4f28419497f9722a3daafe3b4186f6b6457e0908390a3600080546001600160a01b0319169055565b6004546001600160a01b031681565b6001600160a01b03808316600090815260056020908152604080832054815163e865579f60e01b815260048101879052915193941692839263e865579f9260248082019391829003018186803b158015620003d357600080fd5b6001546001600160a01b031681565b6000546001600160a01b031690565b6001600160a01b0380831660009081526005602090815260408083205481516361e25d8360e01b81526004810187905291519394169283926361e25d83926024808201939182900301818887803b1580156200066557600080fd5b6003546001600160a01b031681565b6003546002546040805163e6a4390560e01b81526001600160a01b03858116600483015292831660248201529051600093929092169163e6a4390591604480820192602092909190829003018186803b1580156200087d57600080fd5b505afa15801562000892573d6000803e3d6000fd5b505050506040513d6020811015620008a957600080fd5b505192915050565b620008bb620009af565b6000546001600160a01b039081169116146200090d576040805162461bcd60e51b81526020600482018190526024820152600080516020620022b9833981519152604482015290519081900360640190fd5b6001600160a01b038116620009545760405162461bcd60e51b8152600401808060200182810382526026815260200180620022936026913960400191505060405180910390fd5b600080546040516001600160a01b03808516939216917f8be0079c531659141344cd1fd0a4f28419497f9722a3daafe3b4186f6b6457e091a3600080546001600160a01b0319166001600160a01b0392909216919091179055565b3390565b6118d180620009c28339019056fe60806040523480156200001157600080fd5b50604051620018d1380380620018d1833981810160405260608110156200003757600080fd5b508051602082015160409092015190919060006200005d6001600160e01b036200050e16565b600080546001600160a01b0319166001600160a01b0383169081178255604051929350917f8be0079c531659141344cd1fd0a4f28419497f9722a3daafe3b4186f6b6457e0908290a3506000620000c18484846200051260201b62000ae21760201c565b600480546001600160a01b038087166001600160a01b03199283161783556001805491851691909216811790915560408051630dfe168160e01b815290519394509092630dfe168192828101926020929190829003018186803b1580156200012857600080fd5b505afa1580156200013d573d6000803e3d6000fd5b505050506040513d60208110156200015457600080fd5b5051600280546001600160a01b0319166001600160a01b039283161790556040805163d21220a760e01b815290519183169163d21220a791600480820192602092909190829003018186803b158015620001ad57600080fd5b505afa158015620001c2573d6000803e3d6000fd5b505050506040513d6020811015620001d957600080fd5b5051600380546001600160a01b0319166001600160a01b0392831617905560025484821691161415620002e957806001600160a01b0316635909c0d56040518163ffffffff1660e01b815260040160206040518083038186803b1580156200024057600080fd5b505afa15801562000255573d6000803e3d6000fd5b505050506040513d60208110156200026c57600080fd5b505160055560408051635a3d549360e01b815290516001600160a01b03831691635a3d5493916004808301926020929190829003018186803b158015620002b257600080fd5b505afa158015620002c7573d6000803e3d6000fd5b505050506040513d6020811015620002de57600080fd5b5051600655620003c7565b806001600160a01b0316635a3d54936040518163ffffffff1660e01b815260040160206040518083038186803b1580156200032357600080fd5b505afa15801562000338573d6000803e3d6000fd5b505050506040513d60208110156200034f57600080fd5b505160055560408051635909c0d560e01b815290516001600160a01b03831691635909c0d5916004808301926020929190829003018186803b1580156200039557600080fd5b505afa158015620003aa573d6000803e3d6000fd5b505050506040513d6020811015620003c157600080fd5b50516006555b600080826001600160a01b0316630902f1ac6040518163ffffffff1660e01b815260040160606040518083038186803b1580156200040457600080fd5b505afa15801562000419573d6000803e3d6000fd5b505050506040513d60608110156200043057600080fd5b50805160208201516040909201516008805463ffffffff191663ffffffff909216919091179055925090506001600160701b038216158015906200047c57506001600160701b03811615155b620004ce576040805162461bcd60e51b815260206004820181905260248201527f4578616d706c654f7261636c6553696d706c653a204e4f5f5245534552564553604482015290519081900360640190fd5b6004805460ff60a01b1916600160a01b179055620004f46001600160e01b03620005ef16565b50506004805460ff60a01b191690555062000b7892505050565b3390565b600080806200052b85856001600160e01b03620007c916565b604080516001600160601b0319606094851b811660208084019190915293851b81166034830152825160288184030181526048830184528051908501207fff0000000000000000000000000000000000000000000000000000000000000060688401529a90941b9093166069840152607d8301989098527f96e8ac4277198ff8b6f785478aa9a39f403cb768dd02cbee326c3e7da348845f609d808401919091528851808403909101815260bd909201909752805196019590952095945050505050565b60008060006200061f600160009054906101000a90046001600160a01b0316620008ac60201b620008411760201c565b600854929550909350915063ffffffff90811682039062015180908216101580620006585750600454600160a01b900460ff1615156001145b15620007c3576004546002546001600160a01b0390811691161415620007155760405180602001604052808263ffffffff166005548703816200069757fe5b046001600160e01b039081169091529051600980546001600160e01b031916919092161790556040805160208101909152600654819063ffffffff841690860381620006df57fe5b046001600160e01b039081169091529051600a80546001600160e01b0319169190921617905560058490556006839055620007ad565b60405180602001604052808263ffffffff166005548603816200073457fe5b046001600160e01b039081169091529051600980546001600160e01b031916919092161790556040805160208101909152600654819063ffffffff8416908703816200077c57fe5b046001600160e01b039081169091529051600a80546001600160e01b03191691909216179055600583905560068490555b6008805463ffffffff191663ffffffff84161790555b50505050565b600080826001600160a01b0316846001600160a01b031614156200081f5760405162461bcd60e51b8152600401808060200182810382526025815260200180620018ac6025913960400191505060405180910390fd5b826001600160a01b0316846001600160a01b0316106200084157828462000844565b83835b90925090506001600160a01b038216620008a5576040805162461bcd60e51b815260206004820152601e60248201527f556e697377617056324c6962726172793a205a45524f5f414444524553530000604482015290519081900360640190fd5b9250929050565b60008080620008c36001600160e01b0362000aaf16565b9050836001600160a01b0316635909c0d56040518163ffffffff1660e01b815260040160206040518083038186803b158015620008ff57600080fd5b505afa15801562000914573d6000803e3d6000fd5b505050506040513d60208110156200092b57600080fd5b505160408051635a3d549360e01b815290519194506001600160a01b03861691635a3d549391600480820192602092909190829003018186803b1580156200097257600080fd5b505afa15801562000987573d6000803e3d6000fd5b505050506040513d60208110156200099e57600080fd5b505160408051630240bc6b60e21b81529051919350600091829182916001600160a01b03891691630902f1ac916004808301926060929190829003018186803b158015620009eb57600080fd5b505afa15801562000a00573d6000803e3d6000fd5b505050506040513d606081101562000a1757600080fd5b5080516020820151604090920151909450909250905063ffffffff8082169085161462000aa557600081850390508063ffffffff1662000a63848662000ab960201b62000a1a1760201c565b600001516001600160e01b031602870196508063ffffffff1662000a93858562000ab960201b62000a1a1760201c565b516001600160e01b0316029590950194505b5050509193909250565b63ffffffff421690565b62000ac362000b66565b6000826001600160701b03161162000b22576040805162461bcd60e51b815260206004820152601760248201527f4669786564506f696e743a204449565f42595f5a45524f000000000000000000604482015290519081900360640190fd5b6040805160208101909152806001600160701b038416600160701b600160e01b03607087901b168162000b5157fe5b046001600160e01b0316815250905092915050565b60408051602081019091526000815290565b610d248062000b886000396000f3fe608060405234801561001057600080fd5b506004361061012c5760003560e01c8063a2e62045116100ad578063c3e75bda11610071578063c3e75bda14610234578063c5700a0214610250578063d21220a714610271578063e865579f14610279578063f2fde38b146102965761012c565b8063a2e620451461020c578063a6bb453914610214578063a8aa1b311461021c578063b4d1d79514610224578063b5b24fd41461022c5761012c565b80635e6aaf2c116100f45780635e6aaf2c1461019c57806361e25d83146101c0578063715018a6146101dd57806378933659146101e75780638da5cb5b146102045761012c565b80630dfe1681146101315780630fc63d101461015557806321cbc6e11461015d5780635909c0d51461018c5780635a3d549314610194575b600080fd5b6101396102bc565b604080516001600160a01b039092168252519081900360200190f35b6101396102cb565b61017a6004803603602081101561017357600080fd5b50356102da565b60408051918252519081900360200190f35b61017a610325565b61017a61032b565b6101a4610331565b604080516001600160e01b039092168252519081900360200190f35b61017a600480360360208110156101d657600080fd5b5035610340565b6101e5610377565b005b61017a600480360360208110156101fd57600080fd5b503561042b565b61013961045b565b6101e561046a565b6101a4610628565b610139610637565b61017a610646565b61017a61064d565b61023c610653565b604080519115158252519081900360200190f35b610258610663565b6040805163ffffffff9092168252519081900360200190f35b61013961066f565b61017a6004803603602081101561028f57600080fd5b503561067e565b6101e5600480360360208110156102ac57600080fd5b50356001600160a01b03166106ae565b6002546001600160a01b031681565b6004546001600160a01b031681565b60006102e461046a565b6040805160208101909152600a546001600160e01b0316815261031690610311908463ffffffff6107b816565b610836565b6001600160901b031692915050565b60055481565b60065481565b600a546001600160e01b031681565b600061034a61046a565b60408051602081019091526009546001600160e01b0316815261031690610311908463ffffffff6107b816565b61037f61083d565b6000546001600160a01b039081169116146103e1576040805162461bcd60e51b815260206004820181905260248201527f4f776e61626c653a2063616c6c6572206973206e6f7420746865206f776e6572604482015290519081900360640190fd5b600080546040516001600160a01b03909116907f8be0079c531659141344cd1fd0a4f28419497f9722a3daafe3b4186f6b6457e0908390a3600080546001600160a01b0319169055565b6040805160208101909152600a546001600160e01b0316815260009061031690610311908463ffffffff6107b816565b6000546001600160a01b031690565b60015460009081908190610486906001600160a01b0316610841565b600854929550909350915063ffffffff908116820390620151809082161015806104be5750600454600160a01b900460ff1615156001145b15610622576004546002546001600160a01b03908116911614156105765760405180602001604052808263ffffffff166005548703816104fa57fe5b046001600160e01b039081169091529051600980546001600160e01b031916919092161790556040805160208101909152600654819063ffffffff84169086038161054157fe5b046001600160e01b039081169091529051600a80546001600160e01b031916919092161790556005849055600683905561060c565b60405180602001604052808263ffffffff1660055486038161059457fe5b046001600160e01b039081169091529051600980546001600160e01b031916919092161790556040805160208101909152600654819063ffffffff8416908703816105db57fe5b046001600160e01b039081169091529051600a80546001600160e01b03191691909216179055600583905560068490555b6008805463ffffffff191663ffffffff84161790555b50505050565b6009546001600160e01b031681565b6001546001600160a01b031681565b6201518081565b60075481565b600454600160a01b900460ff1681565b60085463ffffffff1681565b6003546001600160a01b031681565b60408051602081019091526009546001600160e01b0316815260009061031690610311908463ffffffff6107b816565b6106b661083d565b6000546001600160a01b03908116911614610718576040805162461bcd60e51b815260206004820181905260248201527f4f776e61626c653a2063616c6c6572206973206e6f7420746865206f776e6572604482015290519081900360640190fd5b6001600160a01b03811661075d5760405162461bcd60e51b8152600401808060200182810382526026815260200180610c816026913960400191505060405180910390fd5b600080546040516001600160a01b03808516939216917f8be0079c531659141344cd1fd0a4f28419497f9722a3daafe3b4186f6b6457e091a3600080546001600160a01b0319166001600160a01b0392909216919091179055565b6107c0610abd565b60008215806107e657505082516001600160e01b0316828102908382816107e357fe5b04145b6108215760405162461bcd60e51b8152600401808060200182810382526023815260200180610ccc6023913960400191505060405180910390fd5b60408051602081019091529081529392505050565b5160701c90565b3390565b600080600061084e610a10565b9050836001600160a01b0316635909c0d56040518163ffffffff1660e01b815260040160206040518083038186803b15801561088957600080fd5b505afa15801561089d573d6000803e3d6000fd5b505050506040513d60208110156108b357600080fd5b505160408051635a3d549360e01b815290519194506001600160a01b03861691635a3d549391600480820192602092909190829003018186803b1580156108f957600080fd5b505afa15801561090d573d6000803e3d6000fd5b505050506040513d602081101561092357600080fd5b505160408051630240bc6b60e21b81529051919350600091829182916001600160a01b03891691630902f1ac916004808301926060929190829003018186803b15801561096f57600080fd5b505afa158015610983573d6000803e3d6000fd5b505050506040513d606081101561099957600080fd5b5080516020820151604090920151909450909250905063ffffffff80821690851614610a065780840363ffffffff81166109d38486610a1a565b516001600160e01b031602969096019563ffffffff81166109f48585610a1a565b516001600160e01b0316029590950194505b5050509193909250565b63ffffffff421690565b610a22610ad0565b6000826001600160701b031611610a7a576040805162461bcd60e51b81526020600482015260176024820152764669786564506f696e743a204449565f42595f5a45524f60481b604482015290519081900360640190fd5b6040805160208101909152806001600160701b038416600160701b600160e01b03607087901b1681610aa857fe5b046001600160e01b0316815250905092915050565b6040518060200160405280600081525090565b60408051602081019091526000815290565b6000806000610af18585610ba2565b604080516bffffffffffffffffffffffff19606094851b811660208084019190915293851b81166034830152825160288184030181526048830184528051908501206001600160f81b031960688401529a90941b9093166069840152607d8301989098527f96e8ac4277198ff8b6f785478aa9a39f403cb768dd02cbee326c3e7da348845f609d808401919091528851808403909101815260bd909201909752805196019590952095945050505050565b600080826001600160a01b0316846001600160a01b03161415610bf65760405162461bcd60e51b8152600401808060200182810382526025815260200180610ca76025913960400191505060405180910390fd5b826001600160a01b0316846001600160a01b031610610c16578284610c19565b83835b90925090506001600160a01b038216610c79576040805162461bcd60e51b815260206004820152601e60248201527f556e697377617056324c6962726172793a205a45524f5f414444524553530000604482015290519081900360640190fd5b925092905056fe4f776e61626c653a206e6577206f776e657220697320746865207a65726f2061646472657373556e697377617056324c6962726172793a204944454e544943414c5f4144445245535345534669786564506f696e743a204d554c5449504c49434154494f4e5f4f564552464c4f57a26469706673582212202c7818f0aa615af2f31c65f36cf7d73cd3d1b39ab8fc028de268bfae47fab5ed64736f6c63430006060033556e697377617056324c6962726172793a204944454e544943414c5f4144445245535345534f776e61626c653a206e6577206f776e657220697320746865207a65726f20616464726573734f776e61626c653a2063616c6c6572206973206e6f7420746865206f776e6572a2646970667358221220648c40a465ffc3f3b3f819486254890e680402b67c0431522874798a87fe5eb464736f6c63430006060033",
  "immutableReferences": {},
  "source": "pragma solidity 0.6.6;\n\nimport \"openzeppelin-solidity/contracts/access/Ownable.sol\";\nimport \"@uniswap/v2-periphery/contracts/UniswapV2Router02.sol\";\nimport \"./interfaces/UniI.sol\";\nimport \"./interfaces/TokenI.sol\";\nimport \"./UniswapOracleInstance.sol\";\n\n////////////////////////////////////////////////////////////////////////////////////////////\n/// @title UniswapOracleFactory\n/// @author Christopher Dixon\n////////////////////////////////////////////////////////////////////////////////////////////\n/**\nThe UniswapOracleFactory contract is designed to produce individual UniswapOracleInstance contracts\nThis contract uses the OpenZeppelin contract Library to inherit functions from\n  Ownable.sol\n**/\n\ncontract UniswapOracleFactory is Ownable {\n    address public uniswap_router_add;\n    address public wETH_add;\n    UniI public factory;\n    IUniswapV2Router02 public uniswapRouter;\n\n    mapping(address => address) public instanceTracker; //maps erc20 address to the assets MoneyMarketInstance\n\n    /**\n@notice constructor function is fired once during contract creation. This constructor initializes uniswapRouter\n        as a usable contract instance within the UniswapOracleFactory\n@param _uniFactoryAdd is the address of the uniswap factory contract\n@param _router is the address of the uniswap router contract\n**/\n    constructor(\n        address _uniFactoryAdd,\n        address _router,\n        address _wETH\n    ) public {\n        uniswapRouter = IUniswapV2Router02(_router);\n        factory = UniI(_uniFactoryAdd);\n        wETH_add = _wETH;\n        uniswap_router_add = _router;\n    }\n\n    /**\n  @notice createNewOracle allows the owner of this contract to deploy a new oracle contract when\n          a new asset is whitelisted\n  @param token is the address of the token that this oracle will provide a USDC price feed for\n  **/\n    function createNewOracle(address token) public onlyOwner returns (address) {\n        address _oracle =\n            address(new UniswapOracleInstance(address(factory), token, wETH_add));\n        instanceTracker[token] = _oracle;\n        return _oracle;\n    }\n\n    /**\n@notice linkMMI is used to link a MoneyMarketInstance to its oracle in the oracle factory contract\n@param _MMI is the address of the MoneyMarketInstance\n@param _asset is the address of the MoneyMarketInstancesunderlying asset\n**/\n    function linkMMI(address _MMI, address _asset) public {\n        address oracle = instanceTracker[_asset];\n        instanceTracker[_MMI] = oracle;\n    }\n\n    /**\n@notice getUnderlyingPriceofAsset allows for the price retrieval of a MoneyMarketInstances underlying asset\n@param _MMI is the address of the MoneyMarketInstance whos asset price is being retrieved\n@return returns the price of the asset\n**/\n    function getUnderlyingPriceofAsset(address _MMI, uint256 _amount)\n        public\n        returns (uint256)\n    {\n        UniswapOracleInstance oracle =\n            UniswapOracleInstance(instanceTracker[_MMI]);\n        return oracle.consult(_amount);\n    }\n\n    /**\n    @notice viewUnderlyingPriceofAsset allows for the price retrieval of a MoneyMarketInstances underlying asset without the gas cost of calculating with update\n    @param _MMI is the address of the MoneyMarketInstance whos asset price is being retrieved\n    @return returns the price of the asset\n    **/\n    function viewUnderlyingPriceofAsset(address _MMI, uint256 _amount)\n        public\n        view\n        returns (uint256)\n    {\n        UniswapOracleInstance oracle =\n            UniswapOracleInstance(instanceTracker[_MMI]);\n        return oracle.viewPrice(_amount);\n    }\n\n    /**\n@notice getUnderlyingAssetPriceOfwETH allows for the price retrieval of a MoneyMarketInstances underlying asset in asset\n@param _MMI is the address of the MoneyMarketInstance whos asset price is being retrieved\n@return returns the price of the asset\n**/\n    function getUnderlyingAssetPriceOfwETH(address _MMI, uint256 _amount)\n        public\n        returns (uint256)\n    {\n        UniswapOracleInstance oracle =\n            UniswapOracleInstance(instanceTracker[_MMI]);\n        return oracle.consultwETH(_amount);\n    }\n\n    /**\n    @notice viewUnderlyingAssetPriceOfwETH allows for the price retrieval of a MoneyMarketInstances underlying asset in asset\n    @param _MMI is the address of the MoneyMarketInstance whos asset price is being retrieved\n    @return returns the price of the asset\n    **/\n    function viewUnderlyingAssetPriceOfwETH(address _MMI, uint256 _amount)\n        public\n        view\n        returns (uint256)\n    {\n        UniswapOracleInstance oracle =\n            UniswapOracleInstance(instanceTracker[_MMI]);\n        return oracle.viewwETH(_amount);\n    }\n\n    /**\n@notice getPathForERC20Swap is an public function used to create a uniswap trade path for two input\n      ERC20 tokens using WETH as a medium of exchange.\n@param _tokenA is the address of the token being exchanged from\n@param _tokenB is the address of the token being exchanged to\n@dev example: LINK => Augur swap _tokenA would be LINK address while _tokenB would be Augur Address\n**/\n  function getPathForERC20Swap(address _tokenA, address _tokenB)\n      external\n      view\n      returns (address[] memory)\n  {\n      address[] memory path = new address[](3);\n      path[0] = _tokenA;\n      path[1] = wETH_add;\n      path[2] = _tokenB;\n\n      return path;\n  }\n\n\n  /**\n  @notice getPairAdd is used to return the address of the input assets wETH uniswap pair contract\n  @param _asset is the address of the ERC20 token contract whos pair contract is being retrieved\n  **/\n    function getPairAdd(address _asset) external view returns(address) {\n      return factory.getPair(_asset, wETH_add);\n    }\n}\n",
  "sourcePath": "/home/stan36/repos/Askolend/AskoLend-contracts/contracts/UniswapOracleFactory.sol",
  "compiler": {
    "name": "solc",
    "version": "0.6.6+commit.6c089d02.Emscripten.clang"
  },
  "schemaVersion": "3.3.2",
  "updatedAt": "2021-02-11T06:15:25.763Z",
  "networkType": "ethereum",
  "devdoc": {
    "methods": {
      "constructor": {
        "params": {
          "_router": "is the address of the uniswap router contract*",
          "_uniFactoryAdd": "is the address of the uniswap factory contract"
        }
      },
      "createNewOracle(address)": {
        "params": {
          "token": "is the address of the token that this oracle will provide a USDC price feed for*"
        }
      },
      "getPairAdd(address)": {
        "params": {
          "_asset": "is the address of the ERC20 token contract whos pair contract is being retrieved*"
        }
      },
      "getPathForERC20Swap(address,address)": {
        "details": "example: LINK => Augur swap _tokenA would be LINK address while _tokenB would be Augur Address*",
        "params": {
          "_tokenA": "is the address of the token being exchanged from",
          "_tokenB": "is the address of the token being exchanged to"
        }
      },
      "getUnderlyingAssetPriceOfwETH(address,uint256)": {
        "params": {
          "_MMI": "is the address of the MoneyMarketInstance whos asset price is being retrieved"
        },
        "returns": {
          "_0": "returns the price of the asset*"
        }
      },
      "getUnderlyingPriceofAsset(address,uint256)": {
        "params": {
          "_MMI": "is the address of the MoneyMarketInstance whos asset price is being retrieved"
        },
        "returns": {
          "_0": "returns the price of the asset*"
        }
      },
      "linkMMI(address,address)": {
        "params": {
          "_MMI": "is the address of the MoneyMarketInstance",
          "_asset": "is the address of the MoneyMarketInstancesunderlying asset*"
        }
      },
      "owner()": {
        "details": "Returns the address of the current owner."
      },
      "renounceOwnership()": {
        "details": "Leaves the contract without owner. It will not be possible to call `onlyOwner` functions anymore. Can only be called by the current owner.     * NOTE: Renouncing ownership will leave the contract without an owner, thereby removing any functionality that is only available to the owner."
      },
      "transferOwnership(address)": {
        "details": "Transfers ownership of the contract to a new account (`newOwner`). Can only be called by the current owner."
      },
      "viewUnderlyingAssetPriceOfwETH(address,uint256)": {
        "params": {
          "_MMI": "is the address of the MoneyMarketInstance whos asset price is being retrieved"
        },
        "returns": {
          "_0": "returns the price of the asset*"
        }
      },
      "viewUnderlyingPriceofAsset(address,uint256)": {
        "params": {
          "_MMI": "is the address of the MoneyMarketInstance whos asset price is being retrieved"
        },
        "returns": {
          "_0": "returns the price of the asset*"
        }
      }
    }
  },
  "userdoc": {
    "methods": {
      "constructor": "constructor function is fired once during contract creation. This constructor initializes uniswapRouter as a usable contract instance within the UniswapOracleFactory",
      "createNewOracle(address)": {
        "notice": "createNewOracle allows the owner of this contract to deploy a new oracle contract when a new asset is whitelisted"
      },
      "getPairAdd(address)": {
        "notice": "getPairAdd is used to return the address of the input assets wETH uniswap pair contract"
      },
      "getPathForERC20Swap(address,address)": {
        "notice": "getPathForERC20Swap is an public function used to create a uniswap trade path for two input ERC20 tokens using WETH as a medium of exchange."
      },
      "getUnderlyingAssetPriceOfwETH(address,uint256)": {
        "notice": "getUnderlyingAssetPriceOfwETH allows for the price retrieval of a MoneyMarketInstances underlying asset in asset"
      },
      "getUnderlyingPriceofAsset(address,uint256)": {
        "notice": "getUnderlyingPriceofAsset allows for the price retrieval of a MoneyMarketInstances underlying asset"
      },
      "linkMMI(address,address)": {
        "notice": "linkMMI is used to link a MoneyMarketInstance to its oracle in the oracle factory contract"
      },
      "viewUnderlyingAssetPriceOfwETH(address,uint256)": {
        "notice": "viewUnderlyingAssetPriceOfwETH allows for the price retrieval of a MoneyMarketInstances underlying asset in asset"
      },
      "viewUnderlyingPriceofAsset(address,uint256)": {
        "notice": "viewUnderlyingPriceofAsset allows for the price retrieval of a MoneyMarketInstances underlying asset without the gas cost of calculating with update"
      }
    },
    "notice": "The UniswapOracleFactory contract is designed to produce individual UniswapOracleInstance contracts This contract uses the OpenZeppelin contract Library to inherit functions from Ownable.sol*"
  }
}