{
  "contractName": "UniswapOracleFactory",
  "abi": [
    {
      "inputs": [
        {
          "internalType": "address",
          "name": "usdcAdd",
          "type": "address"
        },
        {
          "internalType": "address",
          "name": "_uniFactoryAdd",
          "type": "address"
        },
        {
          "internalType": "address",
          "name": "_router",
          "type": "address"
        }
      ],
      "stateMutability": "nonpayable",
      "type": "constructor"
    },
    {
      "anonymous": false,
      "inputs": [
        {
          "indexed": true,
          "internalType": "address",
          "name": "previousOwner",
          "type": "address"
        },
        {
          "indexed": true,
          "internalType": "address",
          "name": "newOwner",
          "type": "address"
        }
      ],
      "name": "OwnershipTransferred",
      "type": "event"
    },
    {
      "inputs": [],
      "name": "factory",
      "outputs": [
        {
          "internalType": "address",
          "name": "",
          "type": "address"
        }
      ],
      "stateMutability": "view",
      "type": "function",
      "constant": true
    },
    {
      "inputs": [
        {
          "internalType": "address",
          "name": "",
          "type": "address"
        }
      ],
      "name": "instanceTracker",
      "outputs": [
        {
          "internalType": "address",
          "name": "",
          "type": "address"
        }
      ],
      "stateMutability": "view",
      "type": "function",
      "constant": true
    },
    {
      "inputs": [],
      "name": "owner",
      "outputs": [
        {
          "internalType": "address",
          "name": "",
          "type": "address"
        }
      ],
      "stateMutability": "view",
      "type": "function",
      "constant": true
    },
    {
      "inputs": [],
      "name": "renounceOwnership",
      "outputs": [],
      "stateMutability": "nonpayable",
      "type": "function"
    },
    {
      "inputs": [
        {
          "internalType": "address",
          "name": "newOwner",
          "type": "address"
        }
      ],
      "name": "transferOwnership",
      "outputs": [],
      "stateMutability": "nonpayable",
      "type": "function"
    },
    {
      "inputs": [],
      "name": "uniswapRouter",
      "outputs": [
        {
          "internalType": "contract IUniswapV2Router02",
          "name": "",
          "type": "address"
        }
      ],
      "stateMutability": "view",
      "type": "function",
      "constant": true
    },
    {
      "inputs": [],
      "name": "uniswap_router_add",
      "outputs": [
        {
          "internalType": "address",
          "name": "",
          "type": "address"
        }
      ],
      "stateMutability": "view",
      "type": "function",
      "constant": true
    },
    {
      "inputs": [],
      "name": "usdc_add",
      "outputs": [
        {
          "internalType": "address",
          "name": "",
          "type": "address"
        }
      ],
      "stateMutability": "view",
      "type": "function",
      "constant": true
    },
    {
      "inputs": [
        {
          "internalType": "address",
          "name": "token",
          "type": "address"
        }
      ],
      "name": "createNewOracle",
      "outputs": [
        {
          "internalType": "address",
          "name": "",
          "type": "address"
        }
      ],
      "stateMutability": "nonpayable",
      "type": "function"
    },
    {
      "inputs": [
        {
          "internalType": "address",
          "name": "_MMI",
          "type": "address"
        },
        {
          "internalType": "address",
          "name": "_asset",
          "type": "address"
        }
      ],
      "name": "linkMMI",
      "outputs": [],
      "stateMutability": "nonpayable",
      "type": "function"
    },
    {
      "inputs": [
        {
          "internalType": "address",
          "name": "_MMI",
          "type": "address"
        },
        {
          "internalType": "uint256",
          "name": "_amount",
          "type": "uint256"
        }
      ],
      "name": "getUnderlyingPriceofAsset",
      "outputs": [
        {
          "internalType": "uint256",
          "name": "",
          "type": "uint256"
        }
      ],
      "stateMutability": "nonpayable",
      "type": "function"
    },
    {
      "inputs": [
        {
          "internalType": "address",
          "name": "_MMI",
          "type": "address"
        },
        {
          "internalType": "uint256",
          "name": "_amount",
          "type": "uint256"
        }
      ],
      "name": "viewUnderlyingPriceofAsset",
      "outputs": [
        {
          "internalType": "uint256",
          "name": "",
          "type": "uint256"
        }
      ],
      "stateMutability": "view",
      "type": "function",
      "constant": true
    },
    {
      "inputs": [
        {
          "internalType": "address",
          "name": "_MMI",
          "type": "address"
        },
        {
          "internalType": "uint256",
          "name": "_amount",
          "type": "uint256"
        }
      ],
      "name": "getUnderlyingAssetPriceOfUSDC",
      "outputs": [
        {
          "internalType": "uint256",
          "name": "",
          "type": "uint256"
        }
      ],
      "stateMutability": "nonpayable",
      "type": "function"
    },
    {
      "inputs": [
        {
          "internalType": "address",
          "name": "_tokenA",
          "type": "address"
        },
        {
          "internalType": "address",
          "name": "_tokenB",
          "type": "address"
        },
        {
          "internalType": "address",
          "name": "_to",
          "type": "address"
        },
        {
          "internalType": "uint256",
          "name": "_amountIn",
          "type": "uint256"
        },
        {
          "internalType": "uint256",
          "name": "_amountOutMin",
          "type": "uint256"
        }
      ],
      "name": "swapERC20",
      "outputs": [],
      "stateMutability": "nonpayable",
      "type": "function"
    }
  ],
  "bytecode": "0x608060405234801561001057600080fd5b5060405161211d38038061211d8339818101604052606081101561003357600080fd5b508051602082015160409092015190919060006100576001600160e01b036100f216565b600080546001600160a01b0319166001600160a01b0383169081178255604051929350917f8be0079c531659141344cd1fd0a4f28419497f9722a3daafe3b4186f6b6457e0908290a35060018054600480546001600160a01b038084166001600160a01b03199283161790925560028054821697831697909717909655600380548716958216959095179094559390931691161790556100f6565b3390565b612018806101056000396000f3fe60806040523480156200001157600080fd5b5060043610620000dc5760003560e01c80638da5cb5b11620000875780638da5cb5b14620001e15780639adc328b14620001eb578063a2672dee14620001f5578063c45a01551462000224578063f0defe93146200022e578063f2fde38b1462000273578063fff9ccde146200029c57620000dc565b80631be1d0b914620000e15780632fb2da6114620001145780633373a4471462000159578063715018a61462000182578063735de9f7146200018c57806381a61d7f14620001965780638c8b685114620001d7575b600080fd5b6200011260048036036040811015620000f957600080fd5b506001600160a01b0381358116916020013516620002cb565b005b6200013d600480360360208110156200012c57600080fd5b50356001600160a01b031662000305565b604080516001600160a01b039092168252519081900360200190f35b6200013d600480360360208110156200017157600080fd5b50356001600160a01b031662000402565b620001126200041d565b6200013d620004c3565b620001c560048036036040811015620001ae57600080fd5b506001600160a01b038135169060200135620004d2565b60408051918252519081900360200190f35b6200013d62000562565b6200013d62000571565b6200013d62000580565b620001c5600480360360408110156200020d57600080fd5b506001600160a01b0381351690602001356200058f565b6200013d620005ff565b62000112600480360360a08110156200024657600080fd5b506001600160a01b038135811691602081013582169160408201351690606081013590608001356200060e565b62000112600480360360208110156200028b57600080fd5b50356001600160a01b0316620007b2565b620001c560048036036040811015620002b457600080fd5b506001600160a01b038135169060200135620008b0565b6001600160a01b03908116600090815260056020526040808220549383168252902080546001600160a01b03191692909116919091179055565b6000620003116200090b565b6000546001600160a01b0390811691161462000363576040805162461bcd60e51b8152602060048201819052602482015260008051602062001fc3833981519152604482015290519081900360640190fd5b6003546002546040516000926001600160a01b039081169286929116906200038b9062000a3f565b6001600160a01b03938416815291831660208301529091166040808301919091525190819003606001906000f080158015620003cb573d6000803e3d6000fd5b506001600160a01b03938416600090815260056020526040902080546001600160a01b031916948216949094179093555090919050565b6005602052600090815260409020546001600160a01b031681565b620004276200090b565b6000546001600160a01b0390811691161462000479576040805162461bcd60e51b8152602060048201819052602482015260008051602062001fc3833981519152604482015290519081900360640190fd5b600080546040516001600160a01b03909116907f8be0079c531659141344cd1fd0a4f28419497f9722a3daafe3b4186f6b6457e0908390a3600080546001600160a01b0319169055565b6004546001600160a01b031681565b6001600160a01b03808316600090815260056020908152604080832054815163e865579f60e01b815260048101879052915193941692839263e865579f9260248082019391829003018186803b1580156200052c57600080fd5b505afa15801562000541573d6000803e3d6000fd5b505050506040513d60208110156200055857600080fd5b5051949350505050565b6001546001600160a01b031681565b6000546001600160a01b031690565b6002546001600160a01b031681565b6001600160a01b0380831660009081526005602090815260408083205481516361e25d8360e01b81526004810187905291519394169283926361e25d83926024808201939182900301818887803b158015620005ea57600080fd5b505af115801562000541573d6000803e3d6000fd5b6003546001600160a01b031681565b600454603c4201906001600160a01b03166338ed17398484620006328a8a6200090f565b88866040518663ffffffff1660e01b81526004018086815260200185815260200180602001846001600160a01b03166001600160a01b03168152602001838152602001828103825285818151815260200191508051906020019060200280838360005b83811015620006af57818101518382015260200162000695565b505050509050019650505050505050600060405180830381600087803b158015620006d957600080fd5b505af1158015620006ee573d6000803e3d6000fd5b505050506040513d6000823e601f3d908101601f1916820160405260208110156200071857600080fd5b81019080805160405193929190846401000000008211156200073957600080fd5b9083019060208201858111156200074f57600080fd5b82518660208202830111640100000000821117156200076d57600080fd5b82525081516020918201928201910280838360005b838110156200079c57818101518382015260200162000782565b5050505090500160405250505050505050505050565b620007bc6200090b565b6000546001600160a01b039081169116146200080e576040805162461bcd60e51b8152602060048201819052602482015260008051602062001fc3833981519152604482015290519081900360640190fd5b6001600160a01b038116620008555760405162461bcd60e51b815260040180806020018281038252602681526020018062001f9d6026913960400191505060405180910390fd5b600080546040516001600160a01b03808516939216917f8be0079c531659141344cd1fd0a4f28419497f9722a3daafe3b4186f6b6457e091a3600080546001600160a01b0319166001600160a01b0392909216919091179055565b6001600160a01b038083166000908152600560209081526040808320548151630c644d2960e01b8152600481018790529151939416928392630c644d29926024808201939182900301818887803b158015620005ea57600080fd5b3390565b6040805160038082526080820190925260609182919060208201838036833701905050905083816000815181106200094357fe5b60200260200101906001600160a01b031690816001600160a01b031681525050600460009054906101000a90046001600160a01b03166001600160a01b031663ad5c46486040518163ffffffff1660e01b815260040160206040518083038186803b158015620009b257600080fd5b505afa158015620009c7573d6000803e3d6000fd5b505050506040513d6020811015620009de57600080fd5b5051815182906001908110620009f057fe5b60200260200101906001600160a01b031690816001600160a01b031681525050828160028151811062000a1f57fe5b6001600160a01b0390921660209283029190910190910152905092915050565b61154f8062000a4e8339019056fe60806040523480156200001157600080fd5b506040516200154f3803806200154f833981810160405260608110156200003757600080fd5b508051602082015160409092015190919060006200005d6001600160e01b036200040016565b600080546001600160a01b0319166001600160a01b0383169081178255604051929350917f8be0079c531659141344cd1fd0a4f28419497f9722a3daafe3b4186f6b6457e0908290a3506000620000c18484846200040460201b620009421760201c565b905080600160006101000a8154816001600160a01b0302191690836001600160a01b03160217905550806001600160a01b0316630dfe16816040518163ffffffff1660e01b815260040160206040518083038186803b1580156200012457600080fd5b505afa15801562000139573d6000803e3d6000fd5b505050506040513d60208110156200015057600080fd5b5051600280546001600160a01b0319166001600160a01b039283161790556040805163d21220a760e01b815290519183169163d21220a791600480820192602092909190829003018186803b158015620001a957600080fd5b505afa158015620001be573d6000803e3d6000fd5b505050506040513d6020811015620001d557600080fd5b5051600380546001600160a01b0319166001600160a01b0392831617905560408051635909c0d560e01b8152905191831691635909c0d591600480820192602092909190829003018186803b1580156200022e57600080fd5b505afa15801562000243573d6000803e3d6000fd5b505050506040513d60208110156200025a57600080fd5b5051600490815560408051635a3d549360e01b815290516001600160a01b03841692635a3d549392808201926020929091829003018186803b158015620002a057600080fd5b505afa158015620002b5573d6000803e3d6000fd5b505050506040513d6020811015620002cc57600080fd5b505160055560408051630240bc6b60e21b8152905160009182916001600160a01b03851691630902f1ac916004808301926060929190829003018186803b1580156200031757600080fd5b505afa1580156200032c573d6000803e3d6000fd5b505050506040513d60608110156200034357600080fd5b50805160208201516040909201516007805463ffffffff191663ffffffff909216919091179055925090506001600160701b038216158015906200038f57506001600160701b03811615155b620003e1576040805162461bcd60e51b815260206004820181905260248201527f4578616d706c654f7261636c6553696d706c653a204e4f5f5245534552564553604482015290519081900360640190fd5b620003f46001600160e01b03620004e116565b50505050505062000996565b3390565b600080806200041d85856001600160e01b03620005e716565b604080516001600160601b0319606094851b811660208084019190915293851b81166034830152825160288184030181526048830184528051908501207fff0000000000000000000000000000000000000000000000000000000000000060688401529a90941b9093166069840152607d8301989098527f96e8ac4277198ff8b6f785478aa9a39f403cb768dd02cbee326c3e7da348845f609d808401919091528851808403909101815260bd909201909752805196019590952095945050505050565b600080600062000511600160009054906101000a90046001600160a01b0316620006ca60201b620006a11760201c565b600754929550909350915063ffffffff9081168203906201518090821610620005e15760405180602001604052808263ffffffff166004548703816200055357fe5b046001600160e01b039081169091529051600880546001600160e01b031916919092161790556040805160208101909152600554819063ffffffff8416908603816200059b57fe5b046001600160e01b039081169091529051600980546001600160e01b03191691909216179055600484905560058390556007805463ffffffff191663ffffffff84161790555b50505050565b600080826001600160a01b0316846001600160a01b031614156200063d5760405162461bcd60e51b81526004018080602001828103825260258152602001806200152a6025913960400191505060405180910390fd5b826001600160a01b0316846001600160a01b0316106200065f57828462000662565b83835b90925090506001600160a01b038216620006c3576040805162461bcd60e51b815260206004820152601e60248201527f556e697377617056324c6962726172793a205a45524f5f414444524553530000604482015290519081900360640190fd5b9250929050565b60008080620006e16001600160e01b03620008cd16565b9050836001600160a01b0316635909c0d56040518163ffffffff1660e01b815260040160206040518083038186803b1580156200071d57600080fd5b505afa15801562000732573d6000803e3d6000fd5b505050506040513d60208110156200074957600080fd5b505160408051635a3d549360e01b815290519194506001600160a01b03861691635a3d549391600480820192602092909190829003018186803b1580156200079057600080fd5b505afa158015620007a5573d6000803e3d6000fd5b505050506040513d6020811015620007bc57600080fd5b505160408051630240bc6b60e21b81529051919350600091829182916001600160a01b03891691630902f1ac916004808301926060929190829003018186803b1580156200080957600080fd5b505afa1580156200081e573d6000803e3d6000fd5b505050506040513d60608110156200083557600080fd5b5080516020820151604090920151909450909250905063ffffffff80821690851614620008c357600081850390508063ffffffff16620008818486620008d760201b6200087a1760201c565b600001516001600160e01b031602870196508063ffffffff16620008b18585620008d760201b6200087a1760201c565b516001600160e01b0316029590950194505b5050509193909250565b63ffffffff421690565b620008e162000984565b6000826001600160701b03161162000940576040805162461bcd60e51b815260206004820152601760248201527f4669786564506f696e743a204449565f42595f5a45524f000000000000000000604482015290519081900360640190fd5b6040805160208101909152806001600160701b038416600160701b600160e01b03607087901b16816200096f57fe5b046001600160e01b0316815250905092915050565b60408051602081019091526000815290565b610b8480620009a66000396000f3fe608060405234801561001057600080fd5b50600436106100eb5760003560e01c8063a2e6204511610092578063a2e62045146101a6578063a6bb4539146101ae578063a8aa1b31146101b6578063b4d1d795146101be578063b5b24fd4146101c6578063c5700a02146101ce578063d21220a7146101ef578063e865579f146101f7578063f2fde38b14610214576100eb565b80630c644d29146100f05780630dfe16811461011f5780635909c0d5146101435780635a3d54931461014b5780635e6aaf2c1461015357806361e25d8314610177578063715018a6146101945780638da5cb5b1461019e575b600080fd5b61010d6004803603602081101561010657600080fd5b503561023a565b60408051918252519081900360200190f35b610127610285565b604080516001600160a01b039092168252519081900360200190f35b61010d610294565b61010d61029a565b61015b6102a0565b604080516001600160e01b039092168252519081900360200190f35b61010d6004803603602081101561018d57600080fd5b50356102af565b61019c6102e6565b005b61012761039a565b61019c6103a9565b61015b610498565b6101276104a7565b61010d6104b6565b61010d6104bd565b6101d66104c3565b6040805163ffffffff9092168252519081900360200190f35b6101276104cf565b61010d6004803603602081101561020d57600080fd5b50356104de565b61019c6004803603602081101561022a57600080fd5b50356001600160a01b031661050e565b60006102446103a9565b60408051602081019091526009546001600160e01b0316815261027690610271908463ffffffff61061816565b610696565b6001600160901b031692915050565b6002546001600160a01b031681565b60045481565b60055481565b6009546001600160e01b031681565b60006102b96103a9565b60408051602081019091526008546001600160e01b0316815261027690610271908463ffffffff61061816565b6102ee61069d565b6000546001600160a01b03908116911614610350576040805162461bcd60e51b815260206004820181905260248201527f4f776e61626c653a2063616c6c6572206973206e6f7420746865206f776e6572604482015290519081900360640190fd5b600080546040516001600160a01b03909116907f8be0079c531659141344cd1fd0a4f28419497f9722a3daafe3b4186f6b6457e0908390a3600080546001600160a01b0319169055565b6000546001600160a01b031690565b600154600090819081906103c5906001600160a01b03166106a1565b600754929550909350915063ffffffff90811682039062015180908216106104925760405180602001604052808263ffffffff1660045487038161040557fe5b046001600160e01b039081169091529051600880546001600160e01b031916919092161790556040805160208101909152600554819063ffffffff84169086038161044c57fe5b046001600160e01b039081169091529051600980546001600160e01b03191691909216179055600484905560058390556007805463ffffffff191663ffffffff84161790555b50505050565b6008546001600160e01b031681565b6001546001600160a01b031681565b6201518081565b60065481565b60075463ffffffff1681565b6003546001600160a01b031681565b60408051602081019091526008546001600160e01b0316815260009061027690610271908463ffffffff61061816565b61051661069d565b6000546001600160a01b03908116911614610578576040805162461bcd60e51b815260206004820181905260248201527f4f776e61626c653a2063616c6c6572206973206e6f7420746865206f776e6572604482015290519081900360640190fd5b6001600160a01b0381166105bd5760405162461bcd60e51b8152600401808060200182810382526026815260200180610ae16026913960400191505060405180910390fd5b600080546040516001600160a01b03808516939216917f8be0079c531659141344cd1fd0a4f28419497f9722a3daafe3b4186f6b6457e091a3600080546001600160a01b0319166001600160a01b0392909216919091179055565b61062061091d565b600082158061064657505082516001600160e01b03168281029083828161064357fe5b04145b6106815760405162461bcd60e51b8152600401808060200182810382526023815260200180610b2c6023913960400191505060405180910390fd5b60408051602081019091529081529392505050565b5160701c90565b3390565b60008060006106ae610870565b9050836001600160a01b0316635909c0d56040518163ffffffff1660e01b815260040160206040518083038186803b1580156106e957600080fd5b505afa1580156106fd573d6000803e3d6000fd5b505050506040513d602081101561071357600080fd5b505160408051635a3d549360e01b815290519194506001600160a01b03861691635a3d549391600480820192602092909190829003018186803b15801561075957600080fd5b505afa15801561076d573d6000803e3d6000fd5b505050506040513d602081101561078357600080fd5b505160408051630240bc6b60e21b81529051919350600091829182916001600160a01b03891691630902f1ac916004808301926060929190829003018186803b1580156107cf57600080fd5b505afa1580156107e3573d6000803e3d6000fd5b505050506040513d60608110156107f957600080fd5b5080516020820151604090920151909450909250905063ffffffff808216908516146108665780840363ffffffff8116610833848661087a565b516001600160e01b031602969096019563ffffffff8116610854858561087a565b516001600160e01b0316029590950194505b5050509193909250565b63ffffffff421690565b610882610930565b6000826001600160701b0316116108da576040805162461bcd60e51b81526020600482015260176024820152764669786564506f696e743a204449565f42595f5a45524f60481b604482015290519081900360640190fd5b6040805160208101909152806001600160701b038416600160701b600160e01b03607087901b168161090857fe5b046001600160e01b0316815250905092915050565b6040518060200160405280600081525090565b60408051602081019091526000815290565b60008060006109518585610a02565b604080516bffffffffffffffffffffffff19606094851b811660208084019190915293851b81166034830152825160288184030181526048830184528051908501206001600160f81b031960688401529a90941b9093166069840152607d8301989098527f96e8ac4277198ff8b6f785478aa9a39f403cb768dd02cbee326c3e7da348845f609d808401919091528851808403909101815260bd909201909752805196019590952095945050505050565b600080826001600160a01b0316846001600160a01b03161415610a565760405162461bcd60e51b8152600401808060200182810382526025815260200180610b076025913960400191505060405180910390fd5b826001600160a01b0316846001600160a01b031610610a76578284610a79565b83835b90925090506001600160a01b038216610ad9576040805162461bcd60e51b815260206004820152601e60248201527f556e697377617056324c6962726172793a205a45524f5f414444524553530000604482015290519081900360640190fd5b925092905056fe4f776e61626c653a206e6577206f776e657220697320746865207a65726f2061646472657373556e697377617056324c6962726172793a204944454e544943414c5f4144445245535345534669786564506f696e743a204d554c5449504c49434154494f4e5f4f564552464c4f57a2646970667358221220b60485c65009807a5f411dbc94984650d1e28f13c4ae17df24a5833cfa6d4ff764736f6c63430006060033556e697377617056324c6962726172793a204944454e544943414c5f4144445245535345534f776e61626c653a206e6577206f776e657220697320746865207a65726f20616464726573734f776e61626c653a2063616c6c6572206973206e6f7420746865206f776e6572a26469706673582212200fdc06d78a0817f92d7e907d20e9001f168ebebc80bcfb829455ab911de1b6ed64736f6c63430006060033",
  "immutableReferences": {},
  "source": "pragma solidity ^0.6.2;\n\nimport \"@openzeppelin/contracts/access/Ownable.sol\";\nimport \"@uniswap/v2-periphery/contracts/UniswapV2Router02.sol\";\nimport \"./UniswapOracleInstance.sol\";\n\n////////////////////////////////////////////////////////////////////////////////////////////\n/// @title UniswapOracleFactory\n/// @author Christopher Dixon\n////////////////////////////////////////////////////////////////////////////////////////////\n/**\nThe UniswapOracleFactory contract is designed to produce individual UniswapOracleInstance contracts\nThis contract uses the OpenZeppelin contract Library to inherit functions from\n  Ownable.sol\n**/\n\ncontract UniswapOracleFactory is Ownable {\n    address public uniswap_router_add;\n    address public usdc_add;\n    address public factory;\n    IUniswapV2Router02 public uniswapRouter;\n\n    mapping(address => address) public instanceTracker; //maps erc20 address to the assets MoneyMarketInstance\n\n    /**\n@notice constructor function is fired once during contract creation. This constructor initializes uniswapRouter\n        as a usable contract instance within the UniswapOracleFactory\n@param usdcAdd is the address of the ERC20 USDC address\n@param _uniFactoryAdd is the address of the uniswap factory contract\n**/\n    constructor(\n        address usdcAdd,\n        address _uniFactoryAdd,\n        address _router\n    ) public {\n        uniswapRouter = IUniswapV2Router02(uniswap_router_add);\n        usdc_add = usdcAdd;\n        factory = _uniFactoryAdd;\n        uniswap_router_add = _router;\n    }\n\n    /**\n  @notice createNewOracle allows the owner of this contract to deploy a new oracle contract when\n          a new asset is whitelisted\n  @param token is the address of the token that this oracle will provide a USDC price feed for\n  **/\n    function createNewOracle(address token) public onlyOwner returns (address) {\n        address _oracle = address(\n            new UniswapOracleInstance(factory, token, usdc_add)\n        );\n        instanceTracker[token] = _oracle;\n        return _oracle;\n    }\n\n    /**\n@notice linkMMI is used to link a MoneyMarketInstance to its oracle in the oracle factory contract\n@param _MMI is the address of the MoneyMarketInstance\n@param _asset is the address of the MoneyMarketInstancesunderlying asset\n**/\n    function linkMMI(address _MMI, address _asset) public {\n        address oracle = instanceTracker[_asset];\n        instanceTracker[_MMI] = oracle;\n    }\n\n    /**\n@notice getUnderlyingPriceofAsset allows for the price retrieval of a MoneyMarketInstances underlying asset\n@param _MMI is the address of the MoneyMarketInstance whos asset price is being retrieved\n@return returns the price of the asset\n**/\n    function getUnderlyingPriceofAsset(address _MMI, uint256 _amount)\n        public\n        returns (uint256)\n    {\n        UniswapOracleInstance oracle = UniswapOracleInstance(\n            instanceTracker[_MMI]\n        );\n        return oracle.consult(_amount);\n    }\n\n    /**\n    @notice viewUnderlyingPriceofAsset allows for the price retrieval of a MoneyMarketInstances underlying asset without the gas cost of calculating with update\n    @param _MMI is the address of the MoneyMarketInstance whos asset price is being retrieved\n    @return returns the price of the asset\n    **/\n    function viewUnderlyingPriceofAsset(address _MMI, uint256 _amount)\n        public\n        view\n        returns (uint256)\n    {\n        UniswapOracleInstance oracle = UniswapOracleInstance(\n            instanceTracker[_MMI]\n        );\n        return oracle.viewPrice(_amount);\n    }\n\n    /**\n@notice getUnderlyingAssetPriceOfUSDC allows for the price retrieval of a MoneyMarketInstances underlying asset in asset\n@param _MMI is the address of the MoneyMarketInstance whos asset price is being retrieved\n@return returns the price of the asset\n**/\n    function getUnderlyingAssetPriceOfUSDC(address _MMI, uint256 _amount)\n        public\n        returns (uint256)\n    {\n        UniswapOracleInstance oracle = UniswapOracleInstance(\n            instanceTracker[_MMI]\n        );\n        return oracle.consultUSDC(_amount);\n    }\n\n    /**\n@notice getPathForERC20Swap is an internal function used to create a uniswap trade path for two input\n        ERC20 tokens using WETH as a medium of exchange.\n@param _tokenA is the address of the token being exchanged from\n@param _tokenB is the address of the token being exchanged to\n@dev example: LINK => Augur swap _tokenA would be LINK address while _tokenB would be Augur Address\n**/\n    function getPathForERC20Swap(address _tokenA, address _tokenB)\n        private\n        view\n        returns (address[] memory)\n    {\n        address[] memory path = new address[](3);\n        path[0] = _tokenA;\n        path[1] = uniswapRouter.WETH();\n        path[2] = _tokenB;\n\n        return path;\n    }\n\n    /**\n@notice swapERC20 is an external function that swaps one ERC20 token for another\n        using WETH as a medium of exchange.\n@param _tokenA is the address of the token being exchanged from\n@param _tokenB is the address of the token being exchanged to\n@param _to is the address of the MoneyMarketInstance calling this function\n@param _amountIn is the amount of _tokenA being exchanged\n@param _amountOutMin is the minimum amount of _tokenB to be received\n@dev example: LINK => Augur swap _tokenA would be LINK address while _tokenB would be Augur Address\n@dev _amountOutMin will need to be atleast enough to cover the cost of collateral liquidation\n      (loan amount +i nterest) and its liquidation fee amount.\n**/\n    function swapERC20(\n        address _tokenA,\n        address _tokenB,\n        address _to,\n        uint256 _amountIn,\n        uint256 _amountOutMin\n    ) external {\n        uint256 deadline = block.timestamp + 60;\n        uniswapRouter.swapExactTokensForTokens(\n            _amountIn,\n            _amountOutMin,\n            getPathForERC20Swap(_tokenA, _tokenB),\n            _to,\n            deadline\n        );\n    }\n}\n",
  "sourcePath": "/home/stan36/repos/Askolend/AskoLend-contracts/contracts/UniswapOracleFactory.sol",
  "compiler": {
    "name": "solc",
    "version": "0.6.6+commit.6c089d02.Emscripten.clang"
  },
  "schemaVersion": "3.3.2",
  "updatedAt": "2020-12-02T20:13:53.921Z",
  "networkType": "ethereum",
  "devdoc": {
    "methods": {
      "constructor": {
        "params": {
          "_uniFactoryAdd": "is the address of the uniswap factory contract*",
          "usdcAdd": "is the address of the ERC20 USDC address"
        }
      },
      "createNewOracle(address)": {
        "params": {
          "token": "is the address of the token that this oracle will provide a USDC price feed for*"
        }
      },
      "getUnderlyingAssetPriceOfUSDC(address,uint256)": {
        "params": {
          "_MMI": "is the address of the MoneyMarketInstance whos asset price is being retrieved"
        },
        "returns": {
          "_0": "returns the price of the asset*"
        }
      },
      "getUnderlyingPriceofAsset(address,uint256)": {
        "params": {
          "_MMI": "is the address of the MoneyMarketInstance whos asset price is being retrieved"
        },
        "returns": {
          "_0": "returns the price of the asset*"
        }
      },
      "linkMMI(address,address)": {
        "params": {
          "_MMI": "is the address of the MoneyMarketInstance",
          "_asset": "is the address of the MoneyMarketInstancesunderlying asset*"
        }
      },
      "owner()": {
        "details": "Returns the address of the current owner."
      },
      "renounceOwnership()": {
        "details": "Leaves the contract without owner. It will not be possible to call `onlyOwner` functions anymore. Can only be called by the current owner.     * NOTE: Renouncing ownership will leave the contract without an owner, thereby removing any functionality that is only available to the owner."
      },
      "swapERC20(address,address,address,uint256,uint256)": {
        "details": "example: LINK => Augur swap _tokenA would be LINK address while _tokenB would be Augur Address_amountOutMin will need to be atleast enough to cover the cost of collateral liquidation (loan amount +i nterest) and its liquidation fee amount.*",
        "params": {
          "_amountIn": "is the amount of _tokenA being exchanged",
          "_amountOutMin": "is the minimum amount of _tokenB to be received",
          "_to": "is the address of the MoneyMarketInstance calling this function",
          "_tokenA": "is the address of the token being exchanged from",
          "_tokenB": "is the address of the token being exchanged to"
        }
      },
      "transferOwnership(address)": {
        "details": "Transfers ownership of the contract to a new account (`newOwner`). Can only be called by the current owner."
      },
      "viewUnderlyingPriceofAsset(address,uint256)": {
        "params": {
          "_MMI": "is the address of the MoneyMarketInstance whos asset price is being retrieved"
        },
        "returns": {
          "_0": "returns the price of the asset*"
        }
      }
    }
  },
  "userdoc": {
    "methods": {
      "constructor": "constructor function is fired once during contract creation. This constructor initializes uniswapRouter as a usable contract instance within the UniswapOracleFactory",
      "createNewOracle(address)": {
        "notice": "createNewOracle allows the owner of this contract to deploy a new oracle contract when a new asset is whitelisted"
      },
      "getUnderlyingAssetPriceOfUSDC(address,uint256)": {
        "notice": "getUnderlyingAssetPriceOfUSDC allows for the price retrieval of a MoneyMarketInstances underlying asset in asset"
      },
      "getUnderlyingPriceofAsset(address,uint256)": {
        "notice": "getUnderlyingPriceofAsset allows for the price retrieval of a MoneyMarketInstances underlying asset"
      },
      "linkMMI(address,address)": {
        "notice": "linkMMI is used to link a MoneyMarketInstance to its oracle in the oracle factory contract"
      },
      "swapERC20(address,address,address,uint256,uint256)": {
        "notice": "swapERC20 is an external function that swaps one ERC20 token for another using WETH as a medium of exchange."
      },
      "viewUnderlyingPriceofAsset(address,uint256)": {
        "notice": "viewUnderlyingPriceofAsset allows for the price retrieval of a MoneyMarketInstances underlying asset without the gas cost of calculating with update"
      }
    },
    "notice": "The UniswapOracleFactory contract is designed to produce individual UniswapOracleInstance contracts This contract uses the OpenZeppelin contract Library to inherit functions from Ownable.sol*"
  }
}