{
  "contractName": "UniswapOracleFactory",
  "abi": [
    {
      "inputs": [
        {
          "internalType": "address",
          "name": "usdcAdd",
          "type": "address"
        },
        {
          "internalType": "address",
          "name": "_uniFactoryAdd",
          "type": "address"
        }
      ],
      "stateMutability": "nonpayable",
      "type": "constructor"
    },
    {
      "anonymous": false,
      "inputs": [
        {
          "indexed": true,
          "internalType": "address",
          "name": "previousOwner",
          "type": "address"
        },
        {
          "indexed": true,
          "internalType": "address",
          "name": "newOwner",
          "type": "address"
        }
      ],
      "name": "OwnershipTransferred",
      "type": "event"
    },
    {
      "inputs": [],
      "name": "factory",
      "outputs": [
        {
          "internalType": "address",
          "name": "",
          "type": "address"
        }
      ],
      "stateMutability": "view",
      "type": "function",
      "constant": true
    },
    {
      "inputs": [
        {
          "internalType": "address",
          "name": "",
          "type": "address"
        }
      ],
      "name": "instanceTracker",
      "outputs": [
        {
          "internalType": "address",
          "name": "",
          "type": "address"
        }
      ],
      "stateMutability": "view",
      "type": "function",
      "constant": true
    },
    {
      "inputs": [],
      "name": "owner",
      "outputs": [
        {
          "internalType": "address",
          "name": "",
          "type": "address"
        }
      ],
      "stateMutability": "view",
      "type": "function",
      "constant": true
    },
    {
      "inputs": [],
      "name": "renounceOwnership",
      "outputs": [],
      "stateMutability": "nonpayable",
      "type": "function"
    },
    {
      "inputs": [
        {
          "internalType": "address",
          "name": "newOwner",
          "type": "address"
        }
      ],
      "name": "transferOwnership",
      "outputs": [],
      "stateMutability": "nonpayable",
      "type": "function"
    },
    {
      "inputs": [],
      "name": "uniswapRouter",
      "outputs": [
        {
          "internalType": "contract IUniswapV2Router02",
          "name": "",
          "type": "address"
        }
      ],
      "stateMutability": "view",
      "type": "function",
      "constant": true
    },
    {
      "inputs": [],
      "name": "uniswap_router_add",
      "outputs": [
        {
          "internalType": "address",
          "name": "",
          "type": "address"
        }
      ],
      "stateMutability": "view",
      "type": "function",
      "constant": true
    },
    {
      "inputs": [],
      "name": "usdc_add",
      "outputs": [
        {
          "internalType": "address",
          "name": "",
          "type": "address"
        }
      ],
      "stateMutability": "view",
      "type": "function",
      "constant": true
    },
    {
      "inputs": [
        {
          "internalType": "address",
          "name": "token",
          "type": "address"
        }
      ],
      "name": "createNewOracle",
      "outputs": [
        {
          "internalType": "address",
          "name": "",
          "type": "address"
        }
      ],
      "stateMutability": "nonpayable",
      "type": "function"
    },
    {
      "inputs": [
        {
          "internalType": "address",
          "name": "_MMI",
          "type": "address"
        },
        {
          "internalType": "address",
          "name": "_asset",
          "type": "address"
        }
      ],
      "name": "linkMMI",
      "outputs": [],
      "stateMutability": "nonpayable",
      "type": "function"
    },
    {
      "inputs": [
        {
          "internalType": "address",
          "name": "_MMI",
          "type": "address"
        }
      ],
      "name": "getUnderlyingPrice",
      "outputs": [
        {
          "internalType": "uint256",
          "name": "",
          "type": "uint256"
        }
      ],
      "stateMutability": "nonpayable",
      "type": "function"
    },
    {
      "inputs": [
        {
          "internalType": "address",
          "name": "_tokenA",
          "type": "address"
        },
        {
          "internalType": "address",
          "name": "_tokenB",
          "type": "address"
        },
        {
          "internalType": "address",
          "name": "_to",
          "type": "address"
        },
        {
          "internalType": "uint256",
          "name": "_amountIn",
          "type": "uint256"
        },
        {
          "internalType": "uint256",
          "name": "_amountOutMin",
          "type": "uint256"
        }
      ],
      "name": "swapERC20",
      "outputs": [],
      "stateMutability": "nonpayable",
      "type": "function"
    }
  ],
  "bytecode": "0x6080604052600180546001600160a01b031916737a250d5630b4cf539739df2c5dacb4c659f2488d17905534801561003657600080fd5b50604051611e97380380611e978339818101604052604081101561005957600080fd5b50805160209091015160006100756001600160e01b0361010216565b600080546001600160a01b0319166001600160a01b0383169081178255604051929350917f8be0079c531659141344cd1fd0a4f28419497f9722a3daafe3b4186f6b6457e0908290a350600154600480546001600160a01b039283166001600160a01b03199182161790915560028054821694831694909417909355600380549093169116179055610106565b3390565b611d82806101156000396000f3fe60806040523480156200001157600080fd5b5060043610620000c45760003560e01c80638da5cb5b116200007b5780638da5cb5b14620001885780639adc328b1462000192578063c45a0155146200019c578063f0defe9314620001a6578063f2fde38b14620001eb578063fc57d4df146200021457620000c4565b80631be1d0b914620000c95780632fb2da6114620000fc5780633373a4471462000141578063715018a6146200016a578063735de9f714620001745780638c8b6851146200017e575b600080fd5b620000fa60048036036040811015620000e157600080fd5b506001600160a01b03813581169160200135166200024f565b005b62000125600480360360208110156200011457600080fd5b50356001600160a01b031662000289565b604080516001600160a01b039092168252519081900360200190f35b62000125600480360360208110156200015957600080fd5b50356001600160a01b031662000386565b620000fa620003a1565b6200012562000447565b6200012562000456565b6200012562000465565b6200012562000474565b6200012562000483565b620000fa600480360360a0811015620001be57600080fd5b506001600160a01b0381358116916020810135821691604082013516906060810135906080013562000492565b620000fa600480360360208110156200020357600080fd5b50356001600160a01b031662000636565b6200023d600480360360208110156200022c57600080fd5b50356001600160a01b031662000734565b60408051918252519081900360200190f35b6001600160a01b03908116600090815260056020526040808220549383168252902080546001600160a01b03191692909116919091179055565b600062000295620007bd565b6000546001600160a01b03908116911614620002e7576040805162461bcd60e51b8152602060048201819052602482015260008051602062001d2d833981519152604482015290519081900360640190fd5b6003546002546040516000926001600160a01b039081169286929116906200030f90620008f1565b6001600160a01b03938416815291831660208301529091166040808301919091525190819003606001906000f0801580156200034f573d6000803e3d6000fd5b506001600160a01b03938416600090815260056020526040902080546001600160a01b031916948216949094179093555090919050565b6005602052600090815260409020546001600160a01b031681565b620003ab620007bd565b6000546001600160a01b03908116911614620003fd576040805162461bcd60e51b8152602060048201819052602482015260008051602062001d2d833981519152604482015290519081900360640190fd5b600080546040516001600160a01b03909116907f8be0079c531659141344cd1fd0a4f28419497f9722a3daafe3b4186f6b6457e0908390a3600080546001600160a01b0319169055565b6004546001600160a01b031681565b6001546001600160a01b031681565b6000546001600160a01b031690565b6002546001600160a01b031681565b6003546001600160a01b031681565b600454603c4201906001600160a01b03166338ed17398484620004b68a8a620007c1565b88866040518663ffffffff1660e01b81526004018086815260200185815260200180602001846001600160a01b03166001600160a01b03168152602001838152602001828103825285818151815260200191508051906020019060200280838360005b838110156200053357818101518382015260200162000519565b505050509050019650505050505050600060405180830381600087803b1580156200055d57600080fd5b505af115801562000572573d6000803e3d6000fd5b505050506040513d6000823e601f3d908101601f1916820160405260208110156200059c57600080fd5b8101908080516040519392919084640100000000821115620005bd57600080fd5b908301906020820185811115620005d357600080fd5b8251866020820283011164010000000082111715620005f157600080fd5b82525081516020918201928201910280838360005b838110156200062057818101518382015260200162000606565b5050505090500160405250505050505050505050565b62000640620007bd565b6000546001600160a01b0390811691161462000692576040805162461bcd60e51b8152602060048201819052602482015260008051602062001d2d833981519152604482015290519081900360640190fd5b6001600160a01b038116620006d95760405162461bcd60e51b815260040180806020018281038252602681526020018062001d076026913960400191505060405180910390fd5b600080546040516001600160a01b03808516939216917f8be0079c531659141344cd1fd0a4f28419497f9722a3daafe3b4186f6b6457e091a3600080546001600160a01b0319166001600160a01b0392909216919091179055565b6001600160a01b038082166000908152600560209081526040808320548151637eeda70360e01b81529151939416928392637eeda703926004808201939182900301818887803b1580156200078857600080fd5b505af11580156200079d573d6000803e3d6000fd5b505050506040513d6020811015620007b457600080fd5b50519392505050565b3390565b604080516003808252608082019092526060918291906020820183803683370190505090508381600081518110620007f557fe5b60200260200101906001600160a01b031690816001600160a01b031681525050600460009054906101000a90046001600160a01b03166001600160a01b031663ad5c46486040518163ffffffff1660e01b815260040160206040518083038186803b1580156200086457600080fd5b505afa15801562000879573d6000803e3d6000fd5b505050506040513d60208110156200089057600080fd5b5051815182906001908110620008a257fe5b60200260200101906001600160a01b031690816001600160a01b0316815250508281600281518110620008d157fe5b6001600160a01b0390921660209283029190910190910152905092915050565b61140780620009008339019056fe60806040523480156200001157600080fd5b506040516200140738038062001407833981810160405260608110156200003757600080fd5b508051602082015160409092015190919060006200005d6001600160e01b036200038416565b600080546001600160a01b0319166001600160a01b0383169081178255604051929350917f8be0079c531659141344cd1fd0a4f28419497f9722a3daafe3b4186f6b6457e0908290a3506000620000c18484846200038860201b620008761760201c565b905080600160006101000a8154816001600160a01b0302191690836001600160a01b03160217905550806001600160a01b0316630dfe16816040518163ffffffff1660e01b815260040160206040518083038186803b1580156200012457600080fd5b505afa15801562000139573d6000803e3d6000fd5b505050506040513d60208110156200015057600080fd5b5051600280546001600160a01b0319166001600160a01b039283161790556040805163d21220a760e01b815290519183169163d21220a791600480820192602092909190829003018186803b158015620001a957600080fd5b505afa158015620001be573d6000803e3d6000fd5b505050506040513d6020811015620001d557600080fd5b5051600380546001600160a01b0319166001600160a01b0392831617905560408051635909c0d560e01b8152905191831691635909c0d591600480820192602092909190829003018186803b1580156200022e57600080fd5b505afa15801562000243573d6000803e3d6000fd5b505050506040513d60208110156200025a57600080fd5b5051600490815560408051635a3d549360e01b815290516001600160a01b03841692635a3d549392808201926020929091829003018186803b158015620002a057600080fd5b505afa158015620002b5573d6000803e3d6000fd5b505050506040513d6020811015620002cc57600080fd5b505160055560408051630240bc6b60e21b8152905160009182916001600160a01b03851691630902f1ac916004808301926060929190829003018186803b1580156200031757600080fd5b505afa1580156200032c573d6000803e3d6000fd5b505050506040513d60608110156200034357600080fd5b50805160208201516040909201516007805463ffffffff191663ffffffff909216919091179055925090506200037862000465565b5050505050506200091a565b3390565b60008080620003a185856001600160e01b036200056b16565b604080516001600160601b0319606094851b811660208084019190915293851b81166034830152825160288184030181526048830184528051908501207fff0000000000000000000000000000000000000000000000000000000000000060688401529a90941b9093166069840152607d8301989098527f96e8ac4277198ff8b6f785478aa9a39f403cb768dd02cbee326c3e7da348845f609d808401919091528851808403909101815260bd909201909752805196019590952095945050505050565b600080600062000495600160009054906101000a90046001600160a01b03166200064e60201b620005d51760201c565b600754929550909350915063ffffffff9081168203906201518090821610620005655760405180602001604052808263ffffffff16600454870381620004d757fe5b046001600160e01b039081169091529051600880546001600160e01b031916919092161790556040805160208101909152600554819063ffffffff8416908603816200051f57fe5b046001600160e01b039081169091529051600980546001600160e01b03191691909216179055600484905560058390556007805463ffffffff191663ffffffff84161790555b50505050565b600080826001600160a01b0316846001600160a01b03161415620005c15760405162461bcd60e51b8152600401808060200182810382526025815260200180620013e26025913960400191505060405180910390fd5b826001600160a01b0316846001600160a01b031610620005e3578284620005e6565b83835b90925090506001600160a01b03821662000647576040805162461bcd60e51b815260206004820152601e60248201527f556e697377617056324c6962726172793a205a45524f5f414444524553530000604482015290519081900360640190fd5b9250929050565b60008080620006656001600160e01b036200085116565b9050836001600160a01b0316635909c0d56040518163ffffffff1660e01b815260040160206040518083038186803b158015620006a157600080fd5b505afa158015620006b6573d6000803e3d6000fd5b505050506040513d6020811015620006cd57600080fd5b505160408051635a3d549360e01b815290519194506001600160a01b03861691635a3d549391600480820192602092909190829003018186803b1580156200071457600080fd5b505afa15801562000729573d6000803e3d6000fd5b505050506040513d60208110156200074057600080fd5b505160408051630240bc6b60e21b81529051919350600091829182916001600160a01b03891691630902f1ac916004808301926060929190829003018186803b1580156200078d57600080fd5b505afa158015620007a2573d6000803e3d6000fd5b505050506040513d6060811015620007b957600080fd5b5080516020820151604090920151909450909250905063ffffffff808216908516146200084757600081850390508063ffffffff166200080584866200085b60201b620007ae1760201c565b600001516001600160e01b031602870196508063ffffffff166200083585856200085b60201b620007ae1760201c565b516001600160e01b0316029590950194505b5050509193909250565b63ffffffff421690565b6200086562000908565b6000826001600160701b031611620008c4576040805162461bcd60e51b815260206004820152601760248201527f4669786564506f696e743a204449565f42595f5a45524f000000000000000000604482015290519081900360640190fd5b6040805160208101909152806001600160701b038416600160701b600160e01b03607087901b1681620008f357fe5b046001600160e01b0316815250905092915050565b60408051602081019091526000815290565b610ab8806200092a6000396000f3fe608060405234801561001057600080fd5b50600436106100d55760003560e01c8063a2e6204511610087578063a2e620451461015e578063a6bb453914610166578063a8aa1b311461016e578063b4d1d79514610176578063b5b24fd41461017e578063c5700a0214610186578063d21220a7146101a7578063f2fde38b146101af576100d5565b80630dfe1681146100da5780635909c0d5146100fe5780635a3d5493146101185780635e6aaf2c14610120578063715018a6146101445780637eeda7031461014e5780638da5cb5b14610156575b600080fd5b6100e26101d5565b604080516001600160a01b039092168252519081900360200190f35b6101066101e4565b60408051918252519081900360200190f35b6101066101ea565b6101286101f0565b604080516001600160e01b039092168252519081900360200190f35b61014c6101ff565b005b6101066102b3565b6100e26102fe565b61014c61030d565b6101286103fc565b6100e261040b565b61010661041a565b610106610421565b61018e610427565b6040805163ffffffff9092168252519081900360200190f35b6100e2610433565b61014c600480360360208110156101c557600080fd5b50356001600160a01b0316610442565b6002546001600160a01b031681565b60045481565b60055481565b6009546001600160e01b031681565b61020761054c565b6000546001600160a01b03908116911614610269576040805162461bcd60e51b815260206004820181905260248201527f4f776e61626c653a2063616c6c6572206973206e6f7420746865206f776e6572604482015290519081900360640190fd5b600080546040516001600160a01b03909116907f8be0079c531659141344cd1fd0a4f28419497f9722a3daafe3b4186f6b6457e0908390a3600080546001600160a01b0319169055565b60006102bd61030d565b60408051602081019091526008546001600160e01b031681526102f0906102eb90600163ffffffff61055016565b6105ce565b6001600160901b0316905090565b6000546001600160a01b031690565b60015460009081908190610329906001600160a01b03166105d5565b600754929550909350915063ffffffff90811682039062015180908216106103f65760405180602001604052808263ffffffff1660045487038161036957fe5b046001600160e01b039081169091529051600880546001600160e01b031916919092161790556040805160208101909152600554819063ffffffff8416908603816103b057fe5b046001600160e01b039081169091529051600980546001600160e01b03191691909216179055600484905560058390556007805463ffffffff191663ffffffff84161790555b50505050565b6008546001600160e01b031681565b6001546001600160a01b031681565b6201518081565b60065481565b60075463ffffffff1681565b6003546001600160a01b031681565b61044a61054c565b6000546001600160a01b039081169116146104ac576040805162461bcd60e51b815260206004820181905260248201527f4f776e61626c653a2063616c6c6572206973206e6f7420746865206f776e6572604482015290519081900360640190fd5b6001600160a01b0381166104f15760405162461bcd60e51b8152600401808060200182810382526026815260200180610a156026913960400191505060405180910390fd5b600080546040516001600160a01b03808516939216917f8be0079c531659141344cd1fd0a4f28419497f9722a3daafe3b4186f6b6457e091a3600080546001600160a01b0319166001600160a01b0392909216919091179055565b3390565b610558610851565b600082158061057e57505082516001600160e01b03168281029083828161057b57fe5b04145b6105b95760405162461bcd60e51b8152600401808060200182810382526023815260200180610a606023913960400191505060405180910390fd5b60408051602081019091529081529392505050565b5160701c90565b60008060006105e26107a4565b9050836001600160a01b0316635909c0d56040518163ffffffff1660e01b815260040160206040518083038186803b15801561061d57600080fd5b505afa158015610631573d6000803e3d6000fd5b505050506040513d602081101561064757600080fd5b505160408051635a3d549360e01b815290519194506001600160a01b03861691635a3d549391600480820192602092909190829003018186803b15801561068d57600080fd5b505afa1580156106a1573d6000803e3d6000fd5b505050506040513d60208110156106b757600080fd5b505160408051630240bc6b60e21b81529051919350600091829182916001600160a01b03891691630902f1ac916004808301926060929190829003018186803b15801561070357600080fd5b505afa158015610717573d6000803e3d6000fd5b505050506040513d606081101561072d57600080fd5b5080516020820151604090920151909450909250905063ffffffff8082169085161461079a5780840363ffffffff811661076784866107ae565b516001600160e01b031602969096019563ffffffff811661078885856107ae565b516001600160e01b0316029590950194505b5050509193909250565b63ffffffff421690565b6107b6610864565b6000826001600160701b03161161080e576040805162461bcd60e51b81526020600482015260176024820152764669786564506f696e743a204449565f42595f5a45524f60481b604482015290519081900360640190fd5b6040805160208101909152806001600160701b038416600160701b600160e01b03607087901b168161083c57fe5b046001600160e01b0316815250905092915050565b6040518060200160405280600081525090565b60408051602081019091526000815290565b60008060006108858585610936565b604080516bffffffffffffffffffffffff19606094851b811660208084019190915293851b81166034830152825160288184030181526048830184528051908501206001600160f81b031960688401529a90941b9093166069840152607d8301989098527f96e8ac4277198ff8b6f785478aa9a39f403cb768dd02cbee326c3e7da348845f609d808401919091528851808403909101815260bd909201909752805196019590952095945050505050565b600080826001600160a01b0316846001600160a01b0316141561098a5760405162461bcd60e51b8152600401808060200182810382526025815260200180610a3b6025913960400191505060405180910390fd5b826001600160a01b0316846001600160a01b0316106109aa5782846109ad565b83835b90925090506001600160a01b038216610a0d576040805162461bcd60e51b815260206004820152601e60248201527f556e697377617056324c6962726172793a205a45524f5f414444524553530000604482015290519081900360640190fd5b925092905056fe4f776e61626c653a206e6577206f776e657220697320746865207a65726f2061646472657373556e697377617056324c6962726172793a204944454e544943414c5f4144445245535345534669786564506f696e743a204d554c5449504c49434154494f4e5f4f564552464c4f57a26469706673582212207e3e2dfb56066f8e17d9ddf3283f504ed192b27897a0f0475d287620343983a064736f6c63430006060033556e697377617056324c6962726172793a204944454e544943414c5f4144445245535345534f776e61626c653a206e6577206f776e657220697320746865207a65726f20616464726573734f776e61626c653a2063616c6c6572206973206e6f7420746865206f776e6572a2646970667358221220e18f4ef8d4961f111a60e8c5b471139506d278072ea747032a1acd60cff0c36e64736f6c63430006060033",
  "immutableReferences": {},
  "source": "pragma solidity ^0.6.2;\n\nimport \"@openzeppelin/contracts/access/Ownable.sol\";\nimport '@uniswap/v2-periphery/contracts/UniswapV2Router02.sol';\nimport \"./UniswapOracleInstance.sol\";\n\n\n////////////////////////////////////////////////////////////////////////////////////////////\n/// @title UniswapOracleFactory\n/// @author Christopher Dixon\n////////////////////////////////////////////////////////////////////////////////////////////\n/**\nThe UniswapOracleFactory contract is designed to produce individual UniswapOracleInstance contracts\nThis contract uses the OpenZeppelin contract Library to inherit functions from\n  Ownable.sol\n**/\n\ncontract UniswapOracleFactory is Ownable {\n  address public uniswap_router_add = 0x7a250d5630B4cF539739dF2C5dAcb4c659F2488D;\n  address public usdc_add;\n  address public factory;\n  IUniswapV2Router02 public uniswapRouter;\n\n  mapping(address => address) public instanceTracker; //maps erc20 address to the assets MoneyMarketInstance\n\n/**\n@notice constructor function is fired once during contract creation. This constructor initializes uniswapRouter\n        as a usable contract instance within the UniswapOracleFactory\n@param usdcAdd is the address of the ERC20 USDC address\n@param _uniFactoryAdd is the address of the uniswap factory contract\n**/\nconstructor(address usdcAdd, address _uniFactoryAdd) public {\n  uniswapRouter = IUniswapV2Router02(uniswap_router_add);\n  usdc_add = usdcAdd;\n  factory = _uniFactoryAdd;\n}\n\n  /**\n  @notice createNewOracle allows the owner of this contract to deploy a new oracle contract when\n          a new asset is whitelisted\n  @param token is the address of the token that this oracle will provide a USDC price feed for\n  **/\n  function createNewOracle(\n    address token\n  )\n  public\n  onlyOwner\n  returns(address)\n  {\n\n    address _oracle = address(new UniswapOracleInstance (\n       factory,\n       token,\n       usdc_add\n    ));\n    instanceTracker[token] = _oracle;\n    return _oracle;\n  }\n\n\n/**\n@notice linkMMI is used to link a MoneyMarketInstance to its oracle in the oracle factory contract\n@param _MMI is the address of the MoneyMarketInstance\n@param _asset is the address of the MoneyMarketInstancesunderlying asset\n**/\n  function linkMMI(address _MMI, address _asset) public {\n      address oracle = instanceTracker[_asset];\n        instanceTracker[_MMI] = oracle;\n  }\n\n/**\n@notice getUnderlyingPrice allows for the price retrieval of a MoneyMarketInstances underlying asset\n@param _MMI is the address of the MoneyMarketInstance whos asset price is being retrieved\n@return returns the price of the asset\n**/\n  function getUnderlyingPrice(address _MMI) public returns(uint) {\n    UniswapOracleInstance oracle = UniswapOracleInstance(instanceTracker[_MMI]);\n    return oracle.consult();\n  }\n\n/**\n@notice getPathForERC20Swap is an internal function used to create a uniswap trade path for two input\n        ERC20 tokens using WETH as a medium of exchange.\n@param _tokenA is the address of the token being exchanged from\n@param _tokenB is the address of the token being exchanged to\n@dev example: LINK => Augur swap _tokenA would be LINK address while _tokenB would be Augur Address\n**/\n  function getPathForERC20Swap(address _tokenA, address _tokenB) private view returns (address[] memory) {\n    address[] memory path = new address[](3);\n    path[0] = _tokenA;\n    path[1] = uniswapRouter.WETH();\n    path[2] = _tokenB;\n\n    return path;\n  }\n\n/**\n@notice swapERC20 is an external function that swaps one ERC20 token for another\n        using WETH as a medium of exchange.\n@param _tokenA is the address of the token being exchanged from\n@param _tokenB is the address of the token being exchanged to\n@param _to is the address of the MoneyMarketInstance calling this function\n@param _amountIn is the amount of _tokenA being exchanged\n@param _amountOutMin is the minimum amount of _tokenB to be received\n@dev example: LINK => Augur swap _tokenA would be LINK address while _tokenB would be Augur Address\n@dev _amountOutMin will need to be atleast enough to cover the cost of collateral liquidation\n      (loan amount +i nterest) and its liquidation fee amount.\n**/\n  function swapERC20(\n    address _tokenA,\n    address _tokenB,\n    address _to,\n    uint _amountIn,\n    uint _amountOutMin\n  ) external {\n    uint deadline = block.timestamp + 60;\n    uniswapRouter.swapExactTokensForTokens(\n      _amountIn,\n      _amountOutMin,\n      getPathForERC20Swap(_tokenA, _tokenB),\n      _to,\n      deadline\n    );\n  }\n\n\n}\n",
  "sourcePath": "/home/stan36/repos/Askolend/AskoLend-contracts/contracts/UniswapOracleFactory.sol",
  "compiler": {
    "name": "solc",
    "version": "0.6.6+commit.6c089d02.Emscripten.clang"
  },
  "schemaVersion": "3.2.4",
  "updatedAt": "2020-10-13T04:01:24.865Z",
  "networkType": "ethereum",
  "devdoc": {
    "methods": {
      "constructor": {
        "params": {
          "_uniFactoryAdd": "is the address of the uniswap factory contract*",
          "usdcAdd": "is the address of the ERC20 USDC address"
        }
      },
      "createNewOracle(address)": {
        "params": {
          "token": "is the address of the token that this oracle will provide a USDC price feed for*"
        }
      },
      "getUnderlyingPrice(address)": {
        "params": {
          "_MMI": "is the address of the MoneyMarketInstance whos asset price is being retrieved"
        },
        "returns": {
          "_0": "returns the price of the asset*"
        }
      },
      "linkMMI(address,address)": {
        "params": {
          "_MMI": "is the address of the MoneyMarketInstance",
          "_asset": "is the address of the MoneyMarketInstancesunderlying asset*"
        }
      },
      "owner()": {
        "details": "Returns the address of the current owner."
      },
      "renounceOwnership()": {
        "details": "Leaves the contract without owner. It will not be possible to call `onlyOwner` functions anymore. Can only be called by the current owner.     * NOTE: Renouncing ownership will leave the contract without an owner, thereby removing any functionality that is only available to the owner."
      },
      "swapERC20(address,address,address,uint256,uint256)": {
        "details": "example: LINK => Augur swap _tokenA would be LINK address while _tokenB would be Augur Address_amountOutMin will need to be atleast enough to cover the cost of collateral liquidation (loan amount +i nterest) and its liquidation fee amount.*",
        "params": {
          "_amountIn": "is the amount of _tokenA being exchanged",
          "_amountOutMin": "is the minimum amount of _tokenB to be received",
          "_to": "is the address of the MoneyMarketInstance calling this function",
          "_tokenA": "is the address of the token being exchanged from",
          "_tokenB": "is the address of the token being exchanged to"
        }
      },
      "transferOwnership(address)": {
        "details": "Transfers ownership of the contract to a new account (`newOwner`). Can only be called by the current owner."
      }
    }
  },
  "userdoc": {
    "methods": {
      "constructor": "constructor function is fired once during contract creation. This constructor initializes uniswapRouter as a usable contract instance within the UniswapOracleFactory",
      "createNewOracle(address)": {
        "notice": "createNewOracle allows the owner of this contract to deploy a new oracle contract when a new asset is whitelisted"
      },
      "getUnderlyingPrice(address)": {
        "notice": "getUnderlyingPrice allows for the price retrieval of a MoneyMarketInstances underlying asset"
      },
      "linkMMI(address,address)": {
        "notice": "linkMMI is used to link a MoneyMarketInstance to its oracle in the oracle factory contract"
      },
      "swapERC20(address,address,address,uint256,uint256)": {
        "notice": "swapERC20 is an external function that swaps one ERC20 token for another using WETH as a medium of exchange."
      }
    },
    "notice": "The UniswapOracleFactory contract is designed to produce individual UniswapOracleInstance contracts This contract uses the OpenZeppelin contract Library to inherit functions from Ownable.sol*"
  }
}