{
  "contractName": "UniswapOracleFactory",
  "abi": [
    {
      "inputs": [
        {
          "internalType": "address",
          "name": "usdcAdd",
          "type": "address"
        }
      ],
      "stateMutability": "nonpayable",
      "type": "constructor"
    },
    {
      "anonymous": false,
      "inputs": [
        {
          "indexed": true,
          "internalType": "address",
          "name": "previousOwner",
          "type": "address"
        },
        {
          "indexed": true,
          "internalType": "address",
          "name": "newOwner",
          "type": "address"
        }
      ],
      "name": "OwnershipTransferred",
      "type": "event"
    },
    {
      "inputs": [
        {
          "internalType": "address",
          "name": "",
          "type": "address"
        }
      ],
      "name": "instanceTracker",
      "outputs": [
        {
          "internalType": "address",
          "name": "",
          "type": "address"
        }
      ],
      "stateMutability": "view",
      "type": "function"
    },
    {
      "inputs": [],
      "name": "owner",
      "outputs": [
        {
          "internalType": "address",
          "name": "",
          "type": "address"
        }
      ],
      "stateMutability": "view",
      "type": "function"
    },
    {
      "inputs": [],
      "name": "renounceOwnership",
      "outputs": [],
      "stateMutability": "nonpayable",
      "type": "function"
    },
    {
      "inputs": [
        {
          "internalType": "address",
          "name": "newOwner",
          "type": "address"
        }
      ],
      "name": "transferOwnership",
      "outputs": [],
      "stateMutability": "nonpayable",
      "type": "function"
    },
    {
      "inputs": [],
      "name": "uniswapRouter",
      "outputs": [
        {
          "internalType": "contract IUniswapV2Router02",
          "name": "",
          "type": "address"
        }
      ],
      "stateMutability": "view",
      "type": "function"
    },
    {
      "inputs": [],
      "name": "uniswap_router_add",
      "outputs": [
        {
          "internalType": "address",
          "name": "",
          "type": "address"
        }
      ],
      "stateMutability": "view",
      "type": "function"
    },
    {
      "inputs": [],
      "name": "usdc_add",
      "outputs": [
        {
          "internalType": "address",
          "name": "",
          "type": "address"
        }
      ],
      "stateMutability": "view",
      "type": "function"
    },
    {
      "inputs": [
        {
          "internalType": "address",
          "name": "factory",
          "type": "address"
        },
        {
          "internalType": "address",
          "name": "tokenA",
          "type": "address"
        },
        {
          "internalType": "address",
          "name": "tokenB",
          "type": "address"
        }
      ],
      "name": "createNewOracle",
      "outputs": [
        {
          "internalType": "address",
          "name": "",
          "type": "address"
        }
      ],
      "stateMutability": "nonpayable",
      "type": "function"
    },
    {
      "inputs": [
        {
          "internalType": "address",
          "name": "_tokenA",
          "type": "address"
        },
        {
          "internalType": "address",
          "name": "_tokenB",
          "type": "address"
        },
        {
          "internalType": "address",
          "name": "_to",
          "type": "address"
        },
        {
          "internalType": "uint256",
          "name": "_amountIn",
          "type": "uint256"
        },
        {
          "internalType": "uint256",
          "name": "_amountOutMin",
          "type": "uint256"
        }
      ],
      "name": "swapERC20",
      "outputs": [],
      "stateMutability": "nonpayable",
      "type": "function"
    }
  ],
  "bytecode": "0x6080604052600180546001600160a01b031916737a250d5630b4cf539739df2c5dacb4c659f2488d17905534801561003657600080fd5b50604051611a32380380611a328339818101604052602081101561005957600080fd5b5051600061006e6001600160e01b036100ef16565b600080546001600160a01b0319166001600160a01b0383169081178255604051929350917f8be0079c531659141344cd1fd0a4f28419497f9722a3daafe3b4186f6b6457e0908290a350600154600380546001600160a01b03199081166001600160a01b0393841617909155600280549390921692169190911790556100f3565b3390565b611930806101026000396000f3fe60806040523480156200001157600080fd5b5060043610620000a05760003560e01c80638da5cb5b116200006f5780638da5cb5b146200010a5780639adc328b1462000114578063a685cd1b146200011e578063f0defe931462000159578063f2fde38b146200019e57620000a0565b80633373a44714620000a5578063715018a614620000ea578063735de9f714620000f65780638c8b68511462000100575b600080fd5b620000ce60048036036020811015620000bd57600080fd5b50356001600160a01b0316620001c7565b604080516001600160a01b039092168252519081900360200190f35b620000f4620001e2565b005b620000ce62000299565b620000ce620002a8565b620000ce620002b7565b620000ce620002c6565b620000ce600480360360608110156200013657600080fd5b506001600160a01b038135811691602081013582169160409091013516620002d5565b620000f4600480360360a08110156200017157600080fd5b506001600160a01b03813581169160208101358216916040820135169060608101359060800135620003d0565b620000f460048036036020811015620001b657600080fd5b50356001600160a01b031662000574565b6004602052600090815260409020546001600160a01b031681565b620001ec62000683565b6000546001600160a01b039081169116146200024f576040805162461bcd60e51b815260206004820181905260248201527f4f776e61626c653a2063616c6c6572206973206e6f7420746865206f776e6572604482015290519081900360640190fd5b600080546040516001600160a01b03909116907f8be0079c531659141344cd1fd0a4f28419497f9722a3daafe3b4186f6b6457e0908390a3600080546001600160a01b0319169055565b6003546001600160a01b031681565b6001546001600160a01b031681565b6000546001600160a01b031690565b6002546001600160a01b031681565b6000620002e162000683565b6000546001600160a01b0390811691161462000344576040805162461bcd60e51b815260206004820181905260248201527f4f776e61626c653a2063616c6c6572206973206e6f7420746865206f776e6572604482015290519081900360640190fd5b600084848460405162000357906200079d565b6001600160a01b03938416815291831660208301529091166040808301919091525190819003606001906000f08015801562000397573d6000803e3d6000fd5b506001600160a01b03948516600090815260046020526040902080546001600160a01b0319169582169590951790945550919392505050565b600354603c4201906001600160a01b03166338ed17398484620003f48a8a62000687565b88866040518663ffffffff1660e01b81526004018086815260200185815260200180602001846001600160a01b03166001600160a01b03168152602001838152602001828103825285818151815260200191508051906020019060200280838360005b838110156200047157818101518382015260200162000457565b505050509050019650505050505050600060405180830381600087803b1580156200049b57600080fd5b505af1158015620004b0573d6000803e3d6000fd5b505050506040513d6000823e601f3d908101601f191682016040526020811015620004da57600080fd5b8101908080516040519392919084640100000000821115620004fb57600080fd5b9083019060208201858111156200051157600080fd5b82518660208202830111640100000000821117156200052f57600080fd5b82525081516020918201928201910280838360005b838110156200055e57818101518382015260200162000544565b5050505090500160405250505050505050505050565b6200057e62000683565b6000546001600160a01b03908116911614620005e1576040805162461bcd60e51b815260206004820181905260248201527f4f776e61626c653a2063616c6c6572206973206e6f7420746865206f776e6572604482015290519081900360640190fd5b6001600160a01b038116620006285760405162461bcd60e51b8152600401808060200182810382526026815260200180620018d56026913960400191505060405180910390fd5b600080546040516001600160a01b03808516939216917f8be0079c531659141344cd1fd0a4f28419497f9722a3daafe3b4186f6b6457e091a3600080546001600160a01b0319166001600160a01b0392909216919091179055565b3390565b604080516003808252608082019092526060918291906020820183803683370190505090508381600081518110620006bb57fe5b6001600160a01b03928316602091820292909201810191909152600354604080516315ab88c960e31b81529051919093169263ad5c4648926004808301939192829003018186803b1580156200071057600080fd5b505afa15801562000725573d6000803e3d6000fd5b505050506040513d60208110156200073c57600080fd5b50518151829060019081106200074e57fe5b60200260200101906001600160a01b031690816001600160a01b03168152505082816002815181106200077d57fe5b6001600160a01b0390921660209283029190910190910152905092915050565b61112980620007ac8339019056fe60806040523480156200001157600080fd5b506040516200112938038062001129833981810160405260608110156200003757600080fd5b508051602082015160409092015190919060006200005d6001600160e01b03620003ed16565b600080546001600160a01b0319166001600160a01b0383169081178255604051929350917f8be0079c531659141344cd1fd0a4f28419497f9722a3daafe3b4186f6b6457e0908290a3506000620000c1848484620003f160201b620008da1760201c565b905080600160006101000a8154816001600160a01b0302191690836001600160a01b03160217905550806001600160a01b0316630dfe16816040518163ffffffff1660e01b815260040160206040518083038186803b1580156200012457600080fd5b505afa15801562000139573d6000803e3d6000fd5b505050506040513d60208110156200015057600080fd5b5051600280546001600160a01b0319166001600160a01b039283161790556040805163d21220a760e01b815290519183169163d21220a791600480820192602092909190829003018186803b158015620001a957600080fd5b505afa158015620001be573d6000803e3d6000fd5b505050506040513d6020811015620001d557600080fd5b5051600380546001600160a01b0319166001600160a01b0392831617905560408051635909c0d560e01b8152905191831691635909c0d591600480820192602092909190829003018186803b1580156200022e57600080fd5b505afa15801562000243573d6000803e3d6000fd5b505050506040513d60208110156200025a57600080fd5b5051600490815560408051635a3d549360e01b815290516001600160a01b03841692635a3d549392808201926020929091829003018186803b158015620002a057600080fd5b505afa158015620002b5573d6000803e3d6000fd5b505050506040513d6020811015620002cc57600080fd5b505160055560408051630240bc6b60e21b8152905160009182916001600160a01b03851691630902f1ac916004808301926060929190829003018186803b1580156200031757600080fd5b505afa1580156200032c573d6000803e3d6000fd5b505050506040513d60608110156200034357600080fd5b50805160208201516040909201516006805463ffffffff191663ffffffff909216919091179055925090506001600160701b038216158015906200038f57506001600160701b03811615155b620003e1576040805162461bcd60e51b815260206004820181905260248201527f4578616d706c654f7261636c6553696d706c653a204e4f5f5245534552564553604482015290519081900360640190fd5b505050505050620005b1565b3390565b600080806200040a85856001600160e01b03620004ce16565b604080516001600160601b0319606094851b811660208084019190915293851b81166034830152825160288184030181526048830184528051908501207fff0000000000000000000000000000000000000000000000000000000000000060688401529a90941b9093166069840152607d8301989098527f96e8ac4277198ff8b6f785478aa9a39f403cb768dd02cbee326c3e7da348845f609d808401919091528851808403909101815260bd909201909752805196019590952095945050505050565b600080826001600160a01b0316846001600160a01b03161415620005245760405162461bcd60e51b8152600401808060200182810382526025815260200180620011046025913960400191505060405180910390fd5b826001600160a01b0316846001600160a01b0316106200054657828462000549565b83835b90925090506001600160a01b038216620005aa576040805162461bcd60e51b815260206004820152601e60248201527f556e697377617056324c6962726172793a205a45524f5f414444524553530000604482015290519081900360640190fd5b9250929050565b610b4380620005c16000396000f3fe608060405234801561001057600080fd5b50600436106100cf5760003560e01c80638da5cb5b1161008c578063b4d1d79511610066578063b4d1d7951461017d578063c5700a0214610185578063d21220a7146101a6578063f2fde38b146101ae576100cf565b80638da5cb5b14610165578063a6bb45391461016d578063a8aa1b3114610175576100cf565b80630dfe1681146100d45780635909c0d5146100f85780635a3d5493146101125780635e6aaf2c1461011a57806361e25d831461013e578063715018a61461015b575b600080fd5b6100dc6101d4565b604080516001600160a01b039092168252519081900360200190f35b6101006101e3565b60408051918252519081900360200190f35b6101006101e9565b6101226101ef565b604080516001600160e01b039092168252519081900360200190f35b6101006004803603602081101561015457600080fd5b50356101fe565b610163610270565b005b6100dc610324565b610122610333565b6100dc610342565b610100610351565b61018d610358565b6040805163ffffffff9092168252519081900360200190f35b6100dc610364565b610163600480360360208110156101c457600080fd5b50356001600160a01b0316610373565b6002546001600160a01b031681565b60045481565b60055481565b6008546001600160e01b031681565b60065460009063ffffffff90811642039062015180908216106102235761022361047d565b60408051602081019091526007546001600160e01b0316815261025590610250908563ffffffff6105a316565b610621565b71ffffffffffffffffffffffffffffffffffff169392505050565b610278610628565b6000546001600160a01b039081169116146102da576040805162461bcd60e51b815260206004820181905260248201527f4f776e61626c653a2063616c6c6572206973206e6f7420746865206f776e6572604482015290519081900360640190fd5b600080546040516001600160a01b03909116907f8be0079c531659141344cd1fd0a4f28419497f9722a3daafe3b4186f6b6457e0908390a3600080546001600160a01b0319169055565b6000546001600160a01b031690565b6007546001600160e01b031681565b6001546001600160a01b031681565b6201518081565b60065463ffffffff1681565b6003546001600160a01b031681565b61037b610628565b6000546001600160a01b039081169116146103dd576040805162461bcd60e51b815260206004820181905260248201527f4f776e61626c653a2063616c6c6572206973206e6f7420746865206f776e6572604482015290519081900360640190fd5b6001600160a01b0381166104225760405162461bcd60e51b8152600401808060200182810382526026815260200180610a796026913960400191505060405180910390fd5b600080546040516001600160a01b03808516939216917f8be0079c531659141344cd1fd0a4f28419497f9722a3daafe3b4186f6b6457e091a3600080546001600160a01b0319166001600160a01b0392909216919091179055565b60015460009081908190610499906001600160a01b031661062c565b600654929550909350915063ffffffff9081168203906201518090821610156104f35760405162461bcd60e51b8152600401808060200182810382526027815260200180610ac46027913960400191505060405180910390fd5b60405180602001604052808263ffffffff1660045487038161051157fe5b046001600160e01b039081169091529051600780546001600160e01b031916919092161790556040805160208101909152600554819063ffffffff84169086038161055857fe5b046001600160e01b039081169091529051600880546001600160e01b03191691909216179055506004929092556005556006805463ffffffff191663ffffffff909216919091179055565b6105ab6108b5565b60008215806105d157505082516001600160e01b0316828102908382816105ce57fe5b04145b61060c5760405162461bcd60e51b8152600401808060200182810382526023815260200180610aeb6023913960400191505060405180910390fd5b60408051602081019091529081529392505050565b5160701c90565b3390565b60008060006106396107fb565b9050836001600160a01b0316635909c0d56040518163ffffffff1660e01b815260040160206040518083038186803b15801561067457600080fd5b505afa158015610688573d6000803e3d6000fd5b505050506040513d602081101561069e57600080fd5b505160408051635a3d549360e01b815290519194506001600160a01b03861691635a3d549391600480820192602092909190829003018186803b1580156106e457600080fd5b505afa1580156106f8573d6000803e3d6000fd5b505050506040513d602081101561070e57600080fd5b505160408051630240bc6b60e21b81529051919350600091829182916001600160a01b03891691630902f1ac916004808301926060929190829003018186803b15801561075a57600080fd5b505afa15801561076e573d6000803e3d6000fd5b505050506040513d606081101561078457600080fd5b5080516020820151604090920151909450909250905063ffffffff808216908516146107f15780840363ffffffff81166107be8486610805565b516001600160e01b031602969096019563ffffffff81166107df8585610805565b516001600160e01b0316029590950194505b5050509193909250565b63ffffffff421690565b61080d6108c8565b6000826001600160701b03161161086b576040805162461bcd60e51b815260206004820152601760248201527f4669786564506f696e743a204449565f42595f5a45524f000000000000000000604482015290519081900360640190fd5b6040805160208101909152806001600160701b0384166dffffffffffffffffffffffffffff60701b607087901b16816108a057fe5b046001600160e01b0316815250905092915050565b6040518060200160405280600081525090565b60408051602081019091526000815290565b60008060006108e9858561099a565b604080516bffffffffffffffffffffffff19606094851b811660208084019190915293851b81166034830152825160288184030181526048830184528051908501206001600160f81b031960688401529a90941b9093166069840152607d8301989098527f96e8ac4277198ff8b6f785478aa9a39f403cb768dd02cbee326c3e7da348845f609d808401919091528851808403909101815260bd909201909752805196019590952095945050505050565b600080826001600160a01b0316846001600160a01b031614156109ee5760405162461bcd60e51b8152600401808060200182810382526025815260200180610a9f6025913960400191505060405180910390fd5b826001600160a01b0316846001600160a01b031610610a0e578284610a11565b83835b90925090506001600160a01b038216610a71576040805162461bcd60e51b815260206004820152601e60248201527f556e697377617056324c6962726172793a205a45524f5f414444524553530000604482015290519081900360640190fd5b925092905056fe4f776e61626c653a206e6577206f776e657220697320746865207a65726f2061646472657373556e697377617056324c6962726172793a204944454e544943414c5f4144445245535345534578616d706c654f7261636c6553696d706c653a20504552494f445f4e4f545f454c41505345444669786564506f696e743a204d554c5449504c49434154494f4e5f4f564552464c4f57a2646970667358221220af0aba3106d87a1af768df363b672b94ab177f39e74fc1ac350f48e163cd151264736f6c63430006060033556e697377617056324c6962726172793a204944454e544943414c5f4144445245535345534f776e61626c653a206e6577206f776e657220697320746865207a65726f2061646472657373a2646970667358221220069cf7dc651d64667dde7cde8fc2f8e3b849bc56b14361a7bede6f65554c9c0064736f6c63430006060033",
  "immutableReferences": {},
  "source": "pragma solidity ^0.5.16;\n\nimport \"@openzeppelin/contracts/access/Ownable.sol\";\nimport '@uniswap/v2-periphery/contracts/UniswapV2Router02.sol';\nimport \"./UniswapOracleInstance.sol\";\n\n\n////////////////////////////////////////////////////////////////////////////////////////////\n/// @title UniswapOracleFactory\n/// @author Christopher Dixon\n////////////////////////////////////////////////////////////////////////////////////////////\n/**\nThe UniswapOracleFactory contract is designed to produce individual UniswapOracleInstance contracts\nThis contract uses the OpenZeppelin contract Library to inherit functions from\n  Ownable.sol\n**/\n\ncontract UniswapOracleFactory is Ownable {\n  address public uniswap_router_add = 0x7a250d5630B4cF539739dF2C5dAcb4c659F2488D;\n  address public usdc_add;\n  IUniswapV2Router02 public uniswapRouter;\n\n  mapping(address => address) public instanceTracker; //maps erc20 address to the assets MoneyMarketInstance\n\n/**\n@notice constructor function is fired once during contract creation. This constructor initializes uniswapRouter\n        as a usable contract instance within the UniswapOracleFactory\n**/\nconstructor(address usdcAdd) public {\n  uniswapRouter = IUniswapV2Router02(uniswap_router_add);\n  usdc_add = usdcAdd;\n}\n\n  /**\n  @notice createNewOracle allows the owner of this contract to deploy a new oracle contract when\n          a new asset is whitelisted\n  @param factory is the address of the uniswap factory\n  @param tokenA is the address of the first token in the token pair for this oracle\n  @param tokenB is the addresss of the second token in the token pair for this oracle\n  **/\n  function createNewOracle(\n    address factory,\n    address tokenA,\n    address tokenB\n  )\n  public\n  onlyOwner\n  returns(address)\n  {\n\n    address _oracle = address(new UniswapOracleInstance (\n       factory,\n       tokenA,\n       tokenB\n    ));\n    instanceTracker[tokenA] = _oracle;\n    return _oracle;\n  }\n\n/**\n@notice getPathForERC20Swap is an internal function used to create a uniswap trade path for two input\n        ERC20 tokens using WETH as a medium of exchange.\n@param _tokenA is the address of the token being exchanged from\n@param _tokenB is the address of the token being exchanged to\n@dev example: LINK => Augur swap _tokenA would be LINK address while _tokenB would be Augur Address\n**/\n  function getPathForERC20Swap(address _tokenA, address _tokenB) private view returns (address[] memory) {\n    address[] memory path = new address[](3);\n    path[0] = _tokenA;\n    path[1] = uniswapRouter.WETH();\n    path[2] = _tokenB;\n\n    return path;\n  }\n\n/**\n@notice swapERC20 is an external function that swaps one ERC20 token for another\n        using WETH as a medium of exchange.\n@param _tokenA is the address of the token being exchanged from\n@param _tokenB is the address of the token being exchanged to\n@param _to is the address of the MoneyMarketInstance calling this function\n@param _amountIn is the amount of _tokenA being exchanged\n@param _amountOutMin is the minimum amount of _tokenB to be received\n@dev example: LINK => Augur swap _tokenA would be LINK address while _tokenB would be Augur Address\n@dev _amountOutMin will need to be atleast enough to cover the cost of collateral liquidation\n      (loan amount +i nterest) and its liquidation fee amount.\n**/\n  function swapERC20(\n    address _tokenA,\n    address _tokenB,\n    address _to,\n    uint _amountIn,\n    uint _amountOutMin\n  ) external {\n    uint deadline = block.timestamp + 60;\n    uniswapRouter.swapExactTokensForTokens(\n      _amountIn,\n      _amountOutMin,\n      getPathForERC20Swap(_tokenA, _tokenB),\n      _to,\n      deadline\n    );\n  }\n\n\n}\n",
  "sourcePath": "/home/stan36/repos/Askolend/smart-contracts/contracts/UniswapOracleFactory.sol",
  "compiler": {
    "name": "solc",
    "version": "0.6.6+commit.6c089d02.Emscripten.clang"
  },
  "schemaVersion": "3.2.5",
  "updatedAt": "2020-09-24T21:24:31.227Z",
  "devdoc": {
    "methods": {
      "createNewOracle(address,address,address)": {
        "params": {
          "factory": "is the address of the uniswap factory",
          "tokenA": "is the address of the first token in the token pair for this oracle",
          "tokenB": "is the addresss of the second token in the token pair for this oracle*"
        }
      },
      "owner()": {
        "details": "Returns the address of the current owner."
      },
      "renounceOwnership()": {
        "details": "Leaves the contract without owner. It will not be possible to call `onlyOwner` functions anymore. Can only be called by the current owner.     * NOTE: Renouncing ownership will leave the contract without an owner, thereby removing any functionality that is only available to the owner."
      },
      "swapERC20(address,address,address,uint256,uint256)": {
        "details": "example: LINK => Augur swap _tokenA would be LINK address while _tokenB would be Augur Address_amountOutMin will need to be atleast enough to cover the cost of collateral liquidation (loan amount +i nterest) and its liquidation fee amount.*",
        "params": {
          "_amountIn": "is the amount of _tokenA being exchanged",
          "_amountOutMin": "is the minimum amount of _tokenB to be received",
          "_to": "is the address of the MoneyMarketInstance calling this function",
          "_tokenA": "is the address of the token being exchanged from",
          "_tokenB": "is the address of the token being exchanged to"
        }
      },
      "transferOwnership(address)": {
        "details": "Transfers ownership of the contract to a new account (`newOwner`). Can only be called by the current owner."
      }
    }
  },
  "userdoc": {
    "methods": {
      "constructor": "constructor function is fired once during contract creation. This constructor initializes uniswapRouter as a usable contract instance within the UniswapOracleFactory*",
      "createNewOracle(address,address,address)": {
        "notice": "createNewOracle allows the owner of this contract to deploy a new oracle contract when a new asset is whitelisted"
      },
      "swapERC20(address,address,address,uint256,uint256)": {
        "notice": "swapERC20 is an external function that swaps one ERC20 token for another using WETH as a medium of exchange."
      }
    },
    "notice": "The UniswapOracleFactory contract is designed to produce individual UniswapOracleInstance contracts This contract uses the OpenZeppelin contract Library to inherit functions from Ownable.sol*"
  }
}