{
  "contractName": "UniswapOracleInstance",
  "abi": [
    {
      "inputs": [
        {
          "internalType": "address",
          "name": "_factory",
          "type": "address"
        },
        {
          "internalType": "address",
          "name": "_tokenA",
          "type": "address"
        },
        {
          "internalType": "address",
          "name": "_tokenB",
          "type": "address"
        }
      ],
      "stateMutability": "nonpayable",
      "type": "constructor"
    },
    {
      "anonymous": false,
      "inputs": [
        {
          "indexed": true,
          "internalType": "address",
          "name": "previousOwner",
          "type": "address"
        },
        {
          "indexed": true,
          "internalType": "address",
          "name": "newOwner",
          "type": "address"
        }
      ],
      "name": "OwnershipTransferred",
      "type": "event"
    },
    {
      "inputs": [],
      "name": "PERIOD",
      "outputs": [
        {
          "internalType": "uint256",
          "name": "",
          "type": "uint256"
        }
      ],
      "stateMutability": "view",
      "type": "function"
    },
    {
      "inputs": [],
      "name": "blockTimestampLast",
      "outputs": [
        {
          "internalType": "uint32",
          "name": "",
          "type": "uint32"
        }
      ],
      "stateMutability": "view",
      "type": "function"
    },
    {
      "inputs": [],
      "name": "firstRun",
      "outputs": [
        {
          "internalType": "bool",
          "name": "",
          "type": "bool"
        }
      ],
      "stateMutability": "view",
      "type": "function"
    },
    {
      "inputs": [],
      "name": "owner",
      "outputs": [
        {
          "internalType": "address",
          "name": "",
          "type": "address"
        }
      ],
      "stateMutability": "view",
      "type": "function"
    },
    {
      "inputs": [],
      "name": "pair",
      "outputs": [
        {
          "internalType": "contract IUniswapV2Pair",
          "name": "",
          "type": "address"
        }
      ],
      "stateMutability": "view",
      "type": "function"
    },
    {
      "inputs": [],
      "name": "price0Average",
      "outputs": [
        {
          "internalType": "uint224",
          "name": "_x",
          "type": "uint224"
        }
      ],
      "stateMutability": "view",
      "type": "function"
    },
    {
      "inputs": [],
      "name": "price0CumulativeLast",
      "outputs": [
        {
          "internalType": "uint256",
          "name": "",
          "type": "uint256"
        }
      ],
      "stateMutability": "view",
      "type": "function"
    },
    {
      "inputs": [],
      "name": "price1Average",
      "outputs": [
        {
          "internalType": "uint224",
          "name": "_x",
          "type": "uint224"
        }
      ],
      "stateMutability": "view",
      "type": "function"
    },
    {
      "inputs": [],
      "name": "price1CumulativeLast",
      "outputs": [
        {
          "internalType": "uint256",
          "name": "",
          "type": "uint256"
        }
      ],
      "stateMutability": "view",
      "type": "function"
    },
    {
      "inputs": [],
      "name": "renounceOwnership",
      "outputs": [],
      "stateMutability": "nonpayable",
      "type": "function"
    },
    {
      "inputs": [],
      "name": "runs",
      "outputs": [
        {
          "internalType": "uint256",
          "name": "",
          "type": "uint256"
        }
      ],
      "stateMutability": "view",
      "type": "function"
    },
    {
      "inputs": [],
      "name": "token0",
      "outputs": [
        {
          "internalType": "address",
          "name": "",
          "type": "address"
        }
      ],
      "stateMutability": "view",
      "type": "function"
    },
    {
      "inputs": [],
      "name": "token1",
      "outputs": [
        {
          "internalType": "address",
          "name": "",
          "type": "address"
        }
      ],
      "stateMutability": "view",
      "type": "function"
    },
    {
      "inputs": [],
      "name": "tokenA",
      "outputs": [
        {
          "internalType": "address",
          "name": "",
          "type": "address"
        }
      ],
      "stateMutability": "view",
      "type": "function"
    },
    {
      "inputs": [
        {
          "internalType": "address",
          "name": "newOwner",
          "type": "address"
        }
      ],
      "name": "transferOwnership",
      "outputs": [],
      "stateMutability": "nonpayable",
      "type": "function"
    },
    {
      "inputs": [],
      "name": "update",
      "outputs": [],
      "stateMutability": "nonpayable",
      "type": "function"
    },
    {
      "inputs": [
        {
          "internalType": "uint256",
          "name": "_amount",
          "type": "uint256"
        }
      ],
      "name": "consult",
      "outputs": [
        {
          "internalType": "uint256",
          "name": "price",
          "type": "uint256"
        }
      ],
      "stateMutability": "nonpayable",
      "type": "function"
    },
    {
      "inputs": [
        {
          "internalType": "uint256",
          "name": "_amount",
          "type": "uint256"
        }
      ],
      "name": "viewPrice",
      "outputs": [
        {
          "internalType": "uint256",
          "name": "price",
          "type": "uint256"
        }
      ],
      "stateMutability": "view",
      "type": "function"
    },
    {
      "inputs": [
        {
          "internalType": "uint256",
          "name": "_amount",
          "type": "uint256"
        }
      ],
      "name": "consultUSDC",
      "outputs": [
        {
          "internalType": "uint256",
          "name": "price",
          "type": "uint256"
        }
      ],
      "stateMutability": "nonpayable",
      "type": "function"
    },
    {
      "inputs": [
        {
          "internalType": "uint256",
          "name": "_amount",
          "type": "uint256"
        }
      ],
      "name": "viewUSDC",
      "outputs": [
        {
          "internalType": "uint256",
          "name": "price",
          "type": "uint256"
        }
      ],
      "stateMutability": "view",
      "type": "function"
    }
  ],
  "bytecode": "0x60806040523480156200001157600080fd5b50604051620018d1380380620018d1833981810160405260608110156200003757600080fd5b508051602082015160409092015190919060006200005d6001600160e01b036200050e16565b600080546001600160a01b0319166001600160a01b0383169081178255604051929350917f8be0079c531659141344cd1fd0a4f28419497f9722a3daafe3b4186f6b6457e0908290a3506000620000c18484846200051260201b62000ae21760201c565b600480546001600160a01b038087166001600160a01b03199283161783556001805491851691909216811790915560408051630dfe168160e01b815290519394509092630dfe168192828101926020929190829003018186803b1580156200012857600080fd5b505afa1580156200013d573d6000803e3d6000fd5b505050506040513d60208110156200015457600080fd5b5051600280546001600160a01b0319166001600160a01b039283161790556040805163d21220a760e01b815290519183169163d21220a791600480820192602092909190829003018186803b158015620001ad57600080fd5b505afa158015620001c2573d6000803e3d6000fd5b505050506040513d6020811015620001d957600080fd5b5051600380546001600160a01b0319166001600160a01b0392831617905560025484821691161415620002e957806001600160a01b0316635909c0d56040518163ffffffff1660e01b815260040160206040518083038186803b1580156200024057600080fd5b505afa15801562000255573d6000803e3d6000fd5b505050506040513d60208110156200026c57600080fd5b505160055560408051635a3d549360e01b815290516001600160a01b03831691635a3d5493916004808301926020929190829003018186803b158015620002b257600080fd5b505afa158015620002c7573d6000803e3d6000fd5b505050506040513d6020811015620002de57600080fd5b5051600655620003c7565b806001600160a01b0316635a3d54936040518163ffffffff1660e01b815260040160206040518083038186803b1580156200032357600080fd5b505afa15801562000338573d6000803e3d6000fd5b505050506040513d60208110156200034f57600080fd5b505160055560408051635909c0d560e01b815290516001600160a01b03831691635909c0d5916004808301926020929190829003018186803b1580156200039557600080fd5b505afa158015620003aa573d6000803e3d6000fd5b505050506040513d6020811015620003c157600080fd5b50516006555b600080826001600160a01b0316630902f1ac6040518163ffffffff1660e01b815260040160606040518083038186803b1580156200040457600080fd5b505afa15801562000419573d6000803e3d6000fd5b505050506040513d60608110156200043057600080fd5b50805160208201516040909201516008805463ffffffff191663ffffffff909216919091179055925090506001600160701b038216158015906200047c57506001600160701b03811615155b620004ce576040805162461bcd60e51b815260206004820181905260248201527f4578616d706c654f7261636c6553696d706c653a204e4f5f5245534552564553604482015290519081900360640190fd5b6004805460ff60a01b1916600160a01b179055620004f46001600160e01b03620005ef16565b50506004805460ff60a01b191690555062000b7892505050565b3390565b600080806200052b85856001600160e01b03620007c916565b604080516001600160601b0319606094851b811660208084019190915293851b81166034830152825160288184030181526048830184528051908501207fff0000000000000000000000000000000000000000000000000000000000000060688401529a90941b9093166069840152607d8301989098527f96e8ac4277198ff8b6f785478aa9a39f403cb768dd02cbee326c3e7da348845f609d808401919091528851808403909101815260bd909201909752805196019590952095945050505050565b60008060006200061f600160009054906101000a90046001600160a01b0316620008ac60201b620008411760201c565b600854929550909350915063ffffffff90811682039062015180908216101580620006585750600454600160a01b900460ff1615156001145b15620007c3576004546002546001600160a01b0390811691161415620007155760405180602001604052808263ffffffff166005548703816200069757fe5b046001600160e01b039081169091529051600980546001600160e01b031916919092161790556040805160208101909152600654819063ffffffff841690860381620006df57fe5b046001600160e01b039081169091529051600a80546001600160e01b0319169190921617905560058490556006839055620007ad565b60405180602001604052808263ffffffff166005548603816200073457fe5b046001600160e01b039081169091529051600980546001600160e01b031916919092161790556040805160208101909152600654819063ffffffff8416908703816200077c57fe5b046001600160e01b039081169091529051600a80546001600160e01b03191691909216179055600583905560068490555b6008805463ffffffff191663ffffffff84161790555b50505050565b600080826001600160a01b0316846001600160a01b031614156200081f5760405162461bcd60e51b8152600401808060200182810382526025815260200180620018ac6025913960400191505060405180910390fd5b826001600160a01b0316846001600160a01b0316106200084157828462000844565b83835b90925090506001600160a01b038216620008a5576040805162461bcd60e51b815260206004820152601e60248201527f556e697377617056324c6962726172793a205a45524f5f414444524553530000604482015290519081900360640190fd5b9250929050565b60008080620008c36001600160e01b0362000aaf16565b9050836001600160a01b0316635909c0d56040518163ffffffff1660e01b815260040160206040518083038186803b158015620008ff57600080fd5b505afa15801562000914573d6000803e3d6000fd5b505050506040513d60208110156200092b57600080fd5b505160408051635a3d549360e01b815290519194506001600160a01b03861691635a3d549391600480820192602092909190829003018186803b1580156200097257600080fd5b505afa15801562000987573d6000803e3d6000fd5b505050506040513d60208110156200099e57600080fd5b505160408051630240bc6b60e21b81529051919350600091829182916001600160a01b03891691630902f1ac916004808301926060929190829003018186803b158015620009eb57600080fd5b505afa15801562000a00573d6000803e3d6000fd5b505050506040513d606081101562000a1757600080fd5b5080516020820151604090920151909450909250905063ffffffff8082169085161462000aa557600081850390508063ffffffff1662000a63848662000ab960201b62000a1a1760201c565b600001516001600160e01b031602870196508063ffffffff1662000a93858562000ab960201b62000a1a1760201c565b516001600160e01b0316029590950194505b5050509193909250565b63ffffffff421690565b62000ac362000b66565b6000826001600160701b03161162000b22576040805162461bcd60e51b815260206004820152601760248201527f4669786564506f696e743a204449565f42595f5a45524f000000000000000000604482015290519081900360640190fd5b6040805160208101909152806001600160701b038416600160701b600160e01b03607087901b168162000b5157fe5b046001600160e01b0316815250905092915050565b60408051602081019091526000815290565b610d248062000b886000396000f3fe608060405234801561001057600080fd5b506004361061012c5760003560e01c8063a2e62045116100ad578063c3e75bda11610071578063c3e75bda14610234578063c5700a0214610250578063d21220a714610271578063e865579f14610279578063f2fde38b146102965761012c565b8063a2e620451461020c578063a6bb453914610214578063a8aa1b311461021c578063b4d1d79514610224578063b5b24fd41461022c5761012c565b80635e6aaf2c116100f45780635e6aaf2c1461019c57806361e25d83146101c0578063715018a6146101dd57806375309b6e146101e75780638da5cb5b146102045761012c565b80630c644d29146101315780630dfe1681146101605780630fc63d10146101845780635909c0d51461018c5780635a3d549314610194575b600080fd5b61014e6004803603602081101561014757600080fd5b50356102bc565b60408051918252519081900360200190f35b610168610307565b604080516001600160a01b039092168252519081900360200190f35b610168610316565b61014e610325565b61014e61032b565b6101a4610331565b604080516001600160e01b039092168252519081900360200190f35b61014e600480360360208110156101d657600080fd5b5035610340565b6101e5610377565b005b61014e600480360360208110156101fd57600080fd5b503561042b565b61016861045b565b6101e561046a565b6101a4610628565b610168610637565b61014e610646565b61014e61064d565b61023c610653565b604080519115158252519081900360200190f35b610258610663565b6040805163ffffffff9092168252519081900360200190f35b61016861066f565b61014e6004803603602081101561028f57600080fd5b503561067e565b6101e5600480360360208110156102ac57600080fd5b50356001600160a01b03166106ae565b60006102c661046a565b6040805160208101909152600a546001600160e01b031681526102f8906102f3908463ffffffff6107b816565b610836565b6001600160901b031692915050565b6002546001600160a01b031681565b6004546001600160a01b031681565b60055481565b60065481565b600a546001600160e01b031681565b600061034a61046a565b60408051602081019091526009546001600160e01b031681526102f8906102f3908463ffffffff6107b816565b61037f61083d565b6000546001600160a01b039081169116146103e1576040805162461bcd60e51b815260206004820181905260248201527f4f776e61626c653a2063616c6c6572206973206e6f7420746865206f776e6572604482015290519081900360640190fd5b600080546040516001600160a01b03909116907f8be0079c531659141344cd1fd0a4f28419497f9722a3daafe3b4186f6b6457e0908390a3600080546001600160a01b0319169055565b6040805160208101909152600a546001600160e01b031681526000906102f8906102f3908463ffffffff6107b816565b6000546001600160a01b031690565b60015460009081908190610486906001600160a01b0316610841565b600854929550909350915063ffffffff908116820390620151809082161015806104be5750600454600160a01b900460ff1615156001145b15610622576004546002546001600160a01b03908116911614156105765760405180602001604052808263ffffffff166005548703816104fa57fe5b046001600160e01b039081169091529051600980546001600160e01b031916919092161790556040805160208101909152600654819063ffffffff84169086038161054157fe5b046001600160e01b039081169091529051600a80546001600160e01b031916919092161790556005849055600683905561060c565b60405180602001604052808263ffffffff1660055486038161059457fe5b046001600160e01b039081169091529051600980546001600160e01b031916919092161790556040805160208101909152600654819063ffffffff8416908703816105db57fe5b046001600160e01b039081169091529051600a80546001600160e01b03191691909216179055600583905560068490555b6008805463ffffffff191663ffffffff84161790555b50505050565b6009546001600160e01b031681565b6001546001600160a01b031681565b6201518081565b60075481565b600454600160a01b900460ff1681565b60085463ffffffff1681565b6003546001600160a01b031681565b60408051602081019091526009546001600160e01b031681526000906102f8906102f3908463ffffffff6107b816565b6106b661083d565b6000546001600160a01b03908116911614610718576040805162461bcd60e51b815260206004820181905260248201527f4f776e61626c653a2063616c6c6572206973206e6f7420746865206f776e6572604482015290519081900360640190fd5b6001600160a01b03811661075d5760405162461bcd60e51b8152600401808060200182810382526026815260200180610c816026913960400191505060405180910390fd5b600080546040516001600160a01b03808516939216917f8be0079c531659141344cd1fd0a4f28419497f9722a3daafe3b4186f6b6457e091a3600080546001600160a01b0319166001600160a01b0392909216919091179055565b6107c0610abd565b60008215806107e657505082516001600160e01b0316828102908382816107e357fe5b04145b6108215760405162461bcd60e51b8152600401808060200182810382526023815260200180610ccc6023913960400191505060405180910390fd5b60408051602081019091529081529392505050565b5160701c90565b3390565b600080600061084e610a10565b9050836001600160a01b0316635909c0d56040518163ffffffff1660e01b815260040160206040518083038186803b15801561088957600080fd5b505afa15801561089d573d6000803e3d6000fd5b505050506040513d60208110156108b357600080fd5b505160408051635a3d549360e01b815290519194506001600160a01b03861691635a3d549391600480820192602092909190829003018186803b1580156108f957600080fd5b505afa15801561090d573d6000803e3d6000fd5b505050506040513d602081101561092357600080fd5b505160408051630240bc6b60e21b81529051919350600091829182916001600160a01b03891691630902f1ac916004808301926060929190829003018186803b15801561096f57600080fd5b505afa158015610983573d6000803e3d6000fd5b505050506040513d606081101561099957600080fd5b5080516020820151604090920151909450909250905063ffffffff80821690851614610a065780840363ffffffff81166109d38486610a1a565b516001600160e01b031602969096019563ffffffff81166109f48585610a1a565b516001600160e01b0316029590950194505b5050509193909250565b63ffffffff421690565b610a22610ad0565b6000826001600160701b031611610a7a576040805162461bcd60e51b81526020600482015260176024820152764669786564506f696e743a204449565f42595f5a45524f60481b604482015290519081900360640190fd5b6040805160208101909152806001600160701b038416600160701b600160e01b03607087901b1681610aa857fe5b046001600160e01b0316815250905092915050565b6040518060200160405280600081525090565b60408051602081019091526000815290565b6000806000610af18585610ba2565b604080516bffffffffffffffffffffffff19606094851b811660208084019190915293851b81166034830152825160288184030181526048830184528051908501206001600160f81b031960688401529a90941b9093166069840152607d8301989098527f96e8ac4277198ff8b6f785478aa9a39f403cb768dd02cbee326c3e7da348845f609d808401919091528851808403909101815260bd909201909752805196019590952095945050505050565b600080826001600160a01b0316846001600160a01b03161415610bf65760405162461bcd60e51b8152600401808060200182810382526025815260200180610ca76025913960400191505060405180910390fd5b826001600160a01b0316846001600160a01b031610610c16578284610c19565b83835b90925090506001600160a01b038216610c79576040805162461bcd60e51b815260206004820152601e60248201527f556e697377617056324c6962726172793a205a45524f5f414444524553530000604482015290519081900360640190fd5b925092905056fe4f776e61626c653a206e6577206f776e657220697320746865207a65726f2061646472657373556e697377617056324c6962726172793a204944454e544943414c5f4144445245535345534669786564506f696e743a204d554c5449504c49434154494f4e5f4f564552464c4f57a264697066735822122096a8de9783ff72df892c6e6d38f0609300080422b5d4e6482ede27c91f14dea164736f6c63430006060033556e697377617056324c6962726172793a204944454e544943414c5f414444524553534553",
  "immutableReferences": {},
  "source": "pragma solidity ^0.6.2;\n\nimport \"openzeppelin-solidity/contracts/access/Ownable.sol\";\nimport \"@uniswap/v2-core/contracts/interfaces/IUniswapV2Factory.sol\";\nimport \"@uniswap/v2-core/contracts/interfaces/IUniswapV2Pair.sol\";\nimport \"@uniswap/lib/contracts/libraries/FixedPoint.sol\";\nimport \"@uniswap/v2-periphery/contracts/libraries/UniswapV2OracleLibrary.sol\";\nimport \"@uniswap/v2-periphery/contracts/libraries/UniswapV2Library.sol\";\n\ncontract UniswapOracleInstance is Ownable {\n    using SafeMath for uint256;\n\n    // fixed window oracle that recomputes the average price for the entire period once every period\n    // note that the price average is only guaranteed to be over at least 1 period, but may be over a longer period\n\n    using FixedPoint for *;\n\n    uint256 public constant PERIOD = 24 hours;\n\n    IUniswapV2Pair public pair;\n    address public token0;\n    address public token1;\n    address public tokenA;\n    bool public firstRun;\n\n    uint256 public price0CumulativeLast;\n    uint256 public price1CumulativeLast;\n    uint256 public runs;\n    uint32 public blockTimestampLast;\n    FixedPoint.uq112x112 public price0Average;\n    FixedPoint.uq112x112 public price1Average;\n\n    /**\n@notice the constructor function is fired once during token creation to initialize the oracle contract to a specific token pair\n@param _factory is the address of the Uniswap factory contract\n@param _tokenA is the address of the asset being looked up\n@param _tokenB is the address of the USDC token\n**/\n\n    constructor(\n        address _factory,\n        address _tokenA,\n        address _tokenB\n    ) public {\n        IUniswapV2Pair _pair = IUniswapV2Pair(\n            UniswapV2Library.pairFor(_factory, _tokenA, _tokenB)\n        );\n        tokenA = _tokenA;\n        pair = _pair;\n        token0 = _pair.token0();\n        token1 = _pair.token1();\n        if (token0 == _tokenA) {\n            price0CumulativeLast = _pair.price0CumulativeLast(); // fetch the current accumulated price value (1 / 0)\n            price1CumulativeLast = _pair.price1CumulativeLast();\n        } else {\n            price0CumulativeLast = _pair.price1CumulativeLast(); // fetch the current accumulated price value (0 / 1)\n            price1CumulativeLast = _pair.price0CumulativeLast();\n        }\n        uint112 reserve0;\n        uint112 reserve1;\n        (reserve0, reserve1, blockTimestampLast) = _pair.getReserves();\n        require(\n            reserve0 != 0 && reserve1 != 0,\n            \"ExampleOracleSimple: NO_RESERVES\"\n        ); // ensure that there's liquidity in the pair\n        firstRun = true;\n        update();\n        firstRun = false;\n    }\n\n    /**\n@notice update updates the prices for the input token pair over a set 24hour period\n@dev this is an internal function called by consult if the timeElapsed is greater than 24 hours\n**/\n    function update() public {\n        (\n            uint256 price0Cumulative,\n            uint256 price1Cumulative,\n            uint32 blockTimestamp\n        ) = UniswapV2OracleLibrary.currentCumulativePrices(address(pair));\n        uint32 timeElapsed = blockTimestamp - blockTimestampLast; // overflow is desired\n\n        //check if this is the first update\n        if (timeElapsed >= PERIOD || firstRun == true) {\n            // ensure that at least one full period has passed since the last update\n            // cumulative price is in (uq112x112 price * seconds) units so we simply wrap it after division by time elapsed\n            if (token0 == tokenA) {\n                price0Average = FixedPoint.uq112x112(\n                    uint224(\n                        (price0Cumulative - price0CumulativeLast) / timeElapsed\n                    )\n                );\n                price1Average = FixedPoint.uq112x112(\n                    uint224(\n                        (price1Cumulative - price1CumulativeLast) / timeElapsed\n                    )\n                );\n                price0CumulativeLast = price0Cumulative;\n                price1CumulativeLast = price1Cumulative;\n            } else {\n                price0Average = FixedPoint.uq112x112(\n                    uint224(\n                        (price1Cumulative - price0CumulativeLast) / timeElapsed\n                    )\n                );\n                price1Average = FixedPoint.uq112x112(\n                    uint224(\n                        (price0Cumulative - price1CumulativeLast) / timeElapsed\n                    )\n                );\n                price0CumulativeLast = price1Cumulative;\n                price1CumulativeLast = price0Cumulative;\n            }\n\n            blockTimestampLast = blockTimestamp;\n        }\n    }\n\n    /**\n@notice consult returns the price of a token in USDC\n@return price is the price of one asset in USDC(example 1WETH in USDC)\n**/\n    function consult(uint256 _amount) external returns (uint256 price) {\n        update();\n        price = price0Average.mul(_amount).decode144();\n    }\n\n    /**\n    @notice consult returns the price of a token in USDC\n    @return price is the price of one asset in USDC(example 1WETH in USDC)\n    **/\n    function viewPrice(uint256 _amount) external view returns (uint256 price) {\n        price = price0Average.mul(_amount).decode144();\n    }\n\n    /**\n@notice consult returns the price of a token in USDC\n@return price is the price of one asset in USDC(example 1WETH in USDC)\n**/\n    function consultUSDC(uint256 _amount) external returns (uint256 price) {\n        update();\n        price = price1Average.mul(_amount).decode144();\n    }\n\n    /**\n    @notice consult returns the price of a token in USDC\n    @return price is the price of one asset in USDC(example 1WETH in USDC)\n    **/\n    function viewUSDC(uint256 _amount) external view returns (uint256 price) {\n        price = price1Average.mul(_amount).decode144();\n    }\n}\n",
  "sourcePath": "/home/memec/code/askolend/AskoLend-contracts/contracts/UniswapOracleInstance.sol",
  "compiler": {
    "name": "solc",
    "version": "0.6.6+commit.6c089d02.Emscripten.clang"
  },
  "schemaVersion": "3.3.2",
  "updatedAt": "2020-12-12T01:13:52.497Z",
  "devdoc": {
    "methods": {
      "constructor": {
        "params": {
          "_factory": "is the address of the Uniswap factory contract",
          "_tokenA": "is the address of the asset being looked up",
          "_tokenB": "is the address of the USDC token*"
        }
      },
      "owner()": {
        "details": "Returns the address of the current owner."
      },
      "renounceOwnership()": {
        "details": "Leaves the contract without owner. It will not be possible to call `onlyOwner` functions anymore. Can only be called by the current owner.     * NOTE: Renouncing ownership will leave the contract without an owner, thereby removing any functionality that is only available to the owner."
      },
      "transferOwnership(address)": {
        "details": "Transfers ownership of the contract to a new account (`newOwner`). Can only be called by the current owner."
      },
      "update()": {
        "details": "this is an internal function called by consult if the timeElapsed is greater than 24 hours*"
      }
    }
  },
  "userdoc": {
    "methods": {
      "constructor": "the constructor function is fired once during token creation to initialize the oracle contract to a specific token pair",
      "consult(uint256)": {
        "notice": "consult returns the price of a token in USDC"
      },
      "consultUSDC(uint256)": {
        "notice": "consult returns the price of a token in USDC"
      },
      "update()": {
        "notice": "update updates the prices for the input token pair over a set 24hour period"
      },
      "viewPrice(uint256)": {
        "notice": "consult returns the price of a token in USDC"
      },
      "viewUSDC(uint256)": {
        "notice": "consult returns the price of a token in USDC"
      }
    }
  }
}