{
  "contractName": "UniswapOracleInstance",
  "abi": [
    {
      "inputs": [
        {
          "internalType": "address",
          "name": "_factory",
          "type": "address"
        },
        {
          "internalType": "address",
          "name": "_tokenA",
          "type": "address"
        },
        {
          "internalType": "address",
          "name": "_tokenB",
          "type": "address"
        }
      ],
      "stateMutability": "nonpayable",
      "type": "constructor"
    },
    {
      "anonymous": false,
      "inputs": [
        {
          "indexed": true,
          "internalType": "address",
          "name": "previousOwner",
          "type": "address"
        },
        {
          "indexed": true,
          "internalType": "address",
          "name": "newOwner",
          "type": "address"
        }
      ],
      "name": "OwnershipTransferred",
      "type": "event"
    },
    {
      "inputs": [],
      "name": "PERIOD",
      "outputs": [
        {
          "internalType": "uint256",
          "name": "",
          "type": "uint256"
        }
      ],
      "stateMutability": "view",
      "type": "function"
    },
    {
      "inputs": [],
      "name": "blockTimestampLast",
      "outputs": [
        {
          "internalType": "uint32",
          "name": "",
          "type": "uint32"
        }
      ],
      "stateMutability": "view",
      "type": "function"
    },
    {
      "inputs": [],
      "name": "firstRun",
      "outputs": [
        {
          "internalType": "bool",
          "name": "",
          "type": "bool"
        }
      ],
      "stateMutability": "view",
      "type": "function"
    },
    {
      "inputs": [],
      "name": "owner",
      "outputs": [
        {
          "internalType": "address",
          "name": "",
          "type": "address"
        }
      ],
      "stateMutability": "view",
      "type": "function"
    },
    {
      "inputs": [],
      "name": "pair",
      "outputs": [
        {
          "internalType": "contract IUniswapV2Pair",
          "name": "",
          "type": "address"
        }
      ],
      "stateMutability": "view",
      "type": "function"
    },
    {
      "inputs": [],
      "name": "price0Average",
      "outputs": [
        {
          "internalType": "uint224",
          "name": "_x",
          "type": "uint224"
        }
      ],
      "stateMutability": "view",
      "type": "function"
    },
    {
      "inputs": [],
      "name": "price0CumulativeLast",
      "outputs": [
        {
          "internalType": "uint256",
          "name": "",
          "type": "uint256"
        }
      ],
      "stateMutability": "view",
      "type": "function"
    },
    {
      "inputs": [],
      "name": "price1Average",
      "outputs": [
        {
          "internalType": "uint224",
          "name": "_x",
          "type": "uint224"
        }
      ],
      "stateMutability": "view",
      "type": "function"
    },
    {
      "inputs": [],
      "name": "price1CumulativeLast",
      "outputs": [
        {
          "internalType": "uint256",
          "name": "",
          "type": "uint256"
        }
      ],
      "stateMutability": "view",
      "type": "function"
    },
    {
      "inputs": [],
      "name": "renounceOwnership",
      "outputs": [],
      "stateMutability": "nonpayable",
      "type": "function"
    },
    {
      "inputs": [],
      "name": "runs",
      "outputs": [
        {
          "internalType": "uint256",
          "name": "",
          "type": "uint256"
        }
      ],
      "stateMutability": "view",
      "type": "function"
    },
    {
      "inputs": [],
      "name": "token0",
      "outputs": [
        {
          "internalType": "address",
          "name": "",
          "type": "address"
        }
      ],
      "stateMutability": "view",
      "type": "function"
    },
    {
      "inputs": [],
      "name": "token1",
      "outputs": [
        {
          "internalType": "address",
          "name": "",
          "type": "address"
        }
      ],
      "stateMutability": "view",
      "type": "function"
    },
    {
      "inputs": [],
      "name": "tokenA",
      "outputs": [
        {
          "internalType": "address",
          "name": "",
          "type": "address"
        }
      ],
      "stateMutability": "view",
      "type": "function"
    },
    {
      "inputs": [
        {
          "internalType": "address",
          "name": "newOwner",
          "type": "address"
        }
      ],
      "name": "transferOwnership",
      "outputs": [],
      "stateMutability": "nonpayable",
      "type": "function"
    },
    {
      "inputs": [],
      "name": "update",
      "outputs": [],
      "stateMutability": "nonpayable",
      "type": "function"
    },
    {
      "inputs": [
        {
          "internalType": "uint256",
          "name": "_amount",
          "type": "uint256"
        }
      ],
      "name": "consult",
      "outputs": [
        {
          "internalType": "uint256",
          "name": "price",
          "type": "uint256"
        }
      ],
      "stateMutability": "nonpayable",
      "type": "function"
    },
    {
      "inputs": [
        {
          "internalType": "uint256",
          "name": "_amount",
          "type": "uint256"
        }
      ],
      "name": "viewPrice",
      "outputs": [
        {
          "internalType": "uint256",
          "name": "price",
          "type": "uint256"
        }
      ],
      "stateMutability": "view",
      "type": "function"
    },
    {
      "inputs": [
        {
          "internalType": "uint256",
          "name": "_amount",
          "type": "uint256"
        }
      ],
      "name": "consultwETH",
      "outputs": [
        {
          "internalType": "uint256",
          "name": "price",
          "type": "uint256"
        }
      ],
      "stateMutability": "nonpayable",
      "type": "function"
    },
    {
      "inputs": [
        {
          "internalType": "uint256",
          "name": "_amount",
          "type": "uint256"
        }
      ],
      "name": "viewwETH",
      "outputs": [
        {
          "internalType": "uint256",
          "name": "price",
          "type": "uint256"
        }
      ],
      "stateMutability": "view",
      "type": "function"
    }
  ],
  "bytecode": "0x60806040523480156200001157600080fd5b50604051620016cb380380620016cb833981810160405260608110156200003757600080fd5b508051602082015160409092015190919060006200005d6001600160e01b03620005cc16565b600080546001600160a01b0319166001600160a01b0383169081178255604051929350917f8be0079c531659141344cd1fd0a4f28419497f9722a3daafe3b4186f6b6457e0908290a350806001600160a01b0316826001600160a01b03161462000592576040805163e6a4390560e01b81526001600160a01b0384811660048301528381166024830152915185926000929084169163e6a4390591604480820192602092909190829003018186803b1580156200011957600080fd5b505afa1580156200012e573d6000803e3d6000fd5b505050506040513d60208110156200014557600080fd5b5051600480546001600160a01b038088166001600160a01b03199283161783556001805491851691909216811790915560408051630dfe168160e01b815290519394509092630dfe168192828101926020929190829003018186803b158015620001ae57600080fd5b505afa158015620001c3573d6000803e3d6000fd5b505050506040513d6020811015620001da57600080fd5b5051600280546001600160a01b0319166001600160a01b039283161790556040805163d21220a760e01b815290519183169163d21220a791600480820192602092909190829003018186803b1580156200023357600080fd5b505afa15801562000248573d6000803e3d6000fd5b505050506040513d60208110156200025f57600080fd5b5051600380546001600160a01b0319166001600160a01b03928316179055600254858216911614156200036f57806001600160a01b0316635909c0d56040518163ffffffff1660e01b815260040160206040518083038186803b158015620002c657600080fd5b505afa158015620002db573d6000803e3d6000fd5b505050506040513d6020811015620002f257600080fd5b505160055560408051635a3d549360e01b815290516001600160a01b03831691635a3d5493916004808301926020929190829003018186803b1580156200033857600080fd5b505afa1580156200034d573d6000803e3d6000fd5b505050506040513d60208110156200036457600080fd5b50516006556200044d565b806001600160a01b0316635a3d54936040518163ffffffff1660e01b815260040160206040518083038186803b158015620003a957600080fd5b505afa158015620003be573d6000803e3d6000fd5b505050506040513d6020811015620003d557600080fd5b505160055560408051635909c0d560e01b815290516001600160a01b03831691635909c0d5916004808301926020929190829003018186803b1580156200041b57600080fd5b505afa15801562000430573d6000803e3d6000fd5b505050506040513d60208110156200044757600080fd5b50516006555b600080826001600160a01b0316630902f1ac6040518163ffffffff1660e01b815260040160606040518083038186803b1580156200048a57600080fd5b505afa1580156200049f573d6000803e3d6000fd5b505050506040513d6060811015620004b657600080fd5b50805160208201516040909201516008805463ffffffff191663ffffffff909216919091179055925090506001600160701b038216158015906200050257506001600160701b03811615155b62000554576040805162461bcd60e51b815260206004820181905260248201527f4578616d706c654f7261636c6553696d706c653a204e4f5f5245534552564553604482015290519081900360640190fd5b6004805460ff60a01b1916600160a01b1790556200057a6001600160e01b03620005d016565b50506004805460ff60a01b1916905550620005c39050565b600280546001600160a01b038085166001600160a01b03199283161790925560038054928416929091169190911790555b50505062000a75565b3390565b600080600062000600600160009054906101000a90046001600160a01b0316620007a960201b620008ce1760201c565b600854929550909350915063ffffffff90811682039061a8c0908216101580620006385750600454600160a01b900460ff1615156001145b15620007a3576004546002546001600160a01b0390811691161415620006f55760405180602001604052808263ffffffff166005548703816200067757fe5b046001600160e01b039081169091529051600980546001600160e01b031916919092161790556040805160208101909152600654819063ffffffff841690860381620006bf57fe5b046001600160e01b039081169091529051600a80546001600160e01b03191691909216179055600584905560068390556200078d565b60405180602001604052808263ffffffff166005548603816200071457fe5b046001600160e01b039081169091529051600980546001600160e01b031916919092161790556040805160208101909152600654819063ffffffff8416908703816200075c57fe5b046001600160e01b039081169091529051600a80546001600160e01b03191691909216179055600583905560068490555b6008805463ffffffff191663ffffffff84161790555b50505050565b60008080620007c06001600160e01b03620009ac16565b9050836001600160a01b0316635909c0d56040518163ffffffff1660e01b815260040160206040518083038186803b158015620007fc57600080fd5b505afa15801562000811573d6000803e3d6000fd5b505050506040513d60208110156200082857600080fd5b505160408051635a3d549360e01b815290519194506001600160a01b03861691635a3d549391600480820192602092909190829003018186803b1580156200086f57600080fd5b505afa15801562000884573d6000803e3d6000fd5b505050506040513d60208110156200089b57600080fd5b505160408051630240bc6b60e21b81529051919350600091829182916001600160a01b03891691630902f1ac916004808301926060929190829003018186803b158015620008e857600080fd5b505afa158015620008fd573d6000803e3d6000fd5b505050506040513d60608110156200091457600080fd5b5080516020820151604090920151909450909250905063ffffffff80821690851614620009a257600081850390508063ffffffff16620009608486620009b660201b62000ad91760201c565b600001516001600160e01b031602870196508063ffffffff16620009908585620009b660201b62000ad91760201c565b516001600160e01b0316029590950194505b5050509193909250565b63ffffffff421690565b620009c062000a63565b6000826001600160701b03161162000a1f576040805162461bcd60e51b815260206004820152601760248201527f4669786564506f696e743a204449565f42595f5a45524f000000000000000000604482015290519081900360640190fd5b6040805160208101909152806001600160701b038416600160701b600160e01b03607087901b168162000a4e57fe5b046001600160e01b0316815250905092915050565b60408051602081019091526000815290565b610c468062000a856000396000f3fe608060405234801561001057600080fd5b506004361061016c5760003560e01c8063a2e62045116100cd578063c3e75bda11610081578063d21220a711610066578063d21220a7146102b1578063e865579f146102b9578063f2fde38b146102d65761016c565b8063c3e75bda14610274578063c5700a02146102905761016c565b8063a8aa1b31116100b2578063a8aa1b311461025c578063b4d1d79514610264578063b5b24fd41461026c5761016c565b8063a2e620451461024c578063a6bb4539146102545761016c565b80635e6aaf2c11610124578063715018a611610109578063715018a61461021d57806378933659146102275780638da5cb5b146102445761016c565b80635e6aaf2c146101dc57806361e25d83146102005761016c565b806321cbc6e11161015557806321cbc6e11461019d5780635909c0d5146101cc5780635a3d5493146101d45761016c565b80630dfe1681146101715780630fc63d1014610195575b600080fd5b6101796102fc565b604080516001600160a01b039092168252519081900360200190f35b61017961030b565b6101ba600480360360208110156101b357600080fd5b503561031a565b60408051918252519081900360200190f35b6101ba610393565b6101ba610399565b6101e461039f565b604080516001600160e01b039092168252519081900360200190f35b6101ba6004803603602081101561021657600080fd5b50356103ae565b610225610406565b005b6101ba6004803603602081101561023d57600080fd5b50356104c7565b6101796104ea565b6102256104f9565b6101e46106b6565b6101796106c5565b6101ba6106d4565b6101ba6106da565b61027c6106e0565b604080519115158252519081900360200190f35b6102986106f0565b6040805163ffffffff9092168252519081900360200190f35b6101796106fc565b6101ba600480360360208110156102cf57600080fd5b503561070b565b610225600480360360208110156102ec57600080fd5b50356001600160a01b031661072e565b6002546001600160a01b031681565b6004546001600160a01b031681565b6003546002546000916001600160a01b039182169116141561033d57508061038e565b6103456104f9565b6040805160208101909152600a546001600160e01b0316815261037790610372908463ffffffff61084516565b6108c3565b71ffffffffffffffffffffffffffffffffffff1690505b919050565b60055481565b60065481565b600a546001600160e01b031681565b6003546002546000916001600160a01b03918216911614156103d157508061038e565b6103d96104f9565b60408051602081019091526009546001600160e01b0316815261037790610372908463ffffffff61084516565b61040e6108ca565b6000546001600160a01b03908116911614610470576040805162461bcd60e51b815260206004820181905260248201527f4f776e61626c653a2063616c6c6572206973206e6f7420746865206f776e6572604482015290519081900360640190fd5b600080546040516001600160a01b03909116907f8be0079c531659141344cd1fd0a4f28419497f9722a3daafe3b4186f6b6457e0908390a36000805473ffffffffffffffffffffffffffffffffffffffff19169055565b6003546002546000916001600160a01b039182169116141561034557508061038e565b6000546001600160a01b031690565b60015460009081908190610515906001600160a01b03166108ce565b600854929550909350915063ffffffff90811682039061a8c090821610158061054c5750600454600160a01b900460ff1615156001145b156106b0576004546002546001600160a01b03908116911614156106045760405180602001604052808263ffffffff1660055487038161058857fe5b046001600160e01b039081169091529051600980546001600160e01b031916919092161790556040805160208101909152600654819063ffffffff8416908603816105cf57fe5b046001600160e01b039081169091529051600a80546001600160e01b031916919092161790556005849055600683905561069a565b60405180602001604052808263ffffffff1660055486038161062257fe5b046001600160e01b039081169091529051600980546001600160e01b031916919092161790556040805160208101909152600654819063ffffffff84169087038161066957fe5b046001600160e01b039081169091529051600a80546001600160e01b03191691909216179055600583905560068490555b6008805463ffffffff191663ffffffff84161790555b50505050565b6009546001600160e01b031681565b6001546001600160a01b031681565b61a8c081565b60075481565b600454600160a01b900460ff1681565b60085463ffffffff1681565b6003546001600160a01b031681565b6003546002546000916001600160a01b03918216911614156103d957508061038e565b6107366108ca565b6000546001600160a01b03908116911614610798576040805162461bcd60e51b815260206004820181905260248201527f4f776e61626c653a2063616c6c6572206973206e6f7420746865206f776e6572604482015290519081900360640190fd5b6001600160a01b0381166107dd5760405162461bcd60e51b8152600401808060200182810382526026815260200180610bc86026913960400191505060405180910390fd5b600080546040516001600160a01b03808516939216917f8be0079c531659141344cd1fd0a4f28419497f9722a3daafe3b4186f6b6457e091a36000805473ffffffffffffffffffffffffffffffffffffffff19166001600160a01b0392909216919091179055565b61084d610ba2565b600082158061087357505082516001600160e01b03168281029083828161087057fe5b04145b6108ae5760405162461bcd60e51b8152600401808060200182810382526023815260200180610bee6023913960400191505060405180910390fd5b60408051602081019091529081529392505050565b5160701c90565b3390565b60008060006108db610acf565b9050836001600160a01b0316635909c0d56040518163ffffffff1660e01b815260040160206040518083038186803b15801561091657600080fd5b505afa15801561092a573d6000803e3d6000fd5b505050506040513d602081101561094057600080fd5b5051604080517f5a3d549300000000000000000000000000000000000000000000000000000000815290519194506001600160a01b03861691635a3d549391600480820192602092909190829003018186803b15801561099f57600080fd5b505afa1580156109b3573d6000803e3d6000fd5b505050506040513d60208110156109c957600080fd5b5051604080517f0902f1ac0000000000000000000000000000000000000000000000000000000081529051919350600091829182916001600160a01b03891691630902f1ac916004808301926060929190829003018186803b158015610a2e57600080fd5b505afa158015610a42573d6000803e3d6000fd5b505050506040513d6060811015610a5857600080fd5b5080516020820151604090920151909450909250905063ffffffff80821690851614610ac55780840363ffffffff8116610a928486610ad9565b516001600160e01b031602969096019563ffffffff8116610ab38585610ad9565b516001600160e01b0316029590950194505b5050509193909250565b63ffffffff421690565b610ae1610bb5565b6000826dffffffffffffffffffffffffffff1611610b46576040805162461bcd60e51b815260206004820152601760248201527f4669786564506f696e743a204449565f42595f5a45524f000000000000000000604482015290519081900360640190fd5b6040805160208101909152806dffffffffffffffffffffffffffff84167bffffffffffffffffffffffffffff0000000000000000000000000000607087901b1681610b8d57fe5b046001600160e01b0316815250905092915050565b6040518060200160405280600081525090565b6040805160208101909152600081529056fe4f776e61626c653a206e6577206f776e657220697320746865207a65726f20616464726573734669786564506f696e743a204d554c5449504c49434154494f4e5f4f564552464c4f57a26469706673582212208a109917ff74a8f774a97723dabfb89498b3ef69c41720d72285f6f3bdb6155c64736f6c63430006060033",
  "immutableReferences": {},
  "source": "pragma solidity 0.6.6;\n\nimport \"openzeppelin-solidity/contracts/access/Ownable.sol\";\nimport \"@uniswap/v2-core/contracts/interfaces/IUniswapV2Factory.sol\";\nimport \"@uniswap/v2-core/contracts/interfaces/IUniswapV2Pair.sol\";\nimport \"@uniswap/lib/contracts/libraries/FixedPoint.sol\";\nimport \"@uniswap/v2-periphery/contracts/libraries/UniswapV2OracleLibrary.sol\";\nimport \"@uniswap/v2-periphery/contracts/libraries/UniswapV2Library.sol\";\n\ncontract UniswapOracleInstance is Ownable {\n    using SafeMath for uint256;\n\n    // fixed window oracle that recomputes the average price for the entire period once every period\n    // note that the price average is only guaranteed to be over at least 1 period, but may be over a longer period\n\n    using FixedPoint for *;\n\n    uint256 public constant PERIOD = 12 hours;\n\n    IUniswapV2Pair public pair;\n    address public token0;\n    address public token1;\n    address public tokenA;\n    bool public firstRun;\n\n    uint256 public price0CumulativeLast;\n    uint256 public price1CumulativeLast;\n    uint256 public runs;\n    uint32 public blockTimestampLast;\n    FixedPoint.uq112x112 public price0Average;\n    FixedPoint.uq112x112 public price1Average;\n\n    /**\n@notice the constructor function is fired once during token creation to initialize the oracle contract to a specific token pair\n@param _factory is the address of the Uniswap factory contract\n@param _tokenA is the address of the asset being looked up\n@param _tokenB is the address of the wETH token\n**/\n\n    constructor(\n        address _factory,\n        address _tokenA,\n        address _tokenB\n    ) public {\n      if(_tokenA != _tokenB) {\n        IUniswapV2Factory _fac =\n            IUniswapV2Factory(\n                _factory\n            );\n        IUniswapV2Pair _pair =\n            IUniswapV2Pair(\n                _fac.getPair( _tokenA, _tokenB)\n            );\n        tokenA = _tokenA;\n        pair = _pair;\n        token0 = _pair.token0();\n        token1 = _pair.token1();\n        if (token0 == _tokenA) {\n            price0CumulativeLast = _pair.price0CumulativeLast(); // fetch the current accumulated price value (1 / 0)\n            price1CumulativeLast = _pair.price1CumulativeLast();\n        } else {\n            price0CumulativeLast = _pair.price1CumulativeLast(); // fetch the current accumulated price value (0 / 1)\n            price1CumulativeLast = _pair.price0CumulativeLast();\n        }\n        uint112 reserve0;\n        uint112 reserve1;\n        (reserve0, reserve1, blockTimestampLast) = _pair.getReserves();\n        require(\n            reserve0 != 0 && reserve1 != 0,\n            \"ExampleOracleSimple: NO_RESERVES\"\n        ); // ensure that there's liquidity in the pair\n        firstRun = true;\n        update();\n        firstRun = false;\n      } else {\n        token0 = _tokenA;\n        token1 = _tokenB;\n    }\n\n  }\n\n    /**\n@notice update updates the prices for the input token pair over a set 24hour period\n@dev this is an internal function called by consult if the timeElapsed is greater than 24 hours\n**/\n    function update() public {\n        (\n            uint256 price0Cumulative,\n            uint256 price1Cumulative,\n            uint32 blockTimestamp\n        ) = UniswapV2OracleLibrary.currentCumulativePrices(address(pair));\n        uint32 timeElapsed = blockTimestamp - blockTimestampLast; // overflow is desired\n        //check if this is the first update\n        if (timeElapsed >= PERIOD || firstRun == true) {\n            // ensure that at least one full period has passed since the last update\n            // cumulative price is in (uq112x112 price * seconds) units so we simply wrap it after division by time elapsed\n            if (token0 == tokenA) {\n                price0Average = FixedPoint.uq112x112(\n                    uint224(\n                        (price0Cumulative - price0CumulativeLast) / timeElapsed\n                    )\n                );\n                price1Average = FixedPoint.uq112x112(\n                    uint224(\n                        (price1Cumulative - price1CumulativeLast) / timeElapsed\n                    )\n                );\n                price0CumulativeLast = price0Cumulative;\n                price1CumulativeLast = price1Cumulative;\n            } else {\n                price0Average = FixedPoint.uq112x112(\n                    uint224(\n                        (price1Cumulative - price0CumulativeLast) / timeElapsed\n                    )\n                );\n                price1Average = FixedPoint.uq112x112(\n                    uint224(\n                        (price0Cumulative - price1CumulativeLast) / timeElapsed\n                    )\n                );\n                price0CumulativeLast = price1Cumulative;\n                price1CumulativeLast = price0Cumulative;\n            }\n\n            blockTimestampLast = blockTimestamp;\n        }\n    }\n\n    /**\n@notice consult returns the price of a asset amount in wETH\n@return price is the price of one asset in wETYH(example 1LINK in wETH)\n**/\n    function consult(uint256 _amount) external returns (uint256 price) {\n      if(token0 == token1) {\n        price = _amount;\n      } else {\n        update();\n        price = price0Average.mul(_amount).decode144();\n      }\n    }\n\n    /**\n@notice consult returns the price of a asset amount in wETH\n@return price is the price of one asset in wETYH(example 1LINK in wETH)\n**/\n    function viewPrice(uint256 _amount) external view returns (uint256 price) {\n      if(token0 == token1) {\n        price = _amount;\n      } else {\n        price = price0Average.mul(_amount).decode144();\n      }\n    }\n\n    /**\n@notice consult returns the asset value of an input wETH amount\n@return price the asset value of an input wETH amount\n**/\n    function consultwETH(uint256 _amount) external returns (uint256 price) {\n      if(token0 == token1) {\n        price = _amount;\n      } else {\n        update();\n        price = price1Average.mul(_amount).decode144();\n      }\n    }\n\n    /**\n    @notice consult returns the asset value of an input wETH amount\n    @return price the asset value of an input wETH amount\n**/\n    function viewwETH(uint256 _amount) external view returns (uint256 price) {\n      if(token0 == token1) {\n        price = _amount;\n      } else {\n        price = price1Average.mul(_amount).decode144();\n      }\n    }\n}\n",
  "sourcePath": "/home/stan36/repos/asko/Askolend/AskoLend-contracts/contracts/UniswapOracleInstance.sol",
  "compiler": {
    "name": "solc",
    "version": "0.6.6+commit.6c089d02.Emscripten.clang"
  },
  "schemaVersion": "3.3.2",
  "updatedAt": "2021-03-15T04:52:48.708Z",
  "devdoc": {
    "methods": {
      "constructor": {
        "params": {
          "_factory": "is the address of the Uniswap factory contract",
          "_tokenA": "is the address of the asset being looked up",
          "_tokenB": "is the address of the wETH token*"
        }
      },
      "owner()": {
        "details": "Returns the address of the current owner."
      },
      "renounceOwnership()": {
        "details": "Leaves the contract without owner. It will not be possible to call `onlyOwner` functions anymore. Can only be called by the current owner.     * NOTE: Renouncing ownership will leave the contract without an owner, thereby removing any functionality that is only available to the owner."
      },
      "transferOwnership(address)": {
        "details": "Transfers ownership of the contract to a new account (`newOwner`). Can only be called by the current owner."
      },
      "update()": {
        "details": "this is an internal function called by consult if the timeElapsed is greater than 24 hours*"
      }
    }
  },
  "userdoc": {
    "methods": {
      "constructor": "the constructor function is fired once during token creation to initialize the oracle contract to a specific token pair",
      "consult(uint256)": {
        "notice": "consult returns the price of a asset amount in wETH"
      },
      "consultwETH(uint256)": {
        "notice": "consult returns the asset value of an input wETH amount"
      },
      "update()": {
        "notice": "update updates the prices for the input token pair over a set 24hour period"
      },
      "viewPrice(uint256)": {
        "notice": "consult returns the price of a asset amount in wETH"
      },
      "viewwETH(uint256)": {
        "notice": "consult returns the asset value of an input wETH amount"
      }
    }
  }
}