{
  "contractName": "UniswapOracleInstance",
  "abi": [
    {
      "inputs": [
        {
          "internalType": "address",
          "name": "_factory",
          "type": "address"
        },
        {
          "internalType": "address",
          "name": "_tokenA",
          "type": "address"
        },
        {
          "internalType": "address",
          "name": "_tokenB",
          "type": "address"
        }
      ],
      "stateMutability": "nonpayable",
      "type": "constructor"
    },
    {
      "anonymous": false,
      "inputs": [
        {
          "indexed": true,
          "internalType": "address",
          "name": "previousOwner",
          "type": "address"
        },
        {
          "indexed": true,
          "internalType": "address",
          "name": "newOwner",
          "type": "address"
        }
      ],
      "name": "OwnershipTransferred",
      "type": "event"
    },
    {
      "inputs": [],
      "name": "PERIOD",
      "outputs": [
        {
          "internalType": "uint256",
          "name": "",
          "type": "uint256"
        }
      ],
      "stateMutability": "view",
      "type": "function"
    },
    {
      "inputs": [],
      "name": "blockTimestampLast",
      "outputs": [
        {
          "internalType": "uint32",
          "name": "",
          "type": "uint32"
        }
      ],
      "stateMutability": "view",
      "type": "function"
    },
    {
      "inputs": [],
      "name": "owner",
      "outputs": [
        {
          "internalType": "address",
          "name": "",
          "type": "address"
        }
      ],
      "stateMutability": "view",
      "type": "function"
    },
    {
      "inputs": [],
      "name": "pair",
      "outputs": [
        {
          "internalType": "contract IUniswapV2Pair",
          "name": "",
          "type": "address"
        }
      ],
      "stateMutability": "view",
      "type": "function"
    },
    {
      "inputs": [],
      "name": "price0Average",
      "outputs": [
        {
          "internalType": "uint224",
          "name": "_x",
          "type": "uint224"
        }
      ],
      "stateMutability": "view",
      "type": "function"
    },
    {
      "inputs": [],
      "name": "price0CumulativeLast",
      "outputs": [
        {
          "internalType": "uint256",
          "name": "",
          "type": "uint256"
        }
      ],
      "stateMutability": "view",
      "type": "function"
    },
    {
      "inputs": [],
      "name": "price1Average",
      "outputs": [
        {
          "internalType": "uint224",
          "name": "_x",
          "type": "uint224"
        }
      ],
      "stateMutability": "view",
      "type": "function"
    },
    {
      "inputs": [],
      "name": "price1CumulativeLast",
      "outputs": [
        {
          "internalType": "uint256",
          "name": "",
          "type": "uint256"
        }
      ],
      "stateMutability": "view",
      "type": "function"
    },
    {
      "inputs": [],
      "name": "renounceOwnership",
      "outputs": [],
      "stateMutability": "nonpayable",
      "type": "function"
    },
    {
      "inputs": [],
      "name": "runs",
      "outputs": [
        {
          "internalType": "uint256",
          "name": "",
          "type": "uint256"
        }
      ],
      "stateMutability": "view",
      "type": "function"
    },
    {
      "inputs": [],
      "name": "token0",
      "outputs": [
        {
          "internalType": "address",
          "name": "",
          "type": "address"
        }
      ],
      "stateMutability": "view",
      "type": "function"
    },
    {
      "inputs": [],
      "name": "token1",
      "outputs": [
        {
          "internalType": "address",
          "name": "",
          "type": "address"
        }
      ],
      "stateMutability": "view",
      "type": "function"
    },
    {
      "inputs": [
        {
          "internalType": "address",
          "name": "newOwner",
          "type": "address"
        }
      ],
      "name": "transferOwnership",
      "outputs": [],
      "stateMutability": "nonpayable",
      "type": "function"
    },
    {
      "inputs": [],
      "name": "update",
      "outputs": [],
      "stateMutability": "nonpayable",
      "type": "function"
    },
    {
      "inputs": [
        {
          "internalType": "uint256",
          "name": "_amount",
          "type": "uint256"
        }
      ],
      "name": "consult",
      "outputs": [
        {
          "internalType": "uint256",
          "name": "price",
          "type": "uint256"
        }
      ],
      "stateMutability": "nonpayable",
      "type": "function"
    },
    {
      "inputs": [
        {
          "internalType": "uint256",
          "name": "_amount",
          "type": "uint256"
        }
      ],
      "name": "consultUSDC",
      "outputs": [
        {
          "internalType": "uint256",
          "name": "price",
          "type": "uint256"
        }
      ],
      "stateMutability": "nonpayable",
      "type": "function"
    }
  ],
  "bytecode": "0x60806040523480156200001157600080fd5b50604051620014da380380620014da833981810160405260608110156200003757600080fd5b508051602082015160409092015190919060006200005d6001600160e01b036200040016565b600080546001600160a01b0319166001600160a01b0383169081178255604051929350917f8be0079c531659141344cd1fd0a4f28419497f9722a3daafe3b4186f6b6457e0908290a3506000620000c18484846200040460201b620008921760201c565b905080600160006101000a8154816001600160a01b0302191690836001600160a01b03160217905550806001600160a01b0316630dfe16816040518163ffffffff1660e01b815260040160206040518083038186803b1580156200012457600080fd5b505afa15801562000139573d6000803e3d6000fd5b505050506040513d60208110156200015057600080fd5b5051600280546001600160a01b0319166001600160a01b039283161790556040805163d21220a760e01b815290519183169163d21220a791600480820192602092909190829003018186803b158015620001a957600080fd5b505afa158015620001be573d6000803e3d6000fd5b505050506040513d6020811015620001d557600080fd5b5051600380546001600160a01b0319166001600160a01b0392831617905560408051635909c0d560e01b8152905191831691635909c0d591600480820192602092909190829003018186803b1580156200022e57600080fd5b505afa15801562000243573d6000803e3d6000fd5b505050506040513d60208110156200025a57600080fd5b5051600490815560408051635a3d549360e01b815290516001600160a01b03841692635a3d549392808201926020929091829003018186803b158015620002a057600080fd5b505afa158015620002b5573d6000803e3d6000fd5b505050506040513d6020811015620002cc57600080fd5b505160055560408051630240bc6b60e21b8152905160009182916001600160a01b03851691630902f1ac916004808301926060929190829003018186803b1580156200031757600080fd5b505afa1580156200032c573d6000803e3d6000fd5b505050506040513d60608110156200034357600080fd5b50805160208201516040909201516007805463ffffffff191663ffffffff909216919091179055925090506001600160701b038216158015906200038f57506001600160701b03811615155b620003e1576040805162461bcd60e51b815260206004820181905260248201527f4578616d706c654f7261636c6553696d706c653a204e4f5f5245534552564553604482015290519081900360640190fd5b620003f46001600160e01b03620004e116565b50505050505062000996565b3390565b600080806200041d85856001600160e01b03620005e716565b604080516001600160601b0319606094851b811660208084019190915293851b81166034830152825160288184030181526048830184528051908501207fff0000000000000000000000000000000000000000000000000000000000000060688401529a90941b9093166069840152607d8301989098527f96e8ac4277198ff8b6f785478aa9a39f403cb768dd02cbee326c3e7da348845f609d808401919091528851808403909101815260bd909201909752805196019590952095945050505050565b600080600062000511600160009054906101000a90046001600160a01b0316620006ca60201b620005f11760201c565b600754929550909350915063ffffffff9081168203906201518090821610620005e15760405180602001604052808263ffffffff166004548703816200055357fe5b046001600160e01b039081169091529051600880546001600160e01b031916919092161790556040805160208101909152600554819063ffffffff8416908603816200059b57fe5b046001600160e01b039081169091529051600980546001600160e01b03191691909216179055600484905560058390556007805463ffffffff191663ffffffff84161790555b50505050565b600080826001600160a01b0316846001600160a01b031614156200063d5760405162461bcd60e51b8152600401808060200182810382526025815260200180620014b56025913960400191505060405180910390fd5b826001600160a01b0316846001600160a01b0316106200065f57828462000662565b83835b90925090506001600160a01b038216620006c3576040805162461bcd60e51b815260206004820152601e60248201527f556e697377617056324c6962726172793a205a45524f5f414444524553530000604482015290519081900360640190fd5b9250929050565b60008080620006e16001600160e01b03620008cd16565b9050836001600160a01b0316635909c0d56040518163ffffffff1660e01b815260040160206040518083038186803b1580156200071d57600080fd5b505afa15801562000732573d6000803e3d6000fd5b505050506040513d60208110156200074957600080fd5b505160408051635a3d549360e01b815290519194506001600160a01b03861691635a3d549391600480820192602092909190829003018186803b1580156200079057600080fd5b505afa158015620007a5573d6000803e3d6000fd5b505050506040513d6020811015620007bc57600080fd5b505160408051630240bc6b60e21b81529051919350600091829182916001600160a01b03891691630902f1ac916004808301926060929190829003018186803b1580156200080957600080fd5b505afa1580156200081e573d6000803e3d6000fd5b505050506040513d60608110156200083557600080fd5b5080516020820151604090920151909450909250905063ffffffff80821690851614620008c357600081850390508063ffffffff16620008818486620008d760201b620007ca1760201c565b600001516001600160e01b031602870196508063ffffffff16620008b18585620008d760201b620007ca1760201c565b516001600160e01b0316029590950194505b5050509193909250565b63ffffffff421690565b620008e162000984565b6000826001600160701b03161162000940576040805162461bcd60e51b815260206004820152601760248201527f4669786564506f696e743a204449565f42595f5a45524f000000000000000000604482015290519081900360640190fd5b6040805160208101909152806001600160701b038416600160701b600160e01b03607087901b16816200096f57fe5b046001600160e01b0316815250905092915050565b60408051602081019091526000815290565b610b0f80620009a66000396000f3fe608060405234801561001057600080fd5b50600436106100d05760003560e01c80630c644d29146100d55780630dfe1681146101045780635909c0d5146101285780635a3d5493146101305780635e6aaf2c1461013857806361e25d831461015c578063715018a6146101795780638da5cb5b14610183578063a2e620451461018b578063a6bb453914610193578063a8aa1b311461019b578063b4d1d795146101a3578063b5b24fd4146101ab578063c5700a02146101b3578063d21220a7146101d4578063f2fde38b146101dc575b600080fd5b6100f2600480360360208110156100eb57600080fd5b5035610202565b60408051918252519081900360200190f35b61010c61024d565b604080516001600160a01b039092168252519081900360200190f35b6100f261025c565b6100f2610262565b610140610268565b604080516001600160e01b039092168252519081900360200190f35b6100f26004803603602081101561017257600080fd5b5035610277565b6101816102ae565b005b61010c61033e565b61018161034d565b61014061043c565b61010c61044b565b6100f261045a565b6100f2610461565b6101bb610467565b6040805163ffffffff9092168252519081900360200190f35b61010c610473565b610181600480360360208110156101f257600080fd5b50356001600160a01b0316610482565b600061020c61034d565b60408051602081019091526009546001600160e01b0316815261023e90610239908463ffffffff61056816565b6105e6565b6001600160901b031692915050565b6002546001600160a01b031681565b60045481565b60055481565b6009546001600160e01b031681565b600061028161034d565b60408051602081019091526008546001600160e01b0316815261023e90610239908463ffffffff61056816565b6102b66105ed565b6000546001600160a01b03908116911614610306576040805162461bcd60e51b81526020600482018190526024820152600080516020610a77833981519152604482015290519081900360640190fd5b600080546040516001600160a01b0390911690600080516020610a97833981519152908390a3600080546001600160a01b0319169055565b6000546001600160a01b031690565b60015460009081908190610369906001600160a01b03166105f1565b600754929550909350915063ffffffff90811682039062015180908216106104365760405180602001604052808263ffffffff166004548703816103a957fe5b046001600160e01b039081169091529051600880546001600160e01b031916919092161790556040805160208101909152600554819063ffffffff8416908603816103f057fe5b046001600160e01b039081169091529051600980546001600160e01b03191691909216179055600484905560058390556007805463ffffffff191663ffffffff84161790555b50505050565b6008546001600160e01b031681565b6001546001600160a01b031681565b6201518081565b60065481565b60075463ffffffff1681565b6003546001600160a01b031681565b61048a6105ed565b6000546001600160a01b039081169116146104da576040805162461bcd60e51b81526020600482018190526024820152600080516020610a77833981519152604482015290519081900360640190fd5b6001600160a01b03811661051f5760405162461bcd60e51b8152600401808060200182810382526026815260200180610a2c6026913960400191505060405180910390fd5b600080546040516001600160a01b0380851693921691600080516020610a9783398151915291a3600080546001600160a01b0319166001600160a01b0392909216919091179055565b61057061086d565b600082158061059657505082516001600160e01b03168281029083828161059357fe5b04145b6105d15760405162461bcd60e51b8152600401808060200182810382526023815260200180610ab76023913960400191505060405180910390fd5b60408051602081019091529081529392505050565b5160701c90565b3390565b60008060006105fe6107c0565b9050836001600160a01b0316635909c0d56040518163ffffffff1660e01b815260040160206040518083038186803b15801561063957600080fd5b505afa15801561064d573d6000803e3d6000fd5b505050506040513d602081101561066357600080fd5b505160408051635a3d549360e01b815290519194506001600160a01b03861691635a3d549391600480820192602092909190829003018186803b1580156106a957600080fd5b505afa1580156106bd573d6000803e3d6000fd5b505050506040513d60208110156106d357600080fd5b505160408051630240bc6b60e21b81529051919350600091829182916001600160a01b03891691630902f1ac916004808301926060929190829003018186803b15801561071f57600080fd5b505afa158015610733573d6000803e3d6000fd5b505050506040513d606081101561074957600080fd5b5080516020820151604090920151909450909250905063ffffffff808216908516146107b65780840363ffffffff811661078384866107ca565b516001600160e01b031602969096019563ffffffff81166107a485856107ca565b516001600160e01b0316029590950194505b5050509193909250565b63ffffffff421690565b6107d2610880565b6000826001600160701b03161161082a576040805162461bcd60e51b81526020600482015260176024820152764669786564506f696e743a204449565f42595f5a45524f60481b604482015290519081900360640190fd5b6040805160208101909152806001600160701b038416600160701b600160e01b03607087901b168161085857fe5b046001600160e01b0316815250905092915050565b6040518060200160405280600081525090565b60408051602081019091526000815290565b60008060006108a1858561094d565b604080516001600160601b0319606094851b811660208084019190915293851b81166034830152825160288184030181526048830184528051908501206001600160f81b031960688401529a90941b9093166069840152607d8301989098527f96e8ac4277198ff8b6f785478aa9a39f403cb768dd02cbee326c3e7da348845f609d808401919091528851808403909101815260bd909201909752805196019590952095945050505050565b600080826001600160a01b0316846001600160a01b031614156109a15760405162461bcd60e51b8152600401808060200182810382526025815260200180610a526025913960400191505060405180910390fd5b826001600160a01b0316846001600160a01b0316106109c15782846109c4565b83835b90925090506001600160a01b038216610a24576040805162461bcd60e51b815260206004820152601e60248201527f556e697377617056324c6962726172793a205a45524f5f414444524553530000604482015290519081900360640190fd5b925092905056fe4f776e61626c653a206e6577206f776e657220697320746865207a65726f2061646472657373556e697377617056324c6962726172793a204944454e544943414c5f4144445245535345534f776e61626c653a2063616c6c6572206973206e6f7420746865206f776e65728be0079c531659141344cd1fd0a4f28419497f9722a3daafe3b4186f6b6457e04669786564506f696e743a204d554c5449504c49434154494f4e5f4f564552464c4f57a26469706673582212201b60d1260ec5d88083736dffa6f523e6e8ff786293b258922445a4e6b03a2f3864736f6c63430006060033556e697377617056324c6962726172793a204944454e544943414c5f414444524553534553",
  "immutableReferences": {},
  "source": "pragma solidity ^0.6.2;\n\nimport \"@openzeppelin/contracts/access/Ownable.sol\";\nimport \"@uniswap/v2-core/contracts/interfaces/IUniswapV2Factory.sol\";\nimport \"@uniswap/v2-core/contracts/interfaces/IUniswapV2Pair.sol\";\nimport \"@uniswap/lib/contracts/libraries/FixedPoint.sol\";\nimport \"@uniswap/v2-periphery/contracts/libraries/UniswapV2OracleLibrary.sol\";\nimport \"@uniswap/v2-periphery/contracts/libraries/UniswapV2Library.sol\";\n\ncontract UniswapOracleInstance is Ownable {\n    using SafeMath for uint256;\n\n    // fixed window oracle that recomputes the average price for the entire period once every period\n    // note that the price average is only guaranteed to be over at least 1 period, but may be over a longer period\n\n    using FixedPoint for *;\n\n    uint256 public constant PERIOD = 24 hours;\n\n    IUniswapV2Pair public pair;\n    address public token0;\n    address public token1;\n\n    uint256 public price0CumulativeLast;\n    uint256 public price1CumulativeLast;\n    uint256 public runs;\n    uint32 public blockTimestampLast;\n    FixedPoint.uq112x112 public price0Average;\n    FixedPoint.uq112x112 public price1Average;\n\n    /**\n@notice the constructor function is fired once during token creation to initialize the oracle contract to a specific token pair\n@param _factory is the address of the Uniswap factory contract\n@param _tokenA is the address of the asset being looked up\n@param _tokenB is the address of the USDC token\n**/\n\n    constructor(\n        address _factory,\n        address _tokenA,\n        address _tokenB\n    ) public {\n        IUniswapV2Pair _pair = IUniswapV2Pair(\n            UniswapV2Library.pairFor(_factory, _tokenA, _tokenB)\n        );\n        pair = _pair;\n        token0 = _pair.token0();\n        token1 = _pair.token1();\n        price0CumulativeLast = _pair.price0CumulativeLast(); // fetch the current accumulated price value (1 / 0)\n        price1CumulativeLast = _pair.price1CumulativeLast(); // fetch the current accumulated price value (0 / 1)\n        uint112 reserve0;\n        uint112 reserve1;\n        (reserve0, reserve1, blockTimestampLast) = _pair.getReserves();\n        require(\n            reserve0 != 0 && reserve1 != 0,\n            \"ExampleOracleSimple: NO_RESERVES\"\n        ); // ensure that there's liquidity in the pair\n        update();\n    }\n\n    /**\n@notice update updates the prices for the input token pair over a set 24hour period\n@dev this is an internal function called by consult if the timeElapsed is greater than 24 hours\n**/\n    function update() public {\n        (\n            uint256 price0Cumulative,\n            uint256 price1Cumulative,\n            uint32 blockTimestamp\n        ) = UniswapV2OracleLibrary.currentCumulativePrices(address(pair));\n        uint32 timeElapsed = blockTimestamp - blockTimestampLast; // overflow is desired\n\n        //check if this is the first update\n        if (timeElapsed >= PERIOD) {\n            // ensure that at least one full period has passed since the last update\n            // cumulative price is in (uq112x112 price * seconds) units so we simply wrap it after division by time elapsed\n            price0Average = FixedPoint.uq112x112(\n                uint224((price0Cumulative - price0CumulativeLast) / timeElapsed)\n            );\n            price1Average = FixedPoint.uq112x112(\n                uint224((price1Cumulative - price1CumulativeLast) / timeElapsed)\n            );\n\n            price0CumulativeLast = price0Cumulative;\n            price1CumulativeLast = price1Cumulative;\n            blockTimestampLast = blockTimestamp;\n        }\n    }\n\n    /**\n@notice consult returns the price of a token in USDC\n@return price is the price of one asset in USDC(example 1WETH in USDC)\n**/\n    function consult(uint256 _amount) external returns (uint256 price) {\n        update();\n        price = price0Average.mul(_amount).decode144();\n    }\n\n    /**\n@notice consult returns the price of a token in USDC\n@return price is the price of one asset in USDC(example 1WETH in USDC)\n**/\n    function consultUSDC(uint256 _amount) external returns (uint256 price) {\n        update();\n        price = price1Average.mul(_amount).decode144();\n    }\n}\n",
  "sourcePath": "/home/stan36/repos/Askolend/AskoLend-contracts/contracts/UniswapOracleInstance.sol",
  "compiler": {
    "name": "solc",
    "version": "0.6.6+commit.6c089d02.Emscripten.clang"
  },
  "schemaVersion": "3.3.2",
  "updatedAt": "2020-12-01T02:38:34.126Z",
  "devdoc": {
    "methods": {
      "constructor": {
        "params": {
          "_factory": "is the address of the Uniswap factory contract",
          "_tokenA": "is the address of the asset being looked up",
          "_tokenB": "is the address of the USDC token*"
        }
      },
      "owner()": {
        "details": "Returns the address of the current owner."
      },
      "renounceOwnership()": {
        "details": "Leaves the contract without owner. It will not be possible to call `onlyOwner` functions anymore. Can only be called by the current owner.     * NOTE: Renouncing ownership will leave the contract without an owner, thereby removing any functionality that is only available to the owner."
      },
      "transferOwnership(address)": {
        "details": "Transfers ownership of the contract to a new account (`newOwner`). Can only be called by the current owner."
      },
      "update()": {
        "details": "this is an internal function called by consult if the timeElapsed is greater than 24 hours*"
      }
    }
  },
  "userdoc": {
    "methods": {
      "constructor": "the constructor function is fired once during token creation to initialize the oracle contract to a specific token pair",
      "consult(uint256)": {
        "notice": "consult returns the price of a token in USDC"
      },
      "consultUSDC(uint256)": {
        "notice": "consult returns the price of a token in USDC"
      },
      "update()": {
        "notice": "update updates the prices for the input token pair over a set 24hour period"
      }
    }
  }
}