{
  "contractName": "WhitePaperInterestRateModel",
  "abi": [
    {
      "inputs": [
        {
          "internalType": "uint256",
          "name": "baseRatePerYear",
          "type": "uint256"
        },
        {
          "internalType": "uint256",
          "name": "multiplierPerYear",
          "type": "uint256"
        }
      ],
      "payable": false,
      "stateMutability": "nonpayable",
      "type": "constructor"
    },
    {
      "anonymous": false,
      "inputs": [
        {
          "indexed": false,
          "internalType": "uint256",
          "name": "baseRatePerBlock",
          "type": "uint256"
        },
        {
          "indexed": false,
          "internalType": "uint256",
          "name": "multiplierPerBlock",
          "type": "uint256"
        }
      ],
      "name": "NewInterestParams",
      "type": "event"
    },
    {
      "constant": true,
      "inputs": [],
      "name": "baseRatePerBlock",
      "outputs": [
        {
          "internalType": "uint256",
          "name": "",
          "type": "uint256"
        }
      ],
      "payable": false,
      "stateMutability": "view",
      "type": "function"
    },
    {
      "constant": true,
      "inputs": [],
      "name": "blocksPerYear",
      "outputs": [
        {
          "internalType": "uint256",
          "name": "",
          "type": "uint256"
        }
      ],
      "payable": false,
      "stateMutability": "view",
      "type": "function"
    },
    {
      "constant": true,
      "inputs": [],
      "name": "isInterestRateModel",
      "outputs": [
        {
          "internalType": "bool",
          "name": "",
          "type": "bool"
        }
      ],
      "payable": false,
      "stateMutability": "view",
      "type": "function"
    },
    {
      "constant": true,
      "inputs": [],
      "name": "multiplierPerBlock",
      "outputs": [
        {
          "internalType": "uint256",
          "name": "",
          "type": "uint256"
        }
      ],
      "payable": false,
      "stateMutability": "view",
      "type": "function"
    },
    {
      "constant": true,
      "inputs": [
        {
          "internalType": "uint256",
          "name": "cash",
          "type": "uint256"
        },
        {
          "internalType": "uint256",
          "name": "borrows",
          "type": "uint256"
        },
        {
          "internalType": "uint256",
          "name": "reserves",
          "type": "uint256"
        }
      ],
      "name": "utilizationRate",
      "outputs": [
        {
          "internalType": "uint256",
          "name": "",
          "type": "uint256"
        }
      ],
      "payable": false,
      "stateMutability": "pure",
      "type": "function"
    },
    {
      "constant": true,
      "inputs": [
        {
          "internalType": "uint256",
          "name": "cash",
          "type": "uint256"
        },
        {
          "internalType": "uint256",
          "name": "borrows",
          "type": "uint256"
        },
        {
          "internalType": "uint256",
          "name": "reserves",
          "type": "uint256"
        }
      ],
      "name": "getBorrowRate",
      "outputs": [
        {
          "internalType": "uint256",
          "name": "",
          "type": "uint256"
        }
      ],
      "payable": false,
      "stateMutability": "view",
      "type": "function"
    },
    {
      "constant": true,
      "inputs": [
        {
          "internalType": "uint256",
          "name": "cash",
          "type": "uint256"
        },
        {
          "internalType": "uint256",
          "name": "borrows",
          "type": "uint256"
        },
        {
          "internalType": "uint256",
          "name": "reserves",
          "type": "uint256"
        },
        {
          "internalType": "uint256",
          "name": "reserveFactorMantissa",
          "type": "uint256"
        }
      ],
      "name": "getSupplyRate",
      "outputs": [
        {
          "internalType": "uint256",
          "name": "",
          "type": "uint256"
        }
      ],
      "payable": false,
      "stateMutability": "view",
      "type": "function"
    }
  ],
  "bytecode": "0x608060405234801561001057600080fd5b506040516106ca3803806106ca8339818101604052604081101561003357600080fd5b508051602091820151909161005690839062201480906102de6100bc821b17901c565b60015561007181622014806100bc602090811b6102de17901c565b600081905560015460408051918252602082019290925281517ff35fa19c15e9ba782633a5df62a98b20217151addc68e3ff2cd623a48d37ec27929181900390910190a150506101ad565b600061010483836040518060400160405280601a81526020017f536166654d6174683a206469766973696f6e206279207a65726f00000000000081525061010b60201b60201c565b9392505050565b600081836101975760405162461bcd60e51b81526004018080602001828103825283818151815260200191508051906020019080838360005b8381101561015c578181015183820152602001610144565b50505050905090810190601f1680156101895780820380516001836020036101000a031916815260200191505b509250505060405180910390fd5b5060008385816101a357fe5b0495945050505050565b61050e806101bc6000396000f3fe608060405234801561001057600080fd5b506004361061006d5760003560e01c806315f24053146100725780632191f92a146100ad5780636e71e2d8146100c95780638726bb89146100f2578063a385fb96146100fa578063b816881614610102578063f14039de14610131575b600080fd5b61009b6004803603606081101561008857600080fd5b5080359060208101359060400135610139565b60408051918252519081900360200190f35b6100b5610193565b604080519115158252519081900360200190f35b61009b600480360360608110156100df57600080fd5b5080359060208101359060400135610198565b61009b6101ea565b61009b6101f0565b61009b6004803603608081101561011857600080fd5b50803590602081013590604081013590606001356101f7565b61009b610276565b600080610147858585610198565b905061018860015461017c670de0b6b3a76400006101706000548661027c90919063ffffffff16565b9063ffffffff6102de16565b9063ffffffff61032016565b9150505b9392505050565b600181565b6000826101a75750600061018c565b6101e26101ca836101be878763ffffffff61032016565b9063ffffffff61037a16565b61017085670de0b6b3a764000063ffffffff61027c16565b949350505050565b60005481565b6220148081565b600080610212670de0b6b3a76400008463ffffffff61037a16565b90506000610221878787610139565b90506000610241670de0b6b3a7640000610170848663ffffffff61027c16565b905061026a670de0b6b3a76400006101708361025e8c8c8c610198565b9063ffffffff61027c16565b98975050505050505050565b60015481565b60008261028b575060006102d8565b8282028284828161029857fe5b04146102d55760405162461bcd60e51b81526004018080602001828103825260218152602001806104b96021913960400191505060405180910390fd5b90505b92915050565b60006102d583836040518060400160405280601a81526020017f536166654d6174683a206469766973696f6e206279207a65726f0000000000008152506103bc565b6000828201838110156102d5576040805162461bcd60e51b815260206004820152601b60248201527f536166654d6174683a206164646974696f6e206f766572666c6f770000000000604482015290519081900360640190fd5b60006102d583836040518060400160405280601e81526020017f536166654d6174683a207375627472616374696f6e206f766572666c6f77000081525061045e565b600081836104485760405162461bcd60e51b81526004018080602001828103825283818151815260200191508051906020019080838360005b8381101561040d5781810151838201526020016103f5565b50505050905090810190601f16801561043a5780820380516001836020036101000a031916815260200191505b509250505060405180910390fd5b50600083858161045457fe5b0495945050505050565b600081848411156104b05760405162461bcd60e51b815260206004820181815283516024840152835190928392604490910191908501908083836000831561040d5781810151838201526020016103f5565b50505090039056fe536166654d6174683a206d756c7469706c69636174696f6e206f766572666c6f77a265627a7a72315820e2f03b6d123905dffe36a57770708447f31c8c6f7dbc68093ca1a4879922e06064736f6c63430005100032",
  "source": "pragma solidity ^0.5.16;\n\nimport \"./InterestRateModel.sol\";\nimport \"@openzeppelin/contracts/math/SafeMath.sol\";\n\n/**\n  * @title Compound's WhitePaperInterestRateModel Contract\n  * @author Compound\n  * @notice The parameterized model described in section 2.4 of the original Compound Protocol whitepaper\n  */\ncontract WhitePaperInterestRateModel is InterestRateModel {\n    using SafeMath for uint;\n\n    event NewInterestParams(uint baseRatePerBlock, uint multiplierPerBlock);\n\n    /**\n     * @notice The approximate number of blocks per year that is assumed by the interest rate model\n     */\n    uint public constant blocksPerYear = 2102400;\n\n    /**\n     * @notice The multiplier of utilization rate that gives the slope of the interest rate\n     */\n    uint public multiplierPerBlock;\n\n    /**\n     * @notice The base interest rate which is the y-intercept when utilization rate is 0\n     */\n    uint public baseRatePerBlock;\n\n    /**\n     * @notice Construct an interest rate model\n     * @param baseRatePerYear The approximate target base APR, as a mantissa (scaled by 1e18)\n     * @param multiplierPerYear The rate of increase in interest rate wrt utilization (scaled by 1e18)\n     */\n    constructor(uint baseRatePerYear, uint multiplierPerYear) public {\n        baseRatePerBlock = baseRatePerYear.div(blocksPerYear);\n        multiplierPerBlock = multiplierPerYear.div(blocksPerYear);\n\n        emit NewInterestParams(baseRatePerBlock, multiplierPerBlock);\n    }\n\n    /**\n     * @notice Calculates the utilization rate of the market: `borrows / (cash + borrows - reserves)`\n     * @param cash The amount of cash in the market\n     * @param borrows The amount of borrows in the market\n     * @param reserves The amount of reserves in the market (currently unused)\n     * @return The utilization rate as a mantissa between [0, 1e18]\n     */\n    function utilizationRate(uint cash, uint borrows, uint reserves) public pure returns (uint) {\n        // Utilization rate is 0 when there are no borrows\n        if (borrows == 0) {\n            return 0;\n        }\n\n        return borrows.mul(1e18).div(cash.add(borrows).sub(reserves));\n    }\n\n    /**\n     * @notice Calculates the current borrow rate per block, with the error code expected by the market\n     * @param cash The amount of cash in the market\n     * @param borrows The amount of borrows in the market\n     * @param reserves The amount of reserves in the market\n     * @return The borrow rate percentage per block as a mantissa (scaled by 1e18)\n     */\n    function getBorrowRate(uint cash, uint borrows, uint reserves) public view returns (uint) {\n        uint ur = utilizationRate(cash, borrows, reserves);\n        return ur.mul(multiplierPerBlock).div(1e18).add(baseRatePerBlock);\n    }\n\n    /**\n     * @notice Calculates the current supply rate per block\n     * @param cash The amount of cash in the market\n     * @param borrows The amount of borrows in the market\n     * @param reserves The amount of reserves in the market\n     * @param reserveFactorMantissa The current reserve factor for the market\n     * @return The supply rate percentage per block as a mantissa (scaled by 1e18)\n     */\n    function getSupplyRate(uint cash, uint borrows, uint reserves, uint reserveFactorMantissa) public view returns (uint) {\n        uint oneMinusReserveFactor = uint(1e18).sub(reserveFactorMantissa);\n        uint borrowRate = getBorrowRate(cash, borrows, reserves);\n        uint rateToPool = borrowRate.mul(oneMinusReserveFactor).div(1e18);\n        return utilizationRate(cash, borrows, reserves).mul(rateToPool).div(1e18);\n    }\n}\n",
  "sourcePath": "/home/stan36/repos/Askolend/AskoLend-contracts/contracts/compound/WhitePaperInterestRateModel.sol",
  "compiler": {
    "name": "solc",
    "version": "0.5.16+commit.9c3226ce.Emscripten.clang"
  },
  "schemaVersion": "3.2.5",
  "updatedAt": "2020-09-26T04:13:39.352Z",
  "devdoc": {
    "author": "Compound",
    "methods": {
      "constructor": {
        "params": {
          "baseRatePerYear": "The approximate target base APR, as a mantissa (scaled by 1e18)",
          "multiplierPerYear": "The rate of increase in interest rate wrt utilization (scaled by 1e18)"
        }
      },
      "getBorrowRate(uint256,uint256,uint256)": {
        "params": {
          "borrows": "The amount of borrows in the market",
          "cash": "The amount of cash in the market",
          "reserves": "The amount of reserves in the market"
        },
        "return": "The borrow rate percentage per block as a mantissa (scaled by 1e18)"
      },
      "getSupplyRate(uint256,uint256,uint256,uint256)": {
        "params": {
          "borrows": "The amount of borrows in the market",
          "cash": "The amount of cash in the market",
          "reserveFactorMantissa": "The current reserve factor for the market",
          "reserves": "The amount of reserves in the market"
        },
        "return": "The supply rate percentage per block as a mantissa (scaled by 1e18)"
      },
      "utilizationRate(uint256,uint256,uint256)": {
        "params": {
          "borrows": "The amount of borrows in the market",
          "cash": "The amount of cash in the market",
          "reserves": "The amount of reserves in the market (currently unused)"
        },
        "return": "The utilization rate as a mantissa between [0, 1e18]"
      }
    },
    "title": "Compound's WhitePaperInterestRateModel Contract"
  },
  "userdoc": {
    "methods": {
      "constructor": "Construct an interest rate model",
      "getBorrowRate(uint256,uint256,uint256)": {
        "notice": "Calculates the current borrow rate per block, with the error code expected by the market"
      },
      "getSupplyRate(uint256,uint256,uint256,uint256)": {
        "notice": "Calculates the current supply rate per block"
      },
      "utilizationRate(uint256,uint256,uint256)": {
        "notice": "Calculates the utilization rate of the market: `borrows / (cash + borrows - reserves)`"
      }
    },
    "notice": "The parameterized model described in section 2.4 of the original Compound Protocol whitepaper"
  }
}