{
  "contractName": "MoneyMarketInstance",
  "abi": [
    {
      "inputs": [
        {
          "internalType": "address",
          "name": "_assetContractAdd",
          "type": "address"
        },
        {
          "internalType": "address",
          "name": "_owner",
          "type": "address"
        },
        {
          "internalType": "address",
          "name": "_oracle",
          "type": "address"
        },
        {
          "internalType": "string",
          "name": "_assetName",
          "type": "string"
        },
        {
          "internalType": "string",
          "name": "_assetSymbol",
          "type": "string"
        }
      ],
      "stateMutability": "nonpayable",
      "type": "constructor"
    },
    {
      "anonymous": false,
      "inputs": [
        {
          "indexed": true,
          "internalType": "address",
          "name": "previousOwner",
          "type": "address"
        },
        {
          "indexed": true,
          "internalType": "address",
          "name": "newOwner",
          "type": "address"
        }
      ],
      "name": "OwnershipTransferred",
      "type": "event"
    },
    {
      "inputs": [],
      "name": "AHR",
      "outputs": [
        {
          "internalType": "contract AskoHighRisk",
          "name": "",
          "type": "address"
        }
      ],
      "stateMutability": "view",
      "type": "function"
    },
    {
      "inputs": [],
      "name": "ALR",
      "outputs": [
        {
          "internalType": "contract AskoLowRisk",
          "name": "",
          "type": "address"
        }
      ],
      "stateMutability": "view",
      "type": "function"
    },
    {
      "inputs": [],
      "name": "IRM_AHR",
      "outputs": [
        {
          "internalType": "contract InterestRateModel",
          "name": "",
          "type": "address"
        }
      ],
      "stateMutability": "view",
      "type": "function"
    },
    {
      "inputs": [],
      "name": "IRM_ALR",
      "outputs": [
        {
          "internalType": "contract InterestRateModel",
          "name": "",
          "type": "address"
        }
      ],
      "stateMutability": "view",
      "type": "function"
    },
    {
      "inputs": [],
      "name": "MMF",
      "outputs": [
        {
          "internalType": "contract MoneyMarketFactoryI",
          "name": "",
          "type": "address"
        }
      ],
      "stateMutability": "view",
      "type": "function"
    },
    {
      "inputs": [
        {
          "internalType": "address",
          "name": "",
          "type": "address"
        }
      ],
      "name": "amountBorrowedAHR",
      "outputs": [
        {
          "internalType": "uint256",
          "name": "",
          "type": "uint256"
        }
      ],
      "stateMutability": "view",
      "type": "function"
    },
    {
      "inputs": [
        {
          "internalType": "address",
          "name": "",
          "type": "address"
        }
      ],
      "name": "amountBorrowedALR",
      "outputs": [
        {
          "internalType": "uint256",
          "name": "",
          "type": "uint256"
        }
      ],
      "stateMutability": "view",
      "type": "function"
    },
    {
      "inputs": [],
      "name": "asset",
      "outputs": [
        {
          "internalType": "contract IERC20",
          "name": "",
          "type": "address"
        }
      ],
      "stateMutability": "view",
      "type": "function"
    },
    {
      "inputs": [],
      "name": "assetAHRPoolBalance",
      "outputs": [
        {
          "internalType": "uint256",
          "name": "",
          "type": "uint256"
        }
      ],
      "stateMutability": "view",
      "type": "function"
    },
    {
      "inputs": [],
      "name": "assetAHRborrowBalance",
      "outputs": [
        {
          "internalType": "uint256",
          "name": "",
          "type": "uint256"
        }
      ],
      "stateMutability": "view",
      "type": "function"
    },
    {
      "inputs": [],
      "name": "assetALRPoolBalance",
      "outputs": [
        {
          "internalType": "uint256",
          "name": "",
          "type": "uint256"
        }
      ],
      "stateMutability": "view",
      "type": "function"
    },
    {
      "inputs": [],
      "name": "assetALRborrowBalance",
      "outputs": [
        {
          "internalType": "uint256",
          "name": "",
          "type": "uint256"
        }
      ],
      "stateMutability": "view",
      "type": "function"
    },
    {
      "inputs": [],
      "name": "assetName",
      "outputs": [
        {
          "internalType": "string",
          "name": "",
          "type": "string"
        }
      ],
      "stateMutability": "view",
      "type": "function"
    },
    {
      "inputs": [],
      "name": "assetSymbol",
      "outputs": [
        {
          "internalType": "string",
          "name": "",
          "type": "string"
        }
      ],
      "stateMutability": "view",
      "type": "function"
    },
    {
      "inputs": [],
      "name": "blocksPerYear",
      "outputs": [
        {
          "internalType": "uint256",
          "name": "",
          "type": "uint256"
        }
      ],
      "stateMutability": "view",
      "type": "function"
    },
    {
      "inputs": [],
      "name": "divisor",
      "outputs": [
        {
          "internalType": "uint256",
          "name": "",
          "type": "uint256"
        }
      ],
      "stateMutability": "view",
      "type": "function"
    },
    {
      "inputs": [],
      "name": "factoryMM",
      "outputs": [
        {
          "internalType": "address",
          "name": "",
          "type": "address"
        }
      ],
      "stateMutability": "view",
      "type": "function"
    },
    {
      "inputs": [],
      "name": "feePercent",
      "outputs": [
        {
          "internalType": "uint256",
          "name": "",
          "type": "uint256"
        }
      ],
      "stateMutability": "view",
      "type": "function"
    },
    {
      "inputs": [],
      "name": "fee_AHR",
      "outputs": [
        {
          "internalType": "uint256",
          "name": "",
          "type": "uint256"
        }
      ],
      "stateMutability": "view",
      "type": "function"
    },
    {
      "inputs": [],
      "name": "fee_ALR",
      "outputs": [
        {
          "internalType": "uint256",
          "name": "",
          "type": "uint256"
        }
      ],
      "stateMutability": "view",
      "type": "function"
    },
    {
      "inputs": [
        {
          "internalType": "address",
          "name": "",
          "type": "address"
        }
      ],
      "name": "lentToAHRpool",
      "outputs": [
        {
          "internalType": "uint256",
          "name": "",
          "type": "uint256"
        }
      ],
      "stateMutability": "view",
      "type": "function"
    },
    {
      "inputs": [
        {
          "internalType": "address",
          "name": "",
          "type": "address"
        }
      ],
      "name": "lentToALRpool",
      "outputs": [
        {
          "internalType": "uint256",
          "name": "",
          "type": "uint256"
        }
      ],
      "stateMutability": "view",
      "type": "function"
    },
    {
      "inputs": [],
      "name": "oracle",
      "outputs": [
        {
          "internalType": "contract UniswapOracleInstanceI",
          "name": "",
          "type": "address"
        }
      ],
      "stateMutability": "view",
      "type": "function"
    },
    {
      "inputs": [],
      "name": "owner",
      "outputs": [
        {
          "internalType": "address",
          "name": "",
          "type": "address"
        }
      ],
      "stateMutability": "view",
      "type": "function"
    },
    {
      "inputs": [],
      "name": "renounceOwnership",
      "outputs": [],
      "stateMutability": "nonpayable",
      "type": "function"
    },
    {
      "inputs": [
        {
          "internalType": "address",
          "name": "",
          "type": "address"
        }
      ],
      "name": "totalAmountBorrowed",
      "outputs": [
        {
          "internalType": "uint256",
          "name": "",
          "type": "uint256"
        }
      ],
      "stateMutability": "view",
      "type": "function"
    },
    {
      "inputs": [
        {
          "internalType": "address",
          "name": "newOwner",
          "type": "address"
        }
      ],
      "name": "transferOwnership",
      "outputs": [],
      "stateMutability": "nonpayable",
      "type": "function"
    },
    {
      "inputs": [
        {
          "internalType": "address",
          "name": "_InterestRateModel",
          "type": "address"
        },
        {
          "internalType": "uint256",
          "name": "_fee",
          "type": "uint256"
        }
      ],
      "name": "_setUpAHR",
      "outputs": [],
      "stateMutability": "nonpayable",
      "type": "function"
    },
    {
      "inputs": [
        {
          "internalType": "address",
          "name": "_InterestRateModel",
          "type": "address"
        },
        {
          "internalType": "uint256",
          "name": "_fee",
          "type": "uint256"
        }
      ],
      "name": "_setUpALR",
      "outputs": [],
      "stateMutability": "nonpayable",
      "type": "function"
    },
    {
      "inputs": [
        {
          "internalType": "uint256",
          "name": "_fee",
          "type": "uint256"
        }
      ],
      "name": "setFeeAHR",
      "outputs": [],
      "stateMutability": "nonpayable",
      "type": "function"
    },
    {
      "inputs": [
        {
          "internalType": "uint256",
          "name": "_fee",
          "type": "uint256"
        }
      ],
      "name": "setFeeALR",
      "outputs": [],
      "stateMutability": "nonpayable",
      "type": "function"
    },
    {
      "inputs": [],
      "name": "getALRadd",
      "outputs": [
        {
          "internalType": "address",
          "name": "",
          "type": "address"
        }
      ],
      "stateMutability": "view",
      "type": "function"
    },
    {
      "inputs": [
        {
          "internalType": "address",
          "name": "_account",
          "type": "address"
        },
        {
          "internalType": "uint256",
          "name": "_amount",
          "type": "uint256"
        }
      ],
      "name": "factoryBurn",
      "outputs": [],
      "stateMutability": "nonpayable",
      "type": "function"
    },
    {
      "inputs": [
        {
          "internalType": "address",
          "name": "_account",
          "type": "address"
        },
        {
          "internalType": "uint256",
          "name": "_amount",
          "type": "uint256"
        }
      ],
      "name": "factoryMint",
      "outputs": [],
      "stateMutability": "nonpayable",
      "type": "function"
    },
    {
      "inputs": [
        {
          "internalType": "uint256",
          "name": "_payedAmount",
          "type": "uint256"
        }
      ],
      "name": "calculateFee",
      "outputs": [
        {
          "internalType": "uint256",
          "name": "",
          "type": "uint256"
        }
      ],
      "stateMutability": "view",
      "type": "function"
    },
    {
      "inputs": [
        {
          "internalType": "uint256",
          "name": "_assetBalance",
          "type": "uint256"
        },
        {
          "internalType": "uint256",
          "name": "_loanBal",
          "type": "uint256"
        }
      ],
      "name": "calculateAHRexchangeRate",
      "outputs": [
        {
          "internalType": "uint256",
          "name": "",
          "type": "uint256"
        }
      ],
      "stateMutability": "view",
      "type": "function"
    },
    {
      "inputs": [
        {
          "internalType": "uint256",
          "name": "_assetBalance",
          "type": "uint256"
        },
        {
          "internalType": "uint256",
          "name": "_loanBal",
          "type": "uint256"
        }
      ],
      "name": "calculateALRexchangeRate",
      "outputs": [
        {
          "internalType": "uint256",
          "name": "",
          "type": "uint256"
        }
      ],
      "stateMutability": "view",
      "type": "function"
    },
    {
      "inputs": [
        {
          "internalType": "uint256",
          "name": "_assetBalance",
          "type": "uint256"
        },
        {
          "internalType": "uint256",
          "name": "_loanBal",
          "type": "uint256"
        }
      ],
      "name": "calculateLoanInterest",
      "outputs": [
        {
          "internalType": "uint256",
          "name": "",
          "type": "uint256"
        }
      ],
      "stateMutability": "view",
      "type": "function"
    },
    {
      "inputs": [
        {
          "internalType": "uint256",
          "name": "_amount",
          "type": "uint256"
        }
      ],
      "name": "lendToAHRpool",
      "outputs": [],
      "stateMutability": "nonpayable",
      "type": "function"
    },
    {
      "inputs": [
        {
          "internalType": "uint256",
          "name": "_amount",
          "type": "uint256"
        }
      ],
      "name": "lendToALRpool",
      "outputs": [],
      "stateMutability": "nonpayable",
      "type": "function"
    },
    {
      "inputs": [
        {
          "internalType": "uint256",
          "name": "_amount",
          "type": "uint256"
        }
      ],
      "name": "redeemAHR",
      "outputs": [],
      "stateMutability": "nonpayable",
      "type": "function"
    },
    {
      "inputs": [
        {
          "internalType": "uint256",
          "name": "_amount",
          "type": "uint256"
        }
      ],
      "name": "redeemALR",
      "outputs": [],
      "stateMutability": "nonpayable",
      "type": "function"
    },
    {
      "inputs": [
        {
          "internalType": "uint256",
          "name": "_amount",
          "type": "uint256"
        }
      ],
      "name": "borrow",
      "outputs": [],
      "stateMutability": "nonpayable",
      "type": "function"
    },
    {
      "inputs": [],
      "name": "repay",
      "outputs": [],
      "stateMutability": "nonpayable",
      "type": "function"
    }
  ],
  "bytecode": "0x60806040523480156200001157600080fd5b506040516200848338038062008483833981810160405260a08110156200003757600080fd5b81019080805190602001909291908051906020019092919080519060200190929190805160405193929190846401000000008211156200007657600080fd5b838201915060208201858111156200008d57600080fd5b8251866001820283011164010000000082111715620000ab57600080fd5b8083526020830192505050908051906020019080838360005b83811015620000e1578082015181840152602081019050620000c4565b50505050905090810190601f1680156200010f5780820380516001836020036101000a031916815260200191505b50604052602001805160405193929190846401000000008211156200013357600080fd5b838201915060208201858111156200014a57600080fd5b82518660018202830111640100000000821117156200016857600080fd5b8083526020830192505050908051906020019080838360005b838110156200019e57808201518184015260208101905062000181565b50505050905090810190601f168015620001cc5780820380516001836020036101000a031916815260200191505b506040525050506000620001e5620003a760201b60201c565b9050806000806101000a81548173ffffffffffffffffffffffffffffffffffffffff021916908373ffffffffffffffffffffffffffffffffffffffff1602179055508073ffffffffffffffffffffffffffffffffffffffff16600073ffffffffffffffffffffffffffffffffffffffff167f8be0079c531659141344cd1fd0a4f28419497f9722a3daafe3b4186f6b6457e060405160405180910390a35084600d60006101000a81548173ffffffffffffffffffffffffffffffffffffffff021916908373ffffffffffffffffffffffffffffffffffffffff1602179055506127106003819055506220148060018190555081600b9080519060200190620002ef929190620005c7565b5080600c908051906020019062000308929190620005c7565b5082601060006101000a81548173ffffffffffffffffffffffffffffffffffffffff021916908373ffffffffffffffffffffffffffffffffffffffff16021790555033601160006101000a81548173ffffffffffffffffffffffffffffffffffffffff021916908373ffffffffffffffffffffffffffffffffffffffff1602179055506200039c84620003af60201b60201c565b505050505062000676565b600033905090565b620003bf620003a760201b60201c565b73ffffffffffffffffffffffffffffffffffffffff166000809054906101000a900473ffffffffffffffffffffffffffffffffffffffff1673ffffffffffffffffffffffffffffffffffffffff161462000481576040517f08c379a00000000000000000000000000000000000000000000000000000000081526004018080602001828103825260208152602001807f4f776e61626c653a2063616c6c6572206973206e6f7420746865206f776e657281525060200191505060405180910390fd5b600073ffffffffffffffffffffffffffffffffffffffff168173ffffffffffffffffffffffffffffffffffffffff16141562000509576040517f08c379a00000000000000000000000000000000000000000000000000000000081526004018080602001828103825260268152602001806200845d6026913960400191505060405180910390fd5b8073ffffffffffffffffffffffffffffffffffffffff166000809054906101000a900473ffffffffffffffffffffffffffffffffffffffff1673ffffffffffffffffffffffffffffffffffffffff167f8be0079c531659141344cd1fd0a4f28419497f9722a3daafe3b4186f6b6457e060405160405180910390a3806000806101000a81548173ffffffffffffffffffffffffffffffffffffffff021916908373ffffffffffffffffffffffffffffffffffffffff16021790555050565b828054600181600116156101000203166002900490600052602060002090601f016020900481019282601f106200060a57805160ff19168380011785556200063b565b828001600101855582156200063b579182015b828111156200063a5782518255916020019190600101906200061d565b5b5090506200064a91906200064e565b5090565b6200067391905b808211156200066f57600081600090555060010162000655565b5090565b90565b617dd780620006866000396000f3fe60806040523480156200001157600080fd5b5060043610620002b05760003560e01c80637fd6f15c1162000171578063c63eee1d11620000d5578063ef462fd01162000093578063ef462fd01462000c8e578063f2130c701462000cdd578063f2fde38b1462000cfd578063f3b3160e1462000d44578063f9828b4f1462000d64578063fab26ec11462000d8457620002b0565b8063c63eee1d1462000af1578063c9230c5d1462000b3d578063cf0aea851462000bc5578063d162054a1462000bf6578063dec7ae281462000c4257620002b0565b8063a196b369116200012f578063a196b36914620009b2578063a385fb9614620009d2578063a4f0ecd314620009f2578063b772cc771462000a43578063c27d4df31462000a74578063c5ebeaec1462000ac057620002b0565b80637fd6f15c14620008955780638da5cb5b14620008b55780639241cef2146200090157806399a5d747146200094d5780639b1edb43146200099257620002b0565b80635d4991b111620002195780636ccdd9f711620001d75780636ccdd9f71462000711578063715018a614620007625780637359095b146200076e578063791b8d7914620007c95780637b556e2614620008185780637dc0d1d0146200084957620002b0565b80635d4991b114620005975780636155a20b14620005f257806361e03cd214620006435780636819cd19146200068f5780636c713a1514620006e057620002b0565b806338d52e0f116200027357806338d52e0f1462000409578063402d88831462000455578063456011b414620004615780635103274214620004bc578063551f8b01146200051757806356aa21ab146200054857620002b0565b80630166752e14620002b557806313ecfe601462000310578063176de7a814620003305780631f2dc5ef14620003b857806322b2d40214620003d8575b600080fd5b620002fa60048036036020811015620002cd57600080fd5b81019080803573ffffffffffffffffffffffffffffffffffffffff16906020019092919050505062000dd0565b6040518082815260200191505060405180910390f35b6200031a62000de8565b6040518082815260200191505060405180910390f35b6200033a62000dee565b6040518080602001828103825283818151815260200191508051906020019080838360005b838110156200037c5780820151818401526020810190506200035f565b50505050905090810190601f168015620003aa5780820380516001836020036101000a031916815260200191505b509250505060405180910390f35b620003c262000e90565b6040518082815260200191505060405180910390f35b6200040760048036036020811015620003f057600080fd5b810190808035906020019092919050505062000e96565b005b6200041362001016565b604051808273ffffffffffffffffffffffffffffffffffffffff1673ffffffffffffffffffffffffffffffffffffffff16815260200191505060405180910390f35b6200045f6200103c565b005b620004a6600480360360208110156200047957600080fd5b81019080803573ffffffffffffffffffffffffffffffffffffffff169060200190929190505050620018fb565b6040518082815260200191505060405180910390f35b6200050160048036036020811015620004d457600080fd5b81019080803573ffffffffffffffffffffffffffffffffffffffff16906020019092919050505062001913565b6040518082815260200191505060405180910390f35b62000546600480360360208110156200052f57600080fd5b81019080803590602001909291905050506200192b565b005b62000581600480360360408110156200056057600080fd5b81019080803590602001909291908035906020019092919050505062001a01565b6040518082815260200191505060405180910390f35b620005dc60048036036020811015620005af57600080fd5b81019080803573ffffffffffffffffffffffffffffffffffffffff16906020019092919050505062001ad4565b6040518082815260200191505060405180910390f35b62000641600480360360408110156200060a57600080fd5b81019080803573ffffffffffffffffffffffffffffffffffffffff1690602001909291908035906020019092919050505062001aec565b005b6200064d62001f63565b604051808273ffffffffffffffffffffffffffffffffffffffff1673ffffffffffffffffffffffffffffffffffffffff16815260200191505060405180910390f35b620006de60048036036040811015620006a757600080fd5b81019080803573ffffffffffffffffffffffffffffffffffffffff1690602001909291908035906020019092919050505062001f8d565b005b6200070f60048036036020811015620006f857600080fd5b8101908080359060200190929190505050620020fc565b005b62000760600480360360408110156200072957600080fd5b81019080803573ffffffffffffffffffffffffffffffffffffffff16906020019092919080359060200190929190505050620021d2565b005b6200076c62002649565b005b620007b3600480360360208110156200078657600080fd5b81019080803573ffffffffffffffffffffffffffffffffffffffff169060200190929190505050620027d4565b6040518082815260200191505060405180910390f35b6200080260048036036040811015620007e157600080fd5b810190808035906020019092919080359060200190929190505050620027ec565b6040518082815260200191505060405180910390f35b62000847600480360360208110156200083057600080fd5b8101908080359060200190929190505050620028bf565b005b6200085362002a9a565b604051808273ffffffffffffffffffffffffffffffffffffffff1673ffffffffffffffffffffffffffffffffffffffff16815260200191505060405180910390f35b6200089f62002ac0565b6040518082815260200191505060405180910390f35b620008bf62002ac6565b604051808273ffffffffffffffffffffffffffffffffffffffff1673ffffffffffffffffffffffffffffffffffffffff16815260200191505060405180910390f35b6200090b62002aef565b604051808273ffffffffffffffffffffffffffffffffffffffff1673ffffffffffffffffffffffffffffffffffffffff16815260200191505060405180910390f35b6200097c600480360360208110156200096557600080fd5b810190808035906020019092919050505062002b15565b6040518082815260200191505060405180910390f35b6200099c62002b50565b6040518082815260200191505060405180910390f35b620009bc62002b56565b6040518082815260200191505060405180910390f35b620009dc62002b5c565b6040518082815260200191505060405180910390f35b62000a416004803603604081101562000a0a57600080fd5b81019080803573ffffffffffffffffffffffffffffffffffffffff1690602001909291908035906020019092919050505062002b62565b005b62000a726004803603602081101562000a5b57600080fd5b810190808035906020019092919050505062002cd1565b005b62000a7e62002eac565b604051808273ffffffffffffffffffffffffffffffffffffffff1673ffffffffffffffffffffffffffffffffffffffff16815260200191505060405180910390f35b62000aef6004803603602081101562000ad857600080fd5b810190808035906020019092919050505062002ed2565b005b62000afb6200332f565b604051808273ffffffffffffffffffffffffffffffffffffffff1673ffffffffffffffffffffffffffffffffffffffff16815260200191505060405180910390f35b62000b4762003355565b6040518080602001828103825283818151815260200191508051906020019080838360005b8381101562000b8957808201518184015260208101905062000b6c565b50505050905090810190601f16801562000bb75780820380516001836020036101000a031916815260200191505b509250505060405180910390f35b62000bf46004803603602081101562000bdd57600080fd5b8101908080359060200190929190505050620033f7565b005b62000c0062003577565b604051808273ffffffffffffffffffffffffffffffffffffffff1673ffffffffffffffffffffffffffffffffffffffff16815260200191505060405180910390f35b62000c4c6200359d565b604051808273ffffffffffffffffffffffffffffffffffffffff1673ffffffffffffffffffffffffffffffffffffffff16815260200191505060405180910390f35b62000cc76004803603604081101562000ca657600080fd5b810190808035906020019092919080359060200190929190505050620035c3565b6040518082815260200191505060405180910390f35b62000ce76200368e565b6040518082815260200191505060405180910390f35b62000d426004803603602081101562000d1557600080fd5b81019080803573ffffffffffffffffffffffffffffffffffffffff16906020019092919050505062003694565b005b62000d4e620038a6565b6040518082815260200191505060405180910390f35b62000d6e620038ac565b6040518082815260200191505060405180910390f35b62000d8e620038b2565b604051808273ffffffffffffffffffffffffffffffffffffffff1673ffffffffffffffffffffffffffffffffffffffff16815260200191505060405180910390f35b60166020528060005260406000206000915090505481565b60045481565b600c8054600181600116156101000203166002900480601f01602080910402602001604051908101604052809291908181526020018280546001816001161561010002031660029004801562000e885780601f1062000e5c5761010080835404028352916020019162000e88565b820191906000526020600020905b81548152906001019060200180831162000e6a57829003601f168201915b505050505081565b60035481565b600d60009054906101000a900473ffffffffffffffffffffffffffffffffffffffff1673ffffffffffffffffffffffffffffffffffffffff166323b872dd3330846040518463ffffffff1660e01b8152600401808473ffffffffffffffffffffffffffffffffffffffff1673ffffffffffffffffffffffffffffffffffffffff1681526020018373ffffffffffffffffffffffffffffffffffffffff1673ffffffffffffffffffffffffffffffffffffffff1681526020018281526020019350505050602060405180830381600087803b15801562000f7457600080fd5b505af115801562000f89573d6000803e3d6000fd5b505050506040513d602081101562000fa057600080fd5b81019080805190602001909291905050505062000fc981600554620038d890919063ffffffff16565b60058190555080601560003373ffffffffffffffffffffffffffffffffffffffff1673ffffffffffffffffffffffffffffffffffffffff1681526020019081526020016000208190555050565b600d60009054906101000a900473ffffffffffffffffffffffffffffffffffffffff1681565b600062001165600d60009054906101000a900473ffffffffffffffffffffffffffffffffffffffff1673ffffffffffffffffffffffffffffffffffffffff166370a08231306040518263ffffffff1660e01b8152600401808273ffffffffffffffffffffffffffffffffffffffff1673ffffffffffffffffffffffffffffffffffffffff16815260200191505060206040518083038186803b158015620010e257600080fd5b505afa158015620010f7573d6000803e3d6000fd5b505050506040513d60208110156200110e57600080fd5b8101908080519060200190929190505050601660003373ffffffffffffffffffffffffffffffffffffffff1673ffffffffffffffffffffffffffffffffffffffff16815260200190815260200160002054620035c3565b90506000620011748262002b15565b905060006200118d8284620038d890919063ffffffff16565b90506000600d60009054906101000a900473ffffffffffffffffffffffffffffffffffffffff1673ffffffffffffffffffffffffffffffffffffffff166370a08231336040518263ffffffff1660e01b8152600401808273ffffffffffffffffffffffffffffffffffffffff1673ffffffffffffffffffffffffffffffffffffffff16815260200191505060206040518083038186803b1580156200123157600080fd5b505afa15801562001246573d6000803e3d6000fd5b505050506040513d60208110156200125d57600080fd5b8101908080519060200190929190505050905081811015620012e7576040517f08c379a000000000000000000000000000000000000000000000000000000000815260040180806020018281038252601f8152602001807f42616c616e636520746f6f206c6f7720746f20706179206f6666206c6f616e0081525060200191505060405180910390fd5b600d60009054906101000a900473ffffffffffffffffffffffffffffffffffffffff1673ffffffffffffffffffffffffffffffffffffffff166323b872dd3330856040518463ffffffff1660e01b8152600401808473ffffffffffffffffffffffffffffffffffffffff1673ffffffffffffffffffffffffffffffffffffffff1681526020018373ffffffffffffffffffffffffffffffffffffffff1673ffffffffffffffffffffffffffffffffffffffff1681526020018281526020019350505050602060405180830381600087803b158015620013c557600080fd5b505af1158015620013da573d6000803e3d6000fd5b505050506040513d6020811015620013f157600080fd5b810190808051906020019092919050505050600060075414156200148e5762001465601660003373ffffffffffffffffffffffffffffffffffffffff1673ffffffffffffffffffffffffffffffffffffffff168152602001908152602001600020546006546200396190919063ffffffff16565b6006819055506200148284600454620038d890919063ffffffff16565b60048190555062001508565b620014e4601660003373ffffffffffffffffffffffffffffffffffffffff1673ffffffffffffffffffffffffffffffffffffffff168152602001908152602001600020546007546200396190919063ffffffff16565b6007819055506200150184600554620038d890919063ffffffff16565b6005819055505b600d60009054906101000a900473ffffffffffffffffffffffffffffffffffffffff1673ffffffffffffffffffffffffffffffffffffffff166323b872dd306200155162002ac6565b866040518463ffffffff1660e01b8152600401808473ffffffffffffffffffffffffffffffffffffffff1673ffffffffffffffffffffffffffffffffffffffff1681526020018373ffffffffffffffffffffffffffffffffffffffff1673ffffffffffffffffffffffffffffffffffffffff1681526020018281526020019350505050602060405180830381600087803b158015620015ef57600080fd5b505af115801562001604573d6000803e3d6000fd5b505050506040513d60208110156200161b57600080fd5b8101908080519060200190929190505050506000601660003373ffffffffffffffffffffffffffffffffffffffff1673ffffffffffffffffffffffffffffffffffffffff168152602001908152602001600020819055506000601760003373ffffffffffffffffffffffffffffffffffffffff1673ffffffffffffffffffffffffffffffffffffffff168152602001908152602001600020819055506000601860003373ffffffffffffffffffffffffffffffffffffffff1673ffffffffffffffffffffffffffffffffffffffff16815260200190815260200160002081905550601160009054906101000a900473ffffffffffffffffffffffffffffffffffffffff1673ffffffffffffffffffffffffffffffffffffffff166328736f6630336040518363ffffffff1660e01b8152600401808373ffffffffffffffffffffffffffffffffffffffff1673ffffffffffffffffffffffffffffffffffffffff1681526020018273ffffffffffffffffffffffffffffffffffffffff1673ffffffffffffffffffffffffffffffffffffffff16815260200192505050600060405180830381600087803b158015620017d257600080fd5b505af1158015620017e7573d6000803e3d6000fd5b50505050600d60009054906101000a900473ffffffffffffffffffffffffffffffffffffffff1673ffffffffffffffffffffffffffffffffffffffff1663a9059cbb601160009054906101000a900473ffffffffffffffffffffffffffffffffffffffff16856040518363ffffffff1660e01b8152600401808373ffffffffffffffffffffffffffffffffffffffff1673ffffffffffffffffffffffffffffffffffffffff16815260200182815260200192505050602060405180830381600087803b158015620018b757600080fd5b505af1158015620018cc573d6000803e3d6000fd5b505050506040513d6020811015620018e357600080fd5b81019080805190602001909291905050505050505050565b60186020528060005260406000206000915090505481565b60146020528060005260406000206000915090505481565b62001935620039ad565b73ffffffffffffffffffffffffffffffffffffffff166000809054906101000a900473ffffffffffffffffffffffffffffffffffffffff1673ffffffffffffffffffffffffffffffffffffffff1614620019f7576040517f08c379a00000000000000000000000000000000000000000000000000000000081526004018080602001828103825260208152602001807f4f776e61626c653a2063616c6c6572206973206e6f7420746865206f776e657281525060200191505060405180910390fd5b8060098190555050565b6000601260009054906101000a900473ffffffffffffffffffffffffffffffffffffffff1673ffffffffffffffffffffffffffffffffffffffff1663b816881684846000806040518563ffffffff1660e01b81526004018085815260200184815260200183815260200182815260200194505050505060206040518083038186803b15801562001a9057600080fd5b505afa15801562001aa5573d6000803e3d6000fd5b505050506040513d602081101562001abc57600080fd5b81019080805190602001909291905050505092915050565b60156020528060005260406000206000915090505481565b601160009054906101000a900473ffffffffffffffffffffffffffffffffffffffff1673ffffffffffffffffffffffffffffffffffffffff163373ffffffffffffffffffffffffffffffffffffffff161462001b94576040517f08c379a000000000000000000000000000000000000000000000000000000000815260040180806020018281038252604181526020018062007d616041913960600191505060405180910390fd5b81601260006101000a81548173ffffffffffffffffffffffffffffffffffffffff021916908373ffffffffffffffffffffffffffffffffffffffff16021790555080600881905550606060405160200180807f4148522d000000000000000000000000000000000000000000000000000000008152506004019050604051602081830303815290604052905080600b6040516020018083805190602001908083835b6020831062001c5b578051825260208201915060208101905060208303925062001c36565b6001836020036101000a0380198251168184511680821785525050505050509050018280546001816001161561010002031660029004801562001cd85780601f1062001cb557610100808354040283529182019162001cd8565b820191906000526020600020905b81548152906001019060200180831162001cc3575b5050925050506040516020818303038152906040529050606060405160200180807f4148522d000000000000000000000000000000000000000000000000000000008152506004019050604051602081830303815290604052905080600c6040516020018083805190602001908083835b6020831062001d6e578051825260208201915060208101905060208303925062001d49565b6001836020036101000a0380198251168184511680821785525050505050509050018280546001816001161561010002031660029004801562001deb5780601f1062001dc857610100808354040283529182019162001deb565b820191906000526020600020905b81548152906001019060200180831162001dd6575b505092505050604051602081830303815290604052905060608290506060829050818160405162001e1c9062003c1b565b808060200180602001838103835285818151815260200191508051906020019080838360005b8381101562001e5f57808201518184015260208101905062001e42565b50505050905090810190601f16801562001e8d5780820380516001836020036101000a031916815260200191505b50838103825284818151815260200191508051906020019080838360005b8381101562001ec857808201518184015260208101905062001eab565b50505050905090810190601f16801562001ef65780820380516001836020036101000a031916815260200191505b50945050505050604051809103906000f08015801562001f1a573d6000803e3d6000fd5b50600e60006101000a81548173ffffffffffffffffffffffffffffffffffffffff021916908373ffffffffffffffffffffffffffffffffffffffff160217905550505050505050565b6000600f60009054906101000a900473ffffffffffffffffffffffffffffffffffffffff16905090565b601160009054906101000a900473ffffffffffffffffffffffffffffffffffffffff1673ffffffffffffffffffffffffffffffffffffffff163373ffffffffffffffffffffffffffffffffffffffff161462002035576040517f08c379a000000000000000000000000000000000000000000000000000000000815260040180806020018281038252604181526020018062007d616041913960600191505060405180910390fd5b600f60009054906101000a900473ffffffffffffffffffffffffffffffffffffffff1673ffffffffffffffffffffffffffffffffffffffff16639dc29fac83836040518363ffffffff1660e01b8152600401808373ffffffffffffffffffffffffffffffffffffffff1673ffffffffffffffffffffffffffffffffffffffff16815260200182815260200192505050600060405180830381600087803b158015620020df57600080fd5b505af1158015620020f4573d6000803e3d6000fd5b505050505050565b62002106620039ad565b73ffffffffffffffffffffffffffffffffffffffff166000809054906101000a900473ffffffffffffffffffffffffffffffffffffffff1673ffffffffffffffffffffffffffffffffffffffff1614620021c8576040517f08c379a00000000000000000000000000000000000000000000000000000000081526004018080602001828103825260208152602001807f4f776e61626c653a2063616c6c6572206973206e6f7420746865206f776e657281525060200191505060405180910390fd5b8060088190555050565b601160009054906101000a900473ffffffffffffffffffffffffffffffffffffffff1673ffffffffffffffffffffffffffffffffffffffff163373ffffffffffffffffffffffffffffffffffffffff16146200227a576040517f08c379a000000000000000000000000000000000000000000000000000000000815260040180806020018281038252604181526020018062007d616041913960600191505060405180910390fd5b81601360006101000a81548173ffffffffffffffffffffffffffffffffffffffff021916908373ffffffffffffffffffffffffffffffffffffffff16021790555080600981905550606060405160200180807f416c522d000000000000000000000000000000000000000000000000000000008152506004019050604051602081830303815290604052905080600b6040516020018083805190602001908083835b602083106200234157805182526020820191506020810190506020830392506200231c565b6001836020036101000a03801982511681845116808217855250505050505090500182805460018160011615610100020316600290048015620023be5780601f106200239b576101008083540402835291820191620023be565b820191906000526020600020905b815481529060010190602001808311620023a9575b5050925050506040516020818303038152906040529050606060405160200180807f416c522d000000000000000000000000000000000000000000000000000000008152506004019050604051602081830303815290604052905080600c6040516020018083805190602001908083835b602083106200245457805182526020820191506020810190506020830392506200242f565b6001836020036101000a03801982511681845116808217855250505050505090500182805460018160011615610100020316600290048015620024d15780601f10620024ae576101008083540402835291820191620024d1565b820191906000526020600020905b815481529060010190602001808311620024bc575b5050925050506040516020818303038152906040529050606082905060608290508181604051620025029062003c29565b808060200180602001838103835285818151815260200191508051906020019080838360005b838110156200254557808201518184015260208101905062002528565b50505050905090810190601f168015620025735780820380516001836020036101000a031916815260200191505b50838103825284818151815260200191508051906020019080838360005b83811015620025ae57808201518184015260208101905062002591565b50505050905090810190601f168015620025dc5780820380516001836020036101000a031916815260200191505b50945050505050604051809103906000f08015801562002600573d6000803e3d6000fd5b50600f60006101000a81548173ffffffffffffffffffffffffffffffffffffffff021916908373ffffffffffffffffffffffffffffffffffffffff160217905550505050505050565b62002653620039ad565b73ffffffffffffffffffffffffffffffffffffffff166000809054906101000a900473ffffffffffffffffffffffffffffffffffffffff1673ffffffffffffffffffffffffffffffffffffffff161462002715576040517f08c379a00000000000000000000000000000000000000000000000000000000081526004018080602001828103825260208152602001807f4f776e61626c653a2063616c6c6572206973206e6f7420746865206f776e657281525060200191505060405180910390fd5b600073ffffffffffffffffffffffffffffffffffffffff166000809054906101000a900473ffffffffffffffffffffffffffffffffffffffff1673ffffffffffffffffffffffffffffffffffffffff167f8be0079c531659141344cd1fd0a4f28419497f9722a3daafe3b4186f6b6457e060405160405180910390a360008060006101000a81548173ffffffffffffffffffffffffffffffffffffffff021916908373ffffffffffffffffffffffffffffffffffffffff160217905550565b60176020528060005260406000206000915090505481565b6000601360009054906101000a900473ffffffffffffffffffffffffffffffffffffffff1673ffffffffffffffffffffffffffffffffffffffff1663b816881684846000806040518563ffffffff1660e01b81526004018085815260200184815260200183815260200182815260200194505050505060206040518083038186803b1580156200287b57600080fd5b505afa15801562002890573d6000803e3d6000fd5b505050506040513d6020811015620028a757600080fd5b81019080805190602001909291905050505092915050565b600e60009054906101000a900473ffffffffffffffffffffffffffffffffffffffff1673ffffffffffffffffffffffffffffffffffffffff16639dc29fac33836040518363ffffffff1660e01b8152600401808373ffffffffffffffffffffffffffffffffffffffff1673ffffffffffffffffffffffffffffffffffffffff16815260200182815260200192505050600060405180830381600087803b1580156200296957600080fd5b505af11580156200297e573d6000803e3d6000fd5b505050506000620029928260065462001a01565b90506000620029ab8284620038d890919063ffffffff16565b9050600d60009054906101000a900473ffffffffffffffffffffffffffffffffffffffff1673ffffffffffffffffffffffffffffffffffffffff1663a9059cbb33836040518363ffffffff1660e01b8152600401808373ffffffffffffffffffffffffffffffffffffffff1673ffffffffffffffffffffffffffffffffffffffff16815260200182815260200192505050602060405180830381600087803b15801562002a5757600080fd5b505af115801562002a6c573d6000803e3d6000fd5b505050506040513d602081101562002a8357600080fd5b810190808051906020019092919050505050505050565b601060009054906101000a900473ffffffffffffffffffffffffffffffffffffffff1681565b60025481565b60008060009054906101000a900473ffffffffffffffffffffffffffffffffffffffff16905090565b600e60009054906101000a900473ffffffffffffffffffffffffffffffffffffffff1681565b60008062002b4560035462002b3660025486620039b590919063ffffffff16565b62003a4090919063ffffffff16565b905080915050919050565b60075481565b60065481565b60015481565b601160009054906101000a900473ffffffffffffffffffffffffffffffffffffffff1673ffffffffffffffffffffffffffffffffffffffff163373ffffffffffffffffffffffffffffffffffffffff161462002c0a576040517f08c379a000000000000000000000000000000000000000000000000000000000815260040180806020018281038252604181526020018062007d616041913960600191505060405180910390fd5b600f60009054906101000a900473ffffffffffffffffffffffffffffffffffffffff1673ffffffffffffffffffffffffffffffffffffffff166340c10f1983836040518363ffffffff1660e01b8152600401808373ffffffffffffffffffffffffffffffffffffffff1673ffffffffffffffffffffffffffffffffffffffff16815260200182815260200192505050600060405180830381600087803b15801562002cb457600080fd5b505af115801562002cc9573d6000803e3d6000fd5b505050505050565b600f60009054906101000a900473ffffffffffffffffffffffffffffffffffffffff1673ffffffffffffffffffffffffffffffffffffffff16639dc29fac33836040518363ffffffff1660e01b8152600401808373ffffffffffffffffffffffffffffffffffffffff1673ffffffffffffffffffffffffffffffffffffffff16815260200182815260200192505050600060405180830381600087803b15801562002d7b57600080fd5b505af115801562002d90573d6000803e3d6000fd5b50505050600062002da482600754620027ec565b9050600062002dbd8284620038d890919063ffffffff16565b9050600d60009054906101000a900473ffffffffffffffffffffffffffffffffffffffff1673ffffffffffffffffffffffffffffffffffffffff1663a9059cbb33836040518363ffffffff1660e01b8152600401808373ffffffffffffffffffffffffffffffffffffffff1673ffffffffffffffffffffffffffffffffffffffff16815260200182815260200192505050602060405180830381600087803b15801562002e6957600080fd5b505af115801562002e7e573d6000803e3d6000fd5b505050506040513d602081101562002e9557600080fd5b810190808051906020019092919050505050505050565b600f60009054906101000a900473ffffffffffffffffffffffffffffffffffffffff1681565b600062002eea60028362003a4090919063ffffffff16565b90506000601160009054906101000a900473ffffffffffffffffffffffffffffffffffffffff1673ffffffffffffffffffffffffffffffffffffffff166335862cc7336040518263ffffffff1660e01b8152600401808273ffffffffffffffffffffffffffffffffffffffff1673ffffffffffffffffffffffffffffffffffffffff16815260200191505060206040518083038186803b15801562002f8e57600080fd5b505afa15801562002fa3573d6000803e3d6000fd5b505050506040513d602081101562002fba57600080fd5b8101908080519060200190929190505050905082811162003043576040517f08c379a00000000000000000000000000000000000000000000000000000000081526004018080602001828103825260158152602001807f4e6f7420456e6f75676820436f6c6c61746572616c000000000000000000000081525060200191505060405180910390fd5b6200305a82600654620038d890919063ffffffff16565b6006819055506200307782600754620038d890919063ffffffff16565b600781905550620030d183601660003373ffffffffffffffffffffffffffffffffffffffff1673ffffffffffffffffffffffffffffffffffffffff16815260200190815260200160002054620038d890919063ffffffff16565b601660003373ffffffffffffffffffffffffffffffffffffffff1673ffffffffffffffffffffffffffffffffffffffff168152602001908152602001600020819055506200316882601760003373ffffffffffffffffffffffffffffffffffffffff1673ffffffffffffffffffffffffffffffffffffffff16815260200190815260200160002054620038d890919063ffffffff16565b601760003373ffffffffffffffffffffffffffffffffffffffff1673ffffffffffffffffffffffffffffffffffffffff16815260200190815260200160002081905550620031ff82601860003373ffffffffffffffffffffffffffffffffffffffff1673ffffffffffffffffffffffffffffffffffffffff16815260200190815260200160002054620038d890919063ffffffff16565b601860003373ffffffffffffffffffffffffffffffffffffffff1673ffffffffffffffffffffffffffffffffffffffff16815260200190815260200160002081905550600d60009054906101000a900473ffffffffffffffffffffffffffffffffffffffff1673ffffffffffffffffffffffffffffffffffffffff1663a9059cbb33856040518363ffffffff1660e01b8152600401808373ffffffffffffffffffffffffffffffffffffffff1673ffffffffffffffffffffffffffffffffffffffff16815260200182815260200192505050602060405180830381600087803b158015620032ec57600080fd5b505af115801562003301573d6000803e3d6000fd5b505050506040513d60208110156200331857600080fd5b810190808051906020019092919050505050505050565b601360009054906101000a900473ffffffffffffffffffffffffffffffffffffffff1681565b600b8054600181600116156101000203166002900480601f016020809104026020016040519081016040528092919081815260200182805460018160011615610100020316600290048015620033ef5780601f10620033c357610100808354040283529160200191620033ef565b820191906000526020600020905b815481529060010190602001808311620033d157829003601f168201915b505050505081565b600d60009054906101000a900473ffffffffffffffffffffffffffffffffffffffff1673ffffffffffffffffffffffffffffffffffffffff166323b872dd3330846040518463ffffffff1660e01b8152600401808473ffffffffffffffffffffffffffffffffffffffff1673ffffffffffffffffffffffffffffffffffffffff1681526020018373ffffffffffffffffffffffffffffffffffffffff1673ffffffffffffffffffffffffffffffffffffffff1681526020018281526020019350505050602060405180830381600087803b158015620034d557600080fd5b505af1158015620034ea573d6000803e3d6000fd5b505050506040513d60208110156200350157600080fd5b8101908080519060200190929190505050506200352a81600454620038d890919063ffffffff16565b60048190555080601460003373ffffffffffffffffffffffffffffffffffffffff1673ffffffffffffffffffffffffffffffffffffffff1681526020019081526020016000208190555050565b601160009054906101000a900473ffffffffffffffffffffffffffffffffffffffff1681565b601260009054906101000a900473ffffffffffffffffffffffffffffffffffffffff1681565b6000601360009054906101000a900473ffffffffffffffffffffffffffffffffffffffff1673ffffffffffffffffffffffffffffffffffffffff166315f24053848460006040518463ffffffff1660e01b815260040180848152602001838152602001828152602001935050505060206040518083038186803b1580156200364a57600080fd5b505afa1580156200365f573d6000803e3d6000fd5b505050506040513d60208110156200367657600080fd5b81019080805190602001909291905050505092915050565b60085481565b6200369e620039ad565b73ffffffffffffffffffffffffffffffffffffffff166000809054906101000a900473ffffffffffffffffffffffffffffffffffffffff1673ffffffffffffffffffffffffffffffffffffffff161462003760576040517f08c379a00000000000000000000000000000000000000000000000000000000081526004018080602001828103825260208152602001807f4f776e61626c653a2063616c6c6572206973206e6f7420746865206f776e657281525060200191505060405180910390fd5b600073ffffffffffffffffffffffffffffffffffffffff168173ffffffffffffffffffffffffffffffffffffffff161415620037e8576040517f08c379a000000000000000000000000000000000000000000000000000000000815260040180806020018281038252602681526020018062007d1a6026913960400191505060405180910390fd5b8073ffffffffffffffffffffffffffffffffffffffff166000809054906101000a900473ffffffffffffffffffffffffffffffffffffffff1673ffffffffffffffffffffffffffffffffffffffff167f8be0079c531659141344cd1fd0a4f28419497f9722a3daafe3b4186f6b6457e060405160405180910390a3806000806101000a81548173ffffffffffffffffffffffffffffffffffffffff021916908373ffffffffffffffffffffffffffffffffffffffff16021790555050565b60055481565b60095481565b600a60009054906101000a900473ffffffffffffffffffffffffffffffffffffffff1681565b60008082840190508381101562003957576040517f08c379a000000000000000000000000000000000000000000000000000000000815260040180806020018281038252601b8152602001807f536166654d6174683a206164646974696f6e206f766572666c6f77000000000081525060200191505060405180910390fd5b8091505092915050565b6000620039a583836040518060400160405280601e81526020017f536166654d6174683a207375627472616374696f6e206f766572666c6f77000081525062003a8c565b905092915050565b600033905090565b600080831415620039ca576000905062003a3a565b6000828402905082848281620039dc57fe5b041462003a35576040517f08c379a000000000000000000000000000000000000000000000000000000000815260040180806020018281038252602181526020018062007d406021913960400191505060405180910390fd5b809150505b92915050565b600062003a8483836040518060400160405280601a81526020017f536166654d6174683a206469766973696f6e206279207a65726f00000000000081525062003b50565b905092915050565b600083831115829062003b3d576040517f08c379a00000000000000000000000000000000000000000000000000000000081526004018080602001828103825283818151815260200191508051906020019080838360005b8381101562003b0157808201518184015260208101905062003ae4565b50505050905090810190601f16801562003b2f5780820380516001836020036101000a031916815260200191505b509250505060405180910390fd5b5060008385039050809150509392505050565b6000808311829062003c00576040517f08c379a00000000000000000000000000000000000000000000000000000000081526004018080602001828103825283818151815260200191508051906020019080838360005b8381101562003bc457808201518184015260208101905062003ba7565b50505050905090810190601f16801562003bf25780820380516001836020036101000a031916815260200191505b509250505060405180910390fd5b50600083858162003c0d57fe5b049050809150509392505050565b6120718062003c3883390190565b6120718062005ca98339019056fe60806040523480156200001157600080fd5b506040516200207138038062002071833981810160405260408110156200003757600080fd5b81019080805160405193929190846401000000008211156200005857600080fd5b838201915060208201858111156200006f57600080fd5b82518660018202830111640100000000821117156200008d57600080fd5b8083526020830192505050908051906020019080838360005b83811015620000c3578082015181840152602081019050620000a6565b50505050905090810190601f168015620000f15780820380516001836020036101000a031916815260200191505b50604052602001805160405193929190846401000000008211156200011557600080fd5b838201915060208201858111156200012c57600080fd5b82518660018202830111640100000000821117156200014a57600080fd5b8083526020830192505050908051906020019080838360005b838110156200018057808201518184015260208101905062000163565b50505050905090810190601f168015620001ae5780820380516001836020036101000a031916815260200191505b5060405250505080826000620001c96200030060201b60201c565b9050806000806101000a81548173ffffffffffffffffffffffffffffffffffffffff021916908373ffffffffffffffffffffffffffffffffffffffff1602179055508073ffffffffffffffffffffffffffffffffffffffff16600073ffffffffffffffffffffffffffffffffffffffff167f8be0079c531659141344cd1fd0a4f28419497f9722a3daafe3b4186f6b6457e060405160405180910390a35081600490805190602001906200027f92919062000308565b5080600590805190602001906200029892919062000308565b506012600660006101000a81548160ff021916908360ff160217905550505033600660016101000a81548173ffffffffffffffffffffffffffffffffffffffff021916908373ffffffffffffffffffffffffffffffffffffffff1602179055505050620003b7565b600033905090565b828054600181600116156101000203166002900490600052602060002090601f016020900481019282601f106200034b57805160ff19168380011785556200037c565b828001600101855582156200037c579182015b828111156200037b5782518255916020019190600101906200035e565b5b5090506200038b91906200038f565b5090565b620003b491905b80821115620003b057600081600090555060010162000396565b5090565b90565b611caa80620003c76000396000f3fe608060405234801561001057600080fd5b506004361061010b5760003560e01c806370a08231116100a25780639dc29fac116100715780639dc29fac146104ee578063a457c2d71461053c578063a9059cbb146105a2578063dd62ed3e14610608578063f2fde38b146106805761010b565b806370a08231146103bf578063715018a6146104175780638da5cb5b1461042157806395d89b411461046b5761010b565b806323b872dd116100de57806323b872dd14610261578063313ce567146102e7578063395093511461030b57806340c10f19146103715761010b565b806306fdde0314610110578063095ea7b31461019357806318160ddd146101f9578063230b9da314610217575b600080fd5b6101186106c4565b6040518080602001828103825283818151815260200191508051906020019080838360005b8381101561015857808201518184015260208101905061013d565b50505050905090810190601f1680156101855780820380516001836020036101000a031916815260200191505b509250505060405180910390f35b6101df600480360360408110156101a957600080fd5b81019080803573ffffffffffffffffffffffffffffffffffffffff16906020019092919080359060200190929190505050610766565b604051808215151515815260200191505060405180910390f35b610201610784565b6040518082815260200191505060405180910390f35b61021f61078e565b604051808273ffffffffffffffffffffffffffffffffffffffff1673ffffffffffffffffffffffffffffffffffffffff16815260200191505060405180910390f35b6102cd6004803603606081101561027757600080fd5b81019080803573ffffffffffffffffffffffffffffffffffffffff169060200190929190803573ffffffffffffffffffffffffffffffffffffffff169060200190929190803590602001909291905050506107b4565b604051808215151515815260200191505060405180910390f35b6102ef61088d565b604051808260ff1660ff16815260200191505060405180910390f35b6103576004803603604081101561032157600080fd5b81019080803573ffffffffffffffffffffffffffffffffffffffff169060200190929190803590602001909291905050506108a4565b604051808215151515815260200191505060405180910390f35b6103bd6004803603604081101561038757600080fd5b81019080803573ffffffffffffffffffffffffffffffffffffffff16906020019092919080359060200190929190505050610957565b005b610401600480360360208110156103d557600080fd5b81019080803573ffffffffffffffffffffffffffffffffffffffff169060200190929190505050610a2e565b6040518082815260200191505060405180910390f35b61041f610a77565b005b610429610bff565b604051808273ffffffffffffffffffffffffffffffffffffffff1673ffffffffffffffffffffffffffffffffffffffff16815260200191505060405180910390f35b610473610c28565b6040518080602001828103825283818151815260200191508051906020019080838360005b838110156104b3578082015181840152602081019050610498565b50505050905090810190601f1680156104e05780820380516001836020036101000a031916815260200191505b509250505060405180910390f35b61053a6004803603604081101561050457600080fd5b81019080803573ffffffffffffffffffffffffffffffffffffffff16906020019092919080359060200190929190505050610cca565b005b6105886004803603604081101561055257600080fd5b81019080803573ffffffffffffffffffffffffffffffffffffffff16906020019092919080359060200190929190505050610da1565b604051808215151515815260200191505060405180910390f35b6105ee600480360360408110156105b857600080fd5b81019080803573ffffffffffffffffffffffffffffffffffffffff16906020019092919080359060200190929190505050610e6e565b604051808215151515815260200191505060405180910390f35b61066a6004803603604081101561061e57600080fd5b81019080803573ffffffffffffffffffffffffffffffffffffffff169060200190929190803573ffffffffffffffffffffffffffffffffffffffff169060200190929190505050610e8c565b6040518082815260200191505060405180910390f35b6106c26004803603602081101561069657600080fd5b81019080803573ffffffffffffffffffffffffffffffffffffffff169060200190929190505050610f13565b005b606060048054600181600116156101000203166002900480601f01602080910402602001604051908101604052809291908181526020018280546001816001161561010002031660029004801561075c5780601f106107315761010080835404028352916020019161075c565b820191906000526020600020905b81548152906001019060200180831161073f57829003601f168201915b5050505050905090565b600061077a610773611120565b8484611128565b6001905092915050565b6000600354905090565b600660019054906101000a900473ffffffffffffffffffffffffffffffffffffffff1681565b60006107c184848461131f565b610882846107cd611120565b61087d85604051806060016040528060288152602001611bbe60289139600260008b73ffffffffffffffffffffffffffffffffffffffff1673ffffffffffffffffffffffffffffffffffffffff1681526020019081526020016000206000610833611120565b73ffffffffffffffffffffffffffffffffffffffff1673ffffffffffffffffffffffffffffffffffffffff168152602001908152602001600020546115e49092919063ffffffff16565b611128565b600190509392505050565b6000600660009054906101000a900460ff16905090565b600061094d6108b1611120565b8461094885600260006108c2611120565b73ffffffffffffffffffffffffffffffffffffffff1673ffffffffffffffffffffffffffffffffffffffff16815260200190815260200160002060008973ffffffffffffffffffffffffffffffffffffffff1673ffffffffffffffffffffffffffffffffffffffff168152602001908152602001600020546116a490919063ffffffff16565b611128565b6001905092915050565b61095f611120565b73ffffffffffffffffffffffffffffffffffffffff166000809054906101000a900473ffffffffffffffffffffffffffffffffffffffff1673ffffffffffffffffffffffffffffffffffffffff1614610a20576040517f08c379a00000000000000000000000000000000000000000000000000000000081526004018080602001828103825260208152602001807f4f776e61626c653a2063616c6c6572206973206e6f7420746865206f776e657281525060200191505060405180910390fd5b610a2a828261172c565b5050565b6000600160008373ffffffffffffffffffffffffffffffffffffffff1673ffffffffffffffffffffffffffffffffffffffff168152602001908152602001600020549050919050565b610a7f611120565b73ffffffffffffffffffffffffffffffffffffffff166000809054906101000a900473ffffffffffffffffffffffffffffffffffffffff1673ffffffffffffffffffffffffffffffffffffffff1614610b40576040517f08c379a00000000000000000000000000000000000000000000000000000000081526004018080602001828103825260208152602001807f4f776e61626c653a2063616c6c6572206973206e6f7420746865206f776e657281525060200191505060405180910390fd5b600073ffffffffffffffffffffffffffffffffffffffff166000809054906101000a900473ffffffffffffffffffffffffffffffffffffffff1673ffffffffffffffffffffffffffffffffffffffff167f8be0079c531659141344cd1fd0a4f28419497f9722a3daafe3b4186f6b6457e060405160405180910390a360008060006101000a81548173ffffffffffffffffffffffffffffffffffffffff021916908373ffffffffffffffffffffffffffffffffffffffff160217905550565b60008060009054906101000a900473ffffffffffffffffffffffffffffffffffffffff16905090565b606060058054600181600116156101000203166002900480601f016020809104026020016040519081016040528092919081815260200182805460018160011615610100020316600290048015610cc05780601f10610c9557610100808354040283529160200191610cc0565b820191906000526020600020905b815481529060010190602001808311610ca357829003601f168201915b5050505050905090565b610cd2611120565b73ffffffffffffffffffffffffffffffffffffffff166000809054906101000a900473ffffffffffffffffffffffffffffffffffffffff1673ffffffffffffffffffffffffffffffffffffffff1614610d93576040517f08c379a00000000000000000000000000000000000000000000000000000000081526004018080602001828103825260208152602001807f4f776e61626c653a2063616c6c6572206973206e6f7420746865206f776e657281525060200191505060405180910390fd5b610d9d82826118f5565b5050565b6000610e64610dae611120565b84610e5f85604051806060016040528060258152602001611c506025913960026000610dd8611120565b73ffffffffffffffffffffffffffffffffffffffff1673ffffffffffffffffffffffffffffffffffffffff16815260200190815260200160002060008a73ffffffffffffffffffffffffffffffffffffffff1673ffffffffffffffffffffffffffffffffffffffff168152602001908152602001600020546115e49092919063ffffffff16565b611128565b6001905092915050565b6000610e82610e7b611120565b848461131f565b6001905092915050565b6000600260008473ffffffffffffffffffffffffffffffffffffffff1673ffffffffffffffffffffffffffffffffffffffff16815260200190815260200160002060008373ffffffffffffffffffffffffffffffffffffffff1673ffffffffffffffffffffffffffffffffffffffff16815260200190815260200160002054905092915050565b610f1b611120565b73ffffffffffffffffffffffffffffffffffffffff166000809054906101000a900473ffffffffffffffffffffffffffffffffffffffff1673ffffffffffffffffffffffffffffffffffffffff1614610fdc576040517f08c379a00000000000000000000000000000000000000000000000000000000081526004018080602001828103825260208152602001807f4f776e61626c653a2063616c6c6572206973206e6f7420746865206f776e657281525060200191505060405180910390fd5b600073ffffffffffffffffffffffffffffffffffffffff168173ffffffffffffffffffffffffffffffffffffffff161415611062576040517f08c379a0000000000000000000000000000000000000000000000000000000008152600401808060200182810382526026815260200180611b506026913960400191505060405180910390fd5b8073ffffffffffffffffffffffffffffffffffffffff166000809054906101000a900473ffffffffffffffffffffffffffffffffffffffff1673ffffffffffffffffffffffffffffffffffffffff167f8be0079c531659141344cd1fd0a4f28419497f9722a3daafe3b4186f6b6457e060405160405180910390a3806000806101000a81548173ffffffffffffffffffffffffffffffffffffffff021916908373ffffffffffffffffffffffffffffffffffffffff16021790555050565b600033905090565b600073ffffffffffffffffffffffffffffffffffffffff168373ffffffffffffffffffffffffffffffffffffffff1614156111ae576040517f08c379a0000000000000000000000000000000000000000000000000000000008152600401808060200182810382526024815260200180611c2c6024913960400191505060405180910390fd5b600073ffffffffffffffffffffffffffffffffffffffff168273ffffffffffffffffffffffffffffffffffffffff161415611234576040517f08c379a0000000000000000000000000000000000000000000000000000000008152600401808060200182810382526022815260200180611b766022913960400191505060405180910390fd5b80600260008573ffffffffffffffffffffffffffffffffffffffff1673ffffffffffffffffffffffffffffffffffffffff16815260200190815260200160002060008473ffffffffffffffffffffffffffffffffffffffff1673ffffffffffffffffffffffffffffffffffffffff168152602001908152602001600020819055508173ffffffffffffffffffffffffffffffffffffffff168373ffffffffffffffffffffffffffffffffffffffff167f8c5be1e5ebec7d5bd14f71427d1e84f3dd0314c0f7b2291e5b200ac8c7c3b925836040518082815260200191505060405180910390a3505050565b600073ffffffffffffffffffffffffffffffffffffffff168373ffffffffffffffffffffffffffffffffffffffff1614156113a5576040517f08c379a0000000000000000000000000000000000000000000000000000000008152600401808060200182810382526025815260200180611c076025913960400191505060405180910390fd5b600073ffffffffffffffffffffffffffffffffffffffff168273ffffffffffffffffffffffffffffffffffffffff16141561142b576040517f08c379a0000000000000000000000000000000000000000000000000000000008152600401808060200182810382526023815260200180611b0b6023913960400191505060405180910390fd5b611436838383611abb565b6114a281604051806060016040528060268152602001611b9860269139600160008773ffffffffffffffffffffffffffffffffffffffff1673ffffffffffffffffffffffffffffffffffffffff168152602001908152602001600020546115e49092919063ffffffff16565b600160008573ffffffffffffffffffffffffffffffffffffffff1673ffffffffffffffffffffffffffffffffffffffff1681526020019081526020016000208190555061153781600160008573ffffffffffffffffffffffffffffffffffffffff1673ffffffffffffffffffffffffffffffffffffffff168152602001908152602001600020546116a490919063ffffffff16565b600160008473ffffffffffffffffffffffffffffffffffffffff1673ffffffffffffffffffffffffffffffffffffffff168152602001908152602001600020819055508173ffffffffffffffffffffffffffffffffffffffff168373ffffffffffffffffffffffffffffffffffffffff167fddf252ad1be2c89b69c2b068fc378daa952ba7f163c4a11628f55a4df523b3ef836040518082815260200191505060405180910390a3505050565b6000838311158290611691576040517f08c379a00000000000000000000000000000000000000000000000000000000081526004018080602001828103825283818151815260200191508051906020019080838360005b8381101561165657808201518184015260208101905061163b565b50505050905090810190601f1680156116835780820380516001836020036101000a031916815260200191505b509250505060405180910390fd5b5060008385039050809150509392505050565b600080828401905083811015611722576040517f08c379a000000000000000000000000000000000000000000000000000000000815260040180806020018281038252601b8152602001807f536166654d6174683a206164646974696f6e206f766572666c6f77000000000081525060200191505060405180910390fd5b8091505092915050565b600073ffffffffffffffffffffffffffffffffffffffff168273ffffffffffffffffffffffffffffffffffffffff1614156117cf576040517f08c379a000000000000000000000000000000000000000000000000000000000815260040180806020018281038252601f8152602001807f45524332303a206d696e7420746f20746865207a65726f20616464726573730081525060200191505060405180910390fd5b6117db60008383611abb565b6117f0816003546116a490919063ffffffff16565b60038190555061184881600160008573ffffffffffffffffffffffffffffffffffffffff1673ffffffffffffffffffffffffffffffffffffffff168152602001908152602001600020546116a490919063ffffffff16565b600160008473ffffffffffffffffffffffffffffffffffffffff1673ffffffffffffffffffffffffffffffffffffffff168152602001908152602001600020819055508173ffffffffffffffffffffffffffffffffffffffff16600073ffffffffffffffffffffffffffffffffffffffff167fddf252ad1be2c89b69c2b068fc378daa952ba7f163c4a11628f55a4df523b3ef836040518082815260200191505060405180910390a35050565b600073ffffffffffffffffffffffffffffffffffffffff168273ffffffffffffffffffffffffffffffffffffffff16141561197b576040517f08c379a0000000000000000000000000000000000000000000000000000000008152600401808060200182810382526021815260200180611be66021913960400191505060405180910390fd5b61198782600083611abb565b6119f381604051806060016040528060228152602001611b2e60229139600160008673ffffffffffffffffffffffffffffffffffffffff1673ffffffffffffffffffffffffffffffffffffffff168152602001908152602001600020546115e49092919063ffffffff16565b600160008473ffffffffffffffffffffffffffffffffffffffff1673ffffffffffffffffffffffffffffffffffffffff16815260200190815260200160002081905550611a4b81600354611ac090919063ffffffff16565b600381905550600073ffffffffffffffffffffffffffffffffffffffff168273ffffffffffffffffffffffffffffffffffffffff167fddf252ad1be2c89b69c2b068fc378daa952ba7f163c4a11628f55a4df523b3ef836040518082815260200191505060405180910390a35050565b505050565b6000611b0283836040518060400160405280601e81526020017f536166654d6174683a207375627472616374696f6e206f766572666c6f7700008152506115e4565b90509291505056fe45524332303a207472616e7366657220746f20746865207a65726f206164647265737345524332303a206275726e20616d6f756e7420657863656564732062616c616e63654f776e61626c653a206e6577206f776e657220697320746865207a65726f206164647265737345524332303a20617070726f766520746f20746865207a65726f206164647265737345524332303a207472616e7366657220616d6f756e7420657863656564732062616c616e636545524332303a207472616e7366657220616d6f756e74206578636565647320616c6c6f77616e636545524332303a206275726e2066726f6d20746865207a65726f206164647265737345524332303a207472616e736665722066726f6d20746865207a65726f206164647265737345524332303a20617070726f76652066726f6d20746865207a65726f206164647265737345524332303a2064656372656173656420616c6c6f77616e63652062656c6f77207a65726fa2646970667358221220aaa35f19f042c76c2cb1efbc4e85baa664aeb920b90d8a36757633ac39a8f17464736f6c6343000606003360806040523480156200001157600080fd5b506040516200207138038062002071833981810160405260408110156200003757600080fd5b81019080805160405193929190846401000000008211156200005857600080fd5b838201915060208201858111156200006f57600080fd5b82518660018202830111640100000000821117156200008d57600080fd5b8083526020830192505050908051906020019080838360005b83811015620000c3578082015181840152602081019050620000a6565b50505050905090810190601f168015620000f15780820380516001836020036101000a031916815260200191505b50604052602001805160405193929190846401000000008211156200011557600080fd5b838201915060208201858111156200012c57600080fd5b82518660018202830111640100000000821117156200014a57600080fd5b8083526020830192505050908051906020019080838360005b838110156200018057808201518184015260208101905062000163565b50505050905090810190601f168015620001ae5780820380516001836020036101000a031916815260200191505b5060405250505080826000620001c96200030060201b60201c565b9050806000806101000a81548173ffffffffffffffffffffffffffffffffffffffff021916908373ffffffffffffffffffffffffffffffffffffffff1602179055508073ffffffffffffffffffffffffffffffffffffffff16600073ffffffffffffffffffffffffffffffffffffffff167f8be0079c531659141344cd1fd0a4f28419497f9722a3daafe3b4186f6b6457e060405160405180910390a35081600490805190602001906200027f92919062000308565b5080600590805190602001906200029892919062000308565b506012600660006101000a81548160ff021916908360ff160217905550505033600660016101000a81548173ffffffffffffffffffffffffffffffffffffffff021916908373ffffffffffffffffffffffffffffffffffffffff1602179055505050620003b7565b600033905090565b828054600181600116156101000203166002900490600052602060002090601f016020900481019282601f106200034b57805160ff19168380011785556200037c565b828001600101855582156200037c579182015b828111156200037b5782518255916020019190600101906200035e565b5b5090506200038b91906200038f565b5090565b620003b491905b80821115620003b057600081600090555060010162000396565b5090565b90565b611caa80620003c76000396000f3fe608060405234801561001057600080fd5b506004361061010b5760003560e01c806370a08231116100a25780639dc29fac116100715780639dc29fac146104ee578063a457c2d71461053c578063a9059cbb146105a2578063dd62ed3e14610608578063f2fde38b146106805761010b565b806370a08231146103bf578063715018a6146104175780638da5cb5b1461042157806395d89b411461046b5761010b565b806323b872dd116100de57806323b872dd14610261578063313ce567146102e7578063395093511461030b57806340c10f19146103715761010b565b806306fdde0314610110578063095ea7b31461019357806318160ddd146101f9578063230b9da314610217575b600080fd5b6101186106c4565b6040518080602001828103825283818151815260200191508051906020019080838360005b8381101561015857808201518184015260208101905061013d565b50505050905090810190601f1680156101855780820380516001836020036101000a031916815260200191505b509250505060405180910390f35b6101df600480360360408110156101a957600080fd5b81019080803573ffffffffffffffffffffffffffffffffffffffff16906020019092919080359060200190929190505050610766565b604051808215151515815260200191505060405180910390f35b610201610784565b6040518082815260200191505060405180910390f35b61021f61078e565b604051808273ffffffffffffffffffffffffffffffffffffffff1673ffffffffffffffffffffffffffffffffffffffff16815260200191505060405180910390f35b6102cd6004803603606081101561027757600080fd5b81019080803573ffffffffffffffffffffffffffffffffffffffff169060200190929190803573ffffffffffffffffffffffffffffffffffffffff169060200190929190803590602001909291905050506107b4565b604051808215151515815260200191505060405180910390f35b6102ef61088d565b604051808260ff1660ff16815260200191505060405180910390f35b6103576004803603604081101561032157600080fd5b81019080803573ffffffffffffffffffffffffffffffffffffffff169060200190929190803590602001909291905050506108a4565b604051808215151515815260200191505060405180910390f35b6103bd6004803603604081101561038757600080fd5b81019080803573ffffffffffffffffffffffffffffffffffffffff16906020019092919080359060200190929190505050610957565b005b610401600480360360208110156103d557600080fd5b81019080803573ffffffffffffffffffffffffffffffffffffffff169060200190929190505050610a2e565b6040518082815260200191505060405180910390f35b61041f610a77565b005b610429610bff565b604051808273ffffffffffffffffffffffffffffffffffffffff1673ffffffffffffffffffffffffffffffffffffffff16815260200191505060405180910390f35b610473610c28565b6040518080602001828103825283818151815260200191508051906020019080838360005b838110156104b3578082015181840152602081019050610498565b50505050905090810190601f1680156104e05780820380516001836020036101000a031916815260200191505b509250505060405180910390f35b61053a6004803603604081101561050457600080fd5b81019080803573ffffffffffffffffffffffffffffffffffffffff16906020019092919080359060200190929190505050610cca565b005b6105886004803603604081101561055257600080fd5b81019080803573ffffffffffffffffffffffffffffffffffffffff16906020019092919080359060200190929190505050610da1565b604051808215151515815260200191505060405180910390f35b6105ee600480360360408110156105b857600080fd5b81019080803573ffffffffffffffffffffffffffffffffffffffff16906020019092919080359060200190929190505050610e6e565b604051808215151515815260200191505060405180910390f35b61066a6004803603604081101561061e57600080fd5b81019080803573ffffffffffffffffffffffffffffffffffffffff169060200190929190803573ffffffffffffffffffffffffffffffffffffffff169060200190929190505050610e8c565b6040518082815260200191505060405180910390f35b6106c26004803603602081101561069657600080fd5b81019080803573ffffffffffffffffffffffffffffffffffffffff169060200190929190505050610f13565b005b606060048054600181600116156101000203166002900480601f01602080910402602001604051908101604052809291908181526020018280546001816001161561010002031660029004801561075c5780601f106107315761010080835404028352916020019161075c565b820191906000526020600020905b81548152906001019060200180831161073f57829003601f168201915b5050505050905090565b600061077a610773611120565b8484611128565b6001905092915050565b6000600354905090565b600660019054906101000a900473ffffffffffffffffffffffffffffffffffffffff1681565b60006107c184848461131f565b610882846107cd611120565b61087d85604051806060016040528060288152602001611bbe60289139600260008b73ffffffffffffffffffffffffffffffffffffffff1673ffffffffffffffffffffffffffffffffffffffff1681526020019081526020016000206000610833611120565b73ffffffffffffffffffffffffffffffffffffffff1673ffffffffffffffffffffffffffffffffffffffff168152602001908152602001600020546115e49092919063ffffffff16565b611128565b600190509392505050565b6000600660009054906101000a900460ff16905090565b600061094d6108b1611120565b8461094885600260006108c2611120565b73ffffffffffffffffffffffffffffffffffffffff1673ffffffffffffffffffffffffffffffffffffffff16815260200190815260200160002060008973ffffffffffffffffffffffffffffffffffffffff1673ffffffffffffffffffffffffffffffffffffffff168152602001908152602001600020546116a490919063ffffffff16565b611128565b6001905092915050565b61095f611120565b73ffffffffffffffffffffffffffffffffffffffff166000809054906101000a900473ffffffffffffffffffffffffffffffffffffffff1673ffffffffffffffffffffffffffffffffffffffff1614610a20576040517f08c379a00000000000000000000000000000000000000000000000000000000081526004018080602001828103825260208152602001807f4f776e61626c653a2063616c6c6572206973206e6f7420746865206f776e657281525060200191505060405180910390fd5b610a2a828261172c565b5050565b6000600160008373ffffffffffffffffffffffffffffffffffffffff1673ffffffffffffffffffffffffffffffffffffffff168152602001908152602001600020549050919050565b610a7f611120565b73ffffffffffffffffffffffffffffffffffffffff166000809054906101000a900473ffffffffffffffffffffffffffffffffffffffff1673ffffffffffffffffffffffffffffffffffffffff1614610b40576040517f08c379a00000000000000000000000000000000000000000000000000000000081526004018080602001828103825260208152602001807f4f776e61626c653a2063616c6c6572206973206e6f7420746865206f776e657281525060200191505060405180910390fd5b600073ffffffffffffffffffffffffffffffffffffffff166000809054906101000a900473ffffffffffffffffffffffffffffffffffffffff1673ffffffffffffffffffffffffffffffffffffffff167f8be0079c531659141344cd1fd0a4f28419497f9722a3daafe3b4186f6b6457e060405160405180910390a360008060006101000a81548173ffffffffffffffffffffffffffffffffffffffff021916908373ffffffffffffffffffffffffffffffffffffffff160217905550565b60008060009054906101000a900473ffffffffffffffffffffffffffffffffffffffff16905090565b606060058054600181600116156101000203166002900480601f016020809104026020016040519081016040528092919081815260200182805460018160011615610100020316600290048015610cc05780601f10610c9557610100808354040283529160200191610cc0565b820191906000526020600020905b815481529060010190602001808311610ca357829003601f168201915b5050505050905090565b610cd2611120565b73ffffffffffffffffffffffffffffffffffffffff166000809054906101000a900473ffffffffffffffffffffffffffffffffffffffff1673ffffffffffffffffffffffffffffffffffffffff1614610d93576040517f08c379a00000000000000000000000000000000000000000000000000000000081526004018080602001828103825260208152602001807f4f776e61626c653a2063616c6c6572206973206e6f7420746865206f776e657281525060200191505060405180910390fd5b610d9d82826118f5565b5050565b6000610e64610dae611120565b84610e5f85604051806060016040528060258152602001611c506025913960026000610dd8611120565b73ffffffffffffffffffffffffffffffffffffffff1673ffffffffffffffffffffffffffffffffffffffff16815260200190815260200160002060008a73ffffffffffffffffffffffffffffffffffffffff1673ffffffffffffffffffffffffffffffffffffffff168152602001908152602001600020546115e49092919063ffffffff16565b611128565b6001905092915050565b6000610e82610e7b611120565b848461131f565b6001905092915050565b6000600260008473ffffffffffffffffffffffffffffffffffffffff1673ffffffffffffffffffffffffffffffffffffffff16815260200190815260200160002060008373ffffffffffffffffffffffffffffffffffffffff1673ffffffffffffffffffffffffffffffffffffffff16815260200190815260200160002054905092915050565b610f1b611120565b73ffffffffffffffffffffffffffffffffffffffff166000809054906101000a900473ffffffffffffffffffffffffffffffffffffffff1673ffffffffffffffffffffffffffffffffffffffff1614610fdc576040517f08c379a00000000000000000000000000000000000000000000000000000000081526004018080602001828103825260208152602001807f4f776e61626c653a2063616c6c6572206973206e6f7420746865206f776e657281525060200191505060405180910390fd5b600073ffffffffffffffffffffffffffffffffffffffff168173ffffffffffffffffffffffffffffffffffffffff161415611062576040517f08c379a0000000000000000000000000000000000000000000000000000000008152600401808060200182810382526026815260200180611b506026913960400191505060405180910390fd5b8073ffffffffffffffffffffffffffffffffffffffff166000809054906101000a900473ffffffffffffffffffffffffffffffffffffffff1673ffffffffffffffffffffffffffffffffffffffff167f8be0079c531659141344cd1fd0a4f28419497f9722a3daafe3b4186f6b6457e060405160405180910390a3806000806101000a81548173ffffffffffffffffffffffffffffffffffffffff021916908373ffffffffffffffffffffffffffffffffffffffff16021790555050565b600033905090565b600073ffffffffffffffffffffffffffffffffffffffff168373ffffffffffffffffffffffffffffffffffffffff1614156111ae576040517f08c379a0000000000000000000000000000000000000000000000000000000008152600401808060200182810382526024815260200180611c2c6024913960400191505060405180910390fd5b600073ffffffffffffffffffffffffffffffffffffffff168273ffffffffffffffffffffffffffffffffffffffff161415611234576040517f08c379a0000000000000000000000000000000000000000000000000000000008152600401808060200182810382526022815260200180611b766022913960400191505060405180910390fd5b80600260008573ffffffffffffffffffffffffffffffffffffffff1673ffffffffffffffffffffffffffffffffffffffff16815260200190815260200160002060008473ffffffffffffffffffffffffffffffffffffffff1673ffffffffffffffffffffffffffffffffffffffff168152602001908152602001600020819055508173ffffffffffffffffffffffffffffffffffffffff168373ffffffffffffffffffffffffffffffffffffffff167f8c5be1e5ebec7d5bd14f71427d1e84f3dd0314c0f7b2291e5b200ac8c7c3b925836040518082815260200191505060405180910390a3505050565b600073ffffffffffffffffffffffffffffffffffffffff168373ffffffffffffffffffffffffffffffffffffffff1614156113a5576040517f08c379a0000000000000000000000000000000000000000000000000000000008152600401808060200182810382526025815260200180611c076025913960400191505060405180910390fd5b600073ffffffffffffffffffffffffffffffffffffffff168273ffffffffffffffffffffffffffffffffffffffff16141561142b576040517f08c379a0000000000000000000000000000000000000000000000000000000008152600401808060200182810382526023815260200180611b0b6023913960400191505060405180910390fd5b611436838383611abb565b6114a281604051806060016040528060268152602001611b9860269139600160008773ffffffffffffffffffffffffffffffffffffffff1673ffffffffffffffffffffffffffffffffffffffff168152602001908152602001600020546115e49092919063ffffffff16565b600160008573ffffffffffffffffffffffffffffffffffffffff1673ffffffffffffffffffffffffffffffffffffffff1681526020019081526020016000208190555061153781600160008573ffffffffffffffffffffffffffffffffffffffff1673ffffffffffffffffffffffffffffffffffffffff168152602001908152602001600020546116a490919063ffffffff16565b600160008473ffffffffffffffffffffffffffffffffffffffff1673ffffffffffffffffffffffffffffffffffffffff168152602001908152602001600020819055508173ffffffffffffffffffffffffffffffffffffffff168373ffffffffffffffffffffffffffffffffffffffff167fddf252ad1be2c89b69c2b068fc378daa952ba7f163c4a11628f55a4df523b3ef836040518082815260200191505060405180910390a3505050565b6000838311158290611691576040517f08c379a00000000000000000000000000000000000000000000000000000000081526004018080602001828103825283818151815260200191508051906020019080838360005b8381101561165657808201518184015260208101905061163b565b50505050905090810190601f1680156116835780820380516001836020036101000a031916815260200191505b509250505060405180910390fd5b5060008385039050809150509392505050565b600080828401905083811015611722576040517f08c379a000000000000000000000000000000000000000000000000000000000815260040180806020018281038252601b8152602001807f536166654d6174683a206164646974696f6e206f766572666c6f77000000000081525060200191505060405180910390fd5b8091505092915050565b600073ffffffffffffffffffffffffffffffffffffffff168273ffffffffffffffffffffffffffffffffffffffff1614156117cf576040517f08c379a000000000000000000000000000000000000000000000000000000000815260040180806020018281038252601f8152602001807f45524332303a206d696e7420746f20746865207a65726f20616464726573730081525060200191505060405180910390fd5b6117db60008383611abb565b6117f0816003546116a490919063ffffffff16565b60038190555061184881600160008573ffffffffffffffffffffffffffffffffffffffff1673ffffffffffffffffffffffffffffffffffffffff168152602001908152602001600020546116a490919063ffffffff16565b600160008473ffffffffffffffffffffffffffffffffffffffff1673ffffffffffffffffffffffffffffffffffffffff168152602001908152602001600020819055508173ffffffffffffffffffffffffffffffffffffffff16600073ffffffffffffffffffffffffffffffffffffffff167fddf252ad1be2c89b69c2b068fc378daa952ba7f163c4a11628f55a4df523b3ef836040518082815260200191505060405180910390a35050565b600073ffffffffffffffffffffffffffffffffffffffff168273ffffffffffffffffffffffffffffffffffffffff16141561197b576040517f08c379a0000000000000000000000000000000000000000000000000000000008152600401808060200182810382526021815260200180611be66021913960400191505060405180910390fd5b61198782600083611abb565b6119f381604051806060016040528060228152602001611b2e60229139600160008673ffffffffffffffffffffffffffffffffffffffff1673ffffffffffffffffffffffffffffffffffffffff168152602001908152602001600020546115e49092919063ffffffff16565b600160008473ffffffffffffffffffffffffffffffffffffffff1673ffffffffffffffffffffffffffffffffffffffff16815260200190815260200160002081905550611a4b81600354611ac090919063ffffffff16565b600381905550600073ffffffffffffffffffffffffffffffffffffffff168273ffffffffffffffffffffffffffffffffffffffff167fddf252ad1be2c89b69c2b068fc378daa952ba7f163c4a11628f55a4df523b3ef836040518082815260200191505060405180910390a35050565b505050565b6000611b0283836040518060400160405280601e81526020017f536166654d6174683a207375627472616374696f6e206f766572666c6f7700008152506115e4565b90509291505056fe45524332303a207472616e7366657220746f20746865207a65726f206164647265737345524332303a206275726e20616d6f756e7420657863656564732062616c616e63654f776e61626c653a206e6577206f776e657220697320746865207a65726f206164647265737345524332303a20617070726f766520746f20746865207a65726f206164647265737345524332303a207472616e7366657220616d6f756e7420657863656564732062616c616e636545524332303a207472616e7366657220616d6f756e74206578636565647320616c6c6f77616e636545524332303a206275726e2066726f6d20746865207a65726f206164647265737345524332303a207472616e736665722066726f6d20746865207a65726f206164647265737345524332303a20617070726f76652066726f6d20746865207a65726f206164647265737345524332303a2064656372656173656420616c6c6f77616e63652062656c6f77207a65726fa2646970667358221220613c234f4b5d7fecfa8fb49284bc2c481316262c86fe2d5b324e4a417de50a7664736f6c634300060600334f776e61626c653a206e6577206f776e657220697320746865207a65726f2061646472657373536166654d6174683a206d756c7469706c69636174696f6e206f766572666c6f774f6e6c79204d6f6e6579204d61726b657420466163746f72793a2063616c6c6572206973206e6f7420746865204d6f6e6579204d61726b657420466163746f7279a2646970667358221220e6e3c1469b128b3eaec431e1ff88e2e202ce471964acc38fd4902bacdfa69cdb64736f6c634300060600334f776e61626c653a206e6577206f776e657220697320746865207a65726f2061646472657373",
  "immutableReferences": {},
  "source": "pragma solidity ^0.6.2;\n\nimport \"@openzeppelin/contracts/access/Ownable.sol\";\nimport \"@openzeppelin/contracts/token/ERC20/IERC20.sol\";\nimport \"@openzeppelin/contracts/math/SafeMath.sol\";\nimport \"./AskoHighRisk.sol\";\nimport \"./AskoLowRisk.sol\";\nimport \"./interfaces/MoneyMarketFactoryI.sol\";\nimport \"./interfaces/UniswapOracleInstanceI.sol\";\nimport \"./interestTools/InterestRateModel.sol\";\n////////////////////////////////////////////////////////////////////////////////////////////\n/// @title MoneyMarketInstance\n/// @author Christopher Dixon\n////////////////////////////////////////////////////////////////////////////////////////////\n/**\nThe MoneyMarketInstance contract is designed facilitate a tiered money market for an individual ERC20 asset\nThis contract uses the OpenZeppelin contract Library to inherit functions from\n  Ownable.sol && IRC20.sol\n**/\ncontract MoneyMarketInstance is Ownable {\n    using SafeMath for uint256;\n\n  uint256 public blocksPerYear;\n  uint256 public feePercent;\n  uint256 public divisor;\n  uint256 public assetAHRPoolBalance;\n  uint256 public assetALRPoolBalance;\n  uint256 public assetAHRborrowBalance;\n  uint256 public assetALRborrowBalance;\n  uint256 public fee_AHR;\n  uint256 public fee_ALR;\n  address public factoryMM;\n  string public assetName;\n  string public assetSymbol;\n\n\n  IERC20 public asset;\n  AskoHighRisk public AHR;\n  AskoLowRisk public ALR;\n  UniswapOracleInstanceI public oracle;\n  MoneyMarketFactoryI public MMF;\n  InterestRateModel public IRM_AHR;\n  InterestRateModel public IRM_ALR;\n\n  mapping(address => uint) public lentToAHRpool;\n  mapping(address => uint) public lentToALRpool;\n  mapping(address => uint) public totalAmountBorrowed;\n  mapping(address => uint) public amountBorrowedAHR;\n  mapping(address => uint) public amountBorrowedALR;\n\n\n\n\n/**\n@notice onlyMMFactory is a modifier used to make a function only callable by the Money Market Factory contract\n**/\n  modifier onlyMMFactory()  {\n    require(msg.sender == address(MMF), \"Only Money Market Factory: caller is not the Money Market Factory\");\n    _;\n  }\n\n\n/**\n@notice the constructor function is fired during the contract deployment process. The constructor can only be fired once and\n        is used to initialize the MoneyMakerInstance and deploy its associated AHR && ALR token contracts\n@param _assetContractAdd is the address of the ERC20 asset being whitelisted\n@param _owner is the address that will own this contract(The AskoDAO)\n@param _assetName is the name of the asset(e.x: ChainLink)\n@param _assetSymbol is the symbol of the asset(e.x: LINK)\n@dev this function uses ABI encoding to properly concatenate AHR- && ALR- in front of the tokens name and symbol\n      before creating each token.\n**/\n  constructor (\n    address _assetContractAdd,\n    address _owner,\n    address _oracle,\n\t\tstring memory _assetName,\n\t\tstring memory _assetSymbol\n  )\n  public\n  {\n    asset = IERC20(_assetContractAdd);\n\n\n  divisor = 10000;\n  blocksPerYear = 2102400;\n  assetName = _assetName;\n  assetSymbol = _assetSymbol;\n  oracle = UniswapOracleInstanceI(_oracle);\n  MMF = MoneyMarketFactoryI(msg.sender);\n  transferOwnership(_owner);\n\n  }\n\n/**\n@notice setUp is called by the MoneyMarketFactory after a contract is created to set up the initial variables.\n        This is split from the constructor function to keep from reaching the gas block limit\n@param  _InterestRateModel is the address of this MoneyMarketInstances InterestRateModel\n@param _fee is a number representing the fee for exchanging an AHR token, as a mantissa (scaled by 1e18)\n**/\nfunction _setUpAHR(\n    address _InterestRateModel,\n    uint256 _fee\n  )\n  public\n  onlyMMFactory\n  {\n  IRM_AHR = InterestRateModel(_InterestRateModel);\n  fee_AHR = _fee;\n  bytes memory ahrname = abi.encodePacked(\"AHR-\");\n  ahrname = abi.encodePacked(ahrname, assetName);\n\n  bytes memory ahrsymbol = abi.encodePacked(\"AHR-\");\n  ahrsymbol = abi.encodePacked(ahrsymbol, assetSymbol);\n\n  string memory assetNameAHR = string(ahrname);\n  string memory assetSymbolAHR = string(ahrsymbol);\n\n  AHR = AskoHighRisk(address(new AskoHighRisk(\n    assetNameAHR,\n    assetSymbolAHR\n  )));\n  }\n\n/**\n@notice setUp is called by the MoneyMarketFactory after a contract is created to set up the initial variables.\n        This is split from the constructor function to keep from reaching the gas block limit\n@param  _InterestRateModel is the address of this MoneyMarketInstances InterestRateModel\n@param _fee is a number representing the fee for exchanging an ALR token, as a mantissa (scaled by 1e18)\n**/\n  function _setUpALR(\n      address _InterestRateModel,\n      uint256 _fee\n    )\n    public\n    onlyMMFactory\n    {\n    IRM_ALR = InterestRateModel(_InterestRateModel);\n    fee_ALR = _fee;\n    bytes memory alrname = abi.encodePacked(\"AlR-\");\n    alrname = abi.encodePacked(alrname, assetName);\n\n    bytes memory alrsymbol = abi.encodePacked(\"AlR-\");\n    alrsymbol = abi.encodePacked(alrsymbol, assetSymbol);\n\n    string memory assetNameALR = string(alrname);\n    string memory assetSymbolALR = string(alrsymbol);\n\n    ALR = AskoLowRisk(address(new AskoLowRisk(\n      assetNameALR,\n      assetSymbolALR\n    )));\n    }\n\n\n\n/**\n@notice setFee allows the owner of this contract to set the fee\n@param  _fee is the input number representing the fee\n@dev the divisor is set to 10,000 in the constructor for this contract. this allows for\n      a fee percentage accounting for two decimal places. feePercent must account for this when being set.\n      The following examples show feePercent amounts and how they equate to percentages:\n              EX:\n                  a 1% fee would be set as feePercent = 100\n                  a .5% fee would be set as feePercent = 50\n                  a 50% fee would be set as feePercent = 5000\n**/\n  function setFeeAHR(uint _fee) public onlyOwner {\n      fee_AHR = _fee;\n  }\n\n/**\n@notice setFee allows the owner of this contract to set the fee\n@param  _fee is the input number representing the fee\n@dev the divisor is set to 10,000 in the constructor for this contract. this allows for\n      a fee percentage accounting for two decimal places. feePercent must account for this when being set.\n      The following examples show feePercent amounts and how they equate to percentages:\n              EX:\n                  a 1% fee would be set as feePercent = 100\n                  a .5% fee would be set as feePercent = 50\n                  a 50% fee would be set as feePercent = 5000\n**/\n  function setFeeALR(uint _fee) public onlyOwner {\n      fee_ALR = _fee;\n  }\n\n/**\n\n**/\nfunction getALRadd() public view returns(address) {\n  return address(ALR);\n}\n\n/**\n\n**/\nfunction factoryBurn(address _account, uint _amount) external onlyMMFactory {\n  ALR.burn(_account, _amount);\n}\n\n/**\n\n**/\nfunction factoryMint(address _account, uint _amount) external onlyMMFactory {\n  ALR.mint(_account, _amount);\n}\n\n/**\n@notice calculateFee is used to calculate the fee earned\n@param _payedAmount is a uint representing the full amount of an ERC20 asset payed\n@dev the divisor is set to 10,000 in the constructor for this contract. this allows for\n      a fee percentage accounting for two decimal places. feePercent must account for this when being set.\n      The following examples show feePercent amounts and how they equate to percentages:\n              EX:\n                  a 1% fee would be set as feePercent = 100\n                  a .5% fee would be set as feePercent = 50\n                  a 50% fee would be set as feePercent = 5000\n**/\nfunction calculateFee(uint256 _payedAmount) public view returns(uint) {\n  uint256 fee = _payedAmount.mul(feePercent).div(divisor);\n  return fee;\n}\n\n\n\n/**\n@notice calculateAHRInterest is used to calculate the earned interest for the High Risk pool\n@param _assetBalance The amount of asset held by the Money Market Contract\n@param _loanBal The total value of all asset loans for this money market\n@return The utilization rate as a mantissa between [0, 1e18]\n**/\nfunction calculateAHRexchangeRate(uint _assetBalance, uint _loanBal) public view returns(uint) {\n    IRM_AHR.getSupplyRate(_assetBalance, _loanBal, 0, 0);\n}\n\n/**\n@notice calculateALRInterest is used to calculate the earned interest for the Low Risk pool\n@param _assetBalance The amount of asset held by the Money Market Contract\n@param _loanBal The total value of all asset loans for this money market\n@return The utilization rate as a mantissa between [0, 1e18]\n**/\nfunction calculateALRexchangeRate(uint _assetBalance, uint _loanBal) public view returns(uint){\n    IRM_ALR.getSupplyRate(_assetBalance, _loanBal, 0, 0);\n}\n\n/**\n@notice calculateLoanInterest is used to calculate the interest for a loan\n@param _assetBalance The amount of asset held by the Money Market Contract\n@param _loanBal The total value of all asset loans for this money market\n**/\nfunction calculateLoanInterest(uint _assetBalance, uint _loanBal) public view returns(uint){\n    IRM_ALR.getBorrowRate(_assetBalance, _loanBal, 0);\n}\n\n\n\n/**\n@notice lendToAHRpool is used to lend assets to a MoneyMarketInstance's High Risk pool\n@param _amount is the amount of the asset being lent\n@dev the user will need to first approve the transfer of the underlying asset\n**/\n  function lendToAHRpool(uint _amount) public {\n        asset.transferFrom(msg.sender, address(this), _amount);\n        assetAHRPoolBalance = assetAHRPoolBalance.add(_amount);\n        lentToAHRpool[msg.sender] = _amount;\n  }\n\n/**\n@notice lendToAHRpool is used to lend assets to a MoneyMarketInstance's Low Risk pool\n@param _amount is the amount of the asset being lent\n@dev the user will need to first approve the transfer of the underlying asset\n**/\n    function lendToALRpool(uint _amount) public {\n        asset.transferFrom(msg.sender, address(this), _amount);\n        assetALRPoolBalance = assetALRPoolBalance.add(_amount);\n        lentToALRpool[msg.sender] = _amount;\n    }\n\n/**\n@notice redeemAHR is used to redeem AHR toke for its underlying asset + interest\n@param _amount is the amount of AHR being redeemed\n**/\n\tfunction\tredeemAHR(uint _amount)public {\n    AHR.burn(msg.sender, _amount);\n    uint interestAmount = calculateAHRexchangeRate(_amount, assetAHRborrowBalance);\n    uint totalVal = _amount.add(interestAmount);\n    asset.transfer(msg.sender, totalVal);\n  }\n\n/**\n@notice redeemALR is used to redeem ALR toke for its underlying asset + interest\n@param _amount is the amount of ALR being redeemed\n**/\n\tfunction\tredeemALR(uint _amount)public {\n    ALR.burn(msg.sender, _amount);\n    uint interestAmount = calculateALRexchangeRate(_amount, assetALRborrowBalance);\n    uint totalVal = _amount.add(interestAmount);\n    asset.transfer(msg.sender, totalVal);\n  }\n\n/**\n@notice borrow is used to take out a loan from in MoneyMarketInstance's underlying asset\n@param _amount is the amount of asset being barrowed\n**/\n  function borrow(uint _amount) public {\n      uint half = _amount.div(2);\n      uint stakedValue = MMF.getTotalStakeValue(msg.sender);\n      require(stakedValue > _amount, \"Not Enough Collateral\");\n      assetAHRborrowBalance = assetAHRborrowBalance.add(half);\n      assetALRborrowBalance = assetALRborrowBalance.add(half);\n      totalAmountBorrowed[msg.sender] = totalAmountBorrowed[msg.sender].add(_amount);\n      amountBorrowedAHR[msg.sender] = amountBorrowedAHR[msg.sender].add(half);\n      amountBorrowedALR[msg.sender] = amountBorrowedALR[msg.sender].add(half);\n      asset.transfer(msg.sender, _amount);\n  }\n\n/**\n@notice repay is used to repay a loan\n@dev this function calls the _repay function on the MoneyMarketFactory contract to\n     ensure that a users global staked amounts remain accurate and to trigger the minting of\n     of the users collateralized ALR token back to them.\n**/\n\tfunction repay() public {\n    uint amountOwed = calculateLoanInterest(asset.balanceOf(address(this)), totalAmountBorrowed[msg.sender]);\n    uint fee = calculateFee(amountOwed);\n    uint feeAdjusted = amountOwed.add(fee);\n    uint userAssetBal = asset.balanceOf(msg.sender);\n    require(userAssetBal >= feeAdjusted, \"Balance too low to pay off loan\");\n    asset.transferFrom(msg.sender, address(this), feeAdjusted);\n\n    if(assetALRborrowBalance == 0){ //if the Asko Low Risk borrow Balance is payed off\n        assetAHRborrowBalance = assetAHRborrowBalance.sub(totalAmountBorrowed[msg.sender]);\n        //subtract the original amount borrowed from the total amount borrowed\n        assetAHRPoolBalance = assetAHRPoolBalance.add(amountOwed);\n        //add the amount owed(borrowed + interest)to the Asko High Risk Pool Balance\n    }else {\n        assetALRborrowBalance = assetALRborrowBalance.sub(totalAmountBorrowed[msg.sender]);\n        //subtract the original amount borrowed from the total amount borrowed\n        assetALRPoolBalance = assetALRPoolBalance.add(amountOwed);\n        //add the amount owed(borrowed + interest)to the Asko High Risk Pool Balance\n    }\n\n    asset.transferFrom(address(this), owner(), fee);\n    totalAmountBorrowed[msg.sender] = 0;\n    amountBorrowedAHR[msg.sender] = 0;\n    amountBorrowedALR[msg.sender] = 0;\n    MMF._repay(address(this), msg.sender);\n    asset.transfer(address(MMF), fee);\n  }\n\n\n\n}\n",
  "sourcePath": "/home/stan36/repos/Askolend/smart-contracts/contracts/MoneyMarketInstance.sol",
  "compiler": {
    "name": "solc",
    "version": "0.6.6+commit.6c089d02.Emscripten.clang"
  },
  "schemaVersion": "3.2.5",
  "updatedAt": "2020-09-24T17:26:31.063Z",
  "devdoc": {
    "methods": {
      "_setUpAHR(address,uint256)": {
        "params": {
          "_InterestRateModel": "is the address of this MoneyMarketInstances InterestRateModel",
          "_fee": "is a number representing the fee for exchanging an AHR token, as a mantissa (scaled by 1e18)*"
        }
      },
      "_setUpALR(address,uint256)": {
        "params": {
          "_InterestRateModel": "is the address of this MoneyMarketInstances InterestRateModel",
          "_fee": "is a number representing the fee for exchanging an ALR token, as a mantissa (scaled by 1e18)*"
        }
      },
      "borrow(uint256)": {
        "params": {
          "_amount": "is the amount of asset being barrowed*"
        }
      },
      "calculateAHRexchangeRate(uint256,uint256)": {
        "params": {
          "_assetBalance": "The amount of asset held by the Money Market Contract",
          "_loanBal": "The total value of all asset loans for this money market"
        },
        "returns": {
          "_0": "The utilization rate as a mantissa between [0, 1e18]*"
        }
      },
      "calculateALRexchangeRate(uint256,uint256)": {
        "params": {
          "_assetBalance": "The amount of asset held by the Money Market Contract",
          "_loanBal": "The total value of all asset loans for this money market"
        },
        "returns": {
          "_0": "The utilization rate as a mantissa between [0, 1e18]*"
        }
      },
      "calculateFee(uint256)": {
        "details": "the divisor is set to 10,000 in the constructor for this contract. this allows for a fee percentage accounting for two decimal places. feePercent must account for this when being set. The following examples show feePercent amounts and how they equate to percentages: EX: a 1% fee would be set as feePercent = 100 a .5% fee would be set as feePercent = 50 a 50% fee would be set as feePercent = 5000*",
        "params": {
          "_payedAmount": "is a uint representing the full amount of an ERC20 asset payed"
        }
      },
      "calculateLoanInterest(uint256,uint256)": {
        "params": {
          "_assetBalance": "The amount of asset held by the Money Market Contract",
          "_loanBal": "The total value of all asset loans for this money market*"
        }
      },
      "constructor": {
        "details": "this function uses ABI encoding to properly concatenate AHR- && ALR- in front of the tokens name and symbol before creating each token.*",
        "params": {
          "_assetContractAdd": "is the address of the ERC20 asset being whitelisted",
          "_assetName": "is the name of the asset(e.x: ChainLink)",
          "_assetSymbol": "is the symbol of the asset(e.x: LINK)",
          "_owner": "is the address that will own this contract(The AskoDAO)"
        }
      },
      "lendToAHRpool(uint256)": {
        "details": "the user will need to first approve the transfer of the underlying asset*",
        "params": {
          "_amount": "is the amount of the asset being lent"
        }
      },
      "lendToALRpool(uint256)": {
        "details": "the user will need to first approve the transfer of the underlying asset*",
        "params": {
          "_amount": "is the amount of the asset being lent"
        }
      },
      "owner()": {
        "details": "Returns the address of the current owner."
      },
      "redeemAHR(uint256)": {
        "params": {
          "_amount": "is the amount of AHR being redeemed*"
        }
      },
      "redeemALR(uint256)": {
        "params": {
          "_amount": "is the amount of ALR being redeemed*"
        }
      },
      "renounceOwnership()": {
        "details": "Leaves the contract without owner. It will not be possible to call `onlyOwner` functions anymore. Can only be called by the current owner.     * NOTE: Renouncing ownership will leave the contract without an owner, thereby removing any functionality that is only available to the owner."
      },
      "repay()": {
        "details": "this function calls the _repay function on the MoneyMarketFactory contract to ensure that a users global staked amounts remain accurate and to trigger the minting of of the users collateralized ALR token back to them.*"
      },
      "setFeeAHR(uint256)": {
        "details": "the divisor is set to 10,000 in the constructor for this contract. this allows for a fee percentage accounting for two decimal places. feePercent must account for this when being set. The following examples show feePercent amounts and how they equate to percentages: EX: a 1% fee would be set as feePercent = 100 a .5% fee would be set as feePercent = 50 a 50% fee would be set as feePercent = 5000*",
        "params": {
          "_fee": "is the input number representing the fee"
        }
      },
      "setFeeALR(uint256)": {
        "details": "the divisor is set to 10,000 in the constructor for this contract. this allows for a fee percentage accounting for two decimal places. feePercent must account for this when being set. The following examples show feePercent amounts and how they equate to percentages: EX: a 1% fee would be set as feePercent = 100 a .5% fee would be set as feePercent = 50 a 50% fee would be set as feePercent = 5000*",
        "params": {
          "_fee": "is the input number representing the fee"
        }
      },
      "transferOwnership(address)": {
        "details": "Transfers ownership of the contract to a new account (`newOwner`). Can only be called by the current owner."
      }
    }
  },
  "userdoc": {
    "methods": {
      "_setUpAHR(address,uint256)": {
        "notice": "setUp is called by the MoneyMarketFactory after a contract is created to set up the initial variables. This is split from the constructor function to keep from reaching the gas block limit"
      },
      "_setUpALR(address,uint256)": {
        "notice": "setUp is called by the MoneyMarketFactory after a contract is created to set up the initial variables. This is split from the constructor function to keep from reaching the gas block limit"
      },
      "borrow(uint256)": {
        "notice": "borrow is used to take out a loan from in MoneyMarketInstance's underlying asset"
      },
      "calculateAHRexchangeRate(uint256,uint256)": {
        "notice": "calculateAHRInterest is used to calculate the earned interest for the High Risk pool"
      },
      "calculateALRexchangeRate(uint256,uint256)": {
        "notice": "calculateALRInterest is used to calculate the earned interest for the Low Risk pool"
      },
      "calculateFee(uint256)": {
        "notice": "calculateFee is used to calculate the fee earned"
      },
      "calculateLoanInterest(uint256,uint256)": {
        "notice": "calculateLoanInterest is used to calculate the interest for a loan"
      },
      "constructor": "the constructor function is fired during the contract deployment process. The constructor can only be fired once and is used to initialize the MoneyMakerInstance and deploy its associated AHR && ALR token contracts",
      "factoryBurn(address,uint256)": {
        "notice": "*"
      },
      "factoryMint(address,uint256)": {
        "notice": "*"
      },
      "getALRadd()": {
        "notice": "*"
      },
      "lendToAHRpool(uint256)": {
        "notice": "lendToAHRpool is used to lend assets to a MoneyMarketInstance's High Risk pool"
      },
      "lendToALRpool(uint256)": {
        "notice": "lendToAHRpool is used to lend assets to a MoneyMarketInstance's Low Risk pool"
      },
      "redeemAHR(uint256)": {
        "notice": "redeemAHR is used to redeem AHR toke for its underlying asset + interest"
      },
      "redeemALR(uint256)": {
        "notice": "redeemALR is used to redeem ALR toke for its underlying asset + interest"
      },
      "repay()": {
        "notice": "repay is used to repay a loan"
      },
      "setFeeAHR(uint256)": {
        "notice": "setFee allows the owner of this contract to set the fee"
      },
      "setFeeALR(uint256)": {
        "notice": "setFee allows the owner of this contract to set the fee"
      }
    },
    "notice": "The MoneyMarketInstance contract is designed facilitate a tiered money market for an individual ERC20 asset This contract uses the OpenZeppelin contract Library to inherit functions from Ownable.sol && IRC20.sol*"
  }
}