{
  "contractName": "MoneyMarketFactory",
  "abi": [
    {
      "inputs": [
        {
          "internalType": "address",
          "name": "_usdc",
          "type": "address"
        },
        {
          "internalType": "address",
          "name": "_factoryU",
          "type": "address"
        },
        {
          "internalType": "address",
          "name": "_oracle",
          "type": "address"
        }
      ],
      "stateMutability": "nonpayable",
      "type": "constructor"
    },
    {
      "anonymous": false,
      "inputs": [
        {
          "indexed": true,
          "internalType": "address",
          "name": "previousOwner",
          "type": "address"
        },
        {
          "indexed": true,
          "internalType": "address",
          "name": "newOwner",
          "type": "address"
        }
      ],
      "name": "OwnershipTransferred",
      "type": "event"
    },
    {
      "inputs": [],
      "name": "Oracle",
      "outputs": [
        {
          "internalType": "contract UniswapOracleFactoryI",
          "name": "",
          "type": "address"
        }
      ],
      "stateMutability": "view",
      "type": "function"
    },
    {
      "inputs": [
        {
          "internalType": "address",
          "name": "",
          "type": "address"
        }
      ],
      "name": "_ALRtracker",
      "outputs": [
        {
          "internalType": "address",
          "name": "",
          "type": "address"
        }
      ],
      "stateMutability": "view",
      "type": "function"
    },
    {
      "inputs": [
        {
          "internalType": "address",
          "name": "",
          "type": "address"
        },
        {
          "internalType": "address",
          "name": "",
          "type": "address"
        }
      ],
      "name": "collateralized",
      "outputs": [
        {
          "internalType": "uint256",
          "name": "",
          "type": "uint256"
        }
      ],
      "stateMutability": "view",
      "type": "function"
    },
    {
      "inputs": [],
      "name": "factoryU",
      "outputs": [
        {
          "internalType": "address",
          "name": "",
          "type": "address"
        }
      ],
      "stateMutability": "view",
      "type": "function"
    },
    {
      "inputs": [],
      "name": "instanceCount",
      "outputs": [
        {
          "internalType": "uint256",
          "name": "",
          "type": "uint256"
        }
      ],
      "stateMutability": "view",
      "type": "function"
    },
    {
      "inputs": [
        {
          "internalType": "address",
          "name": "",
          "type": "address"
        }
      ],
      "name": "instanceTracker",
      "outputs": [
        {
          "internalType": "address",
          "name": "",
          "type": "address"
        }
      ],
      "stateMutability": "view",
      "type": "function"
    },
    {
      "inputs": [
        {
          "internalType": "address",
          "name": "",
          "type": "address"
        }
      ],
      "name": "oracleTracker",
      "outputs": [
        {
          "internalType": "address",
          "name": "",
          "type": "address"
        }
      ],
      "stateMutability": "view",
      "type": "function"
    },
    {
      "inputs": [],
      "name": "owner",
      "outputs": [
        {
          "internalType": "address",
          "name": "",
          "type": "address"
        }
      ],
      "stateMutability": "view",
      "type": "function"
    },
    {
      "inputs": [],
      "name": "renounceOwnership",
      "outputs": [],
      "stateMutability": "nonpayable",
      "type": "function"
    },
    {
      "inputs": [
        {
          "internalType": "address",
          "name": "",
          "type": "address"
        },
        {
          "internalType": "uint256",
          "name": "",
          "type": "uint256"
        }
      ],
      "name": "stakedALRs",
      "outputs": [
        {
          "internalType": "address",
          "name": "",
          "type": "address"
        }
      ],
      "stateMutability": "view",
      "type": "function"
    },
    {
      "inputs": [
        {
          "internalType": "address",
          "name": "newOwner",
          "type": "address"
        }
      ],
      "name": "transferOwnership",
      "outputs": [],
      "stateMutability": "nonpayable",
      "type": "function"
    },
    {
      "inputs": [],
      "name": "usdc",
      "outputs": [
        {
          "internalType": "address",
          "name": "",
          "type": "address"
        }
      ],
      "stateMutability": "view",
      "type": "function"
    },
    {
      "inputs": [
        {
          "internalType": "address",
          "name": "_assetContractAdd",
          "type": "address"
        },
        {
          "internalType": "string",
          "name": "_assetName",
          "type": "string"
        },
        {
          "internalType": "string",
          "name": "_assetSymbol",
          "type": "string"
        }
      ],
      "name": "whitelistAsset",
      "outputs": [],
      "stateMutability": "nonpayable",
      "type": "function"
    },
    {
      "inputs": [
        {
          "internalType": "uint256",
          "name": "_collateralizationRatio",
          "type": "uint256"
        },
        {
          "internalType": "uint256",
          "name": "_baseRatePerYear",
          "type": "uint256"
        },
        {
          "internalType": "uint256",
          "name": "_multiplierPerYear",
          "type": "uint256"
        },
        {
          "internalType": "uint256",
          "name": "_jumpMultiplierPerYear",
          "type": "uint256"
        },
        {
          "internalType": "uint256",
          "name": "_optimal",
          "type": "uint256"
        },
        {
          "internalType": "uint256",
          "name": "_fee",
          "type": "uint256"
        },
        {
          "internalType": "address",
          "name": "_owner",
          "type": "address"
        },
        {
          "internalType": "address",
          "name": "_assetContractAdd",
          "type": "address"
        }
      ],
      "name": "setUpMoneyMarket",
      "outputs": [],
      "stateMutability": "nonpayable",
      "type": "function"
    },
    {
      "inputs": [
        {
          "internalType": "address",
          "name": "_MMinstance",
          "type": "address"
        },
        {
          "internalType": "uint256",
          "name": "_amount",
          "type": "uint256"
        }
      ],
      "name": "stakeALR",
      "outputs": [],
      "stateMutability": "nonpayable",
      "type": "function"
    },
    {
      "inputs": [
        {
          "internalType": "address",
          "name": "_usersAdd",
          "type": "address"
        }
      ],
      "name": "getTotalStakeValue",
      "outputs": [
        {
          "internalType": "uint256",
          "name": "",
          "type": "uint256"
        }
      ],
      "stateMutability": "view",
      "type": "function"
    },
    {
      "inputs": [
        {
          "internalType": "address",
          "name": "_MMinstance",
          "type": "address"
        },
        {
          "internalType": "uint256",
          "name": "_amount",
          "type": "uint256"
        }
      ],
      "name": "addCollateral",
      "outputs": [],
      "stateMutability": "nonpayable",
      "type": "function"
    },
    {
      "inputs": [
        {
          "internalType": "address",
          "name": "_MMinstance",
          "type": "address"
        },
        {
          "internalType": "address",
          "name": "_userAdd",
          "type": "address"
        }
      ],
      "name": "_repay",
      "outputs": [],
      "stateMutability": "nonpayable",
      "type": "function"
    }
  ],
  "bytecode": "0x608060405234801561001057600080fd5b506040516200b4ba3803806200b4ba8339818101604052606081101561003557600080fd5b81019080805190602001909291908051906020019092919080519060200190929190505050600061006a6101d360201b60201c565b9050806000806101000a81548173ffffffffffffffffffffffffffffffffffffffff021916908373ffffffffffffffffffffffffffffffffffffffff1602179055508073ffffffffffffffffffffffffffffffffffffffff16600073ffffffffffffffffffffffffffffffffffffffff167f8be0079c531659141344cd1fd0a4f28419497f9722a3daafe3b4186f6b6457e060405160405180910390a35082600260006101000a81548173ffffffffffffffffffffffffffffffffffffffff021916908373ffffffffffffffffffffffffffffffffffffffff16021790555081600360006101000a81548173ffffffffffffffffffffffffffffffffffffffff021916908373ffffffffffffffffffffffffffffffffffffffff16021790555080600460006101000a81548173ffffffffffffffffffffffffffffffffffffffff021916908373ffffffffffffffffffffffffffffffffffffffff1602179055505050506101db565b600033905090565b61b2cf80620001eb6000396000f3fe60806040523480156200001157600080fd5b5060043610620001305760003560e01c806374d840c111620000b1578063eb8341b3116200007b578063eb8341b3146200071e578063ec56c71614620007a5578063f24a534e14620007c5578063f2fde38b1462000811578063fef1f41214620008585762000130565b806374d840c114620005755780637fb7978f14620005f05780638da5cb5b1462000681578063a4e642f214620006cd5762000130565b80633ca0037b11620000ff5780633ca0037b14620003f95780633e413bee146200048057806351e2279b14620004cc5780636d75b9ee1462000518578063715018a614620005695762000130565b80630ba7345d146200013557806328736f6614620002b05780633373a447146200031757806335862cc7146200039e575b600080fd5b620002ae600480360360608110156200014d57600080fd5b81019080803573ffffffffffffffffffffffffffffffffffffffff169060200190929190803590602001906401000000008111156200018b57600080fd5b8201836020820111156200019e57600080fd5b80359060200191846001830284011164010000000083111715620001c157600080fd5b91908080601f016020809104026020016040519081016040528093929190818152602001838380828437600081840152601f19601f820116905080830192505050505050509192919290803590602001906401000000008111156200022557600080fd5b8201836020820111156200023857600080fd5b803590602001918460018302840111640100000000831117156200025b57600080fd5b91908080601f016020809104026020016040519081016040528093929190818152602001838380828437600081840152601f19601f820116905080830192505050505050509192919290505050620008fc565b005b6200031560048036036040811015620002c857600080fd5b81019080803573ffffffffffffffffffffffffffffffffffffffff169060200190929190803573ffffffffffffffffffffffffffffffffffffffff16906020019092919050505062000e1b565b005b6200035c600480360360208110156200032f57600080fd5b81019080803573ffffffffffffffffffffffffffffffffffffffff16906020019092919050505062000fca565b604051808273ffffffffffffffffffffffffffffffffffffffff1673ffffffffffffffffffffffffffffffffffffffff16815260200191505060405180910390f35b620003e360048036036020811015620003b657600080fd5b81019080803573ffffffffffffffffffffffffffffffffffffffff16906020019092919050505062000ffd565b6040518082815260200191505060405180910390f35b6200043e600480360360208110156200041157600080fd5b81019080803573ffffffffffffffffffffffffffffffffffffffff16906020019092919050505062001275565b604051808273ffffffffffffffffffffffffffffffffffffffff1673ffffffffffffffffffffffffffffffffffffffff16815260200191505060405180910390f35b6200048a620012a8565b604051808273ffffffffffffffffffffffffffffffffffffffff1673ffffffffffffffffffffffffffffffffffffffff16815260200191505060405180910390f35b620004d6620012ce565b604051808273ffffffffffffffffffffffffffffffffffffffff1673ffffffffffffffffffffffffffffffffffffffff16815260200191505060405180910390f35b62000567600480360360408110156200053057600080fd5b81019080803573ffffffffffffffffffffffffffffffffffffffff16906020019092919080359060200190929190505050620012f4565b005b620005736200164e565b005b620005da600480360360408110156200058d57600080fd5b81019080803573ffffffffffffffffffffffffffffffffffffffff169060200190929190803573ffffffffffffffffffffffffffffffffffffffff169060200190929190505050620017d9565b6040518082815260200191505060405180910390f35b6200063f600480360360408110156200060857600080fd5b81019080803573ffffffffffffffffffffffffffffffffffffffff16906020019092919080359060200190929190505050620017fe565b604051808273ffffffffffffffffffffffffffffffffffffffff1673ffffffffffffffffffffffffffffffffffffffff16815260200191505060405180910390f35b6200068b6200184a565b604051808273ffffffffffffffffffffffffffffffffffffffff1673ffffffffffffffffffffffffffffffffffffffff16815260200191505060405180910390f35b6200071c60048036036040811015620006e557600080fd5b81019080803573ffffffffffffffffffffffffffffffffffffffff1690602001909291908035906020019092919050505062001873565b005b62000763600480360360208110156200073657600080fd5b81019080803573ffffffffffffffffffffffffffffffffffffffff16906020019092919050505062001bdd565b604051808273ffffffffffffffffffffffffffffffffffffffff1673ffffffffffffffffffffffffffffffffffffffff16815260200191505060405180910390f35b620007af62001c10565b6040518082815260200191505060405180910390f35b620007cf62001c16565b604051808273ffffffffffffffffffffffffffffffffffffffff1673ffffffffffffffffffffffffffffffffffffffff16815260200191505060405180910390f35b62000856600480360360208110156200082957600080fd5b81019080803573ffffffffffffffffffffffffffffffffffffffff16906020019092919050505062001c3c565b005b620008fa60048036036101008110156200087157600080fd5b81019080803590602001909291908035906020019092919080359060200190929190803590602001909291908035906020019092919080359060200190929190803573ffffffffffffffffffffffffffffffffffffffff169060200190929190803573ffffffffffffffffffffffffffffffffffffffff16906020019092919050505062001e4e565b005b620009066200200e565b73ffffffffffffffffffffffffffffffffffffffff166000809054906101000a900473ffffffffffffffffffffffffffffffffffffffff1673ffffffffffffffffffffffffffffffffffffffff1614620009c8576040517f08c379a00000000000000000000000000000000000000000000000000000000081526004018080602001828103825260208152602001807f4f776e61626c653a2063616c6c6572206973206e6f7420746865206f776e657281525060200191505060405180910390fd5b6001600081548092919060010191905055506000600460009054906101000a900473ffffffffffffffffffffffffffffffffffffffff1673ffffffffffffffffffffffffffffffffffffffff1663a685cd1b600360009054906101000a900473ffffffffffffffffffffffffffffffffffffffff1686600260009054906101000a900473ffffffffffffffffffffffffffffffffffffffff166040518463ffffffff1660e01b8152600401808473ffffffffffffffffffffffffffffffffffffffff1673ffffffffffffffffffffffffffffffffffffffff1681526020018373ffffffffffffffffffffffffffffffffffffffff1673ffffffffffffffffffffffffffffffffffffffff1681526020018273ffffffffffffffffffffffffffffffffffffffff1673ffffffffffffffffffffffffffffffffffffffff1681526020019350505050602060405180830381600087803b15801562000b2a57600080fd5b505af115801562000b3f573d6000803e3d6000fd5b505050506040513d602081101562000b5657600080fd5b810190808051906020019092919050505090506000843383868660405162000b7e906200209f565b808673ffffffffffffffffffffffffffffffffffffffff1673ffffffffffffffffffffffffffffffffffffffff1681526020018573ffffffffffffffffffffffffffffffffffffffff1673ffffffffffffffffffffffffffffffffffffffff1681526020018473ffffffffffffffffffffffffffffffffffffffff1673ffffffffffffffffffffffffffffffffffffffff1681526020018060200180602001838103835285818151815260200191508051906020019080838360005b8381101562000c5757808201518184015260208101905062000c3a565b50505050905090810190601f16801562000c855780820380516001836020036101000a031916815260200191505b50838103825284818151815260200191508051906020019080838360005b8381101562000cc057808201518184015260208101905062000ca3565b50505050905090810190601f16801562000cee5780820380516001836020036101000a031916815260200191505b50975050505050505050604051809103906000f08015801562000d15573d6000803e3d6000fd5b50905080600560008773ffffffffffffffffffffffffffffffffffffffff1673ffffffffffffffffffffffffffffffffffffffff16815260200190815260200160002060006101000a81548173ffffffffffffffffffffffffffffffffffffffff021916908373ffffffffffffffffffffffffffffffffffffffff16021790555081600760008373ffffffffffffffffffffffffffffffffffffffff1673ffffffffffffffffffffffffffffffffffffffff16815260200190815260200160002060006101000a81548173ffffffffffffffffffffffffffffffffffffffff021916908373ffffffffffffffffffffffffffffffffffffffff1602179055505050505050565b60008290506000600860008473ffffffffffffffffffffffffffffffffffffffff1673ffffffffffffffffffffffffffffffffffffffff16815260200190815260200160002060008573ffffffffffffffffffffffffffffffffffffffff1673ffffffffffffffffffffffffffffffffffffffff1681526020019081526020016000205490508173ffffffffffffffffffffffffffffffffffffffff1663a4f0ecd333836040518363ffffffff1660e01b8152600401808373ffffffffffffffffffffffffffffffffffffffff1673ffffffffffffffffffffffffffffffffffffffff16815260200182815260200192505050600060405180830381600087803b15801562000f2957600080fd5b505af115801562000f3e573d6000803e3d6000fd5b505050506000600860008573ffffffffffffffffffffffffffffffffffffffff1673ffffffffffffffffffffffffffffffffffffffff16815260200190815260200160002060008673ffffffffffffffffffffffffffffffffffffffff1673ffffffffffffffffffffffffffffffffffffffff1681526020019081526020016000208190555050505050565b60056020528060005260406000206000915054906101000a900473ffffffffffffffffffffffffffffffffffffffff1681565b60008060008090505b600960008573ffffffffffffffffffffffffffffffffffffffff1673ffffffffffffffffffffffffffffffffffffffff168152602001908152602001600020805490508110156200126b576000600960008673ffffffffffffffffffffffffffffffffffffffff1673ffffffffffffffffffffffffffffffffffffffff16815260200190815260200160002082815481106200109e57fe5b9060005260206000200160009054906101000a900473ffffffffffffffffffffffffffffffffffffffff1690506000600860008773ffffffffffffffffffffffffffffffffffffffff1673ffffffffffffffffffffffffffffffffffffffff16815260200190815260200160002060008373ffffffffffffffffffffffffffffffffffffffff1673ffffffffffffffffffffffffffffffffffffffff1681526020019081526020016000205490506000600760008473ffffffffffffffffffffffffffffffffffffffff1673ffffffffffffffffffffffffffffffffffffffff16815260200190815260200160002060009054906101000a900473ffffffffffffffffffffffffffffffffffffffff16905060008173ffffffffffffffffffffffffffffffffffffffff166361e25d83846040518263ffffffff1660e01b81526004018082815260200191505060206040518083038186803b1580156200120457600080fd5b505afa15801562001219573d6000803e3d6000fd5b505050506040513d60208110156200123057600080fd5b810190808051906020019092919050505090506200125881876200201690919063ffffffff16565b5050505050808060010191505062001006565b5080915050919050565b60066020528060005260406000206000915054906101000a900473ffffffffffffffffffffffffffffffffffffffff1681565b600260009054906101000a900473ffffffffffffffffffffffffffffffffffffffff1681565b600360009054906101000a900473ffffffffffffffffffffffffffffffffffffffff1681565b600082905060008173ffffffffffffffffffffffffffffffffffffffff166361e03cd26040518163ffffffff1660e01b815260040160206040518083038186803b1580156200134257600080fd5b505afa15801562001357573d6000803e3d6000fd5b505050506040513d60208110156200136e57600080fd5b81019080805190602001909291905050509050828173ffffffffffffffffffffffffffffffffffffffff166370a08231336040518263ffffffff1660e01b8152600401808273ffffffffffffffffffffffffffffffffffffffff1673ffffffffffffffffffffffffffffffffffffffff16815260200191505060206040518083038186803b1580156200140057600080fd5b505afa15801562001415573d6000803e3d6000fd5b505050506040513d60208110156200142c57600080fd5b8101908080519060200190929190505050101562001496576040517f08c379a00000000000000000000000000000000000000000000000000000000081526004018080602001828103825260278152602001806200b2736027913960400191505060405180910390fd5b8173ffffffffffffffffffffffffffffffffffffffff16636819cd1933856040518363ffffffff1660e01b8152600401808373ffffffffffffffffffffffffffffffffffffffff1673ffffffffffffffffffffffffffffffffffffffff16815260200182815260200192505050600060405180830381600087803b1580156200151e57600080fd5b505af115801562001533573d6000803e3d6000fd5b50505050620015c883600860003373ffffffffffffffffffffffffffffffffffffffff1673ffffffffffffffffffffffffffffffffffffffff16815260200190815260200160002060008773ffffffffffffffffffffffffffffffffffffffff1673ffffffffffffffffffffffffffffffffffffffff168152602001908152602001600020546200201690919063ffffffff16565b600860003373ffffffffffffffffffffffffffffffffffffffff1673ffffffffffffffffffffffffffffffffffffffff16815260200190815260200160002060008673ffffffffffffffffffffffffffffffffffffffff1673ffffffffffffffffffffffffffffffffffffffff1681526020019081526020016000208190555050505050565b620016586200200e565b73ffffffffffffffffffffffffffffffffffffffff166000809054906101000a900473ffffffffffffffffffffffffffffffffffffffff1673ffffffffffffffffffffffffffffffffffffffff16146200171a576040517f08c379a00000000000000000000000000000000000000000000000000000000081526004018080602001828103825260208152602001807f4f776e61626c653a2063616c6c6572206973206e6f7420746865206f776e657281525060200191505060405180910390fd5b600073ffffffffffffffffffffffffffffffffffffffff166000809054906101000a900473ffffffffffffffffffffffffffffffffffffffff1673ffffffffffffffffffffffffffffffffffffffff167f8be0079c531659141344cd1fd0a4f28419497f9722a3daafe3b4186f6b6457e060405160405180910390a360008060006101000a81548173ffffffffffffffffffffffffffffffffffffffff021916908373ffffffffffffffffffffffffffffffffffffffff160217905550565b6008602052816000526040600020602052806000526040600020600091509150505481565b600960205281600052604060002081815481106200181857fe5b906000526020600020016000915091509054906101000a900473ffffffffffffffffffffffffffffffffffffffff1681565b60008060009054906101000a900473ffffffffffffffffffffffffffffffffffffffff16905090565b600082905060008173ffffffffffffffffffffffffffffffffffffffff166361e03cd26040518163ffffffff1660e01b815260040160206040518083038186803b158015620018c157600080fd5b505afa158015620018d6573d6000803e3d6000fd5b505050506040513d6020811015620018ed57600080fd5b81019080805190602001909291905050509050828173ffffffffffffffffffffffffffffffffffffffff166370a08231336040518263ffffffff1660e01b8152600401808273ffffffffffffffffffffffffffffffffffffffff1673ffffffffffffffffffffffffffffffffffffffff16815260200191505060206040518083038186803b1580156200197f57600080fd5b505afa15801562001994573d6000803e3d6000fd5b505050506040513d6020811015620019ab57600080fd5b8101908080519060200190929190505050101562001a15576040517f08c379a00000000000000000000000000000000000000000000000000000000081526004018080602001828103825260278152602001806200b2736027913960400191505060405180910390fd5b8173ffffffffffffffffffffffffffffffffffffffff16636819cd1933856040518363ffffffff1660e01b8152600401808373ffffffffffffffffffffffffffffffffffffffff1673ffffffffffffffffffffffffffffffffffffffff16815260200182815260200192505050600060405180830381600087803b15801562001a9d57600080fd5b505af115801562001ab2573d6000803e3d6000fd5b5050505082600860003373ffffffffffffffffffffffffffffffffffffffff1673ffffffffffffffffffffffffffffffffffffffff16815260200190815260200160002060008673ffffffffffffffffffffffffffffffffffffffff1673ffffffffffffffffffffffffffffffffffffffff16815260200190815260200160002081905550600960003373ffffffffffffffffffffffffffffffffffffffff1673ffffffffffffffffffffffffffffffffffffffff168152602001908152602001600020849080600181540180825580915050600190039060005260206000200160009091909190916101000a81548173ffffffffffffffffffffffffffffffffffffffff021916908373ffffffffffffffffffffffffffffffffffffffff16021790555050505050565b60076020528060005260406000206000915054906101000a900473ffffffffffffffffffffffffffffffffffffffff1681565b60015481565b600460009054906101000a900473ffffffffffffffffffffffffffffffffffffffff1681565b62001c466200200e565b73ffffffffffffffffffffffffffffffffffffffff166000809054906101000a900473ffffffffffffffffffffffffffffffffffffffff1673ffffffffffffffffffffffffffffffffffffffff161462001d08576040517f08c379a00000000000000000000000000000000000000000000000000000000081526004018080602001828103825260208152602001807f4f776e61626c653a2063616c6c6572206973206e6f7420746865206f776e657281525060200191505060405180910390fd5b600073ffffffffffffffffffffffffffffffffffffffff168173ffffffffffffffffffffffffffffffffffffffff16141562001d90576040517f08c379a00000000000000000000000000000000000000000000000000000000081526004018080602001828103825260268152602001806200b24d6026913960400191505060405180910390fd5b8073ffffffffffffffffffffffffffffffffffffffff166000809054906101000a900473ffffffffffffffffffffffffffffffffffffffff1673ffffffffffffffffffffffffffffffffffffffff167f8be0079c531659141344cd1fd0a4f28419497f9722a3daafe3b4186f6b6457e060405160405180910390a3806000806101000a81548173ffffffffffffffffffffffffffffffffffffffff021916908373ffffffffffffffffffffffffffffffffffffffff16021790555050565b6000600560008373ffffffffffffffffffffffffffffffffffffffff1673ffffffffffffffffffffffffffffffffffffffff16815260200190815260200160002060009054906101000a900473ffffffffffffffffffffffffffffffffffffffff1690506000888888888760405162001ec790620020ad565b808681526020018581526020018481526020018381526020018273ffffffffffffffffffffffffffffffffffffffff1673ffffffffffffffffffffffffffffffffffffffff16815260200195505050505050604051809103906000f08015801562001f36573d6000803e3d6000fd5b5090508173ffffffffffffffffffffffffffffffffffffffff16638f19a0a28b8b8b8b8b8b886040518863ffffffff1660e01b8152600401808881526020018781526020018681526020018581526020018481526020018381526020018273ffffffffffffffffffffffffffffffffffffffff1673ffffffffffffffffffffffffffffffffffffffff168152602001975050505050505050600060405180830381600087803b15801562001fe957600080fd5b505af115801562001ffe573d6000803e3d6000fd5b5050505050505050505050505050565b600033905090565b60008082840190508381101562002095576040517f08c379a000000000000000000000000000000000000000000000000000000000815260040180806020018281038252601b8152602001807f536166654d6174683a206164646974696f6e206f766572666c6f77000000000081525060200191505060405180910390fd5b8091505092915050565b61832b80620020bc83390190565b610e66806200a3e78339019056fe60806040523480156200001157600080fd5b506040516200832b3803806200832b833981810160405260a08110156200003757600080fd5b81019080805190602001909291908051906020019092919080519060200190929190805160405193929190846401000000008211156200007657600080fd5b838201915060208201858111156200008d57600080fd5b8251866001820283011164010000000082111715620000ab57600080fd5b8083526020830192505050908051906020019080838360005b83811015620000e1578082015181840152602081019050620000c4565b50505050905090810190601f1680156200010f5780820380516001836020036101000a031916815260200191505b50604052602001805160405193929190846401000000008211156200013357600080fd5b838201915060208201858111156200014a57600080fd5b82518660018202830111640100000000821117156200016857600080fd5b8083526020830192505050908051906020019080838360005b838110156200019e57808201518184015260208101905062000181565b50505050905090810190601f168015620001cc5780820380516001836020036101000a031916815260200191505b506040525050506000620001e562000a4f60201b60201c565b9050806000806101000a81548173ffffffffffffffffffffffffffffffffffffffff021916908373ffffffffffffffffffffffffffffffffffffffff1602179055508073ffffffffffffffffffffffffffffffffffffffff16600073ffffffffffffffffffffffffffffffffffffffff167f8be0079c531659141344cd1fd0a4f28419497f9722a3daafe3b4186f6b6457e060405160405180910390a35084600e60006101000a81548173ffffffffffffffffffffffffffffffffffffffff021916908373ffffffffffffffffffffffffffffffffffffffff160217905550606060405160200180807f4148522d000000000000000000000000000000000000000000000000000000008152506004019050604051602081830303815290604052905080836040516020018083805190602001908083835b602083106200034257805182526020820191506020810190506020830392506200031d565b6001836020036101000a03801982511681845116808217855250505050505090500182805190602001908083835b6020831062000395578051825260208201915060208101905060208303925062000370565b6001836020036101000a038019825116818451168082178552505050505050905001925050506040516020818303038152906040529050606060405160200180807f4148522d000000000000000000000000000000000000000000000000000000008152506004019050604051602081830303815290604052905080836040516020018083805190602001908083835b602083106200044a578051825260208201915060208101905060208303925062000425565b6001836020036101000a03801982511681845116808217855250505050505090500182805190602001908083835b602083106200049d578051825260208201915060208101905060208303925062000478565b6001836020036101000a038019825116818451168082178552505050505050905001925050506040516020818303038152906040529050606082905060608290508181604051620004ee9062000c6f565b808060200180602001838103835285818151815260200191508051906020019080838360005b838110156200053157808201518184015260208101905062000514565b50505050905090810190601f1680156200055f5780820380516001836020036101000a031916815260200191505b50838103825284818151815260200191508051906020019080838360005b838110156200059a5780820151818401526020810190506200057d565b50505050905090810190601f168015620005c85780820380516001836020036101000a031916815260200191505b50945050505050604051809103906000f080158015620005ec573d6000803e3d6000fd5b50600f60006101000a81548173ffffffffffffffffffffffffffffffffffffffff021916908373ffffffffffffffffffffffffffffffffffffffff160217905550606060405160200180807f416c522d000000000000000000000000000000000000000000000000000000008152506004019050604051602081830303815290604052905084876040516020018083805190602001908083835b60208310620006ab578051825260208201915060208101905060208303925062000686565b6001836020036101000a03801982511681845116808217855250505050505090500182805190602001908083835b60208310620006fe5780518252602082019150602081019050602083039250620006d9565b6001836020036101000a038019825116818451168082178552505050505050905001925050506040516020818303038152906040529050606060405160200180807f416c522d000000000000000000000000000000000000000000000000000000008152506004019050604051602081830303815290604052905084876040516020018083805190602001908083835b60208310620007b357805182526020820191506020810190506020830392506200078e565b6001836020036101000a03801982511681845116808217855250505050505090500182805190602001908083835b60208310620008065780518252602082019150602081019050602083039250620007e1565b6001836020036101000a038019825116818451168082178552505050505050905001925050506040516020818303038152906040529050606082905060608290508181604051620008579062000c7d565b808060200180602001838103835285818151815260200191508051906020019080838360005b838110156200089a5780820151818401526020810190506200087d565b50505050905090810190601f168015620008c85780820380516001836020036101000a031916815260200191505b50838103825284818151815260200191508051906020019080838360005b8381101562000903578082015181840152602081019050620008e6565b50505050905090810190601f168015620009315780820380516001836020036101000a031916815260200191505b50945050505050604051809103906000f08015801562000955573d6000803e3d6000fd5b50601060006101000a81548173ffffffffffffffffffffffffffffffffffffffff021916908373ffffffffffffffffffffffffffffffffffffffff160217905550612710600881905550622014806001819055508a601160006101000a81548173ffffffffffffffffffffffffffffffffffffffff021916908373ffffffffffffffffffffffffffffffffffffffff16021790555033601260006101000a81548173ffffffffffffffffffffffffffffffffffffffff021916908373ffffffffffffffffffffffffffffffffffffffff16021790555062000a3c8c62000a5760201b60201c565b5050505050505050505050505062000c8b565b600033905090565b62000a6762000a4f60201b60201c565b73ffffffffffffffffffffffffffffffffffffffff166000809054906101000a900473ffffffffffffffffffffffffffffffffffffffff1673ffffffffffffffffffffffffffffffffffffffff161462000b29576040517f08c379a00000000000000000000000000000000000000000000000000000000081526004018080602001828103825260208152602001807f4f776e61626c653a2063616c6c6572206973206e6f7420746865206f776e657281525060200191505060405180910390fd5b600073ffffffffffffffffffffffffffffffffffffffff168173ffffffffffffffffffffffffffffffffffffffff16141562000bb1576040517f08c379a0000000000000000000000000000000000000000000000000000000008152600401808060200182810382526026815260200180620083056026913960400191505060405180910390fd5b8073ffffffffffffffffffffffffffffffffffffffff166000809054906101000a900473ffffffffffffffffffffffffffffffffffffffff1673ffffffffffffffffffffffffffffffffffffffff167f8be0079c531659141344cd1fd0a4f28419497f9722a3daafe3b4186f6b6457e060405160405180910390a3806000806101000a81548173ffffffffffffffffffffffffffffffffffffffff021916908373ffffffffffffffffffffffffffffffffffffffff16021790555050565b612071806200422383390190565b612071806200629483390190565b6135888062000c9b6000396000f3fe608060405234801561001057600080fd5b50600436106102955760003560e01c80637964dde111610167578063b772cc77116100ce578063dcaf9c4411610087578063dcaf9c4414610ba4578063e5829d2014610bc2578063ef462fd014610bf0578063f2fde38b14610c3c578063f3b3160e14610c80578063fab26ec114610c9e57610295565b8063b772cc7714610a68578063c27d4df314610a96578063c3bdaf5b14610ae0578063c5ebeaec14610afe578063cf0aea8514610b2c578063d162054a14610b5a57610295565b80639241cef2116101205780639241cef21461093457806399a5d7471461097e5780639b1edb43146109c0578063a196b369146109de578063a385fb96146109fc578063a4f0ecd314610a1a57610295565b80637964dde1146107a65780637b556e26146107d45780637dc0d1d0146108025780637fd6f15c1461084c5780638da5cb5b1461086a5780638f19a0a2146108b457610295565b8063456011b41161020b57806361e03cd2116101c457806361e03cd2146106325780636819cd191461067c57806369fe0e2d146106ca578063715018a6146106f85780637359095b14610702578063791b8d791461075a57610295565b8063456011b4146104925780634d24044c146104ea5780635103274214610508578063520009df1461056057806356aa21ab1461058e5780635d4991b1146105da57610295565b80631e75db161161025d5780631e75db161461038a5780631f2dc5ef146103d45780631f68f20a146103f257806322b2d4021461041057806338d52e0f1461043e578063402d88831461048857610295565b80630166752e1461029a5780630b1b7d43146102f257806310dc122b1461032057806313ecfe601461033e5780631d08837b1461035c575b600080fd5b6102dc600480360360208110156102b057600080fd5b81019080803573ffffffffffffffffffffffffffffffffffffffff169060200190929190505050610ce8565b6040518082815260200191505060405180910390f35b61031e6004803603602081101561030857600080fd5b8101908080359060200190929190505050610d00565b005b610328610dd3565b6040518082815260200191505060405180910390f35b610346610dd9565b6040518082815260200191505060405180910390f35b6103886004803603602081101561037257600080fd5b8101908080359060200190929190505050610ddf565b005b610392610eb2565b604051808273ffffffffffffffffffffffffffffffffffffffff1673ffffffffffffffffffffffffffffffffffffffff16815260200191505060405180910390f35b6103dc610ed8565b6040518082815260200191505060405180910390f35b6103fa610ede565b6040518082815260200191505060405180910390f35b61043c6004803603602081101561042657600080fd5b8101908080359060200190929190505050610ee4565b005b61044661105f565b604051808273ffffffffffffffffffffffffffffffffffffffff1673ffffffffffffffffffffffffffffffffffffffff16815260200191505060405180910390f35b610490611085565b005b6104d4600480360360208110156104a857600080fd5b81019080803573ffffffffffffffffffffffffffffffffffffffff169060200190929190505050611920565b6040518082815260200191505060405180910390f35b6104f2611938565b6040518082815260200191505060405180910390f35b61054a6004803603602081101561051e57600080fd5b81019080803573ffffffffffffffffffffffffffffffffffffffff16906020019092919050505061193e565b6040518082815260200191505060405180910390f35b61058c6004803603602081101561057657600080fd5b8101908080359060200190929190505050611956565b005b6105c4600480360360408110156105a457600080fd5b810190808035906020019092919080359060200190929190505050611a29565b6040518082815260200191505060405180910390f35b61061c600480360360208110156105f057600080fd5b81019080803573ffffffffffffffffffffffffffffffffffffffff169060200190929190505050611af9565b6040518082815260200191505060405180910390f35b61063a611b11565b604051808273ffffffffffffffffffffffffffffffffffffffff1673ffffffffffffffffffffffffffffffffffffffff16815260200191505060405180910390f35b6106c86004803603604081101561069257600080fd5b81019080803573ffffffffffffffffffffffffffffffffffffffff16906020019092919080359060200190929190505050611b3b565b005b6106f6600480360360208110156106e057600080fd5b8101908080359060200190929190505050611ca6565b005b610700611d79565b005b6107446004803603602081101561071857600080fd5b81019080803573ffffffffffffffffffffffffffffffffffffffff169060200190929190505050611f01565b6040518082815260200191505060405180910390f35b6107906004803603604081101561077057600080fd5b810190808035906020019092919080359060200190929190505050611f19565b6040518082815260200191505060405180910390f35b6107d2600480360360208110156107bc57600080fd5b8101908080359060200190929190505050611fe9565b005b610800600480360360208110156107ea57600080fd5b81019080803590602001909291905050506120bc565b005b61080a61228e565b604051808273ffffffffffffffffffffffffffffffffffffffff1673ffffffffffffffffffffffffffffffffffffffff16815260200191505060405180910390f35b6108546122b4565b6040518082815260200191505060405180910390f35b6108726122ba565b604051808273ffffffffffffffffffffffffffffffffffffffff1673ffffffffffffffffffffffffffffffffffffffff16815260200191505060405180910390f35b610932600480360360e08110156108ca57600080fd5b81019080803590602001909291908035906020019092919080359060200190929190803590602001909291908035906020019092919080359060200190929190803573ffffffffffffffffffffffffffffffffffffffff1690602001909291905050506122e3565b005b61093c6123fd565b604051808273ffffffffffffffffffffffffffffffffffffffff1673ffffffffffffffffffffffffffffffffffffffff16815260200191505060405180910390f35b6109aa6004803603602081101561099457600080fd5b8101908080359060200190929190505050612423565b6040518082815260200191505060405180910390f35b6109c861245a565b6040518082815260200191505060405180910390f35b6109e6612460565b6040518082815260200191505060405180910390f35b610a04612466565b6040518082815260200191505060405180910390f35b610a6660048036036040811015610a3057600080fd5b81019080803573ffffffffffffffffffffffffffffffffffffffff1690602001909291908035906020019092919050505061246c565b005b610a9460048036036020811015610a7e57600080fd5b81019080803590602001909291905050506125d7565b005b610a9e6127a9565b604051808273ffffffffffffffffffffffffffffffffffffffff1673ffffffffffffffffffffffffffffffffffffffff16815260200191505060405180910390f35b610ae86127cf565b6040518082815260200191505060405180910390f35b610b2a60048036036020811015610b1457600080fd5b81019080803590602001909291905050506127d5565b005b610b5860048036036020811015610b4257600080fd5b8101908080359060200190929190505050612c1f565b005b610b62612d9a565b604051808273ffffffffffffffffffffffffffffffffffffffff1673ffffffffffffffffffffffffffffffffffffffff16815260200191505060405180910390f35b610bac612dc0565b6040518082815260200191505060405180910390f35b610bee60048036036020811015610bd857600080fd5b8101908080359060200190929190505050612dc6565b005b610c2660048036036040811015610c0657600080fd5b810190808035906020019092919080359060200190929190505050612e99565b6040518082815260200191505060405180910390f35b610c7e60048036036020811015610c5257600080fd5b81019080803573ffffffffffffffffffffffffffffffffffffffff169060200190929190505050612f61565b005b610c8861316e565b6040518082815260200191505060405180910390f35b610ca6613174565b604051808273ffffffffffffffffffffffffffffffffffffffff1673ffffffffffffffffffffffffffffffffffffffff16815260200191505060405180910390f35b60166020528060005260406000206000915090505481565b610d0861319a565b73ffffffffffffffffffffffffffffffffffffffff166000809054906101000a900473ffffffffffffffffffffffffffffffffffffffff1673ffffffffffffffffffffffffffffffffffffffff1614610dc9576040517f08c379a00000000000000000000000000000000000000000000000000000000081526004018080602001828103825260208152602001807f4f776e61626c653a2063616c6c6572206973206e6f7420746865206f776e657281525060200191505060405180910390fd5b8060048190555050565b60045481565b60095481565b610de761319a565b73ffffffffffffffffffffffffffffffffffffffff166000809054906101000a900473ffffffffffffffffffffffffffffffffffffffff1673ffffffffffffffffffffffffffffffffffffffff1614610ea8576040517f08c379a00000000000000000000000000000000000000000000000000000000081526004018080602001828103825260208152602001807f4f776e61626c653a2063616c6c6572206973206e6f7420746865206f776e657281525060200191505060405180910390fd5b8060038190555050565b601360009054906101000a900473ffffffffffffffffffffffffffffffffffffffff1681565b60085481565b60035481565b600e60009054906101000a900473ffffffffffffffffffffffffffffffffffffffff1673ffffffffffffffffffffffffffffffffffffffff166323b872dd3330846040518463ffffffff1660e01b8152600401808473ffffffffffffffffffffffffffffffffffffffff1673ffffffffffffffffffffffffffffffffffffffff1681526020018373ffffffffffffffffffffffffffffffffffffffff1673ffffffffffffffffffffffffffffffffffffffff1681526020018281526020019350505050602060405180830381600087803b158015610fc157600080fd5b505af1158015610fd5573d6000803e3d6000fd5b505050506040513d6020811015610feb57600080fd5b81019080805190602001909291905050505061101281600a546131a290919063ffffffff16565b600a8190555080601560003373ffffffffffffffffffffffffffffffffffffffff1673ffffffffffffffffffffffffffffffffffffffff1681526020019081526020016000208190555050565b600e60009054906101000a900473ffffffffffffffffffffffffffffffffffffffff1681565b60006111a9600e60009054906101000a900473ffffffffffffffffffffffffffffffffffffffff1673ffffffffffffffffffffffffffffffffffffffff166370a08231306040518263ffffffff1660e01b8152600401808273ffffffffffffffffffffffffffffffffffffffff1673ffffffffffffffffffffffffffffffffffffffff16815260200191505060206040518083038186803b15801561112957600080fd5b505afa15801561113d573d6000803e3d6000fd5b505050506040513d602081101561115357600080fd5b8101908080519060200190929190505050601660003373ffffffffffffffffffffffffffffffffffffffff1673ffffffffffffffffffffffffffffffffffffffff16815260200190815260200160002054612e99565b905060006111b682612423565b905060006111cd82846131a290919063ffffffff16565b90506000600e60009054906101000a900473ffffffffffffffffffffffffffffffffffffffff1673ffffffffffffffffffffffffffffffffffffffff166370a08231336040518263ffffffff1660e01b8152600401808273ffffffffffffffffffffffffffffffffffffffff1673ffffffffffffffffffffffffffffffffffffffff16815260200191505060206040518083038186803b15801561127057600080fd5b505afa158015611284573d6000803e3d6000fd5b505050506040513d602081101561129a57600080fd5b8101908080519060200190929190505050905081811015611323576040517f08c379a000000000000000000000000000000000000000000000000000000000815260040180806020018281038252601f8152602001807f42616c616e636520746f6f206c6f7720746f20706179206f6666206c6f616e0081525060200191505060405180910390fd5b600e60009054906101000a900473ffffffffffffffffffffffffffffffffffffffff1673ffffffffffffffffffffffffffffffffffffffff166323b872dd3330856040518463ffffffff1660e01b8152600401808473ffffffffffffffffffffffffffffffffffffffff1673ffffffffffffffffffffffffffffffffffffffff1681526020018373ffffffffffffffffffffffffffffffffffffffff1673ffffffffffffffffffffffffffffffffffffffff1681526020018281526020019350505050602060405180830381600087803b15801561140057600080fd5b505af1158015611414573d6000803e3d6000fd5b505050506040513d602081101561142a57600080fd5b8101908080519060200190929190505050506000600c5414156114c15761149b601660003373ffffffffffffffffffffffffffffffffffffffff1673ffffffffffffffffffffffffffffffffffffffff16815260200190815260200160002054600b5461322a90919063ffffffff16565b600b819055506114b6846009546131a290919063ffffffff16565b600981905550611537565b611515601660003373ffffffffffffffffffffffffffffffffffffffff1673ffffffffffffffffffffffffffffffffffffffff16815260200190815260200160002054600c5461322a90919063ffffffff16565b600c8190555061153084600a546131a290919063ffffffff16565b600a819055505b600e60009054906101000a900473ffffffffffffffffffffffffffffffffffffffff1673ffffffffffffffffffffffffffffffffffffffff166323b872dd3061157e6122ba565b866040518463ffffffff1660e01b8152600401808473ffffffffffffffffffffffffffffffffffffffff1673ffffffffffffffffffffffffffffffffffffffff1681526020018373ffffffffffffffffffffffffffffffffffffffff1673ffffffffffffffffffffffffffffffffffffffff1681526020018281526020019350505050602060405180830381600087803b15801561161b57600080fd5b505af115801561162f573d6000803e3d6000fd5b505050506040513d602081101561164557600080fd5b8101908080519060200190929190505050506000601660003373ffffffffffffffffffffffffffffffffffffffff1673ffffffffffffffffffffffffffffffffffffffff168152602001908152602001600020819055506000601760003373ffffffffffffffffffffffffffffffffffffffff1673ffffffffffffffffffffffffffffffffffffffff168152602001908152602001600020819055506000601860003373ffffffffffffffffffffffffffffffffffffffff1673ffffffffffffffffffffffffffffffffffffffff16815260200190815260200160002081905550601260009054906101000a900473ffffffffffffffffffffffffffffffffffffffff1673ffffffffffffffffffffffffffffffffffffffff166328736f6630336040518363ffffffff1660e01b8152600401808373ffffffffffffffffffffffffffffffffffffffff1673ffffffffffffffffffffffffffffffffffffffff1681526020018273ffffffffffffffffffffffffffffffffffffffff1673ffffffffffffffffffffffffffffffffffffffff16815260200192505050600060405180830381600087803b1580156117fb57600080fd5b505af115801561180f573d6000803e3d6000fd5b50505050600e60009054906101000a900473ffffffffffffffffffffffffffffffffffffffff1673ffffffffffffffffffffffffffffffffffffffff1663a9059cbb601260009054906101000a900473ffffffffffffffffffffffffffffffffffffffff16856040518363ffffffff1660e01b8152600401808373ffffffffffffffffffffffffffffffffffffffff1673ffffffffffffffffffffffffffffffffffffffff16815260200182815260200192505050602060405180830381600087803b1580156118de57600080fd5b505af11580156118f2573d6000803e3d6000fd5b505050506040513d602081101561190857600080fd5b81019080805190602001909291905050505050505050565b60186020528060005260406000206000915090505481565b60065481565b60146020528060005260406000206000915090505481565b61195e61319a565b73ffffffffffffffffffffffffffffffffffffffff166000809054906101000a900473ffffffffffffffffffffffffffffffffffffffff1673ffffffffffffffffffffffffffffffffffffffff1614611a1f576040517f08c379a00000000000000000000000000000000000000000000000000000000081526004018080602001828103825260208152602001807f4f776e61626c653a2063616c6c6572206973206e6f7420746865206f776e657281525060200191505060405180910390fd5b8060068190555050565b6000601360009054906101000a900473ffffffffffffffffffffffffffffffffffffffff1673ffffffffffffffffffffffffffffffffffffffff1663b816881684846000806040518563ffffffff1660e01b81526004018085815260200184815260200183815260200182815260200194505050505060206040518083038186803b158015611ab757600080fd5b505afa158015611acb573d6000803e3d6000fd5b505050506040513d6020811015611ae157600080fd5b81019080805190602001909291905050505092915050565b60156020528060005260406000206000915090505481565b6000601060009054906101000a900473ffffffffffffffffffffffffffffffffffffffff16905090565b601260009054906101000a900473ffffffffffffffffffffffffffffffffffffffff1673ffffffffffffffffffffffffffffffffffffffff163373ffffffffffffffffffffffffffffffffffffffff1614611be1576040517f08c379a00000000000000000000000000000000000000000000000000000000081526004018080602001828103825260418152602001806135126041913960600191505060405180910390fd5b601060009054906101000a900473ffffffffffffffffffffffffffffffffffffffff1673ffffffffffffffffffffffffffffffffffffffff16639dc29fac83836040518363ffffffff1660e01b8152600401808373ffffffffffffffffffffffffffffffffffffffff1673ffffffffffffffffffffffffffffffffffffffff16815260200182815260200192505050600060405180830381600087803b158015611c8a57600080fd5b505af1158015611c9e573d6000803e3d6000fd5b505050505050565b611cae61319a565b73ffffffffffffffffffffffffffffffffffffffff166000809054906101000a900473ffffffffffffffffffffffffffffffffffffffff1673ffffffffffffffffffffffffffffffffffffffff1614611d6f576040517f08c379a00000000000000000000000000000000000000000000000000000000081526004018080602001828103825260208152602001807f4f776e61626c653a2063616c6c6572206973206e6f7420746865206f776e657281525060200191505060405180910390fd5b8060078190555050565b611d8161319a565b73ffffffffffffffffffffffffffffffffffffffff166000809054906101000a900473ffffffffffffffffffffffffffffffffffffffff1673ffffffffffffffffffffffffffffffffffffffff1614611e42576040517f08c379a00000000000000000000000000000000000000000000000000000000081526004018080602001828103825260208152602001807f4f776e61626c653a2063616c6c6572206973206e6f7420746865206f776e657281525060200191505060405180910390fd5b600073ffffffffffffffffffffffffffffffffffffffff166000809054906101000a900473ffffffffffffffffffffffffffffffffffffffff1673ffffffffffffffffffffffffffffffffffffffff167f8be0079c531659141344cd1fd0a4f28419497f9722a3daafe3b4186f6b6457e060405160405180910390a360008060006101000a81548173ffffffffffffffffffffffffffffffffffffffff021916908373ffffffffffffffffffffffffffffffffffffffff160217905550565b60176020528060005260406000206000915090505481565b6000601360009054906101000a900473ffffffffffffffffffffffffffffffffffffffff1673ffffffffffffffffffffffffffffffffffffffff1663b816881684846000806040518563ffffffff1660e01b81526004018085815260200184815260200183815260200182815260200194505050505060206040518083038186803b158015611fa757600080fd5b505afa158015611fbb573d6000803e3d6000fd5b505050506040513d6020811015611fd157600080fd5b81019080805190602001909291905050505092915050565b611ff161319a565b73ffffffffffffffffffffffffffffffffffffffff166000809054906101000a900473ffffffffffffffffffffffffffffffffffffffff1673ffffffffffffffffffffffffffffffffffffffff16146120b2576040517f08c379a00000000000000000000000000000000000000000000000000000000081526004018080602001828103825260208152602001807f4f776e61626c653a2063616c6c6572206973206e6f7420746865206f776e657281525060200191505060405180910390fd5b8060058190555050565b600f60009054906101000a900473ffffffffffffffffffffffffffffffffffffffff1673ffffffffffffffffffffffffffffffffffffffff16639dc29fac33836040518363ffffffff1660e01b8152600401808373ffffffffffffffffffffffffffffffffffffffff1673ffffffffffffffffffffffffffffffffffffffff16815260200182815260200192505050600060405180830381600087803b15801561216557600080fd5b505af1158015612179573d6000803e3d6000fd5b50505050600061218b82600b54611a29565b905060006121a282846131a290919063ffffffff16565b9050600e60009054906101000a900473ffffffffffffffffffffffffffffffffffffffff1673ffffffffffffffffffffffffffffffffffffffff1663a9059cbb33836040518363ffffffff1660e01b8152600401808373ffffffffffffffffffffffffffffffffffffffff1673ffffffffffffffffffffffffffffffffffffffff16815260200182815260200192505050602060405180830381600087803b15801561224d57600080fd5b505af1158015612261573d6000803e3d6000fd5b505050506040513d602081101561227757600080fd5b810190808051906020019092919050505050505050565b601160009054906101000a900473ffffffffffffffffffffffffffffffffffffffff1681565b60075481565b60008060009054906101000a900473ffffffffffffffffffffffffffffffffffffffff16905090565b601260009054906101000a900473ffffffffffffffffffffffffffffffffffffffff1673ffffffffffffffffffffffffffffffffffffffff163373ffffffffffffffffffffffffffffffffffffffff1614612389576040517f08c379a00000000000000000000000000000000000000000000000000000000081526004018080602001828103825260418152602001806135126041913960600191505060405180910390fd5b86600281905550856003819055508460048190555083600581905550826006819055508160078190555080601360006101000a81548173ffffffffffffffffffffffffffffffffffffffff021916908373ffffffffffffffffffffffffffffffffffffffff16021790555050505050505050565b600f60009054906101000a900473ffffffffffffffffffffffffffffffffffffffff1681565b60008061244f6008546124416007548661327490919063ffffffff16565b6132fa90919063ffffffff16565b905080915050919050565b600c5481565b600b5481565b60015481565b601260009054906101000a900473ffffffffffffffffffffffffffffffffffffffff1673ffffffffffffffffffffffffffffffffffffffff163373ffffffffffffffffffffffffffffffffffffffff1614612512576040517f08c379a00000000000000000000000000000000000000000000000000000000081526004018080602001828103825260418152602001806135126041913960600191505060405180910390fd5b601060009054906101000a900473ffffffffffffffffffffffffffffffffffffffff1673ffffffffffffffffffffffffffffffffffffffff166340c10f1983836040518363ffffffff1660e01b8152600401808373ffffffffffffffffffffffffffffffffffffffff1673ffffffffffffffffffffffffffffffffffffffff16815260200182815260200192505050600060405180830381600087803b1580156125bb57600080fd5b505af11580156125cf573d6000803e3d6000fd5b505050505050565b601060009054906101000a900473ffffffffffffffffffffffffffffffffffffffff1673ffffffffffffffffffffffffffffffffffffffff16639dc29fac33836040518363ffffffff1660e01b8152600401808373ffffffffffffffffffffffffffffffffffffffff1673ffffffffffffffffffffffffffffffffffffffff16815260200182815260200192505050600060405180830381600087803b15801561268057600080fd5b505af1158015612694573d6000803e3d6000fd5b5050505060006126a682600c54611f19565b905060006126bd82846131a290919063ffffffff16565b9050600e60009054906101000a900473ffffffffffffffffffffffffffffffffffffffff1673ffffffffffffffffffffffffffffffffffffffff1663a9059cbb33836040518363ffffffff1660e01b8152600401808373ffffffffffffffffffffffffffffffffffffffff1673ffffffffffffffffffffffffffffffffffffffff16815260200182815260200192505050602060405180830381600087803b15801561276857600080fd5b505af115801561277c573d6000803e3d6000fd5b505050506040513d602081101561279257600080fd5b810190808051906020019092919050505050505050565b601060009054906101000a900473ffffffffffffffffffffffffffffffffffffffff1681565b60055481565b60006127eb6002836132fa90919063ffffffff16565b90506000601260009054906101000a900473ffffffffffffffffffffffffffffffffffffffff1673ffffffffffffffffffffffffffffffffffffffff166335862cc7336040518263ffffffff1660e01b8152600401808273ffffffffffffffffffffffffffffffffffffffff1673ffffffffffffffffffffffffffffffffffffffff16815260200191505060206040518083038186803b15801561288e57600080fd5b505afa1580156128a2573d6000803e3d6000fd5b505050506040513d60208110156128b857600080fd5b81019080805190602001909291905050509050828111612940576040517f08c379a00000000000000000000000000000000000000000000000000000000081526004018080602001828103825260158152602001807f4e6f7420456e6f75676820436f6c6c61746572616c000000000000000000000081525060200191505060405180910390fd5b61295582600b546131a290919063ffffffff16565b600b8190555061297082600c546131a290919063ffffffff16565b600c819055506129c883601660003373ffffffffffffffffffffffffffffffffffffffff1673ffffffffffffffffffffffffffffffffffffffff168152602001908152602001600020546131a290919063ffffffff16565b601660003373ffffffffffffffffffffffffffffffffffffffff1673ffffffffffffffffffffffffffffffffffffffff16815260200190815260200160002081905550612a5d82601760003373ffffffffffffffffffffffffffffffffffffffff1673ffffffffffffffffffffffffffffffffffffffff168152602001908152602001600020546131a290919063ffffffff16565b601760003373ffffffffffffffffffffffffffffffffffffffff1673ffffffffffffffffffffffffffffffffffffffff16815260200190815260200160002081905550612af282601860003373ffffffffffffffffffffffffffffffffffffffff1673ffffffffffffffffffffffffffffffffffffffff168152602001908152602001600020546131a290919063ffffffff16565b601860003373ffffffffffffffffffffffffffffffffffffffff1673ffffffffffffffffffffffffffffffffffffffff16815260200190815260200160002081905550600e60009054906101000a900473ffffffffffffffffffffffffffffffffffffffff1673ffffffffffffffffffffffffffffffffffffffff1663a9059cbb33856040518363ffffffff1660e01b8152600401808373ffffffffffffffffffffffffffffffffffffffff1673ffffffffffffffffffffffffffffffffffffffff16815260200182815260200192505050602060405180830381600087803b158015612bde57600080fd5b505af1158015612bf2573d6000803e3d6000fd5b505050506040513d6020811015612c0857600080fd5b810190808051906020019092919050505050505050565b600e60009054906101000a900473ffffffffffffffffffffffffffffffffffffffff1673ffffffffffffffffffffffffffffffffffffffff166323b872dd3330846040518463ffffffff1660e01b8152600401808473ffffffffffffffffffffffffffffffffffffffff1673ffffffffffffffffffffffffffffffffffffffff1681526020018373ffffffffffffffffffffffffffffffffffffffff1673ffffffffffffffffffffffffffffffffffffffff1681526020018281526020019350505050602060405180830381600087803b158015612cfc57600080fd5b505af1158015612d10573d6000803e3d6000fd5b505050506040513d6020811015612d2657600080fd5b810190808051906020019092919050505050612d4d816009546131a290919063ffffffff16565b60098190555080601460003373ffffffffffffffffffffffffffffffffffffffff1673ffffffffffffffffffffffffffffffffffffffff1681526020019081526020016000208190555050565b601260009054906101000a900473ffffffffffffffffffffffffffffffffffffffff1681565b60025481565b612dce61319a565b73ffffffffffffffffffffffffffffffffffffffff166000809054906101000a900473ffffffffffffffffffffffffffffffffffffffff1673ffffffffffffffffffffffffffffffffffffffff1614612e8f576040517f08c379a00000000000000000000000000000000000000000000000000000000081526004018080602001828103825260208152602001807f4f776e61626c653a2063616c6c6572206973206e6f7420746865206f776e657281525060200191505060405180910390fd5b8060028190555050565b6000601360009054906101000a900473ffffffffffffffffffffffffffffffffffffffff1673ffffffffffffffffffffffffffffffffffffffff166315f24053848460006040518463ffffffff1660e01b815260040180848152602001838152602001828152602001935050505060206040518083038186803b158015612f1f57600080fd5b505afa158015612f33573d6000803e3d6000fd5b505050506040513d6020811015612f4957600080fd5b81019080805190602001909291905050505092915050565b612f6961319a565b73ffffffffffffffffffffffffffffffffffffffff166000809054906101000a900473ffffffffffffffffffffffffffffffffffffffff1673ffffffffffffffffffffffffffffffffffffffff161461302a576040517f08c379a00000000000000000000000000000000000000000000000000000000081526004018080602001828103825260208152602001807f4f776e61626c653a2063616c6c6572206973206e6f7420746865206f776e657281525060200191505060405180910390fd5b600073ffffffffffffffffffffffffffffffffffffffff168173ffffffffffffffffffffffffffffffffffffffff1614156130b0576040517f08c379a00000000000000000000000000000000000000000000000000000000081526004018080602001828103825260268152602001806134cb6026913960400191505060405180910390fd5b8073ffffffffffffffffffffffffffffffffffffffff166000809054906101000a900473ffffffffffffffffffffffffffffffffffffffff1673ffffffffffffffffffffffffffffffffffffffff167f8be0079c531659141344cd1fd0a4f28419497f9722a3daafe3b4186f6b6457e060405160405180910390a3806000806101000a81548173ffffffffffffffffffffffffffffffffffffffff021916908373ffffffffffffffffffffffffffffffffffffffff16021790555050565b600a5481565b600d60009054906101000a900473ffffffffffffffffffffffffffffffffffffffff1681565b600033905090565b600080828401905083811015613220576040517f08c379a000000000000000000000000000000000000000000000000000000000815260040180806020018281038252601b8152602001807f536166654d6174683a206164646974696f6e206f766572666c6f77000000000081525060200191505060405180910390fd5b8091505092915050565b600061326c83836040518060400160405280601e81526020017f536166654d6174683a207375627472616374696f6e206f766572666c6f770000815250613344565b905092915050565b60008083141561328757600090506132f4565b600082840290508284828161329857fe5b04146132ef576040517f08c379a00000000000000000000000000000000000000000000000000000000081526004018080602001828103825260218152602001806134f16021913960400191505060405180910390fd5b809150505b92915050565b600061333c83836040518060400160405280601a81526020017f536166654d6174683a206469766973696f6e206279207a65726f000000000000815250613404565b905092915050565b60008383111582906133f1576040517f08c379a00000000000000000000000000000000000000000000000000000000081526004018080602001828103825283818151815260200191508051906020019080838360005b838110156133b657808201518184015260208101905061339b565b50505050905090810190601f1680156133e35780820380516001836020036101000a031916815260200191505b509250505060405180910390fd5b5060008385039050809150509392505050565b600080831182906134b0576040517f08c379a00000000000000000000000000000000000000000000000000000000081526004018080602001828103825283818151815260200191508051906020019080838360005b8381101561347557808201518184015260208101905061345a565b50505050905090810190601f1680156134a25780820380516001836020036101000a031916815260200191505b509250505060405180910390fd5b5060008385816134bc57fe5b04905080915050939250505056fe4f776e61626c653a206e6577206f776e657220697320746865207a65726f2061646472657373536166654d6174683a206d756c7469706c69636174696f6e206f766572666c6f774f6e6c79204d6f6e6579204d61726b657420466163746f72793a2063616c6c6572206973206e6f7420746865204d6f6e6579204d61726b657420466163746f7279a2646970667358221220d25684845c30ac5c5f91f948b10b609d3bde778e363bd867b07499034b72fdc164736f6c6343000606003360806040523480156200001157600080fd5b506040516200207138038062002071833981810160405260408110156200003757600080fd5b81019080805160405193929190846401000000008211156200005857600080fd5b838201915060208201858111156200006f57600080fd5b82518660018202830111640100000000821117156200008d57600080fd5b8083526020830192505050908051906020019080838360005b83811015620000c3578082015181840152602081019050620000a6565b50505050905090810190601f168015620000f15780820380516001836020036101000a031916815260200191505b50604052602001805160405193929190846401000000008211156200011557600080fd5b838201915060208201858111156200012c57600080fd5b82518660018202830111640100000000821117156200014a57600080fd5b8083526020830192505050908051906020019080838360005b838110156200018057808201518184015260208101905062000163565b50505050905090810190601f168015620001ae5780820380516001836020036101000a031916815260200191505b5060405250505080826000620001c96200030060201b60201c565b9050806000806101000a81548173ffffffffffffffffffffffffffffffffffffffff021916908373ffffffffffffffffffffffffffffffffffffffff1602179055508073ffffffffffffffffffffffffffffffffffffffff16600073ffffffffffffffffffffffffffffffffffffffff167f8be0079c531659141344cd1fd0a4f28419497f9722a3daafe3b4186f6b6457e060405160405180910390a35081600490805190602001906200027f92919062000308565b5080600590805190602001906200029892919062000308565b506012600660006101000a81548160ff021916908360ff160217905550505033600660016101000a81548173ffffffffffffffffffffffffffffffffffffffff021916908373ffffffffffffffffffffffffffffffffffffffff1602179055505050620003b7565b600033905090565b828054600181600116156101000203166002900490600052602060002090601f016020900481019282601f106200034b57805160ff19168380011785556200037c565b828001600101855582156200037c579182015b828111156200037b5782518255916020019190600101906200035e565b5b5090506200038b91906200038f565b5090565b620003b491905b80821115620003b057600081600090555060010162000396565b5090565b90565b611caa80620003c76000396000f3fe608060405234801561001057600080fd5b506004361061010b5760003560e01c806370a08231116100a25780639dc29fac116100715780639dc29fac146104ee578063a457c2d71461053c578063a9059cbb146105a2578063dd62ed3e14610608578063f2fde38b146106805761010b565b806370a08231146103bf578063715018a6146104175780638da5cb5b1461042157806395d89b411461046b5761010b565b806323b872dd116100de57806323b872dd14610261578063313ce567146102e7578063395093511461030b57806340c10f19146103715761010b565b806306fdde0314610110578063095ea7b31461019357806318160ddd146101f9578063230b9da314610217575b600080fd5b6101186106c4565b6040518080602001828103825283818151815260200191508051906020019080838360005b8381101561015857808201518184015260208101905061013d565b50505050905090810190601f1680156101855780820380516001836020036101000a031916815260200191505b509250505060405180910390f35b6101df600480360360408110156101a957600080fd5b81019080803573ffffffffffffffffffffffffffffffffffffffff16906020019092919080359060200190929190505050610766565b604051808215151515815260200191505060405180910390f35b610201610784565b6040518082815260200191505060405180910390f35b61021f61078e565b604051808273ffffffffffffffffffffffffffffffffffffffff1673ffffffffffffffffffffffffffffffffffffffff16815260200191505060405180910390f35b6102cd6004803603606081101561027757600080fd5b81019080803573ffffffffffffffffffffffffffffffffffffffff169060200190929190803573ffffffffffffffffffffffffffffffffffffffff169060200190929190803590602001909291905050506107b4565b604051808215151515815260200191505060405180910390f35b6102ef61088d565b604051808260ff1660ff16815260200191505060405180910390f35b6103576004803603604081101561032157600080fd5b81019080803573ffffffffffffffffffffffffffffffffffffffff169060200190929190803590602001909291905050506108a4565b604051808215151515815260200191505060405180910390f35b6103bd6004803603604081101561038757600080fd5b81019080803573ffffffffffffffffffffffffffffffffffffffff16906020019092919080359060200190929190505050610957565b005b610401600480360360208110156103d557600080fd5b81019080803573ffffffffffffffffffffffffffffffffffffffff169060200190929190505050610a2e565b6040518082815260200191505060405180910390f35b61041f610a77565b005b610429610bff565b604051808273ffffffffffffffffffffffffffffffffffffffff1673ffffffffffffffffffffffffffffffffffffffff16815260200191505060405180910390f35b610473610c28565b6040518080602001828103825283818151815260200191508051906020019080838360005b838110156104b3578082015181840152602081019050610498565b50505050905090810190601f1680156104e05780820380516001836020036101000a031916815260200191505b509250505060405180910390f35b61053a6004803603604081101561050457600080fd5b81019080803573ffffffffffffffffffffffffffffffffffffffff16906020019092919080359060200190929190505050610cca565b005b6105886004803603604081101561055257600080fd5b81019080803573ffffffffffffffffffffffffffffffffffffffff16906020019092919080359060200190929190505050610da1565b604051808215151515815260200191505060405180910390f35b6105ee600480360360408110156105b857600080fd5b81019080803573ffffffffffffffffffffffffffffffffffffffff16906020019092919080359060200190929190505050610e6e565b604051808215151515815260200191505060405180910390f35b61066a6004803603604081101561061e57600080fd5b81019080803573ffffffffffffffffffffffffffffffffffffffff169060200190929190803573ffffffffffffffffffffffffffffffffffffffff169060200190929190505050610e8c565b6040518082815260200191505060405180910390f35b6106c26004803603602081101561069657600080fd5b81019080803573ffffffffffffffffffffffffffffffffffffffff169060200190929190505050610f13565b005b606060048054600181600116156101000203166002900480601f01602080910402602001604051908101604052809291908181526020018280546001816001161561010002031660029004801561075c5780601f106107315761010080835404028352916020019161075c565b820191906000526020600020905b81548152906001019060200180831161073f57829003601f168201915b5050505050905090565b600061077a610773611120565b8484611128565b6001905092915050565b6000600354905090565b600660019054906101000a900473ffffffffffffffffffffffffffffffffffffffff1681565b60006107c184848461131f565b610882846107cd611120565b61087d85604051806060016040528060288152602001611bbe60289139600260008b73ffffffffffffffffffffffffffffffffffffffff1673ffffffffffffffffffffffffffffffffffffffff1681526020019081526020016000206000610833611120565b73ffffffffffffffffffffffffffffffffffffffff1673ffffffffffffffffffffffffffffffffffffffff168152602001908152602001600020546115e49092919063ffffffff16565b611128565b600190509392505050565b6000600660009054906101000a900460ff16905090565b600061094d6108b1611120565b8461094885600260006108c2611120565b73ffffffffffffffffffffffffffffffffffffffff1673ffffffffffffffffffffffffffffffffffffffff16815260200190815260200160002060008973ffffffffffffffffffffffffffffffffffffffff1673ffffffffffffffffffffffffffffffffffffffff168152602001908152602001600020546116a490919063ffffffff16565b611128565b6001905092915050565b61095f611120565b73ffffffffffffffffffffffffffffffffffffffff166000809054906101000a900473ffffffffffffffffffffffffffffffffffffffff1673ffffffffffffffffffffffffffffffffffffffff1614610a20576040517f08c379a00000000000000000000000000000000000000000000000000000000081526004018080602001828103825260208152602001807f4f776e61626c653a2063616c6c6572206973206e6f7420746865206f776e657281525060200191505060405180910390fd5b610a2a828261172c565b5050565b6000600160008373ffffffffffffffffffffffffffffffffffffffff1673ffffffffffffffffffffffffffffffffffffffff168152602001908152602001600020549050919050565b610a7f611120565b73ffffffffffffffffffffffffffffffffffffffff166000809054906101000a900473ffffffffffffffffffffffffffffffffffffffff1673ffffffffffffffffffffffffffffffffffffffff1614610b40576040517f08c379a00000000000000000000000000000000000000000000000000000000081526004018080602001828103825260208152602001807f4f776e61626c653a2063616c6c6572206973206e6f7420746865206f776e657281525060200191505060405180910390fd5b600073ffffffffffffffffffffffffffffffffffffffff166000809054906101000a900473ffffffffffffffffffffffffffffffffffffffff1673ffffffffffffffffffffffffffffffffffffffff167f8be0079c531659141344cd1fd0a4f28419497f9722a3daafe3b4186f6b6457e060405160405180910390a360008060006101000a81548173ffffffffffffffffffffffffffffffffffffffff021916908373ffffffffffffffffffffffffffffffffffffffff160217905550565b60008060009054906101000a900473ffffffffffffffffffffffffffffffffffffffff16905090565b606060058054600181600116156101000203166002900480601f016020809104026020016040519081016040528092919081815260200182805460018160011615610100020316600290048015610cc05780601f10610c9557610100808354040283529160200191610cc0565b820191906000526020600020905b815481529060010190602001808311610ca357829003601f168201915b5050505050905090565b610cd2611120565b73ffffffffffffffffffffffffffffffffffffffff166000809054906101000a900473ffffffffffffffffffffffffffffffffffffffff1673ffffffffffffffffffffffffffffffffffffffff1614610d93576040517f08c379a00000000000000000000000000000000000000000000000000000000081526004018080602001828103825260208152602001807f4f776e61626c653a2063616c6c6572206973206e6f7420746865206f776e657281525060200191505060405180910390fd5b610d9d82826118f5565b5050565b6000610e64610dae611120565b84610e5f85604051806060016040528060258152602001611c506025913960026000610dd8611120565b73ffffffffffffffffffffffffffffffffffffffff1673ffffffffffffffffffffffffffffffffffffffff16815260200190815260200160002060008a73ffffffffffffffffffffffffffffffffffffffff1673ffffffffffffffffffffffffffffffffffffffff168152602001908152602001600020546115e49092919063ffffffff16565b611128565b6001905092915050565b6000610e82610e7b611120565b848461131f565b6001905092915050565b6000600260008473ffffffffffffffffffffffffffffffffffffffff1673ffffffffffffffffffffffffffffffffffffffff16815260200190815260200160002060008373ffffffffffffffffffffffffffffffffffffffff1673ffffffffffffffffffffffffffffffffffffffff16815260200190815260200160002054905092915050565b610f1b611120565b73ffffffffffffffffffffffffffffffffffffffff166000809054906101000a900473ffffffffffffffffffffffffffffffffffffffff1673ffffffffffffffffffffffffffffffffffffffff1614610fdc576040517f08c379a00000000000000000000000000000000000000000000000000000000081526004018080602001828103825260208152602001807f4f776e61626c653a2063616c6c6572206973206e6f7420746865206f776e657281525060200191505060405180910390fd5b600073ffffffffffffffffffffffffffffffffffffffff168173ffffffffffffffffffffffffffffffffffffffff161415611062576040517f08c379a0000000000000000000000000000000000000000000000000000000008152600401808060200182810382526026815260200180611b506026913960400191505060405180910390fd5b8073ffffffffffffffffffffffffffffffffffffffff166000809054906101000a900473ffffffffffffffffffffffffffffffffffffffff1673ffffffffffffffffffffffffffffffffffffffff167f8be0079c531659141344cd1fd0a4f28419497f9722a3daafe3b4186f6b6457e060405160405180910390a3806000806101000a81548173ffffffffffffffffffffffffffffffffffffffff021916908373ffffffffffffffffffffffffffffffffffffffff16021790555050565b600033905090565b600073ffffffffffffffffffffffffffffffffffffffff168373ffffffffffffffffffffffffffffffffffffffff1614156111ae576040517f08c379a0000000000000000000000000000000000000000000000000000000008152600401808060200182810382526024815260200180611c2c6024913960400191505060405180910390fd5b600073ffffffffffffffffffffffffffffffffffffffff168273ffffffffffffffffffffffffffffffffffffffff161415611234576040517f08c379a0000000000000000000000000000000000000000000000000000000008152600401808060200182810382526022815260200180611b766022913960400191505060405180910390fd5b80600260008573ffffffffffffffffffffffffffffffffffffffff1673ffffffffffffffffffffffffffffffffffffffff16815260200190815260200160002060008473ffffffffffffffffffffffffffffffffffffffff1673ffffffffffffffffffffffffffffffffffffffff168152602001908152602001600020819055508173ffffffffffffffffffffffffffffffffffffffff168373ffffffffffffffffffffffffffffffffffffffff167f8c5be1e5ebec7d5bd14f71427d1e84f3dd0314c0f7b2291e5b200ac8c7c3b925836040518082815260200191505060405180910390a3505050565b600073ffffffffffffffffffffffffffffffffffffffff168373ffffffffffffffffffffffffffffffffffffffff1614156113a5576040517f08c379a0000000000000000000000000000000000000000000000000000000008152600401808060200182810382526025815260200180611c076025913960400191505060405180910390fd5b600073ffffffffffffffffffffffffffffffffffffffff168273ffffffffffffffffffffffffffffffffffffffff16141561142b576040517f08c379a0000000000000000000000000000000000000000000000000000000008152600401808060200182810382526023815260200180611b0b6023913960400191505060405180910390fd5b611436838383611abb565b6114a281604051806060016040528060268152602001611b9860269139600160008773ffffffffffffffffffffffffffffffffffffffff1673ffffffffffffffffffffffffffffffffffffffff168152602001908152602001600020546115e49092919063ffffffff16565b600160008573ffffffffffffffffffffffffffffffffffffffff1673ffffffffffffffffffffffffffffffffffffffff1681526020019081526020016000208190555061153781600160008573ffffffffffffffffffffffffffffffffffffffff1673ffffffffffffffffffffffffffffffffffffffff168152602001908152602001600020546116a490919063ffffffff16565b600160008473ffffffffffffffffffffffffffffffffffffffff1673ffffffffffffffffffffffffffffffffffffffff168152602001908152602001600020819055508173ffffffffffffffffffffffffffffffffffffffff168373ffffffffffffffffffffffffffffffffffffffff167fddf252ad1be2c89b69c2b068fc378daa952ba7f163c4a11628f55a4df523b3ef836040518082815260200191505060405180910390a3505050565b6000838311158290611691576040517f08c379a00000000000000000000000000000000000000000000000000000000081526004018080602001828103825283818151815260200191508051906020019080838360005b8381101561165657808201518184015260208101905061163b565b50505050905090810190601f1680156116835780820380516001836020036101000a031916815260200191505b509250505060405180910390fd5b5060008385039050809150509392505050565b600080828401905083811015611722576040517f08c379a000000000000000000000000000000000000000000000000000000000815260040180806020018281038252601b8152602001807f536166654d6174683a206164646974696f6e206f766572666c6f77000000000081525060200191505060405180910390fd5b8091505092915050565b600073ffffffffffffffffffffffffffffffffffffffff168273ffffffffffffffffffffffffffffffffffffffff1614156117cf576040517f08c379a000000000000000000000000000000000000000000000000000000000815260040180806020018281038252601f8152602001807f45524332303a206d696e7420746f20746865207a65726f20616464726573730081525060200191505060405180910390fd5b6117db60008383611abb565b6117f0816003546116a490919063ffffffff16565b60038190555061184881600160008573ffffffffffffffffffffffffffffffffffffffff1673ffffffffffffffffffffffffffffffffffffffff168152602001908152602001600020546116a490919063ffffffff16565b600160008473ffffffffffffffffffffffffffffffffffffffff1673ffffffffffffffffffffffffffffffffffffffff168152602001908152602001600020819055508173ffffffffffffffffffffffffffffffffffffffff16600073ffffffffffffffffffffffffffffffffffffffff167fddf252ad1be2c89b69c2b068fc378daa952ba7f163c4a11628f55a4df523b3ef836040518082815260200191505060405180910390a35050565b600073ffffffffffffffffffffffffffffffffffffffff168273ffffffffffffffffffffffffffffffffffffffff16141561197b576040517f08c379a0000000000000000000000000000000000000000000000000000000008152600401808060200182810382526021815260200180611be66021913960400191505060405180910390fd5b61198782600083611abb565b6119f381604051806060016040528060228152602001611b2e60229139600160008673ffffffffffffffffffffffffffffffffffffffff1673ffffffffffffffffffffffffffffffffffffffff168152602001908152602001600020546115e49092919063ffffffff16565b600160008473ffffffffffffffffffffffffffffffffffffffff1673ffffffffffffffffffffffffffffffffffffffff16815260200190815260200160002081905550611a4b81600354611ac090919063ffffffff16565b600381905550600073ffffffffffffffffffffffffffffffffffffffff168273ffffffffffffffffffffffffffffffffffffffff167fddf252ad1be2c89b69c2b068fc378daa952ba7f163c4a11628f55a4df523b3ef836040518082815260200191505060405180910390a35050565b505050565b6000611b0283836040518060400160405280601e81526020017f536166654d6174683a207375627472616374696f6e206f766572666c6f7700008152506115e4565b90509291505056fe45524332303a207472616e7366657220746f20746865207a65726f206164647265737345524332303a206275726e20616d6f756e7420657863656564732062616c616e63654f776e61626c653a206e6577206f776e657220697320746865207a65726f206164647265737345524332303a20617070726f766520746f20746865207a65726f206164647265737345524332303a207472616e7366657220616d6f756e7420657863656564732062616c616e636545524332303a207472616e7366657220616d6f756e74206578636565647320616c6c6f77616e636545524332303a206275726e2066726f6d20746865207a65726f206164647265737345524332303a207472616e736665722066726f6d20746865207a65726f206164647265737345524332303a20617070726f76652066726f6d20746865207a65726f206164647265737345524332303a2064656372656173656420616c6c6f77616e63652062656c6f77207a65726fa2646970667358221220aaa35f19f042c76c2cb1efbc4e85baa664aeb920b90d8a36757633ac39a8f17464736f6c6343000606003360806040523480156200001157600080fd5b506040516200207138038062002071833981810160405260408110156200003757600080fd5b81019080805160405193929190846401000000008211156200005857600080fd5b838201915060208201858111156200006f57600080fd5b82518660018202830111640100000000821117156200008d57600080fd5b8083526020830192505050908051906020019080838360005b83811015620000c3578082015181840152602081019050620000a6565b50505050905090810190601f168015620000f15780820380516001836020036101000a031916815260200191505b50604052602001805160405193929190846401000000008211156200011557600080fd5b838201915060208201858111156200012c57600080fd5b82518660018202830111640100000000821117156200014a57600080fd5b8083526020830192505050908051906020019080838360005b838110156200018057808201518184015260208101905062000163565b50505050905090810190601f168015620001ae5780820380516001836020036101000a031916815260200191505b5060405250505080826000620001c96200030060201b60201c565b9050806000806101000a81548173ffffffffffffffffffffffffffffffffffffffff021916908373ffffffffffffffffffffffffffffffffffffffff1602179055508073ffffffffffffffffffffffffffffffffffffffff16600073ffffffffffffffffffffffffffffffffffffffff167f8be0079c531659141344cd1fd0a4f28419497f9722a3daafe3b4186f6b6457e060405160405180910390a35081600490805190602001906200027f92919062000308565b5080600590805190602001906200029892919062000308565b506012600660006101000a81548160ff021916908360ff160217905550505033600660016101000a81548173ffffffffffffffffffffffffffffffffffffffff021916908373ffffffffffffffffffffffffffffffffffffffff1602179055505050620003b7565b600033905090565b828054600181600116156101000203166002900490600052602060002090601f016020900481019282601f106200034b57805160ff19168380011785556200037c565b828001600101855582156200037c579182015b828111156200037b5782518255916020019190600101906200035e565b5b5090506200038b91906200038f565b5090565b620003b491905b80821115620003b057600081600090555060010162000396565b5090565b90565b611caa80620003c76000396000f3fe608060405234801561001057600080fd5b506004361061010b5760003560e01c806370a08231116100a25780639dc29fac116100715780639dc29fac146104ee578063a457c2d71461053c578063a9059cbb146105a2578063dd62ed3e14610608578063f2fde38b146106805761010b565b806370a08231146103bf578063715018a6146104175780638da5cb5b1461042157806395d89b411461046b5761010b565b806323b872dd116100de57806323b872dd14610261578063313ce567146102e7578063395093511461030b57806340c10f19146103715761010b565b806306fdde0314610110578063095ea7b31461019357806318160ddd146101f9578063230b9da314610217575b600080fd5b6101186106c4565b6040518080602001828103825283818151815260200191508051906020019080838360005b8381101561015857808201518184015260208101905061013d565b50505050905090810190601f1680156101855780820380516001836020036101000a031916815260200191505b509250505060405180910390f35b6101df600480360360408110156101a957600080fd5b81019080803573ffffffffffffffffffffffffffffffffffffffff16906020019092919080359060200190929190505050610766565b604051808215151515815260200191505060405180910390f35b610201610784565b6040518082815260200191505060405180910390f35b61021f61078e565b604051808273ffffffffffffffffffffffffffffffffffffffff1673ffffffffffffffffffffffffffffffffffffffff16815260200191505060405180910390f35b6102cd6004803603606081101561027757600080fd5b81019080803573ffffffffffffffffffffffffffffffffffffffff169060200190929190803573ffffffffffffffffffffffffffffffffffffffff169060200190929190803590602001909291905050506107b4565b604051808215151515815260200191505060405180910390f35b6102ef61088d565b604051808260ff1660ff16815260200191505060405180910390f35b6103576004803603604081101561032157600080fd5b81019080803573ffffffffffffffffffffffffffffffffffffffff169060200190929190803590602001909291905050506108a4565b604051808215151515815260200191505060405180910390f35b6103bd6004803603604081101561038757600080fd5b81019080803573ffffffffffffffffffffffffffffffffffffffff16906020019092919080359060200190929190505050610957565b005b610401600480360360208110156103d557600080fd5b81019080803573ffffffffffffffffffffffffffffffffffffffff169060200190929190505050610a2e565b6040518082815260200191505060405180910390f35b61041f610a77565b005b610429610bff565b604051808273ffffffffffffffffffffffffffffffffffffffff1673ffffffffffffffffffffffffffffffffffffffff16815260200191505060405180910390f35b610473610c28565b6040518080602001828103825283818151815260200191508051906020019080838360005b838110156104b3578082015181840152602081019050610498565b50505050905090810190601f1680156104e05780820380516001836020036101000a031916815260200191505b509250505060405180910390f35b61053a6004803603604081101561050457600080fd5b81019080803573ffffffffffffffffffffffffffffffffffffffff16906020019092919080359060200190929190505050610cca565b005b6105886004803603604081101561055257600080fd5b81019080803573ffffffffffffffffffffffffffffffffffffffff16906020019092919080359060200190929190505050610da1565b604051808215151515815260200191505060405180910390f35b6105ee600480360360408110156105b857600080fd5b81019080803573ffffffffffffffffffffffffffffffffffffffff16906020019092919080359060200190929190505050610e6e565b604051808215151515815260200191505060405180910390f35b61066a6004803603604081101561061e57600080fd5b81019080803573ffffffffffffffffffffffffffffffffffffffff169060200190929190803573ffffffffffffffffffffffffffffffffffffffff169060200190929190505050610e8c565b6040518082815260200191505060405180910390f35b6106c26004803603602081101561069657600080fd5b81019080803573ffffffffffffffffffffffffffffffffffffffff169060200190929190505050610f13565b005b606060048054600181600116156101000203166002900480601f01602080910402602001604051908101604052809291908181526020018280546001816001161561010002031660029004801561075c5780601f106107315761010080835404028352916020019161075c565b820191906000526020600020905b81548152906001019060200180831161073f57829003601f168201915b5050505050905090565b600061077a610773611120565b8484611128565b6001905092915050565b6000600354905090565b600660019054906101000a900473ffffffffffffffffffffffffffffffffffffffff1681565b60006107c184848461131f565b610882846107cd611120565b61087d85604051806060016040528060288152602001611bbe60289139600260008b73ffffffffffffffffffffffffffffffffffffffff1673ffffffffffffffffffffffffffffffffffffffff1681526020019081526020016000206000610833611120565b73ffffffffffffffffffffffffffffffffffffffff1673ffffffffffffffffffffffffffffffffffffffff168152602001908152602001600020546115e49092919063ffffffff16565b611128565b600190509392505050565b6000600660009054906101000a900460ff16905090565b600061094d6108b1611120565b8461094885600260006108c2611120565b73ffffffffffffffffffffffffffffffffffffffff1673ffffffffffffffffffffffffffffffffffffffff16815260200190815260200160002060008973ffffffffffffffffffffffffffffffffffffffff1673ffffffffffffffffffffffffffffffffffffffff168152602001908152602001600020546116a490919063ffffffff16565b611128565b6001905092915050565b61095f611120565b73ffffffffffffffffffffffffffffffffffffffff166000809054906101000a900473ffffffffffffffffffffffffffffffffffffffff1673ffffffffffffffffffffffffffffffffffffffff1614610a20576040517f08c379a00000000000000000000000000000000000000000000000000000000081526004018080602001828103825260208152602001807f4f776e61626c653a2063616c6c6572206973206e6f7420746865206f776e657281525060200191505060405180910390fd5b610a2a828261172c565b5050565b6000600160008373ffffffffffffffffffffffffffffffffffffffff1673ffffffffffffffffffffffffffffffffffffffff168152602001908152602001600020549050919050565b610a7f611120565b73ffffffffffffffffffffffffffffffffffffffff166000809054906101000a900473ffffffffffffffffffffffffffffffffffffffff1673ffffffffffffffffffffffffffffffffffffffff1614610b40576040517f08c379a00000000000000000000000000000000000000000000000000000000081526004018080602001828103825260208152602001807f4f776e61626c653a2063616c6c6572206973206e6f7420746865206f776e657281525060200191505060405180910390fd5b600073ffffffffffffffffffffffffffffffffffffffff166000809054906101000a900473ffffffffffffffffffffffffffffffffffffffff1673ffffffffffffffffffffffffffffffffffffffff167f8be0079c531659141344cd1fd0a4f28419497f9722a3daafe3b4186f6b6457e060405160405180910390a360008060006101000a81548173ffffffffffffffffffffffffffffffffffffffff021916908373ffffffffffffffffffffffffffffffffffffffff160217905550565b60008060009054906101000a900473ffffffffffffffffffffffffffffffffffffffff16905090565b606060058054600181600116156101000203166002900480601f016020809104026020016040519081016040528092919081815260200182805460018160011615610100020316600290048015610cc05780601f10610c9557610100808354040283529160200191610cc0565b820191906000526020600020905b815481529060010190602001808311610ca357829003601f168201915b5050505050905090565b610cd2611120565b73ffffffffffffffffffffffffffffffffffffffff166000809054906101000a900473ffffffffffffffffffffffffffffffffffffffff1673ffffffffffffffffffffffffffffffffffffffff1614610d93576040517f08c379a00000000000000000000000000000000000000000000000000000000081526004018080602001828103825260208152602001807f4f776e61626c653a2063616c6c6572206973206e6f7420746865206f776e657281525060200191505060405180910390fd5b610d9d82826118f5565b5050565b6000610e64610dae611120565b84610e5f85604051806060016040528060258152602001611c506025913960026000610dd8611120565b73ffffffffffffffffffffffffffffffffffffffff1673ffffffffffffffffffffffffffffffffffffffff16815260200190815260200160002060008a73ffffffffffffffffffffffffffffffffffffffff1673ffffffffffffffffffffffffffffffffffffffff168152602001908152602001600020546115e49092919063ffffffff16565b611128565b6001905092915050565b6000610e82610e7b611120565b848461131f565b6001905092915050565b6000600260008473ffffffffffffffffffffffffffffffffffffffff1673ffffffffffffffffffffffffffffffffffffffff16815260200190815260200160002060008373ffffffffffffffffffffffffffffffffffffffff1673ffffffffffffffffffffffffffffffffffffffff16815260200190815260200160002054905092915050565b610f1b611120565b73ffffffffffffffffffffffffffffffffffffffff166000809054906101000a900473ffffffffffffffffffffffffffffffffffffffff1673ffffffffffffffffffffffffffffffffffffffff1614610fdc576040517f08c379a00000000000000000000000000000000000000000000000000000000081526004018080602001828103825260208152602001807f4f776e61626c653a2063616c6c6572206973206e6f7420746865206f776e657281525060200191505060405180910390fd5b600073ffffffffffffffffffffffffffffffffffffffff168173ffffffffffffffffffffffffffffffffffffffff161415611062576040517f08c379a0000000000000000000000000000000000000000000000000000000008152600401808060200182810382526026815260200180611b506026913960400191505060405180910390fd5b8073ffffffffffffffffffffffffffffffffffffffff166000809054906101000a900473ffffffffffffffffffffffffffffffffffffffff1673ffffffffffffffffffffffffffffffffffffffff167f8be0079c531659141344cd1fd0a4f28419497f9722a3daafe3b4186f6b6457e060405160405180910390a3806000806101000a81548173ffffffffffffffffffffffffffffffffffffffff021916908373ffffffffffffffffffffffffffffffffffffffff16021790555050565b600033905090565b600073ffffffffffffffffffffffffffffffffffffffff168373ffffffffffffffffffffffffffffffffffffffff1614156111ae576040517f08c379a0000000000000000000000000000000000000000000000000000000008152600401808060200182810382526024815260200180611c2c6024913960400191505060405180910390fd5b600073ffffffffffffffffffffffffffffffffffffffff168273ffffffffffffffffffffffffffffffffffffffff161415611234576040517f08c379a0000000000000000000000000000000000000000000000000000000008152600401808060200182810382526022815260200180611b766022913960400191505060405180910390fd5b80600260008573ffffffffffffffffffffffffffffffffffffffff1673ffffffffffffffffffffffffffffffffffffffff16815260200190815260200160002060008473ffffffffffffffffffffffffffffffffffffffff1673ffffffffffffffffffffffffffffffffffffffff168152602001908152602001600020819055508173ffffffffffffffffffffffffffffffffffffffff168373ffffffffffffffffffffffffffffffffffffffff167f8c5be1e5ebec7d5bd14f71427d1e84f3dd0314c0f7b2291e5b200ac8c7c3b925836040518082815260200191505060405180910390a3505050565b600073ffffffffffffffffffffffffffffffffffffffff168373ffffffffffffffffffffffffffffffffffffffff1614156113a5576040517f08c379a0000000000000000000000000000000000000000000000000000000008152600401808060200182810382526025815260200180611c076025913960400191505060405180910390fd5b600073ffffffffffffffffffffffffffffffffffffffff168273ffffffffffffffffffffffffffffffffffffffff16141561142b576040517f08c379a0000000000000000000000000000000000000000000000000000000008152600401808060200182810382526023815260200180611b0b6023913960400191505060405180910390fd5b611436838383611abb565b6114a281604051806060016040528060268152602001611b9860269139600160008773ffffffffffffffffffffffffffffffffffffffff1673ffffffffffffffffffffffffffffffffffffffff168152602001908152602001600020546115e49092919063ffffffff16565b600160008573ffffffffffffffffffffffffffffffffffffffff1673ffffffffffffffffffffffffffffffffffffffff1681526020019081526020016000208190555061153781600160008573ffffffffffffffffffffffffffffffffffffffff1673ffffffffffffffffffffffffffffffffffffffff168152602001908152602001600020546116a490919063ffffffff16565b600160008473ffffffffffffffffffffffffffffffffffffffff1673ffffffffffffffffffffffffffffffffffffffff168152602001908152602001600020819055508173ffffffffffffffffffffffffffffffffffffffff168373ffffffffffffffffffffffffffffffffffffffff167fddf252ad1be2c89b69c2b068fc378daa952ba7f163c4a11628f55a4df523b3ef836040518082815260200191505060405180910390a3505050565b6000838311158290611691576040517f08c379a00000000000000000000000000000000000000000000000000000000081526004018080602001828103825283818151815260200191508051906020019080838360005b8381101561165657808201518184015260208101905061163b565b50505050905090810190601f1680156116835780820380516001836020036101000a031916815260200191505b509250505060405180910390fd5b5060008385039050809150509392505050565b600080828401905083811015611722576040517f08c379a000000000000000000000000000000000000000000000000000000000815260040180806020018281038252601b8152602001807f536166654d6174683a206164646974696f6e206f766572666c6f77000000000081525060200191505060405180910390fd5b8091505092915050565b600073ffffffffffffffffffffffffffffffffffffffff168273ffffffffffffffffffffffffffffffffffffffff1614156117cf576040517f08c379a000000000000000000000000000000000000000000000000000000000815260040180806020018281038252601f8152602001807f45524332303a206d696e7420746f20746865207a65726f20616464726573730081525060200191505060405180910390fd5b6117db60008383611abb565b6117f0816003546116a490919063ffffffff16565b60038190555061184881600160008573ffffffffffffffffffffffffffffffffffffffff1673ffffffffffffffffffffffffffffffffffffffff168152602001908152602001600020546116a490919063ffffffff16565b600160008473ffffffffffffffffffffffffffffffffffffffff1673ffffffffffffffffffffffffffffffffffffffff168152602001908152602001600020819055508173ffffffffffffffffffffffffffffffffffffffff16600073ffffffffffffffffffffffffffffffffffffffff167fddf252ad1be2c89b69c2b068fc378daa952ba7f163c4a11628f55a4df523b3ef836040518082815260200191505060405180910390a35050565b600073ffffffffffffffffffffffffffffffffffffffff168273ffffffffffffffffffffffffffffffffffffffff16141561197b576040517f08c379a0000000000000000000000000000000000000000000000000000000008152600401808060200182810382526021815260200180611be66021913960400191505060405180910390fd5b61198782600083611abb565b6119f381604051806060016040528060228152602001611b2e60229139600160008673ffffffffffffffffffffffffffffffffffffffff1673ffffffffffffffffffffffffffffffffffffffff168152602001908152602001600020546115e49092919063ffffffff16565b600160008473ffffffffffffffffffffffffffffffffffffffff1673ffffffffffffffffffffffffffffffffffffffff16815260200190815260200160002081905550611a4b81600354611ac090919063ffffffff16565b600381905550600073ffffffffffffffffffffffffffffffffffffffff168273ffffffffffffffffffffffffffffffffffffffff167fddf252ad1be2c89b69c2b068fc378daa952ba7f163c4a11628f55a4df523b3ef836040518082815260200191505060405180910390a35050565b505050565b6000611b0283836040518060400160405280601e81526020017f536166654d6174683a207375627472616374696f6e206f766572666c6f7700008152506115e4565b90509291505056fe45524332303a207472616e7366657220746f20746865207a65726f206164647265737345524332303a206275726e20616d6f756e7420657863656564732062616c616e63654f776e61626c653a206e6577206f776e657220697320746865207a65726f206164647265737345524332303a20617070726f766520746f20746865207a65726f206164647265737345524332303a207472616e7366657220616d6f756e7420657863656564732062616c616e636545524332303a207472616e7366657220616d6f756e74206578636565647320616c6c6f77616e636545524332303a206275726e2066726f6d20746865207a65726f206164647265737345524332303a207472616e736665722066726f6d20746865207a65726f206164647265737345524332303a20617070726f76652066726f6d20746865207a65726f206164647265737345524332303a2064656372656173656420616c6c6f77616e63652062656c6f77207a65726fa26469706673582212206577b5b5cdaf84983598e8ec0100e82dc8fa01faf8f44a762e7da404461d37bc64736f6c634300060600334f776e61626c653a206e6577206f776e657220697320746865207a65726f206164647265737360806040523480156200001157600080fd5b5060405162000e6638038062000e66833981810160405260a08110156200003757600080fd5b810190808051906020019092919080519060200190929190805190602001909291908051906020019092919080519060200190929190505050806000806101000a81548173ffffffffffffffffffffffffffffffffffffffff021916908373ffffffffffffffffffffffffffffffffffffffff160217905550620000c485858585620000cf60201b60201c565b50505050506200037e565b620000ec6220148085620001d660201b620006b41790919060201c565b600281905550620001496200011382622014806200022860201b6200062e1790919060201c565b62000135670de0b6b3a7640000866200022860201b6200062e1790919060201c565b620001d660201b620006b41790919060201c565b6001819055506200016c6220148083620001d660201b620006b41790919060201c565b600381905550806004819055507f6960ab234c7ef4b0c9197100f5393cfcde7c453ac910a27bd2000aa1dd4c068d6002546001546003546004546040518085815260200184815260200183815260200182815260200194505050505060405180910390a150505050565b60006200022083836040518060400160405280601a81526020017f536166654d6174683a206469766973696f6e206279207a65726f000000000000815250620002b360201b60201c565b905092915050565b6000808314156200023d5760009050620002ad565b60008284029050828482816200024f57fe5b0414620002a8576040517f08c379a000000000000000000000000000000000000000000000000000000000815260040180806020018281038252602181526020018062000e456021913960400191505060405180910390fd5b809150505b92915050565b6000808311829062000363576040517f08c379a00000000000000000000000000000000000000000000000000000000081526004018080602001828103825283818151815260200191508051906020019080838360005b83811015620003275780820151818401526020810190506200030a565b50505050905090810190601f168015620003555780820380516001836020036101000a031916815260200191505b509250505060405180910390fd5b5060008385816200037057fe5b049050809150509392505050565b610ab7806200038e6000396000f3fe608060405234801561001057600080fd5b50600436106100a95760003560e01c80638da5cb5b116100715780638da5cb5b146101e6578063a385fb9614610230578063b81688161461024e578063b9f9850a146102ae578063f14039de146102cc578063fd2da339146102ea576100a9565b806315f24053146100ae5780632037f3e7146101045780632191f92a146101505780636e71e2d8146101725780638726bb89146101c8575b600080fd5b6100ee600480360360608110156100c457600080fd5b81019080803590602001909291908035906020019092919080359060200190929190505050610308565b6040518082815260200191505060405180910390f35b61014e6004803603608081101561011a57600080fd5b810190808035906020019092919080359060200190929190803590602001909291908035906020019092919050505061041c565b005b6101586104d3565b604051808215151515815260200191505060405180910390f35b6101b26004803603606081101561018857600080fd5b810190808035906020019092919080359060200190929190803590602001909291905050506104d8565b6040518082815260200191505060405180910390f35b6101d0610546565b6040518082815260200191505060405180910390f35b6101ee61054c565b604051808273ffffffffffffffffffffffffffffffffffffffff1673ffffffffffffffffffffffffffffffffffffffff16815260200191505060405180910390f35b610238610571565b6040518082815260200191505060405180910390f35b6102986004803603608081101561026457600080fd5b8101908080359060200190929190803590602001909291908035906020019092919080359060200190929190505050610578565b6040518082815260200191505060405180910390f35b6102b661061c565b6040518082815260200191505060405180910390f35b6102d4610622565b6040518082815260200191505060405180910390f35b6102f2610628565b6040518082815260200191505060405180910390f35b6000806103168585856104d8565b9050600454811161036c57610364600254610356670de0b6b3a76400006103486001548661062e90919063ffffffff16565b6106b490919063ffffffff16565b6106fe90919063ffffffff16565b915050610415565b60006103b36002546103a5670de0b6b3a764000061039760015460045461062e90919063ffffffff16565b6106b490919063ffffffff16565b6106fe90919063ffffffff16565b905060006103cc6004548461078690919063ffffffff16565b905061040f82610401670de0b6b3a76400006103f36003548661062e90919063ffffffff16565b6106b490919063ffffffff16565b6106fe90919063ffffffff16565b93505050505b9392505050565b6000809054906101000a900473ffffffffffffffffffffffffffffffffffffffff1673ffffffffffffffffffffffffffffffffffffffff163373ffffffffffffffffffffffffffffffffffffffff16146104c1576040517f08c379a0000000000000000000000000000000000000000000000000000000008152600401808060200182810382526026815260200180610a5c6026913960400191505060405180910390fd5b6104cd848484846107d0565b50505050565b600181565b6000808314156104eb576000905061053f565b61053c6105138361050586886106fe90919063ffffffff16565b61078690919063ffffffff16565b61052e670de0b6b3a76400008661062e90919063ffffffff16565b6106b490919063ffffffff16565b90505b9392505050565b60015481565b6000809054906101000a900473ffffffffffffffffffffffffffffffffffffffff1681565b6220148081565b60008061059683670de0b6b3a764000061078690919063ffffffff16565b905060006105a5878787610308565b905060006105d6670de0b6b3a76400006105c8858561062e90919063ffffffff16565b6106b490919063ffffffff16565b905061060f670de0b6b3a7640000610601836105f38c8c8c6104d8565b61062e90919063ffffffff16565b6106b490919063ffffffff16565b9350505050949350505050565b60035481565b60025481565b60045481565b60008083141561064157600090506106ae565b600082840290508284828161065257fe5b04146106a9576040517f08c379a0000000000000000000000000000000000000000000000000000000008152600401808060200182810382526021815260200180610a3b6021913960400191505060405180910390fd5b809150505b92915050565b60006106f683836040518060400160405280601a81526020017f536166654d6174683a206469766973696f6e206279207a65726f0000000000008152506108b4565b905092915050565b60008082840190508381101561077c576040517f08c379a000000000000000000000000000000000000000000000000000000000815260040180806020018281038252601b8152602001807f536166654d6174683a206164646974696f6e206f766572666c6f77000000000081525060200191505060405180910390fd5b8091505092915050565b60006107c883836040518060400160405280601e81526020017f536166654d6174683a207375627472616374696f6e206f766572666c6f77000081525061097a565b905092915050565b6107e662201480856106b490919063ffffffff16565b60028190555061082e610805826220148061062e90919063ffffffff16565b610820670de0b6b3a76400008661062e90919063ffffffff16565b6106b490919063ffffffff16565b60018190555061084a62201480836106b490919063ffffffff16565b600381905550806004819055507f6960ab234c7ef4b0c9197100f5393cfcde7c453ac910a27bd2000aa1dd4c068d6002546001546003546004546040518085815260200184815260200183815260200182815260200194505050505060405180910390a150505050565b60008083118290610960576040517f08c379a00000000000000000000000000000000000000000000000000000000081526004018080602001828103825283818151815260200191508051906020019080838360005b8381101561092557808201518184015260208101905061090a565b50505050905090810190601f1680156109525780820380516001836020036101000a031916815260200191505b509250505060405180910390fd5b50600083858161096c57fe5b049050809150509392505050565b6000838311158290610a27576040517f08c379a00000000000000000000000000000000000000000000000000000000081526004018080602001828103825283818151815260200191508051906020019080838360005b838110156109ec5780820151818401526020810190506109d1565b50505050905090810190601f168015610a195780820380516001836020036101000a031916815260200191505b509250505060405180910390fd5b506000838503905080915050939250505056fe536166654d6174683a206d756c7469706c69636174696f6e206f766572666c6f776f6e6c7920746865206f776e6572206d61792063616c6c20746869732066756e6374696f6e2ea2646970667358221220cdb334df62830a28f8dc457187b63f9f2662aba2e50e57b491699a8718590e6764736f6c63430006060033536166654d6174683a206d756c7469706c69636174696f6e206f766572666c6f774f776e61626c653a206e6577206f776e657220697320746865207a65726f2061646472657373496e73756666696365696e7420414c522062616c616e636520666f722074686973206173736574a2646970667358221220f32749c4d3a7be866870ba6d6f8d5edb69ffa1d1f82b34a008eceaef4064eac364736f6c63430006060033",
  "immutableReferences": {},
  "source": "pragma solidity ^0.6.2;\n\nimport \"@openzeppelin/contracts/access/Ownable.sol\";\nimport \"./MoneyMarketInstance.sol\";\nimport \"./interfaces/UniswapOracleFactoryI.sol\";\nimport \"./interfaces/UniswapOracleInstanceI.sol\";\nimport \"./interestTools/JumpRateModelV2.sol\";\n\n////////////////////////////////////////////////////////////////////////////////////////////\n/// @title MoneyMarketFactory\n/// @author Christopher Dixon\n////////////////////////////////////////////////////////////////////////////////////////////\n/**\nThe MoneyMarketFactory contract is designed to produce individual MoneyMarketInstance contracts\nThis contract uses the OpenZeppelin contract Library to inherit functions from\n  Ownable.sol\n**/\n\ncontract MoneyMarketFactory is Ownable {\n  using SafeMath for uint256;\n\n\n\n  uint public instanceCount;//tracks the number of instances\n  address public usdc;//address of stablecoin for $ amounts through the oracle\n  address public factoryU;//address of the uniswap factory to be passed to the oracle factory\n\n  UniswapOracleFactoryI public Oracle;//oracle factory contract interface\n\n  mapping(address => address) public instanceTracker; //maps erc20 address to the assets MoneyMarketInstance\n  mapping(address => address) public _ALRtracker; // tracks a money markets address to its ALR token.\n  mapping(address => address) public oracleTracker; //maps a MM oracle to its Money market address\n  mapping(address => mapping(address => uint)) public collateralized;// maps a users address to MoneyMakerInstance address to the amount of ALR STAKED\n  mapping(address => address[]) public stakedALRs;//tracks which Money Markets a user has ALRs staked in.\n/**\n@notice the constructor function is fired during the contract deployment process. The constructor can only be fired once and\n        is used to set up the usdc, factoryU, and Oracle variables for the MoneyMarketFactory contract.\n@param _usdc is the contract address for the USDC stablecoin contract\n@param _factoryU is the address for the uniswap factory contract\n@param _oracle is the address for the UniswapOracleFactorycontract\n**/\nconstructor (address _usdc, address _factoryU, address _oracle) public {\n  usdc = _usdc;\n  factoryU = _factoryU;\n  Oracle = UniswapOracleFactoryI(_oracle);\n}\n\n/**\n@notice whitelistAsset is an onlyOwner function designed to be called by the AskoDAO.\n        This function creates a new MoneyMarketInstancecontract for an input asset as well\n        as a UniswapOracleInstance for the asset.\n@param _assetContractAdd is the address of the ERC20 asset being whitelisted\n@param _assetName is the name of the asset(e.x: ChainLink)\n@param _assetSymbol is the symbol of the asset(e.x: LINK)\n**/\n  function whitelistAsset(\n    address _assetContractAdd,\n\t\tstring memory _assetName,\n\t\tstring memory _assetSymbol\n  )\n  public\n  onlyOwner\n  {\n    instanceCount++;\n    address oracle = address(Oracle.createNewOracle(factoryU, _assetContractAdd, usdc));\n\n\n    address _MMinstance = address(new MoneyMarketInstance (\n       _assetContractAdd,\n       msg.sender,\n       oracle,\n  \t\t _assetName,\n  \t\t _assetSymbol\n    ));\n    instanceTracker[_assetContractAdd] = _MMinstance;\n    oracleTracker[_MMinstance] = oracle;\n  }\n\n/**\n@notice setUpMoneyMarket\n**/\n  function setUpMoneyMarket(\n    uint _collateralizationRatio,\n    uint _baseRatePerYear,\n    uint _multiplierPerYear,\n    uint _jumpMultiplierPerYear,\n    uint _optimal,\n    uint _fee,\n    address _owner,\n    address _assetContractAdd\n  )\n  public\n  {\n    MoneyMarketInstance _MMI = MoneyMarketInstance(instanceTracker[_assetContractAdd]);\n\n    address interestRateModel = address( new JumpRateModelV2(\n      _baseRatePerYear,\n      _multiplierPerYear,\n      _jumpMultiplierPerYear,\n      _optimal,\n      _owner\n    ));\n\n_MMI.setUp(\n  _collateralizationRatio,\n  _baseRatePerYear,\n  _multiplierPerYear,\n  _jumpMultiplierPerYear,\n  _optimal,\n  _fee,\n  interestRateModel\n);\n  }\n\n/**\n@notice stakeALR allows a user to stake his ALR as collateral so that he can borrow from an Money market\n@param _MMinstance is the address of the instance that owns the ALR token the user wishes to stake\n@param _amount is the amount of ALR token the user wishes to stake\n**/\n  function stakeALR(address _MMinstance, uint _amount) public {\n    MoneyMarketInstance _MMI = MoneyMarketInstance(_MMinstance);\n    AskoLowRisk _ALR = AskoLowRisk(_MMI.getALRadd());\n    require(_ALR.balanceOf(msg.sender) >= _amount, \"Insufficeint ALR balance for this asset\");\n    _MMI.factoryBurn(msg.sender, _amount);\n    collateralized[msg.sender][_MMinstance] = _amount;\n    stakedALRs[msg.sender].push(_MMinstance);\n  }\n\n/**\n@notice getTotalStakeValue calculates the total USDC value of all of the ALR tokens a user has staked\n@param _usersAdd is the address of the user whos stake value is being looked up\n@return is the uint amount of USDC value for all of a users staked ALR\n**/\nfunction getTotalStakeValue(address _usersAdd) public view returns(uint) {\n  uint totalAmountStaked;\n\n  for (uint i = 0; i < stakedALRs[_usersAdd].length; i++) {\n           address _MMI = stakedALRs[_usersAdd][i];\n           uint amountStaked = collateralized[_usersAdd][_MMI];\n           UniswapOracleInstanceI oracle = UniswapOracleInstanceI(oracleTracker[_MMI]);\n           uint usdPrice = oracle.consult(amountStaked);\n           totalAmountStaked.add(usdPrice);\n       }\n\n       return totalAmountStaked;\n}\n\n/**\n@notice addCollateral is used to add collateral to\n@param _MMinstance is the address of the MoneyMarketInstance where the collateral is being added\n@param _amount is the amount of asset being repayed\n**/\n  \tfunction addCollateral(address _MMinstance, uint _amount) public {\n      MoneyMarketInstance _MMI = MoneyMarketInstance(_MMinstance);\n      AskoLowRisk _ALR = AskoLowRisk(_MMI.getALRadd());\n      require(_ALR.balanceOf(msg.sender) >= _amount, \"Insufficeint ALR balance for this asset\");\n      _MMI.factoryBurn(msg.sender, _amount);\n      collateralized[msg.sender][_MMinstance] = collateralized[msg.sender][_MMinstance].add(_amount);\n    }\n\n\n\n/**\n@notice _repay is an external function called by a MoneyMarketInstance to signify that a loan has been repayed by a user\n@param _MMinstance is the address of the MoneyMarketInstance where the loan was payed off\n@param _userAdd is the address of the user who payed this loan off\n**/\n    function _repay(address _MMinstance, address _userAdd) external {\n      MoneyMarketInstance _MMI = MoneyMarketInstance(_MMinstance);\n      uint _amount = collateralized[_userAdd][_MMinstance];\n      _MMI.factoryMint(msg.sender, _amount);\n      collateralized[_userAdd][_MMinstance] = 0;\n    }\n\n}\n",
  "sourcePath": "/home/stan36/repos/Askolend/smart-contracts/contracts/MoneyMarketFactory.sol",
  "compiler": {
    "name": "solc",
    "version": "0.6.6+commit.6c089d02.Emscripten.clang"
  },
  "schemaVersion": "3.2.4",
  "updatedAt": "2020-09-18T02:03:21.951Z",
  "devdoc": {
    "methods": {
      "_repay(address,address)": {
        "params": {
          "_MMinstance": "is the address of the MoneyMarketInstance where the loan was payed off",
          "_userAdd": "is the address of the user who payed this loan off*"
        }
      },
      "addCollateral(address,uint256)": {
        "params": {
          "_MMinstance": "is the address of the MoneyMarketInstance where the collateral is being added",
          "_amount": "is the amount of asset being repayed*"
        }
      },
      "constructor": {
        "params": {
          "_factoryU": "is the address for the uniswap factory contract",
          "_oracle": "is the address for the UniswapOracleFactorycontract*",
          "_usdc": "is the contract address for the USDC stablecoin contract"
        }
      },
      "getTotalStakeValue(address)": {
        "params": {
          "_usersAdd": "is the address of the user whos stake value is being looked up"
        },
        "returns": {
          "_0": "is the uint amount of USDC value for all of a users staked ALR*"
        }
      },
      "owner()": {
        "details": "Returns the address of the current owner."
      },
      "renounceOwnership()": {
        "details": "Leaves the contract without owner. It will not be possible to call `onlyOwner` functions anymore. Can only be called by the current owner.     * NOTE: Renouncing ownership will leave the contract without an owner, thereby removing any functionality that is only available to the owner."
      },
      "stakeALR(address,uint256)": {
        "params": {
          "_MMinstance": "is the address of the instance that owns the ALR token the user wishes to stake",
          "_amount": "is the amount of ALR token the user wishes to stake*"
        }
      },
      "transferOwnership(address)": {
        "details": "Transfers ownership of the contract to a new account (`newOwner`). Can only be called by the current owner."
      },
      "whitelistAsset(address,string,string)": {
        "params": {
          "_assetContractAdd": "is the address of the ERC20 asset being whitelisted",
          "_assetName": "is the name of the asset(e.x: ChainLink)",
          "_assetSymbol": "is the symbol of the asset(e.x: LINK)*"
        }
      }
    }
  },
  "userdoc": {
    "methods": {
      "_repay(address,address)": {
        "notice": "_repay is an external function called by a MoneyMarketInstance to signify that a loan has been repayed by a user"
      },
      "addCollateral(address,uint256)": {
        "notice": "addCollateral is used to add collateral to"
      },
      "constructor": "the constructor function is fired during the contract deployment process. The constructor can only be fired once and is used to set up the usdc, factoryU, and Oracle variables for the MoneyMarketFactory contract.",
      "getTotalStakeValue(address)": {
        "notice": "getTotalStakeValue calculates the total USDC value of all of the ALR tokens a user has staked"
      },
      "setUpMoneyMarket(uint256,uint256,uint256,uint256,uint256,uint256,address,address)": {
        "notice": "setUpMoneyMarket*"
      },
      "stakeALR(address,uint256)": {
        "notice": "stakeALR allows a user to stake his ALR as collateral so that he can borrow from an Money market"
      },
      "whitelistAsset(address,string,string)": {
        "notice": "whitelistAsset is an onlyOwner function designed to be called by the AskoDAO. This function creates a new MoneyMarketInstancecontract for an input asset as well as a UniswapOracleInstance for the asset."
      }
    },
    "notice": "The MoneyMarketFactory contract is designed to produce individual MoneyMarketInstance contracts This contract uses the OpenZeppelin contract Library to inherit functions from Ownable.sol*"
  }
}