{
  "contractName": "MoneyMarketFactory",
  "abi": [
    {
      "inputs": [
        {
          "internalType": "address",
          "name": "_usdc",
          "type": "address"
        },
        {
          "internalType": "address",
          "name": "_factoryU",
          "type": "address"
        },
        {
          "internalType": "address",
          "name": "_oracle",
          "type": "address"
        }
      ],
      "stateMutability": "nonpayable",
      "type": "constructor"
    },
    {
      "anonymous": false,
      "inputs": [
        {
          "indexed": true,
          "internalType": "address",
          "name": "previousOwner",
          "type": "address"
        },
        {
          "indexed": true,
          "internalType": "address",
          "name": "newOwner",
          "type": "address"
        }
      ],
      "name": "OwnershipTransferred",
      "type": "event"
    },
    {
      "inputs": [],
      "name": "Oracle",
      "outputs": [
        {
          "internalType": "contract UniswapOracleFactoryI",
          "name": "",
          "type": "address"
        }
      ],
      "stateMutability": "view",
      "type": "function"
    },
    {
      "inputs": [
        {
          "internalType": "address",
          "name": "",
          "type": "address"
        }
      ],
      "name": "_ALRtracker",
      "outputs": [
        {
          "internalType": "address",
          "name": "",
          "type": "address"
        }
      ],
      "stateMutability": "view",
      "type": "function"
    },
    {
      "inputs": [
        {
          "internalType": "address",
          "name": "",
          "type": "address"
        },
        {
          "internalType": "address",
          "name": "",
          "type": "address"
        }
      ],
      "name": "collateralized",
      "outputs": [
        {
          "internalType": "uint256",
          "name": "",
          "type": "uint256"
        }
      ],
      "stateMutability": "view",
      "type": "function"
    },
    {
      "inputs": [],
      "name": "factoryU",
      "outputs": [
        {
          "internalType": "address",
          "name": "",
          "type": "address"
        }
      ],
      "stateMutability": "view",
      "type": "function"
    },
    {
      "inputs": [],
      "name": "instanceCount",
      "outputs": [
        {
          "internalType": "uint256",
          "name": "",
          "type": "uint256"
        }
      ],
      "stateMutability": "view",
      "type": "function"
    },
    {
      "inputs": [
        {
          "internalType": "address",
          "name": "",
          "type": "address"
        }
      ],
      "name": "instanceTracker",
      "outputs": [
        {
          "internalType": "address",
          "name": "",
          "type": "address"
        }
      ],
      "stateMutability": "view",
      "type": "function"
    },
    {
      "inputs": [
        {
          "internalType": "address",
          "name": "",
          "type": "address"
        }
      ],
      "name": "oracleTracker",
      "outputs": [
        {
          "internalType": "address",
          "name": "",
          "type": "address"
        }
      ],
      "stateMutability": "view",
      "type": "function"
    },
    {
      "inputs": [],
      "name": "owner",
      "outputs": [
        {
          "internalType": "address",
          "name": "",
          "type": "address"
        }
      ],
      "stateMutability": "view",
      "type": "function"
    },
    {
      "inputs": [],
      "name": "renounceOwnership",
      "outputs": [],
      "stateMutability": "nonpayable",
      "type": "function"
    },
    {
      "inputs": [
        {
          "internalType": "address",
          "name": "",
          "type": "address"
        },
        {
          "internalType": "uint256",
          "name": "",
          "type": "uint256"
        }
      ],
      "name": "stakedALRs",
      "outputs": [
        {
          "internalType": "address",
          "name": "",
          "type": "address"
        }
      ],
      "stateMutability": "view",
      "type": "function"
    },
    {
      "inputs": [
        {
          "internalType": "address",
          "name": "newOwner",
          "type": "address"
        }
      ],
      "name": "transferOwnership",
      "outputs": [],
      "stateMutability": "nonpayable",
      "type": "function"
    },
    {
      "inputs": [],
      "name": "usdc",
      "outputs": [
        {
          "internalType": "address",
          "name": "",
          "type": "address"
        }
      ],
      "stateMutability": "view",
      "type": "function"
    },
    {
      "inputs": [
        {
          "internalType": "address",
          "name": "_assetContractAdd",
          "type": "address"
        },
        {
          "internalType": "string",
          "name": "_assetName",
          "type": "string"
        },
        {
          "internalType": "string",
          "name": "_assetSymbol",
          "type": "string"
        }
      ],
      "name": "whitelistAsset",
      "outputs": [],
      "stateMutability": "nonpayable",
      "type": "function"
    },
    {
      "inputs": [
        {
          "internalType": "uint256",
          "name": "_baseRatePerYear",
          "type": "uint256"
        },
        {
          "internalType": "uint256",
          "name": "_multiplierPerYear",
          "type": "uint256"
        },
        {
          "internalType": "uint256",
          "name": "_jumpMultiplierPerYear",
          "type": "uint256"
        },
        {
          "internalType": "uint256",
          "name": "_optimal",
          "type": "uint256"
        },
        {
          "internalType": "uint256",
          "name": "_fee",
          "type": "uint256"
        },
        {
          "internalType": "address",
          "name": "_assetContractAdd",
          "type": "address"
        }
      ],
      "name": "setUpAHR",
      "outputs": [],
      "stateMutability": "nonpayable",
      "type": "function"
    },
    {
      "inputs": [
        {
          "internalType": "uint256",
          "name": "_baseRatePerYear",
          "type": "uint256"
        },
        {
          "internalType": "uint256",
          "name": "_multiplierPerYear",
          "type": "uint256"
        },
        {
          "internalType": "uint256",
          "name": "_jumpMultiplierPerYear",
          "type": "uint256"
        },
        {
          "internalType": "uint256",
          "name": "_optimal",
          "type": "uint256"
        },
        {
          "internalType": "uint256",
          "name": "_fee",
          "type": "uint256"
        },
        {
          "internalType": "address",
          "name": "_assetContractAdd",
          "type": "address"
        }
      ],
      "name": "setUpALR",
      "outputs": [],
      "stateMutability": "nonpayable",
      "type": "function"
    },
    {
      "inputs": [
        {
          "internalType": "address",
          "name": "_MMinstance",
          "type": "address"
        },
        {
          "internalType": "uint256",
          "name": "_amount",
          "type": "uint256"
        }
      ],
      "name": "stakeALR",
      "outputs": [],
      "stateMutability": "nonpayable",
      "type": "function"
    },
    {
      "inputs": [
        {
          "internalType": "address",
          "name": "_usersAdd",
          "type": "address"
        }
      ],
      "name": "getTotalStakeValue",
      "outputs": [
        {
          "internalType": "uint256",
          "name": "",
          "type": "uint256"
        }
      ],
      "stateMutability": "view",
      "type": "function"
    },
    {
      "inputs": [
        {
          "internalType": "address",
          "name": "_MMinstance",
          "type": "address"
        },
        {
          "internalType": "uint256",
          "name": "_amount",
          "type": "uint256"
        }
      ],
      "name": "addCollateral",
      "outputs": [],
      "stateMutability": "nonpayable",
      "type": "function"
    },
    {
      "inputs": [
        {
          "internalType": "address",
          "name": "_MMinstance",
          "type": "address"
        },
        {
          "internalType": "address",
          "name": "_userAdd",
          "type": "address"
        }
      ],
      "name": "_repay",
      "outputs": [],
      "stateMutability": "nonpayable",
      "type": "function"
    }
  ],
  "bytecode": "0x608060405234801561001057600080fd5b506040516200b7d83803806200b7d88339818101604052606081101561003557600080fd5b81019080805190602001909291908051906020019092919080519060200190929190505050600061006a6101d360201b60201c565b9050806000806101000a81548173ffffffffffffffffffffffffffffffffffffffff021916908373ffffffffffffffffffffffffffffffffffffffff1602179055508073ffffffffffffffffffffffffffffffffffffffff16600073ffffffffffffffffffffffffffffffffffffffff167f8be0079c531659141344cd1fd0a4f28419497f9722a3daafe3b4186f6b6457e060405160405180910390a35082600260006101000a81548173ffffffffffffffffffffffffffffffffffffffff021916908373ffffffffffffffffffffffffffffffffffffffff16021790555081600360006101000a81548173ffffffffffffffffffffffffffffffffffffffff021916908373ffffffffffffffffffffffffffffffffffffffff16021790555080600460006101000a81548173ffffffffffffffffffffffffffffffffffffffff021916908373ffffffffffffffffffffffffffffffffffffffff1602179055505050506101db565b600033905090565b61b5ed80620001eb6000396000f3fe60806040523480156200001157600080fd5b50600436106200013c5760003560e01c8063715018a611620000bd578063cc9bb74c116200007b578063cc9bb74c14620007a3578063eb8341b3146200081c578063ec56c71614620008a3578063f24a534e14620008c3578063f2fde38b146200090f576200013c565b8063715018a614620005ee57806374d840c114620005fa5780637fb7978f14620006755780638da5cb5b1462000706578063a4e642f21462000752576200013c565b806335862cc7116200010b57806335862cc714620004235780633ca0037b146200047e5780633e413bee146200050557806351e2279b14620005515780636d75b9ee146200059d576200013c565b80630ba7345d146200014157806321f2dd6914620002bc57806328736f6614620003355780633373a447146200039c575b600080fd5b620002ba600480360360608110156200015957600080fd5b81019080803573ffffffffffffffffffffffffffffffffffffffff169060200190929190803590602001906401000000008111156200019757600080fd5b820183602082011115620001aa57600080fd5b80359060200191846001830284011164010000000083111715620001cd57600080fd5b91908080601f016020809104026020016040519081016040528093929190818152602001838380828437600081840152601f19601f820116905080830192505050505050509192919290803590602001906401000000008111156200023157600080fd5b8201836020820111156200024457600080fd5b803590602001918460018302840111640100000000831117156200026757600080fd5b91908080601f016020809104026020016040519081016040528093929190818152602001838380828437600081840152601f19601f82011690508083019250505050505050919291929050505062000956565b005b62000333600480360360c0811015620002d457600080fd5b810190808035906020019092919080359060200190929190803590602001909291908035906020019092919080359060200190929190803573ffffffffffffffffffffffffffffffffffffffff16906020019092919050505062000e75565b005b6200039a600480360360408110156200034d57600080fd5b81019080803573ffffffffffffffffffffffffffffffffffffffff169060200190929190803573ffffffffffffffffffffffffffffffffffffffff1690602001909291905050506200100b565b005b620003e160048036036020811015620003b457600080fd5b81019080803573ffffffffffffffffffffffffffffffffffffffff169060200190929190505050620011ba565b604051808273ffffffffffffffffffffffffffffffffffffffff1673ffffffffffffffffffffffffffffffffffffffff16815260200191505060405180910390f35b62000468600480360360208110156200043b57600080fd5b81019080803573ffffffffffffffffffffffffffffffffffffffff169060200190929190505050620011ed565b6040518082815260200191505060405180910390f35b620004c3600480360360208110156200049657600080fd5b81019080803573ffffffffffffffffffffffffffffffffffffffff16906020019092919050505062001465565b604051808273ffffffffffffffffffffffffffffffffffffffff1673ffffffffffffffffffffffffffffffffffffffff16815260200191505060405180910390f35b6200050f62001498565b604051808273ffffffffffffffffffffffffffffffffffffffff1673ffffffffffffffffffffffffffffffffffffffff16815260200191505060405180910390f35b6200055b620014be565b604051808273ffffffffffffffffffffffffffffffffffffffff1673ffffffffffffffffffffffffffffffffffffffff16815260200191505060405180910390f35b620005ec60048036036040811015620005b557600080fd5b81019080803573ffffffffffffffffffffffffffffffffffffffff16906020019092919080359060200190929190505050620014e4565b005b620005f86200183e565b005b6200065f600480360360408110156200061257600080fd5b81019080803573ffffffffffffffffffffffffffffffffffffffff169060200190929190803573ffffffffffffffffffffffffffffffffffffffff169060200190929190505050620019c9565b6040518082815260200191505060405180910390f35b620006c4600480360360408110156200068d57600080fd5b81019080803573ffffffffffffffffffffffffffffffffffffffff16906020019092919080359060200190929190505050620019ee565b604051808273ffffffffffffffffffffffffffffffffffffffff1673ffffffffffffffffffffffffffffffffffffffff16815260200191505060405180910390f35b6200071062001a3a565b604051808273ffffffffffffffffffffffffffffffffffffffff1673ffffffffffffffffffffffffffffffffffffffff16815260200191505060405180910390f35b620007a1600480360360408110156200076a57600080fd5b81019080803573ffffffffffffffffffffffffffffffffffffffff1690602001909291908035906020019092919050505062001a63565b005b6200081a600480360360c0811015620007bb57600080fd5b810190808035906020019092919080359060200190929190803590602001909291908035906020019092919080359060200190929190803573ffffffffffffffffffffffffffffffffffffffff16906020019092919050505062001dcd565b005b62000861600480360360208110156200083457600080fd5b81019080803573ffffffffffffffffffffffffffffffffffffffff16906020019092919050505062001f63565b604051808273ffffffffffffffffffffffffffffffffffffffff1673ffffffffffffffffffffffffffffffffffffffff16815260200191505060405180910390f35b620008ad62001f96565b6040518082815260200191505060405180910390f35b620008cd62001f9c565b604051808273ffffffffffffffffffffffffffffffffffffffff1673ffffffffffffffffffffffffffffffffffffffff16815260200191505060405180910390f35b62000954600480360360208110156200092757600080fd5b81019080803573ffffffffffffffffffffffffffffffffffffffff16906020019092919050505062001fc2565b005b62000960620021d4565b73ffffffffffffffffffffffffffffffffffffffff166000809054906101000a900473ffffffffffffffffffffffffffffffffffffffff1673ffffffffffffffffffffffffffffffffffffffff161462000a22576040517f08c379a00000000000000000000000000000000000000000000000000000000081526004018080602001828103825260208152602001807f4f776e61626c653a2063616c6c6572206973206e6f7420746865206f776e657281525060200191505060405180910390fd5b6001600081548092919060010191905055506000600460009054906101000a900473ffffffffffffffffffffffffffffffffffffffff1673ffffffffffffffffffffffffffffffffffffffff1663a685cd1b600360009054906101000a900473ffffffffffffffffffffffffffffffffffffffff1686600260009054906101000a900473ffffffffffffffffffffffffffffffffffffffff166040518463ffffffff1660e01b8152600401808473ffffffffffffffffffffffffffffffffffffffff1673ffffffffffffffffffffffffffffffffffffffff1681526020018373ffffffffffffffffffffffffffffffffffffffff1673ffffffffffffffffffffffffffffffffffffffff1681526020018273ffffffffffffffffffffffffffffffffffffffff1673ffffffffffffffffffffffffffffffffffffffff1681526020019350505050602060405180830381600087803b15801562000b8457600080fd5b505af115801562000b99573d6000803e3d6000fd5b505050506040513d602081101562000bb057600080fd5b810190808051906020019092919050505090506000843383868660405162000bd89062002265565b808673ffffffffffffffffffffffffffffffffffffffff1673ffffffffffffffffffffffffffffffffffffffff1681526020018573ffffffffffffffffffffffffffffffffffffffff1673ffffffffffffffffffffffffffffffffffffffff1681526020018473ffffffffffffffffffffffffffffffffffffffff1673ffffffffffffffffffffffffffffffffffffffff1681526020018060200180602001838103835285818151815260200191508051906020019080838360005b8381101562000cb157808201518184015260208101905062000c94565b50505050905090810190601f16801562000cdf5780820380516001836020036101000a031916815260200191505b50838103825284818151815260200191508051906020019080838360005b8381101562000d1a57808201518184015260208101905062000cfd565b50505050905090810190601f16801562000d485780820380516001836020036101000a031916815260200191505b50975050505050505050604051809103906000f08015801562000d6f573d6000803e3d6000fd5b50905080600560008773ffffffffffffffffffffffffffffffffffffffff1673ffffffffffffffffffffffffffffffffffffffff16815260200190815260200160002060006101000a81548173ffffffffffffffffffffffffffffffffffffffff021916908373ffffffffffffffffffffffffffffffffffffffff16021790555081600760008373ffffffffffffffffffffffffffffffffffffffff1673ffffffffffffffffffffffffffffffffffffffff16815260200190815260200160002060006101000a81548173ffffffffffffffffffffffffffffffffffffffff021916908373ffffffffffffffffffffffffffffffffffffffff1602179055505050505050565b6000600560008373ffffffffffffffffffffffffffffffffffffffff1673ffffffffffffffffffffffffffffffffffffffff16815260200190815260200160002060009054906101000a900473ffffffffffffffffffffffffffffffffffffffff1690506000878787878560405162000eee9062002273565b808681526020018581526020018481526020018381526020018273ffffffffffffffffffffffffffffffffffffffff1673ffffffffffffffffffffffffffffffffffffffff16815260200195505050505050604051809103906000f08015801562000f5d573d6000803e3d6000fd5b5090508173ffffffffffffffffffffffffffffffffffffffff16636ccdd9f782866040518363ffffffff1660e01b8152600401808373ffffffffffffffffffffffffffffffffffffffff1673ffffffffffffffffffffffffffffffffffffffff16815260200182815260200192505050600060405180830381600087803b15801562000fe857600080fd5b505af115801562000ffd573d6000803e3d6000fd5b505050505050505050505050565b60008290506000600860008473ffffffffffffffffffffffffffffffffffffffff1673ffffffffffffffffffffffffffffffffffffffff16815260200190815260200160002060008573ffffffffffffffffffffffffffffffffffffffff1673ffffffffffffffffffffffffffffffffffffffff1681526020019081526020016000205490508173ffffffffffffffffffffffffffffffffffffffff1663a4f0ecd333836040518363ffffffff1660e01b8152600401808373ffffffffffffffffffffffffffffffffffffffff1673ffffffffffffffffffffffffffffffffffffffff16815260200182815260200192505050600060405180830381600087803b1580156200111957600080fd5b505af11580156200112e573d6000803e3d6000fd5b505050506000600860008573ffffffffffffffffffffffffffffffffffffffff1673ffffffffffffffffffffffffffffffffffffffff16815260200190815260200160002060008673ffffffffffffffffffffffffffffffffffffffff1673ffffffffffffffffffffffffffffffffffffffff1681526020019081526020016000208190555050505050565b60056020528060005260406000206000915054906101000a900473ffffffffffffffffffffffffffffffffffffffff1681565b60008060008090505b600960008573ffffffffffffffffffffffffffffffffffffffff1673ffffffffffffffffffffffffffffffffffffffff168152602001908152602001600020805490508110156200145b576000600960008673ffffffffffffffffffffffffffffffffffffffff1673ffffffffffffffffffffffffffffffffffffffff16815260200190815260200160002082815481106200128e57fe5b9060005260206000200160009054906101000a900473ffffffffffffffffffffffffffffffffffffffff1690506000600860008773ffffffffffffffffffffffffffffffffffffffff1673ffffffffffffffffffffffffffffffffffffffff16815260200190815260200160002060008373ffffffffffffffffffffffffffffffffffffffff1673ffffffffffffffffffffffffffffffffffffffff1681526020019081526020016000205490506000600760008473ffffffffffffffffffffffffffffffffffffffff1673ffffffffffffffffffffffffffffffffffffffff16815260200190815260200160002060009054906101000a900473ffffffffffffffffffffffffffffffffffffffff16905060008173ffffffffffffffffffffffffffffffffffffffff166361e25d83846040518263ffffffff1660e01b81526004018082815260200191505060206040518083038186803b158015620013f457600080fd5b505afa15801562001409573d6000803e3d6000fd5b505050506040513d60208110156200142057600080fd5b81019080805190602001909291905050509050620014488187620021dc90919063ffffffff16565b50505050508080600101915050620011f6565b5080915050919050565b60066020528060005260406000206000915054906101000a900473ffffffffffffffffffffffffffffffffffffffff1681565b600260009054906101000a900473ffffffffffffffffffffffffffffffffffffffff1681565b600360009054906101000a900473ffffffffffffffffffffffffffffffffffffffff1681565b600082905060008173ffffffffffffffffffffffffffffffffffffffff166361e03cd26040518163ffffffff1660e01b815260040160206040518083038186803b1580156200153257600080fd5b505afa15801562001547573d6000803e3d6000fd5b505050506040513d60208110156200155e57600080fd5b81019080805190602001909291905050509050828173ffffffffffffffffffffffffffffffffffffffff166370a08231336040518263ffffffff1660e01b8152600401808273ffffffffffffffffffffffffffffffffffffffff1673ffffffffffffffffffffffffffffffffffffffff16815260200191505060206040518083038186803b158015620015f057600080fd5b505afa15801562001605573d6000803e3d6000fd5b505050506040513d60208110156200161c57600080fd5b8101908080519060200190929190505050101562001686576040517f08c379a00000000000000000000000000000000000000000000000000000000081526004018080602001828103825260278152602001806200b5916027913960400191505060405180910390fd5b8173ffffffffffffffffffffffffffffffffffffffff16636819cd1933856040518363ffffffff1660e01b8152600401808373ffffffffffffffffffffffffffffffffffffffff1673ffffffffffffffffffffffffffffffffffffffff16815260200182815260200192505050600060405180830381600087803b1580156200170e57600080fd5b505af115801562001723573d6000803e3d6000fd5b50505050620017b883600860003373ffffffffffffffffffffffffffffffffffffffff1673ffffffffffffffffffffffffffffffffffffffff16815260200190815260200160002060008773ffffffffffffffffffffffffffffffffffffffff1673ffffffffffffffffffffffffffffffffffffffff16815260200190815260200160002054620021dc90919063ffffffff16565b600860003373ffffffffffffffffffffffffffffffffffffffff1673ffffffffffffffffffffffffffffffffffffffff16815260200190815260200160002060008673ffffffffffffffffffffffffffffffffffffffff1673ffffffffffffffffffffffffffffffffffffffff1681526020019081526020016000208190555050505050565b62001848620021d4565b73ffffffffffffffffffffffffffffffffffffffff166000809054906101000a900473ffffffffffffffffffffffffffffffffffffffff1673ffffffffffffffffffffffffffffffffffffffff16146200190a576040517f08c379a00000000000000000000000000000000000000000000000000000000081526004018080602001828103825260208152602001807f4f776e61626c653a2063616c6c6572206973206e6f7420746865206f776e657281525060200191505060405180910390fd5b600073ffffffffffffffffffffffffffffffffffffffff166000809054906101000a900473ffffffffffffffffffffffffffffffffffffffff1673ffffffffffffffffffffffffffffffffffffffff167f8be0079c531659141344cd1fd0a4f28419497f9722a3daafe3b4186f6b6457e060405160405180910390a360008060006101000a81548173ffffffffffffffffffffffffffffffffffffffff021916908373ffffffffffffffffffffffffffffffffffffffff160217905550565b6008602052816000526040600020602052806000526040600020600091509150505481565b6009602052816000526040600020818154811062001a0857fe5b906000526020600020016000915091509054906101000a900473ffffffffffffffffffffffffffffffffffffffff1681565b60008060009054906101000a900473ffffffffffffffffffffffffffffffffffffffff16905090565b600082905060008173ffffffffffffffffffffffffffffffffffffffff166361e03cd26040518163ffffffff1660e01b815260040160206040518083038186803b15801562001ab157600080fd5b505afa15801562001ac6573d6000803e3d6000fd5b505050506040513d602081101562001add57600080fd5b81019080805190602001909291905050509050828173ffffffffffffffffffffffffffffffffffffffff166370a08231336040518263ffffffff1660e01b8152600401808273ffffffffffffffffffffffffffffffffffffffff1673ffffffffffffffffffffffffffffffffffffffff16815260200191505060206040518083038186803b15801562001b6f57600080fd5b505afa15801562001b84573d6000803e3d6000fd5b505050506040513d602081101562001b9b57600080fd5b8101908080519060200190929190505050101562001c05576040517f08c379a00000000000000000000000000000000000000000000000000000000081526004018080602001828103825260278152602001806200b5916027913960400191505060405180910390fd5b8173ffffffffffffffffffffffffffffffffffffffff16636819cd1933856040518363ffffffff1660e01b8152600401808373ffffffffffffffffffffffffffffffffffffffff1673ffffffffffffffffffffffffffffffffffffffff16815260200182815260200192505050600060405180830381600087803b15801562001c8d57600080fd5b505af115801562001ca2573d6000803e3d6000fd5b5050505082600860003373ffffffffffffffffffffffffffffffffffffffff1673ffffffffffffffffffffffffffffffffffffffff16815260200190815260200160002060008673ffffffffffffffffffffffffffffffffffffffff1673ffffffffffffffffffffffffffffffffffffffff16815260200190815260200160002081905550600960003373ffffffffffffffffffffffffffffffffffffffff1673ffffffffffffffffffffffffffffffffffffffff168152602001908152602001600020849080600181540180825580915050600190039060005260206000200160009091909190916101000a81548173ffffffffffffffffffffffffffffffffffffffff021916908373ffffffffffffffffffffffffffffffffffffffff16021790555050505050565b6000600560008373ffffffffffffffffffffffffffffffffffffffff1673ffffffffffffffffffffffffffffffffffffffff16815260200190815260200160002060009054906101000a900473ffffffffffffffffffffffffffffffffffffffff1690506000878787878560405162001e469062002273565b808681526020018581526020018481526020018381526020018273ffffffffffffffffffffffffffffffffffffffff1673ffffffffffffffffffffffffffffffffffffffff16815260200195505050505050604051809103906000f08015801562001eb5573d6000803e3d6000fd5b5090508173ffffffffffffffffffffffffffffffffffffffff16636155a20b82866040518363ffffffff1660e01b8152600401808373ffffffffffffffffffffffffffffffffffffffff1673ffffffffffffffffffffffffffffffffffffffff16815260200182815260200192505050600060405180830381600087803b15801562001f4057600080fd5b505af115801562001f55573d6000803e3d6000fd5b505050505050505050505050565b60076020528060005260406000206000915054906101000a900473ffffffffffffffffffffffffffffffffffffffff1681565b60015481565b600460009054906101000a900473ffffffffffffffffffffffffffffffffffffffff1681565b62001fcc620021d4565b73ffffffffffffffffffffffffffffffffffffffff166000809054906101000a900473ffffffffffffffffffffffffffffffffffffffff1673ffffffffffffffffffffffffffffffffffffffff16146200208e576040517f08c379a00000000000000000000000000000000000000000000000000000000081526004018080602001828103825260208152602001807f4f776e61626c653a2063616c6c6572206973206e6f7420746865206f776e657281525060200191505060405180910390fd5b600073ffffffffffffffffffffffffffffffffffffffff168173ffffffffffffffffffffffffffffffffffffffff16141562002116576040517f08c379a00000000000000000000000000000000000000000000000000000000081526004018080602001828103825260268152602001806200b56b6026913960400191505060405180910390fd5b8073ffffffffffffffffffffffffffffffffffffffff166000809054906101000a900473ffffffffffffffffffffffffffffffffffffffff1673ffffffffffffffffffffffffffffffffffffffff167f8be0079c531659141344cd1fd0a4f28419497f9722a3daafe3b4186f6b6457e060405160405180910390a3806000806101000a81548173ffffffffffffffffffffffffffffffffffffffff021916908373ffffffffffffffffffffffffffffffffffffffff16021790555050565b600033905090565b6000808284019050838110156200225b576040517f08c379a000000000000000000000000000000000000000000000000000000000815260040180806020018281038252601b8152602001807f536166654d6174683a206164646974696f6e206f766572666c6f77000000000081525060200191505060405180910390fd5b8091505092915050565b618483806200228283390190565b610e66806200a7058339019056fe60806040523480156200001157600080fd5b506040516200848338038062008483833981810160405260a08110156200003757600080fd5b81019080805190602001909291908051906020019092919080519060200190929190805160405193929190846401000000008211156200007657600080fd5b838201915060208201858111156200008d57600080fd5b8251866001820283011164010000000082111715620000ab57600080fd5b8083526020830192505050908051906020019080838360005b83811015620000e1578082015181840152602081019050620000c4565b50505050905090810190601f1680156200010f5780820380516001836020036101000a031916815260200191505b50604052602001805160405193929190846401000000008211156200013357600080fd5b838201915060208201858111156200014a57600080fd5b82518660018202830111640100000000821117156200016857600080fd5b8083526020830192505050908051906020019080838360005b838110156200019e57808201518184015260208101905062000181565b50505050905090810190601f168015620001cc5780820380516001836020036101000a031916815260200191505b506040525050506000620001e5620003a760201b60201c565b9050806000806101000a81548173ffffffffffffffffffffffffffffffffffffffff021916908373ffffffffffffffffffffffffffffffffffffffff1602179055508073ffffffffffffffffffffffffffffffffffffffff16600073ffffffffffffffffffffffffffffffffffffffff167f8be0079c531659141344cd1fd0a4f28419497f9722a3daafe3b4186f6b6457e060405160405180910390a35084600d60006101000a81548173ffffffffffffffffffffffffffffffffffffffff021916908373ffffffffffffffffffffffffffffffffffffffff1602179055506127106003819055506220148060018190555081600b9080519060200190620002ef929190620005c7565b5080600c908051906020019062000308929190620005c7565b5082601060006101000a81548173ffffffffffffffffffffffffffffffffffffffff021916908373ffffffffffffffffffffffffffffffffffffffff16021790555033601160006101000a81548173ffffffffffffffffffffffffffffffffffffffff021916908373ffffffffffffffffffffffffffffffffffffffff1602179055506200039c84620003af60201b60201c565b505050505062000676565b600033905090565b620003bf620003a760201b60201c565b73ffffffffffffffffffffffffffffffffffffffff166000809054906101000a900473ffffffffffffffffffffffffffffffffffffffff1673ffffffffffffffffffffffffffffffffffffffff161462000481576040517f08c379a00000000000000000000000000000000000000000000000000000000081526004018080602001828103825260208152602001807f4f776e61626c653a2063616c6c6572206973206e6f7420746865206f776e657281525060200191505060405180910390fd5b600073ffffffffffffffffffffffffffffffffffffffff168173ffffffffffffffffffffffffffffffffffffffff16141562000509576040517f08c379a00000000000000000000000000000000000000000000000000000000081526004018080602001828103825260268152602001806200845d6026913960400191505060405180910390fd5b8073ffffffffffffffffffffffffffffffffffffffff166000809054906101000a900473ffffffffffffffffffffffffffffffffffffffff1673ffffffffffffffffffffffffffffffffffffffff167f8be0079c531659141344cd1fd0a4f28419497f9722a3daafe3b4186f6b6457e060405160405180910390a3806000806101000a81548173ffffffffffffffffffffffffffffffffffffffff021916908373ffffffffffffffffffffffffffffffffffffffff16021790555050565b828054600181600116156101000203166002900490600052602060002090601f016020900481019282601f106200060a57805160ff19168380011785556200063b565b828001600101855582156200063b579182015b828111156200063a5782518255916020019190600101906200061d565b5b5090506200064a91906200064e565b5090565b6200067391905b808211156200066f57600081600090555060010162000655565b5090565b90565b617dd780620006866000396000f3fe60806040523480156200001157600080fd5b5060043610620002b05760003560e01c80637fd6f15c1162000171578063c63eee1d11620000d5578063ef462fd01162000093578063ef462fd01462000c8e578063f2130c701462000cdd578063f2fde38b1462000cfd578063f3b3160e1462000d44578063f9828b4f1462000d64578063fab26ec11462000d8457620002b0565b8063c63eee1d1462000af1578063c9230c5d1462000b3d578063cf0aea851462000bc5578063d162054a1462000bf6578063dec7ae281462000c4257620002b0565b8063a196b369116200012f578063a196b36914620009b2578063a385fb9614620009d2578063a4f0ecd314620009f2578063b772cc771462000a43578063c27d4df31462000a74578063c5ebeaec1462000ac057620002b0565b80637fd6f15c14620008955780638da5cb5b14620008b55780639241cef2146200090157806399a5d747146200094d5780639b1edb43146200099257620002b0565b80635d4991b111620002195780636ccdd9f711620001d75780636ccdd9f71462000711578063715018a614620007625780637359095b146200076e578063791b8d7914620007c95780637b556e2614620008185780637dc0d1d0146200084957620002b0565b80635d4991b114620005975780636155a20b14620005f257806361e03cd214620006435780636819cd19146200068f5780636c713a1514620006e057620002b0565b806338d52e0f116200027357806338d52e0f1462000409578063402d88831462000455578063456011b414620004615780635103274214620004bc578063551f8b01146200051757806356aa21ab146200054857620002b0565b80630166752e14620002b557806313ecfe601462000310578063176de7a814620003305780631f2dc5ef14620003b857806322b2d40214620003d8575b600080fd5b620002fa60048036036020811015620002cd57600080fd5b81019080803573ffffffffffffffffffffffffffffffffffffffff16906020019092919050505062000dd0565b6040518082815260200191505060405180910390f35b6200031a62000de8565b6040518082815260200191505060405180910390f35b6200033a62000dee565b6040518080602001828103825283818151815260200191508051906020019080838360005b838110156200037c5780820151818401526020810190506200035f565b50505050905090810190601f168015620003aa5780820380516001836020036101000a031916815260200191505b509250505060405180910390f35b620003c262000e90565b6040518082815260200191505060405180910390f35b6200040760048036036020811015620003f057600080fd5b810190808035906020019092919050505062000e96565b005b6200041362001016565b604051808273ffffffffffffffffffffffffffffffffffffffff1673ffffffffffffffffffffffffffffffffffffffff16815260200191505060405180910390f35b6200045f6200103c565b005b620004a6600480360360208110156200047957600080fd5b81019080803573ffffffffffffffffffffffffffffffffffffffff169060200190929190505050620018fb565b6040518082815260200191505060405180910390f35b6200050160048036036020811015620004d457600080fd5b81019080803573ffffffffffffffffffffffffffffffffffffffff16906020019092919050505062001913565b6040518082815260200191505060405180910390f35b62000546600480360360208110156200052f57600080fd5b81019080803590602001909291905050506200192b565b005b62000581600480360360408110156200056057600080fd5b81019080803590602001909291908035906020019092919050505062001a01565b6040518082815260200191505060405180910390f35b620005dc60048036036020811015620005af57600080fd5b81019080803573ffffffffffffffffffffffffffffffffffffffff16906020019092919050505062001ad4565b6040518082815260200191505060405180910390f35b62000641600480360360408110156200060a57600080fd5b81019080803573ffffffffffffffffffffffffffffffffffffffff1690602001909291908035906020019092919050505062001aec565b005b6200064d62001f63565b604051808273ffffffffffffffffffffffffffffffffffffffff1673ffffffffffffffffffffffffffffffffffffffff16815260200191505060405180910390f35b620006de60048036036040811015620006a757600080fd5b81019080803573ffffffffffffffffffffffffffffffffffffffff1690602001909291908035906020019092919050505062001f8d565b005b6200070f60048036036020811015620006f857600080fd5b8101908080359060200190929190505050620020fc565b005b62000760600480360360408110156200072957600080fd5b81019080803573ffffffffffffffffffffffffffffffffffffffff16906020019092919080359060200190929190505050620021d2565b005b6200076c62002649565b005b620007b3600480360360208110156200078657600080fd5b81019080803573ffffffffffffffffffffffffffffffffffffffff169060200190929190505050620027d4565b6040518082815260200191505060405180910390f35b6200080260048036036040811015620007e157600080fd5b810190808035906020019092919080359060200190929190505050620027ec565b6040518082815260200191505060405180910390f35b62000847600480360360208110156200083057600080fd5b8101908080359060200190929190505050620028bf565b005b6200085362002a9a565b604051808273ffffffffffffffffffffffffffffffffffffffff1673ffffffffffffffffffffffffffffffffffffffff16815260200191505060405180910390f35b6200089f62002ac0565b6040518082815260200191505060405180910390f35b620008bf62002ac6565b604051808273ffffffffffffffffffffffffffffffffffffffff1673ffffffffffffffffffffffffffffffffffffffff16815260200191505060405180910390f35b6200090b62002aef565b604051808273ffffffffffffffffffffffffffffffffffffffff1673ffffffffffffffffffffffffffffffffffffffff16815260200191505060405180910390f35b6200097c600480360360208110156200096557600080fd5b810190808035906020019092919050505062002b15565b6040518082815260200191505060405180910390f35b6200099c62002b50565b6040518082815260200191505060405180910390f35b620009bc62002b56565b6040518082815260200191505060405180910390f35b620009dc62002b5c565b6040518082815260200191505060405180910390f35b62000a416004803603604081101562000a0a57600080fd5b81019080803573ffffffffffffffffffffffffffffffffffffffff1690602001909291908035906020019092919050505062002b62565b005b62000a726004803603602081101562000a5b57600080fd5b810190808035906020019092919050505062002cd1565b005b62000a7e62002eac565b604051808273ffffffffffffffffffffffffffffffffffffffff1673ffffffffffffffffffffffffffffffffffffffff16815260200191505060405180910390f35b62000aef6004803603602081101562000ad857600080fd5b810190808035906020019092919050505062002ed2565b005b62000afb6200332f565b604051808273ffffffffffffffffffffffffffffffffffffffff1673ffffffffffffffffffffffffffffffffffffffff16815260200191505060405180910390f35b62000b4762003355565b6040518080602001828103825283818151815260200191508051906020019080838360005b8381101562000b8957808201518184015260208101905062000b6c565b50505050905090810190601f16801562000bb75780820380516001836020036101000a031916815260200191505b509250505060405180910390f35b62000bf46004803603602081101562000bdd57600080fd5b8101908080359060200190929190505050620033f7565b005b62000c0062003577565b604051808273ffffffffffffffffffffffffffffffffffffffff1673ffffffffffffffffffffffffffffffffffffffff16815260200191505060405180910390f35b62000c4c6200359d565b604051808273ffffffffffffffffffffffffffffffffffffffff1673ffffffffffffffffffffffffffffffffffffffff16815260200191505060405180910390f35b62000cc76004803603604081101562000ca657600080fd5b810190808035906020019092919080359060200190929190505050620035c3565b6040518082815260200191505060405180910390f35b62000ce76200368e565b6040518082815260200191505060405180910390f35b62000d426004803603602081101562000d1557600080fd5b81019080803573ffffffffffffffffffffffffffffffffffffffff16906020019092919050505062003694565b005b62000d4e620038a6565b6040518082815260200191505060405180910390f35b62000d6e620038ac565b6040518082815260200191505060405180910390f35b62000d8e620038b2565b604051808273ffffffffffffffffffffffffffffffffffffffff1673ffffffffffffffffffffffffffffffffffffffff16815260200191505060405180910390f35b60166020528060005260406000206000915090505481565b60045481565b600c8054600181600116156101000203166002900480601f01602080910402602001604051908101604052809291908181526020018280546001816001161561010002031660029004801562000e885780601f1062000e5c5761010080835404028352916020019162000e88565b820191906000526020600020905b81548152906001019060200180831162000e6a57829003601f168201915b505050505081565b60035481565b600d60009054906101000a900473ffffffffffffffffffffffffffffffffffffffff1673ffffffffffffffffffffffffffffffffffffffff166323b872dd3330846040518463ffffffff1660e01b8152600401808473ffffffffffffffffffffffffffffffffffffffff1673ffffffffffffffffffffffffffffffffffffffff1681526020018373ffffffffffffffffffffffffffffffffffffffff1673ffffffffffffffffffffffffffffffffffffffff1681526020018281526020019350505050602060405180830381600087803b15801562000f7457600080fd5b505af115801562000f89573d6000803e3d6000fd5b505050506040513d602081101562000fa057600080fd5b81019080805190602001909291905050505062000fc981600554620038d890919063ffffffff16565b60058190555080601560003373ffffffffffffffffffffffffffffffffffffffff1673ffffffffffffffffffffffffffffffffffffffff1681526020019081526020016000208190555050565b600d60009054906101000a900473ffffffffffffffffffffffffffffffffffffffff1681565b600062001165600d60009054906101000a900473ffffffffffffffffffffffffffffffffffffffff1673ffffffffffffffffffffffffffffffffffffffff166370a08231306040518263ffffffff1660e01b8152600401808273ffffffffffffffffffffffffffffffffffffffff1673ffffffffffffffffffffffffffffffffffffffff16815260200191505060206040518083038186803b158015620010e257600080fd5b505afa158015620010f7573d6000803e3d6000fd5b505050506040513d60208110156200110e57600080fd5b8101908080519060200190929190505050601660003373ffffffffffffffffffffffffffffffffffffffff1673ffffffffffffffffffffffffffffffffffffffff16815260200190815260200160002054620035c3565b90506000620011748262002b15565b905060006200118d8284620038d890919063ffffffff16565b90506000600d60009054906101000a900473ffffffffffffffffffffffffffffffffffffffff1673ffffffffffffffffffffffffffffffffffffffff166370a08231336040518263ffffffff1660e01b8152600401808273ffffffffffffffffffffffffffffffffffffffff1673ffffffffffffffffffffffffffffffffffffffff16815260200191505060206040518083038186803b1580156200123157600080fd5b505afa15801562001246573d6000803e3d6000fd5b505050506040513d60208110156200125d57600080fd5b8101908080519060200190929190505050905081811015620012e7576040517f08c379a000000000000000000000000000000000000000000000000000000000815260040180806020018281038252601f8152602001807f42616c616e636520746f6f206c6f7720746f20706179206f6666206c6f616e0081525060200191505060405180910390fd5b600d60009054906101000a900473ffffffffffffffffffffffffffffffffffffffff1673ffffffffffffffffffffffffffffffffffffffff166323b872dd3330856040518463ffffffff1660e01b8152600401808473ffffffffffffffffffffffffffffffffffffffff1673ffffffffffffffffffffffffffffffffffffffff1681526020018373ffffffffffffffffffffffffffffffffffffffff1673ffffffffffffffffffffffffffffffffffffffff1681526020018281526020019350505050602060405180830381600087803b158015620013c557600080fd5b505af1158015620013da573d6000803e3d6000fd5b505050506040513d6020811015620013f157600080fd5b810190808051906020019092919050505050600060075414156200148e5762001465601660003373ffffffffffffffffffffffffffffffffffffffff1673ffffffffffffffffffffffffffffffffffffffff168152602001908152602001600020546006546200396190919063ffffffff16565b6006819055506200148284600454620038d890919063ffffffff16565b60048190555062001508565b620014e4601660003373ffffffffffffffffffffffffffffffffffffffff1673ffffffffffffffffffffffffffffffffffffffff168152602001908152602001600020546007546200396190919063ffffffff16565b6007819055506200150184600554620038d890919063ffffffff16565b6005819055505b600d60009054906101000a900473ffffffffffffffffffffffffffffffffffffffff1673ffffffffffffffffffffffffffffffffffffffff166323b872dd306200155162002ac6565b866040518463ffffffff1660e01b8152600401808473ffffffffffffffffffffffffffffffffffffffff1673ffffffffffffffffffffffffffffffffffffffff1681526020018373ffffffffffffffffffffffffffffffffffffffff1673ffffffffffffffffffffffffffffffffffffffff1681526020018281526020019350505050602060405180830381600087803b158015620015ef57600080fd5b505af115801562001604573d6000803e3d6000fd5b505050506040513d60208110156200161b57600080fd5b8101908080519060200190929190505050506000601660003373ffffffffffffffffffffffffffffffffffffffff1673ffffffffffffffffffffffffffffffffffffffff168152602001908152602001600020819055506000601760003373ffffffffffffffffffffffffffffffffffffffff1673ffffffffffffffffffffffffffffffffffffffff168152602001908152602001600020819055506000601860003373ffffffffffffffffffffffffffffffffffffffff1673ffffffffffffffffffffffffffffffffffffffff16815260200190815260200160002081905550601160009054906101000a900473ffffffffffffffffffffffffffffffffffffffff1673ffffffffffffffffffffffffffffffffffffffff166328736f6630336040518363ffffffff1660e01b8152600401808373ffffffffffffffffffffffffffffffffffffffff1673ffffffffffffffffffffffffffffffffffffffff1681526020018273ffffffffffffffffffffffffffffffffffffffff1673ffffffffffffffffffffffffffffffffffffffff16815260200192505050600060405180830381600087803b158015620017d257600080fd5b505af1158015620017e7573d6000803e3d6000fd5b50505050600d60009054906101000a900473ffffffffffffffffffffffffffffffffffffffff1673ffffffffffffffffffffffffffffffffffffffff1663a9059cbb601160009054906101000a900473ffffffffffffffffffffffffffffffffffffffff16856040518363ffffffff1660e01b8152600401808373ffffffffffffffffffffffffffffffffffffffff1673ffffffffffffffffffffffffffffffffffffffff16815260200182815260200192505050602060405180830381600087803b158015620018b757600080fd5b505af1158015620018cc573d6000803e3d6000fd5b505050506040513d6020811015620018e357600080fd5b81019080805190602001909291905050505050505050565b60186020528060005260406000206000915090505481565b60146020528060005260406000206000915090505481565b62001935620039ad565b73ffffffffffffffffffffffffffffffffffffffff166000809054906101000a900473ffffffffffffffffffffffffffffffffffffffff1673ffffffffffffffffffffffffffffffffffffffff1614620019f7576040517f08c379a00000000000000000000000000000000000000000000000000000000081526004018080602001828103825260208152602001807f4f776e61626c653a2063616c6c6572206973206e6f7420746865206f776e657281525060200191505060405180910390fd5b8060098190555050565b6000601260009054906101000a900473ffffffffffffffffffffffffffffffffffffffff1673ffffffffffffffffffffffffffffffffffffffff1663b816881684846000806040518563ffffffff1660e01b81526004018085815260200184815260200183815260200182815260200194505050505060206040518083038186803b15801562001a9057600080fd5b505afa15801562001aa5573d6000803e3d6000fd5b505050506040513d602081101562001abc57600080fd5b81019080805190602001909291905050505092915050565b60156020528060005260406000206000915090505481565b601160009054906101000a900473ffffffffffffffffffffffffffffffffffffffff1673ffffffffffffffffffffffffffffffffffffffff163373ffffffffffffffffffffffffffffffffffffffff161462001b94576040517f08c379a000000000000000000000000000000000000000000000000000000000815260040180806020018281038252604181526020018062007d616041913960600191505060405180910390fd5b81601260006101000a81548173ffffffffffffffffffffffffffffffffffffffff021916908373ffffffffffffffffffffffffffffffffffffffff16021790555080600881905550606060405160200180807f4148522d000000000000000000000000000000000000000000000000000000008152506004019050604051602081830303815290604052905080600b6040516020018083805190602001908083835b6020831062001c5b578051825260208201915060208101905060208303925062001c36565b6001836020036101000a0380198251168184511680821785525050505050509050018280546001816001161561010002031660029004801562001cd85780601f1062001cb557610100808354040283529182019162001cd8565b820191906000526020600020905b81548152906001019060200180831162001cc3575b5050925050506040516020818303038152906040529050606060405160200180807f4148522d000000000000000000000000000000000000000000000000000000008152506004019050604051602081830303815290604052905080600c6040516020018083805190602001908083835b6020831062001d6e578051825260208201915060208101905060208303925062001d49565b6001836020036101000a0380198251168184511680821785525050505050509050018280546001816001161561010002031660029004801562001deb5780601f1062001dc857610100808354040283529182019162001deb565b820191906000526020600020905b81548152906001019060200180831162001dd6575b505092505050604051602081830303815290604052905060608290506060829050818160405162001e1c9062003c1b565b808060200180602001838103835285818151815260200191508051906020019080838360005b8381101562001e5f57808201518184015260208101905062001e42565b50505050905090810190601f16801562001e8d5780820380516001836020036101000a031916815260200191505b50838103825284818151815260200191508051906020019080838360005b8381101562001ec857808201518184015260208101905062001eab565b50505050905090810190601f16801562001ef65780820380516001836020036101000a031916815260200191505b50945050505050604051809103906000f08015801562001f1a573d6000803e3d6000fd5b50600e60006101000a81548173ffffffffffffffffffffffffffffffffffffffff021916908373ffffffffffffffffffffffffffffffffffffffff160217905550505050505050565b6000600f60009054906101000a900473ffffffffffffffffffffffffffffffffffffffff16905090565b601160009054906101000a900473ffffffffffffffffffffffffffffffffffffffff1673ffffffffffffffffffffffffffffffffffffffff163373ffffffffffffffffffffffffffffffffffffffff161462002035576040517f08c379a000000000000000000000000000000000000000000000000000000000815260040180806020018281038252604181526020018062007d616041913960600191505060405180910390fd5b600f60009054906101000a900473ffffffffffffffffffffffffffffffffffffffff1673ffffffffffffffffffffffffffffffffffffffff16639dc29fac83836040518363ffffffff1660e01b8152600401808373ffffffffffffffffffffffffffffffffffffffff1673ffffffffffffffffffffffffffffffffffffffff16815260200182815260200192505050600060405180830381600087803b158015620020df57600080fd5b505af1158015620020f4573d6000803e3d6000fd5b505050505050565b62002106620039ad565b73ffffffffffffffffffffffffffffffffffffffff166000809054906101000a900473ffffffffffffffffffffffffffffffffffffffff1673ffffffffffffffffffffffffffffffffffffffff1614620021c8576040517f08c379a00000000000000000000000000000000000000000000000000000000081526004018080602001828103825260208152602001807f4f776e61626c653a2063616c6c6572206973206e6f7420746865206f776e657281525060200191505060405180910390fd5b8060088190555050565b601160009054906101000a900473ffffffffffffffffffffffffffffffffffffffff1673ffffffffffffffffffffffffffffffffffffffff163373ffffffffffffffffffffffffffffffffffffffff16146200227a576040517f08c379a000000000000000000000000000000000000000000000000000000000815260040180806020018281038252604181526020018062007d616041913960600191505060405180910390fd5b81601360006101000a81548173ffffffffffffffffffffffffffffffffffffffff021916908373ffffffffffffffffffffffffffffffffffffffff16021790555080600981905550606060405160200180807f416c522d000000000000000000000000000000000000000000000000000000008152506004019050604051602081830303815290604052905080600b6040516020018083805190602001908083835b602083106200234157805182526020820191506020810190506020830392506200231c565b6001836020036101000a03801982511681845116808217855250505050505090500182805460018160011615610100020316600290048015620023be5780601f106200239b576101008083540402835291820191620023be565b820191906000526020600020905b815481529060010190602001808311620023a9575b5050925050506040516020818303038152906040529050606060405160200180807f416c522d000000000000000000000000000000000000000000000000000000008152506004019050604051602081830303815290604052905080600c6040516020018083805190602001908083835b602083106200245457805182526020820191506020810190506020830392506200242f565b6001836020036101000a03801982511681845116808217855250505050505090500182805460018160011615610100020316600290048015620024d15780601f10620024ae576101008083540402835291820191620024d1565b820191906000526020600020905b815481529060010190602001808311620024bc575b5050925050506040516020818303038152906040529050606082905060608290508181604051620025029062003c29565b808060200180602001838103835285818151815260200191508051906020019080838360005b838110156200254557808201518184015260208101905062002528565b50505050905090810190601f168015620025735780820380516001836020036101000a031916815260200191505b50838103825284818151815260200191508051906020019080838360005b83811015620025ae57808201518184015260208101905062002591565b50505050905090810190601f168015620025dc5780820380516001836020036101000a031916815260200191505b50945050505050604051809103906000f08015801562002600573d6000803e3d6000fd5b50600f60006101000a81548173ffffffffffffffffffffffffffffffffffffffff021916908373ffffffffffffffffffffffffffffffffffffffff160217905550505050505050565b62002653620039ad565b73ffffffffffffffffffffffffffffffffffffffff166000809054906101000a900473ffffffffffffffffffffffffffffffffffffffff1673ffffffffffffffffffffffffffffffffffffffff161462002715576040517f08c379a00000000000000000000000000000000000000000000000000000000081526004018080602001828103825260208152602001807f4f776e61626c653a2063616c6c6572206973206e6f7420746865206f776e657281525060200191505060405180910390fd5b600073ffffffffffffffffffffffffffffffffffffffff166000809054906101000a900473ffffffffffffffffffffffffffffffffffffffff1673ffffffffffffffffffffffffffffffffffffffff167f8be0079c531659141344cd1fd0a4f28419497f9722a3daafe3b4186f6b6457e060405160405180910390a360008060006101000a81548173ffffffffffffffffffffffffffffffffffffffff021916908373ffffffffffffffffffffffffffffffffffffffff160217905550565b60176020528060005260406000206000915090505481565b6000601360009054906101000a900473ffffffffffffffffffffffffffffffffffffffff1673ffffffffffffffffffffffffffffffffffffffff1663b816881684846000806040518563ffffffff1660e01b81526004018085815260200184815260200183815260200182815260200194505050505060206040518083038186803b1580156200287b57600080fd5b505afa15801562002890573d6000803e3d6000fd5b505050506040513d6020811015620028a757600080fd5b81019080805190602001909291905050505092915050565b600e60009054906101000a900473ffffffffffffffffffffffffffffffffffffffff1673ffffffffffffffffffffffffffffffffffffffff16639dc29fac33836040518363ffffffff1660e01b8152600401808373ffffffffffffffffffffffffffffffffffffffff1673ffffffffffffffffffffffffffffffffffffffff16815260200182815260200192505050600060405180830381600087803b1580156200296957600080fd5b505af11580156200297e573d6000803e3d6000fd5b505050506000620029928260065462001a01565b90506000620029ab8284620038d890919063ffffffff16565b9050600d60009054906101000a900473ffffffffffffffffffffffffffffffffffffffff1673ffffffffffffffffffffffffffffffffffffffff1663a9059cbb33836040518363ffffffff1660e01b8152600401808373ffffffffffffffffffffffffffffffffffffffff1673ffffffffffffffffffffffffffffffffffffffff16815260200182815260200192505050602060405180830381600087803b15801562002a5757600080fd5b505af115801562002a6c573d6000803e3d6000fd5b505050506040513d602081101562002a8357600080fd5b810190808051906020019092919050505050505050565b601060009054906101000a900473ffffffffffffffffffffffffffffffffffffffff1681565b60025481565b60008060009054906101000a900473ffffffffffffffffffffffffffffffffffffffff16905090565b600e60009054906101000a900473ffffffffffffffffffffffffffffffffffffffff1681565b60008062002b4560035462002b3660025486620039b590919063ffffffff16565b62003a4090919063ffffffff16565b905080915050919050565b60075481565b60065481565b60015481565b601160009054906101000a900473ffffffffffffffffffffffffffffffffffffffff1673ffffffffffffffffffffffffffffffffffffffff163373ffffffffffffffffffffffffffffffffffffffff161462002c0a576040517f08c379a000000000000000000000000000000000000000000000000000000000815260040180806020018281038252604181526020018062007d616041913960600191505060405180910390fd5b600f60009054906101000a900473ffffffffffffffffffffffffffffffffffffffff1673ffffffffffffffffffffffffffffffffffffffff166340c10f1983836040518363ffffffff1660e01b8152600401808373ffffffffffffffffffffffffffffffffffffffff1673ffffffffffffffffffffffffffffffffffffffff16815260200182815260200192505050600060405180830381600087803b15801562002cb457600080fd5b505af115801562002cc9573d6000803e3d6000fd5b505050505050565b600f60009054906101000a900473ffffffffffffffffffffffffffffffffffffffff1673ffffffffffffffffffffffffffffffffffffffff16639dc29fac33836040518363ffffffff1660e01b8152600401808373ffffffffffffffffffffffffffffffffffffffff1673ffffffffffffffffffffffffffffffffffffffff16815260200182815260200192505050600060405180830381600087803b15801562002d7b57600080fd5b505af115801562002d90573d6000803e3d6000fd5b50505050600062002da482600754620027ec565b9050600062002dbd8284620038d890919063ffffffff16565b9050600d60009054906101000a900473ffffffffffffffffffffffffffffffffffffffff1673ffffffffffffffffffffffffffffffffffffffff1663a9059cbb33836040518363ffffffff1660e01b8152600401808373ffffffffffffffffffffffffffffffffffffffff1673ffffffffffffffffffffffffffffffffffffffff16815260200182815260200192505050602060405180830381600087803b15801562002e6957600080fd5b505af115801562002e7e573d6000803e3d6000fd5b505050506040513d602081101562002e9557600080fd5b810190808051906020019092919050505050505050565b600f60009054906101000a900473ffffffffffffffffffffffffffffffffffffffff1681565b600062002eea60028362003a4090919063ffffffff16565b90506000601160009054906101000a900473ffffffffffffffffffffffffffffffffffffffff1673ffffffffffffffffffffffffffffffffffffffff166335862cc7336040518263ffffffff1660e01b8152600401808273ffffffffffffffffffffffffffffffffffffffff1673ffffffffffffffffffffffffffffffffffffffff16815260200191505060206040518083038186803b15801562002f8e57600080fd5b505afa15801562002fa3573d6000803e3d6000fd5b505050506040513d602081101562002fba57600080fd5b8101908080519060200190929190505050905082811162003043576040517f08c379a00000000000000000000000000000000000000000000000000000000081526004018080602001828103825260158152602001807f4e6f7420456e6f75676820436f6c6c61746572616c000000000000000000000081525060200191505060405180910390fd5b6200305a82600654620038d890919063ffffffff16565b6006819055506200307782600754620038d890919063ffffffff16565b600781905550620030d183601660003373ffffffffffffffffffffffffffffffffffffffff1673ffffffffffffffffffffffffffffffffffffffff16815260200190815260200160002054620038d890919063ffffffff16565b601660003373ffffffffffffffffffffffffffffffffffffffff1673ffffffffffffffffffffffffffffffffffffffff168152602001908152602001600020819055506200316882601760003373ffffffffffffffffffffffffffffffffffffffff1673ffffffffffffffffffffffffffffffffffffffff16815260200190815260200160002054620038d890919063ffffffff16565b601760003373ffffffffffffffffffffffffffffffffffffffff1673ffffffffffffffffffffffffffffffffffffffff16815260200190815260200160002081905550620031ff82601860003373ffffffffffffffffffffffffffffffffffffffff1673ffffffffffffffffffffffffffffffffffffffff16815260200190815260200160002054620038d890919063ffffffff16565b601860003373ffffffffffffffffffffffffffffffffffffffff1673ffffffffffffffffffffffffffffffffffffffff16815260200190815260200160002081905550600d60009054906101000a900473ffffffffffffffffffffffffffffffffffffffff1673ffffffffffffffffffffffffffffffffffffffff1663a9059cbb33856040518363ffffffff1660e01b8152600401808373ffffffffffffffffffffffffffffffffffffffff1673ffffffffffffffffffffffffffffffffffffffff16815260200182815260200192505050602060405180830381600087803b158015620032ec57600080fd5b505af115801562003301573d6000803e3d6000fd5b505050506040513d60208110156200331857600080fd5b810190808051906020019092919050505050505050565b601360009054906101000a900473ffffffffffffffffffffffffffffffffffffffff1681565b600b8054600181600116156101000203166002900480601f016020809104026020016040519081016040528092919081815260200182805460018160011615610100020316600290048015620033ef5780601f10620033c357610100808354040283529160200191620033ef565b820191906000526020600020905b815481529060010190602001808311620033d157829003601f168201915b505050505081565b600d60009054906101000a900473ffffffffffffffffffffffffffffffffffffffff1673ffffffffffffffffffffffffffffffffffffffff166323b872dd3330846040518463ffffffff1660e01b8152600401808473ffffffffffffffffffffffffffffffffffffffff1673ffffffffffffffffffffffffffffffffffffffff1681526020018373ffffffffffffffffffffffffffffffffffffffff1673ffffffffffffffffffffffffffffffffffffffff1681526020018281526020019350505050602060405180830381600087803b158015620034d557600080fd5b505af1158015620034ea573d6000803e3d6000fd5b505050506040513d60208110156200350157600080fd5b8101908080519060200190929190505050506200352a81600454620038d890919063ffffffff16565b60048190555080601460003373ffffffffffffffffffffffffffffffffffffffff1673ffffffffffffffffffffffffffffffffffffffff1681526020019081526020016000208190555050565b601160009054906101000a900473ffffffffffffffffffffffffffffffffffffffff1681565b601260009054906101000a900473ffffffffffffffffffffffffffffffffffffffff1681565b6000601360009054906101000a900473ffffffffffffffffffffffffffffffffffffffff1673ffffffffffffffffffffffffffffffffffffffff166315f24053848460006040518463ffffffff1660e01b815260040180848152602001838152602001828152602001935050505060206040518083038186803b1580156200364a57600080fd5b505afa1580156200365f573d6000803e3d6000fd5b505050506040513d60208110156200367657600080fd5b81019080805190602001909291905050505092915050565b60085481565b6200369e620039ad565b73ffffffffffffffffffffffffffffffffffffffff166000809054906101000a900473ffffffffffffffffffffffffffffffffffffffff1673ffffffffffffffffffffffffffffffffffffffff161462003760576040517f08c379a00000000000000000000000000000000000000000000000000000000081526004018080602001828103825260208152602001807f4f776e61626c653a2063616c6c6572206973206e6f7420746865206f776e657281525060200191505060405180910390fd5b600073ffffffffffffffffffffffffffffffffffffffff168173ffffffffffffffffffffffffffffffffffffffff161415620037e8576040517f08c379a000000000000000000000000000000000000000000000000000000000815260040180806020018281038252602681526020018062007d1a6026913960400191505060405180910390fd5b8073ffffffffffffffffffffffffffffffffffffffff166000809054906101000a900473ffffffffffffffffffffffffffffffffffffffff1673ffffffffffffffffffffffffffffffffffffffff167f8be0079c531659141344cd1fd0a4f28419497f9722a3daafe3b4186f6b6457e060405160405180910390a3806000806101000a81548173ffffffffffffffffffffffffffffffffffffffff021916908373ffffffffffffffffffffffffffffffffffffffff16021790555050565b60055481565b60095481565b600a60009054906101000a900473ffffffffffffffffffffffffffffffffffffffff1681565b60008082840190508381101562003957576040517f08c379a000000000000000000000000000000000000000000000000000000000815260040180806020018281038252601b8152602001807f536166654d6174683a206164646974696f6e206f766572666c6f77000000000081525060200191505060405180910390fd5b8091505092915050565b6000620039a583836040518060400160405280601e81526020017f536166654d6174683a207375627472616374696f6e206f766572666c6f77000081525062003a8c565b905092915050565b600033905090565b600080831415620039ca576000905062003a3a565b6000828402905082848281620039dc57fe5b041462003a35576040517f08c379a000000000000000000000000000000000000000000000000000000000815260040180806020018281038252602181526020018062007d406021913960400191505060405180910390fd5b809150505b92915050565b600062003a8483836040518060400160405280601a81526020017f536166654d6174683a206469766973696f6e206279207a65726f00000000000081525062003b50565b905092915050565b600083831115829062003b3d576040517f08c379a00000000000000000000000000000000000000000000000000000000081526004018080602001828103825283818151815260200191508051906020019080838360005b8381101562003b0157808201518184015260208101905062003ae4565b50505050905090810190601f16801562003b2f5780820380516001836020036101000a031916815260200191505b509250505060405180910390fd5b5060008385039050809150509392505050565b6000808311829062003c00576040517f08c379a00000000000000000000000000000000000000000000000000000000081526004018080602001828103825283818151815260200191508051906020019080838360005b8381101562003bc457808201518184015260208101905062003ba7565b50505050905090810190601f16801562003bf25780820380516001836020036101000a031916815260200191505b509250505060405180910390fd5b50600083858162003c0d57fe5b049050809150509392505050565b6120718062003c3883390190565b6120718062005ca98339019056fe60806040523480156200001157600080fd5b506040516200207138038062002071833981810160405260408110156200003757600080fd5b81019080805160405193929190846401000000008211156200005857600080fd5b838201915060208201858111156200006f57600080fd5b82518660018202830111640100000000821117156200008d57600080fd5b8083526020830192505050908051906020019080838360005b83811015620000c3578082015181840152602081019050620000a6565b50505050905090810190601f168015620000f15780820380516001836020036101000a031916815260200191505b50604052602001805160405193929190846401000000008211156200011557600080fd5b838201915060208201858111156200012c57600080fd5b82518660018202830111640100000000821117156200014a57600080fd5b8083526020830192505050908051906020019080838360005b838110156200018057808201518184015260208101905062000163565b50505050905090810190601f168015620001ae5780820380516001836020036101000a031916815260200191505b5060405250505080826000620001c96200030060201b60201c565b9050806000806101000a81548173ffffffffffffffffffffffffffffffffffffffff021916908373ffffffffffffffffffffffffffffffffffffffff1602179055508073ffffffffffffffffffffffffffffffffffffffff16600073ffffffffffffffffffffffffffffffffffffffff167f8be0079c531659141344cd1fd0a4f28419497f9722a3daafe3b4186f6b6457e060405160405180910390a35081600490805190602001906200027f92919062000308565b5080600590805190602001906200029892919062000308565b506012600660006101000a81548160ff021916908360ff160217905550505033600660016101000a81548173ffffffffffffffffffffffffffffffffffffffff021916908373ffffffffffffffffffffffffffffffffffffffff1602179055505050620003b7565b600033905090565b828054600181600116156101000203166002900490600052602060002090601f016020900481019282601f106200034b57805160ff19168380011785556200037c565b828001600101855582156200037c579182015b828111156200037b5782518255916020019190600101906200035e565b5b5090506200038b91906200038f565b5090565b620003b491905b80821115620003b057600081600090555060010162000396565b5090565b90565b611caa80620003c76000396000f3fe608060405234801561001057600080fd5b506004361061010b5760003560e01c806370a08231116100a25780639dc29fac116100715780639dc29fac146104ee578063a457c2d71461053c578063a9059cbb146105a2578063dd62ed3e14610608578063f2fde38b146106805761010b565b806370a08231146103bf578063715018a6146104175780638da5cb5b1461042157806395d89b411461046b5761010b565b806323b872dd116100de57806323b872dd14610261578063313ce567146102e7578063395093511461030b57806340c10f19146103715761010b565b806306fdde0314610110578063095ea7b31461019357806318160ddd146101f9578063230b9da314610217575b600080fd5b6101186106c4565b6040518080602001828103825283818151815260200191508051906020019080838360005b8381101561015857808201518184015260208101905061013d565b50505050905090810190601f1680156101855780820380516001836020036101000a031916815260200191505b509250505060405180910390f35b6101df600480360360408110156101a957600080fd5b81019080803573ffffffffffffffffffffffffffffffffffffffff16906020019092919080359060200190929190505050610766565b604051808215151515815260200191505060405180910390f35b610201610784565b6040518082815260200191505060405180910390f35b61021f61078e565b604051808273ffffffffffffffffffffffffffffffffffffffff1673ffffffffffffffffffffffffffffffffffffffff16815260200191505060405180910390f35b6102cd6004803603606081101561027757600080fd5b81019080803573ffffffffffffffffffffffffffffffffffffffff169060200190929190803573ffffffffffffffffffffffffffffffffffffffff169060200190929190803590602001909291905050506107b4565b604051808215151515815260200191505060405180910390f35b6102ef61088d565b604051808260ff1660ff16815260200191505060405180910390f35b6103576004803603604081101561032157600080fd5b81019080803573ffffffffffffffffffffffffffffffffffffffff169060200190929190803590602001909291905050506108a4565b604051808215151515815260200191505060405180910390f35b6103bd6004803603604081101561038757600080fd5b81019080803573ffffffffffffffffffffffffffffffffffffffff16906020019092919080359060200190929190505050610957565b005b610401600480360360208110156103d557600080fd5b81019080803573ffffffffffffffffffffffffffffffffffffffff169060200190929190505050610a2e565b6040518082815260200191505060405180910390f35b61041f610a77565b005b610429610bff565b604051808273ffffffffffffffffffffffffffffffffffffffff1673ffffffffffffffffffffffffffffffffffffffff16815260200191505060405180910390f35b610473610c28565b6040518080602001828103825283818151815260200191508051906020019080838360005b838110156104b3578082015181840152602081019050610498565b50505050905090810190601f1680156104e05780820380516001836020036101000a031916815260200191505b509250505060405180910390f35b61053a6004803603604081101561050457600080fd5b81019080803573ffffffffffffffffffffffffffffffffffffffff16906020019092919080359060200190929190505050610cca565b005b6105886004803603604081101561055257600080fd5b81019080803573ffffffffffffffffffffffffffffffffffffffff16906020019092919080359060200190929190505050610da1565b604051808215151515815260200191505060405180910390f35b6105ee600480360360408110156105b857600080fd5b81019080803573ffffffffffffffffffffffffffffffffffffffff16906020019092919080359060200190929190505050610e6e565b604051808215151515815260200191505060405180910390f35b61066a6004803603604081101561061e57600080fd5b81019080803573ffffffffffffffffffffffffffffffffffffffff169060200190929190803573ffffffffffffffffffffffffffffffffffffffff169060200190929190505050610e8c565b6040518082815260200191505060405180910390f35b6106c26004803603602081101561069657600080fd5b81019080803573ffffffffffffffffffffffffffffffffffffffff169060200190929190505050610f13565b005b606060048054600181600116156101000203166002900480601f01602080910402602001604051908101604052809291908181526020018280546001816001161561010002031660029004801561075c5780601f106107315761010080835404028352916020019161075c565b820191906000526020600020905b81548152906001019060200180831161073f57829003601f168201915b5050505050905090565b600061077a610773611120565b8484611128565b6001905092915050565b6000600354905090565b600660019054906101000a900473ffffffffffffffffffffffffffffffffffffffff1681565b60006107c184848461131f565b610882846107cd611120565b61087d85604051806060016040528060288152602001611bbe60289139600260008b73ffffffffffffffffffffffffffffffffffffffff1673ffffffffffffffffffffffffffffffffffffffff1681526020019081526020016000206000610833611120565b73ffffffffffffffffffffffffffffffffffffffff1673ffffffffffffffffffffffffffffffffffffffff168152602001908152602001600020546115e49092919063ffffffff16565b611128565b600190509392505050565b6000600660009054906101000a900460ff16905090565b600061094d6108b1611120565b8461094885600260006108c2611120565b73ffffffffffffffffffffffffffffffffffffffff1673ffffffffffffffffffffffffffffffffffffffff16815260200190815260200160002060008973ffffffffffffffffffffffffffffffffffffffff1673ffffffffffffffffffffffffffffffffffffffff168152602001908152602001600020546116a490919063ffffffff16565b611128565b6001905092915050565b61095f611120565b73ffffffffffffffffffffffffffffffffffffffff166000809054906101000a900473ffffffffffffffffffffffffffffffffffffffff1673ffffffffffffffffffffffffffffffffffffffff1614610a20576040517f08c379a00000000000000000000000000000000000000000000000000000000081526004018080602001828103825260208152602001807f4f776e61626c653a2063616c6c6572206973206e6f7420746865206f776e657281525060200191505060405180910390fd5b610a2a828261172c565b5050565b6000600160008373ffffffffffffffffffffffffffffffffffffffff1673ffffffffffffffffffffffffffffffffffffffff168152602001908152602001600020549050919050565b610a7f611120565b73ffffffffffffffffffffffffffffffffffffffff166000809054906101000a900473ffffffffffffffffffffffffffffffffffffffff1673ffffffffffffffffffffffffffffffffffffffff1614610b40576040517f08c379a00000000000000000000000000000000000000000000000000000000081526004018080602001828103825260208152602001807f4f776e61626c653a2063616c6c6572206973206e6f7420746865206f776e657281525060200191505060405180910390fd5b600073ffffffffffffffffffffffffffffffffffffffff166000809054906101000a900473ffffffffffffffffffffffffffffffffffffffff1673ffffffffffffffffffffffffffffffffffffffff167f8be0079c531659141344cd1fd0a4f28419497f9722a3daafe3b4186f6b6457e060405160405180910390a360008060006101000a81548173ffffffffffffffffffffffffffffffffffffffff021916908373ffffffffffffffffffffffffffffffffffffffff160217905550565b60008060009054906101000a900473ffffffffffffffffffffffffffffffffffffffff16905090565b606060058054600181600116156101000203166002900480601f016020809104026020016040519081016040528092919081815260200182805460018160011615610100020316600290048015610cc05780601f10610c9557610100808354040283529160200191610cc0565b820191906000526020600020905b815481529060010190602001808311610ca357829003601f168201915b5050505050905090565b610cd2611120565b73ffffffffffffffffffffffffffffffffffffffff166000809054906101000a900473ffffffffffffffffffffffffffffffffffffffff1673ffffffffffffffffffffffffffffffffffffffff1614610d93576040517f08c379a00000000000000000000000000000000000000000000000000000000081526004018080602001828103825260208152602001807f4f776e61626c653a2063616c6c6572206973206e6f7420746865206f776e657281525060200191505060405180910390fd5b610d9d82826118f5565b5050565b6000610e64610dae611120565b84610e5f85604051806060016040528060258152602001611c506025913960026000610dd8611120565b73ffffffffffffffffffffffffffffffffffffffff1673ffffffffffffffffffffffffffffffffffffffff16815260200190815260200160002060008a73ffffffffffffffffffffffffffffffffffffffff1673ffffffffffffffffffffffffffffffffffffffff168152602001908152602001600020546115e49092919063ffffffff16565b611128565b6001905092915050565b6000610e82610e7b611120565b848461131f565b6001905092915050565b6000600260008473ffffffffffffffffffffffffffffffffffffffff1673ffffffffffffffffffffffffffffffffffffffff16815260200190815260200160002060008373ffffffffffffffffffffffffffffffffffffffff1673ffffffffffffffffffffffffffffffffffffffff16815260200190815260200160002054905092915050565b610f1b611120565b73ffffffffffffffffffffffffffffffffffffffff166000809054906101000a900473ffffffffffffffffffffffffffffffffffffffff1673ffffffffffffffffffffffffffffffffffffffff1614610fdc576040517f08c379a00000000000000000000000000000000000000000000000000000000081526004018080602001828103825260208152602001807f4f776e61626c653a2063616c6c6572206973206e6f7420746865206f776e657281525060200191505060405180910390fd5b600073ffffffffffffffffffffffffffffffffffffffff168173ffffffffffffffffffffffffffffffffffffffff161415611062576040517f08c379a0000000000000000000000000000000000000000000000000000000008152600401808060200182810382526026815260200180611b506026913960400191505060405180910390fd5b8073ffffffffffffffffffffffffffffffffffffffff166000809054906101000a900473ffffffffffffffffffffffffffffffffffffffff1673ffffffffffffffffffffffffffffffffffffffff167f8be0079c531659141344cd1fd0a4f28419497f9722a3daafe3b4186f6b6457e060405160405180910390a3806000806101000a81548173ffffffffffffffffffffffffffffffffffffffff021916908373ffffffffffffffffffffffffffffffffffffffff16021790555050565b600033905090565b600073ffffffffffffffffffffffffffffffffffffffff168373ffffffffffffffffffffffffffffffffffffffff1614156111ae576040517f08c379a0000000000000000000000000000000000000000000000000000000008152600401808060200182810382526024815260200180611c2c6024913960400191505060405180910390fd5b600073ffffffffffffffffffffffffffffffffffffffff168273ffffffffffffffffffffffffffffffffffffffff161415611234576040517f08c379a0000000000000000000000000000000000000000000000000000000008152600401808060200182810382526022815260200180611b766022913960400191505060405180910390fd5b80600260008573ffffffffffffffffffffffffffffffffffffffff1673ffffffffffffffffffffffffffffffffffffffff16815260200190815260200160002060008473ffffffffffffffffffffffffffffffffffffffff1673ffffffffffffffffffffffffffffffffffffffff168152602001908152602001600020819055508173ffffffffffffffffffffffffffffffffffffffff168373ffffffffffffffffffffffffffffffffffffffff167f8c5be1e5ebec7d5bd14f71427d1e84f3dd0314c0f7b2291e5b200ac8c7c3b925836040518082815260200191505060405180910390a3505050565b600073ffffffffffffffffffffffffffffffffffffffff168373ffffffffffffffffffffffffffffffffffffffff1614156113a5576040517f08c379a0000000000000000000000000000000000000000000000000000000008152600401808060200182810382526025815260200180611c076025913960400191505060405180910390fd5b600073ffffffffffffffffffffffffffffffffffffffff168273ffffffffffffffffffffffffffffffffffffffff16141561142b576040517f08c379a0000000000000000000000000000000000000000000000000000000008152600401808060200182810382526023815260200180611b0b6023913960400191505060405180910390fd5b611436838383611abb565b6114a281604051806060016040528060268152602001611b9860269139600160008773ffffffffffffffffffffffffffffffffffffffff1673ffffffffffffffffffffffffffffffffffffffff168152602001908152602001600020546115e49092919063ffffffff16565b600160008573ffffffffffffffffffffffffffffffffffffffff1673ffffffffffffffffffffffffffffffffffffffff1681526020019081526020016000208190555061153781600160008573ffffffffffffffffffffffffffffffffffffffff1673ffffffffffffffffffffffffffffffffffffffff168152602001908152602001600020546116a490919063ffffffff16565b600160008473ffffffffffffffffffffffffffffffffffffffff1673ffffffffffffffffffffffffffffffffffffffff168152602001908152602001600020819055508173ffffffffffffffffffffffffffffffffffffffff168373ffffffffffffffffffffffffffffffffffffffff167fddf252ad1be2c89b69c2b068fc378daa952ba7f163c4a11628f55a4df523b3ef836040518082815260200191505060405180910390a3505050565b6000838311158290611691576040517f08c379a00000000000000000000000000000000000000000000000000000000081526004018080602001828103825283818151815260200191508051906020019080838360005b8381101561165657808201518184015260208101905061163b565b50505050905090810190601f1680156116835780820380516001836020036101000a031916815260200191505b509250505060405180910390fd5b5060008385039050809150509392505050565b600080828401905083811015611722576040517f08c379a000000000000000000000000000000000000000000000000000000000815260040180806020018281038252601b8152602001807f536166654d6174683a206164646974696f6e206f766572666c6f77000000000081525060200191505060405180910390fd5b8091505092915050565b600073ffffffffffffffffffffffffffffffffffffffff168273ffffffffffffffffffffffffffffffffffffffff1614156117cf576040517f08c379a000000000000000000000000000000000000000000000000000000000815260040180806020018281038252601f8152602001807f45524332303a206d696e7420746f20746865207a65726f20616464726573730081525060200191505060405180910390fd5b6117db60008383611abb565b6117f0816003546116a490919063ffffffff16565b60038190555061184881600160008573ffffffffffffffffffffffffffffffffffffffff1673ffffffffffffffffffffffffffffffffffffffff168152602001908152602001600020546116a490919063ffffffff16565b600160008473ffffffffffffffffffffffffffffffffffffffff1673ffffffffffffffffffffffffffffffffffffffff168152602001908152602001600020819055508173ffffffffffffffffffffffffffffffffffffffff16600073ffffffffffffffffffffffffffffffffffffffff167fddf252ad1be2c89b69c2b068fc378daa952ba7f163c4a11628f55a4df523b3ef836040518082815260200191505060405180910390a35050565b600073ffffffffffffffffffffffffffffffffffffffff168273ffffffffffffffffffffffffffffffffffffffff16141561197b576040517f08c379a0000000000000000000000000000000000000000000000000000000008152600401808060200182810382526021815260200180611be66021913960400191505060405180910390fd5b61198782600083611abb565b6119f381604051806060016040528060228152602001611b2e60229139600160008673ffffffffffffffffffffffffffffffffffffffff1673ffffffffffffffffffffffffffffffffffffffff168152602001908152602001600020546115e49092919063ffffffff16565b600160008473ffffffffffffffffffffffffffffffffffffffff1673ffffffffffffffffffffffffffffffffffffffff16815260200190815260200160002081905550611a4b81600354611ac090919063ffffffff16565b600381905550600073ffffffffffffffffffffffffffffffffffffffff168273ffffffffffffffffffffffffffffffffffffffff167fddf252ad1be2c89b69c2b068fc378daa952ba7f163c4a11628f55a4df523b3ef836040518082815260200191505060405180910390a35050565b505050565b6000611b0283836040518060400160405280601e81526020017f536166654d6174683a207375627472616374696f6e206f766572666c6f7700008152506115e4565b90509291505056fe45524332303a207472616e7366657220746f20746865207a65726f206164647265737345524332303a206275726e20616d6f756e7420657863656564732062616c616e63654f776e61626c653a206e6577206f776e657220697320746865207a65726f206164647265737345524332303a20617070726f766520746f20746865207a65726f206164647265737345524332303a207472616e7366657220616d6f756e7420657863656564732062616c616e636545524332303a207472616e7366657220616d6f756e74206578636565647320616c6c6f77616e636545524332303a206275726e2066726f6d20746865207a65726f206164647265737345524332303a207472616e736665722066726f6d20746865207a65726f206164647265737345524332303a20617070726f76652066726f6d20746865207a65726f206164647265737345524332303a2064656372656173656420616c6c6f77616e63652062656c6f77207a65726fa2646970667358221220aaa35f19f042c76c2cb1efbc4e85baa664aeb920b90d8a36757633ac39a8f17464736f6c6343000606003360806040523480156200001157600080fd5b506040516200207138038062002071833981810160405260408110156200003757600080fd5b81019080805160405193929190846401000000008211156200005857600080fd5b838201915060208201858111156200006f57600080fd5b82518660018202830111640100000000821117156200008d57600080fd5b8083526020830192505050908051906020019080838360005b83811015620000c3578082015181840152602081019050620000a6565b50505050905090810190601f168015620000f15780820380516001836020036101000a031916815260200191505b50604052602001805160405193929190846401000000008211156200011557600080fd5b838201915060208201858111156200012c57600080fd5b82518660018202830111640100000000821117156200014a57600080fd5b8083526020830192505050908051906020019080838360005b838110156200018057808201518184015260208101905062000163565b50505050905090810190601f168015620001ae5780820380516001836020036101000a031916815260200191505b5060405250505080826000620001c96200030060201b60201c565b9050806000806101000a81548173ffffffffffffffffffffffffffffffffffffffff021916908373ffffffffffffffffffffffffffffffffffffffff1602179055508073ffffffffffffffffffffffffffffffffffffffff16600073ffffffffffffffffffffffffffffffffffffffff167f8be0079c531659141344cd1fd0a4f28419497f9722a3daafe3b4186f6b6457e060405160405180910390a35081600490805190602001906200027f92919062000308565b5080600590805190602001906200029892919062000308565b506012600660006101000a81548160ff021916908360ff160217905550505033600660016101000a81548173ffffffffffffffffffffffffffffffffffffffff021916908373ffffffffffffffffffffffffffffffffffffffff1602179055505050620003b7565b600033905090565b828054600181600116156101000203166002900490600052602060002090601f016020900481019282601f106200034b57805160ff19168380011785556200037c565b828001600101855582156200037c579182015b828111156200037b5782518255916020019190600101906200035e565b5b5090506200038b91906200038f565b5090565b620003b491905b80821115620003b057600081600090555060010162000396565b5090565b90565b611caa80620003c76000396000f3fe608060405234801561001057600080fd5b506004361061010b5760003560e01c806370a08231116100a25780639dc29fac116100715780639dc29fac146104ee578063a457c2d71461053c578063a9059cbb146105a2578063dd62ed3e14610608578063f2fde38b146106805761010b565b806370a08231146103bf578063715018a6146104175780638da5cb5b1461042157806395d89b411461046b5761010b565b806323b872dd116100de57806323b872dd14610261578063313ce567146102e7578063395093511461030b57806340c10f19146103715761010b565b806306fdde0314610110578063095ea7b31461019357806318160ddd146101f9578063230b9da314610217575b600080fd5b6101186106c4565b6040518080602001828103825283818151815260200191508051906020019080838360005b8381101561015857808201518184015260208101905061013d565b50505050905090810190601f1680156101855780820380516001836020036101000a031916815260200191505b509250505060405180910390f35b6101df600480360360408110156101a957600080fd5b81019080803573ffffffffffffffffffffffffffffffffffffffff16906020019092919080359060200190929190505050610766565b604051808215151515815260200191505060405180910390f35b610201610784565b6040518082815260200191505060405180910390f35b61021f61078e565b604051808273ffffffffffffffffffffffffffffffffffffffff1673ffffffffffffffffffffffffffffffffffffffff16815260200191505060405180910390f35b6102cd6004803603606081101561027757600080fd5b81019080803573ffffffffffffffffffffffffffffffffffffffff169060200190929190803573ffffffffffffffffffffffffffffffffffffffff169060200190929190803590602001909291905050506107b4565b604051808215151515815260200191505060405180910390f35b6102ef61088d565b604051808260ff1660ff16815260200191505060405180910390f35b6103576004803603604081101561032157600080fd5b81019080803573ffffffffffffffffffffffffffffffffffffffff169060200190929190803590602001909291905050506108a4565b604051808215151515815260200191505060405180910390f35b6103bd6004803603604081101561038757600080fd5b81019080803573ffffffffffffffffffffffffffffffffffffffff16906020019092919080359060200190929190505050610957565b005b610401600480360360208110156103d557600080fd5b81019080803573ffffffffffffffffffffffffffffffffffffffff169060200190929190505050610a2e565b6040518082815260200191505060405180910390f35b61041f610a77565b005b610429610bff565b604051808273ffffffffffffffffffffffffffffffffffffffff1673ffffffffffffffffffffffffffffffffffffffff16815260200191505060405180910390f35b610473610c28565b6040518080602001828103825283818151815260200191508051906020019080838360005b838110156104b3578082015181840152602081019050610498565b50505050905090810190601f1680156104e05780820380516001836020036101000a031916815260200191505b509250505060405180910390f35b61053a6004803603604081101561050457600080fd5b81019080803573ffffffffffffffffffffffffffffffffffffffff16906020019092919080359060200190929190505050610cca565b005b6105886004803603604081101561055257600080fd5b81019080803573ffffffffffffffffffffffffffffffffffffffff16906020019092919080359060200190929190505050610da1565b604051808215151515815260200191505060405180910390f35b6105ee600480360360408110156105b857600080fd5b81019080803573ffffffffffffffffffffffffffffffffffffffff16906020019092919080359060200190929190505050610e6e565b604051808215151515815260200191505060405180910390f35b61066a6004803603604081101561061e57600080fd5b81019080803573ffffffffffffffffffffffffffffffffffffffff169060200190929190803573ffffffffffffffffffffffffffffffffffffffff169060200190929190505050610e8c565b6040518082815260200191505060405180910390f35b6106c26004803603602081101561069657600080fd5b81019080803573ffffffffffffffffffffffffffffffffffffffff169060200190929190505050610f13565b005b606060048054600181600116156101000203166002900480601f01602080910402602001604051908101604052809291908181526020018280546001816001161561010002031660029004801561075c5780601f106107315761010080835404028352916020019161075c565b820191906000526020600020905b81548152906001019060200180831161073f57829003601f168201915b5050505050905090565b600061077a610773611120565b8484611128565b6001905092915050565b6000600354905090565b600660019054906101000a900473ffffffffffffffffffffffffffffffffffffffff1681565b60006107c184848461131f565b610882846107cd611120565b61087d85604051806060016040528060288152602001611bbe60289139600260008b73ffffffffffffffffffffffffffffffffffffffff1673ffffffffffffffffffffffffffffffffffffffff1681526020019081526020016000206000610833611120565b73ffffffffffffffffffffffffffffffffffffffff1673ffffffffffffffffffffffffffffffffffffffff168152602001908152602001600020546115e49092919063ffffffff16565b611128565b600190509392505050565b6000600660009054906101000a900460ff16905090565b600061094d6108b1611120565b8461094885600260006108c2611120565b73ffffffffffffffffffffffffffffffffffffffff1673ffffffffffffffffffffffffffffffffffffffff16815260200190815260200160002060008973ffffffffffffffffffffffffffffffffffffffff1673ffffffffffffffffffffffffffffffffffffffff168152602001908152602001600020546116a490919063ffffffff16565b611128565b6001905092915050565b61095f611120565b73ffffffffffffffffffffffffffffffffffffffff166000809054906101000a900473ffffffffffffffffffffffffffffffffffffffff1673ffffffffffffffffffffffffffffffffffffffff1614610a20576040517f08c379a00000000000000000000000000000000000000000000000000000000081526004018080602001828103825260208152602001807f4f776e61626c653a2063616c6c6572206973206e6f7420746865206f776e657281525060200191505060405180910390fd5b610a2a828261172c565b5050565b6000600160008373ffffffffffffffffffffffffffffffffffffffff1673ffffffffffffffffffffffffffffffffffffffff168152602001908152602001600020549050919050565b610a7f611120565b73ffffffffffffffffffffffffffffffffffffffff166000809054906101000a900473ffffffffffffffffffffffffffffffffffffffff1673ffffffffffffffffffffffffffffffffffffffff1614610b40576040517f08c379a00000000000000000000000000000000000000000000000000000000081526004018080602001828103825260208152602001807f4f776e61626c653a2063616c6c6572206973206e6f7420746865206f776e657281525060200191505060405180910390fd5b600073ffffffffffffffffffffffffffffffffffffffff166000809054906101000a900473ffffffffffffffffffffffffffffffffffffffff1673ffffffffffffffffffffffffffffffffffffffff167f8be0079c531659141344cd1fd0a4f28419497f9722a3daafe3b4186f6b6457e060405160405180910390a360008060006101000a81548173ffffffffffffffffffffffffffffffffffffffff021916908373ffffffffffffffffffffffffffffffffffffffff160217905550565b60008060009054906101000a900473ffffffffffffffffffffffffffffffffffffffff16905090565b606060058054600181600116156101000203166002900480601f016020809104026020016040519081016040528092919081815260200182805460018160011615610100020316600290048015610cc05780601f10610c9557610100808354040283529160200191610cc0565b820191906000526020600020905b815481529060010190602001808311610ca357829003601f168201915b5050505050905090565b610cd2611120565b73ffffffffffffffffffffffffffffffffffffffff166000809054906101000a900473ffffffffffffffffffffffffffffffffffffffff1673ffffffffffffffffffffffffffffffffffffffff1614610d93576040517f08c379a00000000000000000000000000000000000000000000000000000000081526004018080602001828103825260208152602001807f4f776e61626c653a2063616c6c6572206973206e6f7420746865206f776e657281525060200191505060405180910390fd5b610d9d82826118f5565b5050565b6000610e64610dae611120565b84610e5f85604051806060016040528060258152602001611c506025913960026000610dd8611120565b73ffffffffffffffffffffffffffffffffffffffff1673ffffffffffffffffffffffffffffffffffffffff16815260200190815260200160002060008a73ffffffffffffffffffffffffffffffffffffffff1673ffffffffffffffffffffffffffffffffffffffff168152602001908152602001600020546115e49092919063ffffffff16565b611128565b6001905092915050565b6000610e82610e7b611120565b848461131f565b6001905092915050565b6000600260008473ffffffffffffffffffffffffffffffffffffffff1673ffffffffffffffffffffffffffffffffffffffff16815260200190815260200160002060008373ffffffffffffffffffffffffffffffffffffffff1673ffffffffffffffffffffffffffffffffffffffff16815260200190815260200160002054905092915050565b610f1b611120565b73ffffffffffffffffffffffffffffffffffffffff166000809054906101000a900473ffffffffffffffffffffffffffffffffffffffff1673ffffffffffffffffffffffffffffffffffffffff1614610fdc576040517f08c379a00000000000000000000000000000000000000000000000000000000081526004018080602001828103825260208152602001807f4f776e61626c653a2063616c6c6572206973206e6f7420746865206f776e657281525060200191505060405180910390fd5b600073ffffffffffffffffffffffffffffffffffffffff168173ffffffffffffffffffffffffffffffffffffffff161415611062576040517f08c379a0000000000000000000000000000000000000000000000000000000008152600401808060200182810382526026815260200180611b506026913960400191505060405180910390fd5b8073ffffffffffffffffffffffffffffffffffffffff166000809054906101000a900473ffffffffffffffffffffffffffffffffffffffff1673ffffffffffffffffffffffffffffffffffffffff167f8be0079c531659141344cd1fd0a4f28419497f9722a3daafe3b4186f6b6457e060405160405180910390a3806000806101000a81548173ffffffffffffffffffffffffffffffffffffffff021916908373ffffffffffffffffffffffffffffffffffffffff16021790555050565b600033905090565b600073ffffffffffffffffffffffffffffffffffffffff168373ffffffffffffffffffffffffffffffffffffffff1614156111ae576040517f08c379a0000000000000000000000000000000000000000000000000000000008152600401808060200182810382526024815260200180611c2c6024913960400191505060405180910390fd5b600073ffffffffffffffffffffffffffffffffffffffff168273ffffffffffffffffffffffffffffffffffffffff161415611234576040517f08c379a0000000000000000000000000000000000000000000000000000000008152600401808060200182810382526022815260200180611b766022913960400191505060405180910390fd5b80600260008573ffffffffffffffffffffffffffffffffffffffff1673ffffffffffffffffffffffffffffffffffffffff16815260200190815260200160002060008473ffffffffffffffffffffffffffffffffffffffff1673ffffffffffffffffffffffffffffffffffffffff168152602001908152602001600020819055508173ffffffffffffffffffffffffffffffffffffffff168373ffffffffffffffffffffffffffffffffffffffff167f8c5be1e5ebec7d5bd14f71427d1e84f3dd0314c0f7b2291e5b200ac8c7c3b925836040518082815260200191505060405180910390a3505050565b600073ffffffffffffffffffffffffffffffffffffffff168373ffffffffffffffffffffffffffffffffffffffff1614156113a5576040517f08c379a0000000000000000000000000000000000000000000000000000000008152600401808060200182810382526025815260200180611c076025913960400191505060405180910390fd5b600073ffffffffffffffffffffffffffffffffffffffff168273ffffffffffffffffffffffffffffffffffffffff16141561142b576040517f08c379a0000000000000000000000000000000000000000000000000000000008152600401808060200182810382526023815260200180611b0b6023913960400191505060405180910390fd5b611436838383611abb565b6114a281604051806060016040528060268152602001611b9860269139600160008773ffffffffffffffffffffffffffffffffffffffff1673ffffffffffffffffffffffffffffffffffffffff168152602001908152602001600020546115e49092919063ffffffff16565b600160008573ffffffffffffffffffffffffffffffffffffffff1673ffffffffffffffffffffffffffffffffffffffff1681526020019081526020016000208190555061153781600160008573ffffffffffffffffffffffffffffffffffffffff1673ffffffffffffffffffffffffffffffffffffffff168152602001908152602001600020546116a490919063ffffffff16565b600160008473ffffffffffffffffffffffffffffffffffffffff1673ffffffffffffffffffffffffffffffffffffffff168152602001908152602001600020819055508173ffffffffffffffffffffffffffffffffffffffff168373ffffffffffffffffffffffffffffffffffffffff167fddf252ad1be2c89b69c2b068fc378daa952ba7f163c4a11628f55a4df523b3ef836040518082815260200191505060405180910390a3505050565b6000838311158290611691576040517f08c379a00000000000000000000000000000000000000000000000000000000081526004018080602001828103825283818151815260200191508051906020019080838360005b8381101561165657808201518184015260208101905061163b565b50505050905090810190601f1680156116835780820380516001836020036101000a031916815260200191505b509250505060405180910390fd5b5060008385039050809150509392505050565b600080828401905083811015611722576040517f08c379a000000000000000000000000000000000000000000000000000000000815260040180806020018281038252601b8152602001807f536166654d6174683a206164646974696f6e206f766572666c6f77000000000081525060200191505060405180910390fd5b8091505092915050565b600073ffffffffffffffffffffffffffffffffffffffff168273ffffffffffffffffffffffffffffffffffffffff1614156117cf576040517f08c379a000000000000000000000000000000000000000000000000000000000815260040180806020018281038252601f8152602001807f45524332303a206d696e7420746f20746865207a65726f20616464726573730081525060200191505060405180910390fd5b6117db60008383611abb565b6117f0816003546116a490919063ffffffff16565b60038190555061184881600160008573ffffffffffffffffffffffffffffffffffffffff1673ffffffffffffffffffffffffffffffffffffffff168152602001908152602001600020546116a490919063ffffffff16565b600160008473ffffffffffffffffffffffffffffffffffffffff1673ffffffffffffffffffffffffffffffffffffffff168152602001908152602001600020819055508173ffffffffffffffffffffffffffffffffffffffff16600073ffffffffffffffffffffffffffffffffffffffff167fddf252ad1be2c89b69c2b068fc378daa952ba7f163c4a11628f55a4df523b3ef836040518082815260200191505060405180910390a35050565b600073ffffffffffffffffffffffffffffffffffffffff168273ffffffffffffffffffffffffffffffffffffffff16141561197b576040517f08c379a0000000000000000000000000000000000000000000000000000000008152600401808060200182810382526021815260200180611be66021913960400191505060405180910390fd5b61198782600083611abb565b6119f381604051806060016040528060228152602001611b2e60229139600160008673ffffffffffffffffffffffffffffffffffffffff1673ffffffffffffffffffffffffffffffffffffffff168152602001908152602001600020546115e49092919063ffffffff16565b600160008473ffffffffffffffffffffffffffffffffffffffff1673ffffffffffffffffffffffffffffffffffffffff16815260200190815260200160002081905550611a4b81600354611ac090919063ffffffff16565b600381905550600073ffffffffffffffffffffffffffffffffffffffff168273ffffffffffffffffffffffffffffffffffffffff167fddf252ad1be2c89b69c2b068fc378daa952ba7f163c4a11628f55a4df523b3ef836040518082815260200191505060405180910390a35050565b505050565b6000611b0283836040518060400160405280601e81526020017f536166654d6174683a207375627472616374696f6e206f766572666c6f7700008152506115e4565b90509291505056fe45524332303a207472616e7366657220746f20746865207a65726f206164647265737345524332303a206275726e20616d6f756e7420657863656564732062616c616e63654f776e61626c653a206e6577206f776e657220697320746865207a65726f206164647265737345524332303a20617070726f766520746f20746865207a65726f206164647265737345524332303a207472616e7366657220616d6f756e7420657863656564732062616c616e636545524332303a207472616e7366657220616d6f756e74206578636565647320616c6c6f77616e636545524332303a206275726e2066726f6d20746865207a65726f206164647265737345524332303a207472616e736665722066726f6d20746865207a65726f206164647265737345524332303a20617070726f76652066726f6d20746865207a65726f206164647265737345524332303a2064656372656173656420616c6c6f77616e63652062656c6f77207a65726fa2646970667358221220613c234f4b5d7fecfa8fb49284bc2c481316262c86fe2d5b324e4a417de50a7664736f6c634300060600334f776e61626c653a206e6577206f776e657220697320746865207a65726f2061646472657373536166654d6174683a206d756c7469706c69636174696f6e206f766572666c6f774f6e6c79204d6f6e6579204d61726b657420466163746f72793a2063616c6c6572206973206e6f7420746865204d6f6e6579204d61726b657420466163746f7279a2646970667358221220e6e3c1469b128b3eaec431e1ff88e2e202ce471964acc38fd4902bacdfa69cdb64736f6c634300060600334f776e61626c653a206e6577206f776e657220697320746865207a65726f206164647265737360806040523480156200001157600080fd5b5060405162000e6638038062000e66833981810160405260a08110156200003757600080fd5b810190808051906020019092919080519060200190929190805190602001909291908051906020019092919080519060200190929190505050806000806101000a81548173ffffffffffffffffffffffffffffffffffffffff021916908373ffffffffffffffffffffffffffffffffffffffff160217905550620000c485858585620000cf60201b60201c565b50505050506200037e565b620000ec6220148085620001d660201b620006b41790919060201c565b600281905550620001496200011382622014806200022860201b6200062e1790919060201c565b62000135670de0b6b3a7640000866200022860201b6200062e1790919060201c565b620001d660201b620006b41790919060201c565b6001819055506200016c6220148083620001d660201b620006b41790919060201c565b600381905550806004819055507f6960ab234c7ef4b0c9197100f5393cfcde7c453ac910a27bd2000aa1dd4c068d6002546001546003546004546040518085815260200184815260200183815260200182815260200194505050505060405180910390a150505050565b60006200022083836040518060400160405280601a81526020017f536166654d6174683a206469766973696f6e206279207a65726f000000000000815250620002b360201b60201c565b905092915050565b6000808314156200023d5760009050620002ad565b60008284029050828482816200024f57fe5b0414620002a8576040517f08c379a000000000000000000000000000000000000000000000000000000000815260040180806020018281038252602181526020018062000e456021913960400191505060405180910390fd5b809150505b92915050565b6000808311829062000363576040517f08c379a00000000000000000000000000000000000000000000000000000000081526004018080602001828103825283818151815260200191508051906020019080838360005b83811015620003275780820151818401526020810190506200030a565b50505050905090810190601f168015620003555780820380516001836020036101000a031916815260200191505b509250505060405180910390fd5b5060008385816200037057fe5b049050809150509392505050565b610ab7806200038e6000396000f3fe608060405234801561001057600080fd5b50600436106100a95760003560e01c80638da5cb5b116100715780638da5cb5b146101e6578063a385fb9614610230578063b81688161461024e578063b9f9850a146102ae578063f14039de146102cc578063fd2da339146102ea576100a9565b806315f24053146100ae5780632037f3e7146101045780632191f92a146101505780636e71e2d8146101725780638726bb89146101c8575b600080fd5b6100ee600480360360608110156100c457600080fd5b81019080803590602001909291908035906020019092919080359060200190929190505050610308565b6040518082815260200191505060405180910390f35b61014e6004803603608081101561011a57600080fd5b810190808035906020019092919080359060200190929190803590602001909291908035906020019092919050505061041c565b005b6101586104d3565b604051808215151515815260200191505060405180910390f35b6101b26004803603606081101561018857600080fd5b810190808035906020019092919080359060200190929190803590602001909291905050506104d8565b6040518082815260200191505060405180910390f35b6101d0610546565b6040518082815260200191505060405180910390f35b6101ee61054c565b604051808273ffffffffffffffffffffffffffffffffffffffff1673ffffffffffffffffffffffffffffffffffffffff16815260200191505060405180910390f35b610238610571565b6040518082815260200191505060405180910390f35b6102986004803603608081101561026457600080fd5b8101908080359060200190929190803590602001909291908035906020019092919080359060200190929190505050610578565b6040518082815260200191505060405180910390f35b6102b661061c565b6040518082815260200191505060405180910390f35b6102d4610622565b6040518082815260200191505060405180910390f35b6102f2610628565b6040518082815260200191505060405180910390f35b6000806103168585856104d8565b9050600454811161036c57610364600254610356670de0b6b3a76400006103486001548661062e90919063ffffffff16565b6106b490919063ffffffff16565b6106fe90919063ffffffff16565b915050610415565b60006103b36002546103a5670de0b6b3a764000061039760015460045461062e90919063ffffffff16565b6106b490919063ffffffff16565b6106fe90919063ffffffff16565b905060006103cc6004548461078690919063ffffffff16565b905061040f82610401670de0b6b3a76400006103f36003548661062e90919063ffffffff16565b6106b490919063ffffffff16565b6106fe90919063ffffffff16565b93505050505b9392505050565b6000809054906101000a900473ffffffffffffffffffffffffffffffffffffffff1673ffffffffffffffffffffffffffffffffffffffff163373ffffffffffffffffffffffffffffffffffffffff16146104c1576040517f08c379a0000000000000000000000000000000000000000000000000000000008152600401808060200182810382526026815260200180610a5c6026913960400191505060405180910390fd5b6104cd848484846107d0565b50505050565b600181565b6000808314156104eb576000905061053f565b61053c6105138361050586886106fe90919063ffffffff16565b61078690919063ffffffff16565b61052e670de0b6b3a76400008661062e90919063ffffffff16565b6106b490919063ffffffff16565b90505b9392505050565b60015481565b6000809054906101000a900473ffffffffffffffffffffffffffffffffffffffff1681565b6220148081565b60008061059683670de0b6b3a764000061078690919063ffffffff16565b905060006105a5878787610308565b905060006105d6670de0b6b3a76400006105c8858561062e90919063ffffffff16565b6106b490919063ffffffff16565b905061060f670de0b6b3a7640000610601836105f38c8c8c6104d8565b61062e90919063ffffffff16565b6106b490919063ffffffff16565b9350505050949350505050565b60035481565b60025481565b60045481565b60008083141561064157600090506106ae565b600082840290508284828161065257fe5b04146106a9576040517f08c379a0000000000000000000000000000000000000000000000000000000008152600401808060200182810382526021815260200180610a3b6021913960400191505060405180910390fd5b809150505b92915050565b60006106f683836040518060400160405280601a81526020017f536166654d6174683a206469766973696f6e206279207a65726f0000000000008152506108b4565b905092915050565b60008082840190508381101561077c576040517f08c379a000000000000000000000000000000000000000000000000000000000815260040180806020018281038252601b8152602001807f536166654d6174683a206164646974696f6e206f766572666c6f77000000000081525060200191505060405180910390fd5b8091505092915050565b60006107c883836040518060400160405280601e81526020017f536166654d6174683a207375627472616374696f6e206f766572666c6f77000081525061097a565b905092915050565b6107e662201480856106b490919063ffffffff16565b60028190555061082e610805826220148061062e90919063ffffffff16565b610820670de0b6b3a76400008661062e90919063ffffffff16565b6106b490919063ffffffff16565b60018190555061084a62201480836106b490919063ffffffff16565b600381905550806004819055507f6960ab234c7ef4b0c9197100f5393cfcde7c453ac910a27bd2000aa1dd4c068d6002546001546003546004546040518085815260200184815260200183815260200182815260200194505050505060405180910390a150505050565b60008083118290610960576040517f08c379a00000000000000000000000000000000000000000000000000000000081526004018080602001828103825283818151815260200191508051906020019080838360005b8381101561092557808201518184015260208101905061090a565b50505050905090810190601f1680156109525780820380516001836020036101000a031916815260200191505b509250505060405180910390fd5b50600083858161096c57fe5b049050809150509392505050565b6000838311158290610a27576040517f08c379a00000000000000000000000000000000000000000000000000000000081526004018080602001828103825283818151815260200191508051906020019080838360005b838110156109ec5780820151818401526020810190506109d1565b50505050905090810190601f168015610a195780820380516001836020036101000a031916815260200191505b509250505060405180910390fd5b506000838503905080915050939250505056fe536166654d6174683a206d756c7469706c69636174696f6e206f766572666c6f776f6e6c7920746865206f776e6572206d61792063616c6c20746869732066756e6374696f6e2ea264697066735822122067e75ad88d4e12b11537ab96ace4d7f7b32c103d290b8733be5a496756eb9d5364736f6c63430006060033536166654d6174683a206d756c7469706c69636174696f6e206f766572666c6f774f776e61626c653a206e6577206f776e657220697320746865207a65726f2061646472657373496e73756666696365696e7420414c522062616c616e636520666f722074686973206173736574a264697066735822122082fd3c312ec7c7f46e26d65fcb7e516fc9158208bd1f0938a7abacc4872c394b64736f6c63430006060033",
  "immutableReferences": {},
  "source": "pragma solidity ^0.6.2;\n\nimport \"@openzeppelin/contracts/access/Ownable.sol\";\nimport \"./MoneyMarketInstance.sol\";\nimport \"./interfaces/UniswapOracleFactoryI.sol\";\nimport \"./interfaces/UniswapOracleInstanceI.sol\";\nimport \"./interestTools/JumpRateModelV2.sol\";\n\n////////////////////////////////////////////////////////////////////////////////////////////\n/// @title MoneyMarketFactory\n/// @author Christopher Dixon\n////////////////////////////////////////////////////////////////////////////////////////////\n/**\nThe MoneyMarketFactory contract is designed to produce individual MoneyMarketInstance contracts\nThis contract uses the OpenZeppelin contract Library to inherit functions from\n  Ownable.sol\n**/\n\ncontract MoneyMarketFactory is Ownable {\n  using SafeMath for uint256;\n\n\n\n  uint public instanceCount;//tracks the number of instances\n  address public usdc;//address of stablecoin for $ amounts through the oracle\n  address public factoryU;//address of the uniswap factory to be passed to the oracle factory\n\n  UniswapOracleFactoryI public Oracle;//oracle factory contract interface\n\n  mapping(address => address) public instanceTracker; //maps erc20 address to the assets MoneyMarketInstance\n  mapping(address => address) public _ALRtracker; // tracks a money markets address to its ALR token.\n  mapping(address => address) public oracleTracker; //maps a MM oracle to its Money market address\n  mapping(address => mapping(address => uint)) public collateralized;// maps a users address to MoneyMakerInstance address to the amount of ALR STAKED\n  mapping(address => address[]) public stakedALRs;//tracks which Money Markets a user has ALRs staked in.\n/**\n@notice the constructor function is fired during the contract deployment process. The constructor can only be fired once and\n        is used to set up the usdc, factoryU, and Oracle variables for the MoneyMarketFactory contract.\n@param _usdc is the contract address for the USDC stablecoin contract\n@param _factoryU is the address for the uniswap factory contract\n@param _oracle is the address for the UniswapOracleFactorycontract\n**/\nconstructor (address _usdc, address _factoryU, address _oracle) public {\n  usdc = _usdc;\n  factoryU = _factoryU;\n  Oracle = UniswapOracleFactoryI(_oracle);\n}\n\n/**\n@notice whitelistAsset is an onlyOwner function designed to be called by the AskoDAO.\n        This function creates a new MoneyMarketInstancecontract for an input asset as well\n        as a UniswapOracleInstance for the asset.\n@param _assetContractAdd is the address of the ERC20 asset being whitelisted\n@param _assetName is the name of the asset(e.x: ChainLink)\n@param _assetSymbol is the symbol of the asset(e.x: LINK)\n**/\n  function whitelistAsset(\n    address _assetContractAdd,\n\t\tstring memory _assetName,\n\t\tstring memory _assetSymbol\n  )\n  public\n  onlyOwner\n  {\n    instanceCount++;\n    address oracle = address(Oracle.createNewOracle(factoryU, _assetContractAdd, usdc));\n\n    address _MMinstance = address(new MoneyMarketInstance (\n       _assetContractAdd,\n       msg.sender,\n       oracle,\n  \t\t _assetName,\n  \t\t _assetSymbol\n    ));\n    instanceTracker[_assetContractAdd] = _MMinstance;\n    oracleTracker[_MMinstance] = oracle;\n  }\n\n/**\n@notice setUpAHR is used to set up a MoneyMarketInstances Asko High Risk Token as well as its InterestRateModel\n@param _baseRatePerYear The approximate target base APR, as a mantissa (scaled by 1e18)\n@param _multiplierPerYear  The rate of increase in interest rate wrt utilization (scaled by 1e18)\n@param _jumpMultiplierPerYear The multiplierPerBlock after hitting a specified utilization point\n@param _optimal The utilization point at which the jump multiplier is applied(Refered to as the Kink in the InterestRateModel)\n@param _fee is a number representing the fee for exchanging an ALR token, as a mantissa (scaled by 1e18)\n@param _assetContractAdd is the contract address of the asset whos MoneyMarketInstance is being set up\n**/\n  function setUpAHR(\n    uint _baseRatePerYear,\n    uint _multiplierPerYear,\n    uint _jumpMultiplierPerYear,\n    uint _optimal,\n    uint _fee,\n    address _assetContractAdd\n  )\n  public\n  {\n    MoneyMarketInstance _MMI = MoneyMarketInstance(instanceTracker[_assetContractAdd]);\n\n    address interestRateModel = address( new JumpRateModelV2(\n      _baseRatePerYear,\n      _multiplierPerYear,\n      _jumpMultiplierPerYear,\n      _optimal,\n      address(_MMI)\n    ));\n\n_MMI._setUpAHR(\n  interestRateModel,\n  _fee\n);\n  }\n\n/**\n@notice setUpAHR is used to set up a MoneyMarketInstances Asko High Risk Token as well as its InterestRateModel\n@param _baseRatePerYear The approximate target base APR, as a mantissa (scaled by 1e18)\n@param _multiplierPerYear  The rate of increase in interest rate wrt utilization (scaled by 1e18)\n@param _jumpMultiplierPerYear The multiplierPerBlock after hitting a specified utilization point\n@param _optimal The utilization point at which the jump multiplier is applied(Refered to as the Kink in the InterestRateModel)\n@param _fee is a number representing the fee for exchanging an ALR token, as a mantissa (scaled by 1e18)\n@param _assetContractAdd is the contract address of the asset whos MoneyMarketInstance is being set up\n**/\n  function setUpALR(\n    uint _baseRatePerYear,\n    uint _multiplierPerYear,\n    uint _jumpMultiplierPerYear,\n    uint _optimal,\n    uint _fee,\n    address _assetContractAdd\n  )\n  public\n  {\n    MoneyMarketInstance _MMI = MoneyMarketInstance(instanceTracker[_assetContractAdd]);\n\n    address interestRateModel = address( new JumpRateModelV2(\n      _baseRatePerYear,\n      _multiplierPerYear,\n      _jumpMultiplierPerYear,\n      _optimal,\n      address(_MMI)\n    ));\n\n    _MMI._setUpALR(\n      interestRateModel,\n      _fee\n    );\n  }\n\n/**\n@notice stakeALR allows a user to stake his ALR as collateral so that he can borrow from an Money market\n@param _MMinstance is the address of the instance that owns the ALR token the user wishes to stake\n@param _amount is the amount of ALR token the user wishes to stake\n**/\n  function stakeALR(address _MMinstance, uint _amount) public {\n    MoneyMarketInstance _MMI = MoneyMarketInstance(_MMinstance);\n    AskoLowRisk _ALR = AskoLowRisk(_MMI.getALRadd());\n    require(_ALR.balanceOf(msg.sender) >= _amount, \"Insufficeint ALR balance for this asset\");\n    _MMI.factoryBurn(msg.sender, _amount);\n    collateralized[msg.sender][_MMinstance] = _amount;\n    stakedALRs[msg.sender].push(_MMinstance);\n  }\n\n/**\n@notice getTotalStakeValue calculates the total USDC value of all of the ALR tokens a user has staked\n@param _usersAdd is the address of the user whos stake value is being looked up\n@return is the uint amount of USDC value for all of a users staked ALR\n**/\nfunction getTotalStakeValue(address _usersAdd) public view returns(uint) {\n  uint totalAmountStaked;\n\n  for (uint i = 0; i < stakedALRs[_usersAdd].length; i++) {\n           address _MMI = stakedALRs[_usersAdd][i];\n           uint amountStaked = collateralized[_usersAdd][_MMI];\n           UniswapOracleInstanceI oracle = UniswapOracleInstanceI(oracleTracker[_MMI]);\n           uint usdPrice = oracle.consult(amountStaked);\n           totalAmountStaked.add(usdPrice);\n       }\n\n       return totalAmountStaked;\n}\n\n/**\n@notice addCollateral is used to add collateral to\n@param _MMinstance is the address of the MoneyMarketInstance where the collateral is being added\n@param _amount is the amount of asset being repayed\n**/\n  \tfunction addCollateral(address _MMinstance, uint _amount) public {\n      MoneyMarketInstance _MMI = MoneyMarketInstance(_MMinstance);\n      AskoLowRisk _ALR = AskoLowRisk(_MMI.getALRadd());\n      require(_ALR.balanceOf(msg.sender) >= _amount, \"Insufficeint ALR balance for this asset\");\n      _MMI.factoryBurn(msg.sender, _amount);\n      collateralized[msg.sender][_MMinstance] = collateralized[msg.sender][_MMinstance].add(_amount);\n    }\n\n\n\n/**\n@notice _repay is an external function called by a MoneyMarketInstance to signify that a loan has been repayed by a user\n@param _MMinstance is the address of the MoneyMarketInstance where the loan was payed off\n@param _userAdd is the address of the user who payed this loan off\n**/\n    function _repay(address _MMinstance, address _userAdd) external {\n      MoneyMarketInstance _MMI = MoneyMarketInstance(_MMinstance);\n      uint _amount = collateralized[_userAdd][_MMinstance];\n      _MMI.factoryMint(msg.sender, _amount);\n      collateralized[_userAdd][_MMinstance] = 0;\n    }\n\n}\n",
  "sourcePath": "/home/stan36/repos/Askolend/smart-contracts/contracts/MoneyMarketFactory.sol",
  "compiler": {
    "name": "solc",
    "version": "0.6.6+commit.6c089d02.Emscripten.clang"
  },
  "schemaVersion": "3.2.5",
  "updatedAt": "2020-09-24T17:26:31.053Z",
  "devdoc": {
    "methods": {
      "_repay(address,address)": {
        "params": {
          "_MMinstance": "is the address of the MoneyMarketInstance where the loan was payed off",
          "_userAdd": "is the address of the user who payed this loan off*"
        }
      },
      "addCollateral(address,uint256)": {
        "params": {
          "_MMinstance": "is the address of the MoneyMarketInstance where the collateral is being added",
          "_amount": "is the amount of asset being repayed*"
        }
      },
      "constructor": {
        "params": {
          "_factoryU": "is the address for the uniswap factory contract",
          "_oracle": "is the address for the UniswapOracleFactorycontract*",
          "_usdc": "is the contract address for the USDC stablecoin contract"
        }
      },
      "getTotalStakeValue(address)": {
        "params": {
          "_usersAdd": "is the address of the user whos stake value is being looked up"
        },
        "returns": {
          "_0": "is the uint amount of USDC value for all of a users staked ALR*"
        }
      },
      "owner()": {
        "details": "Returns the address of the current owner."
      },
      "renounceOwnership()": {
        "details": "Leaves the contract without owner. It will not be possible to call `onlyOwner` functions anymore. Can only be called by the current owner.     * NOTE: Renouncing ownership will leave the contract without an owner, thereby removing any functionality that is only available to the owner."
      },
      "setUpAHR(uint256,uint256,uint256,uint256,uint256,address)": {
        "params": {
          "_assetContractAdd": "is the contract address of the asset whos MoneyMarketInstance is being set up*",
          "_baseRatePerYear": "The approximate target base APR, as a mantissa (scaled by 1e18)",
          "_fee": "is a number representing the fee for exchanging an ALR token, as a mantissa (scaled by 1e18)",
          "_jumpMultiplierPerYear": "The multiplierPerBlock after hitting a specified utilization point",
          "_multiplierPerYear": "The rate of increase in interest rate wrt utilization (scaled by 1e18)",
          "_optimal": "The utilization point at which the jump multiplier is applied(Refered to as the Kink in the InterestRateModel)"
        }
      },
      "setUpALR(uint256,uint256,uint256,uint256,uint256,address)": {
        "params": {
          "_assetContractAdd": "is the contract address of the asset whos MoneyMarketInstance is being set up*",
          "_baseRatePerYear": "The approximate target base APR, as a mantissa (scaled by 1e18)",
          "_fee": "is a number representing the fee for exchanging an ALR token, as a mantissa (scaled by 1e18)",
          "_jumpMultiplierPerYear": "The multiplierPerBlock after hitting a specified utilization point",
          "_multiplierPerYear": "The rate of increase in interest rate wrt utilization (scaled by 1e18)",
          "_optimal": "The utilization point at which the jump multiplier is applied(Refered to as the Kink in the InterestRateModel)"
        }
      },
      "stakeALR(address,uint256)": {
        "params": {
          "_MMinstance": "is the address of the instance that owns the ALR token the user wishes to stake",
          "_amount": "is the amount of ALR token the user wishes to stake*"
        }
      },
      "transferOwnership(address)": {
        "details": "Transfers ownership of the contract to a new account (`newOwner`). Can only be called by the current owner."
      },
      "whitelistAsset(address,string,string)": {
        "params": {
          "_assetContractAdd": "is the address of the ERC20 asset being whitelisted",
          "_assetName": "is the name of the asset(e.x: ChainLink)",
          "_assetSymbol": "is the symbol of the asset(e.x: LINK)*"
        }
      }
    }
  },
  "userdoc": {
    "methods": {
      "_repay(address,address)": {
        "notice": "_repay is an external function called by a MoneyMarketInstance to signify that a loan has been repayed by a user"
      },
      "addCollateral(address,uint256)": {
        "notice": "addCollateral is used to add collateral to"
      },
      "constructor": "the constructor function is fired during the contract deployment process. The constructor can only be fired once and is used to set up the usdc, factoryU, and Oracle variables for the MoneyMarketFactory contract.",
      "getTotalStakeValue(address)": {
        "notice": "getTotalStakeValue calculates the total USDC value of all of the ALR tokens a user has staked"
      },
      "setUpAHR(uint256,uint256,uint256,uint256,uint256,address)": {
        "notice": "setUpAHR is used to set up a MoneyMarketInstances Asko High Risk Token as well as its InterestRateModel"
      },
      "setUpALR(uint256,uint256,uint256,uint256,uint256,address)": {
        "notice": "setUpAHR is used to set up a MoneyMarketInstances Asko High Risk Token as well as its InterestRateModel"
      },
      "stakeALR(address,uint256)": {
        "notice": "stakeALR allows a user to stake his ALR as collateral so that he can borrow from an Money market"
      },
      "whitelistAsset(address,string,string)": {
        "notice": "whitelistAsset is an onlyOwner function designed to be called by the AskoDAO. This function creates a new MoneyMarketInstancecontract for an input asset as well as a UniswapOracleInstance for the asset."
      }
    },
    "notice": "The MoneyMarketFactory contract is designed to produce individual MoneyMarketInstance contracts This contract uses the OpenZeppelin contract Library to inherit functions from Ownable.sol*"
  }
}