{
  "contractName": "MoneyMarketInstance",
  "abi": [
    {
      "inputs": [
        {
          "internalType": "address",
          "name": "_assetContractAdd",
          "type": "address"
        },
        {
          "internalType": "address",
          "name": "_owner",
          "type": "address"
        },
        {
          "internalType": "address",
          "name": "_oracle",
          "type": "address"
        },
        {
          "internalType": "string",
          "name": "_assetName",
          "type": "string"
        },
        {
          "internalType": "string",
          "name": "_assetSymbol",
          "type": "string"
        }
      ],
      "stateMutability": "nonpayable",
      "type": "constructor"
    },
    {
      "anonymous": false,
      "inputs": [
        {
          "indexed": true,
          "internalType": "address",
          "name": "previousOwner",
          "type": "address"
        },
        {
          "indexed": true,
          "internalType": "address",
          "name": "newOwner",
          "type": "address"
        }
      ],
      "name": "OwnershipTransferred",
      "type": "event"
    },
    {
      "inputs": [],
      "name": "AHR",
      "outputs": [
        {
          "internalType": "contract AskoHighRisk",
          "name": "",
          "type": "address"
        }
      ],
      "stateMutability": "view",
      "type": "function"
    },
    {
      "inputs": [],
      "name": "ALR",
      "outputs": [
        {
          "internalType": "contract AskoLowRisk",
          "name": "",
          "type": "address"
        }
      ],
      "stateMutability": "view",
      "type": "function"
    },
    {
      "inputs": [],
      "name": "MMF",
      "outputs": [
        {
          "internalType": "contract MoneyMarketFactoryI",
          "name": "",
          "type": "address"
        }
      ],
      "stateMutability": "view",
      "type": "function"
    },
    {
      "inputs": [
        {
          "internalType": "address",
          "name": "",
          "type": "address"
        }
      ],
      "name": "amountBorrowed",
      "outputs": [
        {
          "internalType": "uint256",
          "name": "",
          "type": "uint256"
        }
      ],
      "stateMutability": "view",
      "type": "function"
    },
    {
      "inputs": [],
      "name": "asset",
      "outputs": [
        {
          "internalType": "contract IERC20",
          "name": "",
          "type": "address"
        }
      ],
      "stateMutability": "view",
      "type": "function"
    },
    {
      "inputs": [],
      "name": "assetAHRPoolBalance",
      "outputs": [
        {
          "internalType": "uint256",
          "name": "",
          "type": "uint256"
        }
      ],
      "stateMutability": "view",
      "type": "function"
    },
    {
      "inputs": [],
      "name": "assetALRPoolBalance",
      "outputs": [
        {
          "internalType": "uint256",
          "name": "",
          "type": "uint256"
        }
      ],
      "stateMutability": "view",
      "type": "function"
    },
    {
      "inputs": [],
      "name": "baseRate",
      "outputs": [
        {
          "internalType": "uint256",
          "name": "",
          "type": "uint256"
        }
      ],
      "stateMutability": "view",
      "type": "function"
    },
    {
      "inputs": [],
      "name": "collateralizationRatio",
      "outputs": [
        {
          "internalType": "uint256",
          "name": "",
          "type": "uint256"
        }
      ],
      "stateMutability": "view",
      "type": "function"
    },
    {
      "inputs": [],
      "name": "factoryMM",
      "outputs": [
        {
          "internalType": "address",
          "name": "",
          "type": "address"
        }
      ],
      "stateMutability": "view",
      "type": "function"
    },
    {
      "inputs": [],
      "name": "fee",
      "outputs": [
        {
          "internalType": "uint256",
          "name": "",
          "type": "uint256"
        }
      ],
      "stateMutability": "view",
      "type": "function"
    },
    {
      "inputs": [
        {
          "internalType": "address",
          "name": "",
          "type": "address"
        }
      ],
      "name": "lentToAHRpool",
      "outputs": [
        {
          "internalType": "uint256",
          "name": "",
          "type": "uint256"
        }
      ],
      "stateMutability": "view",
      "type": "function"
    },
    {
      "inputs": [
        {
          "internalType": "address",
          "name": "",
          "type": "address"
        }
      ],
      "name": "lentToALRpool",
      "outputs": [
        {
          "internalType": "uint256",
          "name": "",
          "type": "uint256"
        }
      ],
      "stateMutability": "view",
      "type": "function"
    },
    {
      "inputs": [],
      "name": "multiplierM",
      "outputs": [
        {
          "internalType": "uint256",
          "name": "",
          "type": "uint256"
        }
      ],
      "stateMutability": "view",
      "type": "function"
    },
    {
      "inputs": [],
      "name": "multiplierN",
      "outputs": [
        {
          "internalType": "uint256",
          "name": "",
          "type": "uint256"
        }
      ],
      "stateMutability": "view",
      "type": "function"
    },
    {
      "inputs": [],
      "name": "optimal",
      "outputs": [
        {
          "internalType": "uint256",
          "name": "",
          "type": "uint256"
        }
      ],
      "stateMutability": "view",
      "type": "function"
    },
    {
      "inputs": [],
      "name": "oracle",
      "outputs": [
        {
          "internalType": "contract UniswapOracleInstanceI",
          "name": "",
          "type": "address"
        }
      ],
      "stateMutability": "view",
      "type": "function"
    },
    {
      "inputs": [],
      "name": "owner",
      "outputs": [
        {
          "internalType": "address",
          "name": "",
          "type": "address"
        }
      ],
      "stateMutability": "view",
      "type": "function"
    },
    {
      "inputs": [],
      "name": "renounceOwnership",
      "outputs": [],
      "stateMutability": "nonpayable",
      "type": "function"
    },
    {
      "inputs": [
        {
          "internalType": "address",
          "name": "newOwner",
          "type": "address"
        }
      ],
      "name": "transferOwnership",
      "outputs": [],
      "stateMutability": "nonpayable",
      "type": "function"
    },
    {
      "inputs": [
        {
          "internalType": "uint256",
          "name": "_collateralizationRatio",
          "type": "uint256"
        },
        {
          "internalType": "uint256",
          "name": "_baseRate",
          "type": "uint256"
        },
        {
          "internalType": "uint256",
          "name": "_multiplierM",
          "type": "uint256"
        },
        {
          "internalType": "uint256",
          "name": "_multiplierN",
          "type": "uint256"
        },
        {
          "internalType": "uint256",
          "name": "_optimal",
          "type": "uint256"
        },
        {
          "internalType": "uint256",
          "name": "_fee",
          "type": "uint256"
        }
      ],
      "name": "setUp",
      "outputs": [],
      "stateMutability": "nonpayable",
      "type": "function"
    },
    {
      "inputs": [
        {
          "internalType": "uint256",
          "name": "_ratio",
          "type": "uint256"
        }
      ],
      "name": "setCollateralizationRatio",
      "outputs": [],
      "stateMutability": "nonpayable",
      "type": "function"
    },
    {
      "inputs": [
        {
          "internalType": "uint256",
          "name": "_rate",
          "type": "uint256"
        }
      ],
      "name": "setBaseRate",
      "outputs": [],
      "stateMutability": "nonpayable",
      "type": "function"
    },
    {
      "inputs": [
        {
          "internalType": "uint256",
          "name": "_multiplierM",
          "type": "uint256"
        }
      ],
      "name": "setMultiplierM",
      "outputs": [],
      "stateMutability": "nonpayable",
      "type": "function"
    },
    {
      "inputs": [
        {
          "internalType": "uint256",
          "name": "_multiplierN",
          "type": "uint256"
        }
      ],
      "name": "setMultiplierN",
      "outputs": [],
      "stateMutability": "nonpayable",
      "type": "function"
    },
    {
      "inputs": [
        {
          "internalType": "uint256",
          "name": "_optimal",
          "type": "uint256"
        }
      ],
      "name": "setOptimal",
      "outputs": [],
      "stateMutability": "nonpayable",
      "type": "function"
    },
    {
      "inputs": [
        {
          "internalType": "uint256",
          "name": "_fee",
          "type": "uint256"
        }
      ],
      "name": "setFee",
      "outputs": [],
      "stateMutability": "nonpayable",
      "type": "function"
    },
    {
      "inputs": [],
      "name": "getALRadd",
      "outputs": [
        {
          "internalType": "address",
          "name": "",
          "type": "address"
        }
      ],
      "stateMutability": "view",
      "type": "function"
    },
    {
      "inputs": [
        {
          "internalType": "address",
          "name": "_account",
          "type": "address"
        },
        {
          "internalType": "uint256",
          "name": "_amount",
          "type": "uint256"
        }
      ],
      "name": "factoryBurn",
      "outputs": [],
      "stateMutability": "nonpayable",
      "type": "function"
    },
    {
      "inputs": [
        {
          "internalType": "address",
          "name": "_account",
          "type": "address"
        },
        {
          "internalType": "uint256",
          "name": "_amount",
          "type": "uint256"
        }
      ],
      "name": "factoryMint",
      "outputs": [],
      "stateMutability": "nonpayable",
      "type": "function"
    },
    {
      "inputs": [
        {
          "internalType": "uint256",
          "name": "_amount",
          "type": "uint256"
        }
      ],
      "name": "calculateAHRexchangeRate",
      "outputs": [
        {
          "internalType": "uint256",
          "name": "",
          "type": "uint256"
        }
      ],
      "stateMutability": "view",
      "type": "function"
    },
    {
      "inputs": [
        {
          "internalType": "uint256",
          "name": "_amount",
          "type": "uint256"
        }
      ],
      "name": "calculateALRexchangeRate",
      "outputs": [
        {
          "internalType": "uint256",
          "name": "",
          "type": "uint256"
        }
      ],
      "stateMutability": "view",
      "type": "function"
    },
    {
      "inputs": [
        {
          "internalType": "uint256",
          "name": "_amount",
          "type": "uint256"
        }
      ],
      "name": "calculateLoanInterest",
      "outputs": [
        {
          "internalType": "uint256",
          "name": "",
          "type": "uint256"
        }
      ],
      "stateMutability": "view",
      "type": "function"
    },
    {
      "inputs": [
        {
          "internalType": "uint256",
          "name": "_amount",
          "type": "uint256"
        }
      ],
      "name": "lendToAHRpool",
      "outputs": [],
      "stateMutability": "nonpayable",
      "type": "function"
    },
    {
      "inputs": [
        {
          "internalType": "uint256",
          "name": "_amount",
          "type": "uint256"
        }
      ],
      "name": "lendToALRpool",
      "outputs": [],
      "stateMutability": "nonpayable",
      "type": "function"
    },
    {
      "inputs": [
        {
          "internalType": "uint256",
          "name": "_amount",
          "type": "uint256"
        }
      ],
      "name": "redeemAHR",
      "outputs": [],
      "stateMutability": "nonpayable",
      "type": "function"
    },
    {
      "inputs": [
        {
          "internalType": "uint256",
          "name": "_amount",
          "type": "uint256"
        }
      ],
      "name": "redeemALR",
      "outputs": [],
      "stateMutability": "nonpayable",
      "type": "function"
    },
    {
      "inputs": [
        {
          "internalType": "uint256",
          "name": "_amount",
          "type": "uint256"
        }
      ],
      "name": "borrow",
      "outputs": [],
      "stateMutability": "nonpayable",
      "type": "function"
    },
    {
      "inputs": [],
      "name": "repay",
      "outputs": [],
      "stateMutability": "nonpayable",
      "type": "function"
    }
  ],
  "bytecode": "0x60806040523480156200001157600080fd5b506040516200775e3803806200775e833981810160405260a08110156200003757600080fd5b81019080805190602001909291908051906020019092919080519060200190929190805160405193929190846401000000008211156200007657600080fd5b838201915060208201858111156200008d57600080fd5b8251866001820283011164010000000082111715620000ab57600080fd5b8083526020830192505050908051906020019080838360005b83811015620000e1578082015181840152602081019050620000c4565b50505050905090810190601f1680156200010f5780820380516001836020036101000a031916815260200191505b50604052602001805160405193929190846401000000008211156200013357600080fd5b838201915060208201858111156200014a57600080fd5b82518660018202830111640100000000821117156200016857600080fd5b8083526020830192505050908051906020019080838360005b838110156200019e57808201518184015260208101905062000181565b50505050905090810190601f168015620001cc5780820380516001836020036101000a031916815260200191505b506040525050506000620001e562000a3c60201b60201c565b9050806000806101000a81548173ffffffffffffffffffffffffffffffffffffffff021916908373ffffffffffffffffffffffffffffffffffffffff1602179055508073ffffffffffffffffffffffffffffffffffffffff16600073ffffffffffffffffffffffffffffffffffffffff167f8be0079c531659141344cd1fd0a4f28419497f9722a3daafe3b4186f6b6457e060405160405180910390a35084600a60006101000a81548173ffffffffffffffffffffffffffffffffffffffff021916908373ffffffffffffffffffffffffffffffffffffffff160217905550606060405160200180807f4148522d000000000000000000000000000000000000000000000000000000008152506004019050604051602081830303815290604052905080836040516020018083805190602001908083835b602083106200034257805182526020820191506020810190506020830392506200031d565b6001836020036101000a03801982511681845116808217855250505050505090500182805190602001908083835b6020831062000395578051825260208201915060208101905060208303925062000370565b6001836020036101000a038019825116818451168082178552505050505050905001925050506040516020818303038152906040529050606060405160200180807f4148522d000000000000000000000000000000000000000000000000000000008152506004019050604051602081830303815290604052905080836040516020018083805190602001908083835b602083106200044a578051825260208201915060208101905060208303925062000425565b6001836020036101000a03801982511681845116808217855250505050505090500182805190602001908083835b602083106200049d578051825260208201915060208101905060208303925062000478565b6001836020036101000a038019825116818451168082178552505050505050905001925050506040516020818303038152906040529050606082905060608290508181604051620004ee9062000c5c565b808060200180602001838103835285818151815260200191508051906020019080838360005b838110156200053157808201518184015260208101905062000514565b50505050905090810190601f1680156200055f5780820380516001836020036101000a031916815260200191505b50838103825284818151815260200191508051906020019080838360005b838110156200059a5780820151818401526020810190506200057d565b50505050905090810190601f168015620005c85780820380516001836020036101000a031916815260200191505b50945050505050604051809103906000f080158015620005ec573d6000803e3d6000fd5b50600b60006101000a81548173ffffffffffffffffffffffffffffffffffffffff021916908373ffffffffffffffffffffffffffffffffffffffff160217905550606060405160200180807f416c522d000000000000000000000000000000000000000000000000000000008152506004019050604051602081830303815290604052905084876040516020018083805190602001908083835b60208310620006ab578051825260208201915060208101905060208303925062000686565b6001836020036101000a03801982511681845116808217855250505050505090500182805190602001908083835b60208310620006fe5780518252602082019150602081019050602083039250620006d9565b6001836020036101000a038019825116818451168082178552505050505050905001925050506040516020818303038152906040529050606060405160200180807f416c522d000000000000000000000000000000000000000000000000000000008152506004019050604051602081830303815290604052905084876040516020018083805190602001908083835b60208310620007b357805182526020820191506020810190506020830392506200078e565b6001836020036101000a03801982511681845116808217855250505050505090500182805190602001908083835b60208310620008065780518252602082019150602081019050602083039250620007e1565b6001836020036101000a038019825116818451168082178552505050505050905001925050506040516020818303038152906040529050606082905060608290508181604051620008579062000c6a565b808060200180602001838103835285818151815260200191508051906020019080838360005b838110156200089a5780820151818401526020810190506200087d565b50505050905090810190601f168015620008c85780820380516001836020036101000a031916815260200191505b50838103825284818151815260200191508051906020019080838360005b8381101562000903578082015181840152602081019050620008e6565b50505050905090810190601f168015620009315780820380516001836020036101000a031916815260200191505b50945050505050604051809103906000f08015801562000955573d6000803e3d6000fd5b50600c60006101000a81548173ffffffffffffffffffffffffffffffffffffffff021916908373ffffffffffffffffffffffffffffffffffffffff1602179055508a600d60006101000a81548173ffffffffffffffffffffffffffffffffffffffff021916908373ffffffffffffffffffffffffffffffffffffffff16021790555033600e60006101000a81548173ffffffffffffffffffffffffffffffffffffffff021916908373ffffffffffffffffffffffffffffffffffffffff16021790555062000a298c62000a4460201b60201c565b5050505050505050505050505062000c78565b600033905090565b62000a5462000a3c60201b60201c565b73ffffffffffffffffffffffffffffffffffffffff166000809054906101000a900473ffffffffffffffffffffffffffffffffffffffff1673ffffffffffffffffffffffffffffffffffffffff161462000b16576040517f08c379a00000000000000000000000000000000000000000000000000000000081526004018080602001828103825260208152602001807f4f776e61626c653a2063616c6c6572206973206e6f7420746865206f776e657281525060200191505060405180910390fd5b600073ffffffffffffffffffffffffffffffffffffffff168173ffffffffffffffffffffffffffffffffffffffff16141562000b9e576040517f08c379a0000000000000000000000000000000000000000000000000000000008152600401808060200182810382526026815260200180620077386026913960400191505060405180910390fd5b8073ffffffffffffffffffffffffffffffffffffffff166000809054906101000a900473ffffffffffffffffffffffffffffffffffffffff1673ffffffffffffffffffffffffffffffffffffffff167f8be0079c531659141344cd1fd0a4f28419497f9722a3daafe3b4186f6b6457e060405160405180910390a3806000806101000a81548173ffffffffffffffffffffffffffffffffffffffff021916908373ffffffffffffffffffffffffffffffffffffffff16021790555050565b612071806200365683390190565b61207180620056c783390190565b6129ce8062000c886000396000f3fe608060405234801561001057600080fd5b506004361061023d5760003560e01c80637964dde11161013b578063cdf95e93116100b8578063df813b6b1161007c578063df813b6b14610982578063e5829d20146109c4578063f2fde38b146109f2578063f3b3160e14610a36578063fab26ec114610a545761023d565b8063cdf95e9314610876578063cf0aea85146108ce578063d162054a146108fc578063dcaf9c4414610946578063ddca3f43146109645761023d565b8063a4f0ecd3116100ff578063a4f0ecd314610764578063b772cc77146107b2578063c27d4df3146107e0578063c3bdaf5b1461082a578063c5ebeaec146108485761023d565b80637964dde11461062a5780637b556e26146106585780637dc0d1d0146106865780638da5cb5b146106d05780639241cef21461071a5761023d565b8063402d8883116101c957806361e03cd21161018d57806361e03cd2146104fa5780636819cd191461054457806369fe0e2d146105925780636bf98588146105c0578063715018a6146106205761023d565b8063402d8883146103f45780634d24044c146103fe578063510327421461041c578063520009df146104745780635d4991b1146104a25761023d565b80631f68f20a116102105780631f68f20a146102da57806322b2d402146102f857806325bfd4441461032657806338d52e0f146103685780633ee6d74f146103b25761023d565b80630b1b7d431461024257806310dc122b1461027057806313ecfe601461028e5780631d08837b146102ac575b600080fd5b61026e6004803603602081101561025857600080fd5b8101908080359060200190929190505050610a9e565b005b610278610b71565b6040518082815260200191505060405180910390f35b610296610b77565b6040518082815260200191505060405180910390f35b6102d8600480360360208110156102c257600080fd5b8101908080359060200190929190505050610b7d565b005b6102e2610c50565b6040518082815260200191505060405180910390f35b6103246004803603602081101561030e57600080fd5b8101908080359060200190929190505050610c56565b005b6103526004803603602081101561033c57600080fd5b8101908080359060200190929190505050610dd1565b6040518082815260200191505060405180910390f35b610370610dd8565b604051808273ffffffffffffffffffffffffffffffffffffffff1673ffffffffffffffffffffffffffffffffffffffff16815260200191505060405180910390f35b6103de600480360360208110156103c857600080fd5b8101908080359060200190929190505050610dfe565b6040518082815260200191505060405180910390f35b6103fc610e05565b005b6104066111f4565b6040518082815260200191505060405180910390f35b61045e6004803603602081101561043257600080fd5b81019080803573ffffffffffffffffffffffffffffffffffffffff1690602001909291905050506111fa565b6040518082815260200191505060405180910390f35b6104a06004803603602081101561048a57600080fd5b8101908080359060200190929190505050611212565b005b6104e4600480360360208110156104b857600080fd5b81019080803573ffffffffffffffffffffffffffffffffffffffff1690602001909291905050506112e5565b6040518082815260200191505060405180910390f35b6105026112fd565b604051808273ffffffffffffffffffffffffffffffffffffffff1673ffffffffffffffffffffffffffffffffffffffff16815260200191505060405180910390f35b6105906004803603604081101561055a57600080fd5b81019080803573ffffffffffffffffffffffffffffffffffffffff16906020019092919080359060200190929190505050611327565b005b6105be600480360360208110156105a857600080fd5b8101908080359060200190929190505050611492565b005b61061e600480360360c08110156105d657600080fd5b81019080803590602001909291908035906020019092919080359060200190929190803590602001909291908035906020019092919080359060200190929190505050611565565b005b610628611660565b005b6106566004803603602081101561064057600080fd5b81019080803590602001909291905050506117e8565b005b6106846004803603602081101561066e57600080fd5b81019080803590602001909291905050506118bb565b005b61068e611a8a565b604051808273ffffffffffffffffffffffffffffffffffffffff1673ffffffffffffffffffffffffffffffffffffffff16815260200191505060405180910390f35b6106d8611ab0565b604051808273ffffffffffffffffffffffffffffffffffffffff1673ffffffffffffffffffffffffffffffffffffffff16815260200191505060405180910390f35b610722611ad9565b604051808273ffffffffffffffffffffffffffffffffffffffff1673ffffffffffffffffffffffffffffffffffffffff16815260200191505060405180910390f35b6107b06004803603604081101561077a57600080fd5b81019080803573ffffffffffffffffffffffffffffffffffffffff16906020019092919080359060200190929190505050611aff565b005b6107de600480360360208110156107c857600080fd5b8101908080359060200190929190505050611c6a565b005b6107e8611e39565b604051808273ffffffffffffffffffffffffffffffffffffffff1673ffffffffffffffffffffffffffffffffffffffff16815260200191505060405180910390f35b610832611e5f565b6040518082815260200191505060405180910390f35b6108746004803603602081101561085e57600080fd5b8101908080359060200190929190505050611e65565b005b6108b86004803603602081101561088c57600080fd5b81019080803573ffffffffffffffffffffffffffffffffffffffff1690602001909291905050506122b9565b6040518082815260200191505060405180910390f35b6108fa600480360360208110156108e457600080fd5b81019080803590602001909291905050506122d1565b005b61090461244c565b604051808273ffffffffffffffffffffffffffffffffffffffff1673ffffffffffffffffffffffffffffffffffffffff16815260200191505060405180910390f35b61094e612472565b6040518082815260200191505060405180910390f35b61096c612478565b6040518082815260200191505060405180910390f35b6109ae6004803603602081101561099857600080fd5b810190808035906020019092919050505061247e565b6040518082815260200191505060405180910390f35b6109f0600480360360208110156109da57600080fd5b8101908080359060200190929190505050612485565b005b610a3460048036036020811015610a0857600080fd5b81019080803573ffffffffffffffffffffffffffffffffffffffff169060200190929190505050612558565b005b610a3e612765565b6040518082815260200191505060405180910390f35b610a5c61276b565b604051808273ffffffffffffffffffffffffffffffffffffffff1673ffffffffffffffffffffffffffffffffffffffff16815260200191505060405180910390f35b610aa6612791565b73ffffffffffffffffffffffffffffffffffffffff166000809054906101000a900473ffffffffffffffffffffffffffffffffffffffff1673ffffffffffffffffffffffffffffffffffffffff1614610b67576040517f08c379a00000000000000000000000000000000000000000000000000000000081526004018080602001828103825260208152602001807f4f776e61626c653a2063616c6c6572206973206e6f7420746865206f776e657281525060200191505060405180910390fd5b8060038190555050565b60035481565b60075481565b610b85612791565b73ffffffffffffffffffffffffffffffffffffffff166000809054906101000a900473ffffffffffffffffffffffffffffffffffffffff1673ffffffffffffffffffffffffffffffffffffffff1614610c46576040517f08c379a00000000000000000000000000000000000000000000000000000000081526004018080602001828103825260208152602001807f4f776e61626c653a2063616c6c6572206973206e6f7420746865206f776e657281525060200191505060405180910390fd5b8060028190555050565b60025481565b600a60009054906101000a900473ffffffffffffffffffffffffffffffffffffffff1673ffffffffffffffffffffffffffffffffffffffff166323b872dd3330846040518463ffffffff1660e01b8152600401808473ffffffffffffffffffffffffffffffffffffffff1673ffffffffffffffffffffffffffffffffffffffff1681526020018373ffffffffffffffffffffffffffffffffffffffff1673ffffffffffffffffffffffffffffffffffffffff1681526020018281526020019350505050602060405180830381600087803b158015610d3357600080fd5b505af1158015610d47573d6000803e3d6000fd5b505050506040513d6020811015610d5d57600080fd5b810190808051906020019092919050505050610d848160085461279990919063ffffffff16565b60088190555080601060003373ffffffffffffffffffffffffffffffffffffffff1673ffffffffffffffffffffffffffffffffffffffff1681526020019081526020016000208190555050565b6000919050565b600a60009054906101000a900473ffffffffffffffffffffffffffffffffffffffff1681565b6000919050565b6000610e4f601160003373ffffffffffffffffffffffffffffffffffffffff1673ffffffffffffffffffffffffffffffffffffffff1681526020019081526020016000205461247e565b90506000600a60009054906101000a900473ffffffffffffffffffffffffffffffffffffffff1673ffffffffffffffffffffffffffffffffffffffff166370a08231336040518263ffffffff1660e01b8152600401808273ffffffffffffffffffffffffffffffffffffffff1673ffffffffffffffffffffffffffffffffffffffff16815260200191505060206040518083038186803b158015610ef257600080fd5b505afa158015610f06573d6000803e3d6000fd5b505050506040513d6020811015610f1c57600080fd5b8101908080519060200190929190505050905081811015610fa5576040517f08c379a000000000000000000000000000000000000000000000000000000000815260040180806020018281038252601f8152602001807f42616c616e636520746f6f206c6f7720746f20706179206f6666206c6f616e0081525060200191505060405180910390fd5b600a60009054906101000a900473ffffffffffffffffffffffffffffffffffffffff1673ffffffffffffffffffffffffffffffffffffffff166323b872dd3330856040518463ffffffff1660e01b8152600401808473ffffffffffffffffffffffffffffffffffffffff1673ffffffffffffffffffffffffffffffffffffffff1681526020018373ffffffffffffffffffffffffffffffffffffffff1673ffffffffffffffffffffffffffffffffffffffff1681526020018281526020019350505050602060405180830381600087803b15801561108257600080fd5b505af1158015611096573d6000803e3d6000fd5b505050506040513d60208110156110ac57600080fd5b8101908080519060200190929190505050506000601160003373ffffffffffffffffffffffffffffffffffffffff1673ffffffffffffffffffffffffffffffffffffffff16815260200190815260200160002081905550600e60009054906101000a900473ffffffffffffffffffffffffffffffffffffffff1673ffffffffffffffffffffffffffffffffffffffff166328736f6630336040518363ffffffff1660e01b8152600401808373ffffffffffffffffffffffffffffffffffffffff1673ffffffffffffffffffffffffffffffffffffffff1681526020018273ffffffffffffffffffffffffffffffffffffffff1673ffffffffffffffffffffffffffffffffffffffff16815260200192505050600060405180830381600087803b1580156111d857600080fd5b505af11580156111ec573d6000803e3d6000fd5b505050505050565b60055481565b600f6020528060005260406000206000915090505481565b61121a612791565b73ffffffffffffffffffffffffffffffffffffffff166000809054906101000a900473ffffffffffffffffffffffffffffffffffffffff1673ffffffffffffffffffffffffffffffffffffffff16146112db576040517f08c379a00000000000000000000000000000000000000000000000000000000081526004018080602001828103825260208152602001807f4f776e61626c653a2063616c6c6572206973206e6f7420746865206f776e657281525060200191505060405180910390fd5b8060058190555050565b60106020528060005260406000206000915090505481565b6000600c60009054906101000a900473ffffffffffffffffffffffffffffffffffffffff16905090565b600e60009054906101000a900473ffffffffffffffffffffffffffffffffffffffff1673ffffffffffffffffffffffffffffffffffffffff163373ffffffffffffffffffffffffffffffffffffffff16146113cd576040517f08c379a00000000000000000000000000000000000000000000000000000000081526004018080602001828103825260418152602001806129586041913960600191505060405180910390fd5b600c60009054906101000a900473ffffffffffffffffffffffffffffffffffffffff1673ffffffffffffffffffffffffffffffffffffffff16639dc29fac83836040518363ffffffff1660e01b8152600401808373ffffffffffffffffffffffffffffffffffffffff1673ffffffffffffffffffffffffffffffffffffffff16815260200182815260200192505050600060405180830381600087803b15801561147657600080fd5b505af115801561148a573d6000803e3d6000fd5b505050505050565b61149a612791565b73ffffffffffffffffffffffffffffffffffffffff166000809054906101000a900473ffffffffffffffffffffffffffffffffffffffff1673ffffffffffffffffffffffffffffffffffffffff161461155b576040517f08c379a00000000000000000000000000000000000000000000000000000000081526004018080602001828103825260208152602001807f4f776e61626c653a2063616c6c6572206973206e6f7420746865206f776e657281525060200191505060405180910390fd5b8060068190555050565b61156d612791565b73ffffffffffffffffffffffffffffffffffffffff166000809054906101000a900473ffffffffffffffffffffffffffffffffffffffff1673ffffffffffffffffffffffffffffffffffffffff161461162e576040517f08c379a00000000000000000000000000000000000000000000000000000000081526004018080602001828103825260208152602001807f4f776e61626c653a2063616c6c6572206973206e6f7420746865206f776e657281525060200191505060405180910390fd5b856001819055508460028190555083600381905550826004819055508160058190555080600681905550505050505050565b611668612791565b73ffffffffffffffffffffffffffffffffffffffff166000809054906101000a900473ffffffffffffffffffffffffffffffffffffffff1673ffffffffffffffffffffffffffffffffffffffff1614611729576040517f08c379a00000000000000000000000000000000000000000000000000000000081526004018080602001828103825260208152602001807f4f776e61626c653a2063616c6c6572206973206e6f7420746865206f776e657281525060200191505060405180910390fd5b600073ffffffffffffffffffffffffffffffffffffffff166000809054906101000a900473ffffffffffffffffffffffffffffffffffffffff1673ffffffffffffffffffffffffffffffffffffffff167f8be0079c531659141344cd1fd0a4f28419497f9722a3daafe3b4186f6b6457e060405160405180910390a360008060006101000a81548173ffffffffffffffffffffffffffffffffffffffff021916908373ffffffffffffffffffffffffffffffffffffffff160217905550565b6117f0612791565b73ffffffffffffffffffffffffffffffffffffffff166000809054906101000a900473ffffffffffffffffffffffffffffffffffffffff1673ffffffffffffffffffffffffffffffffffffffff16146118b1576040517f08c379a00000000000000000000000000000000000000000000000000000000081526004018080602001828103825260208152602001807f4f776e61626c653a2063616c6c6572206973206e6f7420746865206f776e657281525060200191505060405180910390fd5b8060048190555050565b600b60009054906101000a900473ffffffffffffffffffffffffffffffffffffffff1673ffffffffffffffffffffffffffffffffffffffff16639dc29fac33836040518363ffffffff1660e01b8152600401808373ffffffffffffffffffffffffffffffffffffffff1673ffffffffffffffffffffffffffffffffffffffff16815260200182815260200192505050600060405180830381600087803b15801561196457600080fd5b505af1158015611978573d6000803e3d6000fd5b50505050600061198782610dd1565b9050600061199e828461279990919063ffffffff16565b9050600a60009054906101000a900473ffffffffffffffffffffffffffffffffffffffff1673ffffffffffffffffffffffffffffffffffffffff1663a9059cbb33836040518363ffffffff1660e01b8152600401808373ffffffffffffffffffffffffffffffffffffffff1673ffffffffffffffffffffffffffffffffffffffff16815260200182815260200192505050602060405180830381600087803b158015611a4957600080fd5b505af1158015611a5d573d6000803e3d6000fd5b505050506040513d6020811015611a7357600080fd5b810190808051906020019092919050505050505050565b600d60009054906101000a900473ffffffffffffffffffffffffffffffffffffffff1681565b60008060009054906101000a900473ffffffffffffffffffffffffffffffffffffffff16905090565b600b60009054906101000a900473ffffffffffffffffffffffffffffffffffffffff1681565b600e60009054906101000a900473ffffffffffffffffffffffffffffffffffffffff1673ffffffffffffffffffffffffffffffffffffffff163373ffffffffffffffffffffffffffffffffffffffff1614611ba5576040517f08c379a00000000000000000000000000000000000000000000000000000000081526004018080602001828103825260418152602001806129586041913960600191505060405180910390fd5b600c60009054906101000a900473ffffffffffffffffffffffffffffffffffffffff1673ffffffffffffffffffffffffffffffffffffffff166340c10f1983836040518363ffffffff1660e01b8152600401808373ffffffffffffffffffffffffffffffffffffffff1673ffffffffffffffffffffffffffffffffffffffff16815260200182815260200192505050600060405180830381600087803b158015611c4e57600080fd5b505af1158015611c62573d6000803e3d6000fd5b505050505050565b600c60009054906101000a900473ffffffffffffffffffffffffffffffffffffffff1673ffffffffffffffffffffffffffffffffffffffff16639dc29fac33836040518363ffffffff1660e01b8152600401808373ffffffffffffffffffffffffffffffffffffffff1673ffffffffffffffffffffffffffffffffffffffff16815260200182815260200192505050600060405180830381600087803b158015611d1357600080fd5b505af1158015611d27573d6000803e3d6000fd5b505050506000611d3682610dfe565b90506000611d4d828461279990919063ffffffff16565b9050600a60009054906101000a900473ffffffffffffffffffffffffffffffffffffffff1673ffffffffffffffffffffffffffffffffffffffff1663a9059cbb33836040518363ffffffff1660e01b8152600401808373ffffffffffffffffffffffffffffffffffffffff1673ffffffffffffffffffffffffffffffffffffffff16815260200182815260200192505050602060405180830381600087803b158015611df857600080fd5b505af1158015611e0c573d6000803e3d6000fd5b505050506040513d6020811015611e2257600080fd5b810190808051906020019092919050505050505050565b600c60009054906101000a900473ffffffffffffffffffffffffffffffffffffffff1681565b60045481565b6000611e7b60028361282190919063ffffffff16565b905080600f60003373ffffffffffffffffffffffffffffffffffffffff1673ffffffffffffffffffffffffffffffffffffffff168152602001908152602001600020541015611f32576040517f08c379a00000000000000000000000000000000000000000000000000000000081526004018080602001828103825260188152602001807f4e6f7420656e6f75676820414852206c6971756964697479000000000000000081525060200191505060405180910390fd5b80601060003373ffffffffffffffffffffffffffffffffffffffff1673ffffffffffffffffffffffffffffffffffffffff168152602001908152602001600020541015611fe7576040517f08c379a00000000000000000000000000000000000000000000000000000000081526004018080602001828103825260188152602001807f4e6f7420656e6f75676820414c52206c6971756964697479000000000000000081525060200191505060405180910390fd5b6000600e60009054906101000a900473ffffffffffffffffffffffffffffffffffffffff1673ffffffffffffffffffffffffffffffffffffffff166335862cc7336040518263ffffffff1660e01b8152600401808273ffffffffffffffffffffffffffffffffffffffff1673ffffffffffffffffffffffffffffffffffffffff16815260200191505060206040518083038186803b15801561208857600080fd5b505afa15801561209c573d6000803e3d6000fd5b505050506040513d60208110156120b257600080fd5b8101908080519060200190929190505050905082811161213a576040517f08c379a00000000000000000000000000000000000000000000000000000000081526004018080602001828103825260158152602001807f4e6f7420456e6f75676820436f6c6c61746572616c000000000000000000000081525060200191505060405180910390fd5b61218c83601160003373ffffffffffffffffffffffffffffffffffffffff1673ffffffffffffffffffffffffffffffffffffffff1681526020019081526020016000205461279990919063ffffffff16565b601160003373ffffffffffffffffffffffffffffffffffffffff1673ffffffffffffffffffffffffffffffffffffffff16815260200190815260200160002081905550600a60009054906101000a900473ffffffffffffffffffffffffffffffffffffffff1673ffffffffffffffffffffffffffffffffffffffff1663a9059cbb33856040518363ffffffff1660e01b8152600401808373ffffffffffffffffffffffffffffffffffffffff1673ffffffffffffffffffffffffffffffffffffffff16815260200182815260200192505050602060405180830381600087803b15801561227857600080fd5b505af115801561228c573d6000803e3d6000fd5b505050506040513d60208110156122a257600080fd5b810190808051906020019092919050505050505050565b60116020528060005260406000206000915090505481565b600a60009054906101000a900473ffffffffffffffffffffffffffffffffffffffff1673ffffffffffffffffffffffffffffffffffffffff166323b872dd3330846040518463ffffffff1660e01b8152600401808473ffffffffffffffffffffffffffffffffffffffff1673ffffffffffffffffffffffffffffffffffffffff1681526020018373ffffffffffffffffffffffffffffffffffffffff1673ffffffffffffffffffffffffffffffffffffffff1681526020018281526020019350505050602060405180830381600087803b1580156123ae57600080fd5b505af11580156123c2573d6000803e3d6000fd5b505050506040513d60208110156123d857600080fd5b8101908080519060200190929190505050506123ff8160075461279990919063ffffffff16565b60078190555080600f60003373ffffffffffffffffffffffffffffffffffffffff1673ffffffffffffffffffffffffffffffffffffffff1681526020019081526020016000208190555050565b600e60009054906101000a900473ffffffffffffffffffffffffffffffffffffffff1681565b60015481565b60065481565b6000919050565b61248d612791565b73ffffffffffffffffffffffffffffffffffffffff166000809054906101000a900473ffffffffffffffffffffffffffffffffffffffff1673ffffffffffffffffffffffffffffffffffffffff161461254e576040517f08c379a00000000000000000000000000000000000000000000000000000000081526004018080602001828103825260208152602001807f4f776e61626c653a2063616c6c6572206973206e6f7420746865206f776e657281525060200191505060405180910390fd5b8060018190555050565b612560612791565b73ffffffffffffffffffffffffffffffffffffffff166000809054906101000a900473ffffffffffffffffffffffffffffffffffffffff1673ffffffffffffffffffffffffffffffffffffffff1614612621576040517f08c379a00000000000000000000000000000000000000000000000000000000081526004018080602001828103825260208152602001807f4f776e61626c653a2063616c6c6572206973206e6f7420746865206f776e657281525060200191505060405180910390fd5b600073ffffffffffffffffffffffffffffffffffffffff168173ffffffffffffffffffffffffffffffffffffffff1614156126a7576040517f08c379a00000000000000000000000000000000000000000000000000000000081526004018080602001828103825260268152602001806129326026913960400191505060405180910390fd5b8073ffffffffffffffffffffffffffffffffffffffff166000809054906101000a900473ffffffffffffffffffffffffffffffffffffffff1673ffffffffffffffffffffffffffffffffffffffff167f8be0079c531659141344cd1fd0a4f28419497f9722a3daafe3b4186f6b6457e060405160405180910390a3806000806101000a81548173ffffffffffffffffffffffffffffffffffffffff021916908373ffffffffffffffffffffffffffffffffffffffff16021790555050565b60085481565b600960009054906101000a900473ffffffffffffffffffffffffffffffffffffffff1681565b600033905090565b600080828401905083811015612817576040517f08c379a000000000000000000000000000000000000000000000000000000000815260040180806020018281038252601b8152602001807f536166654d6174683a206164646974696f6e206f766572666c6f77000000000081525060200191505060405180910390fd5b8091505092915050565b600061286383836040518060400160405280601a81526020017f536166654d6174683a206469766973696f6e206279207a65726f00000000000081525061286b565b905092915050565b60008083118290612917576040517f08c379a00000000000000000000000000000000000000000000000000000000081526004018080602001828103825283818151815260200191508051906020019080838360005b838110156128dc5780820151818401526020810190506128c1565b50505050905090810190601f1680156129095780820380516001836020036101000a031916815260200191505b509250505060405180910390fd5b50600083858161292357fe5b04905080915050939250505056fe4f776e61626c653a206e6577206f776e657220697320746865207a65726f20616464726573734f6e6c79204d6f6e6579204d61726b657420466163746f72793a2063616c6c6572206973206e6f7420746865204d6f6e6579204d61726b657420466163746f7279a2646970667358221220ba42620df6b3086973e79550aeb743cc0a9727fb5d34eb51b0d24b22387628d964736f6c6343000606003360806040523480156200001157600080fd5b506040516200207138038062002071833981810160405260408110156200003757600080fd5b81019080805160405193929190846401000000008211156200005857600080fd5b838201915060208201858111156200006f57600080fd5b82518660018202830111640100000000821117156200008d57600080fd5b8083526020830192505050908051906020019080838360005b83811015620000c3578082015181840152602081019050620000a6565b50505050905090810190601f168015620000f15780820380516001836020036101000a031916815260200191505b50604052602001805160405193929190846401000000008211156200011557600080fd5b838201915060208201858111156200012c57600080fd5b82518660018202830111640100000000821117156200014a57600080fd5b8083526020830192505050908051906020019080838360005b838110156200018057808201518184015260208101905062000163565b50505050905090810190601f168015620001ae5780820380516001836020036101000a031916815260200191505b5060405250505080826000620001c96200030060201b60201c565b9050806000806101000a81548173ffffffffffffffffffffffffffffffffffffffff021916908373ffffffffffffffffffffffffffffffffffffffff1602179055508073ffffffffffffffffffffffffffffffffffffffff16600073ffffffffffffffffffffffffffffffffffffffff167f8be0079c531659141344cd1fd0a4f28419497f9722a3daafe3b4186f6b6457e060405160405180910390a35081600490805190602001906200027f92919062000308565b5080600590805190602001906200029892919062000308565b506012600660006101000a81548160ff021916908360ff160217905550505033600660016101000a81548173ffffffffffffffffffffffffffffffffffffffff021916908373ffffffffffffffffffffffffffffffffffffffff1602179055505050620003b7565b600033905090565b828054600181600116156101000203166002900490600052602060002090601f016020900481019282601f106200034b57805160ff19168380011785556200037c565b828001600101855582156200037c579182015b828111156200037b5782518255916020019190600101906200035e565b5b5090506200038b91906200038f565b5090565b620003b491905b80821115620003b057600081600090555060010162000396565b5090565b90565b611caa80620003c76000396000f3fe608060405234801561001057600080fd5b506004361061010b5760003560e01c806370a08231116100a25780639dc29fac116100715780639dc29fac146104ee578063a457c2d71461053c578063a9059cbb146105a2578063dd62ed3e14610608578063f2fde38b146106805761010b565b806370a08231146103bf578063715018a6146104175780638da5cb5b1461042157806395d89b411461046b5761010b565b806323b872dd116100de57806323b872dd14610261578063313ce567146102e7578063395093511461030b57806340c10f19146103715761010b565b806306fdde0314610110578063095ea7b31461019357806318160ddd146101f9578063230b9da314610217575b600080fd5b6101186106c4565b6040518080602001828103825283818151815260200191508051906020019080838360005b8381101561015857808201518184015260208101905061013d565b50505050905090810190601f1680156101855780820380516001836020036101000a031916815260200191505b509250505060405180910390f35b6101df600480360360408110156101a957600080fd5b81019080803573ffffffffffffffffffffffffffffffffffffffff16906020019092919080359060200190929190505050610766565b604051808215151515815260200191505060405180910390f35b610201610784565b6040518082815260200191505060405180910390f35b61021f61078e565b604051808273ffffffffffffffffffffffffffffffffffffffff1673ffffffffffffffffffffffffffffffffffffffff16815260200191505060405180910390f35b6102cd6004803603606081101561027757600080fd5b81019080803573ffffffffffffffffffffffffffffffffffffffff169060200190929190803573ffffffffffffffffffffffffffffffffffffffff169060200190929190803590602001909291905050506107b4565b604051808215151515815260200191505060405180910390f35b6102ef61088d565b604051808260ff1660ff16815260200191505060405180910390f35b6103576004803603604081101561032157600080fd5b81019080803573ffffffffffffffffffffffffffffffffffffffff169060200190929190803590602001909291905050506108a4565b604051808215151515815260200191505060405180910390f35b6103bd6004803603604081101561038757600080fd5b81019080803573ffffffffffffffffffffffffffffffffffffffff16906020019092919080359060200190929190505050610957565b005b610401600480360360208110156103d557600080fd5b81019080803573ffffffffffffffffffffffffffffffffffffffff169060200190929190505050610a2e565b6040518082815260200191505060405180910390f35b61041f610a77565b005b610429610bff565b604051808273ffffffffffffffffffffffffffffffffffffffff1673ffffffffffffffffffffffffffffffffffffffff16815260200191505060405180910390f35b610473610c28565b6040518080602001828103825283818151815260200191508051906020019080838360005b838110156104b3578082015181840152602081019050610498565b50505050905090810190601f1680156104e05780820380516001836020036101000a031916815260200191505b509250505060405180910390f35b61053a6004803603604081101561050457600080fd5b81019080803573ffffffffffffffffffffffffffffffffffffffff16906020019092919080359060200190929190505050610cca565b005b6105886004803603604081101561055257600080fd5b81019080803573ffffffffffffffffffffffffffffffffffffffff16906020019092919080359060200190929190505050610da1565b604051808215151515815260200191505060405180910390f35b6105ee600480360360408110156105b857600080fd5b81019080803573ffffffffffffffffffffffffffffffffffffffff16906020019092919080359060200190929190505050610e6e565b604051808215151515815260200191505060405180910390f35b61066a6004803603604081101561061e57600080fd5b81019080803573ffffffffffffffffffffffffffffffffffffffff169060200190929190803573ffffffffffffffffffffffffffffffffffffffff169060200190929190505050610e8c565b6040518082815260200191505060405180910390f35b6106c26004803603602081101561069657600080fd5b81019080803573ffffffffffffffffffffffffffffffffffffffff169060200190929190505050610f13565b005b606060048054600181600116156101000203166002900480601f01602080910402602001604051908101604052809291908181526020018280546001816001161561010002031660029004801561075c5780601f106107315761010080835404028352916020019161075c565b820191906000526020600020905b81548152906001019060200180831161073f57829003601f168201915b5050505050905090565b600061077a610773611120565b8484611128565b6001905092915050565b6000600354905090565b600660019054906101000a900473ffffffffffffffffffffffffffffffffffffffff1681565b60006107c184848461131f565b610882846107cd611120565b61087d85604051806060016040528060288152602001611bbe60289139600260008b73ffffffffffffffffffffffffffffffffffffffff1673ffffffffffffffffffffffffffffffffffffffff1681526020019081526020016000206000610833611120565b73ffffffffffffffffffffffffffffffffffffffff1673ffffffffffffffffffffffffffffffffffffffff168152602001908152602001600020546115e49092919063ffffffff16565b611128565b600190509392505050565b6000600660009054906101000a900460ff16905090565b600061094d6108b1611120565b8461094885600260006108c2611120565b73ffffffffffffffffffffffffffffffffffffffff1673ffffffffffffffffffffffffffffffffffffffff16815260200190815260200160002060008973ffffffffffffffffffffffffffffffffffffffff1673ffffffffffffffffffffffffffffffffffffffff168152602001908152602001600020546116a490919063ffffffff16565b611128565b6001905092915050565b61095f611120565b73ffffffffffffffffffffffffffffffffffffffff166000809054906101000a900473ffffffffffffffffffffffffffffffffffffffff1673ffffffffffffffffffffffffffffffffffffffff1614610a20576040517f08c379a00000000000000000000000000000000000000000000000000000000081526004018080602001828103825260208152602001807f4f776e61626c653a2063616c6c6572206973206e6f7420746865206f776e657281525060200191505060405180910390fd5b610a2a828261172c565b5050565b6000600160008373ffffffffffffffffffffffffffffffffffffffff1673ffffffffffffffffffffffffffffffffffffffff168152602001908152602001600020549050919050565b610a7f611120565b73ffffffffffffffffffffffffffffffffffffffff166000809054906101000a900473ffffffffffffffffffffffffffffffffffffffff1673ffffffffffffffffffffffffffffffffffffffff1614610b40576040517f08c379a00000000000000000000000000000000000000000000000000000000081526004018080602001828103825260208152602001807f4f776e61626c653a2063616c6c6572206973206e6f7420746865206f776e657281525060200191505060405180910390fd5b600073ffffffffffffffffffffffffffffffffffffffff166000809054906101000a900473ffffffffffffffffffffffffffffffffffffffff1673ffffffffffffffffffffffffffffffffffffffff167f8be0079c531659141344cd1fd0a4f28419497f9722a3daafe3b4186f6b6457e060405160405180910390a360008060006101000a81548173ffffffffffffffffffffffffffffffffffffffff021916908373ffffffffffffffffffffffffffffffffffffffff160217905550565b60008060009054906101000a900473ffffffffffffffffffffffffffffffffffffffff16905090565b606060058054600181600116156101000203166002900480601f016020809104026020016040519081016040528092919081815260200182805460018160011615610100020316600290048015610cc05780601f10610c9557610100808354040283529160200191610cc0565b820191906000526020600020905b815481529060010190602001808311610ca357829003601f168201915b5050505050905090565b610cd2611120565b73ffffffffffffffffffffffffffffffffffffffff166000809054906101000a900473ffffffffffffffffffffffffffffffffffffffff1673ffffffffffffffffffffffffffffffffffffffff1614610d93576040517f08c379a00000000000000000000000000000000000000000000000000000000081526004018080602001828103825260208152602001807f4f776e61626c653a2063616c6c6572206973206e6f7420746865206f776e657281525060200191505060405180910390fd5b610d9d82826118f5565b5050565b6000610e64610dae611120565b84610e5f85604051806060016040528060258152602001611c506025913960026000610dd8611120565b73ffffffffffffffffffffffffffffffffffffffff1673ffffffffffffffffffffffffffffffffffffffff16815260200190815260200160002060008a73ffffffffffffffffffffffffffffffffffffffff1673ffffffffffffffffffffffffffffffffffffffff168152602001908152602001600020546115e49092919063ffffffff16565b611128565b6001905092915050565b6000610e82610e7b611120565b848461131f565b6001905092915050565b6000600260008473ffffffffffffffffffffffffffffffffffffffff1673ffffffffffffffffffffffffffffffffffffffff16815260200190815260200160002060008373ffffffffffffffffffffffffffffffffffffffff1673ffffffffffffffffffffffffffffffffffffffff16815260200190815260200160002054905092915050565b610f1b611120565b73ffffffffffffffffffffffffffffffffffffffff166000809054906101000a900473ffffffffffffffffffffffffffffffffffffffff1673ffffffffffffffffffffffffffffffffffffffff1614610fdc576040517f08c379a00000000000000000000000000000000000000000000000000000000081526004018080602001828103825260208152602001807f4f776e61626c653a2063616c6c6572206973206e6f7420746865206f776e657281525060200191505060405180910390fd5b600073ffffffffffffffffffffffffffffffffffffffff168173ffffffffffffffffffffffffffffffffffffffff161415611062576040517f08c379a0000000000000000000000000000000000000000000000000000000008152600401808060200182810382526026815260200180611b506026913960400191505060405180910390fd5b8073ffffffffffffffffffffffffffffffffffffffff166000809054906101000a900473ffffffffffffffffffffffffffffffffffffffff1673ffffffffffffffffffffffffffffffffffffffff167f8be0079c531659141344cd1fd0a4f28419497f9722a3daafe3b4186f6b6457e060405160405180910390a3806000806101000a81548173ffffffffffffffffffffffffffffffffffffffff021916908373ffffffffffffffffffffffffffffffffffffffff16021790555050565b600033905090565b600073ffffffffffffffffffffffffffffffffffffffff168373ffffffffffffffffffffffffffffffffffffffff1614156111ae576040517f08c379a0000000000000000000000000000000000000000000000000000000008152600401808060200182810382526024815260200180611c2c6024913960400191505060405180910390fd5b600073ffffffffffffffffffffffffffffffffffffffff168273ffffffffffffffffffffffffffffffffffffffff161415611234576040517f08c379a0000000000000000000000000000000000000000000000000000000008152600401808060200182810382526022815260200180611b766022913960400191505060405180910390fd5b80600260008573ffffffffffffffffffffffffffffffffffffffff1673ffffffffffffffffffffffffffffffffffffffff16815260200190815260200160002060008473ffffffffffffffffffffffffffffffffffffffff1673ffffffffffffffffffffffffffffffffffffffff168152602001908152602001600020819055508173ffffffffffffffffffffffffffffffffffffffff168373ffffffffffffffffffffffffffffffffffffffff167f8c5be1e5ebec7d5bd14f71427d1e84f3dd0314c0f7b2291e5b200ac8c7c3b925836040518082815260200191505060405180910390a3505050565b600073ffffffffffffffffffffffffffffffffffffffff168373ffffffffffffffffffffffffffffffffffffffff1614156113a5576040517f08c379a0000000000000000000000000000000000000000000000000000000008152600401808060200182810382526025815260200180611c076025913960400191505060405180910390fd5b600073ffffffffffffffffffffffffffffffffffffffff168273ffffffffffffffffffffffffffffffffffffffff16141561142b576040517f08c379a0000000000000000000000000000000000000000000000000000000008152600401808060200182810382526023815260200180611b0b6023913960400191505060405180910390fd5b611436838383611abb565b6114a281604051806060016040528060268152602001611b9860269139600160008773ffffffffffffffffffffffffffffffffffffffff1673ffffffffffffffffffffffffffffffffffffffff168152602001908152602001600020546115e49092919063ffffffff16565b600160008573ffffffffffffffffffffffffffffffffffffffff1673ffffffffffffffffffffffffffffffffffffffff1681526020019081526020016000208190555061153781600160008573ffffffffffffffffffffffffffffffffffffffff1673ffffffffffffffffffffffffffffffffffffffff168152602001908152602001600020546116a490919063ffffffff16565b600160008473ffffffffffffffffffffffffffffffffffffffff1673ffffffffffffffffffffffffffffffffffffffff168152602001908152602001600020819055508173ffffffffffffffffffffffffffffffffffffffff168373ffffffffffffffffffffffffffffffffffffffff167fddf252ad1be2c89b69c2b068fc378daa952ba7f163c4a11628f55a4df523b3ef836040518082815260200191505060405180910390a3505050565b6000838311158290611691576040517f08c379a00000000000000000000000000000000000000000000000000000000081526004018080602001828103825283818151815260200191508051906020019080838360005b8381101561165657808201518184015260208101905061163b565b50505050905090810190601f1680156116835780820380516001836020036101000a031916815260200191505b509250505060405180910390fd5b5060008385039050809150509392505050565b600080828401905083811015611722576040517f08c379a000000000000000000000000000000000000000000000000000000000815260040180806020018281038252601b8152602001807f536166654d6174683a206164646974696f6e206f766572666c6f77000000000081525060200191505060405180910390fd5b8091505092915050565b600073ffffffffffffffffffffffffffffffffffffffff168273ffffffffffffffffffffffffffffffffffffffff1614156117cf576040517f08c379a000000000000000000000000000000000000000000000000000000000815260040180806020018281038252601f8152602001807f45524332303a206d696e7420746f20746865207a65726f20616464726573730081525060200191505060405180910390fd5b6117db60008383611abb565b6117f0816003546116a490919063ffffffff16565b60038190555061184881600160008573ffffffffffffffffffffffffffffffffffffffff1673ffffffffffffffffffffffffffffffffffffffff168152602001908152602001600020546116a490919063ffffffff16565b600160008473ffffffffffffffffffffffffffffffffffffffff1673ffffffffffffffffffffffffffffffffffffffff168152602001908152602001600020819055508173ffffffffffffffffffffffffffffffffffffffff16600073ffffffffffffffffffffffffffffffffffffffff167fddf252ad1be2c89b69c2b068fc378daa952ba7f163c4a11628f55a4df523b3ef836040518082815260200191505060405180910390a35050565b600073ffffffffffffffffffffffffffffffffffffffff168273ffffffffffffffffffffffffffffffffffffffff16141561197b576040517f08c379a0000000000000000000000000000000000000000000000000000000008152600401808060200182810382526021815260200180611be66021913960400191505060405180910390fd5b61198782600083611abb565b6119f381604051806060016040528060228152602001611b2e60229139600160008673ffffffffffffffffffffffffffffffffffffffff1673ffffffffffffffffffffffffffffffffffffffff168152602001908152602001600020546115e49092919063ffffffff16565b600160008473ffffffffffffffffffffffffffffffffffffffff1673ffffffffffffffffffffffffffffffffffffffff16815260200190815260200160002081905550611a4b81600354611ac090919063ffffffff16565b600381905550600073ffffffffffffffffffffffffffffffffffffffff168273ffffffffffffffffffffffffffffffffffffffff167fddf252ad1be2c89b69c2b068fc378daa952ba7f163c4a11628f55a4df523b3ef836040518082815260200191505060405180910390a35050565b505050565b6000611b0283836040518060400160405280601e81526020017f536166654d6174683a207375627472616374696f6e206f766572666c6f7700008152506115e4565b90509291505056fe45524332303a207472616e7366657220746f20746865207a65726f206164647265737345524332303a206275726e20616d6f756e7420657863656564732062616c616e63654f776e61626c653a206e6577206f776e657220697320746865207a65726f206164647265737345524332303a20617070726f766520746f20746865207a65726f206164647265737345524332303a207472616e7366657220616d6f756e7420657863656564732062616c616e636545524332303a207472616e7366657220616d6f756e74206578636565647320616c6c6f77616e636545524332303a206275726e2066726f6d20746865207a65726f206164647265737345524332303a207472616e736665722066726f6d20746865207a65726f206164647265737345524332303a20617070726f76652066726f6d20746865207a65726f206164647265737345524332303a2064656372656173656420616c6c6f77616e63652062656c6f77207a65726fa2646970667358221220aaa35f19f042c76c2cb1efbc4e85baa664aeb920b90d8a36757633ac39a8f17464736f6c6343000606003360806040523480156200001157600080fd5b506040516200207138038062002071833981810160405260408110156200003757600080fd5b81019080805160405193929190846401000000008211156200005857600080fd5b838201915060208201858111156200006f57600080fd5b82518660018202830111640100000000821117156200008d57600080fd5b8083526020830192505050908051906020019080838360005b83811015620000c3578082015181840152602081019050620000a6565b50505050905090810190601f168015620000f15780820380516001836020036101000a031916815260200191505b50604052602001805160405193929190846401000000008211156200011557600080fd5b838201915060208201858111156200012c57600080fd5b82518660018202830111640100000000821117156200014a57600080fd5b8083526020830192505050908051906020019080838360005b838110156200018057808201518184015260208101905062000163565b50505050905090810190601f168015620001ae5780820380516001836020036101000a031916815260200191505b5060405250505080826000620001c96200030060201b60201c565b9050806000806101000a81548173ffffffffffffffffffffffffffffffffffffffff021916908373ffffffffffffffffffffffffffffffffffffffff1602179055508073ffffffffffffffffffffffffffffffffffffffff16600073ffffffffffffffffffffffffffffffffffffffff167f8be0079c531659141344cd1fd0a4f28419497f9722a3daafe3b4186f6b6457e060405160405180910390a35081600490805190602001906200027f92919062000308565b5080600590805190602001906200029892919062000308565b506012600660006101000a81548160ff021916908360ff160217905550505033600660016101000a81548173ffffffffffffffffffffffffffffffffffffffff021916908373ffffffffffffffffffffffffffffffffffffffff1602179055505050620003b7565b600033905090565b828054600181600116156101000203166002900490600052602060002090601f016020900481019282601f106200034b57805160ff19168380011785556200037c565b828001600101855582156200037c579182015b828111156200037b5782518255916020019190600101906200035e565b5b5090506200038b91906200038f565b5090565b620003b491905b80821115620003b057600081600090555060010162000396565b5090565b90565b611caa80620003c76000396000f3fe608060405234801561001057600080fd5b506004361061010b5760003560e01c806370a08231116100a25780639dc29fac116100715780639dc29fac146104ee578063a457c2d71461053c578063a9059cbb146105a2578063dd62ed3e14610608578063f2fde38b146106805761010b565b806370a08231146103bf578063715018a6146104175780638da5cb5b1461042157806395d89b411461046b5761010b565b806323b872dd116100de57806323b872dd14610261578063313ce567146102e7578063395093511461030b57806340c10f19146103715761010b565b806306fdde0314610110578063095ea7b31461019357806318160ddd146101f9578063230b9da314610217575b600080fd5b6101186106c4565b6040518080602001828103825283818151815260200191508051906020019080838360005b8381101561015857808201518184015260208101905061013d565b50505050905090810190601f1680156101855780820380516001836020036101000a031916815260200191505b509250505060405180910390f35b6101df600480360360408110156101a957600080fd5b81019080803573ffffffffffffffffffffffffffffffffffffffff16906020019092919080359060200190929190505050610766565b604051808215151515815260200191505060405180910390f35b610201610784565b6040518082815260200191505060405180910390f35b61021f61078e565b604051808273ffffffffffffffffffffffffffffffffffffffff1673ffffffffffffffffffffffffffffffffffffffff16815260200191505060405180910390f35b6102cd6004803603606081101561027757600080fd5b81019080803573ffffffffffffffffffffffffffffffffffffffff169060200190929190803573ffffffffffffffffffffffffffffffffffffffff169060200190929190803590602001909291905050506107b4565b604051808215151515815260200191505060405180910390f35b6102ef61088d565b604051808260ff1660ff16815260200191505060405180910390f35b6103576004803603604081101561032157600080fd5b81019080803573ffffffffffffffffffffffffffffffffffffffff169060200190929190803590602001909291905050506108a4565b604051808215151515815260200191505060405180910390f35b6103bd6004803603604081101561038757600080fd5b81019080803573ffffffffffffffffffffffffffffffffffffffff16906020019092919080359060200190929190505050610957565b005b610401600480360360208110156103d557600080fd5b81019080803573ffffffffffffffffffffffffffffffffffffffff169060200190929190505050610a2e565b6040518082815260200191505060405180910390f35b61041f610a77565b005b610429610bff565b604051808273ffffffffffffffffffffffffffffffffffffffff1673ffffffffffffffffffffffffffffffffffffffff16815260200191505060405180910390f35b610473610c28565b6040518080602001828103825283818151815260200191508051906020019080838360005b838110156104b3578082015181840152602081019050610498565b50505050905090810190601f1680156104e05780820380516001836020036101000a031916815260200191505b509250505060405180910390f35b61053a6004803603604081101561050457600080fd5b81019080803573ffffffffffffffffffffffffffffffffffffffff16906020019092919080359060200190929190505050610cca565b005b6105886004803603604081101561055257600080fd5b81019080803573ffffffffffffffffffffffffffffffffffffffff16906020019092919080359060200190929190505050610da1565b604051808215151515815260200191505060405180910390f35b6105ee600480360360408110156105b857600080fd5b81019080803573ffffffffffffffffffffffffffffffffffffffff16906020019092919080359060200190929190505050610e6e565b604051808215151515815260200191505060405180910390f35b61066a6004803603604081101561061e57600080fd5b81019080803573ffffffffffffffffffffffffffffffffffffffff169060200190929190803573ffffffffffffffffffffffffffffffffffffffff169060200190929190505050610e8c565b6040518082815260200191505060405180910390f35b6106c26004803603602081101561069657600080fd5b81019080803573ffffffffffffffffffffffffffffffffffffffff169060200190929190505050610f13565b005b606060048054600181600116156101000203166002900480601f01602080910402602001604051908101604052809291908181526020018280546001816001161561010002031660029004801561075c5780601f106107315761010080835404028352916020019161075c565b820191906000526020600020905b81548152906001019060200180831161073f57829003601f168201915b5050505050905090565b600061077a610773611120565b8484611128565b6001905092915050565b6000600354905090565b600660019054906101000a900473ffffffffffffffffffffffffffffffffffffffff1681565b60006107c184848461131f565b610882846107cd611120565b61087d85604051806060016040528060288152602001611bbe60289139600260008b73ffffffffffffffffffffffffffffffffffffffff1673ffffffffffffffffffffffffffffffffffffffff1681526020019081526020016000206000610833611120565b73ffffffffffffffffffffffffffffffffffffffff1673ffffffffffffffffffffffffffffffffffffffff168152602001908152602001600020546115e49092919063ffffffff16565b611128565b600190509392505050565b6000600660009054906101000a900460ff16905090565b600061094d6108b1611120565b8461094885600260006108c2611120565b73ffffffffffffffffffffffffffffffffffffffff1673ffffffffffffffffffffffffffffffffffffffff16815260200190815260200160002060008973ffffffffffffffffffffffffffffffffffffffff1673ffffffffffffffffffffffffffffffffffffffff168152602001908152602001600020546116a490919063ffffffff16565b611128565b6001905092915050565b61095f611120565b73ffffffffffffffffffffffffffffffffffffffff166000809054906101000a900473ffffffffffffffffffffffffffffffffffffffff1673ffffffffffffffffffffffffffffffffffffffff1614610a20576040517f08c379a00000000000000000000000000000000000000000000000000000000081526004018080602001828103825260208152602001807f4f776e61626c653a2063616c6c6572206973206e6f7420746865206f776e657281525060200191505060405180910390fd5b610a2a828261172c565b5050565b6000600160008373ffffffffffffffffffffffffffffffffffffffff1673ffffffffffffffffffffffffffffffffffffffff168152602001908152602001600020549050919050565b610a7f611120565b73ffffffffffffffffffffffffffffffffffffffff166000809054906101000a900473ffffffffffffffffffffffffffffffffffffffff1673ffffffffffffffffffffffffffffffffffffffff1614610b40576040517f08c379a00000000000000000000000000000000000000000000000000000000081526004018080602001828103825260208152602001807f4f776e61626c653a2063616c6c6572206973206e6f7420746865206f776e657281525060200191505060405180910390fd5b600073ffffffffffffffffffffffffffffffffffffffff166000809054906101000a900473ffffffffffffffffffffffffffffffffffffffff1673ffffffffffffffffffffffffffffffffffffffff167f8be0079c531659141344cd1fd0a4f28419497f9722a3daafe3b4186f6b6457e060405160405180910390a360008060006101000a81548173ffffffffffffffffffffffffffffffffffffffff021916908373ffffffffffffffffffffffffffffffffffffffff160217905550565b60008060009054906101000a900473ffffffffffffffffffffffffffffffffffffffff16905090565b606060058054600181600116156101000203166002900480601f016020809104026020016040519081016040528092919081815260200182805460018160011615610100020316600290048015610cc05780601f10610c9557610100808354040283529160200191610cc0565b820191906000526020600020905b815481529060010190602001808311610ca357829003601f168201915b5050505050905090565b610cd2611120565b73ffffffffffffffffffffffffffffffffffffffff166000809054906101000a900473ffffffffffffffffffffffffffffffffffffffff1673ffffffffffffffffffffffffffffffffffffffff1614610d93576040517f08c379a00000000000000000000000000000000000000000000000000000000081526004018080602001828103825260208152602001807f4f776e61626c653a2063616c6c6572206973206e6f7420746865206f776e657281525060200191505060405180910390fd5b610d9d82826118f5565b5050565b6000610e64610dae611120565b84610e5f85604051806060016040528060258152602001611c506025913960026000610dd8611120565b73ffffffffffffffffffffffffffffffffffffffff1673ffffffffffffffffffffffffffffffffffffffff16815260200190815260200160002060008a73ffffffffffffffffffffffffffffffffffffffff1673ffffffffffffffffffffffffffffffffffffffff168152602001908152602001600020546115e49092919063ffffffff16565b611128565b6001905092915050565b6000610e82610e7b611120565b848461131f565b6001905092915050565b6000600260008473ffffffffffffffffffffffffffffffffffffffff1673ffffffffffffffffffffffffffffffffffffffff16815260200190815260200160002060008373ffffffffffffffffffffffffffffffffffffffff1673ffffffffffffffffffffffffffffffffffffffff16815260200190815260200160002054905092915050565b610f1b611120565b73ffffffffffffffffffffffffffffffffffffffff166000809054906101000a900473ffffffffffffffffffffffffffffffffffffffff1673ffffffffffffffffffffffffffffffffffffffff1614610fdc576040517f08c379a00000000000000000000000000000000000000000000000000000000081526004018080602001828103825260208152602001807f4f776e61626c653a2063616c6c6572206973206e6f7420746865206f776e657281525060200191505060405180910390fd5b600073ffffffffffffffffffffffffffffffffffffffff168173ffffffffffffffffffffffffffffffffffffffff161415611062576040517f08c379a0000000000000000000000000000000000000000000000000000000008152600401808060200182810382526026815260200180611b506026913960400191505060405180910390fd5b8073ffffffffffffffffffffffffffffffffffffffff166000809054906101000a900473ffffffffffffffffffffffffffffffffffffffff1673ffffffffffffffffffffffffffffffffffffffff167f8be0079c531659141344cd1fd0a4f28419497f9722a3daafe3b4186f6b6457e060405160405180910390a3806000806101000a81548173ffffffffffffffffffffffffffffffffffffffff021916908373ffffffffffffffffffffffffffffffffffffffff16021790555050565b600033905090565b600073ffffffffffffffffffffffffffffffffffffffff168373ffffffffffffffffffffffffffffffffffffffff1614156111ae576040517f08c379a0000000000000000000000000000000000000000000000000000000008152600401808060200182810382526024815260200180611c2c6024913960400191505060405180910390fd5b600073ffffffffffffffffffffffffffffffffffffffff168273ffffffffffffffffffffffffffffffffffffffff161415611234576040517f08c379a0000000000000000000000000000000000000000000000000000000008152600401808060200182810382526022815260200180611b766022913960400191505060405180910390fd5b80600260008573ffffffffffffffffffffffffffffffffffffffff1673ffffffffffffffffffffffffffffffffffffffff16815260200190815260200160002060008473ffffffffffffffffffffffffffffffffffffffff1673ffffffffffffffffffffffffffffffffffffffff168152602001908152602001600020819055508173ffffffffffffffffffffffffffffffffffffffff168373ffffffffffffffffffffffffffffffffffffffff167f8c5be1e5ebec7d5bd14f71427d1e84f3dd0314c0f7b2291e5b200ac8c7c3b925836040518082815260200191505060405180910390a3505050565b600073ffffffffffffffffffffffffffffffffffffffff168373ffffffffffffffffffffffffffffffffffffffff1614156113a5576040517f08c379a0000000000000000000000000000000000000000000000000000000008152600401808060200182810382526025815260200180611c076025913960400191505060405180910390fd5b600073ffffffffffffffffffffffffffffffffffffffff168273ffffffffffffffffffffffffffffffffffffffff16141561142b576040517f08c379a0000000000000000000000000000000000000000000000000000000008152600401808060200182810382526023815260200180611b0b6023913960400191505060405180910390fd5b611436838383611abb565b6114a281604051806060016040528060268152602001611b9860269139600160008773ffffffffffffffffffffffffffffffffffffffff1673ffffffffffffffffffffffffffffffffffffffff168152602001908152602001600020546115e49092919063ffffffff16565b600160008573ffffffffffffffffffffffffffffffffffffffff1673ffffffffffffffffffffffffffffffffffffffff1681526020019081526020016000208190555061153781600160008573ffffffffffffffffffffffffffffffffffffffff1673ffffffffffffffffffffffffffffffffffffffff168152602001908152602001600020546116a490919063ffffffff16565b600160008473ffffffffffffffffffffffffffffffffffffffff1673ffffffffffffffffffffffffffffffffffffffff168152602001908152602001600020819055508173ffffffffffffffffffffffffffffffffffffffff168373ffffffffffffffffffffffffffffffffffffffff167fddf252ad1be2c89b69c2b068fc378daa952ba7f163c4a11628f55a4df523b3ef836040518082815260200191505060405180910390a3505050565b6000838311158290611691576040517f08c379a00000000000000000000000000000000000000000000000000000000081526004018080602001828103825283818151815260200191508051906020019080838360005b8381101561165657808201518184015260208101905061163b565b50505050905090810190601f1680156116835780820380516001836020036101000a031916815260200191505b509250505060405180910390fd5b5060008385039050809150509392505050565b600080828401905083811015611722576040517f08c379a000000000000000000000000000000000000000000000000000000000815260040180806020018281038252601b8152602001807f536166654d6174683a206164646974696f6e206f766572666c6f77000000000081525060200191505060405180910390fd5b8091505092915050565b600073ffffffffffffffffffffffffffffffffffffffff168273ffffffffffffffffffffffffffffffffffffffff1614156117cf576040517f08c379a000000000000000000000000000000000000000000000000000000000815260040180806020018281038252601f8152602001807f45524332303a206d696e7420746f20746865207a65726f20616464726573730081525060200191505060405180910390fd5b6117db60008383611abb565b6117f0816003546116a490919063ffffffff16565b60038190555061184881600160008573ffffffffffffffffffffffffffffffffffffffff1673ffffffffffffffffffffffffffffffffffffffff168152602001908152602001600020546116a490919063ffffffff16565b600160008473ffffffffffffffffffffffffffffffffffffffff1673ffffffffffffffffffffffffffffffffffffffff168152602001908152602001600020819055508173ffffffffffffffffffffffffffffffffffffffff16600073ffffffffffffffffffffffffffffffffffffffff167fddf252ad1be2c89b69c2b068fc378daa952ba7f163c4a11628f55a4df523b3ef836040518082815260200191505060405180910390a35050565b600073ffffffffffffffffffffffffffffffffffffffff168273ffffffffffffffffffffffffffffffffffffffff16141561197b576040517f08c379a0000000000000000000000000000000000000000000000000000000008152600401808060200182810382526021815260200180611be66021913960400191505060405180910390fd5b61198782600083611abb565b6119f381604051806060016040528060228152602001611b2e60229139600160008673ffffffffffffffffffffffffffffffffffffffff1673ffffffffffffffffffffffffffffffffffffffff168152602001908152602001600020546115e49092919063ffffffff16565b600160008473ffffffffffffffffffffffffffffffffffffffff1673ffffffffffffffffffffffffffffffffffffffff16815260200190815260200160002081905550611a4b81600354611ac090919063ffffffff16565b600381905550600073ffffffffffffffffffffffffffffffffffffffff168273ffffffffffffffffffffffffffffffffffffffff167fddf252ad1be2c89b69c2b068fc378daa952ba7f163c4a11628f55a4df523b3ef836040518082815260200191505060405180910390a35050565b505050565b6000611b0283836040518060400160405280601e81526020017f536166654d6174683a207375627472616374696f6e206f766572666c6f7700008152506115e4565b90509291505056fe45524332303a207472616e7366657220746f20746865207a65726f206164647265737345524332303a206275726e20616d6f756e7420657863656564732062616c616e63654f776e61626c653a206e6577206f776e657220697320746865207a65726f206164647265737345524332303a20617070726f766520746f20746865207a65726f206164647265737345524332303a207472616e7366657220616d6f756e7420657863656564732062616c616e636545524332303a207472616e7366657220616d6f756e74206578636565647320616c6c6f77616e636545524332303a206275726e2066726f6d20746865207a65726f206164647265737345524332303a207472616e736665722066726f6d20746865207a65726f206164647265737345524332303a20617070726f76652066726f6d20746865207a65726f206164647265737345524332303a2064656372656173656420616c6c6f77616e63652062656c6f77207a65726fa26469706673582212206577b5b5cdaf84983598e8ec0100e82dc8fa01faf8f44a762e7da404461d37bc64736f6c634300060600334f776e61626c653a206e6577206f776e657220697320746865207a65726f2061646472657373",
  "immutableReferences": {},
  "source": "pragma solidity ^0.6.2;\n\nimport \"@openzeppelin/contracts/access/Ownable.sol\";\nimport \"@openzeppelin/contracts/token/ERC20/IERC20.sol\";\nimport \"@openzeppelin/contracts/math/SafeMath.sol\";\nimport \"./AskoHighRisk.sol\";\nimport \"./AskoLowRisk.sol\";\nimport \"./interfaces/MoneyMarketFactoryI.sol\";\nimport \"./interfaces/UniswapOracleInstanceI.sol\";\n////////////////////////////////////////////////////////////////////////////////////////////\n/// @title MoneyMarketInstance\n/// @author Christopher Dixon\n////////////////////////////////////////////////////////////////////////////////////////////\n/**\nThe MoneyMarketInstance contract is designed facilitate a tiered money market for an individual ERC20 asset\nThis contract uses the OpenZeppelin contract Library to inherit functions from\n  Ownable.sol && IRC20.sol\n**/\ncontract MoneyMarketInstance is Ownable {\n    using SafeMath for uint256;\n\n\n  uint256 public collateralizationRatio;\n  uint256 public baseRate;\n  uint256 public multiplierM;\n  uint256 public multiplierN;\n  uint256 public optimal;\n  uint256 public fee;\n  uint256 public assetAHRPoolBalance;\n  uint256 public assetALRPoolBalance;\n  address public factoryMM;\n\n\n  IERC20 public asset;\n  AskoHighRisk public AHR;\n  AskoLowRisk public ALR;\n  UniswapOracleInstanceI public oracle;\n  MoneyMarketFactoryI public MMF;\n\n  mapping(address => uint) public lentToAHRpool;\n  mapping(address => uint) public lentToALRpool;\n  mapping(address => uint) public amountBorrowed;\n\n/**\n@notice onlyMMFactory is a modifier used to make a function only callable by the Money Market Factory\n**/\n  modifier onlyMMFactory()  {\n    require(msg.sender == address(MMF), \"Only Money Market Factory: caller is not the Money Market Factory\");\n    _;\n  }\n\n\n/**\n@notice the constructor function is fired during the contract deployment process. The constructor can only be fired once and\n        is used to initialize the MoneyMakerInstance and deploy its associated AHR && ALR token contracts\n@param _assetContractAdd is the address of the ERC20 asset being whitelisted\n@param _owner is the address that will own this contract(The AskoDAO)\n@param _assetName is the name of the asset(e.x: ChainLink)\n@param _assetSymbol is the symbol of the asset(e.x: LINK)\n@dev this function uses ABI encoding to properly concatenate AHR- && ALR- in front of the tokens name and symbol\n      before creating each token.\n**/\n  constructor (\n    address _assetContractAdd,\n    address _owner,\n    address _oracle,\n\t\tstring memory _assetName,\n\t\tstring memory _assetSymbol\n  )\n  public\n  {\n    asset = IERC20(_assetContractAdd);\n\n\n\n    bytes memory ahrname = abi.encodePacked(\"AHR-\");\n    ahrname = abi.encodePacked(ahrname, _assetName);\n\n    bytes memory ahrsymbol = abi.encodePacked(\"AHR-\");\n    ahrsymbol = abi.encodePacked(ahrsymbol, _assetSymbol);\n\n    string memory assetNameAHR = string(ahrname);\n    string memory assetSymbolAHR = string(ahrsymbol);\n\n    AHR = AskoHighRisk(address(new AskoHighRisk(\n      assetNameAHR,\n      assetSymbolAHR\n    )));\n\n    bytes memory alrname = abi.encodePacked(\"AlR-\");\n    alrname = abi.encodePacked(ahrname, _assetName);\n\n    bytes memory alrsymbol = abi.encodePacked(\"AlR-\");\n    alrsymbol = abi.encodePacked(ahrsymbol, _assetSymbol);\n\n    string memory assetNameALR = string(alrname);\n    string memory assetSymbolALR = string(alrsymbol);\n\n    ALR = AskoLowRisk(address(new AskoLowRisk(\n      assetNameALR,\n      assetSymbolALR\n    )));\n\n  oracle = UniswapOracleInstanceI(_oracle);\n  MMF = MoneyMarketFactoryI(msg.sender);\n  transferOwnership(_owner);\n\n  }\n\n/**\n@notice setUp is called by the owner after a contract is created to set up the initial variables.\n        This is split from the constructor function to keep from reaching the gas block limit\n@param  _collateralizationRatio is used to set collateralizationRatio\n@param  _baseRate used to set baseRate\n@param  _multiplierM used to set multiplierM\n@param  _multiplierN used to set multiplierN\n@param  _optimal used to set optimal\n@param  _fee used to set fee\n**/\nfunction setUp(\n    uint _collateralizationRatio,\n    uint _baseRate,\n    uint _multiplierM,\n    uint  _multiplierN,\n    uint _optimal,\n    uint _fee\n  )\n  public\n  onlyOwner\n  {\n  collateralizationRatio  = _collateralizationRatio;\n  baseRate = _baseRate;\n  multiplierM = _multiplierM;\n  multiplierN = _multiplierN;\n  optimal = _optimal;\n  fee = _fee;\n  }\n/**\n@notice setCollateralizationRatio allows the owner of this contract to set the collateralizationRatio\n@param  _ratio is a % number 1-100 representing the ratio\n**/\n  function setCollateralizationRatio(uint _ratio) public onlyOwner {\n    collateralizationRatio = _ratio;\n  }\n\n/**\n@notice setBaseRate allows the owner of this contract to set the baseRate\n@param  _rate is the input number representing the rate\n**/\n  function setBaseRate(uint _rate) public onlyOwner {\n      baseRate = _rate;\n  }\n\n/**\n@notice setMultiplierM allows the owner of this contract to set the multiplierM\n@param  _multiplierM is the input number representing the multiplierM\n**/\n  function setMultiplierM(uint _multiplierM) public onlyOwner {\n      multiplierM = _multiplierM;\n  }\n\n/**\n@notice setMultiplierM allows the owner of this contract to set the multiplierN\n@param  _multiplierN is the input number representing the multiplierN\n**/\n  function setMultiplierN(uint _multiplierN) public onlyOwner {\n    multiplierN = _multiplierN;\n  }\n\n/**\n@notice setOptimal allows the owner of this contract to set the optimal\n@param  _optimal is the input number representing the optimal\n**/\n  function setOptimal(uint _optimal) public onlyOwner {\n      optimal = _optimal;\n  }\n\n/**\n@notice setFee allows the owner of this contract to set the fee\n@param  _fee is the input number representing the fee\n**/\n  function setFee(uint _fee) public onlyOwner {\n      fee = _fee;\n  }\n\n/**\n\n**/\nfunction getALRadd() public view returns(address) {\n  return address(ALR);\n}\n\n/**\n\n**/\nfunction factoryBurn(address _account, uint _amount) public onlyMMFactory {\n  ALR.burn(_account, _amount);\n}\n\n/**\n\n**/\nfunction factoryMint(address _account, uint _amount) public onlyMMFactory {\n  ALR.mint(_account, _amount);\n}\n\n/**\n@notice calculateAHRInterest is used to calculate the earned interest for the High Risk pool\n\n**/\nfunction calculateAHRexchangeRate(uint _amount) public view returns(uint) {\n\n}\n\n/**\n@notice calculateALRInterest is used to calculate the earned interest for the Low Risk pool\n**/\nfunction calculateALRexchangeRate(uint _amount) public view returns(uint){\n\n}\n\n/**\n@notice calculateLoanInterest is used to calculate the interest for a loan\n**/\nfunction calculateLoanInterest(uint _amount) public view returns(uint){\n\n}\n\n/**\n@notice lendToAHRpool is used to lend assets to a MoneyMarketInstance's High Risk pool\n@param _amount is the amount of the asset being lent\n@dev the user will need to first approve the transfer of the underlying asset\n**/\n  function lendToAHRpool(uint _amount) public {\n        asset.transferFrom(msg.sender, address(this), _amount);\n        assetAHRPoolBalance = assetAHRPoolBalance.add(_amount);\n        lentToAHRpool[msg.sender] = _amount;\n  }\n\n/**\n@notice lendToAHRpool is used to lend assets to a MoneyMarketInstance's Low Risk pool\n@param _amount is the amount of the asset being lent\n@dev the user will need to first approve the transfer of the underlying asset\n**/\n    function lendToALRpool(uint _amount) public {\n        asset.transferFrom(msg.sender, address(this), _amount);\n        assetALRPoolBalance = assetALRPoolBalance.add(_amount);\n        lentToALRpool[msg.sender] = _amount;\n    }\n\n/**\n@notice redeemAHR is used to redeem AHR toke for its underlying asset + interest\n@param _amount is the amount of AHR being redeemed\n**/\n\tfunction\tredeemAHR(uint _amount)public {\n    AHR.burn(msg.sender, _amount);\n    uint interestAmount = calculateAHRexchangeRate(_amount);\n    uint totalVal = _amount.add(interestAmount);\n    asset.transfer(msg.sender, totalVal);\n  }\n\n/**\n@notice redeemALR is used to redeem ALR toke for its underlying asset + interest\n@param _amount is the amount of ALR being redeemed\n**/\n\tfunction\tredeemALR(uint _amount)public {\n    ALR.burn(msg.sender, _amount);\n    uint interestAmount = calculateALRexchangeRate(_amount);\n    uint totalVal = _amount.add(interestAmount);\n    asset.transfer(msg.sender, totalVal);\n  }\n\n/**\n@notice borrow is used to take out a loan from in MoneyMarketInstance's underlying asset\n@param _amount is the amount of asset being barrowed\n**/\n  function borrow(uint _amount) public {\n      uint half = _amount.div(2);\n      require(lentToAHRpool[msg.sender] >= half, \"Not enough AHR liquidity\");\n      require(lentToALRpool[msg.sender] >= half, \"Not enough ALR liquidity\");\n      uint stakedValue = MMF.getTotalStakeValue(msg.sender);\n      require(stakedValue > _amount, \"Not Enough Collateral\");\n      amountBorrowed[msg.sender] = amountBorrowed[msg.sender].add(_amount);\n      asset.transfer(msg.sender, _amount);\n  }\n\n/**\n@notice repay is used to repay a loan\n@dev this function\n**/\n\tfunction repay() public {\n    uint amountOwed = calculateLoanInterest(amountBorrowed[msg.sender]);\n    uint userAssetBal = asset.balanceOf(msg.sender);\n    require(userAssetBal >= amountOwed, \"Balance too low to pay off loan\");\n    asset.transferFrom(msg.sender, address(this), amountOwed);\n    amountBorrowed[msg.sender] = 0;\n    MMF._repay(address(this), msg.sender);\n  }\n\n\n\n}\n",
  "sourcePath": "/home/stan36/repos/Askolend/smart-contracts/contracts/MoneyMarketInstance.sol",
  "compiler": {
    "name": "solc",
    "version": "0.6.6+commit.6c089d02.Emscripten.clang"
  },
  "schemaVersion": "3.2.4",
  "updatedAt": "2020-09-14T23:26:17.355Z",
  "devdoc": {
    "methods": {
      "borrow(uint256)": {
        "params": {
          "_amount": "is the amount of asset being barrowed*"
        }
      },
      "constructor": {
        "details": "this function uses ABI encoding to properly concatenate AHR- && ALR- in front of the tokens name and symbol before creating each token.*",
        "params": {
          "_assetContractAdd": "is the address of the ERC20 asset being whitelisted",
          "_assetName": "is the name of the asset(e.x: ChainLink)",
          "_assetSymbol": "is the symbol of the asset(e.x: LINK)",
          "_owner": "is the address that will own this contract(The AskoDAO)"
        }
      },
      "lendToAHRpool(uint256)": {
        "details": "the user will need to first approve the transfer of the underlying asset*",
        "params": {
          "_amount": "is the amount of the asset being lent"
        }
      },
      "lendToALRpool(uint256)": {
        "details": "the user will need to first approve the transfer of the underlying asset*",
        "params": {
          "_amount": "is the amount of the asset being lent"
        }
      },
      "owner()": {
        "details": "Returns the address of the current owner."
      },
      "redeemAHR(uint256)": {
        "params": {
          "_amount": "is the amount of AHR being redeemed*"
        }
      },
      "redeemALR(uint256)": {
        "params": {
          "_amount": "is the amount of ALR being redeemed*"
        }
      },
      "renounceOwnership()": {
        "details": "Leaves the contract without owner. It will not be possible to call `onlyOwner` functions anymore. Can only be called by the current owner.     * NOTE: Renouncing ownership will leave the contract without an owner, thereby removing any functionality that is only available to the owner."
      },
      "repay()": {
        "details": "this function*"
      },
      "setBaseRate(uint256)": {
        "params": {
          "_rate": "is the input number representing the rate*"
        }
      },
      "setCollateralizationRatio(uint256)": {
        "params": {
          "_ratio": "is a % number 1-100 representing the ratio*"
        }
      },
      "setFee(uint256)": {
        "params": {
          "_fee": "is the input number representing the fee*"
        }
      },
      "setMultiplierM(uint256)": {
        "params": {
          "_multiplierM": "is the input number representing the multiplierM*"
        }
      },
      "setMultiplierN(uint256)": {
        "params": {
          "_multiplierN": "is the input number representing the multiplierN*"
        }
      },
      "setOptimal(uint256)": {
        "params": {
          "_optimal": "is the input number representing the optimal*"
        }
      },
      "setUp(uint256,uint256,uint256,uint256,uint256,uint256)": {
        "params": {
          "_baseRate": "used to set baseRate",
          "_collateralizationRatio": "is used to set collateralizationRatio",
          "_fee": "used to set fee*",
          "_multiplierM": "used to set multiplierM",
          "_multiplierN": "used to set multiplierN",
          "_optimal": "used to set optimal"
        }
      },
      "transferOwnership(address)": {
        "details": "Transfers ownership of the contract to a new account (`newOwner`). Can only be called by the current owner."
      }
    }
  },
  "userdoc": {
    "methods": {
      "borrow(uint256)": {
        "notice": "borrow is used to take out a loan from in MoneyMarketInstance's underlying asset"
      },
      "calculateAHRexchangeRate(uint256)": {
        "notice": "calculateAHRInterest is used to calculate the earned interest for the High Risk pool*"
      },
      "calculateALRexchangeRate(uint256)": {
        "notice": "calculateALRInterest is used to calculate the earned interest for the Low Risk pool*"
      },
      "calculateLoanInterest(uint256)": {
        "notice": "calculateLoanInterest is used to calculate the interest for a loan*"
      },
      "constructor": "the constructor function is fired during the contract deployment process. The constructor can only be fired once and is used to initialize the MoneyMakerInstance and deploy its associated AHR && ALR token contracts",
      "factoryBurn(address,uint256)": {
        "notice": "*"
      },
      "factoryMint(address,uint256)": {
        "notice": "*"
      },
      "getALRadd()": {
        "notice": "*"
      },
      "lendToAHRpool(uint256)": {
        "notice": "lendToAHRpool is used to lend assets to a MoneyMarketInstance's High Risk pool"
      },
      "lendToALRpool(uint256)": {
        "notice": "lendToAHRpool is used to lend assets to a MoneyMarketInstance's Low Risk pool"
      },
      "redeemAHR(uint256)": {
        "notice": "redeemAHR is used to redeem AHR toke for its underlying asset + interest"
      },
      "redeemALR(uint256)": {
        "notice": "redeemALR is used to redeem ALR toke for its underlying asset + interest"
      },
      "repay()": {
        "notice": "repay is used to repay a loan"
      },
      "setBaseRate(uint256)": {
        "notice": "setBaseRate allows the owner of this contract to set the baseRate"
      },
      "setCollateralizationRatio(uint256)": {
        "notice": "setCollateralizationRatio allows the owner of this contract to set the collateralizationRatio"
      },
      "setFee(uint256)": {
        "notice": "setFee allows the owner of this contract to set the fee"
      },
      "setMultiplierM(uint256)": {
        "notice": "setMultiplierM allows the owner of this contract to set the multiplierM"
      },
      "setMultiplierN(uint256)": {
        "notice": "setMultiplierM allows the owner of this contract to set the multiplierN"
      },
      "setOptimal(uint256)": {
        "notice": "setOptimal allows the owner of this contract to set the optimal"
      },
      "setUp(uint256,uint256,uint256,uint256,uint256,uint256)": {
        "notice": "setUp is called by the owner after a contract is created to set up the initial variables. This is split from the constructor function to keep from reaching the gas block limit"
      }
    },
    "notice": "The MoneyMarketInstance contract is designed facilitate a tiered money market for an individual ERC20 asset This contract uses the OpenZeppelin contract Library to inherit functions from Ownable.sol && IRC20.sol*"
  }
}